{
  "abi": [
    {
      "inputs": [
        {
          "internalType": "address",
          "name": "_houseAddr",
          "type": "address"
        }
      ],
      "name": "GetHouseProperties",
      "outputs": [
        {
          "internalType": "string",
          "name": "HOUSE_NAME",
          "type": "string"
        },
        {
          "internalType": "bytes32",
          "name": "HOUSE_GOVERNANCE_MODEL",
          "type": "bytes32"
        },
        {
          "internalType": "bool",
          "name": "housePrivate",
          "type": "bool"
        },
        {
          "internalType": "uint8",
          "name": "numActiveMembers",
          "type": "uint8"
        },
        {
          "internalType": "uint8",
          "name": "numManagerMembers",
          "type": "uint8"
        },
        {
          "internalType": "uint8",
          "name": "govRuleApprovPercentage",
          "type": "uint8"
        },
        {
          "internalType": "uint8",
          "name": "govRuleMaxActiveMembers",
          "type": "uint8"
        },
        {
          "internalType": "uint8",
          "name": "govRuleMaxManagerMembers",
          "type": "uint8"
        }
      ],
      "stateMutability": "view",
      "type": "function"
    },
    {
      "inputs": [
        {
          "internalType": "address",
          "name": "_houseAddr",
          "type": "address"
        }
      ],
      "name": "GetHouseUserList",
      "outputs": [
        {
          "components": [
            {
              "internalType": "address",
              "name": "walletAddr",
              "type": "address"
            },
            {
              "internalType": "string",
              "name": "name",
              "type": "string"
            },
            {
              "internalType": "uint256",
              "name": "balance",
              "type": "uint256"
            },
            {
              "internalType": "bool",
              "name": "isMember",
              "type": "bool"
            },
            {
              "internalType": "bool",
              "name": "isManager",
              "type": "bool"
            }
          ],
          "internalType": "struct strMember[]",
          "name": "arrMembers",
          "type": "tuple[]"
        }
      ],
      "stateMutability": "view",
      "type": "function"
    },
    {
      "inputs": [
        {
          "internalType": "address",
          "name": "_houseAddr",
          "type": "address"
        },
        {
          "internalType": "address",
          "name": "_walletAddr",
          "type": "address"
        }
      ],
      "name": "GetUserInfoByAddress",
      "outputs": [
        {
          "internalType": "string",
          "name": "name",
          "type": "string"
        },
        {
          "internalType": "uint256",
          "name": "balance",
          "type": "uint256"
        },
        {
          "internalType": "bool",
          "name": "isMember",
          "type": "bool"
        },
        {
          "internalType": "bool",
          "name": "isManager",
          "type": "bool"
        }
      ],
      "stateMutability": "view",
      "type": "function"
    },
    {
      "inputs": [
        {
          "internalType": "address",
          "name": "_walletAddr",
          "type": "address"
        },
        {
          "internalType": "string",
          "name": "_description",
          "type": "string"
        },
        {
          "internalType": "uint256",
          "name": "_delayTime",
          "type": "uint256"
        },
        {
          "internalType": "address",
          "name": "_houseAddr",
          "type": "address"
        },
        {
          "internalType": "bytes",
          "name": "_signature",
          "type": "bytes"
        }
      ],
      "name": "SignerOCDelMember",
      "outputs": [
        {
          "internalType": "address",
          "name": "",
          "type": "address"
        }
      ],
      "stateMutability": "view",
      "type": "function"
    },
    {
      "inputs": [
        {
          "internalType": "bool",
          "name": "_acceptance",
          "type": "bool"
        },
        {
          "internalType": "address",
          "name": "_houseAddr",
          "type": "address"
        },
        {
          "internalType": "bytes",
          "name": "_signature",
          "type": "bytes"
        }
      ],
      "name": "SignerOCInvit",
      "outputs": [
        {
          "internalType": "address",
          "name": "",
          "type": "address"
        }
      ],
      "stateMutability": "view",
      "type": "function"
    },
    {
      "inputs": [
        {
          "internalType": "string",
          "name": "_houseName",
          "type": "string"
        },
        {
          "internalType": "bool",
          "name": "_housePrivate",
          "type": "bool"
        },
        {
          "internalType": "bytes32",
          "name": "_gov",
          "type": "bytes32"
        },
        {
          "internalType": "uint8",
          "name": "_govRuleMaxManagerMembers",
          "type": "uint8"
        },
        {
          "internalType": "uint8",
          "name": "_govRuleMaxActiveMembers",
          "type": "uint8"
        },
        {
          "internalType": "uint8",
          "name": "_govRuleApprovPercentage",
          "type": "uint8"
        },
        {
          "internalType": "address",
          "name": "_whiteListWallets",
          "type": "address"
        },
        {
          "internalType": "address",
          "name": "_addrCLF",
          "type": "address"
        },
        {
          "internalType": "bytes",
          "name": "_signature",
          "type": "bytes"
        }
      ],
      "name": "SignerOCNewCLH",
      "outputs": [
        {
          "internalType": "address",
          "name": "",
          "type": "address"
        }
      ],
      "stateMutability": "view",
      "type": "function"
    },
    {
      "inputs": [
        {
          "internalType": "address",
          "name": "_walletAddr",
          "type": "address"
        },
        {
          "internalType": "string",
          "name": "_name",
          "type": "string"
        },
        {
          "internalType": "string",
          "name": "_description",
          "type": "string"
        },
        {
          "internalType": "bool",
          "name": "_isManager",
          "type": "bool"
        },
        {
          "internalType": "uint256",
          "name": "_delayTime",
          "type": "uint256"
        },
        {
          "internalType": "address",
          "name": "_houseAddr",
          "type": "address"
        },
        {
          "internalType": "bytes",
          "name": "_signature",
          "type": "bytes"
        }
      ],
      "name": "SignerOCNewMember",
      "outputs": [
        {
          "internalType": "address",
          "name": "",
          "type": "address"
        }
      ],
      "stateMutability": "view",
      "type": "function"
    },
    {
      "inputs": [
        {
          "internalType": "string",
          "name": "_name",
          "type": "string"
        },
        {
          "internalType": "string",
          "name": "_description",
          "type": "string"
        },
        {
          "internalType": "address",
          "name": "_houseAddr",
          "type": "address"
        },
        {
          "internalType": "bytes",
          "name": "_signature",
          "type": "bytes"
        }
      ],
      "name": "SignerOCRequest",
      "outputs": [
        {
          "internalType": "address",
          "name": "",
          "type": "address"
        }
      ],
      "stateMutability": "view",
      "type": "function"
    },
    {
      "inputs": [
        {
          "internalType": "uint256",
          "name": "_propId",
          "type": "uint256"
        },
        {
          "internalType": "bool",
          "name": "_support",
          "type": "bool"
        },
        {
          "internalType": "string",
          "name": "_justification",
          "type": "string"
        },
        {
          "internalType": "address",
          "name": "_houseAddr",
          "type": "address"
        },
        {
          "internalType": "bytes",
          "name": "_signature",
          "type": "bytes"
        }
      ],
      "name": "SignerOCVote",
      "outputs": [
        {
          "internalType": "address",
          "name": "",
          "type": "address"
        }
      ],
      "stateMutability": "view",
      "type": "function"
    },
    {
      "inputs": [
        {
          "internalType": "bytes32",
          "name": "_msghash",
          "type": "bytes32"
        },
        {
          "internalType": "bytes",
          "name": "_signature",
          "type": "bytes"
        }
      ],
      "name": "SignerOfMsg",
      "outputs": [
        {
          "internalType": "address",
          "name": "",
          "type": "address"
        }
      ],
      "stateMutability": "pure",
      "type": "function"
    }
  ],
  "bytecode": "608060405234801561001057600080fd5b50611da1806100206000396000f3fe608060405234801561001057600080fd5b506004361061009e5760003560e01c806389ab062a1161006657806389ab062a146101435780639f6fd7ab14610156578063b698be8d14610169578063bd8ccad514610189578063f746b0031461019c57600080fd5b8063364ae0d8146100a3578063622eca77146100d35780637b3bb156146100e657806386abd826146100f95780638750bc3e1461011c575b600080fd5b6100b66100b13660046114d8565b6101af565b6040516001600160a01b0390911681526020015b60405180910390f35b6100b66100e13660046115b3565b6103f0565b6100b66100f43660046115fa565b6104b4565b61010c610107366004611697565b61064b565b6040516100ca949392919061172c565b61012f61012a36600461175d565b610817565b6040516100ca989796959493929190611781565b6100b66101513660046117d4565b610b58565b6100b6610164366004611869565b610ce4565b61017c61017736600461175d565b610e07565b6040516100ca91906118cb565b6100b661019736600461196f565b61103a565b6100b66101aa366004611a3a565b611237565b6000806040516020016101c190611a9f565b60405160208183030381529060405280519060200120600080516020611d2c833981519152600080516020611d4c833981519152468760405160200161020b959493929190611b09565b6040516020818303038152906040528051906020012090506000604051602001610308907f7374724f434e6577434c4828737472696e6720686f7573654e616d652c626f6f81527f6c20686f757365507269766174652c6279746573333220676f762c75696e743860208201527f20676f7652756c654d61784d616e616765724d656d626572732c75696e74382060408201527f676f7652756c654d61784163746976654d656d626572732c75696e743820676f60608201527f7652756c65417070726f7650657263656e746167652c6164647265737320776860808201526e6974654c69737457616c6c6574732960881b60a082015260af0190565b604051602081830303815290604052805190602001208c60405160200161032f9190611b35565b60408051601f198184030181528282528051602091820120908301939093528101919091528b15156060820152608081018b905260ff808b1660a0830152808a1660c0830152881660e08201526001600160a01b03871661010082015261012001604051602081830303815290604052805190602001209050600082826040516020016103bd929190611b51565b6040516020818303038152906040528051906020012090506103df81866103f0565b9d9c50505050505050505050505050565b6000815160411461043f5760405162461bcd60e51b8152602060048201526014602482015273084c2c840e6d2cedcc2e8eae4ca40d8cadccee8d60631b60448201526064015b60405180910390fd5b602082810151604080850151606080870151835160008082529681018086528a9052951a928501839052840183905260808401819052919260019060a0016020604051602081039080840390855afa15801561049f573d6000803e3d6000fd5b5050604051601f190151979650505050505050565b6000806040516020016104c690611a9f565b60405160208183030381529060405280519060200120600080516020611d2c833981519152600080516020611d4c8339815191524687604051602001610510959493929190611b09565b6040516020818303038152906040528051906020012090506000604051602001610572907f7374724f435265717565737428737472696e67206e616d652c737472696e672081526b6465736372697074696f6e2960a01b6020820152602c0190565b60405160208183030381529060405280519060200120876040516020016105999190611b35565b60405160208183030381529060405280519060200120876040516020016105c09190611b35565b60408051601f1981840301815282825280516020918201209083019490945281019190915260608101919091526080016040516020818303038152906040528051906020012090506000828260405160200161061d929190611b51565b60405160208183030381529060405280519060200120905061063f81866103f0565b98975050505050505050565b6040516309c57df760e01b81526001600160a01b03828116600483015260609160009182918291879183918316906309c57df790602401602060405180830381865afa15801561069f573d6000803e3d6000fd5b505050506040513d601f19601f820116820180604052508101906106c39190611b6c565b9050806107085760405162461bcd60e51b815260206004820152601360248201527241646472657373206e6f74206578697374212160681b6044820152606401610436565b610710611387565b604051638532cbf760e01b8152600481018390526001600160a01b03841690638532cbf790602401600060405180830381865afa158015610755573d6000803e3d6000fd5b505050506040513d6000823e601f3d908101601f1916820160405261077d9190810190611bd2565b15156080860152151560608501819052604085019190915260208401919091526001600160a01b0390911682526001146107f05760405162461bcd60e51b81526020600482015260146024820152732ab9b2b91034b9903737ba10309026b2b6b132b960611b6044820152606401610436565b602081015160408201516060830151608090930151919b909a509198509650945050505050565b6060600080600080600080600080899050806001600160a01b03166359ca2d036040518163ffffffff1660e01b8152600401600060405180830381865afa158015610866573d6000803e3d6000fd5b505050506040513d6000823e601f3d908101601f1916820160405261088e9190810190611c55565b816001600160a01b0316631d5fd3ca6040518163ffffffff1660e01b8152600401602060405180830381865afa1580156108cc573d6000803e3d6000fd5b505050506040513d601f19601f820116820180604052508101906108f09190611b6c565b826001600160a01b031663f00d62746040518163ffffffff1660e01b8152600401602060405180830381865afa15801561092e573d6000803e3d6000fd5b505050506040513d601f19601f820116820180604052508101906109529190611c8a565b836001600160a01b031663da9bca216040518163ffffffff1660e01b8152600401602060405180830381865afa158015610990573d6000803e3d6000fd5b505050506040513d601f19601f820116820180604052508101906109b49190611ca7565b846001600160a01b0316638668eafc6040518163ffffffff1660e01b8152600401602060405180830381865afa1580156109f2573d6000803e3d6000fd5b505050506040513d601f19601f82011682018060405250810190610a169190611ca7565b856001600160a01b0316639c630a886040518163ffffffff1660e01b8152600401602060405180830381865afa158015610a54573d6000803e3d6000fd5b505050506040513d601f19601f82011682018060405250810190610a789190611ca7565b866001600160a01b031663ab44997b6040518163ffffffff1660e01b8152600401602060405180830381865afa158015610ab6573d6000803e3d6000fd5b505050506040513d601f19601f82011682018060405250810190610ada9190611ca7565b876001600160a01b03166305fe66636040518163ffffffff1660e01b8152600401602060405180830381865afa158015610b18573d6000803e3d6000fd5b505050506040513d601f19601f82011682018060405250810190610b3c9190611ca7565b9850985098509850985098509850985050919395975091939597565b600080604051602001610b6a90611a9f565b60405160208183030381529060405280519060200120600080516020611d2c833981519152600080516020611d4c8339815191524687604051602001610bb4959493929190611b09565b6040516020818303038152906040528051906020012090506000604051602001610c27907f7374724f43566f74652875696e743235362070726f7049642c626f6f6c20737581527f70706f72742c737472696e67206a757374696669636174696f6e2900000000006020820152603b0190565b60405160208183030381529060405280519060200120888888604051602001610c509190611b35565b60408051601f1981840301815282825280516020918201209083019590955281019290925215156060820152608081019190915260a0015b60405160208183030381529060405280519060200120905060008282604051602001610cb5929190611b51565b604051602081830303815290604052805190602001209050610cd781866103f0565b9998505050505050505050565b600080604051602001610cf690611a9f565b60405160208183030381529060405280519060200120600080516020611d2c833981519152600080516020611d4c8339815191524687604051602001610d40959493929190611b09565b6040516020818303038152906040528051906020012090506000604051602001610d8d907f7374724f43496e76697428626f6f6c20616363657074616e63652900000000008152601b0190565b60408051808303601f19018152828252805160209182012081840152881515838301528151808403830181526060840190925281519101209150600090610dda9084908490608001611b51565b604051602081830303815290604052805190602001209050610dfc81866103f0565b979650505050505050565b606060008290506000816001600160a01b031663da9bca216040518163ffffffff1660e01b8152600401602060405180830381865afa158015610e4e573d6000803e3d6000fd5b505050506040513d601f19601f82011682018060405250810190610e729190611ca7565b90506000826001600160a01b031663824c88da6040518163ffffffff1660e01b8152600401602060405180830381865afa158015610eb4573d6000803e3d6000fd5b505050506040513d601f19601f82011682018060405250810190610ed89190611b6c565b905060008260ff1667ffffffffffffffff811115610ef857610ef86113c3565b604051908082528060200260200182016040528015610f3157816020015b610f1e611387565b815260200190600190039081610f165790505b509050600060015b8381101561102e57610f49611387565b604051638532cbf760e01b8152600481018390526001600160a01b03881690638532cbf790602401600060405180830381865afa158015610f8e573d6000803e3d6000fd5b505050506040513d6000823e601f3d908101601f19168201604052610fb69190810190611bd2565b15156080860152151560608501819052604085019190915260208401919091526001600160a01b0390911682526001141561101b5780848460ff168151811061100157611001611cc4565b6020026020010181905250828061101790611cf0565b9350505b508061102681611d10565b915050610f39565b50909695505050505050565b60008060405160200161104c90611a9f565b60405160208183030381529060405280519060200120600080516020611d2c833981519152600080516020611d4c8339815191524687604051602001611096959493929190611b09565b604051602081830303815290604052805190602001209050600060405160200161113a907f7374724f434e65774d656d62657228616464726573732077616c6c657441646481527f722c737472696e67206e616d652c737472696e67206465736372697074696f6e60208201527f2c626f6f6c2069734d616e616765722c75696e743235362064656c617954696d604082015261652960f01b606082015260620190565b604051602081830303815290604052805190602001208a8a6040516020016111629190611b35565b604051602081830303815290604052805190602001208a6040516020016111899190611b35565b60408051601f198184030181528282528051602091820120908301959095526001600160a01b03909316928101929092526060820152608081019190915287151560a082015260c0810187905260e00160405160208183030381529060405280519060200120905060008282604051602001611206929190611b51565b60405160208183030381529060405280519060200120905061122881866103f0565b9b9a5050505050505050505050565b60008060405160200161124990611a9f565b60405160208183030381529060405280519060200120600080516020611d2c833981519152600080516020611d4c8339815191524687604051602001611293959493929190611b09565b6040516020818303038152906040528051906020012090506000604051602001611316907f7374724f4344656c4d656d62657228616464726573732077616c6c657441646481527f722c737472696e67206465736372697074696f6e2c75696e743235362064656c602082015266617954696d652960c81b604082015260470190565b60405160208183030381529060405280519060200120888860405160200161133e9190611b35565b6040516020818303038152906040528051906020012088604051602001610c8894939291909384526001600160a01b039290921660208401526040830152606082015260800190565b6040518060a0016040528060006001600160a01b0316815260200160608152602001600081526020016000151581526020016000151581525090565b634e487b7160e01b600052604160045260246000fd5b604051601f8201601f1916810167ffffffffffffffff81118282101715611402576114026113c3565b604052919050565b600067ffffffffffffffff821115611424576114246113c3565b50601f01601f191660200190565b600082601f83011261144357600080fd5b81356114566114518261140a565b6113d9565b81815284602083860101111561146b57600080fd5b816020850160208301376000918101602001919091529392505050565b801515811461149657600080fd5b50565b60ff8116811461149657600080fd5b80356114b381611499565b919050565b6001600160a01b038116811461149657600080fd5b80356114b3816114b8565b60008060008060008060008060006101208a8c0312156114f757600080fd5b893567ffffffffffffffff8082111561150f57600080fd5b61151b8d838e01611432565b9a5060208c0135915061152d82611488565b90985060408b0135975060608b01359061154682611499565b81975061155560808d016114a8565b965061156360a08d016114a8565b955061157160c08d016114cd565b945061157f60e08d016114cd565b93506101008c013591508082111561159657600080fd5b506115a38c828d01611432565b9150509295985092959850929598565b600080604083850312156115c657600080fd5b82359150602083013567ffffffffffffffff8111156115e457600080fd5b6115f085828601611432565b9150509250929050565b6000806000806080858703121561161057600080fd5b843567ffffffffffffffff8082111561162857600080fd5b61163488838901611432565b9550602087013591508082111561164a57600080fd5b61165688838901611432565b945060408701359150611668826114b8565b9092506060860135908082111561167e57600080fd5b5061168b87828801611432565b91505092959194509250565b600080604083850312156116aa57600080fd5b82356116b5816114b8565b915060208301356116c5816114b8565b809150509250929050565b60005b838110156116eb5781810151838201526020016116d3565b838111156116fa576000848401525b50505050565b600081518084526117188160208601602086016116d0565b601f01601f19169290920160200192915050565b60808152600061173f6080830187611700565b60208301959095525091151560408301521515606090910152919050565b60006020828403121561176f57600080fd5b813561177a816114b8565b9392505050565b60006101008083526117958184018c611700565b602084019a909a525050951515604087015260ff9485166060870152928416608086015290831660a0850152821660c08401521660e090910152919050565b600080600080600060a086880312156117ec57600080fd5b8535945060208601356117fe81611488565b9350604086013567ffffffffffffffff8082111561181b57600080fd5b61182789838a01611432565b945060608801359150611839826114b8565b9092506080870135908082111561184f57600080fd5b5061185c88828901611432565b9150509295509295909350565b60008060006060848603121561187e57600080fd5b833561188981611488565b92506020840135611899816114b8565b9150604084013567ffffffffffffffff8111156118b557600080fd5b6118c186828701611432565b9150509250925092565b60006020808301818452808551808352604092508286019150828160051b87010184880160005b8381101561196157888303603f19018552815180516001600160a01b031684528781015160a08986018190529061192b82870182611700565b838a0151878b015260608085015115159088015260809384015115159390960192909252505093860193908601906001016118f2565b509098975050505050505050565b600080600080600080600060e0888a03121561198a57600080fd5b8735611995816114b8565b9650602088013567ffffffffffffffff808211156119b257600080fd5b6119be8b838c01611432565b975060408a01359150808211156119d457600080fd5b6119e08b838c01611432565b965060608a013591506119f282611488565b81955060808a01359450611a0860a08b016114cd565b935060c08a0135915080821115611a1e57600080fd5b50611a2b8a828b01611432565b91505092959891949750929550565b600080600080600060a08688031215611a5257600080fd5b8535611a5d816114b8565b9450602086013567ffffffffffffffff80821115611a7a57600080fd5b611a8689838a01611432565b95506040880135945060608801359150611839826114b8565b7f454950373132446f6d61696e28737472696e67206e616d652c737472696e672081527f76657273696f6e2c75696e7432353620636861696e49642c6164647265737320602082015271766572696679696e67436f6e74726163742960701b604082015260520190565b9485526020850193909352604084019190915260608301526001600160a01b0316608082015260a00190565b60008251611b478184602087016116d0565b9190910192915050565b61190160f01b81526002810192909252602282015260420190565b600060208284031215611b7e57600080fd5b5051919050565b600082601f830112611b9657600080fd5b8151611ba46114518261140a565b818152846020838601011115611bb957600080fd5b611bca8260208301602087016116d0565b949350505050565b600080600080600060a08688031215611bea57600080fd5b8551611bf5816114b8565b602087015190955067ffffffffffffffff811115611c1257600080fd5b611c1e88828901611b85565b945050604086015192506060860151611c3681611488565b6080870151909250611c4781611488565b809150509295509295909350565b600060208284031215611c6757600080fd5b815167ffffffffffffffff811115611c7e57600080fd5b611bca84828501611b85565b600060208284031215611c9c57600080fd5b815161177a81611488565b600060208284031215611cb957600080fd5b815161177a81611499565b634e487b7160e01b600052603260045260246000fd5b634e487b7160e01b600052601160045260246000fd5b600060ff821660ff811415611d0757611d07611cda565b60010192915050565b6000600019821415611d2457611d24611cda565b506001019056fe01318895af1f6db161b2ba745b8e57a6b46efad77d736630379ec69c3cd4c87507ef8ec374e43c85c540da8f69de7866f66e96deb3aa6b597df20e0ff3ce0c64a26469706673582212201d27591366abcb850af39665ca48b5685c15b71f5aaa16e9bb20845ca1159c8464736f6c634300080c0033",
  "bytecodeSha1": "9b549373d07a0112439d2325c8299a82c7fc9ee6",
  "compiler": {
    "evm_version": "istanbul",
    "optimizer": {
      "enabled": true,
      "runs": 200
    },
    "version": "0.8.12+commit.f00d7308"
  },
  "contractName": "ApiCLHouse",
  "language": "Solidity",
  "natspec": {
    "author": "Leonardo Urrego",
    "kind": "dev",
    "methods": {
      "GetHouseProperties(address)": {
        "notice": "All properties of a House",
        "params": {
          "_houseAddr": "CLH address"
        },
        "returns": {
          "HOUSE_GOVERNANCE_MODEL": "Hash of governance model",
          "HOUSE_NAME": "name of the CLH",
          "govRuleApprovPercentage": "Percentage for approval o reject proposal based on `numManagerMembers`",
          "govRuleMaxActiveMembers": "Max of all members (including managers)",
          "govRuleMaxManagerMembers": "Max of manager member that CLH can accept (only for COMMITTEE )",
          "housePrivate": "True if is private",
          "numActiveMembers": "Current members of a CLH",
          "numManagerMembers": "Current managers of a CLH"
        }
      },
      "GetHouseUserList(address)": {
        "notice": "The list of all members address",
        "params": {
          "_houseAddr": "address of the CLH"
        },
        "returns": {
          "arrMembers": "array with list of members"
        }
      },
      "GetUserInfoByAddress(address,address)": {
        "notice": "Get the info of an user in one especific CLH",
        "params": {
          "_houseAddr": "Address of the CLH",
          "_walletAddr": "Address of the user"
        },
        "returns": {
          "balance": "How much money have deposited",
          "isManager": "true if is manager",
          "isMember": "true if is member",
          "name": "Nickname ot other user identificaction"
        }
      },
      "SignerOfMsg(bytes32,bytes)": {
        "notice": "A funtion to verify the signer of a menssage",
        "params": {
          "_msghash": "Hash of the message",
          "_signature": "Signature of the message"
        },
        "returns": {
          "_0": "Signer address of the message"
        }
      }
    },
    "notice": "This contract is only for test ",
    "title": "Some funtions to interact with a CLHouse",
    "version": 1
  },
  "opcodes": "PUSH1 0x80 PUSH1 0x40 MSTORE CALLVALUE DUP1 ISZERO PUSH2 0x10 JUMPI PUSH1 0x0 DUP1 REVERT JUMPDEST POP PUSH1 0x4 CALLDATASIZE LT PUSH2 0x9E JUMPI PUSH1 0x0 CALLDATALOAD PUSH1 0xE0 SHR DUP1 PUSH4 0x89AB062A GT PUSH2 0x66 JUMPI DUP1 PUSH4 0x89AB062A EQ PUSH2 0x143 JUMPI DUP1 PUSH4 0x9F6FD7AB EQ PUSH2 0x156 JUMPI DUP1 PUSH4 0xB698BE8D EQ PUSH2 0x169 JUMPI DUP1 PUSH4 0xBD8CCAD5 EQ PUSH2 0x189 JUMPI DUP1 PUSH4 0xF746B003 EQ PUSH2 0x19C JUMPI PUSH1 0x0 DUP1 REVERT JUMPDEST DUP1 PUSH4 0x364AE0D8 EQ PUSH2 0xA3 JUMPI DUP1 PUSH4 0x622ECA77 EQ PUSH2 0xD3 JUMPI DUP1 PUSH4 0x7B3BB156 EQ PUSH2 0xE6 JUMPI DUP1 PUSH4 0x86ABD826 EQ PUSH2 0xF9 JUMPI DUP1 PUSH4 0x8750BC3E EQ PUSH2 0x11C JUMPI JUMPDEST PUSH1 0x0 DUP1 REVERT JUMPDEST PUSH2 0xB6 PUSH2 0xB1 CALLDATASIZE PUSH1 0x4 PUSH2 0x14D8 JUMP JUMPDEST PUSH2 0x1AF JUMP JUMPDEST PUSH1 0x40 MLOAD PUSH1 0x1 PUSH1 0x1 PUSH1 0xA0 SHL SUB SWAP1 SWAP2 AND DUP2 MSTORE PUSH1 0x20 ADD JUMPDEST PUSH1 0x40 MLOAD DUP1 SWAP2 SUB SWAP1 RETURN JUMPDEST PUSH2 0xB6 PUSH2 0xE1 CALLDATASIZE PUSH1 0x4 PUSH2 0x15B3 JUMP JUMPDEST PUSH2 0x3F0 JUMP JUMPDEST PUSH2 0xB6 PUSH2 0xF4 CALLDATASIZE PUSH1 0x4 PUSH2 0x15FA JUMP JUMPDEST PUSH2 0x4B4 JUMP JUMPDEST PUSH2 0x10C PUSH2 0x107 CALLDATASIZE PUSH1 0x4 PUSH2 0x1697 JUMP JUMPDEST PUSH2 0x64B JUMP JUMPDEST PUSH1 0x40 MLOAD PUSH2 0xCA SWAP5 SWAP4 SWAP3 SWAP2 SWAP1 PUSH2 0x172C JUMP JUMPDEST PUSH2 0x12F PUSH2 0x12A CALLDATASIZE PUSH1 0x4 PUSH2 0x175D JUMP JUMPDEST PUSH2 0x817 JUMP JUMPDEST PUSH1 0x40 MLOAD PUSH2 0xCA SWAP9 SWAP8 SWAP7 SWAP6 SWAP5 SWAP4 SWAP3 SWAP2 SWAP1 PUSH2 0x1781 JUMP JUMPDEST PUSH2 0xB6 PUSH2 0x151 CALLDATASIZE PUSH1 0x4 PUSH2 0x17D4 JUMP JUMPDEST PUSH2 0xB58 JUMP JUMPDEST PUSH2 0xB6 PUSH2 0x164 CALLDATASIZE PUSH1 0x4 PUSH2 0x1869 JUMP JUMPDEST PUSH2 0xCE4 JUMP JUMPDEST PUSH2 0x17C PUSH2 0x177 CALLDATASIZE PUSH1 0x4 PUSH2 0x175D JUMP JUMPDEST PUSH2 0xE07 JUMP JUMPDEST PUSH1 0x40 MLOAD PUSH2 0xCA SWAP2 SWAP1 PUSH2 0x18CB JUMP JUMPDEST PUSH2 0xB6 PUSH2 0x197 CALLDATASIZE PUSH1 0x4 PUSH2 0x196F JUMP JUMPDEST PUSH2 0x103A JUMP JUMPDEST PUSH2 0xB6 PUSH2 0x1AA CALLDATASIZE PUSH1 0x4 PUSH2 0x1A3A JUMP JUMPDEST PUSH2 0x1237 JUMP JUMPDEST PUSH1 0x0 DUP1 PUSH1 0x40 MLOAD PUSH1 0x20 ADD PUSH2 0x1C1 SWAP1 PUSH2 0x1A9F JUMP JUMPDEST PUSH1 0x40 MLOAD PUSH1 0x20 DUP2 DUP4 SUB SUB DUP2 MSTORE SWAP1 PUSH1 0x40 MSTORE DUP1 MLOAD SWAP1 PUSH1 0x20 ADD KECCAK256 PUSH1 0x0 DUP1 MLOAD PUSH1 0x20 PUSH2 0x1D2C DUP4 CODECOPY DUP2 MLOAD SWAP2 MSTORE PUSH1 0x0 DUP1 MLOAD PUSH1 0x20 PUSH2 0x1D4C DUP4 CODECOPY DUP2 MLOAD SWAP2 MSTORE CHAINID DUP8 PUSH1 0x40 MLOAD PUSH1 0x20 ADD PUSH2 0x20B SWAP6 SWAP5 SWAP4 SWAP3 SWAP2 SWAP1 PUSH2 0x1B09 JUMP JUMPDEST PUSH1 0x40 MLOAD PUSH1 0x20 DUP2 DUP4 SUB SUB DUP2 MSTORE SWAP1 PUSH1 0x40 MSTORE DUP1 MLOAD SWAP1 PUSH1 0x20 ADD KECCAK256 SWAP1 POP PUSH1 0x0 PUSH1 0x40 MLOAD PUSH1 0x20 ADD PUSH2 0x308 SWAP1 PUSH32 0x7374724F434E6577434C4828737472696E6720686F7573654E616D652C626F6F DUP2 MSTORE PUSH32 0x6C20686F757365507269766174652C6279746573333220676F762C75696E7438 PUSH1 0x20 DUP3 ADD MSTORE PUSH32 0x20676F7652756C654D61784D616E616765724D656D626572732C75696E743820 PUSH1 0x40 DUP3 ADD MSTORE PUSH32 0x676F7652756C654D61784163746976654D656D626572732C75696E743820676F PUSH1 0x60 DUP3 ADD MSTORE PUSH32 0x7652756C65417070726F7650657263656E746167652C61646472657373207768 PUSH1 0x80 DUP3 ADD MSTORE PUSH15 0x6974654C69737457616C6C65747329 PUSH1 0x88 SHL PUSH1 0xA0 DUP3 ADD MSTORE PUSH1 0xAF ADD SWAP1 JUMP JUMPDEST PUSH1 0x40 MLOAD PUSH1 0x20 DUP2 DUP4 SUB SUB DUP2 MSTORE SWAP1 PUSH1 0x40 MSTORE DUP1 MLOAD SWAP1 PUSH1 0x20 ADD KECCAK256 DUP13 PUSH1 0x40 MLOAD PUSH1 0x20 ADD PUSH2 0x32F SWAP2 SWAP1 PUSH2 0x1B35 JUMP JUMPDEST PUSH1 0x40 DUP1 MLOAD PUSH1 0x1F NOT DUP2 DUP5 SUB ADD DUP2 MSTORE DUP3 DUP3 MSTORE DUP1 MLOAD PUSH1 0x20 SWAP2 DUP3 ADD KECCAK256 SWAP1 DUP4 ADD SWAP4 SWAP1 SWAP4 MSTORE DUP2 ADD SWAP2 SWAP1 SWAP2 MSTORE DUP12 ISZERO ISZERO PUSH1 0x60 DUP3 ADD MSTORE PUSH1 0x80 DUP2 ADD DUP12 SWAP1 MSTORE PUSH1 0xFF DUP1 DUP12 AND PUSH1 0xA0 DUP4 ADD MSTORE DUP1 DUP11 AND PUSH1 0xC0 DUP4 ADD MSTORE DUP9 AND PUSH1 0xE0 DUP3 ADD MSTORE PUSH1 0x1 PUSH1 0x1 PUSH1 0xA0 SHL SUB DUP8 AND PUSH2 0x100 DUP3 ADD MSTORE PUSH2 0x120 ADD PUSH1 0x40 MLOAD PUSH1 0x20 DUP2 DUP4 SUB SUB DUP2 MSTORE SWAP1 PUSH1 0x40 MSTORE DUP1 MLOAD SWAP1 PUSH1 0x20 ADD KECCAK256 SWAP1 POP PUSH1 0x0 DUP3 DUP3 PUSH1 0x40 MLOAD PUSH1 0x20 ADD PUSH2 0x3BD SWAP3 SWAP2 SWAP1 PUSH2 0x1B51 JUMP JUMPDEST PUSH1 0x40 MLOAD PUSH1 0x20 DUP2 DUP4 SUB SUB DUP2 MSTORE SWAP1 PUSH1 0x40 MSTORE DUP1 MLOAD SWAP1 PUSH1 0x20 ADD KECCAK256 SWAP1 POP PUSH2 0x3DF DUP2 DUP7 PUSH2 0x3F0 JUMP JUMPDEST SWAP14 SWAP13 POP POP POP POP POP POP POP POP POP POP POP POP POP JUMP JUMPDEST PUSH1 0x0 DUP2 MLOAD PUSH1 0x41 EQ PUSH2 0x43F JUMPI PUSH1 0x40 MLOAD PUSH3 0x461BCD PUSH1 0xE5 SHL DUP2 MSTORE PUSH1 0x20 PUSH1 0x4 DUP3 ADD MSTORE PUSH1 0x14 PUSH1 0x24 DUP3 ADD MSTORE PUSH20 0x84C2C840E6D2CEDCC2E8EAE4CA40D8CADCCEE8D PUSH1 0x63 SHL PUSH1 0x44 DUP3 ADD MSTORE PUSH1 0x64 ADD JUMPDEST PUSH1 0x40 MLOAD DUP1 SWAP2 SUB SWAP1 REVERT JUMPDEST PUSH1 0x20 DUP3 DUP2 ADD MLOAD PUSH1 0x40 DUP1 DUP6 ADD MLOAD PUSH1 0x60 DUP1 DUP8 ADD MLOAD DUP4 MLOAD PUSH1 0x0 DUP1 DUP3 MSTORE SWAP7 DUP2 ADD DUP1 DUP7 MSTORE DUP11 SWAP1 MSTORE SWAP6 BYTE SWAP3 DUP6 ADD DUP4 SWAP1 MSTORE DUP5 ADD DUP4 SWAP1 MSTORE PUSH1 0x80 DUP5 ADD DUP2 SWAP1 MSTORE SWAP2 SWAP3 PUSH1 0x1 SWAP1 PUSH1 0xA0 ADD PUSH1 0x20 PUSH1 0x40 MLOAD PUSH1 0x20 DUP2 SUB SWAP1 DUP1 DUP5 SUB SWAP1 DUP6 GAS STATICCALL ISZERO DUP1 ISZERO PUSH2 0x49F JUMPI RETURNDATASIZE PUSH1 0x0 DUP1 RETURNDATACOPY RETURNDATASIZE PUSH1 0x0 REVERT JUMPDEST POP POP PUSH1 0x40 MLOAD PUSH1 0x1F NOT ADD MLOAD SWAP8 SWAP7 POP POP POP POP POP POP POP JUMP JUMPDEST PUSH1 0x0 DUP1 PUSH1 0x40 MLOAD PUSH1 0x20 ADD PUSH2 0x4C6 SWAP1 PUSH2 0x1A9F JUMP JUMPDEST PUSH1 0x40 MLOAD PUSH1 0x20 DUP2 DUP4 SUB SUB DUP2 MSTORE SWAP1 PUSH1 0x40 MSTORE DUP1 MLOAD SWAP1 PUSH1 0x20 ADD KECCAK256 PUSH1 0x0 DUP1 MLOAD PUSH1 0x20 PUSH2 0x1D2C DUP4 CODECOPY DUP2 MLOAD SWAP2 MSTORE PUSH1 0x0 DUP1 MLOAD PUSH1 0x20 PUSH2 0x1D4C DUP4 CODECOPY DUP2 MLOAD SWAP2 MSTORE CHAINID DUP8 PUSH1 0x40 MLOAD PUSH1 0x20 ADD PUSH2 0x510 SWAP6 SWAP5 SWAP4 SWAP3 SWAP2 SWAP1 PUSH2 0x1B09 JUMP JUMPDEST PUSH1 0x40 MLOAD PUSH1 0x20 DUP2 DUP4 SUB SUB DUP2 MSTORE SWAP1 PUSH1 0x40 MSTORE DUP1 MLOAD SWAP1 PUSH1 0x20 ADD KECCAK256 SWAP1 POP PUSH1 0x0 PUSH1 0x40 MLOAD PUSH1 0x20 ADD PUSH2 0x572 SWAP1 PUSH32 0x7374724F435265717565737428737472696E67206E616D652C737472696E6720 DUP2 MSTORE PUSH12 0x6465736372697074696F6E29 PUSH1 0xA0 SHL PUSH1 0x20 DUP3 ADD MSTORE PUSH1 0x2C ADD SWAP1 JUMP JUMPDEST PUSH1 0x40 MLOAD PUSH1 0x20 DUP2 DUP4 SUB SUB DUP2 MSTORE SWAP1 PUSH1 0x40 MSTORE DUP1 MLOAD SWAP1 PUSH1 0x20 ADD KECCAK256 DUP8 PUSH1 0x40 MLOAD PUSH1 0x20 ADD PUSH2 0x599 SWAP2 SWAP1 PUSH2 0x1B35 JUMP JUMPDEST PUSH1 0x40 MLOAD PUSH1 0x20 DUP2 DUP4 SUB SUB DUP2 MSTORE SWAP1 PUSH1 0x40 MSTORE DUP1 MLOAD SWAP1 PUSH1 0x20 ADD KECCAK256 DUP8 PUSH1 0x40 MLOAD PUSH1 0x20 ADD PUSH2 0x5C0 SWAP2 SWAP1 PUSH2 0x1B35 JUMP JUMPDEST PUSH1 0x40 DUP1 MLOAD PUSH1 0x1F NOT DUP2 DUP5 SUB ADD DUP2 MSTORE DUP3 DUP3 MSTORE DUP1 MLOAD PUSH1 0x20 SWAP2 DUP3 ADD KECCAK256 SWAP1 DUP4 ADD SWAP5 SWAP1 SWAP5 MSTORE DUP2 ADD SWAP2 SWAP1 SWAP2 MSTORE PUSH1 0x60 DUP2 ADD SWAP2 SWAP1 SWAP2 MSTORE PUSH1 0x80 ADD PUSH1 0x40 MLOAD PUSH1 0x20 DUP2 DUP4 SUB SUB DUP2 MSTORE SWAP1 PUSH1 0x40 MSTORE DUP1 MLOAD SWAP1 PUSH1 0x20 ADD KECCAK256 SWAP1 POP PUSH1 0x0 DUP3 DUP3 PUSH1 0x40 MLOAD PUSH1 0x20 ADD PUSH2 0x61D SWAP3 SWAP2 SWAP1 PUSH2 0x1B51 JUMP JUMPDEST PUSH1 0x40 MLOAD PUSH1 0x20 DUP2 DUP4 SUB SUB DUP2 MSTORE SWAP1 PUSH1 0x40 MSTORE DUP1 MLOAD SWAP1 PUSH1 0x20 ADD KECCAK256 SWAP1 POP PUSH2 0x63F DUP2 DUP7 PUSH2 0x3F0 JUMP JUMPDEST SWAP9 SWAP8 POP POP POP POP POP POP POP POP JUMP JUMPDEST PUSH1 0x40 MLOAD PUSH4 0x9C57DF7 PUSH1 0xE0 SHL DUP2 MSTORE PUSH1 0x1 PUSH1 0x1 PUSH1 0xA0 SHL SUB DUP3 DUP2 AND PUSH1 0x4 DUP4 ADD MSTORE PUSH1 0x60 SWAP2 PUSH1 0x0 SWAP2 DUP3 SWAP2 DUP3 SWAP2 DUP8 SWAP2 DUP4 SWAP2 DUP4 AND SWAP1 PUSH4 0x9C57DF7 SWAP1 PUSH1 0x24 ADD PUSH1 0x20 PUSH1 0x40 MLOAD DUP1 DUP4 SUB DUP2 DUP7 GAS STATICCALL ISZERO DUP1 ISZERO PUSH2 0x69F JUMPI RETURNDATASIZE PUSH1 0x0 DUP1 RETURNDATACOPY RETURNDATASIZE PUSH1 0x0 REVERT JUMPDEST POP POP POP POP PUSH1 0x40 MLOAD RETURNDATASIZE PUSH1 0x1F NOT PUSH1 0x1F DUP3 ADD AND DUP3 ADD DUP1 PUSH1 0x40 MSTORE POP DUP2 ADD SWAP1 PUSH2 0x6C3 SWAP2 SWAP1 PUSH2 0x1B6C JUMP JUMPDEST SWAP1 POP DUP1 PUSH2 0x708 JUMPI PUSH1 0x40 MLOAD PUSH3 0x461BCD PUSH1 0xE5 SHL DUP2 MSTORE PUSH1 0x20 PUSH1 0x4 DUP3 ADD MSTORE PUSH1 0x13 PUSH1 0x24 DUP3 ADD MSTORE PUSH19 0x41646472657373206E6F742065786973742121 PUSH1 0x68 SHL PUSH1 0x44 DUP3 ADD MSTORE PUSH1 0x64 ADD PUSH2 0x436 JUMP JUMPDEST PUSH2 0x710 PUSH2 0x1387 JUMP JUMPDEST PUSH1 0x40 MLOAD PUSH4 0x8532CBF7 PUSH1 0xE0 SHL DUP2 MSTORE PUSH1 0x4 DUP2 ADD DUP4 SWAP1 MSTORE PUSH1 0x1 PUSH1 0x1 PUSH1 0xA0 SHL SUB DUP5 AND SWAP1 PUSH4 0x8532CBF7 SWAP1 PUSH1 0x24 ADD PUSH1 0x0 PUSH1 0x40 MLOAD DUP1 DUP4 SUB DUP2 DUP7 GAS STATICCALL ISZERO DUP1 ISZERO PUSH2 0x755 JUMPI RETURNDATASIZE PUSH1 0x0 DUP1 RETURNDATACOPY RETURNDATASIZE PUSH1 0x0 REVERT JUMPDEST POP POP POP POP PUSH1 0x40 MLOAD RETURNDATASIZE PUSH1 0x0 DUP3 RETURNDATACOPY PUSH1 0x1F RETURNDATASIZE SWAP1 DUP2 ADD PUSH1 0x1F NOT AND DUP3 ADD PUSH1 0x40 MSTORE PUSH2 0x77D SWAP2 SWAP1 DUP2 ADD SWAP1 PUSH2 0x1BD2 JUMP JUMPDEST ISZERO ISZERO PUSH1 0x80 DUP7 ADD MSTORE ISZERO ISZERO PUSH1 0x60 DUP6 ADD DUP2 SWAP1 MSTORE PUSH1 0x40 DUP6 ADD SWAP2 SWAP1 SWAP2 MSTORE PUSH1 0x20 DUP5 ADD SWAP2 SWAP1 SWAP2 MSTORE PUSH1 0x1 PUSH1 0x1 PUSH1 0xA0 SHL SUB SWAP1 SWAP2 AND DUP3 MSTORE PUSH1 0x1 EQ PUSH2 0x7F0 JUMPI PUSH1 0x40 MLOAD PUSH3 0x461BCD PUSH1 0xE5 SHL DUP2 MSTORE PUSH1 0x20 PUSH1 0x4 DUP3 ADD MSTORE PUSH1 0x14 PUSH1 0x24 DUP3 ADD MSTORE PUSH20 0x2AB9B2B91034B9903737BA10309026B2B6B132B9 PUSH1 0x61 SHL PUSH1 0x44 DUP3 ADD MSTORE PUSH1 0x64 ADD PUSH2 0x436 JUMP JUMPDEST PUSH1 0x20 DUP2 ADD MLOAD PUSH1 0x40 DUP3 ADD MLOAD PUSH1 0x60 DUP4 ADD MLOAD PUSH1 0x80 SWAP1 SWAP4 ADD MLOAD SWAP2 SWAP12 SWAP1 SWAP11 POP SWAP2 SWAP9 POP SWAP7 POP SWAP5 POP POP POP POP POP JUMP JUMPDEST PUSH1 0x60 PUSH1 0x0 DUP1 PUSH1 0x0 DUP1 PUSH1 0x0 DUP1 PUSH1 0x0 DUP1 DUP10 SWAP1 POP DUP1 PUSH1 0x1 PUSH1 0x1 PUSH1 0xA0 SHL SUB AND PUSH4 0x59CA2D03 PUSH1 0x40 MLOAD DUP2 PUSH4 0xFFFFFFFF AND PUSH1 0xE0 SHL DUP2 MSTORE PUSH1 0x4 ADD PUSH1 0x0 PUSH1 0x40 MLOAD DUP1 DUP4 SUB DUP2 DUP7 GAS STATICCALL ISZERO DUP1 ISZERO PUSH2 0x866 JUMPI RETURNDATASIZE PUSH1 0x0 DUP1 RETURNDATACOPY RETURNDATASIZE PUSH1 0x0 REVERT JUMPDEST POP POP POP POP PUSH1 0x40 MLOAD RETURNDATASIZE PUSH1 0x0 DUP3 RETURNDATACOPY PUSH1 0x1F RETURNDATASIZE SWAP1 DUP2 ADD PUSH1 0x1F NOT AND DUP3 ADD PUSH1 0x40 MSTORE PUSH2 0x88E SWAP2 SWAP1 DUP2 ADD SWAP1 PUSH2 0x1C55 JUMP JUMPDEST DUP2 PUSH1 0x1 PUSH1 0x1 PUSH1 0xA0 SHL SUB AND PUSH4 0x1D5FD3CA PUSH1 0x40 MLOAD DUP2 PUSH4 0xFFFFFFFF AND PUSH1 0xE0 SHL DUP2 MSTORE PUSH1 0x4 ADD PUSH1 0x20 PUSH1 0x40 MLOAD DUP1 DUP4 SUB DUP2 DUP7 GAS STATICCALL ISZERO DUP1 ISZERO PUSH2 0x8CC JUMPI RETURNDATASIZE PUSH1 0x0 DUP1 RETURNDATACOPY RETURNDATASIZE PUSH1 0x0 REVERT JUMPDEST POP POP POP POP PUSH1 0x40 MLOAD RETURNDATASIZE PUSH1 0x1F NOT PUSH1 0x1F DUP3 ADD AND DUP3 ADD DUP1 PUSH1 0x40 MSTORE POP DUP2 ADD SWAP1 PUSH2 0x8F0 SWAP2 SWAP1 PUSH2 0x1B6C JUMP JUMPDEST DUP3 PUSH1 0x1 PUSH1 0x1 PUSH1 0xA0 SHL SUB AND PUSH4 0xF00D6274 PUSH1 0x40 MLOAD DUP2 PUSH4 0xFFFFFFFF AND PUSH1 0xE0 SHL DUP2 MSTORE PUSH1 0x4 ADD PUSH1 0x20 PUSH1 0x40 MLOAD DUP1 DUP4 SUB DUP2 DUP7 GAS STATICCALL ISZERO DUP1 ISZERO PUSH2 0x92E JUMPI RETURNDATASIZE PUSH1 0x0 DUP1 RETURNDATACOPY RETURNDATASIZE PUSH1 0x0 REVERT JUMPDEST POP POP POP POP PUSH1 0x40 MLOAD RETURNDATASIZE PUSH1 0x1F NOT PUSH1 0x1F DUP3 ADD AND DUP3 ADD DUP1 PUSH1 0x40 MSTORE POP DUP2 ADD SWAP1 PUSH2 0x952 SWAP2 SWAP1 PUSH2 0x1C8A JUMP JUMPDEST DUP4 PUSH1 0x1 PUSH1 0x1 PUSH1 0xA0 SHL SUB AND PUSH4 0xDA9BCA21 PUSH1 0x40 MLOAD DUP2 PUSH4 0xFFFFFFFF AND PUSH1 0xE0 SHL DUP2 MSTORE PUSH1 0x4 ADD PUSH1 0x20 PUSH1 0x40 MLOAD DUP1 DUP4 SUB DUP2 DUP7 GAS STATICCALL ISZERO DUP1 ISZERO PUSH2 0x990 JUMPI RETURNDATASIZE PUSH1 0x0 DUP1 RETURNDATACOPY RETURNDATASIZE PUSH1 0x0 REVERT JUMPDEST POP POP POP POP PUSH1 0x40 MLOAD RETURNDATASIZE PUSH1 0x1F NOT PUSH1 0x1F DUP3 ADD AND DUP3 ADD DUP1 PUSH1 0x40 MSTORE POP DUP2 ADD SWAP1 PUSH2 0x9B4 SWAP2 SWAP1 PUSH2 0x1CA7 JUMP JUMPDEST DUP5 PUSH1 0x1 PUSH1 0x1 PUSH1 0xA0 SHL SUB AND PUSH4 0x8668EAFC PUSH1 0x40 MLOAD DUP2 PUSH4 0xFFFFFFFF AND PUSH1 0xE0 SHL DUP2 MSTORE PUSH1 0x4 ADD PUSH1 0x20 PUSH1 0x40 MLOAD DUP1 DUP4 SUB DUP2 DUP7 GAS STATICCALL ISZERO DUP1 ISZERO PUSH2 0x9F2 JUMPI RETURNDATASIZE PUSH1 0x0 DUP1 RETURNDATACOPY RETURNDATASIZE PUSH1 0x0 REVERT JUMPDEST POP POP POP POP PUSH1 0x40 MLOAD RETURNDATASIZE PUSH1 0x1F NOT PUSH1 0x1F DUP3 ADD AND DUP3 ADD DUP1 PUSH1 0x40 MSTORE POP DUP2 ADD SWAP1 PUSH2 0xA16 SWAP2 SWAP1 PUSH2 0x1CA7 JUMP JUMPDEST DUP6 PUSH1 0x1 PUSH1 0x1 PUSH1 0xA0 SHL SUB AND PUSH4 0x9C630A88 PUSH1 0x40 MLOAD DUP2 PUSH4 0xFFFFFFFF AND PUSH1 0xE0 SHL DUP2 MSTORE PUSH1 0x4 ADD PUSH1 0x20 PUSH1 0x40 MLOAD DUP1 DUP4 SUB DUP2 DUP7 GAS STATICCALL ISZERO DUP1 ISZERO PUSH2 0xA54 JUMPI RETURNDATASIZE PUSH1 0x0 DUP1 RETURNDATACOPY RETURNDATASIZE PUSH1 0x0 REVERT JUMPDEST POP POP POP POP PUSH1 0x40 MLOAD RETURNDATASIZE PUSH1 0x1F NOT PUSH1 0x1F DUP3 ADD AND DUP3 ADD DUP1 PUSH1 0x40 MSTORE POP DUP2 ADD SWAP1 PUSH2 0xA78 SWAP2 SWAP1 PUSH2 0x1CA7 JUMP JUMPDEST DUP7 PUSH1 0x1 PUSH1 0x1 PUSH1 0xA0 SHL SUB AND PUSH4 0xAB44997B PUSH1 0x40 MLOAD DUP2 PUSH4 0xFFFFFFFF AND PUSH1 0xE0 SHL DUP2 MSTORE PUSH1 0x4 ADD PUSH1 0x20 PUSH1 0x40 MLOAD DUP1 DUP4 SUB DUP2 DUP7 GAS STATICCALL ISZERO DUP1 ISZERO PUSH2 0xAB6 JUMPI RETURNDATASIZE PUSH1 0x0 DUP1 RETURNDATACOPY RETURNDATASIZE PUSH1 0x0 REVERT JUMPDEST POP POP POP POP PUSH1 0x40 MLOAD RETURNDATASIZE PUSH1 0x1F NOT PUSH1 0x1F DUP3 ADD AND DUP3 ADD DUP1 PUSH1 0x40 MSTORE POP DUP2 ADD SWAP1 PUSH2 0xADA SWAP2 SWAP1 PUSH2 0x1CA7 JUMP JUMPDEST DUP8 PUSH1 0x1 PUSH1 0x1 PUSH1 0xA0 SHL SUB AND PUSH4 0x5FE6663 PUSH1 0x40 MLOAD DUP2 PUSH4 0xFFFFFFFF AND PUSH1 0xE0 SHL DUP2 MSTORE PUSH1 0x4 ADD PUSH1 0x20 PUSH1 0x40 MLOAD DUP1 DUP4 SUB DUP2 DUP7 GAS STATICCALL ISZERO DUP1 ISZERO PUSH2 0xB18 JUMPI RETURNDATASIZE PUSH1 0x0 DUP1 RETURNDATACOPY RETURNDATASIZE PUSH1 0x0 REVERT JUMPDEST POP POP POP POP PUSH1 0x40 MLOAD RETURNDATASIZE PUSH1 0x1F NOT PUSH1 0x1F DUP3 ADD AND DUP3 ADD DUP1 PUSH1 0x40 MSTORE POP DUP2 ADD SWAP1 PUSH2 0xB3C SWAP2 SWAP1 PUSH2 0x1CA7 JUMP JUMPDEST SWAP9 POP SWAP9 POP SWAP9 POP SWAP9 POP SWAP9 POP SWAP9 POP SWAP9 POP SWAP9 POP POP SWAP2 SWAP4 SWAP6 SWAP8 POP SWAP2 SWAP4 SWAP6 SWAP8 JUMP JUMPDEST PUSH1 0x0 DUP1 PUSH1 0x40 MLOAD PUSH1 0x20 ADD PUSH2 0xB6A SWAP1 PUSH2 0x1A9F JUMP JUMPDEST PUSH1 0x40 MLOAD PUSH1 0x20 DUP2 DUP4 SUB SUB DUP2 MSTORE SWAP1 PUSH1 0x40 MSTORE DUP1 MLOAD SWAP1 PUSH1 0x20 ADD KECCAK256 PUSH1 0x0 DUP1 MLOAD PUSH1 0x20 PUSH2 0x1D2C DUP4 CODECOPY DUP2 MLOAD SWAP2 MSTORE PUSH1 0x0 DUP1 MLOAD PUSH1 0x20 PUSH2 0x1D4C DUP4 CODECOPY DUP2 MLOAD SWAP2 MSTORE CHAINID DUP8 PUSH1 0x40 MLOAD PUSH1 0x20 ADD PUSH2 0xBB4 SWAP6 SWAP5 SWAP4 SWAP3 SWAP2 SWAP1 PUSH2 0x1B09 JUMP JUMPDEST PUSH1 0x40 MLOAD PUSH1 0x20 DUP2 DUP4 SUB SUB DUP2 MSTORE SWAP1 PUSH1 0x40 MSTORE DUP1 MLOAD SWAP1 PUSH1 0x20 ADD KECCAK256 SWAP1 POP PUSH1 0x0 PUSH1 0x40 MLOAD PUSH1 0x20 ADD PUSH2 0xC27 SWAP1 PUSH32 0x7374724F43566F74652875696E743235362070726F7049642C626F6F6C207375 DUP2 MSTORE PUSH32 0x70706F72742C737472696E67206A757374696669636174696F6E290000000000 PUSH1 0x20 DUP3 ADD MSTORE PUSH1 0x3B ADD SWAP1 JUMP JUMPDEST PUSH1 0x40 MLOAD PUSH1 0x20 DUP2 DUP4 SUB SUB DUP2 MSTORE SWAP1 PUSH1 0x40 MSTORE DUP1 MLOAD SWAP1 PUSH1 0x20 ADD KECCAK256 DUP9 DUP9 DUP9 PUSH1 0x40 MLOAD PUSH1 0x20 ADD PUSH2 0xC50 SWAP2 SWAP1 PUSH2 0x1B35 JUMP JUMPDEST PUSH1 0x40 DUP1 MLOAD PUSH1 0x1F NOT DUP2 DUP5 SUB ADD DUP2 MSTORE DUP3 DUP3 MSTORE DUP1 MLOAD PUSH1 0x20 SWAP2 DUP3 ADD KECCAK256 SWAP1 DUP4 ADD SWAP6 SWAP1 SWAP6 MSTORE DUP2 ADD SWAP3 SWAP1 SWAP3 MSTORE ISZERO ISZERO PUSH1 0x60 DUP3 ADD MSTORE PUSH1 0x80 DUP2 ADD SWAP2 SWAP1 SWAP2 MSTORE PUSH1 0xA0 ADD JUMPDEST PUSH1 0x40 MLOAD PUSH1 0x20 DUP2 DUP4 SUB SUB DUP2 MSTORE SWAP1 PUSH1 0x40 MSTORE DUP1 MLOAD SWAP1 PUSH1 0x20 ADD KECCAK256 SWAP1 POP PUSH1 0x0 DUP3 DUP3 PUSH1 0x40 MLOAD PUSH1 0x20 ADD PUSH2 0xCB5 SWAP3 SWAP2 SWAP1 PUSH2 0x1B51 JUMP JUMPDEST PUSH1 0x40 MLOAD PUSH1 0x20 DUP2 DUP4 SUB SUB DUP2 MSTORE SWAP1 PUSH1 0x40 MSTORE DUP1 MLOAD SWAP1 PUSH1 0x20 ADD KECCAK256 SWAP1 POP PUSH2 0xCD7 DUP2 DUP7 PUSH2 0x3F0 JUMP JUMPDEST SWAP10 SWAP9 POP POP POP POP POP POP POP POP POP JUMP JUMPDEST PUSH1 0x0 DUP1 PUSH1 0x40 MLOAD PUSH1 0x20 ADD PUSH2 0xCF6 SWAP1 PUSH2 0x1A9F JUMP JUMPDEST PUSH1 0x40 MLOAD PUSH1 0x20 DUP2 DUP4 SUB SUB DUP2 MSTORE SWAP1 PUSH1 0x40 MSTORE DUP1 MLOAD SWAP1 PUSH1 0x20 ADD KECCAK256 PUSH1 0x0 DUP1 MLOAD PUSH1 0x20 PUSH2 0x1D2C DUP4 CODECOPY DUP2 MLOAD SWAP2 MSTORE PUSH1 0x0 DUP1 MLOAD PUSH1 0x20 PUSH2 0x1D4C DUP4 CODECOPY DUP2 MLOAD SWAP2 MSTORE CHAINID DUP8 PUSH1 0x40 MLOAD PUSH1 0x20 ADD PUSH2 0xD40 SWAP6 SWAP5 SWAP4 SWAP3 SWAP2 SWAP1 PUSH2 0x1B09 JUMP JUMPDEST PUSH1 0x40 MLOAD PUSH1 0x20 DUP2 DUP4 SUB SUB DUP2 MSTORE SWAP1 PUSH1 0x40 MSTORE DUP1 MLOAD SWAP1 PUSH1 0x20 ADD KECCAK256 SWAP1 POP PUSH1 0x0 PUSH1 0x40 MLOAD PUSH1 0x20 ADD PUSH2 0xD8D SWAP1 PUSH32 0x7374724F43496E76697428626F6F6C20616363657074616E6365290000000000 DUP2 MSTORE PUSH1 0x1B ADD SWAP1 JUMP JUMPDEST PUSH1 0x40 DUP1 MLOAD DUP1 DUP4 SUB PUSH1 0x1F NOT ADD DUP2 MSTORE DUP3 DUP3 MSTORE DUP1 MLOAD PUSH1 0x20 SWAP2 DUP3 ADD KECCAK256 DUP2 DUP5 ADD MSTORE DUP9 ISZERO ISZERO DUP4 DUP4 ADD MSTORE DUP2 MLOAD DUP1 DUP5 SUB DUP4 ADD DUP2 MSTORE PUSH1 0x60 DUP5 ADD SWAP1 SWAP3 MSTORE DUP2 MLOAD SWAP2 ADD KECCAK256 SWAP2 POP PUSH1 0x0 SWAP1 PUSH2 0xDDA SWAP1 DUP5 SWAP1 DUP5 SWAP1 PUSH1 0x80 ADD PUSH2 0x1B51 JUMP JUMPDEST PUSH1 0x40 MLOAD PUSH1 0x20 DUP2 DUP4 SUB SUB DUP2 MSTORE SWAP1 PUSH1 0x40 MSTORE DUP1 MLOAD SWAP1 PUSH1 0x20 ADD KECCAK256 SWAP1 POP PUSH2 0xDFC DUP2 DUP7 PUSH2 0x3F0 JUMP JUMPDEST SWAP8 SWAP7 POP POP POP POP POP POP POP JUMP JUMPDEST PUSH1 0x60 PUSH1 0x0 DUP3 SWAP1 POP PUSH1 0x0 DUP2 PUSH1 0x1 PUSH1 0x1 PUSH1 0xA0 SHL SUB AND PUSH4 0xDA9BCA21 PUSH1 0x40 MLOAD DUP2 PUSH4 0xFFFFFFFF AND PUSH1 0xE0 SHL DUP2 MSTORE PUSH1 0x4 ADD PUSH1 0x20 PUSH1 0x40 MLOAD DUP1 DUP4 SUB DUP2 DUP7 GAS STATICCALL ISZERO DUP1 ISZERO PUSH2 0xE4E JUMPI RETURNDATASIZE PUSH1 0x0 DUP1 RETURNDATACOPY RETURNDATASIZE PUSH1 0x0 REVERT JUMPDEST POP POP POP POP PUSH1 0x40 MLOAD RETURNDATASIZE PUSH1 0x1F NOT PUSH1 0x1F DUP3 ADD AND DUP3 ADD DUP1 PUSH1 0x40 MSTORE POP DUP2 ADD SWAP1 PUSH2 0xE72 SWAP2 SWAP1 PUSH2 0x1CA7 JUMP JUMPDEST SWAP1 POP PUSH1 0x0 DUP3 PUSH1 0x1 PUSH1 0x1 PUSH1 0xA0 SHL SUB AND PUSH4 0x824C88DA PUSH1 0x40 MLOAD DUP2 PUSH4 0xFFFFFFFF AND PUSH1 0xE0 SHL DUP2 MSTORE PUSH1 0x4 ADD PUSH1 0x20 PUSH1 0x40 MLOAD DUP1 DUP4 SUB DUP2 DUP7 GAS STATICCALL ISZERO DUP1 ISZERO PUSH2 0xEB4 JUMPI RETURNDATASIZE PUSH1 0x0 DUP1 RETURNDATACOPY RETURNDATASIZE PUSH1 0x0 REVERT JUMPDEST POP POP POP POP PUSH1 0x40 MLOAD RETURNDATASIZE PUSH1 0x1F NOT PUSH1 0x1F DUP3 ADD AND DUP3 ADD DUP1 PUSH1 0x40 MSTORE POP DUP2 ADD SWAP1 PUSH2 0xED8 SWAP2 SWAP1 PUSH2 0x1B6C JUMP JUMPDEST SWAP1 POP PUSH1 0x0 DUP3 PUSH1 0xFF AND PUSH8 0xFFFFFFFFFFFFFFFF DUP2 GT ISZERO PUSH2 0xEF8 JUMPI PUSH2 0xEF8 PUSH2 0x13C3 JUMP JUMPDEST PUSH1 0x40 MLOAD SWAP1 DUP1 DUP3 MSTORE DUP1 PUSH1 0x20 MUL PUSH1 0x20 ADD DUP3 ADD PUSH1 0x40 MSTORE DUP1 ISZERO PUSH2 0xF31 JUMPI DUP2 PUSH1 0x20 ADD JUMPDEST PUSH2 0xF1E PUSH2 0x1387 JUMP JUMPDEST DUP2 MSTORE PUSH1 0x20 ADD SWAP1 PUSH1 0x1 SWAP1 SUB SWAP1 DUP2 PUSH2 0xF16 JUMPI SWAP1 POP JUMPDEST POP SWAP1 POP PUSH1 0x0 PUSH1 0x1 JUMPDEST DUP4 DUP2 LT ISZERO PUSH2 0x102E JUMPI PUSH2 0xF49 PUSH2 0x1387 JUMP JUMPDEST PUSH1 0x40 MLOAD PUSH4 0x8532CBF7 PUSH1 0xE0 SHL DUP2 MSTORE PUSH1 0x4 DUP2 ADD DUP4 SWAP1 MSTORE PUSH1 0x1 PUSH1 0x1 PUSH1 0xA0 SHL SUB DUP9 AND SWAP1 PUSH4 0x8532CBF7 SWAP1 PUSH1 0x24 ADD PUSH1 0x0 PUSH1 0x40 MLOAD DUP1 DUP4 SUB DUP2 DUP7 GAS STATICCALL ISZERO DUP1 ISZERO PUSH2 0xF8E JUMPI RETURNDATASIZE PUSH1 0x0 DUP1 RETURNDATACOPY RETURNDATASIZE PUSH1 0x0 REVERT JUMPDEST POP POP POP POP PUSH1 0x40 MLOAD RETURNDATASIZE PUSH1 0x0 DUP3 RETURNDATACOPY PUSH1 0x1F RETURNDATASIZE SWAP1 DUP2 ADD PUSH1 0x1F NOT AND DUP3 ADD PUSH1 0x40 MSTORE PUSH2 0xFB6 SWAP2 SWAP1 DUP2 ADD SWAP1 PUSH2 0x1BD2 JUMP JUMPDEST ISZERO ISZERO PUSH1 0x80 DUP7 ADD MSTORE ISZERO ISZERO PUSH1 0x60 DUP6 ADD DUP2 SWAP1 MSTORE PUSH1 0x40 DUP6 ADD SWAP2 SWAP1 SWAP2 MSTORE PUSH1 0x20 DUP5 ADD SWAP2 SWAP1 SWAP2 MSTORE PUSH1 0x1 PUSH1 0x1 PUSH1 0xA0 SHL SUB SWAP1 SWAP2 AND DUP3 MSTORE PUSH1 0x1 EQ ISZERO PUSH2 0x101B JUMPI DUP1 DUP5 DUP5 PUSH1 0xFF AND DUP2 MLOAD DUP2 LT PUSH2 0x1001 JUMPI PUSH2 0x1001 PUSH2 0x1CC4 JUMP JUMPDEST PUSH1 0x20 MUL PUSH1 0x20 ADD ADD DUP2 SWAP1 MSTORE POP DUP3 DUP1 PUSH2 0x1017 SWAP1 PUSH2 0x1CF0 JUMP JUMPDEST SWAP4 POP POP JUMPDEST POP DUP1 PUSH2 0x1026 DUP2 PUSH2 0x1D10 JUMP JUMPDEST SWAP2 POP POP PUSH2 0xF39 JUMP JUMPDEST POP SWAP1 SWAP7 SWAP6 POP POP POP POP POP POP JUMP JUMPDEST PUSH1 0x0 DUP1 PUSH1 0x40 MLOAD PUSH1 0x20 ADD PUSH2 0x104C SWAP1 PUSH2 0x1A9F JUMP JUMPDEST PUSH1 0x40 MLOAD PUSH1 0x20 DUP2 DUP4 SUB SUB DUP2 MSTORE SWAP1 PUSH1 0x40 MSTORE DUP1 MLOAD SWAP1 PUSH1 0x20 ADD KECCAK256 PUSH1 0x0 DUP1 MLOAD PUSH1 0x20 PUSH2 0x1D2C DUP4 CODECOPY DUP2 MLOAD SWAP2 MSTORE PUSH1 0x0 DUP1 MLOAD PUSH1 0x20 PUSH2 0x1D4C DUP4 CODECOPY DUP2 MLOAD SWAP2 MSTORE CHAINID DUP8 PUSH1 0x40 MLOAD PUSH1 0x20 ADD PUSH2 0x1096 SWAP6 SWAP5 SWAP4 SWAP3 SWAP2 SWAP1 PUSH2 0x1B09 JUMP JUMPDEST PUSH1 0x40 MLOAD PUSH1 0x20 DUP2 DUP4 SUB SUB DUP2 MSTORE SWAP1 PUSH1 0x40 MSTORE DUP1 MLOAD SWAP1 PUSH1 0x20 ADD KECCAK256 SWAP1 POP PUSH1 0x0 PUSH1 0x40 MLOAD PUSH1 0x20 ADD PUSH2 0x113A SWAP1 PUSH32 0x7374724F434E65774D656D62657228616464726573732077616C6C6574416464 DUP2 MSTORE PUSH32 0x722C737472696E67206E616D652C737472696E67206465736372697074696F6E PUSH1 0x20 DUP3 ADD MSTORE PUSH32 0x2C626F6F6C2069734D616E616765722C75696E743235362064656C617954696D PUSH1 0x40 DUP3 ADD MSTORE PUSH2 0x6529 PUSH1 0xF0 SHL PUSH1 0x60 DUP3 ADD MSTORE PUSH1 0x62 ADD SWAP1 JUMP JUMPDEST PUSH1 0x40 MLOAD PUSH1 0x20 DUP2 DUP4 SUB SUB DUP2 MSTORE SWAP1 PUSH1 0x40 MSTORE DUP1 MLOAD SWAP1 PUSH1 0x20 ADD KECCAK256 DUP11 DUP11 PUSH1 0x40 MLOAD PUSH1 0x20 ADD PUSH2 0x1162 SWAP2 SWAP1 PUSH2 0x1B35 JUMP JUMPDEST PUSH1 0x40 MLOAD PUSH1 0x20 DUP2 DUP4 SUB SUB DUP2 MSTORE SWAP1 PUSH1 0x40 MSTORE DUP1 MLOAD SWAP1 PUSH1 0x20 ADD KECCAK256 DUP11 PUSH1 0x40 MLOAD PUSH1 0x20 ADD PUSH2 0x1189 SWAP2 SWAP1 PUSH2 0x1B35 JUMP JUMPDEST PUSH1 0x40 DUP1 MLOAD PUSH1 0x1F NOT DUP2 DUP5 SUB ADD DUP2 MSTORE DUP3 DUP3 MSTORE DUP1 MLOAD PUSH1 0x20 SWAP2 DUP3 ADD KECCAK256 SWAP1 DUP4 ADD SWAP6 SWAP1 SWAP6 MSTORE PUSH1 0x1 PUSH1 0x1 PUSH1 0xA0 SHL SUB SWAP1 SWAP4 AND SWAP3 DUP2 ADD SWAP3 SWAP1 SWAP3 MSTORE PUSH1 0x60 DUP3 ADD MSTORE PUSH1 0x80 DUP2 ADD SWAP2 SWAP1 SWAP2 MSTORE DUP8 ISZERO ISZERO PUSH1 0xA0 DUP3 ADD MSTORE PUSH1 0xC0 DUP2 ADD DUP8 SWAP1 MSTORE PUSH1 0xE0 ADD PUSH1 0x40 MLOAD PUSH1 0x20 DUP2 DUP4 SUB SUB DUP2 MSTORE SWAP1 PUSH1 0x40 MSTORE DUP1 MLOAD SWAP1 PUSH1 0x20 ADD KECCAK256 SWAP1 POP PUSH1 0x0 DUP3 DUP3 PUSH1 0x40 MLOAD PUSH1 0x20 ADD PUSH2 0x1206 SWAP3 SWAP2 SWAP1 PUSH2 0x1B51 JUMP JUMPDEST PUSH1 0x40 MLOAD PUSH1 0x20 DUP2 DUP4 SUB SUB DUP2 MSTORE SWAP1 PUSH1 0x40 MSTORE DUP1 MLOAD SWAP1 PUSH1 0x20 ADD KECCAK256 SWAP1 POP PUSH2 0x1228 DUP2 DUP7 PUSH2 0x3F0 JUMP JUMPDEST SWAP12 SWAP11 POP POP POP POP POP POP POP POP POP POP POP JUMP JUMPDEST PUSH1 0x0 DUP1 PUSH1 0x40 MLOAD PUSH1 0x20 ADD PUSH2 0x1249 SWAP1 PUSH2 0x1A9F JUMP JUMPDEST PUSH1 0x40 MLOAD PUSH1 0x20 DUP2 DUP4 SUB SUB DUP2 MSTORE SWAP1 PUSH1 0x40 MSTORE DUP1 MLOAD SWAP1 PUSH1 0x20 ADD KECCAK256 PUSH1 0x0 DUP1 MLOAD PUSH1 0x20 PUSH2 0x1D2C DUP4 CODECOPY DUP2 MLOAD SWAP2 MSTORE PUSH1 0x0 DUP1 MLOAD PUSH1 0x20 PUSH2 0x1D4C DUP4 CODECOPY DUP2 MLOAD SWAP2 MSTORE CHAINID DUP8 PUSH1 0x40 MLOAD PUSH1 0x20 ADD PUSH2 0x1293 SWAP6 SWAP5 SWAP4 SWAP3 SWAP2 SWAP1 PUSH2 0x1B09 JUMP JUMPDEST PUSH1 0x40 MLOAD PUSH1 0x20 DUP2 DUP4 SUB SUB DUP2 MSTORE SWAP1 PUSH1 0x40 MSTORE DUP1 MLOAD SWAP1 PUSH1 0x20 ADD KECCAK256 SWAP1 POP PUSH1 0x0 PUSH1 0x40 MLOAD PUSH1 0x20 ADD PUSH2 0x1316 SWAP1 PUSH32 0x7374724F4344656C4D656D62657228616464726573732077616C6C6574416464 DUP2 MSTORE PUSH32 0x722C737472696E67206465736372697074696F6E2C75696E743235362064656C PUSH1 0x20 DUP3 ADD MSTORE PUSH7 0x617954696D6529 PUSH1 0xC8 SHL PUSH1 0x40 DUP3 ADD MSTORE PUSH1 0x47 ADD SWAP1 JUMP JUMPDEST PUSH1 0x40 MLOAD PUSH1 0x20 DUP2 DUP4 SUB SUB DUP2 MSTORE SWAP1 PUSH1 0x40 MSTORE DUP1 MLOAD SWAP1 PUSH1 0x20 ADD KECCAK256 DUP9 DUP9 PUSH1 0x40 MLOAD PUSH1 0x20 ADD PUSH2 0x133E SWAP2 SWAP1 PUSH2 0x1B35 JUMP JUMPDEST PUSH1 0x40 MLOAD PUSH1 0x20 DUP2 DUP4 SUB SUB DUP2 MSTORE SWAP1 PUSH1 0x40 MSTORE DUP1 MLOAD SWAP1 PUSH1 0x20 ADD KECCAK256 DUP9 PUSH1 0x40 MLOAD PUSH1 0x20 ADD PUSH2 0xC88 SWAP5 SWAP4 SWAP3 SWAP2 SWAP1 SWAP4 DUP5 MSTORE PUSH1 0x1 PUSH1 0x1 PUSH1 0xA0 SHL SUB SWAP3 SWAP1 SWAP3 AND PUSH1 0x20 DUP5 ADD MSTORE PUSH1 0x40 DUP4 ADD MSTORE PUSH1 0x60 DUP3 ADD MSTORE PUSH1 0x80 ADD SWAP1 JUMP JUMPDEST PUSH1 0x40 MLOAD DUP1 PUSH1 0xA0 ADD PUSH1 0x40 MSTORE DUP1 PUSH1 0x0 PUSH1 0x1 PUSH1 0x1 PUSH1 0xA0 SHL SUB AND DUP2 MSTORE PUSH1 0x20 ADD PUSH1 0x60 DUP2 MSTORE PUSH1 0x20 ADD PUSH1 0x0 DUP2 MSTORE PUSH1 0x20 ADD PUSH1 0x0 ISZERO ISZERO DUP2 MSTORE PUSH1 0x20 ADD PUSH1 0x0 ISZERO ISZERO DUP2 MSTORE POP SWAP1 JUMP JUMPDEST PUSH4 0x4E487B71 PUSH1 0xE0 SHL PUSH1 0x0 MSTORE PUSH1 0x41 PUSH1 0x4 MSTORE PUSH1 0x24 PUSH1 0x0 REVERT JUMPDEST PUSH1 0x40 MLOAD PUSH1 0x1F DUP3 ADD PUSH1 0x1F NOT AND DUP2 ADD PUSH8 0xFFFFFFFFFFFFFFFF DUP2 GT DUP3 DUP3 LT OR ISZERO PUSH2 0x1402 JUMPI PUSH2 0x1402 PUSH2 0x13C3 JUMP JUMPDEST PUSH1 0x40 MSTORE SWAP2 SWAP1 POP JUMP JUMPDEST PUSH1 0x0 PUSH8 0xFFFFFFFFFFFFFFFF DUP3 GT ISZERO PUSH2 0x1424 JUMPI PUSH2 0x1424 PUSH2 0x13C3 JUMP JUMPDEST POP PUSH1 0x1F ADD PUSH1 0x1F NOT AND PUSH1 0x20 ADD SWAP1 JUMP JUMPDEST PUSH1 0x0 DUP3 PUSH1 0x1F DUP4 ADD SLT PUSH2 0x1443 JUMPI PUSH1 0x0 DUP1 REVERT JUMPDEST DUP2 CALLDATALOAD PUSH2 0x1456 PUSH2 0x1451 DUP3 PUSH2 0x140A JUMP JUMPDEST PUSH2 0x13D9 JUMP JUMPDEST DUP2 DUP2 MSTORE DUP5 PUSH1 0x20 DUP4 DUP7 ADD ADD GT ISZERO PUSH2 0x146B JUMPI PUSH1 0x0 DUP1 REVERT JUMPDEST DUP2 PUSH1 0x20 DUP6 ADD PUSH1 0x20 DUP4 ADD CALLDATACOPY PUSH1 0x0 SWAP2 DUP2 ADD PUSH1 0x20 ADD SWAP2 SWAP1 SWAP2 MSTORE SWAP4 SWAP3 POP POP POP JUMP JUMPDEST DUP1 ISZERO ISZERO DUP2 EQ PUSH2 0x1496 JUMPI PUSH1 0x0 DUP1 REVERT JUMPDEST POP JUMP JUMPDEST PUSH1 0xFF DUP2 AND DUP2 EQ PUSH2 0x1496 JUMPI PUSH1 0x0 DUP1 REVERT JUMPDEST DUP1 CALLDATALOAD PUSH2 0x14B3 DUP2 PUSH2 0x1499 JUMP JUMPDEST SWAP2 SWAP1 POP JUMP JUMPDEST PUSH1 0x1 PUSH1 0x1 PUSH1 0xA0 SHL SUB DUP2 AND DUP2 EQ PUSH2 0x1496 JUMPI PUSH1 0x0 DUP1 REVERT JUMPDEST DUP1 CALLDATALOAD PUSH2 0x14B3 DUP2 PUSH2 0x14B8 JUMP JUMPDEST PUSH1 0x0 DUP1 PUSH1 0x0 DUP1 PUSH1 0x0 DUP1 PUSH1 0x0 DUP1 PUSH1 0x0 PUSH2 0x120 DUP11 DUP13 SUB SLT ISZERO PUSH2 0x14F7 JUMPI PUSH1 0x0 DUP1 REVERT JUMPDEST DUP10 CALLDATALOAD PUSH8 0xFFFFFFFFFFFFFFFF DUP1 DUP3 GT ISZERO PUSH2 0x150F JUMPI PUSH1 0x0 DUP1 REVERT JUMPDEST PUSH2 0x151B DUP14 DUP4 DUP15 ADD PUSH2 0x1432 JUMP JUMPDEST SWAP11 POP PUSH1 0x20 DUP13 ADD CALLDATALOAD SWAP2 POP PUSH2 0x152D DUP3 PUSH2 0x1488 JUMP JUMPDEST SWAP1 SWAP9 POP PUSH1 0x40 DUP12 ADD CALLDATALOAD SWAP8 POP PUSH1 0x60 DUP12 ADD CALLDATALOAD SWAP1 PUSH2 0x1546 DUP3 PUSH2 0x1499 JUMP JUMPDEST DUP2 SWAP8 POP PUSH2 0x1555 PUSH1 0x80 DUP14 ADD PUSH2 0x14A8 JUMP JUMPDEST SWAP7 POP PUSH2 0x1563 PUSH1 0xA0 DUP14 ADD PUSH2 0x14A8 JUMP JUMPDEST SWAP6 POP PUSH2 0x1571 PUSH1 0xC0 DUP14 ADD PUSH2 0x14CD JUMP JUMPDEST SWAP5 POP PUSH2 0x157F PUSH1 0xE0 DUP14 ADD PUSH2 0x14CD JUMP JUMPDEST SWAP4 POP PUSH2 0x100 DUP13 ADD CALLDATALOAD SWAP2 POP DUP1 DUP3 GT ISZERO PUSH2 0x1596 JUMPI PUSH1 0x0 DUP1 REVERT JUMPDEST POP PUSH2 0x15A3 DUP13 DUP3 DUP14 ADD PUSH2 0x1432 JUMP JUMPDEST SWAP2 POP POP SWAP3 SWAP6 SWAP9 POP SWAP3 SWAP6 SWAP9 POP SWAP3 SWAP6 SWAP9 JUMP JUMPDEST PUSH1 0x0 DUP1 PUSH1 0x40 DUP4 DUP6 SUB SLT ISZERO PUSH2 0x15C6 JUMPI PUSH1 0x0 DUP1 REVERT JUMPDEST DUP3 CALLDATALOAD SWAP2 POP PUSH1 0x20 DUP4 ADD CALLDATALOAD PUSH8 0xFFFFFFFFFFFFFFFF DUP2 GT ISZERO PUSH2 0x15E4 JUMPI PUSH1 0x0 DUP1 REVERT JUMPDEST PUSH2 0x15F0 DUP6 DUP3 DUP7 ADD PUSH2 0x1432 JUMP JUMPDEST SWAP2 POP POP SWAP3 POP SWAP3 SWAP1 POP JUMP JUMPDEST PUSH1 0x0 DUP1 PUSH1 0x0 DUP1 PUSH1 0x80 DUP6 DUP8 SUB SLT ISZERO PUSH2 0x1610 JUMPI PUSH1 0x0 DUP1 REVERT JUMPDEST DUP5 CALLDATALOAD PUSH8 0xFFFFFFFFFFFFFFFF DUP1 DUP3 GT ISZERO PUSH2 0x1628 JUMPI PUSH1 0x0 DUP1 REVERT JUMPDEST PUSH2 0x1634 DUP9 DUP4 DUP10 ADD PUSH2 0x1432 JUMP JUMPDEST SWAP6 POP PUSH1 0x20 DUP8 ADD CALLDATALOAD SWAP2 POP DUP1 DUP3 GT ISZERO PUSH2 0x164A JUMPI PUSH1 0x0 DUP1 REVERT JUMPDEST PUSH2 0x1656 DUP9 DUP4 DUP10 ADD PUSH2 0x1432 JUMP JUMPDEST SWAP5 POP PUSH1 0x40 DUP8 ADD CALLDATALOAD SWAP2 POP PUSH2 0x1668 DUP3 PUSH2 0x14B8 JUMP JUMPDEST SWAP1 SWAP3 POP PUSH1 0x60 DUP7 ADD CALLDATALOAD SWAP1 DUP1 DUP3 GT ISZERO PUSH2 0x167E JUMPI PUSH1 0x0 DUP1 REVERT JUMPDEST POP PUSH2 0x168B DUP8 DUP3 DUP9 ADD PUSH2 0x1432 JUMP JUMPDEST SWAP2 POP POP SWAP3 SWAP6 SWAP2 SWAP5 POP SWAP3 POP JUMP JUMPDEST PUSH1 0x0 DUP1 PUSH1 0x40 DUP4 DUP6 SUB SLT ISZERO PUSH2 0x16AA JUMPI PUSH1 0x0 DUP1 REVERT JUMPDEST DUP3 CALLDATALOAD PUSH2 0x16B5 DUP2 PUSH2 0x14B8 JUMP JUMPDEST SWAP2 POP PUSH1 0x20 DUP4 ADD CALLDATALOAD PUSH2 0x16C5 DUP2 PUSH2 0x14B8 JUMP JUMPDEST DUP1 SWAP2 POP POP SWAP3 POP SWAP3 SWAP1 POP JUMP JUMPDEST PUSH1 0x0 JUMPDEST DUP4 DUP2 LT ISZERO PUSH2 0x16EB JUMPI DUP2 DUP2 ADD MLOAD DUP4 DUP3 ADD MSTORE PUSH1 0x20 ADD PUSH2 0x16D3 JUMP JUMPDEST DUP4 DUP2 GT ISZERO PUSH2 0x16FA JUMPI PUSH1 0x0 DUP5 DUP5 ADD MSTORE JUMPDEST POP POP POP POP JUMP JUMPDEST PUSH1 0x0 DUP2 MLOAD DUP1 DUP5 MSTORE PUSH2 0x1718 DUP2 PUSH1 0x20 DUP7 ADD PUSH1 0x20 DUP7 ADD PUSH2 0x16D0 JUMP JUMPDEST PUSH1 0x1F ADD PUSH1 0x1F NOT AND SWAP3 SWAP1 SWAP3 ADD PUSH1 0x20 ADD SWAP3 SWAP2 POP POP JUMP JUMPDEST PUSH1 0x80 DUP2 MSTORE PUSH1 0x0 PUSH2 0x173F PUSH1 0x80 DUP4 ADD DUP8 PUSH2 0x1700 JUMP JUMPDEST PUSH1 0x20 DUP4 ADD SWAP6 SWAP1 SWAP6 MSTORE POP SWAP2 ISZERO ISZERO PUSH1 0x40 DUP4 ADD MSTORE ISZERO ISZERO PUSH1 0x60 SWAP1 SWAP2 ADD MSTORE SWAP2 SWAP1 POP JUMP JUMPDEST PUSH1 0x0 PUSH1 0x20 DUP3 DUP5 SUB SLT ISZERO PUSH2 0x176F JUMPI PUSH1 0x0 DUP1 REVERT JUMPDEST DUP2 CALLDATALOAD PUSH2 0x177A DUP2 PUSH2 0x14B8 JUMP JUMPDEST SWAP4 SWAP3 POP POP POP JUMP JUMPDEST PUSH1 0x0 PUSH2 0x100 DUP1 DUP4 MSTORE PUSH2 0x1795 DUP2 DUP5 ADD DUP13 PUSH2 0x1700 JUMP JUMPDEST PUSH1 0x20 DUP5 ADD SWAP11 SWAP1 SWAP11 MSTORE POP POP SWAP6 ISZERO ISZERO PUSH1 0x40 DUP8 ADD MSTORE PUSH1 0xFF SWAP5 DUP6 AND PUSH1 0x60 DUP8 ADD MSTORE SWAP3 DUP5 AND PUSH1 0x80 DUP7 ADD MSTORE SWAP1 DUP4 AND PUSH1 0xA0 DUP6 ADD MSTORE DUP3 AND PUSH1 0xC0 DUP5 ADD MSTORE AND PUSH1 0xE0 SWAP1 SWAP2 ADD MSTORE SWAP2 SWAP1 POP JUMP JUMPDEST PUSH1 0x0 DUP1 PUSH1 0x0 DUP1 PUSH1 0x0 PUSH1 0xA0 DUP7 DUP9 SUB SLT ISZERO PUSH2 0x17EC JUMPI PUSH1 0x0 DUP1 REVERT JUMPDEST DUP6 CALLDATALOAD SWAP5 POP PUSH1 0x20 DUP7 ADD CALLDATALOAD PUSH2 0x17FE DUP2 PUSH2 0x1488 JUMP JUMPDEST SWAP4 POP PUSH1 0x40 DUP7 ADD CALLDATALOAD PUSH8 0xFFFFFFFFFFFFFFFF DUP1 DUP3 GT ISZERO PUSH2 0x181B JUMPI PUSH1 0x0 DUP1 REVERT JUMPDEST PUSH2 0x1827 DUP10 DUP4 DUP11 ADD PUSH2 0x1432 JUMP JUMPDEST SWAP5 POP PUSH1 0x60 DUP9 ADD CALLDATALOAD SWAP2 POP PUSH2 0x1839 DUP3 PUSH2 0x14B8 JUMP JUMPDEST SWAP1 SWAP3 POP PUSH1 0x80 DUP8 ADD CALLDATALOAD SWAP1 DUP1 DUP3 GT ISZERO PUSH2 0x184F JUMPI PUSH1 0x0 DUP1 REVERT JUMPDEST POP PUSH2 0x185C DUP9 DUP3 DUP10 ADD PUSH2 0x1432 JUMP JUMPDEST SWAP2 POP POP SWAP3 SWAP6 POP SWAP3 SWAP6 SWAP1 SWAP4 POP JUMP JUMPDEST PUSH1 0x0 DUP1 PUSH1 0x0 PUSH1 0x60 DUP5 DUP7 SUB SLT ISZERO PUSH2 0x187E JUMPI PUSH1 0x0 DUP1 REVERT JUMPDEST DUP4 CALLDATALOAD PUSH2 0x1889 DUP2 PUSH2 0x1488 JUMP JUMPDEST SWAP3 POP PUSH1 0x20 DUP5 ADD CALLDATALOAD PUSH2 0x1899 DUP2 PUSH2 0x14B8 JUMP JUMPDEST SWAP2 POP PUSH1 0x40 DUP5 ADD CALLDATALOAD PUSH8 0xFFFFFFFFFFFFFFFF DUP2 GT ISZERO PUSH2 0x18B5 JUMPI PUSH1 0x0 DUP1 REVERT JUMPDEST PUSH2 0x18C1 DUP7 DUP3 DUP8 ADD PUSH2 0x1432 JUMP JUMPDEST SWAP2 POP POP SWAP3 POP SWAP3 POP SWAP3 JUMP JUMPDEST PUSH1 0x0 PUSH1 0x20 DUP1 DUP4 ADD DUP2 DUP5 MSTORE DUP1 DUP6 MLOAD DUP1 DUP4 MSTORE PUSH1 0x40 SWAP3 POP DUP3 DUP7 ADD SWAP2 POP DUP3 DUP2 PUSH1 0x5 SHL DUP8 ADD ADD DUP5 DUP9 ADD PUSH1 0x0 JUMPDEST DUP4 DUP2 LT ISZERO PUSH2 0x1961 JUMPI DUP9 DUP4 SUB PUSH1 0x3F NOT ADD DUP6 MSTORE DUP2 MLOAD DUP1 MLOAD PUSH1 0x1 PUSH1 0x1 PUSH1 0xA0 SHL SUB AND DUP5 MSTORE DUP8 DUP2 ADD MLOAD PUSH1 0xA0 DUP10 DUP7 ADD DUP2 SWAP1 MSTORE SWAP1 PUSH2 0x192B DUP3 DUP8 ADD DUP3 PUSH2 0x1700 JUMP JUMPDEST DUP4 DUP11 ADD MLOAD DUP8 DUP12 ADD MSTORE PUSH1 0x60 DUP1 DUP6 ADD MLOAD ISZERO ISZERO SWAP1 DUP9 ADD MSTORE PUSH1 0x80 SWAP4 DUP5 ADD MLOAD ISZERO ISZERO SWAP4 SWAP1 SWAP7 ADD SWAP3 SWAP1 SWAP3 MSTORE POP POP SWAP4 DUP7 ADD SWAP4 SWAP1 DUP7 ADD SWAP1 PUSH1 0x1 ADD PUSH2 0x18F2 JUMP JUMPDEST POP SWAP1 SWAP9 SWAP8 POP POP POP POP POP POP POP POP JUMP JUMPDEST PUSH1 0x0 DUP1 PUSH1 0x0 DUP1 PUSH1 0x0 DUP1 PUSH1 0x0 PUSH1 0xE0 DUP9 DUP11 SUB SLT ISZERO PUSH2 0x198A JUMPI PUSH1 0x0 DUP1 REVERT JUMPDEST DUP8 CALLDATALOAD PUSH2 0x1995 DUP2 PUSH2 0x14B8 JUMP JUMPDEST SWAP7 POP PUSH1 0x20 DUP9 ADD CALLDATALOAD PUSH8 0xFFFFFFFFFFFFFFFF DUP1 DUP3 GT ISZERO PUSH2 0x19B2 JUMPI PUSH1 0x0 DUP1 REVERT JUMPDEST PUSH2 0x19BE DUP12 DUP4 DUP13 ADD PUSH2 0x1432 JUMP JUMPDEST SWAP8 POP PUSH1 0x40 DUP11 ADD CALLDATALOAD SWAP2 POP DUP1 DUP3 GT ISZERO PUSH2 0x19D4 JUMPI PUSH1 0x0 DUP1 REVERT JUMPDEST PUSH2 0x19E0 DUP12 DUP4 DUP13 ADD PUSH2 0x1432 JUMP JUMPDEST SWAP7 POP PUSH1 0x60 DUP11 ADD CALLDATALOAD SWAP2 POP PUSH2 0x19F2 DUP3 PUSH2 0x1488 JUMP JUMPDEST DUP2 SWAP6 POP PUSH1 0x80 DUP11 ADD CALLDATALOAD SWAP5 POP PUSH2 0x1A08 PUSH1 0xA0 DUP12 ADD PUSH2 0x14CD JUMP JUMPDEST SWAP4 POP PUSH1 0xC0 DUP11 ADD CALLDATALOAD SWAP2 POP DUP1 DUP3 GT ISZERO PUSH2 0x1A1E JUMPI PUSH1 0x0 DUP1 REVERT JUMPDEST POP PUSH2 0x1A2B DUP11 DUP3 DUP12 ADD PUSH2 0x1432 JUMP JUMPDEST SWAP2 POP POP SWAP3 SWAP6 SWAP9 SWAP2 SWAP5 SWAP8 POP SWAP3 SWAP6 POP JUMP JUMPDEST PUSH1 0x0 DUP1 PUSH1 0x0 DUP1 PUSH1 0x0 PUSH1 0xA0 DUP7 DUP9 SUB SLT ISZERO PUSH2 0x1A52 JUMPI PUSH1 0x0 DUP1 REVERT JUMPDEST DUP6 CALLDATALOAD PUSH2 0x1A5D DUP2 PUSH2 0x14B8 JUMP JUMPDEST SWAP5 POP PUSH1 0x20 DUP7 ADD CALLDATALOAD PUSH8 0xFFFFFFFFFFFFFFFF DUP1 DUP3 GT ISZERO PUSH2 0x1A7A JUMPI PUSH1 0x0 DUP1 REVERT JUMPDEST PUSH2 0x1A86 DUP10 DUP4 DUP11 ADD PUSH2 0x1432 JUMP JUMPDEST SWAP6 POP PUSH1 0x40 DUP9 ADD CALLDATALOAD SWAP5 POP PUSH1 0x60 DUP9 ADD CALLDATALOAD SWAP2 POP PUSH2 0x1839 DUP3 PUSH2 0x14B8 JUMP JUMPDEST PUSH32 0x454950373132446F6D61696E28737472696E67206E616D652C737472696E6720 DUP2 MSTORE PUSH32 0x76657273696F6E2C75696E7432353620636861696E49642C6164647265737320 PUSH1 0x20 DUP3 ADD MSTORE PUSH18 0x766572696679696E67436F6E747261637429 PUSH1 0x70 SHL PUSH1 0x40 DUP3 ADD MSTORE PUSH1 0x52 ADD SWAP1 JUMP JUMPDEST SWAP5 DUP6 MSTORE PUSH1 0x20 DUP6 ADD SWAP4 SWAP1 SWAP4 MSTORE PUSH1 0x40 DUP5 ADD SWAP2 SWAP1 SWAP2 MSTORE PUSH1 0x60 DUP4 ADD MSTORE PUSH1 0x1 PUSH1 0x1 PUSH1 0xA0 SHL SUB AND PUSH1 0x80 DUP3 ADD MSTORE PUSH1 0xA0 ADD SWAP1 JUMP JUMPDEST PUSH1 0x0 DUP3 MLOAD PUSH2 0x1B47 DUP2 DUP5 PUSH1 0x20 DUP8 ADD PUSH2 0x16D0 JUMP JUMPDEST SWAP2 SWAP1 SWAP2 ADD SWAP3 SWAP2 POP POP JUMP JUMPDEST PUSH2 0x1901 PUSH1 0xF0 SHL DUP2 MSTORE PUSH1 0x2 DUP2 ADD SWAP3 SWAP1 SWAP3 MSTORE PUSH1 0x22 DUP3 ADD MSTORE PUSH1 0x42 ADD SWAP1 JUMP JUMPDEST PUSH1 0x0 PUSH1 0x20 DUP3 DUP5 SUB SLT ISZERO PUSH2 0x1B7E JUMPI PUSH1 0x0 DUP1 REVERT JUMPDEST POP MLOAD SWAP2 SWAP1 POP JUMP JUMPDEST PUSH1 0x0 DUP3 PUSH1 0x1F DUP4 ADD SLT PUSH2 0x1B96 JUMPI PUSH1 0x0 DUP1 REVERT JUMPDEST DUP2 MLOAD PUSH2 0x1BA4 PUSH2 0x1451 DUP3 PUSH2 0x140A JUMP JUMPDEST DUP2 DUP2 MSTORE DUP5 PUSH1 0x20 DUP4 DUP7 ADD ADD GT ISZERO PUSH2 0x1BB9 JUMPI PUSH1 0x0 DUP1 REVERT JUMPDEST PUSH2 0x1BCA DUP3 PUSH1 0x20 DUP4 ADD PUSH1 0x20 DUP8 ADD PUSH2 0x16D0 JUMP JUMPDEST SWAP5 SWAP4 POP POP POP POP JUMP JUMPDEST PUSH1 0x0 DUP1 PUSH1 0x0 DUP1 PUSH1 0x0 PUSH1 0xA0 DUP7 DUP9 SUB SLT ISZERO PUSH2 0x1BEA JUMPI PUSH1 0x0 DUP1 REVERT JUMPDEST DUP6 MLOAD PUSH2 0x1BF5 DUP2 PUSH2 0x14B8 JUMP JUMPDEST PUSH1 0x20 DUP8 ADD MLOAD SWAP1 SWAP6 POP PUSH8 0xFFFFFFFFFFFFFFFF DUP2 GT ISZERO PUSH2 0x1C12 JUMPI PUSH1 0x0 DUP1 REVERT JUMPDEST PUSH2 0x1C1E DUP9 DUP3 DUP10 ADD PUSH2 0x1B85 JUMP JUMPDEST SWAP5 POP POP PUSH1 0x40 DUP7 ADD MLOAD SWAP3 POP PUSH1 0x60 DUP7 ADD MLOAD PUSH2 0x1C36 DUP2 PUSH2 0x1488 JUMP JUMPDEST PUSH1 0x80 DUP8 ADD MLOAD SWAP1 SWAP3 POP PUSH2 0x1C47 DUP2 PUSH2 0x1488 JUMP JUMPDEST DUP1 SWAP2 POP POP SWAP3 SWAP6 POP SWAP3 SWAP6 SWAP1 SWAP4 POP JUMP JUMPDEST PUSH1 0x0 PUSH1 0x20 DUP3 DUP5 SUB SLT ISZERO PUSH2 0x1C67 JUMPI PUSH1 0x0 DUP1 REVERT JUMPDEST DUP2 MLOAD PUSH8 0xFFFFFFFFFFFFFFFF DUP2 GT ISZERO PUSH2 0x1C7E JUMPI PUSH1 0x0 DUP1 REVERT JUMPDEST PUSH2 0x1BCA DUP5 DUP3 DUP6 ADD PUSH2 0x1B85 JUMP JUMPDEST PUSH1 0x0 PUSH1 0x20 DUP3 DUP5 SUB SLT ISZERO PUSH2 0x1C9C JUMPI PUSH1 0x0 DUP1 REVERT JUMPDEST DUP2 MLOAD PUSH2 0x177A DUP2 PUSH2 0x1488 JUMP JUMPDEST PUSH1 0x0 PUSH1 0x20 DUP3 DUP5 SUB SLT ISZERO PUSH2 0x1CB9 JUMPI PUSH1 0x0 DUP1 REVERT JUMPDEST DUP2 MLOAD PUSH2 0x177A DUP2 PUSH2 0x1499 JUMP JUMPDEST PUSH4 0x4E487B71 PUSH1 0xE0 SHL PUSH1 0x0 MSTORE PUSH1 0x32 PUSH1 0x4 MSTORE PUSH1 0x24 PUSH1 0x0 REVERT JUMPDEST PUSH4 0x4E487B71 PUSH1 0xE0 SHL PUSH1 0x0 MSTORE PUSH1 0x11 PUSH1 0x4 MSTORE PUSH1 0x24 PUSH1 0x0 REVERT JUMPDEST PUSH1 0x0 PUSH1 0xFF DUP3 AND PUSH1 0xFF DUP2 EQ ISZERO PUSH2 0x1D07 JUMPI PUSH2 0x1D07 PUSH2 0x1CDA JUMP JUMPDEST PUSH1 0x1 ADD SWAP3 SWAP2 POP POP JUMP JUMPDEST PUSH1 0x0 PUSH1 0x0 NOT DUP3 EQ ISZERO PUSH2 0x1D24 JUMPI PUSH2 0x1D24 PUSH2 0x1CDA JUMP JUMPDEST POP PUSH1 0x1 ADD SWAP1 JUMP INVALID ADD BALANCE DUP9 SWAP6 0xAF 0x1F PUSH14 0xB161B2BA745B8E57A6B46EFAD77D PUSH20 0x6630379EC69C3CD4C87507EF8EC374E43C85C540 0xDA DUP16 PUSH10 0xDE7866F66E96DEB3AA6B MSIZE PUSH30 0xF20E0FF3CE0C64A26469706673582212201D27591366ABCB850AF39665CA BASEFEE 0xB5 PUSH9 0x5C15B71F5AAA16E9BB KECCAK256 DUP5 0x5C LOG1 ISZERO SWAP13 DUP5 PUSH5 0x736F6C6343 STOP ADDMOD 0xC STOP CALLER ",
  "sha1": "8429665fb27e10199c38b9ccf45cd1fd5ada1b53",
  "source": "// SPDX-License-Identifier: MIT\npragma solidity ^0.8.11;\n\nimport \"./ICLHouse.sol\";\n\n/// @title Some funtions to interact with a CLHouse\n/// @author Leonardo Urrego\n/// @notice This contract is only for test \ncontract ApiCLHouse {\n    /// @notice Get the info of an user in one especific CLH\n    /// @param _houseAddr Address of the CLH\n    /// @param _walletAddr Address of the user\n    /// @return name Nickname ot other user identificaction\n    /// @return balance How much money have deposited\n    /// @return isMember true if is member\n    /// @return isManager true if is manager\n    function GetUserInfoByAddress(\n        address _houseAddr,\n        address _walletAddr\n    )\n        external\n        view\n        returns(\n            string memory name,\n            uint balance,\n            bool isMember,\n            bool isManager\n        )\n    {\n        ICLHouse daoCLH = ICLHouse( _houseAddr );\n\n        uint256 uid = daoCLH.mapIdMember( _walletAddr );\n\n        require( 0 != uid , \"Address not exist!!\" );\n\n        strMember memory houseMember;\n\n        (   houseMember.walletAddr,\n            houseMember.name,\n            houseMember.balance,\n            houseMember.isMember,\n            houseMember.isManager ) = daoCLH.arrMembers( uid );\n\n        require( true == houseMember.isMember  , \"User is not a Member\" );\n\n        return (\n            houseMember.name,\n            houseMember.balance,\n            houseMember.isMember,\n            houseMember.isManager\n        );\n    }\n\n    /// @notice The list of all members address\n    /// @param _houseAddr address of the CLH\n    /// @return arrMembers array with list of members\n    function GetHouseUserList(\n        address _houseAddr\n    )\n        external\n        view\n        returns(\n            strMember[] memory arrMembers\n        )\n    {\n        ICLHouse daoCLH = ICLHouse( _houseAddr );\n\n        uint8 numActiveMembers = daoCLH.numActiveMembers( );\n        uint256 arrMembersLength = daoCLH.GetArrMembersLength();\n        strMember[] memory _arrMembers = new strMember[] ( numActiveMembers );\n\n        uint8 index = 0 ;\n\n        for( uint256 uid = 1 ; uid < arrMembersLength ; uid++ ) {\n            strMember memory houseMember;\n\n            (   houseMember.walletAddr,\n                houseMember.name,\n                houseMember.balance,\n                houseMember.isMember,\n                houseMember.isManager ) = daoCLH.arrMembers( uid );\n\n            if( true == houseMember.isMember ){\n                _arrMembers[ index ] = houseMember;\n                index++;\n            }\n        }\n        return _arrMembers;\n    }\n\n    // / @notice The list of all members address\n    // / @param _houseAddr address of the CLH\n    // / @return arrInvitations array with list of Invitations\n    // function GetHouseInvitationList(\n    //     address _houseAddr\n    // )\n    //     external\n    //     view\n    //     returns(\n    //         strInfoInvit[] memory arrInvitations\n    //     )\n    // {\n    //     ICLHouse daoCLH = ICLHouse( _houseAddr );\n\n    //     uint256 arrDataLength = daoCLH.GetArrDataPropAddMember();\n    //     strInfoInvit[] memory _arrInvitations = new strInfoInvit[] ( arrDataLength );\n\n    //     uint8 index = 0 ;\n\n    //     for( uint256 uid = 1; uid < arrDataLength ; uid++ ) {\n    //         strDataAddMember memory infoUser;\n    //         (   \n    //             infoUser.walletAddr,\n    //             infoUser.name,\n    //             infoUser.isManager\n    //         ) = daoCLH.arrDataPropAddMember( uid );\n\n    //         uint256 propId = daoCLH.mapInvitationMember( infoUser.walletAddr );\n            \n    //         if( 0 != propId ){\n    //             strProposal memory infoProposal;\n    //             (\n    //                 infoProposal.proponent,\n    //                 infoProposal.typeProposal,\n    //                 infoProposal.description,\n    //                 infoProposal.propDataId,\n    //                 infoProposal.numVotes,\n    //                 infoProposal.againstVotes,\n    //                 infoProposal.executed,\n    //                 infoProposal.rejected,\n    //                 infoProposal.deadline\n    //             ) = daoCLH.arrProposals( propId );\n\n    //             if( block.timestamp < infoProposal.deadline ) {\n    //                 _arrInvitations[ index ] = strInfoInvit( {\n    //                     propId: propId,\n    //                     userName: infoUser.name,\n    //                     userWallet: infoUser.walletAddr,\n    //                     isManager: infoUser.isManager,\n    //                     deadline: infoProposal.deadline\n    //                 } );\n\n    //                 index++;\n    //             }\n    //         }\n    //     }\n    //     return _arrInvitations;\n    // }\n\n    /// @notice All properties of a House\n    /// @param _houseAddr CLH address\n    /// @return HOUSE_NAME name of the CLH\n    /// @return HOUSE_GOVERNANCE_MODEL Hash of governance model\n    /// @return housePrivate True if is private\n    /// @return numActiveMembers Current members of a CLH\n    /// @return numManagerMembers Current managers of a CLH\n    /// @return govRuleApprovPercentage Percentage for approval o reject proposal based on `numManagerMembers`\n    /// @return govRuleMaxActiveMembers Max of all members (including managers)\n    /// @return govRuleMaxManagerMembers Max of manager member that CLH can accept (only for COMMITTEE )\n    function GetHouseProperties(\n        address _houseAddr\n    )\n        external\n        view\n        returns(\n            string memory HOUSE_NAME,\n            bytes32 HOUSE_GOVERNANCE_MODEL,\n            bool housePrivate,\n            uint8 numActiveMembers,\n            uint8 numManagerMembers,\n            uint8 govRuleApprovPercentage,\n            uint8 govRuleMaxActiveMembers,\n            uint8 govRuleMaxManagerMembers\n        )\n    {\n        ICLHouse daoCLH = ICLHouse( _houseAddr );\n\n        return(\n            daoCLH.HOUSE_NAME(),\n            daoCLH.HOUSE_GOVERNANCE_MODEL(),\n            daoCLH.housePrivate(),\n            daoCLH.numActiveMembers(),\n            daoCLH.numManagerMembers(),\n            daoCLH.govRuleApprovPercentage(),\n            daoCLH.govRuleMaxActiveMembers(),\n            daoCLH.govRuleMaxManagerMembers()\n        );\n    }\n\n    /// @notice A funtion to verify the signer of a menssage\n    /// @param _msghash Hash of the message\n    /// @param _signature Signature of the message\n    /// @return Signer address of the message\n    function SignerOfMsg(\n        bytes32  _msghash,\n        bytes memory _signature\n    )\n        public\n        pure\n        returns( address )\n    {\n        require( _signature.length == 65, \"Bad signature length\" );\n\n        bytes32 signR;\n        bytes32 signS;\n        uint8 signV;\n\n        assembly {\n          // first 32 bytes, after the length prefix\n          signR := mload( add( _signature, 32 ) )\n          // second 32 bytes\n          signS := mload( add( _signature, 64 ) )\n          // final byte (first byte of the next 32 bytes)\n          signV := byte( 0, mload( add( _signature, 96 ) ) )\n        }\n\n        return ecrecover( _msghash, signV, signR, signS );\n    }\n\n\n    function SignerOCInvit(\n        bool _acceptance,\n        address _houseAddr,\n        bytes memory _signature\n    ) \n      external view\n      returns( address )\n    {\n        bytes32 hashEIP712Domain = keccak256(\n            abi.encode(\n                __STR_EIP712DOMAIN_HASH__,\n                __CONTRACT_NAME_HASH__,\n                __CONTRACT_VERSION_HASH__,\n                block.chainid,\n                _houseAddr\n            )\n        );\n\n        bytes32 hashMsg = keccak256(\n          abi.encode(\n                __STR_OCINVIT_HASH__,\n                _acceptance\n            )\n        );\n\n        bytes32 singhash = keccak256( abi.encodePacked( \"\\x19\\x01\", hashEIP712Domain, hashMsg ) );\n\n        return SignerOfMsg( singhash, _signature );\n    }\n\n\n    function SignerOCVote(\n        uint _propId,\n        bool _support,\n        string memory _justification,\n        address _houseAddr,\n        bytes memory _signature\n    ) \n      external view\n      returns( address )\n    {\n        bytes32 hashEIP712Domain = keccak256(\n            abi.encode(\n                __STR_EIP712DOMAIN_HASH__,\n                __CONTRACT_NAME_HASH__,\n                __CONTRACT_VERSION_HASH__,\n                block.chainid,\n                _houseAddr\n            )\n        );\n\n        bytes32 hashMsg = keccak256(\n          abi.encode(\n                __STR_OCVOTE_HASH__,\n                _propId,\n                _support,\n                keccak256( abi.encodePacked( _justification ) )\n            )\n        );\n\n        bytes32 singhash = keccak256( abi.encodePacked( \"\\x19\\x01\", hashEIP712Domain, hashMsg ) );\n\n        return SignerOfMsg( singhash, _signature );\n    }\n\n\n    function SignerOCNewMember(\n        address _walletAddr,\n        string memory _name,\n        string memory _description,\n        bool _isManager,\n        uint256 _delayTime,\n        address _houseAddr,\n        bytes memory _signature\n    ) \n      external view\n      returns( address )\n    {\n        bytes32 hashEIP712Domain = keccak256(\n            abi.encode(\n                __STR_EIP712DOMAIN_HASH__,\n                __CONTRACT_NAME_HASH__,\n                __CONTRACT_VERSION_HASH__,\n                block.chainid,\n                _houseAddr\n            )\n        );\n\n        bytes32 hashMsg = keccak256(\n          abi.encode(\n                __STR_OCNEWMEMBER_HASH__,\n                _walletAddr,\n                keccak256( abi.encodePacked( _name ) ),\n                keccak256( abi.encodePacked( _description ) ),\n                _isManager,\n                _delayTime\n            )\n        );\n\n        bytes32 singhash = keccak256( abi.encodePacked( \"\\x19\\x01\", hashEIP712Domain, hashMsg ) );\n\n        return SignerOfMsg( singhash, _signature );\n    }\n\n\n    function SignerOCDelMember(\n        address _walletAddr,\n        string memory _description,\n        uint256 _delayTime,\n        address _houseAddr,\n        bytes memory _signature\n    ) \n      external view\n      returns( address )\n    {\n        bytes32 hashEIP712Domain = keccak256(\n            abi.encode(\n                __STR_EIP712DOMAIN_HASH__,\n                __CONTRACT_NAME_HASH__,\n                __CONTRACT_VERSION_HASH__,\n                block.chainid,\n                _houseAddr\n            )\n        );\n\n        bytes32 hashMsg = keccak256(\n          abi.encode(\n                __STR_OCDELMEMBER_HASH__,\n                _walletAddr,\n                keccak256( abi.encodePacked( _description ) ),\n                _delayTime\n            )\n        );\n\n        bytes32 singhash = keccak256( abi.encodePacked( \"\\x19\\x01\", hashEIP712Domain, hashMsg ) );\n\n        return SignerOfMsg( singhash, _signature );\n    }\n\n\n    function SignerOCRequest(\n        string memory _name,\n        string memory _description,\n        address _houseAddr,\n        bytes memory _signature\n    ) \n      external view\n      returns( address )\n    {\n        bytes32 hashEIP712Domain = keccak256(\n            abi.encode(\n                __STR_EIP712DOMAIN_HASH__,\n                __CONTRACT_NAME_HASH__,\n                __CONTRACT_VERSION_HASH__,\n                block.chainid,\n                _houseAddr\n            )\n        );\n\n        bytes32 hashMsg = keccak256(\n          abi.encode(\n                __STR_OCREQUEST_HASH__,\n                keccak256( abi.encodePacked( _name ) ),\n                keccak256( abi.encodePacked( _description ) )\n            )\n        );\n\n        bytes32 singhash = keccak256( abi.encodePacked( \"\\x19\\x01\", hashEIP712Domain, hashMsg ) );\n\n        return SignerOfMsg( singhash, _signature );\n    }\n\n    function SignerOCNewCLH(\n        string memory _houseName,\n        bool _housePrivate,\n        bytes32 _gov,\n        uint8 _govRuleMaxManagerMembers,\n        uint8 _govRuleMaxActiveMembers,\n        uint8 _govRuleApprovPercentage,\n        address _whiteListWallets,\n        address _addrCLF,\n        bytes memory _signature\n    ) \n      external view\n      returns( address )\n    {\n        bytes32 hashEIP712Domain = keccak256(\n            abi.encode(\n                __STR_EIP712DOMAIN_HASH__,\n                __CONTRACT_NAME_HASH__,\n                __CONTRACT_VERSION_HASH__,\n                block.chainid,\n                _addrCLF\n            )\n        );\n\n        bytes32 hashMsg = keccak256(\n          abi.encode(\n                __STR_OCNEWCLH_HASH__,\n                keccak256( abi.encodePacked( _houseName ) ),\n                _housePrivate,\n                _gov,\n                _govRuleMaxManagerMembers,\n                _govRuleMaxActiveMembers,\n                _govRuleApprovPercentage,\n                _whiteListWallets\n                // keccak256( abi.encodePacked( _whiteListWallets ) )\n            )\n        );\n\n        bytes32 singhash = keccak256( abi.encodePacked( \"\\x19\\x01\", hashEIP712Domain, hashMsg ) );\n\n        return SignerOfMsg( singhash, _signature );\n    }\n}",
  "sourcePath": "contracts/CLHouse/ApiCLHouse.sol",
  "type": "contract"
}