{
  "abi": [
    {
      "inputs": [
        {
          "internalType": "address",
          "name": "_houseAddr",
          "type": "address"
        }
      ],
      "name": "GetHouseProperties",
      "outputs": [
        {
          "internalType": "string",
          "name": "HOUSE_NAME",
          "type": "string"
        },
        {
          "internalType": "bytes32",
          "name": "HOUSE_GOVERNANCE_MODEL",
          "type": "bytes32"
        },
        {
          "internalType": "bool",
          "name": "housePrivate",
          "type": "bool"
        },
        {
          "internalType": "uint8",
          "name": "numActiveMembers",
          "type": "uint8"
        },
        {
          "internalType": "uint8",
          "name": "numManagerMembers",
          "type": "uint8"
        },
        {
          "internalType": "uint8",
          "name": "govRuleApprovPercentage",
          "type": "uint8"
        },
        {
          "internalType": "uint8",
          "name": "govRuleMaxActiveMembers",
          "type": "uint8"
        },
        {
          "internalType": "uint8",
          "name": "govRuleMaxManagerMembers",
          "type": "uint8"
        }
      ],
      "stateMutability": "view",
      "type": "function"
    },
    {
      "inputs": [
        {
          "internalType": "address payable",
          "name": "_houseAddr",
          "type": "address"
        }
      ],
      "name": "GetHouseUserList",
      "outputs": [
        {
          "components": [
            {
              "internalType": "address",
              "name": "walletAddr",
              "type": "address"
            },
            {
              "internalType": "string",
              "name": "name",
              "type": "string"
            },
            {
              "internalType": "uint256",
              "name": "balance",
              "type": "uint256"
            },
            {
              "internalType": "bool",
              "name": "isMember",
              "type": "bool"
            },
            {
              "internalType": "bool",
              "name": "isManager",
              "type": "bool"
            }
          ],
          "internalType": "struct strMember[]",
          "name": "arrMembers",
          "type": "tuple[]"
        }
      ],
      "stateMutability": "view",
      "type": "function"
    },
    {
      "inputs": [
        {
          "internalType": "address payable",
          "name": "_houseAddr",
          "type": "address"
        },
        {
          "internalType": "address",
          "name": "_walletAddr",
          "type": "address"
        }
      ],
      "name": "GetUserInfoByAddress",
      "outputs": [
        {
          "internalType": "string",
          "name": "name",
          "type": "string"
        },
        {
          "internalType": "uint256",
          "name": "balance",
          "type": "uint256"
        },
        {
          "internalType": "bool",
          "name": "isMember",
          "type": "bool"
        },
        {
          "internalType": "bool",
          "name": "isManager",
          "type": "bool"
        }
      ],
      "stateMutability": "view",
      "type": "function"
    },
    {
      "inputs": [
        {
          "internalType": "bytes32",
          "name": "_msgh",
          "type": "bytes32"
        },
        {
          "internalType": "uint8",
          "name": "_v",
          "type": "uint8"
        },
        {
          "internalType": "bytes32",
          "name": "_r",
          "type": "bytes32"
        },
        {
          "internalType": "bytes32",
          "name": "_s",
          "type": "bytes32"
        }
      ],
      "name": "RecoverSignerFromSignature",
      "outputs": [
        {
          "internalType": "address",
          "name": "sender",
          "type": "address"
        }
      ],
      "stateMutability": "pure",
      "type": "function"
    },
    {
      "inputs": [
        {
          "internalType": "address",
          "name": "_houseAddr",
          "type": "address"
        },
        {
          "internalType": "address",
          "name": "_voter",
          "type": "address"
        },
        {
          "internalType": "uint256",
          "name": "_propId",
          "type": "uint256"
        },
        {
          "internalType": "bool",
          "name": "_support",
          "type": "bool"
        },
        {
          "internalType": "string",
          "name": "_justification",
          "type": "string"
        },
        {
          "internalType": "bytes",
          "name": "_signature",
          "type": "bytes"
        }
      ],
      "name": "ValidateSingOffChainVote",
      "outputs": [
        {
          "internalType": "bool",
          "name": "",
          "type": "bool"
        }
      ],
      "stateMutability": "view",
      "type": "function"
    }
  ],
  "bytecode": "608060405234801561001057600080fd5b50611207806100206000396000f3fe608060405234801561001057600080fd5b50600436106100575760003560e01c806306bca8081461005c5780632eeb1bb11461008c57806386abd826146100af5780638750bc3e146100d2578063b698be8d146100f9575b600080fd5b61006f61006a366004610c4c565b610119565b6040516001600160a01b0390911681526020015b60405180910390f35b61009f61009a366004610d71565b610181565b6040519015158152602001610083565b6100c26100bd366004610e15565b6104be565b6040516100839493929190610eaa565b6100e56100e0366004610edb565b61068a565b604051610083989796959493929190610eff565b61010c610107366004610edb565b6109cb565b6040516100839190610f52565b6040805160008082526020820180845287905260ff861692820192909252606081018490526080810183905260019060a0016020604051602081039080840390855afa15801561016d573d6000803e3d6000fd5b5050604051601f1901519695505050505050565b60008046905060006040516020016101fd907f454950373132446f6d61696e28737472696e67206e616d652c737472696e672081527f76657273696f6e2c75696e7432353620636861696e49642c6164647265737320602082015271766572696679696e67436f6e74726163742960701b604082015260520190565b60408051601f198184030181528282528051602091820120908301527f01318895af1f6db161b2ba745b8e57a6b46efad77d736630379ec69c3cd4c875908201527f07ef8ec374e43c85c540da8f69de7866f66e96deb3aa6b597df20e0ff3ce0c646060820152608081018390526001600160a01b038a1660a082015260c0016040516020818303038152906040528051906020012090506000604051602001610308907f7374724f6666436861696e566f7465286164647265737320766f7465722c756981527f6e743235362070726f7049642c626f6f6c20737570706f72742c737472696e6760208201526e206a757374696669636174696f6e2960881b6040820152604f0190565b60405160208183030381529060405280519060200120898989896040516020016103329190610ff6565b604051602081830303815290604052805190602001206040516020016103859594939291909485526001600160a01b03939093166020850152604084019190915215156060830152608082015260a00190565b604051602081830303815290604052805190602001209050600082826040516020016103c892919061190160f01b81526002810192909252602282015260420190565b604051602081830303815290604052805190602001209050855160411461042d5760405162461bcd60e51b8152602060048201526014602482015273084c2c840e6d2cedcc2e8eae4ca40d8cadccee8d60631b60448201526064015b60405180910390fd5b6020868101516040808901516060808b015183516000808252968101808652889052951a928501839052840183905260808401819052919260019060a0016020604051602081039080840390855afa15801561048d573d6000803e3d6000fd5b505050602060405103516001600160a01b03168d6001600160a01b0316149750505050505050509695505050505050565b6040516309c57df760e01b81526001600160a01b03828116600483015260609160009182918291879183918316906309c57df790602401602060405180830381865afa158015610512573d6000803e3d6000fd5b505050506040513d601f19601f820116820180604052508101906105369190611012565b90508061057b5760405162461bcd60e51b815260206004820152601360248201527241646472657373206e6f74206578697374212160681b6044820152606401610424565b610583610bfe565b604051638532cbf760e01b8152600481018390526001600160a01b03841690638532cbf790602401600060405180830381865afa1580156105c8573d6000803e3d6000fd5b505050506040513d6000823e601f3d908101601f191682016040526105f09190810190611078565b15156080860152151560608501819052604085019190915260208401919091526001600160a01b0390911682526001146106635760405162461bcd60e51b81526020600482015260146024820152732ab9b2b91034b9903737ba10309026b2b6b132b960611b6044820152606401610424565b602081015160408201516060830151608090930151919b909a509198509650945050505050565b6060600080600080600080600080899050806001600160a01b03166359ca2d036040518163ffffffff1660e01b8152600401600060405180830381865afa1580156106d9573d6000803e3d6000fd5b505050506040513d6000823e601f3d908101601f1916820160405261070191908101906110fb565b816001600160a01b0316631d5fd3ca6040518163ffffffff1660e01b8152600401602060405180830381865afa15801561073f573d6000803e3d6000fd5b505050506040513d601f19601f820116820180604052508101906107639190611012565b826001600160a01b031663f00d62746040518163ffffffff1660e01b8152600401602060405180830381865afa1580156107a1573d6000803e3d6000fd5b505050506040513d601f19601f820116820180604052508101906107c59190611130565b836001600160a01b031663da9bca216040518163ffffffff1660e01b8152600401602060405180830381865afa158015610803573d6000803e3d6000fd5b505050506040513d601f19601f82011682018060405250810190610827919061114d565b846001600160a01b0316638668eafc6040518163ffffffff1660e01b8152600401602060405180830381865afa158015610865573d6000803e3d6000fd5b505050506040513d601f19601f82011682018060405250810190610889919061114d565b856001600160a01b0316639c630a886040518163ffffffff1660e01b8152600401602060405180830381865afa1580156108c7573d6000803e3d6000fd5b505050506040513d601f19601f820116820180604052508101906108eb919061114d565b866001600160a01b031663ab44997b6040518163ffffffff1660e01b8152600401602060405180830381865afa158015610929573d6000803e3d6000fd5b505050506040513d601f19601f8201168201806040525081019061094d919061114d565b876001600160a01b03166305fe66636040518163ffffffff1660e01b8152600401602060405180830381865afa15801561098b573d6000803e3d6000fd5b505050506040513d601f19601f820116820180604052508101906109af919061114d565b9850985098509850985098509850985050919395975091939597565b606060008290506000816001600160a01b031663da9bca216040518163ffffffff1660e01b8152600401602060405180830381865afa158015610a12573d6000803e3d6000fd5b505050506040513d601f19601f82011682018060405250810190610a36919061114d565b90506000826001600160a01b031663824c88da6040518163ffffffff1660e01b8152600401602060405180830381865afa158015610a78573d6000803e3d6000fd5b505050506040513d601f19601f82011682018060405250810190610a9c9190611012565b905060008260ff1667ffffffffffffffff811115610abc57610abc610cac565b604051908082528060200260200182016040528015610af557816020015b610ae2610bfe565b815260200190600190039081610ada5790505b509050600060015b83811015610bf257610b0d610bfe565b604051638532cbf760e01b8152600481018390526001600160a01b03881690638532cbf790602401600060405180830381865afa158015610b52573d6000803e3d6000fd5b505050506040513d6000823e601f3d908101601f19168201604052610b7a9190810190611078565b15156080860152151560608501819052604085019190915260208401919091526001600160a01b03909116825260011415610bdf5780848460ff1681518110610bc557610bc561116a565b60200260200101819052508280610bdb90611196565b9350505b5080610bea816111b6565b915050610afd565b50909695505050505050565b6040518060a0016040528060006001600160a01b0316815260200160608152602001600081526020016000151581526020016000151581525090565b60ff81168114610c4957600080fd5b50565b60008060008060808587031215610c6257600080fd5b843593506020850135610c7481610c3a565b93969395505050506040820135916060013590565b6001600160a01b0381168114610c4957600080fd5b8015158114610c4957600080fd5b634e487b7160e01b600052604160045260246000fd5b604051601f8201601f1916810167ffffffffffffffff81118282101715610ceb57610ceb610cac565b604052919050565b600067ffffffffffffffff821115610d0d57610d0d610cac565b50601f01601f191660200190565b600082601f830112610d2c57600080fd5b8135610d3f610d3a82610cf3565b610cc2565b818152846020838601011115610d5457600080fd5b816020850160208301376000918101602001919091529392505050565b60008060008060008060c08789031215610d8a57600080fd5b8635610d9581610c89565b95506020870135610da581610c89565b9450604087013593506060870135610dbc81610c9e565b9250608087013567ffffffffffffffff80821115610dd957600080fd5b610de58a838b01610d1b565b935060a0890135915080821115610dfb57600080fd5b50610e0889828a01610d1b565b9150509295509295509295565b60008060408385031215610e2857600080fd5b8235610e3381610c89565b91506020830135610e4381610c89565b809150509250929050565b60005b83811015610e69578181015183820152602001610e51565b83811115610e78576000848401525b50505050565b60008151808452610e96816020860160208601610e4e565b601f01601f19169290920160200192915050565b608081526000610ebd6080830187610e7e565b60208301959095525091151560408301521515606090910152919050565b600060208284031215610eed57600080fd5b8135610ef881610c89565b9392505050565b6000610100808352610f138184018c610e7e565b602084019a909a525050951515604087015260ff9485166060870152928416608086015290831660a0850152821660c08401521660e090910152919050565b60006020808301818452808551808352604092508286019150828160051b87010184880160005b83811015610fe857888303603f19018552815180516001600160a01b031684528781015160a089860181905290610fb282870182610e7e565b838a0151878b01526060808501511515908801526080938401511515939096019290925250509386019390860190600101610f79565b509098975050505050505050565b60008251611008818460208701610e4e565b9190910192915050565b60006020828403121561102457600080fd5b5051919050565b600082601f83011261103c57600080fd5b815161104a610d3a82610cf3565b81815284602083860101111561105f57600080fd5b611070826020830160208701610e4e565b949350505050565b600080600080600060a0868803121561109057600080fd5b855161109b81610c89565b602087015190955067ffffffffffffffff8111156110b857600080fd5b6110c48882890161102b565b9450506040860151925060608601516110dc81610c9e565b60808701519092506110ed81610c9e565b809150509295509295909350565b60006020828403121561110d57600080fd5b815167ffffffffffffffff81111561112457600080fd5b6110708482850161102b565b60006020828403121561114257600080fd5b8151610ef881610c9e565b60006020828403121561115f57600080fd5b8151610ef881610c3a565b634e487b7160e01b600052603260045260246000fd5b634e487b7160e01b600052601160045260246000fd5b600060ff821660ff8114156111ad576111ad611180565b60010192915050565b60006000198214156111ca576111ca611180565b506001019056fea26469706673582212200758e08f4a70edacf4b3d0c5f89540d14b9ebf30060c5e6ec6c011f1b3913b2a64736f6c634300080c0033",
  "bytecodeSha1": "e3bd7e39e10ccde6df0a78b1e5cb94b37f0f2aeb",
  "compiler": {
    "evm_version": "istanbul",
    "optimizer": {
      "enabled": true,
      "runs": 200
    },
    "version": "0.8.12+commit.f00d7308"
  },
  "contractName": "ApiCLHouse",
  "language": "Solidity",
  "natspec": {
    "author": "Leonardo Urrego",
    "kind": "dev",
    "methods": {
      "GetHouseProperties(address)": {
        "notice": "All properties of a House",
        "params": {
          "_houseAddr": "CLH address"
        },
        "returns": {
          "HOUSE_GOVERNANCE_MODEL": "Hash of governance model",
          "HOUSE_NAME": "name of the CLH",
          "govRuleApprovPercentage": "Percentage for approval o reject proposal based on `numManagerMembers`",
          "govRuleMaxActiveMembers": "Max of all members (including managers)",
          "govRuleMaxManagerMembers": "Max of manager member that CLH can accept (only for COMMITTEE )",
          "housePrivate": "True if is private",
          "numActiveMembers": "Current members of a CLH",
          "numManagerMembers": "Current managers of a CLH"
        }
      },
      "GetHouseUserList(address)": {
        "notice": "The list of all members address",
        "params": {
          "_houseAddr": "address of the CLH"
        },
        "returns": {
          "arrMembers": "array with list of members"
        }
      },
      "GetUserInfoByAddress(address,address)": {
        "notice": "Get the info of an user in one especific CLH",
        "params": {
          "_houseAddr": "Address of the CLH",
          "_walletAddr": "Address of the user"
        },
        "returns": {
          "balance": "How much money have deposited",
          "isManager": "true if is manager",
          "isMember": "true if is member",
          "name": "Nickname ot other user identificaction"
        }
      },
      "RecoverSignerFromSignature(bytes32,uint8,bytes32,bytes32)": {
        "notice": "A funtion to verify the signer of a menssage",
        "params": {
          "_msgh": "Signed message",
          "_r": "R",
          "_s": "S",
          "_v": "V"
        },
        "returns": {
          "sender": "The address of the signer"
        }
      }
    },
    "notice": "This contract is only for test ",
    "title": "Some funtions to interact with a CLHouse",
    "version": 1
  },
  "opcodes": "PUSH1 0x80 PUSH1 0x40 MSTORE CALLVALUE DUP1 ISZERO PUSH2 0x10 JUMPI PUSH1 0x0 DUP1 REVERT JUMPDEST POP PUSH1 0x4 CALLDATASIZE LT PUSH2 0x57 JUMPI PUSH1 0x0 CALLDATALOAD PUSH1 0xE0 SHR DUP1 PUSH4 0x6BCA808 EQ PUSH2 0x5C JUMPI DUP1 PUSH4 0x2EEB1BB1 EQ PUSH2 0x8C JUMPI DUP1 PUSH4 0x86ABD826 EQ PUSH2 0xAF JUMPI DUP1 PUSH4 0x8750BC3E EQ PUSH2 0xD2 JUMPI DUP1 PUSH4 0xB698BE8D EQ PUSH2 0xF9 JUMPI JUMPDEST PUSH1 0x0 DUP1 REVERT JUMPDEST PUSH2 0x6F PUSH2 0x6A CALLDATASIZE PUSH1 0x4 PUSH2 0xC4C JUMP JUMPDEST PUSH2 0x119 JUMP JUMPDEST PUSH1 0x40 MLOAD PUSH1 0x1 PUSH1 0x1 PUSH1 0xA0 SHL SUB SWAP1 SWAP2 AND DUP2 MSTORE PUSH1 0x20 ADD JUMPDEST PUSH1 0x40 MLOAD DUP1 SWAP2 SUB SWAP1 RETURN JUMPDEST PUSH2 0x9F PUSH2 0x9A CALLDATASIZE PUSH1 0x4 PUSH2 0xD71 JUMP JUMPDEST PUSH2 0x181 JUMP JUMPDEST PUSH1 0x40 MLOAD SWAP1 ISZERO ISZERO DUP2 MSTORE PUSH1 0x20 ADD PUSH2 0x83 JUMP JUMPDEST PUSH2 0xC2 PUSH2 0xBD CALLDATASIZE PUSH1 0x4 PUSH2 0xE15 JUMP JUMPDEST PUSH2 0x4BE JUMP JUMPDEST PUSH1 0x40 MLOAD PUSH2 0x83 SWAP5 SWAP4 SWAP3 SWAP2 SWAP1 PUSH2 0xEAA JUMP JUMPDEST PUSH2 0xE5 PUSH2 0xE0 CALLDATASIZE PUSH1 0x4 PUSH2 0xEDB JUMP JUMPDEST PUSH2 0x68A JUMP JUMPDEST PUSH1 0x40 MLOAD PUSH2 0x83 SWAP9 SWAP8 SWAP7 SWAP6 SWAP5 SWAP4 SWAP3 SWAP2 SWAP1 PUSH2 0xEFF JUMP JUMPDEST PUSH2 0x10C PUSH2 0x107 CALLDATASIZE PUSH1 0x4 PUSH2 0xEDB JUMP JUMPDEST PUSH2 0x9CB JUMP JUMPDEST PUSH1 0x40 MLOAD PUSH2 0x83 SWAP2 SWAP1 PUSH2 0xF52 JUMP JUMPDEST PUSH1 0x40 DUP1 MLOAD PUSH1 0x0 DUP1 DUP3 MSTORE PUSH1 0x20 DUP3 ADD DUP1 DUP5 MSTORE DUP8 SWAP1 MSTORE PUSH1 0xFF DUP7 AND SWAP3 DUP3 ADD SWAP3 SWAP1 SWAP3 MSTORE PUSH1 0x60 DUP2 ADD DUP5 SWAP1 MSTORE PUSH1 0x80 DUP2 ADD DUP4 SWAP1 MSTORE PUSH1 0x1 SWAP1 PUSH1 0xA0 ADD PUSH1 0x20 PUSH1 0x40 MLOAD PUSH1 0x20 DUP2 SUB SWAP1 DUP1 DUP5 SUB SWAP1 DUP6 GAS STATICCALL ISZERO DUP1 ISZERO PUSH2 0x16D JUMPI RETURNDATASIZE PUSH1 0x0 DUP1 RETURNDATACOPY RETURNDATASIZE PUSH1 0x0 REVERT JUMPDEST POP POP PUSH1 0x40 MLOAD PUSH1 0x1F NOT ADD MLOAD SWAP7 SWAP6 POP POP POP POP POP POP JUMP JUMPDEST PUSH1 0x0 DUP1 CHAINID SWAP1 POP PUSH1 0x0 PUSH1 0x40 MLOAD PUSH1 0x20 ADD PUSH2 0x1FD SWAP1 PUSH32 0x454950373132446F6D61696E28737472696E67206E616D652C737472696E6720 DUP2 MSTORE PUSH32 0x76657273696F6E2C75696E7432353620636861696E49642C6164647265737320 PUSH1 0x20 DUP3 ADD MSTORE PUSH18 0x766572696679696E67436F6E747261637429 PUSH1 0x70 SHL PUSH1 0x40 DUP3 ADD MSTORE PUSH1 0x52 ADD SWAP1 JUMP JUMPDEST PUSH1 0x40 DUP1 MLOAD PUSH1 0x1F NOT DUP2 DUP5 SUB ADD DUP2 MSTORE DUP3 DUP3 MSTORE DUP1 MLOAD PUSH1 0x20 SWAP2 DUP3 ADD KECCAK256 SWAP1 DUP4 ADD MSTORE PUSH32 0x1318895AF1F6DB161B2BA745B8E57A6B46EFAD77D736630379EC69C3CD4C875 SWAP1 DUP3 ADD MSTORE PUSH32 0x7EF8EC374E43C85C540DA8F69DE7866F66E96DEB3AA6B597DF20E0FF3CE0C64 PUSH1 0x60 DUP3 ADD MSTORE PUSH1 0x80 DUP2 ADD DUP4 SWAP1 MSTORE PUSH1 0x1 PUSH1 0x1 PUSH1 0xA0 SHL SUB DUP11 AND PUSH1 0xA0 DUP3 ADD MSTORE PUSH1 0xC0 ADD PUSH1 0x40 MLOAD PUSH1 0x20 DUP2 DUP4 SUB SUB DUP2 MSTORE SWAP1 PUSH1 0x40 MSTORE DUP1 MLOAD SWAP1 PUSH1 0x20 ADD KECCAK256 SWAP1 POP PUSH1 0x0 PUSH1 0x40 MLOAD PUSH1 0x20 ADD PUSH2 0x308 SWAP1 PUSH32 0x7374724F6666436861696E566F7465286164647265737320766F7465722C7569 DUP2 MSTORE PUSH32 0x6E743235362070726F7049642C626F6F6C20737570706F72742C737472696E67 PUSH1 0x20 DUP3 ADD MSTORE PUSH15 0x206A757374696669636174696F6E29 PUSH1 0x88 SHL PUSH1 0x40 DUP3 ADD MSTORE PUSH1 0x4F ADD SWAP1 JUMP JUMPDEST PUSH1 0x40 MLOAD PUSH1 0x20 DUP2 DUP4 SUB SUB DUP2 MSTORE SWAP1 PUSH1 0x40 MSTORE DUP1 MLOAD SWAP1 PUSH1 0x20 ADD KECCAK256 DUP10 DUP10 DUP10 DUP10 PUSH1 0x40 MLOAD PUSH1 0x20 ADD PUSH2 0x332 SWAP2 SWAP1 PUSH2 0xFF6 JUMP JUMPDEST PUSH1 0x40 MLOAD PUSH1 0x20 DUP2 DUP4 SUB SUB DUP2 MSTORE SWAP1 PUSH1 0x40 MSTORE DUP1 MLOAD SWAP1 PUSH1 0x20 ADD KECCAK256 PUSH1 0x40 MLOAD PUSH1 0x20 ADD PUSH2 0x385 SWAP6 SWAP5 SWAP4 SWAP3 SWAP2 SWAP1 SWAP5 DUP6 MSTORE PUSH1 0x1 PUSH1 0x1 PUSH1 0xA0 SHL SUB SWAP4 SWAP1 SWAP4 AND PUSH1 0x20 DUP6 ADD MSTORE PUSH1 0x40 DUP5 ADD SWAP2 SWAP1 SWAP2 MSTORE ISZERO ISZERO PUSH1 0x60 DUP4 ADD MSTORE PUSH1 0x80 DUP3 ADD MSTORE PUSH1 0xA0 ADD SWAP1 JUMP JUMPDEST PUSH1 0x40 MLOAD PUSH1 0x20 DUP2 DUP4 SUB SUB DUP2 MSTORE SWAP1 PUSH1 0x40 MSTORE DUP1 MLOAD SWAP1 PUSH1 0x20 ADD KECCAK256 SWAP1 POP PUSH1 0x0 DUP3 DUP3 PUSH1 0x40 MLOAD PUSH1 0x20 ADD PUSH2 0x3C8 SWAP3 SWAP2 SWAP1 PUSH2 0x1901 PUSH1 0xF0 SHL DUP2 MSTORE PUSH1 0x2 DUP2 ADD SWAP3 SWAP1 SWAP3 MSTORE PUSH1 0x22 DUP3 ADD MSTORE PUSH1 0x42 ADD SWAP1 JUMP JUMPDEST PUSH1 0x40 MLOAD PUSH1 0x20 DUP2 DUP4 SUB SUB DUP2 MSTORE SWAP1 PUSH1 0x40 MSTORE DUP1 MLOAD SWAP1 PUSH1 0x20 ADD KECCAK256 SWAP1 POP DUP6 MLOAD PUSH1 0x41 EQ PUSH2 0x42D JUMPI PUSH1 0x40 MLOAD PUSH3 0x461BCD PUSH1 0xE5 SHL DUP2 MSTORE PUSH1 0x20 PUSH1 0x4 DUP3 ADD MSTORE PUSH1 0x14 PUSH1 0x24 DUP3 ADD MSTORE PUSH20 0x84C2C840E6D2CEDCC2E8EAE4CA40D8CADCCEE8D PUSH1 0x63 SHL PUSH1 0x44 DUP3 ADD MSTORE PUSH1 0x64 ADD JUMPDEST PUSH1 0x40 MLOAD DUP1 SWAP2 SUB SWAP1 REVERT JUMPDEST PUSH1 0x20 DUP7 DUP2 ADD MLOAD PUSH1 0x40 DUP1 DUP10 ADD MLOAD PUSH1 0x60 DUP1 DUP12 ADD MLOAD DUP4 MLOAD PUSH1 0x0 DUP1 DUP3 MSTORE SWAP7 DUP2 ADD DUP1 DUP7 MSTORE DUP9 SWAP1 MSTORE SWAP6 BYTE SWAP3 DUP6 ADD DUP4 SWAP1 MSTORE DUP5 ADD DUP4 SWAP1 MSTORE PUSH1 0x80 DUP5 ADD DUP2 SWAP1 MSTORE SWAP2 SWAP3 PUSH1 0x1 SWAP1 PUSH1 0xA0 ADD PUSH1 0x20 PUSH1 0x40 MLOAD PUSH1 0x20 DUP2 SUB SWAP1 DUP1 DUP5 SUB SWAP1 DUP6 GAS STATICCALL ISZERO DUP1 ISZERO PUSH2 0x48D JUMPI RETURNDATASIZE PUSH1 0x0 DUP1 RETURNDATACOPY RETURNDATASIZE PUSH1 0x0 REVERT JUMPDEST POP POP POP PUSH1 0x20 PUSH1 0x40 MLOAD SUB MLOAD PUSH1 0x1 PUSH1 0x1 PUSH1 0xA0 SHL SUB AND DUP14 PUSH1 0x1 PUSH1 0x1 PUSH1 0xA0 SHL SUB AND EQ SWAP8 POP POP POP POP POP POP POP POP SWAP7 SWAP6 POP POP POP POP POP POP JUMP JUMPDEST PUSH1 0x40 MLOAD PUSH4 0x9C57DF7 PUSH1 0xE0 SHL DUP2 MSTORE PUSH1 0x1 PUSH1 0x1 PUSH1 0xA0 SHL SUB DUP3 DUP2 AND PUSH1 0x4 DUP4 ADD MSTORE PUSH1 0x60 SWAP2 PUSH1 0x0 SWAP2 DUP3 SWAP2 DUP3 SWAP2 DUP8 SWAP2 DUP4 SWAP2 DUP4 AND SWAP1 PUSH4 0x9C57DF7 SWAP1 PUSH1 0x24 ADD PUSH1 0x20 PUSH1 0x40 MLOAD DUP1 DUP4 SUB DUP2 DUP7 GAS STATICCALL ISZERO DUP1 ISZERO PUSH2 0x512 JUMPI RETURNDATASIZE PUSH1 0x0 DUP1 RETURNDATACOPY RETURNDATASIZE PUSH1 0x0 REVERT JUMPDEST POP POP POP POP PUSH1 0x40 MLOAD RETURNDATASIZE PUSH1 0x1F NOT PUSH1 0x1F DUP3 ADD AND DUP3 ADD DUP1 PUSH1 0x40 MSTORE POP DUP2 ADD SWAP1 PUSH2 0x536 SWAP2 SWAP1 PUSH2 0x1012 JUMP JUMPDEST SWAP1 POP DUP1 PUSH2 0x57B JUMPI PUSH1 0x40 MLOAD PUSH3 0x461BCD PUSH1 0xE5 SHL DUP2 MSTORE PUSH1 0x20 PUSH1 0x4 DUP3 ADD MSTORE PUSH1 0x13 PUSH1 0x24 DUP3 ADD MSTORE PUSH19 0x41646472657373206E6F742065786973742121 PUSH1 0x68 SHL PUSH1 0x44 DUP3 ADD MSTORE PUSH1 0x64 ADD PUSH2 0x424 JUMP JUMPDEST PUSH2 0x583 PUSH2 0xBFE JUMP JUMPDEST PUSH1 0x40 MLOAD PUSH4 0x8532CBF7 PUSH1 0xE0 SHL DUP2 MSTORE PUSH1 0x4 DUP2 ADD DUP4 SWAP1 MSTORE PUSH1 0x1 PUSH1 0x1 PUSH1 0xA0 SHL SUB DUP5 AND SWAP1 PUSH4 0x8532CBF7 SWAP1 PUSH1 0x24 ADD PUSH1 0x0 PUSH1 0x40 MLOAD DUP1 DUP4 SUB DUP2 DUP7 GAS STATICCALL ISZERO DUP1 ISZERO PUSH2 0x5C8 JUMPI RETURNDATASIZE PUSH1 0x0 DUP1 RETURNDATACOPY RETURNDATASIZE PUSH1 0x0 REVERT JUMPDEST POP POP POP POP PUSH1 0x40 MLOAD RETURNDATASIZE PUSH1 0x0 DUP3 RETURNDATACOPY PUSH1 0x1F RETURNDATASIZE SWAP1 DUP2 ADD PUSH1 0x1F NOT AND DUP3 ADD PUSH1 0x40 MSTORE PUSH2 0x5F0 SWAP2 SWAP1 DUP2 ADD SWAP1 PUSH2 0x1078 JUMP JUMPDEST ISZERO ISZERO PUSH1 0x80 DUP7 ADD MSTORE ISZERO ISZERO PUSH1 0x60 DUP6 ADD DUP2 SWAP1 MSTORE PUSH1 0x40 DUP6 ADD SWAP2 SWAP1 SWAP2 MSTORE PUSH1 0x20 DUP5 ADD SWAP2 SWAP1 SWAP2 MSTORE PUSH1 0x1 PUSH1 0x1 PUSH1 0xA0 SHL SUB SWAP1 SWAP2 AND DUP3 MSTORE PUSH1 0x1 EQ PUSH2 0x663 JUMPI PUSH1 0x40 MLOAD PUSH3 0x461BCD PUSH1 0xE5 SHL DUP2 MSTORE PUSH1 0x20 PUSH1 0x4 DUP3 ADD MSTORE PUSH1 0x14 PUSH1 0x24 DUP3 ADD MSTORE PUSH20 0x2AB9B2B91034B9903737BA10309026B2B6B132B9 PUSH1 0x61 SHL PUSH1 0x44 DUP3 ADD MSTORE PUSH1 0x64 ADD PUSH2 0x424 JUMP JUMPDEST PUSH1 0x20 DUP2 ADD MLOAD PUSH1 0x40 DUP3 ADD MLOAD PUSH1 0x60 DUP4 ADD MLOAD PUSH1 0x80 SWAP1 SWAP4 ADD MLOAD SWAP2 SWAP12 SWAP1 SWAP11 POP SWAP2 SWAP9 POP SWAP7 POP SWAP5 POP POP POP POP POP JUMP JUMPDEST PUSH1 0x60 PUSH1 0x0 DUP1 PUSH1 0x0 DUP1 PUSH1 0x0 DUP1 PUSH1 0x0 DUP1 DUP10 SWAP1 POP DUP1 PUSH1 0x1 PUSH1 0x1 PUSH1 0xA0 SHL SUB AND PUSH4 0x59CA2D03 PUSH1 0x40 MLOAD DUP2 PUSH4 0xFFFFFFFF AND PUSH1 0xE0 SHL DUP2 MSTORE PUSH1 0x4 ADD PUSH1 0x0 PUSH1 0x40 MLOAD DUP1 DUP4 SUB DUP2 DUP7 GAS STATICCALL ISZERO DUP1 ISZERO PUSH2 0x6D9 JUMPI RETURNDATASIZE PUSH1 0x0 DUP1 RETURNDATACOPY RETURNDATASIZE PUSH1 0x0 REVERT JUMPDEST POP POP POP POP PUSH1 0x40 MLOAD RETURNDATASIZE PUSH1 0x0 DUP3 RETURNDATACOPY PUSH1 0x1F RETURNDATASIZE SWAP1 DUP2 ADD PUSH1 0x1F NOT AND DUP3 ADD PUSH1 0x40 MSTORE PUSH2 0x701 SWAP2 SWAP1 DUP2 ADD SWAP1 PUSH2 0x10FB JUMP JUMPDEST DUP2 PUSH1 0x1 PUSH1 0x1 PUSH1 0xA0 SHL SUB AND PUSH4 0x1D5FD3CA PUSH1 0x40 MLOAD DUP2 PUSH4 0xFFFFFFFF AND PUSH1 0xE0 SHL DUP2 MSTORE PUSH1 0x4 ADD PUSH1 0x20 PUSH1 0x40 MLOAD DUP1 DUP4 SUB DUP2 DUP7 GAS STATICCALL ISZERO DUP1 ISZERO PUSH2 0x73F JUMPI RETURNDATASIZE PUSH1 0x0 DUP1 RETURNDATACOPY RETURNDATASIZE PUSH1 0x0 REVERT JUMPDEST POP POP POP POP PUSH1 0x40 MLOAD RETURNDATASIZE PUSH1 0x1F NOT PUSH1 0x1F DUP3 ADD AND DUP3 ADD DUP1 PUSH1 0x40 MSTORE POP DUP2 ADD SWAP1 PUSH2 0x763 SWAP2 SWAP1 PUSH2 0x1012 JUMP JUMPDEST DUP3 PUSH1 0x1 PUSH1 0x1 PUSH1 0xA0 SHL SUB AND PUSH4 0xF00D6274 PUSH1 0x40 MLOAD DUP2 PUSH4 0xFFFFFFFF AND PUSH1 0xE0 SHL DUP2 MSTORE PUSH1 0x4 ADD PUSH1 0x20 PUSH1 0x40 MLOAD DUP1 DUP4 SUB DUP2 DUP7 GAS STATICCALL ISZERO DUP1 ISZERO PUSH2 0x7A1 JUMPI RETURNDATASIZE PUSH1 0x0 DUP1 RETURNDATACOPY RETURNDATASIZE PUSH1 0x0 REVERT JUMPDEST POP POP POP POP PUSH1 0x40 MLOAD RETURNDATASIZE PUSH1 0x1F NOT PUSH1 0x1F DUP3 ADD AND DUP3 ADD DUP1 PUSH1 0x40 MSTORE POP DUP2 ADD SWAP1 PUSH2 0x7C5 SWAP2 SWAP1 PUSH2 0x1130 JUMP JUMPDEST DUP4 PUSH1 0x1 PUSH1 0x1 PUSH1 0xA0 SHL SUB AND PUSH4 0xDA9BCA21 PUSH1 0x40 MLOAD DUP2 PUSH4 0xFFFFFFFF AND PUSH1 0xE0 SHL DUP2 MSTORE PUSH1 0x4 ADD PUSH1 0x20 PUSH1 0x40 MLOAD DUP1 DUP4 SUB DUP2 DUP7 GAS STATICCALL ISZERO DUP1 ISZERO PUSH2 0x803 JUMPI RETURNDATASIZE PUSH1 0x0 DUP1 RETURNDATACOPY RETURNDATASIZE PUSH1 0x0 REVERT JUMPDEST POP POP POP POP PUSH1 0x40 MLOAD RETURNDATASIZE PUSH1 0x1F NOT PUSH1 0x1F DUP3 ADD AND DUP3 ADD DUP1 PUSH1 0x40 MSTORE POP DUP2 ADD SWAP1 PUSH2 0x827 SWAP2 SWAP1 PUSH2 0x114D JUMP JUMPDEST DUP5 PUSH1 0x1 PUSH1 0x1 PUSH1 0xA0 SHL SUB AND PUSH4 0x8668EAFC PUSH1 0x40 MLOAD DUP2 PUSH4 0xFFFFFFFF AND PUSH1 0xE0 SHL DUP2 MSTORE PUSH1 0x4 ADD PUSH1 0x20 PUSH1 0x40 MLOAD DUP1 DUP4 SUB DUP2 DUP7 GAS STATICCALL ISZERO DUP1 ISZERO PUSH2 0x865 JUMPI RETURNDATASIZE PUSH1 0x0 DUP1 RETURNDATACOPY RETURNDATASIZE PUSH1 0x0 REVERT JUMPDEST POP POP POP POP PUSH1 0x40 MLOAD RETURNDATASIZE PUSH1 0x1F NOT PUSH1 0x1F DUP3 ADD AND DUP3 ADD DUP1 PUSH1 0x40 MSTORE POP DUP2 ADD SWAP1 PUSH2 0x889 SWAP2 SWAP1 PUSH2 0x114D JUMP JUMPDEST DUP6 PUSH1 0x1 PUSH1 0x1 PUSH1 0xA0 SHL SUB AND PUSH4 0x9C630A88 PUSH1 0x40 MLOAD DUP2 PUSH4 0xFFFFFFFF AND PUSH1 0xE0 SHL DUP2 MSTORE PUSH1 0x4 ADD PUSH1 0x20 PUSH1 0x40 MLOAD DUP1 DUP4 SUB DUP2 DUP7 GAS STATICCALL ISZERO DUP1 ISZERO PUSH2 0x8C7 JUMPI RETURNDATASIZE PUSH1 0x0 DUP1 RETURNDATACOPY RETURNDATASIZE PUSH1 0x0 REVERT JUMPDEST POP POP POP POP PUSH1 0x40 MLOAD RETURNDATASIZE PUSH1 0x1F NOT PUSH1 0x1F DUP3 ADD AND DUP3 ADD DUP1 PUSH1 0x40 MSTORE POP DUP2 ADD SWAP1 PUSH2 0x8EB SWAP2 SWAP1 PUSH2 0x114D JUMP JUMPDEST DUP7 PUSH1 0x1 PUSH1 0x1 PUSH1 0xA0 SHL SUB AND PUSH4 0xAB44997B PUSH1 0x40 MLOAD DUP2 PUSH4 0xFFFFFFFF AND PUSH1 0xE0 SHL DUP2 MSTORE PUSH1 0x4 ADD PUSH1 0x20 PUSH1 0x40 MLOAD DUP1 DUP4 SUB DUP2 DUP7 GAS STATICCALL ISZERO DUP1 ISZERO PUSH2 0x929 JUMPI RETURNDATASIZE PUSH1 0x0 DUP1 RETURNDATACOPY RETURNDATASIZE PUSH1 0x0 REVERT JUMPDEST POP POP POP POP PUSH1 0x40 MLOAD RETURNDATASIZE PUSH1 0x1F NOT PUSH1 0x1F DUP3 ADD AND DUP3 ADD DUP1 PUSH1 0x40 MSTORE POP DUP2 ADD SWAP1 PUSH2 0x94D SWAP2 SWAP1 PUSH2 0x114D JUMP JUMPDEST DUP8 PUSH1 0x1 PUSH1 0x1 PUSH1 0xA0 SHL SUB AND PUSH4 0x5FE6663 PUSH1 0x40 MLOAD DUP2 PUSH4 0xFFFFFFFF AND PUSH1 0xE0 SHL DUP2 MSTORE PUSH1 0x4 ADD PUSH1 0x20 PUSH1 0x40 MLOAD DUP1 DUP4 SUB DUP2 DUP7 GAS STATICCALL ISZERO DUP1 ISZERO PUSH2 0x98B JUMPI RETURNDATASIZE PUSH1 0x0 DUP1 RETURNDATACOPY RETURNDATASIZE PUSH1 0x0 REVERT JUMPDEST POP POP POP POP PUSH1 0x40 MLOAD RETURNDATASIZE PUSH1 0x1F NOT PUSH1 0x1F DUP3 ADD AND DUP3 ADD DUP1 PUSH1 0x40 MSTORE POP DUP2 ADD SWAP1 PUSH2 0x9AF SWAP2 SWAP1 PUSH2 0x114D JUMP JUMPDEST SWAP9 POP SWAP9 POP SWAP9 POP SWAP9 POP SWAP9 POP SWAP9 POP SWAP9 POP SWAP9 POP POP SWAP2 SWAP4 SWAP6 SWAP8 POP SWAP2 SWAP4 SWAP6 SWAP8 JUMP JUMPDEST PUSH1 0x60 PUSH1 0x0 DUP3 SWAP1 POP PUSH1 0x0 DUP2 PUSH1 0x1 PUSH1 0x1 PUSH1 0xA0 SHL SUB AND PUSH4 0xDA9BCA21 PUSH1 0x40 MLOAD DUP2 PUSH4 0xFFFFFFFF AND PUSH1 0xE0 SHL DUP2 MSTORE PUSH1 0x4 ADD PUSH1 0x20 PUSH1 0x40 MLOAD DUP1 DUP4 SUB DUP2 DUP7 GAS STATICCALL ISZERO DUP1 ISZERO PUSH2 0xA12 JUMPI RETURNDATASIZE PUSH1 0x0 DUP1 RETURNDATACOPY RETURNDATASIZE PUSH1 0x0 REVERT JUMPDEST POP POP POP POP PUSH1 0x40 MLOAD RETURNDATASIZE PUSH1 0x1F NOT PUSH1 0x1F DUP3 ADD AND DUP3 ADD DUP1 PUSH1 0x40 MSTORE POP DUP2 ADD SWAP1 PUSH2 0xA36 SWAP2 SWAP1 PUSH2 0x114D JUMP JUMPDEST SWAP1 POP PUSH1 0x0 DUP3 PUSH1 0x1 PUSH1 0x1 PUSH1 0xA0 SHL SUB AND PUSH4 0x824C88DA PUSH1 0x40 MLOAD DUP2 PUSH4 0xFFFFFFFF AND PUSH1 0xE0 SHL DUP2 MSTORE PUSH1 0x4 ADD PUSH1 0x20 PUSH1 0x40 MLOAD DUP1 DUP4 SUB DUP2 DUP7 GAS STATICCALL ISZERO DUP1 ISZERO PUSH2 0xA78 JUMPI RETURNDATASIZE PUSH1 0x0 DUP1 RETURNDATACOPY RETURNDATASIZE PUSH1 0x0 REVERT JUMPDEST POP POP POP POP PUSH1 0x40 MLOAD RETURNDATASIZE PUSH1 0x1F NOT PUSH1 0x1F DUP3 ADD AND DUP3 ADD DUP1 PUSH1 0x40 MSTORE POP DUP2 ADD SWAP1 PUSH2 0xA9C SWAP2 SWAP1 PUSH2 0x1012 JUMP JUMPDEST SWAP1 POP PUSH1 0x0 DUP3 PUSH1 0xFF AND PUSH8 0xFFFFFFFFFFFFFFFF DUP2 GT ISZERO PUSH2 0xABC JUMPI PUSH2 0xABC PUSH2 0xCAC JUMP JUMPDEST PUSH1 0x40 MLOAD SWAP1 DUP1 DUP3 MSTORE DUP1 PUSH1 0x20 MUL PUSH1 0x20 ADD DUP3 ADD PUSH1 0x40 MSTORE DUP1 ISZERO PUSH2 0xAF5 JUMPI DUP2 PUSH1 0x20 ADD JUMPDEST PUSH2 0xAE2 PUSH2 0xBFE JUMP JUMPDEST DUP2 MSTORE PUSH1 0x20 ADD SWAP1 PUSH1 0x1 SWAP1 SUB SWAP1 DUP2 PUSH2 0xADA JUMPI SWAP1 POP JUMPDEST POP SWAP1 POP PUSH1 0x0 PUSH1 0x1 JUMPDEST DUP4 DUP2 LT ISZERO PUSH2 0xBF2 JUMPI PUSH2 0xB0D PUSH2 0xBFE JUMP JUMPDEST PUSH1 0x40 MLOAD PUSH4 0x8532CBF7 PUSH1 0xE0 SHL DUP2 MSTORE PUSH1 0x4 DUP2 ADD DUP4 SWAP1 MSTORE PUSH1 0x1 PUSH1 0x1 PUSH1 0xA0 SHL SUB DUP9 AND SWAP1 PUSH4 0x8532CBF7 SWAP1 PUSH1 0x24 ADD PUSH1 0x0 PUSH1 0x40 MLOAD DUP1 DUP4 SUB DUP2 DUP7 GAS STATICCALL ISZERO DUP1 ISZERO PUSH2 0xB52 JUMPI RETURNDATASIZE PUSH1 0x0 DUP1 RETURNDATACOPY RETURNDATASIZE PUSH1 0x0 REVERT JUMPDEST POP POP POP POP PUSH1 0x40 MLOAD RETURNDATASIZE PUSH1 0x0 DUP3 RETURNDATACOPY PUSH1 0x1F RETURNDATASIZE SWAP1 DUP2 ADD PUSH1 0x1F NOT AND DUP3 ADD PUSH1 0x40 MSTORE PUSH2 0xB7A SWAP2 SWAP1 DUP2 ADD SWAP1 PUSH2 0x1078 JUMP JUMPDEST ISZERO ISZERO PUSH1 0x80 DUP7 ADD MSTORE ISZERO ISZERO PUSH1 0x60 DUP6 ADD DUP2 SWAP1 MSTORE PUSH1 0x40 DUP6 ADD SWAP2 SWAP1 SWAP2 MSTORE PUSH1 0x20 DUP5 ADD SWAP2 SWAP1 SWAP2 MSTORE PUSH1 0x1 PUSH1 0x1 PUSH1 0xA0 SHL SUB SWAP1 SWAP2 AND DUP3 MSTORE PUSH1 0x1 EQ ISZERO PUSH2 0xBDF JUMPI DUP1 DUP5 DUP5 PUSH1 0xFF AND DUP2 MLOAD DUP2 LT PUSH2 0xBC5 JUMPI PUSH2 0xBC5 PUSH2 0x116A JUMP JUMPDEST PUSH1 0x20 MUL PUSH1 0x20 ADD ADD DUP2 SWAP1 MSTORE POP DUP3 DUP1 PUSH2 0xBDB SWAP1 PUSH2 0x1196 JUMP JUMPDEST SWAP4 POP POP JUMPDEST POP DUP1 PUSH2 0xBEA DUP2 PUSH2 0x11B6 JUMP JUMPDEST SWAP2 POP POP PUSH2 0xAFD JUMP JUMPDEST POP SWAP1 SWAP7 SWAP6 POP POP POP POP POP POP JUMP JUMPDEST PUSH1 0x40 MLOAD DUP1 PUSH1 0xA0 ADD PUSH1 0x40 MSTORE DUP1 PUSH1 0x0 PUSH1 0x1 PUSH1 0x1 PUSH1 0xA0 SHL SUB AND DUP2 MSTORE PUSH1 0x20 ADD PUSH1 0x60 DUP2 MSTORE PUSH1 0x20 ADD PUSH1 0x0 DUP2 MSTORE PUSH1 0x20 ADD PUSH1 0x0 ISZERO ISZERO DUP2 MSTORE PUSH1 0x20 ADD PUSH1 0x0 ISZERO ISZERO DUP2 MSTORE POP SWAP1 JUMP JUMPDEST PUSH1 0xFF DUP2 AND DUP2 EQ PUSH2 0xC49 JUMPI PUSH1 0x0 DUP1 REVERT JUMPDEST POP JUMP JUMPDEST PUSH1 0x0 DUP1 PUSH1 0x0 DUP1 PUSH1 0x80 DUP6 DUP8 SUB SLT ISZERO PUSH2 0xC62 JUMPI PUSH1 0x0 DUP1 REVERT JUMPDEST DUP5 CALLDATALOAD SWAP4 POP PUSH1 0x20 DUP6 ADD CALLDATALOAD PUSH2 0xC74 DUP2 PUSH2 0xC3A JUMP JUMPDEST SWAP4 SWAP7 SWAP4 SWAP6 POP POP POP POP PUSH1 0x40 DUP3 ADD CALLDATALOAD SWAP2 PUSH1 0x60 ADD CALLDATALOAD SWAP1 JUMP JUMPDEST PUSH1 0x1 PUSH1 0x1 PUSH1 0xA0 SHL SUB DUP2 AND DUP2 EQ PUSH2 0xC49 JUMPI PUSH1 0x0 DUP1 REVERT JUMPDEST DUP1 ISZERO ISZERO DUP2 EQ PUSH2 0xC49 JUMPI PUSH1 0x0 DUP1 REVERT JUMPDEST PUSH4 0x4E487B71 PUSH1 0xE0 SHL PUSH1 0x0 MSTORE PUSH1 0x41 PUSH1 0x4 MSTORE PUSH1 0x24 PUSH1 0x0 REVERT JUMPDEST PUSH1 0x40 MLOAD PUSH1 0x1F DUP3 ADD PUSH1 0x1F NOT AND DUP2 ADD PUSH8 0xFFFFFFFFFFFFFFFF DUP2 GT DUP3 DUP3 LT OR ISZERO PUSH2 0xCEB JUMPI PUSH2 0xCEB PUSH2 0xCAC JUMP JUMPDEST PUSH1 0x40 MSTORE SWAP2 SWAP1 POP JUMP JUMPDEST PUSH1 0x0 PUSH8 0xFFFFFFFFFFFFFFFF DUP3 GT ISZERO PUSH2 0xD0D JUMPI PUSH2 0xD0D PUSH2 0xCAC JUMP JUMPDEST POP PUSH1 0x1F ADD PUSH1 0x1F NOT AND PUSH1 0x20 ADD SWAP1 JUMP JUMPDEST PUSH1 0x0 DUP3 PUSH1 0x1F DUP4 ADD SLT PUSH2 0xD2C JUMPI PUSH1 0x0 DUP1 REVERT JUMPDEST DUP2 CALLDATALOAD PUSH2 0xD3F PUSH2 0xD3A DUP3 PUSH2 0xCF3 JUMP JUMPDEST PUSH2 0xCC2 JUMP JUMPDEST DUP2 DUP2 MSTORE DUP5 PUSH1 0x20 DUP4 DUP7 ADD ADD GT ISZERO PUSH2 0xD54 JUMPI PUSH1 0x0 DUP1 REVERT JUMPDEST DUP2 PUSH1 0x20 DUP6 ADD PUSH1 0x20 DUP4 ADD CALLDATACOPY PUSH1 0x0 SWAP2 DUP2 ADD PUSH1 0x20 ADD SWAP2 SWAP1 SWAP2 MSTORE SWAP4 SWAP3 POP POP POP JUMP JUMPDEST PUSH1 0x0 DUP1 PUSH1 0x0 DUP1 PUSH1 0x0 DUP1 PUSH1 0xC0 DUP8 DUP10 SUB SLT ISZERO PUSH2 0xD8A JUMPI PUSH1 0x0 DUP1 REVERT JUMPDEST DUP7 CALLDATALOAD PUSH2 0xD95 DUP2 PUSH2 0xC89 JUMP JUMPDEST SWAP6 POP PUSH1 0x20 DUP8 ADD CALLDATALOAD PUSH2 0xDA5 DUP2 PUSH2 0xC89 JUMP JUMPDEST SWAP5 POP PUSH1 0x40 DUP8 ADD CALLDATALOAD SWAP4 POP PUSH1 0x60 DUP8 ADD CALLDATALOAD PUSH2 0xDBC DUP2 PUSH2 0xC9E JUMP JUMPDEST SWAP3 POP PUSH1 0x80 DUP8 ADD CALLDATALOAD PUSH8 0xFFFFFFFFFFFFFFFF DUP1 DUP3 GT ISZERO PUSH2 0xDD9 JUMPI PUSH1 0x0 DUP1 REVERT JUMPDEST PUSH2 0xDE5 DUP11 DUP4 DUP12 ADD PUSH2 0xD1B JUMP JUMPDEST SWAP4 POP PUSH1 0xA0 DUP10 ADD CALLDATALOAD SWAP2 POP DUP1 DUP3 GT ISZERO PUSH2 0xDFB JUMPI PUSH1 0x0 DUP1 REVERT JUMPDEST POP PUSH2 0xE08 DUP10 DUP3 DUP11 ADD PUSH2 0xD1B JUMP JUMPDEST SWAP2 POP POP SWAP3 SWAP6 POP SWAP3 SWAP6 POP SWAP3 SWAP6 JUMP JUMPDEST PUSH1 0x0 DUP1 PUSH1 0x40 DUP4 DUP6 SUB SLT ISZERO PUSH2 0xE28 JUMPI PUSH1 0x0 DUP1 REVERT JUMPDEST DUP3 CALLDATALOAD PUSH2 0xE33 DUP2 PUSH2 0xC89 JUMP JUMPDEST SWAP2 POP PUSH1 0x20 DUP4 ADD CALLDATALOAD PUSH2 0xE43 DUP2 PUSH2 0xC89 JUMP JUMPDEST DUP1 SWAP2 POP POP SWAP3 POP SWAP3 SWAP1 POP JUMP JUMPDEST PUSH1 0x0 JUMPDEST DUP4 DUP2 LT ISZERO PUSH2 0xE69 JUMPI DUP2 DUP2 ADD MLOAD DUP4 DUP3 ADD MSTORE PUSH1 0x20 ADD PUSH2 0xE51 JUMP JUMPDEST DUP4 DUP2 GT ISZERO PUSH2 0xE78 JUMPI PUSH1 0x0 DUP5 DUP5 ADD MSTORE JUMPDEST POP POP POP POP JUMP JUMPDEST PUSH1 0x0 DUP2 MLOAD DUP1 DUP5 MSTORE PUSH2 0xE96 DUP2 PUSH1 0x20 DUP7 ADD PUSH1 0x20 DUP7 ADD PUSH2 0xE4E JUMP JUMPDEST PUSH1 0x1F ADD PUSH1 0x1F NOT AND SWAP3 SWAP1 SWAP3 ADD PUSH1 0x20 ADD SWAP3 SWAP2 POP POP JUMP JUMPDEST PUSH1 0x80 DUP2 MSTORE PUSH1 0x0 PUSH2 0xEBD PUSH1 0x80 DUP4 ADD DUP8 PUSH2 0xE7E JUMP JUMPDEST PUSH1 0x20 DUP4 ADD SWAP6 SWAP1 SWAP6 MSTORE POP SWAP2 ISZERO ISZERO PUSH1 0x40 DUP4 ADD MSTORE ISZERO ISZERO PUSH1 0x60 SWAP1 SWAP2 ADD MSTORE SWAP2 SWAP1 POP JUMP JUMPDEST PUSH1 0x0 PUSH1 0x20 DUP3 DUP5 SUB SLT ISZERO PUSH2 0xEED JUMPI PUSH1 0x0 DUP1 REVERT JUMPDEST DUP2 CALLDATALOAD PUSH2 0xEF8 DUP2 PUSH2 0xC89 JUMP JUMPDEST SWAP4 SWAP3 POP POP POP JUMP JUMPDEST PUSH1 0x0 PUSH2 0x100 DUP1 DUP4 MSTORE PUSH2 0xF13 DUP2 DUP5 ADD DUP13 PUSH2 0xE7E JUMP JUMPDEST PUSH1 0x20 DUP5 ADD SWAP11 SWAP1 SWAP11 MSTORE POP POP SWAP6 ISZERO ISZERO PUSH1 0x40 DUP8 ADD MSTORE PUSH1 0xFF SWAP5 DUP6 AND PUSH1 0x60 DUP8 ADD MSTORE SWAP3 DUP5 AND PUSH1 0x80 DUP7 ADD MSTORE SWAP1 DUP4 AND PUSH1 0xA0 DUP6 ADD MSTORE DUP3 AND PUSH1 0xC0 DUP5 ADD MSTORE AND PUSH1 0xE0 SWAP1 SWAP2 ADD MSTORE SWAP2 SWAP1 POP JUMP JUMPDEST PUSH1 0x0 PUSH1 0x20 DUP1 DUP4 ADD DUP2 DUP5 MSTORE DUP1 DUP6 MLOAD DUP1 DUP4 MSTORE PUSH1 0x40 SWAP3 POP DUP3 DUP7 ADD SWAP2 POP DUP3 DUP2 PUSH1 0x5 SHL DUP8 ADD ADD DUP5 DUP9 ADD PUSH1 0x0 JUMPDEST DUP4 DUP2 LT ISZERO PUSH2 0xFE8 JUMPI DUP9 DUP4 SUB PUSH1 0x3F NOT ADD DUP6 MSTORE DUP2 MLOAD DUP1 MLOAD PUSH1 0x1 PUSH1 0x1 PUSH1 0xA0 SHL SUB AND DUP5 MSTORE DUP8 DUP2 ADD MLOAD PUSH1 0xA0 DUP10 DUP7 ADD DUP2 SWAP1 MSTORE SWAP1 PUSH2 0xFB2 DUP3 DUP8 ADD DUP3 PUSH2 0xE7E JUMP JUMPDEST DUP4 DUP11 ADD MLOAD DUP8 DUP12 ADD MSTORE PUSH1 0x60 DUP1 DUP6 ADD MLOAD ISZERO ISZERO SWAP1 DUP9 ADD MSTORE PUSH1 0x80 SWAP4 DUP5 ADD MLOAD ISZERO ISZERO SWAP4 SWAP1 SWAP7 ADD SWAP3 SWAP1 SWAP3 MSTORE POP POP SWAP4 DUP7 ADD SWAP4 SWAP1 DUP7 ADD SWAP1 PUSH1 0x1 ADD PUSH2 0xF79 JUMP JUMPDEST POP SWAP1 SWAP9 SWAP8 POP POP POP POP POP POP POP POP JUMP JUMPDEST PUSH1 0x0 DUP3 MLOAD PUSH2 0x1008 DUP2 DUP5 PUSH1 0x20 DUP8 ADD PUSH2 0xE4E JUMP JUMPDEST SWAP2 SWAP1 SWAP2 ADD SWAP3 SWAP2 POP POP JUMP JUMPDEST PUSH1 0x0 PUSH1 0x20 DUP3 DUP5 SUB SLT ISZERO PUSH2 0x1024 JUMPI PUSH1 0x0 DUP1 REVERT JUMPDEST POP MLOAD SWAP2 SWAP1 POP JUMP JUMPDEST PUSH1 0x0 DUP3 PUSH1 0x1F DUP4 ADD SLT PUSH2 0x103C JUMPI PUSH1 0x0 DUP1 REVERT JUMPDEST DUP2 MLOAD PUSH2 0x104A PUSH2 0xD3A DUP3 PUSH2 0xCF3 JUMP JUMPDEST DUP2 DUP2 MSTORE DUP5 PUSH1 0x20 DUP4 DUP7 ADD ADD GT ISZERO PUSH2 0x105F JUMPI PUSH1 0x0 DUP1 REVERT JUMPDEST PUSH2 0x1070 DUP3 PUSH1 0x20 DUP4 ADD PUSH1 0x20 DUP8 ADD PUSH2 0xE4E JUMP JUMPDEST SWAP5 SWAP4 POP POP POP POP JUMP JUMPDEST PUSH1 0x0 DUP1 PUSH1 0x0 DUP1 PUSH1 0x0 PUSH1 0xA0 DUP7 DUP9 SUB SLT ISZERO PUSH2 0x1090 JUMPI PUSH1 0x0 DUP1 REVERT JUMPDEST DUP6 MLOAD PUSH2 0x109B DUP2 PUSH2 0xC89 JUMP JUMPDEST PUSH1 0x20 DUP8 ADD MLOAD SWAP1 SWAP6 POP PUSH8 0xFFFFFFFFFFFFFFFF DUP2 GT ISZERO PUSH2 0x10B8 JUMPI PUSH1 0x0 DUP1 REVERT JUMPDEST PUSH2 0x10C4 DUP9 DUP3 DUP10 ADD PUSH2 0x102B JUMP JUMPDEST SWAP5 POP POP PUSH1 0x40 DUP7 ADD MLOAD SWAP3 POP PUSH1 0x60 DUP7 ADD MLOAD PUSH2 0x10DC DUP2 PUSH2 0xC9E JUMP JUMPDEST PUSH1 0x80 DUP8 ADD MLOAD SWAP1 SWAP3 POP PUSH2 0x10ED DUP2 PUSH2 0xC9E JUMP JUMPDEST DUP1 SWAP2 POP POP SWAP3 SWAP6 POP SWAP3 SWAP6 SWAP1 SWAP4 POP JUMP JUMPDEST PUSH1 0x0 PUSH1 0x20 DUP3 DUP5 SUB SLT ISZERO PUSH2 0x110D JUMPI PUSH1 0x0 DUP1 REVERT JUMPDEST DUP2 MLOAD PUSH8 0xFFFFFFFFFFFFFFFF DUP2 GT ISZERO PUSH2 0x1124 JUMPI PUSH1 0x0 DUP1 REVERT JUMPDEST PUSH2 0x1070 DUP5 DUP3 DUP6 ADD PUSH2 0x102B JUMP JUMPDEST PUSH1 0x0 PUSH1 0x20 DUP3 DUP5 SUB SLT ISZERO PUSH2 0x1142 JUMPI PUSH1 0x0 DUP1 REVERT JUMPDEST DUP2 MLOAD PUSH2 0xEF8 DUP2 PUSH2 0xC9E JUMP JUMPDEST PUSH1 0x0 PUSH1 0x20 DUP3 DUP5 SUB SLT ISZERO PUSH2 0x115F JUMPI PUSH1 0x0 DUP1 REVERT JUMPDEST DUP2 MLOAD PUSH2 0xEF8 DUP2 PUSH2 0xC3A JUMP JUMPDEST PUSH4 0x4E487B71 PUSH1 0xE0 SHL PUSH1 0x0 MSTORE PUSH1 0x32 PUSH1 0x4 MSTORE PUSH1 0x24 PUSH1 0x0 REVERT JUMPDEST PUSH4 0x4E487B71 PUSH1 0xE0 SHL PUSH1 0x0 MSTORE PUSH1 0x11 PUSH1 0x4 MSTORE PUSH1 0x24 PUSH1 0x0 REVERT JUMPDEST PUSH1 0x0 PUSH1 0xFF DUP3 AND PUSH1 0xFF DUP2 EQ ISZERO PUSH2 0x11AD JUMPI PUSH2 0x11AD PUSH2 0x1180 JUMP JUMPDEST PUSH1 0x1 ADD SWAP3 SWAP2 POP POP JUMP JUMPDEST PUSH1 0x0 PUSH1 0x0 NOT DUP3 EQ ISZERO PUSH2 0x11CA JUMPI PUSH2 0x11CA PUSH2 0x1180 JUMP JUMPDEST POP PUSH1 0x1 ADD SWAP1 JUMP INVALID LOG2 PUSH5 0x6970667358 0x22 SLT KECCAK256 SMOD PC 0xE0 DUP16 0x4A PUSH17 0xEDACF4B3D0C5F89540D14B9EBF30060C5E PUSH15 0xC6C011F1B3913B2A64736F6C634300 ADDMOD 0xC STOP CALLER ",
  "sha1": "9ee3827786a14ce6c5cbcb11c183abd49240315f",
  "source": "// SPDX-License-Identifier: MIT\npragma solidity ^0.8.11;\n\nimport \"./ICLHouse.sol\";\n\n/// @title Some funtions to interact with a CLHouse\n/// @author Leonardo Urrego\n/// @notice This contract is only for test \ncontract ApiCLHouse {\n\n    /// @notice A funtion to verify the signer of a menssage\n    /// @param _msgh Signed message\n    /// @param _v V\n    /// @param _r R\n    /// @param _s S\n    /// @return sender The address of the signer\n    function RecoverSignerFromSignature(\n        bytes32  _msgh,\n        uint8 _v,\n        bytes32 _r,\n        bytes32 _s\n    )\n        public\n        pure\n        returns(\n            address sender\n        )\n    {\n        return ecrecover( _msgh, _v, _r, _s);\n    }\n\n    /// @notice Get the info of an user in one especific CLH\n    /// @param _houseAddr Address of the CLH\n    /// @param _walletAddr Address of the user\n    /// @return name Nickname ot other user identificaction\n    /// @return balance How much money have deposited\n    /// @return isMember true if is member\n    /// @return isManager true if is manager\n    function GetUserInfoByAddress(\n        address payable _houseAddr,\n        address _walletAddr\n    )\n        external\n        view\n        returns(\n            string memory name,\n            uint balance,\n            bool isMember,\n            bool isManager\n        )\n    {\n        ICLHouse daoCLH = ICLHouse( _houseAddr );\n\n        uint256 uid = daoCLH.mapIdMember( _walletAddr );\n\n        require( 0 != uid , \"Address not exist!!\" );\n\n        strMember memory houseMember;\n\n        (   houseMember.walletAddr,\n            houseMember.name,\n            houseMember.balance,\n            houseMember.isMember,\n            houseMember.isManager ) = daoCLH.arrMembers( uid );\n\n        require( true == houseMember.isMember  , \"User is not a Member\" );\n\n        return (\n            houseMember.name,\n            houseMember.balance,\n            houseMember.isMember,\n            houseMember.isManager\n        );\n    }\n\n    /// @notice The list of all members address\n    /// @param _houseAddr address of the CLH\n    /// @return arrMembers array with list of members\n    function GetHouseUserList(\n        address payable _houseAddr\n    )\n        external\n        view\n        returns(\n            strMember[] memory arrMembers\n        )\n    {\n        ICLHouse daoCLH = ICLHouse( _houseAddr );\n\n        uint8 numActiveMembers = daoCLH.numActiveMembers( );\n        uint256 arrMembersLength = daoCLH.GetArrMembersLength();\n        strMember[] memory _arrMembers = new strMember[] ( numActiveMembers );\n\n        uint8 index = 0 ;\n\n        for( uint256 uid = 1 ; uid < arrMembersLength ; uid++ ) {\n            strMember memory houseMember;\n\n            (   houseMember.walletAddr,\n                houseMember.name,\n                houseMember.balance,\n                houseMember.isMember,\n                houseMember.isManager ) = daoCLH.arrMembers( uid );\n\n            if( true == houseMember.isMember ){\n                _arrMembers[ index ] = houseMember;\n                index++;\n            }\n        }\n        return _arrMembers;\n    }\n\n    /// @notice All properties of a House\n    /// @param _houseAddr CLH address\n    /// @return HOUSE_NAME name of the CLH\n    /// @return HOUSE_GOVERNANCE_MODEL Hash of governance model\n    /// @return housePrivate True if is private\n    /// @return numActiveMembers Current members of a CLH\n    /// @return numManagerMembers Current managers of a CLH\n    /// @return govRuleApprovPercentage Percentage for approval o reject proposal based on `numManagerMembers`\n    /// @return govRuleMaxActiveMembers Max of all members (including managers)\n    /// @return govRuleMaxManagerMembers Max of manager member that CLH can accept (only for COMMITTEE )\n    function GetHouseProperties(\n        address _houseAddr\n    )\n        external\n        view\n        returns(\n            string memory HOUSE_NAME,\n            bytes32 HOUSE_GOVERNANCE_MODEL,\n            bool housePrivate,\n            uint8 numActiveMembers,\n            uint8 numManagerMembers,\n            uint8 govRuleApprovPercentage,\n            uint8 govRuleMaxActiveMembers,\n            uint8 govRuleMaxManagerMembers\n        )\n    {\n        ICLHouse daoCLH = ICLHouse( _houseAddr );\n\n        return(\n            daoCLH.HOUSE_NAME(),\n            daoCLH.HOUSE_GOVERNANCE_MODEL(),\n            daoCLH.housePrivate(),\n            daoCLH.numActiveMembers(),\n            daoCLH.numManagerMembers(),\n            daoCLH.govRuleApprovPercentage(),\n            daoCLH.govRuleMaxActiveMembers(),\n            daoCLH.govRuleMaxManagerMembers()\n        );\n    }\n\n    function ValidateSingOffChainVote(\n        address _houseAddr,\n        address _voter,\n        uint _propId,\n        bool _support,\n        string memory _justification,\n        bytes memory _signature\n    ) \n      external view\n      returns( bool )\n    {\n      uint256 chainId = block.chainid;\n\n      bytes32 eip712DomainHash = keccak256(\n          abi.encode(\n              keccak256(abi.encodePacked(\n                  \"EIP712Domain(string name,string version,uint256 chainId,address verifyingContract)\"\n              )),\n              keccak256(\"CLHouse\"),\n              keccak256(\"0.0.10\"),\n              chainId,\n              _houseAddr\n          )\n      );\n\n      bytes32 hashStruct = keccak256(\n        abi.encode(\n              keccak256(abi.encodePacked(\n                \"strOffChainVote(address voter,uint256 propId,bool support,string justification)\"\n              )),\n              _voter,\n              _propId,\n              _support,\n              keccak256(abi.encodePacked(_justification))\n          )\n      );\n\n      bytes32 hash = keccak256(abi.encodePacked(\"\\x19\\x01\", eip712DomainHash, hashStruct));\n      \n      require( _signature.length == 65, \"Bad signature length\" );\n\n      bytes32 r;\n      bytes32 s;\n      uint8 v;\n\n      assembly {\n        // first 32 bytes, after the length prefix\n        r := mload( add( _signature, 32 ))\n        // second 32 bytes\n        s := mload( add( _signature, 64 ))\n        // final byte (first byte of the next 32 bytes)\n        v := byte( 0, mload( add( _signature, 96 )))\n      }\n\n      return _voter == ecrecover( hash, v, r, s );\n    }\n}",
  "sourcePath": "contracts/CLHouse/ApiCLHouse.sol",
  "type": "contract"
}