{
  "abi": [
    {
      "inputs": [
        {
          "internalType": "address",
          "name": "_CLCMemberManagement",
          "type": "address"
        },
        {
          "internalType": "address",
          "name": "_CLCGovernance",
          "type": "address"
        },
        {
          "internalType": "address",
          "name": "_CLLConstructor",
          "type": "address"
        },
        {
          "internalType": "address",
          "name": "_APICLH",
          "type": "address"
        }
      ],
      "stateMutability": "nonpayable",
      "type": "constructor"
    },
    {
      "anonymous": false,
      "inputs": [
        {
          "indexed": false,
          "internalType": "address",
          "name": "houseAddr",
          "type": "address"
        },
        {
          "indexed": false,
          "internalType": "string",
          "name": "houseName",
          "type": "string"
        },
        {
          "indexed": false,
          "internalType": "uint256",
          "name": "houseId",
          "type": "uint256"
        }
      ],
      "name": "evtHouseCreation",
      "type": "event"
    },
    {
      "inputs": [
        {
          "internalType": "string",
          "name": "_houseName",
          "type": "string"
        },
        {
          "internalType": "bool",
          "name": "_housePrivate",
          "type": "bool"
        },
        {
          "internalType": "bytes32",
          "name": "_govModel",
          "type": "bytes32"
        },
        {
          "internalType": "uint8[3]",
          "name": "_govRules",
          "type": "uint8[3]"
        },
        {
          "internalType": "address[]",
          "name": "_whiteListWallets",
          "type": "address[]"
        },
        {
          "internalType": "address",
          "name": "_signerWallet",
          "type": "address"
        },
        {
          "internalType": "bytes",
          "name": "_signature",
          "type": "bytes"
        }
      ],
      "name": "CreateCLH",
      "outputs": [
        {
          "internalType": "address",
          "name": "",
          "type": "address"
        }
      ],
      "stateMutability": "nonpayable",
      "type": "function"
    },
    {
      "inputs": [
        {
          "internalType": "address",
          "name": "_walletAddr",
          "type": "address"
        }
      ],
      "name": "GetHousesByUser",
      "outputs": [
        {
          "internalType": "address[]",
          "name": "",
          "type": "address[]"
        }
      ],
      "stateMutability": "view",
      "type": "function"
    },
    {
      "inputs": [],
      "name": "GetHousesList",
      "outputs": [
        {
          "internalType": "contract CLHouse[]",
          "name": "",
          "type": "address[]"
        }
      ],
      "stateMutability": "nonpayable",
      "type": "function"
    },
    {
      "inputs": [
        {
          "internalType": "address",
          "name": "_walletAddr",
          "type": "address"
        }
      ],
      "name": "GetInvitationsByUser",
      "outputs": [
        {
          "internalType": "address[]",
          "name": "",
          "type": "address[]"
        }
      ],
      "stateMutability": "view",
      "type": "function"
    },
    {
      "inputs": [
        {
          "internalType": "uint256",
          "name": "",
          "type": "uint256"
        }
      ],
      "name": "arrCLH",
      "outputs": [
        {
          "internalType": "contract CLHouse",
          "name": "",
          "type": "address"
        }
      ],
      "stateMutability": "view",
      "type": "function"
    },
    {
      "inputs": [
        {
          "internalType": "address",
          "name": "",
          "type": "address"
        }
      ],
      "name": "mapCLHId",
      "outputs": [
        {
          "internalType": "uint256",
          "name": "",
          "type": "uint256"
        }
      ],
      "stateMutability": "view",
      "type": "function"
    },
    {
      "inputs": [],
      "name": "numCLH",
      "outputs": [
        {
          "internalType": "uint256",
          "name": "",
          "type": "uint256"
        }
      ],
      "stateMutability": "view",
      "type": "function"
    }
  ],
  "bytecode": "608060405260006001553480156200001657600080fd5b5060405162005958380380620059588339810160408190526200003991620004e6565b600480546001600160a01b038681166001600160a01b03199283161790925560058054868416908316179055600680548584169083161781556003805493851693909216929092179055604080516000808252606080830184526020808401958652650434c482023360d41b84860152845191820185526001825260638282015260648286015284519081019094528184529193620001009390927f0b93889d934070956c00846f50f9a10a747bd194bba2f2e78a86d0c02386fdb1918690849062000123565b5060018054906000620001138362000559565b91905055505050505050620007e1565b600080337f0b93889d934070956c00846f50f9a10a747bd194bba2f2e78a86d0c02386fdb1881480620001755750877f16591a696fee5867425b3dee9fc0160a6c1baef77835bc3d204314106d639298145b80620001a05750877fa0786f6450d5fb3298b8425105c1b75e6e01a1ff86cdabea29909cdb0b4c83a7145b620001f25760405162461bcd60e51b815260206004820152601760248201527f496e76616c696420476f7665726e616e6365205479706500000000000000000060448201526064015b60405180910390fd5b6001600160a01b0385161562000370578351604114620002555760405162461bcd60e51b815260206004820152601c60248201527f4e6577434c483a20426164207369676e6174757265206c656e677468000000006044820152606401620001e9565b6003546001600160a01b031663364ae0d88b8b8b8b600060200201518c600160200201518d600260200201518d60008151811062000297576200029762000573565b6020026020010151308d6040518a63ffffffff1660e01b8152600401620002c799989796959493929190620005d9565b602060405180830381865afa158015620002e5573d6000803e3d6000fd5b505050506040513d601f19601f820116820180604052508101906200030b919062000655565b6001600160a01b0316856001600160a01b0316146200036d5760405162461bcd60e51b815260206004820152601960248201527f4e6577434c483a20496e76616c6964205369676e6174757265000000000000006044820152606401620001e9565b50835b604080516080810182526004546001600160a01b03908116825260055481166020830152600654811682840152600354166060820152905182918c918c918c918c91908c90620003c090620004bb565b620003d29796959493929190620006f4565b604051809103906000f080158015620003ef573d6000803e3d6000fd5b5060008054600180820183558280527f290decd9548b62a8d60345a988386fc84ba6bc95484008f6362f93160ef3e563820180546001600160a01b0319166001600160a01b0386161790558054939550859391926200044e836200078d565b90915550506001600160a01b03821660009081526002602052604090819020829055517f0717908fb0165729c0cfd8bbc622f5ede46a85e555ac30657fa94a188bca698d90620004a49084908f908590620007ab565b60405180910390a1509a9950505050505050505050565b61212b806200382d83390190565b80516001600160a01b0381168114620004e157600080fd5b919050565b60008060008060808587031215620004fd57600080fd5b6200050885620004c9565b93506200051860208601620004c9565b92506200052860408601620004c9565b91506200053860608601620004c9565b905092959194509250565b634e487b7160e01b600052601160045260246000fd5b6000816200056b576200056b62000543565b506000190190565b634e487b7160e01b600052603260045260246000fd5b6000815180845260005b81811015620005b15760208185018101518683018201520162000593565b81811115620005c4576000602083870101525b50601f01601f19169290920160200192915050565b6000610120808352620005ef8184018d62000589565b8b15156020850152604084018b905260ff8a811660608601528981166080860152881660a08501526001600160a01b0387811660c0860152861660e0850152838103610100850152905062000645818562000589565b9c9b505050505050505050505050565b6000602082840312156200066857600080fd5b6200067382620004c9565b9392505050565b8060005b6004811015620006a85781516001600160a01b03168452602093840193909101906001016200067e565b50505050565b600081518084526020808501945080840160005b83811015620006e95781516001600160a01b031687529582019590820190600101620006c2565b509495945050505050565b6001600160a01b03881681526101806020808301829052600091906200071d8483018b62000589565b91508815156040850152876060850152608084018760005b60038110156200075757815160ff168352918301919083019060010162000735565b505050506200076a60e08401866200067a565b8281036101608401526200077f8185620006ae565b9a9950505050505050505050565b6000600019821415620007a457620007a462000543565b5060010190565b6001600160a01b0384168152606060208201819052600090620007d19083018562000589565b9050826040830152949350505050565b61303c80620007f16000396000f3fe60806040523480156200001157600080fd5b5060043610620000875760003560e01c80637ddb31a311620000625780637ddb31a31462000118578063ac53c485146200012f578063eb91322b1462000146578063ee7a7d1b146200015f57600080fd5b80633195ce74146200008c578063535210db14620000c257806356ec9fff14620000f2575b600080fd5b620000af6200009d366004620008c2565b60026020526000908152604090205481565b6040519081526020015b60405180910390f35b620000d9620000d336600462000adf565b62000169565b6040516001600160a01b039091168152602001620000b9565b6200010962000103366004620008c2565b62000501565b604051620000b9919062000c14565b6200010962000129366004620008c2565b62000682565b620000d96200014036600462000c29565b620007fa565b6200015062000825565b604051620000b9919062000c43565b620000af60015481565b600080337f0b93889d934070956c00846f50f9a10a747bd194bba2f2e78a86d0c02386fdb1881480620001bb5750877f16591a696fee5867425b3dee9fc0160a6c1baef77835bc3d204314106d639298145b80620001e65750877fa0786f6450d5fb3298b8425105c1b75e6e01a1ff86cdabea29909cdb0b4c83a7145b620002385760405162461bcd60e51b815260206004820152601760248201527f496e76616c696420476f7665726e616e6365205479706500000000000000000060448201526064015b60405180910390fd5b6001600160a01b03851615620003b65783516041146200029b5760405162461bcd60e51b815260206004820152601c60248201527f4e6577434c483a20426164207369676e6174757265206c656e6774680000000060448201526064016200022f565b6003546001600160a01b031663364ae0d88b8b8b8b600060200201518c600160200201518d600260200201518d600081518110620002dd57620002dd62000c92565b6020026020010151308d6040518a63ffffffff1660e01b81526004016200030d9998979695949392919062000cf8565b602060405180830381865afa1580156200032b573d6000803e3d6000fd5b505050506040513d601f19601f8201168201806040525081019062000351919062000d74565b6001600160a01b0316856001600160a01b031614620003b35760405162461bcd60e51b815260206004820152601960248201527f4e6577434c483a20496e76616c6964205369676e61747572650000000000000060448201526064016200022f565b50835b604080516080810182526004546001600160a01b03908116825260055481166020830152600654811682840152600354166060820152905182918c918c918c918c91908c90620004069062000889565b62000418979695949392919062000dc8565b604051809103906000f08015801562000435573d6000803e3d6000fd5b5060008054600180820183558280527f290decd9548b62a8d60345a988386fc84ba6bc95484008f6362f93160ef3e563820180546001600160a01b0319166001600160a01b038616179055805493955085939192620004948362000e61565b90915550506001600160a01b03821660009081526002602052604090819020829055517f0717908fb0165729c0cfd8bbc622f5ede46a85e555ac30657fa94a188bca698d90620004ea9084908f90859062000e8b565b60405180910390a1509a9950505050505050505050565b600080546060919067ffffffffffffffff811115620005245762000524620008e9565b6040519080825280602002602001820160405280156200054e578160200160208202803683370190505b509050600060015b600154811162000679576000818154811062000576576200057662000c92565b6000918252602090912001546040516399db7fb360e01b81526001600160a01b038781166004830152909116906399db7fb390602401602060405180830381865afa158015620005ca573d6000803e3d6000fd5b505050506040513d601f19601f82011682018060405250810190620005f0919062000ec1565b156200066457600081815481106200060c576200060c62000c92565b6000918252602090912001546001600160a01b031683836200062e8162000e61565b94508151811062000643576200064362000c92565b60200260200101906001600160a01b031690816001600160a01b0316815250505b80620006708162000e61565b91505062000556565b50909392505050565b600080546060919067ffffffffffffffff811115620006a557620006a5620008e9565b604051908082528060200260200182016040528015620006cf578160200160208202803683370190505b509050600060015b6001548111620006795760008181548110620006f757620006f762000c92565b6000918252602090912001546040516309c57df760e01b81526001600160a01b038781166004830152909116906309c57df790602401602060405180830381865afa1580156200074b573d6000803e3d6000fd5b505050506040513d601f19601f8201168201806040525081019062000771919062000ec1565b15620007e557600081815481106200078d576200078d62000c92565b6000918252602090912001546001600160a01b03168383620007af8162000e61565b945081518110620007c457620007c462000c92565b60200260200101906001600160a01b031690816001600160a01b0316815250505b80620007f18162000e61565b915050620006d7565b600081815481106200080b57600080fd5b6000918252602090912001546001600160a01b0316905081565b606060008054806020026020016040519081016040528092919081815260200182805480156200087f57602002820191906000526020600020905b81546001600160a01b0316815260019091019060200180831162000860575b5050505050905090565b61212b8062000edc83390190565b6001600160a01b0381168114620008ad57600080fd5b50565b8035620008bd8162000897565b919050565b600060208284031215620008d557600080fd5b8135620008e28162000897565b9392505050565b634e487b7160e01b600052604160045260246000fd5b604051601f8201601f1916810167ffffffffffffffff811182821017156200092b576200092b620008e9565b604052919050565b600067ffffffffffffffff831115620009505762000950620008e9565b62000965601f8401601f1916602001620008ff565b90508281528383830111156200097a57600080fd5b828260208301376000602084830101529392505050565b80358015158114620008bd57600080fd5b600082601f830112620009b457600080fd5b6040516060810181811067ffffffffffffffff82111715620009da57620009da620008e9565b604052806060840185811115620009f057600080fd5b845b8181101562000a1d57803560ff8116811462000a0e5760008081fd5b835260209283019201620009f2565b509195945050505050565b600082601f83011262000a3a57600080fd5b8135602067ffffffffffffffff82111562000a595762000a59620008e9565b8160051b62000a6a828201620008ff565b928352848101820192828101908785111562000a8557600080fd5b83870192505b8483101562000ab157823562000aa18162000897565b8252918301919083019062000a8b565b979650505050505050565b600082601f83011262000ace57600080fd5b620008e28383356020850162000933565b6000806000806000806000610120888a03121562000afc57600080fd5b873567ffffffffffffffff8082111562000b1557600080fd5b818a0191508a601f83011262000b2a57600080fd5b62000b3b8b83356020850162000933565b985062000b4b60208b0162000991565b975060408a0135965062000b638b60608c01620009a2565b955060c08a013591508082111562000b7a57600080fd5b62000b888b838c0162000a28565b945062000b9860e08b01620008b0565b93506101008a013591508082111562000bb057600080fd5b5062000bbf8a828b0162000abc565b91505092959891949750929550565b600081518084526020808501945080840160005b8381101562000c095781516001600160a01b03168752958201959082019060010162000be2565b509495945050505050565b602081526000620008e2602083018462000bce565b60006020828403121562000c3c57600080fd5b5035919050565b6020808252825182820181905260009190848201906040850190845b8181101562000c865783516001600160a01b03168352928401929184019160010162000c5f565b50909695505050505050565b634e487b7160e01b600052603260045260246000fd5b6000815180845260005b8181101562000cd05760208185018101518683018201520162000cb2565b8181111562000ce3576000602083870101525b50601f01601f19169290920160200192915050565b600061012080835262000d0e8184018d62000ca8565b8b15156020850152604084018b905260ff8a811660608601528981166080860152881660a08501526001600160a01b0387811660c0860152861660e0850152838103610100850152905062000d64818562000ca8565b9c9b505050505050505050505050565b60006020828403121562000d8757600080fd5b8151620008e28162000897565b8060005b600481101562000dc25781516001600160a01b031684526020938401939091019060010162000d98565b50505050565b6001600160a01b038816815261018060208083018290526000919062000df18483018b62000ca8565b91508815156040850152876060850152608084018760005b600381101562000e2b57815160ff168352918301919083019060010162000e09565b5050505062000e3e60e084018662000d94565b82810361016084015262000e53818562000bce565b9a9950505050505050505050565b600060001982141562000e8457634e487b7160e01b600052601160045260246000fd5b5060010190565b6001600160a01b038416815260606020820181905260009062000eb19083018562000ca8565b9050826040830152949350505050565b60006020828403121562000ed457600080fd5b505191905056fe60806040523480156200001157600080fd5b506040516200212b3803806200212b833981016040819052620000349162000387565b60008083600260200201516001600160a01b0316898989898960405180606001604052808b6000600481106200006e576200006e620004a6565b602090810291909101516001600160a01b0390811683528d82015181169183019190915260608d01511660409182015251620000b5969594939291908b9060240162000530565b60408051601f198184030181529181526020820180516001600160e01b031663e68ea1fd60e01b17905251620000ec9190620005e5565b600060405180830381855af49150503d806000811462000129576040519150601f19603f3d011682016040523d82523d6000602084013e6200012e565b606091505b50915091508162000146576040513d806000833e8082fd5b50505050505050505062000603565b80516001600160a01b03811681146200016d57600080fd5b919050565b634e487b7160e01b600052604160045260246000fd5b604051601f8201601f191681016001600160401b0381118282101715620001b357620001b362000172565b604052919050565b60005b83811015620001d8578181015183820152602001620001be565b83811115620001e8576000848401525b50505050565b805180151581146200016d57600080fd5b600082601f8301126200021157600080fd5b604051606081016001600160401b038111828210171562000236576200023662000172565b6040528060608401858111156200024c57600080fd5b845b818110156200027957805160ff811681146200026a5760008081fd5b8352602092830192016200024e565b509195945050505050565b600082601f8301126200029657600080fd5b604051608081016001600160401b0381118282101715620002bb57620002bb62000172565b604052806080840185811115620002d157600080fd5b845b818110156200027957620002e78162000155565b835260209283019201620002d3565b600082601f8301126200030857600080fd5b815160206001600160401b0382111562000326576200032662000172565b8160051b6200033782820162000188565b92835284810182019282810190878511156200035257600080fd5b83870192505b848310156200037c576200036c8362000155565b8252918301919083019062000358565b979650505050505050565b6000806000806000806000610180888a031215620003a457600080fd5b620003af8862000155565b60208901519097506001600160401b0380821115620003cd57600080fd5b818a0191508a601f830112620003e257600080fd5b815181811115620003f757620003f762000172565b6200040c601f8201601f191660200162000188565b8181528c60208386010111156200042257600080fd5b62000435826020830160208701620001bb565b985062000447905060408b01620001ee565b965060608a015195506200045f8b60808c01620001ff565b9450620004708b60e08c0162000284565b93506101608a01519150808211156200048857600080fd5b50620004978a828b01620002f6565b91505092959891949750929550565b634e487b7160e01b600052603260045260246000fd5b8060005b6003811015620001e85781516001600160a01b0316845260209384019390910190600101620004c0565b600081518084526020808501945080840160005b83811015620005255781516001600160a01b031687529582019590820190600101620004fe565b509495945050505050565b6001600160a01b038816815261016060208083018290528851918301829052600091610180919062000568818487018d8501620001bb565b891515604086015260608501899052601f01601f19168401608085018860005b6003811015620005aa57815160ff168352918401919084019060010162000588565b505050620005bc60e0860188620004bc565b8285820301610140860152620005d583820187620004ea565b9c9b505050505050505050505050565b60008251620005f9818460208701620001bb565b9190910192915050565b611b1880620006136000396000f3fe608060405234801561001057600080fd5b50600436106102065760003560e01c8063824c88da1161011a578063baa4d5e9116100ad578063cb85669c1161007c578063cb85669c1461050e578063da9bca2114610536578063de5ab14e14610543578063f00d627414610556578063f65bbcde1461056c57600080fd5b8063baa4d5e914610461578063bb3a9065146104a7578063c2b3aa08146104c9578063c347d2fd146104ec57600080fd5b806399db7fb3116100e957806399db7fb3146104075780639c630a8814610427578063a19a5f501461043a578063ab44997b1461044d57600080fd5b8063824c88da146103b65780638532cbf7146103be5780638668eafc146103e25780639360bfad146103f457600080fd5b80632266e1bc1161019d5780635f3d99b31161016c5780635f3d99b3146103475780636c2f34e71461036857806370acb7611461037b5780637c6385481461038e57806381cf22d8146103a157600080fd5b80632266e1bc146102f957806334b8bb6c1461030c5780633a70693d1461031f57806359ca2d031461033257600080fd5b8063152de3b9116101d9578063152de3b9146102a357806316e58a2f146102b65780631d5fd3ca146102dd5780631f50dd27146102e657600080fd5b806304f17a9b1461020b578063052f9b0a1461023157806305fe66631461025c57806309c57df714610283575b600080fd5b61021e61021936600461126b565b61057f565b6040519081526020015b60405180910390f35b600754610244906001600160a01b031681565b6040516001600160a01b039091168152602001610228565b60015461027190640100000000900460ff1681565b60405160ff9091168152602001610228565b61021e6102913660046112ca565b600a6020526000908152604090205481565b61021e6102b13660046112ec565b61063a565b61021e7f29db90f499fc17d858adf930fec9986f376f0ba9b76d35b25f1db7afb7f4b60c81565b61021e60045481565b600854610244906001600160a01b031681565b61021e61030736600461126b565b61069c565b61021e61031a36600461136c565b6106fc565b61027161032d36600461141e565b6107c6565b61033a6107ea565b604051610228919061148f565b61035a61035536600461141e565b610878565b6040516102289291906114a2565b600554610244906001600160a01b031681565b61021e6103893660046114c5565b61096d565b61021e61039c36600461126b565b610a2e565b6103b46103af366004611524565b610af2565b005b60105461021e565b6103d16103cc36600461141e565b610bb9565b604051610228959493929190611572565b60015461027190610100900460ff1681565b600654610244906001600160a01b031681565b61021e6104153660046112ca565b60096020526000908152604090205481565b6001546102719062010000900460ff1681565b61021e6104483660046115b5565b610c94565b600154610271906301000000900460ff1681565b61047461046f36600461141e565b610cf2565b604080516001600160a01b0395861681526020810194909452918416918301919091529091166060820152608001610228565b6104ba6104b536600461141e565b610d3a565b6040516102289392919061163d565b6104dc6104d7366004611673565b610e05565b6040519015158152602001610228565b6104ff6104fa3660046116f1565b610ec9565b6040516102289392919061171d565b61052161051c36600461141e565b610f86565b60405161022899989796959493929190611749565b6001546102719060ff1681565b61021e6105513660046117d6565b611085565b6001546104dc9065010000000000900460ff1681565b61021e61057a366004611828565b61114c565b600254604051600091829182916001600160a01b0316906105aa90899089908990899060240161188d565b60408051601f198184030181529181526020820180516001600160e01b03166304f17a9b60e01b179052516105df91906118c5565b600060405180830381855af49150503d806000811461061a576040519150601f19603f3d011682016040523d82523d6000602084013e61061f565b606091505b50915091506040513d806000833e83610636578082fd5b8082f35b600254604051600091829182916001600160a01b031690610667908a908a908a908a908a906024016118e1565b60408051601f198184030181529181526020820180516001600160e01b031663152de3b960e01b179052516105df91906118c5565b600254604051600091829182916001600160a01b0316906106c790899089908990899060240161188d565b60408051601f198184030181529181526020820180516001600160e01b0316630899b86f60e21b179052516105df91906118c5565b600254604051600091829182916001600160a01b03169061072b908b908b908b908b908b908b90602401611926565b60408051601f198184030181529181526020820180516001600160e01b0316630d2e2edb60e21b1790525161076091906118c5565b600060405180830381855af49150503d806000811461079b576040519150601f19603f3d011682016040523d82523d6000602084013e6107a0565b606091505b50915091506040513d806000833e836107b7578082fd5b50519998505050505050505050565b600f81815481106107d657600080fd5b60009182526020909120015460ff16905081565b600080546107f79061198b565b80601f01602080910402602001604051908101604052809291908181526020018280546108239061198b565b80156108705780601f1061084557610100808354040283529160200191610870565b820191906000526020600020905b81548152906001019060200180831161085357829003601f168201915b505050505081565b60025460405160248101839052600091606091839182916001600160a01b039091169060440160408051601f198184030181529181526020820180516001600160e01b0316634eeb7b8560e01b179052516108d391906118c5565b600060405180830381855af49150503d806000811461090e576040519150601f19603f3d011682016040523d82523d6000602084013e610913565b606091505b50915091508161092a576040513d806000833e8082fd5b60016040518060400160405280601981526020017f537563636573732065786563757465642070726f706f73616c00000000000000815250935093505050915091565b600254604051600091829182916001600160a01b031690610996908890889088906024016119c6565b60408051601f198184030181529181526020820180516001600160e01b03166370acb76160e01b179052516109cb91906118c5565b600060405180830381855af49150503d8060008114610a06576040519150601f19603f3d011682016040523d82523d6000602084013e610a0b565b606091505b50915091506040513d806000833e83610a22578082fd5b50519695505050505050565b600254604051600091829182916001600160a01b031690610a5990899089908990899060240161188d565b60408051601f198184030181529181526020820180516001600160e01b0316630f8c70a960e31b17905251610a8e91906118c5565b600060405180830381855af49150503d8060008114610ac9576040519150601f19603f3d011682016040523d82523d6000602084013e610ace565b606091505b50915091506040513d806000833e83610ae5578082fd5b5051979650505050505050565b600080600160069054906101000a90046001600160a01b03166001600160a01b03168484604051602401610b279291906114a2565b60408051601f198184030181529181526020820180516001600160e01b0316631039e45b60e31b17905251610b5c91906118c5565b600060405180830381855af49150503d8060008114610b97576040519150601f19603f3d011682016040523d82523d6000602084013e610b9c565b606091505b509150915081610bb3576040513d806000833e8082fd5b50505050565b60108181548110610bc957600080fd5b6000918252602090912060049091020180546001820180546001600160a01b03909216935090610bf89061198b565b80601f0160208091040260200160405190810160405280929190818152602001828054610c249061198b565b8015610c715780601f10610c4657610100808354040283529160200191610c71565b820191906000526020600020905b815481529060010190602001808311610c5457829003601f168201915b50505050600283015460039093015491929160ff80821692506101009091041685565b600254604051600091829182916001600160a01b031690610cbd908890889088906024016119f2565b60408051601f198184030181529181526020820180516001600160e01b0316630a19a5f560e41b179052516105df91906118c5565b600e8181548110610d0257600080fd5b600091825260209091206004909102018054600182015460028301546003909301546001600160a01b03928316945090928216911684565b600d8181548110610d4a57600080fd5b6000918252602090912060039091020180546001820180546001600160a01b03909216935090610d799061198b565b80601f0160208091040260200160405190810160405280929190818152602001828054610da59061198b565b8015610df25780601f10610dc757610100808354040283529160200191610df2565b820191906000526020600020905b815481529060010190602001808311610dd557829003601f168201915b5050506002909301549192505060ff1683565b600254604051600091829182916001600160a01b031690610e30908990899089908990602401611a35565b60408051601f198184030181529181526020820180516001600160e01b0316639e803dfb60e01b17905251610e6591906118c5565b600060405180830381855af49150503d8060008114610ea0576040519150601f19603f3d011682016040523d82523d6000602084013e610ea5565b606091505b509150915081610ebc576040513d806000833e8082fd5b5060019695505050505050565b600b6020908152600092835260408084209091529082529020805460018201805460ff8084169461010090940416929190610f039061198b565b80601f0160208091040260200160405190810160405280929190818152602001828054610f2f9061198b565b8015610f7c5780601f10610f5157610100808354040283529160200191610f7c565b820191906000526020600020905b815481529060010190602001808311610f5f57829003601f168201915b5050505050905083565b600c8181548110610f9657600080fd5b6000918252602090912060059091020180546001820180546001600160a01b0383169450600160a01b90920460ff169291610fd09061198b565b80601f0160208091040260200160405190810160405280929190818152602001828054610ffc9061198b565b80156110495780601f1061101e57610100808354040283529160200191611049565b820191906000526020600020905b81548152906001019060200180831161102c57829003601f168201915b505050600284015460038501546004909501549394909360ff808316945061010083048116935062010000830481169263010000009004169089565b600254604051600091829182916001600160a01b0316906110b2908a908a908a908a908a90602401611a73565b60408051601f198184030181529181526020820180516001600160e01b0316636f2d58a760e11b179052516110e791906118c5565b600060405180830381855af49150503d8060008114611122576040519150601f19603f3d011682016040523d82523d6000602084013e611127565b606091505b50915091506040513d806000833e8361113e578082fd5b505198975050505050505050565b600254604051600091829182916001600160a01b031690611177908990899089908990602401611aa6565b60408051601f198184030181529181526020820180516001600160e01b0316637b2dde6f60e11b17905251610a8e91906118c5565b80356001600160a01b03811681146111c357600080fd5b919050565b634e487b7160e01b600052604160045260246000fd5b600082601f8301126111ef57600080fd5b813567ffffffffffffffff8082111561120a5761120a6111c8565b604051601f8301601f19908116603f01168101908282118183101715611232576112326111c8565b8160405283815286602085880101111561124b57600080fd5b836020870160208301376000602085830101528094505050505092915050565b6000806000806080858703121561128157600080fd5b61128a856111ac565b935060208501359250604085013567ffffffffffffffff8111156112ad57600080fd5b6112b9878288016111de565b949793965093946060013593505050565b6000602082840312156112dc57600080fd5b6112e5826111ac565b9392505050565b600080600080600060a0868803121561130457600080fd5b61130d866111ac565b945061131b602087016111ac565b935060408601359250606086013567ffffffffffffffff81111561133e57600080fd5b61134a888289016111de565b95989497509295608001359392505050565b803580151581146111c357600080fd5b60008060008060008060c0878903121561138557600080fd5b61138e876111ac565b9550602087013567ffffffffffffffff808211156113ab57600080fd5b6113b78a838b016111de565b965060408901359150808211156113cd57600080fd5b6113d98a838b016111de565b95506113e760608a0161135c565b94506080890135935060a089013591508082111561140457600080fd5b5061141189828a016111de565b9150509295509295509295565b60006020828403121561143057600080fd5b5035919050565b60005b8381101561145257818101518382015260200161143a565b83811115610bb35750506000910152565b6000815180845261147b816020860160208601611437565b601f01601f19169290920160200192915050565b6020815260006112e56020830184611463565b82151581526040602082015260006114bd6040830184611463565b949350505050565b6000806000606084860312156114da57600080fd5b833560ff811681146114eb57600080fd5b9250602084013567ffffffffffffffff81111561150757600080fd5b611513868287016111de565b925050604084013590509250925092565b6000806040838503121561153757600080fd5b6115408361135c565b9150602083013567ffffffffffffffff81111561155c57600080fd5b611568858286016111de565b9150509250929050565b6001600160a01b038616815260a06020820181905260009061159690830187611463565b6040830195909552509115156060830152151560809091015292915050565b6000806000606084860312156115ca57600080fd5b833567ffffffffffffffff808211156115e257600080fd5b6115ee878388016111de565b9450602086013591508082111561160457600080fd5b611610878388016111de565b9350604086013591508082111561162657600080fd5b50611633868287016111de565b9150509250925092565b6001600160a01b038416815260606020820181905260009061166190830185611463565b90508215156040830152949350505050565b6000806000806080858703121561168957600080fd5b843593506116996020860161135c565b9250604085013567ffffffffffffffff808211156116b657600080fd5b6116c2888389016111de565b935060608701359150808211156116d857600080fd5b506116e5878288016111de565b91505092959194509250565b6000806040838503121561170457600080fd5b82359150611714602084016111ac565b90509250929050565b831515815282151560208201526060604082015260006117406060830184611463565b95945050505050565b6001600160a01b038a168152600061012060098b1061177857634e487b7160e01b600052602160045260246000fd5b8a60208401528060408401526117908184018b611463565b91505087606083015260ff8716608083015260ff861660a083015284151560c08301526117c160e083018515159052565b826101008301529a9950505050505050505050565b600080600080600060a086880312156117ee57600080fd5b6117f7866111ac565b94506020860135935061180c604087016111ac565b9250606086013567ffffffffffffffff81111561133e57600080fd5b6000806000806080858703121561183e57600080fd5b611847856111ac565b9350602085013567ffffffffffffffff8082111561186457600080fd5b611870888389016111de565b94506040870135935060608701359150808211156116d857600080fd5b60018060a01b03851681528360208201526080604082015260006118b46080830185611463565b905082606083015295945050505050565b600082516118d7818460208701611437565b9190910192915050565b6001600160a01b038681168252851660208201526040810184905260a06060820181905260009061191490830185611463565b90508260808301529695505050505050565b6001600160a01b038716815260c06020820181905260009061194a90830188611463565b828103604084015261195c8188611463565b9050851515606084015284608084015282810360a084015261197e8185611463565b9998505050505050505050565b600181811c9082168061199f57607f821691505b602082108114156119c057634e487b7160e01b600052602260045260246000fd5b50919050565b60ff841681526060602082015260006119e26060830185611463565b9050826040830152949350505050565b606081526000611a056060830186611463565b8281036020840152611a178186611463565b90508281036040840152611a2b8185611463565b9695505050505050565b8481528315156020820152608060408201526000611a566080830185611463565b8281036060840152611a688185611463565b979650505050505050565b6001600160a01b038681168252602082018690528416604082015260a06060820181905260009061191490830185611463565b6001600160a01b0385168152608060208201819052600090611aca90830186611463565b8460408401528281036060840152611a68818561146356fea26469706673582212207f5eef9b3c9f0a2554766314faa638f84e2c8e90249f44065dbbe478c7d1d3d364736f6c634300080c0033a2646970667358221220b084178b940365ca9beeb62f3d4990cdcdd9936aaee6459f548966410622af5864736f6c634300080c003360806040523480156200001157600080fd5b506040516200212b3803806200212b833981016040819052620000349162000387565b60008083600260200201516001600160a01b0316898989898960405180606001604052808b6000600481106200006e576200006e620004a6565b602090810291909101516001600160a01b0390811683528d82015181169183019190915260608d01511660409182015251620000b5969594939291908b9060240162000530565b60408051601f198184030181529181526020820180516001600160e01b031663e68ea1fd60e01b17905251620000ec9190620005e5565b600060405180830381855af49150503d806000811462000129576040519150601f19603f3d011682016040523d82523d6000602084013e6200012e565b606091505b50915091508162000146576040513d806000833e8082fd5b50505050505050505062000603565b80516001600160a01b03811681146200016d57600080fd5b919050565b634e487b7160e01b600052604160045260246000fd5b604051601f8201601f191681016001600160401b0381118282101715620001b357620001b362000172565b604052919050565b60005b83811015620001d8578181015183820152602001620001be565b83811115620001e8576000848401525b50505050565b805180151581146200016d57600080fd5b600082601f8301126200021157600080fd5b604051606081016001600160401b038111828210171562000236576200023662000172565b6040528060608401858111156200024c57600080fd5b845b818110156200027957805160ff811681146200026a5760008081fd5b8352602092830192016200024e565b509195945050505050565b600082601f8301126200029657600080fd5b604051608081016001600160401b0381118282101715620002bb57620002bb62000172565b604052806080840185811115620002d157600080fd5b845b818110156200027957620002e78162000155565b835260209283019201620002d3565b600082601f8301126200030857600080fd5b815160206001600160401b0382111562000326576200032662000172565b8160051b6200033782820162000188565b92835284810182019282810190878511156200035257600080fd5b83870192505b848310156200037c576200036c8362000155565b8252918301919083019062000358565b979650505050505050565b6000806000806000806000610180888a031215620003a457600080fd5b620003af8862000155565b60208901519097506001600160401b0380821115620003cd57600080fd5b818a0191508a601f830112620003e257600080fd5b815181811115620003f757620003f762000172565b6200040c601f8201601f191660200162000188565b8181528c60208386010111156200042257600080fd5b62000435826020830160208701620001bb565b985062000447905060408b01620001ee565b965060608a015195506200045f8b60808c01620001ff565b9450620004708b60e08c0162000284565b93506101608a01519150808211156200048857600080fd5b50620004978a828b01620002f6565b91505092959891949750929550565b634e487b7160e01b600052603260045260246000fd5b8060005b6003811015620001e85781516001600160a01b0316845260209384019390910190600101620004c0565b600081518084526020808501945080840160005b83811015620005255781516001600160a01b031687529582019590820190600101620004fe565b509495945050505050565b6001600160a01b038816815261016060208083018290528851918301829052600091610180919062000568818487018d8501620001bb565b891515604086015260608501899052601f01601f19168401608085018860005b6003811015620005aa57815160ff168352918401919084019060010162000588565b505050620005bc60e0860188620004bc565b8285820301610140860152620005d583820187620004ea565b9c9b505050505050505050505050565b60008251620005f9818460208701620001bb565b9190910192915050565b611b1880620006136000396000f3fe608060405234801561001057600080fd5b50600436106102065760003560e01c8063824c88da1161011a578063baa4d5e9116100ad578063cb85669c1161007c578063cb85669c1461050e578063da9bca2114610536578063de5ab14e14610543578063f00d627414610556578063f65bbcde1461056c57600080fd5b8063baa4d5e914610461578063bb3a9065146104a7578063c2b3aa08146104c9578063c347d2fd146104ec57600080fd5b806399db7fb3116100e957806399db7fb3146104075780639c630a8814610427578063a19a5f501461043a578063ab44997b1461044d57600080fd5b8063824c88da146103b65780638532cbf7146103be5780638668eafc146103e25780639360bfad146103f457600080fd5b80632266e1bc1161019d5780635f3d99b31161016c5780635f3d99b3146103475780636c2f34e71461036857806370acb7611461037b5780637c6385481461038e57806381cf22d8146103a157600080fd5b80632266e1bc146102f957806334b8bb6c1461030c5780633a70693d1461031f57806359ca2d031461033257600080fd5b8063152de3b9116101d9578063152de3b9146102a357806316e58a2f146102b65780631d5fd3ca146102dd5780631f50dd27146102e657600080fd5b806304f17a9b1461020b578063052f9b0a1461023157806305fe66631461025c57806309c57df714610283575b600080fd5b61021e61021936600461126b565b61057f565b6040519081526020015b60405180910390f35b600754610244906001600160a01b031681565b6040516001600160a01b039091168152602001610228565b60015461027190640100000000900460ff1681565b60405160ff9091168152602001610228565b61021e6102913660046112ca565b600a6020526000908152604090205481565b61021e6102b13660046112ec565b61063a565b61021e7f29db90f499fc17d858adf930fec9986f376f0ba9b76d35b25f1db7afb7f4b60c81565b61021e60045481565b600854610244906001600160a01b031681565b61021e61030736600461126b565b61069c565b61021e61031a36600461136c565b6106fc565b61027161032d36600461141e565b6107c6565b61033a6107ea565b604051610228919061148f565b61035a61035536600461141e565b610878565b6040516102289291906114a2565b600554610244906001600160a01b031681565b61021e6103893660046114c5565b61096d565b61021e61039c36600461126b565b610a2e565b6103b46103af366004611524565b610af2565b005b60105461021e565b6103d16103cc36600461141e565b610bb9565b604051610228959493929190611572565b60015461027190610100900460ff1681565b600654610244906001600160a01b031681565b61021e6104153660046112ca565b60096020526000908152604090205481565b6001546102719062010000900460ff1681565b61021e6104483660046115b5565b610c94565b600154610271906301000000900460ff1681565b61047461046f36600461141e565b610cf2565b604080516001600160a01b0395861681526020810194909452918416918301919091529091166060820152608001610228565b6104ba6104b536600461141e565b610d3a565b6040516102289392919061163d565b6104dc6104d7366004611673565b610e05565b6040519015158152602001610228565b6104ff6104fa3660046116f1565b610ec9565b6040516102289392919061171d565b61052161051c36600461141e565b610f86565b60405161022899989796959493929190611749565b6001546102719060ff1681565b61021e6105513660046117d6565b611085565b6001546104dc9065010000000000900460ff1681565b61021e61057a366004611828565b61114c565b600254604051600091829182916001600160a01b0316906105aa90899089908990899060240161188d565b60408051601f198184030181529181526020820180516001600160e01b03166304f17a9b60e01b179052516105df91906118c5565b600060405180830381855af49150503d806000811461061a576040519150601f19603f3d011682016040523d82523d6000602084013e61061f565b606091505b50915091506040513d806000833e83610636578082fd5b8082f35b600254604051600091829182916001600160a01b031690610667908a908a908a908a908a906024016118e1565b60408051601f198184030181529181526020820180516001600160e01b031663152de3b960e01b179052516105df91906118c5565b600254604051600091829182916001600160a01b0316906106c790899089908990899060240161188d565b60408051601f198184030181529181526020820180516001600160e01b0316630899b86f60e21b179052516105df91906118c5565b600254604051600091829182916001600160a01b03169061072b908b908b908b908b908b908b90602401611926565b60408051601f198184030181529181526020820180516001600160e01b0316630d2e2edb60e21b1790525161076091906118c5565b600060405180830381855af49150503d806000811461079b576040519150601f19603f3d011682016040523d82523d6000602084013e6107a0565b606091505b50915091506040513d806000833e836107b7578082fd5b50519998505050505050505050565b600f81815481106107d657600080fd5b60009182526020909120015460ff16905081565b600080546107f79061198b565b80601f01602080910402602001604051908101604052809291908181526020018280546108239061198b565b80156108705780601f1061084557610100808354040283529160200191610870565b820191906000526020600020905b81548152906001019060200180831161085357829003601f168201915b505050505081565b60025460405160248101839052600091606091839182916001600160a01b039091169060440160408051601f198184030181529181526020820180516001600160e01b0316634eeb7b8560e01b179052516108d391906118c5565b600060405180830381855af49150503d806000811461090e576040519150601f19603f3d011682016040523d82523d6000602084013e610913565b606091505b50915091508161092a576040513d806000833e8082fd5b60016040518060400160405280601981526020017f537563636573732065786563757465642070726f706f73616c00000000000000815250935093505050915091565b600254604051600091829182916001600160a01b031690610996908890889088906024016119c6565b60408051601f198184030181529181526020820180516001600160e01b03166370acb76160e01b179052516109cb91906118c5565b600060405180830381855af49150503d8060008114610a06576040519150601f19603f3d011682016040523d82523d6000602084013e610a0b565b606091505b50915091506040513d806000833e83610a22578082fd5b50519695505050505050565b600254604051600091829182916001600160a01b031690610a5990899089908990899060240161188d565b60408051601f198184030181529181526020820180516001600160e01b0316630f8c70a960e31b17905251610a8e91906118c5565b600060405180830381855af49150503d8060008114610ac9576040519150601f19603f3d011682016040523d82523d6000602084013e610ace565b606091505b50915091506040513d806000833e83610ae5578082fd5b5051979650505050505050565b600080600160069054906101000a90046001600160a01b03166001600160a01b03168484604051602401610b279291906114a2565b60408051601f198184030181529181526020820180516001600160e01b0316631039e45b60e31b17905251610b5c91906118c5565b600060405180830381855af49150503d8060008114610b97576040519150601f19603f3d011682016040523d82523d6000602084013e610b9c565b606091505b509150915081610bb3576040513d806000833e8082fd5b50505050565b60108181548110610bc957600080fd5b6000918252602090912060049091020180546001820180546001600160a01b03909216935090610bf89061198b565b80601f0160208091040260200160405190810160405280929190818152602001828054610c249061198b565b8015610c715780601f10610c4657610100808354040283529160200191610c71565b820191906000526020600020905b815481529060010190602001808311610c5457829003601f168201915b50505050600283015460039093015491929160ff80821692506101009091041685565b600254604051600091829182916001600160a01b031690610cbd908890889088906024016119f2565b60408051601f198184030181529181526020820180516001600160e01b0316630a19a5f560e41b179052516105df91906118c5565b600e8181548110610d0257600080fd5b600091825260209091206004909102018054600182015460028301546003909301546001600160a01b03928316945090928216911684565b600d8181548110610d4a57600080fd5b6000918252602090912060039091020180546001820180546001600160a01b03909216935090610d799061198b565b80601f0160208091040260200160405190810160405280929190818152602001828054610da59061198b565b8015610df25780601f10610dc757610100808354040283529160200191610df2565b820191906000526020600020905b815481529060010190602001808311610dd557829003601f168201915b5050506002909301549192505060ff1683565b600254604051600091829182916001600160a01b031690610e30908990899089908990602401611a35565b60408051601f198184030181529181526020820180516001600160e01b0316639e803dfb60e01b17905251610e6591906118c5565b600060405180830381855af49150503d8060008114610ea0576040519150601f19603f3d011682016040523d82523d6000602084013e610ea5565b606091505b509150915081610ebc576040513d806000833e8082fd5b5060019695505050505050565b600b6020908152600092835260408084209091529082529020805460018201805460ff8084169461010090940416929190610f039061198b565b80601f0160208091040260200160405190810160405280929190818152602001828054610f2f9061198b565b8015610f7c5780601f10610f5157610100808354040283529160200191610f7c565b820191906000526020600020905b815481529060010190602001808311610f5f57829003601f168201915b5050505050905083565b600c8181548110610f9657600080fd5b6000918252602090912060059091020180546001820180546001600160a01b0383169450600160a01b90920460ff169291610fd09061198b565b80601f0160208091040260200160405190810160405280929190818152602001828054610ffc9061198b565b80156110495780601f1061101e57610100808354040283529160200191611049565b820191906000526020600020905b81548152906001019060200180831161102c57829003601f168201915b505050600284015460038501546004909501549394909360ff808316945061010083048116935062010000830481169263010000009004169089565b600254604051600091829182916001600160a01b0316906110b2908a908a908a908a908a90602401611a73565b60408051601f198184030181529181526020820180516001600160e01b0316636f2d58a760e11b179052516110e791906118c5565b600060405180830381855af49150503d8060008114611122576040519150601f19603f3d011682016040523d82523d6000602084013e611127565b606091505b50915091506040513d806000833e8361113e578082fd5b505198975050505050505050565b600254604051600091829182916001600160a01b031690611177908990899089908990602401611aa6565b60408051601f198184030181529181526020820180516001600160e01b0316637b2dde6f60e11b17905251610a8e91906118c5565b80356001600160a01b03811681146111c357600080fd5b919050565b634e487b7160e01b600052604160045260246000fd5b600082601f8301126111ef57600080fd5b813567ffffffffffffffff8082111561120a5761120a6111c8565b604051601f8301601f19908116603f01168101908282118183101715611232576112326111c8565b8160405283815286602085880101111561124b57600080fd5b836020870160208301376000602085830101528094505050505092915050565b6000806000806080858703121561128157600080fd5b61128a856111ac565b935060208501359250604085013567ffffffffffffffff8111156112ad57600080fd5b6112b9878288016111de565b949793965093946060013593505050565b6000602082840312156112dc57600080fd5b6112e5826111ac565b9392505050565b600080600080600060a0868803121561130457600080fd5b61130d866111ac565b945061131b602087016111ac565b935060408601359250606086013567ffffffffffffffff81111561133e57600080fd5b61134a888289016111de565b95989497509295608001359392505050565b803580151581146111c357600080fd5b60008060008060008060c0878903121561138557600080fd5b61138e876111ac565b9550602087013567ffffffffffffffff808211156113ab57600080fd5b6113b78a838b016111de565b965060408901359150808211156113cd57600080fd5b6113d98a838b016111de565b95506113e760608a0161135c565b94506080890135935060a089013591508082111561140457600080fd5b5061141189828a016111de565b9150509295509295509295565b60006020828403121561143057600080fd5b5035919050565b60005b8381101561145257818101518382015260200161143a565b83811115610bb35750506000910152565b6000815180845261147b816020860160208601611437565b601f01601f19169290920160200192915050565b6020815260006112e56020830184611463565b82151581526040602082015260006114bd6040830184611463565b949350505050565b6000806000606084860312156114da57600080fd5b833560ff811681146114eb57600080fd5b9250602084013567ffffffffffffffff81111561150757600080fd5b611513868287016111de565b925050604084013590509250925092565b6000806040838503121561153757600080fd5b6115408361135c565b9150602083013567ffffffffffffffff81111561155c57600080fd5b611568858286016111de565b9150509250929050565b6001600160a01b038616815260a06020820181905260009061159690830187611463565b6040830195909552509115156060830152151560809091015292915050565b6000806000606084860312156115ca57600080fd5b833567ffffffffffffffff808211156115e257600080fd5b6115ee878388016111de565b9450602086013591508082111561160457600080fd5b611610878388016111de565b9350604086013591508082111561162657600080fd5b50611633868287016111de565b9150509250925092565b6001600160a01b038416815260606020820181905260009061166190830185611463565b90508215156040830152949350505050565b6000806000806080858703121561168957600080fd5b843593506116996020860161135c565b9250604085013567ffffffffffffffff808211156116b657600080fd5b6116c2888389016111de565b935060608701359150808211156116d857600080fd5b506116e5878288016111de565b91505092959194509250565b6000806040838503121561170457600080fd5b82359150611714602084016111ac565b90509250929050565b831515815282151560208201526060604082015260006117406060830184611463565b95945050505050565b6001600160a01b038a168152600061012060098b1061177857634e487b7160e01b600052602160045260246000fd5b8a60208401528060408401526117908184018b611463565b91505087606083015260ff8716608083015260ff861660a083015284151560c08301526117c160e083018515159052565b826101008301529a9950505050505050505050565b600080600080600060a086880312156117ee57600080fd5b6117f7866111ac565b94506020860135935061180c604087016111ac565b9250606086013567ffffffffffffffff81111561133e57600080fd5b6000806000806080858703121561183e57600080fd5b611847856111ac565b9350602085013567ffffffffffffffff8082111561186457600080fd5b611870888389016111de565b94506040870135935060608701359150808211156116d857600080fd5b60018060a01b03851681528360208201526080604082015260006118b46080830185611463565b905082606083015295945050505050565b600082516118d7818460208701611437565b9190910192915050565b6001600160a01b038681168252851660208201526040810184905260a06060820181905260009061191490830185611463565b90508260808301529695505050505050565b6001600160a01b038716815260c06020820181905260009061194a90830188611463565b828103604084015261195c8188611463565b9050851515606084015284608084015282810360a084015261197e8185611463565b9998505050505050505050565b600181811c9082168061199f57607f821691505b602082108114156119c057634e487b7160e01b600052602260045260246000fd5b50919050565b60ff841681526060602082015260006119e26060830185611463565b9050826040830152949350505050565b606081526000611a056060830186611463565b8281036020840152611a178186611463565b90508281036040840152611a2b8185611463565b9695505050505050565b8481528315156020820152608060408201526000611a566080830185611463565b8281036060840152611a688185611463565b979650505050505050565b6001600160a01b038681168252602082018690528416604082015260a06060820181905260009061191490830185611463565b6001600160a01b0385168152608060208201819052600090611aca90830186611463565b8460408401528281036060840152611a68818561146356fea26469706673582212207f5eef9b3c9f0a2554766314faa638f84e2c8e90249f44065dbbe478c7d1d3d364736f6c634300080c0033",
  "bytecodeSha1": "19a7a328c64fd053c61fde3ddd89c05a3f099d68",
  "compiler": {
    "evm_version": "istanbul",
    "optimizer": {
      "enabled": true,
      "runs": 200
    },
    "version": "0.8.12+commit.f00d7308"
  },
  "contractName": "CLFactory",
  "language": "Solidity",
  "natspec": {
    "author": "Leonardo Urrego",
    "kind": "dev",
    "methods": {
      "CreateCLH(string,bool,bytes32,uint8[3],address[],address,bytes)": {
        "params": {
          "_whiteListWallets": "Whitelist of address for invitate as managers"
        }
      },
      "GetHousesByUser(address)": {
        "notice": "List of membership houses to one user",
        "params": {
          "_walletAddr": "The user address"
        },
        "returns": {
          "_0": "arrHouses List of address houses"
        }
      },
      "GetHousesList()": {
        "notice": "The list of all houses created by the factory",
        "returns": {
          "_0": "arrCLH the array with all address"
        }
      },
      "GetInvitationsByUser(address)": {
        "notice": "List of houses that have an invitation pending for certatin user",
        "params": {
          "_walletAddr": "The user address"
        },
        "returns": {
          "_0": "arrHouses List of address houses"
        }
      }
    },
    "notice": "This contract is only for test ",
    "title": "A factory to deploy CLHouses easy",
    "version": 1
  },
  "opcodes": "PUSH1 0x80 PUSH1 0x40 MSTORE CALLVALUE DUP1 ISZERO PUSH3 0x11 JUMPI PUSH1 0x0 DUP1 REVERT JUMPDEST POP PUSH1 0x4 CALLDATASIZE LT PUSH3 0x87 JUMPI PUSH1 0x0 CALLDATALOAD PUSH1 0xE0 SHR DUP1 PUSH4 0x7DDB31A3 GT PUSH3 0x62 JUMPI DUP1 PUSH4 0x7DDB31A3 EQ PUSH3 0x118 JUMPI DUP1 PUSH4 0xAC53C485 EQ PUSH3 0x12F JUMPI DUP1 PUSH4 0xEB91322B EQ PUSH3 0x146 JUMPI DUP1 PUSH4 0xEE7A7D1B EQ PUSH3 0x15F JUMPI PUSH1 0x0 DUP1 REVERT JUMPDEST DUP1 PUSH4 0x3195CE74 EQ PUSH3 0x8C JUMPI DUP1 PUSH4 0x535210DB EQ PUSH3 0xC2 JUMPI DUP1 PUSH4 0x56EC9FFF EQ PUSH3 0xF2 JUMPI JUMPDEST PUSH1 0x0 DUP1 REVERT JUMPDEST PUSH3 0xAF PUSH3 0x9D CALLDATASIZE PUSH1 0x4 PUSH3 0x8C2 JUMP JUMPDEST PUSH1 0x2 PUSH1 0x20 MSTORE PUSH1 0x0 SWAP1 DUP2 MSTORE PUSH1 0x40 SWAP1 KECCAK256 SLOAD DUP2 JUMP JUMPDEST PUSH1 0x40 MLOAD SWAP1 DUP2 MSTORE PUSH1 0x20 ADD JUMPDEST PUSH1 0x40 MLOAD DUP1 SWAP2 SUB SWAP1 RETURN JUMPDEST PUSH3 0xD9 PUSH3 0xD3 CALLDATASIZE PUSH1 0x4 PUSH3 0xADF JUMP JUMPDEST PUSH3 0x169 JUMP JUMPDEST PUSH1 0x40 MLOAD PUSH1 0x1 PUSH1 0x1 PUSH1 0xA0 SHL SUB SWAP1 SWAP2 AND DUP2 MSTORE PUSH1 0x20 ADD PUSH3 0xB9 JUMP JUMPDEST PUSH3 0x109 PUSH3 0x103 CALLDATASIZE PUSH1 0x4 PUSH3 0x8C2 JUMP JUMPDEST PUSH3 0x501 JUMP JUMPDEST PUSH1 0x40 MLOAD PUSH3 0xB9 SWAP2 SWAP1 PUSH3 0xC14 JUMP JUMPDEST PUSH3 0x109 PUSH3 0x129 CALLDATASIZE PUSH1 0x4 PUSH3 0x8C2 JUMP JUMPDEST PUSH3 0x682 JUMP JUMPDEST PUSH3 0xD9 PUSH3 0x140 CALLDATASIZE PUSH1 0x4 PUSH3 0xC29 JUMP JUMPDEST PUSH3 0x7FA JUMP JUMPDEST PUSH3 0x150 PUSH3 0x825 JUMP JUMPDEST PUSH1 0x40 MLOAD PUSH3 0xB9 SWAP2 SWAP1 PUSH3 0xC43 JUMP JUMPDEST PUSH3 0xAF PUSH1 0x1 SLOAD DUP2 JUMP JUMPDEST PUSH1 0x0 DUP1 CALLER PUSH32 0xB93889D934070956C00846F50F9A10A747BD194BBA2F2E78A86D0C02386FDB1 DUP9 EQ DUP1 PUSH3 0x1BB JUMPI POP DUP8 PUSH32 0x16591A696FEE5867425B3DEE9FC0160A6C1BAEF77835BC3D204314106D639298 EQ JUMPDEST DUP1 PUSH3 0x1E6 JUMPI POP DUP8 PUSH32 0xA0786F6450D5FB3298B8425105C1B75E6E01A1FF86CDABEA29909CDB0B4C83A7 EQ JUMPDEST PUSH3 0x238 JUMPI PUSH1 0x40 MLOAD PUSH3 0x461BCD PUSH1 0xE5 SHL DUP2 MSTORE PUSH1 0x20 PUSH1 0x4 DUP3 ADD MSTORE PUSH1 0x17 PUSH1 0x24 DUP3 ADD MSTORE PUSH32 0x496E76616C696420476F7665726E616E63652054797065000000000000000000 PUSH1 0x44 DUP3 ADD MSTORE PUSH1 0x64 ADD JUMPDEST PUSH1 0x40 MLOAD DUP1 SWAP2 SUB SWAP1 REVERT JUMPDEST PUSH1 0x1 PUSH1 0x1 PUSH1 0xA0 SHL SUB DUP6 AND ISZERO PUSH3 0x3B6 JUMPI DUP4 MLOAD PUSH1 0x41 EQ PUSH3 0x29B JUMPI PUSH1 0x40 MLOAD PUSH3 0x461BCD PUSH1 0xE5 SHL DUP2 MSTORE PUSH1 0x20 PUSH1 0x4 DUP3 ADD MSTORE PUSH1 0x1C PUSH1 0x24 DUP3 ADD MSTORE PUSH32 0x4E6577434C483A20426164207369676E6174757265206C656E67746800000000 PUSH1 0x44 DUP3 ADD MSTORE PUSH1 0x64 ADD PUSH3 0x22F JUMP JUMPDEST PUSH1 0x3 SLOAD PUSH1 0x1 PUSH1 0x1 PUSH1 0xA0 SHL SUB AND PUSH4 0x364AE0D8 DUP12 DUP12 DUP12 DUP12 PUSH1 0x0 PUSH1 0x20 MUL ADD MLOAD DUP13 PUSH1 0x1 PUSH1 0x20 MUL ADD MLOAD DUP14 PUSH1 0x2 PUSH1 0x20 MUL ADD MLOAD DUP14 PUSH1 0x0 DUP2 MLOAD DUP2 LT PUSH3 0x2DD JUMPI PUSH3 0x2DD PUSH3 0xC92 JUMP JUMPDEST PUSH1 0x20 MUL PUSH1 0x20 ADD ADD MLOAD ADDRESS DUP14 PUSH1 0x40 MLOAD DUP11 PUSH4 0xFFFFFFFF AND PUSH1 0xE0 SHL DUP2 MSTORE PUSH1 0x4 ADD PUSH3 0x30D SWAP10 SWAP9 SWAP8 SWAP7 SWAP6 SWAP5 SWAP4 SWAP3 SWAP2 SWAP1 PUSH3 0xCF8 JUMP JUMPDEST PUSH1 0x20 PUSH1 0x40 MLOAD DUP1 DUP4 SUB DUP2 DUP7 GAS STATICCALL ISZERO DUP1 ISZERO PUSH3 0x32B JUMPI RETURNDATASIZE PUSH1 0x0 DUP1 RETURNDATACOPY RETURNDATASIZE PUSH1 0x0 REVERT JUMPDEST POP POP POP POP PUSH1 0x40 MLOAD RETURNDATASIZE PUSH1 0x1F NOT PUSH1 0x1F DUP3 ADD AND DUP3 ADD DUP1 PUSH1 0x40 MSTORE POP DUP2 ADD SWAP1 PUSH3 0x351 SWAP2 SWAP1 PUSH3 0xD74 JUMP JUMPDEST PUSH1 0x1 PUSH1 0x1 PUSH1 0xA0 SHL SUB AND DUP6 PUSH1 0x1 PUSH1 0x1 PUSH1 0xA0 SHL SUB AND EQ PUSH3 0x3B3 JUMPI PUSH1 0x40 MLOAD PUSH3 0x461BCD PUSH1 0xE5 SHL DUP2 MSTORE PUSH1 0x20 PUSH1 0x4 DUP3 ADD MSTORE PUSH1 0x19 PUSH1 0x24 DUP3 ADD MSTORE PUSH32 0x4E6577434C483A20496E76616C6964205369676E617475726500000000000000 PUSH1 0x44 DUP3 ADD MSTORE PUSH1 0x64 ADD PUSH3 0x22F JUMP JUMPDEST POP DUP4 JUMPDEST PUSH1 0x40 DUP1 MLOAD PUSH1 0x80 DUP2 ADD DUP3 MSTORE PUSH1 0x4 SLOAD PUSH1 0x1 PUSH1 0x1 PUSH1 0xA0 SHL SUB SWAP1 DUP2 AND DUP3 MSTORE PUSH1 0x5 SLOAD DUP2 AND PUSH1 0x20 DUP4 ADD MSTORE PUSH1 0x6 SLOAD DUP2 AND DUP3 DUP5 ADD MSTORE PUSH1 0x3 SLOAD AND PUSH1 0x60 DUP3 ADD MSTORE SWAP1 MLOAD DUP3 SWAP2 DUP13 SWAP2 DUP13 SWAP2 DUP13 SWAP2 DUP13 SWAP2 SWAP1 DUP13 SWAP1 PUSH3 0x406 SWAP1 PUSH3 0x889 JUMP JUMPDEST PUSH3 0x418 SWAP8 SWAP7 SWAP6 SWAP5 SWAP4 SWAP3 SWAP2 SWAP1 PUSH3 0xDC8 JUMP JUMPDEST PUSH1 0x40 MLOAD DUP1 SWAP2 SUB SWAP1 PUSH1 0x0 CREATE DUP1 ISZERO DUP1 ISZERO PUSH3 0x435 JUMPI RETURNDATASIZE PUSH1 0x0 DUP1 RETURNDATACOPY RETURNDATASIZE PUSH1 0x0 REVERT JUMPDEST POP PUSH1 0x0 DUP1 SLOAD PUSH1 0x1 DUP1 DUP3 ADD DUP4 SSTORE DUP3 DUP1 MSTORE PUSH32 0x290DECD9548B62A8D60345A988386FC84BA6BC95484008F6362F93160EF3E563 DUP3 ADD DUP1 SLOAD PUSH1 0x1 PUSH1 0x1 PUSH1 0xA0 SHL SUB NOT AND PUSH1 0x1 PUSH1 0x1 PUSH1 0xA0 SHL SUB DUP7 AND OR SWAP1 SSTORE DUP1 SLOAD SWAP4 SWAP6 POP DUP6 SWAP4 SWAP2 SWAP3 PUSH3 0x494 DUP4 PUSH3 0xE61 JUMP JUMPDEST SWAP1 SWAP2 SSTORE POP POP PUSH1 0x1 PUSH1 0x1 PUSH1 0xA0 SHL SUB DUP3 AND PUSH1 0x0 SWAP1 DUP2 MSTORE PUSH1 0x2 PUSH1 0x20 MSTORE PUSH1 0x40 SWAP1 DUP2 SWAP1 KECCAK256 DUP3 SWAP1 SSTORE MLOAD PUSH32 0x717908FB0165729C0CFD8BBC622F5EDE46A85E555AC30657FA94A188BCA698D SWAP1 PUSH3 0x4EA SWAP1 DUP5 SWAP1 DUP16 SWAP1 DUP6 SWAP1 PUSH3 0xE8B JUMP JUMPDEST PUSH1 0x40 MLOAD DUP1 SWAP2 SUB SWAP1 LOG1 POP SWAP11 SWAP10 POP POP POP POP POP POP POP POP POP POP JUMP JUMPDEST PUSH1 0x0 DUP1 SLOAD PUSH1 0x60 SWAP2 SWAP1 PUSH8 0xFFFFFFFFFFFFFFFF DUP2 GT ISZERO PUSH3 0x524 JUMPI PUSH3 0x524 PUSH3 0x8E9 JUMP JUMPDEST PUSH1 0x40 MLOAD SWAP1 DUP1 DUP3 MSTORE DUP1 PUSH1 0x20 MUL PUSH1 0x20 ADD DUP3 ADD PUSH1 0x40 MSTORE DUP1 ISZERO PUSH3 0x54E JUMPI DUP2 PUSH1 0x20 ADD PUSH1 0x20 DUP3 MUL DUP1 CALLDATASIZE DUP4 CALLDATACOPY ADD SWAP1 POP JUMPDEST POP SWAP1 POP PUSH1 0x0 PUSH1 0x1 JUMPDEST PUSH1 0x1 SLOAD DUP2 GT PUSH3 0x679 JUMPI PUSH1 0x0 DUP2 DUP2 SLOAD DUP2 LT PUSH3 0x576 JUMPI PUSH3 0x576 PUSH3 0xC92 JUMP JUMPDEST PUSH1 0x0 SWAP2 DUP3 MSTORE PUSH1 0x20 SWAP1 SWAP2 KECCAK256 ADD SLOAD PUSH1 0x40 MLOAD PUSH4 0x99DB7FB3 PUSH1 0xE0 SHL DUP2 MSTORE PUSH1 0x1 PUSH1 0x1 PUSH1 0xA0 SHL SUB DUP8 DUP2 AND PUSH1 0x4 DUP4 ADD MSTORE SWAP1 SWAP2 AND SWAP1 PUSH4 0x99DB7FB3 SWAP1 PUSH1 0x24 ADD PUSH1 0x20 PUSH1 0x40 MLOAD DUP1 DUP4 SUB DUP2 DUP7 GAS STATICCALL ISZERO DUP1 ISZERO PUSH3 0x5CA JUMPI RETURNDATASIZE PUSH1 0x0 DUP1 RETURNDATACOPY RETURNDATASIZE PUSH1 0x0 REVERT JUMPDEST POP POP POP POP PUSH1 0x40 MLOAD RETURNDATASIZE PUSH1 0x1F NOT PUSH1 0x1F DUP3 ADD AND DUP3 ADD DUP1 PUSH1 0x40 MSTORE POP DUP2 ADD SWAP1 PUSH3 0x5F0 SWAP2 SWAP1 PUSH3 0xEC1 JUMP JUMPDEST ISZERO PUSH3 0x664 JUMPI PUSH1 0x0 DUP2 DUP2 SLOAD DUP2 LT PUSH3 0x60C JUMPI PUSH3 0x60C PUSH3 0xC92 JUMP JUMPDEST PUSH1 0x0 SWAP2 DUP3 MSTORE PUSH1 0x20 SWAP1 SWAP2 KECCAK256 ADD SLOAD PUSH1 0x1 PUSH1 0x1 PUSH1 0xA0 SHL SUB AND DUP4 DUP4 PUSH3 0x62E DUP2 PUSH3 0xE61 JUMP JUMPDEST SWAP5 POP DUP2 MLOAD DUP2 LT PUSH3 0x643 JUMPI PUSH3 0x643 PUSH3 0xC92 JUMP JUMPDEST PUSH1 0x20 MUL PUSH1 0x20 ADD ADD SWAP1 PUSH1 0x1 PUSH1 0x1 PUSH1 0xA0 SHL SUB AND SWAP1 DUP2 PUSH1 0x1 PUSH1 0x1 PUSH1 0xA0 SHL SUB AND DUP2 MSTORE POP POP JUMPDEST DUP1 PUSH3 0x670 DUP2 PUSH3 0xE61 JUMP JUMPDEST SWAP2 POP POP PUSH3 0x556 JUMP JUMPDEST POP SWAP1 SWAP4 SWAP3 POP POP POP JUMP JUMPDEST PUSH1 0x0 DUP1 SLOAD PUSH1 0x60 SWAP2 SWAP1 PUSH8 0xFFFFFFFFFFFFFFFF DUP2 GT ISZERO PUSH3 0x6A5 JUMPI PUSH3 0x6A5 PUSH3 0x8E9 JUMP JUMPDEST PUSH1 0x40 MLOAD SWAP1 DUP1 DUP3 MSTORE DUP1 PUSH1 0x20 MUL PUSH1 0x20 ADD DUP3 ADD PUSH1 0x40 MSTORE DUP1 ISZERO PUSH3 0x6CF JUMPI DUP2 PUSH1 0x20 ADD PUSH1 0x20 DUP3 MUL DUP1 CALLDATASIZE DUP4 CALLDATACOPY ADD SWAP1 POP JUMPDEST POP SWAP1 POP PUSH1 0x0 PUSH1 0x1 JUMPDEST PUSH1 0x1 SLOAD DUP2 GT PUSH3 0x679 JUMPI PUSH1 0x0 DUP2 DUP2 SLOAD DUP2 LT PUSH3 0x6F7 JUMPI PUSH3 0x6F7 PUSH3 0xC92 JUMP JUMPDEST PUSH1 0x0 SWAP2 DUP3 MSTORE PUSH1 0x20 SWAP1 SWAP2 KECCAK256 ADD SLOAD PUSH1 0x40 MLOAD PUSH4 0x9C57DF7 PUSH1 0xE0 SHL DUP2 MSTORE PUSH1 0x1 PUSH1 0x1 PUSH1 0xA0 SHL SUB DUP8 DUP2 AND PUSH1 0x4 DUP4 ADD MSTORE SWAP1 SWAP2 AND SWAP1 PUSH4 0x9C57DF7 SWAP1 PUSH1 0x24 ADD PUSH1 0x20 PUSH1 0x40 MLOAD DUP1 DUP4 SUB DUP2 DUP7 GAS STATICCALL ISZERO DUP1 ISZERO PUSH3 0x74B JUMPI RETURNDATASIZE PUSH1 0x0 DUP1 RETURNDATACOPY RETURNDATASIZE PUSH1 0x0 REVERT JUMPDEST POP POP POP POP PUSH1 0x40 MLOAD RETURNDATASIZE PUSH1 0x1F NOT PUSH1 0x1F DUP3 ADD AND DUP3 ADD DUP1 PUSH1 0x40 MSTORE POP DUP2 ADD SWAP1 PUSH3 0x771 SWAP2 SWAP1 PUSH3 0xEC1 JUMP JUMPDEST ISZERO PUSH3 0x7E5 JUMPI PUSH1 0x0 DUP2 DUP2 SLOAD DUP2 LT PUSH3 0x78D JUMPI PUSH3 0x78D PUSH3 0xC92 JUMP JUMPDEST PUSH1 0x0 SWAP2 DUP3 MSTORE PUSH1 0x20 SWAP1 SWAP2 KECCAK256 ADD SLOAD PUSH1 0x1 PUSH1 0x1 PUSH1 0xA0 SHL SUB AND DUP4 DUP4 PUSH3 0x7AF DUP2 PUSH3 0xE61 JUMP JUMPDEST SWAP5 POP DUP2 MLOAD DUP2 LT PUSH3 0x7C4 JUMPI PUSH3 0x7C4 PUSH3 0xC92 JUMP JUMPDEST PUSH1 0x20 MUL PUSH1 0x20 ADD ADD SWAP1 PUSH1 0x1 PUSH1 0x1 PUSH1 0xA0 SHL SUB AND SWAP1 DUP2 PUSH1 0x1 PUSH1 0x1 PUSH1 0xA0 SHL SUB AND DUP2 MSTORE POP POP JUMPDEST DUP1 PUSH3 0x7F1 DUP2 PUSH3 0xE61 JUMP JUMPDEST SWAP2 POP POP PUSH3 0x6D7 JUMP JUMPDEST PUSH1 0x0 DUP2 DUP2 SLOAD DUP2 LT PUSH3 0x80B JUMPI PUSH1 0x0 DUP1 REVERT JUMPDEST PUSH1 0x0 SWAP2 DUP3 MSTORE PUSH1 0x20 SWAP1 SWAP2 KECCAK256 ADD SLOAD PUSH1 0x1 PUSH1 0x1 PUSH1 0xA0 SHL SUB AND SWAP1 POP DUP2 JUMP JUMPDEST PUSH1 0x60 PUSH1 0x0 DUP1 SLOAD DUP1 PUSH1 0x20 MUL PUSH1 0x20 ADD PUSH1 0x40 MLOAD SWAP1 DUP2 ADD PUSH1 0x40 MSTORE DUP1 SWAP3 SWAP2 SWAP1 DUP2 DUP2 MSTORE PUSH1 0x20 ADD DUP3 DUP1 SLOAD DUP1 ISZERO PUSH3 0x87F JUMPI PUSH1 0x20 MUL DUP3 ADD SWAP2 SWAP1 PUSH1 0x0 MSTORE PUSH1 0x20 PUSH1 0x0 KECCAK256 SWAP1 JUMPDEST DUP2 SLOAD PUSH1 0x1 PUSH1 0x1 PUSH1 0xA0 SHL SUB AND DUP2 MSTORE PUSH1 0x1 SWAP1 SWAP2 ADD SWAP1 PUSH1 0x20 ADD DUP1 DUP4 GT PUSH3 0x860 JUMPI JUMPDEST POP POP POP POP POP SWAP1 POP SWAP1 JUMP JUMPDEST PUSH2 0x212B DUP1 PUSH3 0xEDC DUP4 CODECOPY ADD SWAP1 JUMP JUMPDEST PUSH1 0x1 PUSH1 0x1 PUSH1 0xA0 SHL SUB DUP2 AND DUP2 EQ PUSH3 0x8AD JUMPI PUSH1 0x0 DUP1 REVERT JUMPDEST POP JUMP JUMPDEST DUP1 CALLDATALOAD PUSH3 0x8BD DUP2 PUSH3 0x897 JUMP JUMPDEST SWAP2 SWAP1 POP JUMP JUMPDEST PUSH1 0x0 PUSH1 0x20 DUP3 DUP5 SUB SLT ISZERO PUSH3 0x8D5 JUMPI PUSH1 0x0 DUP1 REVERT JUMPDEST DUP2 CALLDATALOAD PUSH3 0x8E2 DUP2 PUSH3 0x897 JUMP JUMPDEST SWAP4 SWAP3 POP POP POP JUMP JUMPDEST PUSH4 0x4E487B71 PUSH1 0xE0 SHL PUSH1 0x0 MSTORE PUSH1 0x41 PUSH1 0x4 MSTORE PUSH1 0x24 PUSH1 0x0 REVERT JUMPDEST PUSH1 0x40 MLOAD PUSH1 0x1F DUP3 ADD PUSH1 0x1F NOT AND DUP2 ADD PUSH8 0xFFFFFFFFFFFFFFFF DUP2 GT DUP3 DUP3 LT OR ISZERO PUSH3 0x92B JUMPI PUSH3 0x92B PUSH3 0x8E9 JUMP JUMPDEST PUSH1 0x40 MSTORE SWAP2 SWAP1 POP JUMP JUMPDEST PUSH1 0x0 PUSH8 0xFFFFFFFFFFFFFFFF DUP4 GT ISZERO PUSH3 0x950 JUMPI PUSH3 0x950 PUSH3 0x8E9 JUMP JUMPDEST PUSH3 0x965 PUSH1 0x1F DUP5 ADD PUSH1 0x1F NOT AND PUSH1 0x20 ADD PUSH3 0x8FF JUMP JUMPDEST SWAP1 POP DUP3 DUP2 MSTORE DUP4 DUP4 DUP4 ADD GT ISZERO PUSH3 0x97A JUMPI PUSH1 0x0 DUP1 REVERT JUMPDEST DUP3 DUP3 PUSH1 0x20 DUP4 ADD CALLDATACOPY PUSH1 0x0 PUSH1 0x20 DUP5 DUP4 ADD ADD MSTORE SWAP4 SWAP3 POP POP POP JUMP JUMPDEST DUP1 CALLDATALOAD DUP1 ISZERO ISZERO DUP2 EQ PUSH3 0x8BD JUMPI PUSH1 0x0 DUP1 REVERT JUMPDEST PUSH1 0x0 DUP3 PUSH1 0x1F DUP4 ADD SLT PUSH3 0x9B4 JUMPI PUSH1 0x0 DUP1 REVERT JUMPDEST PUSH1 0x40 MLOAD PUSH1 0x60 DUP2 ADD DUP2 DUP2 LT PUSH8 0xFFFFFFFFFFFFFFFF DUP3 GT OR ISZERO PUSH3 0x9DA JUMPI PUSH3 0x9DA PUSH3 0x8E9 JUMP JUMPDEST PUSH1 0x40 MSTORE DUP1 PUSH1 0x60 DUP5 ADD DUP6 DUP2 GT ISZERO PUSH3 0x9F0 JUMPI PUSH1 0x0 DUP1 REVERT JUMPDEST DUP5 JUMPDEST DUP2 DUP2 LT ISZERO PUSH3 0xA1D JUMPI DUP1 CALLDATALOAD PUSH1 0xFF DUP2 AND DUP2 EQ PUSH3 0xA0E JUMPI PUSH1 0x0 DUP1 DUP2 REVERT JUMPDEST DUP4 MSTORE PUSH1 0x20 SWAP3 DUP4 ADD SWAP3 ADD PUSH3 0x9F2 JUMP JUMPDEST POP SWAP2 SWAP6 SWAP5 POP POP POP POP POP JUMP JUMPDEST PUSH1 0x0 DUP3 PUSH1 0x1F DUP4 ADD SLT PUSH3 0xA3A JUMPI PUSH1 0x0 DUP1 REVERT JUMPDEST DUP2 CALLDATALOAD PUSH1 0x20 PUSH8 0xFFFFFFFFFFFFFFFF DUP3 GT ISZERO PUSH3 0xA59 JUMPI PUSH3 0xA59 PUSH3 0x8E9 JUMP JUMPDEST DUP2 PUSH1 0x5 SHL PUSH3 0xA6A DUP3 DUP3 ADD PUSH3 0x8FF JUMP JUMPDEST SWAP3 DUP4 MSTORE DUP5 DUP2 ADD DUP3 ADD SWAP3 DUP3 DUP2 ADD SWAP1 DUP8 DUP6 GT ISZERO PUSH3 0xA85 JUMPI PUSH1 0x0 DUP1 REVERT JUMPDEST DUP4 DUP8 ADD SWAP3 POP JUMPDEST DUP5 DUP4 LT ISZERO PUSH3 0xAB1 JUMPI DUP3 CALLDATALOAD PUSH3 0xAA1 DUP2 PUSH3 0x897 JUMP JUMPDEST DUP3 MSTORE SWAP2 DUP4 ADD SWAP2 SWAP1 DUP4 ADD SWAP1 PUSH3 0xA8B JUMP JUMPDEST SWAP8 SWAP7 POP POP POP POP POP POP POP JUMP JUMPDEST PUSH1 0x0 DUP3 PUSH1 0x1F DUP4 ADD SLT PUSH3 0xACE JUMPI PUSH1 0x0 DUP1 REVERT JUMPDEST PUSH3 0x8E2 DUP4 DUP4 CALLDATALOAD PUSH1 0x20 DUP6 ADD PUSH3 0x933 JUMP JUMPDEST PUSH1 0x0 DUP1 PUSH1 0x0 DUP1 PUSH1 0x0 DUP1 PUSH1 0x0 PUSH2 0x120 DUP9 DUP11 SUB SLT ISZERO PUSH3 0xAFC JUMPI PUSH1 0x0 DUP1 REVERT JUMPDEST DUP8 CALLDATALOAD PUSH8 0xFFFFFFFFFFFFFFFF DUP1 DUP3 GT ISZERO PUSH3 0xB15 JUMPI PUSH1 0x0 DUP1 REVERT JUMPDEST DUP2 DUP11 ADD SWAP2 POP DUP11 PUSH1 0x1F DUP4 ADD SLT PUSH3 0xB2A JUMPI PUSH1 0x0 DUP1 REVERT JUMPDEST PUSH3 0xB3B DUP12 DUP4 CALLDATALOAD PUSH1 0x20 DUP6 ADD PUSH3 0x933 JUMP JUMPDEST SWAP9 POP PUSH3 0xB4B PUSH1 0x20 DUP12 ADD PUSH3 0x991 JUMP JUMPDEST SWAP8 POP PUSH1 0x40 DUP11 ADD CALLDATALOAD SWAP7 POP PUSH3 0xB63 DUP12 PUSH1 0x60 DUP13 ADD PUSH3 0x9A2 JUMP JUMPDEST SWAP6 POP PUSH1 0xC0 DUP11 ADD CALLDATALOAD SWAP2 POP DUP1 DUP3 GT ISZERO PUSH3 0xB7A JUMPI PUSH1 0x0 DUP1 REVERT JUMPDEST PUSH3 0xB88 DUP12 DUP4 DUP13 ADD PUSH3 0xA28 JUMP JUMPDEST SWAP5 POP PUSH3 0xB98 PUSH1 0xE0 DUP12 ADD PUSH3 0x8B0 JUMP JUMPDEST SWAP4 POP PUSH2 0x100 DUP11 ADD CALLDATALOAD SWAP2 POP DUP1 DUP3 GT ISZERO PUSH3 0xBB0 JUMPI PUSH1 0x0 DUP1 REVERT JUMPDEST POP PUSH3 0xBBF DUP11 DUP3 DUP12 ADD PUSH3 0xABC JUMP JUMPDEST SWAP2 POP POP SWAP3 SWAP6 SWAP9 SWAP2 SWAP5 SWAP8 POP SWAP3 SWAP6 POP JUMP JUMPDEST PUSH1 0x0 DUP2 MLOAD DUP1 DUP5 MSTORE PUSH1 0x20 DUP1 DUP6 ADD SWAP5 POP DUP1 DUP5 ADD PUSH1 0x0 JUMPDEST DUP4 DUP2 LT ISZERO PUSH3 0xC09 JUMPI DUP2 MLOAD PUSH1 0x1 PUSH1 0x1 PUSH1 0xA0 SHL SUB AND DUP8 MSTORE SWAP6 DUP3 ADD SWAP6 SWAP1 DUP3 ADD SWAP1 PUSH1 0x1 ADD PUSH3 0xBE2 JUMP JUMPDEST POP SWAP5 SWAP6 SWAP5 POP POP POP POP POP JUMP JUMPDEST PUSH1 0x20 DUP2 MSTORE PUSH1 0x0 PUSH3 0x8E2 PUSH1 0x20 DUP4 ADD DUP5 PUSH3 0xBCE JUMP JUMPDEST PUSH1 0x0 PUSH1 0x20 DUP3 DUP5 SUB SLT ISZERO PUSH3 0xC3C JUMPI PUSH1 0x0 DUP1 REVERT JUMPDEST POP CALLDATALOAD SWAP2 SWAP1 POP JUMP JUMPDEST PUSH1 0x20 DUP1 DUP3 MSTORE DUP3 MLOAD DUP3 DUP3 ADD DUP2 SWAP1 MSTORE PUSH1 0x0 SWAP2 SWAP1 DUP5 DUP3 ADD SWAP1 PUSH1 0x40 DUP6 ADD SWAP1 DUP5 JUMPDEST DUP2 DUP2 LT ISZERO PUSH3 0xC86 JUMPI DUP4 MLOAD PUSH1 0x1 PUSH1 0x1 PUSH1 0xA0 SHL SUB AND DUP4 MSTORE SWAP3 DUP5 ADD SWAP3 SWAP2 DUP5 ADD SWAP2 PUSH1 0x1 ADD PUSH3 0xC5F JUMP JUMPDEST POP SWAP1 SWAP7 SWAP6 POP POP POP POP POP POP JUMP JUMPDEST PUSH4 0x4E487B71 PUSH1 0xE0 SHL PUSH1 0x0 MSTORE PUSH1 0x32 PUSH1 0x4 MSTORE PUSH1 0x24 PUSH1 0x0 REVERT JUMPDEST PUSH1 0x0 DUP2 MLOAD DUP1 DUP5 MSTORE PUSH1 0x0 JUMPDEST DUP2 DUP2 LT ISZERO PUSH3 0xCD0 JUMPI PUSH1 0x20 DUP2 DUP6 ADD DUP2 ADD MLOAD DUP7 DUP4 ADD DUP3 ADD MSTORE ADD PUSH3 0xCB2 JUMP JUMPDEST DUP2 DUP2 GT ISZERO PUSH3 0xCE3 JUMPI PUSH1 0x0 PUSH1 0x20 DUP4 DUP8 ADD ADD MSTORE JUMPDEST POP PUSH1 0x1F ADD PUSH1 0x1F NOT AND SWAP3 SWAP1 SWAP3 ADD PUSH1 0x20 ADD SWAP3 SWAP2 POP POP JUMP JUMPDEST PUSH1 0x0 PUSH2 0x120 DUP1 DUP4 MSTORE PUSH3 0xD0E DUP2 DUP5 ADD DUP14 PUSH3 0xCA8 JUMP JUMPDEST DUP12 ISZERO ISZERO PUSH1 0x20 DUP6 ADD MSTORE PUSH1 0x40 DUP5 ADD DUP12 SWAP1 MSTORE PUSH1 0xFF DUP11 DUP2 AND PUSH1 0x60 DUP7 ADD MSTORE DUP10 DUP2 AND PUSH1 0x80 DUP7 ADD MSTORE DUP9 AND PUSH1 0xA0 DUP6 ADD MSTORE PUSH1 0x1 PUSH1 0x1 PUSH1 0xA0 SHL SUB DUP8 DUP2 AND PUSH1 0xC0 DUP7 ADD MSTORE DUP7 AND PUSH1 0xE0 DUP6 ADD MSTORE DUP4 DUP2 SUB PUSH2 0x100 DUP6 ADD MSTORE SWAP1 POP PUSH3 0xD64 DUP2 DUP6 PUSH3 0xCA8 JUMP JUMPDEST SWAP13 SWAP12 POP POP POP POP POP POP POP POP POP POP POP POP JUMP JUMPDEST PUSH1 0x0 PUSH1 0x20 DUP3 DUP5 SUB SLT ISZERO PUSH3 0xD87 JUMPI PUSH1 0x0 DUP1 REVERT JUMPDEST DUP2 MLOAD PUSH3 0x8E2 DUP2 PUSH3 0x897 JUMP JUMPDEST DUP1 PUSH1 0x0 JUMPDEST PUSH1 0x4 DUP2 LT ISZERO PUSH3 0xDC2 JUMPI DUP2 MLOAD PUSH1 0x1 PUSH1 0x1 PUSH1 0xA0 SHL SUB AND DUP5 MSTORE PUSH1 0x20 SWAP4 DUP5 ADD SWAP4 SWAP1 SWAP2 ADD SWAP1 PUSH1 0x1 ADD PUSH3 0xD98 JUMP JUMPDEST POP POP POP POP JUMP JUMPDEST PUSH1 0x1 PUSH1 0x1 PUSH1 0xA0 SHL SUB DUP9 AND DUP2 MSTORE PUSH2 0x180 PUSH1 0x20 DUP1 DUP4 ADD DUP3 SWAP1 MSTORE PUSH1 0x0 SWAP2 SWAP1 PUSH3 0xDF1 DUP5 DUP4 ADD DUP12 PUSH3 0xCA8 JUMP JUMPDEST SWAP2 POP DUP9 ISZERO ISZERO PUSH1 0x40 DUP6 ADD MSTORE DUP8 PUSH1 0x60 DUP6 ADD MSTORE PUSH1 0x80 DUP5 ADD DUP8 PUSH1 0x0 JUMPDEST PUSH1 0x3 DUP2 LT ISZERO PUSH3 0xE2B JUMPI DUP2 MLOAD PUSH1 0xFF AND DUP4 MSTORE SWAP2 DUP4 ADD SWAP2 SWAP1 DUP4 ADD SWAP1 PUSH1 0x1 ADD PUSH3 0xE09 JUMP JUMPDEST POP POP POP POP PUSH3 0xE3E PUSH1 0xE0 DUP5 ADD DUP7 PUSH3 0xD94 JUMP JUMPDEST DUP3 DUP2 SUB PUSH2 0x160 DUP5 ADD MSTORE PUSH3 0xE53 DUP2 DUP6 PUSH3 0xBCE JUMP JUMPDEST SWAP11 SWAP10 POP POP POP POP POP POP POP POP POP POP JUMP JUMPDEST PUSH1 0x0 PUSH1 0x0 NOT DUP3 EQ ISZERO PUSH3 0xE84 JUMPI PUSH4 0x4E487B71 PUSH1 0xE0 SHL PUSH1 0x0 MSTORE PUSH1 0x11 PUSH1 0x4 MSTORE PUSH1 0x24 PUSH1 0x0 REVERT JUMPDEST POP PUSH1 0x1 ADD SWAP1 JUMP JUMPDEST PUSH1 0x1 PUSH1 0x1 PUSH1 0xA0 SHL SUB DUP5 AND DUP2 MSTORE PUSH1 0x60 PUSH1 0x20 DUP3 ADD DUP2 SWAP1 MSTORE PUSH1 0x0 SWAP1 PUSH3 0xEB1 SWAP1 DUP4 ADD DUP6 PUSH3 0xCA8 JUMP JUMPDEST SWAP1 POP DUP3 PUSH1 0x40 DUP4 ADD MSTORE SWAP5 SWAP4 POP POP POP POP JUMP JUMPDEST PUSH1 0x0 PUSH1 0x20 DUP3 DUP5 SUB SLT ISZERO PUSH3 0xED4 JUMPI PUSH1 0x0 DUP1 REVERT JUMPDEST POP MLOAD SWAP2 SWAP1 POP JUMP INVALID PUSH1 0x80 PUSH1 0x40 MSTORE CALLVALUE DUP1 ISZERO PUSH3 0x11 JUMPI PUSH1 0x0 DUP1 REVERT JUMPDEST POP PUSH1 0x40 MLOAD PUSH3 0x212B CODESIZE SUB DUP1 PUSH3 0x212B DUP4 CODECOPY DUP2 ADD PUSH1 0x40 DUP2 SWAP1 MSTORE PUSH3 0x34 SWAP2 PUSH3 0x387 JUMP JUMPDEST PUSH1 0x0 DUP1 DUP4 PUSH1 0x2 PUSH1 0x20 MUL ADD MLOAD PUSH1 0x1 PUSH1 0x1 PUSH1 0xA0 SHL SUB AND DUP10 DUP10 DUP10 DUP10 DUP10 PUSH1 0x40 MLOAD DUP1 PUSH1 0x60 ADD PUSH1 0x40 MSTORE DUP1 DUP12 PUSH1 0x0 PUSH1 0x4 DUP2 LT PUSH3 0x6E JUMPI PUSH3 0x6E PUSH3 0x4A6 JUMP JUMPDEST PUSH1 0x20 SWAP1 DUP2 MUL SWAP2 SWAP1 SWAP2 ADD MLOAD PUSH1 0x1 PUSH1 0x1 PUSH1 0xA0 SHL SUB SWAP1 DUP2 AND DUP4 MSTORE DUP14 DUP3 ADD MLOAD DUP2 AND SWAP2 DUP4 ADD SWAP2 SWAP1 SWAP2 MSTORE PUSH1 0x60 DUP14 ADD MLOAD AND PUSH1 0x40 SWAP2 DUP3 ADD MSTORE MLOAD PUSH3 0xB5 SWAP7 SWAP6 SWAP5 SWAP4 SWAP3 SWAP2 SWAP1 DUP12 SWAP1 PUSH1 0x24 ADD PUSH3 0x530 JUMP JUMPDEST PUSH1 0x40 DUP1 MLOAD PUSH1 0x1F NOT DUP2 DUP5 SUB ADD DUP2 MSTORE SWAP2 DUP2 MSTORE PUSH1 0x20 DUP3 ADD DUP1 MLOAD PUSH1 0x1 PUSH1 0x1 PUSH1 0xE0 SHL SUB AND PUSH4 0xE68EA1FD PUSH1 0xE0 SHL OR SWAP1 MSTORE MLOAD PUSH3 0xEC SWAP2 SWAP1 PUSH3 0x5E5 JUMP JUMPDEST PUSH1 0x0 PUSH1 0x40 MLOAD DUP1 DUP4 SUB DUP2 DUP6 GAS DELEGATECALL SWAP2 POP POP RETURNDATASIZE DUP1 PUSH1 0x0 DUP2 EQ PUSH3 0x129 JUMPI PUSH1 0x40 MLOAD SWAP2 POP PUSH1 0x1F NOT PUSH1 0x3F RETURNDATASIZE ADD AND DUP3 ADD PUSH1 0x40 MSTORE RETURNDATASIZE DUP3 MSTORE RETURNDATASIZE PUSH1 0x0 PUSH1 0x20 DUP5 ADD RETURNDATACOPY PUSH3 0x12E JUMP JUMPDEST PUSH1 0x60 SWAP2 POP JUMPDEST POP SWAP2 POP SWAP2 POP DUP2 PUSH3 0x146 JUMPI PUSH1 0x40 MLOAD RETURNDATASIZE DUP1 PUSH1 0x0 DUP4 RETURNDATACOPY DUP1 DUP3 REVERT JUMPDEST POP POP POP POP POP POP POP POP POP PUSH3 0x603 JUMP JUMPDEST DUP1 MLOAD PUSH1 0x1 PUSH1 0x1 PUSH1 0xA0 SHL SUB DUP2 AND DUP2 EQ PUSH3 0x16D JUMPI PUSH1 0x0 DUP1 REVERT JUMPDEST SWAP2 SWAP1 POP JUMP JUMPDEST PUSH4 0x4E487B71 PUSH1 0xE0 SHL PUSH1 0x0 MSTORE PUSH1 0x41 PUSH1 0x4 MSTORE PUSH1 0x24 PUSH1 0x0 REVERT JUMPDEST PUSH1 0x40 MLOAD PUSH1 0x1F DUP3 ADD PUSH1 0x1F NOT AND DUP2 ADD PUSH1 0x1 PUSH1 0x1 PUSH1 0x40 SHL SUB DUP2 GT DUP3 DUP3 LT OR ISZERO PUSH3 0x1B3 JUMPI PUSH3 0x1B3 PUSH3 0x172 JUMP JUMPDEST PUSH1 0x40 MSTORE SWAP2 SWAP1 POP JUMP JUMPDEST PUSH1 0x0 JUMPDEST DUP4 DUP2 LT ISZERO PUSH3 0x1D8 JUMPI DUP2 DUP2 ADD MLOAD DUP4 DUP3 ADD MSTORE PUSH1 0x20 ADD PUSH3 0x1BE JUMP JUMPDEST DUP4 DUP2 GT ISZERO PUSH3 0x1E8 JUMPI PUSH1 0x0 DUP5 DUP5 ADD MSTORE JUMPDEST POP POP POP POP JUMP JUMPDEST DUP1 MLOAD DUP1 ISZERO ISZERO DUP2 EQ PUSH3 0x16D JUMPI PUSH1 0x0 DUP1 REVERT JUMPDEST PUSH1 0x0 DUP3 PUSH1 0x1F DUP4 ADD SLT PUSH3 0x211 JUMPI PUSH1 0x0 DUP1 REVERT JUMPDEST PUSH1 0x40 MLOAD PUSH1 0x60 DUP2 ADD PUSH1 0x1 PUSH1 0x1 PUSH1 0x40 SHL SUB DUP2 GT DUP3 DUP3 LT OR ISZERO PUSH3 0x236 JUMPI PUSH3 0x236 PUSH3 0x172 JUMP JUMPDEST PUSH1 0x40 MSTORE DUP1 PUSH1 0x60 DUP5 ADD DUP6 DUP2 GT ISZERO PUSH3 0x24C JUMPI PUSH1 0x0 DUP1 REVERT JUMPDEST DUP5 JUMPDEST DUP2 DUP2 LT ISZERO PUSH3 0x279 JUMPI DUP1 MLOAD PUSH1 0xFF DUP2 AND DUP2 EQ PUSH3 0x26A JUMPI PUSH1 0x0 DUP1 DUP2 REVERT JUMPDEST DUP4 MSTORE PUSH1 0x20 SWAP3 DUP4 ADD SWAP3 ADD PUSH3 0x24E JUMP JUMPDEST POP SWAP2 SWAP6 SWAP5 POP POP POP POP POP JUMP JUMPDEST PUSH1 0x0 DUP3 PUSH1 0x1F DUP4 ADD SLT PUSH3 0x296 JUMPI PUSH1 0x0 DUP1 REVERT JUMPDEST PUSH1 0x40 MLOAD PUSH1 0x80 DUP2 ADD PUSH1 0x1 PUSH1 0x1 PUSH1 0x40 SHL SUB DUP2 GT DUP3 DUP3 LT OR ISZERO PUSH3 0x2BB JUMPI PUSH3 0x2BB PUSH3 0x172 JUMP JUMPDEST PUSH1 0x40 MSTORE DUP1 PUSH1 0x80 DUP5 ADD DUP6 DUP2 GT ISZERO PUSH3 0x2D1 JUMPI PUSH1 0x0 DUP1 REVERT JUMPDEST DUP5 JUMPDEST DUP2 DUP2 LT ISZERO PUSH3 0x279 JUMPI PUSH3 0x2E7 DUP2 PUSH3 0x155 JUMP JUMPDEST DUP4 MSTORE PUSH1 0x20 SWAP3 DUP4 ADD SWAP3 ADD PUSH3 0x2D3 JUMP JUMPDEST PUSH1 0x0 DUP3 PUSH1 0x1F DUP4 ADD SLT PUSH3 0x308 JUMPI PUSH1 0x0 DUP1 REVERT JUMPDEST DUP2 MLOAD PUSH1 0x20 PUSH1 0x1 PUSH1 0x1 PUSH1 0x40 SHL SUB DUP3 GT ISZERO PUSH3 0x326 JUMPI PUSH3 0x326 PUSH3 0x172 JUMP JUMPDEST DUP2 PUSH1 0x5 SHL PUSH3 0x337 DUP3 DUP3 ADD PUSH3 0x188 JUMP JUMPDEST SWAP3 DUP4 MSTORE DUP5 DUP2 ADD DUP3 ADD SWAP3 DUP3 DUP2 ADD SWAP1 DUP8 DUP6 GT ISZERO PUSH3 0x352 JUMPI PUSH1 0x0 DUP1 REVERT JUMPDEST DUP4 DUP8 ADD SWAP3 POP JUMPDEST DUP5 DUP4 LT ISZERO PUSH3 0x37C JUMPI PUSH3 0x36C DUP4 PUSH3 0x155 JUMP JUMPDEST DUP3 MSTORE SWAP2 DUP4 ADD SWAP2 SWAP1 DUP4 ADD SWAP1 PUSH3 0x358 JUMP JUMPDEST SWAP8 SWAP7 POP POP POP POP POP POP POP JUMP JUMPDEST PUSH1 0x0 DUP1 PUSH1 0x0 DUP1 PUSH1 0x0 DUP1 PUSH1 0x0 PUSH2 0x180 DUP9 DUP11 SUB SLT ISZERO PUSH3 0x3A4 JUMPI PUSH1 0x0 DUP1 REVERT JUMPDEST PUSH3 0x3AF DUP9 PUSH3 0x155 JUMP JUMPDEST PUSH1 0x20 DUP10 ADD MLOAD SWAP1 SWAP8 POP PUSH1 0x1 PUSH1 0x1 PUSH1 0x40 SHL SUB DUP1 DUP3 GT ISZERO PUSH3 0x3CD JUMPI PUSH1 0x0 DUP1 REVERT JUMPDEST DUP2 DUP11 ADD SWAP2 POP DUP11 PUSH1 0x1F DUP4 ADD SLT PUSH3 0x3E2 JUMPI PUSH1 0x0 DUP1 REVERT JUMPDEST DUP2 MLOAD DUP2 DUP2 GT ISZERO PUSH3 0x3F7 JUMPI PUSH3 0x3F7 PUSH3 0x172 JUMP JUMPDEST PUSH3 0x40C PUSH1 0x1F DUP3 ADD PUSH1 0x1F NOT AND PUSH1 0x20 ADD PUSH3 0x188 JUMP JUMPDEST DUP2 DUP2 MSTORE DUP13 PUSH1 0x20 DUP4 DUP7 ADD ADD GT ISZERO PUSH3 0x422 JUMPI PUSH1 0x0 DUP1 REVERT JUMPDEST PUSH3 0x435 DUP3 PUSH1 0x20 DUP4 ADD PUSH1 0x20 DUP8 ADD PUSH3 0x1BB JUMP JUMPDEST SWAP9 POP PUSH3 0x447 SWAP1 POP PUSH1 0x40 DUP12 ADD PUSH3 0x1EE JUMP JUMPDEST SWAP7 POP PUSH1 0x60 DUP11 ADD MLOAD SWAP6 POP PUSH3 0x45F DUP12 PUSH1 0x80 DUP13 ADD PUSH3 0x1FF JUMP JUMPDEST SWAP5 POP PUSH3 0x470 DUP12 PUSH1 0xE0 DUP13 ADD PUSH3 0x284 JUMP JUMPDEST SWAP4 POP PUSH2 0x160 DUP11 ADD MLOAD SWAP2 POP DUP1 DUP3 GT ISZERO PUSH3 0x488 JUMPI PUSH1 0x0 DUP1 REVERT JUMPDEST POP PUSH3 0x497 DUP11 DUP3 DUP12 ADD PUSH3 0x2F6 JUMP JUMPDEST SWAP2 POP POP SWAP3 SWAP6 SWAP9 SWAP2 SWAP5 SWAP8 POP SWAP3 SWAP6 POP JUMP JUMPDEST PUSH4 0x4E487B71 PUSH1 0xE0 SHL PUSH1 0x0 MSTORE PUSH1 0x32 PUSH1 0x4 MSTORE PUSH1 0x24 PUSH1 0x0 REVERT JUMPDEST DUP1 PUSH1 0x0 JUMPDEST PUSH1 0x3 DUP2 LT ISZERO PUSH3 0x1E8 JUMPI DUP2 MLOAD PUSH1 0x1 PUSH1 0x1 PUSH1 0xA0 SHL SUB AND DUP5 MSTORE PUSH1 0x20 SWAP4 DUP5 ADD SWAP4 SWAP1 SWAP2 ADD SWAP1 PUSH1 0x1 ADD PUSH3 0x4C0 JUMP JUMPDEST PUSH1 0x0 DUP2 MLOAD DUP1 DUP5 MSTORE PUSH1 0x20 DUP1 DUP6 ADD SWAP5 POP DUP1 DUP5 ADD PUSH1 0x0 JUMPDEST DUP4 DUP2 LT ISZERO PUSH3 0x525 JUMPI DUP2 MLOAD PUSH1 0x1 PUSH1 0x1 PUSH1 0xA0 SHL SUB AND DUP8 MSTORE SWAP6 DUP3 ADD SWAP6 SWAP1 DUP3 ADD SWAP1 PUSH1 0x1 ADD PUSH3 0x4FE JUMP JUMPDEST POP SWAP5 SWAP6 SWAP5 POP POP POP POP POP JUMP JUMPDEST PUSH1 0x1 PUSH1 0x1 PUSH1 0xA0 SHL SUB DUP9 AND DUP2 MSTORE PUSH2 0x160 PUSH1 0x20 DUP1 DUP4 ADD DUP3 SWAP1 MSTORE DUP9 MLOAD SWAP2 DUP4 ADD DUP3 SWAP1 MSTORE PUSH1 0x0 SWAP2 PUSH2 0x180 SWAP2 SWAP1 PUSH3 0x568 DUP2 DUP5 DUP8 ADD DUP14 DUP6 ADD PUSH3 0x1BB JUMP JUMPDEST DUP10 ISZERO ISZERO PUSH1 0x40 DUP7 ADD MSTORE PUSH1 0x60 DUP6 ADD DUP10 SWAP1 MSTORE PUSH1 0x1F ADD PUSH1 0x1F NOT AND DUP5 ADD PUSH1 0x80 DUP6 ADD DUP9 PUSH1 0x0 JUMPDEST PUSH1 0x3 DUP2 LT ISZERO PUSH3 0x5AA JUMPI DUP2 MLOAD PUSH1 0xFF AND DUP4 MSTORE SWAP2 DUP5 ADD SWAP2 SWAP1 DUP5 ADD SWAP1 PUSH1 0x1 ADD PUSH3 0x588 JUMP JUMPDEST POP POP POP PUSH3 0x5BC PUSH1 0xE0 DUP7 ADD DUP9 PUSH3 0x4BC JUMP JUMPDEST DUP3 DUP6 DUP3 SUB ADD PUSH2 0x140 DUP7 ADD MSTORE PUSH3 0x5D5 DUP4 DUP3 ADD DUP8 PUSH3 0x4EA JUMP JUMPDEST SWAP13 SWAP12 POP POP POP POP POP POP POP POP POP POP POP POP JUMP JUMPDEST PUSH1 0x0 DUP3 MLOAD PUSH3 0x5F9 DUP2 DUP5 PUSH1 0x20 DUP8 ADD PUSH3 0x1BB JUMP JUMPDEST SWAP2 SWAP1 SWAP2 ADD SWAP3 SWAP2 POP POP JUMP JUMPDEST PUSH2 0x1B18 DUP1 PUSH3 0x613 PUSH1 0x0 CODECOPY PUSH1 0x0 RETURN INVALID PUSH1 0x80 PUSH1 0x40 MSTORE CALLVALUE DUP1 ISZERO PUSH2 0x10 JUMPI PUSH1 0x0 DUP1 REVERT JUMPDEST POP PUSH1 0x4 CALLDATASIZE LT PUSH2 0x206 JUMPI PUSH1 0x0 CALLDATALOAD PUSH1 0xE0 SHR DUP1 PUSH4 0x824C88DA GT PUSH2 0x11A JUMPI DUP1 PUSH4 0xBAA4D5E9 GT PUSH2 0xAD JUMPI DUP1 PUSH4 0xCB85669C GT PUSH2 0x7C JUMPI DUP1 PUSH4 0xCB85669C EQ PUSH2 0x50E JUMPI DUP1 PUSH4 0xDA9BCA21 EQ PUSH2 0x536 JUMPI DUP1 PUSH4 0xDE5AB14E EQ PUSH2 0x543 JUMPI DUP1 PUSH4 0xF00D6274 EQ PUSH2 0x556 JUMPI DUP1 PUSH4 0xF65BBCDE EQ PUSH2 0x56C JUMPI PUSH1 0x0 DUP1 REVERT JUMPDEST DUP1 PUSH4 0xBAA4D5E9 EQ PUSH2 0x461 JUMPI DUP1 PUSH4 0xBB3A9065 EQ PUSH2 0x4A7 JUMPI DUP1 PUSH4 0xC2B3AA08 EQ PUSH2 0x4C9 JUMPI DUP1 PUSH4 0xC347D2FD EQ PUSH2 0x4EC JUMPI PUSH1 0x0 DUP1 REVERT JUMPDEST DUP1 PUSH4 0x99DB7FB3 GT PUSH2 0xE9 JUMPI DUP1 PUSH4 0x99DB7FB3 EQ PUSH2 0x407 JUMPI DUP1 PUSH4 0x9C630A88 EQ PUSH2 0x427 JUMPI DUP1 PUSH4 0xA19A5F50 EQ PUSH2 0x43A JUMPI DUP1 PUSH4 0xAB44997B EQ PUSH2 0x44D JUMPI PUSH1 0x0 DUP1 REVERT JUMPDEST DUP1 PUSH4 0x824C88DA EQ PUSH2 0x3B6 JUMPI DUP1 PUSH4 0x8532CBF7 EQ PUSH2 0x3BE JUMPI DUP1 PUSH4 0x8668EAFC EQ PUSH2 0x3E2 JUMPI DUP1 PUSH4 0x9360BFAD EQ PUSH2 0x3F4 JUMPI PUSH1 0x0 DUP1 REVERT JUMPDEST DUP1 PUSH4 0x2266E1BC GT PUSH2 0x19D JUMPI DUP1 PUSH4 0x5F3D99B3 GT PUSH2 0x16C JUMPI DUP1 PUSH4 0x5F3D99B3 EQ PUSH2 0x347 JUMPI DUP1 PUSH4 0x6C2F34E7 EQ PUSH2 0x368 JUMPI DUP1 PUSH4 0x70ACB761 EQ PUSH2 0x37B JUMPI DUP1 PUSH4 0x7C638548 EQ PUSH2 0x38E JUMPI DUP1 PUSH4 0x81CF22D8 EQ PUSH2 0x3A1 JUMPI PUSH1 0x0 DUP1 REVERT JUMPDEST DUP1 PUSH4 0x2266E1BC EQ PUSH2 0x2F9 JUMPI DUP1 PUSH4 0x34B8BB6C EQ PUSH2 0x30C JUMPI DUP1 PUSH4 0x3A70693D EQ PUSH2 0x31F JUMPI DUP1 PUSH4 0x59CA2D03 EQ PUSH2 0x332 JUMPI PUSH1 0x0 DUP1 REVERT JUMPDEST DUP1 PUSH4 0x152DE3B9 GT PUSH2 0x1D9 JUMPI DUP1 PUSH4 0x152DE3B9 EQ PUSH2 0x2A3 JUMPI DUP1 PUSH4 0x16E58A2F EQ PUSH2 0x2B6 JUMPI DUP1 PUSH4 0x1D5FD3CA EQ PUSH2 0x2DD JUMPI DUP1 PUSH4 0x1F50DD27 EQ PUSH2 0x2E6 JUMPI PUSH1 0x0 DUP1 REVERT JUMPDEST DUP1 PUSH4 0x4F17A9B EQ PUSH2 0x20B JUMPI DUP1 PUSH4 0x52F9B0A EQ PUSH2 0x231 JUMPI DUP1 PUSH4 0x5FE6663 EQ PUSH2 0x25C JUMPI DUP1 PUSH4 0x9C57DF7 EQ PUSH2 0x283 JUMPI JUMPDEST PUSH1 0x0 DUP1 REVERT JUMPDEST PUSH2 0x21E PUSH2 0x219 CALLDATASIZE PUSH1 0x4 PUSH2 0x126B JUMP JUMPDEST PUSH2 0x57F JUMP JUMPDEST PUSH1 0x40 MLOAD SWAP1 DUP2 MSTORE PUSH1 0x20 ADD JUMPDEST PUSH1 0x40 MLOAD DUP1 SWAP2 SUB SWAP1 RETURN JUMPDEST PUSH1 0x7 SLOAD PUSH2 0x244 SWAP1 PUSH1 0x1 PUSH1 0x1 PUSH1 0xA0 SHL SUB AND DUP2 JUMP JUMPDEST PUSH1 0x40 MLOAD PUSH1 0x1 PUSH1 0x1 PUSH1 0xA0 SHL SUB SWAP1 SWAP2 AND DUP2 MSTORE PUSH1 0x20 ADD PUSH2 0x228 JUMP JUMPDEST PUSH1 0x1 SLOAD PUSH2 0x271 SWAP1 PUSH5 0x100000000 SWAP1 DIV PUSH1 0xFF AND DUP2 JUMP JUMPDEST PUSH1 0x40 MLOAD PUSH1 0xFF SWAP1 SWAP2 AND DUP2 MSTORE PUSH1 0x20 ADD PUSH2 0x228 JUMP JUMPDEST PUSH2 0x21E PUSH2 0x291 CALLDATASIZE PUSH1 0x4 PUSH2 0x12CA JUMP JUMPDEST PUSH1 0xA PUSH1 0x20 MSTORE PUSH1 0x0 SWAP1 DUP2 MSTORE PUSH1 0x40 SWAP1 KECCAK256 SLOAD DUP2 JUMP JUMPDEST PUSH2 0x21E PUSH2 0x2B1 CALLDATASIZE PUSH1 0x4 PUSH2 0x12EC JUMP JUMPDEST PUSH2 0x63A JUMP JUMPDEST PUSH2 0x21E PUSH32 0x29DB90F499FC17D858ADF930FEC9986F376F0BA9B76D35B25F1DB7AFB7F4B60C DUP2 JUMP JUMPDEST PUSH2 0x21E PUSH1 0x4 SLOAD DUP2 JUMP JUMPDEST PUSH1 0x8 SLOAD PUSH2 0x244 SWAP1 PUSH1 0x1 PUSH1 0x1 PUSH1 0xA0 SHL SUB AND DUP2 JUMP JUMPDEST PUSH2 0x21E PUSH2 0x307 CALLDATASIZE PUSH1 0x4 PUSH2 0x126B JUMP JUMPDEST PUSH2 0x69C JUMP JUMPDEST PUSH2 0x21E PUSH2 0x31A CALLDATASIZE PUSH1 0x4 PUSH2 0x136C JUMP JUMPDEST PUSH2 0x6FC JUMP JUMPDEST PUSH2 0x271 PUSH2 0x32D CALLDATASIZE PUSH1 0x4 PUSH2 0x141E JUMP JUMPDEST PUSH2 0x7C6 JUMP JUMPDEST PUSH2 0x33A PUSH2 0x7EA JUMP JUMPDEST PUSH1 0x40 MLOAD PUSH2 0x228 SWAP2 SWAP1 PUSH2 0x148F JUMP JUMPDEST PUSH2 0x35A PUSH2 0x355 CALLDATASIZE PUSH1 0x4 PUSH2 0x141E JUMP JUMPDEST PUSH2 0x878 JUMP JUMPDEST PUSH1 0x40 MLOAD PUSH2 0x228 SWAP3 SWAP2 SWAP1 PUSH2 0x14A2 JUMP JUMPDEST PUSH1 0x5 SLOAD PUSH2 0x244 SWAP1 PUSH1 0x1 PUSH1 0x1 PUSH1 0xA0 SHL SUB AND DUP2 JUMP JUMPDEST PUSH2 0x21E PUSH2 0x389 CALLDATASIZE PUSH1 0x4 PUSH2 0x14C5 JUMP JUMPDEST PUSH2 0x96D JUMP JUMPDEST PUSH2 0x21E PUSH2 0x39C CALLDATASIZE PUSH1 0x4 PUSH2 0x126B JUMP JUMPDEST PUSH2 0xA2E JUMP JUMPDEST PUSH2 0x3B4 PUSH2 0x3AF CALLDATASIZE PUSH1 0x4 PUSH2 0x1524 JUMP JUMPDEST PUSH2 0xAF2 JUMP JUMPDEST STOP JUMPDEST PUSH1 0x10 SLOAD PUSH2 0x21E JUMP JUMPDEST PUSH2 0x3D1 PUSH2 0x3CC CALLDATASIZE PUSH1 0x4 PUSH2 0x141E JUMP JUMPDEST PUSH2 0xBB9 JUMP JUMPDEST PUSH1 0x40 MLOAD PUSH2 0x228 SWAP6 SWAP5 SWAP4 SWAP3 SWAP2 SWAP1 PUSH2 0x1572 JUMP JUMPDEST PUSH1 0x1 SLOAD PUSH2 0x271 SWAP1 PUSH2 0x100 SWAP1 DIV PUSH1 0xFF AND DUP2 JUMP JUMPDEST PUSH1 0x6 SLOAD PUSH2 0x244 SWAP1 PUSH1 0x1 PUSH1 0x1 PUSH1 0xA0 SHL SUB AND DUP2 JUMP JUMPDEST PUSH2 0x21E PUSH2 0x415 CALLDATASIZE PUSH1 0x4 PUSH2 0x12CA JUMP JUMPDEST PUSH1 0x9 PUSH1 0x20 MSTORE PUSH1 0x0 SWAP1 DUP2 MSTORE PUSH1 0x40 SWAP1 KECCAK256 SLOAD DUP2 JUMP JUMPDEST PUSH1 0x1 SLOAD PUSH2 0x271 SWAP1 PUSH3 0x10000 SWAP1 DIV PUSH1 0xFF AND DUP2 JUMP JUMPDEST PUSH2 0x21E PUSH2 0x448 CALLDATASIZE PUSH1 0x4 PUSH2 0x15B5 JUMP JUMPDEST PUSH2 0xC94 JUMP JUMPDEST PUSH1 0x1 SLOAD PUSH2 0x271 SWAP1 PUSH4 0x1000000 SWAP1 DIV PUSH1 0xFF AND DUP2 JUMP JUMPDEST PUSH2 0x474 PUSH2 0x46F CALLDATASIZE PUSH1 0x4 PUSH2 0x141E JUMP JUMPDEST PUSH2 0xCF2 JUMP JUMPDEST PUSH1 0x40 DUP1 MLOAD PUSH1 0x1 PUSH1 0x1 PUSH1 0xA0 SHL SUB SWAP6 DUP7 AND DUP2 MSTORE PUSH1 0x20 DUP2 ADD SWAP5 SWAP1 SWAP5 MSTORE SWAP2 DUP5 AND SWAP2 DUP4 ADD SWAP2 SWAP1 SWAP2 MSTORE SWAP1 SWAP2 AND PUSH1 0x60 DUP3 ADD MSTORE PUSH1 0x80 ADD PUSH2 0x228 JUMP JUMPDEST PUSH2 0x4BA PUSH2 0x4B5 CALLDATASIZE PUSH1 0x4 PUSH2 0x141E JUMP JUMPDEST PUSH2 0xD3A JUMP JUMPDEST PUSH1 0x40 MLOAD PUSH2 0x228 SWAP4 SWAP3 SWAP2 SWAP1 PUSH2 0x163D JUMP JUMPDEST PUSH2 0x4DC PUSH2 0x4D7 CALLDATASIZE PUSH1 0x4 PUSH2 0x1673 JUMP JUMPDEST PUSH2 0xE05 JUMP JUMPDEST PUSH1 0x40 MLOAD SWAP1 ISZERO ISZERO DUP2 MSTORE PUSH1 0x20 ADD PUSH2 0x228 JUMP JUMPDEST PUSH2 0x4FF PUSH2 0x4FA CALLDATASIZE PUSH1 0x4 PUSH2 0x16F1 JUMP JUMPDEST PUSH2 0xEC9 JUMP JUMPDEST PUSH1 0x40 MLOAD PUSH2 0x228 SWAP4 SWAP3 SWAP2 SWAP1 PUSH2 0x171D JUMP JUMPDEST PUSH2 0x521 PUSH2 0x51C CALLDATASIZE PUSH1 0x4 PUSH2 0x141E JUMP JUMPDEST PUSH2 0xF86 JUMP JUMPDEST PUSH1 0x40 MLOAD PUSH2 0x228 SWAP10 SWAP9 SWAP8 SWAP7 SWAP6 SWAP5 SWAP4 SWAP3 SWAP2 SWAP1 PUSH2 0x1749 JUMP JUMPDEST PUSH1 0x1 SLOAD PUSH2 0x271 SWAP1 PUSH1 0xFF AND DUP2 JUMP JUMPDEST PUSH2 0x21E PUSH2 0x551 CALLDATASIZE PUSH1 0x4 PUSH2 0x17D6 JUMP JUMPDEST PUSH2 0x1085 JUMP JUMPDEST PUSH1 0x1 SLOAD PUSH2 0x4DC SWAP1 PUSH6 0x10000000000 SWAP1 DIV PUSH1 0xFF AND DUP2 JUMP JUMPDEST PUSH2 0x21E PUSH2 0x57A CALLDATASIZE PUSH1 0x4 PUSH2 0x1828 JUMP JUMPDEST PUSH2 0x114C JUMP JUMPDEST PUSH1 0x2 SLOAD PUSH1 0x40 MLOAD PUSH1 0x0 SWAP2 DUP3 SWAP2 DUP3 SWAP2 PUSH1 0x1 PUSH1 0x1 PUSH1 0xA0 SHL SUB AND SWAP1 PUSH2 0x5AA SWAP1 DUP10 SWAP1 DUP10 SWAP1 DUP10 SWAP1 DUP10 SWAP1 PUSH1 0x24 ADD PUSH2 0x188D JUMP JUMPDEST PUSH1 0x40 DUP1 MLOAD PUSH1 0x1F NOT DUP2 DUP5 SUB ADD DUP2 MSTORE SWAP2 DUP2 MSTORE PUSH1 0x20 DUP3 ADD DUP1 MLOAD PUSH1 0x1 PUSH1 0x1 PUSH1 0xE0 SHL SUB AND PUSH4 0x4F17A9B PUSH1 0xE0 SHL OR SWAP1 MSTORE MLOAD PUSH2 0x5DF SWAP2 SWAP1 PUSH2 0x18C5 JUMP JUMPDEST PUSH1 0x0 PUSH1 0x40 MLOAD DUP1 DUP4 SUB DUP2 DUP6 GAS DELEGATECALL SWAP2 POP POP RETURNDATASIZE DUP1 PUSH1 0x0 DUP2 EQ PUSH2 0x61A JUMPI PUSH1 0x40 MLOAD SWAP2 POP PUSH1 0x1F NOT PUSH1 0x3F RETURNDATASIZE ADD AND DUP3 ADD PUSH1 0x40 MSTORE RETURNDATASIZE DUP3 MSTORE RETURNDATASIZE PUSH1 0x0 PUSH1 0x20 DUP5 ADD RETURNDATACOPY PUSH2 0x61F JUMP JUMPDEST PUSH1 0x60 SWAP2 POP JUMPDEST POP SWAP2 POP SWAP2 POP PUSH1 0x40 MLOAD RETURNDATASIZE DUP1 PUSH1 0x0 DUP4 RETURNDATACOPY DUP4 PUSH2 0x636 JUMPI DUP1 DUP3 REVERT JUMPDEST DUP1 DUP3 RETURN JUMPDEST PUSH1 0x2 SLOAD PUSH1 0x40 MLOAD PUSH1 0x0 SWAP2 DUP3 SWAP2 DUP3 SWAP2 PUSH1 0x1 PUSH1 0x1 PUSH1 0xA0 SHL SUB AND SWAP1 PUSH2 0x667 SWAP1 DUP11 SWAP1 DUP11 SWAP1 DUP11 SWAP1 DUP11 SWAP1 DUP11 SWAP1 PUSH1 0x24 ADD PUSH2 0x18E1 JUMP JUMPDEST PUSH1 0x40 DUP1 MLOAD PUSH1 0x1F NOT DUP2 DUP5 SUB ADD DUP2 MSTORE SWAP2 DUP2 MSTORE PUSH1 0x20 DUP3 ADD DUP1 MLOAD PUSH1 0x1 PUSH1 0x1 PUSH1 0xE0 SHL SUB AND PUSH4 0x152DE3B9 PUSH1 0xE0 SHL OR SWAP1 MSTORE MLOAD PUSH2 0x5DF SWAP2 SWAP1 PUSH2 0x18C5 JUMP JUMPDEST PUSH1 0x2 SLOAD PUSH1 0x40 MLOAD PUSH1 0x0 SWAP2 DUP3 SWAP2 DUP3 SWAP2 PUSH1 0x1 PUSH1 0x1 PUSH1 0xA0 SHL SUB AND SWAP1 PUSH2 0x6C7 SWAP1 DUP10 SWAP1 DUP10 SWAP1 DUP10 SWAP1 DUP10 SWAP1 PUSH1 0x24 ADD PUSH2 0x188D JUMP JUMPDEST PUSH1 0x40 DUP1 MLOAD PUSH1 0x1F NOT DUP2 DUP5 SUB ADD DUP2 MSTORE SWAP2 DUP2 MSTORE PUSH1 0x20 DUP3 ADD DUP1 MLOAD PUSH1 0x1 PUSH1 0x1 PUSH1 0xE0 SHL SUB AND PUSH4 0x899B86F PUSH1 0xE2 SHL OR SWAP1 MSTORE MLOAD PUSH2 0x5DF SWAP2 SWAP1 PUSH2 0x18C5 JUMP JUMPDEST PUSH1 0x2 SLOAD PUSH1 0x40 MLOAD PUSH1 0x0 SWAP2 DUP3 SWAP2 DUP3 SWAP2 PUSH1 0x1 PUSH1 0x1 PUSH1 0xA0 SHL SUB AND SWAP1 PUSH2 0x72B SWAP1 DUP12 SWAP1 DUP12 SWAP1 DUP12 SWAP1 DUP12 SWAP1 DUP12 SWAP1 DUP12 SWAP1 PUSH1 0x24 ADD PUSH2 0x1926 JUMP JUMPDEST PUSH1 0x40 DUP1 MLOAD PUSH1 0x1F NOT DUP2 DUP5 SUB ADD DUP2 MSTORE SWAP2 DUP2 MSTORE PUSH1 0x20 DUP3 ADD DUP1 MLOAD PUSH1 0x1 PUSH1 0x1 PUSH1 0xE0 SHL SUB AND PUSH4 0xD2E2EDB PUSH1 0xE2 SHL OR SWAP1 MSTORE MLOAD PUSH2 0x760 SWAP2 SWAP1 PUSH2 0x18C5 JUMP JUMPDEST PUSH1 0x0 PUSH1 0x40 MLOAD DUP1 DUP4 SUB DUP2 DUP6 GAS DELEGATECALL SWAP2 POP POP RETURNDATASIZE DUP1 PUSH1 0x0 DUP2 EQ PUSH2 0x79B JUMPI PUSH1 0x40 MLOAD SWAP2 POP PUSH1 0x1F NOT PUSH1 0x3F RETURNDATASIZE ADD AND DUP3 ADD PUSH1 0x40 MSTORE RETURNDATASIZE DUP3 MSTORE RETURNDATASIZE PUSH1 0x0 PUSH1 0x20 DUP5 ADD RETURNDATACOPY PUSH2 0x7A0 JUMP JUMPDEST PUSH1 0x60 SWAP2 POP JUMPDEST POP SWAP2 POP SWAP2 POP PUSH1 0x40 MLOAD RETURNDATASIZE DUP1 PUSH1 0x0 DUP4 RETURNDATACOPY DUP4 PUSH2 0x7B7 JUMPI DUP1 DUP3 REVERT JUMPDEST POP MLOAD SWAP10 SWAP9 POP POP POP POP POP POP POP POP POP JUMP JUMPDEST PUSH1 0xF DUP2 DUP2 SLOAD DUP2 LT PUSH2 0x7D6 JUMPI PUSH1 0x0 DUP1 REVERT JUMPDEST PUSH1 0x0 SWAP2 DUP3 MSTORE PUSH1 0x20 SWAP1 SWAP2 KECCAK256 ADD SLOAD PUSH1 0xFF AND SWAP1 POP DUP2 JUMP JUMPDEST PUSH1 0x0 DUP1 SLOAD PUSH2 0x7F7 SWAP1 PUSH2 0x198B JUMP JUMPDEST DUP1 PUSH1 0x1F ADD PUSH1 0x20 DUP1 SWAP2 DIV MUL PUSH1 0x20 ADD PUSH1 0x40 MLOAD SWAP1 DUP2 ADD PUSH1 0x40 MSTORE DUP1 SWAP3 SWAP2 SWAP1 DUP2 DUP2 MSTORE PUSH1 0x20 ADD DUP3 DUP1 SLOAD PUSH2 0x823 SWAP1 PUSH2 0x198B JUMP JUMPDEST DUP1 ISZERO PUSH2 0x870 JUMPI DUP1 PUSH1 0x1F LT PUSH2 0x845 JUMPI PUSH2 0x100 DUP1 DUP4 SLOAD DIV MUL DUP4 MSTORE SWAP2 PUSH1 0x20 ADD SWAP2 PUSH2 0x870 JUMP JUMPDEST DUP3 ADD SWAP2 SWAP1 PUSH1 0x0 MSTORE PUSH1 0x20 PUSH1 0x0 KECCAK256 SWAP1 JUMPDEST DUP2 SLOAD DUP2 MSTORE SWAP1 PUSH1 0x1 ADD SWAP1 PUSH1 0x20 ADD DUP1 DUP4 GT PUSH2 0x853 JUMPI DUP3 SWAP1 SUB PUSH1 0x1F AND DUP3 ADD SWAP2 JUMPDEST POP POP POP POP POP DUP2 JUMP JUMPDEST PUSH1 0x2 SLOAD PUSH1 0x40 MLOAD PUSH1 0x24 DUP2 ADD DUP4 SWAP1 MSTORE PUSH1 0x0 SWAP2 PUSH1 0x60 SWAP2 DUP4 SWAP2 DUP3 SWAP2 PUSH1 0x1 PUSH1 0x1 PUSH1 0xA0 SHL SUB SWAP1 SWAP2 AND SWAP1 PUSH1 0x44 ADD PUSH1 0x40 DUP1 MLOAD PUSH1 0x1F NOT DUP2 DUP5 SUB ADD DUP2 MSTORE SWAP2 DUP2 MSTORE PUSH1 0x20 DUP3 ADD DUP1 MLOAD PUSH1 0x1 PUSH1 0x1 PUSH1 0xE0 SHL SUB AND PUSH4 0x4EEB7B85 PUSH1 0xE0 SHL OR SWAP1 MSTORE MLOAD PUSH2 0x8D3 SWAP2 SWAP1 PUSH2 0x18C5 JUMP JUMPDEST PUSH1 0x0 PUSH1 0x40 MLOAD DUP1 DUP4 SUB DUP2 DUP6 GAS DELEGATECALL SWAP2 POP POP RETURNDATASIZE DUP1 PUSH1 0x0 DUP2 EQ PUSH2 0x90E JUMPI PUSH1 0x40 MLOAD SWAP2 POP PUSH1 0x1F NOT PUSH1 0x3F RETURNDATASIZE ADD AND DUP3 ADD PUSH1 0x40 MSTORE RETURNDATASIZE DUP3 MSTORE RETURNDATASIZE PUSH1 0x0 PUSH1 0x20 DUP5 ADD RETURNDATACOPY PUSH2 0x913 JUMP JUMPDEST PUSH1 0x60 SWAP2 POP JUMPDEST POP SWAP2 POP SWAP2 POP DUP2 PUSH2 0x92A JUMPI PUSH1 0x40 MLOAD RETURNDATASIZE DUP1 PUSH1 0x0 DUP4 RETURNDATACOPY DUP1 DUP3 REVERT JUMPDEST PUSH1 0x1 PUSH1 0x40 MLOAD DUP1 PUSH1 0x40 ADD PUSH1 0x40 MSTORE DUP1 PUSH1 0x19 DUP2 MSTORE PUSH1 0x20 ADD PUSH32 0x537563636573732065786563757465642070726F706F73616C00000000000000 DUP2 MSTORE POP SWAP4 POP SWAP4 POP POP POP SWAP2 POP SWAP2 JUMP JUMPDEST PUSH1 0x2 SLOAD PUSH1 0x40 MLOAD PUSH1 0x0 SWAP2 DUP3 SWAP2 DUP3 SWAP2 PUSH1 0x1 PUSH1 0x1 PUSH1 0xA0 SHL SUB AND SWAP1 PUSH2 0x996 SWAP1 DUP9 SWAP1 DUP9 SWAP1 DUP9 SWAP1 PUSH1 0x24 ADD PUSH2 0x19C6 JUMP JUMPDEST PUSH1 0x40 DUP1 MLOAD PUSH1 0x1F NOT DUP2 DUP5 SUB ADD DUP2 MSTORE SWAP2 DUP2 MSTORE PUSH1 0x20 DUP3 ADD DUP1 MLOAD PUSH1 0x1 PUSH1 0x1 PUSH1 0xE0 SHL SUB AND PUSH4 0x70ACB761 PUSH1 0xE0 SHL OR SWAP1 MSTORE MLOAD PUSH2 0x9CB SWAP2 SWAP1 PUSH2 0x18C5 JUMP JUMPDEST PUSH1 0x0 PUSH1 0x40 MLOAD DUP1 DUP4 SUB DUP2 DUP6 GAS DELEGATECALL SWAP2 POP POP RETURNDATASIZE DUP1 PUSH1 0x0 DUP2 EQ PUSH2 0xA06 JUMPI PUSH1 0x40 MLOAD SWAP2 POP PUSH1 0x1F NOT PUSH1 0x3F RETURNDATASIZE ADD AND DUP3 ADD PUSH1 0x40 MSTORE RETURNDATASIZE DUP3 MSTORE RETURNDATASIZE PUSH1 0x0 PUSH1 0x20 DUP5 ADD RETURNDATACOPY PUSH2 0xA0B JUMP JUMPDEST PUSH1 0x60 SWAP2 POP JUMPDEST POP SWAP2 POP SWAP2 POP PUSH1 0x40 MLOAD RETURNDATASIZE DUP1 PUSH1 0x0 DUP4 RETURNDATACOPY DUP4 PUSH2 0xA22 JUMPI DUP1 DUP3 REVERT JUMPDEST POP MLOAD SWAP7 SWAP6 POP POP POP POP POP POP JUMP JUMPDEST PUSH1 0x2 SLOAD PUSH1 0x40 MLOAD PUSH1 0x0 SWAP2 DUP3 SWAP2 DUP3 SWAP2 PUSH1 0x1 PUSH1 0x1 PUSH1 0xA0 SHL SUB AND SWAP1 PUSH2 0xA59 SWAP1 DUP10 SWAP1 DUP10 SWAP1 DUP10 SWAP1 DUP10 SWAP1 PUSH1 0x24 ADD PUSH2 0x188D JUMP JUMPDEST PUSH1 0x40 DUP1 MLOAD PUSH1 0x1F NOT DUP2 DUP5 SUB ADD DUP2 MSTORE SWAP2 DUP2 MSTORE PUSH1 0x20 DUP3 ADD DUP1 MLOAD PUSH1 0x1 PUSH1 0x1 PUSH1 0xE0 SHL SUB AND PUSH4 0xF8C70A9 PUSH1 0xE3 SHL OR SWAP1 MSTORE MLOAD PUSH2 0xA8E SWAP2 SWAP1 PUSH2 0x18C5 JUMP JUMPDEST PUSH1 0x0 PUSH1 0x40 MLOAD DUP1 DUP4 SUB DUP2 DUP6 GAS DELEGATECALL SWAP2 POP POP RETURNDATASIZE DUP1 PUSH1 0x0 DUP2 EQ PUSH2 0xAC9 JUMPI PUSH1 0x40 MLOAD SWAP2 POP PUSH1 0x1F NOT PUSH1 0x3F RETURNDATASIZE ADD AND DUP3 ADD PUSH1 0x40 MSTORE RETURNDATASIZE DUP3 MSTORE RETURNDATASIZE PUSH1 0x0 PUSH1 0x20 DUP5 ADD RETURNDATACOPY PUSH2 0xACE JUMP JUMPDEST PUSH1 0x60 SWAP2 POP JUMPDEST POP SWAP2 POP SWAP2 POP PUSH1 0x40 MLOAD RETURNDATASIZE DUP1 PUSH1 0x0 DUP4 RETURNDATACOPY DUP4 PUSH2 0xAE5 JUMPI DUP1 DUP3 REVERT JUMPDEST POP MLOAD SWAP8 SWAP7 POP POP POP POP POP POP POP JUMP JUMPDEST PUSH1 0x0 DUP1 PUSH1 0x1 PUSH1 0x6 SWAP1 SLOAD SWAP1 PUSH2 0x100 EXP SWAP1 DIV PUSH1 0x1 PUSH1 0x1 PUSH1 0xA0 SHL SUB AND PUSH1 0x1 PUSH1 0x1 PUSH1 0xA0 SHL SUB AND DUP5 DUP5 PUSH1 0x40 MLOAD PUSH1 0x24 ADD PUSH2 0xB27 SWAP3 SWAP2 SWAP1 PUSH2 0x14A2 JUMP JUMPDEST PUSH1 0x40 DUP1 MLOAD PUSH1 0x1F NOT DUP2 DUP5 SUB ADD DUP2 MSTORE SWAP2 DUP2 MSTORE PUSH1 0x20 DUP3 ADD DUP1 MLOAD PUSH1 0x1 PUSH1 0x1 PUSH1 0xE0 SHL SUB AND PUSH4 0x1039E45B PUSH1 0xE3 SHL OR SWAP1 MSTORE MLOAD PUSH2 0xB5C SWAP2 SWAP1 PUSH2 0x18C5 JUMP JUMPDEST PUSH1 0x0 PUSH1 0x40 MLOAD DUP1 DUP4 SUB DUP2 DUP6 GAS DELEGATECALL SWAP2 POP POP RETURNDATASIZE DUP1 PUSH1 0x0 DUP2 EQ PUSH2 0xB97 JUMPI PUSH1 0x40 MLOAD SWAP2 POP PUSH1 0x1F NOT PUSH1 0x3F RETURNDATASIZE ADD AND DUP3 ADD PUSH1 0x40 MSTORE RETURNDATASIZE DUP3 MSTORE RETURNDATASIZE PUSH1 0x0 PUSH1 0x20 DUP5 ADD RETURNDATACOPY PUSH2 0xB9C JUMP JUMPDEST PUSH1 0x60 SWAP2 POP JUMPDEST POP SWAP2 POP SWAP2 POP DUP2 PUSH2 0xBB3 JUMPI PUSH1 0x40 MLOAD RETURNDATASIZE DUP1 PUSH1 0x0 DUP4 RETURNDATACOPY DUP1 DUP3 REVERT JUMPDEST POP POP POP POP JUMP JUMPDEST PUSH1 0x10 DUP2 DUP2 SLOAD DUP2 LT PUSH2 0xBC9 JUMPI PUSH1 0x0 DUP1 REVERT JUMPDEST PUSH1 0x0 SWAP2 DUP3 MSTORE PUSH1 0x20 SWAP1 SWAP2 KECCAK256 PUSH1 0x4 SWAP1 SWAP2 MUL ADD DUP1 SLOAD PUSH1 0x1 DUP3 ADD DUP1 SLOAD PUSH1 0x1 PUSH1 0x1 PUSH1 0xA0 SHL SUB SWAP1 SWAP3 AND SWAP4 POP SWAP1 PUSH2 0xBF8 SWAP1 PUSH2 0x198B JUMP JUMPDEST DUP1 PUSH1 0x1F ADD PUSH1 0x20 DUP1 SWAP2 DIV MUL PUSH1 0x20 ADD PUSH1 0x40 MLOAD SWAP1 DUP2 ADD PUSH1 0x40 MSTORE DUP1 SWAP3 SWAP2 SWAP1 DUP2 DUP2 MSTORE PUSH1 0x20 ADD DUP3 DUP1 SLOAD PUSH2 0xC24 SWAP1 PUSH2 0x198B JUMP JUMPDEST DUP1 ISZERO PUSH2 0xC71 JUMPI DUP1 PUSH1 0x1F LT PUSH2 0xC46 JUMPI PUSH2 0x100 DUP1 DUP4 SLOAD DIV MUL DUP4 MSTORE SWAP2 PUSH1 0x20 ADD SWAP2 PUSH2 0xC71 JUMP JUMPDEST DUP3 ADD SWAP2 SWAP1 PUSH1 0x0 MSTORE PUSH1 0x20 PUSH1 0x0 KECCAK256 SWAP1 JUMPDEST DUP2 SLOAD DUP2 MSTORE SWAP1 PUSH1 0x1 ADD SWAP1 PUSH1 0x20 ADD DUP1 DUP4 GT PUSH2 0xC54 JUMPI DUP3 SWAP1 SUB PUSH1 0x1F AND DUP3 ADD SWAP2 JUMPDEST POP POP POP POP PUSH1 0x2 DUP4 ADD SLOAD PUSH1 0x3 SWAP1 SWAP4 ADD SLOAD SWAP2 SWAP3 SWAP2 PUSH1 0xFF DUP1 DUP3 AND SWAP3 POP PUSH2 0x100 SWAP1 SWAP2 DIV AND DUP6 JUMP JUMPDEST PUSH1 0x2 SLOAD PUSH1 0x40 MLOAD PUSH1 0x0 SWAP2 DUP3 SWAP2 DUP3 SWAP2 PUSH1 0x1 PUSH1 0x1 PUSH1 0xA0 SHL SUB AND SWAP1 PUSH2 0xCBD SWAP1 DUP9 SWAP1 DUP9 SWAP1 DUP9 SWAP1 PUSH1 0x24 ADD PUSH2 0x19F2 JUMP JUMPDEST PUSH1 0x40 DUP1 MLOAD PUSH1 0x1F NOT DUP2 DUP5 SUB ADD DUP2 MSTORE SWAP2 DUP2 MSTORE PUSH1 0x20 DUP3 ADD DUP1 MLOAD PUSH1 0x1 PUSH1 0x1 PUSH1 0xE0 SHL SUB AND PUSH4 0xA19A5F5 PUSH1 0xE4 SHL OR SWAP1 MSTORE MLOAD PUSH2 0x5DF SWAP2 SWAP1 PUSH2 0x18C5 JUMP JUMPDEST PUSH1 0xE DUP2 DUP2 SLOAD DUP2 LT PUSH2 0xD02 JUMPI PUSH1 0x0 DUP1 REVERT JUMPDEST PUSH1 0x0 SWAP2 DUP3 MSTORE PUSH1 0x20 SWAP1 SWAP2 KECCAK256 PUSH1 0x4 SWAP1 SWAP2 MUL ADD DUP1 SLOAD PUSH1 0x1 DUP3 ADD SLOAD PUSH1 0x2 DUP4 ADD SLOAD PUSH1 0x3 SWAP1 SWAP4 ADD SLOAD PUSH1 0x1 PUSH1 0x1 PUSH1 0xA0 SHL SUB SWAP3 DUP4 AND SWAP5 POP SWAP1 SWAP3 DUP3 AND SWAP2 AND DUP5 JUMP JUMPDEST PUSH1 0xD DUP2 DUP2 SLOAD DUP2 LT PUSH2 0xD4A JUMPI PUSH1 0x0 DUP1 REVERT JUMPDEST PUSH1 0x0 SWAP2 DUP3 MSTORE PUSH1 0x20 SWAP1 SWAP2 KECCAK256 PUSH1 0x3 SWAP1 SWAP2 MUL ADD DUP1 SLOAD PUSH1 0x1 DUP3 ADD DUP1 SLOAD PUSH1 0x1 PUSH1 0x1 PUSH1 0xA0 SHL SUB SWAP1 SWAP3 AND SWAP4 POP SWAP1 PUSH2 0xD79 SWAP1 PUSH2 0x198B JUMP JUMPDEST DUP1 PUSH1 0x1F ADD PUSH1 0x20 DUP1 SWAP2 DIV MUL PUSH1 0x20 ADD PUSH1 0x40 MLOAD SWAP1 DUP2 ADD PUSH1 0x40 MSTORE DUP1 SWAP3 SWAP2 SWAP1 DUP2 DUP2 MSTORE PUSH1 0x20 ADD DUP3 DUP1 SLOAD PUSH2 0xDA5 SWAP1 PUSH2 0x198B JUMP JUMPDEST DUP1 ISZERO PUSH2 0xDF2 JUMPI DUP1 PUSH1 0x1F LT PUSH2 0xDC7 JUMPI PUSH2 0x100 DUP1 DUP4 SLOAD DIV MUL DUP4 MSTORE SWAP2 PUSH1 0x20 ADD SWAP2 PUSH2 0xDF2 JUMP JUMPDEST DUP3 ADD SWAP2 SWAP1 PUSH1 0x0 MSTORE PUSH1 0x20 PUSH1 0x0 KECCAK256 SWAP1 JUMPDEST DUP2 SLOAD DUP2 MSTORE SWAP1 PUSH1 0x1 ADD SWAP1 PUSH1 0x20 ADD DUP1 DUP4 GT PUSH2 0xDD5 JUMPI DUP3 SWAP1 SUB PUSH1 0x1F AND DUP3 ADD SWAP2 JUMPDEST POP POP POP PUSH1 0x2 SWAP1 SWAP4 ADD SLOAD SWAP2 SWAP3 POP POP PUSH1 0xFF AND DUP4 JUMP JUMPDEST PUSH1 0x2 SLOAD PUSH1 0x40 MLOAD PUSH1 0x0 SWAP2 DUP3 SWAP2 DUP3 SWAP2 PUSH1 0x1 PUSH1 0x1 PUSH1 0xA0 SHL SUB AND SWAP1 PUSH2 0xE30 SWAP1 DUP10 SWAP1 DUP10 SWAP1 DUP10 SWAP1 DUP10 SWAP1 PUSH1 0x24 ADD PUSH2 0x1A35 JUMP JUMPDEST PUSH1 0x40 DUP1 MLOAD PUSH1 0x1F NOT DUP2 DUP5 SUB ADD DUP2 MSTORE SWAP2 DUP2 MSTORE PUSH1 0x20 DUP3 ADD DUP1 MLOAD PUSH1 0x1 PUSH1 0x1 PUSH1 0xE0 SHL SUB AND PUSH4 0x9E803DFB PUSH1 0xE0 SHL OR SWAP1 MSTORE MLOAD PUSH2 0xE65 SWAP2 SWAP1 PUSH2 0x18C5 JUMP JUMPDEST PUSH1 0x0 PUSH1 0x40 MLOAD DUP1 DUP4 SUB DUP2 DUP6 GAS DELEGATECALL SWAP2 POP POP RETURNDATASIZE DUP1 PUSH1 0x0 DUP2 EQ PUSH2 0xEA0 JUMPI PUSH1 0x40 MLOAD SWAP2 POP PUSH1 0x1F NOT PUSH1 0x3F RETURNDATASIZE ADD AND DUP3 ADD PUSH1 0x40 MSTORE RETURNDATASIZE DUP3 MSTORE RETURNDATASIZE PUSH1 0x0 PUSH1 0x20 DUP5 ADD RETURNDATACOPY PUSH2 0xEA5 JUMP JUMPDEST PUSH1 0x60 SWAP2 POP JUMPDEST POP SWAP2 POP SWAP2 POP DUP2 PUSH2 0xEBC JUMPI PUSH1 0x40 MLOAD RETURNDATASIZE DUP1 PUSH1 0x0 DUP4 RETURNDATACOPY DUP1 DUP3 REVERT JUMPDEST POP PUSH1 0x1 SWAP7 SWAP6 POP POP POP POP POP POP JUMP JUMPDEST PUSH1 0xB PUSH1 0x20 SWAP1 DUP2 MSTORE PUSH1 0x0 SWAP3 DUP4 MSTORE PUSH1 0x40 DUP1 DUP5 KECCAK256 SWAP1 SWAP2 MSTORE SWAP1 DUP3 MSTORE SWAP1 KECCAK256 DUP1 SLOAD PUSH1 0x1 DUP3 ADD DUP1 SLOAD PUSH1 0xFF DUP1 DUP5 AND SWAP5 PUSH2 0x100 SWAP1 SWAP5 DIV AND SWAP3 SWAP2 SWAP1 PUSH2 0xF03 SWAP1 PUSH2 0x198B JUMP JUMPDEST DUP1 PUSH1 0x1F ADD PUSH1 0x20 DUP1 SWAP2 DIV MUL PUSH1 0x20 ADD PUSH1 0x40 MLOAD SWAP1 DUP2 ADD PUSH1 0x40 MSTORE DUP1 SWAP3 SWAP2 SWAP1 DUP2 DUP2 MSTORE PUSH1 0x20 ADD DUP3 DUP1 SLOAD PUSH2 0xF2F SWAP1 PUSH2 0x198B JUMP JUMPDEST DUP1 ISZERO PUSH2 0xF7C JUMPI DUP1 PUSH1 0x1F LT PUSH2 0xF51 JUMPI PUSH2 0x100 DUP1 DUP4 SLOAD DIV MUL DUP4 MSTORE SWAP2 PUSH1 0x20 ADD SWAP2 PUSH2 0xF7C JUMP JUMPDEST DUP3 ADD SWAP2 SWAP1 PUSH1 0x0 MSTORE PUSH1 0x20 PUSH1 0x0 KECCAK256 SWAP1 JUMPDEST DUP2 SLOAD DUP2 MSTORE SWAP1 PUSH1 0x1 ADD SWAP1 PUSH1 0x20 ADD DUP1 DUP4 GT PUSH2 0xF5F JUMPI DUP3 SWAP1 SUB PUSH1 0x1F AND DUP3 ADD SWAP2 JUMPDEST POP POP POP POP POP SWAP1 POP DUP4 JUMP JUMPDEST PUSH1 0xC DUP2 DUP2 SLOAD DUP2 LT PUSH2 0xF96 JUMPI PUSH1 0x0 DUP1 REVERT JUMPDEST PUSH1 0x0 SWAP2 DUP3 MSTORE PUSH1 0x20 SWAP1 SWAP2 KECCAK256 PUSH1 0x5 SWAP1 SWAP2 MUL ADD DUP1 SLOAD PUSH1 0x1 DUP3 ADD DUP1 SLOAD PUSH1 0x1 PUSH1 0x1 PUSH1 0xA0 SHL SUB DUP4 AND SWAP5 POP PUSH1 0x1 PUSH1 0xA0 SHL SWAP1 SWAP3 DIV PUSH1 0xFF AND SWAP3 SWAP2 PUSH2 0xFD0 SWAP1 PUSH2 0x198B JUMP JUMPDEST DUP1 PUSH1 0x1F ADD PUSH1 0x20 DUP1 SWAP2 DIV MUL PUSH1 0x20 ADD PUSH1 0x40 MLOAD SWAP1 DUP2 ADD PUSH1 0x40 MSTORE DUP1 SWAP3 SWAP2 SWAP1 DUP2 DUP2 MSTORE PUSH1 0x20 ADD DUP3 DUP1 SLOAD PUSH2 0xFFC SWAP1 PUSH2 0x198B JUMP JUMPDEST DUP1 ISZERO PUSH2 0x1049 JUMPI DUP1 PUSH1 0x1F LT PUSH2 0x101E JUMPI PUSH2 0x100 DUP1 DUP4 SLOAD DIV MUL DUP4 MSTORE SWAP2 PUSH1 0x20 ADD SWAP2 PUSH2 0x1049 JUMP JUMPDEST DUP3 ADD SWAP2 SWAP1 PUSH1 0x0 MSTORE PUSH1 0x20 PUSH1 0x0 KECCAK256 SWAP1 JUMPDEST DUP2 SLOAD DUP2 MSTORE SWAP1 PUSH1 0x1 ADD SWAP1 PUSH1 0x20 ADD DUP1 DUP4 GT PUSH2 0x102C JUMPI DUP3 SWAP1 SUB PUSH1 0x1F AND DUP3 ADD SWAP2 JUMPDEST POP POP POP PUSH1 0x2 DUP5 ADD SLOAD PUSH1 0x3 DUP6 ADD SLOAD PUSH1 0x4 SWAP1 SWAP6 ADD SLOAD SWAP4 SWAP5 SWAP1 SWAP4 PUSH1 0xFF DUP1 DUP4 AND SWAP5 POP PUSH2 0x100 DUP4 DIV DUP2 AND SWAP4 POP PUSH3 0x10000 DUP4 DIV DUP2 AND SWAP3 PUSH4 0x1000000 SWAP1 DIV AND SWAP1 DUP10 JUMP JUMPDEST PUSH1 0x2 SLOAD PUSH1 0x40 MLOAD PUSH1 0x0 SWAP2 DUP3 SWAP2 DUP3 SWAP2 PUSH1 0x1 PUSH1 0x1 PUSH1 0xA0 SHL SUB AND SWAP1 PUSH2 0x10B2 SWAP1 DUP11 SWAP1 DUP11 SWAP1 DUP11 SWAP1 DUP11 SWAP1 DUP11 SWAP1 PUSH1 0x24 ADD PUSH2 0x1A73 JUMP JUMPDEST PUSH1 0x40 DUP1 MLOAD PUSH1 0x1F NOT DUP2 DUP5 SUB ADD DUP2 MSTORE SWAP2 DUP2 MSTORE PUSH1 0x20 DUP3 ADD DUP1 MLOAD PUSH1 0x1 PUSH1 0x1 PUSH1 0xE0 SHL SUB AND PUSH4 0x6F2D58A7 PUSH1 0xE1 SHL OR SWAP1 MSTORE MLOAD PUSH2 0x10E7 SWAP2 SWAP1 PUSH2 0x18C5 JUMP JUMPDEST PUSH1 0x0 PUSH1 0x40 MLOAD DUP1 DUP4 SUB DUP2 DUP6 GAS DELEGATECALL SWAP2 POP POP RETURNDATASIZE DUP1 PUSH1 0x0 DUP2 EQ PUSH2 0x1122 JUMPI PUSH1 0x40 MLOAD SWAP2 POP PUSH1 0x1F NOT PUSH1 0x3F RETURNDATASIZE ADD AND DUP3 ADD PUSH1 0x40 MSTORE RETURNDATASIZE DUP3 MSTORE RETURNDATASIZE PUSH1 0x0 PUSH1 0x20 DUP5 ADD RETURNDATACOPY PUSH2 0x1127 JUMP JUMPDEST PUSH1 0x60 SWAP2 POP JUMPDEST POP SWAP2 POP SWAP2 POP PUSH1 0x40 MLOAD RETURNDATASIZE DUP1 PUSH1 0x0 DUP4 RETURNDATACOPY DUP4 PUSH2 0x113E JUMPI DUP1 DUP3 REVERT JUMPDEST POP MLOAD SWAP9 SWAP8 POP POP POP POP POP POP POP POP JUMP JUMPDEST PUSH1 0x2 SLOAD PUSH1 0x40 MLOAD PUSH1 0x0 SWAP2 DUP3 SWAP2 DUP3 SWAP2 PUSH1 0x1 PUSH1 0x1 PUSH1 0xA0 SHL SUB AND SWAP1 PUSH2 0x1177 SWAP1 DUP10 SWAP1 DUP10 SWAP1 DUP10 SWAP1 DUP10 SWAP1 PUSH1 0x24 ADD PUSH2 0x1AA6 JUMP JUMPDEST PUSH1 0x40 DUP1 MLOAD PUSH1 0x1F NOT DUP2 DUP5 SUB ADD DUP2 MSTORE SWAP2 DUP2 MSTORE PUSH1 0x20 DUP3 ADD DUP1 MLOAD PUSH1 0x1 PUSH1 0x1 PUSH1 0xE0 SHL SUB AND PUSH4 0x7B2DDE6F PUSH1 0xE1 SHL OR SWAP1 MSTORE MLOAD PUSH2 0xA8E SWAP2 SWAP1 PUSH2 0x18C5 JUMP JUMPDEST DUP1 CALLDATALOAD PUSH1 0x1 PUSH1 0x1 PUSH1 0xA0 SHL SUB DUP2 AND DUP2 EQ PUSH2 0x11C3 JUMPI PUSH1 0x0 DUP1 REVERT JUMPDEST SWAP2 SWAP1 POP JUMP JUMPDEST PUSH4 0x4E487B71 PUSH1 0xE0 SHL PUSH1 0x0 MSTORE PUSH1 0x41 PUSH1 0x4 MSTORE PUSH1 0x24 PUSH1 0x0 REVERT JUMPDEST PUSH1 0x0 DUP3 PUSH1 0x1F DUP4 ADD SLT PUSH2 0x11EF JUMPI PUSH1 0x0 DUP1 REVERT JUMPDEST DUP2 CALLDATALOAD PUSH8 0xFFFFFFFFFFFFFFFF DUP1 DUP3 GT ISZERO PUSH2 0x120A JUMPI PUSH2 0x120A PUSH2 0x11C8 JUMP JUMPDEST PUSH1 0x40 MLOAD PUSH1 0x1F DUP4 ADD PUSH1 0x1F NOT SWAP1 DUP2 AND PUSH1 0x3F ADD AND DUP2 ADD SWAP1 DUP3 DUP3 GT DUP2 DUP4 LT OR ISZERO PUSH2 0x1232 JUMPI PUSH2 0x1232 PUSH2 0x11C8 JUMP JUMPDEST DUP2 PUSH1 0x40 MSTORE DUP4 DUP2 MSTORE DUP7 PUSH1 0x20 DUP6 DUP9 ADD ADD GT ISZERO PUSH2 0x124B JUMPI PUSH1 0x0 DUP1 REVERT JUMPDEST DUP4 PUSH1 0x20 DUP8 ADD PUSH1 0x20 DUP4 ADD CALLDATACOPY PUSH1 0x0 PUSH1 0x20 DUP6 DUP4 ADD ADD MSTORE DUP1 SWAP5 POP POP POP POP POP SWAP3 SWAP2 POP POP JUMP JUMPDEST PUSH1 0x0 DUP1 PUSH1 0x0 DUP1 PUSH1 0x80 DUP6 DUP8 SUB SLT ISZERO PUSH2 0x1281 JUMPI PUSH1 0x0 DUP1 REVERT JUMPDEST PUSH2 0x128A DUP6 PUSH2 0x11AC JUMP JUMPDEST SWAP4 POP PUSH1 0x20 DUP6 ADD CALLDATALOAD SWAP3 POP PUSH1 0x40 DUP6 ADD CALLDATALOAD PUSH8 0xFFFFFFFFFFFFFFFF DUP2 GT ISZERO PUSH2 0x12AD JUMPI PUSH1 0x0 DUP1 REVERT JUMPDEST PUSH2 0x12B9 DUP8 DUP3 DUP9 ADD PUSH2 0x11DE JUMP JUMPDEST SWAP5 SWAP8 SWAP4 SWAP7 POP SWAP4 SWAP5 PUSH1 0x60 ADD CALLDATALOAD SWAP4 POP POP POP JUMP JUMPDEST PUSH1 0x0 PUSH1 0x20 DUP3 DUP5 SUB SLT ISZERO PUSH2 0x12DC JUMPI PUSH1 0x0 DUP1 REVERT JUMPDEST PUSH2 0x12E5 DUP3 PUSH2 0x11AC JUMP JUMPDEST SWAP4 SWAP3 POP POP POP JUMP JUMPDEST PUSH1 0x0 DUP1 PUSH1 0x0 DUP1 PUSH1 0x0 PUSH1 0xA0 DUP7 DUP9 SUB SLT ISZERO PUSH2 0x1304 JUMPI PUSH1 0x0 DUP1 REVERT JUMPDEST PUSH2 0x130D DUP7 PUSH2 0x11AC JUMP JUMPDEST SWAP5 POP PUSH2 0x131B PUSH1 0x20 DUP8 ADD PUSH2 0x11AC JUMP JUMPDEST SWAP4 POP PUSH1 0x40 DUP7 ADD CALLDATALOAD SWAP3 POP PUSH1 0x60 DUP7 ADD CALLDATALOAD PUSH8 0xFFFFFFFFFFFFFFFF DUP2 GT ISZERO PUSH2 0x133E JUMPI PUSH1 0x0 DUP1 REVERT JUMPDEST PUSH2 0x134A DUP9 DUP3 DUP10 ADD PUSH2 0x11DE JUMP JUMPDEST SWAP6 SWAP9 SWAP5 SWAP8 POP SWAP3 SWAP6 PUSH1 0x80 ADD CALLDATALOAD SWAP4 SWAP3 POP POP POP JUMP JUMPDEST DUP1 CALLDATALOAD DUP1 ISZERO ISZERO DUP2 EQ PUSH2 0x11C3 JUMPI PUSH1 0x0 DUP1 REVERT JUMPDEST PUSH1 0x0 DUP1 PUSH1 0x0 DUP1 PUSH1 0x0 DUP1 PUSH1 0xC0 DUP8 DUP10 SUB SLT ISZERO PUSH2 0x1385 JUMPI PUSH1 0x0 DUP1 REVERT JUMPDEST PUSH2 0x138E DUP8 PUSH2 0x11AC JUMP JUMPDEST SWAP6 POP PUSH1 0x20 DUP8 ADD CALLDATALOAD PUSH8 0xFFFFFFFFFFFFFFFF DUP1 DUP3 GT ISZERO PUSH2 0x13AB JUMPI PUSH1 0x0 DUP1 REVERT JUMPDEST PUSH2 0x13B7 DUP11 DUP4 DUP12 ADD PUSH2 0x11DE JUMP JUMPDEST SWAP7 POP PUSH1 0x40 DUP10 ADD CALLDATALOAD SWAP2 POP DUP1 DUP3 GT ISZERO PUSH2 0x13CD JUMPI PUSH1 0x0 DUP1 REVERT JUMPDEST PUSH2 0x13D9 DUP11 DUP4 DUP12 ADD PUSH2 0x11DE JUMP JUMPDEST SWAP6 POP PUSH2 0x13E7 PUSH1 0x60 DUP11 ADD PUSH2 0x135C JUMP JUMPDEST SWAP5 POP PUSH1 0x80 DUP10 ADD CALLDATALOAD SWAP4 POP PUSH1 0xA0 DUP10 ADD CALLDATALOAD SWAP2 POP DUP1 DUP3 GT ISZERO PUSH2 0x1404 JUMPI PUSH1 0x0 DUP1 REVERT JUMPDEST POP PUSH2 0x1411 DUP10 DUP3 DUP11 ADD PUSH2 0x11DE JUMP JUMPDEST SWAP2 POP POP SWAP3 SWAP6 POP SWAP3 SWAP6 POP SWAP3 SWAP6 JUMP JUMPDEST PUSH1 0x0 PUSH1 0x20 DUP3 DUP5 SUB SLT ISZERO PUSH2 0x1430 JUMPI PUSH1 0x0 DUP1 REVERT JUMPDEST POP CALLDATALOAD SWAP2 SWAP1 POP JUMP JUMPDEST PUSH1 0x0 JUMPDEST DUP4 DUP2 LT ISZERO PUSH2 0x1452 JUMPI DUP2 DUP2 ADD MLOAD DUP4 DUP3 ADD MSTORE PUSH1 0x20 ADD PUSH2 0x143A JUMP JUMPDEST DUP4 DUP2 GT ISZERO PUSH2 0xBB3 JUMPI POP POP PUSH1 0x0 SWAP2 ADD MSTORE JUMP JUMPDEST PUSH1 0x0 DUP2 MLOAD DUP1 DUP5 MSTORE PUSH2 0x147B DUP2 PUSH1 0x20 DUP7 ADD PUSH1 0x20 DUP7 ADD PUSH2 0x1437 JUMP JUMPDEST PUSH1 0x1F ADD PUSH1 0x1F NOT AND SWAP3 SWAP1 SWAP3 ADD PUSH1 0x20 ADD SWAP3 SWAP2 POP POP JUMP JUMPDEST PUSH1 0x20 DUP2 MSTORE PUSH1 0x0 PUSH2 0x12E5 PUSH1 0x20 DUP4 ADD DUP5 PUSH2 0x1463 JUMP JUMPDEST DUP3 ISZERO ISZERO DUP2 MSTORE PUSH1 0x40 PUSH1 0x20 DUP3 ADD MSTORE PUSH1 0x0 PUSH2 0x14BD PUSH1 0x40 DUP4 ADD DUP5 PUSH2 0x1463 JUMP JUMPDEST SWAP5 SWAP4 POP POP POP POP JUMP JUMPDEST PUSH1 0x0 DUP1 PUSH1 0x0 PUSH1 0x60 DUP5 DUP7 SUB SLT ISZERO PUSH2 0x14DA JUMPI PUSH1 0x0 DUP1 REVERT JUMPDEST DUP4 CALLDATALOAD PUSH1 0xFF DUP2 AND DUP2 EQ PUSH2 0x14EB JUMPI PUSH1 0x0 DUP1 REVERT JUMPDEST SWAP3 POP PUSH1 0x20 DUP5 ADD CALLDATALOAD PUSH8 0xFFFFFFFFFFFFFFFF DUP2 GT ISZERO PUSH2 0x1507 JUMPI PUSH1 0x0 DUP1 REVERT JUMPDEST PUSH2 0x1513 DUP7 DUP3 DUP8 ADD PUSH2 0x11DE JUMP JUMPDEST SWAP3 POP POP PUSH1 0x40 DUP5 ADD CALLDATALOAD SWAP1 POP SWAP3 POP SWAP3 POP SWAP3 JUMP JUMPDEST PUSH1 0x0 DUP1 PUSH1 0x40 DUP4 DUP6 SUB SLT ISZERO PUSH2 0x1537 JUMPI PUSH1 0x0 DUP1 REVERT JUMPDEST PUSH2 0x1540 DUP4 PUSH2 0x135C JUMP JUMPDEST SWAP2 POP PUSH1 0x20 DUP4 ADD CALLDATALOAD PUSH8 0xFFFFFFFFFFFFFFFF DUP2 GT ISZERO PUSH2 0x155C JUMPI PUSH1 0x0 DUP1 REVERT JUMPDEST PUSH2 0x1568 DUP6 DUP3 DUP7 ADD PUSH2 0x11DE JUMP JUMPDEST SWAP2 POP POP SWAP3 POP SWAP3 SWAP1 POP JUMP JUMPDEST PUSH1 0x1 PUSH1 0x1 PUSH1 0xA0 SHL SUB DUP7 AND DUP2 MSTORE PUSH1 0xA0 PUSH1 0x20 DUP3 ADD DUP2 SWAP1 MSTORE PUSH1 0x0 SWAP1 PUSH2 0x1596 SWAP1 DUP4 ADD DUP8 PUSH2 0x1463 JUMP JUMPDEST PUSH1 0x40 DUP4 ADD SWAP6 SWAP1 SWAP6 MSTORE POP SWAP2 ISZERO ISZERO PUSH1 0x60 DUP4 ADD MSTORE ISZERO ISZERO PUSH1 0x80 SWAP1 SWAP2 ADD MSTORE SWAP3 SWAP2 POP POP JUMP JUMPDEST PUSH1 0x0 DUP1 PUSH1 0x0 PUSH1 0x60 DUP5 DUP7 SUB SLT ISZERO PUSH2 0x15CA JUMPI PUSH1 0x0 DUP1 REVERT JUMPDEST DUP4 CALLDATALOAD PUSH8 0xFFFFFFFFFFFFFFFF DUP1 DUP3 GT ISZERO PUSH2 0x15E2 JUMPI PUSH1 0x0 DUP1 REVERT JUMPDEST PUSH2 0x15EE DUP8 DUP4 DUP9 ADD PUSH2 0x11DE JUMP JUMPDEST SWAP5 POP PUSH1 0x20 DUP7 ADD CALLDATALOAD SWAP2 POP DUP1 DUP3 GT ISZERO PUSH2 0x1604 JUMPI PUSH1 0x0 DUP1 REVERT JUMPDEST PUSH2 0x1610 DUP8 DUP4 DUP9 ADD PUSH2 0x11DE JUMP JUMPDEST SWAP4 POP PUSH1 0x40 DUP7 ADD CALLDATALOAD SWAP2 POP DUP1 DUP3 GT ISZERO PUSH2 0x1626 JUMPI PUSH1 0x0 DUP1 REVERT JUMPDEST POP PUSH2 0x1633 DUP7 DUP3 DUP8 ADD PUSH2 0x11DE JUMP JUMPDEST SWAP2 POP POP SWAP3 POP SWAP3 POP SWAP3 JUMP JUMPDEST PUSH1 0x1 PUSH1 0x1 PUSH1 0xA0 SHL SUB DUP5 AND DUP2 MSTORE PUSH1 0x60 PUSH1 0x20 DUP3 ADD DUP2 SWAP1 MSTORE PUSH1 0x0 SWAP1 PUSH2 0x1661 SWAP1 DUP4 ADD DUP6 PUSH2 0x1463 JUMP JUMPDEST SWAP1 POP DUP3 ISZERO ISZERO PUSH1 0x40 DUP4 ADD MSTORE SWAP5 SWAP4 POP POP POP POP JUMP JUMPDEST PUSH1 0x0 DUP1 PUSH1 0x0 DUP1 PUSH1 0x80 DUP6 DUP8 SUB SLT ISZERO PUSH2 0x1689 JUMPI PUSH1 0x0 DUP1 REVERT JUMPDEST DUP5 CALLDATALOAD SWAP4 POP PUSH2 0x1699 PUSH1 0x20 DUP7 ADD PUSH2 0x135C JUMP JUMPDEST SWAP3 POP PUSH1 0x40 DUP6 ADD CALLDATALOAD PUSH8 0xFFFFFFFFFFFFFFFF DUP1 DUP3 GT ISZERO PUSH2 0x16B6 JUMPI PUSH1 0x0 DUP1 REVERT JUMPDEST PUSH2 0x16C2 DUP9 DUP4 DUP10 ADD PUSH2 0x11DE JUMP JUMPDEST SWAP4 POP PUSH1 0x60 DUP8 ADD CALLDATALOAD SWAP2 POP DUP1 DUP3 GT ISZERO PUSH2 0x16D8 JUMPI PUSH1 0x0 DUP1 REVERT JUMPDEST POP PUSH2 0x16E5 DUP8 DUP3 DUP9 ADD PUSH2 0x11DE JUMP JUMPDEST SWAP2 POP POP SWAP3 SWAP6 SWAP2 SWAP5 POP SWAP3 POP JUMP JUMPDEST PUSH1 0x0 DUP1 PUSH1 0x40 DUP4 DUP6 SUB SLT ISZERO PUSH2 0x1704 JUMPI PUSH1 0x0 DUP1 REVERT JUMPDEST DUP3 CALLDATALOAD SWAP2 POP PUSH2 0x1714 PUSH1 0x20 DUP5 ADD PUSH2 0x11AC JUMP JUMPDEST SWAP1 POP SWAP3 POP SWAP3 SWAP1 POP JUMP JUMPDEST DUP4 ISZERO ISZERO DUP2 MSTORE DUP3 ISZERO ISZERO PUSH1 0x20 DUP3 ADD MSTORE PUSH1 0x60 PUSH1 0x40 DUP3 ADD MSTORE PUSH1 0x0 PUSH2 0x1740 PUSH1 0x60 DUP4 ADD DUP5 PUSH2 0x1463 JUMP JUMPDEST SWAP6 SWAP5 POP POP POP POP POP JUMP JUMPDEST PUSH1 0x1 PUSH1 0x1 PUSH1 0xA0 SHL SUB DUP11 AND DUP2 MSTORE PUSH1 0x0 PUSH2 0x120 PUSH1 0x9 DUP12 LT PUSH2 0x1778 JUMPI PUSH4 0x4E487B71 PUSH1 0xE0 SHL PUSH1 0x0 MSTORE PUSH1 0x21 PUSH1 0x4 MSTORE PUSH1 0x24 PUSH1 0x0 REVERT JUMPDEST DUP11 PUSH1 0x20 DUP5 ADD MSTORE DUP1 PUSH1 0x40 DUP5 ADD MSTORE PUSH2 0x1790 DUP2 DUP5 ADD DUP12 PUSH2 0x1463 JUMP JUMPDEST SWAP2 POP POP DUP8 PUSH1 0x60 DUP4 ADD MSTORE PUSH1 0xFF DUP8 AND PUSH1 0x80 DUP4 ADD MSTORE PUSH1 0xFF DUP7 AND PUSH1 0xA0 DUP4 ADD MSTORE DUP5 ISZERO ISZERO PUSH1 0xC0 DUP4 ADD MSTORE PUSH2 0x17C1 PUSH1 0xE0 DUP4 ADD DUP6 ISZERO ISZERO SWAP1 MSTORE JUMP JUMPDEST DUP3 PUSH2 0x100 DUP4 ADD MSTORE SWAP11 SWAP10 POP POP POP POP POP POP POP POP POP POP JUMP JUMPDEST PUSH1 0x0 DUP1 PUSH1 0x0 DUP1 PUSH1 0x0 PUSH1 0xA0 DUP7 DUP9 SUB SLT ISZERO PUSH2 0x17EE JUMPI PUSH1 0x0 DUP1 REVERT JUMPDEST PUSH2 0x17F7 DUP7 PUSH2 0x11AC JUMP JUMPDEST SWAP5 POP PUSH1 0x20 DUP7 ADD CALLDATALOAD SWAP4 POP PUSH2 0x180C PUSH1 0x40 DUP8 ADD PUSH2 0x11AC JUMP JUMPDEST SWAP3 POP PUSH1 0x60 DUP7 ADD CALLDATALOAD PUSH8 0xFFFFFFFFFFFFFFFF DUP2 GT ISZERO PUSH2 0x133E JUMPI PUSH1 0x0 DUP1 REVERT JUMPDEST PUSH1 0x0 DUP1 PUSH1 0x0 DUP1 PUSH1 0x80 DUP6 DUP8 SUB SLT ISZERO PUSH2 0x183E JUMPI PUSH1 0x0 DUP1 REVERT JUMPDEST PUSH2 0x1847 DUP6 PUSH2 0x11AC JUMP JUMPDEST SWAP4 POP PUSH1 0x20 DUP6 ADD CALLDATALOAD PUSH8 0xFFFFFFFFFFFFFFFF DUP1 DUP3 GT ISZERO PUSH2 0x1864 JUMPI PUSH1 0x0 DUP1 REVERT JUMPDEST PUSH2 0x1870 DUP9 DUP4 DUP10 ADD PUSH2 0x11DE JUMP JUMPDEST SWAP5 POP PUSH1 0x40 DUP8 ADD CALLDATALOAD SWAP4 POP PUSH1 0x60 DUP8 ADD CALLDATALOAD SWAP2 POP DUP1 DUP3 GT ISZERO PUSH2 0x16D8 JUMPI PUSH1 0x0 DUP1 REVERT JUMPDEST PUSH1 0x1 DUP1 PUSH1 0xA0 SHL SUB DUP6 AND DUP2 MSTORE DUP4 PUSH1 0x20 DUP3 ADD MSTORE PUSH1 0x80 PUSH1 0x40 DUP3 ADD MSTORE PUSH1 0x0 PUSH2 0x18B4 PUSH1 0x80 DUP4 ADD DUP6 PUSH2 0x1463 JUMP JUMPDEST SWAP1 POP DUP3 PUSH1 0x60 DUP4 ADD MSTORE SWAP6 SWAP5 POP POP POP POP POP JUMP JUMPDEST PUSH1 0x0 DUP3 MLOAD PUSH2 0x18D7 DUP2 DUP5 PUSH1 0x20 DUP8 ADD PUSH2 0x1437 JUMP JUMPDEST SWAP2 SWAP1 SWAP2 ADD SWAP3 SWAP2 POP POP JUMP JUMPDEST PUSH1 0x1 PUSH1 0x1 PUSH1 0xA0 SHL SUB DUP7 DUP2 AND DUP3 MSTORE DUP6 AND PUSH1 0x20 DUP3 ADD MSTORE PUSH1 0x40 DUP2 ADD DUP5 SWAP1 MSTORE PUSH1 0xA0 PUSH1 0x60 DUP3 ADD DUP2 SWAP1 MSTORE PUSH1 0x0 SWAP1 PUSH2 0x1914 SWAP1 DUP4 ADD DUP6 PUSH2 0x1463 JUMP JUMPDEST SWAP1 POP DUP3 PUSH1 0x80 DUP4 ADD MSTORE SWAP7 SWAP6 POP POP POP POP POP POP JUMP JUMPDEST PUSH1 0x1 PUSH1 0x1 PUSH1 0xA0 SHL SUB DUP8 AND DUP2 MSTORE PUSH1 0xC0 PUSH1 0x20 DUP3 ADD DUP2 SWAP1 MSTORE PUSH1 0x0 SWAP1 PUSH2 0x194A SWAP1 DUP4 ADD DUP9 PUSH2 0x1463 JUMP JUMPDEST DUP3 DUP2 SUB PUSH1 0x40 DUP5 ADD MSTORE PUSH2 0x195C DUP2 DUP9 PUSH2 0x1463 JUMP JUMPDEST SWAP1 POP DUP6 ISZERO ISZERO PUSH1 0x60 DUP5 ADD MSTORE DUP5 PUSH1 0x80 DUP5 ADD MSTORE DUP3 DUP2 SUB PUSH1 0xA0 DUP5 ADD MSTORE PUSH2 0x197E DUP2 DUP6 PUSH2 0x1463 JUMP JUMPDEST SWAP10 SWAP9 POP POP POP POP POP POP POP POP POP JUMP JUMPDEST PUSH1 0x1 DUP2 DUP2 SHR SWAP1 DUP3 AND DUP1 PUSH2 0x199F JUMPI PUSH1 0x7F DUP3 AND SWAP2 POP JUMPDEST PUSH1 0x20 DUP3 LT DUP2 EQ ISZERO PUSH2 0x19C0 JUMPI PUSH4 0x4E487B71 PUSH1 0xE0 SHL PUSH1 0x0 MSTORE PUSH1 0x22 PUSH1 0x4 MSTORE PUSH1 0x24 PUSH1 0x0 REVERT JUMPDEST POP SWAP2 SWAP1 POP JUMP JUMPDEST PUSH1 0xFF DUP5 AND DUP2 MSTORE PUSH1 0x60 PUSH1 0x20 DUP3 ADD MSTORE PUSH1 0x0 PUSH2 0x19E2 PUSH1 0x60 DUP4 ADD DUP6 PUSH2 0x1463 JUMP JUMPDEST SWAP1 POP DUP3 PUSH1 0x40 DUP4 ADD MSTORE SWAP5 SWAP4 POP POP POP POP JUMP JUMPDEST PUSH1 0x60 DUP2 MSTORE PUSH1 0x0 PUSH2 0x1A05 PUSH1 0x60 DUP4 ADD DUP7 PUSH2 0x1463 JUMP JUMPDEST DUP3 DUP2 SUB PUSH1 0x20 DUP5 ADD MSTORE PUSH2 0x1A17 DUP2 DUP7 PUSH2 0x1463 JUMP JUMPDEST SWAP1 POP DUP3 DUP2 SUB PUSH1 0x40 DUP5 ADD MSTORE PUSH2 0x1A2B DUP2 DUP6 PUSH2 0x1463 JUMP JUMPDEST SWAP7 SWAP6 POP POP POP POP POP POP JUMP JUMPDEST DUP5 DUP2 MSTORE DUP4 ISZERO ISZERO PUSH1 0x20 DUP3 ADD MSTORE PUSH1 0x80 PUSH1 0x40 DUP3 ADD MSTORE PUSH1 0x0 PUSH2 0x1A56 PUSH1 0x80 DUP4 ADD DUP6 PUSH2 0x1463 JUMP JUMPDEST DUP3 DUP2 SUB PUSH1 0x60 DUP5 ADD MSTORE PUSH2 0x1A68 DUP2 DUP6 PUSH2 0x1463 JUMP JUMPDEST SWAP8 SWAP7 POP POP POP POP POP POP POP JUMP JUMPDEST PUSH1 0x1 PUSH1 0x1 PUSH1 0xA0 SHL SUB DUP7 DUP2 AND DUP3 MSTORE PUSH1 0x20 DUP3 ADD DUP7 SWAP1 MSTORE DUP5 AND PUSH1 0x40 DUP3 ADD MSTORE PUSH1 0xA0 PUSH1 0x60 DUP3 ADD DUP2 SWAP1 MSTORE PUSH1 0x0 SWAP1 PUSH2 0x1914 SWAP1 DUP4 ADD DUP6 PUSH2 0x1463 JUMP JUMPDEST PUSH1 0x1 PUSH1 0x1 PUSH1 0xA0 SHL SUB DUP6 AND DUP2 MSTORE PUSH1 0x80 PUSH1 0x20 DUP3 ADD DUP2 SWAP1 MSTORE PUSH1 0x0 SWAP1 PUSH2 0x1ACA SWAP1 DUP4 ADD DUP7 PUSH2 0x1463 JUMP JUMPDEST DUP5 PUSH1 0x40 DUP5 ADD MSTORE DUP3 DUP2 SUB PUSH1 0x60 DUP5 ADD MSTORE PUSH2 0x1A68 DUP2 DUP6 PUSH2 0x1463 JUMP INVALID LOG2 PUSH5 0x6970667358 0x22 SLT KECCAK256 PUSH32 0x5EEF9B3C9F0A2554766314FAA638F84E2C8E90249F44065DBBE478C7D1D3D364 PUSH20 0x6F6C634300080C0033A2646970667358221220B0 DUP5 OR DUP12 SWAP5 SUB PUSH6 0xCA9BEEB62F3D 0x49 SWAP1 0xCD 0xCD 0xD9 SWAP4 PUSH11 0xAEE6459F548966410622AF PC PUSH5 0x736F6C6343 STOP ADDMOD 0xC STOP CALLER ",
  "sha1": "973dadd5c8200b847bb629ea4ce0c27f43d68453",
  "source": "// SPDX-License-Identifier: MIT\npragma solidity ^0.8.11;\n\nimport \"./CLHouse.sol\";\n\n/// @title A factory to deploy CLHouses easy\n/// @author Leonardo Urrego\n/// @notice This contract is only for test \ncontract CLFactory {\n\n    event evtHouseCreation( address houseAddr, string houseName, uint256 houseId );\n\n\tCLHouse[] public arrCLH;\n    uint256 public numCLH = 0;\n    mapping( address => uint256 ) public mapCLHId;     // TODO: remove\n    address APICLH;\n    address CLCMemberManagement;\n    address CLCGovernance;\n    address CLLConstructor;\n\n    constructor( \n        address _CLCMemberManagement,\n        address _CLCGovernance,\n        address _CLLConstructor,\n        address _APICLH\n    ) {\n        CLCMemberManagement = _CLCMemberManagement;\n        CLCGovernance = _CLCGovernance;\n        CLLConstructor = _CLLConstructor;\n        APICLH = _APICLH;\n        address[] memory _whiteListWallets = new address[] ( 0 );\n        CreateCLH( {\n            _houseName: \"CLH #0\",\n            _housePrivate: false,\n            _govModel: __GOV_DICTATORSHIP__,\n            _govRules: [ 1, 99, 100 ],\n            // _govRuleMaxManagerMembers: 1,\n            // _govRuleMaxActiveMembers: 99,\n            // _govRuleApprovPercentage: 100,\n            _whiteListWallets: _whiteListWallets,\n            _signerWallet: address( 0 ),\n            _signature: \"\"\n        } );\n        numCLH--;\n    }\n\n    /// @notice Deploy a new copy of CLHouse\n    /// @dev Some parameters can be ignored depending on the governance model\n    /// @param _houseName Name of the CLH\n    /// @param _housePrivate If is set to 1, the CLH is set to private\n    /// @param _govModel keccak256 hash of the governance model, see the __GOV_* constans\n    // / @param _govRuleMaxManagerMembers Max of manager member that CLH can accept (only for COMMITTEE )\n    // / @param _govRuleMaxActiveMembers Max of all members (including managers)\n    // / @param _govRuleApprovPercentage Percentage for approval o reject proposal based on `numManagerMembers`\n    /// @param _whiteListWallets Whitelist of address for invitate as managers\n    function CreateCLH(\n        string memory _houseName,\n        bool _housePrivate,\n        bytes32 _govModel,\n        uint8[3] memory _govRules,\n        // uint8 _govRuleMaxManagerMembers,\n        // uint8 _govRuleMaxActiveMembers,\n        // uint8 _govRuleApprovPercentage,\n        address[] memory _whiteListWallets,\n        address _signerWallet,\n        bytes memory _signature\n    ) \n        // modCheckGov( _govModel )\n        public\n        returns( address )\n    {\n        CLHouse daoCLH;\n        address houseOwner = msg.sender;\n\n        require( \n            __GOV_DICTATORSHIP__ == _govModel ||\n            __GOV_COMMITTEE__ == _govModel ||\n            __GOV_SIMPLE_MAJORITY__ == _govModel ,\n            \"Invalid Governance Type\"\n        );\n\n        if( _signerWallet != address(0) ) {\n            require( _signature.length == 65, \"NewCLH: Bad signature length\" );\n            \n            require(\n                _signerWallet == ApiCLHouse( APICLH ).SignerOCNewCLH(\n                    _houseName,\n                    _housePrivate,\n                    _govModel,\n                    _govRules[0], // _govRuleMaxManagerMembers,\n                    _govRules[1], // _govRuleMaxActiveMembers,\n                    _govRules[2], // _govRuleApprovPercentage,\n                    _whiteListWallets[0],\n                    address(this),\n                    _signature\n                ),\n                \"NewCLH: Invalid Signature\"\n            );\n\n            houseOwner = _signerWallet;\n        }\n\n\n        daoCLH = ( new CLHouse )\n        ( {\n            _owner: houseOwner,\n            _houseName: _houseName,\n            _housePrivate: _housePrivate,\n            _govModel: _govModel,\n            _govRules: _govRules,\n            // _govRuleMaxManagerMembers: _govRuleMaxManagerMembers,\n            // _govRuleMaxActiveMembers: _govRuleMaxActiveMembers,\n            // _govRuleApprovPercentage: _govRuleApprovPercentage,\n            _CCL: [ CLCMemberManagement, CLCGovernance, CLLConstructor, APICLH ],\n            // _CLCMemberManagement: CLCMemberManagement,\n            // _CLCGovernance: CLCGovernance,\n            // _CLLConstructor: CLLConstructor,\n            _whiteListWallets: _whiteListWallets\n        } );\n\n        address adrCLH = address( daoCLH );\n        uint256 houseId = arrCLH.length;\n        arrCLH.push( daoCLH );\n        numCLH++;\n        mapCLHId[ adrCLH ] = houseId;\n\n        emit evtHouseCreation( adrCLH, _houseName, houseId );\n        \n        return adrCLH;\n    }\n\n    /// @notice The list of all houses created by the factory\n    /// @return arrCLH the array with all address\n    function GetHousesList()\n        external \n        returns(\n            CLHouse[] memory\n        )\n    {\n        return arrCLH;\n    }\n\n    /// @notice List of membership houses to one user\n    /// @param _walletAddr The user address\n    /// @return arrHouses List of address houses\n    function GetHousesByUser(\n        address _walletAddr\n    )\n        external\n        view\n        returns(\n            address[] memory\n        )\n    {\n        address[] memory arrHouses = new address[] ( arrCLH.length );\n        uint256 indexarr = 0;\n        for( uint256 did = 1 ; did <= numCLH ; did++ )\n            if( 0 != arrCLH[ did ].mapIdMember( _walletAddr ) )\n                arrHouses[ indexarr++ ] = address( arrCLH[ did ] ) ;\n\n        return arrHouses;\n    }\n\n    /// @notice List of houses that have an invitation pending for certatin user\n    /// @param _walletAddr The user address\n    /// @return arrHouses List of address houses\n    function GetInvitationsByUser(\n        address _walletAddr\n    )\n        external\n        view\n        returns(\n            address[] memory\n        )\n    {\n        address[] memory arrHouses = new address[] ( arrCLH.length );\n        uint256 indexarr = 0;\n        for( uint256 did = 1 ; did <= numCLH ; did++ )\n            if( 0 != arrCLH[ did ].mapInvitationMember( _walletAddr ) )\n                arrHouses[ indexarr++ ] = address( arrCLH[ did ] ) ;\n\n        return arrHouses;\n    }\n}",
  "sourcePath": "contracts/CLHouse/CLFactory.sol",
  "type": "contract"
}