{
  "abi": [
    {
      "inputs": [
        {
          "internalType": "address",
          "name": "_addrCLF",
          "type": "address"
        }
      ],
      "name": "GetHouseList",
      "outputs": [
        {
          "internalType": "address[]",
          "name": "arrCLH",
          "type": "address[]"
        }
      ],
      "stateMutability": "view",
      "type": "function"
    },
    {
      "inputs": [
        {
          "internalType": "address",
          "name": "_addrCLF",
          "type": "address"
        },
        {
          "internalType": "address",
          "name": "_walletAddr",
          "type": "address"
        }
      ],
      "name": "GetHousesByUser",
      "outputs": [
        {
          "internalType": "address[]",
          "name": "arrHouses",
          "type": "address[]"
        }
      ],
      "stateMutability": "view",
      "type": "function"
    },
    {
      "inputs": [
        {
          "internalType": "address",
          "name": "_addrCLF",
          "type": "address"
        },
        {
          "internalType": "address",
          "name": "_walletAddr",
          "type": "address"
        }
      ],
      "name": "GetInvitationsByUser",
      "outputs": [
        {
          "internalType": "address[]",
          "name": "arrHouses",
          "type": "address[]"
        }
      ],
      "stateMutability": "view",
      "type": "function"
    }
  ],
  "bytecode": "608060405234801561001057600080fd5b50610788806100206000396000f3fe608060405234801561001057600080fd5b50600436106100415760003560e01c80638191ae1114610046578063ee4ddcf01461006f578063f67bf38414610082575b600080fd5b6100596100543660046105fe565b610095565b6040516100669190610637565b60405180910390f35b61005961007d3660046105fe565b610288565b610059610090366004610684565b610472565b60606000836001600160a01b031663ee7a7d1b6040518163ffffffff1660e01b8152600401602060405180830381865afa1580156100d7573d6000803e3d6000fd5b505050506040513d601f19601f820116820180604052508101906100fb91906106a8565b905060008167ffffffffffffffff811115610118576101186106c1565b604051908082528060200260200182016040528015610141578160200160208202803683370190505b50925060015b82811161027f5760405163189361dd60e21b8152600481018290526000906001600160a01b0388169063624d877490602401602060405180830381865afa158015610196573d6000803e3d6000fd5b505050506040513d601f19601f820116820180604052508101906101ba91906106d7565b60405163287b984560e11b81526001600160a01b038881166004830152919250908216906350f7308a90602401602060405180830381865afa158015610204573d6000803e3d6000fd5b505050506040513d601f19601f8201168201806040525081019061022891906106a8565b1561026c578085846102398161070a565b95508151811061024b5761024b610725565b60200260200101906001600160a01b031690816001600160a01b0316815250505b50806102778161070a565b915050610147565b50505092915050565b60606000836001600160a01b031663ee7a7d1b6040518163ffffffff1660e01b8152600401602060405180830381865afa1580156102ca573d6000803e3d6000fd5b505050506040513d601f19601f820116820180604052508101906102ee91906106a8565b905060008167ffffffffffffffff81111561030b5761030b6106c1565b604051908082528060200260200182016040528015610334578160200160208202803683370190505b50925060015b82811161027f5760405163189361dd60e21b8152600481018290526000906001600160a01b0388169063624d877490602401602060405180830381865afa158015610389573d6000803e3d6000fd5b505050506040513d601f19601f820116820180604052508101906103ad91906106d7565b604051631c3fe46360e21b81526001600160a01b038881166004830152919250908216906370ff918c90602401602060405180830381865afa1580156103f7573d6000803e3d6000fd5b505050506040513d601f19601f8201168201806040525081019061041b91906106a8565b1561045f5780858461042c8161070a565b95508151811061043e5761043e610725565b60200260200101906001600160a01b031690816001600160a01b0316815250505b508061046a8161070a565b91505061033a565b60606000826001600160a01b031663ee7a7d1b6040518163ffffffff1660e01b8152600401602060405180830381865afa1580156104b4573d6000803e3d6000fd5b505050506040513d601f19601f820116820180604052508101906104d891906106a8565b905080156105e0578067ffffffffffffffff8111156104f9576104f96106c1565b604051908082528060200260200182016040528015610522578160200160208202803683370190505b50915060015b8181116105de5760405163189361dd60e21b8152600481018290526001600160a01b0385169063624d877490602401602060405180830381865afa158015610574573d6000803e3d6000fd5b505050506040513d601f19601f8201168201806040525081019061059891906106d7565b836105a460018461073b565b815181106105b4576105b4610725565b6001600160a01b0390921660209283029190910190910152806105d68161070a565b915050610528565b505b50919050565b6001600160a01b03811681146105fb57600080fd5b50565b6000806040838503121561061157600080fd5b823561061c816105e6565b9150602083013561062c816105e6565b809150509250929050565b6020808252825182820181905260009190848201906040850190845b818110156106785783516001600160a01b031683529284019291840191600101610653565b50909695505050505050565b60006020828403121561069657600080fd5b81356106a1816105e6565b9392505050565b6000602082840312156106ba57600080fd5b5051919050565b634e487b7160e01b600052604160045260246000fd5b6000602082840312156106e957600080fd5b81516106a1816105e6565b634e487b7160e01b600052601160045260246000fd5b600060001982141561071e5761071e6106f4565b5060010190565b634e487b7160e01b600052603260045260246000fd5b60008282101561074d5761074d6106f4565b50039056fea2646970667358221220a83d276ac0af0e8595e1605869a0fae20d0430c7fbfbbb1983d1edbb966c39c064736f6c634300080c0033",
  "bytecodeSha1": "1fac5cf5fba0b7be4fb63a302e39bdb3896263aa",
  "compiler": {
    "evm_version": "istanbul",
    "optimizer": {
      "enabled": true,
      "runs": 200
    },
    "version": "0.8.12+commit.f00d7308"
  },
  "contractName": "CLFactoryApi",
  "language": "Solidity",
  "natspec": {
    "author": "Leonardo Urrego",
    "kind": "dev",
    "methods": {
      "GetHouseList(address)": {
        "notice": "Return the list of all houses created by the factory",
        "returns": {
          "arrCLH": "Array with address houses"
        }
      },
      "GetHousesByUser(address,address)": {
        "notice": "List of membership houses of the one wallet address",
        "params": {
          "_addrCLF": "Address of CLfactory proxy",
          "_walletAddr": "User wallet address"
        },
        "returns": {
          "arrHouses": "Array with address houses"
        }
      },
      "GetInvitationsByUser(address,address)": {
        "notice": "List of houses that have an invitation pending for a specific wallet",
        "params": {
          "_addrCLF": "Address of CLfactory proxy",
          "_walletAddr": "The user wallet address"
        },
        "returns": {
          "arrHouses": "Array with address houses"
        }
      }
    },
    "notice": "This contract is only for test ",
    "title": "Some funtions to interact with a CLHouse",
    "version": 1
  },
  "opcodes": "PUSH1 0x80 PUSH1 0x40 MSTORE CALLVALUE DUP1 ISZERO PUSH2 0x10 JUMPI PUSH1 0x0 DUP1 REVERT JUMPDEST POP PUSH1 0x4 CALLDATASIZE LT PUSH2 0x41 JUMPI PUSH1 0x0 CALLDATALOAD PUSH1 0xE0 SHR DUP1 PUSH4 0x8191AE11 EQ PUSH2 0x46 JUMPI DUP1 PUSH4 0xEE4DDCF0 EQ PUSH2 0x6F JUMPI DUP1 PUSH4 0xF67BF384 EQ PUSH2 0x82 JUMPI JUMPDEST PUSH1 0x0 DUP1 REVERT JUMPDEST PUSH2 0x59 PUSH2 0x54 CALLDATASIZE PUSH1 0x4 PUSH2 0x5FE JUMP JUMPDEST PUSH2 0x95 JUMP JUMPDEST PUSH1 0x40 MLOAD PUSH2 0x66 SWAP2 SWAP1 PUSH2 0x637 JUMP JUMPDEST PUSH1 0x40 MLOAD DUP1 SWAP2 SUB SWAP1 RETURN JUMPDEST PUSH2 0x59 PUSH2 0x7D CALLDATASIZE PUSH1 0x4 PUSH2 0x5FE JUMP JUMPDEST PUSH2 0x288 JUMP JUMPDEST PUSH2 0x59 PUSH2 0x90 CALLDATASIZE PUSH1 0x4 PUSH2 0x684 JUMP JUMPDEST PUSH2 0x472 JUMP JUMPDEST PUSH1 0x60 PUSH1 0x0 DUP4 PUSH1 0x1 PUSH1 0x1 PUSH1 0xA0 SHL SUB AND PUSH4 0xEE7A7D1B PUSH1 0x40 MLOAD DUP2 PUSH4 0xFFFFFFFF AND PUSH1 0xE0 SHL DUP2 MSTORE PUSH1 0x4 ADD PUSH1 0x20 PUSH1 0x40 MLOAD DUP1 DUP4 SUB DUP2 DUP7 GAS STATICCALL ISZERO DUP1 ISZERO PUSH2 0xD7 JUMPI RETURNDATASIZE PUSH1 0x0 DUP1 RETURNDATACOPY RETURNDATASIZE PUSH1 0x0 REVERT JUMPDEST POP POP POP POP PUSH1 0x40 MLOAD RETURNDATASIZE PUSH1 0x1F NOT PUSH1 0x1F DUP3 ADD AND DUP3 ADD DUP1 PUSH1 0x40 MSTORE POP DUP2 ADD SWAP1 PUSH2 0xFB SWAP2 SWAP1 PUSH2 0x6A8 JUMP JUMPDEST SWAP1 POP PUSH1 0x0 DUP2 PUSH8 0xFFFFFFFFFFFFFFFF DUP2 GT ISZERO PUSH2 0x118 JUMPI PUSH2 0x118 PUSH2 0x6C1 JUMP JUMPDEST PUSH1 0x40 MLOAD SWAP1 DUP1 DUP3 MSTORE DUP1 PUSH1 0x20 MUL PUSH1 0x20 ADD DUP3 ADD PUSH1 0x40 MSTORE DUP1 ISZERO PUSH2 0x141 JUMPI DUP2 PUSH1 0x20 ADD PUSH1 0x20 DUP3 MUL DUP1 CALLDATASIZE DUP4 CALLDATACOPY ADD SWAP1 POP JUMPDEST POP SWAP3 POP PUSH1 0x1 JUMPDEST DUP3 DUP2 GT PUSH2 0x27F JUMPI PUSH1 0x40 MLOAD PUSH4 0x189361DD PUSH1 0xE2 SHL DUP2 MSTORE PUSH1 0x4 DUP2 ADD DUP3 SWAP1 MSTORE PUSH1 0x0 SWAP1 PUSH1 0x1 PUSH1 0x1 PUSH1 0xA0 SHL SUB DUP9 AND SWAP1 PUSH4 0x624D8774 SWAP1 PUSH1 0x24 ADD PUSH1 0x20 PUSH1 0x40 MLOAD DUP1 DUP4 SUB DUP2 DUP7 GAS STATICCALL ISZERO DUP1 ISZERO PUSH2 0x196 JUMPI RETURNDATASIZE PUSH1 0x0 DUP1 RETURNDATACOPY RETURNDATASIZE PUSH1 0x0 REVERT JUMPDEST POP POP POP POP PUSH1 0x40 MLOAD RETURNDATASIZE PUSH1 0x1F NOT PUSH1 0x1F DUP3 ADD AND DUP3 ADD DUP1 PUSH1 0x40 MSTORE POP DUP2 ADD SWAP1 PUSH2 0x1BA SWAP2 SWAP1 PUSH2 0x6D7 JUMP JUMPDEST PUSH1 0x40 MLOAD PUSH4 0x287B9845 PUSH1 0xE1 SHL DUP2 MSTORE PUSH1 0x1 PUSH1 0x1 PUSH1 0xA0 SHL SUB DUP9 DUP2 AND PUSH1 0x4 DUP4 ADD MSTORE SWAP2 SWAP3 POP SWAP1 DUP3 AND SWAP1 PUSH4 0x50F7308A SWAP1 PUSH1 0x24 ADD PUSH1 0x20 PUSH1 0x40 MLOAD DUP1 DUP4 SUB DUP2 DUP7 GAS STATICCALL ISZERO DUP1 ISZERO PUSH2 0x204 JUMPI RETURNDATASIZE PUSH1 0x0 DUP1 RETURNDATACOPY RETURNDATASIZE PUSH1 0x0 REVERT JUMPDEST POP POP POP POP PUSH1 0x40 MLOAD RETURNDATASIZE PUSH1 0x1F NOT PUSH1 0x1F DUP3 ADD AND DUP3 ADD DUP1 PUSH1 0x40 MSTORE POP DUP2 ADD SWAP1 PUSH2 0x228 SWAP2 SWAP1 PUSH2 0x6A8 JUMP JUMPDEST ISZERO PUSH2 0x26C JUMPI DUP1 DUP6 DUP5 PUSH2 0x239 DUP2 PUSH2 0x70A JUMP JUMPDEST SWAP6 POP DUP2 MLOAD DUP2 LT PUSH2 0x24B JUMPI PUSH2 0x24B PUSH2 0x725 JUMP JUMPDEST PUSH1 0x20 MUL PUSH1 0x20 ADD ADD SWAP1 PUSH1 0x1 PUSH1 0x1 PUSH1 0xA0 SHL SUB AND SWAP1 DUP2 PUSH1 0x1 PUSH1 0x1 PUSH1 0xA0 SHL SUB AND DUP2 MSTORE POP POP JUMPDEST POP DUP1 PUSH2 0x277 DUP2 PUSH2 0x70A JUMP JUMPDEST SWAP2 POP POP PUSH2 0x147 JUMP JUMPDEST POP POP POP SWAP3 SWAP2 POP POP JUMP JUMPDEST PUSH1 0x60 PUSH1 0x0 DUP4 PUSH1 0x1 PUSH1 0x1 PUSH1 0xA0 SHL SUB AND PUSH4 0xEE7A7D1B PUSH1 0x40 MLOAD DUP2 PUSH4 0xFFFFFFFF AND PUSH1 0xE0 SHL DUP2 MSTORE PUSH1 0x4 ADD PUSH1 0x20 PUSH1 0x40 MLOAD DUP1 DUP4 SUB DUP2 DUP7 GAS STATICCALL ISZERO DUP1 ISZERO PUSH2 0x2CA JUMPI RETURNDATASIZE PUSH1 0x0 DUP1 RETURNDATACOPY RETURNDATASIZE PUSH1 0x0 REVERT JUMPDEST POP POP POP POP PUSH1 0x40 MLOAD RETURNDATASIZE PUSH1 0x1F NOT PUSH1 0x1F DUP3 ADD AND DUP3 ADD DUP1 PUSH1 0x40 MSTORE POP DUP2 ADD SWAP1 PUSH2 0x2EE SWAP2 SWAP1 PUSH2 0x6A8 JUMP JUMPDEST SWAP1 POP PUSH1 0x0 DUP2 PUSH8 0xFFFFFFFFFFFFFFFF DUP2 GT ISZERO PUSH2 0x30B JUMPI PUSH2 0x30B PUSH2 0x6C1 JUMP JUMPDEST PUSH1 0x40 MLOAD SWAP1 DUP1 DUP3 MSTORE DUP1 PUSH1 0x20 MUL PUSH1 0x20 ADD DUP3 ADD PUSH1 0x40 MSTORE DUP1 ISZERO PUSH2 0x334 JUMPI DUP2 PUSH1 0x20 ADD PUSH1 0x20 DUP3 MUL DUP1 CALLDATASIZE DUP4 CALLDATACOPY ADD SWAP1 POP JUMPDEST POP SWAP3 POP PUSH1 0x1 JUMPDEST DUP3 DUP2 GT PUSH2 0x27F JUMPI PUSH1 0x40 MLOAD PUSH4 0x189361DD PUSH1 0xE2 SHL DUP2 MSTORE PUSH1 0x4 DUP2 ADD DUP3 SWAP1 MSTORE PUSH1 0x0 SWAP1 PUSH1 0x1 PUSH1 0x1 PUSH1 0xA0 SHL SUB DUP9 AND SWAP1 PUSH4 0x624D8774 SWAP1 PUSH1 0x24 ADD PUSH1 0x20 PUSH1 0x40 MLOAD DUP1 DUP4 SUB DUP2 DUP7 GAS STATICCALL ISZERO DUP1 ISZERO PUSH2 0x389 JUMPI RETURNDATASIZE PUSH1 0x0 DUP1 RETURNDATACOPY RETURNDATASIZE PUSH1 0x0 REVERT JUMPDEST POP POP POP POP PUSH1 0x40 MLOAD RETURNDATASIZE PUSH1 0x1F NOT PUSH1 0x1F DUP3 ADD AND DUP3 ADD DUP1 PUSH1 0x40 MSTORE POP DUP2 ADD SWAP1 PUSH2 0x3AD SWAP2 SWAP1 PUSH2 0x6D7 JUMP JUMPDEST PUSH1 0x40 MLOAD PUSH4 0x1C3FE463 PUSH1 0xE2 SHL DUP2 MSTORE PUSH1 0x1 PUSH1 0x1 PUSH1 0xA0 SHL SUB DUP9 DUP2 AND PUSH1 0x4 DUP4 ADD MSTORE SWAP2 SWAP3 POP SWAP1 DUP3 AND SWAP1 PUSH4 0x70FF918C SWAP1 PUSH1 0x24 ADD PUSH1 0x20 PUSH1 0x40 MLOAD DUP1 DUP4 SUB DUP2 DUP7 GAS STATICCALL ISZERO DUP1 ISZERO PUSH2 0x3F7 JUMPI RETURNDATASIZE PUSH1 0x0 DUP1 RETURNDATACOPY RETURNDATASIZE PUSH1 0x0 REVERT JUMPDEST POP POP POP POP PUSH1 0x40 MLOAD RETURNDATASIZE PUSH1 0x1F NOT PUSH1 0x1F DUP3 ADD AND DUP3 ADD DUP1 PUSH1 0x40 MSTORE POP DUP2 ADD SWAP1 PUSH2 0x41B SWAP2 SWAP1 PUSH2 0x6A8 JUMP JUMPDEST ISZERO PUSH2 0x45F JUMPI DUP1 DUP6 DUP5 PUSH2 0x42C DUP2 PUSH2 0x70A JUMP JUMPDEST SWAP6 POP DUP2 MLOAD DUP2 LT PUSH2 0x43E JUMPI PUSH2 0x43E PUSH2 0x725 JUMP JUMPDEST PUSH1 0x20 MUL PUSH1 0x20 ADD ADD SWAP1 PUSH1 0x1 PUSH1 0x1 PUSH1 0xA0 SHL SUB AND SWAP1 DUP2 PUSH1 0x1 PUSH1 0x1 PUSH1 0xA0 SHL SUB AND DUP2 MSTORE POP POP JUMPDEST POP DUP1 PUSH2 0x46A DUP2 PUSH2 0x70A JUMP JUMPDEST SWAP2 POP POP PUSH2 0x33A JUMP JUMPDEST PUSH1 0x60 PUSH1 0x0 DUP3 PUSH1 0x1 PUSH1 0x1 PUSH1 0xA0 SHL SUB AND PUSH4 0xEE7A7D1B PUSH1 0x40 MLOAD DUP2 PUSH4 0xFFFFFFFF AND PUSH1 0xE0 SHL DUP2 MSTORE PUSH1 0x4 ADD PUSH1 0x20 PUSH1 0x40 MLOAD DUP1 DUP4 SUB DUP2 DUP7 GAS STATICCALL ISZERO DUP1 ISZERO PUSH2 0x4B4 JUMPI RETURNDATASIZE PUSH1 0x0 DUP1 RETURNDATACOPY RETURNDATASIZE PUSH1 0x0 REVERT JUMPDEST POP POP POP POP PUSH1 0x40 MLOAD RETURNDATASIZE PUSH1 0x1F NOT PUSH1 0x1F DUP3 ADD AND DUP3 ADD DUP1 PUSH1 0x40 MSTORE POP DUP2 ADD SWAP1 PUSH2 0x4D8 SWAP2 SWAP1 PUSH2 0x6A8 JUMP JUMPDEST SWAP1 POP DUP1 ISZERO PUSH2 0x5E0 JUMPI DUP1 PUSH8 0xFFFFFFFFFFFFFFFF DUP2 GT ISZERO PUSH2 0x4F9 JUMPI PUSH2 0x4F9 PUSH2 0x6C1 JUMP JUMPDEST PUSH1 0x40 MLOAD SWAP1 DUP1 DUP3 MSTORE DUP1 PUSH1 0x20 MUL PUSH1 0x20 ADD DUP3 ADD PUSH1 0x40 MSTORE DUP1 ISZERO PUSH2 0x522 JUMPI DUP2 PUSH1 0x20 ADD PUSH1 0x20 DUP3 MUL DUP1 CALLDATASIZE DUP4 CALLDATACOPY ADD SWAP1 POP JUMPDEST POP SWAP2 POP PUSH1 0x1 JUMPDEST DUP2 DUP2 GT PUSH2 0x5DE JUMPI PUSH1 0x40 MLOAD PUSH4 0x189361DD PUSH1 0xE2 SHL DUP2 MSTORE PUSH1 0x4 DUP2 ADD DUP3 SWAP1 MSTORE PUSH1 0x1 PUSH1 0x1 PUSH1 0xA0 SHL SUB DUP6 AND SWAP1 PUSH4 0x624D8774 SWAP1 PUSH1 0x24 ADD PUSH1 0x20 PUSH1 0x40 MLOAD DUP1 DUP4 SUB DUP2 DUP7 GAS STATICCALL ISZERO DUP1 ISZERO PUSH2 0x574 JUMPI RETURNDATASIZE PUSH1 0x0 DUP1 RETURNDATACOPY RETURNDATASIZE PUSH1 0x0 REVERT JUMPDEST POP POP POP POP PUSH1 0x40 MLOAD RETURNDATASIZE PUSH1 0x1F NOT PUSH1 0x1F DUP3 ADD AND DUP3 ADD DUP1 PUSH1 0x40 MSTORE POP DUP2 ADD SWAP1 PUSH2 0x598 SWAP2 SWAP1 PUSH2 0x6D7 JUMP JUMPDEST DUP4 PUSH2 0x5A4 PUSH1 0x1 DUP5 PUSH2 0x73B JUMP JUMPDEST DUP2 MLOAD DUP2 LT PUSH2 0x5B4 JUMPI PUSH2 0x5B4 PUSH2 0x725 JUMP JUMPDEST PUSH1 0x1 PUSH1 0x1 PUSH1 0xA0 SHL SUB SWAP1 SWAP3 AND PUSH1 0x20 SWAP3 DUP4 MUL SWAP2 SWAP1 SWAP2 ADD SWAP1 SWAP2 ADD MSTORE DUP1 PUSH2 0x5D6 DUP2 PUSH2 0x70A JUMP JUMPDEST SWAP2 POP POP PUSH2 0x528 JUMP JUMPDEST POP JUMPDEST POP SWAP2 SWAP1 POP JUMP JUMPDEST PUSH1 0x1 PUSH1 0x1 PUSH1 0xA0 SHL SUB DUP2 AND DUP2 EQ PUSH2 0x5FB JUMPI PUSH1 0x0 DUP1 REVERT JUMPDEST POP JUMP JUMPDEST PUSH1 0x0 DUP1 PUSH1 0x40 DUP4 DUP6 SUB SLT ISZERO PUSH2 0x611 JUMPI PUSH1 0x0 DUP1 REVERT JUMPDEST DUP3 CALLDATALOAD PUSH2 0x61C DUP2 PUSH2 0x5E6 JUMP JUMPDEST SWAP2 POP PUSH1 0x20 DUP4 ADD CALLDATALOAD PUSH2 0x62C DUP2 PUSH2 0x5E6 JUMP JUMPDEST DUP1 SWAP2 POP POP SWAP3 POP SWAP3 SWAP1 POP JUMP JUMPDEST PUSH1 0x20 DUP1 DUP3 MSTORE DUP3 MLOAD DUP3 DUP3 ADD DUP2 SWAP1 MSTORE PUSH1 0x0 SWAP2 SWAP1 DUP5 DUP3 ADD SWAP1 PUSH1 0x40 DUP6 ADD SWAP1 DUP5 JUMPDEST DUP2 DUP2 LT ISZERO PUSH2 0x678 JUMPI DUP4 MLOAD PUSH1 0x1 PUSH1 0x1 PUSH1 0xA0 SHL SUB AND DUP4 MSTORE SWAP3 DUP5 ADD SWAP3 SWAP2 DUP5 ADD SWAP2 PUSH1 0x1 ADD PUSH2 0x653 JUMP JUMPDEST POP SWAP1 SWAP7 SWAP6 POP POP POP POP POP POP JUMP JUMPDEST PUSH1 0x0 PUSH1 0x20 DUP3 DUP5 SUB SLT ISZERO PUSH2 0x696 JUMPI PUSH1 0x0 DUP1 REVERT JUMPDEST DUP2 CALLDATALOAD PUSH2 0x6A1 DUP2 PUSH2 0x5E6 JUMP JUMPDEST SWAP4 SWAP3 POP POP POP JUMP JUMPDEST PUSH1 0x0 PUSH1 0x20 DUP3 DUP5 SUB SLT ISZERO PUSH2 0x6BA JUMPI PUSH1 0x0 DUP1 REVERT JUMPDEST POP MLOAD SWAP2 SWAP1 POP JUMP JUMPDEST PUSH4 0x4E487B71 PUSH1 0xE0 SHL PUSH1 0x0 MSTORE PUSH1 0x41 PUSH1 0x4 MSTORE PUSH1 0x24 PUSH1 0x0 REVERT JUMPDEST PUSH1 0x0 PUSH1 0x20 DUP3 DUP5 SUB SLT ISZERO PUSH2 0x6E9 JUMPI PUSH1 0x0 DUP1 REVERT JUMPDEST DUP2 MLOAD PUSH2 0x6A1 DUP2 PUSH2 0x5E6 JUMP JUMPDEST PUSH4 0x4E487B71 PUSH1 0xE0 SHL PUSH1 0x0 MSTORE PUSH1 0x11 PUSH1 0x4 MSTORE PUSH1 0x24 PUSH1 0x0 REVERT JUMPDEST PUSH1 0x0 PUSH1 0x0 NOT DUP3 EQ ISZERO PUSH2 0x71E JUMPI PUSH2 0x71E PUSH2 0x6F4 JUMP JUMPDEST POP PUSH1 0x1 ADD SWAP1 JUMP JUMPDEST PUSH4 0x4E487B71 PUSH1 0xE0 SHL PUSH1 0x0 MSTORE PUSH1 0x32 PUSH1 0x4 MSTORE PUSH1 0x24 PUSH1 0x0 REVERT JUMPDEST PUSH1 0x0 DUP3 DUP3 LT ISZERO PUSH2 0x74D JUMPI PUSH2 0x74D PUSH2 0x6F4 JUMP JUMPDEST POP SUB SWAP1 JUMP INVALID LOG2 PUSH5 0x6970667358 0x22 SLT KECCAK256 0xA8 RETURNDATASIZE 0x27 PUSH11 0xC0AF0E8595E1605869A0FA 0xE2 0xD DIV ADDRESS 0xC7 0xFB 0xFB 0xBB NOT DUP4 0xD1 0xED 0xBB SWAP7 PUSH13 0x39C064736F6C634300080C0033 ",
  "sha1": "e58169eb6448f8b6afaf3e0cd7c3165245c9617b",
  "source": "// SPDX-License-Identifier: MIT\npragma solidity ^0.8.11;\n\nimport \"./ICLFactory.sol\";\nimport \"./ICLHouse.sol\";\n\n/// @title Some funtions to interact with a CLHouse\n/// @author Leonardo Urrego\n/// @notice This contract is only for test \ncontract CLFactoryApi {\n    /// @notice Return the list of all houses created by the factory\n    /// @return arrCLH Array with address houses\n    function GetHouseList(\n        address _addrCLF\n    )\n        external\n        view\n        returns(\n            address[] memory arrCLH\n        )\n    {\n        uint256 numCLH = ICLFactory( _addrCLF ).numCLH();\n\n        if( numCLH > 0 ) {\n            arrCLH = new address[] ( numCLH );\n\n            for( uint256 hid = 1 ; hid <= numCLH ; hid++ )\n                arrCLH[ hid - 1 ] = address( ICLFactory( _addrCLF ).mapCLH( hid ) );\n        }\n    }\n\n\n    /// @notice List of membership houses of the one wallet address\n    /// @param _addrCLF Address of CLfactory proxy\n    /// @param _walletAddr User wallet address\n    /// @return arrHouses Array with address houses\n    function GetHousesByUser(\n        address _addrCLF,\n        address _walletAddr\n    )\n        external\n        view\n        returns(\n            address[] memory arrHouses\n        )\n    {\n        uint256 numCLH = ICLFactory( _addrCLF ).numCLH();\n        uint256 indexarr = 0;\n        arrHouses = new address[] ( numCLH );\n        \n        for( uint256 did = 1 ; did <= numCLH ; did++ ) {\n            ICLHouse pxyCLH = ICLFactory( _addrCLF ).mapCLH( did );\n            if( 0 != pxyCLH.mapIdUser( _walletAddr ) )\n                arrHouses[ indexarr++ ] = address( pxyCLH );\n        }\n    }\n\n\n    /// @notice List of houses that have an invitation pending for a specific wallet\n    /// @param _addrCLF Address of CLfactory proxy\n    /// @param _walletAddr The user wallet address\n    /// @return arrHouses Array with address houses\n    function GetInvitationsByUser(\n        address _addrCLF,\n        address _walletAddr\n    )\n        external\n        view\n        returns(\n            address[] memory arrHouses\n        )\n    {\n        uint256 numCLH = ICLFactory( _addrCLF ).numCLH();\n        uint256 indexarr = 0;\n        arrHouses = new address[] ( numCLH );\n        \n        for( uint256 did = 1 ; did <= numCLH ; did++ ){\n            ICLHouse pxyCLH = ICLFactory( _addrCLF ).mapCLH( did );\n            if( 0 != pxyCLH.mapInvitationUser( _walletAddr ) )\n                arrHouses[ indexarr++ ] = address( pxyCLH ) ;\n        }\n    }\n}",
  "sourcePath": "contracts/CLHouse/CLFactoryApi.sol",
  "type": "contract"
}