{
  "abi": [
    {
      "inputs": [],
      "stateMutability": "nonpayable",
      "type": "constructor"
    },
    {
      "anonymous": false,
      "inputs": [
        {
          "indexed": false,
          "internalType": "uint8",
          "name": "version",
          "type": "uint8"
        }
      ],
      "name": "Initialized",
      "type": "event"
    },
    {
      "anonymous": false,
      "inputs": [
        {
          "indexed": false,
          "internalType": "address",
          "name": "houseAddr",
          "type": "address"
        },
        {
          "indexed": false,
          "internalType": "string",
          "name": "houseName",
          "type": "string"
        },
        {
          "indexed": false,
          "internalType": "uint256",
          "name": "houseId",
          "type": "uint256"
        }
      ],
      "name": "evtHouseCreation",
      "type": "event"
    },
    {
      "inputs": [
        {
          "internalType": "string",
          "name": "_houseName",
          "type": "string"
        },
        {
          "internalType": "bool",
          "name": "_housePrivate",
          "type": "bool"
        },
        {
          "internalType": "bytes32",
          "name": "_govModel",
          "type": "bytes32"
        },
        {
          "internalType": "uint8[3]",
          "name": "_govRules",
          "type": "uint8[3]"
        },
        {
          "internalType": "address[]",
          "name": "_ManagerWallets",
          "type": "address[]"
        },
        {
          "internalType": "address",
          "name": "_gnosisSafe",
          "type": "address"
        },
        {
          "internalType": "address",
          "name": "_signerWallet",
          "type": "address"
        },
        {
          "internalType": "bytes",
          "name": "_signature",
          "type": "bytes"
        }
      ],
      "name": "CreateCLH",
      "outputs": [],
      "stateMutability": "nonpayable",
      "type": "function"
    },
    {
      "inputs": [],
      "name": "GetHouseList",
      "outputs": [
        {
          "internalType": "address[]",
          "name": "",
          "type": "address[]"
        }
      ],
      "stateMutability": "view",
      "type": "function"
    },
    {
      "inputs": [
        {
          "internalType": "address",
          "name": "_walletAddr",
          "type": "address"
        }
      ],
      "name": "GetHousesByUser",
      "outputs": [
        {
          "internalType": "address[]",
          "name": "",
          "type": "address[]"
        }
      ],
      "stateMutability": "view",
      "type": "function"
    },
    {
      "inputs": [
        {
          "internalType": "address",
          "name": "_walletAddr",
          "type": "address"
        }
      ],
      "name": "GetInvitationsByUser",
      "outputs": [
        {
          "internalType": "address[]",
          "name": "",
          "type": "address[]"
        }
      ],
      "stateMutability": "view",
      "type": "function"
    },
    {
      "inputs": [
        {
          "internalType": "address",
          "name": "_CLLUserManagement",
          "type": "address"
        },
        {
          "internalType": "address",
          "name": "_CLLGovernance",
          "type": "address"
        },
        {
          "internalType": "address",
          "name": "_CLLConstructorCLH",
          "type": "address"
        },
        {
          "internalType": "address",
          "name": "_CLHAPI",
          "type": "address"
        },
        {
          "internalType": "address",
          "name": "_beacon",
          "type": "address"
        }
      ],
      "name": "Init",
      "outputs": [],
      "stateMutability": "nonpayable",
      "type": "function"
    },
    {
      "inputs": [],
      "name": "beaconCLH",
      "outputs": [
        {
          "internalType": "contract CLBeacon",
          "name": "",
          "type": "address"
        }
      ],
      "stateMutability": "view",
      "type": "function"
    },
    {
      "inputs": [],
      "name": "getImplementation",
      "outputs": [
        {
          "internalType": "address",
          "name": "",
          "type": "address"
        }
      ],
      "stateMutability": "view",
      "type": "function"
    },
    {
      "inputs": [
        {
          "internalType": "uint256",
          "name": "",
          "type": "uint256"
        }
      ],
      "name": "mapCLH",
      "outputs": [
        {
          "internalType": "contract CLHouse",
          "name": "",
          "type": "address"
        }
      ],
      "stateMutability": "view",
      "type": "function"
    },
    {
      "inputs": [
        {
          "internalType": "address",
          "name": "",
          "type": "address"
        }
      ],
      "name": "mapIdCLH",
      "outputs": [
        {
          "internalType": "uint256",
          "name": "",
          "type": "uint256"
        }
      ],
      "stateMutability": "view",
      "type": "function"
    },
    {
      "inputs": [],
      "name": "numCLH",
      "outputs": [
        {
          "internalType": "uint256",
          "name": "",
          "type": "uint256"
        }
      ],
      "stateMutability": "view",
      "type": "function"
    }
  ],
  "bytecode": "608060405234801561001057600080fd5b5061001961001e565b6100de565b600054610100900460ff161561008a5760405162461bcd60e51b815260206004820152602760248201527f496e697469616c697a61626c653a20636f6e747261637420697320696e697469604482015266616c697a696e6760c81b606482015260840160405180910390fd5b60005460ff90811610156100dc576000805460ff191660ff9081179091556040519081527f7f26b83ff96e1f2b6a682f133852f6798a09c465da95921460cefb38474024989060200160405180910390a15b565b611b39806100ed6000396000f3fe60806040523480156200001157600080fd5b5060043610620000ab5760003560e01c80637ddb31a3116200006e5780637ddb31a3146200015e57806386bdfcac1462000175578063aaf10f4214620001a7578063c0828f6314620001b1578063ee7a7d1b14620001cb57600080fd5b8063132dcce714620000b05780634c0487c214620000d257806356ec9fff14620000eb57806360b323c31462000102578063624d87741462000119575b600080fd5b620000ba620001d5565b604051620000c9919062000b8a565b60405180910390f35b620000e9620000e336600462000dbd565b620002ae565b005b620000ba620000fc36600462000ea7565b62000667565b620000e96200011336600462000ec7565b620007c2565b620001456200012a36600462000f43565b6001602052600090815260409020546001600160a01b031681565b6040516001600160a01b039091168152602001620000c9565b620000ba6200016f36600462000ea7565b62000964565b620001986200018636600462000ea7565b60036020526000908152604090205481565b604051908152602001620000c9565b6200014562000ab6565b60005462000145906201000090046001600160a01b031681565b6200019860025481565b60025460609015620002ab57600060025467ffffffffffffffff81111562000201576200020162000ba6565b6040519080825280602002602001820160405280156200022b578160200160208202803683370190505b50905060015b6002548111620002a5576000818152600160208190526040909120546001600160a01b031690839062000265908462000f73565b8151811062000278576200027862000f8d565b6001600160a01b0390921660209283029190910190910152806200029c8162000fa3565b91505062000231565b50919050565b90565b6000337f0b93889d934070956c00846f50f9a10a747bd194bba2f2e78a86d0c02386fdb1881480620002ff5750877f16591a696fee5867425b3dee9fc0160a6c1baef77835bc3d204314106d639298145b806200032a5750877fa0786f6450d5fb3298b8425105c1b75e6e01a1ff86cdabea29909cdb0b4c83a7145b6200037c5760405162461bcd60e51b815260206004820152601760248201527f496e76616c696420476f7665726e616e6365205479706500000000000000000060448201526064015b60405180910390fd5b6001600160a01b03841615620004fa578251604114620003df5760405162461bcd60e51b815260206004820152601f60248201527f437265617465434c483a20426164207369676e6174757265206c656e67746800604482015260640162000373565b6007546001600160a01b031663364ae0d88b8b8b8b600060200201518c600160200201518d600260200201518d60008151811062000421576200042162000f8d565b6020026020010151308c6040518a63ffffffff1660e01b8152600401620004519998979695949392919062001011565b602060405180830381865afa1580156200046f573d6000803e3d6000fd5b505050506040513d601f19601f820116820180604052508101906200049591906200108d565b6001600160a01b0316846001600160a01b031614620004f75760405162461bcd60e51b815260206004820152601c60248201527f437265617465434c483a20496e76616c6964205369676e617475726500000000604482015260640162000373565b50825b600080546040805160a0810182526005546001600160a01b0390811682526006548116602083015260045481168284015260075481166060830152898116608083015291516201000090930490911691620005649185918f918f918f918f918f90602401620010e1565b60408051601f198184030181529181526020820180516001600160e01b03166305c4233360e41b179052516200059a9062000b36565b620005a79291906200117a565b604051809103906000f080158015620005c4573d6000803e3d6000fd5b50600280549192506000620005d98362000fa3565b909155505060028054600090815260016020908152604080832080546001600160a01b0319166001600160a01b0387169081179091559354938352600390915290819020829055517f0717908fb0165729c0cfd8bbc622f5ede46a85e555ac30657fa94a188bca698d91620006529184918f91620011a8565b60405180910390a15050505050505050505050565b6060600060025467ffffffffffffffff81111562000689576200068962000ba6565b604051908082528060200260200182016040528015620006b3578160200160208202803683370190505b509050600060015b6002548111620007b9576000818152600160205260409081902054905163287b984560e11b81526001600160a01b038781166004830152909116906350f7308a90602401602060405180830381865afa1580156200071d573d6000803e3d6000fd5b505050506040513d601f19601f82011682018060405250810190620007439190620011de565b15620007a4576000818152600160205260409020546001600160a01b031683836200076e8162000fa3565b94508151811062000783576200078362000f8d565b60200260200101906001600160a01b031690816001600160a01b0316815250505b80620007b08162000fa3565b915050620006bb565b50909392505050565b600054600190610100900460ff16158015620007e5575060005460ff8083169116105b6200084a5760405162461bcd60e51b815260206004820152602e60248201527f496e697469616c697a61626c653a20636f6e747261637420697320616c72656160448201526d191e481a5b9a5d1a585b1a5e995960921b606482015260840162000373565b60008054600580546001600160a01b038a81166001600160a01b031992831617909255600680548a8416908316179055600480548984169083161790556007805488841690831617905560028490558380527fa6eef7e35abe7026729641147f7915573c7e97b47efa546f5f6e3230263bcb498054909116905560036020527f3617319a054d772f909f7c479a2cebe5066e836a939412e32403c99029b92eff8390558416620100000261ff001916610100600160b01b031961ffff1990921660ff85161761010017919091161790556040517f7f26b83ff96e1f2b6a682f133852f6798a09c465da95921460cefb3847402498906200095490839060ff91909116815260200190565b60405180910390a1505050505050565b6060600060025467ffffffffffffffff81111562000986576200098662000ba6565b604051908082528060200260200182016040528015620009b0578160200160208202803683370190505b509050600060015b6002548111620007b95760008181526001602052604090819020549051631c3fe46360e21b81526001600160a01b038781166004830152909116906370ff918c90602401602060405180830381865afa15801562000a1a573d6000803e3d6000fd5b505050506040513d601f19601f8201168201806040525081019062000a409190620011de565b1562000aa1576000818152600160205260409020546001600160a01b0316838362000a6b8162000fa3565b94508151811062000a805762000a8062000f8d565b60200260200101906001600160a01b031690816001600160a01b0316815250505b8062000aad8162000fa3565b915050620009b8565b60008060029054906101000a90046001600160a01b03166001600160a01b0316635c60da1b6040518163ffffffff1660e01b8152600401602060405180830381865afa15801562000b0b573d6000803e3d6000fd5b505050506040513d601f19601f8201168201806040525081019062000b3191906200108d565b905090565b61090b80620011f983390190565b600081518084526020808501945080840160005b8381101562000b7f5781516001600160a01b03168752958201959082019060010162000b58565b509495945050505050565b60208152600062000b9f602083018462000b44565b9392505050565b634e487b7160e01b600052604160045260246000fd5b604051601f8201601f1916810167ffffffffffffffff8111828210171562000be85762000be862000ba6565b604052919050565b600082601f83011262000c0257600080fd5b813567ffffffffffffffff81111562000c1f5762000c1f62000ba6565b62000c34601f8201601f191660200162000bbc565b81815284602083860101111562000c4a57600080fd5b816020850160208301376000918101602001919091529392505050565b8035801515811462000c7857600080fd5b919050565b600082601f83011262000c8f57600080fd5b6040516060810181811067ffffffffffffffff8211171562000cb55762000cb562000ba6565b60405280606084018581111562000ccb57600080fd5b845b8181101562000cf857803560ff8116811462000ce95760008081fd5b83526020928301920162000ccd565b509195945050505050565b6001600160a01b038116811462000d1957600080fd5b50565b803562000c788162000d03565b600082601f83011262000d3b57600080fd5b8135602067ffffffffffffffff82111562000d5a5762000d5a62000ba6565b8160051b62000d6b82820162000bbc565b928352848101820192828101908785111562000d8657600080fd5b83870192505b8483101562000db257823562000da28162000d03565b8252918301919083019062000d8c565b979650505050505050565b600080600080600080600080610140898b03121562000ddb57600080fd5b883567ffffffffffffffff8082111562000df457600080fd5b62000e028c838d0162000bf0565b995062000e1260208c0162000c67565b985060408b0135975062000e2a8c60608d0162000c7d565b965060c08b013591508082111562000e4157600080fd5b62000e4f8c838d0162000d29565b955062000e5f60e08c0162000d1c565b945062000e706101008c0162000d1c565b93506101208b013591508082111562000e8857600080fd5b5062000e978b828c0162000bf0565b9150509295985092959890939650565b60006020828403121562000eba57600080fd5b813562000b9f8162000d03565b600080600080600060a0868803121562000ee057600080fd5b853562000eed8162000d03565b9450602086013562000eff8162000d03565b9350604086013562000f118162000d03565b9250606086013562000f238162000d03565b9150608086013562000f358162000d03565b809150509295509295909350565b60006020828403121562000f5657600080fd5b5035919050565b634e487b7160e01b600052601160045260246000fd5b60008282101562000f885762000f8862000f5d565b500390565b634e487b7160e01b600052603260045260246000fd5b600060001982141562000fba5762000fba62000f5d565b5060010190565b6000815180845260005b8181101562000fe95760208185018101518683018201520162000fcb565b8181111562000ffc576000602083870101525b50601f01601f19169290920160200192915050565b6000610120808352620010278184018d62000fc1565b8b15156020850152604084018b905260ff8a811660608601528981166080860152881660a08501526001600160a01b0387811660c0860152861660e085015283810361010085015290506200107d818562000fc1565b9c9b505050505050505050505050565b600060208284031215620010a057600080fd5b815162000b9f8162000d03565b8060005b6005811015620010db5781516001600160a01b0316845260209384019390910190600101620010b1565b50505050565b6001600160a01b03881681526101a06020808301829052600091906200110a8483018b62000fc1565b91508815156040850152876060850152608084018760005b60038110156200114457815160ff168352918301919083019060010162001122565b505050506200115760e0840186620010ad565b8281036101808401526200116c818562000b44565b9a9950505050505050505050565b6001600160a01b0383168152604060208201819052600090620011a09083018462000fc1565b949350505050565b6001600160a01b0384168152606060208201819052600090620011ce9083018562000fc1565b9050826040830152949350505050565b600060208284031215620011f157600080fd5b505191905056fe608060405234801561001057600080fd5b5060405161090b38038061090b83398101604081905261002f91610467565b818161003d82826000610046565b50505050610591565b61004f83610111565b6040516001600160a01b038416907f1cf3b03a6cf19fa2baba4df148e9dcabedea7f8a5c07840e207e5c089be95d3e90600090a26000825111806100905750805b1561010c5761010a836001600160a01b0316635c60da1b6040518163ffffffff1660e01b8152600401602060405180830381865afa1580156100d6573d6000803e3d6000fd5b505050506040513d601f19601f820116820180604052508101906100fa9190610527565b836102b460201b6100291760201c565b505b505050565b610124816102e060201b6100551760201c565b6101835760405162461bcd60e51b815260206004820152602560248201527f455243313936373a206e657720626561636f6e206973206e6f74206120636f6e6044820152641d1c9858dd60da1b60648201526084015b60405180910390fd5b6101f7816001600160a01b0316635c60da1b6040518163ffffffff1660e01b8152600401602060405180830381865afa1580156101c4573d6000803e3d6000fd5b505050506040513d601f19601f820116820180604052508101906101e89190610527565b6102e060201b6100551760201c565b61025c5760405162461bcd60e51b815260206004820152603060248201527f455243313936373a20626561636f6e20696d706c656d656e746174696f6e206960448201526f1cc81b9bdd08184818dbdb9d1c9858dd60821b606482015260840161017a565b806102937fa3f0ad74e5423aebfd80d3ef4346578335a9a72aeaee59ff6cb3582b35133d5060001b6102ef60201b6100641760201c565b80546001600160a01b0319166001600160a01b039290921691909117905550565b60606102d983836040518060600160405280602781526020016108e4602791396102f2565b9392505050565b6001600160a01b03163b151590565b90565b60606001600160a01b0384163b61035a5760405162461bcd60e51b815260206004820152602660248201527f416464726573733a2064656c65676174652063616c6c20746f206e6f6e2d636f6044820152651b9d1c9858dd60d21b606482015260840161017a565b600080856001600160a01b0316856040516103759190610542565b600060405180830381855af49150503d80600081146103b0576040519150601f19603f3d011682016040523d82523d6000602084013e6103b5565b606091505b5090925090506103c68282866103d0565b9695505050505050565b606083156103df5750816102d9565b8251156103ef5782518084602001fd5b8160405162461bcd60e51b815260040161017a919061055e565b80516001600160a01b038116811461042057600080fd5b919050565b634e487b7160e01b600052604160045260246000fd5b60005b8381101561045657818101518382015260200161043e565b8381111561010a5750506000910152565b6000806040838503121561047a57600080fd5b61048383610409565b60208401519092506001600160401b03808211156104a057600080fd5b818501915085601f8301126104b457600080fd5b8151818111156104c6576104c6610425565b604051601f8201601f19908116603f011681019083821181831017156104ee576104ee610425565b8160405282815288602084870101111561050757600080fd5b61051883602083016020880161043b565b80955050505050509250929050565b60006020828403121561053957600080fd5b6102d982610409565b6000825161055481846020870161043b565b9190910192915050565b602081526000825180602084015261057d81604085016020870161043b565b601f01601f19169190910160400192915050565b610344806105a06000396000f3fe60806040523661001357610011610017565b005b6100115b610027610022610067565b610100565b565b606061004e83836040518060600160405280602781526020016102e860279139610124565b9392505050565b6001600160a01b03163b151590565b90565b600061009a7fa3f0ad74e5423aebfd80d3ef4346578335a9a72aeaee59ff6cb3582b35133d50546001600160a01b031690565b6001600160a01b0316635c60da1b6040518163ffffffff1660e01b8152600401602060405180830381865afa1580156100d7573d6000803e3d6000fd5b505050506040513d601f19601f820116820180604052508101906100fb919061023f565b905090565b3660008037600080366000845af43d6000803e80801561011f573d6000f35b3d6000fd5b60606001600160a01b0384163b6101915760405162461bcd60e51b815260206004820152602660248201527f416464726573733a2064656c65676174652063616c6c20746f206e6f6e2d636f6044820152651b9d1c9858dd60d21b60648201526084015b60405180910390fd5b600080856001600160a01b0316856040516101ac9190610298565b600060405180830381855af49150503d80600081146101e7576040519150601f19603f3d011682016040523d82523d6000602084013e6101ec565b606091505b50915091506101fc828286610206565b9695505050505050565b6060831561021557508161004e565b8251156102255782518084602001fd5b8160405162461bcd60e51b815260040161018891906102b4565b60006020828403121561025157600080fd5b81516001600160a01b038116811461004e57600080fd5b60005b8381101561028357818101518382015260200161026b565b83811115610292576000848401525b50505050565b600082516102aa818460208701610268565b9190910192915050565b60208152600082518060208401526102d3816040850160208701610268565b601f01601f1916919091016040019291505056fe416464726573733a206c6f772d6c6576656c2064656c65676174652063616c6c206661696c6564a264697066735822122025a9c748cb92627df1eef1f636030870f9eeb2865d476db2b1efdf323a388cd764736f6c634300080c0033416464726573733a206c6f772d6c6576656c2064656c65676174652063616c6c206661696c6564a2646970667358221220fb76713bad04c55e1695dde286445bb044a3a90ccf2313d105340b535d05fcf964736f6c634300080c0033",
  "bytecodeSha1": "1dced625da7305c768cc5dfd4adc301949ebfc1e",
  "compiler": {
    "evm_version": "istanbul",
    "optimizer": {
      "enabled": true,
      "runs": 200
    },
    "version": "0.8.12+commit.f00d7308"
  },
  "contractName": "CLFactory",
  "language": "Solidity",
  "natspec": {
    "author": "Leonardo Urrego",
    "details": "This contract is the only way to create CLH",
    "kind": "dev",
    "methods": {
      "CreateCLH(string,bool,bytes32,uint8[3],address[],address,address,bytes)": {
        "details": "Some parameters wil be ignored depending on the governance model",
        "notice": "Deploy a new CLHouse",
        "params": {
          "_ManagerWallets": "Whitelist of address for invitate as managers",
          "_govModel": "keccak256 hash of the governance model, see the __GOV_* constans",
          "_govRules": "Array for goverment rules see `enum gRule`",
          "_houseName": "Name of the CLH",
          "_housePrivate": "If is set to 1, the CLH is set to private"
        }
      },
      "GetHouseList()": {
        "notice": "Return the list of all houses created by the factory",
        "returns": {
          "_0": "Array with address houses"
        }
      },
      "GetHousesByUser(address)": {
        "notice": "List of membership houses of the one wallet address",
        "params": {
          "_walletAddr": "User wallet address"
        },
        "returns": {
          "_0": "Array with address houses"
        }
      },
      "GetInvitationsByUser(address)": {
        "notice": "List of houses that have an invitation pending for a specific wallet",
        "params": {
          "_walletAddr": "The user wallet address"
        },
        "returns": {
          "_0": "Array with address houses"
        }
      },
      "Init(address,address,address,address,address)": {
        "details": "The constructor create a default CLH with the houseId #0",
        "notice": "Config the CLFactory with the CL Logic Contracts",
        "params": {
          "_CLLConstructorCLH": "Address Contract with the Constructor logic",
          "_CLLGovernance": "Address Contract Logic for governance",
          "_CLLUserManagement": "Address Contract Logic for user management"
        }
      },
      "constructor": {
        "custom:oz-upgrades-unsafe-allow": "constructor"
      },
      "mapCLH(uint256)": {
        "notice": "Mapping to store all the created houses"
      },
      "mapIdCLH(address)": {
        "notice": "Relation houseAddr with houseId"
      },
      "numCLH()": {
        "notice": "Store the number of houses created"
      }
    },
    "notice": "Config, create and deploy CLHouses",
    "title": "Crypto League House Factory",
    "version": 1
  },
  "opcodes": "PUSH1 0x80 PUSH1 0x40 MSTORE CALLVALUE DUP1 ISZERO PUSH3 0x11 JUMPI PUSH1 0x0 DUP1 REVERT JUMPDEST POP PUSH1 0x4 CALLDATASIZE LT PUSH3 0xAB JUMPI PUSH1 0x0 CALLDATALOAD PUSH1 0xE0 SHR DUP1 PUSH4 0x7DDB31A3 GT PUSH3 0x6E JUMPI DUP1 PUSH4 0x7DDB31A3 EQ PUSH3 0x15E JUMPI DUP1 PUSH4 0x86BDFCAC EQ PUSH3 0x175 JUMPI DUP1 PUSH4 0xAAF10F42 EQ PUSH3 0x1A7 JUMPI DUP1 PUSH4 0xC0828F63 EQ PUSH3 0x1B1 JUMPI DUP1 PUSH4 0xEE7A7D1B EQ PUSH3 0x1CB JUMPI PUSH1 0x0 DUP1 REVERT JUMPDEST DUP1 PUSH4 0x132DCCE7 EQ PUSH3 0xB0 JUMPI DUP1 PUSH4 0x4C0487C2 EQ PUSH3 0xD2 JUMPI DUP1 PUSH4 0x56EC9FFF EQ PUSH3 0xEB JUMPI DUP1 PUSH4 0x60B323C3 EQ PUSH3 0x102 JUMPI DUP1 PUSH4 0x624D8774 EQ PUSH3 0x119 JUMPI JUMPDEST PUSH1 0x0 DUP1 REVERT JUMPDEST PUSH3 0xBA PUSH3 0x1D5 JUMP JUMPDEST PUSH1 0x40 MLOAD PUSH3 0xC9 SWAP2 SWAP1 PUSH3 0xB8A JUMP JUMPDEST PUSH1 0x40 MLOAD DUP1 SWAP2 SUB SWAP1 RETURN JUMPDEST PUSH3 0xE9 PUSH3 0xE3 CALLDATASIZE PUSH1 0x4 PUSH3 0xDBD JUMP JUMPDEST PUSH3 0x2AE JUMP JUMPDEST STOP JUMPDEST PUSH3 0xBA PUSH3 0xFC CALLDATASIZE PUSH1 0x4 PUSH3 0xEA7 JUMP JUMPDEST PUSH3 0x667 JUMP JUMPDEST PUSH3 0xE9 PUSH3 0x113 CALLDATASIZE PUSH1 0x4 PUSH3 0xEC7 JUMP JUMPDEST PUSH3 0x7C2 JUMP JUMPDEST PUSH3 0x145 PUSH3 0x12A CALLDATASIZE PUSH1 0x4 PUSH3 0xF43 JUMP JUMPDEST PUSH1 0x1 PUSH1 0x20 MSTORE PUSH1 0x0 SWAP1 DUP2 MSTORE PUSH1 0x40 SWAP1 KECCAK256 SLOAD PUSH1 0x1 PUSH1 0x1 PUSH1 0xA0 SHL SUB AND DUP2 JUMP JUMPDEST PUSH1 0x40 MLOAD PUSH1 0x1 PUSH1 0x1 PUSH1 0xA0 SHL SUB SWAP1 SWAP2 AND DUP2 MSTORE PUSH1 0x20 ADD PUSH3 0xC9 JUMP JUMPDEST PUSH3 0xBA PUSH3 0x16F CALLDATASIZE PUSH1 0x4 PUSH3 0xEA7 JUMP JUMPDEST PUSH3 0x964 JUMP JUMPDEST PUSH3 0x198 PUSH3 0x186 CALLDATASIZE PUSH1 0x4 PUSH3 0xEA7 JUMP JUMPDEST PUSH1 0x3 PUSH1 0x20 MSTORE PUSH1 0x0 SWAP1 DUP2 MSTORE PUSH1 0x40 SWAP1 KECCAK256 SLOAD DUP2 JUMP JUMPDEST PUSH1 0x40 MLOAD SWAP1 DUP2 MSTORE PUSH1 0x20 ADD PUSH3 0xC9 JUMP JUMPDEST PUSH3 0x145 PUSH3 0xAB6 JUMP JUMPDEST PUSH1 0x0 SLOAD PUSH3 0x145 SWAP1 PUSH3 0x10000 SWAP1 DIV PUSH1 0x1 PUSH1 0x1 PUSH1 0xA0 SHL SUB AND DUP2 JUMP JUMPDEST PUSH3 0x198 PUSH1 0x2 SLOAD DUP2 JUMP JUMPDEST PUSH1 0x2 SLOAD PUSH1 0x60 SWAP1 ISZERO PUSH3 0x2AB JUMPI PUSH1 0x0 PUSH1 0x2 SLOAD PUSH8 0xFFFFFFFFFFFFFFFF DUP2 GT ISZERO PUSH3 0x201 JUMPI PUSH3 0x201 PUSH3 0xBA6 JUMP JUMPDEST PUSH1 0x40 MLOAD SWAP1 DUP1 DUP3 MSTORE DUP1 PUSH1 0x20 MUL PUSH1 0x20 ADD DUP3 ADD PUSH1 0x40 MSTORE DUP1 ISZERO PUSH3 0x22B JUMPI DUP2 PUSH1 0x20 ADD PUSH1 0x20 DUP3 MUL DUP1 CALLDATASIZE DUP4 CALLDATACOPY ADD SWAP1 POP JUMPDEST POP SWAP1 POP PUSH1 0x1 JUMPDEST PUSH1 0x2 SLOAD DUP2 GT PUSH3 0x2A5 JUMPI PUSH1 0x0 DUP2 DUP2 MSTORE PUSH1 0x1 PUSH1 0x20 DUP2 SWAP1 MSTORE PUSH1 0x40 SWAP1 SWAP2 KECCAK256 SLOAD PUSH1 0x1 PUSH1 0x1 PUSH1 0xA0 SHL SUB AND SWAP1 DUP4 SWAP1 PUSH3 0x265 SWAP1 DUP5 PUSH3 0xF73 JUMP JUMPDEST DUP2 MLOAD DUP2 LT PUSH3 0x278 JUMPI PUSH3 0x278 PUSH3 0xF8D JUMP JUMPDEST PUSH1 0x1 PUSH1 0x1 PUSH1 0xA0 SHL SUB SWAP1 SWAP3 AND PUSH1 0x20 SWAP3 DUP4 MUL SWAP2 SWAP1 SWAP2 ADD SWAP1 SWAP2 ADD MSTORE DUP1 PUSH3 0x29C DUP2 PUSH3 0xFA3 JUMP JUMPDEST SWAP2 POP POP PUSH3 0x231 JUMP JUMPDEST POP SWAP2 SWAP1 POP JUMP JUMPDEST SWAP1 JUMP JUMPDEST PUSH1 0x0 CALLER PUSH32 0xB93889D934070956C00846F50F9A10A747BD194BBA2F2E78A86D0C02386FDB1 DUP9 EQ DUP1 PUSH3 0x2FF JUMPI POP DUP8 PUSH32 0x16591A696FEE5867425B3DEE9FC0160A6C1BAEF77835BC3D204314106D639298 EQ JUMPDEST DUP1 PUSH3 0x32A JUMPI POP DUP8 PUSH32 0xA0786F6450D5FB3298B8425105C1B75E6E01A1FF86CDABEA29909CDB0B4C83A7 EQ JUMPDEST PUSH3 0x37C JUMPI PUSH1 0x40 MLOAD PUSH3 0x461BCD PUSH1 0xE5 SHL DUP2 MSTORE PUSH1 0x20 PUSH1 0x4 DUP3 ADD MSTORE PUSH1 0x17 PUSH1 0x24 DUP3 ADD MSTORE PUSH32 0x496E76616C696420476F7665726E616E63652054797065000000000000000000 PUSH1 0x44 DUP3 ADD MSTORE PUSH1 0x64 ADD JUMPDEST PUSH1 0x40 MLOAD DUP1 SWAP2 SUB SWAP1 REVERT JUMPDEST PUSH1 0x1 PUSH1 0x1 PUSH1 0xA0 SHL SUB DUP5 AND ISZERO PUSH3 0x4FA JUMPI DUP3 MLOAD PUSH1 0x41 EQ PUSH3 0x3DF JUMPI PUSH1 0x40 MLOAD PUSH3 0x461BCD PUSH1 0xE5 SHL DUP2 MSTORE PUSH1 0x20 PUSH1 0x4 DUP3 ADD MSTORE PUSH1 0x1F PUSH1 0x24 DUP3 ADD MSTORE PUSH32 0x437265617465434C483A20426164207369676E6174757265206C656E67746800 PUSH1 0x44 DUP3 ADD MSTORE PUSH1 0x64 ADD PUSH3 0x373 JUMP JUMPDEST PUSH1 0x7 SLOAD PUSH1 0x1 PUSH1 0x1 PUSH1 0xA0 SHL SUB AND PUSH4 0x364AE0D8 DUP12 DUP12 DUP12 DUP12 PUSH1 0x0 PUSH1 0x20 MUL ADD MLOAD DUP13 PUSH1 0x1 PUSH1 0x20 MUL ADD MLOAD DUP14 PUSH1 0x2 PUSH1 0x20 MUL ADD MLOAD DUP14 PUSH1 0x0 DUP2 MLOAD DUP2 LT PUSH3 0x421 JUMPI PUSH3 0x421 PUSH3 0xF8D JUMP JUMPDEST PUSH1 0x20 MUL PUSH1 0x20 ADD ADD MLOAD ADDRESS DUP13 PUSH1 0x40 MLOAD DUP11 PUSH4 0xFFFFFFFF AND PUSH1 0xE0 SHL DUP2 MSTORE PUSH1 0x4 ADD PUSH3 0x451 SWAP10 SWAP9 SWAP8 SWAP7 SWAP6 SWAP5 SWAP4 SWAP3 SWAP2 SWAP1 PUSH3 0x1011 JUMP JUMPDEST PUSH1 0x20 PUSH1 0x40 MLOAD DUP1 DUP4 SUB DUP2 DUP7 GAS STATICCALL ISZERO DUP1 ISZERO PUSH3 0x46F JUMPI RETURNDATASIZE PUSH1 0x0 DUP1 RETURNDATACOPY RETURNDATASIZE PUSH1 0x0 REVERT JUMPDEST POP POP POP POP PUSH1 0x40 MLOAD RETURNDATASIZE PUSH1 0x1F NOT PUSH1 0x1F DUP3 ADD AND DUP3 ADD DUP1 PUSH1 0x40 MSTORE POP DUP2 ADD SWAP1 PUSH3 0x495 SWAP2 SWAP1 PUSH3 0x108D JUMP JUMPDEST PUSH1 0x1 PUSH1 0x1 PUSH1 0xA0 SHL SUB AND DUP5 PUSH1 0x1 PUSH1 0x1 PUSH1 0xA0 SHL SUB AND EQ PUSH3 0x4F7 JUMPI PUSH1 0x40 MLOAD PUSH3 0x461BCD PUSH1 0xE5 SHL DUP2 MSTORE PUSH1 0x20 PUSH1 0x4 DUP3 ADD MSTORE PUSH1 0x1C PUSH1 0x24 DUP3 ADD MSTORE PUSH32 0x437265617465434C483A20496E76616C6964205369676E617475726500000000 PUSH1 0x44 DUP3 ADD MSTORE PUSH1 0x64 ADD PUSH3 0x373 JUMP JUMPDEST POP DUP3 JUMPDEST PUSH1 0x0 DUP1 SLOAD PUSH1 0x40 DUP1 MLOAD PUSH1 0xA0 DUP2 ADD DUP3 MSTORE PUSH1 0x5 SLOAD PUSH1 0x1 PUSH1 0x1 PUSH1 0xA0 SHL SUB SWAP1 DUP2 AND DUP3 MSTORE PUSH1 0x6 SLOAD DUP2 AND PUSH1 0x20 DUP4 ADD MSTORE PUSH1 0x4 SLOAD DUP2 AND DUP3 DUP5 ADD MSTORE PUSH1 0x7 SLOAD DUP2 AND PUSH1 0x60 DUP4 ADD MSTORE DUP10 DUP2 AND PUSH1 0x80 DUP4 ADD MSTORE SWAP2 MLOAD PUSH3 0x10000 SWAP1 SWAP4 DIV SWAP1 SWAP2 AND SWAP2 PUSH3 0x564 SWAP2 DUP6 SWAP2 DUP16 SWAP2 DUP16 SWAP2 DUP16 SWAP2 DUP16 SWAP2 DUP16 SWAP1 PUSH1 0x24 ADD PUSH3 0x10E1 JUMP JUMPDEST PUSH1 0x40 DUP1 MLOAD PUSH1 0x1F NOT DUP2 DUP5 SUB ADD DUP2 MSTORE SWAP2 DUP2 MSTORE PUSH1 0x20 DUP3 ADD DUP1 MLOAD PUSH1 0x1 PUSH1 0x1 PUSH1 0xE0 SHL SUB AND PUSH4 0x5C42333 PUSH1 0xE4 SHL OR SWAP1 MSTORE MLOAD PUSH3 0x59A SWAP1 PUSH3 0xB36 JUMP JUMPDEST PUSH3 0x5A7 SWAP3 SWAP2 SWAP1 PUSH3 0x117A JUMP JUMPDEST PUSH1 0x40 MLOAD DUP1 SWAP2 SUB SWAP1 PUSH1 0x0 CREATE DUP1 ISZERO DUP1 ISZERO PUSH3 0x5C4 JUMPI RETURNDATASIZE PUSH1 0x0 DUP1 RETURNDATACOPY RETURNDATASIZE PUSH1 0x0 REVERT JUMPDEST POP PUSH1 0x2 DUP1 SLOAD SWAP2 SWAP3 POP PUSH1 0x0 PUSH3 0x5D9 DUP4 PUSH3 0xFA3 JUMP JUMPDEST SWAP1 SWAP2 SSTORE POP POP PUSH1 0x2 DUP1 SLOAD PUSH1 0x0 SWAP1 DUP2 MSTORE PUSH1 0x1 PUSH1 0x20 SWAP1 DUP2 MSTORE PUSH1 0x40 DUP1 DUP4 KECCAK256 DUP1 SLOAD PUSH1 0x1 PUSH1 0x1 PUSH1 0xA0 SHL SUB NOT AND PUSH1 0x1 PUSH1 0x1 PUSH1 0xA0 SHL SUB DUP8 AND SWAP1 DUP2 OR SWAP1 SWAP2 SSTORE SWAP4 SLOAD SWAP4 DUP4 MSTORE PUSH1 0x3 SWAP1 SWAP2 MSTORE SWAP1 DUP2 SWAP1 KECCAK256 DUP3 SWAP1 SSTORE MLOAD PUSH32 0x717908FB0165729C0CFD8BBC622F5EDE46A85E555AC30657FA94A188BCA698D SWAP2 PUSH3 0x652 SWAP2 DUP5 SWAP2 DUP16 SWAP2 PUSH3 0x11A8 JUMP JUMPDEST PUSH1 0x40 MLOAD DUP1 SWAP2 SUB SWAP1 LOG1 POP POP POP POP POP POP POP POP POP POP POP JUMP JUMPDEST PUSH1 0x60 PUSH1 0x0 PUSH1 0x2 SLOAD PUSH8 0xFFFFFFFFFFFFFFFF DUP2 GT ISZERO PUSH3 0x689 JUMPI PUSH3 0x689 PUSH3 0xBA6 JUMP JUMPDEST PUSH1 0x40 MLOAD SWAP1 DUP1 DUP3 MSTORE DUP1 PUSH1 0x20 MUL PUSH1 0x20 ADD DUP3 ADD PUSH1 0x40 MSTORE DUP1 ISZERO PUSH3 0x6B3 JUMPI DUP2 PUSH1 0x20 ADD PUSH1 0x20 DUP3 MUL DUP1 CALLDATASIZE DUP4 CALLDATACOPY ADD SWAP1 POP JUMPDEST POP SWAP1 POP PUSH1 0x0 PUSH1 0x1 JUMPDEST PUSH1 0x2 SLOAD DUP2 GT PUSH3 0x7B9 JUMPI PUSH1 0x0 DUP2 DUP2 MSTORE PUSH1 0x1 PUSH1 0x20 MSTORE PUSH1 0x40 SWAP1 DUP2 SWAP1 KECCAK256 SLOAD SWAP1 MLOAD PUSH4 0x287B9845 PUSH1 0xE1 SHL DUP2 MSTORE PUSH1 0x1 PUSH1 0x1 PUSH1 0xA0 SHL SUB DUP8 DUP2 AND PUSH1 0x4 DUP4 ADD MSTORE SWAP1 SWAP2 AND SWAP1 PUSH4 0x50F7308A SWAP1 PUSH1 0x24 ADD PUSH1 0x20 PUSH1 0x40 MLOAD DUP1 DUP4 SUB DUP2 DUP7 GAS STATICCALL ISZERO DUP1 ISZERO PUSH3 0x71D JUMPI RETURNDATASIZE PUSH1 0x0 DUP1 RETURNDATACOPY RETURNDATASIZE PUSH1 0x0 REVERT JUMPDEST POP POP POP POP PUSH1 0x40 MLOAD RETURNDATASIZE PUSH1 0x1F NOT PUSH1 0x1F DUP3 ADD AND DUP3 ADD DUP1 PUSH1 0x40 MSTORE POP DUP2 ADD SWAP1 PUSH3 0x743 SWAP2 SWAP1 PUSH3 0x11DE JUMP JUMPDEST ISZERO PUSH3 0x7A4 JUMPI PUSH1 0x0 DUP2 DUP2 MSTORE PUSH1 0x1 PUSH1 0x20 MSTORE PUSH1 0x40 SWAP1 KECCAK256 SLOAD PUSH1 0x1 PUSH1 0x1 PUSH1 0xA0 SHL SUB AND DUP4 DUP4 PUSH3 0x76E DUP2 PUSH3 0xFA3 JUMP JUMPDEST SWAP5 POP DUP2 MLOAD DUP2 LT PUSH3 0x783 JUMPI PUSH3 0x783 PUSH3 0xF8D JUMP JUMPDEST PUSH1 0x20 MUL PUSH1 0x20 ADD ADD SWAP1 PUSH1 0x1 PUSH1 0x1 PUSH1 0xA0 SHL SUB AND SWAP1 DUP2 PUSH1 0x1 PUSH1 0x1 PUSH1 0xA0 SHL SUB AND DUP2 MSTORE POP POP JUMPDEST DUP1 PUSH3 0x7B0 DUP2 PUSH3 0xFA3 JUMP JUMPDEST SWAP2 POP POP PUSH3 0x6BB JUMP JUMPDEST POP SWAP1 SWAP4 SWAP3 POP POP POP JUMP JUMPDEST PUSH1 0x0 SLOAD PUSH1 0x1 SWAP1 PUSH2 0x100 SWAP1 DIV PUSH1 0xFF AND ISZERO DUP1 ISZERO PUSH3 0x7E5 JUMPI POP PUSH1 0x0 SLOAD PUSH1 0xFF DUP1 DUP4 AND SWAP2 AND LT JUMPDEST PUSH3 0x84A JUMPI PUSH1 0x40 MLOAD PUSH3 0x461BCD PUSH1 0xE5 SHL DUP2 MSTORE PUSH1 0x20 PUSH1 0x4 DUP3 ADD MSTORE PUSH1 0x2E PUSH1 0x24 DUP3 ADD MSTORE PUSH32 0x496E697469616C697A61626C653A20636F6E747261637420697320616C726561 PUSH1 0x44 DUP3 ADD MSTORE PUSH14 0x191E481A5B9A5D1A585B1A5E9959 PUSH1 0x92 SHL PUSH1 0x64 DUP3 ADD MSTORE PUSH1 0x84 ADD PUSH3 0x373 JUMP JUMPDEST PUSH1 0x0 DUP1 SLOAD PUSH1 0x5 DUP1 SLOAD PUSH1 0x1 PUSH1 0x1 PUSH1 0xA0 SHL SUB DUP11 DUP2 AND PUSH1 0x1 PUSH1 0x1 PUSH1 0xA0 SHL SUB NOT SWAP3 DUP4 AND OR SWAP1 SWAP3 SSTORE PUSH1 0x6 DUP1 SLOAD DUP11 DUP5 AND SWAP1 DUP4 AND OR SWAP1 SSTORE PUSH1 0x4 DUP1 SLOAD DUP10 DUP5 AND SWAP1 DUP4 AND OR SWAP1 SSTORE PUSH1 0x7 DUP1 SLOAD DUP9 DUP5 AND SWAP1 DUP4 AND OR SWAP1 SSTORE PUSH1 0x2 DUP5 SWAP1 SSTORE DUP4 DUP1 MSTORE PUSH32 0xA6EEF7E35ABE7026729641147F7915573C7E97B47EFA546F5F6E3230263BCB49 DUP1 SLOAD SWAP1 SWAP2 AND SWAP1 SSTORE PUSH1 0x3 PUSH1 0x20 MSTORE PUSH32 0x3617319A054D772F909F7C479A2CEBE5066E836A939412E32403C99029B92EFF DUP4 SWAP1 SSTORE DUP5 AND PUSH3 0x10000 MUL PUSH2 0xFF00 NOT AND PUSH2 0x100 PUSH1 0x1 PUSH1 0xB0 SHL SUB NOT PUSH2 0xFFFF NOT SWAP1 SWAP3 AND PUSH1 0xFF DUP6 AND OR PUSH2 0x100 OR SWAP2 SWAP1 SWAP2 AND OR SWAP1 SSTORE PUSH1 0x40 MLOAD PUSH32 0x7F26B83FF96E1F2B6A682F133852F6798A09C465DA95921460CEFB3847402498 SWAP1 PUSH3 0x954 SWAP1 DUP4 SWAP1 PUSH1 0xFF SWAP2 SWAP1 SWAP2 AND DUP2 MSTORE PUSH1 0x20 ADD SWAP1 JUMP JUMPDEST PUSH1 0x40 MLOAD DUP1 SWAP2 SUB SWAP1 LOG1 POP POP POP POP POP POP JUMP JUMPDEST PUSH1 0x60 PUSH1 0x0 PUSH1 0x2 SLOAD PUSH8 0xFFFFFFFFFFFFFFFF DUP2 GT ISZERO PUSH3 0x986 JUMPI PUSH3 0x986 PUSH3 0xBA6 JUMP JUMPDEST PUSH1 0x40 MLOAD SWAP1 DUP1 DUP3 MSTORE DUP1 PUSH1 0x20 MUL PUSH1 0x20 ADD DUP3 ADD PUSH1 0x40 MSTORE DUP1 ISZERO PUSH3 0x9B0 JUMPI DUP2 PUSH1 0x20 ADD PUSH1 0x20 DUP3 MUL DUP1 CALLDATASIZE DUP4 CALLDATACOPY ADD SWAP1 POP JUMPDEST POP SWAP1 POP PUSH1 0x0 PUSH1 0x1 JUMPDEST PUSH1 0x2 SLOAD DUP2 GT PUSH3 0x7B9 JUMPI PUSH1 0x0 DUP2 DUP2 MSTORE PUSH1 0x1 PUSH1 0x20 MSTORE PUSH1 0x40 SWAP1 DUP2 SWAP1 KECCAK256 SLOAD SWAP1 MLOAD PUSH4 0x1C3FE463 PUSH1 0xE2 SHL DUP2 MSTORE PUSH1 0x1 PUSH1 0x1 PUSH1 0xA0 SHL SUB DUP8 DUP2 AND PUSH1 0x4 DUP4 ADD MSTORE SWAP1 SWAP2 AND SWAP1 PUSH4 0x70FF918C SWAP1 PUSH1 0x24 ADD PUSH1 0x20 PUSH1 0x40 MLOAD DUP1 DUP4 SUB DUP2 DUP7 GAS STATICCALL ISZERO DUP1 ISZERO PUSH3 0xA1A JUMPI RETURNDATASIZE PUSH1 0x0 DUP1 RETURNDATACOPY RETURNDATASIZE PUSH1 0x0 REVERT JUMPDEST POP POP POP POP PUSH1 0x40 MLOAD RETURNDATASIZE PUSH1 0x1F NOT PUSH1 0x1F DUP3 ADD AND DUP3 ADD DUP1 PUSH1 0x40 MSTORE POP DUP2 ADD SWAP1 PUSH3 0xA40 SWAP2 SWAP1 PUSH3 0x11DE JUMP JUMPDEST ISZERO PUSH3 0xAA1 JUMPI PUSH1 0x0 DUP2 DUP2 MSTORE PUSH1 0x1 PUSH1 0x20 MSTORE PUSH1 0x40 SWAP1 KECCAK256 SLOAD PUSH1 0x1 PUSH1 0x1 PUSH1 0xA0 SHL SUB AND DUP4 DUP4 PUSH3 0xA6B DUP2 PUSH3 0xFA3 JUMP JUMPDEST SWAP5 POP DUP2 MLOAD DUP2 LT PUSH3 0xA80 JUMPI PUSH3 0xA80 PUSH3 0xF8D JUMP JUMPDEST PUSH1 0x20 MUL PUSH1 0x20 ADD ADD SWAP1 PUSH1 0x1 PUSH1 0x1 PUSH1 0xA0 SHL SUB AND SWAP1 DUP2 PUSH1 0x1 PUSH1 0x1 PUSH1 0xA0 SHL SUB AND DUP2 MSTORE POP POP JUMPDEST DUP1 PUSH3 0xAAD DUP2 PUSH3 0xFA3 JUMP JUMPDEST SWAP2 POP POP PUSH3 0x9B8 JUMP JUMPDEST PUSH1 0x0 DUP1 PUSH1 0x2 SWAP1 SLOAD SWAP1 PUSH2 0x100 EXP SWAP1 DIV PUSH1 0x1 PUSH1 0x1 PUSH1 0xA0 SHL SUB AND PUSH1 0x1 PUSH1 0x1 PUSH1 0xA0 SHL SUB AND PUSH4 0x5C60DA1B PUSH1 0x40 MLOAD DUP2 PUSH4 0xFFFFFFFF AND PUSH1 0xE0 SHL DUP2 MSTORE PUSH1 0x4 ADD PUSH1 0x20 PUSH1 0x40 MLOAD DUP1 DUP4 SUB DUP2 DUP7 GAS STATICCALL ISZERO DUP1 ISZERO PUSH3 0xB0B JUMPI RETURNDATASIZE PUSH1 0x0 DUP1 RETURNDATACOPY RETURNDATASIZE PUSH1 0x0 REVERT JUMPDEST POP POP POP POP PUSH1 0x40 MLOAD RETURNDATASIZE PUSH1 0x1F NOT PUSH1 0x1F DUP3 ADD AND DUP3 ADD DUP1 PUSH1 0x40 MSTORE POP DUP2 ADD SWAP1 PUSH3 0xB31 SWAP2 SWAP1 PUSH3 0x108D JUMP JUMPDEST SWAP1 POP SWAP1 JUMP JUMPDEST PUSH2 0x90B DUP1 PUSH3 0x11F9 DUP4 CODECOPY ADD SWAP1 JUMP JUMPDEST PUSH1 0x0 DUP2 MLOAD DUP1 DUP5 MSTORE PUSH1 0x20 DUP1 DUP6 ADD SWAP5 POP DUP1 DUP5 ADD PUSH1 0x0 JUMPDEST DUP4 DUP2 LT ISZERO PUSH3 0xB7F JUMPI DUP2 MLOAD PUSH1 0x1 PUSH1 0x1 PUSH1 0xA0 SHL SUB AND DUP8 MSTORE SWAP6 DUP3 ADD SWAP6 SWAP1 DUP3 ADD SWAP1 PUSH1 0x1 ADD PUSH3 0xB58 JUMP JUMPDEST POP SWAP5 SWAP6 SWAP5 POP POP POP POP POP JUMP JUMPDEST PUSH1 0x20 DUP2 MSTORE PUSH1 0x0 PUSH3 0xB9F PUSH1 0x20 DUP4 ADD DUP5 PUSH3 0xB44 JUMP JUMPDEST SWAP4 SWAP3 POP POP POP JUMP JUMPDEST PUSH4 0x4E487B71 PUSH1 0xE0 SHL PUSH1 0x0 MSTORE PUSH1 0x41 PUSH1 0x4 MSTORE PUSH1 0x24 PUSH1 0x0 REVERT JUMPDEST PUSH1 0x40 MLOAD PUSH1 0x1F DUP3 ADD PUSH1 0x1F NOT AND DUP2 ADD PUSH8 0xFFFFFFFFFFFFFFFF DUP2 GT DUP3 DUP3 LT OR ISZERO PUSH3 0xBE8 JUMPI PUSH3 0xBE8 PUSH3 0xBA6 JUMP JUMPDEST PUSH1 0x40 MSTORE SWAP2 SWAP1 POP JUMP JUMPDEST PUSH1 0x0 DUP3 PUSH1 0x1F DUP4 ADD SLT PUSH3 0xC02 JUMPI PUSH1 0x0 DUP1 REVERT JUMPDEST DUP2 CALLDATALOAD PUSH8 0xFFFFFFFFFFFFFFFF DUP2 GT ISZERO PUSH3 0xC1F JUMPI PUSH3 0xC1F PUSH3 0xBA6 JUMP JUMPDEST PUSH3 0xC34 PUSH1 0x1F DUP3 ADD PUSH1 0x1F NOT AND PUSH1 0x20 ADD PUSH3 0xBBC JUMP JUMPDEST DUP2 DUP2 MSTORE DUP5 PUSH1 0x20 DUP4 DUP7 ADD ADD GT ISZERO PUSH3 0xC4A JUMPI PUSH1 0x0 DUP1 REVERT JUMPDEST DUP2 PUSH1 0x20 DUP6 ADD PUSH1 0x20 DUP4 ADD CALLDATACOPY PUSH1 0x0 SWAP2 DUP2 ADD PUSH1 0x20 ADD SWAP2 SWAP1 SWAP2 MSTORE SWAP4 SWAP3 POP POP POP JUMP JUMPDEST DUP1 CALLDATALOAD DUP1 ISZERO ISZERO DUP2 EQ PUSH3 0xC78 JUMPI PUSH1 0x0 DUP1 REVERT JUMPDEST SWAP2 SWAP1 POP JUMP JUMPDEST PUSH1 0x0 DUP3 PUSH1 0x1F DUP4 ADD SLT PUSH3 0xC8F JUMPI PUSH1 0x0 DUP1 REVERT JUMPDEST PUSH1 0x40 MLOAD PUSH1 0x60 DUP2 ADD DUP2 DUP2 LT PUSH8 0xFFFFFFFFFFFFFFFF DUP3 GT OR ISZERO PUSH3 0xCB5 JUMPI PUSH3 0xCB5 PUSH3 0xBA6 JUMP JUMPDEST PUSH1 0x40 MSTORE DUP1 PUSH1 0x60 DUP5 ADD DUP6 DUP2 GT ISZERO PUSH3 0xCCB JUMPI PUSH1 0x0 DUP1 REVERT JUMPDEST DUP5 JUMPDEST DUP2 DUP2 LT ISZERO PUSH3 0xCF8 JUMPI DUP1 CALLDATALOAD PUSH1 0xFF DUP2 AND DUP2 EQ PUSH3 0xCE9 JUMPI PUSH1 0x0 DUP1 DUP2 REVERT JUMPDEST DUP4 MSTORE PUSH1 0x20 SWAP3 DUP4 ADD SWAP3 ADD PUSH3 0xCCD JUMP JUMPDEST POP SWAP2 SWAP6 SWAP5 POP POP POP POP POP JUMP JUMPDEST PUSH1 0x1 PUSH1 0x1 PUSH1 0xA0 SHL SUB DUP2 AND DUP2 EQ PUSH3 0xD19 JUMPI PUSH1 0x0 DUP1 REVERT JUMPDEST POP JUMP JUMPDEST DUP1 CALLDATALOAD PUSH3 0xC78 DUP2 PUSH3 0xD03 JUMP JUMPDEST PUSH1 0x0 DUP3 PUSH1 0x1F DUP4 ADD SLT PUSH3 0xD3B JUMPI PUSH1 0x0 DUP1 REVERT JUMPDEST DUP2 CALLDATALOAD PUSH1 0x20 PUSH8 0xFFFFFFFFFFFFFFFF DUP3 GT ISZERO PUSH3 0xD5A JUMPI PUSH3 0xD5A PUSH3 0xBA6 JUMP JUMPDEST DUP2 PUSH1 0x5 SHL PUSH3 0xD6B DUP3 DUP3 ADD PUSH3 0xBBC JUMP JUMPDEST SWAP3 DUP4 MSTORE DUP5 DUP2 ADD DUP3 ADD SWAP3 DUP3 DUP2 ADD SWAP1 DUP8 DUP6 GT ISZERO PUSH3 0xD86 JUMPI PUSH1 0x0 DUP1 REVERT JUMPDEST DUP4 DUP8 ADD SWAP3 POP JUMPDEST DUP5 DUP4 LT ISZERO PUSH3 0xDB2 JUMPI DUP3 CALLDATALOAD PUSH3 0xDA2 DUP2 PUSH3 0xD03 JUMP JUMPDEST DUP3 MSTORE SWAP2 DUP4 ADD SWAP2 SWAP1 DUP4 ADD SWAP1 PUSH3 0xD8C JUMP JUMPDEST SWAP8 SWAP7 POP POP POP POP POP POP POP JUMP JUMPDEST PUSH1 0x0 DUP1 PUSH1 0x0 DUP1 PUSH1 0x0 DUP1 PUSH1 0x0 DUP1 PUSH2 0x140 DUP10 DUP12 SUB SLT ISZERO PUSH3 0xDDB JUMPI PUSH1 0x0 DUP1 REVERT JUMPDEST DUP9 CALLDATALOAD PUSH8 0xFFFFFFFFFFFFFFFF DUP1 DUP3 GT ISZERO PUSH3 0xDF4 JUMPI PUSH1 0x0 DUP1 REVERT JUMPDEST PUSH3 0xE02 DUP13 DUP4 DUP14 ADD PUSH3 0xBF0 JUMP JUMPDEST SWAP10 POP PUSH3 0xE12 PUSH1 0x20 DUP13 ADD PUSH3 0xC67 JUMP JUMPDEST SWAP9 POP PUSH1 0x40 DUP12 ADD CALLDATALOAD SWAP8 POP PUSH3 0xE2A DUP13 PUSH1 0x60 DUP14 ADD PUSH3 0xC7D JUMP JUMPDEST SWAP7 POP PUSH1 0xC0 DUP12 ADD CALLDATALOAD SWAP2 POP DUP1 DUP3 GT ISZERO PUSH3 0xE41 JUMPI PUSH1 0x0 DUP1 REVERT JUMPDEST PUSH3 0xE4F DUP13 DUP4 DUP14 ADD PUSH3 0xD29 JUMP JUMPDEST SWAP6 POP PUSH3 0xE5F PUSH1 0xE0 DUP13 ADD PUSH3 0xD1C JUMP JUMPDEST SWAP5 POP PUSH3 0xE70 PUSH2 0x100 DUP13 ADD PUSH3 0xD1C JUMP JUMPDEST SWAP4 POP PUSH2 0x120 DUP12 ADD CALLDATALOAD SWAP2 POP DUP1 DUP3 GT ISZERO PUSH3 0xE88 JUMPI PUSH1 0x0 DUP1 REVERT JUMPDEST POP PUSH3 0xE97 DUP12 DUP3 DUP13 ADD PUSH3 0xBF0 JUMP JUMPDEST SWAP2 POP POP SWAP3 SWAP6 SWAP9 POP SWAP3 SWAP6 SWAP9 SWAP1 SWAP4 SWAP7 POP JUMP JUMPDEST PUSH1 0x0 PUSH1 0x20 DUP3 DUP5 SUB SLT ISZERO PUSH3 0xEBA JUMPI PUSH1 0x0 DUP1 REVERT JUMPDEST DUP2 CALLDATALOAD PUSH3 0xB9F DUP2 PUSH3 0xD03 JUMP JUMPDEST PUSH1 0x0 DUP1 PUSH1 0x0 DUP1 PUSH1 0x0 PUSH1 0xA0 DUP7 DUP9 SUB SLT ISZERO PUSH3 0xEE0 JUMPI PUSH1 0x0 DUP1 REVERT JUMPDEST DUP6 CALLDATALOAD PUSH3 0xEED DUP2 PUSH3 0xD03 JUMP JUMPDEST SWAP5 POP PUSH1 0x20 DUP7 ADD CALLDATALOAD PUSH3 0xEFF DUP2 PUSH3 0xD03 JUMP JUMPDEST SWAP4 POP PUSH1 0x40 DUP7 ADD CALLDATALOAD PUSH3 0xF11 DUP2 PUSH3 0xD03 JUMP JUMPDEST SWAP3 POP PUSH1 0x60 DUP7 ADD CALLDATALOAD PUSH3 0xF23 DUP2 PUSH3 0xD03 JUMP JUMPDEST SWAP2 POP PUSH1 0x80 DUP7 ADD CALLDATALOAD PUSH3 0xF35 DUP2 PUSH3 0xD03 JUMP JUMPDEST DUP1 SWAP2 POP POP SWAP3 SWAP6 POP SWAP3 SWAP6 SWAP1 SWAP4 POP JUMP JUMPDEST PUSH1 0x0 PUSH1 0x20 DUP3 DUP5 SUB SLT ISZERO PUSH3 0xF56 JUMPI PUSH1 0x0 DUP1 REVERT JUMPDEST POP CALLDATALOAD SWAP2 SWAP1 POP JUMP JUMPDEST PUSH4 0x4E487B71 PUSH1 0xE0 SHL PUSH1 0x0 MSTORE PUSH1 0x11 PUSH1 0x4 MSTORE PUSH1 0x24 PUSH1 0x0 REVERT JUMPDEST PUSH1 0x0 DUP3 DUP3 LT ISZERO PUSH3 0xF88 JUMPI PUSH3 0xF88 PUSH3 0xF5D JUMP JUMPDEST POP SUB SWAP1 JUMP JUMPDEST PUSH4 0x4E487B71 PUSH1 0xE0 SHL PUSH1 0x0 MSTORE PUSH1 0x32 PUSH1 0x4 MSTORE PUSH1 0x24 PUSH1 0x0 REVERT JUMPDEST PUSH1 0x0 PUSH1 0x0 NOT DUP3 EQ ISZERO PUSH3 0xFBA JUMPI PUSH3 0xFBA PUSH3 0xF5D JUMP JUMPDEST POP PUSH1 0x1 ADD SWAP1 JUMP JUMPDEST PUSH1 0x0 DUP2 MLOAD DUP1 DUP5 MSTORE PUSH1 0x0 JUMPDEST DUP2 DUP2 LT ISZERO PUSH3 0xFE9 JUMPI PUSH1 0x20 DUP2 DUP6 ADD DUP2 ADD MLOAD DUP7 DUP4 ADD DUP3 ADD MSTORE ADD PUSH3 0xFCB JUMP JUMPDEST DUP2 DUP2 GT ISZERO PUSH3 0xFFC JUMPI PUSH1 0x0 PUSH1 0x20 DUP4 DUP8 ADD ADD MSTORE JUMPDEST POP PUSH1 0x1F ADD PUSH1 0x1F NOT AND SWAP3 SWAP1 SWAP3 ADD PUSH1 0x20 ADD SWAP3 SWAP2 POP POP JUMP JUMPDEST PUSH1 0x0 PUSH2 0x120 DUP1 DUP4 MSTORE PUSH3 0x1027 DUP2 DUP5 ADD DUP14 PUSH3 0xFC1 JUMP JUMPDEST DUP12 ISZERO ISZERO PUSH1 0x20 DUP6 ADD MSTORE PUSH1 0x40 DUP5 ADD DUP12 SWAP1 MSTORE PUSH1 0xFF DUP11 DUP2 AND PUSH1 0x60 DUP7 ADD MSTORE DUP10 DUP2 AND PUSH1 0x80 DUP7 ADD MSTORE DUP9 AND PUSH1 0xA0 DUP6 ADD MSTORE PUSH1 0x1 PUSH1 0x1 PUSH1 0xA0 SHL SUB DUP8 DUP2 AND PUSH1 0xC0 DUP7 ADD MSTORE DUP7 AND PUSH1 0xE0 DUP6 ADD MSTORE DUP4 DUP2 SUB PUSH2 0x100 DUP6 ADD MSTORE SWAP1 POP PUSH3 0x107D DUP2 DUP6 PUSH3 0xFC1 JUMP JUMPDEST SWAP13 SWAP12 POP POP POP POP POP POP POP POP POP POP POP POP JUMP JUMPDEST PUSH1 0x0 PUSH1 0x20 DUP3 DUP5 SUB SLT ISZERO PUSH3 0x10A0 JUMPI PUSH1 0x0 DUP1 REVERT JUMPDEST DUP2 MLOAD PUSH3 0xB9F DUP2 PUSH3 0xD03 JUMP JUMPDEST DUP1 PUSH1 0x0 JUMPDEST PUSH1 0x5 DUP2 LT ISZERO PUSH3 0x10DB JUMPI DUP2 MLOAD PUSH1 0x1 PUSH1 0x1 PUSH1 0xA0 SHL SUB AND DUP5 MSTORE PUSH1 0x20 SWAP4 DUP5 ADD SWAP4 SWAP1 SWAP2 ADD SWAP1 PUSH1 0x1 ADD PUSH3 0x10B1 JUMP JUMPDEST POP POP POP POP JUMP JUMPDEST PUSH1 0x1 PUSH1 0x1 PUSH1 0xA0 SHL SUB DUP9 AND DUP2 MSTORE PUSH2 0x1A0 PUSH1 0x20 DUP1 DUP4 ADD DUP3 SWAP1 MSTORE PUSH1 0x0 SWAP2 SWAP1 PUSH3 0x110A DUP5 DUP4 ADD DUP12 PUSH3 0xFC1 JUMP JUMPDEST SWAP2 POP DUP9 ISZERO ISZERO PUSH1 0x40 DUP6 ADD MSTORE DUP8 PUSH1 0x60 DUP6 ADD MSTORE PUSH1 0x80 DUP5 ADD DUP8 PUSH1 0x0 JUMPDEST PUSH1 0x3 DUP2 LT ISZERO PUSH3 0x1144 JUMPI DUP2 MLOAD PUSH1 0xFF AND DUP4 MSTORE SWAP2 DUP4 ADD SWAP2 SWAP1 DUP4 ADD SWAP1 PUSH1 0x1 ADD PUSH3 0x1122 JUMP JUMPDEST POP POP POP POP PUSH3 0x1157 PUSH1 0xE0 DUP5 ADD DUP7 PUSH3 0x10AD JUMP JUMPDEST DUP3 DUP2 SUB PUSH2 0x180 DUP5 ADD MSTORE PUSH3 0x116C DUP2 DUP6 PUSH3 0xB44 JUMP JUMPDEST SWAP11 SWAP10 POP POP POP POP POP POP POP POP POP POP JUMP JUMPDEST PUSH1 0x1 PUSH1 0x1 PUSH1 0xA0 SHL SUB DUP4 AND DUP2 MSTORE PUSH1 0x40 PUSH1 0x20 DUP3 ADD DUP2 SWAP1 MSTORE PUSH1 0x0 SWAP1 PUSH3 0x11A0 SWAP1 DUP4 ADD DUP5 PUSH3 0xFC1 JUMP JUMPDEST SWAP5 SWAP4 POP POP POP POP JUMP JUMPDEST PUSH1 0x1 PUSH1 0x1 PUSH1 0xA0 SHL SUB DUP5 AND DUP2 MSTORE PUSH1 0x60 PUSH1 0x20 DUP3 ADD DUP2 SWAP1 MSTORE PUSH1 0x0 SWAP1 PUSH3 0x11CE SWAP1 DUP4 ADD DUP6 PUSH3 0xFC1 JUMP JUMPDEST SWAP1 POP DUP3 PUSH1 0x40 DUP4 ADD MSTORE SWAP5 SWAP4 POP POP POP POP JUMP JUMPDEST PUSH1 0x0 PUSH1 0x20 DUP3 DUP5 SUB SLT ISZERO PUSH3 0x11F1 JUMPI PUSH1 0x0 DUP1 REVERT JUMPDEST POP MLOAD SWAP2 SWAP1 POP JUMP INVALID PUSH1 0x80 PUSH1 0x40 MSTORE CALLVALUE DUP1 ISZERO PUSH2 0x10 JUMPI PUSH1 0x0 DUP1 REVERT JUMPDEST POP PUSH1 0x40 MLOAD PUSH2 0x90B CODESIZE SUB DUP1 PUSH2 0x90B DUP4 CODECOPY DUP2 ADD PUSH1 0x40 DUP2 SWAP1 MSTORE PUSH2 0x2F SWAP2 PUSH2 0x467 JUMP JUMPDEST DUP2 DUP2 PUSH2 0x3D DUP3 DUP3 PUSH1 0x0 PUSH2 0x46 JUMP JUMPDEST POP POP POP POP PUSH2 0x591 JUMP JUMPDEST PUSH2 0x4F DUP4 PUSH2 0x111 JUMP JUMPDEST PUSH1 0x40 MLOAD PUSH1 0x1 PUSH1 0x1 PUSH1 0xA0 SHL SUB DUP5 AND SWAP1 PUSH32 0x1CF3B03A6CF19FA2BABA4DF148E9DCABEDEA7F8A5C07840E207E5C089BE95D3E SWAP1 PUSH1 0x0 SWAP1 LOG2 PUSH1 0x0 DUP3 MLOAD GT DUP1 PUSH2 0x90 JUMPI POP DUP1 JUMPDEST ISZERO PUSH2 0x10C JUMPI PUSH2 0x10A DUP4 PUSH1 0x1 PUSH1 0x1 PUSH1 0xA0 SHL SUB AND PUSH4 0x5C60DA1B PUSH1 0x40 MLOAD DUP2 PUSH4 0xFFFFFFFF AND PUSH1 0xE0 SHL DUP2 MSTORE PUSH1 0x4 ADD PUSH1 0x20 PUSH1 0x40 MLOAD DUP1 DUP4 SUB DUP2 DUP7 GAS STATICCALL ISZERO DUP1 ISZERO PUSH2 0xD6 JUMPI RETURNDATASIZE PUSH1 0x0 DUP1 RETURNDATACOPY RETURNDATASIZE PUSH1 0x0 REVERT JUMPDEST POP POP POP POP PUSH1 0x40 MLOAD RETURNDATASIZE PUSH1 0x1F NOT PUSH1 0x1F DUP3 ADD AND DUP3 ADD DUP1 PUSH1 0x40 MSTORE POP DUP2 ADD SWAP1 PUSH2 0xFA SWAP2 SWAP1 PUSH2 0x527 JUMP JUMPDEST DUP4 PUSH2 0x2B4 PUSH1 0x20 SHL PUSH2 0x29 OR PUSH1 0x20 SHR JUMP JUMPDEST POP JUMPDEST POP POP POP JUMP JUMPDEST PUSH2 0x124 DUP2 PUSH2 0x2E0 PUSH1 0x20 SHL PUSH2 0x55 OR PUSH1 0x20 SHR JUMP JUMPDEST PUSH2 0x183 JUMPI PUSH1 0x40 MLOAD PUSH3 0x461BCD PUSH1 0xE5 SHL DUP2 MSTORE PUSH1 0x20 PUSH1 0x4 DUP3 ADD MSTORE PUSH1 0x25 PUSH1 0x24 DUP3 ADD MSTORE PUSH32 0x455243313936373A206E657720626561636F6E206973206E6F74206120636F6E PUSH1 0x44 DUP3 ADD MSTORE PUSH5 0x1D1C9858DD PUSH1 0xDA SHL PUSH1 0x64 DUP3 ADD MSTORE PUSH1 0x84 ADD JUMPDEST PUSH1 0x40 MLOAD DUP1 SWAP2 SUB SWAP1 REVERT JUMPDEST PUSH2 0x1F7 DUP2 PUSH1 0x1 PUSH1 0x1 PUSH1 0xA0 SHL SUB AND PUSH4 0x5C60DA1B PUSH1 0x40 MLOAD DUP2 PUSH4 0xFFFFFFFF AND PUSH1 0xE0 SHL DUP2 MSTORE PUSH1 0x4 ADD PUSH1 0x20 PUSH1 0x40 MLOAD DUP1 DUP4 SUB DUP2 DUP7 GAS STATICCALL ISZERO DUP1 ISZERO PUSH2 0x1C4 JUMPI RETURNDATASIZE PUSH1 0x0 DUP1 RETURNDATACOPY RETURNDATASIZE PUSH1 0x0 REVERT JUMPDEST POP POP POP POP PUSH1 0x40 MLOAD RETURNDATASIZE PUSH1 0x1F NOT PUSH1 0x1F DUP3 ADD AND DUP3 ADD DUP1 PUSH1 0x40 MSTORE POP DUP2 ADD SWAP1 PUSH2 0x1E8 SWAP2 SWAP1 PUSH2 0x527 JUMP JUMPDEST PUSH2 0x2E0 PUSH1 0x20 SHL PUSH2 0x55 OR PUSH1 0x20 SHR JUMP JUMPDEST PUSH2 0x25C JUMPI PUSH1 0x40 MLOAD PUSH3 0x461BCD PUSH1 0xE5 SHL DUP2 MSTORE PUSH1 0x20 PUSH1 0x4 DUP3 ADD MSTORE PUSH1 0x30 PUSH1 0x24 DUP3 ADD MSTORE PUSH32 0x455243313936373A20626561636F6E20696D706C656D656E746174696F6E2069 PUSH1 0x44 DUP3 ADD MSTORE PUSH16 0x1CC81B9BDD08184818DBDB9D1C9858DD PUSH1 0x82 SHL PUSH1 0x64 DUP3 ADD MSTORE PUSH1 0x84 ADD PUSH2 0x17A JUMP JUMPDEST DUP1 PUSH2 0x293 PUSH32 0xA3F0AD74E5423AEBFD80D3EF4346578335A9A72AEAEE59FF6CB3582B35133D50 PUSH1 0x0 SHL PUSH2 0x2EF PUSH1 0x20 SHL PUSH2 0x64 OR PUSH1 0x20 SHR JUMP JUMPDEST DUP1 SLOAD PUSH1 0x1 PUSH1 0x1 PUSH1 0xA0 SHL SUB NOT AND PUSH1 0x1 PUSH1 0x1 PUSH1 0xA0 SHL SUB SWAP3 SWAP1 SWAP3 AND SWAP2 SWAP1 SWAP2 OR SWAP1 SSTORE POP JUMP JUMPDEST PUSH1 0x60 PUSH2 0x2D9 DUP4 DUP4 PUSH1 0x40 MLOAD DUP1 PUSH1 0x60 ADD PUSH1 0x40 MSTORE DUP1 PUSH1 0x27 DUP2 MSTORE PUSH1 0x20 ADD PUSH2 0x8E4 PUSH1 0x27 SWAP2 CODECOPY PUSH2 0x2F2 JUMP JUMPDEST SWAP4 SWAP3 POP POP POP JUMP JUMPDEST PUSH1 0x1 PUSH1 0x1 PUSH1 0xA0 SHL SUB AND EXTCODESIZE ISZERO ISZERO SWAP1 JUMP JUMPDEST SWAP1 JUMP JUMPDEST PUSH1 0x60 PUSH1 0x1 PUSH1 0x1 PUSH1 0xA0 SHL SUB DUP5 AND EXTCODESIZE PUSH2 0x35A JUMPI PUSH1 0x40 MLOAD PUSH3 0x461BCD PUSH1 0xE5 SHL DUP2 MSTORE PUSH1 0x20 PUSH1 0x4 DUP3 ADD MSTORE PUSH1 0x26 PUSH1 0x24 DUP3 ADD MSTORE PUSH32 0x416464726573733A2064656C65676174652063616C6C20746F206E6F6E2D636F PUSH1 0x44 DUP3 ADD MSTORE PUSH6 0x1B9D1C9858DD PUSH1 0xD2 SHL PUSH1 0x64 DUP3 ADD MSTORE PUSH1 0x84 ADD PUSH2 0x17A JUMP JUMPDEST PUSH1 0x0 DUP1 DUP6 PUSH1 0x1 PUSH1 0x1 PUSH1 0xA0 SHL SUB AND DUP6 PUSH1 0x40 MLOAD PUSH2 0x375 SWAP2 SWAP1 PUSH2 0x542 JUMP JUMPDEST PUSH1 0x0 PUSH1 0x40 MLOAD DUP1 DUP4 SUB DUP2 DUP6 GAS DELEGATECALL SWAP2 POP POP RETURNDATASIZE DUP1 PUSH1 0x0 DUP2 EQ PUSH2 0x3B0 JUMPI PUSH1 0x40 MLOAD SWAP2 POP PUSH1 0x1F NOT PUSH1 0x3F RETURNDATASIZE ADD AND DUP3 ADD PUSH1 0x40 MSTORE RETURNDATASIZE DUP3 MSTORE RETURNDATASIZE PUSH1 0x0 PUSH1 0x20 DUP5 ADD RETURNDATACOPY PUSH2 0x3B5 JUMP JUMPDEST PUSH1 0x60 SWAP2 POP JUMPDEST POP SWAP1 SWAP3 POP SWAP1 POP PUSH2 0x3C6 DUP3 DUP3 DUP7 PUSH2 0x3D0 JUMP JUMPDEST SWAP7 SWAP6 POP POP POP POP POP POP JUMP JUMPDEST PUSH1 0x60 DUP4 ISZERO PUSH2 0x3DF JUMPI POP DUP2 PUSH2 0x2D9 JUMP JUMPDEST DUP3 MLOAD ISZERO PUSH2 0x3EF JUMPI DUP3 MLOAD DUP1 DUP5 PUSH1 0x20 ADD REVERT JUMPDEST DUP2 PUSH1 0x40 MLOAD PUSH3 0x461BCD PUSH1 0xE5 SHL DUP2 MSTORE PUSH1 0x4 ADD PUSH2 0x17A SWAP2 SWAP1 PUSH2 0x55E JUMP JUMPDEST DUP1 MLOAD PUSH1 0x1 PUSH1 0x1 PUSH1 0xA0 SHL SUB DUP2 AND DUP2 EQ PUSH2 0x420 JUMPI PUSH1 0x0 DUP1 REVERT JUMPDEST SWAP2 SWAP1 POP JUMP JUMPDEST PUSH4 0x4E487B71 PUSH1 0xE0 SHL PUSH1 0x0 MSTORE PUSH1 0x41 PUSH1 0x4 MSTORE PUSH1 0x24 PUSH1 0x0 REVERT JUMPDEST PUSH1 0x0 JUMPDEST DUP4 DUP2 LT ISZERO PUSH2 0x456 JUMPI DUP2 DUP2 ADD MLOAD DUP4 DUP3 ADD MSTORE PUSH1 0x20 ADD PUSH2 0x43E JUMP JUMPDEST DUP4 DUP2 GT ISZERO PUSH2 0x10A JUMPI POP POP PUSH1 0x0 SWAP2 ADD MSTORE JUMP JUMPDEST PUSH1 0x0 DUP1 PUSH1 0x40 DUP4 DUP6 SUB SLT ISZERO PUSH2 0x47A JUMPI PUSH1 0x0 DUP1 REVERT JUMPDEST PUSH2 0x483 DUP4 PUSH2 0x409 JUMP JUMPDEST PUSH1 0x20 DUP5 ADD MLOAD SWAP1 SWAP3 POP PUSH1 0x1 PUSH1 0x1 PUSH1 0x40 SHL SUB DUP1 DUP3 GT ISZERO PUSH2 0x4A0 JUMPI PUSH1 0x0 DUP1 REVERT JUMPDEST DUP2 DUP6 ADD SWAP2 POP DUP6 PUSH1 0x1F DUP4 ADD SLT PUSH2 0x4B4 JUMPI PUSH1 0x0 DUP1 REVERT JUMPDEST DUP2 MLOAD DUP2 DUP2 GT ISZERO PUSH2 0x4C6 JUMPI PUSH2 0x4C6 PUSH2 0x425 JUMP JUMPDEST PUSH1 0x40 MLOAD PUSH1 0x1F DUP3 ADD PUSH1 0x1F NOT SWAP1 DUP2 AND PUSH1 0x3F ADD AND DUP2 ADD SWAP1 DUP4 DUP3 GT DUP2 DUP4 LT OR ISZERO PUSH2 0x4EE JUMPI PUSH2 0x4EE PUSH2 0x425 JUMP JUMPDEST DUP2 PUSH1 0x40 MSTORE DUP3 DUP2 MSTORE DUP9 PUSH1 0x20 DUP5 DUP8 ADD ADD GT ISZERO PUSH2 0x507 JUMPI PUSH1 0x0 DUP1 REVERT JUMPDEST PUSH2 0x518 DUP4 PUSH1 0x20 DUP4 ADD PUSH1 0x20 DUP9 ADD PUSH2 0x43B JUMP JUMPDEST DUP1 SWAP6 POP POP POP POP POP POP SWAP3 POP SWAP3 SWAP1 POP JUMP JUMPDEST PUSH1 0x0 PUSH1 0x20 DUP3 DUP5 SUB SLT ISZERO PUSH2 0x539 JUMPI PUSH1 0x0 DUP1 REVERT JUMPDEST PUSH2 0x2D9 DUP3 PUSH2 0x409 JUMP JUMPDEST PUSH1 0x0 DUP3 MLOAD PUSH2 0x554 DUP2 DUP5 PUSH1 0x20 DUP8 ADD PUSH2 0x43B JUMP JUMPDEST SWAP2 SWAP1 SWAP2 ADD SWAP3 SWAP2 POP POP JUMP JUMPDEST PUSH1 0x20 DUP2 MSTORE PUSH1 0x0 DUP3 MLOAD DUP1 PUSH1 0x20 DUP5 ADD MSTORE PUSH2 0x57D DUP2 PUSH1 0x40 DUP6 ADD PUSH1 0x20 DUP8 ADD PUSH2 0x43B JUMP JUMPDEST PUSH1 0x1F ADD PUSH1 0x1F NOT AND SWAP2 SWAP1 SWAP2 ADD PUSH1 0x40 ADD SWAP3 SWAP2 POP POP JUMP JUMPDEST PUSH2 0x344 DUP1 PUSH2 0x5A0 PUSH1 0x0 CODECOPY PUSH1 0x0 RETURN INVALID PUSH1 0x80 PUSH1 0x40 MSTORE CALLDATASIZE PUSH2 0x13 JUMPI PUSH2 0x11 PUSH2 0x17 JUMP JUMPDEST STOP JUMPDEST PUSH2 0x11 JUMPDEST PUSH2 0x27 PUSH2 0x22 PUSH2 0x67 JUMP JUMPDEST PUSH2 0x100 JUMP JUMPDEST JUMP JUMPDEST PUSH1 0x60 PUSH2 0x4E DUP4 DUP4 PUSH1 0x40 MLOAD DUP1 PUSH1 0x60 ADD PUSH1 0x40 MSTORE DUP1 PUSH1 0x27 DUP2 MSTORE PUSH1 0x20 ADD PUSH2 0x2E8 PUSH1 0x27 SWAP2 CODECOPY PUSH2 0x124 JUMP JUMPDEST SWAP4 SWAP3 POP POP POP JUMP JUMPDEST PUSH1 0x1 PUSH1 0x1 PUSH1 0xA0 SHL SUB AND EXTCODESIZE ISZERO ISZERO SWAP1 JUMP JUMPDEST SWAP1 JUMP JUMPDEST PUSH1 0x0 PUSH2 0x9A PUSH32 0xA3F0AD74E5423AEBFD80D3EF4346578335A9A72AEAEE59FF6CB3582B35133D50 SLOAD PUSH1 0x1 PUSH1 0x1 PUSH1 0xA0 SHL SUB AND SWAP1 JUMP JUMPDEST PUSH1 0x1 PUSH1 0x1 PUSH1 0xA0 SHL SUB AND PUSH4 0x5C60DA1B PUSH1 0x40 MLOAD DUP2 PUSH4 0xFFFFFFFF AND PUSH1 0xE0 SHL DUP2 MSTORE PUSH1 0x4 ADD PUSH1 0x20 PUSH1 0x40 MLOAD DUP1 DUP4 SUB DUP2 DUP7 GAS STATICCALL ISZERO DUP1 ISZERO PUSH2 0xD7 JUMPI RETURNDATASIZE PUSH1 0x0 DUP1 RETURNDATACOPY RETURNDATASIZE PUSH1 0x0 REVERT JUMPDEST POP POP POP POP PUSH1 0x40 MLOAD RETURNDATASIZE PUSH1 0x1F NOT PUSH1 0x1F DUP3 ADD AND DUP3 ADD DUP1 PUSH1 0x40 MSTORE POP DUP2 ADD SWAP1 PUSH2 0xFB SWAP2 SWAP1 PUSH2 0x23F JUMP JUMPDEST SWAP1 POP SWAP1 JUMP JUMPDEST CALLDATASIZE PUSH1 0x0 DUP1 CALLDATACOPY PUSH1 0x0 DUP1 CALLDATASIZE PUSH1 0x0 DUP5 GAS DELEGATECALL RETURNDATASIZE PUSH1 0x0 DUP1 RETURNDATACOPY DUP1 DUP1 ISZERO PUSH2 0x11F JUMPI RETURNDATASIZE PUSH1 0x0 RETURN JUMPDEST RETURNDATASIZE PUSH1 0x0 REVERT JUMPDEST PUSH1 0x60 PUSH1 0x1 PUSH1 0x1 PUSH1 0xA0 SHL SUB DUP5 AND EXTCODESIZE PUSH2 0x191 JUMPI PUSH1 0x40 MLOAD PUSH3 0x461BCD PUSH1 0xE5 SHL DUP2 MSTORE PUSH1 0x20 PUSH1 0x4 DUP3 ADD MSTORE PUSH1 0x26 PUSH1 0x24 DUP3 ADD MSTORE PUSH32 0x416464726573733A2064656C65676174652063616C6C20746F206E6F6E2D636F PUSH1 0x44 DUP3 ADD MSTORE PUSH6 0x1B9D1C9858DD PUSH1 0xD2 SHL PUSH1 0x64 DUP3 ADD MSTORE PUSH1 0x84 ADD JUMPDEST PUSH1 0x40 MLOAD DUP1 SWAP2 SUB SWAP1 REVERT JUMPDEST PUSH1 0x0 DUP1 DUP6 PUSH1 0x1 PUSH1 0x1 PUSH1 0xA0 SHL SUB AND DUP6 PUSH1 0x40 MLOAD PUSH2 0x1AC SWAP2 SWAP1 PUSH2 0x298 JUMP JUMPDEST PUSH1 0x0 PUSH1 0x40 MLOAD DUP1 DUP4 SUB DUP2 DUP6 GAS DELEGATECALL SWAP2 POP POP RETURNDATASIZE DUP1 PUSH1 0x0 DUP2 EQ PUSH2 0x1E7 JUMPI PUSH1 0x40 MLOAD SWAP2 POP PUSH1 0x1F NOT PUSH1 0x3F RETURNDATASIZE ADD AND DUP3 ADD PUSH1 0x40 MSTORE RETURNDATASIZE DUP3 MSTORE RETURNDATASIZE PUSH1 0x0 PUSH1 0x20 DUP5 ADD RETURNDATACOPY PUSH2 0x1EC JUMP JUMPDEST PUSH1 0x60 SWAP2 POP JUMPDEST POP SWAP2 POP SWAP2 POP PUSH2 0x1FC DUP3 DUP3 DUP7 PUSH2 0x206 JUMP JUMPDEST SWAP7 SWAP6 POP POP POP POP POP POP JUMP JUMPDEST PUSH1 0x60 DUP4 ISZERO PUSH2 0x215 JUMPI POP DUP2 PUSH2 0x4E JUMP JUMPDEST DUP3 MLOAD ISZERO PUSH2 0x225 JUMPI DUP3 MLOAD DUP1 DUP5 PUSH1 0x20 ADD REVERT JUMPDEST DUP2 PUSH1 0x40 MLOAD PUSH3 0x461BCD PUSH1 0xE5 SHL DUP2 MSTORE PUSH1 0x4 ADD PUSH2 0x188 SWAP2 SWAP1 PUSH2 0x2B4 JUMP JUMPDEST PUSH1 0x0 PUSH1 0x20 DUP3 DUP5 SUB SLT ISZERO PUSH2 0x251 JUMPI PUSH1 0x0 DUP1 REVERT JUMPDEST DUP2 MLOAD PUSH1 0x1 PUSH1 0x1 PUSH1 0xA0 SHL SUB DUP2 AND DUP2 EQ PUSH2 0x4E JUMPI PUSH1 0x0 DUP1 REVERT JUMPDEST PUSH1 0x0 JUMPDEST DUP4 DUP2 LT ISZERO PUSH2 0x283 JUMPI DUP2 DUP2 ADD MLOAD DUP4 DUP3 ADD MSTORE PUSH1 0x20 ADD PUSH2 0x26B JUMP JUMPDEST DUP4 DUP2 GT ISZERO PUSH2 0x292 JUMPI PUSH1 0x0 DUP5 DUP5 ADD MSTORE JUMPDEST POP POP POP POP JUMP JUMPDEST PUSH1 0x0 DUP3 MLOAD PUSH2 0x2AA DUP2 DUP5 PUSH1 0x20 DUP8 ADD PUSH2 0x268 JUMP JUMPDEST SWAP2 SWAP1 SWAP2 ADD SWAP3 SWAP2 POP POP JUMP JUMPDEST PUSH1 0x20 DUP2 MSTORE PUSH1 0x0 DUP3 MLOAD DUP1 PUSH1 0x20 DUP5 ADD MSTORE PUSH2 0x2D3 DUP2 PUSH1 0x40 DUP6 ADD PUSH1 0x20 DUP8 ADD PUSH2 0x268 JUMP JUMPDEST PUSH1 0x1F ADD PUSH1 0x1F NOT AND SWAP2 SWAP1 SWAP2 ADD PUSH1 0x40 ADD SWAP3 SWAP2 POP POP JUMP INVALID COINBASE PUSH5 0x6472657373 GASPRICE KECCAK256 PUSH13 0x6F772D6C6576656C2064656C65 PUSH8 0x6174652063616C6C KECCAK256 PUSH7 0x61696C6564A264 PUSH10 0x7066735822122025A9C7 BASEFEE 0xCB SWAP3 PUSH3 0x7DF1EE CALL 0xF6 CALLDATASIZE SUB ADDMOD PUSH17 0xF9EEB2865D476DB2B1EFDF323A388CD764 PUSH20 0x6F6C634300080C0033416464726573733A206C6F PUSH24 0x2D6C6576656C2064656C65676174652063616C6C20666169 PUSH13 0x6564A2646970667358221220FB PUSH23 0x713BAD04C55E1695DDE286445BB044A3A90CCF2313D105 CALLVALUE SIGNEXTEND MSTORE8 0x5D SDIV 0xFC 0xF9 PUSH5 0x736F6C6343 STOP ADDMOD 0xC STOP CALLER ",
  "sha1": "40d39ed7c5d1f66c5af2576049aca564c7f43197",
  "source": "// SPDX-License-Identifier: MIT\npragma solidity ^0.8.11;\n\nimport \"./CLHouse.sol\";\nimport \"./CLProxy.sol\";\n\n\n/// @title Crypto League House Factory\n/// @notice Config, create and deploy CLHouses\n/// @dev This contract is the only way to create CLH\n/// @author Leonardo Urrego\ncontract CLFactory is Initializable {\n    /// @notice Event when house is created\n    /// @param houseAddr Address of the created house\n    /// @param houseName Name of the created house\n    /// @param houseId Id of CLH of the created house\n    event evtHouseCreation( address houseAddr, string houseName, uint256 houseId );\n\n    CLBeacon public beaconCLH;\n    \n    /// @notice Mapping to store all the created houses\n    mapping(uint256 => CLHouse) public mapCLH;\n\n    /// @notice Store the number of houses created\n    uint256 public numCLH;\n\n    /// @notice Relation houseAddr with houseId\n    mapping( address => uint256 ) public mapIdCLH;\n\n    /// @notice Contract with the CLH Constructor logic\n    address CLLConstructorCLH;\n\n    /// @notice Contract with the functions for user management\n    address CLLUserManagement;\n\n    /// @notice Contract with the functions for Governance\n    address CLLGovernance;\n\n    /// @notice Contract CLHouse API\n    address CLHAPI;\n\n    /// @custom:oz-upgrades-unsafe-allow constructor\n    constructor() {\n        _disableInitializers();\n    }\n\n    /// @notice Config the CLFactory with the CL Logic Contracts\n    /// @param _CLLUserManagement Address Contract Logic for user management\n    /// @param _CLLGovernance Address Contract Logic for governance\n    /// @param _CLLConstructorCLH Address Contract with the Constructor logic\n    /// @dev The constructor create a default CLH with the houseId #0\n    function Init(\n        address _CLLUserManagement,\n        address _CLLGovernance,\n        address _CLLConstructorCLH,\n        address _CLHAPI,\n        address _beacon\n    )\n        public\n        reinitializer( __UPGRADEABLE_CLF_VERSION__ )\n    {\n        beaconCLH = CLBeacon( _beacon );\n\n        CLLUserManagement = _CLLUserManagement;\n        CLLGovernance = _CLLGovernance;\n        CLLConstructorCLH = _CLLConstructorCLH;\n        CLHAPI = _CLHAPI;\n\n        numCLH = 0;\n        mapCLH[ numCLH ] = CLHouse( address(0) );\n        mapIdCLH[ address(0) ] = numCLH;\n    }\n\n\n    /// @notice Deploy a new CLHouse\n    /// @param _houseName Name of the CLH\n    /// @param _housePrivate If is set to 1, the CLH is set to private\n    /// @param _govModel keccak256 hash of the governance model, see the __GOV_* constans\n    /// @param _govRules Array for goverment rules see `enum gRule`\n    /// @param _ManagerWallets Whitelist of address for invitate as managers\n    /// @dev Some parameters wil be ignored depending on the governance model\n    function CreateCLH(\n        string memory _houseName,\n        bool _housePrivate,\n        bytes32 _govModel,\n        uint8[3] memory _govRules,\n        address[] memory _ManagerWallets,\n        address _gnosisSafe,\n        address _signerWallet,\n        bytes memory _signature\n    ) \n        public\n    {\n        CLHouse daoCLH;\n        address houseOwner = msg.sender;\n\n        require( \n            __GOV_DICTATORSHIP__ == _govModel ||\n            __GOV_COMMITTEE__ == _govModel ||\n            __GOV_SIMPLE_MAJORITY__ == _govModel ,\n            \"Invalid Governance Type\"\n        );\n\n        if( _signerWallet != address(0) ) {\n            require( _signature.length == 65, \"CreateCLH: Bad signature length\" );\n            \n            require(\n                _signerWallet == CLHouseApi( CLHAPI ).SignerOCNewCLH(\n                    _houseName,\n                    _housePrivate,\n                    _govModel,\n                    _govRules[0], // _govRuleMaxUsers,\n                    _govRules[1], // _govRuleMaxManagers,\n                    _govRules[2], // _govRuleApprovPercentage,\n                    _ManagerWallets[0],\n                    address(this),\n                    _signature\n                ),\n                \"CreateCLH: Invalid Signature\"\n            );\n\n            houseOwner = _signerWallet;\n        }\n\n        CLProxyCLH pxyCLH = new CLProxyCLH(\n            address( beaconCLH ),\n            abi.encodeWithSignature(\n                \"Init(address,string,bool,bytes32,uint8[3],address[5],address[])\",\n                houseOwner, \n                _houseName,\n                _housePrivate,\n                _govModel,\n                _govRules,\n                [ CLLUserManagement, CLLGovernance, CLLConstructorCLH, CLHAPI, _gnosisSafe ],\n                _ManagerWallets\n            )\n        );\n\n        numCLH++;\n        mapCLH[ numCLH ] = CLHouse( address( pxyCLH ) );\n        mapIdCLH[ address( pxyCLH ) ] = numCLH;\n\n        emit evtHouseCreation( address( pxyCLH ), _houseName, numCLH );\n    }\n\n    function getImplementation() public view returns (address) {\n        return beaconCLH.implementation();\n    }\n\n\n    /// @notice Return the list of all houses created by the factory\n    /// @return Array with address houses\n    function GetHouseList()\n        external\n        view\n        returns(\n            address[] memory\n        )\n    {\n        if( numCLH > 0 ) {\n            address[] memory arrCLH = new address[] ( numCLH );\n\n            for( uint256 hid = 1 ; hid <= numCLH ; hid++ )\n                arrCLH[ hid - 1 ] = address( mapCLH[ hid ] );\n\n            return arrCLH;\n        }\n    }\n\n\n    /// @notice List of membership houses of the one wallet address\n    /// @param _walletAddr User wallet address\n    /// @return Array with address houses\n    function GetHousesByUser(\n        address _walletAddr\n    )\n        external\n        view\n        returns(\n            address[] memory\n        )\n    {\n        address[] memory arrHouses = new address[] ( numCLH );\n        uint256 indexarr = 0;\n        for( uint256 did = 1 ; did <= numCLH ; did++ )\n            if( 0 != mapCLH[ did ].mapIdUser( _walletAddr ) )\n                arrHouses[ indexarr++ ] = address( mapCLH[ did ] );\n\n        return arrHouses;\n    }\n\n\n    /// @notice List of houses that have an invitation pending for a specific wallet\n    /// @param _walletAddr The user wallet address\n    /// @return Array with address houses\n    function GetInvitationsByUser(\n        address _walletAddr\n    )\n        external\n        view\n        returns(\n            address[] memory\n        )\n    {\n        address[] memory arrHouses = new address[] ( numCLH );\n        uint256 indexarr = 0;\n        for( uint256 did = 1 ; did <= numCLH ; did++ )\n            if( 0 != mapCLH[ did ].mapInvitationUser( _walletAddr ) )\n                arrHouses[ indexarr++ ] = address( mapCLH[ did ] ) ;\n\n        return arrHouses;\n    }\n}",
  "sourcePath": "contracts/CLHouse/CLFactory.sol",
  "type": "contract"
}