{
  "abi": [
    {
      "inputs": [
        {
          "internalType": "address",
          "name": "_addrCLF",
          "type": "address"
        },
        {
          "internalType": "address",
          "name": "_walletAddr",
          "type": "address"
        }
      ],
      "name": "GetHousesByUser",
      "outputs": [
        {
          "internalType": "address[]",
          "name": "arrHouses",
          "type": "address[]"
        }
      ],
      "stateMutability": "view",
      "type": "function"
    },
    {
      "inputs": [
        {
          "internalType": "address",
          "name": "_addrCLF",
          "type": "address"
        }
      ],
      "name": "GetHousesList",
      "outputs": [
        {
          "internalType": "address[]",
          "name": "arrCLH",
          "type": "address[]"
        }
      ],
      "stateMutability": "view",
      "type": "function"
    },
    {
      "inputs": [
        {
          "internalType": "address",
          "name": "_addrCLF",
          "type": "address"
        },
        {
          "internalType": "address",
          "name": "_walletAddr",
          "type": "address"
        }
      ],
      "name": "GetInvitationsByUser",
      "outputs": [
        {
          "internalType": "address[]",
          "name": "arrHouses",
          "type": "address[]"
        }
      ],
      "stateMutability": "view",
      "type": "function"
    }
  ],
  "bytecode": "608060405234801561001057600080fd5b506109ac806100206000396000f3fe608060405234801561001057600080fd5b50600436106100415760003560e01c80638191ae1114610046578063839b7f8f1461006f578063ee4ddcf014610082575b600080fd5b61005961005436600461068b565b610095565b60405161006691906106c4565b60405180910390f35b61005961007d366004610711565b610315565b61005961009036600461068b565b610489565b60606000836001600160a01b031663ee7a7d1b6040518163ffffffff1660e01b8152600401602060405180830381865afa1580156100d7573d6000803e3d6000fd5b505050506040513d601f19601f820116820180604052508101906100fb9190610735565b905060008167ffffffffffffffff8111156101185761011861074e565b604051908082528060200260200182016040528015610141578160200160208202803683370190505b50925060015b82811161030c5760405163189361dd60e21b8152600481018290526000906001600160a01b0388169063624d877490602401602060405180830381865afa158015610196573d6000803e3d6000fd5b505050506040513d601f19601f820116820180604052508101906101ba9190610764565b60405163287b984560e11b81526001600160a01b0388811660048301529192506000918316906350f7308a90602401602060405180830381865afa158015610206573d6000803e3d6000fd5b505050506040513d601f19601f8201168201806040525081019061022a9190610735565b905080156102f7576040516332e159a760e21b8152600481018290526000906001600160a01b0384169063cb85669c90602401600060405180830381865afa15801561027a573d6000803e3d6000fd5b505050506040513d6000823e601f3d908101601f191682016040526102a291908101906107b9565b98505050504286111594506102f59350505050578287866102c28161092e565b9750815181106102d4576102d4610949565b60200260200101906001600160a01b031690816001600160a01b0316815250505b505b505080806103049061092e565b915050610147565b50505092915050565b60606000826001600160a01b031663ee7a7d1b6040518163ffffffff1660e01b8152600401602060405180830381865afa158015610357573d6000803e3d6000fd5b505050506040513d601f19601f8201168201806040525081019061037b9190610735565b90508015610483578067ffffffffffffffff81111561039c5761039c61074e565b6040519080825280602002602001820160405280156103c5578160200160208202803683370190505b50915060015b8181116104815760405163189361dd60e21b8152600481018290526001600160a01b0385169063624d877490602401602060405180830381865afa158015610417573d6000803e3d6000fd5b505050506040513d601f19601f8201168201806040525081019061043b9190610764565b8361044760018461095f565b8151811061045757610457610949565b6001600160a01b0390921660209283029190910190910152806104798161092e565b9150506103cb565b505b50919050565b60606000836001600160a01b031663ee7a7d1b6040518163ffffffff1660e01b8152600401602060405180830381865afa1580156104cb573d6000803e3d6000fd5b505050506040513d601f19601f820116820180604052508101906104ef9190610735565b905060008167ffffffffffffffff81111561050c5761050c61074e565b604051908082528060200260200182016040528015610535578160200160208202803683370190505b50925060015b82811161030c5760405163189361dd60e21b8152600481018290526000906001600160a01b0388169063624d877490602401602060405180830381865afa15801561058a573d6000803e3d6000fd5b505050506040513d601f19601f820116820180604052508101906105ae9190610764565b604051631c3fe46360e21b81526001600160a01b038881166004830152919250908216906370ff918c90602401602060405180830381865afa1580156105f8573d6000803e3d6000fd5b505050506040513d601f19601f8201168201806040525081019061061c9190610735565b156106605780858461062d8161092e565b95508151811061063f5761063f610949565b60200260200101906001600160a01b031690816001600160a01b0316815250505b508061066b8161092e565b91505061053b565b6001600160a01b038116811461068857600080fd5b50565b6000806040838503121561069e57600080fd5b82356106a981610673565b915060208301356106b981610673565b809150509250929050565b6020808252825182820181905260009190848201906040850190845b818110156107055783516001600160a01b0316835292840192918401916001016106e0565b50909695505050505050565b60006020828403121561072357600080fd5b813561072e81610673565b9392505050565b60006020828403121561074757600080fd5b5051919050565b634e487b7160e01b600052604160045260246000fd5b60006020828403121561077657600080fd5b815161072e81610673565b805161ffff8116811461079357600080fd5b919050565b805160ff8116811461079357600080fd5b8051801515811461079357600080fd5b60008060008060008060008060006101208a8c0312156107d857600080fd5b89516107e381610673565b60208b0151909950600981106107f857600080fd5b60408b015190985067ffffffffffffffff8082111561081657600080fd5b818c0191508c601f83011261082a57600080fd5b81518181111561083c5761083c61074e565b604051601f8201601f19908116603f011681019083821181831017156108645761086461074e565b816040528281528f602084870101111561087d57600080fd5b600093505b828410156108a3576020848601015160208583010152602084019350610882565b828411156108b5576000602084830101525b809b5050505050506108c960608b01610781565b95506108d760808b01610798565b94506108e560a08b01610798565b93506108f360c08b016107a9565b925061090160e08b016107a9565b91506101008a015190509295985092959850929598565b634e487b7160e01b600052601160045260246000fd5b600060001982141561094257610942610918565b5060010190565b634e487b7160e01b600052603260045260246000fd5b60008282101561097157610971610918565b50039056fea26469706673582212202667083d209ac515c2aea6ef87b1ff715ec6ab5b86d0411a18bb30419915e9e164736f6c634300080c0033",
  "bytecodeSha1": "0d5019e8a71530b0515fd41bb1ae37e94024e654",
  "compiler": {
    "evm_version": "istanbul",
    "optimizer": {
      "enabled": true,
      "runs": 200
    },
    "version": "0.8.12+commit.f00d7308"
  },
  "contractName": "CLFactoryApi",
  "language": "Solidity",
  "natspec": {
    "author": "Leonardo Urrego",
    "kind": "dev",
    "methods": {
      "GetHousesByUser(address,address)": {
        "notice": "List of membership houses of the one wallet address",
        "params": {
          "_addrCLF": "Address of CLfactory proxy",
          "_walletAddr": "User wallet address"
        },
        "returns": {
          "arrHouses": "Array with address houses"
        }
      },
      "GetHousesList(address)": {
        "notice": "Return the list of all houses created by the factory",
        "returns": {
          "arrCLH": "Array with address houses"
        }
      },
      "GetInvitationsByUser(address,address)": {
        "notice": "List of houses that have an invitation pending for a specific wallet",
        "params": {
          "_addrCLF": "Address of CLfactory proxy",
          "_walletAddr": "The user wallet address"
        },
        "returns": {
          "arrHouses": "Array with address houses"
        }
      }
    },
    "title": "Some view funtions to interact with a CLFactory",
    "version": 1
  },
  "opcodes": "PUSH1 0x80 PUSH1 0x40 MSTORE CALLVALUE DUP1 ISZERO PUSH2 0x10 JUMPI PUSH1 0x0 DUP1 REVERT JUMPDEST POP PUSH1 0x4 CALLDATASIZE LT PUSH2 0x41 JUMPI PUSH1 0x0 CALLDATALOAD PUSH1 0xE0 SHR DUP1 PUSH4 0x8191AE11 EQ PUSH2 0x46 JUMPI DUP1 PUSH4 0x839B7F8F EQ PUSH2 0x6F JUMPI DUP1 PUSH4 0xEE4DDCF0 EQ PUSH2 0x82 JUMPI JUMPDEST PUSH1 0x0 DUP1 REVERT JUMPDEST PUSH2 0x59 PUSH2 0x54 CALLDATASIZE PUSH1 0x4 PUSH2 0x68B JUMP JUMPDEST PUSH2 0x95 JUMP JUMPDEST PUSH1 0x40 MLOAD PUSH2 0x66 SWAP2 SWAP1 PUSH2 0x6C4 JUMP JUMPDEST PUSH1 0x40 MLOAD DUP1 SWAP2 SUB SWAP1 RETURN JUMPDEST PUSH2 0x59 PUSH2 0x7D CALLDATASIZE PUSH1 0x4 PUSH2 0x711 JUMP JUMPDEST PUSH2 0x315 JUMP JUMPDEST PUSH2 0x59 PUSH2 0x90 CALLDATASIZE PUSH1 0x4 PUSH2 0x68B JUMP JUMPDEST PUSH2 0x489 JUMP JUMPDEST PUSH1 0x60 PUSH1 0x0 DUP4 PUSH1 0x1 PUSH1 0x1 PUSH1 0xA0 SHL SUB AND PUSH4 0xEE7A7D1B PUSH1 0x40 MLOAD DUP2 PUSH4 0xFFFFFFFF AND PUSH1 0xE0 SHL DUP2 MSTORE PUSH1 0x4 ADD PUSH1 0x20 PUSH1 0x40 MLOAD DUP1 DUP4 SUB DUP2 DUP7 GAS STATICCALL ISZERO DUP1 ISZERO PUSH2 0xD7 JUMPI RETURNDATASIZE PUSH1 0x0 DUP1 RETURNDATACOPY RETURNDATASIZE PUSH1 0x0 REVERT JUMPDEST POP POP POP POP PUSH1 0x40 MLOAD RETURNDATASIZE PUSH1 0x1F NOT PUSH1 0x1F DUP3 ADD AND DUP3 ADD DUP1 PUSH1 0x40 MSTORE POP DUP2 ADD SWAP1 PUSH2 0xFB SWAP2 SWAP1 PUSH2 0x735 JUMP JUMPDEST SWAP1 POP PUSH1 0x0 DUP2 PUSH8 0xFFFFFFFFFFFFFFFF DUP2 GT ISZERO PUSH2 0x118 JUMPI PUSH2 0x118 PUSH2 0x74E JUMP JUMPDEST PUSH1 0x40 MLOAD SWAP1 DUP1 DUP3 MSTORE DUP1 PUSH1 0x20 MUL PUSH1 0x20 ADD DUP3 ADD PUSH1 0x40 MSTORE DUP1 ISZERO PUSH2 0x141 JUMPI DUP2 PUSH1 0x20 ADD PUSH1 0x20 DUP3 MUL DUP1 CALLDATASIZE DUP4 CALLDATACOPY ADD SWAP1 POP JUMPDEST POP SWAP3 POP PUSH1 0x1 JUMPDEST DUP3 DUP2 GT PUSH2 0x30C JUMPI PUSH1 0x40 MLOAD PUSH4 0x189361DD PUSH1 0xE2 SHL DUP2 MSTORE PUSH1 0x4 DUP2 ADD DUP3 SWAP1 MSTORE PUSH1 0x0 SWAP1 PUSH1 0x1 PUSH1 0x1 PUSH1 0xA0 SHL SUB DUP9 AND SWAP1 PUSH4 0x624D8774 SWAP1 PUSH1 0x24 ADD PUSH1 0x20 PUSH1 0x40 MLOAD DUP1 DUP4 SUB DUP2 DUP7 GAS STATICCALL ISZERO DUP1 ISZERO PUSH2 0x196 JUMPI RETURNDATASIZE PUSH1 0x0 DUP1 RETURNDATACOPY RETURNDATASIZE PUSH1 0x0 REVERT JUMPDEST POP POP POP POP PUSH1 0x40 MLOAD RETURNDATASIZE PUSH1 0x1F NOT PUSH1 0x1F DUP3 ADD AND DUP3 ADD DUP1 PUSH1 0x40 MSTORE POP DUP2 ADD SWAP1 PUSH2 0x1BA SWAP2 SWAP1 PUSH2 0x764 JUMP JUMPDEST PUSH1 0x40 MLOAD PUSH4 0x287B9845 PUSH1 0xE1 SHL DUP2 MSTORE PUSH1 0x1 PUSH1 0x1 PUSH1 0xA0 SHL SUB DUP9 DUP2 AND PUSH1 0x4 DUP4 ADD MSTORE SWAP2 SWAP3 POP PUSH1 0x0 SWAP2 DUP4 AND SWAP1 PUSH4 0x50F7308A SWAP1 PUSH1 0x24 ADD PUSH1 0x20 PUSH1 0x40 MLOAD DUP1 DUP4 SUB DUP2 DUP7 GAS STATICCALL ISZERO DUP1 ISZERO PUSH2 0x206 JUMPI RETURNDATASIZE PUSH1 0x0 DUP1 RETURNDATACOPY RETURNDATASIZE PUSH1 0x0 REVERT JUMPDEST POP POP POP POP PUSH1 0x40 MLOAD RETURNDATASIZE PUSH1 0x1F NOT PUSH1 0x1F DUP3 ADD AND DUP3 ADD DUP1 PUSH1 0x40 MSTORE POP DUP2 ADD SWAP1 PUSH2 0x22A SWAP2 SWAP1 PUSH2 0x735 JUMP JUMPDEST SWAP1 POP DUP1 ISZERO PUSH2 0x2F7 JUMPI PUSH1 0x40 MLOAD PUSH4 0x32E159A7 PUSH1 0xE2 SHL DUP2 MSTORE PUSH1 0x4 DUP2 ADD DUP3 SWAP1 MSTORE PUSH1 0x0 SWAP1 PUSH1 0x1 PUSH1 0x1 PUSH1 0xA0 SHL SUB DUP5 AND SWAP1 PUSH4 0xCB85669C SWAP1 PUSH1 0x24 ADD PUSH1 0x0 PUSH1 0x40 MLOAD DUP1 DUP4 SUB DUP2 DUP7 GAS STATICCALL ISZERO DUP1 ISZERO PUSH2 0x27A JUMPI RETURNDATASIZE PUSH1 0x0 DUP1 RETURNDATACOPY RETURNDATASIZE PUSH1 0x0 REVERT JUMPDEST POP POP POP POP PUSH1 0x40 MLOAD RETURNDATASIZE PUSH1 0x0 DUP3 RETURNDATACOPY PUSH1 0x1F RETURNDATASIZE SWAP1 DUP2 ADD PUSH1 0x1F NOT AND DUP3 ADD PUSH1 0x40 MSTORE PUSH2 0x2A2 SWAP2 SWAP1 DUP2 ADD SWAP1 PUSH2 0x7B9 JUMP JUMPDEST SWAP9 POP POP POP POP TIMESTAMP DUP7 GT ISZERO SWAP5 POP PUSH2 0x2F5 SWAP4 POP POP POP POP JUMPI DUP3 DUP8 DUP7 PUSH2 0x2C2 DUP2 PUSH2 0x92E JUMP JUMPDEST SWAP8 POP DUP2 MLOAD DUP2 LT PUSH2 0x2D4 JUMPI PUSH2 0x2D4 PUSH2 0x949 JUMP JUMPDEST PUSH1 0x20 MUL PUSH1 0x20 ADD ADD SWAP1 PUSH1 0x1 PUSH1 0x1 PUSH1 0xA0 SHL SUB AND SWAP1 DUP2 PUSH1 0x1 PUSH1 0x1 PUSH1 0xA0 SHL SUB AND DUP2 MSTORE POP POP JUMPDEST POP JUMPDEST POP POP DUP1 DUP1 PUSH2 0x304 SWAP1 PUSH2 0x92E JUMP JUMPDEST SWAP2 POP POP PUSH2 0x147 JUMP JUMPDEST POP POP POP SWAP3 SWAP2 POP POP JUMP JUMPDEST PUSH1 0x60 PUSH1 0x0 DUP3 PUSH1 0x1 PUSH1 0x1 PUSH1 0xA0 SHL SUB AND PUSH4 0xEE7A7D1B PUSH1 0x40 MLOAD DUP2 PUSH4 0xFFFFFFFF AND PUSH1 0xE0 SHL DUP2 MSTORE PUSH1 0x4 ADD PUSH1 0x20 PUSH1 0x40 MLOAD DUP1 DUP4 SUB DUP2 DUP7 GAS STATICCALL ISZERO DUP1 ISZERO PUSH2 0x357 JUMPI RETURNDATASIZE PUSH1 0x0 DUP1 RETURNDATACOPY RETURNDATASIZE PUSH1 0x0 REVERT JUMPDEST POP POP POP POP PUSH1 0x40 MLOAD RETURNDATASIZE PUSH1 0x1F NOT PUSH1 0x1F DUP3 ADD AND DUP3 ADD DUP1 PUSH1 0x40 MSTORE POP DUP2 ADD SWAP1 PUSH2 0x37B SWAP2 SWAP1 PUSH2 0x735 JUMP JUMPDEST SWAP1 POP DUP1 ISZERO PUSH2 0x483 JUMPI DUP1 PUSH8 0xFFFFFFFFFFFFFFFF DUP2 GT ISZERO PUSH2 0x39C JUMPI PUSH2 0x39C PUSH2 0x74E JUMP JUMPDEST PUSH1 0x40 MLOAD SWAP1 DUP1 DUP3 MSTORE DUP1 PUSH1 0x20 MUL PUSH1 0x20 ADD DUP3 ADD PUSH1 0x40 MSTORE DUP1 ISZERO PUSH2 0x3C5 JUMPI DUP2 PUSH1 0x20 ADD PUSH1 0x20 DUP3 MUL DUP1 CALLDATASIZE DUP4 CALLDATACOPY ADD SWAP1 POP JUMPDEST POP SWAP2 POP PUSH1 0x1 JUMPDEST DUP2 DUP2 GT PUSH2 0x481 JUMPI PUSH1 0x40 MLOAD PUSH4 0x189361DD PUSH1 0xE2 SHL DUP2 MSTORE PUSH1 0x4 DUP2 ADD DUP3 SWAP1 MSTORE PUSH1 0x1 PUSH1 0x1 PUSH1 0xA0 SHL SUB DUP6 AND SWAP1 PUSH4 0x624D8774 SWAP1 PUSH1 0x24 ADD PUSH1 0x20 PUSH1 0x40 MLOAD DUP1 DUP4 SUB DUP2 DUP7 GAS STATICCALL ISZERO DUP1 ISZERO PUSH2 0x417 JUMPI RETURNDATASIZE PUSH1 0x0 DUP1 RETURNDATACOPY RETURNDATASIZE PUSH1 0x0 REVERT JUMPDEST POP POP POP POP PUSH1 0x40 MLOAD RETURNDATASIZE PUSH1 0x1F NOT PUSH1 0x1F DUP3 ADD AND DUP3 ADD DUP1 PUSH1 0x40 MSTORE POP DUP2 ADD SWAP1 PUSH2 0x43B SWAP2 SWAP1 PUSH2 0x764 JUMP JUMPDEST DUP4 PUSH2 0x447 PUSH1 0x1 DUP5 PUSH2 0x95F JUMP JUMPDEST DUP2 MLOAD DUP2 LT PUSH2 0x457 JUMPI PUSH2 0x457 PUSH2 0x949 JUMP JUMPDEST PUSH1 0x1 PUSH1 0x1 PUSH1 0xA0 SHL SUB SWAP1 SWAP3 AND PUSH1 0x20 SWAP3 DUP4 MUL SWAP2 SWAP1 SWAP2 ADD SWAP1 SWAP2 ADD MSTORE DUP1 PUSH2 0x479 DUP2 PUSH2 0x92E JUMP JUMPDEST SWAP2 POP POP PUSH2 0x3CB JUMP JUMPDEST POP JUMPDEST POP SWAP2 SWAP1 POP JUMP JUMPDEST PUSH1 0x60 PUSH1 0x0 DUP4 PUSH1 0x1 PUSH1 0x1 PUSH1 0xA0 SHL SUB AND PUSH4 0xEE7A7D1B PUSH1 0x40 MLOAD DUP2 PUSH4 0xFFFFFFFF AND PUSH1 0xE0 SHL DUP2 MSTORE PUSH1 0x4 ADD PUSH1 0x20 PUSH1 0x40 MLOAD DUP1 DUP4 SUB DUP2 DUP7 GAS STATICCALL ISZERO DUP1 ISZERO PUSH2 0x4CB JUMPI RETURNDATASIZE PUSH1 0x0 DUP1 RETURNDATACOPY RETURNDATASIZE PUSH1 0x0 REVERT JUMPDEST POP POP POP POP PUSH1 0x40 MLOAD RETURNDATASIZE PUSH1 0x1F NOT PUSH1 0x1F DUP3 ADD AND DUP3 ADD DUP1 PUSH1 0x40 MSTORE POP DUP2 ADD SWAP1 PUSH2 0x4EF SWAP2 SWAP1 PUSH2 0x735 JUMP JUMPDEST SWAP1 POP PUSH1 0x0 DUP2 PUSH8 0xFFFFFFFFFFFFFFFF DUP2 GT ISZERO PUSH2 0x50C JUMPI PUSH2 0x50C PUSH2 0x74E JUMP JUMPDEST PUSH1 0x40 MLOAD SWAP1 DUP1 DUP3 MSTORE DUP1 PUSH1 0x20 MUL PUSH1 0x20 ADD DUP3 ADD PUSH1 0x40 MSTORE DUP1 ISZERO PUSH2 0x535 JUMPI DUP2 PUSH1 0x20 ADD PUSH1 0x20 DUP3 MUL DUP1 CALLDATASIZE DUP4 CALLDATACOPY ADD SWAP1 POP JUMPDEST POP SWAP3 POP PUSH1 0x1 JUMPDEST DUP3 DUP2 GT PUSH2 0x30C JUMPI PUSH1 0x40 MLOAD PUSH4 0x189361DD PUSH1 0xE2 SHL DUP2 MSTORE PUSH1 0x4 DUP2 ADD DUP3 SWAP1 MSTORE PUSH1 0x0 SWAP1 PUSH1 0x1 PUSH1 0x1 PUSH1 0xA0 SHL SUB DUP9 AND SWAP1 PUSH4 0x624D8774 SWAP1 PUSH1 0x24 ADD PUSH1 0x20 PUSH1 0x40 MLOAD DUP1 DUP4 SUB DUP2 DUP7 GAS STATICCALL ISZERO DUP1 ISZERO PUSH2 0x58A JUMPI RETURNDATASIZE PUSH1 0x0 DUP1 RETURNDATACOPY RETURNDATASIZE PUSH1 0x0 REVERT JUMPDEST POP POP POP POP PUSH1 0x40 MLOAD RETURNDATASIZE PUSH1 0x1F NOT PUSH1 0x1F DUP3 ADD AND DUP3 ADD DUP1 PUSH1 0x40 MSTORE POP DUP2 ADD SWAP1 PUSH2 0x5AE SWAP2 SWAP1 PUSH2 0x764 JUMP JUMPDEST PUSH1 0x40 MLOAD PUSH4 0x1C3FE463 PUSH1 0xE2 SHL DUP2 MSTORE PUSH1 0x1 PUSH1 0x1 PUSH1 0xA0 SHL SUB DUP9 DUP2 AND PUSH1 0x4 DUP4 ADD MSTORE SWAP2 SWAP3 POP SWAP1 DUP3 AND SWAP1 PUSH4 0x70FF918C SWAP1 PUSH1 0x24 ADD PUSH1 0x20 PUSH1 0x40 MLOAD DUP1 DUP4 SUB DUP2 DUP7 GAS STATICCALL ISZERO DUP1 ISZERO PUSH2 0x5F8 JUMPI RETURNDATASIZE PUSH1 0x0 DUP1 RETURNDATACOPY RETURNDATASIZE PUSH1 0x0 REVERT JUMPDEST POP POP POP POP PUSH1 0x40 MLOAD RETURNDATASIZE PUSH1 0x1F NOT PUSH1 0x1F DUP3 ADD AND DUP3 ADD DUP1 PUSH1 0x40 MSTORE POP DUP2 ADD SWAP1 PUSH2 0x61C SWAP2 SWAP1 PUSH2 0x735 JUMP JUMPDEST ISZERO PUSH2 0x660 JUMPI DUP1 DUP6 DUP5 PUSH2 0x62D DUP2 PUSH2 0x92E JUMP JUMPDEST SWAP6 POP DUP2 MLOAD DUP2 LT PUSH2 0x63F JUMPI PUSH2 0x63F PUSH2 0x949 JUMP JUMPDEST PUSH1 0x20 MUL PUSH1 0x20 ADD ADD SWAP1 PUSH1 0x1 PUSH1 0x1 PUSH1 0xA0 SHL SUB AND SWAP1 DUP2 PUSH1 0x1 PUSH1 0x1 PUSH1 0xA0 SHL SUB AND DUP2 MSTORE POP POP JUMPDEST POP DUP1 PUSH2 0x66B DUP2 PUSH2 0x92E JUMP JUMPDEST SWAP2 POP POP PUSH2 0x53B JUMP JUMPDEST PUSH1 0x1 PUSH1 0x1 PUSH1 0xA0 SHL SUB DUP2 AND DUP2 EQ PUSH2 0x688 JUMPI PUSH1 0x0 DUP1 REVERT JUMPDEST POP JUMP JUMPDEST PUSH1 0x0 DUP1 PUSH1 0x40 DUP4 DUP6 SUB SLT ISZERO PUSH2 0x69E JUMPI PUSH1 0x0 DUP1 REVERT JUMPDEST DUP3 CALLDATALOAD PUSH2 0x6A9 DUP2 PUSH2 0x673 JUMP JUMPDEST SWAP2 POP PUSH1 0x20 DUP4 ADD CALLDATALOAD PUSH2 0x6B9 DUP2 PUSH2 0x673 JUMP JUMPDEST DUP1 SWAP2 POP POP SWAP3 POP SWAP3 SWAP1 POP JUMP JUMPDEST PUSH1 0x20 DUP1 DUP3 MSTORE DUP3 MLOAD DUP3 DUP3 ADD DUP2 SWAP1 MSTORE PUSH1 0x0 SWAP2 SWAP1 DUP5 DUP3 ADD SWAP1 PUSH1 0x40 DUP6 ADD SWAP1 DUP5 JUMPDEST DUP2 DUP2 LT ISZERO PUSH2 0x705 JUMPI DUP4 MLOAD PUSH1 0x1 PUSH1 0x1 PUSH1 0xA0 SHL SUB AND DUP4 MSTORE SWAP3 DUP5 ADD SWAP3 SWAP2 DUP5 ADD SWAP2 PUSH1 0x1 ADD PUSH2 0x6E0 JUMP JUMPDEST POP SWAP1 SWAP7 SWAP6 POP POP POP POP POP POP JUMP JUMPDEST PUSH1 0x0 PUSH1 0x20 DUP3 DUP5 SUB SLT ISZERO PUSH2 0x723 JUMPI PUSH1 0x0 DUP1 REVERT JUMPDEST DUP2 CALLDATALOAD PUSH2 0x72E DUP2 PUSH2 0x673 JUMP JUMPDEST SWAP4 SWAP3 POP POP POP JUMP JUMPDEST PUSH1 0x0 PUSH1 0x20 DUP3 DUP5 SUB SLT ISZERO PUSH2 0x747 JUMPI PUSH1 0x0 DUP1 REVERT JUMPDEST POP MLOAD SWAP2 SWAP1 POP JUMP JUMPDEST PUSH4 0x4E487B71 PUSH1 0xE0 SHL PUSH1 0x0 MSTORE PUSH1 0x41 PUSH1 0x4 MSTORE PUSH1 0x24 PUSH1 0x0 REVERT JUMPDEST PUSH1 0x0 PUSH1 0x20 DUP3 DUP5 SUB SLT ISZERO PUSH2 0x776 JUMPI PUSH1 0x0 DUP1 REVERT JUMPDEST DUP2 MLOAD PUSH2 0x72E DUP2 PUSH2 0x673 JUMP JUMPDEST DUP1 MLOAD PUSH2 0xFFFF DUP2 AND DUP2 EQ PUSH2 0x793 JUMPI PUSH1 0x0 DUP1 REVERT JUMPDEST SWAP2 SWAP1 POP JUMP JUMPDEST DUP1 MLOAD PUSH1 0xFF DUP2 AND DUP2 EQ PUSH2 0x793 JUMPI PUSH1 0x0 DUP1 REVERT JUMPDEST DUP1 MLOAD DUP1 ISZERO ISZERO DUP2 EQ PUSH2 0x793 JUMPI PUSH1 0x0 DUP1 REVERT JUMPDEST PUSH1 0x0 DUP1 PUSH1 0x0 DUP1 PUSH1 0x0 DUP1 PUSH1 0x0 DUP1 PUSH1 0x0 PUSH2 0x120 DUP11 DUP13 SUB SLT ISZERO PUSH2 0x7D8 JUMPI PUSH1 0x0 DUP1 REVERT JUMPDEST DUP10 MLOAD PUSH2 0x7E3 DUP2 PUSH2 0x673 JUMP JUMPDEST PUSH1 0x20 DUP12 ADD MLOAD SWAP1 SWAP10 POP PUSH1 0x9 DUP2 LT PUSH2 0x7F8 JUMPI PUSH1 0x0 DUP1 REVERT JUMPDEST PUSH1 0x40 DUP12 ADD MLOAD SWAP1 SWAP9 POP PUSH8 0xFFFFFFFFFFFFFFFF DUP1 DUP3 GT ISZERO PUSH2 0x816 JUMPI PUSH1 0x0 DUP1 REVERT JUMPDEST DUP2 DUP13 ADD SWAP2 POP DUP13 PUSH1 0x1F DUP4 ADD SLT PUSH2 0x82A JUMPI PUSH1 0x0 DUP1 REVERT JUMPDEST DUP2 MLOAD DUP2 DUP2 GT ISZERO PUSH2 0x83C JUMPI PUSH2 0x83C PUSH2 0x74E JUMP JUMPDEST PUSH1 0x40 MLOAD PUSH1 0x1F DUP3 ADD PUSH1 0x1F NOT SWAP1 DUP2 AND PUSH1 0x3F ADD AND DUP2 ADD SWAP1 DUP4 DUP3 GT DUP2 DUP4 LT OR ISZERO PUSH2 0x864 JUMPI PUSH2 0x864 PUSH2 0x74E JUMP JUMPDEST DUP2 PUSH1 0x40 MSTORE DUP3 DUP2 MSTORE DUP16 PUSH1 0x20 DUP5 DUP8 ADD ADD GT ISZERO PUSH2 0x87D JUMPI PUSH1 0x0 DUP1 REVERT JUMPDEST PUSH1 0x0 SWAP4 POP JUMPDEST DUP3 DUP5 LT ISZERO PUSH2 0x8A3 JUMPI PUSH1 0x20 DUP5 DUP7 ADD ADD MLOAD PUSH1 0x20 DUP6 DUP4 ADD ADD MSTORE PUSH1 0x20 DUP5 ADD SWAP4 POP PUSH2 0x882 JUMP JUMPDEST DUP3 DUP5 GT ISZERO PUSH2 0x8B5 JUMPI PUSH1 0x0 PUSH1 0x20 DUP5 DUP4 ADD ADD MSTORE JUMPDEST DUP1 SWAP12 POP POP POP POP POP POP PUSH2 0x8C9 PUSH1 0x60 DUP12 ADD PUSH2 0x781 JUMP JUMPDEST SWAP6 POP PUSH2 0x8D7 PUSH1 0x80 DUP12 ADD PUSH2 0x798 JUMP JUMPDEST SWAP5 POP PUSH2 0x8E5 PUSH1 0xA0 DUP12 ADD PUSH2 0x798 JUMP JUMPDEST SWAP4 POP PUSH2 0x8F3 PUSH1 0xC0 DUP12 ADD PUSH2 0x7A9 JUMP JUMPDEST SWAP3 POP PUSH2 0x901 PUSH1 0xE0 DUP12 ADD PUSH2 0x7A9 JUMP JUMPDEST SWAP2 POP PUSH2 0x100 DUP11 ADD MLOAD SWAP1 POP SWAP3 SWAP6 SWAP9 POP SWAP3 SWAP6 SWAP9 POP SWAP3 SWAP6 SWAP9 JUMP JUMPDEST PUSH4 0x4E487B71 PUSH1 0xE0 SHL PUSH1 0x0 MSTORE PUSH1 0x11 PUSH1 0x4 MSTORE PUSH1 0x24 PUSH1 0x0 REVERT JUMPDEST PUSH1 0x0 PUSH1 0x0 NOT DUP3 EQ ISZERO PUSH2 0x942 JUMPI PUSH2 0x942 PUSH2 0x918 JUMP JUMPDEST POP PUSH1 0x1 ADD SWAP1 JUMP JUMPDEST PUSH4 0x4E487B71 PUSH1 0xE0 SHL PUSH1 0x0 MSTORE PUSH1 0x32 PUSH1 0x4 MSTORE PUSH1 0x24 PUSH1 0x0 REVERT JUMPDEST PUSH1 0x0 DUP3 DUP3 LT ISZERO PUSH2 0x971 JUMPI PUSH2 0x971 PUSH2 0x918 JUMP JUMPDEST POP SUB SWAP1 JUMP INVALID LOG2 PUSH5 0x6970667358 0x22 SLT KECCAK256 0x26 PUSH8 0x83D209AC515C2AE 0xA6 0xEF DUP8 0xB1 SELFDESTRUCT PUSH18 0x5EC6AB5B86D0411A18BB30419915E9E16473 PUSH16 0x6C634300080C00330000000000000000 ",
  "sha1": "6cd06e353755efcef5e1c9bfa4e50cc07f66dca7",
  "source": "// SPDX-License-Identifier: MIT\npragma solidity ^0.8.11;\n\nimport \"../../interfaces/ICLHouse.sol\";\nimport \"../../interfaces/ICLFactory.sol\";\n\n/// @title Some view funtions to interact with a CLFactory\n/// @author Leonardo Urrego\ncontract CLFactoryApi {\n    /// @notice Return the list of all houses created by the factory\n    /// @return arrCLH Array with address houses\n    function GetHousesList(\n        address _addrCLF\n    )\n        external\n        view\n        returns(\n            address[] memory arrCLH\n        )\n    {\n        uint256 numCLH = ICLFactory( _addrCLF ).numCLH();\n\n        if( numCLH > 0 ) {\n            arrCLH = new address[] ( numCLH );\n\n            for( uint256 hid = 1 ; hid <= numCLH ; hid++ )\n                arrCLH[ hid - 1 ] = address( ICLFactory( _addrCLF ).mapCLH( hid ) );\n        }\n    }\n\n\n    /// @notice List of membership houses of the one wallet address\n    /// @param _addrCLF Address of CLfactory proxy\n    /// @param _walletAddr User wallet address\n    /// @return arrHouses Array with address houses\n    function GetHousesByUser(\n        address _addrCLF,\n        address _walletAddr\n    )\n        external\n        view\n        returns(\n            address[] memory arrHouses\n        )\n    {\n        uint256 numCLH = ICLFactory( _addrCLF ).numCLH();\n        uint256 indexarr = 0;\n        arrHouses = new address[] ( numCLH );\n        \n        for( uint256 did = 1 ; did <= numCLH ; did++ ) {\n            ICLHouse pxyCLH = ICLFactory( _addrCLF ).mapCLH( did );\n            if( 0 != pxyCLH.mapIdUser( _walletAddr ) )\n                arrHouses[ indexarr++ ] = address( pxyCLH );\n        }\n    }\n\n\n    /// @notice List of houses that have an invitation pending for a specific wallet\n    /// @param _addrCLF Address of CLfactory proxy\n    /// @param _walletAddr The user wallet address\n    /// @return arrHouses Array with address houses\n    function GetInvitationsByUser(\n        address _addrCLF,\n        address _walletAddr\n    )\n        external\n        view\n        returns(\n            address[] memory arrHouses\n        )\n    {\n        uint256 numCLH = ICLFactory( _addrCLF ).numCLH();\n        uint256 indexarr = 0;\n        arrHouses = new address[] ( numCLH );\n        \n        for( uint256 did = 1 ; did <= numCLH ; did++ ){\n            ICLHouse pxyCLH = ICLFactory( _addrCLF ).mapCLH( did );\n            uint256 propId = pxyCLH.mapInvitationUser( _walletAddr );\n\n            if( propId > 0 ) {\n                uint256 deadline;\n                ( ,,,,,,,, deadline ) = pxyCLH.arrProposals( propId );\n                \n                if( block.timestamp < deadline )\n                    arrHouses[ indexarr++ ] = address( pxyCLH ) ;\n\n            }\n        }\n    }\n}",
  "sourcePath": "contracts/APICLF/CLFactoryApi.sol",
  "type": "contract"
}