{
  "abi": [
    {
      "inputs": [
        {
          "internalType": "address",
          "name": "_CLLUserManagement",
          "type": "address"
        },
        {
          "internalType": "address",
          "name": "_CLLGovernance",
          "type": "address"
        },
        {
          "internalType": "address",
          "name": "_CLLConstructorCLH",
          "type": "address"
        },
        {
          "internalType": "address",
          "name": "_CLHAPI",
          "type": "address"
        }
      ],
      "stateMutability": "nonpayable",
      "type": "constructor"
    },
    {
      "anonymous": false,
      "inputs": [
        {
          "indexed": false,
          "internalType": "address",
          "name": "houseAddr",
          "type": "address"
        },
        {
          "indexed": false,
          "internalType": "string",
          "name": "houseName",
          "type": "string"
        },
        {
          "indexed": false,
          "internalType": "uint256",
          "name": "houseId",
          "type": "uint256"
        }
      ],
      "name": "evtHouseCreation",
      "type": "event"
    },
    {
      "inputs": [
        {
          "internalType": "string",
          "name": "_houseName",
          "type": "string"
        },
        {
          "internalType": "bool",
          "name": "_housePrivate",
          "type": "bool"
        },
        {
          "internalType": "bytes32",
          "name": "_govModel",
          "type": "bytes32"
        },
        {
          "internalType": "uint8[3]",
          "name": "_govRules",
          "type": "uint8[3]"
        },
        {
          "internalType": "address[]",
          "name": "_ManagerWallets",
          "type": "address[]"
        },
        {
          "internalType": "address",
          "name": "_gnosisSafe",
          "type": "address"
        },
        {
          "internalType": "address",
          "name": "_signerWallet",
          "type": "address"
        },
        {
          "internalType": "bytes",
          "name": "_signature",
          "type": "bytes"
        }
      ],
      "name": "CreateCLH",
      "outputs": [
        {
          "internalType": "address",
          "name": "",
          "type": "address"
        }
      ],
      "stateMutability": "nonpayable",
      "type": "function"
    },
    {
      "inputs": [],
      "name": "GetHouseList",
      "outputs": [
        {
          "internalType": "contract CLHouse[]",
          "name": "",
          "type": "address[]"
        }
      ],
      "stateMutability": "view",
      "type": "function"
    },
    {
      "inputs": [
        {
          "internalType": "address",
          "name": "_walletAddr",
          "type": "address"
        }
      ],
      "name": "GetHousesByUser",
      "outputs": [
        {
          "internalType": "address[]",
          "name": "",
          "type": "address[]"
        }
      ],
      "stateMutability": "view",
      "type": "function"
    },
    {
      "inputs": [
        {
          "internalType": "address",
          "name": "_walletAddr",
          "type": "address"
        }
      ],
      "name": "GetInvitationsByUser",
      "outputs": [
        {
          "internalType": "address[]",
          "name": "",
          "type": "address[]"
        }
      ],
      "stateMutability": "view",
      "type": "function"
    },
    {
      "inputs": [
        {
          "internalType": "uint256",
          "name": "",
          "type": "uint256"
        }
      ],
      "name": "arrCLH",
      "outputs": [
        {
          "internalType": "contract CLHouse",
          "name": "",
          "type": "address"
        }
      ],
      "stateMutability": "view",
      "type": "function"
    },
    {
      "inputs": [
        {
          "internalType": "address",
          "name": "",
          "type": "address"
        }
      ],
      "name": "mapCLHId",
      "outputs": [
        {
          "internalType": "uint256",
          "name": "",
          "type": "uint256"
        }
      ],
      "stateMutability": "view",
      "type": "function"
    },
    {
      "inputs": [],
      "name": "numCLH",
      "outputs": [
        {
          "internalType": "uint256",
          "name": "",
          "type": "uint256"
        }
      ],
      "stateMutability": "view",
      "type": "function"
    }
  ],
  "bytecode": "608060405260006001553480156200001657600080fd5b50604051620061f2380380620061f28339810160408190526200003991620005cf565b600480546001600160a01b038681166001600160a01b0319928316179092556005805486841690831617905560038054858416908316178155600680549385169390921692909217905560408051828152608081019091526000916020820160608036833701905050905073c27480520a875bca3874df1f533523e9ffdb1af981600081518110620000cf57620000cf6200062c565b60200260200101906001600160a01b031690816001600160a01b03168152505073012775f98fdb33656f240a97f73a61f6b8c25756816001815181106200011a576200011a6200062c565b60200260200101906001600160a01b031690816001600160a01b03168152505073a7b59f12f19b96cc67f19ef017cf9a0928910fd5816002815181106200016557620001656200062c565b6001600160a01b0390921660209283029190910182015260408051808201825260068152650434c482023360d41b81840152815160608101835260638152600a8185015260338184015282519384019092526000808452620001e39391929091600080516020620061d2833981519152919086908490819062000206565b5060018054906000620001f68362000658565b91905055505050505050620008ca565b600080337f0b93889d934070956c00846f50f9a10a747bd194bba2f2e78a86d0c02386fdb189148062000247575088600080516020620061d2833981519152145b80620002725750887fa0786f6450d5fb3298b8425105c1b75e6e01a1ff86cdabea29909cdb0b4c83a7145b620002c45760405162461bcd60e51b815260206004820152601760248201527f496e76616c696420476f7665726e616e6365205479706500000000000000000060448201526064015b60405180910390fd5b6001600160a01b0385161562000442578351604114620003275760405162461bcd60e51b815260206004820152601f60248201527f437265617465434c483a20426164207369676e6174757265206c656e677468006044820152606401620002bb565b6006546001600160a01b031663364ae0d88c8c8c8c600060200201518d600160200201518e600260200201518e6000815181106200036957620003696200062c565b6020026020010151308d6040518a63ffffffff1660e01b81526004016200039999989796959493929190620006c2565b602060405180830381865afa158015620003b7573d6000803e3d6000fd5b505050506040513d601f19601f82011682018060405250810190620003dd91906200073e565b6001600160a01b0316856001600160a01b0316146200043f5760405162461bcd60e51b815260206004820152601c60248201527f437265617465434c483a20496e76616c6964205369676e6174757265000000006044820152606401620002bb565b50835b6040805160a0810182526004546001600160a01b039081168252600554811660208301526003548116828401526006548116606083015288166080820152905182918d918d918d918d91908d906200049a90620005a4565b620004ac9796959493929190620007dd565b604051809103906000f080158015620004c9573d6000803e3d6000fd5b5060008054600180820183558280527f290decd9548b62a8d60345a988386fc84ba6bc95484008f6362f93160ef3e563820180546001600160a01b0319166001600160a01b038616179055805493955085939192620005288362000876565b91905055508060026000846001600160a01b03166001600160a01b03168152602001908152602001600020819055507f0717908fb0165729c0cfd8bbc622f5ede46a85e555ac30657fa94a188bca698d828e836040516200058c9392919062000894565b60405180910390a1509b9a5050505050505050505050565b6124ed8062003ce583390190565b80516001600160a01b0381168114620005ca57600080fd5b919050565b60008060008060808587031215620005e657600080fd5b620005f185620005b2565b93506200060160208601620005b2565b92506200061160408601620005b2565b91506200062160608601620005b2565b905092959194509250565b634e487b7160e01b600052603260045260246000fd5b634e487b7160e01b600052601160045260246000fd5b6000816200066a576200066a62000642565b506000190190565b6000815180845260005b818110156200069a576020818501810151868301820152016200067c565b81811115620006ad576000602083870101525b50601f01601f19169290920160200192915050565b6000610120808352620006d88184018d62000672565b8b15156020850152604084018b905260ff8a811660608601528981166080860152881660a08501526001600160a01b0387811660c0860152861660e085015283810361010085015290506200072e818562000672565b9c9b505050505050505050505050565b6000602082840312156200075157600080fd5b6200075c82620005b2565b9392505050565b8060005b6005811015620007915781516001600160a01b031684526020938401939091019060010162000767565b50505050565b600081518084526020808501945080840160005b83811015620007d25781516001600160a01b031687529582019590820190600101620007ab565b509495945050505050565b6001600160a01b03881681526101a0602080830182905260009190620008068483018b62000672565b91508815156040850152876060850152608084018760005b60038110156200084057815160ff16835291830191908301906001016200081e565b505050506200085360e084018662000763565b82810361018084015262000868818562000797565b9a9950505050505050505050565b60006000198214156200088d576200088d62000642565b5060010190565b6001600160a01b0384168152606060208201819052600090620008ba9083018562000672565b9050826040830152949350505050565b61340b80620008da6000396000f3fe60806040523480156200001157600080fd5b5060043610620000875760003560e01c806356ec9fff116200006257806356ec9fff14620001105780637ddb31a31462000136578063ac53c485146200014d578063ee7a7d1b146200016457600080fd5b8063132dcce7146200008c5780633195ce7414620000ae5780634c0487c214620000e0575b600080fd5b620000966200016e565b604051620000a59190620008b3565b60405180910390f35b620000d1620000bf3660046200092d565b60026020526000908152604090205481565b604051908152602001620000a5565b620000f7620000f136600462000b40565b620001d2565b6040516001600160a01b039091168152602001620000a5565b62000127620001213660046200092d565b62000581565b604051620000a5919062000c70565b62000127620001473660046200092d565b62000702565b620000f76200015e36600462000c85565b6200087a565b620000d160015481565b60606000805480602002602001604051908101604052809291908181526020018280548015620001c857602002820191906000526020600020905b81546001600160a01b03168152600190910190602001808311620001a9575b5050505050905090565b600080337f0b93889d934070956c00846f50f9a10a747bd194bba2f2e78a86d0c02386fdb1891480620002245750887f16591a696fee5867425b3dee9fc0160a6c1baef77835bc3d204314106d639298145b806200024f5750887fa0786f6450d5fb3298b8425105c1b75e6e01a1ff86cdabea29909cdb0b4c83a7145b620002a15760405162461bcd60e51b815260206004820152601760248201527f496e76616c696420476f7665726e616e6365205479706500000000000000000060448201526064015b60405180910390fd5b6001600160a01b038516156200041f578351604114620003045760405162461bcd60e51b815260206004820152601f60248201527f437265617465434c483a20426164207369676e6174757265206c656e67746800604482015260640162000298565b6006546001600160a01b031663364ae0d88c8c8c8c600060200201518d600160200201518e600260200201518e60008151811062000346576200034662000c9f565b6020026020010151308d6040518a63ffffffff1660e01b8152600401620003769998979695949392919062000d05565b602060405180830381865afa15801562000394573d6000803e3d6000fd5b505050506040513d601f19601f82011682018060405250810190620003ba919062000d81565b6001600160a01b0316856001600160a01b0316146200041c5760405162461bcd60e51b815260206004820152601c60248201527f437265617465434c483a20496e76616c6964205369676e617475726500000000604482015260640162000298565b50835b6040805160a0810182526004546001600160a01b039081168252600554811660208301526003548116828401526006548116606083015288166080820152905182918d918d918d918d91908d906200047790620008a5565b62000489979695949392919062000dd5565b604051809103906000f080158015620004a6573d6000803e3d6000fd5b5060008054600180820183558280527f290decd9548b62a8d60345a988386fc84ba6bc95484008f6362f93160ef3e563820180546001600160a01b0319166001600160a01b038616179055805493955085939192620005058362000e6e565b91905055508060026000846001600160a01b03166001600160a01b03168152602001908152602001600020819055507f0717908fb0165729c0cfd8bbc622f5ede46a85e555ac30657fa94a188bca698d828e83604051620005699392919062000e98565b60405180910390a1509b9a5050505050505050505050565b600080546060919067ffffffffffffffff811115620005a457620005a462000954565b604051908082528060200260200182016040528015620005ce578160200160208202803683370190505b509050600060015b6001548111620006f95760008181548110620005f657620005f662000c9f565b60009182526020909120015460405163287b984560e11b81526001600160a01b038781166004830152909116906350f7308a90602401602060405180830381865afa1580156200064a573d6000803e3d6000fd5b505050506040513d601f19601f8201168201806040525081019062000670919062000ece565b15620006e457600081815481106200068c576200068c62000c9f565b6000918252602090912001546001600160a01b03168383620006ae8162000e6e565b945081518110620006c357620006c362000c9f565b60200260200101906001600160a01b031690816001600160a01b0316815250505b80620006f08162000e6e565b915050620005d6565b50909392505050565b600080546060919067ffffffffffffffff81111562000725576200072562000954565b6040519080825280602002602001820160405280156200074f578160200160208202803683370190505b509050600060015b6001548111620006f9576000818154811062000777576200077762000c9f565b600091825260209091200154604051631c3fe46360e21b81526001600160a01b038781166004830152909116906370ff918c90602401602060405180830381865afa158015620007cb573d6000803e3d6000fd5b505050506040513d601f19601f82011682018060405250810190620007f1919062000ece565b156200086557600081815481106200080d576200080d62000c9f565b6000918252602090912001546001600160a01b031683836200082f8162000e6e565b94508151811062000844576200084462000c9f565b60200260200101906001600160a01b031690816001600160a01b0316815250505b80620008718162000e6e565b91505062000757565b600081815481106200088b57600080fd5b6000918252602090912001546001600160a01b0316905081565b6124ed8062000ee983390190565b6020808252825182820181905260009190848201906040850190845b81811015620008f65783516001600160a01b031683529284019291840191600101620008cf565b50909695505050505050565b6001600160a01b03811681146200091857600080fd5b50565b8035620009288162000902565b919050565b6000602082840312156200094057600080fd5b81356200094d8162000902565b9392505050565b634e487b7160e01b600052604160045260246000fd5b604051601f8201601f1916810167ffffffffffffffff8111828210171562000996576200099662000954565b604052919050565b600082601f830112620009b057600080fd5b813567ffffffffffffffff811115620009cd57620009cd62000954565b620009e2601f8201601f19166020016200096a565b818152846020838601011115620009f857600080fd5b816020850160208301376000918101602001919091529392505050565b803580151581146200092857600080fd5b600082601f83011262000a3857600080fd5b6040516060810181811067ffffffffffffffff8211171562000a5e5762000a5e62000954565b60405280606084018581111562000a7457600080fd5b845b8181101562000aa157803560ff8116811462000a925760008081fd5b83526020928301920162000a76565b509195945050505050565b600082601f83011262000abe57600080fd5b8135602067ffffffffffffffff82111562000add5762000add62000954565b8160051b62000aee8282016200096a565b928352848101820192828101908785111562000b0957600080fd5b83870192505b8483101562000b3557823562000b258162000902565b8252918301919083019062000b0f565b979650505050505050565b600080600080600080600080610140898b03121562000b5e57600080fd5b883567ffffffffffffffff8082111562000b7757600080fd5b62000b858c838d016200099e565b995062000b9560208c0162000a15565b985060408b0135975062000bad8c60608d0162000a26565b965060c08b013591508082111562000bc457600080fd5b62000bd28c838d0162000aac565b955062000be260e08c016200091b565b945062000bf36101008c016200091b565b93506101208b013591508082111562000c0b57600080fd5b5062000c1a8b828c016200099e565b9150509295985092959890939650565b600081518084526020808501945080840160005b8381101562000c655781516001600160a01b03168752958201959082019060010162000c3e565b509495945050505050565b6020815260006200094d602083018462000c2a565b60006020828403121562000c9857600080fd5b5035919050565b634e487b7160e01b600052603260045260246000fd5b6000815180845260005b8181101562000cdd5760208185018101518683018201520162000cbf565b8181111562000cf0576000602083870101525b50601f01601f19169290920160200192915050565b600061012080835262000d1b8184018d62000cb5565b8b15156020850152604084018b905260ff8a811660608601528981166080860152881660a08501526001600160a01b0387811660c0860152861660e0850152838103610100850152905062000d71818562000cb5565b9c9b505050505050505050505050565b60006020828403121562000d9457600080fd5b81516200094d8162000902565b8060005b600581101562000dcf5781516001600160a01b031684526020938401939091019060010162000da5565b50505050565b6001600160a01b03881681526101a060208083018290526000919062000dfe8483018b62000cb5565b91508815156040850152876060850152608084018760005b600381101562000e3857815160ff168352918301919083019060010162000e16565b5050505062000e4b60e084018662000da1565b82810361018084015262000e60818562000c2a565b9a9950505050505050505050565b600060001982141562000e9157634e487b7160e01b600052601160045260246000fd5b5060010190565b6001600160a01b038416815260606020820181905260009062000ebe9083018562000cb5565b9050826040830152949350505050565b60006020828403121562000ee157600080fd5b505191905056fe60806040523480156200001157600080fd5b50604051620024ed380380620024ed833981016040819052620000349162000336565b600082600260200201516001600160a01b031688888888888888604051602401620000669796959493929190620004c9565b60408051601f198184030181529181526020820180516001600160e01b0316639f221d8160e01b179052516200009d91906200057e565b600060405180830381855af49150503d8060008114620000da576040519150601f19603f3d011682016040523d82523d6000602084013e620000df565b606091505b5050905080620000f6576040513d806000833e8082fd5b50505050505050506200059c565b80516001600160a01b03811681146200011c57600080fd5b919050565b634e487b7160e01b600052604160045260246000fd5b604051601f8201601f191681016001600160401b038111828210171562000162576200016262000121565b604052919050565b60005b83811015620001875781810151838201526020016200016d565b8381111562000197576000848401525b50505050565b805180151581146200011c57600080fd5b600082601f830112620001c057600080fd5b604051606081016001600160401b0381118282101715620001e557620001e562000121565b604052806060840185811115620001fb57600080fd5b845b818110156200022857805160ff81168114620002195760008081fd5b835260209283019201620001fd565b509195945050505050565b600082601f8301126200024557600080fd5b60405160a081016001600160401b03811182821017156200026a576200026a62000121565b6040528060a08401858111156200028057600080fd5b845b818110156200022857620002968162000104565b83526020928301920162000282565b600082601f830112620002b757600080fd5b815160206001600160401b03821115620002d557620002d562000121565b8160051b620002e682820162000137565b92835284810182019282810190878511156200030157600080fd5b83870192505b848310156200032b576200031b8362000104565b8252918301919083019062000307565b979650505050505050565b60008060008060008060006101a0888a0312156200035357600080fd5b6200035e8862000104565b60208901519097506001600160401b03808211156200037c57600080fd5b818a0191508a601f8301126200039157600080fd5b815181811115620003a657620003a662000121565b620003bb601f8201601f191660200162000137565b8181528c6020838601011115620003d157600080fd5b620003e48260208301602087016200016a565b9850620003f6905060408b016200019d565b965060608a015195506200040e8b60808c01620001ae565b94506200041f8b60e08c0162000233565b93506101808a01519150808211156200043757600080fd5b50620004468a828b01620002a5565b91505092959891949750929550565b8060005b6005811015620001975781516001600160a01b031684526020938401939091019060010162000459565b600081518084526020808501945080840160005b83811015620004be5781516001600160a01b03168752958201959082019060010162000497565b509495945050505050565b6001600160a01b03881681526101a0602080830182905288519183018290526000916101c0919062000501818487018d85016200016a565b891515604086015260608501899052601f01601f19168401608085018860005b60038110156200054357815160ff168352918401919084019060010162000521565b5050506200055560e086018862000455565b82858203016101808601526200056e8382018762000483565b9c9b505050505050505050505050565b60008251620005928184602087016200016a565b9190910192915050565b611f4180620005ac6000396000f3fe608060405234801561001057600080fd5b506004361061021c5760003560e01c806370ff918c11610125578063baa4d5e9116100ad578063cb85669c1161007c578063cb85669c14610533578063de5ab14e1461055b578063e68777d71461056e578063e810a58e14610580578063f00d62741461059557600080fd5b8063baa4d5e914610495578063c2b3aa08146104db578063c347d2fd146104fe578063cada7f191461052057600080fd5b806396a3dd84116100f457806396a3dd84146104305780639c630a8814610452578063a19a5f5014610465578063a693649a14610478578063b4c621921461048057600080fd5b806370ff918c146103d55780637c638548146103f557806381cf22d8146104085780639360bfad1461041d57600080fd5b80632a57ef84116101a857806359ca2d031161017757806359ca2d03146103645780635aadd414146103795780635f3d99b31461038e5780636c2f34e7146103af57806370acb761146103c257600080fd5b80632a57ef841461030b57806331a0afa71461031e5780633a70693d1461033157806350f7308a1461034457600080fd5b806319a50f49116101ef57806319a50f49146102ab5780631d5fd3ca146102b85780631f50dd27146102c15780632266e1bc146102d457806322b4081c146102e757600080fd5b806304f17a9b14610221578063052f9b0a146102475780631343e9a514610272578063152de3b914610298575b600080fd5b61023461022f36600461151a565b6105ab565b6040519081526020015b60405180910390f35b60085461025a906001600160a01b031681565b6040516001600160a01b03909116815260200161023e565b600154610286906301000000900460ff1681565b60405160ff909116815260200161023e565b6102346102a6366004611579565b610665565b6001546102869060ff1681565b61023460055481565b60095461025a906001600160a01b031681565b6102346102e236600461151a565b6106c7565b6102fa6102f53660046115e9565b610727565b60405161023e95949392919061165e565b6102346103193660046116a1565b610802565b61023461032c36600461172f565b6108c4565b61028661033f3660046115e9565b61098c565b6102346103523660046117e1565b600a6020526000908152604090205481565b61036c6109b0565b60405161023e9190611803565b610381610a3e565b60405161023e9190611816565b6103a161039c3660046115e9565b610b57565b60405161023e9291906118a4565b60065461025a906001600160a01b031681565b6102346103d03660046118c7565b610c46565b6102346103e33660046117e1565b600b6020526000908152604090205481565b61023461040336600461151a565b610d05565b61041b610416366004611926565b610d65565b005b60075461025a906001600160a01b031681565b61044361043e3660046115e9565b610e22565b60405161023e93929190611974565b6001546102869062010000900460ff1681565b6102346104733660046119aa565b610eed565b601154610234565b610488610f4b565b60405161023e9190611a6a565b6104a86104a33660046115e9565b6110d0565b604080516001600160a01b039586168152602081019490945291841691830191909152909116606082015260800161023e565b6104ee6104e9366004611b3f565b611118565b604051901515815260200161023e565b61051161050c366004611ba4565b6111da565b60405161023e93929190611bd0565b60045461025a906001600160a01b031681565b6105466105413660046115e9565b611297565b60405161023e99989796959493929190611bfc565b610234610569366004611c64565b611396565b60015461028690610100900460ff1681565b60015461028690640100000000900460ff1681565b6001546104ee9065010000000000900460ff1681565b60025460405160009182916001600160a01b03909116906105d6908890889088908890602401611cb6565b60408051601f198184030181529181526020820180516001600160e01b03166304f17a9b60e01b1790525161060b9190611cee565b600060405180830381855af49150503d8060008114610646576040519150601f19603f3d011682016040523d82523d6000602084013e61064b565b606091505b505090506040513d806000833e82610661578082fd5b8082f35b60025460405160009182916001600160a01b03909116906106929089908990899089908990602401611d0a565b60408051601f198184030181529181526020820180516001600160e01b031663152de3b960e01b1790525161060b9190611cee565b60025460405160009182916001600160a01b03909116906106f2908890889088908890602401611cb6565b60408051601f198184030181529181526020820180516001600160e01b0316630899b86f60e21b1790525161060b9190611cee565b6011818154811061073757600080fd5b6000918252602090912060049091020180546001820180546001600160a01b0390921693509061076690611d4f565b80601f016020809104026020016040519081016040528092919081815260200182805461079290611d4f565b80156107df5780601f106107b4576101008083540402835291602001916107df565b820191906000526020600020905b8154815290600101906020018083116107c257829003601f168201915b50505050600283015460039093015491929160ff80821692506101009091041685565b60025460405160009182916001600160a01b039091169061082d908890889088908890602401611d8a565b60408051601f198184030181529181526020820180516001600160e01b0316630a95fbe160e21b179052516108629190611cee565b600060405180830381855af49150503d806000811461089d576040519150601f19603f3d011682016040523d82523d6000602084013e6108a2565b606091505b505090506040513d806000833e826108b8578082fd5b50519695505050505050565b60025460405160009182916001600160a01b03909116906108f3908a908a908a908a908a908a90602401611dd1565b60408051601f198184030181529181526020820180516001600160e01b03166331a0afa760e01b179052516109289190611cee565b600060405180830381855af49150503d8060008114610963576040519150601f19603f3d011682016040523d82523d6000602084013e610968565b606091505b505090506040513d806000833e8261097e578082fd5b505198975050505050505050565b6010818154811061099c57600080fd5b60009182526020909120015460ff16905081565b600080546109bd90611d4f565b80601f01602080910402602001604051908101604052809291908181526020018280546109e990611d4f565b8015610a365780601f10610a0b57610100808354040283529160200191610a36565b820191906000526020600020905b815481529060010190602001808311610a1957829003601f168201915b505050505081565b6060600e805480602002602001604051908101604052809291908181526020016000905b82821015610b4e57600084815260209081902060408051606081019091526003850290910180546001600160a01b031682526001810180549293919291840191610aab90611d4f565b80601f0160208091040260200160405190810160405280929190818152602001828054610ad790611d4f565b8015610b245780601f10610af957610100808354040283529160200191610b24565b820191906000526020600020905b815481529060010190602001808311610b0757829003601f168201915b50505091835250506002919091015460ff1615156020918201529082526001929092019101610a62565b50505050905090565b6002546040516024810183905260009160609183916001600160a01b03169060440160408051601f198184030181529181526020820180516001600160e01b0316635f3d99b360e01b17905251610bae9190611cee565b600060405180830381855af49150503d8060008114610be9576040519150601f19603f3d011682016040523d82523d6000602084013e610bee565b606091505b5050905080610c04576040513d806000833e8082fd5b60016040518060400160405280601981526020017f537563636573732065786563757465642070726f706f73616c000000000000008152509250925050915091565b60025460405160009182916001600160a01b0390911690610c6f90879087908790602401611e36565b60408051601f198184030181529181526020820180516001600160e01b03166370acb76160e01b17905251610ca49190611cee565b600060405180830381855af49150503d8060008114610cdf576040519150601f19603f3d011682016040523d82523d6000602084013e610ce4565b606091505b505090506040513d806000833e82610cfa578082fd5b505195945050505050565b60025460405160009182916001600160a01b0390911690610d30908890889088908890602401611cb6565b60408051601f198184030181529181526020820180516001600160e01b0316630f8c70a960e31b179052516108629190611cee565b600154604051600091660100000000000090046001600160a01b031690610d9290859085906024016118a4565b60408051601f198184030181529181526020820180516001600160e01b0316631039e45b60e31b17905251610dc79190611cee565b600060405180830381855af49150503d8060008114610e02576040519150601f19603f3d011682016040523d82523d6000602084013e610e07565b606091505b5050905080610e1d576040513d806000833e8082fd5b505050565b600e8181548110610e3257600080fd5b6000918252602090912060039091020180546001820180546001600160a01b03909216935090610e6190611d4f565b80601f0160208091040260200160405190810160405280929190818152602001828054610e8d90611d4f565b8015610eda5780601f10610eaf57610100808354040283529160200191610eda565b820191906000526020600020905b815481529060010190602001808311610ebd57829003601f168201915b5050506002909301549192505060ff1683565b60025460405160009182916001600160a01b0390911690610f1690879087908790602401611e62565b60408051601f198184030181529181526020820180516001600160e01b0316630a19a5f560e41b1790525161060b9190611cee565b6060600d805480602002602001604051908101604052809291908181526020016000905b82821015610b4e5760008481526020908190206040805161012081019091526005850290910180546001600160a01b03811683529192909190830190600160a01b900460ff166008811115610fc657610fc6611a32565b6008811115610fd757610fd7611a32565b8152602001600182018054610feb90611d4f565b80601f016020809104026020016040519081016040528092919081815260200182805461101790611d4f565b80156110645780601f1061103957610100808354040283529160200191611064565b820191906000526020600020905b81548152906001019060200180831161104757829003601f168201915b50505091835250506002820154602080830191909152600383015460ff8082166040850152610100820481166060850152620100008204811615156080850152630100000090910416151560a083015260049092015460c0909101529082526001929092019101610f6f565b600f81815481106110e057600080fd5b600091825260209091206004909102018054600182015460028301546003909301546001600160a01b03928316945090928216911684565b60025460405160009182916001600160a01b0390911690611143908890889088908890602401611ea5565b60408051601f198184030181529181526020820180516001600160e01b0316631856754160e31b179052516111789190611cee565b600060405180830381855af49150503d80600081146111b3576040519150601f19603f3d011682016040523d82523d6000602084013e6111b8565b606091505b50509050806111ce576040513d806000833e8082fd5b50600195945050505050565b600c6020908152600092835260408084209091529082529020805460018201805460ff808416946101009094041692919061121490611d4f565b80601f016020809104026020016040519081016040528092919081815260200182805461124090611d4f565b801561128d5780601f106112625761010080835404028352916020019161128d565b820191906000526020600020905b81548152906001019060200180831161127057829003601f168201915b5050505050905083565b600d81815481106112a757600080fd5b6000918252602090912060059091020180546001820180546001600160a01b0383169450600160a01b90920460ff1692916112e190611d4f565b80601f016020809104026020016040519081016040528092919081815260200182805461130d90611d4f565b801561135a5780601f1061132f5761010080835404028352916020019161135a565b820191906000526020600020905b81548152906001019060200180831161133d57829003601f168201915b505050600284015460038501546004909501549394909360ff808316945061010083048116935062010000830481169263010000009004169089565b60025460405160009182916001600160a01b03909116906113c39089908990899089908990602401611ed8565b60408051601f198184030181529181526020820180516001600160e01b0316636f2d58a760e11b179052516113f89190611cee565b600060405180830381855af49150503d8060008114611433576040519150601f19603f3d011682016040523d82523d6000602084013e611438565b606091505b505090506040513d806000833e8261144e578082fd5b5051979650505050505050565b80356001600160a01b038116811461147257600080fd5b919050565b634e487b7160e01b600052604160045260246000fd5b600082601f83011261149e57600080fd5b813567ffffffffffffffff808211156114b9576114b9611477565b604051601f8301601f19908116603f011681019082821181831017156114e1576114e1611477565b816040528381528660208588010111156114fa57600080fd5b836020870160208301376000602085830101528094505050505092915050565b6000806000806080858703121561153057600080fd5b6115398561145b565b935060208501359250604085013567ffffffffffffffff81111561155c57600080fd5b6115688782880161148d565b949793965093946060013593505050565b600080600080600060a0868803121561159157600080fd5b61159a8661145b565b94506115a86020870161145b565b935060408601359250606086013567ffffffffffffffff8111156115cb57600080fd5b6115d78882890161148d565b95989497509295608001359392505050565b6000602082840312156115fb57600080fd5b5035919050565b60005b8381101561161d578181015183820152602001611605565b8381111561162c576000848401525b50505050565b6000815180845261164a816020860160208601611602565b601f01601f19169290920160200192915050565b6001600160a01b038616815260a06020820181905260009061168290830187611632565b6040830195909552509115156060830152151560809091015292915050565b600080600080608085870312156116b757600080fd5b6116c08561145b565b9350602085013567ffffffffffffffff808211156116dd57600080fd5b6116e98883890161148d565b945060408701359350606087013591508082111561170657600080fd5b506117138782880161148d565b91505092959194509250565b8035801515811461147257600080fd5b60008060008060008060c0878903121561174857600080fd5b6117518761145b565b9550602087013567ffffffffffffffff8082111561176e57600080fd5b61177a8a838b0161148d565b9650604089013591508082111561179057600080fd5b61179c8a838b0161148d565b95506117aa60608a0161171f565b94506080890135935060a08901359150808211156117c757600080fd5b506117d489828a0161148d565b9150509295509295509295565b6000602082840312156117f357600080fd5b6117fc8261145b565b9392505050565b6020815260006117fc6020830184611632565b60006020808301818452808551808352604092508286019150828160051b87010184880160005b8381101561189657888303603f19018552815180516001600160a01b031684528781015160608986018190529061187682870182611632565b92890151151595890195909552509487019492509086019060010161183d565b509098975050505050505050565b82151581526040602082015260006118bf6040830184611632565b949350505050565b6000806000606084860312156118dc57600080fd5b833560ff811681146118ed57600080fd5b9250602084013567ffffffffffffffff81111561190957600080fd5b6119158682870161148d565b925050604084013590509250925092565b6000806040838503121561193957600080fd5b6119428361171f565b9150602083013567ffffffffffffffff81111561195e57600080fd5b61196a8582860161148d565b9150509250929050565b6001600160a01b038416815260606020820181905260009061199890830185611632565b90508215156040830152949350505050565b6000806000606084860312156119bf57600080fd5b833567ffffffffffffffff808211156119d757600080fd5b6119e38783880161148d565b945060208601359150808211156119f957600080fd5b611a058783880161148d565b93506040860135915080821115611a1b57600080fd5b50611a288682870161148d565b9150509250925092565b634e487b7160e01b600052602160045260246000fd5b60098110611a6657634e487b7160e01b600052602160045260246000fd5b9052565b60006020808301818452808551808352604092508286019150828160051b87010184880160005b8381101561189657888303603f19018552815180516001600160a01b0316845261012088820151611ac48a870182611a48565b50878201518189870152611ada82870182611632565b9150506060808301518187015250608080830151611afc8288018260ff169052565b505060a08281015160ff169086015260c08083015115159086015260e0808301511515908601526101009182015191909401529386019390860190600101611a91565b60008060008060808587031215611b5557600080fd5b84359350611b656020860161171f565b9250604085013567ffffffffffffffff80821115611b8257600080fd5b611b8e8883890161148d565b9350606087013591508082111561170657600080fd5b60008060408385031215611bb757600080fd5b82359150611bc76020840161145b565b90509250929050565b83151581528215156020820152606060408201526000611bf36060830184611632565b95945050505050565b6001600160a01b038a1681526000610120611c1a602084018c611a48565b806040840152611c2c8184018b611632565b6060840199909952505060ff95861660808201529390941660a084015290151560c0830152151560e082015261010001529392505050565b600080600080600060a08688031215611c7c57600080fd5b611c858661145b565b945060208601359350611c9a6040870161145b565b9250606086013567ffffffffffffffff8111156115cb57600080fd5b60018060a01b0385168152836020820152608060408201526000611cdd6080830185611632565b905082606083015295945050505050565b60008251611d00818460208701611602565b9190910192915050565b6001600160a01b038681168252851660208201526040810184905260a060608201819052600090611d3d90830185611632565b90508260808301529695505050505050565b600181811c90821680611d6357607f821691505b60208210811415611d8457634e487b7160e01b600052602260045260246000fd5b50919050565b6001600160a01b0385168152608060208201819052600090611dae90830186611632565b8460408401528281036060840152611dc68185611632565b979650505050505050565b6001600160a01b038716815260c060208201819052600090611df590830188611632565b8281036040840152611e078188611632565b9050851515606084015284608084015282810360a0840152611e298185611632565b9998505050505050505050565b60ff84168152606060208201526000611e526060830185611632565b9050826040830152949350505050565b606081526000611e756060830186611632565b8281036020840152611e878186611632565b90508281036040840152611e9b8185611632565b9695505050505050565b8481528315156020820152608060408201526000611ec66080830185611632565b8281036060840152611dc68185611632565b6001600160a01b038681168252602082018690528416604082015260a060608201819052600090611d3d9083018561163256fea2646970667358221220774dfed0272bcb445434ffd0a3c91461c5937b4b28941dd44e52515994e131fa64736f6c634300080c0033a26469706673582212207f94df6b6eb401c7bff2ff22518c0909e7d232ea68dfca68b6347769299194ec64736f6c634300080c003360806040523480156200001157600080fd5b50604051620024ed380380620024ed833981016040819052620000349162000336565b600082600260200201516001600160a01b031688888888888888604051602401620000669796959493929190620004c9565b60408051601f198184030181529181526020820180516001600160e01b0316639f221d8160e01b179052516200009d91906200057e565b600060405180830381855af49150503d8060008114620000da576040519150601f19603f3d011682016040523d82523d6000602084013e620000df565b606091505b5050905080620000f6576040513d806000833e8082fd5b50505050505050506200059c565b80516001600160a01b03811681146200011c57600080fd5b919050565b634e487b7160e01b600052604160045260246000fd5b604051601f8201601f191681016001600160401b038111828210171562000162576200016262000121565b604052919050565b60005b83811015620001875781810151838201526020016200016d565b8381111562000197576000848401525b50505050565b805180151581146200011c57600080fd5b600082601f830112620001c057600080fd5b604051606081016001600160401b0381118282101715620001e557620001e562000121565b604052806060840185811115620001fb57600080fd5b845b818110156200022857805160ff81168114620002195760008081fd5b835260209283019201620001fd565b509195945050505050565b600082601f8301126200024557600080fd5b60405160a081016001600160401b03811182821017156200026a576200026a62000121565b6040528060a08401858111156200028057600080fd5b845b818110156200022857620002968162000104565b83526020928301920162000282565b600082601f830112620002b757600080fd5b815160206001600160401b03821115620002d557620002d562000121565b8160051b620002e682820162000137565b92835284810182019282810190878511156200030157600080fd5b83870192505b848310156200032b576200031b8362000104565b8252918301919083019062000307565b979650505050505050565b60008060008060008060006101a0888a0312156200035357600080fd5b6200035e8862000104565b60208901519097506001600160401b03808211156200037c57600080fd5b818a0191508a601f8301126200039157600080fd5b815181811115620003a657620003a662000121565b620003bb601f8201601f191660200162000137565b8181528c6020838601011115620003d157600080fd5b620003e48260208301602087016200016a565b9850620003f6905060408b016200019d565b965060608a015195506200040e8b60808c01620001ae565b94506200041f8b60e08c0162000233565b93506101808a01519150808211156200043757600080fd5b50620004468a828b01620002a5565b91505092959891949750929550565b8060005b6005811015620001975781516001600160a01b031684526020938401939091019060010162000459565b600081518084526020808501945080840160005b83811015620004be5781516001600160a01b03168752958201959082019060010162000497565b509495945050505050565b6001600160a01b03881681526101a0602080830182905288519183018290526000916101c0919062000501818487018d85016200016a565b891515604086015260608501899052601f01601f19168401608085018860005b60038110156200054357815160ff168352918401919084019060010162000521565b5050506200055560e086018862000455565b82858203016101808601526200056e8382018762000483565b9c9b505050505050505050505050565b60008251620005928184602087016200016a565b9190910192915050565b611f4180620005ac6000396000f3fe608060405234801561001057600080fd5b506004361061021c5760003560e01c806370ff918c11610125578063baa4d5e9116100ad578063cb85669c1161007c578063cb85669c14610533578063de5ab14e1461055b578063e68777d71461056e578063e810a58e14610580578063f00d62741461059557600080fd5b8063baa4d5e914610495578063c2b3aa08146104db578063c347d2fd146104fe578063cada7f191461052057600080fd5b806396a3dd84116100f457806396a3dd84146104305780639c630a8814610452578063a19a5f5014610465578063a693649a14610478578063b4c621921461048057600080fd5b806370ff918c146103d55780637c638548146103f557806381cf22d8146104085780639360bfad1461041d57600080fd5b80632a57ef84116101a857806359ca2d031161017757806359ca2d03146103645780635aadd414146103795780635f3d99b31461038e5780636c2f34e7146103af57806370acb761146103c257600080fd5b80632a57ef841461030b57806331a0afa71461031e5780633a70693d1461033157806350f7308a1461034457600080fd5b806319a50f49116101ef57806319a50f49146102ab5780631d5fd3ca146102b85780631f50dd27146102c15780632266e1bc146102d457806322b4081c146102e757600080fd5b806304f17a9b14610221578063052f9b0a146102475780631343e9a514610272578063152de3b914610298575b600080fd5b61023461022f36600461151a565b6105ab565b6040519081526020015b60405180910390f35b60085461025a906001600160a01b031681565b6040516001600160a01b03909116815260200161023e565b600154610286906301000000900460ff1681565b60405160ff909116815260200161023e565b6102346102a6366004611579565b610665565b6001546102869060ff1681565b61023460055481565b60095461025a906001600160a01b031681565b6102346102e236600461151a565b6106c7565b6102fa6102f53660046115e9565b610727565b60405161023e95949392919061165e565b6102346103193660046116a1565b610802565b61023461032c36600461172f565b6108c4565b61028661033f3660046115e9565b61098c565b6102346103523660046117e1565b600a6020526000908152604090205481565b61036c6109b0565b60405161023e9190611803565b610381610a3e565b60405161023e9190611816565b6103a161039c3660046115e9565b610b57565b60405161023e9291906118a4565b60065461025a906001600160a01b031681565b6102346103d03660046118c7565b610c46565b6102346103e33660046117e1565b600b6020526000908152604090205481565b61023461040336600461151a565b610d05565b61041b610416366004611926565b610d65565b005b60075461025a906001600160a01b031681565b61044361043e3660046115e9565b610e22565b60405161023e93929190611974565b6001546102869062010000900460ff1681565b6102346104733660046119aa565b610eed565b601154610234565b610488610f4b565b60405161023e9190611a6a565b6104a86104a33660046115e9565b6110d0565b604080516001600160a01b039586168152602081019490945291841691830191909152909116606082015260800161023e565b6104ee6104e9366004611b3f565b611118565b604051901515815260200161023e565b61051161050c366004611ba4565b6111da565b60405161023e93929190611bd0565b60045461025a906001600160a01b031681565b6105466105413660046115e9565b611297565b60405161023e99989796959493929190611bfc565b610234610569366004611c64565b611396565b60015461028690610100900460ff1681565b60015461028690640100000000900460ff1681565b6001546104ee9065010000000000900460ff1681565b60025460405160009182916001600160a01b03909116906105d6908890889088908890602401611cb6565b60408051601f198184030181529181526020820180516001600160e01b03166304f17a9b60e01b1790525161060b9190611cee565b600060405180830381855af49150503d8060008114610646576040519150601f19603f3d011682016040523d82523d6000602084013e61064b565b606091505b505090506040513d806000833e82610661578082fd5b8082f35b60025460405160009182916001600160a01b03909116906106929089908990899089908990602401611d0a565b60408051601f198184030181529181526020820180516001600160e01b031663152de3b960e01b1790525161060b9190611cee565b60025460405160009182916001600160a01b03909116906106f2908890889088908890602401611cb6565b60408051601f198184030181529181526020820180516001600160e01b0316630899b86f60e21b1790525161060b9190611cee565b6011818154811061073757600080fd5b6000918252602090912060049091020180546001820180546001600160a01b0390921693509061076690611d4f565b80601f016020809104026020016040519081016040528092919081815260200182805461079290611d4f565b80156107df5780601f106107b4576101008083540402835291602001916107df565b820191906000526020600020905b8154815290600101906020018083116107c257829003601f168201915b50505050600283015460039093015491929160ff80821692506101009091041685565b60025460405160009182916001600160a01b039091169061082d908890889088908890602401611d8a565b60408051601f198184030181529181526020820180516001600160e01b0316630a95fbe160e21b179052516108629190611cee565b600060405180830381855af49150503d806000811461089d576040519150601f19603f3d011682016040523d82523d6000602084013e6108a2565b606091505b505090506040513d806000833e826108b8578082fd5b50519695505050505050565b60025460405160009182916001600160a01b03909116906108f3908a908a908a908a908a908a90602401611dd1565b60408051601f198184030181529181526020820180516001600160e01b03166331a0afa760e01b179052516109289190611cee565b600060405180830381855af49150503d8060008114610963576040519150601f19603f3d011682016040523d82523d6000602084013e610968565b606091505b505090506040513d806000833e8261097e578082fd5b505198975050505050505050565b6010818154811061099c57600080fd5b60009182526020909120015460ff16905081565b600080546109bd90611d4f565b80601f01602080910402602001604051908101604052809291908181526020018280546109e990611d4f565b8015610a365780601f10610a0b57610100808354040283529160200191610a36565b820191906000526020600020905b815481529060010190602001808311610a1957829003601f168201915b505050505081565b6060600e805480602002602001604051908101604052809291908181526020016000905b82821015610b4e57600084815260209081902060408051606081019091526003850290910180546001600160a01b031682526001810180549293919291840191610aab90611d4f565b80601f0160208091040260200160405190810160405280929190818152602001828054610ad790611d4f565b8015610b245780601f10610af957610100808354040283529160200191610b24565b820191906000526020600020905b815481529060010190602001808311610b0757829003601f168201915b50505091835250506002919091015460ff1615156020918201529082526001929092019101610a62565b50505050905090565b6002546040516024810183905260009160609183916001600160a01b03169060440160408051601f198184030181529181526020820180516001600160e01b0316635f3d99b360e01b17905251610bae9190611cee565b600060405180830381855af49150503d8060008114610be9576040519150601f19603f3d011682016040523d82523d6000602084013e610bee565b606091505b5050905080610c04576040513d806000833e8082fd5b60016040518060400160405280601981526020017f537563636573732065786563757465642070726f706f73616c000000000000008152509250925050915091565b60025460405160009182916001600160a01b0390911690610c6f90879087908790602401611e36565b60408051601f198184030181529181526020820180516001600160e01b03166370acb76160e01b17905251610ca49190611cee565b600060405180830381855af49150503d8060008114610cdf576040519150601f19603f3d011682016040523d82523d6000602084013e610ce4565b606091505b505090506040513d806000833e82610cfa578082fd5b505195945050505050565b60025460405160009182916001600160a01b0390911690610d30908890889088908890602401611cb6565b60408051601f198184030181529181526020820180516001600160e01b0316630f8c70a960e31b179052516108629190611cee565b600154604051600091660100000000000090046001600160a01b031690610d9290859085906024016118a4565b60408051601f198184030181529181526020820180516001600160e01b0316631039e45b60e31b17905251610dc79190611cee565b600060405180830381855af49150503d8060008114610e02576040519150601f19603f3d011682016040523d82523d6000602084013e610e07565b606091505b5050905080610e1d576040513d806000833e8082fd5b505050565b600e8181548110610e3257600080fd5b6000918252602090912060039091020180546001820180546001600160a01b03909216935090610e6190611d4f565b80601f0160208091040260200160405190810160405280929190818152602001828054610e8d90611d4f565b8015610eda5780601f10610eaf57610100808354040283529160200191610eda565b820191906000526020600020905b815481529060010190602001808311610ebd57829003601f168201915b5050506002909301549192505060ff1683565b60025460405160009182916001600160a01b0390911690610f1690879087908790602401611e62565b60408051601f198184030181529181526020820180516001600160e01b0316630a19a5f560e41b1790525161060b9190611cee565b6060600d805480602002602001604051908101604052809291908181526020016000905b82821015610b4e5760008481526020908190206040805161012081019091526005850290910180546001600160a01b03811683529192909190830190600160a01b900460ff166008811115610fc657610fc6611a32565b6008811115610fd757610fd7611a32565b8152602001600182018054610feb90611d4f565b80601f016020809104026020016040519081016040528092919081815260200182805461101790611d4f565b80156110645780601f1061103957610100808354040283529160200191611064565b820191906000526020600020905b81548152906001019060200180831161104757829003601f168201915b50505091835250506002820154602080830191909152600383015460ff8082166040850152610100820481166060850152620100008204811615156080850152630100000090910416151560a083015260049092015460c0909101529082526001929092019101610f6f565b600f81815481106110e057600080fd5b600091825260209091206004909102018054600182015460028301546003909301546001600160a01b03928316945090928216911684565b60025460405160009182916001600160a01b0390911690611143908890889088908890602401611ea5565b60408051601f198184030181529181526020820180516001600160e01b0316631856754160e31b179052516111789190611cee565b600060405180830381855af49150503d80600081146111b3576040519150601f19603f3d011682016040523d82523d6000602084013e6111b8565b606091505b50509050806111ce576040513d806000833e8082fd5b50600195945050505050565b600c6020908152600092835260408084209091529082529020805460018201805460ff808416946101009094041692919061121490611d4f565b80601f016020809104026020016040519081016040528092919081815260200182805461124090611d4f565b801561128d5780601f106112625761010080835404028352916020019161128d565b820191906000526020600020905b81548152906001019060200180831161127057829003601f168201915b5050505050905083565b600d81815481106112a757600080fd5b6000918252602090912060059091020180546001820180546001600160a01b0383169450600160a01b90920460ff1692916112e190611d4f565b80601f016020809104026020016040519081016040528092919081815260200182805461130d90611d4f565b801561135a5780601f1061132f5761010080835404028352916020019161135a565b820191906000526020600020905b81548152906001019060200180831161133d57829003601f168201915b505050600284015460038501546004909501549394909360ff808316945061010083048116935062010000830481169263010000009004169089565b60025460405160009182916001600160a01b03909116906113c39089908990899089908990602401611ed8565b60408051601f198184030181529181526020820180516001600160e01b0316636f2d58a760e11b179052516113f89190611cee565b600060405180830381855af49150503d8060008114611433576040519150601f19603f3d011682016040523d82523d6000602084013e611438565b606091505b505090506040513d806000833e8261144e578082fd5b5051979650505050505050565b80356001600160a01b038116811461147257600080fd5b919050565b634e487b7160e01b600052604160045260246000fd5b600082601f83011261149e57600080fd5b813567ffffffffffffffff808211156114b9576114b9611477565b604051601f8301601f19908116603f011681019082821181831017156114e1576114e1611477565b816040528381528660208588010111156114fa57600080fd5b836020870160208301376000602085830101528094505050505092915050565b6000806000806080858703121561153057600080fd5b6115398561145b565b935060208501359250604085013567ffffffffffffffff81111561155c57600080fd5b6115688782880161148d565b949793965093946060013593505050565b600080600080600060a0868803121561159157600080fd5b61159a8661145b565b94506115a86020870161145b565b935060408601359250606086013567ffffffffffffffff8111156115cb57600080fd5b6115d78882890161148d565b95989497509295608001359392505050565b6000602082840312156115fb57600080fd5b5035919050565b60005b8381101561161d578181015183820152602001611605565b8381111561162c576000848401525b50505050565b6000815180845261164a816020860160208601611602565b601f01601f19169290920160200192915050565b6001600160a01b038616815260a06020820181905260009061168290830187611632565b6040830195909552509115156060830152151560809091015292915050565b600080600080608085870312156116b757600080fd5b6116c08561145b565b9350602085013567ffffffffffffffff808211156116dd57600080fd5b6116e98883890161148d565b945060408701359350606087013591508082111561170657600080fd5b506117138782880161148d565b91505092959194509250565b8035801515811461147257600080fd5b60008060008060008060c0878903121561174857600080fd5b6117518761145b565b9550602087013567ffffffffffffffff8082111561176e57600080fd5b61177a8a838b0161148d565b9650604089013591508082111561179057600080fd5b61179c8a838b0161148d565b95506117aa60608a0161171f565b94506080890135935060a08901359150808211156117c757600080fd5b506117d489828a0161148d565b9150509295509295509295565b6000602082840312156117f357600080fd5b6117fc8261145b565b9392505050565b6020815260006117fc6020830184611632565b60006020808301818452808551808352604092508286019150828160051b87010184880160005b8381101561189657888303603f19018552815180516001600160a01b031684528781015160608986018190529061187682870182611632565b92890151151595890195909552509487019492509086019060010161183d565b509098975050505050505050565b82151581526040602082015260006118bf6040830184611632565b949350505050565b6000806000606084860312156118dc57600080fd5b833560ff811681146118ed57600080fd5b9250602084013567ffffffffffffffff81111561190957600080fd5b6119158682870161148d565b925050604084013590509250925092565b6000806040838503121561193957600080fd5b6119428361171f565b9150602083013567ffffffffffffffff81111561195e57600080fd5b61196a8582860161148d565b9150509250929050565b6001600160a01b038416815260606020820181905260009061199890830185611632565b90508215156040830152949350505050565b6000806000606084860312156119bf57600080fd5b833567ffffffffffffffff808211156119d757600080fd5b6119e38783880161148d565b945060208601359150808211156119f957600080fd5b611a058783880161148d565b93506040860135915080821115611a1b57600080fd5b50611a288682870161148d565b9150509250925092565b634e487b7160e01b600052602160045260246000fd5b60098110611a6657634e487b7160e01b600052602160045260246000fd5b9052565b60006020808301818452808551808352604092508286019150828160051b87010184880160005b8381101561189657888303603f19018552815180516001600160a01b0316845261012088820151611ac48a870182611a48565b50878201518189870152611ada82870182611632565b9150506060808301518187015250608080830151611afc8288018260ff169052565b505060a08281015160ff169086015260c08083015115159086015260e0808301511515908601526101009182015191909401529386019390860190600101611a91565b60008060008060808587031215611b5557600080fd5b84359350611b656020860161171f565b9250604085013567ffffffffffffffff80821115611b8257600080fd5b611b8e8883890161148d565b9350606087013591508082111561170657600080fd5b60008060408385031215611bb757600080fd5b82359150611bc76020840161145b565b90509250929050565b83151581528215156020820152606060408201526000611bf36060830184611632565b95945050505050565b6001600160a01b038a1681526000610120611c1a602084018c611a48565b806040840152611c2c8184018b611632565b6060840199909952505060ff95861660808201529390941660a084015290151560c0830152151560e082015261010001529392505050565b600080600080600060a08688031215611c7c57600080fd5b611c858661145b565b945060208601359350611c9a6040870161145b565b9250606086013567ffffffffffffffff8111156115cb57600080fd5b60018060a01b0385168152836020820152608060408201526000611cdd6080830185611632565b905082606083015295945050505050565b60008251611d00818460208701611602565b9190910192915050565b6001600160a01b038681168252851660208201526040810184905260a060608201819052600090611d3d90830185611632565b90508260808301529695505050505050565b600181811c90821680611d6357607f821691505b60208210811415611d8457634e487b7160e01b600052602260045260246000fd5b50919050565b6001600160a01b0385168152608060208201819052600090611dae90830186611632565b8460408401528281036060840152611dc68185611632565b979650505050505050565b6001600160a01b038716815260c060208201819052600090611df590830188611632565b8281036040840152611e078188611632565b9050851515606084015284608084015282810360a0840152611e298185611632565b9998505050505050505050565b60ff84168152606060208201526000611e526060830185611632565b9050826040830152949350505050565b606081526000611e756060830186611632565b8281036020840152611e878186611632565b90508281036040840152611e9b8185611632565b9695505050505050565b8481528315156020820152608060408201526000611ec66080830185611632565b8281036060840152611dc68185611632565b6001600160a01b038681168252602082018690528416604082015260a060608201819052600090611d3d9083018561163256fea2646970667358221220774dfed0272bcb445434ffd0a3c91461c5937b4b28941dd44e52515994e131fa64736f6c634300080c003316591a696fee5867425b3dee9fc0160a6c1baef77835bc3d204314106d639298",
  "bytecodeSha1": "da39a3ee5e6b4b0d3255bfef95601890afd80709",
  "compiler": {
    "evm_version": "istanbul",
    "optimizer": {
      "enabled": true,
      "runs": 200
    },
    "version": "0.8.12+commit.f00d7308"
  },
  "contractName": "CLFactory",
  "language": "Solidity",
  "natspec": {
    "author": "Leonardo Urrego",
    "details": "This contract is the only way to create CLH",
    "kind": "dev",
    "methods": {
      "CreateCLH(string,bool,bytes32,uint8[3],address[],address,address,bytes)": {
        "details": "Some parameters wil be ignored depending on the governance model",
        "notice": "Deploy a new CLHouse",
        "params": {
          "_ManagerWallets": "Whitelist of address for invitate as managers",
          "_govModel": "keccak256 hash of the governance model, see the __GOV_* constans",
          "_govRules": "Array for goverment rules see `enum gRule`",
          "_houseName": "Name of the CLH",
          "_housePrivate": "If is set to 1, the CLH is set to private"
        }
      },
      "GetHouseList()": {
        "notice": "Return the list of all houses created by the factory",
        "returns": {
          "_0": "Array with address houses"
        }
      },
      "GetHousesByUser(address)": {
        "notice": "List of membership houses of the one wallet address",
        "params": {
          "_walletAddr": "User wallet address"
        },
        "returns": {
          "_0": "Array with address houses"
        }
      },
      "GetInvitationsByUser(address)": {
        "notice": "List of houses that have an invitation pending for a specific wallet",
        "params": {
          "_walletAddr": "The user wallet address"
        },
        "returns": {
          "_0": "Array with address houses"
        }
      },
      "arrCLH(uint256)": {
        "notice": "Array to store all the created houses"
      },
      "constructor": {
        "details": "The constructor create a default CLH with the houseId #0",
        "notice": "Config the CLFactory with the CL Logic Contracts",
        "params": {
          "_CLLConstructorCLH": "Address Contract with the Constructor logic",
          "_CLLGovernance": "Address Contract Logic for governance",
          "_CLLUserManagement": "Address Contract Logic for user management"
        }
      },
      "mapCLHId(address)": {
        "notice": "Relation houseAddr with houseId"
      },
      "numCLH()": {
        "notice": "Store the number of houses created"
      }
    },
    "notice": "Config, create and deploy CLHouses",
    "title": "Crypto League House Factory",
    "version": 1
  },
  "opcodes": "PUSH1 0x80 PUSH1 0x40 MSTORE CALLVALUE DUP1 ISZERO PUSH3 0x11 JUMPI PUSH1 0x0 DUP1 REVERT JUMPDEST POP PUSH1 0x4 CALLDATASIZE LT PUSH3 0x87 JUMPI PUSH1 0x0 CALLDATALOAD PUSH1 0xE0 SHR DUP1 PUSH4 0x56EC9FFF GT PUSH3 0x62 JUMPI DUP1 PUSH4 0x56EC9FFF EQ PUSH3 0x110 JUMPI DUP1 PUSH4 0x7DDB31A3 EQ PUSH3 0x136 JUMPI DUP1 PUSH4 0xAC53C485 EQ PUSH3 0x14D JUMPI DUP1 PUSH4 0xEE7A7D1B EQ PUSH3 0x164 JUMPI PUSH1 0x0 DUP1 REVERT JUMPDEST DUP1 PUSH4 0x132DCCE7 EQ PUSH3 0x8C JUMPI DUP1 PUSH4 0x3195CE74 EQ PUSH3 0xAE JUMPI DUP1 PUSH4 0x4C0487C2 EQ PUSH3 0xE0 JUMPI JUMPDEST PUSH1 0x0 DUP1 REVERT JUMPDEST PUSH3 0x96 PUSH3 0x16E JUMP JUMPDEST PUSH1 0x40 MLOAD PUSH3 0xA5 SWAP2 SWAP1 PUSH3 0x8B3 JUMP JUMPDEST PUSH1 0x40 MLOAD DUP1 SWAP2 SUB SWAP1 RETURN JUMPDEST PUSH3 0xD1 PUSH3 0xBF CALLDATASIZE PUSH1 0x4 PUSH3 0x92D JUMP JUMPDEST PUSH1 0x2 PUSH1 0x20 MSTORE PUSH1 0x0 SWAP1 DUP2 MSTORE PUSH1 0x40 SWAP1 KECCAK256 SLOAD DUP2 JUMP JUMPDEST PUSH1 0x40 MLOAD SWAP1 DUP2 MSTORE PUSH1 0x20 ADD PUSH3 0xA5 JUMP JUMPDEST PUSH3 0xF7 PUSH3 0xF1 CALLDATASIZE PUSH1 0x4 PUSH3 0xB40 JUMP JUMPDEST PUSH3 0x1D2 JUMP JUMPDEST PUSH1 0x40 MLOAD PUSH1 0x1 PUSH1 0x1 PUSH1 0xA0 SHL SUB SWAP1 SWAP2 AND DUP2 MSTORE PUSH1 0x20 ADD PUSH3 0xA5 JUMP JUMPDEST PUSH3 0x127 PUSH3 0x121 CALLDATASIZE PUSH1 0x4 PUSH3 0x92D JUMP JUMPDEST PUSH3 0x581 JUMP JUMPDEST PUSH1 0x40 MLOAD PUSH3 0xA5 SWAP2 SWAP1 PUSH3 0xC70 JUMP JUMPDEST PUSH3 0x127 PUSH3 0x147 CALLDATASIZE PUSH1 0x4 PUSH3 0x92D JUMP JUMPDEST PUSH3 0x702 JUMP JUMPDEST PUSH3 0xF7 PUSH3 0x15E CALLDATASIZE PUSH1 0x4 PUSH3 0xC85 JUMP JUMPDEST PUSH3 0x87A JUMP JUMPDEST PUSH3 0xD1 PUSH1 0x1 SLOAD DUP2 JUMP JUMPDEST PUSH1 0x60 PUSH1 0x0 DUP1 SLOAD DUP1 PUSH1 0x20 MUL PUSH1 0x20 ADD PUSH1 0x40 MLOAD SWAP1 DUP2 ADD PUSH1 0x40 MSTORE DUP1 SWAP3 SWAP2 SWAP1 DUP2 DUP2 MSTORE PUSH1 0x20 ADD DUP3 DUP1 SLOAD DUP1 ISZERO PUSH3 0x1C8 JUMPI PUSH1 0x20 MUL DUP3 ADD SWAP2 SWAP1 PUSH1 0x0 MSTORE PUSH1 0x20 PUSH1 0x0 KECCAK256 SWAP1 JUMPDEST DUP2 SLOAD PUSH1 0x1 PUSH1 0x1 PUSH1 0xA0 SHL SUB AND DUP2 MSTORE PUSH1 0x1 SWAP1 SWAP2 ADD SWAP1 PUSH1 0x20 ADD DUP1 DUP4 GT PUSH3 0x1A9 JUMPI JUMPDEST POP POP POP POP POP SWAP1 POP SWAP1 JUMP JUMPDEST PUSH1 0x0 DUP1 CALLER PUSH32 0xB93889D934070956C00846F50F9A10A747BD194BBA2F2E78A86D0C02386FDB1 DUP10 EQ DUP1 PUSH3 0x224 JUMPI POP DUP9 PUSH32 0x16591A696FEE5867425B3DEE9FC0160A6C1BAEF77835BC3D204314106D639298 EQ JUMPDEST DUP1 PUSH3 0x24F JUMPI POP DUP9 PUSH32 0xA0786F6450D5FB3298B8425105C1B75E6E01A1FF86CDABEA29909CDB0B4C83A7 EQ JUMPDEST PUSH3 0x2A1 JUMPI PUSH1 0x40 MLOAD PUSH3 0x461BCD PUSH1 0xE5 SHL DUP2 MSTORE PUSH1 0x20 PUSH1 0x4 DUP3 ADD MSTORE PUSH1 0x17 PUSH1 0x24 DUP3 ADD MSTORE PUSH32 0x496E76616C696420476F7665726E616E63652054797065000000000000000000 PUSH1 0x44 DUP3 ADD MSTORE PUSH1 0x64 ADD JUMPDEST PUSH1 0x40 MLOAD DUP1 SWAP2 SUB SWAP1 REVERT JUMPDEST PUSH1 0x1 PUSH1 0x1 PUSH1 0xA0 SHL SUB DUP6 AND ISZERO PUSH3 0x41F JUMPI DUP4 MLOAD PUSH1 0x41 EQ PUSH3 0x304 JUMPI PUSH1 0x40 MLOAD PUSH3 0x461BCD PUSH1 0xE5 SHL DUP2 MSTORE PUSH1 0x20 PUSH1 0x4 DUP3 ADD MSTORE PUSH1 0x1F PUSH1 0x24 DUP3 ADD MSTORE PUSH32 0x437265617465434C483A20426164207369676E6174757265206C656E67746800 PUSH1 0x44 DUP3 ADD MSTORE PUSH1 0x64 ADD PUSH3 0x298 JUMP JUMPDEST PUSH1 0x6 SLOAD PUSH1 0x1 PUSH1 0x1 PUSH1 0xA0 SHL SUB AND PUSH4 0x364AE0D8 DUP13 DUP13 DUP13 DUP13 PUSH1 0x0 PUSH1 0x20 MUL ADD MLOAD DUP14 PUSH1 0x1 PUSH1 0x20 MUL ADD MLOAD DUP15 PUSH1 0x2 PUSH1 0x20 MUL ADD MLOAD DUP15 PUSH1 0x0 DUP2 MLOAD DUP2 LT PUSH3 0x346 JUMPI PUSH3 0x346 PUSH3 0xC9F JUMP JUMPDEST PUSH1 0x20 MUL PUSH1 0x20 ADD ADD MLOAD ADDRESS DUP14 PUSH1 0x40 MLOAD DUP11 PUSH4 0xFFFFFFFF AND PUSH1 0xE0 SHL DUP2 MSTORE PUSH1 0x4 ADD PUSH3 0x376 SWAP10 SWAP9 SWAP8 SWAP7 SWAP6 SWAP5 SWAP4 SWAP3 SWAP2 SWAP1 PUSH3 0xD05 JUMP JUMPDEST PUSH1 0x20 PUSH1 0x40 MLOAD DUP1 DUP4 SUB DUP2 DUP7 GAS STATICCALL ISZERO DUP1 ISZERO PUSH3 0x394 JUMPI RETURNDATASIZE PUSH1 0x0 DUP1 RETURNDATACOPY RETURNDATASIZE PUSH1 0x0 REVERT JUMPDEST POP POP POP POP PUSH1 0x40 MLOAD RETURNDATASIZE PUSH1 0x1F NOT PUSH1 0x1F DUP3 ADD AND DUP3 ADD DUP1 PUSH1 0x40 MSTORE POP DUP2 ADD SWAP1 PUSH3 0x3BA SWAP2 SWAP1 PUSH3 0xD81 JUMP JUMPDEST PUSH1 0x1 PUSH1 0x1 PUSH1 0xA0 SHL SUB AND DUP6 PUSH1 0x1 PUSH1 0x1 PUSH1 0xA0 SHL SUB AND EQ PUSH3 0x41C JUMPI PUSH1 0x40 MLOAD PUSH3 0x461BCD PUSH1 0xE5 SHL DUP2 MSTORE PUSH1 0x20 PUSH1 0x4 DUP3 ADD MSTORE PUSH1 0x1C PUSH1 0x24 DUP3 ADD MSTORE PUSH32 0x437265617465434C483A20496E76616C6964205369676E617475726500000000 PUSH1 0x44 DUP3 ADD MSTORE PUSH1 0x64 ADD PUSH3 0x298 JUMP JUMPDEST POP DUP4 JUMPDEST PUSH1 0x40 DUP1 MLOAD PUSH1 0xA0 DUP2 ADD DUP3 MSTORE PUSH1 0x4 SLOAD PUSH1 0x1 PUSH1 0x1 PUSH1 0xA0 SHL SUB SWAP1 DUP2 AND DUP3 MSTORE PUSH1 0x5 SLOAD DUP2 AND PUSH1 0x20 DUP4 ADD MSTORE PUSH1 0x3 SLOAD DUP2 AND DUP3 DUP5 ADD MSTORE PUSH1 0x6 SLOAD DUP2 AND PUSH1 0x60 DUP4 ADD MSTORE DUP9 AND PUSH1 0x80 DUP3 ADD MSTORE SWAP1 MLOAD DUP3 SWAP2 DUP14 SWAP2 DUP14 SWAP2 DUP14 SWAP2 DUP14 SWAP2 SWAP1 DUP14 SWAP1 PUSH3 0x477 SWAP1 PUSH3 0x8A5 JUMP JUMPDEST PUSH3 0x489 SWAP8 SWAP7 SWAP6 SWAP5 SWAP4 SWAP3 SWAP2 SWAP1 PUSH3 0xDD5 JUMP JUMPDEST PUSH1 0x40 MLOAD DUP1 SWAP2 SUB SWAP1 PUSH1 0x0 CREATE DUP1 ISZERO DUP1 ISZERO PUSH3 0x4A6 JUMPI RETURNDATASIZE PUSH1 0x0 DUP1 RETURNDATACOPY RETURNDATASIZE PUSH1 0x0 REVERT JUMPDEST POP PUSH1 0x0 DUP1 SLOAD PUSH1 0x1 DUP1 DUP3 ADD DUP4 SSTORE DUP3 DUP1 MSTORE PUSH32 0x290DECD9548B62A8D60345A988386FC84BA6BC95484008F6362F93160EF3E563 DUP3 ADD DUP1 SLOAD PUSH1 0x1 PUSH1 0x1 PUSH1 0xA0 SHL SUB NOT AND PUSH1 0x1 PUSH1 0x1 PUSH1 0xA0 SHL SUB DUP7 AND OR SWAP1 SSTORE DUP1 SLOAD SWAP4 SWAP6 POP DUP6 SWAP4 SWAP2 SWAP3 PUSH3 0x505 DUP4 PUSH3 0xE6E JUMP JUMPDEST SWAP2 SWAP1 POP SSTORE POP DUP1 PUSH1 0x2 PUSH1 0x0 DUP5 PUSH1 0x1 PUSH1 0x1 PUSH1 0xA0 SHL SUB AND PUSH1 0x1 PUSH1 0x1 PUSH1 0xA0 SHL SUB AND DUP2 MSTORE PUSH1 0x20 ADD SWAP1 DUP2 MSTORE PUSH1 0x20 ADD PUSH1 0x0 KECCAK256 DUP2 SWAP1 SSTORE POP PUSH32 0x717908FB0165729C0CFD8BBC622F5EDE46A85E555AC30657FA94A188BCA698D DUP3 DUP15 DUP4 PUSH1 0x40 MLOAD PUSH3 0x569 SWAP4 SWAP3 SWAP2 SWAP1 PUSH3 0xE98 JUMP JUMPDEST PUSH1 0x40 MLOAD DUP1 SWAP2 SUB SWAP1 LOG1 POP SWAP12 SWAP11 POP POP POP POP POP POP POP POP POP POP POP JUMP JUMPDEST PUSH1 0x0 DUP1 SLOAD PUSH1 0x60 SWAP2 SWAP1 PUSH8 0xFFFFFFFFFFFFFFFF DUP2 GT ISZERO PUSH3 0x5A4 JUMPI PUSH3 0x5A4 PUSH3 0x954 JUMP JUMPDEST PUSH1 0x40 MLOAD SWAP1 DUP1 DUP3 MSTORE DUP1 PUSH1 0x20 MUL PUSH1 0x20 ADD DUP3 ADD PUSH1 0x40 MSTORE DUP1 ISZERO PUSH3 0x5CE JUMPI DUP2 PUSH1 0x20 ADD PUSH1 0x20 DUP3 MUL DUP1 CALLDATASIZE DUP4 CALLDATACOPY ADD SWAP1 POP JUMPDEST POP SWAP1 POP PUSH1 0x0 PUSH1 0x1 JUMPDEST PUSH1 0x1 SLOAD DUP2 GT PUSH3 0x6F9 JUMPI PUSH1 0x0 DUP2 DUP2 SLOAD DUP2 LT PUSH3 0x5F6 JUMPI PUSH3 0x5F6 PUSH3 0xC9F JUMP JUMPDEST PUSH1 0x0 SWAP2 DUP3 MSTORE PUSH1 0x20 SWAP1 SWAP2 KECCAK256 ADD SLOAD PUSH1 0x40 MLOAD PUSH4 0x287B9845 PUSH1 0xE1 SHL DUP2 MSTORE PUSH1 0x1 PUSH1 0x1 PUSH1 0xA0 SHL SUB DUP8 DUP2 AND PUSH1 0x4 DUP4 ADD MSTORE SWAP1 SWAP2 AND SWAP1 PUSH4 0x50F7308A SWAP1 PUSH1 0x24 ADD PUSH1 0x20 PUSH1 0x40 MLOAD DUP1 DUP4 SUB DUP2 DUP7 GAS STATICCALL ISZERO DUP1 ISZERO PUSH3 0x64A JUMPI RETURNDATASIZE PUSH1 0x0 DUP1 RETURNDATACOPY RETURNDATASIZE PUSH1 0x0 REVERT JUMPDEST POP POP POP POP PUSH1 0x40 MLOAD RETURNDATASIZE PUSH1 0x1F NOT PUSH1 0x1F DUP3 ADD AND DUP3 ADD DUP1 PUSH1 0x40 MSTORE POP DUP2 ADD SWAP1 PUSH3 0x670 SWAP2 SWAP1 PUSH3 0xECE JUMP JUMPDEST ISZERO PUSH3 0x6E4 JUMPI PUSH1 0x0 DUP2 DUP2 SLOAD DUP2 LT PUSH3 0x68C JUMPI PUSH3 0x68C PUSH3 0xC9F JUMP JUMPDEST PUSH1 0x0 SWAP2 DUP3 MSTORE PUSH1 0x20 SWAP1 SWAP2 KECCAK256 ADD SLOAD PUSH1 0x1 PUSH1 0x1 PUSH1 0xA0 SHL SUB AND DUP4 DUP4 PUSH3 0x6AE DUP2 PUSH3 0xE6E JUMP JUMPDEST SWAP5 POP DUP2 MLOAD DUP2 LT PUSH3 0x6C3 JUMPI PUSH3 0x6C3 PUSH3 0xC9F JUMP JUMPDEST PUSH1 0x20 MUL PUSH1 0x20 ADD ADD SWAP1 PUSH1 0x1 PUSH1 0x1 PUSH1 0xA0 SHL SUB AND SWAP1 DUP2 PUSH1 0x1 PUSH1 0x1 PUSH1 0xA0 SHL SUB AND DUP2 MSTORE POP POP JUMPDEST DUP1 PUSH3 0x6F0 DUP2 PUSH3 0xE6E JUMP JUMPDEST SWAP2 POP POP PUSH3 0x5D6 JUMP JUMPDEST POP SWAP1 SWAP4 SWAP3 POP POP POP JUMP JUMPDEST PUSH1 0x0 DUP1 SLOAD PUSH1 0x60 SWAP2 SWAP1 PUSH8 0xFFFFFFFFFFFFFFFF DUP2 GT ISZERO PUSH3 0x725 JUMPI PUSH3 0x725 PUSH3 0x954 JUMP JUMPDEST PUSH1 0x40 MLOAD SWAP1 DUP1 DUP3 MSTORE DUP1 PUSH1 0x20 MUL PUSH1 0x20 ADD DUP3 ADD PUSH1 0x40 MSTORE DUP1 ISZERO PUSH3 0x74F JUMPI DUP2 PUSH1 0x20 ADD PUSH1 0x20 DUP3 MUL DUP1 CALLDATASIZE DUP4 CALLDATACOPY ADD SWAP1 POP JUMPDEST POP SWAP1 POP PUSH1 0x0 PUSH1 0x1 JUMPDEST PUSH1 0x1 SLOAD DUP2 GT PUSH3 0x6F9 JUMPI PUSH1 0x0 DUP2 DUP2 SLOAD DUP2 LT PUSH3 0x777 JUMPI PUSH3 0x777 PUSH3 0xC9F JUMP JUMPDEST PUSH1 0x0 SWAP2 DUP3 MSTORE PUSH1 0x20 SWAP1 SWAP2 KECCAK256 ADD SLOAD PUSH1 0x40 MLOAD PUSH4 0x1C3FE463 PUSH1 0xE2 SHL DUP2 MSTORE PUSH1 0x1 PUSH1 0x1 PUSH1 0xA0 SHL SUB DUP8 DUP2 AND PUSH1 0x4 DUP4 ADD MSTORE SWAP1 SWAP2 AND SWAP1 PUSH4 0x70FF918C SWAP1 PUSH1 0x24 ADD PUSH1 0x20 PUSH1 0x40 MLOAD DUP1 DUP4 SUB DUP2 DUP7 GAS STATICCALL ISZERO DUP1 ISZERO PUSH3 0x7CB JUMPI RETURNDATASIZE PUSH1 0x0 DUP1 RETURNDATACOPY RETURNDATASIZE PUSH1 0x0 REVERT JUMPDEST POP POP POP POP PUSH1 0x40 MLOAD RETURNDATASIZE PUSH1 0x1F NOT PUSH1 0x1F DUP3 ADD AND DUP3 ADD DUP1 PUSH1 0x40 MSTORE POP DUP2 ADD SWAP1 PUSH3 0x7F1 SWAP2 SWAP1 PUSH3 0xECE JUMP JUMPDEST ISZERO PUSH3 0x865 JUMPI PUSH1 0x0 DUP2 DUP2 SLOAD DUP2 LT PUSH3 0x80D JUMPI PUSH3 0x80D PUSH3 0xC9F JUMP JUMPDEST PUSH1 0x0 SWAP2 DUP3 MSTORE PUSH1 0x20 SWAP1 SWAP2 KECCAK256 ADD SLOAD PUSH1 0x1 PUSH1 0x1 PUSH1 0xA0 SHL SUB AND DUP4 DUP4 PUSH3 0x82F DUP2 PUSH3 0xE6E JUMP JUMPDEST SWAP5 POP DUP2 MLOAD DUP2 LT PUSH3 0x844 JUMPI PUSH3 0x844 PUSH3 0xC9F JUMP JUMPDEST PUSH1 0x20 MUL PUSH1 0x20 ADD ADD SWAP1 PUSH1 0x1 PUSH1 0x1 PUSH1 0xA0 SHL SUB AND SWAP1 DUP2 PUSH1 0x1 PUSH1 0x1 PUSH1 0xA0 SHL SUB AND DUP2 MSTORE POP POP JUMPDEST DUP1 PUSH3 0x871 DUP2 PUSH3 0xE6E JUMP JUMPDEST SWAP2 POP POP PUSH3 0x757 JUMP JUMPDEST PUSH1 0x0 DUP2 DUP2 SLOAD DUP2 LT PUSH3 0x88B JUMPI PUSH1 0x0 DUP1 REVERT JUMPDEST PUSH1 0x0 SWAP2 DUP3 MSTORE PUSH1 0x20 SWAP1 SWAP2 KECCAK256 ADD SLOAD PUSH1 0x1 PUSH1 0x1 PUSH1 0xA0 SHL SUB AND SWAP1 POP DUP2 JUMP JUMPDEST PUSH2 0x24ED DUP1 PUSH3 0xEE9 DUP4 CODECOPY ADD SWAP1 JUMP JUMPDEST PUSH1 0x20 DUP1 DUP3 MSTORE DUP3 MLOAD DUP3 DUP3 ADD DUP2 SWAP1 MSTORE PUSH1 0x0 SWAP2 SWAP1 DUP5 DUP3 ADD SWAP1 PUSH1 0x40 DUP6 ADD SWAP1 DUP5 JUMPDEST DUP2 DUP2 LT ISZERO PUSH3 0x8F6 JUMPI DUP4 MLOAD PUSH1 0x1 PUSH1 0x1 PUSH1 0xA0 SHL SUB AND DUP4 MSTORE SWAP3 DUP5 ADD SWAP3 SWAP2 DUP5 ADD SWAP2 PUSH1 0x1 ADD PUSH3 0x8CF JUMP JUMPDEST POP SWAP1 SWAP7 SWAP6 POP POP POP POP POP POP JUMP JUMPDEST PUSH1 0x1 PUSH1 0x1 PUSH1 0xA0 SHL SUB DUP2 AND DUP2 EQ PUSH3 0x918 JUMPI PUSH1 0x0 DUP1 REVERT JUMPDEST POP JUMP JUMPDEST DUP1 CALLDATALOAD PUSH3 0x928 DUP2 PUSH3 0x902 JUMP JUMPDEST SWAP2 SWAP1 POP JUMP JUMPDEST PUSH1 0x0 PUSH1 0x20 DUP3 DUP5 SUB SLT ISZERO PUSH3 0x940 JUMPI PUSH1 0x0 DUP1 REVERT JUMPDEST DUP2 CALLDATALOAD PUSH3 0x94D DUP2 PUSH3 0x902 JUMP JUMPDEST SWAP4 SWAP3 POP POP POP JUMP JUMPDEST PUSH4 0x4E487B71 PUSH1 0xE0 SHL PUSH1 0x0 MSTORE PUSH1 0x41 PUSH1 0x4 MSTORE PUSH1 0x24 PUSH1 0x0 REVERT JUMPDEST PUSH1 0x40 MLOAD PUSH1 0x1F DUP3 ADD PUSH1 0x1F NOT AND DUP2 ADD PUSH8 0xFFFFFFFFFFFFFFFF DUP2 GT DUP3 DUP3 LT OR ISZERO PUSH3 0x996 JUMPI PUSH3 0x996 PUSH3 0x954 JUMP JUMPDEST PUSH1 0x40 MSTORE SWAP2 SWAP1 POP JUMP JUMPDEST PUSH1 0x0 DUP3 PUSH1 0x1F DUP4 ADD SLT PUSH3 0x9B0 JUMPI PUSH1 0x0 DUP1 REVERT JUMPDEST DUP2 CALLDATALOAD PUSH8 0xFFFFFFFFFFFFFFFF DUP2 GT ISZERO PUSH3 0x9CD JUMPI PUSH3 0x9CD PUSH3 0x954 JUMP JUMPDEST PUSH3 0x9E2 PUSH1 0x1F DUP3 ADD PUSH1 0x1F NOT AND PUSH1 0x20 ADD PUSH3 0x96A JUMP JUMPDEST DUP2 DUP2 MSTORE DUP5 PUSH1 0x20 DUP4 DUP7 ADD ADD GT ISZERO PUSH3 0x9F8 JUMPI PUSH1 0x0 DUP1 REVERT JUMPDEST DUP2 PUSH1 0x20 DUP6 ADD PUSH1 0x20 DUP4 ADD CALLDATACOPY PUSH1 0x0 SWAP2 DUP2 ADD PUSH1 0x20 ADD SWAP2 SWAP1 SWAP2 MSTORE SWAP4 SWAP3 POP POP POP JUMP JUMPDEST DUP1 CALLDATALOAD DUP1 ISZERO ISZERO DUP2 EQ PUSH3 0x928 JUMPI PUSH1 0x0 DUP1 REVERT JUMPDEST PUSH1 0x0 DUP3 PUSH1 0x1F DUP4 ADD SLT PUSH3 0xA38 JUMPI PUSH1 0x0 DUP1 REVERT JUMPDEST PUSH1 0x40 MLOAD PUSH1 0x60 DUP2 ADD DUP2 DUP2 LT PUSH8 0xFFFFFFFFFFFFFFFF DUP3 GT OR ISZERO PUSH3 0xA5E JUMPI PUSH3 0xA5E PUSH3 0x954 JUMP JUMPDEST PUSH1 0x40 MSTORE DUP1 PUSH1 0x60 DUP5 ADD DUP6 DUP2 GT ISZERO PUSH3 0xA74 JUMPI PUSH1 0x0 DUP1 REVERT JUMPDEST DUP5 JUMPDEST DUP2 DUP2 LT ISZERO PUSH3 0xAA1 JUMPI DUP1 CALLDATALOAD PUSH1 0xFF DUP2 AND DUP2 EQ PUSH3 0xA92 JUMPI PUSH1 0x0 DUP1 DUP2 REVERT JUMPDEST DUP4 MSTORE PUSH1 0x20 SWAP3 DUP4 ADD SWAP3 ADD PUSH3 0xA76 JUMP JUMPDEST POP SWAP2 SWAP6 SWAP5 POP POP POP POP POP JUMP JUMPDEST PUSH1 0x0 DUP3 PUSH1 0x1F DUP4 ADD SLT PUSH3 0xABE JUMPI PUSH1 0x0 DUP1 REVERT JUMPDEST DUP2 CALLDATALOAD PUSH1 0x20 PUSH8 0xFFFFFFFFFFFFFFFF DUP3 GT ISZERO PUSH3 0xADD JUMPI PUSH3 0xADD PUSH3 0x954 JUMP JUMPDEST DUP2 PUSH1 0x5 SHL PUSH3 0xAEE DUP3 DUP3 ADD PUSH3 0x96A JUMP JUMPDEST SWAP3 DUP4 MSTORE DUP5 DUP2 ADD DUP3 ADD SWAP3 DUP3 DUP2 ADD SWAP1 DUP8 DUP6 GT ISZERO PUSH3 0xB09 JUMPI PUSH1 0x0 DUP1 REVERT JUMPDEST DUP4 DUP8 ADD SWAP3 POP JUMPDEST DUP5 DUP4 LT ISZERO PUSH3 0xB35 JUMPI DUP3 CALLDATALOAD PUSH3 0xB25 DUP2 PUSH3 0x902 JUMP JUMPDEST DUP3 MSTORE SWAP2 DUP4 ADD SWAP2 SWAP1 DUP4 ADD SWAP1 PUSH3 0xB0F JUMP JUMPDEST SWAP8 SWAP7 POP POP POP POP POP POP POP JUMP JUMPDEST PUSH1 0x0 DUP1 PUSH1 0x0 DUP1 PUSH1 0x0 DUP1 PUSH1 0x0 DUP1 PUSH2 0x140 DUP10 DUP12 SUB SLT ISZERO PUSH3 0xB5E JUMPI PUSH1 0x0 DUP1 REVERT JUMPDEST DUP9 CALLDATALOAD PUSH8 0xFFFFFFFFFFFFFFFF DUP1 DUP3 GT ISZERO PUSH3 0xB77 JUMPI PUSH1 0x0 DUP1 REVERT JUMPDEST PUSH3 0xB85 DUP13 DUP4 DUP14 ADD PUSH3 0x99E JUMP JUMPDEST SWAP10 POP PUSH3 0xB95 PUSH1 0x20 DUP13 ADD PUSH3 0xA15 JUMP JUMPDEST SWAP9 POP PUSH1 0x40 DUP12 ADD CALLDATALOAD SWAP8 POP PUSH3 0xBAD DUP13 PUSH1 0x60 DUP14 ADD PUSH3 0xA26 JUMP JUMPDEST SWAP7 POP PUSH1 0xC0 DUP12 ADD CALLDATALOAD SWAP2 POP DUP1 DUP3 GT ISZERO PUSH3 0xBC4 JUMPI PUSH1 0x0 DUP1 REVERT JUMPDEST PUSH3 0xBD2 DUP13 DUP4 DUP14 ADD PUSH3 0xAAC JUMP JUMPDEST SWAP6 POP PUSH3 0xBE2 PUSH1 0xE0 DUP13 ADD PUSH3 0x91B JUMP JUMPDEST SWAP5 POP PUSH3 0xBF3 PUSH2 0x100 DUP13 ADD PUSH3 0x91B JUMP JUMPDEST SWAP4 POP PUSH2 0x120 DUP12 ADD CALLDATALOAD SWAP2 POP DUP1 DUP3 GT ISZERO PUSH3 0xC0B JUMPI PUSH1 0x0 DUP1 REVERT JUMPDEST POP PUSH3 0xC1A DUP12 DUP3 DUP13 ADD PUSH3 0x99E JUMP JUMPDEST SWAP2 POP POP SWAP3 SWAP6 SWAP9 POP SWAP3 SWAP6 SWAP9 SWAP1 SWAP4 SWAP7 POP JUMP JUMPDEST PUSH1 0x0 DUP2 MLOAD DUP1 DUP5 MSTORE PUSH1 0x20 DUP1 DUP6 ADD SWAP5 POP DUP1 DUP5 ADD PUSH1 0x0 JUMPDEST DUP4 DUP2 LT ISZERO PUSH3 0xC65 JUMPI DUP2 MLOAD PUSH1 0x1 PUSH1 0x1 PUSH1 0xA0 SHL SUB AND DUP8 MSTORE SWAP6 DUP3 ADD SWAP6 SWAP1 DUP3 ADD SWAP1 PUSH1 0x1 ADD PUSH3 0xC3E JUMP JUMPDEST POP SWAP5 SWAP6 SWAP5 POP POP POP POP POP JUMP JUMPDEST PUSH1 0x20 DUP2 MSTORE PUSH1 0x0 PUSH3 0x94D PUSH1 0x20 DUP4 ADD DUP5 PUSH3 0xC2A JUMP JUMPDEST PUSH1 0x0 PUSH1 0x20 DUP3 DUP5 SUB SLT ISZERO PUSH3 0xC98 JUMPI PUSH1 0x0 DUP1 REVERT JUMPDEST POP CALLDATALOAD SWAP2 SWAP1 POP JUMP JUMPDEST PUSH4 0x4E487B71 PUSH1 0xE0 SHL PUSH1 0x0 MSTORE PUSH1 0x32 PUSH1 0x4 MSTORE PUSH1 0x24 PUSH1 0x0 REVERT JUMPDEST PUSH1 0x0 DUP2 MLOAD DUP1 DUP5 MSTORE PUSH1 0x0 JUMPDEST DUP2 DUP2 LT ISZERO PUSH3 0xCDD JUMPI PUSH1 0x20 DUP2 DUP6 ADD DUP2 ADD MLOAD DUP7 DUP4 ADD DUP3 ADD MSTORE ADD PUSH3 0xCBF JUMP JUMPDEST DUP2 DUP2 GT ISZERO PUSH3 0xCF0 JUMPI PUSH1 0x0 PUSH1 0x20 DUP4 DUP8 ADD ADD MSTORE JUMPDEST POP PUSH1 0x1F ADD PUSH1 0x1F NOT AND SWAP3 SWAP1 SWAP3 ADD PUSH1 0x20 ADD SWAP3 SWAP2 POP POP JUMP JUMPDEST PUSH1 0x0 PUSH2 0x120 DUP1 DUP4 MSTORE PUSH3 0xD1B DUP2 DUP5 ADD DUP14 PUSH3 0xCB5 JUMP JUMPDEST DUP12 ISZERO ISZERO PUSH1 0x20 DUP6 ADD MSTORE PUSH1 0x40 DUP5 ADD DUP12 SWAP1 MSTORE PUSH1 0xFF DUP11 DUP2 AND PUSH1 0x60 DUP7 ADD MSTORE DUP10 DUP2 AND PUSH1 0x80 DUP7 ADD MSTORE DUP9 AND PUSH1 0xA0 DUP6 ADD MSTORE PUSH1 0x1 PUSH1 0x1 PUSH1 0xA0 SHL SUB DUP8 DUP2 AND PUSH1 0xC0 DUP7 ADD MSTORE DUP7 AND PUSH1 0xE0 DUP6 ADD MSTORE DUP4 DUP2 SUB PUSH2 0x100 DUP6 ADD MSTORE SWAP1 POP PUSH3 0xD71 DUP2 DUP6 PUSH3 0xCB5 JUMP JUMPDEST SWAP13 SWAP12 POP POP POP POP POP POP POP POP POP POP POP POP JUMP JUMPDEST PUSH1 0x0 PUSH1 0x20 DUP3 DUP5 SUB SLT ISZERO PUSH3 0xD94 JUMPI PUSH1 0x0 DUP1 REVERT JUMPDEST DUP2 MLOAD PUSH3 0x94D DUP2 PUSH3 0x902 JUMP JUMPDEST DUP1 PUSH1 0x0 JUMPDEST PUSH1 0x5 DUP2 LT ISZERO PUSH3 0xDCF JUMPI DUP2 MLOAD PUSH1 0x1 PUSH1 0x1 PUSH1 0xA0 SHL SUB AND DUP5 MSTORE PUSH1 0x20 SWAP4 DUP5 ADD SWAP4 SWAP1 SWAP2 ADD SWAP1 PUSH1 0x1 ADD PUSH3 0xDA5 JUMP JUMPDEST POP POP POP POP JUMP JUMPDEST PUSH1 0x1 PUSH1 0x1 PUSH1 0xA0 SHL SUB DUP9 AND DUP2 MSTORE PUSH2 0x1A0 PUSH1 0x20 DUP1 DUP4 ADD DUP3 SWAP1 MSTORE PUSH1 0x0 SWAP2 SWAP1 PUSH3 0xDFE DUP5 DUP4 ADD DUP12 PUSH3 0xCB5 JUMP JUMPDEST SWAP2 POP DUP9 ISZERO ISZERO PUSH1 0x40 DUP6 ADD MSTORE DUP8 PUSH1 0x60 DUP6 ADD MSTORE PUSH1 0x80 DUP5 ADD DUP8 PUSH1 0x0 JUMPDEST PUSH1 0x3 DUP2 LT ISZERO PUSH3 0xE38 JUMPI DUP2 MLOAD PUSH1 0xFF AND DUP4 MSTORE SWAP2 DUP4 ADD SWAP2 SWAP1 DUP4 ADD SWAP1 PUSH1 0x1 ADD PUSH3 0xE16 JUMP JUMPDEST POP POP POP POP PUSH3 0xE4B PUSH1 0xE0 DUP5 ADD DUP7 PUSH3 0xDA1 JUMP JUMPDEST DUP3 DUP2 SUB PUSH2 0x180 DUP5 ADD MSTORE PUSH3 0xE60 DUP2 DUP6 PUSH3 0xC2A JUMP JUMPDEST SWAP11 SWAP10 POP POP POP POP POP POP POP POP POP POP JUMP JUMPDEST PUSH1 0x0 PUSH1 0x0 NOT DUP3 EQ ISZERO PUSH3 0xE91 JUMPI PUSH4 0x4E487B71 PUSH1 0xE0 SHL PUSH1 0x0 MSTORE PUSH1 0x11 PUSH1 0x4 MSTORE PUSH1 0x24 PUSH1 0x0 REVERT JUMPDEST POP PUSH1 0x1 ADD SWAP1 JUMP JUMPDEST PUSH1 0x1 PUSH1 0x1 PUSH1 0xA0 SHL SUB DUP5 AND DUP2 MSTORE PUSH1 0x60 PUSH1 0x20 DUP3 ADD DUP2 SWAP1 MSTORE PUSH1 0x0 SWAP1 PUSH3 0xEBE SWAP1 DUP4 ADD DUP6 PUSH3 0xCB5 JUMP JUMPDEST SWAP1 POP DUP3 PUSH1 0x40 DUP4 ADD MSTORE SWAP5 SWAP4 POP POP POP POP JUMP JUMPDEST PUSH1 0x0 PUSH1 0x20 DUP3 DUP5 SUB SLT ISZERO PUSH3 0xEE1 JUMPI PUSH1 0x0 DUP1 REVERT JUMPDEST POP MLOAD SWAP2 SWAP1 POP JUMP INVALID PUSH1 0x80 PUSH1 0x40 MSTORE CALLVALUE DUP1 ISZERO PUSH3 0x11 JUMPI PUSH1 0x0 DUP1 REVERT JUMPDEST POP PUSH1 0x40 MLOAD PUSH3 0x24ED CODESIZE SUB DUP1 PUSH3 0x24ED DUP4 CODECOPY DUP2 ADD PUSH1 0x40 DUP2 SWAP1 MSTORE PUSH3 0x34 SWAP2 PUSH3 0x336 JUMP JUMPDEST PUSH1 0x0 DUP3 PUSH1 0x2 PUSH1 0x20 MUL ADD MLOAD PUSH1 0x1 PUSH1 0x1 PUSH1 0xA0 SHL SUB AND DUP9 DUP9 DUP9 DUP9 DUP9 DUP9 DUP9 PUSH1 0x40 MLOAD PUSH1 0x24 ADD PUSH3 0x66 SWAP8 SWAP7 SWAP6 SWAP5 SWAP4 SWAP3 SWAP2 SWAP1 PUSH3 0x4C9 JUMP JUMPDEST PUSH1 0x40 DUP1 MLOAD PUSH1 0x1F NOT DUP2 DUP5 SUB ADD DUP2 MSTORE SWAP2 DUP2 MSTORE PUSH1 0x20 DUP3 ADD DUP1 MLOAD PUSH1 0x1 PUSH1 0x1 PUSH1 0xE0 SHL SUB AND PUSH4 0x9F221D81 PUSH1 0xE0 SHL OR SWAP1 MSTORE MLOAD PUSH3 0x9D SWAP2 SWAP1 PUSH3 0x57E JUMP JUMPDEST PUSH1 0x0 PUSH1 0x40 MLOAD DUP1 DUP4 SUB DUP2 DUP6 GAS DELEGATECALL SWAP2 POP POP RETURNDATASIZE DUP1 PUSH1 0x0 DUP2 EQ PUSH3 0xDA JUMPI PUSH1 0x40 MLOAD SWAP2 POP PUSH1 0x1F NOT PUSH1 0x3F RETURNDATASIZE ADD AND DUP3 ADD PUSH1 0x40 MSTORE RETURNDATASIZE DUP3 MSTORE RETURNDATASIZE PUSH1 0x0 PUSH1 0x20 DUP5 ADD RETURNDATACOPY PUSH3 0xDF JUMP JUMPDEST PUSH1 0x60 SWAP2 POP JUMPDEST POP POP SWAP1 POP DUP1 PUSH3 0xF6 JUMPI PUSH1 0x40 MLOAD RETURNDATASIZE DUP1 PUSH1 0x0 DUP4 RETURNDATACOPY DUP1 DUP3 REVERT JUMPDEST POP POP POP POP POP POP POP POP PUSH3 0x59C JUMP JUMPDEST DUP1 MLOAD PUSH1 0x1 PUSH1 0x1 PUSH1 0xA0 SHL SUB DUP2 AND DUP2 EQ PUSH3 0x11C JUMPI PUSH1 0x0 DUP1 REVERT JUMPDEST SWAP2 SWAP1 POP JUMP JUMPDEST PUSH4 0x4E487B71 PUSH1 0xE0 SHL PUSH1 0x0 MSTORE PUSH1 0x41 PUSH1 0x4 MSTORE PUSH1 0x24 PUSH1 0x0 REVERT JUMPDEST PUSH1 0x40 MLOAD PUSH1 0x1F DUP3 ADD PUSH1 0x1F NOT AND DUP2 ADD PUSH1 0x1 PUSH1 0x1 PUSH1 0x40 SHL SUB DUP2 GT DUP3 DUP3 LT OR ISZERO PUSH3 0x162 JUMPI PUSH3 0x162 PUSH3 0x121 JUMP JUMPDEST PUSH1 0x40 MSTORE SWAP2 SWAP1 POP JUMP JUMPDEST PUSH1 0x0 JUMPDEST DUP4 DUP2 LT ISZERO PUSH3 0x187 JUMPI DUP2 DUP2 ADD MLOAD DUP4 DUP3 ADD MSTORE PUSH1 0x20 ADD PUSH3 0x16D JUMP JUMPDEST DUP4 DUP2 GT ISZERO PUSH3 0x197 JUMPI PUSH1 0x0 DUP5 DUP5 ADD MSTORE JUMPDEST POP POP POP POP JUMP JUMPDEST DUP1 MLOAD DUP1 ISZERO ISZERO DUP2 EQ PUSH3 0x11C JUMPI PUSH1 0x0 DUP1 REVERT JUMPDEST PUSH1 0x0 DUP3 PUSH1 0x1F DUP4 ADD SLT PUSH3 0x1C0 JUMPI PUSH1 0x0 DUP1 REVERT JUMPDEST PUSH1 0x40 MLOAD PUSH1 0x60 DUP2 ADD PUSH1 0x1 PUSH1 0x1 PUSH1 0x40 SHL SUB DUP2 GT DUP3 DUP3 LT OR ISZERO PUSH3 0x1E5 JUMPI PUSH3 0x1E5 PUSH3 0x121 JUMP JUMPDEST PUSH1 0x40 MSTORE DUP1 PUSH1 0x60 DUP5 ADD DUP6 DUP2 GT ISZERO PUSH3 0x1FB JUMPI PUSH1 0x0 DUP1 REVERT JUMPDEST DUP5 JUMPDEST DUP2 DUP2 LT ISZERO PUSH3 0x228 JUMPI DUP1 MLOAD PUSH1 0xFF DUP2 AND DUP2 EQ PUSH3 0x219 JUMPI PUSH1 0x0 DUP1 DUP2 REVERT JUMPDEST DUP4 MSTORE PUSH1 0x20 SWAP3 DUP4 ADD SWAP3 ADD PUSH3 0x1FD JUMP JUMPDEST POP SWAP2 SWAP6 SWAP5 POP POP POP POP POP JUMP JUMPDEST PUSH1 0x0 DUP3 PUSH1 0x1F DUP4 ADD SLT PUSH3 0x245 JUMPI PUSH1 0x0 DUP1 REVERT JUMPDEST PUSH1 0x40 MLOAD PUSH1 0xA0 DUP2 ADD PUSH1 0x1 PUSH1 0x1 PUSH1 0x40 SHL SUB DUP2 GT DUP3 DUP3 LT OR ISZERO PUSH3 0x26A JUMPI PUSH3 0x26A PUSH3 0x121 JUMP JUMPDEST PUSH1 0x40 MSTORE DUP1 PUSH1 0xA0 DUP5 ADD DUP6 DUP2 GT ISZERO PUSH3 0x280 JUMPI PUSH1 0x0 DUP1 REVERT JUMPDEST DUP5 JUMPDEST DUP2 DUP2 LT ISZERO PUSH3 0x228 JUMPI PUSH3 0x296 DUP2 PUSH3 0x104 JUMP JUMPDEST DUP4 MSTORE PUSH1 0x20 SWAP3 DUP4 ADD SWAP3 ADD PUSH3 0x282 JUMP JUMPDEST PUSH1 0x0 DUP3 PUSH1 0x1F DUP4 ADD SLT PUSH3 0x2B7 JUMPI PUSH1 0x0 DUP1 REVERT JUMPDEST DUP2 MLOAD PUSH1 0x20 PUSH1 0x1 PUSH1 0x1 PUSH1 0x40 SHL SUB DUP3 GT ISZERO PUSH3 0x2D5 JUMPI PUSH3 0x2D5 PUSH3 0x121 JUMP JUMPDEST DUP2 PUSH1 0x5 SHL PUSH3 0x2E6 DUP3 DUP3 ADD PUSH3 0x137 JUMP JUMPDEST SWAP3 DUP4 MSTORE DUP5 DUP2 ADD DUP3 ADD SWAP3 DUP3 DUP2 ADD SWAP1 DUP8 DUP6 GT ISZERO PUSH3 0x301 JUMPI PUSH1 0x0 DUP1 REVERT JUMPDEST DUP4 DUP8 ADD SWAP3 POP JUMPDEST DUP5 DUP4 LT ISZERO PUSH3 0x32B JUMPI PUSH3 0x31B DUP4 PUSH3 0x104 JUMP JUMPDEST DUP3 MSTORE SWAP2 DUP4 ADD SWAP2 SWAP1 DUP4 ADD SWAP1 PUSH3 0x307 JUMP JUMPDEST SWAP8 SWAP7 POP POP POP POP POP POP POP JUMP JUMPDEST PUSH1 0x0 DUP1 PUSH1 0x0 DUP1 PUSH1 0x0 DUP1 PUSH1 0x0 PUSH2 0x1A0 DUP9 DUP11 SUB SLT ISZERO PUSH3 0x353 JUMPI PUSH1 0x0 DUP1 REVERT JUMPDEST PUSH3 0x35E DUP9 PUSH3 0x104 JUMP JUMPDEST PUSH1 0x20 DUP10 ADD MLOAD SWAP1 SWAP8 POP PUSH1 0x1 PUSH1 0x1 PUSH1 0x40 SHL SUB DUP1 DUP3 GT ISZERO PUSH3 0x37C JUMPI PUSH1 0x0 DUP1 REVERT JUMPDEST DUP2 DUP11 ADD SWAP2 POP DUP11 PUSH1 0x1F DUP4 ADD SLT PUSH3 0x391 JUMPI PUSH1 0x0 DUP1 REVERT JUMPDEST DUP2 MLOAD DUP2 DUP2 GT ISZERO PUSH3 0x3A6 JUMPI PUSH3 0x3A6 PUSH3 0x121 JUMP JUMPDEST PUSH3 0x3BB PUSH1 0x1F DUP3 ADD PUSH1 0x1F NOT AND PUSH1 0x20 ADD PUSH3 0x137 JUMP JUMPDEST DUP2 DUP2 MSTORE DUP13 PUSH1 0x20 DUP4 DUP7 ADD ADD GT ISZERO PUSH3 0x3D1 JUMPI PUSH1 0x0 DUP1 REVERT JUMPDEST PUSH3 0x3E4 DUP3 PUSH1 0x20 DUP4 ADD PUSH1 0x20 DUP8 ADD PUSH3 0x16A JUMP JUMPDEST SWAP9 POP PUSH3 0x3F6 SWAP1 POP PUSH1 0x40 DUP12 ADD PUSH3 0x19D JUMP JUMPDEST SWAP7 POP PUSH1 0x60 DUP11 ADD MLOAD SWAP6 POP PUSH3 0x40E DUP12 PUSH1 0x80 DUP13 ADD PUSH3 0x1AE JUMP JUMPDEST SWAP5 POP PUSH3 0x41F DUP12 PUSH1 0xE0 DUP13 ADD PUSH3 0x233 JUMP JUMPDEST SWAP4 POP PUSH2 0x180 DUP11 ADD MLOAD SWAP2 POP DUP1 DUP3 GT ISZERO PUSH3 0x437 JUMPI PUSH1 0x0 DUP1 REVERT JUMPDEST POP PUSH3 0x446 DUP11 DUP3 DUP12 ADD PUSH3 0x2A5 JUMP JUMPDEST SWAP2 POP POP SWAP3 SWAP6 SWAP9 SWAP2 SWAP5 SWAP8 POP SWAP3 SWAP6 POP JUMP JUMPDEST DUP1 PUSH1 0x0 JUMPDEST PUSH1 0x5 DUP2 LT ISZERO PUSH3 0x197 JUMPI DUP2 MLOAD PUSH1 0x1 PUSH1 0x1 PUSH1 0xA0 SHL SUB AND DUP5 MSTORE PUSH1 0x20 SWAP4 DUP5 ADD SWAP4 SWAP1 SWAP2 ADD SWAP1 PUSH1 0x1 ADD PUSH3 0x459 JUMP JUMPDEST PUSH1 0x0 DUP2 MLOAD DUP1 DUP5 MSTORE PUSH1 0x20 DUP1 DUP6 ADD SWAP5 POP DUP1 DUP5 ADD PUSH1 0x0 JUMPDEST DUP4 DUP2 LT ISZERO PUSH3 0x4BE JUMPI DUP2 MLOAD PUSH1 0x1 PUSH1 0x1 PUSH1 0xA0 SHL SUB AND DUP8 MSTORE SWAP6 DUP3 ADD SWAP6 SWAP1 DUP3 ADD SWAP1 PUSH1 0x1 ADD PUSH3 0x497 JUMP JUMPDEST POP SWAP5 SWAP6 SWAP5 POP POP POP POP POP JUMP JUMPDEST PUSH1 0x1 PUSH1 0x1 PUSH1 0xA0 SHL SUB DUP9 AND DUP2 MSTORE PUSH2 0x1A0 PUSH1 0x20 DUP1 DUP4 ADD DUP3 SWAP1 MSTORE DUP9 MLOAD SWAP2 DUP4 ADD DUP3 SWAP1 MSTORE PUSH1 0x0 SWAP2 PUSH2 0x1C0 SWAP2 SWAP1 PUSH3 0x501 DUP2 DUP5 DUP8 ADD DUP14 DUP6 ADD PUSH3 0x16A JUMP JUMPDEST DUP10 ISZERO ISZERO PUSH1 0x40 DUP7 ADD MSTORE PUSH1 0x60 DUP6 ADD DUP10 SWAP1 MSTORE PUSH1 0x1F ADD PUSH1 0x1F NOT AND DUP5 ADD PUSH1 0x80 DUP6 ADD DUP9 PUSH1 0x0 JUMPDEST PUSH1 0x3 DUP2 LT ISZERO PUSH3 0x543 JUMPI DUP2 MLOAD PUSH1 0xFF AND DUP4 MSTORE SWAP2 DUP5 ADD SWAP2 SWAP1 DUP5 ADD SWAP1 PUSH1 0x1 ADD PUSH3 0x521 JUMP JUMPDEST POP POP POP PUSH3 0x555 PUSH1 0xE0 DUP7 ADD DUP9 PUSH3 0x455 JUMP JUMPDEST DUP3 DUP6 DUP3 SUB ADD PUSH2 0x180 DUP7 ADD MSTORE PUSH3 0x56E DUP4 DUP3 ADD DUP8 PUSH3 0x483 JUMP JUMPDEST SWAP13 SWAP12 POP POP POP POP POP POP POP POP POP POP POP POP JUMP JUMPDEST PUSH1 0x0 DUP3 MLOAD PUSH3 0x592 DUP2 DUP5 PUSH1 0x20 DUP8 ADD PUSH3 0x16A JUMP JUMPDEST SWAP2 SWAP1 SWAP2 ADD SWAP3 SWAP2 POP POP JUMP JUMPDEST PUSH2 0x1F41 DUP1 PUSH3 0x5AC PUSH1 0x0 CODECOPY PUSH1 0x0 RETURN INVALID PUSH1 0x80 PUSH1 0x40 MSTORE CALLVALUE DUP1 ISZERO PUSH2 0x10 JUMPI PUSH1 0x0 DUP1 REVERT JUMPDEST POP PUSH1 0x4 CALLDATASIZE LT PUSH2 0x21C JUMPI PUSH1 0x0 CALLDATALOAD PUSH1 0xE0 SHR DUP1 PUSH4 0x70FF918C GT PUSH2 0x125 JUMPI DUP1 PUSH4 0xBAA4D5E9 GT PUSH2 0xAD JUMPI DUP1 PUSH4 0xCB85669C GT PUSH2 0x7C JUMPI DUP1 PUSH4 0xCB85669C EQ PUSH2 0x533 JUMPI DUP1 PUSH4 0xDE5AB14E EQ PUSH2 0x55B JUMPI DUP1 PUSH4 0xE68777D7 EQ PUSH2 0x56E JUMPI DUP1 PUSH4 0xE810A58E EQ PUSH2 0x580 JUMPI DUP1 PUSH4 0xF00D6274 EQ PUSH2 0x595 JUMPI PUSH1 0x0 DUP1 REVERT JUMPDEST DUP1 PUSH4 0xBAA4D5E9 EQ PUSH2 0x495 JUMPI DUP1 PUSH4 0xC2B3AA08 EQ PUSH2 0x4DB JUMPI DUP1 PUSH4 0xC347D2FD EQ PUSH2 0x4FE JUMPI DUP1 PUSH4 0xCADA7F19 EQ PUSH2 0x520 JUMPI PUSH1 0x0 DUP1 REVERT JUMPDEST DUP1 PUSH4 0x96A3DD84 GT PUSH2 0xF4 JUMPI DUP1 PUSH4 0x96A3DD84 EQ PUSH2 0x430 JUMPI DUP1 PUSH4 0x9C630A88 EQ PUSH2 0x452 JUMPI DUP1 PUSH4 0xA19A5F50 EQ PUSH2 0x465 JUMPI DUP1 PUSH4 0xA693649A EQ PUSH2 0x478 JUMPI DUP1 PUSH4 0xB4C62192 EQ PUSH2 0x480 JUMPI PUSH1 0x0 DUP1 REVERT JUMPDEST DUP1 PUSH4 0x70FF918C EQ PUSH2 0x3D5 JUMPI DUP1 PUSH4 0x7C638548 EQ PUSH2 0x3F5 JUMPI DUP1 PUSH4 0x81CF22D8 EQ PUSH2 0x408 JUMPI DUP1 PUSH4 0x9360BFAD EQ PUSH2 0x41D JUMPI PUSH1 0x0 DUP1 REVERT JUMPDEST DUP1 PUSH4 0x2A57EF84 GT PUSH2 0x1A8 JUMPI DUP1 PUSH4 0x59CA2D03 GT PUSH2 0x177 JUMPI DUP1 PUSH4 0x59CA2D03 EQ PUSH2 0x364 JUMPI DUP1 PUSH4 0x5AADD414 EQ PUSH2 0x379 JUMPI DUP1 PUSH4 0x5F3D99B3 EQ PUSH2 0x38E JUMPI DUP1 PUSH4 0x6C2F34E7 EQ PUSH2 0x3AF JUMPI DUP1 PUSH4 0x70ACB761 EQ PUSH2 0x3C2 JUMPI PUSH1 0x0 DUP1 REVERT JUMPDEST DUP1 PUSH4 0x2A57EF84 EQ PUSH2 0x30B JUMPI DUP1 PUSH4 0x31A0AFA7 EQ PUSH2 0x31E JUMPI DUP1 PUSH4 0x3A70693D EQ PUSH2 0x331 JUMPI DUP1 PUSH4 0x50F7308A EQ PUSH2 0x344 JUMPI PUSH1 0x0 DUP1 REVERT JUMPDEST DUP1 PUSH4 0x19A50F49 GT PUSH2 0x1EF JUMPI DUP1 PUSH4 0x19A50F49 EQ PUSH2 0x2AB JUMPI DUP1 PUSH4 0x1D5FD3CA EQ PUSH2 0x2B8 JUMPI DUP1 PUSH4 0x1F50DD27 EQ PUSH2 0x2C1 JUMPI DUP1 PUSH4 0x2266E1BC EQ PUSH2 0x2D4 JUMPI DUP1 PUSH4 0x22B4081C EQ PUSH2 0x2E7 JUMPI PUSH1 0x0 DUP1 REVERT JUMPDEST DUP1 PUSH4 0x4F17A9B EQ PUSH2 0x221 JUMPI DUP1 PUSH4 0x52F9B0A EQ PUSH2 0x247 JUMPI DUP1 PUSH4 0x1343E9A5 EQ PUSH2 0x272 JUMPI DUP1 PUSH4 0x152DE3B9 EQ PUSH2 0x298 JUMPI JUMPDEST PUSH1 0x0 DUP1 REVERT JUMPDEST PUSH2 0x234 PUSH2 0x22F CALLDATASIZE PUSH1 0x4 PUSH2 0x151A JUMP JUMPDEST PUSH2 0x5AB JUMP JUMPDEST PUSH1 0x40 MLOAD SWAP1 DUP2 MSTORE PUSH1 0x20 ADD JUMPDEST PUSH1 0x40 MLOAD DUP1 SWAP2 SUB SWAP1 RETURN JUMPDEST PUSH1 0x8 SLOAD PUSH2 0x25A SWAP1 PUSH1 0x1 PUSH1 0x1 PUSH1 0xA0 SHL SUB AND DUP2 JUMP JUMPDEST PUSH1 0x40 MLOAD PUSH1 0x1 PUSH1 0x1 PUSH1 0xA0 SHL SUB SWAP1 SWAP2 AND DUP2 MSTORE PUSH1 0x20 ADD PUSH2 0x23E JUMP JUMPDEST PUSH1 0x1 SLOAD PUSH2 0x286 SWAP1 PUSH4 0x1000000 SWAP1 DIV PUSH1 0xFF AND DUP2 JUMP JUMPDEST PUSH1 0x40 MLOAD PUSH1 0xFF SWAP1 SWAP2 AND DUP2 MSTORE PUSH1 0x20 ADD PUSH2 0x23E JUMP JUMPDEST PUSH2 0x234 PUSH2 0x2A6 CALLDATASIZE PUSH1 0x4 PUSH2 0x1579 JUMP JUMPDEST PUSH2 0x665 JUMP JUMPDEST PUSH1 0x1 SLOAD PUSH2 0x286 SWAP1 PUSH1 0xFF AND DUP2 JUMP JUMPDEST PUSH2 0x234 PUSH1 0x5 SLOAD DUP2 JUMP JUMPDEST PUSH1 0x9 SLOAD PUSH2 0x25A SWAP1 PUSH1 0x1 PUSH1 0x1 PUSH1 0xA0 SHL SUB AND DUP2 JUMP JUMPDEST PUSH2 0x234 PUSH2 0x2E2 CALLDATASIZE PUSH1 0x4 PUSH2 0x151A JUMP JUMPDEST PUSH2 0x6C7 JUMP JUMPDEST PUSH2 0x2FA PUSH2 0x2F5 CALLDATASIZE PUSH1 0x4 PUSH2 0x15E9 JUMP JUMPDEST PUSH2 0x727 JUMP JUMPDEST PUSH1 0x40 MLOAD PUSH2 0x23E SWAP6 SWAP5 SWAP4 SWAP3 SWAP2 SWAP1 PUSH2 0x165E JUMP JUMPDEST PUSH2 0x234 PUSH2 0x319 CALLDATASIZE PUSH1 0x4 PUSH2 0x16A1 JUMP JUMPDEST PUSH2 0x802 JUMP JUMPDEST PUSH2 0x234 PUSH2 0x32C CALLDATASIZE PUSH1 0x4 PUSH2 0x172F JUMP JUMPDEST PUSH2 0x8C4 JUMP JUMPDEST PUSH2 0x286 PUSH2 0x33F CALLDATASIZE PUSH1 0x4 PUSH2 0x15E9 JUMP JUMPDEST PUSH2 0x98C JUMP JUMPDEST PUSH2 0x234 PUSH2 0x352 CALLDATASIZE PUSH1 0x4 PUSH2 0x17E1 JUMP JUMPDEST PUSH1 0xA PUSH1 0x20 MSTORE PUSH1 0x0 SWAP1 DUP2 MSTORE PUSH1 0x40 SWAP1 KECCAK256 SLOAD DUP2 JUMP JUMPDEST PUSH2 0x36C PUSH2 0x9B0 JUMP JUMPDEST PUSH1 0x40 MLOAD PUSH2 0x23E SWAP2 SWAP1 PUSH2 0x1803 JUMP JUMPDEST PUSH2 0x381 PUSH2 0xA3E JUMP JUMPDEST PUSH1 0x40 MLOAD PUSH2 0x23E SWAP2 SWAP1 PUSH2 0x1816 JUMP JUMPDEST PUSH2 0x3A1 PUSH2 0x39C CALLDATASIZE PUSH1 0x4 PUSH2 0x15E9 JUMP JUMPDEST PUSH2 0xB57 JUMP JUMPDEST PUSH1 0x40 MLOAD PUSH2 0x23E SWAP3 SWAP2 SWAP1 PUSH2 0x18A4 JUMP JUMPDEST PUSH1 0x6 SLOAD PUSH2 0x25A SWAP1 PUSH1 0x1 PUSH1 0x1 PUSH1 0xA0 SHL SUB AND DUP2 JUMP JUMPDEST PUSH2 0x234 PUSH2 0x3D0 CALLDATASIZE PUSH1 0x4 PUSH2 0x18C7 JUMP JUMPDEST PUSH2 0xC46 JUMP JUMPDEST PUSH2 0x234 PUSH2 0x3E3 CALLDATASIZE PUSH1 0x4 PUSH2 0x17E1 JUMP JUMPDEST PUSH1 0xB PUSH1 0x20 MSTORE PUSH1 0x0 SWAP1 DUP2 MSTORE PUSH1 0x40 SWAP1 KECCAK256 SLOAD DUP2 JUMP JUMPDEST PUSH2 0x234 PUSH2 0x403 CALLDATASIZE PUSH1 0x4 PUSH2 0x151A JUMP JUMPDEST PUSH2 0xD05 JUMP JUMPDEST PUSH2 0x41B PUSH2 0x416 CALLDATASIZE PUSH1 0x4 PUSH2 0x1926 JUMP JUMPDEST PUSH2 0xD65 JUMP JUMPDEST STOP JUMPDEST PUSH1 0x7 SLOAD PUSH2 0x25A SWAP1 PUSH1 0x1 PUSH1 0x1 PUSH1 0xA0 SHL SUB AND DUP2 JUMP JUMPDEST PUSH2 0x443 PUSH2 0x43E CALLDATASIZE PUSH1 0x4 PUSH2 0x15E9 JUMP JUMPDEST PUSH2 0xE22 JUMP JUMPDEST PUSH1 0x40 MLOAD PUSH2 0x23E SWAP4 SWAP3 SWAP2 SWAP1 PUSH2 0x1974 JUMP JUMPDEST PUSH1 0x1 SLOAD PUSH2 0x286 SWAP1 PUSH3 0x10000 SWAP1 DIV PUSH1 0xFF AND DUP2 JUMP JUMPDEST PUSH2 0x234 PUSH2 0x473 CALLDATASIZE PUSH1 0x4 PUSH2 0x19AA JUMP JUMPDEST PUSH2 0xEED JUMP JUMPDEST PUSH1 0x11 SLOAD PUSH2 0x234 JUMP JUMPDEST PUSH2 0x488 PUSH2 0xF4B JUMP JUMPDEST PUSH1 0x40 MLOAD PUSH2 0x23E SWAP2 SWAP1 PUSH2 0x1A6A JUMP JUMPDEST PUSH2 0x4A8 PUSH2 0x4A3 CALLDATASIZE PUSH1 0x4 PUSH2 0x15E9 JUMP JUMPDEST PUSH2 0x10D0 JUMP JUMPDEST PUSH1 0x40 DUP1 MLOAD PUSH1 0x1 PUSH1 0x1 PUSH1 0xA0 SHL SUB SWAP6 DUP7 AND DUP2 MSTORE PUSH1 0x20 DUP2 ADD SWAP5 SWAP1 SWAP5 MSTORE SWAP2 DUP5 AND SWAP2 DUP4 ADD SWAP2 SWAP1 SWAP2 MSTORE SWAP1 SWAP2 AND PUSH1 0x60 DUP3 ADD MSTORE PUSH1 0x80 ADD PUSH2 0x23E JUMP JUMPDEST PUSH2 0x4EE PUSH2 0x4E9 CALLDATASIZE PUSH1 0x4 PUSH2 0x1B3F JUMP JUMPDEST PUSH2 0x1118 JUMP JUMPDEST PUSH1 0x40 MLOAD SWAP1 ISZERO ISZERO DUP2 MSTORE PUSH1 0x20 ADD PUSH2 0x23E JUMP JUMPDEST PUSH2 0x511 PUSH2 0x50C CALLDATASIZE PUSH1 0x4 PUSH2 0x1BA4 JUMP JUMPDEST PUSH2 0x11DA JUMP JUMPDEST PUSH1 0x40 MLOAD PUSH2 0x23E SWAP4 SWAP3 SWAP2 SWAP1 PUSH2 0x1BD0 JUMP JUMPDEST PUSH1 0x4 SLOAD PUSH2 0x25A SWAP1 PUSH1 0x1 PUSH1 0x1 PUSH1 0xA0 SHL SUB AND DUP2 JUMP JUMPDEST PUSH2 0x546 PUSH2 0x541 CALLDATASIZE PUSH1 0x4 PUSH2 0x15E9 JUMP JUMPDEST PUSH2 0x1297 JUMP JUMPDEST PUSH1 0x40 MLOAD PUSH2 0x23E SWAP10 SWAP9 SWAP8 SWAP7 SWAP6 SWAP5 SWAP4 SWAP3 SWAP2 SWAP1 PUSH2 0x1BFC JUMP JUMPDEST PUSH2 0x234 PUSH2 0x569 CALLDATASIZE PUSH1 0x4 PUSH2 0x1C64 JUMP JUMPDEST PUSH2 0x1396 JUMP JUMPDEST PUSH1 0x1 SLOAD PUSH2 0x286 SWAP1 PUSH2 0x100 SWAP1 DIV PUSH1 0xFF AND DUP2 JUMP JUMPDEST PUSH1 0x1 SLOAD PUSH2 0x286 SWAP1 PUSH5 0x100000000 SWAP1 DIV PUSH1 0xFF AND DUP2 JUMP JUMPDEST PUSH1 0x1 SLOAD PUSH2 0x4EE SWAP1 PUSH6 0x10000000000 SWAP1 DIV PUSH1 0xFF AND DUP2 JUMP JUMPDEST PUSH1 0x2 SLOAD PUSH1 0x40 MLOAD PUSH1 0x0 SWAP2 DUP3 SWAP2 PUSH1 0x1 PUSH1 0x1 PUSH1 0xA0 SHL SUB SWAP1 SWAP2 AND SWAP1 PUSH2 0x5D6 SWAP1 DUP9 SWAP1 DUP9 SWAP1 DUP9 SWAP1 DUP9 SWAP1 PUSH1 0x24 ADD PUSH2 0x1CB6 JUMP JUMPDEST PUSH1 0x40 DUP1 MLOAD PUSH1 0x1F NOT DUP2 DUP5 SUB ADD DUP2 MSTORE SWAP2 DUP2 MSTORE PUSH1 0x20 DUP3 ADD DUP1 MLOAD PUSH1 0x1 PUSH1 0x1 PUSH1 0xE0 SHL SUB AND PUSH4 0x4F17A9B PUSH1 0xE0 SHL OR SWAP1 MSTORE MLOAD PUSH2 0x60B SWAP2 SWAP1 PUSH2 0x1CEE JUMP JUMPDEST PUSH1 0x0 PUSH1 0x40 MLOAD DUP1 DUP4 SUB DUP2 DUP6 GAS DELEGATECALL SWAP2 POP POP RETURNDATASIZE DUP1 PUSH1 0x0 DUP2 EQ PUSH2 0x646 JUMPI PUSH1 0x40 MLOAD SWAP2 POP PUSH1 0x1F NOT PUSH1 0x3F RETURNDATASIZE ADD AND DUP3 ADD PUSH1 0x40 MSTORE RETURNDATASIZE DUP3 MSTORE RETURNDATASIZE PUSH1 0x0 PUSH1 0x20 DUP5 ADD RETURNDATACOPY PUSH2 0x64B JUMP JUMPDEST PUSH1 0x60 SWAP2 POP JUMPDEST POP POP SWAP1 POP PUSH1 0x40 MLOAD RETURNDATASIZE DUP1 PUSH1 0x0 DUP4 RETURNDATACOPY DUP3 PUSH2 0x661 JUMPI DUP1 DUP3 REVERT JUMPDEST DUP1 DUP3 RETURN JUMPDEST PUSH1 0x2 SLOAD PUSH1 0x40 MLOAD PUSH1 0x0 SWAP2 DUP3 SWAP2 PUSH1 0x1 PUSH1 0x1 PUSH1 0xA0 SHL SUB SWAP1 SWAP2 AND SWAP1 PUSH2 0x692 SWAP1 DUP10 SWAP1 DUP10 SWAP1 DUP10 SWAP1 DUP10 SWAP1 DUP10 SWAP1 PUSH1 0x24 ADD PUSH2 0x1D0A JUMP JUMPDEST PUSH1 0x40 DUP1 MLOAD PUSH1 0x1F NOT DUP2 DUP5 SUB ADD DUP2 MSTORE SWAP2 DUP2 MSTORE PUSH1 0x20 DUP3 ADD DUP1 MLOAD PUSH1 0x1 PUSH1 0x1 PUSH1 0xE0 SHL SUB AND PUSH4 0x152DE3B9 PUSH1 0xE0 SHL OR SWAP1 MSTORE MLOAD PUSH2 0x60B SWAP2 SWAP1 PUSH2 0x1CEE JUMP JUMPDEST PUSH1 0x2 SLOAD PUSH1 0x40 MLOAD PUSH1 0x0 SWAP2 DUP3 SWAP2 PUSH1 0x1 PUSH1 0x1 PUSH1 0xA0 SHL SUB SWAP1 SWAP2 AND SWAP1 PUSH2 0x6F2 SWAP1 DUP9 SWAP1 DUP9 SWAP1 DUP9 SWAP1 DUP9 SWAP1 PUSH1 0x24 ADD PUSH2 0x1CB6 JUMP JUMPDEST PUSH1 0x40 DUP1 MLOAD PUSH1 0x1F NOT DUP2 DUP5 SUB ADD DUP2 MSTORE SWAP2 DUP2 MSTORE PUSH1 0x20 DUP3 ADD DUP1 MLOAD PUSH1 0x1 PUSH1 0x1 PUSH1 0xE0 SHL SUB AND PUSH4 0x899B86F PUSH1 0xE2 SHL OR SWAP1 MSTORE MLOAD PUSH2 0x60B SWAP2 SWAP1 PUSH2 0x1CEE JUMP JUMPDEST PUSH1 0x11 DUP2 DUP2 SLOAD DUP2 LT PUSH2 0x737 JUMPI PUSH1 0x0 DUP1 REVERT JUMPDEST PUSH1 0x0 SWAP2 DUP3 MSTORE PUSH1 0x20 SWAP1 SWAP2 KECCAK256 PUSH1 0x4 SWAP1 SWAP2 MUL ADD DUP1 SLOAD PUSH1 0x1 DUP3 ADD DUP1 SLOAD PUSH1 0x1 PUSH1 0x1 PUSH1 0xA0 SHL SUB SWAP1 SWAP3 AND SWAP4 POP SWAP1 PUSH2 0x766 SWAP1 PUSH2 0x1D4F JUMP JUMPDEST DUP1 PUSH1 0x1F ADD PUSH1 0x20 DUP1 SWAP2 DIV MUL PUSH1 0x20 ADD PUSH1 0x40 MLOAD SWAP1 DUP2 ADD PUSH1 0x40 MSTORE DUP1 SWAP3 SWAP2 SWAP1 DUP2 DUP2 MSTORE PUSH1 0x20 ADD DUP3 DUP1 SLOAD PUSH2 0x792 SWAP1 PUSH2 0x1D4F JUMP JUMPDEST DUP1 ISZERO PUSH2 0x7DF JUMPI DUP1 PUSH1 0x1F LT PUSH2 0x7B4 JUMPI PUSH2 0x100 DUP1 DUP4 SLOAD DIV MUL DUP4 MSTORE SWAP2 PUSH1 0x20 ADD SWAP2 PUSH2 0x7DF JUMP JUMPDEST DUP3 ADD SWAP2 SWAP1 PUSH1 0x0 MSTORE PUSH1 0x20 PUSH1 0x0 KECCAK256 SWAP1 JUMPDEST DUP2 SLOAD DUP2 MSTORE SWAP1 PUSH1 0x1 ADD SWAP1 PUSH1 0x20 ADD DUP1 DUP4 GT PUSH2 0x7C2 JUMPI DUP3 SWAP1 SUB PUSH1 0x1F AND DUP3 ADD SWAP2 JUMPDEST POP POP POP POP PUSH1 0x2 DUP4 ADD SLOAD PUSH1 0x3 SWAP1 SWAP4 ADD SLOAD SWAP2 SWAP3 SWAP2 PUSH1 0xFF DUP1 DUP3 AND SWAP3 POP PUSH2 0x100 SWAP1 SWAP2 DIV AND DUP6 JUMP JUMPDEST PUSH1 0x2 SLOAD PUSH1 0x40 MLOAD PUSH1 0x0 SWAP2 DUP3 SWAP2 PUSH1 0x1 PUSH1 0x1 PUSH1 0xA0 SHL SUB SWAP1 SWAP2 AND SWAP1 PUSH2 0x82D SWAP1 DUP9 SWAP1 DUP9 SWAP1 DUP9 SWAP1 DUP9 SWAP1 PUSH1 0x24 ADD PUSH2 0x1D8A JUMP JUMPDEST PUSH1 0x40 DUP1 MLOAD PUSH1 0x1F NOT DUP2 DUP5 SUB ADD DUP2 MSTORE SWAP2 DUP2 MSTORE PUSH1 0x20 DUP3 ADD DUP1 MLOAD PUSH1 0x1 PUSH1 0x1 PUSH1 0xE0 SHL SUB AND PUSH4 0xA95FBE1 PUSH1 0xE2 SHL OR SWAP1 MSTORE MLOAD PUSH2 0x862 SWAP2 SWAP1 PUSH2 0x1CEE JUMP JUMPDEST PUSH1 0x0 PUSH1 0x40 MLOAD DUP1 DUP4 SUB DUP2 DUP6 GAS DELEGATECALL SWAP2 POP POP RETURNDATASIZE DUP1 PUSH1 0x0 DUP2 EQ PUSH2 0x89D JUMPI PUSH1 0x40 MLOAD SWAP2 POP PUSH1 0x1F NOT PUSH1 0x3F RETURNDATASIZE ADD AND DUP3 ADD PUSH1 0x40 MSTORE RETURNDATASIZE DUP3 MSTORE RETURNDATASIZE PUSH1 0x0 PUSH1 0x20 DUP5 ADD RETURNDATACOPY PUSH2 0x8A2 JUMP JUMPDEST PUSH1 0x60 SWAP2 POP JUMPDEST POP POP SWAP1 POP PUSH1 0x40 MLOAD RETURNDATASIZE DUP1 PUSH1 0x0 DUP4 RETURNDATACOPY DUP3 PUSH2 0x8B8 JUMPI DUP1 DUP3 REVERT JUMPDEST POP MLOAD SWAP7 SWAP6 POP POP POP POP POP POP JUMP JUMPDEST PUSH1 0x2 SLOAD PUSH1 0x40 MLOAD PUSH1 0x0 SWAP2 DUP3 SWAP2 PUSH1 0x1 PUSH1 0x1 PUSH1 0xA0 SHL SUB SWAP1 SWAP2 AND SWAP1 PUSH2 0x8F3 SWAP1 DUP11 SWAP1 DUP11 SWAP1 DUP11 SWAP1 DUP11 SWAP1 DUP11 SWAP1 DUP11 SWAP1 PUSH1 0x24 ADD PUSH2 0x1DD1 JUMP JUMPDEST PUSH1 0x40 DUP1 MLOAD PUSH1 0x1F NOT DUP2 DUP5 SUB ADD DUP2 MSTORE SWAP2 DUP2 MSTORE PUSH1 0x20 DUP3 ADD DUP1 MLOAD PUSH1 0x1 PUSH1 0x1 PUSH1 0xE0 SHL SUB AND PUSH4 0x31A0AFA7 PUSH1 0xE0 SHL OR SWAP1 MSTORE MLOAD PUSH2 0x928 SWAP2 SWAP1 PUSH2 0x1CEE JUMP JUMPDEST PUSH1 0x0 PUSH1 0x40 MLOAD DUP1 DUP4 SUB DUP2 DUP6 GAS DELEGATECALL SWAP2 POP POP RETURNDATASIZE DUP1 PUSH1 0x0 DUP2 EQ PUSH2 0x963 JUMPI PUSH1 0x40 MLOAD SWAP2 POP PUSH1 0x1F NOT PUSH1 0x3F RETURNDATASIZE ADD AND DUP3 ADD PUSH1 0x40 MSTORE RETURNDATASIZE DUP3 MSTORE RETURNDATASIZE PUSH1 0x0 PUSH1 0x20 DUP5 ADD RETURNDATACOPY PUSH2 0x968 JUMP JUMPDEST PUSH1 0x60 SWAP2 POP JUMPDEST POP POP SWAP1 POP PUSH1 0x40 MLOAD RETURNDATASIZE DUP1 PUSH1 0x0 DUP4 RETURNDATACOPY DUP3 PUSH2 0x97E JUMPI DUP1 DUP3 REVERT JUMPDEST POP MLOAD SWAP9 SWAP8 POP POP POP POP POP POP POP POP JUMP JUMPDEST PUSH1 0x10 DUP2 DUP2 SLOAD DUP2 LT PUSH2 0x99C JUMPI PUSH1 0x0 DUP1 REVERT JUMPDEST PUSH1 0x0 SWAP2 DUP3 MSTORE PUSH1 0x20 SWAP1 SWAP2 KECCAK256 ADD SLOAD PUSH1 0xFF AND SWAP1 POP DUP2 JUMP JUMPDEST PUSH1 0x0 DUP1 SLOAD PUSH2 0x9BD SWAP1 PUSH2 0x1D4F JUMP JUMPDEST DUP1 PUSH1 0x1F ADD PUSH1 0x20 DUP1 SWAP2 DIV MUL PUSH1 0x20 ADD PUSH1 0x40 MLOAD SWAP1 DUP2 ADD PUSH1 0x40 MSTORE DUP1 SWAP3 SWAP2 SWAP1 DUP2 DUP2 MSTORE PUSH1 0x20 ADD DUP3 DUP1 SLOAD PUSH2 0x9E9 SWAP1 PUSH2 0x1D4F JUMP JUMPDEST DUP1 ISZERO PUSH2 0xA36 JUMPI DUP1 PUSH1 0x1F LT PUSH2 0xA0B JUMPI PUSH2 0x100 DUP1 DUP4 SLOAD DIV MUL DUP4 MSTORE SWAP2 PUSH1 0x20 ADD SWAP2 PUSH2 0xA36 JUMP JUMPDEST DUP3 ADD SWAP2 SWAP1 PUSH1 0x0 MSTORE PUSH1 0x20 PUSH1 0x0 KECCAK256 SWAP1 JUMPDEST DUP2 SLOAD DUP2 MSTORE SWAP1 PUSH1 0x1 ADD SWAP1 PUSH1 0x20 ADD DUP1 DUP4 GT PUSH2 0xA19 JUMPI DUP3 SWAP1 SUB PUSH1 0x1F AND DUP3 ADD SWAP2 JUMPDEST POP POP POP POP POP DUP2 JUMP JUMPDEST PUSH1 0x60 PUSH1 0xE DUP1 SLOAD DUP1 PUSH1 0x20 MUL PUSH1 0x20 ADD PUSH1 0x40 MLOAD SWAP1 DUP2 ADD PUSH1 0x40 MSTORE DUP1 SWAP3 SWAP2 SWAP1 DUP2 DUP2 MSTORE PUSH1 0x20 ADD PUSH1 0x0 SWAP1 JUMPDEST DUP3 DUP3 LT ISZERO PUSH2 0xB4E JUMPI PUSH1 0x0 DUP5 DUP2 MSTORE PUSH1 0x20 SWAP1 DUP2 SWAP1 KECCAK256 PUSH1 0x40 DUP1 MLOAD PUSH1 0x60 DUP2 ADD SWAP1 SWAP2 MSTORE PUSH1 0x3 DUP6 MUL SWAP1 SWAP2 ADD DUP1 SLOAD PUSH1 0x1 PUSH1 0x1 PUSH1 0xA0 SHL SUB AND DUP3 MSTORE PUSH1 0x1 DUP2 ADD DUP1 SLOAD SWAP3 SWAP4 SWAP2 SWAP3 SWAP2 DUP5 ADD SWAP2 PUSH2 0xAAB SWAP1 PUSH2 0x1D4F JUMP JUMPDEST DUP1 PUSH1 0x1F ADD PUSH1 0x20 DUP1 SWAP2 DIV MUL PUSH1 0x20 ADD PUSH1 0x40 MLOAD SWAP1 DUP2 ADD PUSH1 0x40 MSTORE DUP1 SWAP3 SWAP2 SWAP1 DUP2 DUP2 MSTORE PUSH1 0x20 ADD DUP3 DUP1 SLOAD PUSH2 0xAD7 SWAP1 PUSH2 0x1D4F JUMP JUMPDEST DUP1 ISZERO PUSH2 0xB24 JUMPI DUP1 PUSH1 0x1F LT PUSH2 0xAF9 JUMPI PUSH2 0x100 DUP1 DUP4 SLOAD DIV MUL DUP4 MSTORE SWAP2 PUSH1 0x20 ADD SWAP2 PUSH2 0xB24 JUMP JUMPDEST DUP3 ADD SWAP2 SWAP1 PUSH1 0x0 MSTORE PUSH1 0x20 PUSH1 0x0 KECCAK256 SWAP1 JUMPDEST DUP2 SLOAD DUP2 MSTORE SWAP1 PUSH1 0x1 ADD SWAP1 PUSH1 0x20 ADD DUP1 DUP4 GT PUSH2 0xB07 JUMPI DUP3 SWAP1 SUB PUSH1 0x1F AND DUP3 ADD SWAP2 JUMPDEST POP POP POP SWAP2 DUP4 MSTORE POP POP PUSH1 0x2 SWAP2 SWAP1 SWAP2 ADD SLOAD PUSH1 0xFF AND ISZERO ISZERO PUSH1 0x20 SWAP2 DUP3 ADD MSTORE SWAP1 DUP3 MSTORE PUSH1 0x1 SWAP3 SWAP1 SWAP3 ADD SWAP2 ADD PUSH2 0xA62 JUMP JUMPDEST POP POP POP POP SWAP1 POP SWAP1 JUMP JUMPDEST PUSH1 0x2 SLOAD PUSH1 0x40 MLOAD PUSH1 0x24 DUP2 ADD DUP4 SWAP1 MSTORE PUSH1 0x0 SWAP2 PUSH1 0x60 SWAP2 DUP4 SWAP2 PUSH1 0x1 PUSH1 0x1 PUSH1 0xA0 SHL SUB AND SWAP1 PUSH1 0x44 ADD PUSH1 0x40 DUP1 MLOAD PUSH1 0x1F NOT DUP2 DUP5 SUB ADD DUP2 MSTORE SWAP2 DUP2 MSTORE PUSH1 0x20 DUP3 ADD DUP1 MLOAD PUSH1 0x1 PUSH1 0x1 PUSH1 0xE0 SHL SUB AND PUSH4 0x5F3D99B3 PUSH1 0xE0 SHL OR SWAP1 MSTORE MLOAD PUSH2 0xBAE SWAP2 SWAP1 PUSH2 0x1CEE JUMP JUMPDEST PUSH1 0x0 PUSH1 0x40 MLOAD DUP1 DUP4 SUB DUP2 DUP6 GAS DELEGATECALL SWAP2 POP POP RETURNDATASIZE DUP1 PUSH1 0x0 DUP2 EQ PUSH2 0xBE9 JUMPI PUSH1 0x40 MLOAD SWAP2 POP PUSH1 0x1F NOT PUSH1 0x3F RETURNDATASIZE ADD AND DUP3 ADD PUSH1 0x40 MSTORE RETURNDATASIZE DUP3 MSTORE RETURNDATASIZE PUSH1 0x0 PUSH1 0x20 DUP5 ADD RETURNDATACOPY PUSH2 0xBEE JUMP JUMPDEST PUSH1 0x60 SWAP2 POP JUMPDEST POP POP SWAP1 POP DUP1 PUSH2 0xC04 JUMPI PUSH1 0x40 MLOAD RETURNDATASIZE DUP1 PUSH1 0x0 DUP4 RETURNDATACOPY DUP1 DUP3 REVERT JUMPDEST PUSH1 0x1 PUSH1 0x40 MLOAD DUP1 PUSH1 0x40 ADD PUSH1 0x40 MSTORE DUP1 PUSH1 0x19 DUP2 MSTORE PUSH1 0x20 ADD PUSH32 0x537563636573732065786563757465642070726F706F73616C00000000000000 DUP2 MSTORE POP SWAP3 POP SWAP3 POP POP SWAP2 POP SWAP2 JUMP JUMPDEST PUSH1 0x2 SLOAD PUSH1 0x40 MLOAD PUSH1 0x0 SWAP2 DUP3 SWAP2 PUSH1 0x1 PUSH1 0x1 PUSH1 0xA0 SHL SUB SWAP1 SWAP2 AND SWAP1 PUSH2 0xC6F SWAP1 DUP8 SWAP1 DUP8 SWAP1 DUP8 SWAP1 PUSH1 0x24 ADD PUSH2 0x1E36 JUMP JUMPDEST PUSH1 0x40 DUP1 MLOAD PUSH1 0x1F NOT DUP2 DUP5 SUB ADD DUP2 MSTORE SWAP2 DUP2 MSTORE PUSH1 0x20 DUP3 ADD DUP1 MLOAD PUSH1 0x1 PUSH1 0x1 PUSH1 0xE0 SHL SUB AND PUSH4 0x70ACB761 PUSH1 0xE0 SHL OR SWAP1 MSTORE MLOAD PUSH2 0xCA4 SWAP2 SWAP1 PUSH2 0x1CEE JUMP JUMPDEST PUSH1 0x0 PUSH1 0x40 MLOAD DUP1 DUP4 SUB DUP2 DUP6 GAS DELEGATECALL SWAP2 POP POP RETURNDATASIZE DUP1 PUSH1 0x0 DUP2 EQ PUSH2 0xCDF JUMPI PUSH1 0x40 MLOAD SWAP2 POP PUSH1 0x1F NOT PUSH1 0x3F RETURNDATASIZE ADD AND DUP3 ADD PUSH1 0x40 MSTORE RETURNDATASIZE DUP3 MSTORE RETURNDATASIZE PUSH1 0x0 PUSH1 0x20 DUP5 ADD RETURNDATACOPY PUSH2 0xCE4 JUMP JUMPDEST PUSH1 0x60 SWAP2 POP JUMPDEST POP POP SWAP1 POP PUSH1 0x40 MLOAD RETURNDATASIZE DUP1 PUSH1 0x0 DUP4 RETURNDATACOPY DUP3 PUSH2 0xCFA JUMPI DUP1 DUP3 REVERT JUMPDEST POP MLOAD SWAP6 SWAP5 POP POP POP POP POP JUMP JUMPDEST PUSH1 0x2 SLOAD PUSH1 0x40 MLOAD PUSH1 0x0 SWAP2 DUP3 SWAP2 PUSH1 0x1 PUSH1 0x1 PUSH1 0xA0 SHL SUB SWAP1 SWAP2 AND SWAP1 PUSH2 0xD30 SWAP1 DUP9 SWAP1 DUP9 SWAP1 DUP9 SWAP1 DUP9 SWAP1 PUSH1 0x24 ADD PUSH2 0x1CB6 JUMP JUMPDEST PUSH1 0x40 DUP1 MLOAD PUSH1 0x1F NOT DUP2 DUP5 SUB ADD DUP2 MSTORE SWAP2 DUP2 MSTORE PUSH1 0x20 DUP3 ADD DUP1 MLOAD PUSH1 0x1 PUSH1 0x1 PUSH1 0xE0 SHL SUB AND PUSH4 0xF8C70A9 PUSH1 0xE3 SHL OR SWAP1 MSTORE MLOAD PUSH2 0x862 SWAP2 SWAP1 PUSH2 0x1CEE JUMP JUMPDEST PUSH1 0x1 SLOAD PUSH1 0x40 MLOAD PUSH1 0x0 SWAP2 PUSH7 0x1000000000000 SWAP1 DIV PUSH1 0x1 PUSH1 0x1 PUSH1 0xA0 SHL SUB AND SWAP1 PUSH2 0xD92 SWAP1 DUP6 SWAP1 DUP6 SWAP1 PUSH1 0x24 ADD PUSH2 0x18A4 JUMP JUMPDEST PUSH1 0x40 DUP1 MLOAD PUSH1 0x1F NOT DUP2 DUP5 SUB ADD DUP2 MSTORE SWAP2 DUP2 MSTORE PUSH1 0x20 DUP3 ADD DUP1 MLOAD PUSH1 0x1 PUSH1 0x1 PUSH1 0xE0 SHL SUB AND PUSH4 0x1039E45B PUSH1 0xE3 SHL OR SWAP1 MSTORE MLOAD PUSH2 0xDC7 SWAP2 SWAP1 PUSH2 0x1CEE JUMP JUMPDEST PUSH1 0x0 PUSH1 0x40 MLOAD DUP1 DUP4 SUB DUP2 DUP6 GAS DELEGATECALL SWAP2 POP POP RETURNDATASIZE DUP1 PUSH1 0x0 DUP2 EQ PUSH2 0xE02 JUMPI PUSH1 0x40 MLOAD SWAP2 POP PUSH1 0x1F NOT PUSH1 0x3F RETURNDATASIZE ADD AND DUP3 ADD PUSH1 0x40 MSTORE RETURNDATASIZE DUP3 MSTORE RETURNDATASIZE PUSH1 0x0 PUSH1 0x20 DUP5 ADD RETURNDATACOPY PUSH2 0xE07 JUMP JUMPDEST PUSH1 0x60 SWAP2 POP JUMPDEST POP POP SWAP1 POP DUP1 PUSH2 0xE1D JUMPI PUSH1 0x40 MLOAD RETURNDATASIZE DUP1 PUSH1 0x0 DUP4 RETURNDATACOPY DUP1 DUP3 REVERT JUMPDEST POP POP POP JUMP JUMPDEST PUSH1 0xE DUP2 DUP2 SLOAD DUP2 LT PUSH2 0xE32 JUMPI PUSH1 0x0 DUP1 REVERT JUMPDEST PUSH1 0x0 SWAP2 DUP3 MSTORE PUSH1 0x20 SWAP1 SWAP2 KECCAK256 PUSH1 0x3 SWAP1 SWAP2 MUL ADD DUP1 SLOAD PUSH1 0x1 DUP3 ADD DUP1 SLOAD PUSH1 0x1 PUSH1 0x1 PUSH1 0xA0 SHL SUB SWAP1 SWAP3 AND SWAP4 POP SWAP1 PUSH2 0xE61 SWAP1 PUSH2 0x1D4F JUMP JUMPDEST DUP1 PUSH1 0x1F ADD PUSH1 0x20 DUP1 SWAP2 DIV MUL PUSH1 0x20 ADD PUSH1 0x40 MLOAD SWAP1 DUP2 ADD PUSH1 0x40 MSTORE DUP1 SWAP3 SWAP2 SWAP1 DUP2 DUP2 MSTORE PUSH1 0x20 ADD DUP3 DUP1 SLOAD PUSH2 0xE8D SWAP1 PUSH2 0x1D4F JUMP JUMPDEST DUP1 ISZERO PUSH2 0xEDA JUMPI DUP1 PUSH1 0x1F LT PUSH2 0xEAF JUMPI PUSH2 0x100 DUP1 DUP4 SLOAD DIV MUL DUP4 MSTORE SWAP2 PUSH1 0x20 ADD SWAP2 PUSH2 0xEDA JUMP JUMPDEST DUP3 ADD SWAP2 SWAP1 PUSH1 0x0 MSTORE PUSH1 0x20 PUSH1 0x0 KECCAK256 SWAP1 JUMPDEST DUP2 SLOAD DUP2 MSTORE SWAP1 PUSH1 0x1 ADD SWAP1 PUSH1 0x20 ADD DUP1 DUP4 GT PUSH2 0xEBD JUMPI DUP3 SWAP1 SUB PUSH1 0x1F AND DUP3 ADD SWAP2 JUMPDEST POP POP POP PUSH1 0x2 SWAP1 SWAP4 ADD SLOAD SWAP2 SWAP3 POP POP PUSH1 0xFF AND DUP4 JUMP JUMPDEST PUSH1 0x2 SLOAD PUSH1 0x40 MLOAD PUSH1 0x0 SWAP2 DUP3 SWAP2 PUSH1 0x1 PUSH1 0x1 PUSH1 0xA0 SHL SUB SWAP1 SWAP2 AND SWAP1 PUSH2 0xF16 SWAP1 DUP8 SWAP1 DUP8 SWAP1 DUP8 SWAP1 PUSH1 0x24 ADD PUSH2 0x1E62 JUMP JUMPDEST PUSH1 0x40 DUP1 MLOAD PUSH1 0x1F NOT DUP2 DUP5 SUB ADD DUP2 MSTORE SWAP2 DUP2 MSTORE PUSH1 0x20 DUP3 ADD DUP1 MLOAD PUSH1 0x1 PUSH1 0x1 PUSH1 0xE0 SHL SUB AND PUSH4 0xA19A5F5 PUSH1 0xE4 SHL OR SWAP1 MSTORE MLOAD PUSH2 0x60B SWAP2 SWAP1 PUSH2 0x1CEE JUMP JUMPDEST PUSH1 0x60 PUSH1 0xD DUP1 SLOAD DUP1 PUSH1 0x20 MUL PUSH1 0x20 ADD PUSH1 0x40 MLOAD SWAP1 DUP2 ADD PUSH1 0x40 MSTORE DUP1 SWAP3 SWAP2 SWAP1 DUP2 DUP2 MSTORE PUSH1 0x20 ADD PUSH1 0x0 SWAP1 JUMPDEST DUP3 DUP3 LT ISZERO PUSH2 0xB4E JUMPI PUSH1 0x0 DUP5 DUP2 MSTORE PUSH1 0x20 SWAP1 DUP2 SWAP1 KECCAK256 PUSH1 0x40 DUP1 MLOAD PUSH2 0x120 DUP2 ADD SWAP1 SWAP2 MSTORE PUSH1 0x5 DUP6 MUL SWAP1 SWAP2 ADD DUP1 SLOAD PUSH1 0x1 PUSH1 0x1 PUSH1 0xA0 SHL SUB DUP2 AND DUP4 MSTORE SWAP2 SWAP3 SWAP1 SWAP2 SWAP1 DUP4 ADD SWAP1 PUSH1 0x1 PUSH1 0xA0 SHL SWAP1 DIV PUSH1 0xFF AND PUSH1 0x8 DUP2 GT ISZERO PUSH2 0xFC6 JUMPI PUSH2 0xFC6 PUSH2 0x1A32 JUMP JUMPDEST PUSH1 0x8 DUP2 GT ISZERO PUSH2 0xFD7 JUMPI PUSH2 0xFD7 PUSH2 0x1A32 JUMP JUMPDEST DUP2 MSTORE PUSH1 0x20 ADD PUSH1 0x1 DUP3 ADD DUP1 SLOAD PUSH2 0xFEB SWAP1 PUSH2 0x1D4F JUMP JUMPDEST DUP1 PUSH1 0x1F ADD PUSH1 0x20 DUP1 SWAP2 DIV MUL PUSH1 0x20 ADD PUSH1 0x40 MLOAD SWAP1 DUP2 ADD PUSH1 0x40 MSTORE DUP1 SWAP3 SWAP2 SWAP1 DUP2 DUP2 MSTORE PUSH1 0x20 ADD DUP3 DUP1 SLOAD PUSH2 0x1017 SWAP1 PUSH2 0x1D4F JUMP JUMPDEST DUP1 ISZERO PUSH2 0x1064 JUMPI DUP1 PUSH1 0x1F LT PUSH2 0x1039 JUMPI PUSH2 0x100 DUP1 DUP4 SLOAD DIV MUL DUP4 MSTORE SWAP2 PUSH1 0x20 ADD SWAP2 PUSH2 0x1064 JUMP JUMPDEST DUP3 ADD SWAP2 SWAP1 PUSH1 0x0 MSTORE PUSH1 0x20 PUSH1 0x0 KECCAK256 SWAP1 JUMPDEST DUP2 SLOAD DUP2 MSTORE SWAP1 PUSH1 0x1 ADD SWAP1 PUSH1 0x20 ADD DUP1 DUP4 GT PUSH2 0x1047 JUMPI DUP3 SWAP1 SUB PUSH1 0x1F AND DUP3 ADD SWAP2 JUMPDEST POP POP POP SWAP2 DUP4 MSTORE POP POP PUSH1 0x2 DUP3 ADD SLOAD PUSH1 0x20 DUP1 DUP4 ADD SWAP2 SWAP1 SWAP2 MSTORE PUSH1 0x3 DUP4 ADD SLOAD PUSH1 0xFF DUP1 DUP3 AND PUSH1 0x40 DUP6 ADD MSTORE PUSH2 0x100 DUP3 DIV DUP2 AND PUSH1 0x60 DUP6 ADD MSTORE PUSH3 0x10000 DUP3 DIV DUP2 AND ISZERO ISZERO PUSH1 0x80 DUP6 ADD MSTORE PUSH4 0x1000000 SWAP1 SWAP2 DIV AND ISZERO ISZERO PUSH1 0xA0 DUP4 ADD MSTORE PUSH1 0x4 SWAP1 SWAP3 ADD SLOAD PUSH1 0xC0 SWAP1 SWAP2 ADD MSTORE SWAP1 DUP3 MSTORE PUSH1 0x1 SWAP3 SWAP1 SWAP3 ADD SWAP2 ADD PUSH2 0xF6F JUMP JUMPDEST PUSH1 0xF DUP2 DUP2 SLOAD DUP2 LT PUSH2 0x10E0 JUMPI PUSH1 0x0 DUP1 REVERT JUMPDEST PUSH1 0x0 SWAP2 DUP3 MSTORE PUSH1 0x20 SWAP1 SWAP2 KECCAK256 PUSH1 0x4 SWAP1 SWAP2 MUL ADD DUP1 SLOAD PUSH1 0x1 DUP3 ADD SLOAD PUSH1 0x2 DUP4 ADD SLOAD PUSH1 0x3 SWAP1 SWAP4 ADD SLOAD PUSH1 0x1 PUSH1 0x1 PUSH1 0xA0 SHL SUB SWAP3 DUP4 AND SWAP5 POP SWAP1 SWAP3 DUP3 AND SWAP2 AND DUP5 JUMP JUMPDEST PUSH1 0x2 SLOAD PUSH1 0x40 MLOAD PUSH1 0x0 SWAP2 DUP3 SWAP2 PUSH1 0x1 PUSH1 0x1 PUSH1 0xA0 SHL SUB SWAP1 SWAP2 AND SWAP1 PUSH2 0x1143 SWAP1 DUP9 SWAP1 DUP9 SWAP1 DUP9 SWAP1 DUP9 SWAP1 PUSH1 0x24 ADD PUSH2 0x1EA5 JUMP JUMPDEST PUSH1 0x40 DUP1 MLOAD PUSH1 0x1F NOT DUP2 DUP5 SUB ADD DUP2 MSTORE SWAP2 DUP2 MSTORE PUSH1 0x20 DUP3 ADD DUP1 MLOAD PUSH1 0x1 PUSH1 0x1 PUSH1 0xE0 SHL SUB AND PUSH4 0x18567541 PUSH1 0xE3 SHL OR SWAP1 MSTORE MLOAD PUSH2 0x1178 SWAP2 SWAP1 PUSH2 0x1CEE JUMP JUMPDEST PUSH1 0x0 PUSH1 0x40 MLOAD DUP1 DUP4 SUB DUP2 DUP6 GAS DELEGATECALL SWAP2 POP POP RETURNDATASIZE DUP1 PUSH1 0x0 DUP2 EQ PUSH2 0x11B3 JUMPI PUSH1 0x40 MLOAD SWAP2 POP PUSH1 0x1F NOT PUSH1 0x3F RETURNDATASIZE ADD AND DUP3 ADD PUSH1 0x40 MSTORE RETURNDATASIZE DUP3 MSTORE RETURNDATASIZE PUSH1 0x0 PUSH1 0x20 DUP5 ADD RETURNDATACOPY PUSH2 0x11B8 JUMP JUMPDEST PUSH1 0x60 SWAP2 POP JUMPDEST POP POP SWAP1 POP DUP1 PUSH2 0x11CE JUMPI PUSH1 0x40 MLOAD RETURNDATASIZE DUP1 PUSH1 0x0 DUP4 RETURNDATACOPY DUP1 DUP3 REVERT JUMPDEST POP PUSH1 0x1 SWAP6 SWAP5 POP POP POP POP POP JUMP JUMPDEST PUSH1 0xC PUSH1 0x20 SWAP1 DUP2 MSTORE PUSH1 0x0 SWAP3 DUP4 MSTORE PUSH1 0x40 DUP1 DUP5 KECCAK256 SWAP1 SWAP2 MSTORE SWAP1 DUP3 MSTORE SWAP1 KECCAK256 DUP1 SLOAD PUSH1 0x1 DUP3 ADD DUP1 SLOAD PUSH1 0xFF DUP1 DUP5 AND SWAP5 PUSH2 0x100 SWAP1 SWAP5 DIV AND SWAP3 SWAP2 SWAP1 PUSH2 0x1214 SWAP1 PUSH2 0x1D4F JUMP JUMPDEST DUP1 PUSH1 0x1F ADD PUSH1 0x20 DUP1 SWAP2 DIV MUL PUSH1 0x20 ADD PUSH1 0x40 MLOAD SWAP1 DUP2 ADD PUSH1 0x40 MSTORE DUP1 SWAP3 SWAP2 SWAP1 DUP2 DUP2 MSTORE PUSH1 0x20 ADD DUP3 DUP1 SLOAD PUSH2 0x1240 SWAP1 PUSH2 0x1D4F JUMP JUMPDEST DUP1 ISZERO PUSH2 0x128D JUMPI DUP1 PUSH1 0x1F LT PUSH2 0x1262 JUMPI PUSH2 0x100 DUP1 DUP4 SLOAD DIV MUL DUP4 MSTORE SWAP2 PUSH1 0x20 ADD SWAP2 PUSH2 0x128D JUMP JUMPDEST DUP3 ADD SWAP2 SWAP1 PUSH1 0x0 MSTORE PUSH1 0x20 PUSH1 0x0 KECCAK256 SWAP1 JUMPDEST DUP2 SLOAD DUP2 MSTORE SWAP1 PUSH1 0x1 ADD SWAP1 PUSH1 0x20 ADD DUP1 DUP4 GT PUSH2 0x1270 JUMPI DUP3 SWAP1 SUB PUSH1 0x1F AND DUP3 ADD SWAP2 JUMPDEST POP POP POP POP POP SWAP1 POP DUP4 JUMP JUMPDEST PUSH1 0xD DUP2 DUP2 SLOAD DUP2 LT PUSH2 0x12A7 JUMPI PUSH1 0x0 DUP1 REVERT JUMPDEST PUSH1 0x0 SWAP2 DUP3 MSTORE PUSH1 0x20 SWAP1 SWAP2 KECCAK256 PUSH1 0x5 SWAP1 SWAP2 MUL ADD DUP1 SLOAD PUSH1 0x1 DUP3 ADD DUP1 SLOAD PUSH1 0x1 PUSH1 0x1 PUSH1 0xA0 SHL SUB DUP4 AND SWAP5 POP PUSH1 0x1 PUSH1 0xA0 SHL SWAP1 SWAP3 DIV PUSH1 0xFF AND SWAP3 SWAP2 PUSH2 0x12E1 SWAP1 PUSH2 0x1D4F JUMP JUMPDEST DUP1 PUSH1 0x1F ADD PUSH1 0x20 DUP1 SWAP2 DIV MUL PUSH1 0x20 ADD PUSH1 0x40 MLOAD SWAP1 DUP2 ADD PUSH1 0x40 MSTORE DUP1 SWAP3 SWAP2 SWAP1 DUP2 DUP2 MSTORE PUSH1 0x20 ADD DUP3 DUP1 SLOAD PUSH2 0x130D SWAP1 PUSH2 0x1D4F JUMP JUMPDEST DUP1 ISZERO PUSH2 0x135A JUMPI DUP1 PUSH1 0x1F LT PUSH2 0x132F JUMPI PUSH2 0x100 DUP1 DUP4 SLOAD DIV MUL DUP4 MSTORE SWAP2 PUSH1 0x20 ADD SWAP2 PUSH2 0x135A JUMP JUMPDEST DUP3 ADD SWAP2 SWAP1 PUSH1 0x0 MSTORE PUSH1 0x20 PUSH1 0x0 KECCAK256 SWAP1 JUMPDEST DUP2 SLOAD DUP2 MSTORE SWAP1 PUSH1 0x1 ADD SWAP1 PUSH1 0x20 ADD DUP1 DUP4 GT PUSH2 0x133D JUMPI DUP3 SWAP1 SUB PUSH1 0x1F AND DUP3 ADD SWAP2 JUMPDEST POP POP POP PUSH1 0x2 DUP5 ADD SLOAD PUSH1 0x3 DUP6 ADD SLOAD PUSH1 0x4 SWAP1 SWAP6 ADD SLOAD SWAP4 SWAP5 SWAP1 SWAP4 PUSH1 0xFF DUP1 DUP4 AND SWAP5 POP PUSH2 0x100 DUP4 DIV DUP2 AND SWAP4 POP PUSH3 0x10000 DUP4 DIV DUP2 AND SWAP3 PUSH4 0x1000000 SWAP1 DIV AND SWAP1 DUP10 JUMP JUMPDEST PUSH1 0x2 SLOAD PUSH1 0x40 MLOAD PUSH1 0x0 SWAP2 DUP3 SWAP2 PUSH1 0x1 PUSH1 0x1 PUSH1 0xA0 SHL SUB SWAP1 SWAP2 AND SWAP1 PUSH2 0x13C3 SWAP1 DUP10 SWAP1 DUP10 SWAP1 DUP10 SWAP1 DUP10 SWAP1 DUP10 SWAP1 PUSH1 0x24 ADD PUSH2 0x1ED8 JUMP JUMPDEST PUSH1 0x40 DUP1 MLOAD PUSH1 0x1F NOT DUP2 DUP5 SUB ADD DUP2 MSTORE SWAP2 DUP2 MSTORE PUSH1 0x20 DUP3 ADD DUP1 MLOAD PUSH1 0x1 PUSH1 0x1 PUSH1 0xE0 SHL SUB AND PUSH4 0x6F2D58A7 PUSH1 0xE1 SHL OR SWAP1 MSTORE MLOAD PUSH2 0x13F8 SWAP2 SWAP1 PUSH2 0x1CEE JUMP JUMPDEST PUSH1 0x0 PUSH1 0x40 MLOAD DUP1 DUP4 SUB DUP2 DUP6 GAS DELEGATECALL SWAP2 POP POP RETURNDATASIZE DUP1 PUSH1 0x0 DUP2 EQ PUSH2 0x1433 JUMPI PUSH1 0x40 MLOAD SWAP2 POP PUSH1 0x1F NOT PUSH1 0x3F RETURNDATASIZE ADD AND DUP3 ADD PUSH1 0x40 MSTORE RETURNDATASIZE DUP3 MSTORE RETURNDATASIZE PUSH1 0x0 PUSH1 0x20 DUP5 ADD RETURNDATACOPY PUSH2 0x1438 JUMP JUMPDEST PUSH1 0x60 SWAP2 POP JUMPDEST POP POP SWAP1 POP PUSH1 0x40 MLOAD RETURNDATASIZE DUP1 PUSH1 0x0 DUP4 RETURNDATACOPY DUP3 PUSH2 0x144E JUMPI DUP1 DUP3 REVERT JUMPDEST POP MLOAD SWAP8 SWAP7 POP POP POP POP POP POP POP JUMP JUMPDEST DUP1 CALLDATALOAD PUSH1 0x1 PUSH1 0x1 PUSH1 0xA0 SHL SUB DUP2 AND DUP2 EQ PUSH2 0x1472 JUMPI PUSH1 0x0 DUP1 REVERT JUMPDEST SWAP2 SWAP1 POP JUMP JUMPDEST PUSH4 0x4E487B71 PUSH1 0xE0 SHL PUSH1 0x0 MSTORE PUSH1 0x41 PUSH1 0x4 MSTORE PUSH1 0x24 PUSH1 0x0 REVERT JUMPDEST PUSH1 0x0 DUP3 PUSH1 0x1F DUP4 ADD SLT PUSH2 0x149E JUMPI PUSH1 0x0 DUP1 REVERT JUMPDEST DUP2 CALLDATALOAD PUSH8 0xFFFFFFFFFFFFFFFF DUP1 DUP3 GT ISZERO PUSH2 0x14B9 JUMPI PUSH2 0x14B9 PUSH2 0x1477 JUMP JUMPDEST PUSH1 0x40 MLOAD PUSH1 0x1F DUP4 ADD PUSH1 0x1F NOT SWAP1 DUP2 AND PUSH1 0x3F ADD AND DUP2 ADD SWAP1 DUP3 DUP3 GT DUP2 DUP4 LT OR ISZERO PUSH2 0x14E1 JUMPI PUSH2 0x14E1 PUSH2 0x1477 JUMP JUMPDEST DUP2 PUSH1 0x40 MSTORE DUP4 DUP2 MSTORE DUP7 PUSH1 0x20 DUP6 DUP9 ADD ADD GT ISZERO PUSH2 0x14FA JUMPI PUSH1 0x0 DUP1 REVERT JUMPDEST DUP4 PUSH1 0x20 DUP8 ADD PUSH1 0x20 DUP4 ADD CALLDATACOPY PUSH1 0x0 PUSH1 0x20 DUP6 DUP4 ADD ADD MSTORE DUP1 SWAP5 POP POP POP POP POP SWAP3 SWAP2 POP POP JUMP JUMPDEST PUSH1 0x0 DUP1 PUSH1 0x0 DUP1 PUSH1 0x80 DUP6 DUP8 SUB SLT ISZERO PUSH2 0x1530 JUMPI PUSH1 0x0 DUP1 REVERT JUMPDEST PUSH2 0x1539 DUP6 PUSH2 0x145B JUMP JUMPDEST SWAP4 POP PUSH1 0x20 DUP6 ADD CALLDATALOAD SWAP3 POP PUSH1 0x40 DUP6 ADD CALLDATALOAD PUSH8 0xFFFFFFFFFFFFFFFF DUP2 GT ISZERO PUSH2 0x155C JUMPI PUSH1 0x0 DUP1 REVERT JUMPDEST PUSH2 0x1568 DUP8 DUP3 DUP9 ADD PUSH2 0x148D JUMP JUMPDEST SWAP5 SWAP8 SWAP4 SWAP7 POP SWAP4 SWAP5 PUSH1 0x60 ADD CALLDATALOAD SWAP4 POP POP POP JUMP JUMPDEST PUSH1 0x0 DUP1 PUSH1 0x0 DUP1 PUSH1 0x0 PUSH1 0xA0 DUP7 DUP9 SUB SLT ISZERO PUSH2 0x1591 JUMPI PUSH1 0x0 DUP1 REVERT JUMPDEST PUSH2 0x159A DUP7 PUSH2 0x145B JUMP JUMPDEST SWAP5 POP PUSH2 0x15A8 PUSH1 0x20 DUP8 ADD PUSH2 0x145B JUMP JUMPDEST SWAP4 POP PUSH1 0x40 DUP7 ADD CALLDATALOAD SWAP3 POP PUSH1 0x60 DUP7 ADD CALLDATALOAD PUSH8 0xFFFFFFFFFFFFFFFF DUP2 GT ISZERO PUSH2 0x15CB JUMPI PUSH1 0x0 DUP1 REVERT JUMPDEST PUSH2 0x15D7 DUP9 DUP3 DUP10 ADD PUSH2 0x148D JUMP JUMPDEST SWAP6 SWAP9 SWAP5 SWAP8 POP SWAP3 SWAP6 PUSH1 0x80 ADD CALLDATALOAD SWAP4 SWAP3 POP POP POP JUMP JUMPDEST PUSH1 0x0 PUSH1 0x20 DUP3 DUP5 SUB SLT ISZERO PUSH2 0x15FB JUMPI PUSH1 0x0 DUP1 REVERT JUMPDEST POP CALLDATALOAD SWAP2 SWAP1 POP JUMP JUMPDEST PUSH1 0x0 JUMPDEST DUP4 DUP2 LT ISZERO PUSH2 0x161D JUMPI DUP2 DUP2 ADD MLOAD DUP4 DUP3 ADD MSTORE PUSH1 0x20 ADD PUSH2 0x1605 JUMP JUMPDEST DUP4 DUP2 GT ISZERO PUSH2 0x162C JUMPI PUSH1 0x0 DUP5 DUP5 ADD MSTORE JUMPDEST POP POP POP POP JUMP JUMPDEST PUSH1 0x0 DUP2 MLOAD DUP1 DUP5 MSTORE PUSH2 0x164A DUP2 PUSH1 0x20 DUP7 ADD PUSH1 0x20 DUP7 ADD PUSH2 0x1602 JUMP JUMPDEST PUSH1 0x1F ADD PUSH1 0x1F NOT AND SWAP3 SWAP1 SWAP3 ADD PUSH1 0x20 ADD SWAP3 SWAP2 POP POP JUMP JUMPDEST PUSH1 0x1 PUSH1 0x1 PUSH1 0xA0 SHL SUB DUP7 AND DUP2 MSTORE PUSH1 0xA0 PUSH1 0x20 DUP3 ADD DUP2 SWAP1 MSTORE PUSH1 0x0 SWAP1 PUSH2 0x1682 SWAP1 DUP4 ADD DUP8 PUSH2 0x1632 JUMP JUMPDEST PUSH1 0x40 DUP4 ADD SWAP6 SWAP1 SWAP6 MSTORE POP SWAP2 ISZERO ISZERO PUSH1 0x60 DUP4 ADD MSTORE ISZERO ISZERO PUSH1 0x80 SWAP1 SWAP2 ADD MSTORE SWAP3 SWAP2 POP POP JUMP JUMPDEST PUSH1 0x0 DUP1 PUSH1 0x0 DUP1 PUSH1 0x80 DUP6 DUP8 SUB SLT ISZERO PUSH2 0x16B7 JUMPI PUSH1 0x0 DUP1 REVERT JUMPDEST PUSH2 0x16C0 DUP6 PUSH2 0x145B JUMP JUMPDEST SWAP4 POP PUSH1 0x20 DUP6 ADD CALLDATALOAD PUSH8 0xFFFFFFFFFFFFFFFF DUP1 DUP3 GT ISZERO PUSH2 0x16DD JUMPI PUSH1 0x0 DUP1 REVERT JUMPDEST PUSH2 0x16E9 DUP9 DUP4 DUP10 ADD PUSH2 0x148D JUMP JUMPDEST SWAP5 POP PUSH1 0x40 DUP8 ADD CALLDATALOAD SWAP4 POP PUSH1 0x60 DUP8 ADD CALLDATALOAD SWAP2 POP DUP1 DUP3 GT ISZERO PUSH2 0x1706 JUMPI PUSH1 0x0 DUP1 REVERT JUMPDEST POP PUSH2 0x1713 DUP8 DUP3 DUP9 ADD PUSH2 0x148D JUMP JUMPDEST SWAP2 POP POP SWAP3 SWAP6 SWAP2 SWAP5 POP SWAP3 POP JUMP JUMPDEST DUP1 CALLDATALOAD DUP1 ISZERO ISZERO DUP2 EQ PUSH2 0x1472 JUMPI PUSH1 0x0 DUP1 REVERT JUMPDEST PUSH1 0x0 DUP1 PUSH1 0x0 DUP1 PUSH1 0x0 DUP1 PUSH1 0xC0 DUP8 DUP10 SUB SLT ISZERO PUSH2 0x1748 JUMPI PUSH1 0x0 DUP1 REVERT JUMPDEST PUSH2 0x1751 DUP8 PUSH2 0x145B JUMP JUMPDEST SWAP6 POP PUSH1 0x20 DUP8 ADD CALLDATALOAD PUSH8 0xFFFFFFFFFFFFFFFF DUP1 DUP3 GT ISZERO PUSH2 0x176E JUMPI PUSH1 0x0 DUP1 REVERT JUMPDEST PUSH2 0x177A DUP11 DUP4 DUP12 ADD PUSH2 0x148D JUMP JUMPDEST SWAP7 POP PUSH1 0x40 DUP10 ADD CALLDATALOAD SWAP2 POP DUP1 DUP3 GT ISZERO PUSH2 0x1790 JUMPI PUSH1 0x0 DUP1 REVERT JUMPDEST PUSH2 0x179C DUP11 DUP4 DUP12 ADD PUSH2 0x148D JUMP JUMPDEST SWAP6 POP PUSH2 0x17AA PUSH1 0x60 DUP11 ADD PUSH2 0x171F JUMP JUMPDEST SWAP5 POP PUSH1 0x80 DUP10 ADD CALLDATALOAD SWAP4 POP PUSH1 0xA0 DUP10 ADD CALLDATALOAD SWAP2 POP DUP1 DUP3 GT ISZERO PUSH2 0x17C7 JUMPI PUSH1 0x0 DUP1 REVERT JUMPDEST POP PUSH2 0x17D4 DUP10 DUP3 DUP11 ADD PUSH2 0x148D JUMP JUMPDEST SWAP2 POP POP SWAP3 SWAP6 POP SWAP3 SWAP6 POP SWAP3 SWAP6 JUMP JUMPDEST PUSH1 0x0 PUSH1 0x20 DUP3 DUP5 SUB SLT ISZERO PUSH2 0x17F3 JUMPI PUSH1 0x0 DUP1 REVERT JUMPDEST PUSH2 0x17FC DUP3 PUSH2 0x145B JUMP JUMPDEST SWAP4 SWAP3 POP POP POP JUMP JUMPDEST PUSH1 0x20 DUP2 MSTORE PUSH1 0x0 PUSH2 0x17FC PUSH1 0x20 DUP4 ADD DUP5 PUSH2 0x1632 JUMP JUMPDEST PUSH1 0x0 PUSH1 0x20 DUP1 DUP4 ADD DUP2 DUP5 MSTORE DUP1 DUP6 MLOAD DUP1 DUP4 MSTORE PUSH1 0x40 SWAP3 POP DUP3 DUP7 ADD SWAP2 POP DUP3 DUP2 PUSH1 0x5 SHL DUP8 ADD ADD DUP5 DUP9 ADD PUSH1 0x0 JUMPDEST DUP4 DUP2 LT ISZERO PUSH2 0x1896 JUMPI DUP9 DUP4 SUB PUSH1 0x3F NOT ADD DUP6 MSTORE DUP2 MLOAD DUP1 MLOAD PUSH1 0x1 PUSH1 0x1 PUSH1 0xA0 SHL SUB AND DUP5 MSTORE DUP8 DUP2 ADD MLOAD PUSH1 0x60 DUP10 DUP7 ADD DUP2 SWAP1 MSTORE SWAP1 PUSH2 0x1876 DUP3 DUP8 ADD DUP3 PUSH2 0x1632 JUMP JUMPDEST SWAP3 DUP10 ADD MLOAD ISZERO ISZERO SWAP6 DUP10 ADD SWAP6 SWAP1 SWAP6 MSTORE POP SWAP5 DUP8 ADD SWAP5 SWAP3 POP SWAP1 DUP7 ADD SWAP1 PUSH1 0x1 ADD PUSH2 0x183D JUMP JUMPDEST POP SWAP1 SWAP9 SWAP8 POP POP POP POP POP POP POP POP JUMP JUMPDEST DUP3 ISZERO ISZERO DUP2 MSTORE PUSH1 0x40 PUSH1 0x20 DUP3 ADD MSTORE PUSH1 0x0 PUSH2 0x18BF PUSH1 0x40 DUP4 ADD DUP5 PUSH2 0x1632 JUMP JUMPDEST SWAP5 SWAP4 POP POP POP POP JUMP JUMPDEST PUSH1 0x0 DUP1 PUSH1 0x0 PUSH1 0x60 DUP5 DUP7 SUB SLT ISZERO PUSH2 0x18DC JUMPI PUSH1 0x0 DUP1 REVERT JUMPDEST DUP4 CALLDATALOAD PUSH1 0xFF DUP2 AND DUP2 EQ PUSH2 0x18ED JUMPI PUSH1 0x0 DUP1 REVERT JUMPDEST SWAP3 POP PUSH1 0x20 DUP5 ADD CALLDATALOAD PUSH8 0xFFFFFFFFFFFFFFFF DUP2 GT ISZERO PUSH2 0x1909 JUMPI PUSH1 0x0 DUP1 REVERT JUMPDEST PUSH2 0x1915 DUP7 DUP3 DUP8 ADD PUSH2 0x148D JUMP JUMPDEST SWAP3 POP POP PUSH1 0x40 DUP5 ADD CALLDATALOAD SWAP1 POP SWAP3 POP SWAP3 POP SWAP3 JUMP JUMPDEST PUSH1 0x0 DUP1 PUSH1 0x40 DUP4 DUP6 SUB SLT ISZERO PUSH2 0x1939 JUMPI PUSH1 0x0 DUP1 REVERT JUMPDEST PUSH2 0x1942 DUP4 PUSH2 0x171F JUMP JUMPDEST SWAP2 POP PUSH1 0x20 DUP4 ADD CALLDATALOAD PUSH8 0xFFFFFFFFFFFFFFFF DUP2 GT ISZERO PUSH2 0x195E JUMPI PUSH1 0x0 DUP1 REVERT JUMPDEST PUSH2 0x196A DUP6 DUP3 DUP7 ADD PUSH2 0x148D JUMP JUMPDEST SWAP2 POP POP SWAP3 POP SWAP3 SWAP1 POP JUMP JUMPDEST PUSH1 0x1 PUSH1 0x1 PUSH1 0xA0 SHL SUB DUP5 AND DUP2 MSTORE PUSH1 0x60 PUSH1 0x20 DUP3 ADD DUP2 SWAP1 MSTORE PUSH1 0x0 SWAP1 PUSH2 0x1998 SWAP1 DUP4 ADD DUP6 PUSH2 0x1632 JUMP JUMPDEST SWAP1 POP DUP3 ISZERO ISZERO PUSH1 0x40 DUP4 ADD MSTORE SWAP5 SWAP4 POP POP POP POP JUMP JUMPDEST PUSH1 0x0 DUP1 PUSH1 0x0 PUSH1 0x60 DUP5 DUP7 SUB SLT ISZERO PUSH2 0x19BF JUMPI PUSH1 0x0 DUP1 REVERT JUMPDEST DUP4 CALLDATALOAD PUSH8 0xFFFFFFFFFFFFFFFF DUP1 DUP3 GT ISZERO PUSH2 0x19D7 JUMPI PUSH1 0x0 DUP1 REVERT JUMPDEST PUSH2 0x19E3 DUP8 DUP4 DUP9 ADD PUSH2 0x148D JUMP JUMPDEST SWAP5 POP PUSH1 0x20 DUP7 ADD CALLDATALOAD SWAP2 POP DUP1 DUP3 GT ISZERO PUSH2 0x19F9 JUMPI PUSH1 0x0 DUP1 REVERT JUMPDEST PUSH2 0x1A05 DUP8 DUP4 DUP9 ADD PUSH2 0x148D JUMP JUMPDEST SWAP4 POP PUSH1 0x40 DUP7 ADD CALLDATALOAD SWAP2 POP DUP1 DUP3 GT ISZERO PUSH2 0x1A1B JUMPI PUSH1 0x0 DUP1 REVERT JUMPDEST POP PUSH2 0x1A28 DUP7 DUP3 DUP8 ADD PUSH2 0x148D JUMP JUMPDEST SWAP2 POP POP SWAP3 POP SWAP3 POP SWAP3 JUMP JUMPDEST PUSH4 0x4E487B71 PUSH1 0xE0 SHL PUSH1 0x0 MSTORE PUSH1 0x21 PUSH1 0x4 MSTORE PUSH1 0x24 PUSH1 0x0 REVERT JUMPDEST PUSH1 0x9 DUP2 LT PUSH2 0x1A66 JUMPI PUSH4 0x4E487B71 PUSH1 0xE0 SHL PUSH1 0x0 MSTORE PUSH1 0x21 PUSH1 0x4 MSTORE PUSH1 0x24 PUSH1 0x0 REVERT JUMPDEST SWAP1 MSTORE JUMP JUMPDEST PUSH1 0x0 PUSH1 0x20 DUP1 DUP4 ADD DUP2 DUP5 MSTORE DUP1 DUP6 MLOAD DUP1 DUP4 MSTORE PUSH1 0x40 SWAP3 POP DUP3 DUP7 ADD SWAP2 POP DUP3 DUP2 PUSH1 0x5 SHL DUP8 ADD ADD DUP5 DUP9 ADD PUSH1 0x0 JUMPDEST DUP4 DUP2 LT ISZERO PUSH2 0x1896 JUMPI DUP9 DUP4 SUB PUSH1 0x3F NOT ADD DUP6 MSTORE DUP2 MLOAD DUP1 MLOAD PUSH1 0x1 PUSH1 0x1 PUSH1 0xA0 SHL SUB AND DUP5 MSTORE PUSH2 0x120 DUP9 DUP3 ADD MLOAD PUSH2 0x1AC4 DUP11 DUP8 ADD DUP3 PUSH2 0x1A48 JUMP JUMPDEST POP DUP8 DUP3 ADD MLOAD DUP2 DUP10 DUP8 ADD MSTORE PUSH2 0x1ADA DUP3 DUP8 ADD DUP3 PUSH2 0x1632 JUMP JUMPDEST SWAP2 POP POP PUSH1 0x60 DUP1 DUP4 ADD MLOAD DUP2 DUP8 ADD MSTORE POP PUSH1 0x80 DUP1 DUP4 ADD MLOAD PUSH2 0x1AFC DUP3 DUP9 ADD DUP3 PUSH1 0xFF AND SWAP1 MSTORE JUMP JUMPDEST POP POP PUSH1 0xA0 DUP3 DUP2 ADD MLOAD PUSH1 0xFF AND SWAP1 DUP7 ADD MSTORE PUSH1 0xC0 DUP1 DUP4 ADD MLOAD ISZERO ISZERO SWAP1 DUP7 ADD MSTORE PUSH1 0xE0 DUP1 DUP4 ADD MLOAD ISZERO ISZERO SWAP1 DUP7 ADD MSTORE PUSH2 0x100 SWAP2 DUP3 ADD MLOAD SWAP2 SWAP1 SWAP5 ADD MSTORE SWAP4 DUP7 ADD SWAP4 SWAP1 DUP7 ADD SWAP1 PUSH1 0x1 ADD PUSH2 0x1A91 JUMP JUMPDEST PUSH1 0x0 DUP1 PUSH1 0x0 DUP1 PUSH1 0x80 DUP6 DUP8 SUB SLT ISZERO PUSH2 0x1B55 JUMPI PUSH1 0x0 DUP1 REVERT JUMPDEST DUP5 CALLDATALOAD SWAP4 POP PUSH2 0x1B65 PUSH1 0x20 DUP7 ADD PUSH2 0x171F JUMP JUMPDEST SWAP3 POP PUSH1 0x40 DUP6 ADD CALLDATALOAD PUSH8 0xFFFFFFFFFFFFFFFF DUP1 DUP3 GT ISZERO PUSH2 0x1B82 JUMPI PUSH1 0x0 DUP1 REVERT JUMPDEST PUSH2 0x1B8E DUP9 DUP4 DUP10 ADD PUSH2 0x148D JUMP JUMPDEST SWAP4 POP PUSH1 0x60 DUP8 ADD CALLDATALOAD SWAP2 POP DUP1 DUP3 GT ISZERO PUSH2 0x1706 JUMPI PUSH1 0x0 DUP1 REVERT JUMPDEST PUSH1 0x0 DUP1 PUSH1 0x40 DUP4 DUP6 SUB SLT ISZERO PUSH2 0x1BB7 JUMPI PUSH1 0x0 DUP1 REVERT JUMPDEST DUP3 CALLDATALOAD SWAP2 POP PUSH2 0x1BC7 PUSH1 0x20 DUP5 ADD PUSH2 0x145B JUMP JUMPDEST SWAP1 POP SWAP3 POP SWAP3 SWAP1 POP JUMP JUMPDEST DUP4 ISZERO ISZERO DUP2 MSTORE DUP3 ISZERO ISZERO PUSH1 0x20 DUP3 ADD MSTORE PUSH1 0x60 PUSH1 0x40 DUP3 ADD MSTORE PUSH1 0x0 PUSH2 0x1BF3 PUSH1 0x60 DUP4 ADD DUP5 PUSH2 0x1632 JUMP JUMPDEST SWAP6 SWAP5 POP POP POP POP POP JUMP JUMPDEST PUSH1 0x1 PUSH1 0x1 PUSH1 0xA0 SHL SUB DUP11 AND DUP2 MSTORE PUSH1 0x0 PUSH2 0x120 PUSH2 0x1C1A PUSH1 0x20 DUP5 ADD DUP13 PUSH2 0x1A48 JUMP JUMPDEST DUP1 PUSH1 0x40 DUP5 ADD MSTORE PUSH2 0x1C2C DUP2 DUP5 ADD DUP12 PUSH2 0x1632 JUMP JUMPDEST PUSH1 0x60 DUP5 ADD SWAP10 SWAP1 SWAP10 MSTORE POP POP PUSH1 0xFF SWAP6 DUP7 AND PUSH1 0x80 DUP3 ADD MSTORE SWAP4 SWAP1 SWAP5 AND PUSH1 0xA0 DUP5 ADD MSTORE SWAP1 ISZERO ISZERO PUSH1 0xC0 DUP4 ADD MSTORE ISZERO ISZERO PUSH1 0xE0 DUP3 ADD MSTORE PUSH2 0x100 ADD MSTORE SWAP4 SWAP3 POP POP POP JUMP JUMPDEST PUSH1 0x0 DUP1 PUSH1 0x0 DUP1 PUSH1 0x0 PUSH1 0xA0 DUP7 DUP9 SUB SLT ISZERO PUSH2 0x1C7C JUMPI PUSH1 0x0 DUP1 REVERT JUMPDEST PUSH2 0x1C85 DUP7 PUSH2 0x145B JUMP JUMPDEST SWAP5 POP PUSH1 0x20 DUP7 ADD CALLDATALOAD SWAP4 POP PUSH2 0x1C9A PUSH1 0x40 DUP8 ADD PUSH2 0x145B JUMP JUMPDEST SWAP3 POP PUSH1 0x60 DUP7 ADD CALLDATALOAD PUSH8 0xFFFFFFFFFFFFFFFF DUP2 GT ISZERO PUSH2 0x15CB JUMPI PUSH1 0x0 DUP1 REVERT JUMPDEST PUSH1 0x1 DUP1 PUSH1 0xA0 SHL SUB DUP6 AND DUP2 MSTORE DUP4 PUSH1 0x20 DUP3 ADD MSTORE PUSH1 0x80 PUSH1 0x40 DUP3 ADD MSTORE PUSH1 0x0 PUSH2 0x1CDD PUSH1 0x80 DUP4 ADD DUP6 PUSH2 0x1632 JUMP JUMPDEST SWAP1 POP DUP3 PUSH1 0x60 DUP4 ADD MSTORE SWAP6 SWAP5 POP POP POP POP POP JUMP JUMPDEST PUSH1 0x0 DUP3 MLOAD PUSH2 0x1D00 DUP2 DUP5 PUSH1 0x20 DUP8 ADD PUSH2 0x1602 JUMP JUMPDEST SWAP2 SWAP1 SWAP2 ADD SWAP3 SWAP2 POP POP JUMP JUMPDEST PUSH1 0x1 PUSH1 0x1 PUSH1 0xA0 SHL SUB DUP7 DUP2 AND DUP3 MSTORE DUP6 AND PUSH1 0x20 DUP3 ADD MSTORE PUSH1 0x40 DUP2 ADD DUP5 SWAP1 MSTORE PUSH1 0xA0 PUSH1 0x60 DUP3 ADD DUP2 SWAP1 MSTORE PUSH1 0x0 SWAP1 PUSH2 0x1D3D SWAP1 DUP4 ADD DUP6 PUSH2 0x1632 JUMP JUMPDEST SWAP1 POP DUP3 PUSH1 0x80 DUP4 ADD MSTORE SWAP7 SWAP6 POP POP POP POP POP POP JUMP JUMPDEST PUSH1 0x1 DUP2 DUP2 SHR SWAP1 DUP3 AND DUP1 PUSH2 0x1D63 JUMPI PUSH1 0x7F DUP3 AND SWAP2 POP JUMPDEST PUSH1 0x20 DUP3 LT DUP2 EQ ISZERO PUSH2 0x1D84 JUMPI PUSH4 0x4E487B71 PUSH1 0xE0 SHL PUSH1 0x0 MSTORE PUSH1 0x22 PUSH1 0x4 MSTORE PUSH1 0x24 PUSH1 0x0 REVERT JUMPDEST POP SWAP2 SWAP1 POP JUMP JUMPDEST PUSH1 0x1 PUSH1 0x1 PUSH1 0xA0 SHL SUB DUP6 AND DUP2 MSTORE PUSH1 0x80 PUSH1 0x20 DUP3 ADD DUP2 SWAP1 MSTORE PUSH1 0x0 SWAP1 PUSH2 0x1DAE SWAP1 DUP4 ADD DUP7 PUSH2 0x1632 JUMP JUMPDEST DUP5 PUSH1 0x40 DUP5 ADD MSTORE DUP3 DUP2 SUB PUSH1 0x60 DUP5 ADD MSTORE PUSH2 0x1DC6 DUP2 DUP6 PUSH2 0x1632 JUMP JUMPDEST SWAP8 SWAP7 POP POP POP POP POP POP POP JUMP JUMPDEST PUSH1 0x1 PUSH1 0x1 PUSH1 0xA0 SHL SUB DUP8 AND DUP2 MSTORE PUSH1 0xC0 PUSH1 0x20 DUP3 ADD DUP2 SWAP1 MSTORE PUSH1 0x0 SWAP1 PUSH2 0x1DF5 SWAP1 DUP4 ADD DUP9 PUSH2 0x1632 JUMP JUMPDEST DUP3 DUP2 SUB PUSH1 0x40 DUP5 ADD MSTORE PUSH2 0x1E07 DUP2 DUP9 PUSH2 0x1632 JUMP JUMPDEST SWAP1 POP DUP6 ISZERO ISZERO PUSH1 0x60 DUP5 ADD MSTORE DUP5 PUSH1 0x80 DUP5 ADD MSTORE DUP3 DUP2 SUB PUSH1 0xA0 DUP5 ADD MSTORE PUSH2 0x1E29 DUP2 DUP6 PUSH2 0x1632 JUMP JUMPDEST SWAP10 SWAP9 POP POP POP POP POP POP POP POP POP JUMP JUMPDEST PUSH1 0xFF DUP5 AND DUP2 MSTORE PUSH1 0x60 PUSH1 0x20 DUP3 ADD MSTORE PUSH1 0x0 PUSH2 0x1E52 PUSH1 0x60 DUP4 ADD DUP6 PUSH2 0x1632 JUMP JUMPDEST SWAP1 POP DUP3 PUSH1 0x40 DUP4 ADD MSTORE SWAP5 SWAP4 POP POP POP POP JUMP JUMPDEST PUSH1 0x60 DUP2 MSTORE PUSH1 0x0 PUSH2 0x1E75 PUSH1 0x60 DUP4 ADD DUP7 PUSH2 0x1632 JUMP JUMPDEST DUP3 DUP2 SUB PUSH1 0x20 DUP5 ADD MSTORE PUSH2 0x1E87 DUP2 DUP7 PUSH2 0x1632 JUMP JUMPDEST SWAP1 POP DUP3 DUP2 SUB PUSH1 0x40 DUP5 ADD MSTORE PUSH2 0x1E9B DUP2 DUP6 PUSH2 0x1632 JUMP JUMPDEST SWAP7 SWAP6 POP POP POP POP POP POP JUMP JUMPDEST DUP5 DUP2 MSTORE DUP4 ISZERO ISZERO PUSH1 0x20 DUP3 ADD MSTORE PUSH1 0x80 PUSH1 0x40 DUP3 ADD MSTORE PUSH1 0x0 PUSH2 0x1EC6 PUSH1 0x80 DUP4 ADD DUP6 PUSH2 0x1632 JUMP JUMPDEST DUP3 DUP2 SUB PUSH1 0x60 DUP5 ADD MSTORE PUSH2 0x1DC6 DUP2 DUP6 PUSH2 0x1632 JUMP JUMPDEST PUSH1 0x1 PUSH1 0x1 PUSH1 0xA0 SHL SUB DUP7 DUP2 AND DUP3 MSTORE PUSH1 0x20 DUP3 ADD DUP7 SWAP1 MSTORE DUP5 AND PUSH1 0x40 DUP3 ADD MSTORE PUSH1 0xA0 PUSH1 0x60 DUP3 ADD DUP2 SWAP1 MSTORE PUSH1 0x0 SWAP1 PUSH2 0x1D3D SWAP1 DUP4 ADD DUP6 PUSH2 0x1632 JUMP INVALID LOG2 PUSH5 0x6970667358 0x22 SLT KECCAK256 PUSH24 0x4DFED0272BCB445434FFD0A3C91461C5937B4B28941DD44E MSTORE MLOAD MSIZE SWAP5 0xE1 BALANCE STATICCALL PUSH5 0x736F6C6343 STOP ADDMOD 0xC STOP CALLER LOG2 PUSH5 0x6970667358 0x22 SLT KECCAK256 PUSH32 0x94DF6B6EB401C7BFF2FF22518C0909E7D232EA68DFCA68B6347769299194EC64 PUSH20 0x6F6C634300080C00330000000000000000000000 ",
  "sha1": "dec2712166db13bb8925b6bfc61cc944a9388687",
  "source": "// SPDX-License-Identifier: MIT\npragma solidity ^0.8.11;\n\nimport \"./CLHouse.sol\";\n\n\n/// @title Crypto League House Factory\n/// @notice Config, create and deploy CLHouses\n/// @dev This contract is the only way to create CLH\n/// @author Leonardo Urrego\ncontract CLFactory {\n    /// @notice Event when house is created\n    /// @param houseAddr Address of the created house\n    /// @param houseName Name of the created house\n    /// @param houseId Id on arrCLH of the created house\n    event evtHouseCreation( address houseAddr, string houseName, uint256 houseId );\n\n    /// @notice Array to store all the created houses\n\tCLHouse[] public arrCLH;\n\n    /// @notice Store the number of houses created\n    uint256 public numCLH = 0;\n\n    /// @notice Relation houseAddr with houseId\n    mapping( address => uint256 ) public mapCLHId;\n\n    /// @notice Contract with the CLH Constructor logic\n    address CLLConstructorCLH;\n\n    /// @notice Contract with the functions for user management\n    address CLLUserManagement;\n\n    /// @notice Contract with the functions for Governance\n    address CLLGovernance;\n\n    /// @notice Contract CLHouse API\n    address CLHAPI;\n\n\n    /// @notice Config the CLFactory with the CL Logic Contracts\n    /// @param _CLLUserManagement Address Contract Logic for user management\n    /// @param _CLLGovernance Address Contract Logic for governance\n    /// @param _CLLConstructorCLH Address Contract with the Constructor logic\n    /// @dev The constructor create a default CLH with the houseId #0\n    constructor(\n        address _CLLUserManagement,\n        address _CLLGovernance,\n        address _CLLConstructorCLH,\n        address _CLHAPI\n    )\n    {\n        CLLUserManagement = _CLLUserManagement;\n        CLLGovernance = _CLLGovernance;\n        CLLConstructorCLH = _CLLConstructorCLH;\n        CLHAPI = _CLHAPI;\n\n        address[] memory _ManagerWallets = new address[] ( 3 );\n        _ManagerWallets[0] = address( 0xc27480520A875bCa3874df1f533523E9ffdb1af9 ) ;\n        _ManagerWallets[1] = address( 0x012775f98FDb33656f240A97f73a61f6B8C25756 ) ;\n        _ManagerWallets[2] = address( 0xa7b59F12F19b96cc67f19eF017Cf9a0928910fD5 ) ;\n\n        CreateCLH( {\n            _houseName: \"CLH #0\",\n            _housePrivate: false,\n            _govModel: __GOV_COMMITTEE__,\n            _govRules: [ 99, 10, 51 ],\n            _ManagerWallets: _ManagerWallets,\n            _gnosisSafe: address( 0 ),\n            _signerWallet: address( 0 ),\n            _signature: \"\"\n        } );\n\n        numCLH--;\n    }\n\n\n    /// @notice Deploy a new CLHouse\n    /// @param _houseName Name of the CLH\n    /// @param _housePrivate If is set to 1, the CLH is set to private\n    /// @param _govModel keccak256 hash of the governance model, see the __GOV_* constans\n    /// @param _govRules Array for goverment rules see `enum gRule`\n    /// @param _ManagerWallets Whitelist of address for invitate as managers\n    /// @dev Some parameters wil be ignored depending on the governance model\n    function CreateCLH(\n        string memory _houseName,\n        bool _housePrivate,\n        bytes32 _govModel,\n        uint8[3] memory _govRules,\n        address[] memory _ManagerWallets,\n        address _gnosisSafe,\n        address _signerWallet,\n        bytes memory _signature\n    ) \n        public\n        returns( address )\n    {\n        CLHouse daoCLH;\n        address houseOwner = msg.sender;\n\n        require( \n            __GOV_DICTATORSHIP__ == _govModel ||\n            __GOV_COMMITTEE__ == _govModel ||\n            __GOV_SIMPLE_MAJORITY__ == _govModel ,\n            \"Invalid Governance Type\"\n        );\n\n        if( _signerWallet != address(0) ) {\n            require( _signature.length == 65, \"CreateCLH: Bad signature length\" );\n            \n            require(\n                _signerWallet == CLHouseApi( CLHAPI ).SignerOCNewCLH(\n                    _houseName,\n                    _housePrivate,\n                    _govModel,\n                    _govRules[0], // _govRuleMaxUsers,\n                    _govRules[1], // _govRuleMaxManagers,\n                    _govRules[2], // _govRuleApprovPercentage,\n                    _ManagerWallets[0],\n                    address(this),\n                    _signature\n                ),\n                \"CreateCLH: Invalid Signature\"\n            );\n\n            houseOwner = _signerWallet;\n        }\n\n        daoCLH = ( new CLHouse )\n        ( {\n            _owner: houseOwner,\n            _houseName: _houseName,\n            _housePrivate: _housePrivate,\n            _govModel: _govModel,\n            _govRules: _govRules,\n            _CLC: [ CLLUserManagement, CLLGovernance, CLLConstructorCLH, CLHAPI, _gnosisSafe ],\n            _ManagerWallets: _ManagerWallets\n        } );\n\n        address adrCLH = address( daoCLH );\n        uint256 houseId = arrCLH.length;\n        arrCLH.push( daoCLH );\n        numCLH++;\n        mapCLHId[ adrCLH ] = houseId;\n\n        emit evtHouseCreation( adrCLH, _houseName, houseId );\n        \n        return adrCLH;\n    }\n\n\n    /// @notice Return the list of all houses created by the factory\n    /// @return Array with address houses\n    function GetHouseList()\n        external\n        view\n        returns(\n            CLHouse[] memory\n        )\n    {\n        return arrCLH;\n    }\n\n\n    /// @notice List of membership houses of the one wallet address\n    /// @param _walletAddr User wallet address\n    /// @return Array with address houses\n    function GetHousesByUser(\n        address _walletAddr\n    )\n        external\n        view\n        returns(\n            address[] memory\n        )\n    {\n        address[] memory arrHouses = new address[] ( arrCLH.length );\n        uint256 indexarr = 0;\n        for( uint256 did = 1 ; did <= numCLH ; did++ )\n            if( 0 != arrCLH[ did ].mapIdUser( _walletAddr ) )\n                arrHouses[ indexarr++ ] = address( arrCLH[ did ] ) ;\n\n        return arrHouses;\n    }\n\n\n    /// @notice List of houses that have an invitation pending for a specific wallet\n    /// @param _walletAddr The user wallet address\n    /// @return Array with address houses\n    function GetInvitationsByUser(\n        address _walletAddr\n    )\n        external\n        view\n        returns(\n            address[] memory\n        )\n    {\n        address[] memory arrHouses = new address[] ( arrCLH.length );\n        uint256 indexarr = 0;\n        for( uint256 did = 1 ; did <= numCLH ; did++ )\n            if( 0 != arrCLH[ did ].mapInvitationUser( _walletAddr ) )\n                arrHouses[ indexarr++ ] = address( arrCLH[ did ] ) ;\n\n        return arrHouses;\n    }\n}",
  "sourcePath": "contracts/CLHouse/CLFactory.sol",
  "type": "contract"
}