{
  "abi": [
    {
      "inputs": [
        {
          "internalType": "address",
          "name": "_CLCMemberManagement",
          "type": "address"
        },
        {
          "internalType": "address",
          "name": "_CLCGovernance",
          "type": "address"
        },
        {
          "internalType": "address",
          "name": "_CLLConstructor",
          "type": "address"
        },
        {
          "internalType": "address",
          "name": "_APICLH",
          "type": "address"
        }
      ],
      "stateMutability": "nonpayable",
      "type": "constructor"
    },
    {
      "anonymous": false,
      "inputs": [
        {
          "indexed": false,
          "internalType": "address",
          "name": "houseAddr",
          "type": "address"
        },
        {
          "indexed": false,
          "internalType": "string",
          "name": "houseName",
          "type": "string"
        },
        {
          "indexed": false,
          "internalType": "uint256",
          "name": "houseId",
          "type": "uint256"
        }
      ],
      "name": "evtHouseCreation",
      "type": "event"
    },
    {
      "inputs": [
        {
          "internalType": "string",
          "name": "_houseName",
          "type": "string"
        },
        {
          "internalType": "bool",
          "name": "_housePrivate",
          "type": "bool"
        },
        {
          "internalType": "bytes32",
          "name": "_govModel",
          "type": "bytes32"
        },
        {
          "internalType": "uint8[3]",
          "name": "_govRules",
          "type": "uint8[3]"
        },
        {
          "internalType": "address[]",
          "name": "_whiteListWallets",
          "type": "address[]"
        },
        {
          "internalType": "address",
          "name": "_signerWallet",
          "type": "address"
        },
        {
          "internalType": "bytes",
          "name": "_signature",
          "type": "bytes"
        }
      ],
      "name": "CreateCLH",
      "outputs": [
        {
          "internalType": "address",
          "name": "",
          "type": "address"
        }
      ],
      "stateMutability": "nonpayable",
      "type": "function"
    },
    {
      "inputs": [],
      "name": "GetHouseList",
      "outputs": [
        {
          "internalType": "contract CLHouse[]",
          "name": "",
          "type": "address[]"
        }
      ],
      "stateMutability": "view",
      "type": "function"
    },
    {
      "inputs": [
        {
          "internalType": "address",
          "name": "_walletAddr",
          "type": "address"
        }
      ],
      "name": "GetHousesByUser",
      "outputs": [
        {
          "internalType": "address[]",
          "name": "",
          "type": "address[]"
        }
      ],
      "stateMutability": "view",
      "type": "function"
    },
    {
      "inputs": [
        {
          "internalType": "address",
          "name": "_walletAddr",
          "type": "address"
        }
      ],
      "name": "GetInvitationsByUser",
      "outputs": [
        {
          "internalType": "address[]",
          "name": "",
          "type": "address[]"
        }
      ],
      "stateMutability": "view",
      "type": "function"
    },
    {
      "inputs": [
        {
          "internalType": "uint256",
          "name": "",
          "type": "uint256"
        }
      ],
      "name": "arrCLH",
      "outputs": [
        {
          "internalType": "contract CLHouse",
          "name": "",
          "type": "address"
        }
      ],
      "stateMutability": "view",
      "type": "function"
    },
    {
      "inputs": [
        {
          "internalType": "address",
          "name": "",
          "type": "address"
        }
      ],
      "name": "mapCLHId",
      "outputs": [
        {
          "internalType": "uint256",
          "name": "",
          "type": "uint256"
        }
      ],
      "stateMutability": "view",
      "type": "function"
    },
    {
      "inputs": [],
      "name": "numCLH",
      "outputs": [
        {
          "internalType": "uint256",
          "name": "",
          "type": "uint256"
        }
      ],
      "stateMutability": "view",
      "type": "function"
    }
  ],
  "bytecode": "608060405260006001553480156200001657600080fd5b5060405162005ec238038062005ec2833981016040819052620000399162000521565b600480546001600160a01b038681166001600160a01b0319928316179092556005805486841690831617905560068054858416908316179055600380549284169290911691909117905560408051600180825281830190925260009160208083019080368337019050509050730d0ba7fc87166471f41fde35b1b8b704d0cbf66381600081518110620000d057620000d06200057e565b6001600160a01b0390921660209283029190910182015260408051808201825260068152650434c482023360d41b818401528151606081018352600a8152606381850152603381840152825193840190925260008084526200014c939192909160008051602062005ea28339815191529190869084906200016f565b50600180549060006200015f83620005aa565b919050555050505050506200081c565b600080337f0b93889d934070956c00846f50f9a10a747bd194bba2f2e78a86d0c02386fdb1881480620001b057508760008051602062005ea2833981519152145b80620001db5750877fa0786f6450d5fb3298b8425105c1b75e6e01a1ff86cdabea29909cdb0b4c83a7145b6200022d5760405162461bcd60e51b815260206004820152601760248201527f496e76616c696420476f7665726e616e6365205479706500000000000000000060448201526064015b60405180910390fd5b6001600160a01b03851615620003ab578351604114620002905760405162461bcd60e51b815260206004820152601c60248201527f4e6577434c483a20426164207369676e6174757265206c656e67746800000000604482015260640162000224565b6003546001600160a01b031663364ae0d88b8b8b8b600060200201518c600160200201518d600260200201518d600081518110620002d257620002d26200057e565b6020026020010151308d6040518a63ffffffff1660e01b8152600401620003029998979695949392919062000614565b602060405180830381865afa15801562000320573d6000803e3d6000fd5b505050506040513d601f19601f8201168201806040525081019062000346919062000690565b6001600160a01b0316856001600160a01b031614620003a85760405162461bcd60e51b815260206004820152601960248201527f4e6577434c483a20496e76616c6964205369676e617475726500000000000000604482015260640162000224565b50835b604080516080810182526004546001600160a01b03908116825260055481166020830152600654811682840152600354166060820152905182918c918c918c918c91908c90620003fb90620004f6565b6200040d97969594939291906200072f565b604051809103906000f0801580156200042a573d6000803e3d6000fd5b5060008054600180820183558280527f290decd9548b62a8d60345a988386fc84ba6bc95484008f6362f93160ef3e563820180546001600160a01b0319166001600160a01b0386161790558054939550859391926200048983620007c8565b90915550506001600160a01b03821660009081526002602052604090819020829055517f0717908fb0165729c0cfd8bbc622f5ede46a85e555ac30657fa94a188bca698d90620004df9084908f908590620007e6565b60405180910390a1509a9950505050505050505050565b6123b08062003af283390190565b80516001600160a01b03811681146200051c57600080fd5b919050565b600080600080608085870312156200053857600080fd5b620005438562000504565b9350620005536020860162000504565b9250620005636040860162000504565b9150620005736060860162000504565b905092959194509250565b634e487b7160e01b600052603260045260246000fd5b634e487b7160e01b600052601160045260246000fd5b600081620005bc57620005bc62000594565b506000190190565b6000815180845260005b81811015620005ec57602081850181015186830182015201620005ce565b81811115620005ff576000602083870101525b50601f01601f19169290920160200192915050565b60006101208083526200062a8184018d620005c4565b8b15156020850152604084018b905260ff8a811660608601528981166080860152881660a08501526001600160a01b0387811660c0860152861660e08501528381036101008501529050620006808185620005c4565b9c9b505050505050505050505050565b600060208284031215620006a357600080fd5b620006ae8262000504565b9392505050565b8060005b6004811015620006e35781516001600160a01b0316845260209384019390910190600101620006b9565b50505050565b600081518084526020808501945080840160005b83811015620007245781516001600160a01b031687529582019590820190600101620006fd565b509495945050505050565b6001600160a01b0388168152610180602080830182905260009190620007588483018b620005c4565b91508815156040850152876060850152608084018760005b60038110156200079257815160ff168352918301919083019060010162000770565b50505050620007a560e0840186620006b5565b828103610160840152620007ba8185620006e9565b9a9950505050505050505050565b6000600019821415620007df57620007df62000594565b5060010190565b6001600160a01b03841681526060602082018190526000906200080c90830185620005c4565b9050826040830152949350505050565b6132c6806200082c6000396000f3fe60806040523480156200001157600080fd5b5060043610620000875760003560e01c806356ec9fff116200006257806356ec9fff14620001105780637ddb31a31462000136578063ac53c485146200014d578063ee7a7d1b146200016457600080fd5b8063132dcce7146200008c5780633195ce7414620000ae578063535210db14620000e0575b600080fd5b620000966200016e565b604051620000a591906200089c565b60405180910390f35b620000d1620000bf36600462000916565b60026020526000908152604090205481565b604051908152602001620000a5565b620000f7620000f136600462000b33565b620001d2565b6040516001600160a01b039091168152602001620000a5565b620001276200012136600462000916565b6200056a565b604051620000a5919062000c68565b620001276200014736600462000916565b620006eb565b620000f76200015e36600462000c7d565b62000863565b620000d160015481565b60606000805480602002602001604051908101604052809291908181526020018280548015620001c857602002820191906000526020600020905b81546001600160a01b03168152600190910190602001808311620001a9575b5050505050905090565b600080337f0b93889d934070956c00846f50f9a10a747bd194bba2f2e78a86d0c02386fdb1881480620002245750877f16591a696fee5867425b3dee9fc0160a6c1baef77835bc3d204314106d639298145b806200024f5750877fa0786f6450d5fb3298b8425105c1b75e6e01a1ff86cdabea29909cdb0b4c83a7145b620002a15760405162461bcd60e51b815260206004820152601760248201527f496e76616c696420476f7665726e616e6365205479706500000000000000000060448201526064015b60405180910390fd5b6001600160a01b038516156200041f578351604114620003045760405162461bcd60e51b815260206004820152601c60248201527f4e6577434c483a20426164207369676e6174757265206c656e67746800000000604482015260640162000298565b6003546001600160a01b031663364ae0d88b8b8b8b600060200201518c600160200201518d600260200201518d60008151811062000346576200034662000c97565b6020026020010151308d6040518a63ffffffff1660e01b8152600401620003769998979695949392919062000cfd565b602060405180830381865afa15801562000394573d6000803e3d6000fd5b505050506040513d601f19601f82011682018060405250810190620003ba919062000d79565b6001600160a01b0316856001600160a01b0316146200041c5760405162461bcd60e51b815260206004820152601960248201527f4e6577434c483a20496e76616c6964205369676e617475726500000000000000604482015260640162000298565b50835b604080516080810182526004546001600160a01b03908116825260055481166020830152600654811682840152600354166060820152905182918c918c918c918c91908c906200046f906200088e565b62000481979695949392919062000dcd565b604051809103906000f0801580156200049e573d6000803e3d6000fd5b5060008054600180820183558280527f290decd9548b62a8d60345a988386fc84ba6bc95484008f6362f93160ef3e563820180546001600160a01b0319166001600160a01b038616179055805493955085939192620004fd8362000e66565b90915550506001600160a01b03821660009081526002602052604090819020829055517f0717908fb0165729c0cfd8bbc622f5ede46a85e555ac30657fa94a188bca698d90620005539084908f90859062000e90565b60405180910390a1509a9950505050505050505050565b600080546060919067ffffffffffffffff8111156200058d576200058d6200093d565b604051908082528060200260200182016040528015620005b7578160200160208202803683370190505b509050600060015b6001548111620006e25760008181548110620005df57620005df62000c97565b6000918252602090912001546040516399db7fb360e01b81526001600160a01b038781166004830152909116906399db7fb390602401602060405180830381865afa15801562000633573d6000803e3d6000fd5b505050506040513d601f19601f8201168201806040525081019062000659919062000ec6565b15620006cd576000818154811062000675576200067562000c97565b6000918252602090912001546001600160a01b03168383620006978162000e66565b945081518110620006ac57620006ac62000c97565b60200260200101906001600160a01b031690816001600160a01b0316815250505b80620006d98162000e66565b915050620005bf565b50909392505050565b600080546060919067ffffffffffffffff8111156200070e576200070e6200093d565b60405190808252806020026020018201604052801562000738578160200160208202803683370190505b509050600060015b6001548111620006e2576000818154811062000760576200076062000c97565b6000918252602090912001546040516309c57df760e01b81526001600160a01b038781166004830152909116906309c57df790602401602060405180830381865afa158015620007b4573d6000803e3d6000fd5b505050506040513d601f19601f82011682018060405250810190620007da919062000ec6565b156200084e5760008181548110620007f657620007f662000c97565b6000918252602090912001546001600160a01b03168383620008188162000e66565b9450815181106200082d576200082d62000c97565b60200260200101906001600160a01b031690816001600160a01b0316815250505b806200085a8162000e66565b91505062000740565b600081815481106200087457600080fd5b6000918252602090912001546001600160a01b0316905081565b6123b08062000ee183390190565b6020808252825182820181905260009190848201906040850190845b81811015620008df5783516001600160a01b031683529284019291840191600101620008b8565b50909695505050505050565b6001600160a01b03811681146200090157600080fd5b50565b80356200091181620008eb565b919050565b6000602082840312156200092957600080fd5b81356200093681620008eb565b9392505050565b634e487b7160e01b600052604160045260246000fd5b604051601f8201601f1916810167ffffffffffffffff811182821017156200097f576200097f6200093d565b604052919050565b600067ffffffffffffffff831115620009a457620009a46200093d565b620009b9601f8401601f191660200162000953565b9050828152838383011115620009ce57600080fd5b828260208301376000602084830101529392505050565b803580151581146200091157600080fd5b600082601f83011262000a0857600080fd5b6040516060810181811067ffffffffffffffff8211171562000a2e5762000a2e6200093d565b60405280606084018581111562000a4457600080fd5b845b8181101562000a7157803560ff8116811462000a625760008081fd5b83526020928301920162000a46565b509195945050505050565b600082601f83011262000a8e57600080fd5b8135602067ffffffffffffffff82111562000aad5762000aad6200093d565b8160051b62000abe82820162000953565b928352848101820192828101908785111562000ad957600080fd5b83870192505b8483101562000b0557823562000af581620008eb565b8252918301919083019062000adf565b979650505050505050565b600082601f83011262000b2257600080fd5b620009368383356020850162000987565b6000806000806000806000610120888a03121562000b5057600080fd5b873567ffffffffffffffff8082111562000b6957600080fd5b818a0191508a601f83011262000b7e57600080fd5b62000b8f8b83356020850162000987565b985062000b9f60208b01620009e5565b975060408a0135965062000bb78b60608c01620009f6565b955060c08a013591508082111562000bce57600080fd5b62000bdc8b838c0162000a7c565b945062000bec60e08b0162000904565b93506101008a013591508082111562000c0457600080fd5b5062000c138a828b0162000b10565b91505092959891949750929550565b600081518084526020808501945080840160005b8381101562000c5d5781516001600160a01b03168752958201959082019060010162000c36565b509495945050505050565b60208152600062000936602083018462000c22565b60006020828403121562000c9057600080fd5b5035919050565b634e487b7160e01b600052603260045260246000fd5b6000815180845260005b8181101562000cd55760208185018101518683018201520162000cb7565b8181111562000ce8576000602083870101525b50601f01601f19169290920160200192915050565b600061012080835262000d138184018d62000cad565b8b15156020850152604084018b905260ff8a811660608601528981166080860152881660a08501526001600160a01b0387811660c0860152861660e0850152838103610100850152905062000d69818562000cad565b9c9b505050505050505050505050565b60006020828403121562000d8c57600080fd5b81516200093681620008eb565b8060005b600481101562000dc75781516001600160a01b031684526020938401939091019060010162000d9d565b50505050565b6001600160a01b038816815261018060208083018290526000919062000df68483018b62000cad565b91508815156040850152876060850152608084018760005b600381101562000e3057815160ff168352918301919083019060010162000e0e565b5050505062000e4360e084018662000d99565b82810361016084015262000e58818562000c22565b9a9950505050505050505050565b600060001982141562000e8957634e487b7160e01b600052601160045260246000fd5b5060010190565b6001600160a01b038416815260606020820181905260009062000eb69083018562000cad565b9050826040830152949350505050565b60006020828403121562000ed957600080fd5b505191905056fe60806040523480156200001157600080fd5b50604051620023b0380380620023b0833981016040819052620000349162000387565b60008083600260200201516001600160a01b0316898989898960405180606001604052808b6000600481106200006e576200006e620004a6565b602090810291909101516001600160a01b0390811683528d82015181169183019190915260608d01511660409182015251620000b5969594939291908b9060240162000530565b60408051601f198184030181529181526020820180516001600160e01b031663e68ea1fd60e01b17905251620000ec9190620005e5565b600060405180830381855af49150503d806000811462000129576040519150601f19603f3d011682016040523d82523d6000602084013e6200012e565b606091505b50915091508162000146576040513d806000833e8082fd5b50505050505050505062000603565b80516001600160a01b03811681146200016d57600080fd5b919050565b634e487b7160e01b600052604160045260246000fd5b604051601f8201601f191681016001600160401b0381118282101715620001b357620001b362000172565b604052919050565b60005b83811015620001d8578181015183820152602001620001be565b83811115620001e8576000848401525b50505050565b805180151581146200016d57600080fd5b600082601f8301126200021157600080fd5b604051606081016001600160401b038111828210171562000236576200023662000172565b6040528060608401858111156200024c57600080fd5b845b818110156200027957805160ff811681146200026a5760008081fd5b8352602092830192016200024e565b509195945050505050565b600082601f8301126200029657600080fd5b604051608081016001600160401b0381118282101715620002bb57620002bb62000172565b604052806080840185811115620002d157600080fd5b845b818110156200027957620002e78162000155565b835260209283019201620002d3565b600082601f8301126200030857600080fd5b815160206001600160401b0382111562000326576200032662000172565b8160051b6200033782820162000188565b92835284810182019282810190878511156200035257600080fd5b83870192505b848310156200037c576200036c8362000155565b8252918301919083019062000358565b979650505050505050565b6000806000806000806000610180888a031215620003a457600080fd5b620003af8862000155565b60208901519097506001600160401b0380821115620003cd57600080fd5b818a0191508a601f830112620003e257600080fd5b815181811115620003f757620003f762000172565b6200040c601f8201601f191660200162000188565b8181528c60208386010111156200042257600080fd5b62000435826020830160208701620001bb565b985062000447905060408b01620001ee565b965060608a015195506200045f8b60808c01620001ff565b9450620004708b60e08c0162000284565b93506101608a01519150808211156200048857600080fd5b50620004978a828b01620002f6565b91505092959891949750929550565b634e487b7160e01b600052603260045260246000fd5b8060005b6003811015620001e85781516001600160a01b0316845260209384019390910190600101620004c0565b600081518084526020808501945080840160005b83811015620005255781516001600160a01b031687529582019590820190600101620004fe565b509495945050505050565b6001600160a01b038816815261016060208083018290528851918301829052600091610180919062000568818487018d8501620001bb565b891515604086015260608501899052601f01601f19168401608085018860005b6003811015620005aa57815160ff168352918401919084019060010162000588565b505050620005bc60e0860188620004bc565b8285820301610140860152620005d583820187620004ea565b9c9b505050505050505050505050565b60008251620005f9818460208701620001bb565b9190910192915050565b611d9d80620006136000396000f3fe608060405234801561001057600080fd5b50600436106102115760003560e01c8063824c88da11610125578063baa4d5e9116100ad578063cb85669c1161007c578063cb85669c1461050f578063da9bca2114610537578063de5ab14e14610544578063f00d627414610557578063f65bbcde1461056d57600080fd5b8063baa4d5e914610462578063bb3a9065146104a8578063c2b3aa08146104ca578063c347d2fd146104ed57600080fd5b806399db7fb3116100f457806399db7fb3146103f35780639c630a8814610413578063a19a5f5014610426578063ab44997b14610439578063b4c621921461044d57600080fd5b8063824c88da146103a25780638532cbf7146103aa5780638668eafc146103ce5780639360bfad146103e057600080fd5b806334b8bb6c116101a85780635f3d99b3116101775780635f3d99b3146103335780636c2f34e71461035457806370acb761146103675780637c6385481461037a57806381cf22d81461038d57600080fd5b806334b8bb6c146102f05780633a70693d146103035780634e9d54721461031657806359ca2d031461031e57600080fd5b8063152de3b9116101e4578063152de3b9146102ae5780631d5fd3ca146102c15780631f50dd27146102ca5780632266e1bc146102dd57600080fd5b806304f17a9b14610216578063052f9b0a1461023c57806305fe66631461026757806309c57df71461028e575b600080fd5b6102296102243660046113fa565b610580565b6040519081526020015b60405180910390f35b60075461024f906001600160a01b031681565b6040516001600160a01b039091168152602001610233565b60015461027c90640100000000900460ff1681565b60405160ff9091168152602001610233565b61022961029c366004611459565b600a6020526000908152604090205481565b6102296102bc36600461147b565b61063b565b61022960045481565b60085461024f906001600160a01b031681565b6102296102eb3660046113fa565b61069d565b6102296102fe3660046114fb565b6106fd565b61027c6103113660046115ad565b6107c7565b600c54610229565b6103266107eb565b604051610233919061161e565b6103466103413660046115ad565b610879565b604051610233929190611631565b60055461024f906001600160a01b031681565b610229610375366004611654565b61096e565b6102296103883660046113fa565b610a2f565b6103a061039b3660046116b3565b610af3565b005b601054610229565b6103bd6103b83660046115ad565b610bba565b604051610233959493929190611701565b60015461027c90610100900460ff1681565b60065461024f906001600160a01b031681565b610229610401366004611459565b60096020526000908152604090205481565b60015461027c9062010000900460ff1681565b610229610434366004611744565b610c95565b60015461027c906301000000900460ff1681565b610455610cf3565b6040516102339190611804565b6104756104703660046115ad565b610e81565b604080516001600160a01b0395861681526020810194909452918416918301919091529091166060820152608001610233565b6104bb6104b63660046115ad565b610ec9565b604051610233939291906118e7565b6104dd6104d836600461191d565b610f94565b6040519015158152602001610233565b6105006104fb36600461199b565b611058565b604051610233939291906119c7565b61052261051d3660046115ad565b611115565b604051610233999897969594939291906119f3565b60015461027c9060ff1681565b610229610552366004611a5b565b611214565b6001546104dd9065010000000000900460ff1681565b61022961057b366004611aad565b6112db565b600254604051600091829182916001600160a01b0316906105ab908990899089908990602401611b12565b60408051601f198184030181529181526020820180516001600160e01b03166304f17a9b60e01b179052516105e09190611b4a565b600060405180830381855af49150503d806000811461061b576040519150601f19603f3d011682016040523d82523d6000602084013e610620565b606091505b50915091506040513d806000833e83610637578082fd5b8082f35b600254604051600091829182916001600160a01b031690610668908a908a908a908a908a90602401611b66565b60408051601f198184030181529181526020820180516001600160e01b031663152de3b960e01b179052516105e09190611b4a565b600254604051600091829182916001600160a01b0316906106c8908990899089908990602401611b12565b60408051601f198184030181529181526020820180516001600160e01b0316630899b86f60e21b179052516105e09190611b4a565b600254604051600091829182916001600160a01b03169061072c908b908b908b908b908b908b90602401611bab565b60408051601f198184030181529181526020820180516001600160e01b0316630d2e2edb60e21b179052516107619190611b4a565b600060405180830381855af49150503d806000811461079c576040519150601f19603f3d011682016040523d82523d6000602084013e6107a1565b606091505b50915091506040513d806000833e836107b8578082fd5b50519998505050505050505050565b600f81815481106107d757600080fd5b60009182526020909120015460ff16905081565b600080546107f890611c10565b80601f016020809104026020016040519081016040528092919081815260200182805461082490611c10565b80156108715780601f1061084657610100808354040283529160200191610871565b820191906000526020600020905b81548152906001019060200180831161085457829003601f168201915b505050505081565b60025460405160248101839052600091606091839182916001600160a01b039091169060440160408051601f198184030181529181526020820180516001600160e01b0316634eeb7b8560e01b179052516108d49190611b4a565b600060405180830381855af49150503d806000811461090f576040519150601f19603f3d011682016040523d82523d6000602084013e610914565b606091505b50915091508161092b576040513d806000833e8082fd5b60016040518060400160405280601981526020017f537563636573732065786563757465642070726f706f73616c00000000000000815250935093505050915091565b600254604051600091829182916001600160a01b03169061099790889088908890602401611c4b565b60408051601f198184030181529181526020820180516001600160e01b03166370acb76160e01b179052516109cc9190611b4a565b600060405180830381855af49150503d8060008114610a07576040519150601f19603f3d011682016040523d82523d6000602084013e610a0c565b606091505b50915091506040513d806000833e83610a23578082fd5b50519695505050505050565b600254604051600091829182916001600160a01b031690610a5a908990899089908990602401611b12565b60408051601f198184030181529181526020820180516001600160e01b0316630f8c70a960e31b17905251610a8f9190611b4a565b600060405180830381855af49150503d8060008114610aca576040519150601f19603f3d011682016040523d82523d6000602084013e610acf565b606091505b50915091506040513d806000833e83610ae6578082fd5b5051979650505050505050565b600080600160069054906101000a90046001600160a01b03166001600160a01b03168484604051602401610b28929190611631565b60408051601f198184030181529181526020820180516001600160e01b0316631039e45b60e31b17905251610b5d9190611b4a565b600060405180830381855af49150503d8060008114610b98576040519150601f19603f3d011682016040523d82523d6000602084013e610b9d565b606091505b509150915081610bb4576040513d806000833e8082fd5b50505050565b60108181548110610bca57600080fd5b6000918252602090912060049091020180546001820180546001600160a01b03909216935090610bf990611c10565b80601f0160208091040260200160405190810160405280929190818152602001828054610c2590611c10565b8015610c725780601f10610c4757610100808354040283529160200191610c72565b820191906000526020600020905b815481529060010190602001808311610c5557829003601f168201915b50505050600283015460039093015491929160ff80821692506101009091041685565b600254604051600091829182916001600160a01b031690610cbe90889088908890602401611c77565b60408051601f198184030181529181526020820180516001600160e01b0316630a19a5f560e41b179052516105e09190611b4a565b6060600c805480602002602001604051908101604052809291908181526020016000905b82821015610e785760008481526020908190206040805161012081019091526005850290910180546001600160a01b03811683529192909190830190600160a01b900460ff166008811115610d6e57610d6e6117cc565b6008811115610d7f57610d7f6117cc565b8152602001600182018054610d9390611c10565b80601f0160208091040260200160405190810160405280929190818152602001828054610dbf90611c10565b8015610e0c5780601f10610de157610100808354040283529160200191610e0c565b820191906000526020600020905b815481529060010190602001808311610def57829003601f168201915b50505091835250506002820154602080830191909152600383015460ff8082166040850152610100820481166060850152620100008204811615156080850152630100000090910416151560a083015260049092015460c0909101529082526001929092019101610d17565b50505050905090565b600e8181548110610e9157600080fd5b600091825260209091206004909102018054600182015460028301546003909301546001600160a01b03928316945090928216911684565b600d8181548110610ed957600080fd5b6000918252602090912060039091020180546001820180546001600160a01b03909216935090610f0890611c10565b80601f0160208091040260200160405190810160405280929190818152602001828054610f3490611c10565b8015610f815780601f10610f5657610100808354040283529160200191610f81565b820191906000526020600020905b815481529060010190602001808311610f6457829003601f168201915b5050506002909301549192505060ff1683565b600254604051600091829182916001600160a01b031690610fbf908990899089908990602401611cba565b60408051601f198184030181529181526020820180516001600160e01b0316639e803dfb60e01b17905251610ff49190611b4a565b600060405180830381855af49150503d806000811461102f576040519150601f19603f3d011682016040523d82523d6000602084013e611034565b606091505b50915091508161104b576040513d806000833e8082fd5b5060019695505050505050565b600b6020908152600092835260408084209091529082529020805460018201805460ff808416946101009094041692919061109290611c10565b80601f01602080910402602001604051908101604052809291908181526020018280546110be90611c10565b801561110b5780601f106110e05761010080835404028352916020019161110b565b820191906000526020600020905b8154815290600101906020018083116110ee57829003601f168201915b5050505050905083565b600c818154811061112557600080fd5b6000918252602090912060059091020180546001820180546001600160a01b0383169450600160a01b90920460ff16929161115f90611c10565b80601f016020809104026020016040519081016040528092919081815260200182805461118b90611c10565b80156111d85780601f106111ad576101008083540402835291602001916111d8565b820191906000526020600020905b8154815290600101906020018083116111bb57829003601f168201915b505050600284015460038501546004909501549394909360ff808316945061010083048116935062010000830481169263010000009004169089565b600254604051600091829182916001600160a01b031690611241908a908a908a908a908a90602401611cf8565b60408051601f198184030181529181526020820180516001600160e01b0316636f2d58a760e11b179052516112769190611b4a565b600060405180830381855af49150503d80600081146112b1576040519150601f19603f3d011682016040523d82523d6000602084013e6112b6565b606091505b50915091506040513d806000833e836112cd578082fd5b505198975050505050505050565b600254604051600091829182916001600160a01b031690611306908990899089908990602401611d2b565b60408051601f198184030181529181526020820180516001600160e01b0316637b2dde6f60e11b17905251610a8f9190611b4a565b80356001600160a01b038116811461135257600080fd5b919050565b634e487b7160e01b600052604160045260246000fd5b600082601f83011261137e57600080fd5b813567ffffffffffffffff8082111561139957611399611357565b604051601f8301601f19908116603f011681019082821181831017156113c1576113c1611357565b816040528381528660208588010111156113da57600080fd5b836020870160208301376000602085830101528094505050505092915050565b6000806000806080858703121561141057600080fd5b6114198561133b565b935060208501359250604085013567ffffffffffffffff81111561143c57600080fd5b6114488782880161136d565b949793965093946060013593505050565b60006020828403121561146b57600080fd5b6114748261133b565b9392505050565b600080600080600060a0868803121561149357600080fd5b61149c8661133b565b94506114aa6020870161133b565b935060408601359250606086013567ffffffffffffffff8111156114cd57600080fd5b6114d98882890161136d565b95989497509295608001359392505050565b8035801515811461135257600080fd5b60008060008060008060c0878903121561151457600080fd5b61151d8761133b565b9550602087013567ffffffffffffffff8082111561153a57600080fd5b6115468a838b0161136d565b9650604089013591508082111561155c57600080fd5b6115688a838b0161136d565b955061157660608a016114eb565b94506080890135935060a089013591508082111561159357600080fd5b506115a089828a0161136d565b9150509295509295509295565b6000602082840312156115bf57600080fd5b5035919050565b60005b838110156115e15781810151838201526020016115c9565b83811115610bb45750506000910152565b6000815180845261160a8160208601602086016115c6565b601f01601f19169290920160200192915050565b60208152600061147460208301846115f2565b821515815260406020820152600061164c60408301846115f2565b949350505050565b60008060006060848603121561166957600080fd5b833560ff8116811461167a57600080fd5b9250602084013567ffffffffffffffff81111561169657600080fd5b6116a28682870161136d565b925050604084013590509250925092565b600080604083850312156116c657600080fd5b6116cf836114eb565b9150602083013567ffffffffffffffff8111156116eb57600080fd5b6116f78582860161136d565b9150509250929050565b6001600160a01b038616815260a060208201819052600090611725908301876115f2565b6040830195909552509115156060830152151560809091015292915050565b60008060006060848603121561175957600080fd5b833567ffffffffffffffff8082111561177157600080fd5b61177d8783880161136d565b9450602086013591508082111561179357600080fd5b61179f8783880161136d565b935060408601359150808211156117b557600080fd5b506117c28682870161136d565b9150509250925092565b634e487b7160e01b600052602160045260246000fd5b6009811061180057634e487b7160e01b600052602160045260246000fd5b9052565b60006020808301818452808551808352604092508286019150828160051b87010184880160005b838110156118d957888303603f19018552815180516001600160a01b031684526101208882015161185e8a8701826117e2565b50878201518189870152611874828701826115f2565b91505060608083015181870152506080808301516118968288018260ff169052565b505060a08281015160ff169086015260c08083015115159086015260e080830151151590860152610100918201519190940152938601939086019060010161182b565b509098975050505050505050565b6001600160a01b038416815260606020820181905260009061190b908301856115f2565b90508215156040830152949350505050565b6000806000806080858703121561193357600080fd5b84359350611943602086016114eb565b9250604085013567ffffffffffffffff8082111561196057600080fd5b61196c8883890161136d565b9350606087013591508082111561198257600080fd5b5061198f8782880161136d565b91505092959194509250565b600080604083850312156119ae57600080fd5b823591506119be6020840161133b565b90509250929050565b831515815282151560208201526060604082015260006119ea60608301846115f2565b95945050505050565b6001600160a01b038a1681526000610120611a11602084018c6117e2565b806040840152611a238184018b6115f2565b6060840199909952505060ff95861660808201529390941660a084015290151560c0830152151560e082015261010001529392505050565b600080600080600060a08688031215611a7357600080fd5b611a7c8661133b565b945060208601359350611a916040870161133b565b9250606086013567ffffffffffffffff8111156114cd57600080fd5b60008060008060808587031215611ac357600080fd5b611acc8561133b565b9350602085013567ffffffffffffffff80821115611ae957600080fd5b611af58883890161136d565b945060408701359350606087013591508082111561198257600080fd5b60018060a01b0385168152836020820152608060408201526000611b3960808301856115f2565b905082606083015295945050505050565b60008251611b5c8184602087016115c6565b9190910192915050565b6001600160a01b038681168252851660208201526040810184905260a060608201819052600090611b99908301856115f2565b90508260808301529695505050505050565b6001600160a01b038716815260c060208201819052600090611bcf908301886115f2565b8281036040840152611be181886115f2565b9050851515606084015284608084015282810360a0840152611c0381856115f2565b9998505050505050505050565b600181811c90821680611c2457607f821691505b60208210811415611c4557634e487b7160e01b600052602260045260246000fd5b50919050565b60ff84168152606060208201526000611c6760608301856115f2565b9050826040830152949350505050565b606081526000611c8a60608301866115f2565b8281036020840152611c9c81866115f2565b90508281036040840152611cb081856115f2565b9695505050505050565b8481528315156020820152608060408201526000611cdb60808301856115f2565b8281036060840152611ced81856115f2565b979650505050505050565b6001600160a01b038681168252602082018690528416604082015260a060608201819052600090611b99908301856115f2565b6001600160a01b0385168152608060208201819052600090611d4f908301866115f2565b8460408401528281036060840152611ced81856115f256fea2646970667358221220b46cc53956743d56e1ea257330f72612297e106b339223cf5dfb478e28d8d44464736f6c634300080c0033a2646970667358221220340ffcd64f55601fb876e1dd19ec51592015476fa638c569b62b39196da09f9464736f6c634300080c003360806040523480156200001157600080fd5b50604051620023b0380380620023b0833981016040819052620000349162000387565b60008083600260200201516001600160a01b0316898989898960405180606001604052808b6000600481106200006e576200006e620004a6565b602090810291909101516001600160a01b0390811683528d82015181169183019190915260608d01511660409182015251620000b5969594939291908b9060240162000530565b60408051601f198184030181529181526020820180516001600160e01b031663e68ea1fd60e01b17905251620000ec9190620005e5565b600060405180830381855af49150503d806000811462000129576040519150601f19603f3d011682016040523d82523d6000602084013e6200012e565b606091505b50915091508162000146576040513d806000833e8082fd5b50505050505050505062000603565b80516001600160a01b03811681146200016d57600080fd5b919050565b634e487b7160e01b600052604160045260246000fd5b604051601f8201601f191681016001600160401b0381118282101715620001b357620001b362000172565b604052919050565b60005b83811015620001d8578181015183820152602001620001be565b83811115620001e8576000848401525b50505050565b805180151581146200016d57600080fd5b600082601f8301126200021157600080fd5b604051606081016001600160401b038111828210171562000236576200023662000172565b6040528060608401858111156200024c57600080fd5b845b818110156200027957805160ff811681146200026a5760008081fd5b8352602092830192016200024e565b509195945050505050565b600082601f8301126200029657600080fd5b604051608081016001600160401b0381118282101715620002bb57620002bb62000172565b604052806080840185811115620002d157600080fd5b845b818110156200027957620002e78162000155565b835260209283019201620002d3565b600082601f8301126200030857600080fd5b815160206001600160401b0382111562000326576200032662000172565b8160051b6200033782820162000188565b92835284810182019282810190878511156200035257600080fd5b83870192505b848310156200037c576200036c8362000155565b8252918301919083019062000358565b979650505050505050565b6000806000806000806000610180888a031215620003a457600080fd5b620003af8862000155565b60208901519097506001600160401b0380821115620003cd57600080fd5b818a0191508a601f830112620003e257600080fd5b815181811115620003f757620003f762000172565b6200040c601f8201601f191660200162000188565b8181528c60208386010111156200042257600080fd5b62000435826020830160208701620001bb565b985062000447905060408b01620001ee565b965060608a015195506200045f8b60808c01620001ff565b9450620004708b60e08c0162000284565b93506101608a01519150808211156200048857600080fd5b50620004978a828b01620002f6565b91505092959891949750929550565b634e487b7160e01b600052603260045260246000fd5b8060005b6003811015620001e85781516001600160a01b0316845260209384019390910190600101620004c0565b600081518084526020808501945080840160005b83811015620005255781516001600160a01b031687529582019590820190600101620004fe565b509495945050505050565b6001600160a01b038816815261016060208083018290528851918301829052600091610180919062000568818487018d8501620001bb565b891515604086015260608501899052601f01601f19168401608085018860005b6003811015620005aa57815160ff168352918401919084019060010162000588565b505050620005bc60e0860188620004bc565b8285820301610140860152620005d583820187620004ea565b9c9b505050505050505050505050565b60008251620005f9818460208701620001bb565b9190910192915050565b611d9d80620006136000396000f3fe608060405234801561001057600080fd5b50600436106102115760003560e01c8063824c88da11610125578063baa4d5e9116100ad578063cb85669c1161007c578063cb85669c1461050f578063da9bca2114610537578063de5ab14e14610544578063f00d627414610557578063f65bbcde1461056d57600080fd5b8063baa4d5e914610462578063bb3a9065146104a8578063c2b3aa08146104ca578063c347d2fd146104ed57600080fd5b806399db7fb3116100f457806399db7fb3146103f35780639c630a8814610413578063a19a5f5014610426578063ab44997b14610439578063b4c621921461044d57600080fd5b8063824c88da146103a25780638532cbf7146103aa5780638668eafc146103ce5780639360bfad146103e057600080fd5b806334b8bb6c116101a85780635f3d99b3116101775780635f3d99b3146103335780636c2f34e71461035457806370acb761146103675780637c6385481461037a57806381cf22d81461038d57600080fd5b806334b8bb6c146102f05780633a70693d146103035780634e9d54721461031657806359ca2d031461031e57600080fd5b8063152de3b9116101e4578063152de3b9146102ae5780631d5fd3ca146102c15780631f50dd27146102ca5780632266e1bc146102dd57600080fd5b806304f17a9b14610216578063052f9b0a1461023c57806305fe66631461026757806309c57df71461028e575b600080fd5b6102296102243660046113fa565b610580565b6040519081526020015b60405180910390f35b60075461024f906001600160a01b031681565b6040516001600160a01b039091168152602001610233565b60015461027c90640100000000900460ff1681565b60405160ff9091168152602001610233565b61022961029c366004611459565b600a6020526000908152604090205481565b6102296102bc36600461147b565b61063b565b61022960045481565b60085461024f906001600160a01b031681565b6102296102eb3660046113fa565b61069d565b6102296102fe3660046114fb565b6106fd565b61027c6103113660046115ad565b6107c7565b600c54610229565b6103266107eb565b604051610233919061161e565b6103466103413660046115ad565b610879565b604051610233929190611631565b60055461024f906001600160a01b031681565b610229610375366004611654565b61096e565b6102296103883660046113fa565b610a2f565b6103a061039b3660046116b3565b610af3565b005b601054610229565b6103bd6103b83660046115ad565b610bba565b604051610233959493929190611701565b60015461027c90610100900460ff1681565b60065461024f906001600160a01b031681565b610229610401366004611459565b60096020526000908152604090205481565b60015461027c9062010000900460ff1681565b610229610434366004611744565b610c95565b60015461027c906301000000900460ff1681565b610455610cf3565b6040516102339190611804565b6104756104703660046115ad565b610e81565b604080516001600160a01b0395861681526020810194909452918416918301919091529091166060820152608001610233565b6104bb6104b63660046115ad565b610ec9565b604051610233939291906118e7565b6104dd6104d836600461191d565b610f94565b6040519015158152602001610233565b6105006104fb36600461199b565b611058565b604051610233939291906119c7565b61052261051d3660046115ad565b611115565b604051610233999897969594939291906119f3565b60015461027c9060ff1681565b610229610552366004611a5b565b611214565b6001546104dd9065010000000000900460ff1681565b61022961057b366004611aad565b6112db565b600254604051600091829182916001600160a01b0316906105ab908990899089908990602401611b12565b60408051601f198184030181529181526020820180516001600160e01b03166304f17a9b60e01b179052516105e09190611b4a565b600060405180830381855af49150503d806000811461061b576040519150601f19603f3d011682016040523d82523d6000602084013e610620565b606091505b50915091506040513d806000833e83610637578082fd5b8082f35b600254604051600091829182916001600160a01b031690610668908a908a908a908a908a90602401611b66565b60408051601f198184030181529181526020820180516001600160e01b031663152de3b960e01b179052516105e09190611b4a565b600254604051600091829182916001600160a01b0316906106c8908990899089908990602401611b12565b60408051601f198184030181529181526020820180516001600160e01b0316630899b86f60e21b179052516105e09190611b4a565b600254604051600091829182916001600160a01b03169061072c908b908b908b908b908b908b90602401611bab565b60408051601f198184030181529181526020820180516001600160e01b0316630d2e2edb60e21b179052516107619190611b4a565b600060405180830381855af49150503d806000811461079c576040519150601f19603f3d011682016040523d82523d6000602084013e6107a1565b606091505b50915091506040513d806000833e836107b8578082fd5b50519998505050505050505050565b600f81815481106107d757600080fd5b60009182526020909120015460ff16905081565b600080546107f890611c10565b80601f016020809104026020016040519081016040528092919081815260200182805461082490611c10565b80156108715780601f1061084657610100808354040283529160200191610871565b820191906000526020600020905b81548152906001019060200180831161085457829003601f168201915b505050505081565b60025460405160248101839052600091606091839182916001600160a01b039091169060440160408051601f198184030181529181526020820180516001600160e01b0316634eeb7b8560e01b179052516108d49190611b4a565b600060405180830381855af49150503d806000811461090f576040519150601f19603f3d011682016040523d82523d6000602084013e610914565b606091505b50915091508161092b576040513d806000833e8082fd5b60016040518060400160405280601981526020017f537563636573732065786563757465642070726f706f73616c00000000000000815250935093505050915091565b600254604051600091829182916001600160a01b03169061099790889088908890602401611c4b565b60408051601f198184030181529181526020820180516001600160e01b03166370acb76160e01b179052516109cc9190611b4a565b600060405180830381855af49150503d8060008114610a07576040519150601f19603f3d011682016040523d82523d6000602084013e610a0c565b606091505b50915091506040513d806000833e83610a23578082fd5b50519695505050505050565b600254604051600091829182916001600160a01b031690610a5a908990899089908990602401611b12565b60408051601f198184030181529181526020820180516001600160e01b0316630f8c70a960e31b17905251610a8f9190611b4a565b600060405180830381855af49150503d8060008114610aca576040519150601f19603f3d011682016040523d82523d6000602084013e610acf565b606091505b50915091506040513d806000833e83610ae6578082fd5b5051979650505050505050565b600080600160069054906101000a90046001600160a01b03166001600160a01b03168484604051602401610b28929190611631565b60408051601f198184030181529181526020820180516001600160e01b0316631039e45b60e31b17905251610b5d9190611b4a565b600060405180830381855af49150503d8060008114610b98576040519150601f19603f3d011682016040523d82523d6000602084013e610b9d565b606091505b509150915081610bb4576040513d806000833e8082fd5b50505050565b60108181548110610bca57600080fd5b6000918252602090912060049091020180546001820180546001600160a01b03909216935090610bf990611c10565b80601f0160208091040260200160405190810160405280929190818152602001828054610c2590611c10565b8015610c725780601f10610c4757610100808354040283529160200191610c72565b820191906000526020600020905b815481529060010190602001808311610c5557829003601f168201915b50505050600283015460039093015491929160ff80821692506101009091041685565b600254604051600091829182916001600160a01b031690610cbe90889088908890602401611c77565b60408051601f198184030181529181526020820180516001600160e01b0316630a19a5f560e41b179052516105e09190611b4a565b6060600c805480602002602001604051908101604052809291908181526020016000905b82821015610e785760008481526020908190206040805161012081019091526005850290910180546001600160a01b03811683529192909190830190600160a01b900460ff166008811115610d6e57610d6e6117cc565b6008811115610d7f57610d7f6117cc565b8152602001600182018054610d9390611c10565b80601f0160208091040260200160405190810160405280929190818152602001828054610dbf90611c10565b8015610e0c5780601f10610de157610100808354040283529160200191610e0c565b820191906000526020600020905b815481529060010190602001808311610def57829003601f168201915b50505091835250506002820154602080830191909152600383015460ff8082166040850152610100820481166060850152620100008204811615156080850152630100000090910416151560a083015260049092015460c0909101529082526001929092019101610d17565b50505050905090565b600e8181548110610e9157600080fd5b600091825260209091206004909102018054600182015460028301546003909301546001600160a01b03928316945090928216911684565b600d8181548110610ed957600080fd5b6000918252602090912060039091020180546001820180546001600160a01b03909216935090610f0890611c10565b80601f0160208091040260200160405190810160405280929190818152602001828054610f3490611c10565b8015610f815780601f10610f5657610100808354040283529160200191610f81565b820191906000526020600020905b815481529060010190602001808311610f6457829003601f168201915b5050506002909301549192505060ff1683565b600254604051600091829182916001600160a01b031690610fbf908990899089908990602401611cba565b60408051601f198184030181529181526020820180516001600160e01b0316639e803dfb60e01b17905251610ff49190611b4a565b600060405180830381855af49150503d806000811461102f576040519150601f19603f3d011682016040523d82523d6000602084013e611034565b606091505b50915091508161104b576040513d806000833e8082fd5b5060019695505050505050565b600b6020908152600092835260408084209091529082529020805460018201805460ff808416946101009094041692919061109290611c10565b80601f01602080910402602001604051908101604052809291908181526020018280546110be90611c10565b801561110b5780601f106110e05761010080835404028352916020019161110b565b820191906000526020600020905b8154815290600101906020018083116110ee57829003601f168201915b5050505050905083565b600c818154811061112557600080fd5b6000918252602090912060059091020180546001820180546001600160a01b0383169450600160a01b90920460ff16929161115f90611c10565b80601f016020809104026020016040519081016040528092919081815260200182805461118b90611c10565b80156111d85780601f106111ad576101008083540402835291602001916111d8565b820191906000526020600020905b8154815290600101906020018083116111bb57829003601f168201915b505050600284015460038501546004909501549394909360ff808316945061010083048116935062010000830481169263010000009004169089565b600254604051600091829182916001600160a01b031690611241908a908a908a908a908a90602401611cf8565b60408051601f198184030181529181526020820180516001600160e01b0316636f2d58a760e11b179052516112769190611b4a565b600060405180830381855af49150503d80600081146112b1576040519150601f19603f3d011682016040523d82523d6000602084013e6112b6565b606091505b50915091506040513d806000833e836112cd578082fd5b505198975050505050505050565b600254604051600091829182916001600160a01b031690611306908990899089908990602401611d2b565b60408051601f198184030181529181526020820180516001600160e01b0316637b2dde6f60e11b17905251610a8f9190611b4a565b80356001600160a01b038116811461135257600080fd5b919050565b634e487b7160e01b600052604160045260246000fd5b600082601f83011261137e57600080fd5b813567ffffffffffffffff8082111561139957611399611357565b604051601f8301601f19908116603f011681019082821181831017156113c1576113c1611357565b816040528381528660208588010111156113da57600080fd5b836020870160208301376000602085830101528094505050505092915050565b6000806000806080858703121561141057600080fd5b6114198561133b565b935060208501359250604085013567ffffffffffffffff81111561143c57600080fd5b6114488782880161136d565b949793965093946060013593505050565b60006020828403121561146b57600080fd5b6114748261133b565b9392505050565b600080600080600060a0868803121561149357600080fd5b61149c8661133b565b94506114aa6020870161133b565b935060408601359250606086013567ffffffffffffffff8111156114cd57600080fd5b6114d98882890161136d565b95989497509295608001359392505050565b8035801515811461135257600080fd5b60008060008060008060c0878903121561151457600080fd5b61151d8761133b565b9550602087013567ffffffffffffffff8082111561153a57600080fd5b6115468a838b0161136d565b9650604089013591508082111561155c57600080fd5b6115688a838b0161136d565b955061157660608a016114eb565b94506080890135935060a089013591508082111561159357600080fd5b506115a089828a0161136d565b9150509295509295509295565b6000602082840312156115bf57600080fd5b5035919050565b60005b838110156115e15781810151838201526020016115c9565b83811115610bb45750506000910152565b6000815180845261160a8160208601602086016115c6565b601f01601f19169290920160200192915050565b60208152600061147460208301846115f2565b821515815260406020820152600061164c60408301846115f2565b949350505050565b60008060006060848603121561166957600080fd5b833560ff8116811461167a57600080fd5b9250602084013567ffffffffffffffff81111561169657600080fd5b6116a28682870161136d565b925050604084013590509250925092565b600080604083850312156116c657600080fd5b6116cf836114eb565b9150602083013567ffffffffffffffff8111156116eb57600080fd5b6116f78582860161136d565b9150509250929050565b6001600160a01b038616815260a060208201819052600090611725908301876115f2565b6040830195909552509115156060830152151560809091015292915050565b60008060006060848603121561175957600080fd5b833567ffffffffffffffff8082111561177157600080fd5b61177d8783880161136d565b9450602086013591508082111561179357600080fd5b61179f8783880161136d565b935060408601359150808211156117b557600080fd5b506117c28682870161136d565b9150509250925092565b634e487b7160e01b600052602160045260246000fd5b6009811061180057634e487b7160e01b600052602160045260246000fd5b9052565b60006020808301818452808551808352604092508286019150828160051b87010184880160005b838110156118d957888303603f19018552815180516001600160a01b031684526101208882015161185e8a8701826117e2565b50878201518189870152611874828701826115f2565b91505060608083015181870152506080808301516118968288018260ff169052565b505060a08281015160ff169086015260c08083015115159086015260e080830151151590860152610100918201519190940152938601939086019060010161182b565b509098975050505050505050565b6001600160a01b038416815260606020820181905260009061190b908301856115f2565b90508215156040830152949350505050565b6000806000806080858703121561193357600080fd5b84359350611943602086016114eb565b9250604085013567ffffffffffffffff8082111561196057600080fd5b61196c8883890161136d565b9350606087013591508082111561198257600080fd5b5061198f8782880161136d565b91505092959194509250565b600080604083850312156119ae57600080fd5b823591506119be6020840161133b565b90509250929050565b831515815282151560208201526060604082015260006119ea60608301846115f2565b95945050505050565b6001600160a01b038a1681526000610120611a11602084018c6117e2565b806040840152611a238184018b6115f2565b6060840199909952505060ff95861660808201529390941660a084015290151560c0830152151560e082015261010001529392505050565b600080600080600060a08688031215611a7357600080fd5b611a7c8661133b565b945060208601359350611a916040870161133b565b9250606086013567ffffffffffffffff8111156114cd57600080fd5b60008060008060808587031215611ac357600080fd5b611acc8561133b565b9350602085013567ffffffffffffffff80821115611ae957600080fd5b611af58883890161136d565b945060408701359350606087013591508082111561198257600080fd5b60018060a01b0385168152836020820152608060408201526000611b3960808301856115f2565b905082606083015295945050505050565b60008251611b5c8184602087016115c6565b9190910192915050565b6001600160a01b038681168252851660208201526040810184905260a060608201819052600090611b99908301856115f2565b90508260808301529695505050505050565b6001600160a01b038716815260c060208201819052600090611bcf908301886115f2565b8281036040840152611be181886115f2565b9050851515606084015284608084015282810360a0840152611c0381856115f2565b9998505050505050505050565b600181811c90821680611c2457607f821691505b60208210811415611c4557634e487b7160e01b600052602260045260246000fd5b50919050565b60ff84168152606060208201526000611c6760608301856115f2565b9050826040830152949350505050565b606081526000611c8a60608301866115f2565b8281036020840152611c9c81866115f2565b90508281036040840152611cb081856115f2565b9695505050505050565b8481528315156020820152608060408201526000611cdb60808301856115f2565b8281036060840152611ced81856115f2565b979650505050505050565b6001600160a01b038681168252602082018690528416604082015260a060608201819052600090611b99908301856115f2565b6001600160a01b0385168152608060208201819052600090611d4f908301866115f2565b8460408401528281036060840152611ced81856115f256fea2646970667358221220b46cc53956743d56e1ea257330f72612297e106b339223cf5dfb478e28d8d44464736f6c634300080c003316591a696fee5867425b3dee9fc0160a6c1baef77835bc3d204314106d639298",
  "bytecodeSha1": "da39a3ee5e6b4b0d3255bfef95601890afd80709",
  "compiler": {
    "evm_version": "istanbul",
    "optimizer": {
      "enabled": true,
      "runs": 200
    },
    "version": "0.8.12+commit.f00d7308"
  },
  "contractName": "CLFactory",
  "language": "Solidity",
  "natspec": {
    "author": "Leonardo Urrego",
    "kind": "dev",
    "methods": {
      "CreateCLH(string,bool,bytes32,uint8[3],address[],address,bytes)": {
        "params": {
          "_whiteListWallets": "Whitelist of address for invitate as managers"
        }
      },
      "GetHouseList()": {
        "notice": "The list of all houses created by the factory",
        "returns": {
          "_0": "arrCLH the array with all address"
        }
      },
      "GetHousesByUser(address)": {
        "notice": "List of membership houses to one user",
        "params": {
          "_walletAddr": "The user address"
        },
        "returns": {
          "_0": "arrHouses List of address houses"
        }
      },
      "GetInvitationsByUser(address)": {
        "notice": "List of houses that have an invitation pending for certatin user",
        "params": {
          "_walletAddr": "The user address"
        },
        "returns": {
          "_0": "arrHouses List of address houses"
        }
      }
    },
    "notice": "This contract is only for test ",
    "title": "A factory to deploy CLHouses easy",
    "version": 1
  },
  "opcodes": "PUSH1 0x80 PUSH1 0x40 MSTORE CALLVALUE DUP1 ISZERO PUSH3 0x11 JUMPI PUSH1 0x0 DUP1 REVERT JUMPDEST POP PUSH1 0x4 CALLDATASIZE LT PUSH3 0x87 JUMPI PUSH1 0x0 CALLDATALOAD PUSH1 0xE0 SHR DUP1 PUSH4 0x56EC9FFF GT PUSH3 0x62 JUMPI DUP1 PUSH4 0x56EC9FFF EQ PUSH3 0x110 JUMPI DUP1 PUSH4 0x7DDB31A3 EQ PUSH3 0x136 JUMPI DUP1 PUSH4 0xAC53C485 EQ PUSH3 0x14D JUMPI DUP1 PUSH4 0xEE7A7D1B EQ PUSH3 0x164 JUMPI PUSH1 0x0 DUP1 REVERT JUMPDEST DUP1 PUSH4 0x132DCCE7 EQ PUSH3 0x8C JUMPI DUP1 PUSH4 0x3195CE74 EQ PUSH3 0xAE JUMPI DUP1 PUSH4 0x535210DB EQ PUSH3 0xE0 JUMPI JUMPDEST PUSH1 0x0 DUP1 REVERT JUMPDEST PUSH3 0x96 PUSH3 0x16E JUMP JUMPDEST PUSH1 0x40 MLOAD PUSH3 0xA5 SWAP2 SWAP1 PUSH3 0x89C JUMP JUMPDEST PUSH1 0x40 MLOAD DUP1 SWAP2 SUB SWAP1 RETURN JUMPDEST PUSH3 0xD1 PUSH3 0xBF CALLDATASIZE PUSH1 0x4 PUSH3 0x916 JUMP JUMPDEST PUSH1 0x2 PUSH1 0x20 MSTORE PUSH1 0x0 SWAP1 DUP2 MSTORE PUSH1 0x40 SWAP1 KECCAK256 SLOAD DUP2 JUMP JUMPDEST PUSH1 0x40 MLOAD SWAP1 DUP2 MSTORE PUSH1 0x20 ADD PUSH3 0xA5 JUMP JUMPDEST PUSH3 0xF7 PUSH3 0xF1 CALLDATASIZE PUSH1 0x4 PUSH3 0xB33 JUMP JUMPDEST PUSH3 0x1D2 JUMP JUMPDEST PUSH1 0x40 MLOAD PUSH1 0x1 PUSH1 0x1 PUSH1 0xA0 SHL SUB SWAP1 SWAP2 AND DUP2 MSTORE PUSH1 0x20 ADD PUSH3 0xA5 JUMP JUMPDEST PUSH3 0x127 PUSH3 0x121 CALLDATASIZE PUSH1 0x4 PUSH3 0x916 JUMP JUMPDEST PUSH3 0x56A JUMP JUMPDEST PUSH1 0x40 MLOAD PUSH3 0xA5 SWAP2 SWAP1 PUSH3 0xC68 JUMP JUMPDEST PUSH3 0x127 PUSH3 0x147 CALLDATASIZE PUSH1 0x4 PUSH3 0x916 JUMP JUMPDEST PUSH3 0x6EB JUMP JUMPDEST PUSH3 0xF7 PUSH3 0x15E CALLDATASIZE PUSH1 0x4 PUSH3 0xC7D JUMP JUMPDEST PUSH3 0x863 JUMP JUMPDEST PUSH3 0xD1 PUSH1 0x1 SLOAD DUP2 JUMP JUMPDEST PUSH1 0x60 PUSH1 0x0 DUP1 SLOAD DUP1 PUSH1 0x20 MUL PUSH1 0x20 ADD PUSH1 0x40 MLOAD SWAP1 DUP2 ADD PUSH1 0x40 MSTORE DUP1 SWAP3 SWAP2 SWAP1 DUP2 DUP2 MSTORE PUSH1 0x20 ADD DUP3 DUP1 SLOAD DUP1 ISZERO PUSH3 0x1C8 JUMPI PUSH1 0x20 MUL DUP3 ADD SWAP2 SWAP1 PUSH1 0x0 MSTORE PUSH1 0x20 PUSH1 0x0 KECCAK256 SWAP1 JUMPDEST DUP2 SLOAD PUSH1 0x1 PUSH1 0x1 PUSH1 0xA0 SHL SUB AND DUP2 MSTORE PUSH1 0x1 SWAP1 SWAP2 ADD SWAP1 PUSH1 0x20 ADD DUP1 DUP4 GT PUSH3 0x1A9 JUMPI JUMPDEST POP POP POP POP POP SWAP1 POP SWAP1 JUMP JUMPDEST PUSH1 0x0 DUP1 CALLER PUSH32 0xB93889D934070956C00846F50F9A10A747BD194BBA2F2E78A86D0C02386FDB1 DUP9 EQ DUP1 PUSH3 0x224 JUMPI POP DUP8 PUSH32 0x16591A696FEE5867425B3DEE9FC0160A6C1BAEF77835BC3D204314106D639298 EQ JUMPDEST DUP1 PUSH3 0x24F JUMPI POP DUP8 PUSH32 0xA0786F6450D5FB3298B8425105C1B75E6E01A1FF86CDABEA29909CDB0B4C83A7 EQ JUMPDEST PUSH3 0x2A1 JUMPI PUSH1 0x40 MLOAD PUSH3 0x461BCD PUSH1 0xE5 SHL DUP2 MSTORE PUSH1 0x20 PUSH1 0x4 DUP3 ADD MSTORE PUSH1 0x17 PUSH1 0x24 DUP3 ADD MSTORE PUSH32 0x496E76616C696420476F7665726E616E63652054797065000000000000000000 PUSH1 0x44 DUP3 ADD MSTORE PUSH1 0x64 ADD JUMPDEST PUSH1 0x40 MLOAD DUP1 SWAP2 SUB SWAP1 REVERT JUMPDEST PUSH1 0x1 PUSH1 0x1 PUSH1 0xA0 SHL SUB DUP6 AND ISZERO PUSH3 0x41F JUMPI DUP4 MLOAD PUSH1 0x41 EQ PUSH3 0x304 JUMPI PUSH1 0x40 MLOAD PUSH3 0x461BCD PUSH1 0xE5 SHL DUP2 MSTORE PUSH1 0x20 PUSH1 0x4 DUP3 ADD MSTORE PUSH1 0x1C PUSH1 0x24 DUP3 ADD MSTORE PUSH32 0x4E6577434C483A20426164207369676E6174757265206C656E67746800000000 PUSH1 0x44 DUP3 ADD MSTORE PUSH1 0x64 ADD PUSH3 0x298 JUMP JUMPDEST PUSH1 0x3 SLOAD PUSH1 0x1 PUSH1 0x1 PUSH1 0xA0 SHL SUB AND PUSH4 0x364AE0D8 DUP12 DUP12 DUP12 DUP12 PUSH1 0x0 PUSH1 0x20 MUL ADD MLOAD DUP13 PUSH1 0x1 PUSH1 0x20 MUL ADD MLOAD DUP14 PUSH1 0x2 PUSH1 0x20 MUL ADD MLOAD DUP14 PUSH1 0x0 DUP2 MLOAD DUP2 LT PUSH3 0x346 JUMPI PUSH3 0x346 PUSH3 0xC97 JUMP JUMPDEST PUSH1 0x20 MUL PUSH1 0x20 ADD ADD MLOAD ADDRESS DUP14 PUSH1 0x40 MLOAD DUP11 PUSH4 0xFFFFFFFF AND PUSH1 0xE0 SHL DUP2 MSTORE PUSH1 0x4 ADD PUSH3 0x376 SWAP10 SWAP9 SWAP8 SWAP7 SWAP6 SWAP5 SWAP4 SWAP3 SWAP2 SWAP1 PUSH3 0xCFD JUMP JUMPDEST PUSH1 0x20 PUSH1 0x40 MLOAD DUP1 DUP4 SUB DUP2 DUP7 GAS STATICCALL ISZERO DUP1 ISZERO PUSH3 0x394 JUMPI RETURNDATASIZE PUSH1 0x0 DUP1 RETURNDATACOPY RETURNDATASIZE PUSH1 0x0 REVERT JUMPDEST POP POP POP POP PUSH1 0x40 MLOAD RETURNDATASIZE PUSH1 0x1F NOT PUSH1 0x1F DUP3 ADD AND DUP3 ADD DUP1 PUSH1 0x40 MSTORE POP DUP2 ADD SWAP1 PUSH3 0x3BA SWAP2 SWAP1 PUSH3 0xD79 JUMP JUMPDEST PUSH1 0x1 PUSH1 0x1 PUSH1 0xA0 SHL SUB AND DUP6 PUSH1 0x1 PUSH1 0x1 PUSH1 0xA0 SHL SUB AND EQ PUSH3 0x41C JUMPI PUSH1 0x40 MLOAD PUSH3 0x461BCD PUSH1 0xE5 SHL DUP2 MSTORE PUSH1 0x20 PUSH1 0x4 DUP3 ADD MSTORE PUSH1 0x19 PUSH1 0x24 DUP3 ADD MSTORE PUSH32 0x4E6577434C483A20496E76616C6964205369676E617475726500000000000000 PUSH1 0x44 DUP3 ADD MSTORE PUSH1 0x64 ADD PUSH3 0x298 JUMP JUMPDEST POP DUP4 JUMPDEST PUSH1 0x40 DUP1 MLOAD PUSH1 0x80 DUP2 ADD DUP3 MSTORE PUSH1 0x4 SLOAD PUSH1 0x1 PUSH1 0x1 PUSH1 0xA0 SHL SUB SWAP1 DUP2 AND DUP3 MSTORE PUSH1 0x5 SLOAD DUP2 AND PUSH1 0x20 DUP4 ADD MSTORE PUSH1 0x6 SLOAD DUP2 AND DUP3 DUP5 ADD MSTORE PUSH1 0x3 SLOAD AND PUSH1 0x60 DUP3 ADD MSTORE SWAP1 MLOAD DUP3 SWAP2 DUP13 SWAP2 DUP13 SWAP2 DUP13 SWAP2 DUP13 SWAP2 SWAP1 DUP13 SWAP1 PUSH3 0x46F SWAP1 PUSH3 0x88E JUMP JUMPDEST PUSH3 0x481 SWAP8 SWAP7 SWAP6 SWAP5 SWAP4 SWAP3 SWAP2 SWAP1 PUSH3 0xDCD JUMP JUMPDEST PUSH1 0x40 MLOAD DUP1 SWAP2 SUB SWAP1 PUSH1 0x0 CREATE DUP1 ISZERO DUP1 ISZERO PUSH3 0x49E JUMPI RETURNDATASIZE PUSH1 0x0 DUP1 RETURNDATACOPY RETURNDATASIZE PUSH1 0x0 REVERT JUMPDEST POP PUSH1 0x0 DUP1 SLOAD PUSH1 0x1 DUP1 DUP3 ADD DUP4 SSTORE DUP3 DUP1 MSTORE PUSH32 0x290DECD9548B62A8D60345A988386FC84BA6BC95484008F6362F93160EF3E563 DUP3 ADD DUP1 SLOAD PUSH1 0x1 PUSH1 0x1 PUSH1 0xA0 SHL SUB NOT AND PUSH1 0x1 PUSH1 0x1 PUSH1 0xA0 SHL SUB DUP7 AND OR SWAP1 SSTORE DUP1 SLOAD SWAP4 SWAP6 POP DUP6 SWAP4 SWAP2 SWAP3 PUSH3 0x4FD DUP4 PUSH3 0xE66 JUMP JUMPDEST SWAP1 SWAP2 SSTORE POP POP PUSH1 0x1 PUSH1 0x1 PUSH1 0xA0 SHL SUB DUP3 AND PUSH1 0x0 SWAP1 DUP2 MSTORE PUSH1 0x2 PUSH1 0x20 MSTORE PUSH1 0x40 SWAP1 DUP2 SWAP1 KECCAK256 DUP3 SWAP1 SSTORE MLOAD PUSH32 0x717908FB0165729C0CFD8BBC622F5EDE46A85E555AC30657FA94A188BCA698D SWAP1 PUSH3 0x553 SWAP1 DUP5 SWAP1 DUP16 SWAP1 DUP6 SWAP1 PUSH3 0xE90 JUMP JUMPDEST PUSH1 0x40 MLOAD DUP1 SWAP2 SUB SWAP1 LOG1 POP SWAP11 SWAP10 POP POP POP POP POP POP POP POP POP POP JUMP JUMPDEST PUSH1 0x0 DUP1 SLOAD PUSH1 0x60 SWAP2 SWAP1 PUSH8 0xFFFFFFFFFFFFFFFF DUP2 GT ISZERO PUSH3 0x58D JUMPI PUSH3 0x58D PUSH3 0x93D JUMP JUMPDEST PUSH1 0x40 MLOAD SWAP1 DUP1 DUP3 MSTORE DUP1 PUSH1 0x20 MUL PUSH1 0x20 ADD DUP3 ADD PUSH1 0x40 MSTORE DUP1 ISZERO PUSH3 0x5B7 JUMPI DUP2 PUSH1 0x20 ADD PUSH1 0x20 DUP3 MUL DUP1 CALLDATASIZE DUP4 CALLDATACOPY ADD SWAP1 POP JUMPDEST POP SWAP1 POP PUSH1 0x0 PUSH1 0x1 JUMPDEST PUSH1 0x1 SLOAD DUP2 GT PUSH3 0x6E2 JUMPI PUSH1 0x0 DUP2 DUP2 SLOAD DUP2 LT PUSH3 0x5DF JUMPI PUSH3 0x5DF PUSH3 0xC97 JUMP JUMPDEST PUSH1 0x0 SWAP2 DUP3 MSTORE PUSH1 0x20 SWAP1 SWAP2 KECCAK256 ADD SLOAD PUSH1 0x40 MLOAD PUSH4 0x99DB7FB3 PUSH1 0xE0 SHL DUP2 MSTORE PUSH1 0x1 PUSH1 0x1 PUSH1 0xA0 SHL SUB DUP8 DUP2 AND PUSH1 0x4 DUP4 ADD MSTORE SWAP1 SWAP2 AND SWAP1 PUSH4 0x99DB7FB3 SWAP1 PUSH1 0x24 ADD PUSH1 0x20 PUSH1 0x40 MLOAD DUP1 DUP4 SUB DUP2 DUP7 GAS STATICCALL ISZERO DUP1 ISZERO PUSH3 0x633 JUMPI RETURNDATASIZE PUSH1 0x0 DUP1 RETURNDATACOPY RETURNDATASIZE PUSH1 0x0 REVERT JUMPDEST POP POP POP POP PUSH1 0x40 MLOAD RETURNDATASIZE PUSH1 0x1F NOT PUSH1 0x1F DUP3 ADD AND DUP3 ADD DUP1 PUSH1 0x40 MSTORE POP DUP2 ADD SWAP1 PUSH3 0x659 SWAP2 SWAP1 PUSH3 0xEC6 JUMP JUMPDEST ISZERO PUSH3 0x6CD JUMPI PUSH1 0x0 DUP2 DUP2 SLOAD DUP2 LT PUSH3 0x675 JUMPI PUSH3 0x675 PUSH3 0xC97 JUMP JUMPDEST PUSH1 0x0 SWAP2 DUP3 MSTORE PUSH1 0x20 SWAP1 SWAP2 KECCAK256 ADD SLOAD PUSH1 0x1 PUSH1 0x1 PUSH1 0xA0 SHL SUB AND DUP4 DUP4 PUSH3 0x697 DUP2 PUSH3 0xE66 JUMP JUMPDEST SWAP5 POP DUP2 MLOAD DUP2 LT PUSH3 0x6AC JUMPI PUSH3 0x6AC PUSH3 0xC97 JUMP JUMPDEST PUSH1 0x20 MUL PUSH1 0x20 ADD ADD SWAP1 PUSH1 0x1 PUSH1 0x1 PUSH1 0xA0 SHL SUB AND SWAP1 DUP2 PUSH1 0x1 PUSH1 0x1 PUSH1 0xA0 SHL SUB AND DUP2 MSTORE POP POP JUMPDEST DUP1 PUSH3 0x6D9 DUP2 PUSH3 0xE66 JUMP JUMPDEST SWAP2 POP POP PUSH3 0x5BF JUMP JUMPDEST POP SWAP1 SWAP4 SWAP3 POP POP POP JUMP JUMPDEST PUSH1 0x0 DUP1 SLOAD PUSH1 0x60 SWAP2 SWAP1 PUSH8 0xFFFFFFFFFFFFFFFF DUP2 GT ISZERO PUSH3 0x70E JUMPI PUSH3 0x70E PUSH3 0x93D JUMP JUMPDEST PUSH1 0x40 MLOAD SWAP1 DUP1 DUP3 MSTORE DUP1 PUSH1 0x20 MUL PUSH1 0x20 ADD DUP3 ADD PUSH1 0x40 MSTORE DUP1 ISZERO PUSH3 0x738 JUMPI DUP2 PUSH1 0x20 ADD PUSH1 0x20 DUP3 MUL DUP1 CALLDATASIZE DUP4 CALLDATACOPY ADD SWAP1 POP JUMPDEST POP SWAP1 POP PUSH1 0x0 PUSH1 0x1 JUMPDEST PUSH1 0x1 SLOAD DUP2 GT PUSH3 0x6E2 JUMPI PUSH1 0x0 DUP2 DUP2 SLOAD DUP2 LT PUSH3 0x760 JUMPI PUSH3 0x760 PUSH3 0xC97 JUMP JUMPDEST PUSH1 0x0 SWAP2 DUP3 MSTORE PUSH1 0x20 SWAP1 SWAP2 KECCAK256 ADD SLOAD PUSH1 0x40 MLOAD PUSH4 0x9C57DF7 PUSH1 0xE0 SHL DUP2 MSTORE PUSH1 0x1 PUSH1 0x1 PUSH1 0xA0 SHL SUB DUP8 DUP2 AND PUSH1 0x4 DUP4 ADD MSTORE SWAP1 SWAP2 AND SWAP1 PUSH4 0x9C57DF7 SWAP1 PUSH1 0x24 ADD PUSH1 0x20 PUSH1 0x40 MLOAD DUP1 DUP4 SUB DUP2 DUP7 GAS STATICCALL ISZERO DUP1 ISZERO PUSH3 0x7B4 JUMPI RETURNDATASIZE PUSH1 0x0 DUP1 RETURNDATACOPY RETURNDATASIZE PUSH1 0x0 REVERT JUMPDEST POP POP POP POP PUSH1 0x40 MLOAD RETURNDATASIZE PUSH1 0x1F NOT PUSH1 0x1F DUP3 ADD AND DUP3 ADD DUP1 PUSH1 0x40 MSTORE POP DUP2 ADD SWAP1 PUSH3 0x7DA SWAP2 SWAP1 PUSH3 0xEC6 JUMP JUMPDEST ISZERO PUSH3 0x84E JUMPI PUSH1 0x0 DUP2 DUP2 SLOAD DUP2 LT PUSH3 0x7F6 JUMPI PUSH3 0x7F6 PUSH3 0xC97 JUMP JUMPDEST PUSH1 0x0 SWAP2 DUP3 MSTORE PUSH1 0x20 SWAP1 SWAP2 KECCAK256 ADD SLOAD PUSH1 0x1 PUSH1 0x1 PUSH1 0xA0 SHL SUB AND DUP4 DUP4 PUSH3 0x818 DUP2 PUSH3 0xE66 JUMP JUMPDEST SWAP5 POP DUP2 MLOAD DUP2 LT PUSH3 0x82D JUMPI PUSH3 0x82D PUSH3 0xC97 JUMP JUMPDEST PUSH1 0x20 MUL PUSH1 0x20 ADD ADD SWAP1 PUSH1 0x1 PUSH1 0x1 PUSH1 0xA0 SHL SUB AND SWAP1 DUP2 PUSH1 0x1 PUSH1 0x1 PUSH1 0xA0 SHL SUB AND DUP2 MSTORE POP POP JUMPDEST DUP1 PUSH3 0x85A DUP2 PUSH3 0xE66 JUMP JUMPDEST SWAP2 POP POP PUSH3 0x740 JUMP JUMPDEST PUSH1 0x0 DUP2 DUP2 SLOAD DUP2 LT PUSH3 0x874 JUMPI PUSH1 0x0 DUP1 REVERT JUMPDEST PUSH1 0x0 SWAP2 DUP3 MSTORE PUSH1 0x20 SWAP1 SWAP2 KECCAK256 ADD SLOAD PUSH1 0x1 PUSH1 0x1 PUSH1 0xA0 SHL SUB AND SWAP1 POP DUP2 JUMP JUMPDEST PUSH2 0x23B0 DUP1 PUSH3 0xEE1 DUP4 CODECOPY ADD SWAP1 JUMP JUMPDEST PUSH1 0x20 DUP1 DUP3 MSTORE DUP3 MLOAD DUP3 DUP3 ADD DUP2 SWAP1 MSTORE PUSH1 0x0 SWAP2 SWAP1 DUP5 DUP3 ADD SWAP1 PUSH1 0x40 DUP6 ADD SWAP1 DUP5 JUMPDEST DUP2 DUP2 LT ISZERO PUSH3 0x8DF JUMPI DUP4 MLOAD PUSH1 0x1 PUSH1 0x1 PUSH1 0xA0 SHL SUB AND DUP4 MSTORE SWAP3 DUP5 ADD SWAP3 SWAP2 DUP5 ADD SWAP2 PUSH1 0x1 ADD PUSH3 0x8B8 JUMP JUMPDEST POP SWAP1 SWAP7 SWAP6 POP POP POP POP POP POP JUMP JUMPDEST PUSH1 0x1 PUSH1 0x1 PUSH1 0xA0 SHL SUB DUP2 AND DUP2 EQ PUSH3 0x901 JUMPI PUSH1 0x0 DUP1 REVERT JUMPDEST POP JUMP JUMPDEST DUP1 CALLDATALOAD PUSH3 0x911 DUP2 PUSH3 0x8EB JUMP JUMPDEST SWAP2 SWAP1 POP JUMP JUMPDEST PUSH1 0x0 PUSH1 0x20 DUP3 DUP5 SUB SLT ISZERO PUSH3 0x929 JUMPI PUSH1 0x0 DUP1 REVERT JUMPDEST DUP2 CALLDATALOAD PUSH3 0x936 DUP2 PUSH3 0x8EB JUMP JUMPDEST SWAP4 SWAP3 POP POP POP JUMP JUMPDEST PUSH4 0x4E487B71 PUSH1 0xE0 SHL PUSH1 0x0 MSTORE PUSH1 0x41 PUSH1 0x4 MSTORE PUSH1 0x24 PUSH1 0x0 REVERT JUMPDEST PUSH1 0x40 MLOAD PUSH1 0x1F DUP3 ADD PUSH1 0x1F NOT AND DUP2 ADD PUSH8 0xFFFFFFFFFFFFFFFF DUP2 GT DUP3 DUP3 LT OR ISZERO PUSH3 0x97F JUMPI PUSH3 0x97F PUSH3 0x93D JUMP JUMPDEST PUSH1 0x40 MSTORE SWAP2 SWAP1 POP JUMP JUMPDEST PUSH1 0x0 PUSH8 0xFFFFFFFFFFFFFFFF DUP4 GT ISZERO PUSH3 0x9A4 JUMPI PUSH3 0x9A4 PUSH3 0x93D JUMP JUMPDEST PUSH3 0x9B9 PUSH1 0x1F DUP5 ADD PUSH1 0x1F NOT AND PUSH1 0x20 ADD PUSH3 0x953 JUMP JUMPDEST SWAP1 POP DUP3 DUP2 MSTORE DUP4 DUP4 DUP4 ADD GT ISZERO PUSH3 0x9CE JUMPI PUSH1 0x0 DUP1 REVERT JUMPDEST DUP3 DUP3 PUSH1 0x20 DUP4 ADD CALLDATACOPY PUSH1 0x0 PUSH1 0x20 DUP5 DUP4 ADD ADD MSTORE SWAP4 SWAP3 POP POP POP JUMP JUMPDEST DUP1 CALLDATALOAD DUP1 ISZERO ISZERO DUP2 EQ PUSH3 0x911 JUMPI PUSH1 0x0 DUP1 REVERT JUMPDEST PUSH1 0x0 DUP3 PUSH1 0x1F DUP4 ADD SLT PUSH3 0xA08 JUMPI PUSH1 0x0 DUP1 REVERT JUMPDEST PUSH1 0x40 MLOAD PUSH1 0x60 DUP2 ADD DUP2 DUP2 LT PUSH8 0xFFFFFFFFFFFFFFFF DUP3 GT OR ISZERO PUSH3 0xA2E JUMPI PUSH3 0xA2E PUSH3 0x93D JUMP JUMPDEST PUSH1 0x40 MSTORE DUP1 PUSH1 0x60 DUP5 ADD DUP6 DUP2 GT ISZERO PUSH3 0xA44 JUMPI PUSH1 0x0 DUP1 REVERT JUMPDEST DUP5 JUMPDEST DUP2 DUP2 LT ISZERO PUSH3 0xA71 JUMPI DUP1 CALLDATALOAD PUSH1 0xFF DUP2 AND DUP2 EQ PUSH3 0xA62 JUMPI PUSH1 0x0 DUP1 DUP2 REVERT JUMPDEST DUP4 MSTORE PUSH1 0x20 SWAP3 DUP4 ADD SWAP3 ADD PUSH3 0xA46 JUMP JUMPDEST POP SWAP2 SWAP6 SWAP5 POP POP POP POP POP JUMP JUMPDEST PUSH1 0x0 DUP3 PUSH1 0x1F DUP4 ADD SLT PUSH3 0xA8E JUMPI PUSH1 0x0 DUP1 REVERT JUMPDEST DUP2 CALLDATALOAD PUSH1 0x20 PUSH8 0xFFFFFFFFFFFFFFFF DUP3 GT ISZERO PUSH3 0xAAD JUMPI PUSH3 0xAAD PUSH3 0x93D JUMP JUMPDEST DUP2 PUSH1 0x5 SHL PUSH3 0xABE DUP3 DUP3 ADD PUSH3 0x953 JUMP JUMPDEST SWAP3 DUP4 MSTORE DUP5 DUP2 ADD DUP3 ADD SWAP3 DUP3 DUP2 ADD SWAP1 DUP8 DUP6 GT ISZERO PUSH3 0xAD9 JUMPI PUSH1 0x0 DUP1 REVERT JUMPDEST DUP4 DUP8 ADD SWAP3 POP JUMPDEST DUP5 DUP4 LT ISZERO PUSH3 0xB05 JUMPI DUP3 CALLDATALOAD PUSH3 0xAF5 DUP2 PUSH3 0x8EB JUMP JUMPDEST DUP3 MSTORE SWAP2 DUP4 ADD SWAP2 SWAP1 DUP4 ADD SWAP1 PUSH3 0xADF JUMP JUMPDEST SWAP8 SWAP7 POP POP POP POP POP POP POP JUMP JUMPDEST PUSH1 0x0 DUP3 PUSH1 0x1F DUP4 ADD SLT PUSH3 0xB22 JUMPI PUSH1 0x0 DUP1 REVERT JUMPDEST PUSH3 0x936 DUP4 DUP4 CALLDATALOAD PUSH1 0x20 DUP6 ADD PUSH3 0x987 JUMP JUMPDEST PUSH1 0x0 DUP1 PUSH1 0x0 DUP1 PUSH1 0x0 DUP1 PUSH1 0x0 PUSH2 0x120 DUP9 DUP11 SUB SLT ISZERO PUSH3 0xB50 JUMPI PUSH1 0x0 DUP1 REVERT JUMPDEST DUP8 CALLDATALOAD PUSH8 0xFFFFFFFFFFFFFFFF DUP1 DUP3 GT ISZERO PUSH3 0xB69 JUMPI PUSH1 0x0 DUP1 REVERT JUMPDEST DUP2 DUP11 ADD SWAP2 POP DUP11 PUSH1 0x1F DUP4 ADD SLT PUSH3 0xB7E JUMPI PUSH1 0x0 DUP1 REVERT JUMPDEST PUSH3 0xB8F DUP12 DUP4 CALLDATALOAD PUSH1 0x20 DUP6 ADD PUSH3 0x987 JUMP JUMPDEST SWAP9 POP PUSH3 0xB9F PUSH1 0x20 DUP12 ADD PUSH3 0x9E5 JUMP JUMPDEST SWAP8 POP PUSH1 0x40 DUP11 ADD CALLDATALOAD SWAP7 POP PUSH3 0xBB7 DUP12 PUSH1 0x60 DUP13 ADD PUSH3 0x9F6 JUMP JUMPDEST SWAP6 POP PUSH1 0xC0 DUP11 ADD CALLDATALOAD SWAP2 POP DUP1 DUP3 GT ISZERO PUSH3 0xBCE JUMPI PUSH1 0x0 DUP1 REVERT JUMPDEST PUSH3 0xBDC DUP12 DUP4 DUP13 ADD PUSH3 0xA7C JUMP JUMPDEST SWAP5 POP PUSH3 0xBEC PUSH1 0xE0 DUP12 ADD PUSH3 0x904 JUMP JUMPDEST SWAP4 POP PUSH2 0x100 DUP11 ADD CALLDATALOAD SWAP2 POP DUP1 DUP3 GT ISZERO PUSH3 0xC04 JUMPI PUSH1 0x0 DUP1 REVERT JUMPDEST POP PUSH3 0xC13 DUP11 DUP3 DUP12 ADD PUSH3 0xB10 JUMP JUMPDEST SWAP2 POP POP SWAP3 SWAP6 SWAP9 SWAP2 SWAP5 SWAP8 POP SWAP3 SWAP6 POP JUMP JUMPDEST PUSH1 0x0 DUP2 MLOAD DUP1 DUP5 MSTORE PUSH1 0x20 DUP1 DUP6 ADD SWAP5 POP DUP1 DUP5 ADD PUSH1 0x0 JUMPDEST DUP4 DUP2 LT ISZERO PUSH3 0xC5D JUMPI DUP2 MLOAD PUSH1 0x1 PUSH1 0x1 PUSH1 0xA0 SHL SUB AND DUP8 MSTORE SWAP6 DUP3 ADD SWAP6 SWAP1 DUP3 ADD SWAP1 PUSH1 0x1 ADD PUSH3 0xC36 JUMP JUMPDEST POP SWAP5 SWAP6 SWAP5 POP POP POP POP POP JUMP JUMPDEST PUSH1 0x20 DUP2 MSTORE PUSH1 0x0 PUSH3 0x936 PUSH1 0x20 DUP4 ADD DUP5 PUSH3 0xC22 JUMP JUMPDEST PUSH1 0x0 PUSH1 0x20 DUP3 DUP5 SUB SLT ISZERO PUSH3 0xC90 JUMPI PUSH1 0x0 DUP1 REVERT JUMPDEST POP CALLDATALOAD SWAP2 SWAP1 POP JUMP JUMPDEST PUSH4 0x4E487B71 PUSH1 0xE0 SHL PUSH1 0x0 MSTORE PUSH1 0x32 PUSH1 0x4 MSTORE PUSH1 0x24 PUSH1 0x0 REVERT JUMPDEST PUSH1 0x0 DUP2 MLOAD DUP1 DUP5 MSTORE PUSH1 0x0 JUMPDEST DUP2 DUP2 LT ISZERO PUSH3 0xCD5 JUMPI PUSH1 0x20 DUP2 DUP6 ADD DUP2 ADD MLOAD DUP7 DUP4 ADD DUP3 ADD MSTORE ADD PUSH3 0xCB7 JUMP JUMPDEST DUP2 DUP2 GT ISZERO PUSH3 0xCE8 JUMPI PUSH1 0x0 PUSH1 0x20 DUP4 DUP8 ADD ADD MSTORE JUMPDEST POP PUSH1 0x1F ADD PUSH1 0x1F NOT AND SWAP3 SWAP1 SWAP3 ADD PUSH1 0x20 ADD SWAP3 SWAP2 POP POP JUMP JUMPDEST PUSH1 0x0 PUSH2 0x120 DUP1 DUP4 MSTORE PUSH3 0xD13 DUP2 DUP5 ADD DUP14 PUSH3 0xCAD JUMP JUMPDEST DUP12 ISZERO ISZERO PUSH1 0x20 DUP6 ADD MSTORE PUSH1 0x40 DUP5 ADD DUP12 SWAP1 MSTORE PUSH1 0xFF DUP11 DUP2 AND PUSH1 0x60 DUP7 ADD MSTORE DUP10 DUP2 AND PUSH1 0x80 DUP7 ADD MSTORE DUP9 AND PUSH1 0xA0 DUP6 ADD MSTORE PUSH1 0x1 PUSH1 0x1 PUSH1 0xA0 SHL SUB DUP8 DUP2 AND PUSH1 0xC0 DUP7 ADD MSTORE DUP7 AND PUSH1 0xE0 DUP6 ADD MSTORE DUP4 DUP2 SUB PUSH2 0x100 DUP6 ADD MSTORE SWAP1 POP PUSH3 0xD69 DUP2 DUP6 PUSH3 0xCAD JUMP JUMPDEST SWAP13 SWAP12 POP POP POP POP POP POP POP POP POP POP POP POP JUMP JUMPDEST PUSH1 0x0 PUSH1 0x20 DUP3 DUP5 SUB SLT ISZERO PUSH3 0xD8C JUMPI PUSH1 0x0 DUP1 REVERT JUMPDEST DUP2 MLOAD PUSH3 0x936 DUP2 PUSH3 0x8EB JUMP JUMPDEST DUP1 PUSH1 0x0 JUMPDEST PUSH1 0x4 DUP2 LT ISZERO PUSH3 0xDC7 JUMPI DUP2 MLOAD PUSH1 0x1 PUSH1 0x1 PUSH1 0xA0 SHL SUB AND DUP5 MSTORE PUSH1 0x20 SWAP4 DUP5 ADD SWAP4 SWAP1 SWAP2 ADD SWAP1 PUSH1 0x1 ADD PUSH3 0xD9D JUMP JUMPDEST POP POP POP POP JUMP JUMPDEST PUSH1 0x1 PUSH1 0x1 PUSH1 0xA0 SHL SUB DUP9 AND DUP2 MSTORE PUSH2 0x180 PUSH1 0x20 DUP1 DUP4 ADD DUP3 SWAP1 MSTORE PUSH1 0x0 SWAP2 SWAP1 PUSH3 0xDF6 DUP5 DUP4 ADD DUP12 PUSH3 0xCAD JUMP JUMPDEST SWAP2 POP DUP9 ISZERO ISZERO PUSH1 0x40 DUP6 ADD MSTORE DUP8 PUSH1 0x60 DUP6 ADD MSTORE PUSH1 0x80 DUP5 ADD DUP8 PUSH1 0x0 JUMPDEST PUSH1 0x3 DUP2 LT ISZERO PUSH3 0xE30 JUMPI DUP2 MLOAD PUSH1 0xFF AND DUP4 MSTORE SWAP2 DUP4 ADD SWAP2 SWAP1 DUP4 ADD SWAP1 PUSH1 0x1 ADD PUSH3 0xE0E JUMP JUMPDEST POP POP POP POP PUSH3 0xE43 PUSH1 0xE0 DUP5 ADD DUP7 PUSH3 0xD99 JUMP JUMPDEST DUP3 DUP2 SUB PUSH2 0x160 DUP5 ADD MSTORE PUSH3 0xE58 DUP2 DUP6 PUSH3 0xC22 JUMP JUMPDEST SWAP11 SWAP10 POP POP POP POP POP POP POP POP POP POP JUMP JUMPDEST PUSH1 0x0 PUSH1 0x0 NOT DUP3 EQ ISZERO PUSH3 0xE89 JUMPI PUSH4 0x4E487B71 PUSH1 0xE0 SHL PUSH1 0x0 MSTORE PUSH1 0x11 PUSH1 0x4 MSTORE PUSH1 0x24 PUSH1 0x0 REVERT JUMPDEST POP PUSH1 0x1 ADD SWAP1 JUMP JUMPDEST PUSH1 0x1 PUSH1 0x1 PUSH1 0xA0 SHL SUB DUP5 AND DUP2 MSTORE PUSH1 0x60 PUSH1 0x20 DUP3 ADD DUP2 SWAP1 MSTORE PUSH1 0x0 SWAP1 PUSH3 0xEB6 SWAP1 DUP4 ADD DUP6 PUSH3 0xCAD JUMP JUMPDEST SWAP1 POP DUP3 PUSH1 0x40 DUP4 ADD MSTORE SWAP5 SWAP4 POP POP POP POP JUMP JUMPDEST PUSH1 0x0 PUSH1 0x20 DUP3 DUP5 SUB SLT ISZERO PUSH3 0xED9 JUMPI PUSH1 0x0 DUP1 REVERT JUMPDEST POP MLOAD SWAP2 SWAP1 POP JUMP INVALID PUSH1 0x80 PUSH1 0x40 MSTORE CALLVALUE DUP1 ISZERO PUSH3 0x11 JUMPI PUSH1 0x0 DUP1 REVERT JUMPDEST POP PUSH1 0x40 MLOAD PUSH3 0x23B0 CODESIZE SUB DUP1 PUSH3 0x23B0 DUP4 CODECOPY DUP2 ADD PUSH1 0x40 DUP2 SWAP1 MSTORE PUSH3 0x34 SWAP2 PUSH3 0x387 JUMP JUMPDEST PUSH1 0x0 DUP1 DUP4 PUSH1 0x2 PUSH1 0x20 MUL ADD MLOAD PUSH1 0x1 PUSH1 0x1 PUSH1 0xA0 SHL SUB AND DUP10 DUP10 DUP10 DUP10 DUP10 PUSH1 0x40 MLOAD DUP1 PUSH1 0x60 ADD PUSH1 0x40 MSTORE DUP1 DUP12 PUSH1 0x0 PUSH1 0x4 DUP2 LT PUSH3 0x6E JUMPI PUSH3 0x6E PUSH3 0x4A6 JUMP JUMPDEST PUSH1 0x20 SWAP1 DUP2 MUL SWAP2 SWAP1 SWAP2 ADD MLOAD PUSH1 0x1 PUSH1 0x1 PUSH1 0xA0 SHL SUB SWAP1 DUP2 AND DUP4 MSTORE DUP14 DUP3 ADD MLOAD DUP2 AND SWAP2 DUP4 ADD SWAP2 SWAP1 SWAP2 MSTORE PUSH1 0x60 DUP14 ADD MLOAD AND PUSH1 0x40 SWAP2 DUP3 ADD MSTORE MLOAD PUSH3 0xB5 SWAP7 SWAP6 SWAP5 SWAP4 SWAP3 SWAP2 SWAP1 DUP12 SWAP1 PUSH1 0x24 ADD PUSH3 0x530 JUMP JUMPDEST PUSH1 0x40 DUP1 MLOAD PUSH1 0x1F NOT DUP2 DUP5 SUB ADD DUP2 MSTORE SWAP2 DUP2 MSTORE PUSH1 0x20 DUP3 ADD DUP1 MLOAD PUSH1 0x1 PUSH1 0x1 PUSH1 0xE0 SHL SUB AND PUSH4 0xE68EA1FD PUSH1 0xE0 SHL OR SWAP1 MSTORE MLOAD PUSH3 0xEC SWAP2 SWAP1 PUSH3 0x5E5 JUMP JUMPDEST PUSH1 0x0 PUSH1 0x40 MLOAD DUP1 DUP4 SUB DUP2 DUP6 GAS DELEGATECALL SWAP2 POP POP RETURNDATASIZE DUP1 PUSH1 0x0 DUP2 EQ PUSH3 0x129 JUMPI PUSH1 0x40 MLOAD SWAP2 POP PUSH1 0x1F NOT PUSH1 0x3F RETURNDATASIZE ADD AND DUP3 ADD PUSH1 0x40 MSTORE RETURNDATASIZE DUP3 MSTORE RETURNDATASIZE PUSH1 0x0 PUSH1 0x20 DUP5 ADD RETURNDATACOPY PUSH3 0x12E JUMP JUMPDEST PUSH1 0x60 SWAP2 POP JUMPDEST POP SWAP2 POP SWAP2 POP DUP2 PUSH3 0x146 JUMPI PUSH1 0x40 MLOAD RETURNDATASIZE DUP1 PUSH1 0x0 DUP4 RETURNDATACOPY DUP1 DUP3 REVERT JUMPDEST POP POP POP POP POP POP POP POP POP PUSH3 0x603 JUMP JUMPDEST DUP1 MLOAD PUSH1 0x1 PUSH1 0x1 PUSH1 0xA0 SHL SUB DUP2 AND DUP2 EQ PUSH3 0x16D JUMPI PUSH1 0x0 DUP1 REVERT JUMPDEST SWAP2 SWAP1 POP JUMP JUMPDEST PUSH4 0x4E487B71 PUSH1 0xE0 SHL PUSH1 0x0 MSTORE PUSH1 0x41 PUSH1 0x4 MSTORE PUSH1 0x24 PUSH1 0x0 REVERT JUMPDEST PUSH1 0x40 MLOAD PUSH1 0x1F DUP3 ADD PUSH1 0x1F NOT AND DUP2 ADD PUSH1 0x1 PUSH1 0x1 PUSH1 0x40 SHL SUB DUP2 GT DUP3 DUP3 LT OR ISZERO PUSH3 0x1B3 JUMPI PUSH3 0x1B3 PUSH3 0x172 JUMP JUMPDEST PUSH1 0x40 MSTORE SWAP2 SWAP1 POP JUMP JUMPDEST PUSH1 0x0 JUMPDEST DUP4 DUP2 LT ISZERO PUSH3 0x1D8 JUMPI DUP2 DUP2 ADD MLOAD DUP4 DUP3 ADD MSTORE PUSH1 0x20 ADD PUSH3 0x1BE JUMP JUMPDEST DUP4 DUP2 GT ISZERO PUSH3 0x1E8 JUMPI PUSH1 0x0 DUP5 DUP5 ADD MSTORE JUMPDEST POP POP POP POP JUMP JUMPDEST DUP1 MLOAD DUP1 ISZERO ISZERO DUP2 EQ PUSH3 0x16D JUMPI PUSH1 0x0 DUP1 REVERT JUMPDEST PUSH1 0x0 DUP3 PUSH1 0x1F DUP4 ADD SLT PUSH3 0x211 JUMPI PUSH1 0x0 DUP1 REVERT JUMPDEST PUSH1 0x40 MLOAD PUSH1 0x60 DUP2 ADD PUSH1 0x1 PUSH1 0x1 PUSH1 0x40 SHL SUB DUP2 GT DUP3 DUP3 LT OR ISZERO PUSH3 0x236 JUMPI PUSH3 0x236 PUSH3 0x172 JUMP JUMPDEST PUSH1 0x40 MSTORE DUP1 PUSH1 0x60 DUP5 ADD DUP6 DUP2 GT ISZERO PUSH3 0x24C JUMPI PUSH1 0x0 DUP1 REVERT JUMPDEST DUP5 JUMPDEST DUP2 DUP2 LT ISZERO PUSH3 0x279 JUMPI DUP1 MLOAD PUSH1 0xFF DUP2 AND DUP2 EQ PUSH3 0x26A JUMPI PUSH1 0x0 DUP1 DUP2 REVERT JUMPDEST DUP4 MSTORE PUSH1 0x20 SWAP3 DUP4 ADD SWAP3 ADD PUSH3 0x24E JUMP JUMPDEST POP SWAP2 SWAP6 SWAP5 POP POP POP POP POP JUMP JUMPDEST PUSH1 0x0 DUP3 PUSH1 0x1F DUP4 ADD SLT PUSH3 0x296 JUMPI PUSH1 0x0 DUP1 REVERT JUMPDEST PUSH1 0x40 MLOAD PUSH1 0x80 DUP2 ADD PUSH1 0x1 PUSH1 0x1 PUSH1 0x40 SHL SUB DUP2 GT DUP3 DUP3 LT OR ISZERO PUSH3 0x2BB JUMPI PUSH3 0x2BB PUSH3 0x172 JUMP JUMPDEST PUSH1 0x40 MSTORE DUP1 PUSH1 0x80 DUP5 ADD DUP6 DUP2 GT ISZERO PUSH3 0x2D1 JUMPI PUSH1 0x0 DUP1 REVERT JUMPDEST DUP5 JUMPDEST DUP2 DUP2 LT ISZERO PUSH3 0x279 JUMPI PUSH3 0x2E7 DUP2 PUSH3 0x155 JUMP JUMPDEST DUP4 MSTORE PUSH1 0x20 SWAP3 DUP4 ADD SWAP3 ADD PUSH3 0x2D3 JUMP JUMPDEST PUSH1 0x0 DUP3 PUSH1 0x1F DUP4 ADD SLT PUSH3 0x308 JUMPI PUSH1 0x0 DUP1 REVERT JUMPDEST DUP2 MLOAD PUSH1 0x20 PUSH1 0x1 PUSH1 0x1 PUSH1 0x40 SHL SUB DUP3 GT ISZERO PUSH3 0x326 JUMPI PUSH3 0x326 PUSH3 0x172 JUMP JUMPDEST DUP2 PUSH1 0x5 SHL PUSH3 0x337 DUP3 DUP3 ADD PUSH3 0x188 JUMP JUMPDEST SWAP3 DUP4 MSTORE DUP5 DUP2 ADD DUP3 ADD SWAP3 DUP3 DUP2 ADD SWAP1 DUP8 DUP6 GT ISZERO PUSH3 0x352 JUMPI PUSH1 0x0 DUP1 REVERT JUMPDEST DUP4 DUP8 ADD SWAP3 POP JUMPDEST DUP5 DUP4 LT ISZERO PUSH3 0x37C JUMPI PUSH3 0x36C DUP4 PUSH3 0x155 JUMP JUMPDEST DUP3 MSTORE SWAP2 DUP4 ADD SWAP2 SWAP1 DUP4 ADD SWAP1 PUSH3 0x358 JUMP JUMPDEST SWAP8 SWAP7 POP POP POP POP POP POP POP JUMP JUMPDEST PUSH1 0x0 DUP1 PUSH1 0x0 DUP1 PUSH1 0x0 DUP1 PUSH1 0x0 PUSH2 0x180 DUP9 DUP11 SUB SLT ISZERO PUSH3 0x3A4 JUMPI PUSH1 0x0 DUP1 REVERT JUMPDEST PUSH3 0x3AF DUP9 PUSH3 0x155 JUMP JUMPDEST PUSH1 0x20 DUP10 ADD MLOAD SWAP1 SWAP8 POP PUSH1 0x1 PUSH1 0x1 PUSH1 0x40 SHL SUB DUP1 DUP3 GT ISZERO PUSH3 0x3CD JUMPI PUSH1 0x0 DUP1 REVERT JUMPDEST DUP2 DUP11 ADD SWAP2 POP DUP11 PUSH1 0x1F DUP4 ADD SLT PUSH3 0x3E2 JUMPI PUSH1 0x0 DUP1 REVERT JUMPDEST DUP2 MLOAD DUP2 DUP2 GT ISZERO PUSH3 0x3F7 JUMPI PUSH3 0x3F7 PUSH3 0x172 JUMP JUMPDEST PUSH3 0x40C PUSH1 0x1F DUP3 ADD PUSH1 0x1F NOT AND PUSH1 0x20 ADD PUSH3 0x188 JUMP JUMPDEST DUP2 DUP2 MSTORE DUP13 PUSH1 0x20 DUP4 DUP7 ADD ADD GT ISZERO PUSH3 0x422 JUMPI PUSH1 0x0 DUP1 REVERT JUMPDEST PUSH3 0x435 DUP3 PUSH1 0x20 DUP4 ADD PUSH1 0x20 DUP8 ADD PUSH3 0x1BB JUMP JUMPDEST SWAP9 POP PUSH3 0x447 SWAP1 POP PUSH1 0x40 DUP12 ADD PUSH3 0x1EE JUMP JUMPDEST SWAP7 POP PUSH1 0x60 DUP11 ADD MLOAD SWAP6 POP PUSH3 0x45F DUP12 PUSH1 0x80 DUP13 ADD PUSH3 0x1FF JUMP JUMPDEST SWAP5 POP PUSH3 0x470 DUP12 PUSH1 0xE0 DUP13 ADD PUSH3 0x284 JUMP JUMPDEST SWAP4 POP PUSH2 0x160 DUP11 ADD MLOAD SWAP2 POP DUP1 DUP3 GT ISZERO PUSH3 0x488 JUMPI PUSH1 0x0 DUP1 REVERT JUMPDEST POP PUSH3 0x497 DUP11 DUP3 DUP12 ADD PUSH3 0x2F6 JUMP JUMPDEST SWAP2 POP POP SWAP3 SWAP6 SWAP9 SWAP2 SWAP5 SWAP8 POP SWAP3 SWAP6 POP JUMP JUMPDEST PUSH4 0x4E487B71 PUSH1 0xE0 SHL PUSH1 0x0 MSTORE PUSH1 0x32 PUSH1 0x4 MSTORE PUSH1 0x24 PUSH1 0x0 REVERT JUMPDEST DUP1 PUSH1 0x0 JUMPDEST PUSH1 0x3 DUP2 LT ISZERO PUSH3 0x1E8 JUMPI DUP2 MLOAD PUSH1 0x1 PUSH1 0x1 PUSH1 0xA0 SHL SUB AND DUP5 MSTORE PUSH1 0x20 SWAP4 DUP5 ADD SWAP4 SWAP1 SWAP2 ADD SWAP1 PUSH1 0x1 ADD PUSH3 0x4C0 JUMP JUMPDEST PUSH1 0x0 DUP2 MLOAD DUP1 DUP5 MSTORE PUSH1 0x20 DUP1 DUP6 ADD SWAP5 POP DUP1 DUP5 ADD PUSH1 0x0 JUMPDEST DUP4 DUP2 LT ISZERO PUSH3 0x525 JUMPI DUP2 MLOAD PUSH1 0x1 PUSH1 0x1 PUSH1 0xA0 SHL SUB AND DUP8 MSTORE SWAP6 DUP3 ADD SWAP6 SWAP1 DUP3 ADD SWAP1 PUSH1 0x1 ADD PUSH3 0x4FE JUMP JUMPDEST POP SWAP5 SWAP6 SWAP5 POP POP POP POP POP JUMP JUMPDEST PUSH1 0x1 PUSH1 0x1 PUSH1 0xA0 SHL SUB DUP9 AND DUP2 MSTORE PUSH2 0x160 PUSH1 0x20 DUP1 DUP4 ADD DUP3 SWAP1 MSTORE DUP9 MLOAD SWAP2 DUP4 ADD DUP3 SWAP1 MSTORE PUSH1 0x0 SWAP2 PUSH2 0x180 SWAP2 SWAP1 PUSH3 0x568 DUP2 DUP5 DUP8 ADD DUP14 DUP6 ADD PUSH3 0x1BB JUMP JUMPDEST DUP10 ISZERO ISZERO PUSH1 0x40 DUP7 ADD MSTORE PUSH1 0x60 DUP6 ADD DUP10 SWAP1 MSTORE PUSH1 0x1F ADD PUSH1 0x1F NOT AND DUP5 ADD PUSH1 0x80 DUP6 ADD DUP9 PUSH1 0x0 JUMPDEST PUSH1 0x3 DUP2 LT ISZERO PUSH3 0x5AA JUMPI DUP2 MLOAD PUSH1 0xFF AND DUP4 MSTORE SWAP2 DUP5 ADD SWAP2 SWAP1 DUP5 ADD SWAP1 PUSH1 0x1 ADD PUSH3 0x588 JUMP JUMPDEST POP POP POP PUSH3 0x5BC PUSH1 0xE0 DUP7 ADD DUP9 PUSH3 0x4BC JUMP JUMPDEST DUP3 DUP6 DUP3 SUB ADD PUSH2 0x140 DUP7 ADD MSTORE PUSH3 0x5D5 DUP4 DUP3 ADD DUP8 PUSH3 0x4EA JUMP JUMPDEST SWAP13 SWAP12 POP POP POP POP POP POP POP POP POP POP POP POP JUMP JUMPDEST PUSH1 0x0 DUP3 MLOAD PUSH3 0x5F9 DUP2 DUP5 PUSH1 0x20 DUP8 ADD PUSH3 0x1BB JUMP JUMPDEST SWAP2 SWAP1 SWAP2 ADD SWAP3 SWAP2 POP POP JUMP JUMPDEST PUSH2 0x1D9D DUP1 PUSH3 0x613 PUSH1 0x0 CODECOPY PUSH1 0x0 RETURN INVALID PUSH1 0x80 PUSH1 0x40 MSTORE CALLVALUE DUP1 ISZERO PUSH2 0x10 JUMPI PUSH1 0x0 DUP1 REVERT JUMPDEST POP PUSH1 0x4 CALLDATASIZE LT PUSH2 0x211 JUMPI PUSH1 0x0 CALLDATALOAD PUSH1 0xE0 SHR DUP1 PUSH4 0x824C88DA GT PUSH2 0x125 JUMPI DUP1 PUSH4 0xBAA4D5E9 GT PUSH2 0xAD JUMPI DUP1 PUSH4 0xCB85669C GT PUSH2 0x7C JUMPI DUP1 PUSH4 0xCB85669C EQ PUSH2 0x50F JUMPI DUP1 PUSH4 0xDA9BCA21 EQ PUSH2 0x537 JUMPI DUP1 PUSH4 0xDE5AB14E EQ PUSH2 0x544 JUMPI DUP1 PUSH4 0xF00D6274 EQ PUSH2 0x557 JUMPI DUP1 PUSH4 0xF65BBCDE EQ PUSH2 0x56D JUMPI PUSH1 0x0 DUP1 REVERT JUMPDEST DUP1 PUSH4 0xBAA4D5E9 EQ PUSH2 0x462 JUMPI DUP1 PUSH4 0xBB3A9065 EQ PUSH2 0x4A8 JUMPI DUP1 PUSH4 0xC2B3AA08 EQ PUSH2 0x4CA JUMPI DUP1 PUSH4 0xC347D2FD EQ PUSH2 0x4ED JUMPI PUSH1 0x0 DUP1 REVERT JUMPDEST DUP1 PUSH4 0x99DB7FB3 GT PUSH2 0xF4 JUMPI DUP1 PUSH4 0x99DB7FB3 EQ PUSH2 0x3F3 JUMPI DUP1 PUSH4 0x9C630A88 EQ PUSH2 0x413 JUMPI DUP1 PUSH4 0xA19A5F50 EQ PUSH2 0x426 JUMPI DUP1 PUSH4 0xAB44997B EQ PUSH2 0x439 JUMPI DUP1 PUSH4 0xB4C62192 EQ PUSH2 0x44D JUMPI PUSH1 0x0 DUP1 REVERT JUMPDEST DUP1 PUSH4 0x824C88DA EQ PUSH2 0x3A2 JUMPI DUP1 PUSH4 0x8532CBF7 EQ PUSH2 0x3AA JUMPI DUP1 PUSH4 0x8668EAFC EQ PUSH2 0x3CE JUMPI DUP1 PUSH4 0x9360BFAD EQ PUSH2 0x3E0 JUMPI PUSH1 0x0 DUP1 REVERT JUMPDEST DUP1 PUSH4 0x34B8BB6C GT PUSH2 0x1A8 JUMPI DUP1 PUSH4 0x5F3D99B3 GT PUSH2 0x177 JUMPI DUP1 PUSH4 0x5F3D99B3 EQ PUSH2 0x333 JUMPI DUP1 PUSH4 0x6C2F34E7 EQ PUSH2 0x354 JUMPI DUP1 PUSH4 0x70ACB761 EQ PUSH2 0x367 JUMPI DUP1 PUSH4 0x7C638548 EQ PUSH2 0x37A JUMPI DUP1 PUSH4 0x81CF22D8 EQ PUSH2 0x38D JUMPI PUSH1 0x0 DUP1 REVERT JUMPDEST DUP1 PUSH4 0x34B8BB6C EQ PUSH2 0x2F0 JUMPI DUP1 PUSH4 0x3A70693D EQ PUSH2 0x303 JUMPI DUP1 PUSH4 0x4E9D5472 EQ PUSH2 0x316 JUMPI DUP1 PUSH4 0x59CA2D03 EQ PUSH2 0x31E JUMPI PUSH1 0x0 DUP1 REVERT JUMPDEST DUP1 PUSH4 0x152DE3B9 GT PUSH2 0x1E4 JUMPI DUP1 PUSH4 0x152DE3B9 EQ PUSH2 0x2AE JUMPI DUP1 PUSH4 0x1D5FD3CA EQ PUSH2 0x2C1 JUMPI DUP1 PUSH4 0x1F50DD27 EQ PUSH2 0x2CA JUMPI DUP1 PUSH4 0x2266E1BC EQ PUSH2 0x2DD JUMPI PUSH1 0x0 DUP1 REVERT JUMPDEST DUP1 PUSH4 0x4F17A9B EQ PUSH2 0x216 JUMPI DUP1 PUSH4 0x52F9B0A EQ PUSH2 0x23C JUMPI DUP1 PUSH4 0x5FE6663 EQ PUSH2 0x267 JUMPI DUP1 PUSH4 0x9C57DF7 EQ PUSH2 0x28E JUMPI JUMPDEST PUSH1 0x0 DUP1 REVERT JUMPDEST PUSH2 0x229 PUSH2 0x224 CALLDATASIZE PUSH1 0x4 PUSH2 0x13FA JUMP JUMPDEST PUSH2 0x580 JUMP JUMPDEST PUSH1 0x40 MLOAD SWAP1 DUP2 MSTORE PUSH1 0x20 ADD JUMPDEST PUSH1 0x40 MLOAD DUP1 SWAP2 SUB SWAP1 RETURN JUMPDEST PUSH1 0x7 SLOAD PUSH2 0x24F SWAP1 PUSH1 0x1 PUSH1 0x1 PUSH1 0xA0 SHL SUB AND DUP2 JUMP JUMPDEST PUSH1 0x40 MLOAD PUSH1 0x1 PUSH1 0x1 PUSH1 0xA0 SHL SUB SWAP1 SWAP2 AND DUP2 MSTORE PUSH1 0x20 ADD PUSH2 0x233 JUMP JUMPDEST PUSH1 0x1 SLOAD PUSH2 0x27C SWAP1 PUSH5 0x100000000 SWAP1 DIV PUSH1 0xFF AND DUP2 JUMP JUMPDEST PUSH1 0x40 MLOAD PUSH1 0xFF SWAP1 SWAP2 AND DUP2 MSTORE PUSH1 0x20 ADD PUSH2 0x233 JUMP JUMPDEST PUSH2 0x229 PUSH2 0x29C CALLDATASIZE PUSH1 0x4 PUSH2 0x1459 JUMP JUMPDEST PUSH1 0xA PUSH1 0x20 MSTORE PUSH1 0x0 SWAP1 DUP2 MSTORE PUSH1 0x40 SWAP1 KECCAK256 SLOAD DUP2 JUMP JUMPDEST PUSH2 0x229 PUSH2 0x2BC CALLDATASIZE PUSH1 0x4 PUSH2 0x147B JUMP JUMPDEST PUSH2 0x63B JUMP JUMPDEST PUSH2 0x229 PUSH1 0x4 SLOAD DUP2 JUMP JUMPDEST PUSH1 0x8 SLOAD PUSH2 0x24F SWAP1 PUSH1 0x1 PUSH1 0x1 PUSH1 0xA0 SHL SUB AND DUP2 JUMP JUMPDEST PUSH2 0x229 PUSH2 0x2EB CALLDATASIZE PUSH1 0x4 PUSH2 0x13FA JUMP JUMPDEST PUSH2 0x69D JUMP JUMPDEST PUSH2 0x229 PUSH2 0x2FE CALLDATASIZE PUSH1 0x4 PUSH2 0x14FB JUMP JUMPDEST PUSH2 0x6FD JUMP JUMPDEST PUSH2 0x27C PUSH2 0x311 CALLDATASIZE PUSH1 0x4 PUSH2 0x15AD JUMP JUMPDEST PUSH2 0x7C7 JUMP JUMPDEST PUSH1 0xC SLOAD PUSH2 0x229 JUMP JUMPDEST PUSH2 0x326 PUSH2 0x7EB JUMP JUMPDEST PUSH1 0x40 MLOAD PUSH2 0x233 SWAP2 SWAP1 PUSH2 0x161E JUMP JUMPDEST PUSH2 0x346 PUSH2 0x341 CALLDATASIZE PUSH1 0x4 PUSH2 0x15AD JUMP JUMPDEST PUSH2 0x879 JUMP JUMPDEST PUSH1 0x40 MLOAD PUSH2 0x233 SWAP3 SWAP2 SWAP1 PUSH2 0x1631 JUMP JUMPDEST PUSH1 0x5 SLOAD PUSH2 0x24F SWAP1 PUSH1 0x1 PUSH1 0x1 PUSH1 0xA0 SHL SUB AND DUP2 JUMP JUMPDEST PUSH2 0x229 PUSH2 0x375 CALLDATASIZE PUSH1 0x4 PUSH2 0x1654 JUMP JUMPDEST PUSH2 0x96E JUMP JUMPDEST PUSH2 0x229 PUSH2 0x388 CALLDATASIZE PUSH1 0x4 PUSH2 0x13FA JUMP JUMPDEST PUSH2 0xA2F JUMP JUMPDEST PUSH2 0x3A0 PUSH2 0x39B CALLDATASIZE PUSH1 0x4 PUSH2 0x16B3 JUMP JUMPDEST PUSH2 0xAF3 JUMP JUMPDEST STOP JUMPDEST PUSH1 0x10 SLOAD PUSH2 0x229 JUMP JUMPDEST PUSH2 0x3BD PUSH2 0x3B8 CALLDATASIZE PUSH1 0x4 PUSH2 0x15AD JUMP JUMPDEST PUSH2 0xBBA JUMP JUMPDEST PUSH1 0x40 MLOAD PUSH2 0x233 SWAP6 SWAP5 SWAP4 SWAP3 SWAP2 SWAP1 PUSH2 0x1701 JUMP JUMPDEST PUSH1 0x1 SLOAD PUSH2 0x27C SWAP1 PUSH2 0x100 SWAP1 DIV PUSH1 0xFF AND DUP2 JUMP JUMPDEST PUSH1 0x6 SLOAD PUSH2 0x24F SWAP1 PUSH1 0x1 PUSH1 0x1 PUSH1 0xA0 SHL SUB AND DUP2 JUMP JUMPDEST PUSH2 0x229 PUSH2 0x401 CALLDATASIZE PUSH1 0x4 PUSH2 0x1459 JUMP JUMPDEST PUSH1 0x9 PUSH1 0x20 MSTORE PUSH1 0x0 SWAP1 DUP2 MSTORE PUSH1 0x40 SWAP1 KECCAK256 SLOAD DUP2 JUMP JUMPDEST PUSH1 0x1 SLOAD PUSH2 0x27C SWAP1 PUSH3 0x10000 SWAP1 DIV PUSH1 0xFF AND DUP2 JUMP JUMPDEST PUSH2 0x229 PUSH2 0x434 CALLDATASIZE PUSH1 0x4 PUSH2 0x1744 JUMP JUMPDEST PUSH2 0xC95 JUMP JUMPDEST PUSH1 0x1 SLOAD PUSH2 0x27C SWAP1 PUSH4 0x1000000 SWAP1 DIV PUSH1 0xFF AND DUP2 JUMP JUMPDEST PUSH2 0x455 PUSH2 0xCF3 JUMP JUMPDEST PUSH1 0x40 MLOAD PUSH2 0x233 SWAP2 SWAP1 PUSH2 0x1804 JUMP JUMPDEST PUSH2 0x475 PUSH2 0x470 CALLDATASIZE PUSH1 0x4 PUSH2 0x15AD JUMP JUMPDEST PUSH2 0xE81 JUMP JUMPDEST PUSH1 0x40 DUP1 MLOAD PUSH1 0x1 PUSH1 0x1 PUSH1 0xA0 SHL SUB SWAP6 DUP7 AND DUP2 MSTORE PUSH1 0x20 DUP2 ADD SWAP5 SWAP1 SWAP5 MSTORE SWAP2 DUP5 AND SWAP2 DUP4 ADD SWAP2 SWAP1 SWAP2 MSTORE SWAP1 SWAP2 AND PUSH1 0x60 DUP3 ADD MSTORE PUSH1 0x80 ADD PUSH2 0x233 JUMP JUMPDEST PUSH2 0x4BB PUSH2 0x4B6 CALLDATASIZE PUSH1 0x4 PUSH2 0x15AD JUMP JUMPDEST PUSH2 0xEC9 JUMP JUMPDEST PUSH1 0x40 MLOAD PUSH2 0x233 SWAP4 SWAP3 SWAP2 SWAP1 PUSH2 0x18E7 JUMP JUMPDEST PUSH2 0x4DD PUSH2 0x4D8 CALLDATASIZE PUSH1 0x4 PUSH2 0x191D JUMP JUMPDEST PUSH2 0xF94 JUMP JUMPDEST PUSH1 0x40 MLOAD SWAP1 ISZERO ISZERO DUP2 MSTORE PUSH1 0x20 ADD PUSH2 0x233 JUMP JUMPDEST PUSH2 0x500 PUSH2 0x4FB CALLDATASIZE PUSH1 0x4 PUSH2 0x199B JUMP JUMPDEST PUSH2 0x1058 JUMP JUMPDEST PUSH1 0x40 MLOAD PUSH2 0x233 SWAP4 SWAP3 SWAP2 SWAP1 PUSH2 0x19C7 JUMP JUMPDEST PUSH2 0x522 PUSH2 0x51D CALLDATASIZE PUSH1 0x4 PUSH2 0x15AD JUMP JUMPDEST PUSH2 0x1115 JUMP JUMPDEST PUSH1 0x40 MLOAD PUSH2 0x233 SWAP10 SWAP9 SWAP8 SWAP7 SWAP6 SWAP5 SWAP4 SWAP3 SWAP2 SWAP1 PUSH2 0x19F3 JUMP JUMPDEST PUSH1 0x1 SLOAD PUSH2 0x27C SWAP1 PUSH1 0xFF AND DUP2 JUMP JUMPDEST PUSH2 0x229 PUSH2 0x552 CALLDATASIZE PUSH1 0x4 PUSH2 0x1A5B JUMP JUMPDEST PUSH2 0x1214 JUMP JUMPDEST PUSH1 0x1 SLOAD PUSH2 0x4DD SWAP1 PUSH6 0x10000000000 SWAP1 DIV PUSH1 0xFF AND DUP2 JUMP JUMPDEST PUSH2 0x229 PUSH2 0x57B CALLDATASIZE PUSH1 0x4 PUSH2 0x1AAD JUMP JUMPDEST PUSH2 0x12DB JUMP JUMPDEST PUSH1 0x2 SLOAD PUSH1 0x40 MLOAD PUSH1 0x0 SWAP2 DUP3 SWAP2 DUP3 SWAP2 PUSH1 0x1 PUSH1 0x1 PUSH1 0xA0 SHL SUB AND SWAP1 PUSH2 0x5AB SWAP1 DUP10 SWAP1 DUP10 SWAP1 DUP10 SWAP1 DUP10 SWAP1 PUSH1 0x24 ADD PUSH2 0x1B12 JUMP JUMPDEST PUSH1 0x40 DUP1 MLOAD PUSH1 0x1F NOT DUP2 DUP5 SUB ADD DUP2 MSTORE SWAP2 DUP2 MSTORE PUSH1 0x20 DUP3 ADD DUP1 MLOAD PUSH1 0x1 PUSH1 0x1 PUSH1 0xE0 SHL SUB AND PUSH4 0x4F17A9B PUSH1 0xE0 SHL OR SWAP1 MSTORE MLOAD PUSH2 0x5E0 SWAP2 SWAP1 PUSH2 0x1B4A JUMP JUMPDEST PUSH1 0x0 PUSH1 0x40 MLOAD DUP1 DUP4 SUB DUP2 DUP6 GAS DELEGATECALL SWAP2 POP POP RETURNDATASIZE DUP1 PUSH1 0x0 DUP2 EQ PUSH2 0x61B JUMPI PUSH1 0x40 MLOAD SWAP2 POP PUSH1 0x1F NOT PUSH1 0x3F RETURNDATASIZE ADD AND DUP3 ADD PUSH1 0x40 MSTORE RETURNDATASIZE DUP3 MSTORE RETURNDATASIZE PUSH1 0x0 PUSH1 0x20 DUP5 ADD RETURNDATACOPY PUSH2 0x620 JUMP JUMPDEST PUSH1 0x60 SWAP2 POP JUMPDEST POP SWAP2 POP SWAP2 POP PUSH1 0x40 MLOAD RETURNDATASIZE DUP1 PUSH1 0x0 DUP4 RETURNDATACOPY DUP4 PUSH2 0x637 JUMPI DUP1 DUP3 REVERT JUMPDEST DUP1 DUP3 RETURN JUMPDEST PUSH1 0x2 SLOAD PUSH1 0x40 MLOAD PUSH1 0x0 SWAP2 DUP3 SWAP2 DUP3 SWAP2 PUSH1 0x1 PUSH1 0x1 PUSH1 0xA0 SHL SUB AND SWAP1 PUSH2 0x668 SWAP1 DUP11 SWAP1 DUP11 SWAP1 DUP11 SWAP1 DUP11 SWAP1 DUP11 SWAP1 PUSH1 0x24 ADD PUSH2 0x1B66 JUMP JUMPDEST PUSH1 0x40 DUP1 MLOAD PUSH1 0x1F NOT DUP2 DUP5 SUB ADD DUP2 MSTORE SWAP2 DUP2 MSTORE PUSH1 0x20 DUP3 ADD DUP1 MLOAD PUSH1 0x1 PUSH1 0x1 PUSH1 0xE0 SHL SUB AND PUSH4 0x152DE3B9 PUSH1 0xE0 SHL OR SWAP1 MSTORE MLOAD PUSH2 0x5E0 SWAP2 SWAP1 PUSH2 0x1B4A JUMP JUMPDEST PUSH1 0x2 SLOAD PUSH1 0x40 MLOAD PUSH1 0x0 SWAP2 DUP3 SWAP2 DUP3 SWAP2 PUSH1 0x1 PUSH1 0x1 PUSH1 0xA0 SHL SUB AND SWAP1 PUSH2 0x6C8 SWAP1 DUP10 SWAP1 DUP10 SWAP1 DUP10 SWAP1 DUP10 SWAP1 PUSH1 0x24 ADD PUSH2 0x1B12 JUMP JUMPDEST PUSH1 0x40 DUP1 MLOAD PUSH1 0x1F NOT DUP2 DUP5 SUB ADD DUP2 MSTORE SWAP2 DUP2 MSTORE PUSH1 0x20 DUP3 ADD DUP1 MLOAD PUSH1 0x1 PUSH1 0x1 PUSH1 0xE0 SHL SUB AND PUSH4 0x899B86F PUSH1 0xE2 SHL OR SWAP1 MSTORE MLOAD PUSH2 0x5E0 SWAP2 SWAP1 PUSH2 0x1B4A JUMP JUMPDEST PUSH1 0x2 SLOAD PUSH1 0x40 MLOAD PUSH1 0x0 SWAP2 DUP3 SWAP2 DUP3 SWAP2 PUSH1 0x1 PUSH1 0x1 PUSH1 0xA0 SHL SUB AND SWAP1 PUSH2 0x72C SWAP1 DUP12 SWAP1 DUP12 SWAP1 DUP12 SWAP1 DUP12 SWAP1 DUP12 SWAP1 DUP12 SWAP1 PUSH1 0x24 ADD PUSH2 0x1BAB JUMP JUMPDEST PUSH1 0x40 DUP1 MLOAD PUSH1 0x1F NOT DUP2 DUP5 SUB ADD DUP2 MSTORE SWAP2 DUP2 MSTORE PUSH1 0x20 DUP3 ADD DUP1 MLOAD PUSH1 0x1 PUSH1 0x1 PUSH1 0xE0 SHL SUB AND PUSH4 0xD2E2EDB PUSH1 0xE2 SHL OR SWAP1 MSTORE MLOAD PUSH2 0x761 SWAP2 SWAP1 PUSH2 0x1B4A JUMP JUMPDEST PUSH1 0x0 PUSH1 0x40 MLOAD DUP1 DUP4 SUB DUP2 DUP6 GAS DELEGATECALL SWAP2 POP POP RETURNDATASIZE DUP1 PUSH1 0x0 DUP2 EQ PUSH2 0x79C JUMPI PUSH1 0x40 MLOAD SWAP2 POP PUSH1 0x1F NOT PUSH1 0x3F RETURNDATASIZE ADD AND DUP3 ADD PUSH1 0x40 MSTORE RETURNDATASIZE DUP3 MSTORE RETURNDATASIZE PUSH1 0x0 PUSH1 0x20 DUP5 ADD RETURNDATACOPY PUSH2 0x7A1 JUMP JUMPDEST PUSH1 0x60 SWAP2 POP JUMPDEST POP SWAP2 POP SWAP2 POP PUSH1 0x40 MLOAD RETURNDATASIZE DUP1 PUSH1 0x0 DUP4 RETURNDATACOPY DUP4 PUSH2 0x7B8 JUMPI DUP1 DUP3 REVERT JUMPDEST POP MLOAD SWAP10 SWAP9 POP POP POP POP POP POP POP POP POP JUMP JUMPDEST PUSH1 0xF DUP2 DUP2 SLOAD DUP2 LT PUSH2 0x7D7 JUMPI PUSH1 0x0 DUP1 REVERT JUMPDEST PUSH1 0x0 SWAP2 DUP3 MSTORE PUSH1 0x20 SWAP1 SWAP2 KECCAK256 ADD SLOAD PUSH1 0xFF AND SWAP1 POP DUP2 JUMP JUMPDEST PUSH1 0x0 DUP1 SLOAD PUSH2 0x7F8 SWAP1 PUSH2 0x1C10 JUMP JUMPDEST DUP1 PUSH1 0x1F ADD PUSH1 0x20 DUP1 SWAP2 DIV MUL PUSH1 0x20 ADD PUSH1 0x40 MLOAD SWAP1 DUP2 ADD PUSH1 0x40 MSTORE DUP1 SWAP3 SWAP2 SWAP1 DUP2 DUP2 MSTORE PUSH1 0x20 ADD DUP3 DUP1 SLOAD PUSH2 0x824 SWAP1 PUSH2 0x1C10 JUMP JUMPDEST DUP1 ISZERO PUSH2 0x871 JUMPI DUP1 PUSH1 0x1F LT PUSH2 0x846 JUMPI PUSH2 0x100 DUP1 DUP4 SLOAD DIV MUL DUP4 MSTORE SWAP2 PUSH1 0x20 ADD SWAP2 PUSH2 0x871 JUMP JUMPDEST DUP3 ADD SWAP2 SWAP1 PUSH1 0x0 MSTORE PUSH1 0x20 PUSH1 0x0 KECCAK256 SWAP1 JUMPDEST DUP2 SLOAD DUP2 MSTORE SWAP1 PUSH1 0x1 ADD SWAP1 PUSH1 0x20 ADD DUP1 DUP4 GT PUSH2 0x854 JUMPI DUP3 SWAP1 SUB PUSH1 0x1F AND DUP3 ADD SWAP2 JUMPDEST POP POP POP POP POP DUP2 JUMP JUMPDEST PUSH1 0x2 SLOAD PUSH1 0x40 MLOAD PUSH1 0x24 DUP2 ADD DUP4 SWAP1 MSTORE PUSH1 0x0 SWAP2 PUSH1 0x60 SWAP2 DUP4 SWAP2 DUP3 SWAP2 PUSH1 0x1 PUSH1 0x1 PUSH1 0xA0 SHL SUB SWAP1 SWAP2 AND SWAP1 PUSH1 0x44 ADD PUSH1 0x40 DUP1 MLOAD PUSH1 0x1F NOT DUP2 DUP5 SUB ADD DUP2 MSTORE SWAP2 DUP2 MSTORE PUSH1 0x20 DUP3 ADD DUP1 MLOAD PUSH1 0x1 PUSH1 0x1 PUSH1 0xE0 SHL SUB AND PUSH4 0x4EEB7B85 PUSH1 0xE0 SHL OR SWAP1 MSTORE MLOAD PUSH2 0x8D4 SWAP2 SWAP1 PUSH2 0x1B4A JUMP JUMPDEST PUSH1 0x0 PUSH1 0x40 MLOAD DUP1 DUP4 SUB DUP2 DUP6 GAS DELEGATECALL SWAP2 POP POP RETURNDATASIZE DUP1 PUSH1 0x0 DUP2 EQ PUSH2 0x90F JUMPI PUSH1 0x40 MLOAD SWAP2 POP PUSH1 0x1F NOT PUSH1 0x3F RETURNDATASIZE ADD AND DUP3 ADD PUSH1 0x40 MSTORE RETURNDATASIZE DUP3 MSTORE RETURNDATASIZE PUSH1 0x0 PUSH1 0x20 DUP5 ADD RETURNDATACOPY PUSH2 0x914 JUMP JUMPDEST PUSH1 0x60 SWAP2 POP JUMPDEST POP SWAP2 POP SWAP2 POP DUP2 PUSH2 0x92B JUMPI PUSH1 0x40 MLOAD RETURNDATASIZE DUP1 PUSH1 0x0 DUP4 RETURNDATACOPY DUP1 DUP3 REVERT JUMPDEST PUSH1 0x1 PUSH1 0x40 MLOAD DUP1 PUSH1 0x40 ADD PUSH1 0x40 MSTORE DUP1 PUSH1 0x19 DUP2 MSTORE PUSH1 0x20 ADD PUSH32 0x537563636573732065786563757465642070726F706F73616C00000000000000 DUP2 MSTORE POP SWAP4 POP SWAP4 POP POP POP SWAP2 POP SWAP2 JUMP JUMPDEST PUSH1 0x2 SLOAD PUSH1 0x40 MLOAD PUSH1 0x0 SWAP2 DUP3 SWAP2 DUP3 SWAP2 PUSH1 0x1 PUSH1 0x1 PUSH1 0xA0 SHL SUB AND SWAP1 PUSH2 0x997 SWAP1 DUP9 SWAP1 DUP9 SWAP1 DUP9 SWAP1 PUSH1 0x24 ADD PUSH2 0x1C4B JUMP JUMPDEST PUSH1 0x40 DUP1 MLOAD PUSH1 0x1F NOT DUP2 DUP5 SUB ADD DUP2 MSTORE SWAP2 DUP2 MSTORE PUSH1 0x20 DUP3 ADD DUP1 MLOAD PUSH1 0x1 PUSH1 0x1 PUSH1 0xE0 SHL SUB AND PUSH4 0x70ACB761 PUSH1 0xE0 SHL OR SWAP1 MSTORE MLOAD PUSH2 0x9CC SWAP2 SWAP1 PUSH2 0x1B4A JUMP JUMPDEST PUSH1 0x0 PUSH1 0x40 MLOAD DUP1 DUP4 SUB DUP2 DUP6 GAS DELEGATECALL SWAP2 POP POP RETURNDATASIZE DUP1 PUSH1 0x0 DUP2 EQ PUSH2 0xA07 JUMPI PUSH1 0x40 MLOAD SWAP2 POP PUSH1 0x1F NOT PUSH1 0x3F RETURNDATASIZE ADD AND DUP3 ADD PUSH1 0x40 MSTORE RETURNDATASIZE DUP3 MSTORE RETURNDATASIZE PUSH1 0x0 PUSH1 0x20 DUP5 ADD RETURNDATACOPY PUSH2 0xA0C JUMP JUMPDEST PUSH1 0x60 SWAP2 POP JUMPDEST POP SWAP2 POP SWAP2 POP PUSH1 0x40 MLOAD RETURNDATASIZE DUP1 PUSH1 0x0 DUP4 RETURNDATACOPY DUP4 PUSH2 0xA23 JUMPI DUP1 DUP3 REVERT JUMPDEST POP MLOAD SWAP7 SWAP6 POP POP POP POP POP POP JUMP JUMPDEST PUSH1 0x2 SLOAD PUSH1 0x40 MLOAD PUSH1 0x0 SWAP2 DUP3 SWAP2 DUP3 SWAP2 PUSH1 0x1 PUSH1 0x1 PUSH1 0xA0 SHL SUB AND SWAP1 PUSH2 0xA5A SWAP1 DUP10 SWAP1 DUP10 SWAP1 DUP10 SWAP1 DUP10 SWAP1 PUSH1 0x24 ADD PUSH2 0x1B12 JUMP JUMPDEST PUSH1 0x40 DUP1 MLOAD PUSH1 0x1F NOT DUP2 DUP5 SUB ADD DUP2 MSTORE SWAP2 DUP2 MSTORE PUSH1 0x20 DUP3 ADD DUP1 MLOAD PUSH1 0x1 PUSH1 0x1 PUSH1 0xE0 SHL SUB AND PUSH4 0xF8C70A9 PUSH1 0xE3 SHL OR SWAP1 MSTORE MLOAD PUSH2 0xA8F SWAP2 SWAP1 PUSH2 0x1B4A JUMP JUMPDEST PUSH1 0x0 PUSH1 0x40 MLOAD DUP1 DUP4 SUB DUP2 DUP6 GAS DELEGATECALL SWAP2 POP POP RETURNDATASIZE DUP1 PUSH1 0x0 DUP2 EQ PUSH2 0xACA JUMPI PUSH1 0x40 MLOAD SWAP2 POP PUSH1 0x1F NOT PUSH1 0x3F RETURNDATASIZE ADD AND DUP3 ADD PUSH1 0x40 MSTORE RETURNDATASIZE DUP3 MSTORE RETURNDATASIZE PUSH1 0x0 PUSH1 0x20 DUP5 ADD RETURNDATACOPY PUSH2 0xACF JUMP JUMPDEST PUSH1 0x60 SWAP2 POP JUMPDEST POP SWAP2 POP SWAP2 POP PUSH1 0x40 MLOAD RETURNDATASIZE DUP1 PUSH1 0x0 DUP4 RETURNDATACOPY DUP4 PUSH2 0xAE6 JUMPI DUP1 DUP3 REVERT JUMPDEST POP MLOAD SWAP8 SWAP7 POP POP POP POP POP POP POP JUMP JUMPDEST PUSH1 0x0 DUP1 PUSH1 0x1 PUSH1 0x6 SWAP1 SLOAD SWAP1 PUSH2 0x100 EXP SWAP1 DIV PUSH1 0x1 PUSH1 0x1 PUSH1 0xA0 SHL SUB AND PUSH1 0x1 PUSH1 0x1 PUSH1 0xA0 SHL SUB AND DUP5 DUP5 PUSH1 0x40 MLOAD PUSH1 0x24 ADD PUSH2 0xB28 SWAP3 SWAP2 SWAP1 PUSH2 0x1631 JUMP JUMPDEST PUSH1 0x40 DUP1 MLOAD PUSH1 0x1F NOT DUP2 DUP5 SUB ADD DUP2 MSTORE SWAP2 DUP2 MSTORE PUSH1 0x20 DUP3 ADD DUP1 MLOAD PUSH1 0x1 PUSH1 0x1 PUSH1 0xE0 SHL SUB AND PUSH4 0x1039E45B PUSH1 0xE3 SHL OR SWAP1 MSTORE MLOAD PUSH2 0xB5D SWAP2 SWAP1 PUSH2 0x1B4A JUMP JUMPDEST PUSH1 0x0 PUSH1 0x40 MLOAD DUP1 DUP4 SUB DUP2 DUP6 GAS DELEGATECALL SWAP2 POP POP RETURNDATASIZE DUP1 PUSH1 0x0 DUP2 EQ PUSH2 0xB98 JUMPI PUSH1 0x40 MLOAD SWAP2 POP PUSH1 0x1F NOT PUSH1 0x3F RETURNDATASIZE ADD AND DUP3 ADD PUSH1 0x40 MSTORE RETURNDATASIZE DUP3 MSTORE RETURNDATASIZE PUSH1 0x0 PUSH1 0x20 DUP5 ADD RETURNDATACOPY PUSH2 0xB9D JUMP JUMPDEST PUSH1 0x60 SWAP2 POP JUMPDEST POP SWAP2 POP SWAP2 POP DUP2 PUSH2 0xBB4 JUMPI PUSH1 0x40 MLOAD RETURNDATASIZE DUP1 PUSH1 0x0 DUP4 RETURNDATACOPY DUP1 DUP3 REVERT JUMPDEST POP POP POP POP JUMP JUMPDEST PUSH1 0x10 DUP2 DUP2 SLOAD DUP2 LT PUSH2 0xBCA JUMPI PUSH1 0x0 DUP1 REVERT JUMPDEST PUSH1 0x0 SWAP2 DUP3 MSTORE PUSH1 0x20 SWAP1 SWAP2 KECCAK256 PUSH1 0x4 SWAP1 SWAP2 MUL ADD DUP1 SLOAD PUSH1 0x1 DUP3 ADD DUP1 SLOAD PUSH1 0x1 PUSH1 0x1 PUSH1 0xA0 SHL SUB SWAP1 SWAP3 AND SWAP4 POP SWAP1 PUSH2 0xBF9 SWAP1 PUSH2 0x1C10 JUMP JUMPDEST DUP1 PUSH1 0x1F ADD PUSH1 0x20 DUP1 SWAP2 DIV MUL PUSH1 0x20 ADD PUSH1 0x40 MLOAD SWAP1 DUP2 ADD PUSH1 0x40 MSTORE DUP1 SWAP3 SWAP2 SWAP1 DUP2 DUP2 MSTORE PUSH1 0x20 ADD DUP3 DUP1 SLOAD PUSH2 0xC25 SWAP1 PUSH2 0x1C10 JUMP JUMPDEST DUP1 ISZERO PUSH2 0xC72 JUMPI DUP1 PUSH1 0x1F LT PUSH2 0xC47 JUMPI PUSH2 0x100 DUP1 DUP4 SLOAD DIV MUL DUP4 MSTORE SWAP2 PUSH1 0x20 ADD SWAP2 PUSH2 0xC72 JUMP JUMPDEST DUP3 ADD SWAP2 SWAP1 PUSH1 0x0 MSTORE PUSH1 0x20 PUSH1 0x0 KECCAK256 SWAP1 JUMPDEST DUP2 SLOAD DUP2 MSTORE SWAP1 PUSH1 0x1 ADD SWAP1 PUSH1 0x20 ADD DUP1 DUP4 GT PUSH2 0xC55 JUMPI DUP3 SWAP1 SUB PUSH1 0x1F AND DUP3 ADD SWAP2 JUMPDEST POP POP POP POP PUSH1 0x2 DUP4 ADD SLOAD PUSH1 0x3 SWAP1 SWAP4 ADD SLOAD SWAP2 SWAP3 SWAP2 PUSH1 0xFF DUP1 DUP3 AND SWAP3 POP PUSH2 0x100 SWAP1 SWAP2 DIV AND DUP6 JUMP JUMPDEST PUSH1 0x2 SLOAD PUSH1 0x40 MLOAD PUSH1 0x0 SWAP2 DUP3 SWAP2 DUP3 SWAP2 PUSH1 0x1 PUSH1 0x1 PUSH1 0xA0 SHL SUB AND SWAP1 PUSH2 0xCBE SWAP1 DUP9 SWAP1 DUP9 SWAP1 DUP9 SWAP1 PUSH1 0x24 ADD PUSH2 0x1C77 JUMP JUMPDEST PUSH1 0x40 DUP1 MLOAD PUSH1 0x1F NOT DUP2 DUP5 SUB ADD DUP2 MSTORE SWAP2 DUP2 MSTORE PUSH1 0x20 DUP3 ADD DUP1 MLOAD PUSH1 0x1 PUSH1 0x1 PUSH1 0xE0 SHL SUB AND PUSH4 0xA19A5F5 PUSH1 0xE4 SHL OR SWAP1 MSTORE MLOAD PUSH2 0x5E0 SWAP2 SWAP1 PUSH2 0x1B4A JUMP JUMPDEST PUSH1 0x60 PUSH1 0xC DUP1 SLOAD DUP1 PUSH1 0x20 MUL PUSH1 0x20 ADD PUSH1 0x40 MLOAD SWAP1 DUP2 ADD PUSH1 0x40 MSTORE DUP1 SWAP3 SWAP2 SWAP1 DUP2 DUP2 MSTORE PUSH1 0x20 ADD PUSH1 0x0 SWAP1 JUMPDEST DUP3 DUP3 LT ISZERO PUSH2 0xE78 JUMPI PUSH1 0x0 DUP5 DUP2 MSTORE PUSH1 0x20 SWAP1 DUP2 SWAP1 KECCAK256 PUSH1 0x40 DUP1 MLOAD PUSH2 0x120 DUP2 ADD SWAP1 SWAP2 MSTORE PUSH1 0x5 DUP6 MUL SWAP1 SWAP2 ADD DUP1 SLOAD PUSH1 0x1 PUSH1 0x1 PUSH1 0xA0 SHL SUB DUP2 AND DUP4 MSTORE SWAP2 SWAP3 SWAP1 SWAP2 SWAP1 DUP4 ADD SWAP1 PUSH1 0x1 PUSH1 0xA0 SHL SWAP1 DIV PUSH1 0xFF AND PUSH1 0x8 DUP2 GT ISZERO PUSH2 0xD6E JUMPI PUSH2 0xD6E PUSH2 0x17CC JUMP JUMPDEST PUSH1 0x8 DUP2 GT ISZERO PUSH2 0xD7F JUMPI PUSH2 0xD7F PUSH2 0x17CC JUMP JUMPDEST DUP2 MSTORE PUSH1 0x20 ADD PUSH1 0x1 DUP3 ADD DUP1 SLOAD PUSH2 0xD93 SWAP1 PUSH2 0x1C10 JUMP JUMPDEST DUP1 PUSH1 0x1F ADD PUSH1 0x20 DUP1 SWAP2 DIV MUL PUSH1 0x20 ADD PUSH1 0x40 MLOAD SWAP1 DUP2 ADD PUSH1 0x40 MSTORE DUP1 SWAP3 SWAP2 SWAP1 DUP2 DUP2 MSTORE PUSH1 0x20 ADD DUP3 DUP1 SLOAD PUSH2 0xDBF SWAP1 PUSH2 0x1C10 JUMP JUMPDEST DUP1 ISZERO PUSH2 0xE0C JUMPI DUP1 PUSH1 0x1F LT PUSH2 0xDE1 JUMPI PUSH2 0x100 DUP1 DUP4 SLOAD DIV MUL DUP4 MSTORE SWAP2 PUSH1 0x20 ADD SWAP2 PUSH2 0xE0C JUMP JUMPDEST DUP3 ADD SWAP2 SWAP1 PUSH1 0x0 MSTORE PUSH1 0x20 PUSH1 0x0 KECCAK256 SWAP1 JUMPDEST DUP2 SLOAD DUP2 MSTORE SWAP1 PUSH1 0x1 ADD SWAP1 PUSH1 0x20 ADD DUP1 DUP4 GT PUSH2 0xDEF JUMPI DUP3 SWAP1 SUB PUSH1 0x1F AND DUP3 ADD SWAP2 JUMPDEST POP POP POP SWAP2 DUP4 MSTORE POP POP PUSH1 0x2 DUP3 ADD SLOAD PUSH1 0x20 DUP1 DUP4 ADD SWAP2 SWAP1 SWAP2 MSTORE PUSH1 0x3 DUP4 ADD SLOAD PUSH1 0xFF DUP1 DUP3 AND PUSH1 0x40 DUP6 ADD MSTORE PUSH2 0x100 DUP3 DIV DUP2 AND PUSH1 0x60 DUP6 ADD MSTORE PUSH3 0x10000 DUP3 DIV DUP2 AND ISZERO ISZERO PUSH1 0x80 DUP6 ADD MSTORE PUSH4 0x1000000 SWAP1 SWAP2 DIV AND ISZERO ISZERO PUSH1 0xA0 DUP4 ADD MSTORE PUSH1 0x4 SWAP1 SWAP3 ADD SLOAD PUSH1 0xC0 SWAP1 SWAP2 ADD MSTORE SWAP1 DUP3 MSTORE PUSH1 0x1 SWAP3 SWAP1 SWAP3 ADD SWAP2 ADD PUSH2 0xD17 JUMP JUMPDEST POP POP POP POP SWAP1 POP SWAP1 JUMP JUMPDEST PUSH1 0xE DUP2 DUP2 SLOAD DUP2 LT PUSH2 0xE91 JUMPI PUSH1 0x0 DUP1 REVERT JUMPDEST PUSH1 0x0 SWAP2 DUP3 MSTORE PUSH1 0x20 SWAP1 SWAP2 KECCAK256 PUSH1 0x4 SWAP1 SWAP2 MUL ADD DUP1 SLOAD PUSH1 0x1 DUP3 ADD SLOAD PUSH1 0x2 DUP4 ADD SLOAD PUSH1 0x3 SWAP1 SWAP4 ADD SLOAD PUSH1 0x1 PUSH1 0x1 PUSH1 0xA0 SHL SUB SWAP3 DUP4 AND SWAP5 POP SWAP1 SWAP3 DUP3 AND SWAP2 AND DUP5 JUMP JUMPDEST PUSH1 0xD DUP2 DUP2 SLOAD DUP2 LT PUSH2 0xED9 JUMPI PUSH1 0x0 DUP1 REVERT JUMPDEST PUSH1 0x0 SWAP2 DUP3 MSTORE PUSH1 0x20 SWAP1 SWAP2 KECCAK256 PUSH1 0x3 SWAP1 SWAP2 MUL ADD DUP1 SLOAD PUSH1 0x1 DUP3 ADD DUP1 SLOAD PUSH1 0x1 PUSH1 0x1 PUSH1 0xA0 SHL SUB SWAP1 SWAP3 AND SWAP4 POP SWAP1 PUSH2 0xF08 SWAP1 PUSH2 0x1C10 JUMP JUMPDEST DUP1 PUSH1 0x1F ADD PUSH1 0x20 DUP1 SWAP2 DIV MUL PUSH1 0x20 ADD PUSH1 0x40 MLOAD SWAP1 DUP2 ADD PUSH1 0x40 MSTORE DUP1 SWAP3 SWAP2 SWAP1 DUP2 DUP2 MSTORE PUSH1 0x20 ADD DUP3 DUP1 SLOAD PUSH2 0xF34 SWAP1 PUSH2 0x1C10 JUMP JUMPDEST DUP1 ISZERO PUSH2 0xF81 JUMPI DUP1 PUSH1 0x1F LT PUSH2 0xF56 JUMPI PUSH2 0x100 DUP1 DUP4 SLOAD DIV MUL DUP4 MSTORE SWAP2 PUSH1 0x20 ADD SWAP2 PUSH2 0xF81 JUMP JUMPDEST DUP3 ADD SWAP2 SWAP1 PUSH1 0x0 MSTORE PUSH1 0x20 PUSH1 0x0 KECCAK256 SWAP1 JUMPDEST DUP2 SLOAD DUP2 MSTORE SWAP1 PUSH1 0x1 ADD SWAP1 PUSH1 0x20 ADD DUP1 DUP4 GT PUSH2 0xF64 JUMPI DUP3 SWAP1 SUB PUSH1 0x1F AND DUP3 ADD SWAP2 JUMPDEST POP POP POP PUSH1 0x2 SWAP1 SWAP4 ADD SLOAD SWAP2 SWAP3 POP POP PUSH1 0xFF AND DUP4 JUMP JUMPDEST PUSH1 0x2 SLOAD PUSH1 0x40 MLOAD PUSH1 0x0 SWAP2 DUP3 SWAP2 DUP3 SWAP2 PUSH1 0x1 PUSH1 0x1 PUSH1 0xA0 SHL SUB AND SWAP1 PUSH2 0xFBF SWAP1 DUP10 SWAP1 DUP10 SWAP1 DUP10 SWAP1 DUP10 SWAP1 PUSH1 0x24 ADD PUSH2 0x1CBA JUMP JUMPDEST PUSH1 0x40 DUP1 MLOAD PUSH1 0x1F NOT DUP2 DUP5 SUB ADD DUP2 MSTORE SWAP2 DUP2 MSTORE PUSH1 0x20 DUP3 ADD DUP1 MLOAD PUSH1 0x1 PUSH1 0x1 PUSH1 0xE0 SHL SUB AND PUSH4 0x9E803DFB PUSH1 0xE0 SHL OR SWAP1 MSTORE MLOAD PUSH2 0xFF4 SWAP2 SWAP1 PUSH2 0x1B4A JUMP JUMPDEST PUSH1 0x0 PUSH1 0x40 MLOAD DUP1 DUP4 SUB DUP2 DUP6 GAS DELEGATECALL SWAP2 POP POP RETURNDATASIZE DUP1 PUSH1 0x0 DUP2 EQ PUSH2 0x102F JUMPI PUSH1 0x40 MLOAD SWAP2 POP PUSH1 0x1F NOT PUSH1 0x3F RETURNDATASIZE ADD AND DUP3 ADD PUSH1 0x40 MSTORE RETURNDATASIZE DUP3 MSTORE RETURNDATASIZE PUSH1 0x0 PUSH1 0x20 DUP5 ADD RETURNDATACOPY PUSH2 0x1034 JUMP JUMPDEST PUSH1 0x60 SWAP2 POP JUMPDEST POP SWAP2 POP SWAP2 POP DUP2 PUSH2 0x104B JUMPI PUSH1 0x40 MLOAD RETURNDATASIZE DUP1 PUSH1 0x0 DUP4 RETURNDATACOPY DUP1 DUP3 REVERT JUMPDEST POP PUSH1 0x1 SWAP7 SWAP6 POP POP POP POP POP POP JUMP JUMPDEST PUSH1 0xB PUSH1 0x20 SWAP1 DUP2 MSTORE PUSH1 0x0 SWAP3 DUP4 MSTORE PUSH1 0x40 DUP1 DUP5 KECCAK256 SWAP1 SWAP2 MSTORE SWAP1 DUP3 MSTORE SWAP1 KECCAK256 DUP1 SLOAD PUSH1 0x1 DUP3 ADD DUP1 SLOAD PUSH1 0xFF DUP1 DUP5 AND SWAP5 PUSH2 0x100 SWAP1 SWAP5 DIV AND SWAP3 SWAP2 SWAP1 PUSH2 0x1092 SWAP1 PUSH2 0x1C10 JUMP JUMPDEST DUP1 PUSH1 0x1F ADD PUSH1 0x20 DUP1 SWAP2 DIV MUL PUSH1 0x20 ADD PUSH1 0x40 MLOAD SWAP1 DUP2 ADD PUSH1 0x40 MSTORE DUP1 SWAP3 SWAP2 SWAP1 DUP2 DUP2 MSTORE PUSH1 0x20 ADD DUP3 DUP1 SLOAD PUSH2 0x10BE SWAP1 PUSH2 0x1C10 JUMP JUMPDEST DUP1 ISZERO PUSH2 0x110B JUMPI DUP1 PUSH1 0x1F LT PUSH2 0x10E0 JUMPI PUSH2 0x100 DUP1 DUP4 SLOAD DIV MUL DUP4 MSTORE SWAP2 PUSH1 0x20 ADD SWAP2 PUSH2 0x110B JUMP JUMPDEST DUP3 ADD SWAP2 SWAP1 PUSH1 0x0 MSTORE PUSH1 0x20 PUSH1 0x0 KECCAK256 SWAP1 JUMPDEST DUP2 SLOAD DUP2 MSTORE SWAP1 PUSH1 0x1 ADD SWAP1 PUSH1 0x20 ADD DUP1 DUP4 GT PUSH2 0x10EE JUMPI DUP3 SWAP1 SUB PUSH1 0x1F AND DUP3 ADD SWAP2 JUMPDEST POP POP POP POP POP SWAP1 POP DUP4 JUMP JUMPDEST PUSH1 0xC DUP2 DUP2 SLOAD DUP2 LT PUSH2 0x1125 JUMPI PUSH1 0x0 DUP1 REVERT JUMPDEST PUSH1 0x0 SWAP2 DUP3 MSTORE PUSH1 0x20 SWAP1 SWAP2 KECCAK256 PUSH1 0x5 SWAP1 SWAP2 MUL ADD DUP1 SLOAD PUSH1 0x1 DUP3 ADD DUP1 SLOAD PUSH1 0x1 PUSH1 0x1 PUSH1 0xA0 SHL SUB DUP4 AND SWAP5 POP PUSH1 0x1 PUSH1 0xA0 SHL SWAP1 SWAP3 DIV PUSH1 0xFF AND SWAP3 SWAP2 PUSH2 0x115F SWAP1 PUSH2 0x1C10 JUMP JUMPDEST DUP1 PUSH1 0x1F ADD PUSH1 0x20 DUP1 SWAP2 DIV MUL PUSH1 0x20 ADD PUSH1 0x40 MLOAD SWAP1 DUP2 ADD PUSH1 0x40 MSTORE DUP1 SWAP3 SWAP2 SWAP1 DUP2 DUP2 MSTORE PUSH1 0x20 ADD DUP3 DUP1 SLOAD PUSH2 0x118B SWAP1 PUSH2 0x1C10 JUMP JUMPDEST DUP1 ISZERO PUSH2 0x11D8 JUMPI DUP1 PUSH1 0x1F LT PUSH2 0x11AD JUMPI PUSH2 0x100 DUP1 DUP4 SLOAD DIV MUL DUP4 MSTORE SWAP2 PUSH1 0x20 ADD SWAP2 PUSH2 0x11D8 JUMP JUMPDEST DUP3 ADD SWAP2 SWAP1 PUSH1 0x0 MSTORE PUSH1 0x20 PUSH1 0x0 KECCAK256 SWAP1 JUMPDEST DUP2 SLOAD DUP2 MSTORE SWAP1 PUSH1 0x1 ADD SWAP1 PUSH1 0x20 ADD DUP1 DUP4 GT PUSH2 0x11BB JUMPI DUP3 SWAP1 SUB PUSH1 0x1F AND DUP3 ADD SWAP2 JUMPDEST POP POP POP PUSH1 0x2 DUP5 ADD SLOAD PUSH1 0x3 DUP6 ADD SLOAD PUSH1 0x4 SWAP1 SWAP6 ADD SLOAD SWAP4 SWAP5 SWAP1 SWAP4 PUSH1 0xFF DUP1 DUP4 AND SWAP5 POP PUSH2 0x100 DUP4 DIV DUP2 AND SWAP4 POP PUSH3 0x10000 DUP4 DIV DUP2 AND SWAP3 PUSH4 0x1000000 SWAP1 DIV AND SWAP1 DUP10 JUMP JUMPDEST PUSH1 0x2 SLOAD PUSH1 0x40 MLOAD PUSH1 0x0 SWAP2 DUP3 SWAP2 DUP3 SWAP2 PUSH1 0x1 PUSH1 0x1 PUSH1 0xA0 SHL SUB AND SWAP1 PUSH2 0x1241 SWAP1 DUP11 SWAP1 DUP11 SWAP1 DUP11 SWAP1 DUP11 SWAP1 DUP11 SWAP1 PUSH1 0x24 ADD PUSH2 0x1CF8 JUMP JUMPDEST PUSH1 0x40 DUP1 MLOAD PUSH1 0x1F NOT DUP2 DUP5 SUB ADD DUP2 MSTORE SWAP2 DUP2 MSTORE PUSH1 0x20 DUP3 ADD DUP1 MLOAD PUSH1 0x1 PUSH1 0x1 PUSH1 0xE0 SHL SUB AND PUSH4 0x6F2D58A7 PUSH1 0xE1 SHL OR SWAP1 MSTORE MLOAD PUSH2 0x1276 SWAP2 SWAP1 PUSH2 0x1B4A JUMP JUMPDEST PUSH1 0x0 PUSH1 0x40 MLOAD DUP1 DUP4 SUB DUP2 DUP6 GAS DELEGATECALL SWAP2 POP POP RETURNDATASIZE DUP1 PUSH1 0x0 DUP2 EQ PUSH2 0x12B1 JUMPI PUSH1 0x40 MLOAD SWAP2 POP PUSH1 0x1F NOT PUSH1 0x3F RETURNDATASIZE ADD AND DUP3 ADD PUSH1 0x40 MSTORE RETURNDATASIZE DUP3 MSTORE RETURNDATASIZE PUSH1 0x0 PUSH1 0x20 DUP5 ADD RETURNDATACOPY PUSH2 0x12B6 JUMP JUMPDEST PUSH1 0x60 SWAP2 POP JUMPDEST POP SWAP2 POP SWAP2 POP PUSH1 0x40 MLOAD RETURNDATASIZE DUP1 PUSH1 0x0 DUP4 RETURNDATACOPY DUP4 PUSH2 0x12CD JUMPI DUP1 DUP3 REVERT JUMPDEST POP MLOAD SWAP9 SWAP8 POP POP POP POP POP POP POP POP JUMP JUMPDEST PUSH1 0x2 SLOAD PUSH1 0x40 MLOAD PUSH1 0x0 SWAP2 DUP3 SWAP2 DUP3 SWAP2 PUSH1 0x1 PUSH1 0x1 PUSH1 0xA0 SHL SUB AND SWAP1 PUSH2 0x1306 SWAP1 DUP10 SWAP1 DUP10 SWAP1 DUP10 SWAP1 DUP10 SWAP1 PUSH1 0x24 ADD PUSH2 0x1D2B JUMP JUMPDEST PUSH1 0x40 DUP1 MLOAD PUSH1 0x1F NOT DUP2 DUP5 SUB ADD DUP2 MSTORE SWAP2 DUP2 MSTORE PUSH1 0x20 DUP3 ADD DUP1 MLOAD PUSH1 0x1 PUSH1 0x1 PUSH1 0xE0 SHL SUB AND PUSH4 0x7B2DDE6F PUSH1 0xE1 SHL OR SWAP1 MSTORE MLOAD PUSH2 0xA8F SWAP2 SWAP1 PUSH2 0x1B4A JUMP JUMPDEST DUP1 CALLDATALOAD PUSH1 0x1 PUSH1 0x1 PUSH1 0xA0 SHL SUB DUP2 AND DUP2 EQ PUSH2 0x1352 JUMPI PUSH1 0x0 DUP1 REVERT JUMPDEST SWAP2 SWAP1 POP JUMP JUMPDEST PUSH4 0x4E487B71 PUSH1 0xE0 SHL PUSH1 0x0 MSTORE PUSH1 0x41 PUSH1 0x4 MSTORE PUSH1 0x24 PUSH1 0x0 REVERT JUMPDEST PUSH1 0x0 DUP3 PUSH1 0x1F DUP4 ADD SLT PUSH2 0x137E JUMPI PUSH1 0x0 DUP1 REVERT JUMPDEST DUP2 CALLDATALOAD PUSH8 0xFFFFFFFFFFFFFFFF DUP1 DUP3 GT ISZERO PUSH2 0x1399 JUMPI PUSH2 0x1399 PUSH2 0x1357 JUMP JUMPDEST PUSH1 0x40 MLOAD PUSH1 0x1F DUP4 ADD PUSH1 0x1F NOT SWAP1 DUP2 AND PUSH1 0x3F ADD AND DUP2 ADD SWAP1 DUP3 DUP3 GT DUP2 DUP4 LT OR ISZERO PUSH2 0x13C1 JUMPI PUSH2 0x13C1 PUSH2 0x1357 JUMP JUMPDEST DUP2 PUSH1 0x40 MSTORE DUP4 DUP2 MSTORE DUP7 PUSH1 0x20 DUP6 DUP9 ADD ADD GT ISZERO PUSH2 0x13DA JUMPI PUSH1 0x0 DUP1 REVERT JUMPDEST DUP4 PUSH1 0x20 DUP8 ADD PUSH1 0x20 DUP4 ADD CALLDATACOPY PUSH1 0x0 PUSH1 0x20 DUP6 DUP4 ADD ADD MSTORE DUP1 SWAP5 POP POP POP POP POP SWAP3 SWAP2 POP POP JUMP JUMPDEST PUSH1 0x0 DUP1 PUSH1 0x0 DUP1 PUSH1 0x80 DUP6 DUP8 SUB SLT ISZERO PUSH2 0x1410 JUMPI PUSH1 0x0 DUP1 REVERT JUMPDEST PUSH2 0x1419 DUP6 PUSH2 0x133B JUMP JUMPDEST SWAP4 POP PUSH1 0x20 DUP6 ADD CALLDATALOAD SWAP3 POP PUSH1 0x40 DUP6 ADD CALLDATALOAD PUSH8 0xFFFFFFFFFFFFFFFF DUP2 GT ISZERO PUSH2 0x143C JUMPI PUSH1 0x0 DUP1 REVERT JUMPDEST PUSH2 0x1448 DUP8 DUP3 DUP9 ADD PUSH2 0x136D JUMP JUMPDEST SWAP5 SWAP8 SWAP4 SWAP7 POP SWAP4 SWAP5 PUSH1 0x60 ADD CALLDATALOAD SWAP4 POP POP POP JUMP JUMPDEST PUSH1 0x0 PUSH1 0x20 DUP3 DUP5 SUB SLT ISZERO PUSH2 0x146B JUMPI PUSH1 0x0 DUP1 REVERT JUMPDEST PUSH2 0x1474 DUP3 PUSH2 0x133B JUMP JUMPDEST SWAP4 SWAP3 POP POP POP JUMP JUMPDEST PUSH1 0x0 DUP1 PUSH1 0x0 DUP1 PUSH1 0x0 PUSH1 0xA0 DUP7 DUP9 SUB SLT ISZERO PUSH2 0x1493 JUMPI PUSH1 0x0 DUP1 REVERT JUMPDEST PUSH2 0x149C DUP7 PUSH2 0x133B JUMP JUMPDEST SWAP5 POP PUSH2 0x14AA PUSH1 0x20 DUP8 ADD PUSH2 0x133B JUMP JUMPDEST SWAP4 POP PUSH1 0x40 DUP7 ADD CALLDATALOAD SWAP3 POP PUSH1 0x60 DUP7 ADD CALLDATALOAD PUSH8 0xFFFFFFFFFFFFFFFF DUP2 GT ISZERO PUSH2 0x14CD JUMPI PUSH1 0x0 DUP1 REVERT JUMPDEST PUSH2 0x14D9 DUP9 DUP3 DUP10 ADD PUSH2 0x136D JUMP JUMPDEST SWAP6 SWAP9 SWAP5 SWAP8 POP SWAP3 SWAP6 PUSH1 0x80 ADD CALLDATALOAD SWAP4 SWAP3 POP POP POP JUMP JUMPDEST DUP1 CALLDATALOAD DUP1 ISZERO ISZERO DUP2 EQ PUSH2 0x1352 JUMPI PUSH1 0x0 DUP1 REVERT JUMPDEST PUSH1 0x0 DUP1 PUSH1 0x0 DUP1 PUSH1 0x0 DUP1 PUSH1 0xC0 DUP8 DUP10 SUB SLT ISZERO PUSH2 0x1514 JUMPI PUSH1 0x0 DUP1 REVERT JUMPDEST PUSH2 0x151D DUP8 PUSH2 0x133B JUMP JUMPDEST SWAP6 POP PUSH1 0x20 DUP8 ADD CALLDATALOAD PUSH8 0xFFFFFFFFFFFFFFFF DUP1 DUP3 GT ISZERO PUSH2 0x153A JUMPI PUSH1 0x0 DUP1 REVERT JUMPDEST PUSH2 0x1546 DUP11 DUP4 DUP12 ADD PUSH2 0x136D JUMP JUMPDEST SWAP7 POP PUSH1 0x40 DUP10 ADD CALLDATALOAD SWAP2 POP DUP1 DUP3 GT ISZERO PUSH2 0x155C JUMPI PUSH1 0x0 DUP1 REVERT JUMPDEST PUSH2 0x1568 DUP11 DUP4 DUP12 ADD PUSH2 0x136D JUMP JUMPDEST SWAP6 POP PUSH2 0x1576 PUSH1 0x60 DUP11 ADD PUSH2 0x14EB JUMP JUMPDEST SWAP5 POP PUSH1 0x80 DUP10 ADD CALLDATALOAD SWAP4 POP PUSH1 0xA0 DUP10 ADD CALLDATALOAD SWAP2 POP DUP1 DUP3 GT ISZERO PUSH2 0x1593 JUMPI PUSH1 0x0 DUP1 REVERT JUMPDEST POP PUSH2 0x15A0 DUP10 DUP3 DUP11 ADD PUSH2 0x136D JUMP JUMPDEST SWAP2 POP POP SWAP3 SWAP6 POP SWAP3 SWAP6 POP SWAP3 SWAP6 JUMP JUMPDEST PUSH1 0x0 PUSH1 0x20 DUP3 DUP5 SUB SLT ISZERO PUSH2 0x15BF JUMPI PUSH1 0x0 DUP1 REVERT JUMPDEST POP CALLDATALOAD SWAP2 SWAP1 POP JUMP JUMPDEST PUSH1 0x0 JUMPDEST DUP4 DUP2 LT ISZERO PUSH2 0x15E1 JUMPI DUP2 DUP2 ADD MLOAD DUP4 DUP3 ADD MSTORE PUSH1 0x20 ADD PUSH2 0x15C9 JUMP JUMPDEST DUP4 DUP2 GT ISZERO PUSH2 0xBB4 JUMPI POP POP PUSH1 0x0 SWAP2 ADD MSTORE JUMP JUMPDEST PUSH1 0x0 DUP2 MLOAD DUP1 DUP5 MSTORE PUSH2 0x160A DUP2 PUSH1 0x20 DUP7 ADD PUSH1 0x20 DUP7 ADD PUSH2 0x15C6 JUMP JUMPDEST PUSH1 0x1F ADD PUSH1 0x1F NOT AND SWAP3 SWAP1 SWAP3 ADD PUSH1 0x20 ADD SWAP3 SWAP2 POP POP JUMP JUMPDEST PUSH1 0x20 DUP2 MSTORE PUSH1 0x0 PUSH2 0x1474 PUSH1 0x20 DUP4 ADD DUP5 PUSH2 0x15F2 JUMP JUMPDEST DUP3 ISZERO ISZERO DUP2 MSTORE PUSH1 0x40 PUSH1 0x20 DUP3 ADD MSTORE PUSH1 0x0 PUSH2 0x164C PUSH1 0x40 DUP4 ADD DUP5 PUSH2 0x15F2 JUMP JUMPDEST SWAP5 SWAP4 POP POP POP POP JUMP JUMPDEST PUSH1 0x0 DUP1 PUSH1 0x0 PUSH1 0x60 DUP5 DUP7 SUB SLT ISZERO PUSH2 0x1669 JUMPI PUSH1 0x0 DUP1 REVERT JUMPDEST DUP4 CALLDATALOAD PUSH1 0xFF DUP2 AND DUP2 EQ PUSH2 0x167A JUMPI PUSH1 0x0 DUP1 REVERT JUMPDEST SWAP3 POP PUSH1 0x20 DUP5 ADD CALLDATALOAD PUSH8 0xFFFFFFFFFFFFFFFF DUP2 GT ISZERO PUSH2 0x1696 JUMPI PUSH1 0x0 DUP1 REVERT JUMPDEST PUSH2 0x16A2 DUP7 DUP3 DUP8 ADD PUSH2 0x136D JUMP JUMPDEST SWAP3 POP POP PUSH1 0x40 DUP5 ADD CALLDATALOAD SWAP1 POP SWAP3 POP SWAP3 POP SWAP3 JUMP JUMPDEST PUSH1 0x0 DUP1 PUSH1 0x40 DUP4 DUP6 SUB SLT ISZERO PUSH2 0x16C6 JUMPI PUSH1 0x0 DUP1 REVERT JUMPDEST PUSH2 0x16CF DUP4 PUSH2 0x14EB JUMP JUMPDEST SWAP2 POP PUSH1 0x20 DUP4 ADD CALLDATALOAD PUSH8 0xFFFFFFFFFFFFFFFF DUP2 GT ISZERO PUSH2 0x16EB JUMPI PUSH1 0x0 DUP1 REVERT JUMPDEST PUSH2 0x16F7 DUP6 DUP3 DUP7 ADD PUSH2 0x136D JUMP JUMPDEST SWAP2 POP POP SWAP3 POP SWAP3 SWAP1 POP JUMP JUMPDEST PUSH1 0x1 PUSH1 0x1 PUSH1 0xA0 SHL SUB DUP7 AND DUP2 MSTORE PUSH1 0xA0 PUSH1 0x20 DUP3 ADD DUP2 SWAP1 MSTORE PUSH1 0x0 SWAP1 PUSH2 0x1725 SWAP1 DUP4 ADD DUP8 PUSH2 0x15F2 JUMP JUMPDEST PUSH1 0x40 DUP4 ADD SWAP6 SWAP1 SWAP6 MSTORE POP SWAP2 ISZERO ISZERO PUSH1 0x60 DUP4 ADD MSTORE ISZERO ISZERO PUSH1 0x80 SWAP1 SWAP2 ADD MSTORE SWAP3 SWAP2 POP POP JUMP JUMPDEST PUSH1 0x0 DUP1 PUSH1 0x0 PUSH1 0x60 DUP5 DUP7 SUB SLT ISZERO PUSH2 0x1759 JUMPI PUSH1 0x0 DUP1 REVERT JUMPDEST DUP4 CALLDATALOAD PUSH8 0xFFFFFFFFFFFFFFFF DUP1 DUP3 GT ISZERO PUSH2 0x1771 JUMPI PUSH1 0x0 DUP1 REVERT JUMPDEST PUSH2 0x177D DUP8 DUP4 DUP9 ADD PUSH2 0x136D JUMP JUMPDEST SWAP5 POP PUSH1 0x20 DUP7 ADD CALLDATALOAD SWAP2 POP DUP1 DUP3 GT ISZERO PUSH2 0x1793 JUMPI PUSH1 0x0 DUP1 REVERT JUMPDEST PUSH2 0x179F DUP8 DUP4 DUP9 ADD PUSH2 0x136D JUMP JUMPDEST SWAP4 POP PUSH1 0x40 DUP7 ADD CALLDATALOAD SWAP2 POP DUP1 DUP3 GT ISZERO PUSH2 0x17B5 JUMPI PUSH1 0x0 DUP1 REVERT JUMPDEST POP PUSH2 0x17C2 DUP7 DUP3 DUP8 ADD PUSH2 0x136D JUMP JUMPDEST SWAP2 POP POP SWAP3 POP SWAP3 POP SWAP3 JUMP JUMPDEST PUSH4 0x4E487B71 PUSH1 0xE0 SHL PUSH1 0x0 MSTORE PUSH1 0x21 PUSH1 0x4 MSTORE PUSH1 0x24 PUSH1 0x0 REVERT JUMPDEST PUSH1 0x9 DUP2 LT PUSH2 0x1800 JUMPI PUSH4 0x4E487B71 PUSH1 0xE0 SHL PUSH1 0x0 MSTORE PUSH1 0x21 PUSH1 0x4 MSTORE PUSH1 0x24 PUSH1 0x0 REVERT JUMPDEST SWAP1 MSTORE JUMP JUMPDEST PUSH1 0x0 PUSH1 0x20 DUP1 DUP4 ADD DUP2 DUP5 MSTORE DUP1 DUP6 MLOAD DUP1 DUP4 MSTORE PUSH1 0x40 SWAP3 POP DUP3 DUP7 ADD SWAP2 POP DUP3 DUP2 PUSH1 0x5 SHL DUP8 ADD ADD DUP5 DUP9 ADD PUSH1 0x0 JUMPDEST DUP4 DUP2 LT ISZERO PUSH2 0x18D9 JUMPI DUP9 DUP4 SUB PUSH1 0x3F NOT ADD DUP6 MSTORE DUP2 MLOAD DUP1 MLOAD PUSH1 0x1 PUSH1 0x1 PUSH1 0xA0 SHL SUB AND DUP5 MSTORE PUSH2 0x120 DUP9 DUP3 ADD MLOAD PUSH2 0x185E DUP11 DUP8 ADD DUP3 PUSH2 0x17E2 JUMP JUMPDEST POP DUP8 DUP3 ADD MLOAD DUP2 DUP10 DUP8 ADD MSTORE PUSH2 0x1874 DUP3 DUP8 ADD DUP3 PUSH2 0x15F2 JUMP JUMPDEST SWAP2 POP POP PUSH1 0x60 DUP1 DUP4 ADD MLOAD DUP2 DUP8 ADD MSTORE POP PUSH1 0x80 DUP1 DUP4 ADD MLOAD PUSH2 0x1896 DUP3 DUP9 ADD DUP3 PUSH1 0xFF AND SWAP1 MSTORE JUMP JUMPDEST POP POP PUSH1 0xA0 DUP3 DUP2 ADD MLOAD PUSH1 0xFF AND SWAP1 DUP7 ADD MSTORE PUSH1 0xC0 DUP1 DUP4 ADD MLOAD ISZERO ISZERO SWAP1 DUP7 ADD MSTORE PUSH1 0xE0 DUP1 DUP4 ADD MLOAD ISZERO ISZERO SWAP1 DUP7 ADD MSTORE PUSH2 0x100 SWAP2 DUP3 ADD MLOAD SWAP2 SWAP1 SWAP5 ADD MSTORE SWAP4 DUP7 ADD SWAP4 SWAP1 DUP7 ADD SWAP1 PUSH1 0x1 ADD PUSH2 0x182B JUMP JUMPDEST POP SWAP1 SWAP9 SWAP8 POP POP POP POP POP POP POP POP JUMP JUMPDEST PUSH1 0x1 PUSH1 0x1 PUSH1 0xA0 SHL SUB DUP5 AND DUP2 MSTORE PUSH1 0x60 PUSH1 0x20 DUP3 ADD DUP2 SWAP1 MSTORE PUSH1 0x0 SWAP1 PUSH2 0x190B SWAP1 DUP4 ADD DUP6 PUSH2 0x15F2 JUMP JUMPDEST SWAP1 POP DUP3 ISZERO ISZERO PUSH1 0x40 DUP4 ADD MSTORE SWAP5 SWAP4 POP POP POP POP JUMP JUMPDEST PUSH1 0x0 DUP1 PUSH1 0x0 DUP1 PUSH1 0x80 DUP6 DUP8 SUB SLT ISZERO PUSH2 0x1933 JUMPI PUSH1 0x0 DUP1 REVERT JUMPDEST DUP5 CALLDATALOAD SWAP4 POP PUSH2 0x1943 PUSH1 0x20 DUP7 ADD PUSH2 0x14EB JUMP JUMPDEST SWAP3 POP PUSH1 0x40 DUP6 ADD CALLDATALOAD PUSH8 0xFFFFFFFFFFFFFFFF DUP1 DUP3 GT ISZERO PUSH2 0x1960 JUMPI PUSH1 0x0 DUP1 REVERT JUMPDEST PUSH2 0x196C DUP9 DUP4 DUP10 ADD PUSH2 0x136D JUMP JUMPDEST SWAP4 POP PUSH1 0x60 DUP8 ADD CALLDATALOAD SWAP2 POP DUP1 DUP3 GT ISZERO PUSH2 0x1982 JUMPI PUSH1 0x0 DUP1 REVERT JUMPDEST POP PUSH2 0x198F DUP8 DUP3 DUP9 ADD PUSH2 0x136D JUMP JUMPDEST SWAP2 POP POP SWAP3 SWAP6 SWAP2 SWAP5 POP SWAP3 POP JUMP JUMPDEST PUSH1 0x0 DUP1 PUSH1 0x40 DUP4 DUP6 SUB SLT ISZERO PUSH2 0x19AE JUMPI PUSH1 0x0 DUP1 REVERT JUMPDEST DUP3 CALLDATALOAD SWAP2 POP PUSH2 0x19BE PUSH1 0x20 DUP5 ADD PUSH2 0x133B JUMP JUMPDEST SWAP1 POP SWAP3 POP SWAP3 SWAP1 POP JUMP JUMPDEST DUP4 ISZERO ISZERO DUP2 MSTORE DUP3 ISZERO ISZERO PUSH1 0x20 DUP3 ADD MSTORE PUSH1 0x60 PUSH1 0x40 DUP3 ADD MSTORE PUSH1 0x0 PUSH2 0x19EA PUSH1 0x60 DUP4 ADD DUP5 PUSH2 0x15F2 JUMP JUMPDEST SWAP6 SWAP5 POP POP POP POP POP JUMP JUMPDEST PUSH1 0x1 PUSH1 0x1 PUSH1 0xA0 SHL SUB DUP11 AND DUP2 MSTORE PUSH1 0x0 PUSH2 0x120 PUSH2 0x1A11 PUSH1 0x20 DUP5 ADD DUP13 PUSH2 0x17E2 JUMP JUMPDEST DUP1 PUSH1 0x40 DUP5 ADD MSTORE PUSH2 0x1A23 DUP2 DUP5 ADD DUP12 PUSH2 0x15F2 JUMP JUMPDEST PUSH1 0x60 DUP5 ADD SWAP10 SWAP1 SWAP10 MSTORE POP POP PUSH1 0xFF SWAP6 DUP7 AND PUSH1 0x80 DUP3 ADD MSTORE SWAP4 SWAP1 SWAP5 AND PUSH1 0xA0 DUP5 ADD MSTORE SWAP1 ISZERO ISZERO PUSH1 0xC0 DUP4 ADD MSTORE ISZERO ISZERO PUSH1 0xE0 DUP3 ADD MSTORE PUSH2 0x100 ADD MSTORE SWAP4 SWAP3 POP POP POP JUMP JUMPDEST PUSH1 0x0 DUP1 PUSH1 0x0 DUP1 PUSH1 0x0 PUSH1 0xA0 DUP7 DUP9 SUB SLT ISZERO PUSH2 0x1A73 JUMPI PUSH1 0x0 DUP1 REVERT JUMPDEST PUSH2 0x1A7C DUP7 PUSH2 0x133B JUMP JUMPDEST SWAP5 POP PUSH1 0x20 DUP7 ADD CALLDATALOAD SWAP4 POP PUSH2 0x1A91 PUSH1 0x40 DUP8 ADD PUSH2 0x133B JUMP JUMPDEST SWAP3 POP PUSH1 0x60 DUP7 ADD CALLDATALOAD PUSH8 0xFFFFFFFFFFFFFFFF DUP2 GT ISZERO PUSH2 0x14CD JUMPI PUSH1 0x0 DUP1 REVERT JUMPDEST PUSH1 0x0 DUP1 PUSH1 0x0 DUP1 PUSH1 0x80 DUP6 DUP8 SUB SLT ISZERO PUSH2 0x1AC3 JUMPI PUSH1 0x0 DUP1 REVERT JUMPDEST PUSH2 0x1ACC DUP6 PUSH2 0x133B JUMP JUMPDEST SWAP4 POP PUSH1 0x20 DUP6 ADD CALLDATALOAD PUSH8 0xFFFFFFFFFFFFFFFF DUP1 DUP3 GT ISZERO PUSH2 0x1AE9 JUMPI PUSH1 0x0 DUP1 REVERT JUMPDEST PUSH2 0x1AF5 DUP9 DUP4 DUP10 ADD PUSH2 0x136D JUMP JUMPDEST SWAP5 POP PUSH1 0x40 DUP8 ADD CALLDATALOAD SWAP4 POP PUSH1 0x60 DUP8 ADD CALLDATALOAD SWAP2 POP DUP1 DUP3 GT ISZERO PUSH2 0x1982 JUMPI PUSH1 0x0 DUP1 REVERT JUMPDEST PUSH1 0x1 DUP1 PUSH1 0xA0 SHL SUB DUP6 AND DUP2 MSTORE DUP4 PUSH1 0x20 DUP3 ADD MSTORE PUSH1 0x80 PUSH1 0x40 DUP3 ADD MSTORE PUSH1 0x0 PUSH2 0x1B39 PUSH1 0x80 DUP4 ADD DUP6 PUSH2 0x15F2 JUMP JUMPDEST SWAP1 POP DUP3 PUSH1 0x60 DUP4 ADD MSTORE SWAP6 SWAP5 POP POP POP POP POP JUMP JUMPDEST PUSH1 0x0 DUP3 MLOAD PUSH2 0x1B5C DUP2 DUP5 PUSH1 0x20 DUP8 ADD PUSH2 0x15C6 JUMP JUMPDEST SWAP2 SWAP1 SWAP2 ADD SWAP3 SWAP2 POP POP JUMP JUMPDEST PUSH1 0x1 PUSH1 0x1 PUSH1 0xA0 SHL SUB DUP7 DUP2 AND DUP3 MSTORE DUP6 AND PUSH1 0x20 DUP3 ADD MSTORE PUSH1 0x40 DUP2 ADD DUP5 SWAP1 MSTORE PUSH1 0xA0 PUSH1 0x60 DUP3 ADD DUP2 SWAP1 MSTORE PUSH1 0x0 SWAP1 PUSH2 0x1B99 SWAP1 DUP4 ADD DUP6 PUSH2 0x15F2 JUMP JUMPDEST SWAP1 POP DUP3 PUSH1 0x80 DUP4 ADD MSTORE SWAP7 SWAP6 POP POP POP POP POP POP JUMP JUMPDEST PUSH1 0x1 PUSH1 0x1 PUSH1 0xA0 SHL SUB DUP8 AND DUP2 MSTORE PUSH1 0xC0 PUSH1 0x20 DUP3 ADD DUP2 SWAP1 MSTORE PUSH1 0x0 SWAP1 PUSH2 0x1BCF SWAP1 DUP4 ADD DUP9 PUSH2 0x15F2 JUMP JUMPDEST DUP3 DUP2 SUB PUSH1 0x40 DUP5 ADD MSTORE PUSH2 0x1BE1 DUP2 DUP9 PUSH2 0x15F2 JUMP JUMPDEST SWAP1 POP DUP6 ISZERO ISZERO PUSH1 0x60 DUP5 ADD MSTORE DUP5 PUSH1 0x80 DUP5 ADD MSTORE DUP3 DUP2 SUB PUSH1 0xA0 DUP5 ADD MSTORE PUSH2 0x1C03 DUP2 DUP6 PUSH2 0x15F2 JUMP JUMPDEST SWAP10 SWAP9 POP POP POP POP POP POP POP POP POP JUMP JUMPDEST PUSH1 0x1 DUP2 DUP2 SHR SWAP1 DUP3 AND DUP1 PUSH2 0x1C24 JUMPI PUSH1 0x7F DUP3 AND SWAP2 POP JUMPDEST PUSH1 0x20 DUP3 LT DUP2 EQ ISZERO PUSH2 0x1C45 JUMPI PUSH4 0x4E487B71 PUSH1 0xE0 SHL PUSH1 0x0 MSTORE PUSH1 0x22 PUSH1 0x4 MSTORE PUSH1 0x24 PUSH1 0x0 REVERT JUMPDEST POP SWAP2 SWAP1 POP JUMP JUMPDEST PUSH1 0xFF DUP5 AND DUP2 MSTORE PUSH1 0x60 PUSH1 0x20 DUP3 ADD MSTORE PUSH1 0x0 PUSH2 0x1C67 PUSH1 0x60 DUP4 ADD DUP6 PUSH2 0x15F2 JUMP JUMPDEST SWAP1 POP DUP3 PUSH1 0x40 DUP4 ADD MSTORE SWAP5 SWAP4 POP POP POP POP JUMP JUMPDEST PUSH1 0x60 DUP2 MSTORE PUSH1 0x0 PUSH2 0x1C8A PUSH1 0x60 DUP4 ADD DUP7 PUSH2 0x15F2 JUMP JUMPDEST DUP3 DUP2 SUB PUSH1 0x20 DUP5 ADD MSTORE PUSH2 0x1C9C DUP2 DUP7 PUSH2 0x15F2 JUMP JUMPDEST SWAP1 POP DUP3 DUP2 SUB PUSH1 0x40 DUP5 ADD MSTORE PUSH2 0x1CB0 DUP2 DUP6 PUSH2 0x15F2 JUMP JUMPDEST SWAP7 SWAP6 POP POP POP POP POP POP JUMP JUMPDEST DUP5 DUP2 MSTORE DUP4 ISZERO ISZERO PUSH1 0x20 DUP3 ADD MSTORE PUSH1 0x80 PUSH1 0x40 DUP3 ADD MSTORE PUSH1 0x0 PUSH2 0x1CDB PUSH1 0x80 DUP4 ADD DUP6 PUSH2 0x15F2 JUMP JUMPDEST DUP3 DUP2 SUB PUSH1 0x60 DUP5 ADD MSTORE PUSH2 0x1CED DUP2 DUP6 PUSH2 0x15F2 JUMP JUMPDEST SWAP8 SWAP7 POP POP POP POP POP POP POP JUMP JUMPDEST PUSH1 0x1 PUSH1 0x1 PUSH1 0xA0 SHL SUB DUP7 DUP2 AND DUP3 MSTORE PUSH1 0x20 DUP3 ADD DUP7 SWAP1 MSTORE DUP5 AND PUSH1 0x40 DUP3 ADD MSTORE PUSH1 0xA0 PUSH1 0x60 DUP3 ADD DUP2 SWAP1 MSTORE PUSH1 0x0 SWAP1 PUSH2 0x1B99 SWAP1 DUP4 ADD DUP6 PUSH2 0x15F2 JUMP JUMPDEST PUSH1 0x1 PUSH1 0x1 PUSH1 0xA0 SHL SUB DUP6 AND DUP2 MSTORE PUSH1 0x80 PUSH1 0x20 DUP3 ADD DUP2 SWAP1 MSTORE PUSH1 0x0 SWAP1 PUSH2 0x1D4F SWAP1 DUP4 ADD DUP7 PUSH2 0x15F2 JUMP JUMPDEST DUP5 PUSH1 0x40 DUP5 ADD MSTORE DUP3 DUP2 SUB PUSH1 0x60 DUP5 ADD MSTORE PUSH2 0x1CED DUP2 DUP6 PUSH2 0x15F2 JUMP INVALID LOG2 PUSH5 0x6970667358 0x22 SLT KECCAK256 0xB4 PUSH13 0xC53956743D56E1EA257330F726 SLT 0x29 PUSH31 0x106B339223CF5DFB478E28D8D44464736F6C634300080C0033A26469706673 PC 0x22 SLT KECCAK256 CALLVALUE 0xF 0xFC 0xD6 0x4F SSTORE PUSH1 0x1F 0xB8 PUSH23 0xE1DD19EC51592015476FA638C569B62B39196DA09F9464 PUSH20 0x6F6C634300080C00330000000000000000000000 ",
  "sha1": "7a49eecfc61ab0f617c0bd9cef4b1c99f2ff5e10",
  "source": "// SPDX-License-Identifier: MIT\npragma solidity ^0.8.11;\n\nimport \"./CLHouse.sol\";\n\n/// @title A factory to deploy CLHouses easy\n/// @author Leonardo Urrego\n/// @notice This contract is only for test \ncontract CLFactory {\n\n    event evtHouseCreation( address houseAddr, string houseName, uint256 houseId );\n\n\tCLHouse[] public arrCLH;\n    uint256 public numCLH = 0;\n    mapping( address => uint256 ) public mapCLHId;     // TODO: remove\n    address APICLH;\n    address CLCMemberManagement;\n    address CLCGovernance;\n    address CLLConstructor;\n\n    constructor( \n        address _CLCMemberManagement,\n        address _CLCGovernance,\n        address _CLLConstructor,\n        address _APICLH\n    ) {\n        CLCMemberManagement = _CLCMemberManagement;\n        CLCGovernance = _CLCGovernance;\n        CLLConstructor = _CLLConstructor;\n        APICLH = _APICLH;\n        address[] memory _whiteListWallets = new address[] ( 1 );\n        _whiteListWallets[0] = address( 0x0d0bA7Fc87166471f41FDe35B1b8b704d0cbF663 ) ;\n        CreateCLH( {\n            _houseName: \"CLH #0\",\n            _housePrivate: false,\n            _govModel: __GOV_COMMITTEE__,\n            _govRules: [ 10, 99, 51 ],\n            // _govRuleMaxManagerMembers: 1,\n            // _govRuleMaxActiveMembers: 99,\n            // _govRuleApprovPercentage: 100,\n            _whiteListWallets: _whiteListWallets,\n            _signerWallet: address( 0 ),\n            _signature: \"\"\n        } );\n        numCLH--;\n    }\n\n    /// @notice Deploy a new copy of CLHouse\n    /// @dev Some parameters can be ignored depending on the governance model\n    /// @param _houseName Name of the CLH\n    /// @param _housePrivate If is set to 1, the CLH is set to private\n    /// @param _govModel keccak256 hash of the governance model, see the __GOV_* constans\n    // / @param _govRuleMaxManagerMembers Max of manager member that CLH can accept (only for COMMITTEE )\n    // / @param _govRuleMaxActiveMembers Max of all members (including managers)\n    // / @param _govRuleApprovPercentage Percentage for approval o reject proposal based on `numManagerMembers`\n    /// @param _whiteListWallets Whitelist of address for invitate as managers\n    function CreateCLH(\n        string memory _houseName,\n        bool _housePrivate,\n        bytes32 _govModel,\n        uint8[3] memory _govRules,\n        // uint8 _govRuleMaxManagerMembers,\n        // uint8 _govRuleMaxActiveMembers,\n        // uint8 _govRuleApprovPercentage,\n        address[] memory _whiteListWallets,\n        address _signerWallet,\n        bytes memory _signature\n    ) \n        // modCheckGov( _govModel )\n        public\n        returns( address )\n    {\n        CLHouse daoCLH;\n        address houseOwner = msg.sender;\n\n        require( \n            __GOV_DICTATORSHIP__ == _govModel ||\n            __GOV_COMMITTEE__ == _govModel ||\n            __GOV_SIMPLE_MAJORITY__ == _govModel ,\n            \"Invalid Governance Type\"\n        );\n\n        if( _signerWallet != address(0) ) {\n            require( _signature.length == 65, \"NewCLH: Bad signature length\" );\n            \n            require(\n                _signerWallet == ApiCLHouse( APICLH ).SignerOCNewCLH(\n                    _houseName,\n                    _housePrivate,\n                    _govModel,\n                    _govRules[0], // _govRuleMaxManagerMembers,\n                    _govRules[1], // _govRuleMaxActiveMembers,\n                    _govRules[2], // _govRuleApprovPercentage,\n                    _whiteListWallets[0],\n                    address(this),\n                    _signature\n                ),\n                \"NewCLH: Invalid Signature\"\n            );\n\n            houseOwner = _signerWallet;\n        }\n\n\n        daoCLH = ( new CLHouse )\n        ( {\n            _owner: houseOwner,\n            _houseName: _houseName,\n            _housePrivate: _housePrivate,\n            _govModel: _govModel,\n            _govRules: _govRules,\n            // _govRuleMaxManagerMembers: _govRuleMaxManagerMembers,\n            // _govRuleMaxActiveMembers: _govRuleMaxActiveMembers,\n            // _govRuleApprovPercentage: _govRuleApprovPercentage,\n            _CCL: [ CLCMemberManagement, CLCGovernance, CLLConstructor, APICLH ],\n            // _CLCMemberManagement: CLCMemberManagement,\n            // _CLCGovernance: CLCGovernance,\n            // _CLLConstructor: CLLConstructor,\n            _whiteListWallets: _whiteListWallets\n        } );\n\n        address adrCLH = address( daoCLH );\n        uint256 houseId = arrCLH.length;\n        arrCLH.push( daoCLH );\n        numCLH++;\n        mapCLHId[ adrCLH ] = houseId;\n\n        emit evtHouseCreation( adrCLH, _houseName, houseId );\n        \n        return adrCLH;\n    }\n\n    /// @notice The list of all houses created by the factory\n    /// @return arrCLH the array with all address\n    function GetHouseList()\n        external\n        view\n        returns(\n            CLHouse[] memory\n        )\n    {\n        return arrCLH;\n    }\n\n    /// @notice List of membership houses to one user\n    /// @param _walletAddr The user address\n    /// @return arrHouses List of address houses\n    function GetHousesByUser(\n        address _walletAddr\n    )\n        external\n        view\n        returns(\n            address[] memory\n        )\n    {\n        address[] memory arrHouses = new address[] ( arrCLH.length );\n        uint256 indexarr = 0;\n        for( uint256 did = 1 ; did <= numCLH ; did++ )\n            if( 0 != arrCLH[ did ].mapIdMember( _walletAddr ) )\n                arrHouses[ indexarr++ ] = address( arrCLH[ did ] ) ;\n\n        return arrHouses;\n    }\n\n    /// @notice List of houses that have an invitation pending for certatin user\n    /// @param _walletAddr The user address\n    /// @return arrHouses List of address houses\n    function GetInvitationsByUser(\n        address _walletAddr\n    )\n        external\n        view\n        returns(\n            address[] memory\n        )\n    {\n        address[] memory arrHouses = new address[] ( arrCLH.length );\n        uint256 indexarr = 0;\n        for( uint256 did = 1 ; did <= numCLH ; did++ )\n            if( 0 != arrCLH[ did ].mapInvitationMember( _walletAddr ) )\n                arrHouses[ indexarr++ ] = address( arrCLH[ did ] ) ;\n\n        return arrHouses;\n    }\n}",
  "sourcePath": "contracts/CLHouse/CLFactory.sol",
  "type": "contract"
}