{
  "abi": [
    {
      "inputs": [],
      "stateMutability": "nonpayable",
      "type": "constructor"
    },
    {
      "anonymous": false,
      "inputs": [
        {
          "indexed": false,
          "internalType": "uint8",
          "name": "version",
          "type": "uint8"
        }
      ],
      "name": "Initialized",
      "type": "event"
    },
    {
      "anonymous": false,
      "inputs": [
        {
          "indexed": false,
          "internalType": "address",
          "name": "houseAddr",
          "type": "address"
        },
        {
          "indexed": false,
          "internalType": "string",
          "name": "houseName",
          "type": "string"
        },
        {
          "indexed": false,
          "internalType": "uint256",
          "name": "houseId",
          "type": "uint256"
        }
      ],
      "name": "evtHouseCreation",
      "type": "event"
    },
    {
      "inputs": [],
      "name": "CLHAPI",
      "outputs": [
        {
          "internalType": "address",
          "name": "",
          "type": "address"
        }
      ],
      "stateMutability": "view",
      "type": "function"
    },
    {
      "inputs": [],
      "name": "CLLConstructorCLH",
      "outputs": [
        {
          "internalType": "address",
          "name": "",
          "type": "address"
        }
      ],
      "stateMutability": "view",
      "type": "function"
    },
    {
      "inputs": [],
      "name": "CLLGovernance",
      "outputs": [
        {
          "internalType": "address",
          "name": "",
          "type": "address"
        }
      ],
      "stateMutability": "view",
      "type": "function"
    },
    {
      "inputs": [],
      "name": "CLLUserManagement",
      "outputs": [
        {
          "internalType": "address",
          "name": "",
          "type": "address"
        }
      ],
      "stateMutability": "view",
      "type": "function"
    },
    {
      "inputs": [
        {
          "internalType": "string",
          "name": "_houseName",
          "type": "string"
        },
        {
          "internalType": "bool",
          "name": "_housePrivate",
          "type": "bool"
        },
        {
          "internalType": "bool",
          "name": "_houseOpen",
          "type": "bool"
        },
        {
          "internalType": "bytes32",
          "name": "_govModel",
          "type": "bytes32"
        },
        {
          "internalType": "uint8[3]",
          "name": "_govRules",
          "type": "uint8[3]"
        },
        {
          "internalType": "address[]",
          "name": "_ManagerWallets",
          "type": "address[]"
        },
        {
          "internalType": "address",
          "name": "_gnosisSafe",
          "type": "address"
        },
        {
          "internalType": "address",
          "name": "_signerWallet",
          "type": "address"
        },
        {
          "internalType": "bytes",
          "name": "_signature",
          "type": "bytes"
        }
      ],
      "name": "CreateCLH",
      "outputs": [],
      "stateMutability": "nonpayable",
      "type": "function"
    },
    {
      "inputs": [
        {
          "internalType": "address",
          "name": "_CLLUserManagement",
          "type": "address"
        },
        {
          "internalType": "address",
          "name": "_CLLGovernance",
          "type": "address"
        },
        {
          "internalType": "address",
          "name": "_CLLConstructorCLH",
          "type": "address"
        },
        {
          "internalType": "address",
          "name": "_CLHAPI",
          "type": "address"
        },
        {
          "internalType": "address",
          "name": "_beacon",
          "type": "address"
        }
      ],
      "name": "Init",
      "outputs": [],
      "stateMutability": "nonpayable",
      "type": "function"
    },
    {
      "inputs": [],
      "name": "beaconCLH",
      "outputs": [
        {
          "internalType": "contract CLBeacon",
          "name": "",
          "type": "address"
        }
      ],
      "stateMutability": "view",
      "type": "function"
    },
    {
      "inputs": [],
      "name": "getImplementation",
      "outputs": [
        {
          "internalType": "address",
          "name": "",
          "type": "address"
        }
      ],
      "stateMutability": "view",
      "type": "function"
    },
    {
      "inputs": [
        {
          "internalType": "uint256",
          "name": "",
          "type": "uint256"
        }
      ],
      "name": "mapCLH",
      "outputs": [
        {
          "internalType": "contract ICLHouse",
          "name": "",
          "type": "address"
        }
      ],
      "stateMutability": "view",
      "type": "function"
    },
    {
      "inputs": [
        {
          "internalType": "address",
          "name": "",
          "type": "address"
        }
      ],
      "name": "mapIdCLH",
      "outputs": [
        {
          "internalType": "uint256",
          "name": "",
          "type": "uint256"
        }
      ],
      "stateMutability": "view",
      "type": "function"
    },
    {
      "inputs": [],
      "name": "numCLH",
      "outputs": [
        {
          "internalType": "uint256",
          "name": "",
          "type": "uint256"
        }
      ],
      "stateMutability": "view",
      "type": "function"
    }
  ],
  "bytecode": "608060405234801561001057600080fd5b5061001961001e565b6100de565b600054610100900460ff161561008a5760405162461bcd60e51b815260206004820152602760248201527f496e697469616c697a61626c653a20636f6e747261637420697320696e697469604482015266616c697a696e6760c81b606482015260840160405180910390fd5b60005460ff90811610156100dc576000805460ff191660ff9081179091556040519081527f7f26b83ff96e1f2b6a682f133852f6798a09c465da95921460cefb38474024989060200160405180910390a15b565b611759806100ed6000396000f3fe60806040523480156200001157600080fd5b5060043610620000b75760003560e01c806386bdfcac116200007a57806386bdfcac146200015a578063a327ab69146200018c578063aaf10f4214620001a0578063c0828f6314620001aa578063c0fe60d014620001be578063ee7a7d1b14620001d557600080fd5b80631079071714620000bc578063529382d514620000ed578063594034e3146200010157806360b323c31462000115578063624d8774146200012e575b600080fd5b600f54620000d0906001600160a01b031681565b6040516001600160a01b0390911681526020015b60405180910390f35b600d54620000d0906001600160a01b031681565b600c54620000d0906001600160a01b031681565b6200012c62000126366004620007c5565b620001df565b005b620000d06200013f36600462000841565b601c602052600090815260409020546001600160a01b031681565b6200017d6200016b3660046200085b565b601b6020526000908152604090205481565b604051908152602001620000e4565b600e54620000d0906001600160a01b031681565b620000d062000372565b601a54620000d0906001600160a01b031681565b6200012c620001cf36600462000a6e565b620003e8565b6200017d60015481565b600054600190610100900460ff1615801562000202575060005460ff8083169116105b6200026b5760405162461bcd60e51b815260206004820152602e60248201527f496e697469616c697a61626c653a20636f6e747261637420697320616c72656160448201526d191e481a5b9a5d1a585b1a5e995960921b60648201526084015b60405180910390fd5b60008054601a80546001600160a01b03199081166001600160a01b0387811691909117909255600d805482168b8416179055600e805482168a8416179055600c80548216898416179055600f805482169288169290921790915560018390558280527fb9c6de81004e18dedadca3e5eabaab449ca91dff6f58efc9461da635fe77f84980549091169055601b60209081527f584f46c60af19681376031579adb04a2416e54ee5505351c2a8435e3766026ea83905561ff001961010060ff861661ffff19909416841717169092556040519081527f7f26b83ff96e1f2b6a682f133852f6798a09c465da95921460cefb3847402498910160405180910390a1505050505050565b601a5460408051635c60da1b60e01b815290516000926001600160a01b031691635c60da1b9160048083019260209291908290030181865afa158015620003bd573d6000803e3d6000fd5b505050506040513d601f19601f82011682018060405250810190620003e3919062000b6b565b905090565b337f0b93889d934070956c00846f50f9a10a747bd194bba2f2e78a86d0c02386fdb1871480620004375750867f16591a696fee5867425b3dee9fc0160a6c1baef77835bc3d204314106d639298145b80620004625750867fa0786f6450d5fb3298b8425105c1b75e6e01a1ff86cdabea29909cdb0b4c83a7145b620004b05760405162461bcd60e51b815260206004820152601760248201527f496e76616c696420476f7665726e616e63652054797065000000000000000000604482015260640162000262565b6001600160a01b038316156200062e578151604114620005135760405162461bcd60e51b815260206004820152601f60248201527f437265617465434c483a20426164207369676e6174757265206c656e67746800604482015260640162000262565b600f546001600160a01b031663364ae0d88b8b8a8a600060200201518b600160200201518c600260200201518c60008151811062000555576200055562000b8b565b6020026020010151308b6040518a63ffffffff1660e01b8152600401620005859998979695949392919062000bf1565b602060405180830381865afa158015620005a3573d6000803e3d6000fd5b505050506040513d601f19601f82011682018060405250810190620005c9919062000b6b565b6001600160a01b0316836001600160a01b0316146200062b5760405162461bcd60e51b815260206004820152601c60248201527f437265617465434c483a20496e76616c6964205369676e617475726500000000604482015260640162000262565b50815b601a5460408051608081018252308152600f546001600160a01b03908116602083015287811682840152600c548116606083015291516000939290921691620006899185918f918f918f918f918f91908f9060240162000ce7565b60408051601f198184030181529181526020820180516001600160e01b03166371043d2760e11b17905251620006bf906200078c565b620006cc92919062000d8a565b604051809103906000f080158015620006e9573d6000803e3d6000fd5b50600180549192506000620006fe8362000db8565b9091555050600180546000908152601c6020908152604080832080546001600160a01b0319166001600160a01b0387169081179091559354938352601b90915290819020829055517f0717908fb0165729c0cfd8bbc622f5ede46a85e555ac30657fa94a188bca698d91620007779184918f9162000de2565b60405180910390a15050505050505050505050565b61090b8062000e1983390190565b6001600160a01b0381168114620007b057600080fd5b50565b8035620007c0816200079a565b919050565b600080600080600060a08688031215620007de57600080fd5b8535620007eb816200079a565b94506020860135620007fd816200079a565b935060408601356200080f816200079a565b9250606086013562000821816200079a565b9150608086013562000833816200079a565b809150509295509295909350565b6000602082840312156200085457600080fd5b5035919050565b6000602082840312156200086e57600080fd5b81356200087b816200079a565b9392505050565b634e487b7160e01b600052604160045260246000fd5b604051601f8201601f1916810167ffffffffffffffff81118282101715620008c457620008c462000882565b604052919050565b600082601f830112620008de57600080fd5b813567ffffffffffffffff811115620008fb57620008fb62000882565b62000910601f8201601f191660200162000898565b8181528460208386010111156200092657600080fd5b816020850160208301376000918101602001919091529392505050565b80358015158114620007c057600080fd5b600082601f8301126200096657600080fd5b6040516060810181811067ffffffffffffffff821117156200098c576200098c62000882565b604052806060840185811115620009a257600080fd5b845b81811015620009cf57803560ff81168114620009c05760008081fd5b835260209283019201620009a4565b509195945050505050565b600082601f830112620009ec57600080fd5b8135602067ffffffffffffffff82111562000a0b5762000a0b62000882565b8160051b62000a1c82820162000898565b928352848101820192828101908785111562000a3757600080fd5b83870192505b8483101562000a6357823562000a53816200079a565b8252918301919083019062000a3d565b979650505050505050565b60008060008060008060008060006101608a8c03121562000a8e57600080fd5b893567ffffffffffffffff8082111562000aa757600080fd5b62000ab58d838e01620008cc565b9a5062000ac560208d0162000943565b995062000ad560408d0162000943565b985060608c0135975062000aed8d60808e0162000954565b965060e08c013591508082111562000b0457600080fd5b62000b128d838e01620009da565b955062000b236101008d01620007b3565b945062000b346101208d01620007b3565b93506101408c013591508082111562000b4c57600080fd5b5062000b5b8c828d01620008cc565b9150509295985092959850929598565b60006020828403121562000b7e57600080fd5b81516200087b816200079a565b634e487b7160e01b600052603260045260246000fd5b6000815180845260005b8181101562000bc95760208185018101518683018201520162000bab565b8181111562000bdc576000602083870101525b50601f01601f19169290920160200192915050565b600061012080835262000c078184018d62000ba1565b8b15156020850152604084018b905260ff8a811660608601528981166080860152881660a08501526001600160a01b0387811660c0860152861660e0850152838103610100850152905062000c5d818562000ba1565b9c9b505050505050505050505050565b8060005b600481101562000c9b5781516001600160a01b031684526020938401939091019060010162000c71565b50505050565b600081518084526020808501945080840160005b8381101562000cdc5781516001600160a01b03168752958201959082019060010162000cb5565b509495945050505050565b6001600160a01b03891681526101a060208083018290526000919062000d108483018c62000ba1565b91508915156040850152881515606085015287608085015260a084018760005b600381101562000d5257815160ff168352918301919083019060010162000d30565b5050505062000d6661010084018662000c6d565b82810361018084015262000d7b818562000ca1565b9b9a5050505050505050505050565b6001600160a01b038316815260406020820181905260009062000db09083018462000ba1565b949350505050565b600060001982141562000ddb57634e487b7160e01b600052601160045260246000fd5b5060010190565b6001600160a01b038416815260606020820181905260009062000e089083018562000ba1565b905082604083015294935050505056fe608060405234801561001057600080fd5b5060405161090b38038061090b83398101604081905261002f91610467565b818161003d82826000610046565b50505050610591565b61004f83610111565b6040516001600160a01b038416907f1cf3b03a6cf19fa2baba4df148e9dcabedea7f8a5c07840e207e5c089be95d3e90600090a26000825111806100905750805b1561010c5761010a836001600160a01b0316635c60da1b6040518163ffffffff1660e01b8152600401602060405180830381865afa1580156100d6573d6000803e3d6000fd5b505050506040513d601f19601f820116820180604052508101906100fa9190610527565b836102b460201b6100291760201c565b505b505050565b610124816102e060201b6100551760201c565b6101835760405162461bcd60e51b815260206004820152602560248201527f455243313936373a206e657720626561636f6e206973206e6f74206120636f6e6044820152641d1c9858dd60da1b60648201526084015b60405180910390fd5b6101f7816001600160a01b0316635c60da1b6040518163ffffffff1660e01b8152600401602060405180830381865afa1580156101c4573d6000803e3d6000fd5b505050506040513d601f19601f820116820180604052508101906101e89190610527565b6102e060201b6100551760201c565b61025c5760405162461bcd60e51b815260206004820152603060248201527f455243313936373a20626561636f6e20696d706c656d656e746174696f6e206960448201526f1cc81b9bdd08184818dbdb9d1c9858dd60821b606482015260840161017a565b806102937fa3f0ad74e5423aebfd80d3ef4346578335a9a72aeaee59ff6cb3582b35133d5060001b6102ef60201b6100641760201c565b80546001600160a01b0319166001600160a01b039290921691909117905550565b60606102d983836040518060600160405280602781526020016108e4602791396102f2565b9392505050565b6001600160a01b03163b151590565b90565b60606001600160a01b0384163b61035a5760405162461bcd60e51b815260206004820152602660248201527f416464726573733a2064656c65676174652063616c6c20746f206e6f6e2d636f6044820152651b9d1c9858dd60d21b606482015260840161017a565b600080856001600160a01b0316856040516103759190610542565b600060405180830381855af49150503d80600081146103b0576040519150601f19603f3d011682016040523d82523d6000602084013e6103b5565b606091505b5090925090506103c68282866103d0565b9695505050505050565b606083156103df5750816102d9565b8251156103ef5782518084602001fd5b8160405162461bcd60e51b815260040161017a919061055e565b80516001600160a01b038116811461042057600080fd5b919050565b634e487b7160e01b600052604160045260246000fd5b60005b8381101561045657818101518382015260200161043e565b8381111561010a5750506000910152565b6000806040838503121561047a57600080fd5b61048383610409565b60208401519092506001600160401b03808211156104a057600080fd5b818501915085601f8301126104b457600080fd5b8151818111156104c6576104c6610425565b604051601f8201601f19908116603f011681019083821181831017156104ee576104ee610425565b8160405282815288602084870101111561050757600080fd5b61051883602083016020880161043b565b80955050505050509250929050565b60006020828403121561053957600080fd5b6102d982610409565b6000825161055481846020870161043b565b9190910192915050565b602081526000825180602084015261057d81604085016020870161043b565b601f01601f19169190910160400192915050565b610344806105a06000396000f3fe60806040523661001357610011610017565b005b6100115b610027610022610067565b610100565b565b606061004e83836040518060600160405280602781526020016102e860279139610124565b9392505050565b6001600160a01b03163b151590565b90565b600061009a7fa3f0ad74e5423aebfd80d3ef4346578335a9a72aeaee59ff6cb3582b35133d50546001600160a01b031690565b6001600160a01b0316635c60da1b6040518163ffffffff1660e01b8152600401602060405180830381865afa1580156100d7573d6000803e3d6000fd5b505050506040513d601f19601f820116820180604052508101906100fb919061023f565b905090565b3660008037600080366000845af43d6000803e80801561011f573d6000f35b3d6000fd5b60606001600160a01b0384163b6101915760405162461bcd60e51b815260206004820152602660248201527f416464726573733a2064656c65676174652063616c6c20746f206e6f6e2d636f6044820152651b9d1c9858dd60d21b60648201526084015b60405180910390fd5b600080856001600160a01b0316856040516101ac9190610298565b600060405180830381855af49150503d80600081146101e7576040519150601f19603f3d011682016040523d82523d6000602084013e6101ec565b606091505b50915091506101fc828286610206565b9695505050505050565b6060831561021557508161004e565b8251156102255782518084602001fd5b8160405162461bcd60e51b815260040161018891906102b4565b60006020828403121561025157600080fd5b81516001600160a01b038116811461004e57600080fd5b60005b8381101561028357818101518382015260200161026b565b83811115610292576000848401525b50505050565b600082516102aa818460208701610268565b9190910192915050565b60208152600082518060208401526102d3816040850160208701610268565b601f01601f1916919091016040019291505056fe416464726573733a206c6f772d6c6576656c2064656c65676174652063616c6c206661696c6564a264697066735822122025a9c748cb92627df1eef1f636030870f9eeb2865d476db2b1efdf323a388cd764736f6c634300080c0033416464726573733a206c6f772d6c6576656c2064656c65676174652063616c6c206661696c6564a264697066735822122037f3cceca27f73c185442b3cc5b3352c1a8375798b3913e40a4b7f1332c3637e64736f6c634300080c0033",
  "bytecodeSha1": "7e236bb119d70b9dea0d863d26a65fc5e327a557",
  "compiler": {
    "evm_version": "istanbul",
    "optimizer": {
      "enabled": true,
      "runs": 200
    },
    "version": "0.8.12+commit.f00d7308"
  },
  "contractName": "CLFactory",
  "language": "Solidity",
  "natspec": {
    "author": "Leonardo Urrego",
    "details": "This contract is the only way to create CLH",
    "kind": "dev",
    "methods": {
      "CLHAPI()": {
        "notice": "Contract CLHouse API"
      },
      "CLLConstructorCLH()": {
        "notice": "Contract with the CLH Constructor logic"
      },
      "CLLGovernance()": {
        "notice": "Contract with the functions for Governance"
      },
      "CLLUserManagement()": {
        "notice": "Contract with the functions for user management"
      },
      "CreateCLH(string,bool,bool,bytes32,uint8[3],address[],address,address,bytes)": {
        "details": "Some parameters wil be ignored depending on the governance model",
        "notice": "Deploy a new CLHouse",
        "params": {
          "_ManagerWallets": "Whitelist of address for invitate as managers",
          "_govModel": "keccak256 hash of the governance model, see the __GOV_* constans",
          "_govRules": "Array for goverment rules see `enum gRule`",
          "_houseName": "Name of the CLH",
          "_houseOpen": "If is set to 1, the CLH is set to open",
          "_housePrivate": "If is set to 1, the CLH is set to private"
        }
      },
      "Init(address,address,address,address,address)": {
        "details": "The constructor create a default CLH with the houseId #0",
        "notice": "Config the CLFactory with the CL Logic Contracts",
        "params": {
          "_CLLConstructorCLH": "Address Contract with the Constructor logic",
          "_CLLGovernance": "Address Contract Logic for governance",
          "_CLLUserManagement": "Address Contract Logic for user management"
        }
      },
      "constructor": {
        "custom:oz-upgrades-unsafe-allow": "constructor"
      },
      "mapCLH(uint256)": {
        "notice": "Mapping to store all the created houses"
      },
      "mapIdCLH(address)": {
        "notice": "Relation houseAddr with houseId"
      },
      "numCLH()": {
        "notice": "Store the number of houses created"
      }
    },
    "notice": "Config, create and deploy CLHouses",
    "title": "Crypto League House Factory",
    "version": 1
  },
  "opcodes": "PUSH1 0x80 PUSH1 0x40 MSTORE CALLVALUE DUP1 ISZERO PUSH3 0x11 JUMPI PUSH1 0x0 DUP1 REVERT JUMPDEST POP PUSH1 0x4 CALLDATASIZE LT PUSH3 0xB7 JUMPI PUSH1 0x0 CALLDATALOAD PUSH1 0xE0 SHR DUP1 PUSH4 0x86BDFCAC GT PUSH3 0x7A JUMPI DUP1 PUSH4 0x86BDFCAC EQ PUSH3 0x15A JUMPI DUP1 PUSH4 0xA327AB69 EQ PUSH3 0x18C JUMPI DUP1 PUSH4 0xAAF10F42 EQ PUSH3 0x1A0 JUMPI DUP1 PUSH4 0xC0828F63 EQ PUSH3 0x1AA JUMPI DUP1 PUSH4 0xC0FE60D0 EQ PUSH3 0x1BE JUMPI DUP1 PUSH4 0xEE7A7D1B EQ PUSH3 0x1D5 JUMPI PUSH1 0x0 DUP1 REVERT JUMPDEST DUP1 PUSH4 0x10790717 EQ PUSH3 0xBC JUMPI DUP1 PUSH4 0x529382D5 EQ PUSH3 0xED JUMPI DUP1 PUSH4 0x594034E3 EQ PUSH3 0x101 JUMPI DUP1 PUSH4 0x60B323C3 EQ PUSH3 0x115 JUMPI DUP1 PUSH4 0x624D8774 EQ PUSH3 0x12E JUMPI JUMPDEST PUSH1 0x0 DUP1 REVERT JUMPDEST PUSH1 0xF SLOAD PUSH3 0xD0 SWAP1 PUSH1 0x1 PUSH1 0x1 PUSH1 0xA0 SHL SUB AND DUP2 JUMP JUMPDEST PUSH1 0x40 MLOAD PUSH1 0x1 PUSH1 0x1 PUSH1 0xA0 SHL SUB SWAP1 SWAP2 AND DUP2 MSTORE PUSH1 0x20 ADD JUMPDEST PUSH1 0x40 MLOAD DUP1 SWAP2 SUB SWAP1 RETURN JUMPDEST PUSH1 0xD SLOAD PUSH3 0xD0 SWAP1 PUSH1 0x1 PUSH1 0x1 PUSH1 0xA0 SHL SUB AND DUP2 JUMP JUMPDEST PUSH1 0xC SLOAD PUSH3 0xD0 SWAP1 PUSH1 0x1 PUSH1 0x1 PUSH1 0xA0 SHL SUB AND DUP2 JUMP JUMPDEST PUSH3 0x12C PUSH3 0x126 CALLDATASIZE PUSH1 0x4 PUSH3 0x7C5 JUMP JUMPDEST PUSH3 0x1DF JUMP JUMPDEST STOP JUMPDEST PUSH3 0xD0 PUSH3 0x13F CALLDATASIZE PUSH1 0x4 PUSH3 0x841 JUMP JUMPDEST PUSH1 0x1C PUSH1 0x20 MSTORE PUSH1 0x0 SWAP1 DUP2 MSTORE PUSH1 0x40 SWAP1 KECCAK256 SLOAD PUSH1 0x1 PUSH1 0x1 PUSH1 0xA0 SHL SUB AND DUP2 JUMP JUMPDEST PUSH3 0x17D PUSH3 0x16B CALLDATASIZE PUSH1 0x4 PUSH3 0x85B JUMP JUMPDEST PUSH1 0x1B PUSH1 0x20 MSTORE PUSH1 0x0 SWAP1 DUP2 MSTORE PUSH1 0x40 SWAP1 KECCAK256 SLOAD DUP2 JUMP JUMPDEST PUSH1 0x40 MLOAD SWAP1 DUP2 MSTORE PUSH1 0x20 ADD PUSH3 0xE4 JUMP JUMPDEST PUSH1 0xE SLOAD PUSH3 0xD0 SWAP1 PUSH1 0x1 PUSH1 0x1 PUSH1 0xA0 SHL SUB AND DUP2 JUMP JUMPDEST PUSH3 0xD0 PUSH3 0x372 JUMP JUMPDEST PUSH1 0x1A SLOAD PUSH3 0xD0 SWAP1 PUSH1 0x1 PUSH1 0x1 PUSH1 0xA0 SHL SUB AND DUP2 JUMP JUMPDEST PUSH3 0x12C PUSH3 0x1CF CALLDATASIZE PUSH1 0x4 PUSH3 0xA6E JUMP JUMPDEST PUSH3 0x3E8 JUMP JUMPDEST PUSH3 0x17D PUSH1 0x1 SLOAD DUP2 JUMP JUMPDEST PUSH1 0x0 SLOAD PUSH1 0x1 SWAP1 PUSH2 0x100 SWAP1 DIV PUSH1 0xFF AND ISZERO DUP1 ISZERO PUSH3 0x202 JUMPI POP PUSH1 0x0 SLOAD PUSH1 0xFF DUP1 DUP4 AND SWAP2 AND LT JUMPDEST PUSH3 0x26B JUMPI PUSH1 0x40 MLOAD PUSH3 0x461BCD PUSH1 0xE5 SHL DUP2 MSTORE PUSH1 0x20 PUSH1 0x4 DUP3 ADD MSTORE PUSH1 0x2E PUSH1 0x24 DUP3 ADD MSTORE PUSH32 0x496E697469616C697A61626C653A20636F6E747261637420697320616C726561 PUSH1 0x44 DUP3 ADD MSTORE PUSH14 0x191E481A5B9A5D1A585B1A5E9959 PUSH1 0x92 SHL PUSH1 0x64 DUP3 ADD MSTORE PUSH1 0x84 ADD JUMPDEST PUSH1 0x40 MLOAD DUP1 SWAP2 SUB SWAP1 REVERT JUMPDEST PUSH1 0x0 DUP1 SLOAD PUSH1 0x1A DUP1 SLOAD PUSH1 0x1 PUSH1 0x1 PUSH1 0xA0 SHL SUB NOT SWAP1 DUP2 AND PUSH1 0x1 PUSH1 0x1 PUSH1 0xA0 SHL SUB DUP8 DUP2 AND SWAP2 SWAP1 SWAP2 OR SWAP1 SWAP3 SSTORE PUSH1 0xD DUP1 SLOAD DUP3 AND DUP12 DUP5 AND OR SWAP1 SSTORE PUSH1 0xE DUP1 SLOAD DUP3 AND DUP11 DUP5 AND OR SWAP1 SSTORE PUSH1 0xC DUP1 SLOAD DUP3 AND DUP10 DUP5 AND OR SWAP1 SSTORE PUSH1 0xF DUP1 SLOAD DUP3 AND SWAP3 DUP9 AND SWAP3 SWAP1 SWAP3 OR SWAP1 SWAP2 SSTORE PUSH1 0x1 DUP4 SWAP1 SSTORE DUP3 DUP1 MSTORE PUSH32 0xB9C6DE81004E18DEDADCA3E5EABAAB449CA91DFF6F58EFC9461DA635FE77F849 DUP1 SLOAD SWAP1 SWAP2 AND SWAP1 SSTORE PUSH1 0x1B PUSH1 0x20 SWAP1 DUP2 MSTORE PUSH32 0x584F46C60AF19681376031579ADB04A2416E54EE5505351C2A8435E3766026EA DUP4 SWAP1 SSTORE PUSH2 0xFF00 NOT PUSH2 0x100 PUSH1 0xFF DUP7 AND PUSH2 0xFFFF NOT SWAP1 SWAP5 AND DUP5 OR OR AND SWAP1 SWAP3 SSTORE PUSH1 0x40 MLOAD SWAP1 DUP2 MSTORE PUSH32 0x7F26B83FF96E1F2B6A682F133852F6798A09C465DA95921460CEFB3847402498 SWAP2 ADD PUSH1 0x40 MLOAD DUP1 SWAP2 SUB SWAP1 LOG1 POP POP POP POP POP POP JUMP JUMPDEST PUSH1 0x1A SLOAD PUSH1 0x40 DUP1 MLOAD PUSH4 0x5C60DA1B PUSH1 0xE0 SHL DUP2 MSTORE SWAP1 MLOAD PUSH1 0x0 SWAP3 PUSH1 0x1 PUSH1 0x1 PUSH1 0xA0 SHL SUB AND SWAP2 PUSH4 0x5C60DA1B SWAP2 PUSH1 0x4 DUP1 DUP4 ADD SWAP3 PUSH1 0x20 SWAP3 SWAP2 SWAP1 DUP3 SWAP1 SUB ADD DUP2 DUP7 GAS STATICCALL ISZERO DUP1 ISZERO PUSH3 0x3BD JUMPI RETURNDATASIZE PUSH1 0x0 DUP1 RETURNDATACOPY RETURNDATASIZE PUSH1 0x0 REVERT JUMPDEST POP POP POP POP PUSH1 0x40 MLOAD RETURNDATASIZE PUSH1 0x1F NOT PUSH1 0x1F DUP3 ADD AND DUP3 ADD DUP1 PUSH1 0x40 MSTORE POP DUP2 ADD SWAP1 PUSH3 0x3E3 SWAP2 SWAP1 PUSH3 0xB6B JUMP JUMPDEST SWAP1 POP SWAP1 JUMP JUMPDEST CALLER PUSH32 0xB93889D934070956C00846F50F9A10A747BD194BBA2F2E78A86D0C02386FDB1 DUP8 EQ DUP1 PUSH3 0x437 JUMPI POP DUP7 PUSH32 0x16591A696FEE5867425B3DEE9FC0160A6C1BAEF77835BC3D204314106D639298 EQ JUMPDEST DUP1 PUSH3 0x462 JUMPI POP DUP7 PUSH32 0xA0786F6450D5FB3298B8425105C1B75E6E01A1FF86CDABEA29909CDB0B4C83A7 EQ JUMPDEST PUSH3 0x4B0 JUMPI PUSH1 0x40 MLOAD PUSH3 0x461BCD PUSH1 0xE5 SHL DUP2 MSTORE PUSH1 0x20 PUSH1 0x4 DUP3 ADD MSTORE PUSH1 0x17 PUSH1 0x24 DUP3 ADD MSTORE PUSH32 0x496E76616C696420476F7665726E616E63652054797065000000000000000000 PUSH1 0x44 DUP3 ADD MSTORE PUSH1 0x64 ADD PUSH3 0x262 JUMP JUMPDEST PUSH1 0x1 PUSH1 0x1 PUSH1 0xA0 SHL SUB DUP4 AND ISZERO PUSH3 0x62E JUMPI DUP2 MLOAD PUSH1 0x41 EQ PUSH3 0x513 JUMPI PUSH1 0x40 MLOAD PUSH3 0x461BCD PUSH1 0xE5 SHL DUP2 MSTORE PUSH1 0x20 PUSH1 0x4 DUP3 ADD MSTORE PUSH1 0x1F PUSH1 0x24 DUP3 ADD MSTORE PUSH32 0x437265617465434C483A20426164207369676E6174757265206C656E67746800 PUSH1 0x44 DUP3 ADD MSTORE PUSH1 0x64 ADD PUSH3 0x262 JUMP JUMPDEST PUSH1 0xF SLOAD PUSH1 0x1 PUSH1 0x1 PUSH1 0xA0 SHL SUB AND PUSH4 0x364AE0D8 DUP12 DUP12 DUP11 DUP11 PUSH1 0x0 PUSH1 0x20 MUL ADD MLOAD DUP12 PUSH1 0x1 PUSH1 0x20 MUL ADD MLOAD DUP13 PUSH1 0x2 PUSH1 0x20 MUL ADD MLOAD DUP13 PUSH1 0x0 DUP2 MLOAD DUP2 LT PUSH3 0x555 JUMPI PUSH3 0x555 PUSH3 0xB8B JUMP JUMPDEST PUSH1 0x20 MUL PUSH1 0x20 ADD ADD MLOAD ADDRESS DUP12 PUSH1 0x40 MLOAD DUP11 PUSH4 0xFFFFFFFF AND PUSH1 0xE0 SHL DUP2 MSTORE PUSH1 0x4 ADD PUSH3 0x585 SWAP10 SWAP9 SWAP8 SWAP7 SWAP6 SWAP5 SWAP4 SWAP3 SWAP2 SWAP1 PUSH3 0xBF1 JUMP JUMPDEST PUSH1 0x20 PUSH1 0x40 MLOAD DUP1 DUP4 SUB DUP2 DUP7 GAS STATICCALL ISZERO DUP1 ISZERO PUSH3 0x5A3 JUMPI RETURNDATASIZE PUSH1 0x0 DUP1 RETURNDATACOPY RETURNDATASIZE PUSH1 0x0 REVERT JUMPDEST POP POP POP POP PUSH1 0x40 MLOAD RETURNDATASIZE PUSH1 0x1F NOT PUSH1 0x1F DUP3 ADD AND DUP3 ADD DUP1 PUSH1 0x40 MSTORE POP DUP2 ADD SWAP1 PUSH3 0x5C9 SWAP2 SWAP1 PUSH3 0xB6B JUMP JUMPDEST PUSH1 0x1 PUSH1 0x1 PUSH1 0xA0 SHL SUB AND DUP4 PUSH1 0x1 PUSH1 0x1 PUSH1 0xA0 SHL SUB AND EQ PUSH3 0x62B JUMPI PUSH1 0x40 MLOAD PUSH3 0x461BCD PUSH1 0xE5 SHL DUP2 MSTORE PUSH1 0x20 PUSH1 0x4 DUP3 ADD MSTORE PUSH1 0x1C PUSH1 0x24 DUP3 ADD MSTORE PUSH32 0x437265617465434C483A20496E76616C6964205369676E617475726500000000 PUSH1 0x44 DUP3 ADD MSTORE PUSH1 0x64 ADD PUSH3 0x262 JUMP JUMPDEST POP DUP2 JUMPDEST PUSH1 0x1A SLOAD PUSH1 0x40 DUP1 MLOAD PUSH1 0x80 DUP2 ADD DUP3 MSTORE ADDRESS DUP2 MSTORE PUSH1 0xF SLOAD PUSH1 0x1 PUSH1 0x1 PUSH1 0xA0 SHL SUB SWAP1 DUP2 AND PUSH1 0x20 DUP4 ADD MSTORE DUP8 DUP2 AND DUP3 DUP5 ADD MSTORE PUSH1 0xC SLOAD DUP2 AND PUSH1 0x60 DUP4 ADD MSTORE SWAP2 MLOAD PUSH1 0x0 SWAP4 SWAP3 SWAP1 SWAP3 AND SWAP2 PUSH3 0x689 SWAP2 DUP6 SWAP2 DUP16 SWAP2 DUP16 SWAP2 DUP16 SWAP2 DUP16 SWAP2 DUP16 SWAP2 SWAP1 DUP16 SWAP1 PUSH1 0x24 ADD PUSH3 0xCE7 JUMP JUMPDEST PUSH1 0x40 DUP1 MLOAD PUSH1 0x1F NOT DUP2 DUP5 SUB ADD DUP2 MSTORE SWAP2 DUP2 MSTORE PUSH1 0x20 DUP3 ADD DUP1 MLOAD PUSH1 0x1 PUSH1 0x1 PUSH1 0xE0 SHL SUB AND PUSH4 0x71043D27 PUSH1 0xE1 SHL OR SWAP1 MSTORE MLOAD PUSH3 0x6BF SWAP1 PUSH3 0x78C JUMP JUMPDEST PUSH3 0x6CC SWAP3 SWAP2 SWAP1 PUSH3 0xD8A JUMP JUMPDEST PUSH1 0x40 MLOAD DUP1 SWAP2 SUB SWAP1 PUSH1 0x0 CREATE DUP1 ISZERO DUP1 ISZERO PUSH3 0x6E9 JUMPI RETURNDATASIZE PUSH1 0x0 DUP1 RETURNDATACOPY RETURNDATASIZE PUSH1 0x0 REVERT JUMPDEST POP PUSH1 0x1 DUP1 SLOAD SWAP2 SWAP3 POP PUSH1 0x0 PUSH3 0x6FE DUP4 PUSH3 0xDB8 JUMP JUMPDEST SWAP1 SWAP2 SSTORE POP POP PUSH1 0x1 DUP1 SLOAD PUSH1 0x0 SWAP1 DUP2 MSTORE PUSH1 0x1C PUSH1 0x20 SWAP1 DUP2 MSTORE PUSH1 0x40 DUP1 DUP4 KECCAK256 DUP1 SLOAD PUSH1 0x1 PUSH1 0x1 PUSH1 0xA0 SHL SUB NOT AND PUSH1 0x1 PUSH1 0x1 PUSH1 0xA0 SHL SUB DUP8 AND SWAP1 DUP2 OR SWAP1 SWAP2 SSTORE SWAP4 SLOAD SWAP4 DUP4 MSTORE PUSH1 0x1B SWAP1 SWAP2 MSTORE SWAP1 DUP2 SWAP1 KECCAK256 DUP3 SWAP1 SSTORE MLOAD PUSH32 0x717908FB0165729C0CFD8BBC622F5EDE46A85E555AC30657FA94A188BCA698D SWAP2 PUSH3 0x777 SWAP2 DUP5 SWAP2 DUP16 SWAP2 PUSH3 0xDE2 JUMP JUMPDEST PUSH1 0x40 MLOAD DUP1 SWAP2 SUB SWAP1 LOG1 POP POP POP POP POP POP POP POP POP POP POP JUMP JUMPDEST PUSH2 0x90B DUP1 PUSH3 0xE19 DUP4 CODECOPY ADD SWAP1 JUMP JUMPDEST PUSH1 0x1 PUSH1 0x1 PUSH1 0xA0 SHL SUB DUP2 AND DUP2 EQ PUSH3 0x7B0 JUMPI PUSH1 0x0 DUP1 REVERT JUMPDEST POP JUMP JUMPDEST DUP1 CALLDATALOAD PUSH3 0x7C0 DUP2 PUSH3 0x79A JUMP JUMPDEST SWAP2 SWAP1 POP JUMP JUMPDEST PUSH1 0x0 DUP1 PUSH1 0x0 DUP1 PUSH1 0x0 PUSH1 0xA0 DUP7 DUP9 SUB SLT ISZERO PUSH3 0x7DE JUMPI PUSH1 0x0 DUP1 REVERT JUMPDEST DUP6 CALLDATALOAD PUSH3 0x7EB DUP2 PUSH3 0x79A JUMP JUMPDEST SWAP5 POP PUSH1 0x20 DUP7 ADD CALLDATALOAD PUSH3 0x7FD DUP2 PUSH3 0x79A JUMP JUMPDEST SWAP4 POP PUSH1 0x40 DUP7 ADD CALLDATALOAD PUSH3 0x80F DUP2 PUSH3 0x79A JUMP JUMPDEST SWAP3 POP PUSH1 0x60 DUP7 ADD CALLDATALOAD PUSH3 0x821 DUP2 PUSH3 0x79A JUMP JUMPDEST SWAP2 POP PUSH1 0x80 DUP7 ADD CALLDATALOAD PUSH3 0x833 DUP2 PUSH3 0x79A JUMP JUMPDEST DUP1 SWAP2 POP POP SWAP3 SWAP6 POP SWAP3 SWAP6 SWAP1 SWAP4 POP JUMP JUMPDEST PUSH1 0x0 PUSH1 0x20 DUP3 DUP5 SUB SLT ISZERO PUSH3 0x854 JUMPI PUSH1 0x0 DUP1 REVERT JUMPDEST POP CALLDATALOAD SWAP2 SWAP1 POP JUMP JUMPDEST PUSH1 0x0 PUSH1 0x20 DUP3 DUP5 SUB SLT ISZERO PUSH3 0x86E JUMPI PUSH1 0x0 DUP1 REVERT JUMPDEST DUP2 CALLDATALOAD PUSH3 0x87B DUP2 PUSH3 0x79A JUMP JUMPDEST SWAP4 SWAP3 POP POP POP JUMP JUMPDEST PUSH4 0x4E487B71 PUSH1 0xE0 SHL PUSH1 0x0 MSTORE PUSH1 0x41 PUSH1 0x4 MSTORE PUSH1 0x24 PUSH1 0x0 REVERT JUMPDEST PUSH1 0x40 MLOAD PUSH1 0x1F DUP3 ADD PUSH1 0x1F NOT AND DUP2 ADD PUSH8 0xFFFFFFFFFFFFFFFF DUP2 GT DUP3 DUP3 LT OR ISZERO PUSH3 0x8C4 JUMPI PUSH3 0x8C4 PUSH3 0x882 JUMP JUMPDEST PUSH1 0x40 MSTORE SWAP2 SWAP1 POP JUMP JUMPDEST PUSH1 0x0 DUP3 PUSH1 0x1F DUP4 ADD SLT PUSH3 0x8DE JUMPI PUSH1 0x0 DUP1 REVERT JUMPDEST DUP2 CALLDATALOAD PUSH8 0xFFFFFFFFFFFFFFFF DUP2 GT ISZERO PUSH3 0x8FB JUMPI PUSH3 0x8FB PUSH3 0x882 JUMP JUMPDEST PUSH3 0x910 PUSH1 0x1F DUP3 ADD PUSH1 0x1F NOT AND PUSH1 0x20 ADD PUSH3 0x898 JUMP JUMPDEST DUP2 DUP2 MSTORE DUP5 PUSH1 0x20 DUP4 DUP7 ADD ADD GT ISZERO PUSH3 0x926 JUMPI PUSH1 0x0 DUP1 REVERT JUMPDEST DUP2 PUSH1 0x20 DUP6 ADD PUSH1 0x20 DUP4 ADD CALLDATACOPY PUSH1 0x0 SWAP2 DUP2 ADD PUSH1 0x20 ADD SWAP2 SWAP1 SWAP2 MSTORE SWAP4 SWAP3 POP POP POP JUMP JUMPDEST DUP1 CALLDATALOAD DUP1 ISZERO ISZERO DUP2 EQ PUSH3 0x7C0 JUMPI PUSH1 0x0 DUP1 REVERT JUMPDEST PUSH1 0x0 DUP3 PUSH1 0x1F DUP4 ADD SLT PUSH3 0x966 JUMPI PUSH1 0x0 DUP1 REVERT JUMPDEST PUSH1 0x40 MLOAD PUSH1 0x60 DUP2 ADD DUP2 DUP2 LT PUSH8 0xFFFFFFFFFFFFFFFF DUP3 GT OR ISZERO PUSH3 0x98C JUMPI PUSH3 0x98C PUSH3 0x882 JUMP JUMPDEST PUSH1 0x40 MSTORE DUP1 PUSH1 0x60 DUP5 ADD DUP6 DUP2 GT ISZERO PUSH3 0x9A2 JUMPI PUSH1 0x0 DUP1 REVERT JUMPDEST DUP5 JUMPDEST DUP2 DUP2 LT ISZERO PUSH3 0x9CF JUMPI DUP1 CALLDATALOAD PUSH1 0xFF DUP2 AND DUP2 EQ PUSH3 0x9C0 JUMPI PUSH1 0x0 DUP1 DUP2 REVERT JUMPDEST DUP4 MSTORE PUSH1 0x20 SWAP3 DUP4 ADD SWAP3 ADD PUSH3 0x9A4 JUMP JUMPDEST POP SWAP2 SWAP6 SWAP5 POP POP POP POP POP JUMP JUMPDEST PUSH1 0x0 DUP3 PUSH1 0x1F DUP4 ADD SLT PUSH3 0x9EC JUMPI PUSH1 0x0 DUP1 REVERT JUMPDEST DUP2 CALLDATALOAD PUSH1 0x20 PUSH8 0xFFFFFFFFFFFFFFFF DUP3 GT ISZERO PUSH3 0xA0B JUMPI PUSH3 0xA0B PUSH3 0x882 JUMP JUMPDEST DUP2 PUSH1 0x5 SHL PUSH3 0xA1C DUP3 DUP3 ADD PUSH3 0x898 JUMP JUMPDEST SWAP3 DUP4 MSTORE DUP5 DUP2 ADD DUP3 ADD SWAP3 DUP3 DUP2 ADD SWAP1 DUP8 DUP6 GT ISZERO PUSH3 0xA37 JUMPI PUSH1 0x0 DUP1 REVERT JUMPDEST DUP4 DUP8 ADD SWAP3 POP JUMPDEST DUP5 DUP4 LT ISZERO PUSH3 0xA63 JUMPI DUP3 CALLDATALOAD PUSH3 0xA53 DUP2 PUSH3 0x79A JUMP JUMPDEST DUP3 MSTORE SWAP2 DUP4 ADD SWAP2 SWAP1 DUP4 ADD SWAP1 PUSH3 0xA3D JUMP JUMPDEST SWAP8 SWAP7 POP POP POP POP POP POP POP JUMP JUMPDEST PUSH1 0x0 DUP1 PUSH1 0x0 DUP1 PUSH1 0x0 DUP1 PUSH1 0x0 DUP1 PUSH1 0x0 PUSH2 0x160 DUP11 DUP13 SUB SLT ISZERO PUSH3 0xA8E JUMPI PUSH1 0x0 DUP1 REVERT JUMPDEST DUP10 CALLDATALOAD PUSH8 0xFFFFFFFFFFFFFFFF DUP1 DUP3 GT ISZERO PUSH3 0xAA7 JUMPI PUSH1 0x0 DUP1 REVERT JUMPDEST PUSH3 0xAB5 DUP14 DUP4 DUP15 ADD PUSH3 0x8CC JUMP JUMPDEST SWAP11 POP PUSH3 0xAC5 PUSH1 0x20 DUP14 ADD PUSH3 0x943 JUMP JUMPDEST SWAP10 POP PUSH3 0xAD5 PUSH1 0x40 DUP14 ADD PUSH3 0x943 JUMP JUMPDEST SWAP9 POP PUSH1 0x60 DUP13 ADD CALLDATALOAD SWAP8 POP PUSH3 0xAED DUP14 PUSH1 0x80 DUP15 ADD PUSH3 0x954 JUMP JUMPDEST SWAP7 POP PUSH1 0xE0 DUP13 ADD CALLDATALOAD SWAP2 POP DUP1 DUP3 GT ISZERO PUSH3 0xB04 JUMPI PUSH1 0x0 DUP1 REVERT JUMPDEST PUSH3 0xB12 DUP14 DUP4 DUP15 ADD PUSH3 0x9DA JUMP JUMPDEST SWAP6 POP PUSH3 0xB23 PUSH2 0x100 DUP14 ADD PUSH3 0x7B3 JUMP JUMPDEST SWAP5 POP PUSH3 0xB34 PUSH2 0x120 DUP14 ADD PUSH3 0x7B3 JUMP JUMPDEST SWAP4 POP PUSH2 0x140 DUP13 ADD CALLDATALOAD SWAP2 POP DUP1 DUP3 GT ISZERO PUSH3 0xB4C JUMPI PUSH1 0x0 DUP1 REVERT JUMPDEST POP PUSH3 0xB5B DUP13 DUP3 DUP14 ADD PUSH3 0x8CC JUMP JUMPDEST SWAP2 POP POP SWAP3 SWAP6 SWAP9 POP SWAP3 SWAP6 SWAP9 POP SWAP3 SWAP6 SWAP9 JUMP JUMPDEST PUSH1 0x0 PUSH1 0x20 DUP3 DUP5 SUB SLT ISZERO PUSH3 0xB7E JUMPI PUSH1 0x0 DUP1 REVERT JUMPDEST DUP2 MLOAD PUSH3 0x87B DUP2 PUSH3 0x79A JUMP JUMPDEST PUSH4 0x4E487B71 PUSH1 0xE0 SHL PUSH1 0x0 MSTORE PUSH1 0x32 PUSH1 0x4 MSTORE PUSH1 0x24 PUSH1 0x0 REVERT JUMPDEST PUSH1 0x0 DUP2 MLOAD DUP1 DUP5 MSTORE PUSH1 0x0 JUMPDEST DUP2 DUP2 LT ISZERO PUSH3 0xBC9 JUMPI PUSH1 0x20 DUP2 DUP6 ADD DUP2 ADD MLOAD DUP7 DUP4 ADD DUP3 ADD MSTORE ADD PUSH3 0xBAB JUMP JUMPDEST DUP2 DUP2 GT ISZERO PUSH3 0xBDC JUMPI PUSH1 0x0 PUSH1 0x20 DUP4 DUP8 ADD ADD MSTORE JUMPDEST POP PUSH1 0x1F ADD PUSH1 0x1F NOT AND SWAP3 SWAP1 SWAP3 ADD PUSH1 0x20 ADD SWAP3 SWAP2 POP POP JUMP JUMPDEST PUSH1 0x0 PUSH2 0x120 DUP1 DUP4 MSTORE PUSH3 0xC07 DUP2 DUP5 ADD DUP14 PUSH3 0xBA1 JUMP JUMPDEST DUP12 ISZERO ISZERO PUSH1 0x20 DUP6 ADD MSTORE PUSH1 0x40 DUP5 ADD DUP12 SWAP1 MSTORE PUSH1 0xFF DUP11 DUP2 AND PUSH1 0x60 DUP7 ADD MSTORE DUP10 DUP2 AND PUSH1 0x80 DUP7 ADD MSTORE DUP9 AND PUSH1 0xA0 DUP6 ADD MSTORE PUSH1 0x1 PUSH1 0x1 PUSH1 0xA0 SHL SUB DUP8 DUP2 AND PUSH1 0xC0 DUP7 ADD MSTORE DUP7 AND PUSH1 0xE0 DUP6 ADD MSTORE DUP4 DUP2 SUB PUSH2 0x100 DUP6 ADD MSTORE SWAP1 POP PUSH3 0xC5D DUP2 DUP6 PUSH3 0xBA1 JUMP JUMPDEST SWAP13 SWAP12 POP POP POP POP POP POP POP POP POP POP POP POP JUMP JUMPDEST DUP1 PUSH1 0x0 JUMPDEST PUSH1 0x4 DUP2 LT ISZERO PUSH3 0xC9B JUMPI DUP2 MLOAD PUSH1 0x1 PUSH1 0x1 PUSH1 0xA0 SHL SUB AND DUP5 MSTORE PUSH1 0x20 SWAP4 DUP5 ADD SWAP4 SWAP1 SWAP2 ADD SWAP1 PUSH1 0x1 ADD PUSH3 0xC71 JUMP JUMPDEST POP POP POP POP JUMP JUMPDEST PUSH1 0x0 DUP2 MLOAD DUP1 DUP5 MSTORE PUSH1 0x20 DUP1 DUP6 ADD SWAP5 POP DUP1 DUP5 ADD PUSH1 0x0 JUMPDEST DUP4 DUP2 LT ISZERO PUSH3 0xCDC JUMPI DUP2 MLOAD PUSH1 0x1 PUSH1 0x1 PUSH1 0xA0 SHL SUB AND DUP8 MSTORE SWAP6 DUP3 ADD SWAP6 SWAP1 DUP3 ADD SWAP1 PUSH1 0x1 ADD PUSH3 0xCB5 JUMP JUMPDEST POP SWAP5 SWAP6 SWAP5 POP POP POP POP POP JUMP JUMPDEST PUSH1 0x1 PUSH1 0x1 PUSH1 0xA0 SHL SUB DUP10 AND DUP2 MSTORE PUSH2 0x1A0 PUSH1 0x20 DUP1 DUP4 ADD DUP3 SWAP1 MSTORE PUSH1 0x0 SWAP2 SWAP1 PUSH3 0xD10 DUP5 DUP4 ADD DUP13 PUSH3 0xBA1 JUMP JUMPDEST SWAP2 POP DUP10 ISZERO ISZERO PUSH1 0x40 DUP6 ADD MSTORE DUP9 ISZERO ISZERO PUSH1 0x60 DUP6 ADD MSTORE DUP8 PUSH1 0x80 DUP6 ADD MSTORE PUSH1 0xA0 DUP5 ADD DUP8 PUSH1 0x0 JUMPDEST PUSH1 0x3 DUP2 LT ISZERO PUSH3 0xD52 JUMPI DUP2 MLOAD PUSH1 0xFF AND DUP4 MSTORE SWAP2 DUP4 ADD SWAP2 SWAP1 DUP4 ADD SWAP1 PUSH1 0x1 ADD PUSH3 0xD30 JUMP JUMPDEST POP POP POP POP PUSH3 0xD66 PUSH2 0x100 DUP5 ADD DUP7 PUSH3 0xC6D JUMP JUMPDEST DUP3 DUP2 SUB PUSH2 0x180 DUP5 ADD MSTORE PUSH3 0xD7B DUP2 DUP6 PUSH3 0xCA1 JUMP JUMPDEST SWAP12 SWAP11 POP POP POP POP POP POP POP POP POP POP POP JUMP JUMPDEST PUSH1 0x1 PUSH1 0x1 PUSH1 0xA0 SHL SUB DUP4 AND DUP2 MSTORE PUSH1 0x40 PUSH1 0x20 DUP3 ADD DUP2 SWAP1 MSTORE PUSH1 0x0 SWAP1 PUSH3 0xDB0 SWAP1 DUP4 ADD DUP5 PUSH3 0xBA1 JUMP JUMPDEST SWAP5 SWAP4 POP POP POP POP JUMP JUMPDEST PUSH1 0x0 PUSH1 0x0 NOT DUP3 EQ ISZERO PUSH3 0xDDB JUMPI PUSH4 0x4E487B71 PUSH1 0xE0 SHL PUSH1 0x0 MSTORE PUSH1 0x11 PUSH1 0x4 MSTORE PUSH1 0x24 PUSH1 0x0 REVERT JUMPDEST POP PUSH1 0x1 ADD SWAP1 JUMP JUMPDEST PUSH1 0x1 PUSH1 0x1 PUSH1 0xA0 SHL SUB DUP5 AND DUP2 MSTORE PUSH1 0x60 PUSH1 0x20 DUP3 ADD DUP2 SWAP1 MSTORE PUSH1 0x0 SWAP1 PUSH3 0xE08 SWAP1 DUP4 ADD DUP6 PUSH3 0xBA1 JUMP JUMPDEST SWAP1 POP DUP3 PUSH1 0x40 DUP4 ADD MSTORE SWAP5 SWAP4 POP POP POP POP JUMP INVALID PUSH1 0x80 PUSH1 0x40 MSTORE CALLVALUE DUP1 ISZERO PUSH2 0x10 JUMPI PUSH1 0x0 DUP1 REVERT JUMPDEST POP PUSH1 0x40 MLOAD PUSH2 0x90B CODESIZE SUB DUP1 PUSH2 0x90B DUP4 CODECOPY DUP2 ADD PUSH1 0x40 DUP2 SWAP1 MSTORE PUSH2 0x2F SWAP2 PUSH2 0x467 JUMP JUMPDEST DUP2 DUP2 PUSH2 0x3D DUP3 DUP3 PUSH1 0x0 PUSH2 0x46 JUMP JUMPDEST POP POP POP POP PUSH2 0x591 JUMP JUMPDEST PUSH2 0x4F DUP4 PUSH2 0x111 JUMP JUMPDEST PUSH1 0x40 MLOAD PUSH1 0x1 PUSH1 0x1 PUSH1 0xA0 SHL SUB DUP5 AND SWAP1 PUSH32 0x1CF3B03A6CF19FA2BABA4DF148E9DCABEDEA7F8A5C07840E207E5C089BE95D3E SWAP1 PUSH1 0x0 SWAP1 LOG2 PUSH1 0x0 DUP3 MLOAD GT DUP1 PUSH2 0x90 JUMPI POP DUP1 JUMPDEST ISZERO PUSH2 0x10C JUMPI PUSH2 0x10A DUP4 PUSH1 0x1 PUSH1 0x1 PUSH1 0xA0 SHL SUB AND PUSH4 0x5C60DA1B PUSH1 0x40 MLOAD DUP2 PUSH4 0xFFFFFFFF AND PUSH1 0xE0 SHL DUP2 MSTORE PUSH1 0x4 ADD PUSH1 0x20 PUSH1 0x40 MLOAD DUP1 DUP4 SUB DUP2 DUP7 GAS STATICCALL ISZERO DUP1 ISZERO PUSH2 0xD6 JUMPI RETURNDATASIZE PUSH1 0x0 DUP1 RETURNDATACOPY RETURNDATASIZE PUSH1 0x0 REVERT JUMPDEST POP POP POP POP PUSH1 0x40 MLOAD RETURNDATASIZE PUSH1 0x1F NOT PUSH1 0x1F DUP3 ADD AND DUP3 ADD DUP1 PUSH1 0x40 MSTORE POP DUP2 ADD SWAP1 PUSH2 0xFA SWAP2 SWAP1 PUSH2 0x527 JUMP JUMPDEST DUP4 PUSH2 0x2B4 PUSH1 0x20 SHL PUSH2 0x29 OR PUSH1 0x20 SHR JUMP JUMPDEST POP JUMPDEST POP POP POP JUMP JUMPDEST PUSH2 0x124 DUP2 PUSH2 0x2E0 PUSH1 0x20 SHL PUSH2 0x55 OR PUSH1 0x20 SHR JUMP JUMPDEST PUSH2 0x183 JUMPI PUSH1 0x40 MLOAD PUSH3 0x461BCD PUSH1 0xE5 SHL DUP2 MSTORE PUSH1 0x20 PUSH1 0x4 DUP3 ADD MSTORE PUSH1 0x25 PUSH1 0x24 DUP3 ADD MSTORE PUSH32 0x455243313936373A206E657720626561636F6E206973206E6F74206120636F6E PUSH1 0x44 DUP3 ADD MSTORE PUSH5 0x1D1C9858DD PUSH1 0xDA SHL PUSH1 0x64 DUP3 ADD MSTORE PUSH1 0x84 ADD JUMPDEST PUSH1 0x40 MLOAD DUP1 SWAP2 SUB SWAP1 REVERT JUMPDEST PUSH2 0x1F7 DUP2 PUSH1 0x1 PUSH1 0x1 PUSH1 0xA0 SHL SUB AND PUSH4 0x5C60DA1B PUSH1 0x40 MLOAD DUP2 PUSH4 0xFFFFFFFF AND PUSH1 0xE0 SHL DUP2 MSTORE PUSH1 0x4 ADD PUSH1 0x20 PUSH1 0x40 MLOAD DUP1 DUP4 SUB DUP2 DUP7 GAS STATICCALL ISZERO DUP1 ISZERO PUSH2 0x1C4 JUMPI RETURNDATASIZE PUSH1 0x0 DUP1 RETURNDATACOPY RETURNDATASIZE PUSH1 0x0 REVERT JUMPDEST POP POP POP POP PUSH1 0x40 MLOAD RETURNDATASIZE PUSH1 0x1F NOT PUSH1 0x1F DUP3 ADD AND DUP3 ADD DUP1 PUSH1 0x40 MSTORE POP DUP2 ADD SWAP1 PUSH2 0x1E8 SWAP2 SWAP1 PUSH2 0x527 JUMP JUMPDEST PUSH2 0x2E0 PUSH1 0x20 SHL PUSH2 0x55 OR PUSH1 0x20 SHR JUMP JUMPDEST PUSH2 0x25C JUMPI PUSH1 0x40 MLOAD PUSH3 0x461BCD PUSH1 0xE5 SHL DUP2 MSTORE PUSH1 0x20 PUSH1 0x4 DUP3 ADD MSTORE PUSH1 0x30 PUSH1 0x24 DUP3 ADD MSTORE PUSH32 0x455243313936373A20626561636F6E20696D706C656D656E746174696F6E2069 PUSH1 0x44 DUP3 ADD MSTORE PUSH16 0x1CC81B9BDD08184818DBDB9D1C9858DD PUSH1 0x82 SHL PUSH1 0x64 DUP3 ADD MSTORE PUSH1 0x84 ADD PUSH2 0x17A JUMP JUMPDEST DUP1 PUSH2 0x293 PUSH32 0xA3F0AD74E5423AEBFD80D3EF4346578335A9A72AEAEE59FF6CB3582B35133D50 PUSH1 0x0 SHL PUSH2 0x2EF PUSH1 0x20 SHL PUSH2 0x64 OR PUSH1 0x20 SHR JUMP JUMPDEST DUP1 SLOAD PUSH1 0x1 PUSH1 0x1 PUSH1 0xA0 SHL SUB NOT AND PUSH1 0x1 PUSH1 0x1 PUSH1 0xA0 SHL SUB SWAP3 SWAP1 SWAP3 AND SWAP2 SWAP1 SWAP2 OR SWAP1 SSTORE POP JUMP JUMPDEST PUSH1 0x60 PUSH2 0x2D9 DUP4 DUP4 PUSH1 0x40 MLOAD DUP1 PUSH1 0x60 ADD PUSH1 0x40 MSTORE DUP1 PUSH1 0x27 DUP2 MSTORE PUSH1 0x20 ADD PUSH2 0x8E4 PUSH1 0x27 SWAP2 CODECOPY PUSH2 0x2F2 JUMP JUMPDEST SWAP4 SWAP3 POP POP POP JUMP JUMPDEST PUSH1 0x1 PUSH1 0x1 PUSH1 0xA0 SHL SUB AND EXTCODESIZE ISZERO ISZERO SWAP1 JUMP JUMPDEST SWAP1 JUMP JUMPDEST PUSH1 0x60 PUSH1 0x1 PUSH1 0x1 PUSH1 0xA0 SHL SUB DUP5 AND EXTCODESIZE PUSH2 0x35A JUMPI PUSH1 0x40 MLOAD PUSH3 0x461BCD PUSH1 0xE5 SHL DUP2 MSTORE PUSH1 0x20 PUSH1 0x4 DUP3 ADD MSTORE PUSH1 0x26 PUSH1 0x24 DUP3 ADD MSTORE PUSH32 0x416464726573733A2064656C65676174652063616C6C20746F206E6F6E2D636F PUSH1 0x44 DUP3 ADD MSTORE PUSH6 0x1B9D1C9858DD PUSH1 0xD2 SHL PUSH1 0x64 DUP3 ADD MSTORE PUSH1 0x84 ADD PUSH2 0x17A JUMP JUMPDEST PUSH1 0x0 DUP1 DUP6 PUSH1 0x1 PUSH1 0x1 PUSH1 0xA0 SHL SUB AND DUP6 PUSH1 0x40 MLOAD PUSH2 0x375 SWAP2 SWAP1 PUSH2 0x542 JUMP JUMPDEST PUSH1 0x0 PUSH1 0x40 MLOAD DUP1 DUP4 SUB DUP2 DUP6 GAS DELEGATECALL SWAP2 POP POP RETURNDATASIZE DUP1 PUSH1 0x0 DUP2 EQ PUSH2 0x3B0 JUMPI PUSH1 0x40 MLOAD SWAP2 POP PUSH1 0x1F NOT PUSH1 0x3F RETURNDATASIZE ADD AND DUP3 ADD PUSH1 0x40 MSTORE RETURNDATASIZE DUP3 MSTORE RETURNDATASIZE PUSH1 0x0 PUSH1 0x20 DUP5 ADD RETURNDATACOPY PUSH2 0x3B5 JUMP JUMPDEST PUSH1 0x60 SWAP2 POP JUMPDEST POP SWAP1 SWAP3 POP SWAP1 POP PUSH2 0x3C6 DUP3 DUP3 DUP7 PUSH2 0x3D0 JUMP JUMPDEST SWAP7 SWAP6 POP POP POP POP POP POP JUMP JUMPDEST PUSH1 0x60 DUP4 ISZERO PUSH2 0x3DF JUMPI POP DUP2 PUSH2 0x2D9 JUMP JUMPDEST DUP3 MLOAD ISZERO PUSH2 0x3EF JUMPI DUP3 MLOAD DUP1 DUP5 PUSH1 0x20 ADD REVERT JUMPDEST DUP2 PUSH1 0x40 MLOAD PUSH3 0x461BCD PUSH1 0xE5 SHL DUP2 MSTORE PUSH1 0x4 ADD PUSH2 0x17A SWAP2 SWAP1 PUSH2 0x55E JUMP JUMPDEST DUP1 MLOAD PUSH1 0x1 PUSH1 0x1 PUSH1 0xA0 SHL SUB DUP2 AND DUP2 EQ PUSH2 0x420 JUMPI PUSH1 0x0 DUP1 REVERT JUMPDEST SWAP2 SWAP1 POP JUMP JUMPDEST PUSH4 0x4E487B71 PUSH1 0xE0 SHL PUSH1 0x0 MSTORE PUSH1 0x41 PUSH1 0x4 MSTORE PUSH1 0x24 PUSH1 0x0 REVERT JUMPDEST PUSH1 0x0 JUMPDEST DUP4 DUP2 LT ISZERO PUSH2 0x456 JUMPI DUP2 DUP2 ADD MLOAD DUP4 DUP3 ADD MSTORE PUSH1 0x20 ADD PUSH2 0x43E JUMP JUMPDEST DUP4 DUP2 GT ISZERO PUSH2 0x10A JUMPI POP POP PUSH1 0x0 SWAP2 ADD MSTORE JUMP JUMPDEST PUSH1 0x0 DUP1 PUSH1 0x40 DUP4 DUP6 SUB SLT ISZERO PUSH2 0x47A JUMPI PUSH1 0x0 DUP1 REVERT JUMPDEST PUSH2 0x483 DUP4 PUSH2 0x409 JUMP JUMPDEST PUSH1 0x20 DUP5 ADD MLOAD SWAP1 SWAP3 POP PUSH1 0x1 PUSH1 0x1 PUSH1 0x40 SHL SUB DUP1 DUP3 GT ISZERO PUSH2 0x4A0 JUMPI PUSH1 0x0 DUP1 REVERT JUMPDEST DUP2 DUP6 ADD SWAP2 POP DUP6 PUSH1 0x1F DUP4 ADD SLT PUSH2 0x4B4 JUMPI PUSH1 0x0 DUP1 REVERT JUMPDEST DUP2 MLOAD DUP2 DUP2 GT ISZERO PUSH2 0x4C6 JUMPI PUSH2 0x4C6 PUSH2 0x425 JUMP JUMPDEST PUSH1 0x40 MLOAD PUSH1 0x1F DUP3 ADD PUSH1 0x1F NOT SWAP1 DUP2 AND PUSH1 0x3F ADD AND DUP2 ADD SWAP1 DUP4 DUP3 GT DUP2 DUP4 LT OR ISZERO PUSH2 0x4EE JUMPI PUSH2 0x4EE PUSH2 0x425 JUMP JUMPDEST DUP2 PUSH1 0x40 MSTORE DUP3 DUP2 MSTORE DUP9 PUSH1 0x20 DUP5 DUP8 ADD ADD GT ISZERO PUSH2 0x507 JUMPI PUSH1 0x0 DUP1 REVERT JUMPDEST PUSH2 0x518 DUP4 PUSH1 0x20 DUP4 ADD PUSH1 0x20 DUP9 ADD PUSH2 0x43B JUMP JUMPDEST DUP1 SWAP6 POP POP POP POP POP POP SWAP3 POP SWAP3 SWAP1 POP JUMP JUMPDEST PUSH1 0x0 PUSH1 0x20 DUP3 DUP5 SUB SLT ISZERO PUSH2 0x539 JUMPI PUSH1 0x0 DUP1 REVERT JUMPDEST PUSH2 0x2D9 DUP3 PUSH2 0x409 JUMP JUMPDEST PUSH1 0x0 DUP3 MLOAD PUSH2 0x554 DUP2 DUP5 PUSH1 0x20 DUP8 ADD PUSH2 0x43B JUMP JUMPDEST SWAP2 SWAP1 SWAP2 ADD SWAP3 SWAP2 POP POP JUMP JUMPDEST PUSH1 0x20 DUP2 MSTORE PUSH1 0x0 DUP3 MLOAD DUP1 PUSH1 0x20 DUP5 ADD MSTORE PUSH2 0x57D DUP2 PUSH1 0x40 DUP6 ADD PUSH1 0x20 DUP8 ADD PUSH2 0x43B JUMP JUMPDEST PUSH1 0x1F ADD PUSH1 0x1F NOT AND SWAP2 SWAP1 SWAP2 ADD PUSH1 0x40 ADD SWAP3 SWAP2 POP POP JUMP JUMPDEST PUSH2 0x344 DUP1 PUSH2 0x5A0 PUSH1 0x0 CODECOPY PUSH1 0x0 RETURN INVALID PUSH1 0x80 PUSH1 0x40 MSTORE CALLDATASIZE PUSH2 0x13 JUMPI PUSH2 0x11 PUSH2 0x17 JUMP JUMPDEST STOP JUMPDEST PUSH2 0x11 JUMPDEST PUSH2 0x27 PUSH2 0x22 PUSH2 0x67 JUMP JUMPDEST PUSH2 0x100 JUMP JUMPDEST JUMP JUMPDEST PUSH1 0x60 PUSH2 0x4E DUP4 DUP4 PUSH1 0x40 MLOAD DUP1 PUSH1 0x60 ADD PUSH1 0x40 MSTORE DUP1 PUSH1 0x27 DUP2 MSTORE PUSH1 0x20 ADD PUSH2 0x2E8 PUSH1 0x27 SWAP2 CODECOPY PUSH2 0x124 JUMP JUMPDEST SWAP4 SWAP3 POP POP POP JUMP JUMPDEST PUSH1 0x1 PUSH1 0x1 PUSH1 0xA0 SHL SUB AND EXTCODESIZE ISZERO ISZERO SWAP1 JUMP JUMPDEST SWAP1 JUMP JUMPDEST PUSH1 0x0 PUSH2 0x9A PUSH32 0xA3F0AD74E5423AEBFD80D3EF4346578335A9A72AEAEE59FF6CB3582B35133D50 SLOAD PUSH1 0x1 PUSH1 0x1 PUSH1 0xA0 SHL SUB AND SWAP1 JUMP JUMPDEST PUSH1 0x1 PUSH1 0x1 PUSH1 0xA0 SHL SUB AND PUSH4 0x5C60DA1B PUSH1 0x40 MLOAD DUP2 PUSH4 0xFFFFFFFF AND PUSH1 0xE0 SHL DUP2 MSTORE PUSH1 0x4 ADD PUSH1 0x20 PUSH1 0x40 MLOAD DUP1 DUP4 SUB DUP2 DUP7 GAS STATICCALL ISZERO DUP1 ISZERO PUSH2 0xD7 JUMPI RETURNDATASIZE PUSH1 0x0 DUP1 RETURNDATACOPY RETURNDATASIZE PUSH1 0x0 REVERT JUMPDEST POP POP POP POP PUSH1 0x40 MLOAD RETURNDATASIZE PUSH1 0x1F NOT PUSH1 0x1F DUP3 ADD AND DUP3 ADD DUP1 PUSH1 0x40 MSTORE POP DUP2 ADD SWAP1 PUSH2 0xFB SWAP2 SWAP1 PUSH2 0x23F JUMP JUMPDEST SWAP1 POP SWAP1 JUMP JUMPDEST CALLDATASIZE PUSH1 0x0 DUP1 CALLDATACOPY PUSH1 0x0 DUP1 CALLDATASIZE PUSH1 0x0 DUP5 GAS DELEGATECALL RETURNDATASIZE PUSH1 0x0 DUP1 RETURNDATACOPY DUP1 DUP1 ISZERO PUSH2 0x11F JUMPI RETURNDATASIZE PUSH1 0x0 RETURN JUMPDEST RETURNDATASIZE PUSH1 0x0 REVERT JUMPDEST PUSH1 0x60 PUSH1 0x1 PUSH1 0x1 PUSH1 0xA0 SHL SUB DUP5 AND EXTCODESIZE PUSH2 0x191 JUMPI PUSH1 0x40 MLOAD PUSH3 0x461BCD PUSH1 0xE5 SHL DUP2 MSTORE PUSH1 0x20 PUSH1 0x4 DUP3 ADD MSTORE PUSH1 0x26 PUSH1 0x24 DUP3 ADD MSTORE PUSH32 0x416464726573733A2064656C65676174652063616C6C20746F206E6F6E2D636F PUSH1 0x44 DUP3 ADD MSTORE PUSH6 0x1B9D1C9858DD PUSH1 0xD2 SHL PUSH1 0x64 DUP3 ADD MSTORE PUSH1 0x84 ADD JUMPDEST PUSH1 0x40 MLOAD DUP1 SWAP2 SUB SWAP1 REVERT JUMPDEST PUSH1 0x0 DUP1 DUP6 PUSH1 0x1 PUSH1 0x1 PUSH1 0xA0 SHL SUB AND DUP6 PUSH1 0x40 MLOAD PUSH2 0x1AC SWAP2 SWAP1 PUSH2 0x298 JUMP JUMPDEST PUSH1 0x0 PUSH1 0x40 MLOAD DUP1 DUP4 SUB DUP2 DUP6 GAS DELEGATECALL SWAP2 POP POP RETURNDATASIZE DUP1 PUSH1 0x0 DUP2 EQ PUSH2 0x1E7 JUMPI PUSH1 0x40 MLOAD SWAP2 POP PUSH1 0x1F NOT PUSH1 0x3F RETURNDATASIZE ADD AND DUP3 ADD PUSH1 0x40 MSTORE RETURNDATASIZE DUP3 MSTORE RETURNDATASIZE PUSH1 0x0 PUSH1 0x20 DUP5 ADD RETURNDATACOPY PUSH2 0x1EC JUMP JUMPDEST PUSH1 0x60 SWAP2 POP JUMPDEST POP SWAP2 POP SWAP2 POP PUSH2 0x1FC DUP3 DUP3 DUP7 PUSH2 0x206 JUMP JUMPDEST SWAP7 SWAP6 POP POP POP POP POP POP JUMP JUMPDEST PUSH1 0x60 DUP4 ISZERO PUSH2 0x215 JUMPI POP DUP2 PUSH2 0x4E JUMP JUMPDEST DUP3 MLOAD ISZERO PUSH2 0x225 JUMPI DUP3 MLOAD DUP1 DUP5 PUSH1 0x20 ADD REVERT JUMPDEST DUP2 PUSH1 0x40 MLOAD PUSH3 0x461BCD PUSH1 0xE5 SHL DUP2 MSTORE PUSH1 0x4 ADD PUSH2 0x188 SWAP2 SWAP1 PUSH2 0x2B4 JUMP JUMPDEST PUSH1 0x0 PUSH1 0x20 DUP3 DUP5 SUB SLT ISZERO PUSH2 0x251 JUMPI PUSH1 0x0 DUP1 REVERT JUMPDEST DUP2 MLOAD PUSH1 0x1 PUSH1 0x1 PUSH1 0xA0 SHL SUB DUP2 AND DUP2 EQ PUSH2 0x4E JUMPI PUSH1 0x0 DUP1 REVERT JUMPDEST PUSH1 0x0 JUMPDEST DUP4 DUP2 LT ISZERO PUSH2 0x283 JUMPI DUP2 DUP2 ADD MLOAD DUP4 DUP3 ADD MSTORE PUSH1 0x20 ADD PUSH2 0x26B JUMP JUMPDEST DUP4 DUP2 GT ISZERO PUSH2 0x292 JUMPI PUSH1 0x0 DUP5 DUP5 ADD MSTORE JUMPDEST POP POP POP POP JUMP JUMPDEST PUSH1 0x0 DUP3 MLOAD PUSH2 0x2AA DUP2 DUP5 PUSH1 0x20 DUP8 ADD PUSH2 0x268 JUMP JUMPDEST SWAP2 SWAP1 SWAP2 ADD SWAP3 SWAP2 POP POP JUMP JUMPDEST PUSH1 0x20 DUP2 MSTORE PUSH1 0x0 DUP3 MLOAD DUP1 PUSH1 0x20 DUP5 ADD MSTORE PUSH2 0x2D3 DUP2 PUSH1 0x40 DUP6 ADD PUSH1 0x20 DUP8 ADD PUSH2 0x268 JUMP JUMPDEST PUSH1 0x1F ADD PUSH1 0x1F NOT AND SWAP2 SWAP1 SWAP2 ADD PUSH1 0x40 ADD SWAP3 SWAP2 POP POP JUMP INVALID COINBASE PUSH5 0x6472657373 GASPRICE KECCAK256 PUSH13 0x6F772D6C6576656C2064656C65 PUSH8 0x6174652063616C6C KECCAK256 PUSH7 0x61696C6564A264 PUSH10 0x7066735822122025A9C7 BASEFEE 0xCB SWAP3 PUSH3 0x7DF1EE CALL 0xF6 CALLDATASIZE SUB ADDMOD PUSH17 0xF9EEB2865D476DB2B1EFDF323A388CD764 PUSH20 0x6F6C634300080C0033416464726573733A206C6F PUSH24 0x2D6C6576656C2064656C65676174652063616C6C20666169 PUSH13 0x6564A264697066735822122037 RETURN 0xCC 0xEC LOG2 PUSH32 0x73C185442B3CC5B3352C1A8375798B3913E40A4B7F1332C3637E64736F6C6343 STOP ADDMOD 0xC STOP CALLER ",
  "sha1": "b1a181fb494b031030b620731ac1ec1d06632ed9",
  "source": "// SPDX-License-Identifier: MIT\npragma solidity ^0.8.11;\n\nimport \"@openzeppelin/contracts/proxy/utils/Initializable.sol\";\nimport \"./ICLHouse.sol\";\nimport \"./CLProxy.sol\";\nimport \"./CLHouseApi.sol\";\nimport \"./ICLFactory.sol\";\n\n\n/// @title Crypto League House Factory\n/// @notice Config, create and deploy CLHouses\n/// @dev This contract is the only way to create CLH\n/// @author Leonardo Urrego\ncontract CLFactory is ICLFactory, Initializable {\n    /// @notice Store the number of houses created\n    uint256 public numCLH;\n\n    uint256[10] __gapUint256;\n\n    /// @notice Contract with the CLH Constructor logic\n    address public CLLConstructorCLH;\n\n    /// @notice Contract with the functions for user management\n    address public CLLUserManagement;\n\n    /// @notice Contract with the functions for Governance\n    address public CLLGovernance;\n\n    /// @notice Contract CLHouse API\n    address public CLHAPI;\n\n    address[10] __gapAddress;\n\n    CLBeacon public beaconCLH;\n    \n    /// @notice Relation houseAddr with houseId\n    mapping( address => uint256 ) public mapIdCLH;\n    \n    /// @notice Mapping to store all the created houses\n    mapping(uint256 => ICLHouse) public mapCLH;\n\n    /// @notice Event when house is created\n    /// @param houseAddr Address of the created house\n    /// @param houseName Name of the created house\n    /// @param houseId Id of CLH of the created house\n    event evtHouseCreation( address houseAddr, string houseName, uint256 houseId );\n    /// @custom:oz-upgrades-unsafe-allow constructor\n\n    constructor() {\n        _disableInitializers();\n    }\n\n    /// @notice Config the CLFactory with the CL Logic Contracts\n    /// @param _CLLUserManagement Address Contract Logic for user management\n    /// @param _CLLGovernance Address Contract Logic for governance\n    /// @param _CLLConstructorCLH Address Contract with the Constructor logic\n    /// @dev The constructor create a default CLH with the houseId #0\n    function Init(\n        address _CLLUserManagement,\n        address _CLLGovernance,\n        address _CLLConstructorCLH,\n        address _CLHAPI,\n        address _beacon\n    )\n        public\n        reinitializer( __UPGRADEABLE_CLF_VERSION__ )\n    {\n        beaconCLH = CLBeacon( _beacon );\n\n        CLLUserManagement = _CLLUserManagement;\n        CLLGovernance = _CLLGovernance;\n        CLLConstructorCLH = _CLLConstructorCLH;\n        CLHAPI = _CLHAPI;\n\n        numCLH = 0;\n        mapCLH[ numCLH ] = ICLHouse( address(0) );\n        mapIdCLH[ address(0) ] = numCLH;\n    }\n\n\n    /// @notice Deploy a new CLHouse\n    /// @param _houseName Name of the CLH\n    /// @param _housePrivate If is set to 1, the CLH is set to private\n    /// @param _houseOpen If is set to 1, the CLH is set to open\n    /// @param _govModel keccak256 hash of the governance model, see the __GOV_* constans\n    /// @param _govRules Array for goverment rules see `enum gRule`\n    /// @param _ManagerWallets Whitelist of address for invitate as managers\n    /// @dev Some parameters wil be ignored depending on the governance model\n    function CreateCLH(\n        string memory _houseName,\n        bool _housePrivate,\n        bool _houseOpen,\n        bytes32 _govModel,\n        uint8[3] memory _govRules,\n        address[] memory _ManagerWallets,\n        address _gnosisSafe,\n        address _signerWallet,\n        bytes memory _signature\n    ) \n        public\n    {\n        address houseOwner = msg.sender;\n\n        require( \n            __GOV_DICTATORSHIP__ == _govModel ||\n            __GOV_COMMITTEE__ == _govModel ||\n            __GOV_SIMPLE_MAJORITY__ == _govModel ,\n            \"Invalid Governance Type\"\n        );\n\n        if( _signerWallet != address(0) ) {\n            require( _signature.length == 65, \"CreateCLH: Bad signature length\" );\n            \n            require(\n                _signerWallet == CLHouseApi( CLHAPI ).SignerOCNewCLH(\n                    _houseName,\n                    _housePrivate,\n                    _govModel,\n                    _govRules[0],\n                    _govRules[1],\n                    _govRules[2],\n                    _ManagerWallets[0],\n                    address(this),\n                    _signature\n                ),\n                \"CreateCLH: Invalid Signature\"\n            );\n\n            houseOwner = _signerWallet;\n        }\n\n        CLProxyCLH pxyCLH = new CLProxyCLH(\n            address( beaconCLH ),\n            abi.encodeWithSignature(\n                \"Init(address,string,bool,bool,bytes32,uint8[3],address[4],address[])\",\n                houseOwner, \n                _houseName,\n                _housePrivate,\n                _houseOpen,\n                _govModel,\n                _govRules,\n                [ address(this), CLHAPI, _gnosisSafe, CLLConstructorCLH ],\n                _ManagerWallets\n            )\n        );\n\n        numCLH++;\n        mapCLH[ numCLH ] = ICLHouse( address( pxyCLH ) );\n        mapIdCLH[ address( pxyCLH ) ] = numCLH;\n\n        emit evtHouseCreation( address( pxyCLH ), _houseName, numCLH );\n    }\n\n    function getImplementation() public view returns (address) {\n        return beaconCLH.implementation();\n    }\n}",
  "sourcePath": "contracts/CLHouse/CLFactory.sol",
  "type": "contract"
}