{
  "abi": [
    {
      "inputs": [],
      "stateMutability": "nonpayable",
      "type": "constructor"
    },
    {
      "anonymous": false,
      "inputs": [
        {
          "indexed": false,
          "internalType": "uint8",
          "name": "version",
          "type": "uint8"
        }
      ],
      "name": "Initialized",
      "type": "event"
    },
    {
      "anonymous": false,
      "inputs": [
        {
          "indexed": true,
          "internalType": "address",
          "name": "previousOwner",
          "type": "address"
        },
        {
          "indexed": true,
          "internalType": "address",
          "name": "newOwner",
          "type": "address"
        }
      ],
      "name": "OwnershipTransferred",
      "type": "event"
    },
    {
      "anonymous": false,
      "inputs": [
        {
          "indexed": false,
          "internalType": "address",
          "name": "houseAddr",
          "type": "address"
        },
        {
          "indexed": false,
          "internalType": "string",
          "name": "houseName",
          "type": "string"
        },
        {
          "indexed": false,
          "internalType": "uint256",
          "name": "houseId",
          "type": "uint256"
        }
      ],
      "name": "evtNewCLH",
      "type": "event"
    },
    {
      "anonymous": false,
      "inputs": [
        {
          "indexed": false,
          "internalType": "string",
          "name": "CLCName",
          "type": "string"
        },
        {
          "indexed": false,
          "internalType": "address",
          "name": "oldAddress",
          "type": "address"
        },
        {
          "indexed": false,
          "internalType": "address",
          "name": "newAddress",
          "type": "address"
        }
      ],
      "name": "evtUpdateCLC",
      "type": "event"
    },
    {
      "inputs": [],
      "name": "CLHAPI",
      "outputs": [
        {
          "internalType": "address",
          "name": "",
          "type": "address"
        }
      ],
      "stateMutability": "view",
      "type": "function"
    },
    {
      "inputs": [],
      "name": "CLLConstructorCLH",
      "outputs": [
        {
          "internalType": "address",
          "name": "",
          "type": "address"
        }
      ],
      "stateMutability": "view",
      "type": "function"
    },
    {
      "inputs": [],
      "name": "CLLGovernance",
      "outputs": [
        {
          "internalType": "address",
          "name": "",
          "type": "address"
        }
      ],
      "stateMutability": "view",
      "type": "function"
    },
    {
      "inputs": [],
      "name": "CLLUserManagement",
      "outputs": [
        {
          "internalType": "address",
          "name": "",
          "type": "address"
        }
      ],
      "stateMutability": "view",
      "type": "function"
    },
    {
      "inputs": [
        {
          "internalType": "string",
          "name": "_houseName",
          "type": "string"
        },
        {
          "internalType": "bool",
          "name": "_housePrivate",
          "type": "bool"
        },
        {
          "internalType": "bool",
          "name": "_houseOpen",
          "type": "bool"
        },
        {
          "internalType": "bytes32",
          "name": "_govModel",
          "type": "bytes32"
        },
        {
          "internalType": "uint256[3]",
          "name": "_govRules",
          "type": "uint256[3]"
        },
        {
          "internalType": "address[]",
          "name": "_ManagerWallets",
          "type": "address[]"
        },
        {
          "internalType": "address",
          "name": "_gnosisSafe",
          "type": "address"
        },
        {
          "internalType": "address",
          "name": "_whiteListNFT",
          "type": "address"
        },
        {
          "internalType": "address",
          "name": "_signerWallet",
          "type": "address"
        },
        {
          "internalType": "bytes",
          "name": "_signature",
          "type": "bytes"
        }
      ],
      "name": "CreateCLH",
      "outputs": [],
      "stateMutability": "nonpayable",
      "type": "function"
    },
    {
      "inputs": [
        {
          "internalType": "address",
          "name": "_CLLUserManagement",
          "type": "address"
        },
        {
          "internalType": "address",
          "name": "_CLLGovernance",
          "type": "address"
        },
        {
          "internalType": "address",
          "name": "_CLLConstructorCLH",
          "type": "address"
        },
        {
          "internalType": "address",
          "name": "_CLHAPI",
          "type": "address"
        },
        {
          "internalType": "address",
          "name": "_beacon",
          "type": "address"
        }
      ],
      "name": "Init",
      "outputs": [],
      "stateMutability": "nonpayable",
      "type": "function"
    },
    {
      "inputs": [
        {
          "internalType": "address",
          "name": "_CLHAPI",
          "type": "address"
        }
      ],
      "name": "UpdateCLHAPI",
      "outputs": [],
      "stateMutability": "nonpayable",
      "type": "function"
    },
    {
      "inputs": [
        {
          "internalType": "address",
          "name": "_CLLConstructorCLH",
          "type": "address"
        }
      ],
      "name": "UpdateCLLConstructorCLH",
      "outputs": [],
      "stateMutability": "nonpayable",
      "type": "function"
    },
    {
      "inputs": [
        {
          "internalType": "address",
          "name": "_CLLGovernance",
          "type": "address"
        }
      ],
      "name": "UpdateCLLGovernance",
      "outputs": [],
      "stateMutability": "nonpayable",
      "type": "function"
    },
    {
      "inputs": [
        {
          "internalType": "address",
          "name": "_CLLUserManagement",
          "type": "address"
        }
      ],
      "name": "UpdateCLLUserManagement",
      "outputs": [],
      "stateMutability": "nonpayable",
      "type": "function"
    },
    {
      "inputs": [],
      "name": "beaconCLH",
      "outputs": [
        {
          "internalType": "contract CLBeacon",
          "name": "",
          "type": "address"
        }
      ],
      "stateMutability": "view",
      "type": "function"
    },
    {
      "inputs": [],
      "name": "getCLHImplementation",
      "outputs": [
        {
          "internalType": "address",
          "name": "",
          "type": "address"
        }
      ],
      "stateMutability": "view",
      "type": "function"
    },
    {
      "inputs": [
        {
          "internalType": "uint256",
          "name": "",
          "type": "uint256"
        }
      ],
      "name": "mapCLH",
      "outputs": [
        {
          "internalType": "contract ICLHouse",
          "name": "",
          "type": "address"
        }
      ],
      "stateMutability": "view",
      "type": "function"
    },
    {
      "inputs": [
        {
          "internalType": "address",
          "name": "",
          "type": "address"
        }
      ],
      "name": "mapIdCLH",
      "outputs": [
        {
          "internalType": "uint256",
          "name": "",
          "type": "uint256"
        }
      ],
      "stateMutability": "view",
      "type": "function"
    },
    {
      "inputs": [],
      "name": "numCLH",
      "outputs": [
        {
          "internalType": "uint256",
          "name": "",
          "type": "uint256"
        }
      ],
      "stateMutability": "view",
      "type": "function"
    },
    {
      "inputs": [],
      "name": "owner",
      "outputs": [
        {
          "internalType": "address",
          "name": "",
          "type": "address"
        }
      ],
      "stateMutability": "view",
      "type": "function"
    },
    {
      "inputs": [],
      "name": "renounceOwnership",
      "outputs": [],
      "stateMutability": "nonpayable",
      "type": "function"
    },
    {
      "inputs": [
        {
          "internalType": "address",
          "name": "newOwner",
          "type": "address"
        }
      ],
      "name": "transferOwnership",
      "outputs": [],
      "stateMutability": "nonpayable",
      "type": "function"
    }
  ],
  "bytecode": "608060405234801561001057600080fd5b5061001961001e565b6100de565b600054610100900460ff161561008a5760405162461bcd60e51b815260206004820152602760248201527f496e697469616c697a61626c653a20636f6e747261637420697320696e697469604482015266616c697a696e6760c81b606482015260840160405180910390fd5b60005460ff90811610156100dc576000805460ff191660ff9081179091556040519081527f7f26b83ff96e1f2b6a682f133852f6798a09c465da95921460cefb38474024989060200160405180910390a15b565b611d34806100ed6000396000f3fe60806040523480156200001157600080fd5b50600436106200012d5760003560e01c80638da5cb5b11620000af578063c1e45428116200007a578063c1e45428146200027e578063d742063c1462000295578063ee7a7d1b14620002ac578063f2fde38b14620002b6578063f6f7a1b314620002cd57600080fd5b80638da5cb5b146200023a578063a327ab69146200024c578063a6b6ed3a1462000260578063c0828f63146200026a57600080fd5b8063594034e311620000fc578063594034e314620001a757806360b323c314620001bb578063624d877414620001d2578063715018a614620001fe57806386bdfcac146200020857600080fd5b8063107907171462000132578063209bafec14620001635780634bc3959f146200017c578063529382d51462000193575b600080fd5b60735462000146906001600160a01b031681565b6040516001600160a01b0390911681526020015b60405180910390f35b6200017a6200017436600462000f00565b620002e4565b005b6200017a6200018d36600462001011565b62000742565b60715462000146906001600160a01b031681565b60705462000146906001600160a01b031681565b6200017a620001cc36600462001038565b620007bb565b62000146620001e3366004620010b4565b6080602052600090815260409020546001600160a01b031681565b6200017a62000958565b6200022b6200021936600462001011565b607f6020526000908152604090205481565b6040519081526020016200015a565b6033546001600160a01b031662000146565b60725462000146906001600160a01b031681565b6200014662000970565b607e5462000146906001600160a01b031681565b6200017a6200028f36600462001011565b620009e6565b6200017a620002a636600462001011565b62000a63565b6200022b60655481565b6200017a620002c736600462001011565b62000adc565b6200017a620002de36600462001011565b62000b5b565b337f0b93889d934070956c00846f50f9a10a747bd194bba2f2e78a86d0c02386fdb1881480620003335750877f16591a696fee5867425b3dee9fc0160a6c1baef77835bc3d204314106d639298145b806200035e5750877fa0786f6450d5fb3298b8425105c1b75e6e01a1ff86cdabea29909cdb0b4c83a7145b620003b05760405162461bcd60e51b815260206004820152601760248201527f496e76616c696420476f7665726e616e6365205479706500000000000000000060448201526064015b60405180910390fd5b6001600160a01b0383161562000532578151604114620004135760405162461bcd60e51b815260206004820152601f60248201527f437265617465434c483a20426164207369676e6174757265206c656e677468006044820152606401620003a7565b6073546001600160a01b0316638b4bccca8c8c8c8c8c600060200201518d600160200201518e600260200201518c8f600081518110620004575762000457620010ce565b6020026020010151308d6040518c63ffffffff1660e01b8152600401620004899b9a9998979695949392919062001134565b602060405180830381865afa158015620004a7573d6000803e3d6000fd5b505050506040513d601f19601f82011682018060405250810190620004cd9190620011c0565b6001600160a01b0316836001600160a01b0316146200052f5760405162461bcd60e51b815260206004820152601c60248201527f437265617465434c483a20496e76616c6964205369676e6174757265000000006044820152606401620003a7565b50815b6000607e60009054906101000a90046001600160a01b0316828d8d8d8d8d6040518060a00160405280607060009054906101000a90046001600160a01b03166001600160a01b03166001600160a01b03168152602001306001600160a01b03166001600160a01b03168152602001607360009054906101000a90046001600160a01b03166001600160a01b03166001600160a01b031681526020018e6001600160a01b03166001600160a01b031681526020018d6001600160a01b03166001600160a01b03168152508e604051602401620006159897969594939291906200125a565b60408051601f198184030181529181526020820180516001600160e01b03166353d1ee2d60e01b179052516200064b9062000cef565b62000658929190620012fa565b604051809103906000f08015801562000675573d6000803e3d6000fd5b506065805491925060006200068a8362001328565b91905055508060806000606554815260200190815260200160002060006101000a8154816001600160a01b0302191690836001600160a01b03160217905550606554607f6000836001600160a01b03166001600160a01b03168152602001908152602001600020819055507f6510209152e59feb0a7445a97b24bc79bfcb456ca1d8bff1e4980536c4e8cabb818d6065546040516200072c9392919062001352565b60405180910390a1505050505050505050505050565b6200074c62000bd8565b607380546001600160a01b031981166001600160a01b0384811691821790935560408051606080825260069082015265434c4841504960d01b60808201529390921660208401819052918301529060008051602062001cdf8339815191529060a0015b60405180910390a15050565b600054600190610100900460ff16158015620007de575060005460ff8083169116105b620008435760405162461bcd60e51b815260206004820152602e60248201527f496e697469616c697a61626c653a20636f6e747261637420697320616c72656160448201526d191e481a5b9a5d1a585b1a5e995960921b6064820152608401620003a7565b6000805461ffff191660ff831617610100178155607e80546001600160a01b038086166001600160a01b031992831617909255607180548a84169083161790556072805489841690831617905560708054888416908316179055607380549287169282169290921790915560658290558180527fae0c3f803428dd501929f276001a4b5fd1d262991bbb98e97b4b7d918a5af6dc80549091169055607f6020527f18b3a2798575d3a428c1f52e616a74b071539854e037e7d7c535365d474f4033556200090f62000c34565b6000805461ff001916905560405160ff821681527f7f26b83ff96e1f2b6a682f133852f6798a09c465da95921460cefb38474024989060200160405180910390a1505050505050565b6200096262000bd8565b6200096e600062000c68565b565b607e5460408051635c60da1b60e01b815290516000926001600160a01b031691635c60da1b9160048083019260209291908290030181865afa158015620009bb573d6000803e3d6000fd5b505050506040513d601f19601f82011682018060405250810190620009e19190620011c0565b905090565b620009f062000bd8565b607180546001600160a01b031981166001600160a01b038481169182179093556040805160608082526011908201527010d313155cd95c93585b9859d95b595b9d607a1b60808201529390921660208401819052918301529060008051602062001cdf8339815191529060a001620007af565b62000a6d62000bd8565b607280546001600160a01b031981166001600160a01b03848116918217909355604080516060808252600d908201526c434c4c476f7665726e616e636560981b60808201529390921660208401819052918301529060008051602062001cdf8339815191529060a001620007af565b62000ae662000bd8565b6001600160a01b03811662000b4d5760405162461bcd60e51b815260206004820152602660248201527f4f776e61626c653a206e6577206f776e657220697320746865207a65726f206160448201526564647265737360d01b6064820152608401620003a7565b62000b588162000c68565b50565b62000b6562000bd8565b607080546001600160a01b031981166001600160a01b0384811691821790935560408051606080825260119082015270086989886dedce6e8e4eac6e8dee486989607b1b60808201529390921660208401819052918301529060008051602062001cdf8339815191529060a001620007af565b6033546001600160a01b031633146200096e5760405162461bcd60e51b815260206004820181905260248201527f4f776e61626c653a2063616c6c6572206973206e6f7420746865206f776e65726044820152606401620003a7565b600054610100900460ff1662000c5e5760405162461bcd60e51b8152600401620003a79062001388565b6200096e62000cba565b603380546001600160a01b038381166001600160a01b0319831681179093556040519116919082907f8be0079c531659141344cd1fd0a4f28419497f9722a3daafe3b4186f6b6457e090600090a35050565b600054610100900460ff1662000ce45760405162461bcd60e51b8152600401620003a79062001388565b6200096e3362000c68565b61090b80620013d483390190565b634e487b7160e01b600052604160045260246000fd5b604051601f8201601f1916810167ffffffffffffffff8111828210171562000d3f5762000d3f62000cfd565b604052919050565b600082601f83011262000d5957600080fd5b813567ffffffffffffffff81111562000d765762000d7662000cfd565b62000d8b601f8201601f191660200162000d13565b81815284602083860101111562000da157600080fd5b816020850160208301376000918101602001919091529392505050565b8035801515811462000dcf57600080fd5b919050565b600082601f83011262000de657600080fd5b6040516060810181811067ffffffffffffffff8211171562000e0c5762000e0c62000cfd565b60405280606084018581111562000e2257600080fd5b845b8181101562000e3e57803583526020928301920162000e24565b509195945050505050565b6001600160a01b038116811462000b5857600080fd5b803562000dcf8162000e49565b600082601f83011262000e7e57600080fd5b8135602067ffffffffffffffff82111562000e9d5762000e9d62000cfd565b8160051b62000eae82820162000d13565b928352848101820192828101908785111562000ec957600080fd5b83870192505b8483101562000ef557823562000ee58162000e49565b8252918301919083019062000ecf565b979650505050505050565b6000806000806000806000806000806101808b8d03121562000f2157600080fd5b8a3567ffffffffffffffff8082111562000f3a57600080fd5b62000f488e838f0162000d47565b9b5062000f5860208e0162000dbe565b9a5062000f6860408e0162000dbe565b995060608d0135985062000f808e60808f0162000dd4565b975060e08d013591508082111562000f9757600080fd5b62000fa58e838f0162000e6c565b965062000fb66101008e0162000e5f565b955062000fc76101208e0162000e5f565b945062000fd86101408e0162000e5f565b93506101608d013591508082111562000ff057600080fd5b5062000fff8d828e0162000d47565b9150509295989b9194979a5092959850565b6000602082840312156200102457600080fd5b8135620010318162000e49565b9392505050565b600080600080600060a086880312156200105157600080fd5b85356200105e8162000e49565b94506020860135620010708162000e49565b93506040860135620010828162000e49565b92506060860135620010948162000e49565b91506080860135620010a68162000e49565b809150509295509295909350565b600060208284031215620010c757600080fd5b5035919050565b634e487b7160e01b600052603260045260246000fd5b6000815180845260005b818110156200110c57602081850181015186830182015201620010ee565b818111156200111f576000602083870101525b50601f01601f19169290920160200192915050565b60006101608083526200114a8184018f620010e4565b8d151560208501528c15156040850152606084018c9052608084018b905260a084018a905260c084018990526001600160a01b0388811660e086015287811661010086015286166101208501528381036101408501529050620011ae8185620010e4565b9e9d5050505050505050505050505050565b600060208284031215620011d357600080fd5b8151620010318162000e49565b8060005b60058110156200120e5781516001600160a01b0316845260209384019390910190600101620011e4565b50505050565b600081518084526020808501945080840160005b838110156200124f5781516001600160a01b03168752958201959082019060010162001228565b509495945050505050565b6001600160a01b03891681526101c0602080830182905260009190620012838483018c620010e4565b91508915156040850152881515606085015287608085015260a084018760005b6003811015620012c257815183529183019190830190600101620012a3565b50505050620012d6610100840186620011e0565b8281036101a0840152620012eb818562001214565b9b9a5050505050505050505050565b6001600160a01b03831681526040602082018190526000906200132090830184620010e4565b949350505050565b60006000198214156200134b57634e487b7160e01b600052601160045260246000fd5b5060010190565b6001600160a01b03841681526060602082018190526000906200137890830185620010e4565b9050826040830152949350505050565b6020808252602b908201527f496e697469616c697a61626c653a20636f6e7472616374206973206e6f74206960408201526a6e697469616c697a696e6760a81b60608201526080019056fe608060405234801561001057600080fd5b5060405161090b38038061090b83398101604081905261002f91610467565b818161003d82826000610046565b50505050610591565b61004f83610111565b6040516001600160a01b038416907f1cf3b03a6cf19fa2baba4df148e9dcabedea7f8a5c07840e207e5c089be95d3e90600090a26000825111806100905750805b1561010c5761010a836001600160a01b0316635c60da1b6040518163ffffffff1660e01b8152600401602060405180830381865afa1580156100d6573d6000803e3d6000fd5b505050506040513d601f19601f820116820180604052508101906100fa9190610527565b836102b460201b6100291760201c565b505b505050565b610124816102e060201b6100551760201c565b6101835760405162461bcd60e51b815260206004820152602560248201527f455243313936373a206e657720626561636f6e206973206e6f74206120636f6e6044820152641d1c9858dd60da1b60648201526084015b60405180910390fd5b6101f7816001600160a01b0316635c60da1b6040518163ffffffff1660e01b8152600401602060405180830381865afa1580156101c4573d6000803e3d6000fd5b505050506040513d601f19601f820116820180604052508101906101e89190610527565b6102e060201b6100551760201c565b61025c5760405162461bcd60e51b815260206004820152603060248201527f455243313936373a20626561636f6e20696d706c656d656e746174696f6e206960448201526f1cc81b9bdd08184818dbdb9d1c9858dd60821b606482015260840161017a565b806102937fa3f0ad74e5423aebfd80d3ef4346578335a9a72aeaee59ff6cb3582b35133d5060001b6102ef60201b6100641760201c565b80546001600160a01b0319166001600160a01b039290921691909117905550565b60606102d983836040518060600160405280602781526020016108e4602791396102f2565b9392505050565b6001600160a01b03163b151590565b90565b60606001600160a01b0384163b61035a5760405162461bcd60e51b815260206004820152602660248201527f416464726573733a2064656c65676174652063616c6c20746f206e6f6e2d636f6044820152651b9d1c9858dd60d21b606482015260840161017a565b600080856001600160a01b0316856040516103759190610542565b600060405180830381855af49150503d80600081146103b0576040519150601f19603f3d011682016040523d82523d6000602084013e6103b5565b606091505b5090925090506103c68282866103d0565b9695505050505050565b606083156103df5750816102d9565b8251156103ef5782518084602001fd5b8160405162461bcd60e51b815260040161017a919061055e565b80516001600160a01b038116811461042057600080fd5b919050565b634e487b7160e01b600052604160045260246000fd5b60005b8381101561045657818101518382015260200161043e565b8381111561010a5750506000910152565b6000806040838503121561047a57600080fd5b61048383610409565b60208401519092506001600160401b03808211156104a057600080fd5b818501915085601f8301126104b457600080fd5b8151818111156104c6576104c6610425565b604051601f8201601f19908116603f011681019083821181831017156104ee576104ee610425565b8160405282815288602084870101111561050757600080fd5b61051883602083016020880161043b565b80955050505050509250929050565b60006020828403121561053957600080fd5b6102d982610409565b6000825161055481846020870161043b565b9190910192915050565b602081526000825180602084015261057d81604085016020870161043b565b601f01601f19169190910160400192915050565b610344806105a06000396000f3fe60806040523661001357610011610017565b005b6100115b610027610022610067565b610100565b565b606061004e83836040518060600160405280602781526020016102e860279139610124565b9392505050565b6001600160a01b03163b151590565b90565b600061009a7fa3f0ad74e5423aebfd80d3ef4346578335a9a72aeaee59ff6cb3582b35133d50546001600160a01b031690565b6001600160a01b0316635c60da1b6040518163ffffffff1660e01b8152600401602060405180830381865afa1580156100d7573d6000803e3d6000fd5b505050506040513d601f19601f820116820180604052508101906100fb919061023f565b905090565b3660008037600080366000845af43d6000803e80801561011f573d6000f35b3d6000fd5b60606001600160a01b0384163b6101915760405162461bcd60e51b815260206004820152602660248201527f416464726573733a2064656c65676174652063616c6c20746f206e6f6e2d636f6044820152651b9d1c9858dd60d21b60648201526084015b60405180910390fd5b600080856001600160a01b0316856040516101ac9190610298565b600060405180830381855af49150503d80600081146101e7576040519150601f19603f3d011682016040523d82523d6000602084013e6101ec565b606091505b50915091506101fc828286610206565b9695505050505050565b6060831561021557508161004e565b8251156102255782518084602001fd5b8160405162461bcd60e51b815260040161018891906102b4565b60006020828403121561025157600080fd5b81516001600160a01b038116811461004e57600080fd5b60005b8381101561028357818101518382015260200161026b565b83811115610292576000848401525b50505050565b600082516102aa818460208701610268565b9190910192915050565b60208152600082518060208401526102d3816040850160208701610268565b601f01601f1916919091016040019291505056fe416464726573733a206c6f772d6c6576656c2064656c65676174652063616c6c206661696c6564a2646970667358221220d04c336bf1d5ee0f5699fa74b9ed40e936469e51d6973a72d8aab6b3c84de87264736f6c634300080c0033416464726573733a206c6f772d6c6576656c2064656c65676174652063616c6c206661696c65648068a223bc38529864701ed6f372296d3ecb2aa9affe6c91cf94e2ae6dd577c8a2646970667358221220bfb0e274c68f2d6ba1f97913171eb0f50fb2c63880fd8110e859318241b7003064736f6c634300080c0033",
  "bytecodeSha1": "212dad12a53948480e3aabd2cc6c7e9a5d562613",
  "compiler": {
    "evm_version": "istanbul",
    "optimizer": {
      "enabled": true,
      "runs": 200
    },
    "version": "0.8.12+commit.f00d7308"
  },
  "contractName": "CLFactory",
  "language": "Solidity",
  "natspec": {
    "author": "Leonardo Urrego",
    "details": "This contract is the standard way to create CLH",
    "kind": "dev",
    "methods": {
      "CLHAPI()": {
        "notice": "Contract CLHouse API"
      },
      "CLLConstructorCLH()": {
        "notice": "Contract with the CLH Constructor logic"
      },
      "CLLGovernance()": {
        "notice": "Contract with the functions for Governance"
      },
      "CLLUserManagement()": {
        "notice": "Contract with the functions for user management"
      },
      "CreateCLH(string,bool,bool,bytes32,uint256[3],address[],address,address,address,bytes)": {
        "details": "Some parameters wil be ignored depending on the governance model",
        "notice": "Deploy a new CLHouse",
        "params": {
          "_ManagerWallets": "Whitelist of address for invitate as managers",
          "_gnosisSafe": "Contract address of SAFE",
          "_govModel": "keccak256 hash of the governance model, see the __GOV_* constans",
          "_govRules": "Array for goverment rules see `enum gRule`",
          "_houseName": "Name of the CLH",
          "_houseOpen": "If is set to 1, the CLH is set to open",
          "_housePrivate": "If is set to 1, the CLH is set to private",
          "_signature": "Signature for validate OffChain Tx",
          "_signerWallet": "Wallet address of the signer for OffChain Tx"
        }
      },
      "Init(address,address,address,address,address)": {
        "details": "The constructor create a default CLH with the houseId #0",
        "notice": "Config the CLFactory with the CL Logic Contracts",
        "params": {
          "_CLHAPI": "Address of CLHAPI Contract",
          "_CLLConstructorCLH": "Address Contract with the Constructor logic",
          "_CLLGovernance": "Address Contract Logic for governance",
          "_CLLUserManagement": "Address Contract Logic for user management",
          "_beacon": "Address Beacon Contract"
        }
      },
      "UpdateCLHAPI(address)": {
        "notice": "Update the CLHAPI contract Address"
      },
      "UpdateCLLConstructorCLH(address)": {
        "notice": "Update the CLLConstructorCLH contract Address"
      },
      "UpdateCLLGovernance(address)": {
        "notice": "Update the CLLGovernance contract Address"
      },
      "UpdateCLLUserManagement(address)": {
        "notice": "Update the CLLUserManagement contract Address"
      },
      "beaconCLH()": {
        "notice": "Contract Object of the beacon (store the add)"
      },
      "constructor": {
        "custom:oz-upgrades-unsafe-allow": "constructor"
      },
      "getCLHImplementation()": {
        "notice": "Get the address of the CLH contract logic"
      },
      "mapCLH(uint256)": {
        "notice": "Mapping to store all the created houses"
      },
      "mapIdCLH(address)": {
        "notice": "Relation houseAddr with houseId"
      },
      "numCLH()": {
        "notice": "Store the number of houses created"
      },
      "owner()": {
        "details": "Returns the address of the current owner."
      },
      "renounceOwnership()": {
        "details": "Leaves the contract without owner. It will not be possible to call `onlyOwner` functions anymore. Can only be called by the current owner. NOTE: Renouncing ownership will leave the contract without an owner, thereby removing any functionality that is only available to the owner."
      },
      "transferOwnership(address)": {
        "details": "Transfers ownership of the contract to a new account (`newOwner`). Can only be called by the current owner."
      }
    },
    "notice": "Create and config CLHouses",
    "stateVariables": {
      "beaconCLH": {
        "details": "The beacon store the updated address of CLH"
      }
    },
    "title": "Crypto League House Factory",
    "version": 1
  },
  "opcodes": "PUSH1 0x80 PUSH1 0x40 MSTORE CALLVALUE DUP1 ISZERO PUSH3 0x11 JUMPI PUSH1 0x0 DUP1 REVERT JUMPDEST POP PUSH1 0x4 CALLDATASIZE LT PUSH3 0x12D JUMPI PUSH1 0x0 CALLDATALOAD PUSH1 0xE0 SHR DUP1 PUSH4 0x8DA5CB5B GT PUSH3 0xAF JUMPI DUP1 PUSH4 0xC1E45428 GT PUSH3 0x7A JUMPI DUP1 PUSH4 0xC1E45428 EQ PUSH3 0x27E JUMPI DUP1 PUSH4 0xD742063C EQ PUSH3 0x295 JUMPI DUP1 PUSH4 0xEE7A7D1B EQ PUSH3 0x2AC JUMPI DUP1 PUSH4 0xF2FDE38B EQ PUSH3 0x2B6 JUMPI DUP1 PUSH4 0xF6F7A1B3 EQ PUSH3 0x2CD JUMPI PUSH1 0x0 DUP1 REVERT JUMPDEST DUP1 PUSH4 0x8DA5CB5B EQ PUSH3 0x23A JUMPI DUP1 PUSH4 0xA327AB69 EQ PUSH3 0x24C JUMPI DUP1 PUSH4 0xA6B6ED3A EQ PUSH3 0x260 JUMPI DUP1 PUSH4 0xC0828F63 EQ PUSH3 0x26A JUMPI PUSH1 0x0 DUP1 REVERT JUMPDEST DUP1 PUSH4 0x594034E3 GT PUSH3 0xFC JUMPI DUP1 PUSH4 0x594034E3 EQ PUSH3 0x1A7 JUMPI DUP1 PUSH4 0x60B323C3 EQ PUSH3 0x1BB JUMPI DUP1 PUSH4 0x624D8774 EQ PUSH3 0x1D2 JUMPI DUP1 PUSH4 0x715018A6 EQ PUSH3 0x1FE JUMPI DUP1 PUSH4 0x86BDFCAC EQ PUSH3 0x208 JUMPI PUSH1 0x0 DUP1 REVERT JUMPDEST DUP1 PUSH4 0x10790717 EQ PUSH3 0x132 JUMPI DUP1 PUSH4 0x209BAFEC EQ PUSH3 0x163 JUMPI DUP1 PUSH4 0x4BC3959F EQ PUSH3 0x17C JUMPI DUP1 PUSH4 0x529382D5 EQ PUSH3 0x193 JUMPI JUMPDEST PUSH1 0x0 DUP1 REVERT JUMPDEST PUSH1 0x73 SLOAD PUSH3 0x146 SWAP1 PUSH1 0x1 PUSH1 0x1 PUSH1 0xA0 SHL SUB AND DUP2 JUMP JUMPDEST PUSH1 0x40 MLOAD PUSH1 0x1 PUSH1 0x1 PUSH1 0xA0 SHL SUB SWAP1 SWAP2 AND DUP2 MSTORE PUSH1 0x20 ADD JUMPDEST PUSH1 0x40 MLOAD DUP1 SWAP2 SUB SWAP1 RETURN JUMPDEST PUSH3 0x17A PUSH3 0x174 CALLDATASIZE PUSH1 0x4 PUSH3 0xF00 JUMP JUMPDEST PUSH3 0x2E4 JUMP JUMPDEST STOP JUMPDEST PUSH3 0x17A PUSH3 0x18D CALLDATASIZE PUSH1 0x4 PUSH3 0x1011 JUMP JUMPDEST PUSH3 0x742 JUMP JUMPDEST PUSH1 0x71 SLOAD PUSH3 0x146 SWAP1 PUSH1 0x1 PUSH1 0x1 PUSH1 0xA0 SHL SUB AND DUP2 JUMP JUMPDEST PUSH1 0x70 SLOAD PUSH3 0x146 SWAP1 PUSH1 0x1 PUSH1 0x1 PUSH1 0xA0 SHL SUB AND DUP2 JUMP JUMPDEST PUSH3 0x17A PUSH3 0x1CC CALLDATASIZE PUSH1 0x4 PUSH3 0x1038 JUMP JUMPDEST PUSH3 0x7BB JUMP JUMPDEST PUSH3 0x146 PUSH3 0x1E3 CALLDATASIZE PUSH1 0x4 PUSH3 0x10B4 JUMP JUMPDEST PUSH1 0x80 PUSH1 0x20 MSTORE PUSH1 0x0 SWAP1 DUP2 MSTORE PUSH1 0x40 SWAP1 KECCAK256 SLOAD PUSH1 0x1 PUSH1 0x1 PUSH1 0xA0 SHL SUB AND DUP2 JUMP JUMPDEST PUSH3 0x17A PUSH3 0x958 JUMP JUMPDEST PUSH3 0x22B PUSH3 0x219 CALLDATASIZE PUSH1 0x4 PUSH3 0x1011 JUMP JUMPDEST PUSH1 0x7F PUSH1 0x20 MSTORE PUSH1 0x0 SWAP1 DUP2 MSTORE PUSH1 0x40 SWAP1 KECCAK256 SLOAD DUP2 JUMP JUMPDEST PUSH1 0x40 MLOAD SWAP1 DUP2 MSTORE PUSH1 0x20 ADD PUSH3 0x15A JUMP JUMPDEST PUSH1 0x33 SLOAD PUSH1 0x1 PUSH1 0x1 PUSH1 0xA0 SHL SUB AND PUSH3 0x146 JUMP JUMPDEST PUSH1 0x72 SLOAD PUSH3 0x146 SWAP1 PUSH1 0x1 PUSH1 0x1 PUSH1 0xA0 SHL SUB AND DUP2 JUMP JUMPDEST PUSH3 0x146 PUSH3 0x970 JUMP JUMPDEST PUSH1 0x7E SLOAD PUSH3 0x146 SWAP1 PUSH1 0x1 PUSH1 0x1 PUSH1 0xA0 SHL SUB AND DUP2 JUMP JUMPDEST PUSH3 0x17A PUSH3 0x28F CALLDATASIZE PUSH1 0x4 PUSH3 0x1011 JUMP JUMPDEST PUSH3 0x9E6 JUMP JUMPDEST PUSH3 0x17A PUSH3 0x2A6 CALLDATASIZE PUSH1 0x4 PUSH3 0x1011 JUMP JUMPDEST PUSH3 0xA63 JUMP JUMPDEST PUSH3 0x22B PUSH1 0x65 SLOAD DUP2 JUMP JUMPDEST PUSH3 0x17A PUSH3 0x2C7 CALLDATASIZE PUSH1 0x4 PUSH3 0x1011 JUMP JUMPDEST PUSH3 0xADC JUMP JUMPDEST PUSH3 0x17A PUSH3 0x2DE CALLDATASIZE PUSH1 0x4 PUSH3 0x1011 JUMP JUMPDEST PUSH3 0xB5B JUMP JUMPDEST CALLER PUSH32 0xB93889D934070956C00846F50F9A10A747BD194BBA2F2E78A86D0C02386FDB1 DUP9 EQ DUP1 PUSH3 0x333 JUMPI POP DUP8 PUSH32 0x16591A696FEE5867425B3DEE9FC0160A6C1BAEF77835BC3D204314106D639298 EQ JUMPDEST DUP1 PUSH3 0x35E JUMPI POP DUP8 PUSH32 0xA0786F6450D5FB3298B8425105C1B75E6E01A1FF86CDABEA29909CDB0B4C83A7 EQ JUMPDEST PUSH3 0x3B0 JUMPI PUSH1 0x40 MLOAD PUSH3 0x461BCD PUSH1 0xE5 SHL DUP2 MSTORE PUSH1 0x20 PUSH1 0x4 DUP3 ADD MSTORE PUSH1 0x17 PUSH1 0x24 DUP3 ADD MSTORE PUSH32 0x496E76616C696420476F7665726E616E63652054797065000000000000000000 PUSH1 0x44 DUP3 ADD MSTORE PUSH1 0x64 ADD JUMPDEST PUSH1 0x40 MLOAD DUP1 SWAP2 SUB SWAP1 REVERT JUMPDEST PUSH1 0x1 PUSH1 0x1 PUSH1 0xA0 SHL SUB DUP4 AND ISZERO PUSH3 0x532 JUMPI DUP2 MLOAD PUSH1 0x41 EQ PUSH3 0x413 JUMPI PUSH1 0x40 MLOAD PUSH3 0x461BCD PUSH1 0xE5 SHL DUP2 MSTORE PUSH1 0x20 PUSH1 0x4 DUP3 ADD MSTORE PUSH1 0x1F PUSH1 0x24 DUP3 ADD MSTORE PUSH32 0x437265617465434C483A20426164207369676E6174757265206C656E67746800 PUSH1 0x44 DUP3 ADD MSTORE PUSH1 0x64 ADD PUSH3 0x3A7 JUMP JUMPDEST PUSH1 0x73 SLOAD PUSH1 0x1 PUSH1 0x1 PUSH1 0xA0 SHL SUB AND PUSH4 0x8B4BCCCA DUP13 DUP13 DUP13 DUP13 DUP13 PUSH1 0x0 PUSH1 0x20 MUL ADD MLOAD DUP14 PUSH1 0x1 PUSH1 0x20 MUL ADD MLOAD DUP15 PUSH1 0x2 PUSH1 0x20 MUL ADD MLOAD DUP13 DUP16 PUSH1 0x0 DUP2 MLOAD DUP2 LT PUSH3 0x457 JUMPI PUSH3 0x457 PUSH3 0x10CE JUMP JUMPDEST PUSH1 0x20 MUL PUSH1 0x20 ADD ADD MLOAD ADDRESS DUP14 PUSH1 0x40 MLOAD DUP13 PUSH4 0xFFFFFFFF AND PUSH1 0xE0 SHL DUP2 MSTORE PUSH1 0x4 ADD PUSH3 0x489 SWAP12 SWAP11 SWAP10 SWAP9 SWAP8 SWAP7 SWAP6 SWAP5 SWAP4 SWAP3 SWAP2 SWAP1 PUSH3 0x1134 JUMP JUMPDEST PUSH1 0x20 PUSH1 0x40 MLOAD DUP1 DUP4 SUB DUP2 DUP7 GAS STATICCALL ISZERO DUP1 ISZERO PUSH3 0x4A7 JUMPI RETURNDATASIZE PUSH1 0x0 DUP1 RETURNDATACOPY RETURNDATASIZE PUSH1 0x0 REVERT JUMPDEST POP POP POP POP PUSH1 0x40 MLOAD RETURNDATASIZE PUSH1 0x1F NOT PUSH1 0x1F DUP3 ADD AND DUP3 ADD DUP1 PUSH1 0x40 MSTORE POP DUP2 ADD SWAP1 PUSH3 0x4CD SWAP2 SWAP1 PUSH3 0x11C0 JUMP JUMPDEST PUSH1 0x1 PUSH1 0x1 PUSH1 0xA0 SHL SUB AND DUP4 PUSH1 0x1 PUSH1 0x1 PUSH1 0xA0 SHL SUB AND EQ PUSH3 0x52F JUMPI PUSH1 0x40 MLOAD PUSH3 0x461BCD PUSH1 0xE5 SHL DUP2 MSTORE PUSH1 0x20 PUSH1 0x4 DUP3 ADD MSTORE PUSH1 0x1C PUSH1 0x24 DUP3 ADD MSTORE PUSH32 0x437265617465434C483A20496E76616C6964205369676E617475726500000000 PUSH1 0x44 DUP3 ADD MSTORE PUSH1 0x64 ADD PUSH3 0x3A7 JUMP JUMPDEST POP DUP2 JUMPDEST PUSH1 0x0 PUSH1 0x7E PUSH1 0x0 SWAP1 SLOAD SWAP1 PUSH2 0x100 EXP SWAP1 DIV PUSH1 0x1 PUSH1 0x1 PUSH1 0xA0 SHL SUB AND DUP3 DUP14 DUP14 DUP14 DUP14 DUP14 PUSH1 0x40 MLOAD DUP1 PUSH1 0xA0 ADD PUSH1 0x40 MSTORE DUP1 PUSH1 0x70 PUSH1 0x0 SWAP1 SLOAD SWAP1 PUSH2 0x100 EXP SWAP1 DIV PUSH1 0x1 PUSH1 0x1 PUSH1 0xA0 SHL SUB AND PUSH1 0x1 PUSH1 0x1 PUSH1 0xA0 SHL SUB AND PUSH1 0x1 PUSH1 0x1 PUSH1 0xA0 SHL SUB AND DUP2 MSTORE PUSH1 0x20 ADD ADDRESS PUSH1 0x1 PUSH1 0x1 PUSH1 0xA0 SHL SUB AND PUSH1 0x1 PUSH1 0x1 PUSH1 0xA0 SHL SUB AND DUP2 MSTORE PUSH1 0x20 ADD PUSH1 0x73 PUSH1 0x0 SWAP1 SLOAD SWAP1 PUSH2 0x100 EXP SWAP1 DIV PUSH1 0x1 PUSH1 0x1 PUSH1 0xA0 SHL SUB AND PUSH1 0x1 PUSH1 0x1 PUSH1 0xA0 SHL SUB AND PUSH1 0x1 PUSH1 0x1 PUSH1 0xA0 SHL SUB AND DUP2 MSTORE PUSH1 0x20 ADD DUP15 PUSH1 0x1 PUSH1 0x1 PUSH1 0xA0 SHL SUB AND PUSH1 0x1 PUSH1 0x1 PUSH1 0xA0 SHL SUB AND DUP2 MSTORE PUSH1 0x20 ADD DUP14 PUSH1 0x1 PUSH1 0x1 PUSH1 0xA0 SHL SUB AND PUSH1 0x1 PUSH1 0x1 PUSH1 0xA0 SHL SUB AND DUP2 MSTORE POP DUP15 PUSH1 0x40 MLOAD PUSH1 0x24 ADD PUSH3 0x615 SWAP9 SWAP8 SWAP7 SWAP6 SWAP5 SWAP4 SWAP3 SWAP2 SWAP1 PUSH3 0x125A JUMP JUMPDEST PUSH1 0x40 DUP1 MLOAD PUSH1 0x1F NOT DUP2 DUP5 SUB ADD DUP2 MSTORE SWAP2 DUP2 MSTORE PUSH1 0x20 DUP3 ADD DUP1 MLOAD PUSH1 0x1 PUSH1 0x1 PUSH1 0xE0 SHL SUB AND PUSH4 0x53D1EE2D PUSH1 0xE0 SHL OR SWAP1 MSTORE MLOAD PUSH3 0x64B SWAP1 PUSH3 0xCEF JUMP JUMPDEST PUSH3 0x658 SWAP3 SWAP2 SWAP1 PUSH3 0x12FA JUMP JUMPDEST PUSH1 0x40 MLOAD DUP1 SWAP2 SUB SWAP1 PUSH1 0x0 CREATE DUP1 ISZERO DUP1 ISZERO PUSH3 0x675 JUMPI RETURNDATASIZE PUSH1 0x0 DUP1 RETURNDATACOPY RETURNDATASIZE PUSH1 0x0 REVERT JUMPDEST POP PUSH1 0x65 DUP1 SLOAD SWAP2 SWAP3 POP PUSH1 0x0 PUSH3 0x68A DUP4 PUSH3 0x1328 JUMP JUMPDEST SWAP2 SWAP1 POP SSTORE POP DUP1 PUSH1 0x80 PUSH1 0x0 PUSH1 0x65 SLOAD DUP2 MSTORE PUSH1 0x20 ADD SWAP1 DUP2 MSTORE PUSH1 0x20 ADD PUSH1 0x0 KECCAK256 PUSH1 0x0 PUSH2 0x100 EXP DUP2 SLOAD DUP2 PUSH1 0x1 PUSH1 0x1 PUSH1 0xA0 SHL SUB MUL NOT AND SWAP1 DUP4 PUSH1 0x1 PUSH1 0x1 PUSH1 0xA0 SHL SUB AND MUL OR SWAP1 SSTORE POP PUSH1 0x65 SLOAD PUSH1 0x7F PUSH1 0x0 DUP4 PUSH1 0x1 PUSH1 0x1 PUSH1 0xA0 SHL SUB AND PUSH1 0x1 PUSH1 0x1 PUSH1 0xA0 SHL SUB AND DUP2 MSTORE PUSH1 0x20 ADD SWAP1 DUP2 MSTORE PUSH1 0x20 ADD PUSH1 0x0 KECCAK256 DUP2 SWAP1 SSTORE POP PUSH32 0x6510209152E59FEB0A7445A97B24BC79BFCB456CA1D8BFF1E4980536C4E8CABB DUP2 DUP14 PUSH1 0x65 SLOAD PUSH1 0x40 MLOAD PUSH3 0x72C SWAP4 SWAP3 SWAP2 SWAP1 PUSH3 0x1352 JUMP JUMPDEST PUSH1 0x40 MLOAD DUP1 SWAP2 SUB SWAP1 LOG1 POP POP POP POP POP POP POP POP POP POP POP POP JUMP JUMPDEST PUSH3 0x74C PUSH3 0xBD8 JUMP JUMPDEST PUSH1 0x73 DUP1 SLOAD PUSH1 0x1 PUSH1 0x1 PUSH1 0xA0 SHL SUB NOT DUP2 AND PUSH1 0x1 PUSH1 0x1 PUSH1 0xA0 SHL SUB DUP5 DUP2 AND SWAP2 DUP3 OR SWAP1 SWAP4 SSTORE PUSH1 0x40 DUP1 MLOAD PUSH1 0x60 DUP1 DUP3 MSTORE PUSH1 0x6 SWAP1 DUP3 ADD MSTORE PUSH6 0x434C48415049 PUSH1 0xD0 SHL PUSH1 0x80 DUP3 ADD MSTORE SWAP4 SWAP1 SWAP3 AND PUSH1 0x20 DUP5 ADD DUP2 SWAP1 MSTORE SWAP2 DUP4 ADD MSTORE SWAP1 PUSH1 0x0 DUP1 MLOAD PUSH1 0x20 PUSH3 0x1CDF DUP4 CODECOPY DUP2 MLOAD SWAP2 MSTORE SWAP1 PUSH1 0xA0 ADD JUMPDEST PUSH1 0x40 MLOAD DUP1 SWAP2 SUB SWAP1 LOG1 POP POP JUMP JUMPDEST PUSH1 0x0 SLOAD PUSH1 0x1 SWAP1 PUSH2 0x100 SWAP1 DIV PUSH1 0xFF AND ISZERO DUP1 ISZERO PUSH3 0x7DE JUMPI POP PUSH1 0x0 SLOAD PUSH1 0xFF DUP1 DUP4 AND SWAP2 AND LT JUMPDEST PUSH3 0x843 JUMPI PUSH1 0x40 MLOAD PUSH3 0x461BCD PUSH1 0xE5 SHL DUP2 MSTORE PUSH1 0x20 PUSH1 0x4 DUP3 ADD MSTORE PUSH1 0x2E PUSH1 0x24 DUP3 ADD MSTORE PUSH32 0x496E697469616C697A61626C653A20636F6E747261637420697320616C726561 PUSH1 0x44 DUP3 ADD MSTORE PUSH14 0x191E481A5B9A5D1A585B1A5E9959 PUSH1 0x92 SHL PUSH1 0x64 DUP3 ADD MSTORE PUSH1 0x84 ADD PUSH3 0x3A7 JUMP JUMPDEST PUSH1 0x0 DUP1 SLOAD PUSH2 0xFFFF NOT AND PUSH1 0xFF DUP4 AND OR PUSH2 0x100 OR DUP2 SSTORE PUSH1 0x7E DUP1 SLOAD PUSH1 0x1 PUSH1 0x1 PUSH1 0xA0 SHL SUB DUP1 DUP7 AND PUSH1 0x1 PUSH1 0x1 PUSH1 0xA0 SHL SUB NOT SWAP3 DUP4 AND OR SWAP1 SWAP3 SSTORE PUSH1 0x71 DUP1 SLOAD DUP11 DUP5 AND SWAP1 DUP4 AND OR SWAP1 SSTORE PUSH1 0x72 DUP1 SLOAD DUP10 DUP5 AND SWAP1 DUP4 AND OR SWAP1 SSTORE PUSH1 0x70 DUP1 SLOAD DUP9 DUP5 AND SWAP1 DUP4 AND OR SWAP1 SSTORE PUSH1 0x73 DUP1 SLOAD SWAP3 DUP8 AND SWAP3 DUP3 AND SWAP3 SWAP1 SWAP3 OR SWAP1 SWAP2 SSTORE PUSH1 0x65 DUP3 SWAP1 SSTORE DUP2 DUP1 MSTORE PUSH32 0xAE0C3F803428DD501929F276001A4B5FD1D262991BBB98E97B4B7D918A5AF6DC DUP1 SLOAD SWAP1 SWAP2 AND SWAP1 SSTORE PUSH1 0x7F PUSH1 0x20 MSTORE PUSH32 0x18B3A2798575D3A428C1F52E616A74B071539854E037E7D7C535365D474F4033 SSTORE PUSH3 0x90F PUSH3 0xC34 JUMP JUMPDEST PUSH1 0x0 DUP1 SLOAD PUSH2 0xFF00 NOT AND SWAP1 SSTORE PUSH1 0x40 MLOAD PUSH1 0xFF DUP3 AND DUP2 MSTORE PUSH32 0x7F26B83FF96E1F2B6A682F133852F6798A09C465DA95921460CEFB3847402498 SWAP1 PUSH1 0x20 ADD PUSH1 0x40 MLOAD DUP1 SWAP2 SUB SWAP1 LOG1 POP POP POP POP POP POP JUMP JUMPDEST PUSH3 0x962 PUSH3 0xBD8 JUMP JUMPDEST PUSH3 0x96E PUSH1 0x0 PUSH3 0xC68 JUMP JUMPDEST JUMP JUMPDEST PUSH1 0x7E SLOAD PUSH1 0x40 DUP1 MLOAD PUSH4 0x5C60DA1B PUSH1 0xE0 SHL DUP2 MSTORE SWAP1 MLOAD PUSH1 0x0 SWAP3 PUSH1 0x1 PUSH1 0x1 PUSH1 0xA0 SHL SUB AND SWAP2 PUSH4 0x5C60DA1B SWAP2 PUSH1 0x4 DUP1 DUP4 ADD SWAP3 PUSH1 0x20 SWAP3 SWAP2 SWAP1 DUP3 SWAP1 SUB ADD DUP2 DUP7 GAS STATICCALL ISZERO DUP1 ISZERO PUSH3 0x9BB JUMPI RETURNDATASIZE PUSH1 0x0 DUP1 RETURNDATACOPY RETURNDATASIZE PUSH1 0x0 REVERT JUMPDEST POP POP POP POP PUSH1 0x40 MLOAD RETURNDATASIZE PUSH1 0x1F NOT PUSH1 0x1F DUP3 ADD AND DUP3 ADD DUP1 PUSH1 0x40 MSTORE POP DUP2 ADD SWAP1 PUSH3 0x9E1 SWAP2 SWAP1 PUSH3 0x11C0 JUMP JUMPDEST SWAP1 POP SWAP1 JUMP JUMPDEST PUSH3 0x9F0 PUSH3 0xBD8 JUMP JUMPDEST PUSH1 0x71 DUP1 SLOAD PUSH1 0x1 PUSH1 0x1 PUSH1 0xA0 SHL SUB NOT DUP2 AND PUSH1 0x1 PUSH1 0x1 PUSH1 0xA0 SHL SUB DUP5 DUP2 AND SWAP2 DUP3 OR SWAP1 SWAP4 SSTORE PUSH1 0x40 DUP1 MLOAD PUSH1 0x60 DUP1 DUP3 MSTORE PUSH1 0x11 SWAP1 DUP3 ADD MSTORE PUSH17 0x10D313155CD95C93585B9859D95B595B9D PUSH1 0x7A SHL PUSH1 0x80 DUP3 ADD MSTORE SWAP4 SWAP1 SWAP3 AND PUSH1 0x20 DUP5 ADD DUP2 SWAP1 MSTORE SWAP2 DUP4 ADD MSTORE SWAP1 PUSH1 0x0 DUP1 MLOAD PUSH1 0x20 PUSH3 0x1CDF DUP4 CODECOPY DUP2 MLOAD SWAP2 MSTORE SWAP1 PUSH1 0xA0 ADD PUSH3 0x7AF JUMP JUMPDEST PUSH3 0xA6D PUSH3 0xBD8 JUMP JUMPDEST PUSH1 0x72 DUP1 SLOAD PUSH1 0x1 PUSH1 0x1 PUSH1 0xA0 SHL SUB NOT DUP2 AND PUSH1 0x1 PUSH1 0x1 PUSH1 0xA0 SHL SUB DUP5 DUP2 AND SWAP2 DUP3 OR SWAP1 SWAP4 SSTORE PUSH1 0x40 DUP1 MLOAD PUSH1 0x60 DUP1 DUP3 MSTORE PUSH1 0xD SWAP1 DUP3 ADD MSTORE PUSH13 0x434C4C476F7665726E616E6365 PUSH1 0x98 SHL PUSH1 0x80 DUP3 ADD MSTORE SWAP4 SWAP1 SWAP3 AND PUSH1 0x20 DUP5 ADD DUP2 SWAP1 MSTORE SWAP2 DUP4 ADD MSTORE SWAP1 PUSH1 0x0 DUP1 MLOAD PUSH1 0x20 PUSH3 0x1CDF DUP4 CODECOPY DUP2 MLOAD SWAP2 MSTORE SWAP1 PUSH1 0xA0 ADD PUSH3 0x7AF JUMP JUMPDEST PUSH3 0xAE6 PUSH3 0xBD8 JUMP JUMPDEST PUSH1 0x1 PUSH1 0x1 PUSH1 0xA0 SHL SUB DUP2 AND PUSH3 0xB4D JUMPI PUSH1 0x40 MLOAD PUSH3 0x461BCD PUSH1 0xE5 SHL DUP2 MSTORE PUSH1 0x20 PUSH1 0x4 DUP3 ADD MSTORE PUSH1 0x26 PUSH1 0x24 DUP3 ADD MSTORE PUSH32 0x4F776E61626C653A206E6577206F776E657220697320746865207A65726F2061 PUSH1 0x44 DUP3 ADD MSTORE PUSH6 0x646472657373 PUSH1 0xD0 SHL PUSH1 0x64 DUP3 ADD MSTORE PUSH1 0x84 ADD PUSH3 0x3A7 JUMP JUMPDEST PUSH3 0xB58 DUP2 PUSH3 0xC68 JUMP JUMPDEST POP JUMP JUMPDEST PUSH3 0xB65 PUSH3 0xBD8 JUMP JUMPDEST PUSH1 0x70 DUP1 SLOAD PUSH1 0x1 PUSH1 0x1 PUSH1 0xA0 SHL SUB NOT DUP2 AND PUSH1 0x1 PUSH1 0x1 PUSH1 0xA0 SHL SUB DUP5 DUP2 AND SWAP2 DUP3 OR SWAP1 SWAP4 SSTORE PUSH1 0x40 DUP1 MLOAD PUSH1 0x60 DUP1 DUP3 MSTORE PUSH1 0x11 SWAP1 DUP3 ADD MSTORE PUSH17 0x86989886DEDCE6E8E4EAC6E8DEE486989 PUSH1 0x7B SHL PUSH1 0x80 DUP3 ADD MSTORE SWAP4 SWAP1 SWAP3 AND PUSH1 0x20 DUP5 ADD DUP2 SWAP1 MSTORE SWAP2 DUP4 ADD MSTORE SWAP1 PUSH1 0x0 DUP1 MLOAD PUSH1 0x20 PUSH3 0x1CDF DUP4 CODECOPY DUP2 MLOAD SWAP2 MSTORE SWAP1 PUSH1 0xA0 ADD PUSH3 0x7AF JUMP JUMPDEST PUSH1 0x33 SLOAD PUSH1 0x1 PUSH1 0x1 PUSH1 0xA0 SHL SUB AND CALLER EQ PUSH3 0x96E JUMPI PUSH1 0x40 MLOAD PUSH3 0x461BCD PUSH1 0xE5 SHL DUP2 MSTORE PUSH1 0x20 PUSH1 0x4 DUP3 ADD DUP2 SWAP1 MSTORE PUSH1 0x24 DUP3 ADD MSTORE PUSH32 0x4F776E61626C653A2063616C6C6572206973206E6F7420746865206F776E6572 PUSH1 0x44 DUP3 ADD MSTORE PUSH1 0x64 ADD PUSH3 0x3A7 JUMP JUMPDEST PUSH1 0x0 SLOAD PUSH2 0x100 SWAP1 DIV PUSH1 0xFF AND PUSH3 0xC5E JUMPI PUSH1 0x40 MLOAD PUSH3 0x461BCD PUSH1 0xE5 SHL DUP2 MSTORE PUSH1 0x4 ADD PUSH3 0x3A7 SWAP1 PUSH3 0x1388 JUMP JUMPDEST PUSH3 0x96E PUSH3 0xCBA JUMP JUMPDEST PUSH1 0x33 DUP1 SLOAD PUSH1 0x1 PUSH1 0x1 PUSH1 0xA0 SHL SUB DUP4 DUP2 AND PUSH1 0x1 PUSH1 0x1 PUSH1 0xA0 SHL SUB NOT DUP4 AND DUP2 OR SWAP1 SWAP4 SSTORE PUSH1 0x40 MLOAD SWAP2 AND SWAP2 SWAP1 DUP3 SWAP1 PUSH32 0x8BE0079C531659141344CD1FD0A4F28419497F9722A3DAAFE3B4186F6B6457E0 SWAP1 PUSH1 0x0 SWAP1 LOG3 POP POP JUMP JUMPDEST PUSH1 0x0 SLOAD PUSH2 0x100 SWAP1 DIV PUSH1 0xFF AND PUSH3 0xCE4 JUMPI PUSH1 0x40 MLOAD PUSH3 0x461BCD PUSH1 0xE5 SHL DUP2 MSTORE PUSH1 0x4 ADD PUSH3 0x3A7 SWAP1 PUSH3 0x1388 JUMP JUMPDEST PUSH3 0x96E CALLER PUSH3 0xC68 JUMP JUMPDEST PUSH2 0x90B DUP1 PUSH3 0x13D4 DUP4 CODECOPY ADD SWAP1 JUMP JUMPDEST PUSH4 0x4E487B71 PUSH1 0xE0 SHL PUSH1 0x0 MSTORE PUSH1 0x41 PUSH1 0x4 MSTORE PUSH1 0x24 PUSH1 0x0 REVERT JUMPDEST PUSH1 0x40 MLOAD PUSH1 0x1F DUP3 ADD PUSH1 0x1F NOT AND DUP2 ADD PUSH8 0xFFFFFFFFFFFFFFFF DUP2 GT DUP3 DUP3 LT OR ISZERO PUSH3 0xD3F JUMPI PUSH3 0xD3F PUSH3 0xCFD JUMP JUMPDEST PUSH1 0x40 MSTORE SWAP2 SWAP1 POP JUMP JUMPDEST PUSH1 0x0 DUP3 PUSH1 0x1F DUP4 ADD SLT PUSH3 0xD59 JUMPI PUSH1 0x0 DUP1 REVERT JUMPDEST DUP2 CALLDATALOAD PUSH8 0xFFFFFFFFFFFFFFFF DUP2 GT ISZERO PUSH3 0xD76 JUMPI PUSH3 0xD76 PUSH3 0xCFD JUMP JUMPDEST PUSH3 0xD8B PUSH1 0x1F DUP3 ADD PUSH1 0x1F NOT AND PUSH1 0x20 ADD PUSH3 0xD13 JUMP JUMPDEST DUP2 DUP2 MSTORE DUP5 PUSH1 0x20 DUP4 DUP7 ADD ADD GT ISZERO PUSH3 0xDA1 JUMPI PUSH1 0x0 DUP1 REVERT JUMPDEST DUP2 PUSH1 0x20 DUP6 ADD PUSH1 0x20 DUP4 ADD CALLDATACOPY PUSH1 0x0 SWAP2 DUP2 ADD PUSH1 0x20 ADD SWAP2 SWAP1 SWAP2 MSTORE SWAP4 SWAP3 POP POP POP JUMP JUMPDEST DUP1 CALLDATALOAD DUP1 ISZERO ISZERO DUP2 EQ PUSH3 0xDCF JUMPI PUSH1 0x0 DUP1 REVERT JUMPDEST SWAP2 SWAP1 POP JUMP JUMPDEST PUSH1 0x0 DUP3 PUSH1 0x1F DUP4 ADD SLT PUSH3 0xDE6 JUMPI PUSH1 0x0 DUP1 REVERT JUMPDEST PUSH1 0x40 MLOAD PUSH1 0x60 DUP2 ADD DUP2 DUP2 LT PUSH8 0xFFFFFFFFFFFFFFFF DUP3 GT OR ISZERO PUSH3 0xE0C JUMPI PUSH3 0xE0C PUSH3 0xCFD JUMP JUMPDEST PUSH1 0x40 MSTORE DUP1 PUSH1 0x60 DUP5 ADD DUP6 DUP2 GT ISZERO PUSH3 0xE22 JUMPI PUSH1 0x0 DUP1 REVERT JUMPDEST DUP5 JUMPDEST DUP2 DUP2 LT ISZERO PUSH3 0xE3E JUMPI DUP1 CALLDATALOAD DUP4 MSTORE PUSH1 0x20 SWAP3 DUP4 ADD SWAP3 ADD PUSH3 0xE24 JUMP JUMPDEST POP SWAP2 SWAP6 SWAP5 POP POP POP POP POP JUMP JUMPDEST PUSH1 0x1 PUSH1 0x1 PUSH1 0xA0 SHL SUB DUP2 AND DUP2 EQ PUSH3 0xB58 JUMPI PUSH1 0x0 DUP1 REVERT JUMPDEST DUP1 CALLDATALOAD PUSH3 0xDCF DUP2 PUSH3 0xE49 JUMP JUMPDEST PUSH1 0x0 DUP3 PUSH1 0x1F DUP4 ADD SLT PUSH3 0xE7E JUMPI PUSH1 0x0 DUP1 REVERT JUMPDEST DUP2 CALLDATALOAD PUSH1 0x20 PUSH8 0xFFFFFFFFFFFFFFFF DUP3 GT ISZERO PUSH3 0xE9D JUMPI PUSH3 0xE9D PUSH3 0xCFD JUMP JUMPDEST DUP2 PUSH1 0x5 SHL PUSH3 0xEAE DUP3 DUP3 ADD PUSH3 0xD13 JUMP JUMPDEST SWAP3 DUP4 MSTORE DUP5 DUP2 ADD DUP3 ADD SWAP3 DUP3 DUP2 ADD SWAP1 DUP8 DUP6 GT ISZERO PUSH3 0xEC9 JUMPI PUSH1 0x0 DUP1 REVERT JUMPDEST DUP4 DUP8 ADD SWAP3 POP JUMPDEST DUP5 DUP4 LT ISZERO PUSH3 0xEF5 JUMPI DUP3 CALLDATALOAD PUSH3 0xEE5 DUP2 PUSH3 0xE49 JUMP JUMPDEST DUP3 MSTORE SWAP2 DUP4 ADD SWAP2 SWAP1 DUP4 ADD SWAP1 PUSH3 0xECF JUMP JUMPDEST SWAP8 SWAP7 POP POP POP POP POP POP POP JUMP JUMPDEST PUSH1 0x0 DUP1 PUSH1 0x0 DUP1 PUSH1 0x0 DUP1 PUSH1 0x0 DUP1 PUSH1 0x0 DUP1 PUSH2 0x180 DUP12 DUP14 SUB SLT ISZERO PUSH3 0xF21 JUMPI PUSH1 0x0 DUP1 REVERT JUMPDEST DUP11 CALLDATALOAD PUSH8 0xFFFFFFFFFFFFFFFF DUP1 DUP3 GT ISZERO PUSH3 0xF3A JUMPI PUSH1 0x0 DUP1 REVERT JUMPDEST PUSH3 0xF48 DUP15 DUP4 DUP16 ADD PUSH3 0xD47 JUMP JUMPDEST SWAP12 POP PUSH3 0xF58 PUSH1 0x20 DUP15 ADD PUSH3 0xDBE JUMP JUMPDEST SWAP11 POP PUSH3 0xF68 PUSH1 0x40 DUP15 ADD PUSH3 0xDBE JUMP JUMPDEST SWAP10 POP PUSH1 0x60 DUP14 ADD CALLDATALOAD SWAP9 POP PUSH3 0xF80 DUP15 PUSH1 0x80 DUP16 ADD PUSH3 0xDD4 JUMP JUMPDEST SWAP8 POP PUSH1 0xE0 DUP14 ADD CALLDATALOAD SWAP2 POP DUP1 DUP3 GT ISZERO PUSH3 0xF97 JUMPI PUSH1 0x0 DUP1 REVERT JUMPDEST PUSH3 0xFA5 DUP15 DUP4 DUP16 ADD PUSH3 0xE6C JUMP JUMPDEST SWAP7 POP PUSH3 0xFB6 PUSH2 0x100 DUP15 ADD PUSH3 0xE5F JUMP JUMPDEST SWAP6 POP PUSH3 0xFC7 PUSH2 0x120 DUP15 ADD PUSH3 0xE5F JUMP JUMPDEST SWAP5 POP PUSH3 0xFD8 PUSH2 0x140 DUP15 ADD PUSH3 0xE5F JUMP JUMPDEST SWAP4 POP PUSH2 0x160 DUP14 ADD CALLDATALOAD SWAP2 POP DUP1 DUP3 GT ISZERO PUSH3 0xFF0 JUMPI PUSH1 0x0 DUP1 REVERT JUMPDEST POP PUSH3 0xFFF DUP14 DUP3 DUP15 ADD PUSH3 0xD47 JUMP JUMPDEST SWAP2 POP POP SWAP3 SWAP6 SWAP9 SWAP12 SWAP2 SWAP5 SWAP8 SWAP11 POP SWAP3 SWAP6 SWAP9 POP JUMP JUMPDEST PUSH1 0x0 PUSH1 0x20 DUP3 DUP5 SUB SLT ISZERO PUSH3 0x1024 JUMPI PUSH1 0x0 DUP1 REVERT JUMPDEST DUP2 CALLDATALOAD PUSH3 0x1031 DUP2 PUSH3 0xE49 JUMP JUMPDEST SWAP4 SWAP3 POP POP POP JUMP JUMPDEST PUSH1 0x0 DUP1 PUSH1 0x0 DUP1 PUSH1 0x0 PUSH1 0xA0 DUP7 DUP9 SUB SLT ISZERO PUSH3 0x1051 JUMPI PUSH1 0x0 DUP1 REVERT JUMPDEST DUP6 CALLDATALOAD PUSH3 0x105E DUP2 PUSH3 0xE49 JUMP JUMPDEST SWAP5 POP PUSH1 0x20 DUP7 ADD CALLDATALOAD PUSH3 0x1070 DUP2 PUSH3 0xE49 JUMP JUMPDEST SWAP4 POP PUSH1 0x40 DUP7 ADD CALLDATALOAD PUSH3 0x1082 DUP2 PUSH3 0xE49 JUMP JUMPDEST SWAP3 POP PUSH1 0x60 DUP7 ADD CALLDATALOAD PUSH3 0x1094 DUP2 PUSH3 0xE49 JUMP JUMPDEST SWAP2 POP PUSH1 0x80 DUP7 ADD CALLDATALOAD PUSH3 0x10A6 DUP2 PUSH3 0xE49 JUMP JUMPDEST DUP1 SWAP2 POP POP SWAP3 SWAP6 POP SWAP3 SWAP6 SWAP1 SWAP4 POP JUMP JUMPDEST PUSH1 0x0 PUSH1 0x20 DUP3 DUP5 SUB SLT ISZERO PUSH3 0x10C7 JUMPI PUSH1 0x0 DUP1 REVERT JUMPDEST POP CALLDATALOAD SWAP2 SWAP1 POP JUMP JUMPDEST PUSH4 0x4E487B71 PUSH1 0xE0 SHL PUSH1 0x0 MSTORE PUSH1 0x32 PUSH1 0x4 MSTORE PUSH1 0x24 PUSH1 0x0 REVERT JUMPDEST PUSH1 0x0 DUP2 MLOAD DUP1 DUP5 MSTORE PUSH1 0x0 JUMPDEST DUP2 DUP2 LT ISZERO PUSH3 0x110C JUMPI PUSH1 0x20 DUP2 DUP6 ADD DUP2 ADD MLOAD DUP7 DUP4 ADD DUP3 ADD MSTORE ADD PUSH3 0x10EE JUMP JUMPDEST DUP2 DUP2 GT ISZERO PUSH3 0x111F JUMPI PUSH1 0x0 PUSH1 0x20 DUP4 DUP8 ADD ADD MSTORE JUMPDEST POP PUSH1 0x1F ADD PUSH1 0x1F NOT AND SWAP3 SWAP1 SWAP3 ADD PUSH1 0x20 ADD SWAP3 SWAP2 POP POP JUMP JUMPDEST PUSH1 0x0 PUSH2 0x160 DUP1 DUP4 MSTORE PUSH3 0x114A DUP2 DUP5 ADD DUP16 PUSH3 0x10E4 JUMP JUMPDEST DUP14 ISZERO ISZERO PUSH1 0x20 DUP6 ADD MSTORE DUP13 ISZERO ISZERO PUSH1 0x40 DUP6 ADD MSTORE PUSH1 0x60 DUP5 ADD DUP13 SWAP1 MSTORE PUSH1 0x80 DUP5 ADD DUP12 SWAP1 MSTORE PUSH1 0xA0 DUP5 ADD DUP11 SWAP1 MSTORE PUSH1 0xC0 DUP5 ADD DUP10 SWAP1 MSTORE PUSH1 0x1 PUSH1 0x1 PUSH1 0xA0 SHL SUB DUP9 DUP2 AND PUSH1 0xE0 DUP7 ADD MSTORE DUP8 DUP2 AND PUSH2 0x100 DUP7 ADD MSTORE DUP7 AND PUSH2 0x120 DUP6 ADD MSTORE DUP4 DUP2 SUB PUSH2 0x140 DUP6 ADD MSTORE SWAP1 POP PUSH3 0x11AE DUP2 DUP6 PUSH3 0x10E4 JUMP JUMPDEST SWAP15 SWAP14 POP POP POP POP POP POP POP POP POP POP POP POP POP POP JUMP JUMPDEST PUSH1 0x0 PUSH1 0x20 DUP3 DUP5 SUB SLT ISZERO PUSH3 0x11D3 JUMPI PUSH1 0x0 DUP1 REVERT JUMPDEST DUP2 MLOAD PUSH3 0x1031 DUP2 PUSH3 0xE49 JUMP JUMPDEST DUP1 PUSH1 0x0 JUMPDEST PUSH1 0x5 DUP2 LT ISZERO PUSH3 0x120E JUMPI DUP2 MLOAD PUSH1 0x1 PUSH1 0x1 PUSH1 0xA0 SHL SUB AND DUP5 MSTORE PUSH1 0x20 SWAP4 DUP5 ADD SWAP4 SWAP1 SWAP2 ADD SWAP1 PUSH1 0x1 ADD PUSH3 0x11E4 JUMP JUMPDEST POP POP POP POP JUMP JUMPDEST PUSH1 0x0 DUP2 MLOAD DUP1 DUP5 MSTORE PUSH1 0x20 DUP1 DUP6 ADD SWAP5 POP DUP1 DUP5 ADD PUSH1 0x0 JUMPDEST DUP4 DUP2 LT ISZERO PUSH3 0x124F JUMPI DUP2 MLOAD PUSH1 0x1 PUSH1 0x1 PUSH1 0xA0 SHL SUB AND DUP8 MSTORE SWAP6 DUP3 ADD SWAP6 SWAP1 DUP3 ADD SWAP1 PUSH1 0x1 ADD PUSH3 0x1228 JUMP JUMPDEST POP SWAP5 SWAP6 SWAP5 POP POP POP POP POP JUMP JUMPDEST PUSH1 0x1 PUSH1 0x1 PUSH1 0xA0 SHL SUB DUP10 AND DUP2 MSTORE PUSH2 0x1C0 PUSH1 0x20 DUP1 DUP4 ADD DUP3 SWAP1 MSTORE PUSH1 0x0 SWAP2 SWAP1 PUSH3 0x1283 DUP5 DUP4 ADD DUP13 PUSH3 0x10E4 JUMP JUMPDEST SWAP2 POP DUP10 ISZERO ISZERO PUSH1 0x40 DUP6 ADD MSTORE DUP9 ISZERO ISZERO PUSH1 0x60 DUP6 ADD MSTORE DUP8 PUSH1 0x80 DUP6 ADD MSTORE PUSH1 0xA0 DUP5 ADD DUP8 PUSH1 0x0 JUMPDEST PUSH1 0x3 DUP2 LT ISZERO PUSH3 0x12C2 JUMPI DUP2 MLOAD DUP4 MSTORE SWAP2 DUP4 ADD SWAP2 SWAP1 DUP4 ADD SWAP1 PUSH1 0x1 ADD PUSH3 0x12A3 JUMP JUMPDEST POP POP POP POP PUSH3 0x12D6 PUSH2 0x100 DUP5 ADD DUP7 PUSH3 0x11E0 JUMP JUMPDEST DUP3 DUP2 SUB PUSH2 0x1A0 DUP5 ADD MSTORE PUSH3 0x12EB DUP2 DUP6 PUSH3 0x1214 JUMP JUMPDEST SWAP12 SWAP11 POP POP POP POP POP POP POP POP POP POP POP JUMP JUMPDEST PUSH1 0x1 PUSH1 0x1 PUSH1 0xA0 SHL SUB DUP4 AND DUP2 MSTORE PUSH1 0x40 PUSH1 0x20 DUP3 ADD DUP2 SWAP1 MSTORE PUSH1 0x0 SWAP1 PUSH3 0x1320 SWAP1 DUP4 ADD DUP5 PUSH3 0x10E4 JUMP JUMPDEST SWAP5 SWAP4 POP POP POP POP JUMP JUMPDEST PUSH1 0x0 PUSH1 0x0 NOT DUP3 EQ ISZERO PUSH3 0x134B JUMPI PUSH4 0x4E487B71 PUSH1 0xE0 SHL PUSH1 0x0 MSTORE PUSH1 0x11 PUSH1 0x4 MSTORE PUSH1 0x24 PUSH1 0x0 REVERT JUMPDEST POP PUSH1 0x1 ADD SWAP1 JUMP JUMPDEST PUSH1 0x1 PUSH1 0x1 PUSH1 0xA0 SHL SUB DUP5 AND DUP2 MSTORE PUSH1 0x60 PUSH1 0x20 DUP3 ADD DUP2 SWAP1 MSTORE PUSH1 0x0 SWAP1 PUSH3 0x1378 SWAP1 DUP4 ADD DUP6 PUSH3 0x10E4 JUMP JUMPDEST SWAP1 POP DUP3 PUSH1 0x40 DUP4 ADD MSTORE SWAP5 SWAP4 POP POP POP POP JUMP JUMPDEST PUSH1 0x20 DUP1 DUP3 MSTORE PUSH1 0x2B SWAP1 DUP3 ADD MSTORE PUSH32 0x496E697469616C697A61626C653A20636F6E7472616374206973206E6F742069 PUSH1 0x40 DUP3 ADD MSTORE PUSH11 0x6E697469616C697A696E67 PUSH1 0xA8 SHL PUSH1 0x60 DUP3 ADD MSTORE PUSH1 0x80 ADD SWAP1 JUMP INVALID PUSH1 0x80 PUSH1 0x40 MSTORE CALLVALUE DUP1 ISZERO PUSH2 0x10 JUMPI PUSH1 0x0 DUP1 REVERT JUMPDEST POP PUSH1 0x40 MLOAD PUSH2 0x90B CODESIZE SUB DUP1 PUSH2 0x90B DUP4 CODECOPY DUP2 ADD PUSH1 0x40 DUP2 SWAP1 MSTORE PUSH2 0x2F SWAP2 PUSH2 0x467 JUMP JUMPDEST DUP2 DUP2 PUSH2 0x3D DUP3 DUP3 PUSH1 0x0 PUSH2 0x46 JUMP JUMPDEST POP POP POP POP PUSH2 0x591 JUMP JUMPDEST PUSH2 0x4F DUP4 PUSH2 0x111 JUMP JUMPDEST PUSH1 0x40 MLOAD PUSH1 0x1 PUSH1 0x1 PUSH1 0xA0 SHL SUB DUP5 AND SWAP1 PUSH32 0x1CF3B03A6CF19FA2BABA4DF148E9DCABEDEA7F8A5C07840E207E5C089BE95D3E SWAP1 PUSH1 0x0 SWAP1 LOG2 PUSH1 0x0 DUP3 MLOAD GT DUP1 PUSH2 0x90 JUMPI POP DUP1 JUMPDEST ISZERO PUSH2 0x10C JUMPI PUSH2 0x10A DUP4 PUSH1 0x1 PUSH1 0x1 PUSH1 0xA0 SHL SUB AND PUSH4 0x5C60DA1B PUSH1 0x40 MLOAD DUP2 PUSH4 0xFFFFFFFF AND PUSH1 0xE0 SHL DUP2 MSTORE PUSH1 0x4 ADD PUSH1 0x20 PUSH1 0x40 MLOAD DUP1 DUP4 SUB DUP2 DUP7 GAS STATICCALL ISZERO DUP1 ISZERO PUSH2 0xD6 JUMPI RETURNDATASIZE PUSH1 0x0 DUP1 RETURNDATACOPY RETURNDATASIZE PUSH1 0x0 REVERT JUMPDEST POP POP POP POP PUSH1 0x40 MLOAD RETURNDATASIZE PUSH1 0x1F NOT PUSH1 0x1F DUP3 ADD AND DUP3 ADD DUP1 PUSH1 0x40 MSTORE POP DUP2 ADD SWAP1 PUSH2 0xFA SWAP2 SWAP1 PUSH2 0x527 JUMP JUMPDEST DUP4 PUSH2 0x2B4 PUSH1 0x20 SHL PUSH2 0x29 OR PUSH1 0x20 SHR JUMP JUMPDEST POP JUMPDEST POP POP POP JUMP JUMPDEST PUSH2 0x124 DUP2 PUSH2 0x2E0 PUSH1 0x20 SHL PUSH2 0x55 OR PUSH1 0x20 SHR JUMP JUMPDEST PUSH2 0x183 JUMPI PUSH1 0x40 MLOAD PUSH3 0x461BCD PUSH1 0xE5 SHL DUP2 MSTORE PUSH1 0x20 PUSH1 0x4 DUP3 ADD MSTORE PUSH1 0x25 PUSH1 0x24 DUP3 ADD MSTORE PUSH32 0x455243313936373A206E657720626561636F6E206973206E6F74206120636F6E PUSH1 0x44 DUP3 ADD MSTORE PUSH5 0x1D1C9858DD PUSH1 0xDA SHL PUSH1 0x64 DUP3 ADD MSTORE PUSH1 0x84 ADD JUMPDEST PUSH1 0x40 MLOAD DUP1 SWAP2 SUB SWAP1 REVERT JUMPDEST PUSH2 0x1F7 DUP2 PUSH1 0x1 PUSH1 0x1 PUSH1 0xA0 SHL SUB AND PUSH4 0x5C60DA1B PUSH1 0x40 MLOAD DUP2 PUSH4 0xFFFFFFFF AND PUSH1 0xE0 SHL DUP2 MSTORE PUSH1 0x4 ADD PUSH1 0x20 PUSH1 0x40 MLOAD DUP1 DUP4 SUB DUP2 DUP7 GAS STATICCALL ISZERO DUP1 ISZERO PUSH2 0x1C4 JUMPI RETURNDATASIZE PUSH1 0x0 DUP1 RETURNDATACOPY RETURNDATASIZE PUSH1 0x0 REVERT JUMPDEST POP POP POP POP PUSH1 0x40 MLOAD RETURNDATASIZE PUSH1 0x1F NOT PUSH1 0x1F DUP3 ADD AND DUP3 ADD DUP1 PUSH1 0x40 MSTORE POP DUP2 ADD SWAP1 PUSH2 0x1E8 SWAP2 SWAP1 PUSH2 0x527 JUMP JUMPDEST PUSH2 0x2E0 PUSH1 0x20 SHL PUSH2 0x55 OR PUSH1 0x20 SHR JUMP JUMPDEST PUSH2 0x25C JUMPI PUSH1 0x40 MLOAD PUSH3 0x461BCD PUSH1 0xE5 SHL DUP2 MSTORE PUSH1 0x20 PUSH1 0x4 DUP3 ADD MSTORE PUSH1 0x30 PUSH1 0x24 DUP3 ADD MSTORE PUSH32 0x455243313936373A20626561636F6E20696D706C656D656E746174696F6E2069 PUSH1 0x44 DUP3 ADD MSTORE PUSH16 0x1CC81B9BDD08184818DBDB9D1C9858DD PUSH1 0x82 SHL PUSH1 0x64 DUP3 ADD MSTORE PUSH1 0x84 ADD PUSH2 0x17A JUMP JUMPDEST DUP1 PUSH2 0x293 PUSH32 0xA3F0AD74E5423AEBFD80D3EF4346578335A9A72AEAEE59FF6CB3582B35133D50 PUSH1 0x0 SHL PUSH2 0x2EF PUSH1 0x20 SHL PUSH2 0x64 OR PUSH1 0x20 SHR JUMP JUMPDEST DUP1 SLOAD PUSH1 0x1 PUSH1 0x1 PUSH1 0xA0 SHL SUB NOT AND PUSH1 0x1 PUSH1 0x1 PUSH1 0xA0 SHL SUB SWAP3 SWAP1 SWAP3 AND SWAP2 SWAP1 SWAP2 OR SWAP1 SSTORE POP JUMP JUMPDEST PUSH1 0x60 PUSH2 0x2D9 DUP4 DUP4 PUSH1 0x40 MLOAD DUP1 PUSH1 0x60 ADD PUSH1 0x40 MSTORE DUP1 PUSH1 0x27 DUP2 MSTORE PUSH1 0x20 ADD PUSH2 0x8E4 PUSH1 0x27 SWAP2 CODECOPY PUSH2 0x2F2 JUMP JUMPDEST SWAP4 SWAP3 POP POP POP JUMP JUMPDEST PUSH1 0x1 PUSH1 0x1 PUSH1 0xA0 SHL SUB AND EXTCODESIZE ISZERO ISZERO SWAP1 JUMP JUMPDEST SWAP1 JUMP JUMPDEST PUSH1 0x60 PUSH1 0x1 PUSH1 0x1 PUSH1 0xA0 SHL SUB DUP5 AND EXTCODESIZE PUSH2 0x35A JUMPI PUSH1 0x40 MLOAD PUSH3 0x461BCD PUSH1 0xE5 SHL DUP2 MSTORE PUSH1 0x20 PUSH1 0x4 DUP3 ADD MSTORE PUSH1 0x26 PUSH1 0x24 DUP3 ADD MSTORE PUSH32 0x416464726573733A2064656C65676174652063616C6C20746F206E6F6E2D636F PUSH1 0x44 DUP3 ADD MSTORE PUSH6 0x1B9D1C9858DD PUSH1 0xD2 SHL PUSH1 0x64 DUP3 ADD MSTORE PUSH1 0x84 ADD PUSH2 0x17A JUMP JUMPDEST PUSH1 0x0 DUP1 DUP6 PUSH1 0x1 PUSH1 0x1 PUSH1 0xA0 SHL SUB AND DUP6 PUSH1 0x40 MLOAD PUSH2 0x375 SWAP2 SWAP1 PUSH2 0x542 JUMP JUMPDEST PUSH1 0x0 PUSH1 0x40 MLOAD DUP1 DUP4 SUB DUP2 DUP6 GAS DELEGATECALL SWAP2 POP POP RETURNDATASIZE DUP1 PUSH1 0x0 DUP2 EQ PUSH2 0x3B0 JUMPI PUSH1 0x40 MLOAD SWAP2 POP PUSH1 0x1F NOT PUSH1 0x3F RETURNDATASIZE ADD AND DUP3 ADD PUSH1 0x40 MSTORE RETURNDATASIZE DUP3 MSTORE RETURNDATASIZE PUSH1 0x0 PUSH1 0x20 DUP5 ADD RETURNDATACOPY PUSH2 0x3B5 JUMP JUMPDEST PUSH1 0x60 SWAP2 POP JUMPDEST POP SWAP1 SWAP3 POP SWAP1 POP PUSH2 0x3C6 DUP3 DUP3 DUP7 PUSH2 0x3D0 JUMP JUMPDEST SWAP7 SWAP6 POP POP POP POP POP POP JUMP JUMPDEST PUSH1 0x60 DUP4 ISZERO PUSH2 0x3DF JUMPI POP DUP2 PUSH2 0x2D9 JUMP JUMPDEST DUP3 MLOAD ISZERO PUSH2 0x3EF JUMPI DUP3 MLOAD DUP1 DUP5 PUSH1 0x20 ADD REVERT JUMPDEST DUP2 PUSH1 0x40 MLOAD PUSH3 0x461BCD PUSH1 0xE5 SHL DUP2 MSTORE PUSH1 0x4 ADD PUSH2 0x17A SWAP2 SWAP1 PUSH2 0x55E JUMP JUMPDEST DUP1 MLOAD PUSH1 0x1 PUSH1 0x1 PUSH1 0xA0 SHL SUB DUP2 AND DUP2 EQ PUSH2 0x420 JUMPI PUSH1 0x0 DUP1 REVERT JUMPDEST SWAP2 SWAP1 POP JUMP JUMPDEST PUSH4 0x4E487B71 PUSH1 0xE0 SHL PUSH1 0x0 MSTORE PUSH1 0x41 PUSH1 0x4 MSTORE PUSH1 0x24 PUSH1 0x0 REVERT JUMPDEST PUSH1 0x0 JUMPDEST DUP4 DUP2 LT ISZERO PUSH2 0x456 JUMPI DUP2 DUP2 ADD MLOAD DUP4 DUP3 ADD MSTORE PUSH1 0x20 ADD PUSH2 0x43E JUMP JUMPDEST DUP4 DUP2 GT ISZERO PUSH2 0x10A JUMPI POP POP PUSH1 0x0 SWAP2 ADD MSTORE JUMP JUMPDEST PUSH1 0x0 DUP1 PUSH1 0x40 DUP4 DUP6 SUB SLT ISZERO PUSH2 0x47A JUMPI PUSH1 0x0 DUP1 REVERT JUMPDEST PUSH2 0x483 DUP4 PUSH2 0x409 JUMP JUMPDEST PUSH1 0x20 DUP5 ADD MLOAD SWAP1 SWAP3 POP PUSH1 0x1 PUSH1 0x1 PUSH1 0x40 SHL SUB DUP1 DUP3 GT ISZERO PUSH2 0x4A0 JUMPI PUSH1 0x0 DUP1 REVERT JUMPDEST DUP2 DUP6 ADD SWAP2 POP DUP6 PUSH1 0x1F DUP4 ADD SLT PUSH2 0x4B4 JUMPI PUSH1 0x0 DUP1 REVERT JUMPDEST DUP2 MLOAD DUP2 DUP2 GT ISZERO PUSH2 0x4C6 JUMPI PUSH2 0x4C6 PUSH2 0x425 JUMP JUMPDEST PUSH1 0x40 MLOAD PUSH1 0x1F DUP3 ADD PUSH1 0x1F NOT SWAP1 DUP2 AND PUSH1 0x3F ADD AND DUP2 ADD SWAP1 DUP4 DUP3 GT DUP2 DUP4 LT OR ISZERO PUSH2 0x4EE JUMPI PUSH2 0x4EE PUSH2 0x425 JUMP JUMPDEST DUP2 PUSH1 0x40 MSTORE DUP3 DUP2 MSTORE DUP9 PUSH1 0x20 DUP5 DUP8 ADD ADD GT ISZERO PUSH2 0x507 JUMPI PUSH1 0x0 DUP1 REVERT JUMPDEST PUSH2 0x518 DUP4 PUSH1 0x20 DUP4 ADD PUSH1 0x20 DUP9 ADD PUSH2 0x43B JUMP JUMPDEST DUP1 SWAP6 POP POP POP POP POP POP SWAP3 POP SWAP3 SWAP1 POP JUMP JUMPDEST PUSH1 0x0 PUSH1 0x20 DUP3 DUP5 SUB SLT ISZERO PUSH2 0x539 JUMPI PUSH1 0x0 DUP1 REVERT JUMPDEST PUSH2 0x2D9 DUP3 PUSH2 0x409 JUMP JUMPDEST PUSH1 0x0 DUP3 MLOAD PUSH2 0x554 DUP2 DUP5 PUSH1 0x20 DUP8 ADD PUSH2 0x43B JUMP JUMPDEST SWAP2 SWAP1 SWAP2 ADD SWAP3 SWAP2 POP POP JUMP JUMPDEST PUSH1 0x20 DUP2 MSTORE PUSH1 0x0 DUP3 MLOAD DUP1 PUSH1 0x20 DUP5 ADD MSTORE PUSH2 0x57D DUP2 PUSH1 0x40 DUP6 ADD PUSH1 0x20 DUP8 ADD PUSH2 0x43B JUMP JUMPDEST PUSH1 0x1F ADD PUSH1 0x1F NOT AND SWAP2 SWAP1 SWAP2 ADD PUSH1 0x40 ADD SWAP3 SWAP2 POP POP JUMP JUMPDEST PUSH2 0x344 DUP1 PUSH2 0x5A0 PUSH1 0x0 CODECOPY PUSH1 0x0 RETURN INVALID PUSH1 0x80 PUSH1 0x40 MSTORE CALLDATASIZE PUSH2 0x13 JUMPI PUSH2 0x11 PUSH2 0x17 JUMP JUMPDEST STOP JUMPDEST PUSH2 0x11 JUMPDEST PUSH2 0x27 PUSH2 0x22 PUSH2 0x67 JUMP JUMPDEST PUSH2 0x100 JUMP JUMPDEST JUMP JUMPDEST PUSH1 0x60 PUSH2 0x4E DUP4 DUP4 PUSH1 0x40 MLOAD DUP1 PUSH1 0x60 ADD PUSH1 0x40 MSTORE DUP1 PUSH1 0x27 DUP2 MSTORE PUSH1 0x20 ADD PUSH2 0x2E8 PUSH1 0x27 SWAP2 CODECOPY PUSH2 0x124 JUMP JUMPDEST SWAP4 SWAP3 POP POP POP JUMP JUMPDEST PUSH1 0x1 PUSH1 0x1 PUSH1 0xA0 SHL SUB AND EXTCODESIZE ISZERO ISZERO SWAP1 JUMP JUMPDEST SWAP1 JUMP JUMPDEST PUSH1 0x0 PUSH2 0x9A PUSH32 0xA3F0AD74E5423AEBFD80D3EF4346578335A9A72AEAEE59FF6CB3582B35133D50 SLOAD PUSH1 0x1 PUSH1 0x1 PUSH1 0xA0 SHL SUB AND SWAP1 JUMP JUMPDEST PUSH1 0x1 PUSH1 0x1 PUSH1 0xA0 SHL SUB AND PUSH4 0x5C60DA1B PUSH1 0x40 MLOAD DUP2 PUSH4 0xFFFFFFFF AND PUSH1 0xE0 SHL DUP2 MSTORE PUSH1 0x4 ADD PUSH1 0x20 PUSH1 0x40 MLOAD DUP1 DUP4 SUB DUP2 DUP7 GAS STATICCALL ISZERO DUP1 ISZERO PUSH2 0xD7 JUMPI RETURNDATASIZE PUSH1 0x0 DUP1 RETURNDATACOPY RETURNDATASIZE PUSH1 0x0 REVERT JUMPDEST POP POP POP POP PUSH1 0x40 MLOAD RETURNDATASIZE PUSH1 0x1F NOT PUSH1 0x1F DUP3 ADD AND DUP3 ADD DUP1 PUSH1 0x40 MSTORE POP DUP2 ADD SWAP1 PUSH2 0xFB SWAP2 SWAP1 PUSH2 0x23F JUMP JUMPDEST SWAP1 POP SWAP1 JUMP JUMPDEST CALLDATASIZE PUSH1 0x0 DUP1 CALLDATACOPY PUSH1 0x0 DUP1 CALLDATASIZE PUSH1 0x0 DUP5 GAS DELEGATECALL RETURNDATASIZE PUSH1 0x0 DUP1 RETURNDATACOPY DUP1 DUP1 ISZERO PUSH2 0x11F JUMPI RETURNDATASIZE PUSH1 0x0 RETURN JUMPDEST RETURNDATASIZE PUSH1 0x0 REVERT JUMPDEST PUSH1 0x60 PUSH1 0x1 PUSH1 0x1 PUSH1 0xA0 SHL SUB DUP5 AND EXTCODESIZE PUSH2 0x191 JUMPI PUSH1 0x40 MLOAD PUSH3 0x461BCD PUSH1 0xE5 SHL DUP2 MSTORE PUSH1 0x20 PUSH1 0x4 DUP3 ADD MSTORE PUSH1 0x26 PUSH1 0x24 DUP3 ADD MSTORE PUSH32 0x416464726573733A2064656C65676174652063616C6C20746F206E6F6E2D636F PUSH1 0x44 DUP3 ADD MSTORE PUSH6 0x1B9D1C9858DD PUSH1 0xD2 SHL PUSH1 0x64 DUP3 ADD MSTORE PUSH1 0x84 ADD JUMPDEST PUSH1 0x40 MLOAD DUP1 SWAP2 SUB SWAP1 REVERT JUMPDEST PUSH1 0x0 DUP1 DUP6 PUSH1 0x1 PUSH1 0x1 PUSH1 0xA0 SHL SUB AND DUP6 PUSH1 0x40 MLOAD PUSH2 0x1AC SWAP2 SWAP1 PUSH2 0x298 JUMP JUMPDEST PUSH1 0x0 PUSH1 0x40 MLOAD DUP1 DUP4 SUB DUP2 DUP6 GAS DELEGATECALL SWAP2 POP POP RETURNDATASIZE DUP1 PUSH1 0x0 DUP2 EQ PUSH2 0x1E7 JUMPI PUSH1 0x40 MLOAD SWAP2 POP PUSH1 0x1F NOT PUSH1 0x3F RETURNDATASIZE ADD AND DUP3 ADD PUSH1 0x40 MSTORE RETURNDATASIZE DUP3 MSTORE RETURNDATASIZE PUSH1 0x0 PUSH1 0x20 DUP5 ADD RETURNDATACOPY PUSH2 0x1EC JUMP JUMPDEST PUSH1 0x60 SWAP2 POP JUMPDEST POP SWAP2 POP SWAP2 POP PUSH2 0x1FC DUP3 DUP3 DUP7 PUSH2 0x206 JUMP JUMPDEST SWAP7 SWAP6 POP POP POP POP POP POP JUMP JUMPDEST PUSH1 0x60 DUP4 ISZERO PUSH2 0x215 JUMPI POP DUP2 PUSH2 0x4E JUMP JUMPDEST DUP3 MLOAD ISZERO PUSH2 0x225 JUMPI DUP3 MLOAD DUP1 DUP5 PUSH1 0x20 ADD REVERT JUMPDEST DUP2 PUSH1 0x40 MLOAD PUSH3 0x461BCD PUSH1 0xE5 SHL DUP2 MSTORE PUSH1 0x4 ADD PUSH2 0x188 SWAP2 SWAP1 PUSH2 0x2B4 JUMP JUMPDEST PUSH1 0x0 PUSH1 0x20 DUP3 DUP5 SUB SLT ISZERO PUSH2 0x251 JUMPI PUSH1 0x0 DUP1 REVERT JUMPDEST DUP2 MLOAD PUSH1 0x1 PUSH1 0x1 PUSH1 0xA0 SHL SUB DUP2 AND DUP2 EQ PUSH2 0x4E JUMPI PUSH1 0x0 DUP1 REVERT JUMPDEST PUSH1 0x0 JUMPDEST DUP4 DUP2 LT ISZERO PUSH2 0x283 JUMPI DUP2 DUP2 ADD MLOAD DUP4 DUP3 ADD MSTORE PUSH1 0x20 ADD PUSH2 0x26B JUMP JUMPDEST DUP4 DUP2 GT ISZERO PUSH2 0x292 JUMPI PUSH1 0x0 DUP5 DUP5 ADD MSTORE JUMPDEST POP POP POP POP JUMP JUMPDEST PUSH1 0x0 DUP3 MLOAD PUSH2 0x2AA DUP2 DUP5 PUSH1 0x20 DUP8 ADD PUSH2 0x268 JUMP JUMPDEST SWAP2 SWAP1 SWAP2 ADD SWAP3 SWAP2 POP POP JUMP JUMPDEST PUSH1 0x20 DUP2 MSTORE PUSH1 0x0 DUP3 MLOAD DUP1 PUSH1 0x20 DUP5 ADD MSTORE PUSH2 0x2D3 DUP2 PUSH1 0x40 DUP6 ADD PUSH1 0x20 DUP8 ADD PUSH2 0x268 JUMP JUMPDEST PUSH1 0x1F ADD PUSH1 0x1F NOT AND SWAP2 SWAP1 SWAP2 ADD PUSH1 0x40 ADD SWAP3 SWAP2 POP POP JUMP INVALID COINBASE PUSH5 0x6472657373 GASPRICE KECCAK256 PUSH13 0x6F772D6C6576656C2064656C65 PUSH8 0x6174652063616C6C KECCAK256 PUSH7 0x61696C6564A264 PUSH10 0x70667358221220D04C33 PUSH12 0xF1D5EE0F5699FA74B9ED40E9 CALLDATASIZE CHAINID SWAP15 MLOAD 0xD6 SWAP8 GASPRICE PUSH19 0xD8AAB6B3C84DE87264736F6C634300080C0033 COINBASE PUSH5 0x6472657373 GASPRICE KECCAK256 PUSH13 0x6F772D6C6576656C2064656C65 PUSH8 0x6174652063616C6C KECCAK256 PUSH7 0x61696C65648068 LOG2 0x23 0xBC CODESIZE MSTORE SWAP9 PUSH5 0x701ED6F372 0x29 PUSH14 0x3ECB2AA9AFFE6C91CF94E2AE6DD5 PUSH24 0xC8A2646970667358221220BFB0E274C68F2D6BA1F9791317 0x1E 0xB0 CREATE2 0xF 0xB2 0xC6 CODESIZE DUP1 REVERT DUP2 LT 0xE8 MSIZE BALANCE DUP3 COINBASE 0xB7 STOP ADDRESS PUSH5 0x736F6C6343 STOP ADDMOD 0xC STOP CALLER ",
  "sha1": "3ba30b62b5290dfb6b112b2dbc6fb305f57858a2",
  "source": "// SPDX-License-Identifier: MIT\npragma solidity ^0.8.11;\n\nimport \"@openzeppelin-contracts-upgradeable/contracts/access/OwnableUpgradeable.sol\";\nimport \"../../interfaces/ICLHouse.sol\";\nimport \"../../interfaces/ICLFactory.sol\";\nimport \"../CLProxy/CLBeacon.sol\";\nimport \"../CLProxy/CLProxyCLH.sol\";\nimport \"../APICLH/CLHouseApi.sol\";\n\n\n/// @title Crypto League House Factory\n/// @notice Create and config CLHouses\n/// @dev This contract is the standard way to create CLH\n/// @author Leonardo Urrego\ncontract CLFactory is ICLFactory, Initializable, OwnableUpgradeable {\n    /// @notice Store the number of houses created\n    uint256 public numCLH;\n\n    uint256[10] __gapUint256;\n\n    /// @notice Contract with the CLH Constructor logic\n    address public CLLConstructorCLH;\n\n    /// @notice Contract with the functions for user management\n    address public CLLUserManagement;\n\n    /// @notice Contract with the functions for Governance\n    address public CLLGovernance;\n\n    /// @notice Contract CLHouse API\n    address public CLHAPI;\n\n    address[10] __gapAddress;\n\n    /// @notice Contract Object of the beacon (store the add)\n    /// @dev The beacon store the updated address of CLH\n    CLBeacon public beaconCLH;\n    \n    /// @notice Relation houseAddr with houseId\n    mapping( address => uint256 ) public mapIdCLH;\n    \n    /// @notice Mapping to store all the created houses\n    mapping(uint256 => ICLHouse) public mapCLH;\n\n    /// @notice Event when house is created\n    /// @param houseAddr Address of the created house\n    /// @param houseName Name of the created house\n    /// @param houseId Id of CLH of the created house\n    event evtNewCLH( address houseAddr, string houseName, uint256 houseId );\n\n    /// @notice Event when a CL Contract address is updated\n    /// @param CLCName Name of contract var\n    /// @param oldAddress Old Address value of the var\n    /// @param newAddress New Address value of the var\n    event evtUpdateCLC( string CLCName, address oldAddress, address newAddress );\n\n    /// @custom:oz-upgrades-unsafe-allow constructor\n    constructor() {\n        _disableInitializers();\n    }\n\n    /// @notice Config the CLFactory with the CL Logic Contracts\n    /// @param _CLLUserManagement Address Contract Logic for user management\n    /// @param _CLLGovernance Address Contract Logic for governance\n    /// @param _CLLConstructorCLH Address Contract with the Constructor logic\n    /// @param _CLHAPI Address of CLHAPI Contract\n    /// @param _beacon Address Beacon Contract\n    /// @dev The constructor create a default CLH with the houseId #0\n    function Init(\n        address _CLLUserManagement,\n        address _CLLGovernance,\n        address _CLLConstructorCLH,\n        address _CLHAPI,\n        address _beacon\n    )\n        public\n        reinitializer( __UPGRADEABLE_CLF_VERSION__ )\n    {\n        beaconCLH = CLBeacon( _beacon );\n\n        CLLUserManagement = _CLLUserManagement;\n        CLLGovernance = _CLLGovernance;\n        CLLConstructorCLH = _CLLConstructorCLH;\n        CLHAPI = _CLHAPI;\n\n        numCLH = 0;\n        mapCLH[ numCLH ] = ICLHouse( address(0) );\n        mapIdCLH[ address(0) ] = numCLH;\n\n        __Ownable_init();\n    }\n\n\n    /// @notice Deploy a new CLHouse\n    /// @param _houseName Name of the CLH\n    /// @param _housePrivate If is set to 1, the CLH is set to private\n    /// @param _houseOpen If is set to 1, the CLH is set to open\n    /// @param _govModel keccak256 hash of the governance model, see the __GOV_* constans\n    /// @param _govRules Array for goverment rules see `enum gRule`\n    /// @param _ManagerWallets Whitelist of address for invitate as managers\n    /// @param _gnosisSafe Contract address of SAFE\n    /// @param _signerWallet Wallet address of the signer for OffChain Tx\n    /// @param _signature Signature for validate OffChain Tx\n    /// @dev Some parameters wil be ignored depending on the governance model\n    function CreateCLH(\n        string memory _houseName,\n        bool _housePrivate,\n        bool _houseOpen,\n        bytes32 _govModel,\n        uint256[3] memory _govRules,\n        address[] memory _ManagerWallets,\n        address _gnosisSafe,\n        address _whiteListNFT,\n        address _signerWallet,\n        bytes memory _signature\n    ) \n        public\n    {\n        address houseOwner = msg.sender;\n\n        require( \n            __GOV_DICTATORSHIP__ == _govModel ||\n            __GOV_COMMITTEE__ == _govModel ||\n            __GOV_SIMPLE_MAJORITY__ == _govModel ,\n            \"Invalid Governance Type\"\n        );\n\n        if( _signerWallet != address(0) ) {\n            require( _signature.length == 65, \"CreateCLH: Bad signature length\" );\n            \n            require(\n                _signerWallet == CLHouseApi( CLHAPI ).SignerOCNewCLH(\n                    _houseName,\n                    _housePrivate,\n                    _houseOpen,\n                    _govModel,\n                    _govRules[0],\n                    _govRules[1],\n                    _govRules[2],\n                    _whiteListNFT,\n                    _ManagerWallets[0],\n                    address(this),\n                    _signature\n                ),\n                \"CreateCLH: Invalid Signature\"\n            );\n\n            houseOwner = _signerWallet;\n        }\n\n        CLProxyCLH pxyCLH = new CLProxyCLH(\n            address( beaconCLH ),\n            abi.encodeWithSignature(\n                \"Init(address,string,bool,bool,bytes32,uint256[3],address[5],address[])\",\n                houseOwner, \n                _houseName,\n                _housePrivate,\n                _houseOpen,\n                _govModel,\n                _govRules,\n                [ CLLConstructorCLH, address(this), CLHAPI, _gnosisSafe, _whiteListNFT ],\n                _ManagerWallets\n            )\n        );\n\n        numCLH++;\n        mapCLH[ numCLH ] = ICLHouse( address( pxyCLH ) );\n        mapIdCLH[ address( pxyCLH ) ] = numCLH;\n\n        emit evtNewCLH( address( pxyCLH ), _houseName, numCLH );\n    }\n\n\n    /// @notice Get the address of the CLH contract logic\n    function getCLHImplementation() external view returns (address) {\n        return beaconCLH.implementation();\n    }\n\n    /// @notice Update the CLLConstructorCLH contract Address\n    function UpdateCLLConstructorCLH( address _CLLConstructorCLH ) external onlyOwner {\n        address oldAddr = CLLConstructorCLH;\n        CLLConstructorCLH = _CLLConstructorCLH;\n        emit evtUpdateCLC( \"CLLConstructorCLH\", oldAddr, _CLLConstructorCLH );\n    }\n\n    /// @notice Update the CLLUserManagement contract Address\n    function UpdateCLLUserManagement( address _CLLUserManagement ) external onlyOwner {\n        address oldAddr = CLLUserManagement;\n        CLLUserManagement = _CLLUserManagement;\n        emit evtUpdateCLC( \"CLLUserManagement\", oldAddr, _CLLUserManagement );\n    }\n\n    /// @notice Update the CLLGovernance contract Address\n    function UpdateCLLGovernance( address _CLLGovernance ) external onlyOwner {\n        address oldAddr = CLLGovernance;\n        CLLGovernance = _CLLGovernance;\n        emit evtUpdateCLC( \"CLLGovernance\", oldAddr, _CLLGovernance );\n    }\n\n    /// @notice Update the CLHAPI contract Address\n    function UpdateCLHAPI( address _CLHAPI ) external onlyOwner {\n        address oldAddr = CLHAPI;\n        CLHAPI = _CLHAPI;\n        emit evtUpdateCLC( \"CLHAPI\", oldAddr, _CLHAPI );\n    }\n}",
  "sourcePath": "contracts/CLFactory/CLFactory.sol",
  "type": "contract"
}