{
  "abi": [
    {
      "inputs": [
        {
          "internalType": "address",
          "name": "_CLLUserManagement",
          "type": "address"
        },
        {
          "internalType": "address",
          "name": "_CLLGovernance",
          "type": "address"
        },
        {
          "internalType": "address",
          "name": "_CLLConstructorCLH",
          "type": "address"
        },
        {
          "internalType": "address",
          "name": "_CLHAPI",
          "type": "address"
        }
      ],
      "stateMutability": "nonpayable",
      "type": "constructor"
    },
    {
      "anonymous": false,
      "inputs": [
        {
          "indexed": false,
          "internalType": "address",
          "name": "houseAddr",
          "type": "address"
        },
        {
          "indexed": false,
          "internalType": "string",
          "name": "houseName",
          "type": "string"
        },
        {
          "indexed": false,
          "internalType": "uint256",
          "name": "houseId",
          "type": "uint256"
        }
      ],
      "name": "evtHouseCreation",
      "type": "event"
    },
    {
      "inputs": [
        {
          "internalType": "string",
          "name": "_houseName",
          "type": "string"
        },
        {
          "internalType": "bool",
          "name": "_housePrivate",
          "type": "bool"
        },
        {
          "internalType": "bytes32",
          "name": "_govModel",
          "type": "bytes32"
        },
        {
          "internalType": "uint8[3]",
          "name": "_govRules",
          "type": "uint8[3]"
        },
        {
          "internalType": "address[]",
          "name": "_ManagerWallets",
          "type": "address[]"
        },
        {
          "internalType": "address",
          "name": "_signerWallet",
          "type": "address"
        },
        {
          "internalType": "bytes",
          "name": "_signature",
          "type": "bytes"
        }
      ],
      "name": "CreateCLH",
      "outputs": [
        {
          "internalType": "address",
          "name": "",
          "type": "address"
        }
      ],
      "stateMutability": "nonpayable",
      "type": "function"
    },
    {
      "inputs": [],
      "name": "GetHouseList",
      "outputs": [
        {
          "internalType": "contract CLHouse[]",
          "name": "",
          "type": "address[]"
        }
      ],
      "stateMutability": "view",
      "type": "function"
    },
    {
      "inputs": [
        {
          "internalType": "address",
          "name": "_walletAddr",
          "type": "address"
        }
      ],
      "name": "GetHousesByUser",
      "outputs": [
        {
          "internalType": "address[]",
          "name": "",
          "type": "address[]"
        }
      ],
      "stateMutability": "view",
      "type": "function"
    },
    {
      "inputs": [
        {
          "internalType": "address",
          "name": "_walletAddr",
          "type": "address"
        }
      ],
      "name": "GetInvitationsByUser",
      "outputs": [
        {
          "internalType": "address[]",
          "name": "",
          "type": "address[]"
        }
      ],
      "stateMutability": "view",
      "type": "function"
    },
    {
      "inputs": [
        {
          "internalType": "uint256",
          "name": "",
          "type": "uint256"
        }
      ],
      "name": "arrCLH",
      "outputs": [
        {
          "internalType": "contract CLHouse",
          "name": "",
          "type": "address"
        }
      ],
      "stateMutability": "view",
      "type": "function"
    },
    {
      "inputs": [
        {
          "internalType": "address",
          "name": "",
          "type": "address"
        }
      ],
      "name": "mapCLHId",
      "outputs": [
        {
          "internalType": "uint256",
          "name": "",
          "type": "uint256"
        }
      ],
      "stateMutability": "view",
      "type": "function"
    },
    {
      "inputs": [],
      "name": "numCLH",
      "outputs": [
        {
          "internalType": "uint256",
          "name": "",
          "type": "uint256"
        }
      ],
      "stateMutability": "view",
      "type": "function"
    }
  ],
  "bytecode": "608060405260006001553480156200001657600080fd5b5060405162006195380380620061958339810160408190526200003991620005b6565b600480546001600160a01b038681166001600160a01b0319928316179092556005805486841690831617905560038054858416908316178155600680549385169390921692909217905560408051828152608081019091526000916020820160608036833701905050905073c27480520a875bca3874df1f533523e9ffdb1af981600081518110620000cf57620000cf62000613565b60200260200101906001600160a01b031690816001600160a01b03168152505073012775f98fdb33656f240a97f73a61f6b8c25756816001815181106200011a576200011a62000613565b60200260200101906001600160a01b031690816001600160a01b03168152505073a7b59f12f19b96cc67f19ef017cf9a0928910fd58160028151811062000165576200016562000613565b6001600160a01b0390921660209283029190910182015260408051808201825260068152650434c482023360d41b81840152815160608101835260638152600a8185015260338184015282519384019092526000808452620001e193919290916000805160206200617583398151915291908690849062000204565b5060018054906000620001f4836200063f565b91905055505050505050620008b1565b600080337f0b93889d934070956c00846f50f9a10a747bd194bba2f2e78a86d0c02386fdb18814806200024557508760008051602062006175833981519152145b80620002705750877fa0786f6450d5fb3298b8425105c1b75e6e01a1ff86cdabea29909cdb0b4c83a7145b620002c25760405162461bcd60e51b815260206004820152601760248201527f496e76616c696420476f7665726e616e6365205479706500000000000000000060448201526064015b60405180910390fd5b6001600160a01b0385161562000440578351604114620003255760405162461bcd60e51b815260206004820152601f60248201527f437265617465434c483a20426164207369676e6174757265206c656e677468006044820152606401620002b9565b6006546001600160a01b031663364ae0d88b8b8b8b600060200201518c600160200201518d600260200201518d60008151811062000367576200036762000613565b6020026020010151308d6040518a63ffffffff1660e01b81526004016200039799989796959493929190620006a9565b602060405180830381865afa158015620003b5573d6000803e3d6000fd5b505050506040513d601f19601f82011682018060405250810190620003db919062000725565b6001600160a01b0316856001600160a01b0316146200043d5760405162461bcd60e51b815260206004820152601c60248201527f437265617465434c483a20496e76616c6964205369676e6174757265000000006044820152606401620002b9565b50835b604080516080810182526004546001600160a01b03908116825260055481166020830152600354811682840152600654166060820152905182918c918c918c918c91908c9062000490906200058b565b620004a29796959493929190620007c4565b604051809103906000f080158015620004bf573d6000803e3d6000fd5b5060008054600180820183558280527f290decd9548b62a8d60345a988386fc84ba6bc95484008f6362f93160ef3e563820180546001600160a01b0319166001600160a01b0386161790558054939550859391926200051e836200085d565b90915550506001600160a01b03821660009081526002602052604090819020829055517f0717908fb0165729c0cfd8bbc622f5ede46a85e555ac30657fa94a188bca698d90620005749084908f9085906200087b565b60405180910390a1509a9950505050505050505050565b6124cf8062003ca683390190565b80516001600160a01b0381168114620005b157600080fd5b919050565b60008060008060808587031215620005cd57600080fd5b620005d88562000599565b9350620005e86020860162000599565b9250620005f86040860162000599565b9150620006086060860162000599565b905092959194509250565b634e487b7160e01b600052603260045260246000fd5b634e487b7160e01b600052601160045260246000fd5b60008162000651576200065162000629565b506000190190565b6000815180845260005b81811015620006815760208185018101518683018201520162000663565b8181111562000694576000602083870101525b50601f01601f19169290920160200192915050565b6000610120808352620006bf8184018d62000659565b8b15156020850152604084018b905260ff8a811660608601528981166080860152881660a08501526001600160a01b0387811660c0860152861660e0850152838103610100850152905062000715818562000659565b9c9b505050505050505050505050565b6000602082840312156200073857600080fd5b620007438262000599565b9392505050565b8060005b6004811015620007785781516001600160a01b03168452602093840193909101906001016200074e565b50505050565b600081518084526020808501945080840160005b83811015620007b95781516001600160a01b03168752958201959082019060010162000792565b509495945050505050565b6001600160a01b0388168152610180602080830182905260009190620007ed8483018b62000659565b91508815156040850152876060850152608084018760005b60038110156200082757815160ff168352918301919083019060010162000805565b505050506200083a60e08401866200074a565b8281036101608401526200084f81856200077e565b9a9950505050505050505050565b600060001982141562000874576200087462000629565b5060010190565b6001600160a01b0384168152606060208201819052600090620008a19083018562000659565b9050826040830152949350505050565b6133e580620008c16000396000f3fe60806040523480156200001157600080fd5b5060043610620000875760003560e01c806356ec9fff116200006257806356ec9fff14620001105780637ddb31a31462000136578063ac53c485146200014d578063ee7a7d1b146200016457600080fd5b8063132dcce7146200008c5780633195ce7414620000ae578063535210db14620000e0575b600080fd5b620000966200016e565b604051620000a591906200089c565b60405180910390f35b620000d1620000bf36600462000916565b60026020526000908152604090205481565b604051908152602001620000a5565b620000f7620000f136600462000b33565b620001d2565b6040516001600160a01b039091168152602001620000a5565b620001276200012136600462000916565b6200056a565b604051620000a5919062000c68565b620001276200014736600462000916565b620006eb565b620000f76200015e36600462000c7d565b62000863565b620000d160015481565b60606000805480602002602001604051908101604052809291908181526020018280548015620001c857602002820191906000526020600020905b81546001600160a01b03168152600190910190602001808311620001a9575b5050505050905090565b600080337f0b93889d934070956c00846f50f9a10a747bd194bba2f2e78a86d0c02386fdb1881480620002245750877f16591a696fee5867425b3dee9fc0160a6c1baef77835bc3d204314106d639298145b806200024f5750877fa0786f6450d5fb3298b8425105c1b75e6e01a1ff86cdabea29909cdb0b4c83a7145b620002a15760405162461bcd60e51b815260206004820152601760248201527f496e76616c696420476f7665726e616e6365205479706500000000000000000060448201526064015b60405180910390fd5b6001600160a01b038516156200041f578351604114620003045760405162461bcd60e51b815260206004820152601f60248201527f437265617465434c483a20426164207369676e6174757265206c656e67746800604482015260640162000298565b6006546001600160a01b031663364ae0d88b8b8b8b600060200201518c600160200201518d600260200201518d60008151811062000346576200034662000c97565b6020026020010151308d6040518a63ffffffff1660e01b8152600401620003769998979695949392919062000cfd565b602060405180830381865afa15801562000394573d6000803e3d6000fd5b505050506040513d601f19601f82011682018060405250810190620003ba919062000d79565b6001600160a01b0316856001600160a01b0316146200041c5760405162461bcd60e51b815260206004820152601c60248201527f437265617465434c483a20496e76616c6964205369676e617475726500000000604482015260640162000298565b50835b604080516080810182526004546001600160a01b03908116825260055481166020830152600354811682840152600654166060820152905182918c918c918c918c91908c906200046f906200088e565b62000481979695949392919062000dcd565b604051809103906000f0801580156200049e573d6000803e3d6000fd5b5060008054600180820183558280527f290decd9548b62a8d60345a988386fc84ba6bc95484008f6362f93160ef3e563820180546001600160a01b0319166001600160a01b038616179055805493955085939192620004fd8362000e66565b90915550506001600160a01b03821660009081526002602052604090819020829055517f0717908fb0165729c0cfd8bbc622f5ede46a85e555ac30657fa94a188bca698d90620005539084908f90859062000e90565b60405180910390a1509a9950505050505050505050565b600080546060919067ffffffffffffffff8111156200058d576200058d6200093d565b604051908082528060200260200182016040528015620005b7578160200160208202803683370190505b509050600060015b6001548111620006e25760008181548110620005df57620005df62000c97565b60009182526020909120015460405163287b984560e11b81526001600160a01b038781166004830152909116906350f7308a90602401602060405180830381865afa15801562000633573d6000803e3d6000fd5b505050506040513d601f19601f8201168201806040525081019062000659919062000ec6565b15620006cd576000818154811062000675576200067562000c97565b6000918252602090912001546001600160a01b03168383620006978162000e66565b945081518110620006ac57620006ac62000c97565b60200260200101906001600160a01b031690816001600160a01b0316815250505b80620006d98162000e66565b915050620005bf565b50909392505050565b600080546060919067ffffffffffffffff8111156200070e576200070e6200093d565b60405190808252806020026020018201604052801562000738578160200160208202803683370190505b509050600060015b6001548111620006e2576000818154811062000760576200076062000c97565b600091825260209091200154604051631c3fe46360e21b81526001600160a01b038781166004830152909116906370ff918c90602401602060405180830381865afa158015620007b4573d6000803e3d6000fd5b505050506040513d601f19601f82011682018060405250810190620007da919062000ec6565b156200084e5760008181548110620007f657620007f662000c97565b6000918252602090912001546001600160a01b03168383620008188162000e66565b9450815181106200082d576200082d62000c97565b60200260200101906001600160a01b031690816001600160a01b0316815250505b806200085a8162000e66565b91505062000740565b600081815481106200087457600080fd5b6000918252602090912001546001600160a01b0316905081565b6124cf8062000ee183390190565b6020808252825182820181905260009190848201906040850190845b81811015620008df5783516001600160a01b031683529284019291840191600101620008b8565b50909695505050505050565b6001600160a01b03811681146200090157600080fd5b50565b80356200091181620008eb565b919050565b6000602082840312156200092957600080fd5b81356200093681620008eb565b9392505050565b634e487b7160e01b600052604160045260246000fd5b604051601f8201601f1916810167ffffffffffffffff811182821017156200097f576200097f6200093d565b604052919050565b600067ffffffffffffffff831115620009a457620009a46200093d565b620009b9601f8401601f191660200162000953565b9050828152838383011115620009ce57600080fd5b828260208301376000602084830101529392505050565b803580151581146200091157600080fd5b600082601f83011262000a0857600080fd5b6040516060810181811067ffffffffffffffff8211171562000a2e5762000a2e6200093d565b60405280606084018581111562000a4457600080fd5b845b8181101562000a7157803560ff8116811462000a625760008081fd5b83526020928301920162000a46565b509195945050505050565b600082601f83011262000a8e57600080fd5b8135602067ffffffffffffffff82111562000aad5762000aad6200093d565b8160051b62000abe82820162000953565b928352848101820192828101908785111562000ad957600080fd5b83870192505b8483101562000b0557823562000af581620008eb565b8252918301919083019062000adf565b979650505050505050565b600082601f83011262000b2257600080fd5b620009368383356020850162000987565b6000806000806000806000610120888a03121562000b5057600080fd5b873567ffffffffffffffff8082111562000b6957600080fd5b818a0191508a601f83011262000b7e57600080fd5b62000b8f8b83356020850162000987565b985062000b9f60208b01620009e5565b975060408a0135965062000bb78b60608c01620009f6565b955060c08a013591508082111562000bce57600080fd5b62000bdc8b838c0162000a7c565b945062000bec60e08b0162000904565b93506101008a013591508082111562000c0457600080fd5b5062000c138a828b0162000b10565b91505092959891949750929550565b600081518084526020808501945080840160005b8381101562000c5d5781516001600160a01b03168752958201959082019060010162000c36565b509495945050505050565b60208152600062000936602083018462000c22565b60006020828403121562000c9057600080fd5b5035919050565b634e487b7160e01b600052603260045260246000fd5b6000815180845260005b8181101562000cd55760208185018101518683018201520162000cb7565b8181111562000ce8576000602083870101525b50601f01601f19169290920160200192915050565b600061012080835262000d138184018d62000cad565b8b15156020850152604084018b905260ff8a811660608601528981166080860152881660a08501526001600160a01b0387811660c0860152861660e0850152838103610100850152905062000d69818562000cad565b9c9b505050505050505050505050565b60006020828403121562000d8c57600080fd5b81516200093681620008eb565b8060005b600481101562000dc75781516001600160a01b031684526020938401939091019060010162000d9d565b50505050565b6001600160a01b038816815261018060208083018290526000919062000df68483018b62000cad565b91508815156040850152876060850152608084018760005b600381101562000e3057815160ff168352918301919083019060010162000e0e565b5050505062000e4360e084018662000d99565b82810361016084015262000e58818562000c22565b9a9950505050505050505050565b600060001982141562000e8957634e487b7160e01b600052601160045260246000fd5b5060010190565b6001600160a01b038416815260606020820181905260009062000eb69083018562000cad565b9050826040830152949350505050565b60006020828403121562000ed957600080fd5b505191905056fe60806040523480156200001157600080fd5b50604051620024cf380380620024cf833981016040819052620000349162000336565b600082600260200201516001600160a01b031688888888888888604051602401620000669796959493929190620004c9565b60408051601f198184030181529181526020820180516001600160e01b03166382856ce160e01b179052516200009d91906200057e565b600060405180830381855af49150503d8060008114620000da576040519150601f19603f3d011682016040523d82523d6000602084013e620000df565b606091505b5050905080620000f6576040513d806000833e8082fd5b50505050505050506200059c565b80516001600160a01b03811681146200011c57600080fd5b919050565b634e487b7160e01b600052604160045260246000fd5b604051601f8201601f191681016001600160401b038111828210171562000162576200016262000121565b604052919050565b60005b83811015620001875781810151838201526020016200016d565b8381111562000197576000848401525b50505050565b805180151581146200011c57600080fd5b600082601f830112620001c057600080fd5b604051606081016001600160401b0381118282101715620001e557620001e562000121565b604052806060840185811115620001fb57600080fd5b845b818110156200022857805160ff81168114620002195760008081fd5b835260209283019201620001fd565b509195945050505050565b600082601f8301126200024557600080fd5b604051608081016001600160401b03811182821017156200026a576200026a62000121565b6040528060808401858111156200028057600080fd5b845b818110156200022857620002968162000104565b83526020928301920162000282565b600082601f830112620002b757600080fd5b815160206001600160401b03821115620002d557620002d562000121565b8160051b620002e682820162000137565b92835284810182019282810190878511156200030157600080fd5b83870192505b848310156200032b576200031b8362000104565b8252918301919083019062000307565b979650505050505050565b6000806000806000806000610180888a0312156200035357600080fd5b6200035e8862000104565b60208901519097506001600160401b03808211156200037c57600080fd5b818a0191508a601f8301126200039157600080fd5b815181811115620003a657620003a662000121565b620003bb601f8201601f191660200162000137565b8181528c6020838601011115620003d157600080fd5b620003e48260208301602087016200016a565b9850620003f6905060408b016200019d565b965060608a015195506200040e8b60808c01620001ae565b94506200041f8b60e08c0162000233565b93506101608a01519150808211156200043757600080fd5b50620004468a828b01620002a5565b91505092959891949750929550565b8060005b6004811015620001975781516001600160a01b031684526020938401939091019060010162000459565b600081518084526020808501945080840160005b83811015620004be5781516001600160a01b03168752958201959082019060010162000497565b509495945050505050565b6001600160a01b0388168152610180602080830182905288519183018290526000916101a0919062000501818487018d85016200016a565b891515604086015260608501899052601f01601f19168401608085018860005b60038110156200054357815160ff168352918401919084019060010162000521565b5050506200055560e086018862000455565b82858203016101608601526200056e8382018762000483565b9c9b505050505050505050505050565b60008251620005928184602087016200016a565b9190910192915050565b611f2380620005ac6000396000f3fe608060405234801561001057600080fd5b50600436106102115760003560e01c806370acb76111610125578063b4c62192116100ad578063cb85669c1161007c578063cb85669c14610515578063de5ab14e1461053d578063e68777d714610550578063e810a58e14610562578063f00d62741461057757600080fd5b8063b4c6219214610475578063baa4d5e91461048a578063c2b3aa08146104d0578063c347d2fd146104f357600080fd5b80639360bfad116100f45780639360bfad1461041257806396a3dd84146104255780639c630a8814610447578063a19a5f501461045a578063a693649a1461046d57600080fd5b806370acb761146103b757806370ff918c146103ca5780637c638548146103ea57806381cf22d8146103fd57600080fd5b806322b4081c116101a857806350f7308a1161017757806350f7308a1461033957806359ca2d03146103595780635aadd4141461036e5780635f3d99b3146103835780636c2f34e7146103a457600080fd5b806322b4081c146102dc5780632a57ef841461030057806331a0afa7146103135780633a70693d1461032657600080fd5b806319a50f49116101e457806319a50f49146102a05780631d5fd3ca146102ad5780631f50dd27146102b65780632266e1bc146102c957600080fd5b806304f17a9b14610216578063052f9b0a1461023c5780631343e9a514610267578063152de3b91461028d575b600080fd5b6102296102243660046114fc565b61058d565b6040519081526020015b60405180910390f35b60075461024f906001600160a01b031681565b6040516001600160a01b039091168152602001610233565b60015461027b906301000000900460ff1681565b60405160ff9091168152602001610233565b61022961029b36600461155b565b610647565b60015461027b9060ff1681565b61022960045481565b60085461024f906001600160a01b031681565b6102296102d73660046114fc565b6106a9565b6102ef6102ea3660046115cb565b610709565b604051610233959493929190611640565b61022961030e366004611683565b6107e4565b610229610321366004611711565b6108a6565b61027b6103343660046115cb565b61096e565b6102296103473660046117c3565b60096020526000908152604090205481565b610361610992565b60405161023391906117e5565b610376610a20565b60405161023391906117f8565b6103966103913660046115cb565b610b39565b604051610233929190611886565b60055461024f906001600160a01b031681565b6102296103c53660046118a9565b610c28565b6102296103d83660046117c3565b600a6020526000908152604090205481565b6102296103f83660046114fc565b610ce7565b61041061040b366004611908565b610d47565b005b60065461024f906001600160a01b031681565b6104386104333660046115cb565b610e04565b60405161023393929190611956565b60015461027b9062010000900460ff1681565b61022961046836600461198c565b610ecf565b601054610229565b61047d610f2d565b6040516102339190611a4c565b61049d6104983660046115cb565b6110b2565b604080516001600160a01b0395861681526020810194909452918416918301919091529091166060820152608001610233565b6104e36104de366004611b21565b6110fa565b6040519015158152602001610233565b610506610501366004611b86565b6111bc565b60405161023393929190611bb2565b6105286105233660046115cb565b611279565b60405161023399989796959493929190611bde565b61022961054b366004611c46565b611378565b60015461027b90610100900460ff1681565b60015461027b90640100000000900460ff1681565b6001546104e39065010000000000900460ff1681565b60025460405160009182916001600160a01b03909116906105b8908890889088908890602401611c98565b60408051601f198184030181529181526020820180516001600160e01b03166304f17a9b60e01b179052516105ed9190611cd0565b600060405180830381855af49150503d8060008114610628576040519150601f19603f3d011682016040523d82523d6000602084013e61062d565b606091505b505090506040513d806000833e82610643578082fd5b8082f35b60025460405160009182916001600160a01b03909116906106749089908990899089908990602401611cec565b60408051601f198184030181529181526020820180516001600160e01b031663152de3b960e01b179052516105ed9190611cd0565b60025460405160009182916001600160a01b03909116906106d4908890889088908890602401611c98565b60408051601f198184030181529181526020820180516001600160e01b0316630899b86f60e21b179052516105ed9190611cd0565b6010818154811061071957600080fd5b6000918252602090912060049091020180546001820180546001600160a01b0390921693509061074890611d31565b80601f016020809104026020016040519081016040528092919081815260200182805461077490611d31565b80156107c15780601f10610796576101008083540402835291602001916107c1565b820191906000526020600020905b8154815290600101906020018083116107a457829003601f168201915b50505050600283015460039093015491929160ff80821692506101009091041685565b60025460405160009182916001600160a01b039091169061080f908890889088908890602401611d6c565b60408051601f198184030181529181526020820180516001600160e01b0316630a95fbe160e21b179052516108449190611cd0565b600060405180830381855af49150503d806000811461087f576040519150601f19603f3d011682016040523d82523d6000602084013e610884565b606091505b505090506040513d806000833e8261089a578082fd5b50519695505050505050565b60025460405160009182916001600160a01b03909116906108d5908a908a908a908a908a908a90602401611db3565b60408051601f198184030181529181526020820180516001600160e01b03166331a0afa760e01b1790525161090a9190611cd0565b600060405180830381855af49150503d8060008114610945576040519150601f19603f3d011682016040523d82523d6000602084013e61094a565b606091505b505090506040513d806000833e82610960578082fd5b505198975050505050505050565b600f818154811061097e57600080fd5b60009182526020909120015460ff16905081565b6000805461099f90611d31565b80601f01602080910402602001604051908101604052809291908181526020018280546109cb90611d31565b8015610a185780601f106109ed57610100808354040283529160200191610a18565b820191906000526020600020905b8154815290600101906020018083116109fb57829003601f168201915b505050505081565b6060600d805480602002602001604051908101604052809291908181526020016000905b82821015610b3057600084815260209081902060408051606081019091526003850290910180546001600160a01b031682526001810180549293919291840191610a8d90611d31565b80601f0160208091040260200160405190810160405280929190818152602001828054610ab990611d31565b8015610b065780601f10610adb57610100808354040283529160200191610b06565b820191906000526020600020905b815481529060010190602001808311610ae957829003601f168201915b50505091835250506002919091015460ff1615156020918201529082526001929092019101610a44565b50505050905090565b6002546040516024810183905260009160609183916001600160a01b03169060440160408051601f198184030181529181526020820180516001600160e01b0316635f3d99b360e01b17905251610b909190611cd0565b600060405180830381855af49150503d8060008114610bcb576040519150601f19603f3d011682016040523d82523d6000602084013e610bd0565b606091505b5050905080610be6576040513d806000833e8082fd5b60016040518060400160405280601981526020017f537563636573732065786563757465642070726f706f73616c000000000000008152509250925050915091565b60025460405160009182916001600160a01b0390911690610c5190879087908790602401611e18565b60408051601f198184030181529181526020820180516001600160e01b03166370acb76160e01b17905251610c869190611cd0565b600060405180830381855af49150503d8060008114610cc1576040519150601f19603f3d011682016040523d82523d6000602084013e610cc6565b606091505b505090506040513d806000833e82610cdc578082fd5b505195945050505050565b60025460405160009182916001600160a01b0390911690610d12908890889088908890602401611c98565b60408051601f198184030181529181526020820180516001600160e01b0316630f8c70a960e31b179052516108449190611cd0565b600154604051600091660100000000000090046001600160a01b031690610d749085908590602401611886565b60408051601f198184030181529181526020820180516001600160e01b0316631039e45b60e31b17905251610da99190611cd0565b600060405180830381855af49150503d8060008114610de4576040519150601f19603f3d011682016040523d82523d6000602084013e610de9565b606091505b5050905080610dff576040513d806000833e8082fd5b505050565b600d8181548110610e1457600080fd5b6000918252602090912060039091020180546001820180546001600160a01b03909216935090610e4390611d31565b80601f0160208091040260200160405190810160405280929190818152602001828054610e6f90611d31565b8015610ebc5780601f10610e9157610100808354040283529160200191610ebc565b820191906000526020600020905b815481529060010190602001808311610e9f57829003601f168201915b5050506002909301549192505060ff1683565b60025460405160009182916001600160a01b0390911690610ef890879087908790602401611e44565b60408051601f198184030181529181526020820180516001600160e01b0316630a19a5f560e41b179052516105ed9190611cd0565b6060600c805480602002602001604051908101604052809291908181526020016000905b82821015610b305760008481526020908190206040805161012081019091526005850290910180546001600160a01b03811683529192909190830190600160a01b900460ff166008811115610fa857610fa8611a14565b6008811115610fb957610fb9611a14565b8152602001600182018054610fcd90611d31565b80601f0160208091040260200160405190810160405280929190818152602001828054610ff990611d31565b80156110465780601f1061101b57610100808354040283529160200191611046565b820191906000526020600020905b81548152906001019060200180831161102957829003601f168201915b50505091835250506002820154602080830191909152600383015460ff8082166040850152610100820481166060850152620100008204811615156080850152630100000090910416151560a083015260049092015460c0909101529082526001929092019101610f51565b600e81815481106110c257600080fd5b600091825260209091206004909102018054600182015460028301546003909301546001600160a01b03928316945090928216911684565b60025460405160009182916001600160a01b0390911690611125908890889088908890602401611e87565b60408051601f198184030181529181526020820180516001600160e01b0316631856754160e31b1790525161115a9190611cd0565b600060405180830381855af49150503d8060008114611195576040519150601f19603f3d011682016040523d82523d6000602084013e61119a565b606091505b50509050806111b0576040513d806000833e8082fd5b50600195945050505050565b600b6020908152600092835260408084209091529082529020805460018201805460ff80841694610100909404169291906111f690611d31565b80601f016020809104026020016040519081016040528092919081815260200182805461122290611d31565b801561126f5780601f106112445761010080835404028352916020019161126f565b820191906000526020600020905b81548152906001019060200180831161125257829003601f168201915b5050505050905083565b600c818154811061128957600080fd5b6000918252602090912060059091020180546001820180546001600160a01b0383169450600160a01b90920460ff1692916112c390611d31565b80601f01602080910402602001604051908101604052809291908181526020018280546112ef90611d31565b801561133c5780601f106113115761010080835404028352916020019161133c565b820191906000526020600020905b81548152906001019060200180831161131f57829003601f168201915b505050600284015460038501546004909501549394909360ff808316945061010083048116935062010000830481169263010000009004169089565b60025460405160009182916001600160a01b03909116906113a59089908990899089908990602401611eba565b60408051601f198184030181529181526020820180516001600160e01b0316636f2d58a760e11b179052516113da9190611cd0565b600060405180830381855af49150503d8060008114611415576040519150601f19603f3d011682016040523d82523d6000602084013e61141a565b606091505b505090506040513d806000833e82611430578082fd5b5051979650505050505050565b80356001600160a01b038116811461145457600080fd5b919050565b634e487b7160e01b600052604160045260246000fd5b600082601f83011261148057600080fd5b813567ffffffffffffffff8082111561149b5761149b611459565b604051601f8301601f19908116603f011681019082821181831017156114c3576114c3611459565b816040528381528660208588010111156114dc57600080fd5b836020870160208301376000602085830101528094505050505092915050565b6000806000806080858703121561151257600080fd5b61151b8561143d565b935060208501359250604085013567ffffffffffffffff81111561153e57600080fd5b61154a8782880161146f565b949793965093946060013593505050565b600080600080600060a0868803121561157357600080fd5b61157c8661143d565b945061158a6020870161143d565b935060408601359250606086013567ffffffffffffffff8111156115ad57600080fd5b6115b98882890161146f565b95989497509295608001359392505050565b6000602082840312156115dd57600080fd5b5035919050565b60005b838110156115ff5781810151838201526020016115e7565b8381111561160e576000848401525b50505050565b6000815180845261162c8160208601602086016115e4565b601f01601f19169290920160200192915050565b6001600160a01b038616815260a06020820181905260009061166490830187611614565b6040830195909552509115156060830152151560809091015292915050565b6000806000806080858703121561169957600080fd5b6116a28561143d565b9350602085013567ffffffffffffffff808211156116bf57600080fd5b6116cb8883890161146f565b94506040870135935060608701359150808211156116e857600080fd5b506116f58782880161146f565b91505092959194509250565b8035801515811461145457600080fd5b60008060008060008060c0878903121561172a57600080fd5b6117338761143d565b9550602087013567ffffffffffffffff8082111561175057600080fd5b61175c8a838b0161146f565b9650604089013591508082111561177257600080fd5b61177e8a838b0161146f565b955061178c60608a01611701565b94506080890135935060a08901359150808211156117a957600080fd5b506117b689828a0161146f565b9150509295509295509295565b6000602082840312156117d557600080fd5b6117de8261143d565b9392505050565b6020815260006117de6020830184611614565b60006020808301818452808551808352604092508286019150828160051b87010184880160005b8381101561187857888303603f19018552815180516001600160a01b031684528781015160608986018190529061185882870182611614565b92890151151595890195909552509487019492509086019060010161181f565b509098975050505050505050565b82151581526040602082015260006118a16040830184611614565b949350505050565b6000806000606084860312156118be57600080fd5b833560ff811681146118cf57600080fd5b9250602084013567ffffffffffffffff8111156118eb57600080fd5b6118f78682870161146f565b925050604084013590509250925092565b6000806040838503121561191b57600080fd5b61192483611701565b9150602083013567ffffffffffffffff81111561194057600080fd5b61194c8582860161146f565b9150509250929050565b6001600160a01b038416815260606020820181905260009061197a90830185611614565b90508215156040830152949350505050565b6000806000606084860312156119a157600080fd5b833567ffffffffffffffff808211156119b957600080fd5b6119c58783880161146f565b945060208601359150808211156119db57600080fd5b6119e78783880161146f565b935060408601359150808211156119fd57600080fd5b50611a0a8682870161146f565b9150509250925092565b634e487b7160e01b600052602160045260246000fd5b60098110611a4857634e487b7160e01b600052602160045260246000fd5b9052565b60006020808301818452808551808352604092508286019150828160051b87010184880160005b8381101561187857888303603f19018552815180516001600160a01b0316845261012088820151611aa68a870182611a2a565b50878201518189870152611abc82870182611614565b9150506060808301518187015250608080830151611ade8288018260ff169052565b505060a08281015160ff169086015260c08083015115159086015260e0808301511515908601526101009182015191909401529386019390860190600101611a73565b60008060008060808587031215611b3757600080fd5b84359350611b4760208601611701565b9250604085013567ffffffffffffffff80821115611b6457600080fd5b611b708883890161146f565b935060608701359150808211156116e857600080fd5b60008060408385031215611b9957600080fd5b82359150611ba96020840161143d565b90509250929050565b83151581528215156020820152606060408201526000611bd56060830184611614565b95945050505050565b6001600160a01b038a1681526000610120611bfc602084018c611a2a565b806040840152611c0e8184018b611614565b6060840199909952505060ff95861660808201529390941660a084015290151560c0830152151560e082015261010001529392505050565b600080600080600060a08688031215611c5e57600080fd5b611c678661143d565b945060208601359350611c7c6040870161143d565b9250606086013567ffffffffffffffff8111156115ad57600080fd5b60018060a01b0385168152836020820152608060408201526000611cbf6080830185611614565b905082606083015295945050505050565b60008251611ce28184602087016115e4565b9190910192915050565b6001600160a01b038681168252851660208201526040810184905260a060608201819052600090611d1f90830185611614565b90508260808301529695505050505050565b600181811c90821680611d4557607f821691505b60208210811415611d6657634e487b7160e01b600052602260045260246000fd5b50919050565b6001600160a01b0385168152608060208201819052600090611d9090830186611614565b8460408401528281036060840152611da88185611614565b979650505050505050565b6001600160a01b038716815260c060208201819052600090611dd790830188611614565b8281036040840152611de98188611614565b9050851515606084015284608084015282810360a0840152611e0b8185611614565b9998505050505050505050565b60ff84168152606060208201526000611e346060830185611614565b9050826040830152949350505050565b606081526000611e576060830186611614565b8281036020840152611e698186611614565b90508281036040840152611e7d8185611614565b9695505050505050565b8481528315156020820152608060408201526000611ea86080830185611614565b8281036060840152611da88185611614565b6001600160a01b038681168252602082018690528416604082015260a060608201819052600090611d1f9083018561161456fea2646970667358221220bf561c37e59b60c37adf77b75bfd0a2caf17e34b2d9531d85a78a8a498a56cfc64736f6c634300080c0033a26469706673582212208eb0e84d4a79d44d9e957deaff21b945c3cc6d914305904e25955cce9b3a274d64736f6c634300080c003360806040523480156200001157600080fd5b50604051620024cf380380620024cf833981016040819052620000349162000336565b600082600260200201516001600160a01b031688888888888888604051602401620000669796959493929190620004c9565b60408051601f198184030181529181526020820180516001600160e01b03166382856ce160e01b179052516200009d91906200057e565b600060405180830381855af49150503d8060008114620000da576040519150601f19603f3d011682016040523d82523d6000602084013e620000df565b606091505b5050905080620000f6576040513d806000833e8082fd5b50505050505050506200059c565b80516001600160a01b03811681146200011c57600080fd5b919050565b634e487b7160e01b600052604160045260246000fd5b604051601f8201601f191681016001600160401b038111828210171562000162576200016262000121565b604052919050565b60005b83811015620001875781810151838201526020016200016d565b8381111562000197576000848401525b50505050565b805180151581146200011c57600080fd5b600082601f830112620001c057600080fd5b604051606081016001600160401b0381118282101715620001e557620001e562000121565b604052806060840185811115620001fb57600080fd5b845b818110156200022857805160ff81168114620002195760008081fd5b835260209283019201620001fd565b509195945050505050565b600082601f8301126200024557600080fd5b604051608081016001600160401b03811182821017156200026a576200026a62000121565b6040528060808401858111156200028057600080fd5b845b818110156200022857620002968162000104565b83526020928301920162000282565b600082601f830112620002b757600080fd5b815160206001600160401b03821115620002d557620002d562000121565b8160051b620002e682820162000137565b92835284810182019282810190878511156200030157600080fd5b83870192505b848310156200032b576200031b8362000104565b8252918301919083019062000307565b979650505050505050565b6000806000806000806000610180888a0312156200035357600080fd5b6200035e8862000104565b60208901519097506001600160401b03808211156200037c57600080fd5b818a0191508a601f8301126200039157600080fd5b815181811115620003a657620003a662000121565b620003bb601f8201601f191660200162000137565b8181528c6020838601011115620003d157600080fd5b620003e48260208301602087016200016a565b9850620003f6905060408b016200019d565b965060608a015195506200040e8b60808c01620001ae565b94506200041f8b60e08c0162000233565b93506101608a01519150808211156200043757600080fd5b50620004468a828b01620002a5565b91505092959891949750929550565b8060005b6004811015620001975781516001600160a01b031684526020938401939091019060010162000459565b600081518084526020808501945080840160005b83811015620004be5781516001600160a01b03168752958201959082019060010162000497565b509495945050505050565b6001600160a01b0388168152610180602080830182905288519183018290526000916101a0919062000501818487018d85016200016a565b891515604086015260608501899052601f01601f19168401608085018860005b60038110156200054357815160ff168352918401919084019060010162000521565b5050506200055560e086018862000455565b82858203016101608601526200056e8382018762000483565b9c9b505050505050505050505050565b60008251620005928184602087016200016a565b9190910192915050565b611f2380620005ac6000396000f3fe608060405234801561001057600080fd5b50600436106102115760003560e01c806370acb76111610125578063b4c62192116100ad578063cb85669c1161007c578063cb85669c14610515578063de5ab14e1461053d578063e68777d714610550578063e810a58e14610562578063f00d62741461057757600080fd5b8063b4c6219214610475578063baa4d5e91461048a578063c2b3aa08146104d0578063c347d2fd146104f357600080fd5b80639360bfad116100f45780639360bfad1461041257806396a3dd84146104255780639c630a8814610447578063a19a5f501461045a578063a693649a1461046d57600080fd5b806370acb761146103b757806370ff918c146103ca5780637c638548146103ea57806381cf22d8146103fd57600080fd5b806322b4081c116101a857806350f7308a1161017757806350f7308a1461033957806359ca2d03146103595780635aadd4141461036e5780635f3d99b3146103835780636c2f34e7146103a457600080fd5b806322b4081c146102dc5780632a57ef841461030057806331a0afa7146103135780633a70693d1461032657600080fd5b806319a50f49116101e457806319a50f49146102a05780631d5fd3ca146102ad5780631f50dd27146102b65780632266e1bc146102c957600080fd5b806304f17a9b14610216578063052f9b0a1461023c5780631343e9a514610267578063152de3b91461028d575b600080fd5b6102296102243660046114fc565b61058d565b6040519081526020015b60405180910390f35b60075461024f906001600160a01b031681565b6040516001600160a01b039091168152602001610233565b60015461027b906301000000900460ff1681565b60405160ff9091168152602001610233565b61022961029b36600461155b565b610647565b60015461027b9060ff1681565b61022960045481565b60085461024f906001600160a01b031681565b6102296102d73660046114fc565b6106a9565b6102ef6102ea3660046115cb565b610709565b604051610233959493929190611640565b61022961030e366004611683565b6107e4565b610229610321366004611711565b6108a6565b61027b6103343660046115cb565b61096e565b6102296103473660046117c3565b60096020526000908152604090205481565b610361610992565b60405161023391906117e5565b610376610a20565b60405161023391906117f8565b6103966103913660046115cb565b610b39565b604051610233929190611886565b60055461024f906001600160a01b031681565b6102296103c53660046118a9565b610c28565b6102296103d83660046117c3565b600a6020526000908152604090205481565b6102296103f83660046114fc565b610ce7565b61041061040b366004611908565b610d47565b005b60065461024f906001600160a01b031681565b6104386104333660046115cb565b610e04565b60405161023393929190611956565b60015461027b9062010000900460ff1681565b61022961046836600461198c565b610ecf565b601054610229565b61047d610f2d565b6040516102339190611a4c565b61049d6104983660046115cb565b6110b2565b604080516001600160a01b0395861681526020810194909452918416918301919091529091166060820152608001610233565b6104e36104de366004611b21565b6110fa565b6040519015158152602001610233565b610506610501366004611b86565b6111bc565b60405161023393929190611bb2565b6105286105233660046115cb565b611279565b60405161023399989796959493929190611bde565b61022961054b366004611c46565b611378565b60015461027b90610100900460ff1681565b60015461027b90640100000000900460ff1681565b6001546104e39065010000000000900460ff1681565b60025460405160009182916001600160a01b03909116906105b8908890889088908890602401611c98565b60408051601f198184030181529181526020820180516001600160e01b03166304f17a9b60e01b179052516105ed9190611cd0565b600060405180830381855af49150503d8060008114610628576040519150601f19603f3d011682016040523d82523d6000602084013e61062d565b606091505b505090506040513d806000833e82610643578082fd5b8082f35b60025460405160009182916001600160a01b03909116906106749089908990899089908990602401611cec565b60408051601f198184030181529181526020820180516001600160e01b031663152de3b960e01b179052516105ed9190611cd0565b60025460405160009182916001600160a01b03909116906106d4908890889088908890602401611c98565b60408051601f198184030181529181526020820180516001600160e01b0316630899b86f60e21b179052516105ed9190611cd0565b6010818154811061071957600080fd5b6000918252602090912060049091020180546001820180546001600160a01b0390921693509061074890611d31565b80601f016020809104026020016040519081016040528092919081815260200182805461077490611d31565b80156107c15780601f10610796576101008083540402835291602001916107c1565b820191906000526020600020905b8154815290600101906020018083116107a457829003601f168201915b50505050600283015460039093015491929160ff80821692506101009091041685565b60025460405160009182916001600160a01b039091169061080f908890889088908890602401611d6c565b60408051601f198184030181529181526020820180516001600160e01b0316630a95fbe160e21b179052516108449190611cd0565b600060405180830381855af49150503d806000811461087f576040519150601f19603f3d011682016040523d82523d6000602084013e610884565b606091505b505090506040513d806000833e8261089a578082fd5b50519695505050505050565b60025460405160009182916001600160a01b03909116906108d5908a908a908a908a908a908a90602401611db3565b60408051601f198184030181529181526020820180516001600160e01b03166331a0afa760e01b1790525161090a9190611cd0565b600060405180830381855af49150503d8060008114610945576040519150601f19603f3d011682016040523d82523d6000602084013e61094a565b606091505b505090506040513d806000833e82610960578082fd5b505198975050505050505050565b600f818154811061097e57600080fd5b60009182526020909120015460ff16905081565b6000805461099f90611d31565b80601f01602080910402602001604051908101604052809291908181526020018280546109cb90611d31565b8015610a185780601f106109ed57610100808354040283529160200191610a18565b820191906000526020600020905b8154815290600101906020018083116109fb57829003601f168201915b505050505081565b6060600d805480602002602001604051908101604052809291908181526020016000905b82821015610b3057600084815260209081902060408051606081019091526003850290910180546001600160a01b031682526001810180549293919291840191610a8d90611d31565b80601f0160208091040260200160405190810160405280929190818152602001828054610ab990611d31565b8015610b065780601f10610adb57610100808354040283529160200191610b06565b820191906000526020600020905b815481529060010190602001808311610ae957829003601f168201915b50505091835250506002919091015460ff1615156020918201529082526001929092019101610a44565b50505050905090565b6002546040516024810183905260009160609183916001600160a01b03169060440160408051601f198184030181529181526020820180516001600160e01b0316635f3d99b360e01b17905251610b909190611cd0565b600060405180830381855af49150503d8060008114610bcb576040519150601f19603f3d011682016040523d82523d6000602084013e610bd0565b606091505b5050905080610be6576040513d806000833e8082fd5b60016040518060400160405280601981526020017f537563636573732065786563757465642070726f706f73616c000000000000008152509250925050915091565b60025460405160009182916001600160a01b0390911690610c5190879087908790602401611e18565b60408051601f198184030181529181526020820180516001600160e01b03166370acb76160e01b17905251610c869190611cd0565b600060405180830381855af49150503d8060008114610cc1576040519150601f19603f3d011682016040523d82523d6000602084013e610cc6565b606091505b505090506040513d806000833e82610cdc578082fd5b505195945050505050565b60025460405160009182916001600160a01b0390911690610d12908890889088908890602401611c98565b60408051601f198184030181529181526020820180516001600160e01b0316630f8c70a960e31b179052516108449190611cd0565b600154604051600091660100000000000090046001600160a01b031690610d749085908590602401611886565b60408051601f198184030181529181526020820180516001600160e01b0316631039e45b60e31b17905251610da99190611cd0565b600060405180830381855af49150503d8060008114610de4576040519150601f19603f3d011682016040523d82523d6000602084013e610de9565b606091505b5050905080610dff576040513d806000833e8082fd5b505050565b600d8181548110610e1457600080fd5b6000918252602090912060039091020180546001820180546001600160a01b03909216935090610e4390611d31565b80601f0160208091040260200160405190810160405280929190818152602001828054610e6f90611d31565b8015610ebc5780601f10610e9157610100808354040283529160200191610ebc565b820191906000526020600020905b815481529060010190602001808311610e9f57829003601f168201915b5050506002909301549192505060ff1683565b60025460405160009182916001600160a01b0390911690610ef890879087908790602401611e44565b60408051601f198184030181529181526020820180516001600160e01b0316630a19a5f560e41b179052516105ed9190611cd0565b6060600c805480602002602001604051908101604052809291908181526020016000905b82821015610b305760008481526020908190206040805161012081019091526005850290910180546001600160a01b03811683529192909190830190600160a01b900460ff166008811115610fa857610fa8611a14565b6008811115610fb957610fb9611a14565b8152602001600182018054610fcd90611d31565b80601f0160208091040260200160405190810160405280929190818152602001828054610ff990611d31565b80156110465780601f1061101b57610100808354040283529160200191611046565b820191906000526020600020905b81548152906001019060200180831161102957829003601f168201915b50505091835250506002820154602080830191909152600383015460ff8082166040850152610100820481166060850152620100008204811615156080850152630100000090910416151560a083015260049092015460c0909101529082526001929092019101610f51565b600e81815481106110c257600080fd5b600091825260209091206004909102018054600182015460028301546003909301546001600160a01b03928316945090928216911684565b60025460405160009182916001600160a01b0390911690611125908890889088908890602401611e87565b60408051601f198184030181529181526020820180516001600160e01b0316631856754160e31b1790525161115a9190611cd0565b600060405180830381855af49150503d8060008114611195576040519150601f19603f3d011682016040523d82523d6000602084013e61119a565b606091505b50509050806111b0576040513d806000833e8082fd5b50600195945050505050565b600b6020908152600092835260408084209091529082529020805460018201805460ff80841694610100909404169291906111f690611d31565b80601f016020809104026020016040519081016040528092919081815260200182805461122290611d31565b801561126f5780601f106112445761010080835404028352916020019161126f565b820191906000526020600020905b81548152906001019060200180831161125257829003601f168201915b5050505050905083565b600c818154811061128957600080fd5b6000918252602090912060059091020180546001820180546001600160a01b0383169450600160a01b90920460ff1692916112c390611d31565b80601f01602080910402602001604051908101604052809291908181526020018280546112ef90611d31565b801561133c5780601f106113115761010080835404028352916020019161133c565b820191906000526020600020905b81548152906001019060200180831161131f57829003601f168201915b505050600284015460038501546004909501549394909360ff808316945061010083048116935062010000830481169263010000009004169089565b60025460405160009182916001600160a01b03909116906113a59089908990899089908990602401611eba565b60408051601f198184030181529181526020820180516001600160e01b0316636f2d58a760e11b179052516113da9190611cd0565b600060405180830381855af49150503d8060008114611415576040519150601f19603f3d011682016040523d82523d6000602084013e61141a565b606091505b505090506040513d806000833e82611430578082fd5b5051979650505050505050565b80356001600160a01b038116811461145457600080fd5b919050565b634e487b7160e01b600052604160045260246000fd5b600082601f83011261148057600080fd5b813567ffffffffffffffff8082111561149b5761149b611459565b604051601f8301601f19908116603f011681019082821181831017156114c3576114c3611459565b816040528381528660208588010111156114dc57600080fd5b836020870160208301376000602085830101528094505050505092915050565b6000806000806080858703121561151257600080fd5b61151b8561143d565b935060208501359250604085013567ffffffffffffffff81111561153e57600080fd5b61154a8782880161146f565b949793965093946060013593505050565b600080600080600060a0868803121561157357600080fd5b61157c8661143d565b945061158a6020870161143d565b935060408601359250606086013567ffffffffffffffff8111156115ad57600080fd5b6115b98882890161146f565b95989497509295608001359392505050565b6000602082840312156115dd57600080fd5b5035919050565b60005b838110156115ff5781810151838201526020016115e7565b8381111561160e576000848401525b50505050565b6000815180845261162c8160208601602086016115e4565b601f01601f19169290920160200192915050565b6001600160a01b038616815260a06020820181905260009061166490830187611614565b6040830195909552509115156060830152151560809091015292915050565b6000806000806080858703121561169957600080fd5b6116a28561143d565b9350602085013567ffffffffffffffff808211156116bf57600080fd5b6116cb8883890161146f565b94506040870135935060608701359150808211156116e857600080fd5b506116f58782880161146f565b91505092959194509250565b8035801515811461145457600080fd5b60008060008060008060c0878903121561172a57600080fd5b6117338761143d565b9550602087013567ffffffffffffffff8082111561175057600080fd5b61175c8a838b0161146f565b9650604089013591508082111561177257600080fd5b61177e8a838b0161146f565b955061178c60608a01611701565b94506080890135935060a08901359150808211156117a957600080fd5b506117b689828a0161146f565b9150509295509295509295565b6000602082840312156117d557600080fd5b6117de8261143d565b9392505050565b6020815260006117de6020830184611614565b60006020808301818452808551808352604092508286019150828160051b87010184880160005b8381101561187857888303603f19018552815180516001600160a01b031684528781015160608986018190529061185882870182611614565b92890151151595890195909552509487019492509086019060010161181f565b509098975050505050505050565b82151581526040602082015260006118a16040830184611614565b949350505050565b6000806000606084860312156118be57600080fd5b833560ff811681146118cf57600080fd5b9250602084013567ffffffffffffffff8111156118eb57600080fd5b6118f78682870161146f565b925050604084013590509250925092565b6000806040838503121561191b57600080fd5b61192483611701565b9150602083013567ffffffffffffffff81111561194057600080fd5b61194c8582860161146f565b9150509250929050565b6001600160a01b038416815260606020820181905260009061197a90830185611614565b90508215156040830152949350505050565b6000806000606084860312156119a157600080fd5b833567ffffffffffffffff808211156119b957600080fd5b6119c58783880161146f565b945060208601359150808211156119db57600080fd5b6119e78783880161146f565b935060408601359150808211156119fd57600080fd5b50611a0a8682870161146f565b9150509250925092565b634e487b7160e01b600052602160045260246000fd5b60098110611a4857634e487b7160e01b600052602160045260246000fd5b9052565b60006020808301818452808551808352604092508286019150828160051b87010184880160005b8381101561187857888303603f19018552815180516001600160a01b0316845261012088820151611aa68a870182611a2a565b50878201518189870152611abc82870182611614565b9150506060808301518187015250608080830151611ade8288018260ff169052565b505060a08281015160ff169086015260c08083015115159086015260e0808301511515908601526101009182015191909401529386019390860190600101611a73565b60008060008060808587031215611b3757600080fd5b84359350611b4760208601611701565b9250604085013567ffffffffffffffff80821115611b6457600080fd5b611b708883890161146f565b935060608701359150808211156116e857600080fd5b60008060408385031215611b9957600080fd5b82359150611ba96020840161143d565b90509250929050565b83151581528215156020820152606060408201526000611bd56060830184611614565b95945050505050565b6001600160a01b038a1681526000610120611bfc602084018c611a2a565b806040840152611c0e8184018b611614565b6060840199909952505060ff95861660808201529390941660a084015290151560c0830152151560e082015261010001529392505050565b600080600080600060a08688031215611c5e57600080fd5b611c678661143d565b945060208601359350611c7c6040870161143d565b9250606086013567ffffffffffffffff8111156115ad57600080fd5b60018060a01b0385168152836020820152608060408201526000611cbf6080830185611614565b905082606083015295945050505050565b60008251611ce28184602087016115e4565b9190910192915050565b6001600160a01b038681168252851660208201526040810184905260a060608201819052600090611d1f90830185611614565b90508260808301529695505050505050565b600181811c90821680611d4557607f821691505b60208210811415611d6657634e487b7160e01b600052602260045260246000fd5b50919050565b6001600160a01b0385168152608060208201819052600090611d9090830186611614565b8460408401528281036060840152611da88185611614565b979650505050505050565b6001600160a01b038716815260c060208201819052600090611dd790830188611614565b8281036040840152611de98188611614565b9050851515606084015284608084015282810360a0840152611e0b8185611614565b9998505050505050505050565b60ff84168152606060208201526000611e346060830185611614565b9050826040830152949350505050565b606081526000611e576060830186611614565b8281036020840152611e698186611614565b90508281036040840152611e7d8185611614565b9695505050505050565b8481528315156020820152608060408201526000611ea86080830185611614565b8281036060840152611da88185611614565b6001600160a01b038681168252602082018690528416604082015260a060608201819052600090611d1f9083018561161456fea2646970667358221220bf561c37e59b60c37adf77b75bfd0a2caf17e34b2d9531d85a78a8a498a56cfc64736f6c634300080c003316591a696fee5867425b3dee9fc0160a6c1baef77835bc3d204314106d639298",
  "bytecodeSha1": "da39a3ee5e6b4b0d3255bfef95601890afd80709",
  "compiler": {
    "evm_version": "istanbul",
    "optimizer": {
      "enabled": true,
      "runs": 200
    },
    "version": "0.8.12+commit.f00d7308"
  },
  "contractName": "CLFactory",
  "language": "Solidity",
  "natspec": {
    "author": "Leonardo Urrego",
    "details": "This contract is the only way to create CLH",
    "kind": "dev",
    "methods": {
      "CreateCLH(string,bool,bytes32,uint8[3],address[],address,bytes)": {
        "details": "Some parameters wil be ignored depending on the governance model",
        "notice": "Deploy a new CLHouse",
        "params": {
          "_ManagerWallets": "Whitelist of address for invitate as managers",
          "_govModel": "keccak256 hash of the governance model, see the __GOV_* constans",
          "_govRules": "Array for goverment rules see `enum gRule`",
          "_houseName": "Name of the CLH",
          "_housePrivate": "If is set to 1, the CLH is set to private"
        }
      },
      "GetHouseList()": {
        "notice": "Return the list of all houses created by the factory",
        "returns": {
          "_0": "Array with address houses"
        }
      },
      "GetHousesByUser(address)": {
        "notice": "List of membership houses of the one wallet address",
        "params": {
          "_walletAddr": "User wallet address"
        },
        "returns": {
          "_0": "Array with address houses"
        }
      },
      "GetInvitationsByUser(address)": {
        "notice": "List of houses that have an invitation pending for a specific wallet",
        "params": {
          "_walletAddr": "The user wallet address"
        },
        "returns": {
          "_0": "Array with address houses"
        }
      },
      "arrCLH(uint256)": {
        "notice": "Array to store all the created houses"
      },
      "constructor": {
        "details": "The constructor create a default CLH with the houseId #0",
        "notice": "Config the CLFactory with the CL Logic Contracts",
        "params": {
          "_CLLConstructorCLH": "Address Contract with the Constructor logic",
          "_CLLGovernance": "Address Contract Logic for governance",
          "_CLLUserManagement": "Address Contract Logic for user management"
        }
      },
      "mapCLHId(address)": {
        "notice": "Relation houseAddr with houseId"
      },
      "numCLH()": {
        "notice": "Store the number of houses created"
      }
    },
    "notice": "Config, create and deploy CLHouses",
    "title": "Crypto League House Factory",
    "version": 1
  },
  "opcodes": "PUSH1 0x80 PUSH1 0x40 MSTORE CALLVALUE DUP1 ISZERO PUSH3 0x11 JUMPI PUSH1 0x0 DUP1 REVERT JUMPDEST POP PUSH1 0x4 CALLDATASIZE LT PUSH3 0x87 JUMPI PUSH1 0x0 CALLDATALOAD PUSH1 0xE0 SHR DUP1 PUSH4 0x56EC9FFF GT PUSH3 0x62 JUMPI DUP1 PUSH4 0x56EC9FFF EQ PUSH3 0x110 JUMPI DUP1 PUSH4 0x7DDB31A3 EQ PUSH3 0x136 JUMPI DUP1 PUSH4 0xAC53C485 EQ PUSH3 0x14D JUMPI DUP1 PUSH4 0xEE7A7D1B EQ PUSH3 0x164 JUMPI PUSH1 0x0 DUP1 REVERT JUMPDEST DUP1 PUSH4 0x132DCCE7 EQ PUSH3 0x8C JUMPI DUP1 PUSH4 0x3195CE74 EQ PUSH3 0xAE JUMPI DUP1 PUSH4 0x535210DB EQ PUSH3 0xE0 JUMPI JUMPDEST PUSH1 0x0 DUP1 REVERT JUMPDEST PUSH3 0x96 PUSH3 0x16E JUMP JUMPDEST PUSH1 0x40 MLOAD PUSH3 0xA5 SWAP2 SWAP1 PUSH3 0x89C JUMP JUMPDEST PUSH1 0x40 MLOAD DUP1 SWAP2 SUB SWAP1 RETURN JUMPDEST PUSH3 0xD1 PUSH3 0xBF CALLDATASIZE PUSH1 0x4 PUSH3 0x916 JUMP JUMPDEST PUSH1 0x2 PUSH1 0x20 MSTORE PUSH1 0x0 SWAP1 DUP2 MSTORE PUSH1 0x40 SWAP1 KECCAK256 SLOAD DUP2 JUMP JUMPDEST PUSH1 0x40 MLOAD SWAP1 DUP2 MSTORE PUSH1 0x20 ADD PUSH3 0xA5 JUMP JUMPDEST PUSH3 0xF7 PUSH3 0xF1 CALLDATASIZE PUSH1 0x4 PUSH3 0xB33 JUMP JUMPDEST PUSH3 0x1D2 JUMP JUMPDEST PUSH1 0x40 MLOAD PUSH1 0x1 PUSH1 0x1 PUSH1 0xA0 SHL SUB SWAP1 SWAP2 AND DUP2 MSTORE PUSH1 0x20 ADD PUSH3 0xA5 JUMP JUMPDEST PUSH3 0x127 PUSH3 0x121 CALLDATASIZE PUSH1 0x4 PUSH3 0x916 JUMP JUMPDEST PUSH3 0x56A JUMP JUMPDEST PUSH1 0x40 MLOAD PUSH3 0xA5 SWAP2 SWAP1 PUSH3 0xC68 JUMP JUMPDEST PUSH3 0x127 PUSH3 0x147 CALLDATASIZE PUSH1 0x4 PUSH3 0x916 JUMP JUMPDEST PUSH3 0x6EB JUMP JUMPDEST PUSH3 0xF7 PUSH3 0x15E CALLDATASIZE PUSH1 0x4 PUSH3 0xC7D JUMP JUMPDEST PUSH3 0x863 JUMP JUMPDEST PUSH3 0xD1 PUSH1 0x1 SLOAD DUP2 JUMP JUMPDEST PUSH1 0x60 PUSH1 0x0 DUP1 SLOAD DUP1 PUSH1 0x20 MUL PUSH1 0x20 ADD PUSH1 0x40 MLOAD SWAP1 DUP2 ADD PUSH1 0x40 MSTORE DUP1 SWAP3 SWAP2 SWAP1 DUP2 DUP2 MSTORE PUSH1 0x20 ADD DUP3 DUP1 SLOAD DUP1 ISZERO PUSH3 0x1C8 JUMPI PUSH1 0x20 MUL DUP3 ADD SWAP2 SWAP1 PUSH1 0x0 MSTORE PUSH1 0x20 PUSH1 0x0 KECCAK256 SWAP1 JUMPDEST DUP2 SLOAD PUSH1 0x1 PUSH1 0x1 PUSH1 0xA0 SHL SUB AND DUP2 MSTORE PUSH1 0x1 SWAP1 SWAP2 ADD SWAP1 PUSH1 0x20 ADD DUP1 DUP4 GT PUSH3 0x1A9 JUMPI JUMPDEST POP POP POP POP POP SWAP1 POP SWAP1 JUMP JUMPDEST PUSH1 0x0 DUP1 CALLER PUSH32 0xB93889D934070956C00846F50F9A10A747BD194BBA2F2E78A86D0C02386FDB1 DUP9 EQ DUP1 PUSH3 0x224 JUMPI POP DUP8 PUSH32 0x16591A696FEE5867425B3DEE9FC0160A6C1BAEF77835BC3D204314106D639298 EQ JUMPDEST DUP1 PUSH3 0x24F JUMPI POP DUP8 PUSH32 0xA0786F6450D5FB3298B8425105C1B75E6E01A1FF86CDABEA29909CDB0B4C83A7 EQ JUMPDEST PUSH3 0x2A1 JUMPI PUSH1 0x40 MLOAD PUSH3 0x461BCD PUSH1 0xE5 SHL DUP2 MSTORE PUSH1 0x20 PUSH1 0x4 DUP3 ADD MSTORE PUSH1 0x17 PUSH1 0x24 DUP3 ADD MSTORE PUSH32 0x496E76616C696420476F7665726E616E63652054797065000000000000000000 PUSH1 0x44 DUP3 ADD MSTORE PUSH1 0x64 ADD JUMPDEST PUSH1 0x40 MLOAD DUP1 SWAP2 SUB SWAP1 REVERT JUMPDEST PUSH1 0x1 PUSH1 0x1 PUSH1 0xA0 SHL SUB DUP6 AND ISZERO PUSH3 0x41F JUMPI DUP4 MLOAD PUSH1 0x41 EQ PUSH3 0x304 JUMPI PUSH1 0x40 MLOAD PUSH3 0x461BCD PUSH1 0xE5 SHL DUP2 MSTORE PUSH1 0x20 PUSH1 0x4 DUP3 ADD MSTORE PUSH1 0x1F PUSH1 0x24 DUP3 ADD MSTORE PUSH32 0x437265617465434C483A20426164207369676E6174757265206C656E67746800 PUSH1 0x44 DUP3 ADD MSTORE PUSH1 0x64 ADD PUSH3 0x298 JUMP JUMPDEST PUSH1 0x6 SLOAD PUSH1 0x1 PUSH1 0x1 PUSH1 0xA0 SHL SUB AND PUSH4 0x364AE0D8 DUP12 DUP12 DUP12 DUP12 PUSH1 0x0 PUSH1 0x20 MUL ADD MLOAD DUP13 PUSH1 0x1 PUSH1 0x20 MUL ADD MLOAD DUP14 PUSH1 0x2 PUSH1 0x20 MUL ADD MLOAD DUP14 PUSH1 0x0 DUP2 MLOAD DUP2 LT PUSH3 0x346 JUMPI PUSH3 0x346 PUSH3 0xC97 JUMP JUMPDEST PUSH1 0x20 MUL PUSH1 0x20 ADD ADD MLOAD ADDRESS DUP14 PUSH1 0x40 MLOAD DUP11 PUSH4 0xFFFFFFFF AND PUSH1 0xE0 SHL DUP2 MSTORE PUSH1 0x4 ADD PUSH3 0x376 SWAP10 SWAP9 SWAP8 SWAP7 SWAP6 SWAP5 SWAP4 SWAP3 SWAP2 SWAP1 PUSH3 0xCFD JUMP JUMPDEST PUSH1 0x20 PUSH1 0x40 MLOAD DUP1 DUP4 SUB DUP2 DUP7 GAS STATICCALL ISZERO DUP1 ISZERO PUSH3 0x394 JUMPI RETURNDATASIZE PUSH1 0x0 DUP1 RETURNDATACOPY RETURNDATASIZE PUSH1 0x0 REVERT JUMPDEST POP POP POP POP PUSH1 0x40 MLOAD RETURNDATASIZE PUSH1 0x1F NOT PUSH1 0x1F DUP3 ADD AND DUP3 ADD DUP1 PUSH1 0x40 MSTORE POP DUP2 ADD SWAP1 PUSH3 0x3BA SWAP2 SWAP1 PUSH3 0xD79 JUMP JUMPDEST PUSH1 0x1 PUSH1 0x1 PUSH1 0xA0 SHL SUB AND DUP6 PUSH1 0x1 PUSH1 0x1 PUSH1 0xA0 SHL SUB AND EQ PUSH3 0x41C JUMPI PUSH1 0x40 MLOAD PUSH3 0x461BCD PUSH1 0xE5 SHL DUP2 MSTORE PUSH1 0x20 PUSH1 0x4 DUP3 ADD MSTORE PUSH1 0x1C PUSH1 0x24 DUP3 ADD MSTORE PUSH32 0x437265617465434C483A20496E76616C6964205369676E617475726500000000 PUSH1 0x44 DUP3 ADD MSTORE PUSH1 0x64 ADD PUSH3 0x298 JUMP JUMPDEST POP DUP4 JUMPDEST PUSH1 0x40 DUP1 MLOAD PUSH1 0x80 DUP2 ADD DUP3 MSTORE PUSH1 0x4 SLOAD PUSH1 0x1 PUSH1 0x1 PUSH1 0xA0 SHL SUB SWAP1 DUP2 AND DUP3 MSTORE PUSH1 0x5 SLOAD DUP2 AND PUSH1 0x20 DUP4 ADD MSTORE PUSH1 0x3 SLOAD DUP2 AND DUP3 DUP5 ADD MSTORE PUSH1 0x6 SLOAD AND PUSH1 0x60 DUP3 ADD MSTORE SWAP1 MLOAD DUP3 SWAP2 DUP13 SWAP2 DUP13 SWAP2 DUP13 SWAP2 DUP13 SWAP2 SWAP1 DUP13 SWAP1 PUSH3 0x46F SWAP1 PUSH3 0x88E JUMP JUMPDEST PUSH3 0x481 SWAP8 SWAP7 SWAP6 SWAP5 SWAP4 SWAP3 SWAP2 SWAP1 PUSH3 0xDCD JUMP JUMPDEST PUSH1 0x40 MLOAD DUP1 SWAP2 SUB SWAP1 PUSH1 0x0 CREATE DUP1 ISZERO DUP1 ISZERO PUSH3 0x49E JUMPI RETURNDATASIZE PUSH1 0x0 DUP1 RETURNDATACOPY RETURNDATASIZE PUSH1 0x0 REVERT JUMPDEST POP PUSH1 0x0 DUP1 SLOAD PUSH1 0x1 DUP1 DUP3 ADD DUP4 SSTORE DUP3 DUP1 MSTORE PUSH32 0x290DECD9548B62A8D60345A988386FC84BA6BC95484008F6362F93160EF3E563 DUP3 ADD DUP1 SLOAD PUSH1 0x1 PUSH1 0x1 PUSH1 0xA0 SHL SUB NOT AND PUSH1 0x1 PUSH1 0x1 PUSH1 0xA0 SHL SUB DUP7 AND OR SWAP1 SSTORE DUP1 SLOAD SWAP4 SWAP6 POP DUP6 SWAP4 SWAP2 SWAP3 PUSH3 0x4FD DUP4 PUSH3 0xE66 JUMP JUMPDEST SWAP1 SWAP2 SSTORE POP POP PUSH1 0x1 PUSH1 0x1 PUSH1 0xA0 SHL SUB DUP3 AND PUSH1 0x0 SWAP1 DUP2 MSTORE PUSH1 0x2 PUSH1 0x20 MSTORE PUSH1 0x40 SWAP1 DUP2 SWAP1 KECCAK256 DUP3 SWAP1 SSTORE MLOAD PUSH32 0x717908FB0165729C0CFD8BBC622F5EDE46A85E555AC30657FA94A188BCA698D SWAP1 PUSH3 0x553 SWAP1 DUP5 SWAP1 DUP16 SWAP1 DUP6 SWAP1 PUSH3 0xE90 JUMP JUMPDEST PUSH1 0x40 MLOAD DUP1 SWAP2 SUB SWAP1 LOG1 POP SWAP11 SWAP10 POP POP POP POP POP POP POP POP POP POP JUMP JUMPDEST PUSH1 0x0 DUP1 SLOAD PUSH1 0x60 SWAP2 SWAP1 PUSH8 0xFFFFFFFFFFFFFFFF DUP2 GT ISZERO PUSH3 0x58D JUMPI PUSH3 0x58D PUSH3 0x93D JUMP JUMPDEST PUSH1 0x40 MLOAD SWAP1 DUP1 DUP3 MSTORE DUP1 PUSH1 0x20 MUL PUSH1 0x20 ADD DUP3 ADD PUSH1 0x40 MSTORE DUP1 ISZERO PUSH3 0x5B7 JUMPI DUP2 PUSH1 0x20 ADD PUSH1 0x20 DUP3 MUL DUP1 CALLDATASIZE DUP4 CALLDATACOPY ADD SWAP1 POP JUMPDEST POP SWAP1 POP PUSH1 0x0 PUSH1 0x1 JUMPDEST PUSH1 0x1 SLOAD DUP2 GT PUSH3 0x6E2 JUMPI PUSH1 0x0 DUP2 DUP2 SLOAD DUP2 LT PUSH3 0x5DF JUMPI PUSH3 0x5DF PUSH3 0xC97 JUMP JUMPDEST PUSH1 0x0 SWAP2 DUP3 MSTORE PUSH1 0x20 SWAP1 SWAP2 KECCAK256 ADD SLOAD PUSH1 0x40 MLOAD PUSH4 0x287B9845 PUSH1 0xE1 SHL DUP2 MSTORE PUSH1 0x1 PUSH1 0x1 PUSH1 0xA0 SHL SUB DUP8 DUP2 AND PUSH1 0x4 DUP4 ADD MSTORE SWAP1 SWAP2 AND SWAP1 PUSH4 0x50F7308A SWAP1 PUSH1 0x24 ADD PUSH1 0x20 PUSH1 0x40 MLOAD DUP1 DUP4 SUB DUP2 DUP7 GAS STATICCALL ISZERO DUP1 ISZERO PUSH3 0x633 JUMPI RETURNDATASIZE PUSH1 0x0 DUP1 RETURNDATACOPY RETURNDATASIZE PUSH1 0x0 REVERT JUMPDEST POP POP POP POP PUSH1 0x40 MLOAD RETURNDATASIZE PUSH1 0x1F NOT PUSH1 0x1F DUP3 ADD AND DUP3 ADD DUP1 PUSH1 0x40 MSTORE POP DUP2 ADD SWAP1 PUSH3 0x659 SWAP2 SWAP1 PUSH3 0xEC6 JUMP JUMPDEST ISZERO PUSH3 0x6CD JUMPI PUSH1 0x0 DUP2 DUP2 SLOAD DUP2 LT PUSH3 0x675 JUMPI PUSH3 0x675 PUSH3 0xC97 JUMP JUMPDEST PUSH1 0x0 SWAP2 DUP3 MSTORE PUSH1 0x20 SWAP1 SWAP2 KECCAK256 ADD SLOAD PUSH1 0x1 PUSH1 0x1 PUSH1 0xA0 SHL SUB AND DUP4 DUP4 PUSH3 0x697 DUP2 PUSH3 0xE66 JUMP JUMPDEST SWAP5 POP DUP2 MLOAD DUP2 LT PUSH3 0x6AC JUMPI PUSH3 0x6AC PUSH3 0xC97 JUMP JUMPDEST PUSH1 0x20 MUL PUSH1 0x20 ADD ADD SWAP1 PUSH1 0x1 PUSH1 0x1 PUSH1 0xA0 SHL SUB AND SWAP1 DUP2 PUSH1 0x1 PUSH1 0x1 PUSH1 0xA0 SHL SUB AND DUP2 MSTORE POP POP JUMPDEST DUP1 PUSH3 0x6D9 DUP2 PUSH3 0xE66 JUMP JUMPDEST SWAP2 POP POP PUSH3 0x5BF JUMP JUMPDEST POP SWAP1 SWAP4 SWAP3 POP POP POP JUMP JUMPDEST PUSH1 0x0 DUP1 SLOAD PUSH1 0x60 SWAP2 SWAP1 PUSH8 0xFFFFFFFFFFFFFFFF DUP2 GT ISZERO PUSH3 0x70E JUMPI PUSH3 0x70E PUSH3 0x93D JUMP JUMPDEST PUSH1 0x40 MLOAD SWAP1 DUP1 DUP3 MSTORE DUP1 PUSH1 0x20 MUL PUSH1 0x20 ADD DUP3 ADD PUSH1 0x40 MSTORE DUP1 ISZERO PUSH3 0x738 JUMPI DUP2 PUSH1 0x20 ADD PUSH1 0x20 DUP3 MUL DUP1 CALLDATASIZE DUP4 CALLDATACOPY ADD SWAP1 POP JUMPDEST POP SWAP1 POP PUSH1 0x0 PUSH1 0x1 JUMPDEST PUSH1 0x1 SLOAD DUP2 GT PUSH3 0x6E2 JUMPI PUSH1 0x0 DUP2 DUP2 SLOAD DUP2 LT PUSH3 0x760 JUMPI PUSH3 0x760 PUSH3 0xC97 JUMP JUMPDEST PUSH1 0x0 SWAP2 DUP3 MSTORE PUSH1 0x20 SWAP1 SWAP2 KECCAK256 ADD SLOAD PUSH1 0x40 MLOAD PUSH4 0x1C3FE463 PUSH1 0xE2 SHL DUP2 MSTORE PUSH1 0x1 PUSH1 0x1 PUSH1 0xA0 SHL SUB DUP8 DUP2 AND PUSH1 0x4 DUP4 ADD MSTORE SWAP1 SWAP2 AND SWAP1 PUSH4 0x70FF918C SWAP1 PUSH1 0x24 ADD PUSH1 0x20 PUSH1 0x40 MLOAD DUP1 DUP4 SUB DUP2 DUP7 GAS STATICCALL ISZERO DUP1 ISZERO PUSH3 0x7B4 JUMPI RETURNDATASIZE PUSH1 0x0 DUP1 RETURNDATACOPY RETURNDATASIZE PUSH1 0x0 REVERT JUMPDEST POP POP POP POP PUSH1 0x40 MLOAD RETURNDATASIZE PUSH1 0x1F NOT PUSH1 0x1F DUP3 ADD AND DUP3 ADD DUP1 PUSH1 0x40 MSTORE POP DUP2 ADD SWAP1 PUSH3 0x7DA SWAP2 SWAP1 PUSH3 0xEC6 JUMP JUMPDEST ISZERO PUSH3 0x84E JUMPI PUSH1 0x0 DUP2 DUP2 SLOAD DUP2 LT PUSH3 0x7F6 JUMPI PUSH3 0x7F6 PUSH3 0xC97 JUMP JUMPDEST PUSH1 0x0 SWAP2 DUP3 MSTORE PUSH1 0x20 SWAP1 SWAP2 KECCAK256 ADD SLOAD PUSH1 0x1 PUSH1 0x1 PUSH1 0xA0 SHL SUB AND DUP4 DUP4 PUSH3 0x818 DUP2 PUSH3 0xE66 JUMP JUMPDEST SWAP5 POP DUP2 MLOAD DUP2 LT PUSH3 0x82D JUMPI PUSH3 0x82D PUSH3 0xC97 JUMP JUMPDEST PUSH1 0x20 MUL PUSH1 0x20 ADD ADD SWAP1 PUSH1 0x1 PUSH1 0x1 PUSH1 0xA0 SHL SUB AND SWAP1 DUP2 PUSH1 0x1 PUSH1 0x1 PUSH1 0xA0 SHL SUB AND DUP2 MSTORE POP POP JUMPDEST DUP1 PUSH3 0x85A DUP2 PUSH3 0xE66 JUMP JUMPDEST SWAP2 POP POP PUSH3 0x740 JUMP JUMPDEST PUSH1 0x0 DUP2 DUP2 SLOAD DUP2 LT PUSH3 0x874 JUMPI PUSH1 0x0 DUP1 REVERT JUMPDEST PUSH1 0x0 SWAP2 DUP3 MSTORE PUSH1 0x20 SWAP1 SWAP2 KECCAK256 ADD SLOAD PUSH1 0x1 PUSH1 0x1 PUSH1 0xA0 SHL SUB AND SWAP1 POP DUP2 JUMP JUMPDEST PUSH2 0x24CF DUP1 PUSH3 0xEE1 DUP4 CODECOPY ADD SWAP1 JUMP JUMPDEST PUSH1 0x20 DUP1 DUP3 MSTORE DUP3 MLOAD DUP3 DUP3 ADD DUP2 SWAP1 MSTORE PUSH1 0x0 SWAP2 SWAP1 DUP5 DUP3 ADD SWAP1 PUSH1 0x40 DUP6 ADD SWAP1 DUP5 JUMPDEST DUP2 DUP2 LT ISZERO PUSH3 0x8DF JUMPI DUP4 MLOAD PUSH1 0x1 PUSH1 0x1 PUSH1 0xA0 SHL SUB AND DUP4 MSTORE SWAP3 DUP5 ADD SWAP3 SWAP2 DUP5 ADD SWAP2 PUSH1 0x1 ADD PUSH3 0x8B8 JUMP JUMPDEST POP SWAP1 SWAP7 SWAP6 POP POP POP POP POP POP JUMP JUMPDEST PUSH1 0x1 PUSH1 0x1 PUSH1 0xA0 SHL SUB DUP2 AND DUP2 EQ PUSH3 0x901 JUMPI PUSH1 0x0 DUP1 REVERT JUMPDEST POP JUMP JUMPDEST DUP1 CALLDATALOAD PUSH3 0x911 DUP2 PUSH3 0x8EB JUMP JUMPDEST SWAP2 SWAP1 POP JUMP JUMPDEST PUSH1 0x0 PUSH1 0x20 DUP3 DUP5 SUB SLT ISZERO PUSH3 0x929 JUMPI PUSH1 0x0 DUP1 REVERT JUMPDEST DUP2 CALLDATALOAD PUSH3 0x936 DUP2 PUSH3 0x8EB JUMP JUMPDEST SWAP4 SWAP3 POP POP POP JUMP JUMPDEST PUSH4 0x4E487B71 PUSH1 0xE0 SHL PUSH1 0x0 MSTORE PUSH1 0x41 PUSH1 0x4 MSTORE PUSH1 0x24 PUSH1 0x0 REVERT JUMPDEST PUSH1 0x40 MLOAD PUSH1 0x1F DUP3 ADD PUSH1 0x1F NOT AND DUP2 ADD PUSH8 0xFFFFFFFFFFFFFFFF DUP2 GT DUP3 DUP3 LT OR ISZERO PUSH3 0x97F JUMPI PUSH3 0x97F PUSH3 0x93D JUMP JUMPDEST PUSH1 0x40 MSTORE SWAP2 SWAP1 POP JUMP JUMPDEST PUSH1 0x0 PUSH8 0xFFFFFFFFFFFFFFFF DUP4 GT ISZERO PUSH3 0x9A4 JUMPI PUSH3 0x9A4 PUSH3 0x93D JUMP JUMPDEST PUSH3 0x9B9 PUSH1 0x1F DUP5 ADD PUSH1 0x1F NOT AND PUSH1 0x20 ADD PUSH3 0x953 JUMP JUMPDEST SWAP1 POP DUP3 DUP2 MSTORE DUP4 DUP4 DUP4 ADD GT ISZERO PUSH3 0x9CE JUMPI PUSH1 0x0 DUP1 REVERT JUMPDEST DUP3 DUP3 PUSH1 0x20 DUP4 ADD CALLDATACOPY PUSH1 0x0 PUSH1 0x20 DUP5 DUP4 ADD ADD MSTORE SWAP4 SWAP3 POP POP POP JUMP JUMPDEST DUP1 CALLDATALOAD DUP1 ISZERO ISZERO DUP2 EQ PUSH3 0x911 JUMPI PUSH1 0x0 DUP1 REVERT JUMPDEST PUSH1 0x0 DUP3 PUSH1 0x1F DUP4 ADD SLT PUSH3 0xA08 JUMPI PUSH1 0x0 DUP1 REVERT JUMPDEST PUSH1 0x40 MLOAD PUSH1 0x60 DUP2 ADD DUP2 DUP2 LT PUSH8 0xFFFFFFFFFFFFFFFF DUP3 GT OR ISZERO PUSH3 0xA2E JUMPI PUSH3 0xA2E PUSH3 0x93D JUMP JUMPDEST PUSH1 0x40 MSTORE DUP1 PUSH1 0x60 DUP5 ADD DUP6 DUP2 GT ISZERO PUSH3 0xA44 JUMPI PUSH1 0x0 DUP1 REVERT JUMPDEST DUP5 JUMPDEST DUP2 DUP2 LT ISZERO PUSH3 0xA71 JUMPI DUP1 CALLDATALOAD PUSH1 0xFF DUP2 AND DUP2 EQ PUSH3 0xA62 JUMPI PUSH1 0x0 DUP1 DUP2 REVERT JUMPDEST DUP4 MSTORE PUSH1 0x20 SWAP3 DUP4 ADD SWAP3 ADD PUSH3 0xA46 JUMP JUMPDEST POP SWAP2 SWAP6 SWAP5 POP POP POP POP POP JUMP JUMPDEST PUSH1 0x0 DUP3 PUSH1 0x1F DUP4 ADD SLT PUSH3 0xA8E JUMPI PUSH1 0x0 DUP1 REVERT JUMPDEST DUP2 CALLDATALOAD PUSH1 0x20 PUSH8 0xFFFFFFFFFFFFFFFF DUP3 GT ISZERO PUSH3 0xAAD JUMPI PUSH3 0xAAD PUSH3 0x93D JUMP JUMPDEST DUP2 PUSH1 0x5 SHL PUSH3 0xABE DUP3 DUP3 ADD PUSH3 0x953 JUMP JUMPDEST SWAP3 DUP4 MSTORE DUP5 DUP2 ADD DUP3 ADD SWAP3 DUP3 DUP2 ADD SWAP1 DUP8 DUP6 GT ISZERO PUSH3 0xAD9 JUMPI PUSH1 0x0 DUP1 REVERT JUMPDEST DUP4 DUP8 ADD SWAP3 POP JUMPDEST DUP5 DUP4 LT ISZERO PUSH3 0xB05 JUMPI DUP3 CALLDATALOAD PUSH3 0xAF5 DUP2 PUSH3 0x8EB JUMP JUMPDEST DUP3 MSTORE SWAP2 DUP4 ADD SWAP2 SWAP1 DUP4 ADD SWAP1 PUSH3 0xADF JUMP JUMPDEST SWAP8 SWAP7 POP POP POP POP POP POP POP JUMP JUMPDEST PUSH1 0x0 DUP3 PUSH1 0x1F DUP4 ADD SLT PUSH3 0xB22 JUMPI PUSH1 0x0 DUP1 REVERT JUMPDEST PUSH3 0x936 DUP4 DUP4 CALLDATALOAD PUSH1 0x20 DUP6 ADD PUSH3 0x987 JUMP JUMPDEST PUSH1 0x0 DUP1 PUSH1 0x0 DUP1 PUSH1 0x0 DUP1 PUSH1 0x0 PUSH2 0x120 DUP9 DUP11 SUB SLT ISZERO PUSH3 0xB50 JUMPI PUSH1 0x0 DUP1 REVERT JUMPDEST DUP8 CALLDATALOAD PUSH8 0xFFFFFFFFFFFFFFFF DUP1 DUP3 GT ISZERO PUSH3 0xB69 JUMPI PUSH1 0x0 DUP1 REVERT JUMPDEST DUP2 DUP11 ADD SWAP2 POP DUP11 PUSH1 0x1F DUP4 ADD SLT PUSH3 0xB7E JUMPI PUSH1 0x0 DUP1 REVERT JUMPDEST PUSH3 0xB8F DUP12 DUP4 CALLDATALOAD PUSH1 0x20 DUP6 ADD PUSH3 0x987 JUMP JUMPDEST SWAP9 POP PUSH3 0xB9F PUSH1 0x20 DUP12 ADD PUSH3 0x9E5 JUMP JUMPDEST SWAP8 POP PUSH1 0x40 DUP11 ADD CALLDATALOAD SWAP7 POP PUSH3 0xBB7 DUP12 PUSH1 0x60 DUP13 ADD PUSH3 0x9F6 JUMP JUMPDEST SWAP6 POP PUSH1 0xC0 DUP11 ADD CALLDATALOAD SWAP2 POP DUP1 DUP3 GT ISZERO PUSH3 0xBCE JUMPI PUSH1 0x0 DUP1 REVERT JUMPDEST PUSH3 0xBDC DUP12 DUP4 DUP13 ADD PUSH3 0xA7C JUMP JUMPDEST SWAP5 POP PUSH3 0xBEC PUSH1 0xE0 DUP12 ADD PUSH3 0x904 JUMP JUMPDEST SWAP4 POP PUSH2 0x100 DUP11 ADD CALLDATALOAD SWAP2 POP DUP1 DUP3 GT ISZERO PUSH3 0xC04 JUMPI PUSH1 0x0 DUP1 REVERT JUMPDEST POP PUSH3 0xC13 DUP11 DUP3 DUP12 ADD PUSH3 0xB10 JUMP JUMPDEST SWAP2 POP POP SWAP3 SWAP6 SWAP9 SWAP2 SWAP5 SWAP8 POP SWAP3 SWAP6 POP JUMP JUMPDEST PUSH1 0x0 DUP2 MLOAD DUP1 DUP5 MSTORE PUSH1 0x20 DUP1 DUP6 ADD SWAP5 POP DUP1 DUP5 ADD PUSH1 0x0 JUMPDEST DUP4 DUP2 LT ISZERO PUSH3 0xC5D JUMPI DUP2 MLOAD PUSH1 0x1 PUSH1 0x1 PUSH1 0xA0 SHL SUB AND DUP8 MSTORE SWAP6 DUP3 ADD SWAP6 SWAP1 DUP3 ADD SWAP1 PUSH1 0x1 ADD PUSH3 0xC36 JUMP JUMPDEST POP SWAP5 SWAP6 SWAP5 POP POP POP POP POP JUMP JUMPDEST PUSH1 0x20 DUP2 MSTORE PUSH1 0x0 PUSH3 0x936 PUSH1 0x20 DUP4 ADD DUP5 PUSH3 0xC22 JUMP JUMPDEST PUSH1 0x0 PUSH1 0x20 DUP3 DUP5 SUB SLT ISZERO PUSH3 0xC90 JUMPI PUSH1 0x0 DUP1 REVERT JUMPDEST POP CALLDATALOAD SWAP2 SWAP1 POP JUMP JUMPDEST PUSH4 0x4E487B71 PUSH1 0xE0 SHL PUSH1 0x0 MSTORE PUSH1 0x32 PUSH1 0x4 MSTORE PUSH1 0x24 PUSH1 0x0 REVERT JUMPDEST PUSH1 0x0 DUP2 MLOAD DUP1 DUP5 MSTORE PUSH1 0x0 JUMPDEST DUP2 DUP2 LT ISZERO PUSH3 0xCD5 JUMPI PUSH1 0x20 DUP2 DUP6 ADD DUP2 ADD MLOAD DUP7 DUP4 ADD DUP3 ADD MSTORE ADD PUSH3 0xCB7 JUMP JUMPDEST DUP2 DUP2 GT ISZERO PUSH3 0xCE8 JUMPI PUSH1 0x0 PUSH1 0x20 DUP4 DUP8 ADD ADD MSTORE JUMPDEST POP PUSH1 0x1F ADD PUSH1 0x1F NOT AND SWAP3 SWAP1 SWAP3 ADD PUSH1 0x20 ADD SWAP3 SWAP2 POP POP JUMP JUMPDEST PUSH1 0x0 PUSH2 0x120 DUP1 DUP4 MSTORE PUSH3 0xD13 DUP2 DUP5 ADD DUP14 PUSH3 0xCAD JUMP JUMPDEST DUP12 ISZERO ISZERO PUSH1 0x20 DUP6 ADD MSTORE PUSH1 0x40 DUP5 ADD DUP12 SWAP1 MSTORE PUSH1 0xFF DUP11 DUP2 AND PUSH1 0x60 DUP7 ADD MSTORE DUP10 DUP2 AND PUSH1 0x80 DUP7 ADD MSTORE DUP9 AND PUSH1 0xA0 DUP6 ADD MSTORE PUSH1 0x1 PUSH1 0x1 PUSH1 0xA0 SHL SUB DUP8 DUP2 AND PUSH1 0xC0 DUP7 ADD MSTORE DUP7 AND PUSH1 0xE0 DUP6 ADD MSTORE DUP4 DUP2 SUB PUSH2 0x100 DUP6 ADD MSTORE SWAP1 POP PUSH3 0xD69 DUP2 DUP6 PUSH3 0xCAD JUMP JUMPDEST SWAP13 SWAP12 POP POP POP POP POP POP POP POP POP POP POP POP JUMP JUMPDEST PUSH1 0x0 PUSH1 0x20 DUP3 DUP5 SUB SLT ISZERO PUSH3 0xD8C JUMPI PUSH1 0x0 DUP1 REVERT JUMPDEST DUP2 MLOAD PUSH3 0x936 DUP2 PUSH3 0x8EB JUMP JUMPDEST DUP1 PUSH1 0x0 JUMPDEST PUSH1 0x4 DUP2 LT ISZERO PUSH3 0xDC7 JUMPI DUP2 MLOAD PUSH1 0x1 PUSH1 0x1 PUSH1 0xA0 SHL SUB AND DUP5 MSTORE PUSH1 0x20 SWAP4 DUP5 ADD SWAP4 SWAP1 SWAP2 ADD SWAP1 PUSH1 0x1 ADD PUSH3 0xD9D JUMP JUMPDEST POP POP POP POP JUMP JUMPDEST PUSH1 0x1 PUSH1 0x1 PUSH1 0xA0 SHL SUB DUP9 AND DUP2 MSTORE PUSH2 0x180 PUSH1 0x20 DUP1 DUP4 ADD DUP3 SWAP1 MSTORE PUSH1 0x0 SWAP2 SWAP1 PUSH3 0xDF6 DUP5 DUP4 ADD DUP12 PUSH3 0xCAD JUMP JUMPDEST SWAP2 POP DUP9 ISZERO ISZERO PUSH1 0x40 DUP6 ADD MSTORE DUP8 PUSH1 0x60 DUP6 ADD MSTORE PUSH1 0x80 DUP5 ADD DUP8 PUSH1 0x0 JUMPDEST PUSH1 0x3 DUP2 LT ISZERO PUSH3 0xE30 JUMPI DUP2 MLOAD PUSH1 0xFF AND DUP4 MSTORE SWAP2 DUP4 ADD SWAP2 SWAP1 DUP4 ADD SWAP1 PUSH1 0x1 ADD PUSH3 0xE0E JUMP JUMPDEST POP POP POP POP PUSH3 0xE43 PUSH1 0xE0 DUP5 ADD DUP7 PUSH3 0xD99 JUMP JUMPDEST DUP3 DUP2 SUB PUSH2 0x160 DUP5 ADD MSTORE PUSH3 0xE58 DUP2 DUP6 PUSH3 0xC22 JUMP JUMPDEST SWAP11 SWAP10 POP POP POP POP POP POP POP POP POP POP JUMP JUMPDEST PUSH1 0x0 PUSH1 0x0 NOT DUP3 EQ ISZERO PUSH3 0xE89 JUMPI PUSH4 0x4E487B71 PUSH1 0xE0 SHL PUSH1 0x0 MSTORE PUSH1 0x11 PUSH1 0x4 MSTORE PUSH1 0x24 PUSH1 0x0 REVERT JUMPDEST POP PUSH1 0x1 ADD SWAP1 JUMP JUMPDEST PUSH1 0x1 PUSH1 0x1 PUSH1 0xA0 SHL SUB DUP5 AND DUP2 MSTORE PUSH1 0x60 PUSH1 0x20 DUP3 ADD DUP2 SWAP1 MSTORE PUSH1 0x0 SWAP1 PUSH3 0xEB6 SWAP1 DUP4 ADD DUP6 PUSH3 0xCAD JUMP JUMPDEST SWAP1 POP DUP3 PUSH1 0x40 DUP4 ADD MSTORE SWAP5 SWAP4 POP POP POP POP JUMP JUMPDEST PUSH1 0x0 PUSH1 0x20 DUP3 DUP5 SUB SLT ISZERO PUSH3 0xED9 JUMPI PUSH1 0x0 DUP1 REVERT JUMPDEST POP MLOAD SWAP2 SWAP1 POP JUMP INVALID PUSH1 0x80 PUSH1 0x40 MSTORE CALLVALUE DUP1 ISZERO PUSH3 0x11 JUMPI PUSH1 0x0 DUP1 REVERT JUMPDEST POP PUSH1 0x40 MLOAD PUSH3 0x24CF CODESIZE SUB DUP1 PUSH3 0x24CF DUP4 CODECOPY DUP2 ADD PUSH1 0x40 DUP2 SWAP1 MSTORE PUSH3 0x34 SWAP2 PUSH3 0x336 JUMP JUMPDEST PUSH1 0x0 DUP3 PUSH1 0x2 PUSH1 0x20 MUL ADD MLOAD PUSH1 0x1 PUSH1 0x1 PUSH1 0xA0 SHL SUB AND DUP9 DUP9 DUP9 DUP9 DUP9 DUP9 DUP9 PUSH1 0x40 MLOAD PUSH1 0x24 ADD PUSH3 0x66 SWAP8 SWAP7 SWAP6 SWAP5 SWAP4 SWAP3 SWAP2 SWAP1 PUSH3 0x4C9 JUMP JUMPDEST PUSH1 0x40 DUP1 MLOAD PUSH1 0x1F NOT DUP2 DUP5 SUB ADD DUP2 MSTORE SWAP2 DUP2 MSTORE PUSH1 0x20 DUP3 ADD DUP1 MLOAD PUSH1 0x1 PUSH1 0x1 PUSH1 0xE0 SHL SUB AND PUSH4 0x82856CE1 PUSH1 0xE0 SHL OR SWAP1 MSTORE MLOAD PUSH3 0x9D SWAP2 SWAP1 PUSH3 0x57E JUMP JUMPDEST PUSH1 0x0 PUSH1 0x40 MLOAD DUP1 DUP4 SUB DUP2 DUP6 GAS DELEGATECALL SWAP2 POP POP RETURNDATASIZE DUP1 PUSH1 0x0 DUP2 EQ PUSH3 0xDA JUMPI PUSH1 0x40 MLOAD SWAP2 POP PUSH1 0x1F NOT PUSH1 0x3F RETURNDATASIZE ADD AND DUP3 ADD PUSH1 0x40 MSTORE RETURNDATASIZE DUP3 MSTORE RETURNDATASIZE PUSH1 0x0 PUSH1 0x20 DUP5 ADD RETURNDATACOPY PUSH3 0xDF JUMP JUMPDEST PUSH1 0x60 SWAP2 POP JUMPDEST POP POP SWAP1 POP DUP1 PUSH3 0xF6 JUMPI PUSH1 0x40 MLOAD RETURNDATASIZE DUP1 PUSH1 0x0 DUP4 RETURNDATACOPY DUP1 DUP3 REVERT JUMPDEST POP POP POP POP POP POP POP POP PUSH3 0x59C JUMP JUMPDEST DUP1 MLOAD PUSH1 0x1 PUSH1 0x1 PUSH1 0xA0 SHL SUB DUP2 AND DUP2 EQ PUSH3 0x11C JUMPI PUSH1 0x0 DUP1 REVERT JUMPDEST SWAP2 SWAP1 POP JUMP JUMPDEST PUSH4 0x4E487B71 PUSH1 0xE0 SHL PUSH1 0x0 MSTORE PUSH1 0x41 PUSH1 0x4 MSTORE PUSH1 0x24 PUSH1 0x0 REVERT JUMPDEST PUSH1 0x40 MLOAD PUSH1 0x1F DUP3 ADD PUSH1 0x1F NOT AND DUP2 ADD PUSH1 0x1 PUSH1 0x1 PUSH1 0x40 SHL SUB DUP2 GT DUP3 DUP3 LT OR ISZERO PUSH3 0x162 JUMPI PUSH3 0x162 PUSH3 0x121 JUMP JUMPDEST PUSH1 0x40 MSTORE SWAP2 SWAP1 POP JUMP JUMPDEST PUSH1 0x0 JUMPDEST DUP4 DUP2 LT ISZERO PUSH3 0x187 JUMPI DUP2 DUP2 ADD MLOAD DUP4 DUP3 ADD MSTORE PUSH1 0x20 ADD PUSH3 0x16D JUMP JUMPDEST DUP4 DUP2 GT ISZERO PUSH3 0x197 JUMPI PUSH1 0x0 DUP5 DUP5 ADD MSTORE JUMPDEST POP POP POP POP JUMP JUMPDEST DUP1 MLOAD DUP1 ISZERO ISZERO DUP2 EQ PUSH3 0x11C JUMPI PUSH1 0x0 DUP1 REVERT JUMPDEST PUSH1 0x0 DUP3 PUSH1 0x1F DUP4 ADD SLT PUSH3 0x1C0 JUMPI PUSH1 0x0 DUP1 REVERT JUMPDEST PUSH1 0x40 MLOAD PUSH1 0x60 DUP2 ADD PUSH1 0x1 PUSH1 0x1 PUSH1 0x40 SHL SUB DUP2 GT DUP3 DUP3 LT OR ISZERO PUSH3 0x1E5 JUMPI PUSH3 0x1E5 PUSH3 0x121 JUMP JUMPDEST PUSH1 0x40 MSTORE DUP1 PUSH1 0x60 DUP5 ADD DUP6 DUP2 GT ISZERO PUSH3 0x1FB JUMPI PUSH1 0x0 DUP1 REVERT JUMPDEST DUP5 JUMPDEST DUP2 DUP2 LT ISZERO PUSH3 0x228 JUMPI DUP1 MLOAD PUSH1 0xFF DUP2 AND DUP2 EQ PUSH3 0x219 JUMPI PUSH1 0x0 DUP1 DUP2 REVERT JUMPDEST DUP4 MSTORE PUSH1 0x20 SWAP3 DUP4 ADD SWAP3 ADD PUSH3 0x1FD JUMP JUMPDEST POP SWAP2 SWAP6 SWAP5 POP POP POP POP POP JUMP JUMPDEST PUSH1 0x0 DUP3 PUSH1 0x1F DUP4 ADD SLT PUSH3 0x245 JUMPI PUSH1 0x0 DUP1 REVERT JUMPDEST PUSH1 0x40 MLOAD PUSH1 0x80 DUP2 ADD PUSH1 0x1 PUSH1 0x1 PUSH1 0x40 SHL SUB DUP2 GT DUP3 DUP3 LT OR ISZERO PUSH3 0x26A JUMPI PUSH3 0x26A PUSH3 0x121 JUMP JUMPDEST PUSH1 0x40 MSTORE DUP1 PUSH1 0x80 DUP5 ADD DUP6 DUP2 GT ISZERO PUSH3 0x280 JUMPI PUSH1 0x0 DUP1 REVERT JUMPDEST DUP5 JUMPDEST DUP2 DUP2 LT ISZERO PUSH3 0x228 JUMPI PUSH3 0x296 DUP2 PUSH3 0x104 JUMP JUMPDEST DUP4 MSTORE PUSH1 0x20 SWAP3 DUP4 ADD SWAP3 ADD PUSH3 0x282 JUMP JUMPDEST PUSH1 0x0 DUP3 PUSH1 0x1F DUP4 ADD SLT PUSH3 0x2B7 JUMPI PUSH1 0x0 DUP1 REVERT JUMPDEST DUP2 MLOAD PUSH1 0x20 PUSH1 0x1 PUSH1 0x1 PUSH1 0x40 SHL SUB DUP3 GT ISZERO PUSH3 0x2D5 JUMPI PUSH3 0x2D5 PUSH3 0x121 JUMP JUMPDEST DUP2 PUSH1 0x5 SHL PUSH3 0x2E6 DUP3 DUP3 ADD PUSH3 0x137 JUMP JUMPDEST SWAP3 DUP4 MSTORE DUP5 DUP2 ADD DUP3 ADD SWAP3 DUP3 DUP2 ADD SWAP1 DUP8 DUP6 GT ISZERO PUSH3 0x301 JUMPI PUSH1 0x0 DUP1 REVERT JUMPDEST DUP4 DUP8 ADD SWAP3 POP JUMPDEST DUP5 DUP4 LT ISZERO PUSH3 0x32B JUMPI PUSH3 0x31B DUP4 PUSH3 0x104 JUMP JUMPDEST DUP3 MSTORE SWAP2 DUP4 ADD SWAP2 SWAP1 DUP4 ADD SWAP1 PUSH3 0x307 JUMP JUMPDEST SWAP8 SWAP7 POP POP POP POP POP POP POP JUMP JUMPDEST PUSH1 0x0 DUP1 PUSH1 0x0 DUP1 PUSH1 0x0 DUP1 PUSH1 0x0 PUSH2 0x180 DUP9 DUP11 SUB SLT ISZERO PUSH3 0x353 JUMPI PUSH1 0x0 DUP1 REVERT JUMPDEST PUSH3 0x35E DUP9 PUSH3 0x104 JUMP JUMPDEST PUSH1 0x20 DUP10 ADD MLOAD SWAP1 SWAP8 POP PUSH1 0x1 PUSH1 0x1 PUSH1 0x40 SHL SUB DUP1 DUP3 GT ISZERO PUSH3 0x37C JUMPI PUSH1 0x0 DUP1 REVERT JUMPDEST DUP2 DUP11 ADD SWAP2 POP DUP11 PUSH1 0x1F DUP4 ADD SLT PUSH3 0x391 JUMPI PUSH1 0x0 DUP1 REVERT JUMPDEST DUP2 MLOAD DUP2 DUP2 GT ISZERO PUSH3 0x3A6 JUMPI PUSH3 0x3A6 PUSH3 0x121 JUMP JUMPDEST PUSH3 0x3BB PUSH1 0x1F DUP3 ADD PUSH1 0x1F NOT AND PUSH1 0x20 ADD PUSH3 0x137 JUMP JUMPDEST DUP2 DUP2 MSTORE DUP13 PUSH1 0x20 DUP4 DUP7 ADD ADD GT ISZERO PUSH3 0x3D1 JUMPI PUSH1 0x0 DUP1 REVERT JUMPDEST PUSH3 0x3E4 DUP3 PUSH1 0x20 DUP4 ADD PUSH1 0x20 DUP8 ADD PUSH3 0x16A JUMP JUMPDEST SWAP9 POP PUSH3 0x3F6 SWAP1 POP PUSH1 0x40 DUP12 ADD PUSH3 0x19D JUMP JUMPDEST SWAP7 POP PUSH1 0x60 DUP11 ADD MLOAD SWAP6 POP PUSH3 0x40E DUP12 PUSH1 0x80 DUP13 ADD PUSH3 0x1AE JUMP JUMPDEST SWAP5 POP PUSH3 0x41F DUP12 PUSH1 0xE0 DUP13 ADD PUSH3 0x233 JUMP JUMPDEST SWAP4 POP PUSH2 0x160 DUP11 ADD MLOAD SWAP2 POP DUP1 DUP3 GT ISZERO PUSH3 0x437 JUMPI PUSH1 0x0 DUP1 REVERT JUMPDEST POP PUSH3 0x446 DUP11 DUP3 DUP12 ADD PUSH3 0x2A5 JUMP JUMPDEST SWAP2 POP POP SWAP3 SWAP6 SWAP9 SWAP2 SWAP5 SWAP8 POP SWAP3 SWAP6 POP JUMP JUMPDEST DUP1 PUSH1 0x0 JUMPDEST PUSH1 0x4 DUP2 LT ISZERO PUSH3 0x197 JUMPI DUP2 MLOAD PUSH1 0x1 PUSH1 0x1 PUSH1 0xA0 SHL SUB AND DUP5 MSTORE PUSH1 0x20 SWAP4 DUP5 ADD SWAP4 SWAP1 SWAP2 ADD SWAP1 PUSH1 0x1 ADD PUSH3 0x459 JUMP JUMPDEST PUSH1 0x0 DUP2 MLOAD DUP1 DUP5 MSTORE PUSH1 0x20 DUP1 DUP6 ADD SWAP5 POP DUP1 DUP5 ADD PUSH1 0x0 JUMPDEST DUP4 DUP2 LT ISZERO PUSH3 0x4BE JUMPI DUP2 MLOAD PUSH1 0x1 PUSH1 0x1 PUSH1 0xA0 SHL SUB AND DUP8 MSTORE SWAP6 DUP3 ADD SWAP6 SWAP1 DUP3 ADD SWAP1 PUSH1 0x1 ADD PUSH3 0x497 JUMP JUMPDEST POP SWAP5 SWAP6 SWAP5 POP POP POP POP POP JUMP JUMPDEST PUSH1 0x1 PUSH1 0x1 PUSH1 0xA0 SHL SUB DUP9 AND DUP2 MSTORE PUSH2 0x180 PUSH1 0x20 DUP1 DUP4 ADD DUP3 SWAP1 MSTORE DUP9 MLOAD SWAP2 DUP4 ADD DUP3 SWAP1 MSTORE PUSH1 0x0 SWAP2 PUSH2 0x1A0 SWAP2 SWAP1 PUSH3 0x501 DUP2 DUP5 DUP8 ADD DUP14 DUP6 ADD PUSH3 0x16A JUMP JUMPDEST DUP10 ISZERO ISZERO PUSH1 0x40 DUP7 ADD MSTORE PUSH1 0x60 DUP6 ADD DUP10 SWAP1 MSTORE PUSH1 0x1F ADD PUSH1 0x1F NOT AND DUP5 ADD PUSH1 0x80 DUP6 ADD DUP9 PUSH1 0x0 JUMPDEST PUSH1 0x3 DUP2 LT ISZERO PUSH3 0x543 JUMPI DUP2 MLOAD PUSH1 0xFF AND DUP4 MSTORE SWAP2 DUP5 ADD SWAP2 SWAP1 DUP5 ADD SWAP1 PUSH1 0x1 ADD PUSH3 0x521 JUMP JUMPDEST POP POP POP PUSH3 0x555 PUSH1 0xE0 DUP7 ADD DUP9 PUSH3 0x455 JUMP JUMPDEST DUP3 DUP6 DUP3 SUB ADD PUSH2 0x160 DUP7 ADD MSTORE PUSH3 0x56E DUP4 DUP3 ADD DUP8 PUSH3 0x483 JUMP JUMPDEST SWAP13 SWAP12 POP POP POP POP POP POP POP POP POP POP POP POP JUMP JUMPDEST PUSH1 0x0 DUP3 MLOAD PUSH3 0x592 DUP2 DUP5 PUSH1 0x20 DUP8 ADD PUSH3 0x16A JUMP JUMPDEST SWAP2 SWAP1 SWAP2 ADD SWAP3 SWAP2 POP POP JUMP JUMPDEST PUSH2 0x1F23 DUP1 PUSH3 0x5AC PUSH1 0x0 CODECOPY PUSH1 0x0 RETURN INVALID PUSH1 0x80 PUSH1 0x40 MSTORE CALLVALUE DUP1 ISZERO PUSH2 0x10 JUMPI PUSH1 0x0 DUP1 REVERT JUMPDEST POP PUSH1 0x4 CALLDATASIZE LT PUSH2 0x211 JUMPI PUSH1 0x0 CALLDATALOAD PUSH1 0xE0 SHR DUP1 PUSH4 0x70ACB761 GT PUSH2 0x125 JUMPI DUP1 PUSH4 0xB4C62192 GT PUSH2 0xAD JUMPI DUP1 PUSH4 0xCB85669C GT PUSH2 0x7C JUMPI DUP1 PUSH4 0xCB85669C EQ PUSH2 0x515 JUMPI DUP1 PUSH4 0xDE5AB14E EQ PUSH2 0x53D JUMPI DUP1 PUSH4 0xE68777D7 EQ PUSH2 0x550 JUMPI DUP1 PUSH4 0xE810A58E EQ PUSH2 0x562 JUMPI DUP1 PUSH4 0xF00D6274 EQ PUSH2 0x577 JUMPI PUSH1 0x0 DUP1 REVERT JUMPDEST DUP1 PUSH4 0xB4C62192 EQ PUSH2 0x475 JUMPI DUP1 PUSH4 0xBAA4D5E9 EQ PUSH2 0x48A JUMPI DUP1 PUSH4 0xC2B3AA08 EQ PUSH2 0x4D0 JUMPI DUP1 PUSH4 0xC347D2FD EQ PUSH2 0x4F3 JUMPI PUSH1 0x0 DUP1 REVERT JUMPDEST DUP1 PUSH4 0x9360BFAD GT PUSH2 0xF4 JUMPI DUP1 PUSH4 0x9360BFAD EQ PUSH2 0x412 JUMPI DUP1 PUSH4 0x96A3DD84 EQ PUSH2 0x425 JUMPI DUP1 PUSH4 0x9C630A88 EQ PUSH2 0x447 JUMPI DUP1 PUSH4 0xA19A5F50 EQ PUSH2 0x45A JUMPI DUP1 PUSH4 0xA693649A EQ PUSH2 0x46D JUMPI PUSH1 0x0 DUP1 REVERT JUMPDEST DUP1 PUSH4 0x70ACB761 EQ PUSH2 0x3B7 JUMPI DUP1 PUSH4 0x70FF918C EQ PUSH2 0x3CA JUMPI DUP1 PUSH4 0x7C638548 EQ PUSH2 0x3EA JUMPI DUP1 PUSH4 0x81CF22D8 EQ PUSH2 0x3FD JUMPI PUSH1 0x0 DUP1 REVERT JUMPDEST DUP1 PUSH4 0x22B4081C GT PUSH2 0x1A8 JUMPI DUP1 PUSH4 0x50F7308A GT PUSH2 0x177 JUMPI DUP1 PUSH4 0x50F7308A EQ PUSH2 0x339 JUMPI DUP1 PUSH4 0x59CA2D03 EQ PUSH2 0x359 JUMPI DUP1 PUSH4 0x5AADD414 EQ PUSH2 0x36E JUMPI DUP1 PUSH4 0x5F3D99B3 EQ PUSH2 0x383 JUMPI DUP1 PUSH4 0x6C2F34E7 EQ PUSH2 0x3A4 JUMPI PUSH1 0x0 DUP1 REVERT JUMPDEST DUP1 PUSH4 0x22B4081C EQ PUSH2 0x2DC JUMPI DUP1 PUSH4 0x2A57EF84 EQ PUSH2 0x300 JUMPI DUP1 PUSH4 0x31A0AFA7 EQ PUSH2 0x313 JUMPI DUP1 PUSH4 0x3A70693D EQ PUSH2 0x326 JUMPI PUSH1 0x0 DUP1 REVERT JUMPDEST DUP1 PUSH4 0x19A50F49 GT PUSH2 0x1E4 JUMPI DUP1 PUSH4 0x19A50F49 EQ PUSH2 0x2A0 JUMPI DUP1 PUSH4 0x1D5FD3CA EQ PUSH2 0x2AD JUMPI DUP1 PUSH4 0x1F50DD27 EQ PUSH2 0x2B6 JUMPI DUP1 PUSH4 0x2266E1BC EQ PUSH2 0x2C9 JUMPI PUSH1 0x0 DUP1 REVERT JUMPDEST DUP1 PUSH4 0x4F17A9B EQ PUSH2 0x216 JUMPI DUP1 PUSH4 0x52F9B0A EQ PUSH2 0x23C JUMPI DUP1 PUSH4 0x1343E9A5 EQ PUSH2 0x267 JUMPI DUP1 PUSH4 0x152DE3B9 EQ PUSH2 0x28D JUMPI JUMPDEST PUSH1 0x0 DUP1 REVERT JUMPDEST PUSH2 0x229 PUSH2 0x224 CALLDATASIZE PUSH1 0x4 PUSH2 0x14FC JUMP JUMPDEST PUSH2 0x58D JUMP JUMPDEST PUSH1 0x40 MLOAD SWAP1 DUP2 MSTORE PUSH1 0x20 ADD JUMPDEST PUSH1 0x40 MLOAD DUP1 SWAP2 SUB SWAP1 RETURN JUMPDEST PUSH1 0x7 SLOAD PUSH2 0x24F SWAP1 PUSH1 0x1 PUSH1 0x1 PUSH1 0xA0 SHL SUB AND DUP2 JUMP JUMPDEST PUSH1 0x40 MLOAD PUSH1 0x1 PUSH1 0x1 PUSH1 0xA0 SHL SUB SWAP1 SWAP2 AND DUP2 MSTORE PUSH1 0x20 ADD PUSH2 0x233 JUMP JUMPDEST PUSH1 0x1 SLOAD PUSH2 0x27B SWAP1 PUSH4 0x1000000 SWAP1 DIV PUSH1 0xFF AND DUP2 JUMP JUMPDEST PUSH1 0x40 MLOAD PUSH1 0xFF SWAP1 SWAP2 AND DUP2 MSTORE PUSH1 0x20 ADD PUSH2 0x233 JUMP JUMPDEST PUSH2 0x229 PUSH2 0x29B CALLDATASIZE PUSH1 0x4 PUSH2 0x155B JUMP JUMPDEST PUSH2 0x647 JUMP JUMPDEST PUSH1 0x1 SLOAD PUSH2 0x27B SWAP1 PUSH1 0xFF AND DUP2 JUMP JUMPDEST PUSH2 0x229 PUSH1 0x4 SLOAD DUP2 JUMP JUMPDEST PUSH1 0x8 SLOAD PUSH2 0x24F SWAP1 PUSH1 0x1 PUSH1 0x1 PUSH1 0xA0 SHL SUB AND DUP2 JUMP JUMPDEST PUSH2 0x229 PUSH2 0x2D7 CALLDATASIZE PUSH1 0x4 PUSH2 0x14FC JUMP JUMPDEST PUSH2 0x6A9 JUMP JUMPDEST PUSH2 0x2EF PUSH2 0x2EA CALLDATASIZE PUSH1 0x4 PUSH2 0x15CB JUMP JUMPDEST PUSH2 0x709 JUMP JUMPDEST PUSH1 0x40 MLOAD PUSH2 0x233 SWAP6 SWAP5 SWAP4 SWAP3 SWAP2 SWAP1 PUSH2 0x1640 JUMP JUMPDEST PUSH2 0x229 PUSH2 0x30E CALLDATASIZE PUSH1 0x4 PUSH2 0x1683 JUMP JUMPDEST PUSH2 0x7E4 JUMP JUMPDEST PUSH2 0x229 PUSH2 0x321 CALLDATASIZE PUSH1 0x4 PUSH2 0x1711 JUMP JUMPDEST PUSH2 0x8A6 JUMP JUMPDEST PUSH2 0x27B PUSH2 0x334 CALLDATASIZE PUSH1 0x4 PUSH2 0x15CB JUMP JUMPDEST PUSH2 0x96E JUMP JUMPDEST PUSH2 0x229 PUSH2 0x347 CALLDATASIZE PUSH1 0x4 PUSH2 0x17C3 JUMP JUMPDEST PUSH1 0x9 PUSH1 0x20 MSTORE PUSH1 0x0 SWAP1 DUP2 MSTORE PUSH1 0x40 SWAP1 KECCAK256 SLOAD DUP2 JUMP JUMPDEST PUSH2 0x361 PUSH2 0x992 JUMP JUMPDEST PUSH1 0x40 MLOAD PUSH2 0x233 SWAP2 SWAP1 PUSH2 0x17E5 JUMP JUMPDEST PUSH2 0x376 PUSH2 0xA20 JUMP JUMPDEST PUSH1 0x40 MLOAD PUSH2 0x233 SWAP2 SWAP1 PUSH2 0x17F8 JUMP JUMPDEST PUSH2 0x396 PUSH2 0x391 CALLDATASIZE PUSH1 0x4 PUSH2 0x15CB JUMP JUMPDEST PUSH2 0xB39 JUMP JUMPDEST PUSH1 0x40 MLOAD PUSH2 0x233 SWAP3 SWAP2 SWAP1 PUSH2 0x1886 JUMP JUMPDEST PUSH1 0x5 SLOAD PUSH2 0x24F SWAP1 PUSH1 0x1 PUSH1 0x1 PUSH1 0xA0 SHL SUB AND DUP2 JUMP JUMPDEST PUSH2 0x229 PUSH2 0x3C5 CALLDATASIZE PUSH1 0x4 PUSH2 0x18A9 JUMP JUMPDEST PUSH2 0xC28 JUMP JUMPDEST PUSH2 0x229 PUSH2 0x3D8 CALLDATASIZE PUSH1 0x4 PUSH2 0x17C3 JUMP JUMPDEST PUSH1 0xA PUSH1 0x20 MSTORE PUSH1 0x0 SWAP1 DUP2 MSTORE PUSH1 0x40 SWAP1 KECCAK256 SLOAD DUP2 JUMP JUMPDEST PUSH2 0x229 PUSH2 0x3F8 CALLDATASIZE PUSH1 0x4 PUSH2 0x14FC JUMP JUMPDEST PUSH2 0xCE7 JUMP JUMPDEST PUSH2 0x410 PUSH2 0x40B CALLDATASIZE PUSH1 0x4 PUSH2 0x1908 JUMP JUMPDEST PUSH2 0xD47 JUMP JUMPDEST STOP JUMPDEST PUSH1 0x6 SLOAD PUSH2 0x24F SWAP1 PUSH1 0x1 PUSH1 0x1 PUSH1 0xA0 SHL SUB AND DUP2 JUMP JUMPDEST PUSH2 0x438 PUSH2 0x433 CALLDATASIZE PUSH1 0x4 PUSH2 0x15CB JUMP JUMPDEST PUSH2 0xE04 JUMP JUMPDEST PUSH1 0x40 MLOAD PUSH2 0x233 SWAP4 SWAP3 SWAP2 SWAP1 PUSH2 0x1956 JUMP JUMPDEST PUSH1 0x1 SLOAD PUSH2 0x27B SWAP1 PUSH3 0x10000 SWAP1 DIV PUSH1 0xFF AND DUP2 JUMP JUMPDEST PUSH2 0x229 PUSH2 0x468 CALLDATASIZE PUSH1 0x4 PUSH2 0x198C JUMP JUMPDEST PUSH2 0xECF JUMP JUMPDEST PUSH1 0x10 SLOAD PUSH2 0x229 JUMP JUMPDEST PUSH2 0x47D PUSH2 0xF2D JUMP JUMPDEST PUSH1 0x40 MLOAD PUSH2 0x233 SWAP2 SWAP1 PUSH2 0x1A4C JUMP JUMPDEST PUSH2 0x49D PUSH2 0x498 CALLDATASIZE PUSH1 0x4 PUSH2 0x15CB JUMP JUMPDEST PUSH2 0x10B2 JUMP JUMPDEST PUSH1 0x40 DUP1 MLOAD PUSH1 0x1 PUSH1 0x1 PUSH1 0xA0 SHL SUB SWAP6 DUP7 AND DUP2 MSTORE PUSH1 0x20 DUP2 ADD SWAP5 SWAP1 SWAP5 MSTORE SWAP2 DUP5 AND SWAP2 DUP4 ADD SWAP2 SWAP1 SWAP2 MSTORE SWAP1 SWAP2 AND PUSH1 0x60 DUP3 ADD MSTORE PUSH1 0x80 ADD PUSH2 0x233 JUMP JUMPDEST PUSH2 0x4E3 PUSH2 0x4DE CALLDATASIZE PUSH1 0x4 PUSH2 0x1B21 JUMP JUMPDEST PUSH2 0x10FA JUMP JUMPDEST PUSH1 0x40 MLOAD SWAP1 ISZERO ISZERO DUP2 MSTORE PUSH1 0x20 ADD PUSH2 0x233 JUMP JUMPDEST PUSH2 0x506 PUSH2 0x501 CALLDATASIZE PUSH1 0x4 PUSH2 0x1B86 JUMP JUMPDEST PUSH2 0x11BC JUMP JUMPDEST PUSH1 0x40 MLOAD PUSH2 0x233 SWAP4 SWAP3 SWAP2 SWAP1 PUSH2 0x1BB2 JUMP JUMPDEST PUSH2 0x528 PUSH2 0x523 CALLDATASIZE PUSH1 0x4 PUSH2 0x15CB JUMP JUMPDEST PUSH2 0x1279 JUMP JUMPDEST PUSH1 0x40 MLOAD PUSH2 0x233 SWAP10 SWAP9 SWAP8 SWAP7 SWAP6 SWAP5 SWAP4 SWAP3 SWAP2 SWAP1 PUSH2 0x1BDE JUMP JUMPDEST PUSH2 0x229 PUSH2 0x54B CALLDATASIZE PUSH1 0x4 PUSH2 0x1C46 JUMP JUMPDEST PUSH2 0x1378 JUMP JUMPDEST PUSH1 0x1 SLOAD PUSH2 0x27B SWAP1 PUSH2 0x100 SWAP1 DIV PUSH1 0xFF AND DUP2 JUMP JUMPDEST PUSH1 0x1 SLOAD PUSH2 0x27B SWAP1 PUSH5 0x100000000 SWAP1 DIV PUSH1 0xFF AND DUP2 JUMP JUMPDEST PUSH1 0x1 SLOAD PUSH2 0x4E3 SWAP1 PUSH6 0x10000000000 SWAP1 DIV PUSH1 0xFF AND DUP2 JUMP JUMPDEST PUSH1 0x2 SLOAD PUSH1 0x40 MLOAD PUSH1 0x0 SWAP2 DUP3 SWAP2 PUSH1 0x1 PUSH1 0x1 PUSH1 0xA0 SHL SUB SWAP1 SWAP2 AND SWAP1 PUSH2 0x5B8 SWAP1 DUP9 SWAP1 DUP9 SWAP1 DUP9 SWAP1 DUP9 SWAP1 PUSH1 0x24 ADD PUSH2 0x1C98 JUMP JUMPDEST PUSH1 0x40 DUP1 MLOAD PUSH1 0x1F NOT DUP2 DUP5 SUB ADD DUP2 MSTORE SWAP2 DUP2 MSTORE PUSH1 0x20 DUP3 ADD DUP1 MLOAD PUSH1 0x1 PUSH1 0x1 PUSH1 0xE0 SHL SUB AND PUSH4 0x4F17A9B PUSH1 0xE0 SHL OR SWAP1 MSTORE MLOAD PUSH2 0x5ED SWAP2 SWAP1 PUSH2 0x1CD0 JUMP JUMPDEST PUSH1 0x0 PUSH1 0x40 MLOAD DUP1 DUP4 SUB DUP2 DUP6 GAS DELEGATECALL SWAP2 POP POP RETURNDATASIZE DUP1 PUSH1 0x0 DUP2 EQ PUSH2 0x628 JUMPI PUSH1 0x40 MLOAD SWAP2 POP PUSH1 0x1F NOT PUSH1 0x3F RETURNDATASIZE ADD AND DUP3 ADD PUSH1 0x40 MSTORE RETURNDATASIZE DUP3 MSTORE RETURNDATASIZE PUSH1 0x0 PUSH1 0x20 DUP5 ADD RETURNDATACOPY PUSH2 0x62D JUMP JUMPDEST PUSH1 0x60 SWAP2 POP JUMPDEST POP POP SWAP1 POP PUSH1 0x40 MLOAD RETURNDATASIZE DUP1 PUSH1 0x0 DUP4 RETURNDATACOPY DUP3 PUSH2 0x643 JUMPI DUP1 DUP3 REVERT JUMPDEST DUP1 DUP3 RETURN JUMPDEST PUSH1 0x2 SLOAD PUSH1 0x40 MLOAD PUSH1 0x0 SWAP2 DUP3 SWAP2 PUSH1 0x1 PUSH1 0x1 PUSH1 0xA0 SHL SUB SWAP1 SWAP2 AND SWAP1 PUSH2 0x674 SWAP1 DUP10 SWAP1 DUP10 SWAP1 DUP10 SWAP1 DUP10 SWAP1 DUP10 SWAP1 PUSH1 0x24 ADD PUSH2 0x1CEC JUMP JUMPDEST PUSH1 0x40 DUP1 MLOAD PUSH1 0x1F NOT DUP2 DUP5 SUB ADD DUP2 MSTORE SWAP2 DUP2 MSTORE PUSH1 0x20 DUP3 ADD DUP1 MLOAD PUSH1 0x1 PUSH1 0x1 PUSH1 0xE0 SHL SUB AND PUSH4 0x152DE3B9 PUSH1 0xE0 SHL OR SWAP1 MSTORE MLOAD PUSH2 0x5ED SWAP2 SWAP1 PUSH2 0x1CD0 JUMP JUMPDEST PUSH1 0x2 SLOAD PUSH1 0x40 MLOAD PUSH1 0x0 SWAP2 DUP3 SWAP2 PUSH1 0x1 PUSH1 0x1 PUSH1 0xA0 SHL SUB SWAP1 SWAP2 AND SWAP1 PUSH2 0x6D4 SWAP1 DUP9 SWAP1 DUP9 SWAP1 DUP9 SWAP1 DUP9 SWAP1 PUSH1 0x24 ADD PUSH2 0x1C98 JUMP JUMPDEST PUSH1 0x40 DUP1 MLOAD PUSH1 0x1F NOT DUP2 DUP5 SUB ADD DUP2 MSTORE SWAP2 DUP2 MSTORE PUSH1 0x20 DUP3 ADD DUP1 MLOAD PUSH1 0x1 PUSH1 0x1 PUSH1 0xE0 SHL SUB AND PUSH4 0x899B86F PUSH1 0xE2 SHL OR SWAP1 MSTORE MLOAD PUSH2 0x5ED SWAP2 SWAP1 PUSH2 0x1CD0 JUMP JUMPDEST PUSH1 0x10 DUP2 DUP2 SLOAD DUP2 LT PUSH2 0x719 JUMPI PUSH1 0x0 DUP1 REVERT JUMPDEST PUSH1 0x0 SWAP2 DUP3 MSTORE PUSH1 0x20 SWAP1 SWAP2 KECCAK256 PUSH1 0x4 SWAP1 SWAP2 MUL ADD DUP1 SLOAD PUSH1 0x1 DUP3 ADD DUP1 SLOAD PUSH1 0x1 PUSH1 0x1 PUSH1 0xA0 SHL SUB SWAP1 SWAP3 AND SWAP4 POP SWAP1 PUSH2 0x748 SWAP1 PUSH2 0x1D31 JUMP JUMPDEST DUP1 PUSH1 0x1F ADD PUSH1 0x20 DUP1 SWAP2 DIV MUL PUSH1 0x20 ADD PUSH1 0x40 MLOAD SWAP1 DUP2 ADD PUSH1 0x40 MSTORE DUP1 SWAP3 SWAP2 SWAP1 DUP2 DUP2 MSTORE PUSH1 0x20 ADD DUP3 DUP1 SLOAD PUSH2 0x774 SWAP1 PUSH2 0x1D31 JUMP JUMPDEST DUP1 ISZERO PUSH2 0x7C1 JUMPI DUP1 PUSH1 0x1F LT PUSH2 0x796 JUMPI PUSH2 0x100 DUP1 DUP4 SLOAD DIV MUL DUP4 MSTORE SWAP2 PUSH1 0x20 ADD SWAP2 PUSH2 0x7C1 JUMP JUMPDEST DUP3 ADD SWAP2 SWAP1 PUSH1 0x0 MSTORE PUSH1 0x20 PUSH1 0x0 KECCAK256 SWAP1 JUMPDEST DUP2 SLOAD DUP2 MSTORE SWAP1 PUSH1 0x1 ADD SWAP1 PUSH1 0x20 ADD DUP1 DUP4 GT PUSH2 0x7A4 JUMPI DUP3 SWAP1 SUB PUSH1 0x1F AND DUP3 ADD SWAP2 JUMPDEST POP POP POP POP PUSH1 0x2 DUP4 ADD SLOAD PUSH1 0x3 SWAP1 SWAP4 ADD SLOAD SWAP2 SWAP3 SWAP2 PUSH1 0xFF DUP1 DUP3 AND SWAP3 POP PUSH2 0x100 SWAP1 SWAP2 DIV AND DUP6 JUMP JUMPDEST PUSH1 0x2 SLOAD PUSH1 0x40 MLOAD PUSH1 0x0 SWAP2 DUP3 SWAP2 PUSH1 0x1 PUSH1 0x1 PUSH1 0xA0 SHL SUB SWAP1 SWAP2 AND SWAP1 PUSH2 0x80F SWAP1 DUP9 SWAP1 DUP9 SWAP1 DUP9 SWAP1 DUP9 SWAP1 PUSH1 0x24 ADD PUSH2 0x1D6C JUMP JUMPDEST PUSH1 0x40 DUP1 MLOAD PUSH1 0x1F NOT DUP2 DUP5 SUB ADD DUP2 MSTORE SWAP2 DUP2 MSTORE PUSH1 0x20 DUP3 ADD DUP1 MLOAD PUSH1 0x1 PUSH1 0x1 PUSH1 0xE0 SHL SUB AND PUSH4 0xA95FBE1 PUSH1 0xE2 SHL OR SWAP1 MSTORE MLOAD PUSH2 0x844 SWAP2 SWAP1 PUSH2 0x1CD0 JUMP JUMPDEST PUSH1 0x0 PUSH1 0x40 MLOAD DUP1 DUP4 SUB DUP2 DUP6 GAS DELEGATECALL SWAP2 POP POP RETURNDATASIZE DUP1 PUSH1 0x0 DUP2 EQ PUSH2 0x87F JUMPI PUSH1 0x40 MLOAD SWAP2 POP PUSH1 0x1F NOT PUSH1 0x3F RETURNDATASIZE ADD AND DUP3 ADD PUSH1 0x40 MSTORE RETURNDATASIZE DUP3 MSTORE RETURNDATASIZE PUSH1 0x0 PUSH1 0x20 DUP5 ADD RETURNDATACOPY PUSH2 0x884 JUMP JUMPDEST PUSH1 0x60 SWAP2 POP JUMPDEST POP POP SWAP1 POP PUSH1 0x40 MLOAD RETURNDATASIZE DUP1 PUSH1 0x0 DUP4 RETURNDATACOPY DUP3 PUSH2 0x89A JUMPI DUP1 DUP3 REVERT JUMPDEST POP MLOAD SWAP7 SWAP6 POP POP POP POP POP POP JUMP JUMPDEST PUSH1 0x2 SLOAD PUSH1 0x40 MLOAD PUSH1 0x0 SWAP2 DUP3 SWAP2 PUSH1 0x1 PUSH1 0x1 PUSH1 0xA0 SHL SUB SWAP1 SWAP2 AND SWAP1 PUSH2 0x8D5 SWAP1 DUP11 SWAP1 DUP11 SWAP1 DUP11 SWAP1 DUP11 SWAP1 DUP11 SWAP1 DUP11 SWAP1 PUSH1 0x24 ADD PUSH2 0x1DB3 JUMP JUMPDEST PUSH1 0x40 DUP1 MLOAD PUSH1 0x1F NOT DUP2 DUP5 SUB ADD DUP2 MSTORE SWAP2 DUP2 MSTORE PUSH1 0x20 DUP3 ADD DUP1 MLOAD PUSH1 0x1 PUSH1 0x1 PUSH1 0xE0 SHL SUB AND PUSH4 0x31A0AFA7 PUSH1 0xE0 SHL OR SWAP1 MSTORE MLOAD PUSH2 0x90A SWAP2 SWAP1 PUSH2 0x1CD0 JUMP JUMPDEST PUSH1 0x0 PUSH1 0x40 MLOAD DUP1 DUP4 SUB DUP2 DUP6 GAS DELEGATECALL SWAP2 POP POP RETURNDATASIZE DUP1 PUSH1 0x0 DUP2 EQ PUSH2 0x945 JUMPI PUSH1 0x40 MLOAD SWAP2 POP PUSH1 0x1F NOT PUSH1 0x3F RETURNDATASIZE ADD AND DUP3 ADD PUSH1 0x40 MSTORE RETURNDATASIZE DUP3 MSTORE RETURNDATASIZE PUSH1 0x0 PUSH1 0x20 DUP5 ADD RETURNDATACOPY PUSH2 0x94A JUMP JUMPDEST PUSH1 0x60 SWAP2 POP JUMPDEST POP POP SWAP1 POP PUSH1 0x40 MLOAD RETURNDATASIZE DUP1 PUSH1 0x0 DUP4 RETURNDATACOPY DUP3 PUSH2 0x960 JUMPI DUP1 DUP3 REVERT JUMPDEST POP MLOAD SWAP9 SWAP8 POP POP POP POP POP POP POP POP JUMP JUMPDEST PUSH1 0xF DUP2 DUP2 SLOAD DUP2 LT PUSH2 0x97E JUMPI PUSH1 0x0 DUP1 REVERT JUMPDEST PUSH1 0x0 SWAP2 DUP3 MSTORE PUSH1 0x20 SWAP1 SWAP2 KECCAK256 ADD SLOAD PUSH1 0xFF AND SWAP1 POP DUP2 JUMP JUMPDEST PUSH1 0x0 DUP1 SLOAD PUSH2 0x99F SWAP1 PUSH2 0x1D31 JUMP JUMPDEST DUP1 PUSH1 0x1F ADD PUSH1 0x20 DUP1 SWAP2 DIV MUL PUSH1 0x20 ADD PUSH1 0x40 MLOAD SWAP1 DUP2 ADD PUSH1 0x40 MSTORE DUP1 SWAP3 SWAP2 SWAP1 DUP2 DUP2 MSTORE PUSH1 0x20 ADD DUP3 DUP1 SLOAD PUSH2 0x9CB SWAP1 PUSH2 0x1D31 JUMP JUMPDEST DUP1 ISZERO PUSH2 0xA18 JUMPI DUP1 PUSH1 0x1F LT PUSH2 0x9ED JUMPI PUSH2 0x100 DUP1 DUP4 SLOAD DIV MUL DUP4 MSTORE SWAP2 PUSH1 0x20 ADD SWAP2 PUSH2 0xA18 JUMP JUMPDEST DUP3 ADD SWAP2 SWAP1 PUSH1 0x0 MSTORE PUSH1 0x20 PUSH1 0x0 KECCAK256 SWAP1 JUMPDEST DUP2 SLOAD DUP2 MSTORE SWAP1 PUSH1 0x1 ADD SWAP1 PUSH1 0x20 ADD DUP1 DUP4 GT PUSH2 0x9FB JUMPI DUP3 SWAP1 SUB PUSH1 0x1F AND DUP3 ADD SWAP2 JUMPDEST POP POP POP POP POP DUP2 JUMP JUMPDEST PUSH1 0x60 PUSH1 0xD DUP1 SLOAD DUP1 PUSH1 0x20 MUL PUSH1 0x20 ADD PUSH1 0x40 MLOAD SWAP1 DUP2 ADD PUSH1 0x40 MSTORE DUP1 SWAP3 SWAP2 SWAP1 DUP2 DUP2 MSTORE PUSH1 0x20 ADD PUSH1 0x0 SWAP1 JUMPDEST DUP3 DUP3 LT ISZERO PUSH2 0xB30 JUMPI PUSH1 0x0 DUP5 DUP2 MSTORE PUSH1 0x20 SWAP1 DUP2 SWAP1 KECCAK256 PUSH1 0x40 DUP1 MLOAD PUSH1 0x60 DUP2 ADD SWAP1 SWAP2 MSTORE PUSH1 0x3 DUP6 MUL SWAP1 SWAP2 ADD DUP1 SLOAD PUSH1 0x1 PUSH1 0x1 PUSH1 0xA0 SHL SUB AND DUP3 MSTORE PUSH1 0x1 DUP2 ADD DUP1 SLOAD SWAP3 SWAP4 SWAP2 SWAP3 SWAP2 DUP5 ADD SWAP2 PUSH2 0xA8D SWAP1 PUSH2 0x1D31 JUMP JUMPDEST DUP1 PUSH1 0x1F ADD PUSH1 0x20 DUP1 SWAP2 DIV MUL PUSH1 0x20 ADD PUSH1 0x40 MLOAD SWAP1 DUP2 ADD PUSH1 0x40 MSTORE DUP1 SWAP3 SWAP2 SWAP1 DUP2 DUP2 MSTORE PUSH1 0x20 ADD DUP3 DUP1 SLOAD PUSH2 0xAB9 SWAP1 PUSH2 0x1D31 JUMP JUMPDEST DUP1 ISZERO PUSH2 0xB06 JUMPI DUP1 PUSH1 0x1F LT PUSH2 0xADB JUMPI PUSH2 0x100 DUP1 DUP4 SLOAD DIV MUL DUP4 MSTORE SWAP2 PUSH1 0x20 ADD SWAP2 PUSH2 0xB06 JUMP JUMPDEST DUP3 ADD SWAP2 SWAP1 PUSH1 0x0 MSTORE PUSH1 0x20 PUSH1 0x0 KECCAK256 SWAP1 JUMPDEST DUP2 SLOAD DUP2 MSTORE SWAP1 PUSH1 0x1 ADD SWAP1 PUSH1 0x20 ADD DUP1 DUP4 GT PUSH2 0xAE9 JUMPI DUP3 SWAP1 SUB PUSH1 0x1F AND DUP3 ADD SWAP2 JUMPDEST POP POP POP SWAP2 DUP4 MSTORE POP POP PUSH1 0x2 SWAP2 SWAP1 SWAP2 ADD SLOAD PUSH1 0xFF AND ISZERO ISZERO PUSH1 0x20 SWAP2 DUP3 ADD MSTORE SWAP1 DUP3 MSTORE PUSH1 0x1 SWAP3 SWAP1 SWAP3 ADD SWAP2 ADD PUSH2 0xA44 JUMP JUMPDEST POP POP POP POP SWAP1 POP SWAP1 JUMP JUMPDEST PUSH1 0x2 SLOAD PUSH1 0x40 MLOAD PUSH1 0x24 DUP2 ADD DUP4 SWAP1 MSTORE PUSH1 0x0 SWAP2 PUSH1 0x60 SWAP2 DUP4 SWAP2 PUSH1 0x1 PUSH1 0x1 PUSH1 0xA0 SHL SUB AND SWAP1 PUSH1 0x44 ADD PUSH1 0x40 DUP1 MLOAD PUSH1 0x1F NOT DUP2 DUP5 SUB ADD DUP2 MSTORE SWAP2 DUP2 MSTORE PUSH1 0x20 DUP3 ADD DUP1 MLOAD PUSH1 0x1 PUSH1 0x1 PUSH1 0xE0 SHL SUB AND PUSH4 0x5F3D99B3 PUSH1 0xE0 SHL OR SWAP1 MSTORE MLOAD PUSH2 0xB90 SWAP2 SWAP1 PUSH2 0x1CD0 JUMP JUMPDEST PUSH1 0x0 PUSH1 0x40 MLOAD DUP1 DUP4 SUB DUP2 DUP6 GAS DELEGATECALL SWAP2 POP POP RETURNDATASIZE DUP1 PUSH1 0x0 DUP2 EQ PUSH2 0xBCB JUMPI PUSH1 0x40 MLOAD SWAP2 POP PUSH1 0x1F NOT PUSH1 0x3F RETURNDATASIZE ADD AND DUP3 ADD PUSH1 0x40 MSTORE RETURNDATASIZE DUP3 MSTORE RETURNDATASIZE PUSH1 0x0 PUSH1 0x20 DUP5 ADD RETURNDATACOPY PUSH2 0xBD0 JUMP JUMPDEST PUSH1 0x60 SWAP2 POP JUMPDEST POP POP SWAP1 POP DUP1 PUSH2 0xBE6 JUMPI PUSH1 0x40 MLOAD RETURNDATASIZE DUP1 PUSH1 0x0 DUP4 RETURNDATACOPY DUP1 DUP3 REVERT JUMPDEST PUSH1 0x1 PUSH1 0x40 MLOAD DUP1 PUSH1 0x40 ADD PUSH1 0x40 MSTORE DUP1 PUSH1 0x19 DUP2 MSTORE PUSH1 0x20 ADD PUSH32 0x537563636573732065786563757465642070726F706F73616C00000000000000 DUP2 MSTORE POP SWAP3 POP SWAP3 POP POP SWAP2 POP SWAP2 JUMP JUMPDEST PUSH1 0x2 SLOAD PUSH1 0x40 MLOAD PUSH1 0x0 SWAP2 DUP3 SWAP2 PUSH1 0x1 PUSH1 0x1 PUSH1 0xA0 SHL SUB SWAP1 SWAP2 AND SWAP1 PUSH2 0xC51 SWAP1 DUP8 SWAP1 DUP8 SWAP1 DUP8 SWAP1 PUSH1 0x24 ADD PUSH2 0x1E18 JUMP JUMPDEST PUSH1 0x40 DUP1 MLOAD PUSH1 0x1F NOT DUP2 DUP5 SUB ADD DUP2 MSTORE SWAP2 DUP2 MSTORE PUSH1 0x20 DUP3 ADD DUP1 MLOAD PUSH1 0x1 PUSH1 0x1 PUSH1 0xE0 SHL SUB AND PUSH4 0x70ACB761 PUSH1 0xE0 SHL OR SWAP1 MSTORE MLOAD PUSH2 0xC86 SWAP2 SWAP1 PUSH2 0x1CD0 JUMP JUMPDEST PUSH1 0x0 PUSH1 0x40 MLOAD DUP1 DUP4 SUB DUP2 DUP6 GAS DELEGATECALL SWAP2 POP POP RETURNDATASIZE DUP1 PUSH1 0x0 DUP2 EQ PUSH2 0xCC1 JUMPI PUSH1 0x40 MLOAD SWAP2 POP PUSH1 0x1F NOT PUSH1 0x3F RETURNDATASIZE ADD AND DUP3 ADD PUSH1 0x40 MSTORE RETURNDATASIZE DUP3 MSTORE RETURNDATASIZE PUSH1 0x0 PUSH1 0x20 DUP5 ADD RETURNDATACOPY PUSH2 0xCC6 JUMP JUMPDEST PUSH1 0x60 SWAP2 POP JUMPDEST POP POP SWAP1 POP PUSH1 0x40 MLOAD RETURNDATASIZE DUP1 PUSH1 0x0 DUP4 RETURNDATACOPY DUP3 PUSH2 0xCDC JUMPI DUP1 DUP3 REVERT JUMPDEST POP MLOAD SWAP6 SWAP5 POP POP POP POP POP JUMP JUMPDEST PUSH1 0x2 SLOAD PUSH1 0x40 MLOAD PUSH1 0x0 SWAP2 DUP3 SWAP2 PUSH1 0x1 PUSH1 0x1 PUSH1 0xA0 SHL SUB SWAP1 SWAP2 AND SWAP1 PUSH2 0xD12 SWAP1 DUP9 SWAP1 DUP9 SWAP1 DUP9 SWAP1 DUP9 SWAP1 PUSH1 0x24 ADD PUSH2 0x1C98 JUMP JUMPDEST PUSH1 0x40 DUP1 MLOAD PUSH1 0x1F NOT DUP2 DUP5 SUB ADD DUP2 MSTORE SWAP2 DUP2 MSTORE PUSH1 0x20 DUP3 ADD DUP1 MLOAD PUSH1 0x1 PUSH1 0x1 PUSH1 0xE0 SHL SUB AND PUSH4 0xF8C70A9 PUSH1 0xE3 SHL OR SWAP1 MSTORE MLOAD PUSH2 0x844 SWAP2 SWAP1 PUSH2 0x1CD0 JUMP JUMPDEST PUSH1 0x1 SLOAD PUSH1 0x40 MLOAD PUSH1 0x0 SWAP2 PUSH7 0x1000000000000 SWAP1 DIV PUSH1 0x1 PUSH1 0x1 PUSH1 0xA0 SHL SUB AND SWAP1 PUSH2 0xD74 SWAP1 DUP6 SWAP1 DUP6 SWAP1 PUSH1 0x24 ADD PUSH2 0x1886 JUMP JUMPDEST PUSH1 0x40 DUP1 MLOAD PUSH1 0x1F NOT DUP2 DUP5 SUB ADD DUP2 MSTORE SWAP2 DUP2 MSTORE PUSH1 0x20 DUP3 ADD DUP1 MLOAD PUSH1 0x1 PUSH1 0x1 PUSH1 0xE0 SHL SUB AND PUSH4 0x1039E45B PUSH1 0xE3 SHL OR SWAP1 MSTORE MLOAD PUSH2 0xDA9 SWAP2 SWAP1 PUSH2 0x1CD0 JUMP JUMPDEST PUSH1 0x0 PUSH1 0x40 MLOAD DUP1 DUP4 SUB DUP2 DUP6 GAS DELEGATECALL SWAP2 POP POP RETURNDATASIZE DUP1 PUSH1 0x0 DUP2 EQ PUSH2 0xDE4 JUMPI PUSH1 0x40 MLOAD SWAP2 POP PUSH1 0x1F NOT PUSH1 0x3F RETURNDATASIZE ADD AND DUP3 ADD PUSH1 0x40 MSTORE RETURNDATASIZE DUP3 MSTORE RETURNDATASIZE PUSH1 0x0 PUSH1 0x20 DUP5 ADD RETURNDATACOPY PUSH2 0xDE9 JUMP JUMPDEST PUSH1 0x60 SWAP2 POP JUMPDEST POP POP SWAP1 POP DUP1 PUSH2 0xDFF JUMPI PUSH1 0x40 MLOAD RETURNDATASIZE DUP1 PUSH1 0x0 DUP4 RETURNDATACOPY DUP1 DUP3 REVERT JUMPDEST POP POP POP JUMP JUMPDEST PUSH1 0xD DUP2 DUP2 SLOAD DUP2 LT PUSH2 0xE14 JUMPI PUSH1 0x0 DUP1 REVERT JUMPDEST PUSH1 0x0 SWAP2 DUP3 MSTORE PUSH1 0x20 SWAP1 SWAP2 KECCAK256 PUSH1 0x3 SWAP1 SWAP2 MUL ADD DUP1 SLOAD PUSH1 0x1 DUP3 ADD DUP1 SLOAD PUSH1 0x1 PUSH1 0x1 PUSH1 0xA0 SHL SUB SWAP1 SWAP3 AND SWAP4 POP SWAP1 PUSH2 0xE43 SWAP1 PUSH2 0x1D31 JUMP JUMPDEST DUP1 PUSH1 0x1F ADD PUSH1 0x20 DUP1 SWAP2 DIV MUL PUSH1 0x20 ADD PUSH1 0x40 MLOAD SWAP1 DUP2 ADD PUSH1 0x40 MSTORE DUP1 SWAP3 SWAP2 SWAP1 DUP2 DUP2 MSTORE PUSH1 0x20 ADD DUP3 DUP1 SLOAD PUSH2 0xE6F SWAP1 PUSH2 0x1D31 JUMP JUMPDEST DUP1 ISZERO PUSH2 0xEBC JUMPI DUP1 PUSH1 0x1F LT PUSH2 0xE91 JUMPI PUSH2 0x100 DUP1 DUP4 SLOAD DIV MUL DUP4 MSTORE SWAP2 PUSH1 0x20 ADD SWAP2 PUSH2 0xEBC JUMP JUMPDEST DUP3 ADD SWAP2 SWAP1 PUSH1 0x0 MSTORE PUSH1 0x20 PUSH1 0x0 KECCAK256 SWAP1 JUMPDEST DUP2 SLOAD DUP2 MSTORE SWAP1 PUSH1 0x1 ADD SWAP1 PUSH1 0x20 ADD DUP1 DUP4 GT PUSH2 0xE9F JUMPI DUP3 SWAP1 SUB PUSH1 0x1F AND DUP3 ADD SWAP2 JUMPDEST POP POP POP PUSH1 0x2 SWAP1 SWAP4 ADD SLOAD SWAP2 SWAP3 POP POP PUSH1 0xFF AND DUP4 JUMP JUMPDEST PUSH1 0x2 SLOAD PUSH1 0x40 MLOAD PUSH1 0x0 SWAP2 DUP3 SWAP2 PUSH1 0x1 PUSH1 0x1 PUSH1 0xA0 SHL SUB SWAP1 SWAP2 AND SWAP1 PUSH2 0xEF8 SWAP1 DUP8 SWAP1 DUP8 SWAP1 DUP8 SWAP1 PUSH1 0x24 ADD PUSH2 0x1E44 JUMP JUMPDEST PUSH1 0x40 DUP1 MLOAD PUSH1 0x1F NOT DUP2 DUP5 SUB ADD DUP2 MSTORE SWAP2 DUP2 MSTORE PUSH1 0x20 DUP3 ADD DUP1 MLOAD PUSH1 0x1 PUSH1 0x1 PUSH1 0xE0 SHL SUB AND PUSH4 0xA19A5F5 PUSH1 0xE4 SHL OR SWAP1 MSTORE MLOAD PUSH2 0x5ED SWAP2 SWAP1 PUSH2 0x1CD0 JUMP JUMPDEST PUSH1 0x60 PUSH1 0xC DUP1 SLOAD DUP1 PUSH1 0x20 MUL PUSH1 0x20 ADD PUSH1 0x40 MLOAD SWAP1 DUP2 ADD PUSH1 0x40 MSTORE DUP1 SWAP3 SWAP2 SWAP1 DUP2 DUP2 MSTORE PUSH1 0x20 ADD PUSH1 0x0 SWAP1 JUMPDEST DUP3 DUP3 LT ISZERO PUSH2 0xB30 JUMPI PUSH1 0x0 DUP5 DUP2 MSTORE PUSH1 0x20 SWAP1 DUP2 SWAP1 KECCAK256 PUSH1 0x40 DUP1 MLOAD PUSH2 0x120 DUP2 ADD SWAP1 SWAP2 MSTORE PUSH1 0x5 DUP6 MUL SWAP1 SWAP2 ADD DUP1 SLOAD PUSH1 0x1 PUSH1 0x1 PUSH1 0xA0 SHL SUB DUP2 AND DUP4 MSTORE SWAP2 SWAP3 SWAP1 SWAP2 SWAP1 DUP4 ADD SWAP1 PUSH1 0x1 PUSH1 0xA0 SHL SWAP1 DIV PUSH1 0xFF AND PUSH1 0x8 DUP2 GT ISZERO PUSH2 0xFA8 JUMPI PUSH2 0xFA8 PUSH2 0x1A14 JUMP JUMPDEST PUSH1 0x8 DUP2 GT ISZERO PUSH2 0xFB9 JUMPI PUSH2 0xFB9 PUSH2 0x1A14 JUMP JUMPDEST DUP2 MSTORE PUSH1 0x20 ADD PUSH1 0x1 DUP3 ADD DUP1 SLOAD PUSH2 0xFCD SWAP1 PUSH2 0x1D31 JUMP JUMPDEST DUP1 PUSH1 0x1F ADD PUSH1 0x20 DUP1 SWAP2 DIV MUL PUSH1 0x20 ADD PUSH1 0x40 MLOAD SWAP1 DUP2 ADD PUSH1 0x40 MSTORE DUP1 SWAP3 SWAP2 SWAP1 DUP2 DUP2 MSTORE PUSH1 0x20 ADD DUP3 DUP1 SLOAD PUSH2 0xFF9 SWAP1 PUSH2 0x1D31 JUMP JUMPDEST DUP1 ISZERO PUSH2 0x1046 JUMPI DUP1 PUSH1 0x1F LT PUSH2 0x101B JUMPI PUSH2 0x100 DUP1 DUP4 SLOAD DIV MUL DUP4 MSTORE SWAP2 PUSH1 0x20 ADD SWAP2 PUSH2 0x1046 JUMP JUMPDEST DUP3 ADD SWAP2 SWAP1 PUSH1 0x0 MSTORE PUSH1 0x20 PUSH1 0x0 KECCAK256 SWAP1 JUMPDEST DUP2 SLOAD DUP2 MSTORE SWAP1 PUSH1 0x1 ADD SWAP1 PUSH1 0x20 ADD DUP1 DUP4 GT PUSH2 0x1029 JUMPI DUP3 SWAP1 SUB PUSH1 0x1F AND DUP3 ADD SWAP2 JUMPDEST POP POP POP SWAP2 DUP4 MSTORE POP POP PUSH1 0x2 DUP3 ADD SLOAD PUSH1 0x20 DUP1 DUP4 ADD SWAP2 SWAP1 SWAP2 MSTORE PUSH1 0x3 DUP4 ADD SLOAD PUSH1 0xFF DUP1 DUP3 AND PUSH1 0x40 DUP6 ADD MSTORE PUSH2 0x100 DUP3 DIV DUP2 AND PUSH1 0x60 DUP6 ADD MSTORE PUSH3 0x10000 DUP3 DIV DUP2 AND ISZERO ISZERO PUSH1 0x80 DUP6 ADD MSTORE PUSH4 0x1000000 SWAP1 SWAP2 DIV AND ISZERO ISZERO PUSH1 0xA0 DUP4 ADD MSTORE PUSH1 0x4 SWAP1 SWAP3 ADD SLOAD PUSH1 0xC0 SWAP1 SWAP2 ADD MSTORE SWAP1 DUP3 MSTORE PUSH1 0x1 SWAP3 SWAP1 SWAP3 ADD SWAP2 ADD PUSH2 0xF51 JUMP JUMPDEST PUSH1 0xE DUP2 DUP2 SLOAD DUP2 LT PUSH2 0x10C2 JUMPI PUSH1 0x0 DUP1 REVERT JUMPDEST PUSH1 0x0 SWAP2 DUP3 MSTORE PUSH1 0x20 SWAP1 SWAP2 KECCAK256 PUSH1 0x4 SWAP1 SWAP2 MUL ADD DUP1 SLOAD PUSH1 0x1 DUP3 ADD SLOAD PUSH1 0x2 DUP4 ADD SLOAD PUSH1 0x3 SWAP1 SWAP4 ADD SLOAD PUSH1 0x1 PUSH1 0x1 PUSH1 0xA0 SHL SUB SWAP3 DUP4 AND SWAP5 POP SWAP1 SWAP3 DUP3 AND SWAP2 AND DUP5 JUMP JUMPDEST PUSH1 0x2 SLOAD PUSH1 0x40 MLOAD PUSH1 0x0 SWAP2 DUP3 SWAP2 PUSH1 0x1 PUSH1 0x1 PUSH1 0xA0 SHL SUB SWAP1 SWAP2 AND SWAP1 PUSH2 0x1125 SWAP1 DUP9 SWAP1 DUP9 SWAP1 DUP9 SWAP1 DUP9 SWAP1 PUSH1 0x24 ADD PUSH2 0x1E87 JUMP JUMPDEST PUSH1 0x40 DUP1 MLOAD PUSH1 0x1F NOT DUP2 DUP5 SUB ADD DUP2 MSTORE SWAP2 DUP2 MSTORE PUSH1 0x20 DUP3 ADD DUP1 MLOAD PUSH1 0x1 PUSH1 0x1 PUSH1 0xE0 SHL SUB AND PUSH4 0x18567541 PUSH1 0xE3 SHL OR SWAP1 MSTORE MLOAD PUSH2 0x115A SWAP2 SWAP1 PUSH2 0x1CD0 JUMP JUMPDEST PUSH1 0x0 PUSH1 0x40 MLOAD DUP1 DUP4 SUB DUP2 DUP6 GAS DELEGATECALL SWAP2 POP POP RETURNDATASIZE DUP1 PUSH1 0x0 DUP2 EQ PUSH2 0x1195 JUMPI PUSH1 0x40 MLOAD SWAP2 POP PUSH1 0x1F NOT PUSH1 0x3F RETURNDATASIZE ADD AND DUP3 ADD PUSH1 0x40 MSTORE RETURNDATASIZE DUP3 MSTORE RETURNDATASIZE PUSH1 0x0 PUSH1 0x20 DUP5 ADD RETURNDATACOPY PUSH2 0x119A JUMP JUMPDEST PUSH1 0x60 SWAP2 POP JUMPDEST POP POP SWAP1 POP DUP1 PUSH2 0x11B0 JUMPI PUSH1 0x40 MLOAD RETURNDATASIZE DUP1 PUSH1 0x0 DUP4 RETURNDATACOPY DUP1 DUP3 REVERT JUMPDEST POP PUSH1 0x1 SWAP6 SWAP5 POP POP POP POP POP JUMP JUMPDEST PUSH1 0xB PUSH1 0x20 SWAP1 DUP2 MSTORE PUSH1 0x0 SWAP3 DUP4 MSTORE PUSH1 0x40 DUP1 DUP5 KECCAK256 SWAP1 SWAP2 MSTORE SWAP1 DUP3 MSTORE SWAP1 KECCAK256 DUP1 SLOAD PUSH1 0x1 DUP3 ADD DUP1 SLOAD PUSH1 0xFF DUP1 DUP5 AND SWAP5 PUSH2 0x100 SWAP1 SWAP5 DIV AND SWAP3 SWAP2 SWAP1 PUSH2 0x11F6 SWAP1 PUSH2 0x1D31 JUMP JUMPDEST DUP1 PUSH1 0x1F ADD PUSH1 0x20 DUP1 SWAP2 DIV MUL PUSH1 0x20 ADD PUSH1 0x40 MLOAD SWAP1 DUP2 ADD PUSH1 0x40 MSTORE DUP1 SWAP3 SWAP2 SWAP1 DUP2 DUP2 MSTORE PUSH1 0x20 ADD DUP3 DUP1 SLOAD PUSH2 0x1222 SWAP1 PUSH2 0x1D31 JUMP JUMPDEST DUP1 ISZERO PUSH2 0x126F JUMPI DUP1 PUSH1 0x1F LT PUSH2 0x1244 JUMPI PUSH2 0x100 DUP1 DUP4 SLOAD DIV MUL DUP4 MSTORE SWAP2 PUSH1 0x20 ADD SWAP2 PUSH2 0x126F JUMP JUMPDEST DUP3 ADD SWAP2 SWAP1 PUSH1 0x0 MSTORE PUSH1 0x20 PUSH1 0x0 KECCAK256 SWAP1 JUMPDEST DUP2 SLOAD DUP2 MSTORE SWAP1 PUSH1 0x1 ADD SWAP1 PUSH1 0x20 ADD DUP1 DUP4 GT PUSH2 0x1252 JUMPI DUP3 SWAP1 SUB PUSH1 0x1F AND DUP3 ADD SWAP2 JUMPDEST POP POP POP POP POP SWAP1 POP DUP4 JUMP JUMPDEST PUSH1 0xC DUP2 DUP2 SLOAD DUP2 LT PUSH2 0x1289 JUMPI PUSH1 0x0 DUP1 REVERT JUMPDEST PUSH1 0x0 SWAP2 DUP3 MSTORE PUSH1 0x20 SWAP1 SWAP2 KECCAK256 PUSH1 0x5 SWAP1 SWAP2 MUL ADD DUP1 SLOAD PUSH1 0x1 DUP3 ADD DUP1 SLOAD PUSH1 0x1 PUSH1 0x1 PUSH1 0xA0 SHL SUB DUP4 AND SWAP5 POP PUSH1 0x1 PUSH1 0xA0 SHL SWAP1 SWAP3 DIV PUSH1 0xFF AND SWAP3 SWAP2 PUSH2 0x12C3 SWAP1 PUSH2 0x1D31 JUMP JUMPDEST DUP1 PUSH1 0x1F ADD PUSH1 0x20 DUP1 SWAP2 DIV MUL PUSH1 0x20 ADD PUSH1 0x40 MLOAD SWAP1 DUP2 ADD PUSH1 0x40 MSTORE DUP1 SWAP3 SWAP2 SWAP1 DUP2 DUP2 MSTORE PUSH1 0x20 ADD DUP3 DUP1 SLOAD PUSH2 0x12EF SWAP1 PUSH2 0x1D31 JUMP JUMPDEST DUP1 ISZERO PUSH2 0x133C JUMPI DUP1 PUSH1 0x1F LT PUSH2 0x1311 JUMPI PUSH2 0x100 DUP1 DUP4 SLOAD DIV MUL DUP4 MSTORE SWAP2 PUSH1 0x20 ADD SWAP2 PUSH2 0x133C JUMP JUMPDEST DUP3 ADD SWAP2 SWAP1 PUSH1 0x0 MSTORE PUSH1 0x20 PUSH1 0x0 KECCAK256 SWAP1 JUMPDEST DUP2 SLOAD DUP2 MSTORE SWAP1 PUSH1 0x1 ADD SWAP1 PUSH1 0x20 ADD DUP1 DUP4 GT PUSH2 0x131F JUMPI DUP3 SWAP1 SUB PUSH1 0x1F AND DUP3 ADD SWAP2 JUMPDEST POP POP POP PUSH1 0x2 DUP5 ADD SLOAD PUSH1 0x3 DUP6 ADD SLOAD PUSH1 0x4 SWAP1 SWAP6 ADD SLOAD SWAP4 SWAP5 SWAP1 SWAP4 PUSH1 0xFF DUP1 DUP4 AND SWAP5 POP PUSH2 0x100 DUP4 DIV DUP2 AND SWAP4 POP PUSH3 0x10000 DUP4 DIV DUP2 AND SWAP3 PUSH4 0x1000000 SWAP1 DIV AND SWAP1 DUP10 JUMP JUMPDEST PUSH1 0x2 SLOAD PUSH1 0x40 MLOAD PUSH1 0x0 SWAP2 DUP3 SWAP2 PUSH1 0x1 PUSH1 0x1 PUSH1 0xA0 SHL SUB SWAP1 SWAP2 AND SWAP1 PUSH2 0x13A5 SWAP1 DUP10 SWAP1 DUP10 SWAP1 DUP10 SWAP1 DUP10 SWAP1 DUP10 SWAP1 PUSH1 0x24 ADD PUSH2 0x1EBA JUMP JUMPDEST PUSH1 0x40 DUP1 MLOAD PUSH1 0x1F NOT DUP2 DUP5 SUB ADD DUP2 MSTORE SWAP2 DUP2 MSTORE PUSH1 0x20 DUP3 ADD DUP1 MLOAD PUSH1 0x1 PUSH1 0x1 PUSH1 0xE0 SHL SUB AND PUSH4 0x6F2D58A7 PUSH1 0xE1 SHL OR SWAP1 MSTORE MLOAD PUSH2 0x13DA SWAP2 SWAP1 PUSH2 0x1CD0 JUMP JUMPDEST PUSH1 0x0 PUSH1 0x40 MLOAD DUP1 DUP4 SUB DUP2 DUP6 GAS DELEGATECALL SWAP2 POP POP RETURNDATASIZE DUP1 PUSH1 0x0 DUP2 EQ PUSH2 0x1415 JUMPI PUSH1 0x40 MLOAD SWAP2 POP PUSH1 0x1F NOT PUSH1 0x3F RETURNDATASIZE ADD AND DUP3 ADD PUSH1 0x40 MSTORE RETURNDATASIZE DUP3 MSTORE RETURNDATASIZE PUSH1 0x0 PUSH1 0x20 DUP5 ADD RETURNDATACOPY PUSH2 0x141A JUMP JUMPDEST PUSH1 0x60 SWAP2 POP JUMPDEST POP POP SWAP1 POP PUSH1 0x40 MLOAD RETURNDATASIZE DUP1 PUSH1 0x0 DUP4 RETURNDATACOPY DUP3 PUSH2 0x1430 JUMPI DUP1 DUP3 REVERT JUMPDEST POP MLOAD SWAP8 SWAP7 POP POP POP POP POP POP POP JUMP JUMPDEST DUP1 CALLDATALOAD PUSH1 0x1 PUSH1 0x1 PUSH1 0xA0 SHL SUB DUP2 AND DUP2 EQ PUSH2 0x1454 JUMPI PUSH1 0x0 DUP1 REVERT JUMPDEST SWAP2 SWAP1 POP JUMP JUMPDEST PUSH4 0x4E487B71 PUSH1 0xE0 SHL PUSH1 0x0 MSTORE PUSH1 0x41 PUSH1 0x4 MSTORE PUSH1 0x24 PUSH1 0x0 REVERT JUMPDEST PUSH1 0x0 DUP3 PUSH1 0x1F DUP4 ADD SLT PUSH2 0x1480 JUMPI PUSH1 0x0 DUP1 REVERT JUMPDEST DUP2 CALLDATALOAD PUSH8 0xFFFFFFFFFFFFFFFF DUP1 DUP3 GT ISZERO PUSH2 0x149B JUMPI PUSH2 0x149B PUSH2 0x1459 JUMP JUMPDEST PUSH1 0x40 MLOAD PUSH1 0x1F DUP4 ADD PUSH1 0x1F NOT SWAP1 DUP2 AND PUSH1 0x3F ADD AND DUP2 ADD SWAP1 DUP3 DUP3 GT DUP2 DUP4 LT OR ISZERO PUSH2 0x14C3 JUMPI PUSH2 0x14C3 PUSH2 0x1459 JUMP JUMPDEST DUP2 PUSH1 0x40 MSTORE DUP4 DUP2 MSTORE DUP7 PUSH1 0x20 DUP6 DUP9 ADD ADD GT ISZERO PUSH2 0x14DC JUMPI PUSH1 0x0 DUP1 REVERT JUMPDEST DUP4 PUSH1 0x20 DUP8 ADD PUSH1 0x20 DUP4 ADD CALLDATACOPY PUSH1 0x0 PUSH1 0x20 DUP6 DUP4 ADD ADD MSTORE DUP1 SWAP5 POP POP POP POP POP SWAP3 SWAP2 POP POP JUMP JUMPDEST PUSH1 0x0 DUP1 PUSH1 0x0 DUP1 PUSH1 0x80 DUP6 DUP8 SUB SLT ISZERO PUSH2 0x1512 JUMPI PUSH1 0x0 DUP1 REVERT JUMPDEST PUSH2 0x151B DUP6 PUSH2 0x143D JUMP JUMPDEST SWAP4 POP PUSH1 0x20 DUP6 ADD CALLDATALOAD SWAP3 POP PUSH1 0x40 DUP6 ADD CALLDATALOAD PUSH8 0xFFFFFFFFFFFFFFFF DUP2 GT ISZERO PUSH2 0x153E JUMPI PUSH1 0x0 DUP1 REVERT JUMPDEST PUSH2 0x154A DUP8 DUP3 DUP9 ADD PUSH2 0x146F JUMP JUMPDEST SWAP5 SWAP8 SWAP4 SWAP7 POP SWAP4 SWAP5 PUSH1 0x60 ADD CALLDATALOAD SWAP4 POP POP POP JUMP JUMPDEST PUSH1 0x0 DUP1 PUSH1 0x0 DUP1 PUSH1 0x0 PUSH1 0xA0 DUP7 DUP9 SUB SLT ISZERO PUSH2 0x1573 JUMPI PUSH1 0x0 DUP1 REVERT JUMPDEST PUSH2 0x157C DUP7 PUSH2 0x143D JUMP JUMPDEST SWAP5 POP PUSH2 0x158A PUSH1 0x20 DUP8 ADD PUSH2 0x143D JUMP JUMPDEST SWAP4 POP PUSH1 0x40 DUP7 ADD CALLDATALOAD SWAP3 POP PUSH1 0x60 DUP7 ADD CALLDATALOAD PUSH8 0xFFFFFFFFFFFFFFFF DUP2 GT ISZERO PUSH2 0x15AD JUMPI PUSH1 0x0 DUP1 REVERT JUMPDEST PUSH2 0x15B9 DUP9 DUP3 DUP10 ADD PUSH2 0x146F JUMP JUMPDEST SWAP6 SWAP9 SWAP5 SWAP8 POP SWAP3 SWAP6 PUSH1 0x80 ADD CALLDATALOAD SWAP4 SWAP3 POP POP POP JUMP JUMPDEST PUSH1 0x0 PUSH1 0x20 DUP3 DUP5 SUB SLT ISZERO PUSH2 0x15DD JUMPI PUSH1 0x0 DUP1 REVERT JUMPDEST POP CALLDATALOAD SWAP2 SWAP1 POP JUMP JUMPDEST PUSH1 0x0 JUMPDEST DUP4 DUP2 LT ISZERO PUSH2 0x15FF JUMPI DUP2 DUP2 ADD MLOAD DUP4 DUP3 ADD MSTORE PUSH1 0x20 ADD PUSH2 0x15E7 JUMP JUMPDEST DUP4 DUP2 GT ISZERO PUSH2 0x160E JUMPI PUSH1 0x0 DUP5 DUP5 ADD MSTORE JUMPDEST POP POP POP POP JUMP JUMPDEST PUSH1 0x0 DUP2 MLOAD DUP1 DUP5 MSTORE PUSH2 0x162C DUP2 PUSH1 0x20 DUP7 ADD PUSH1 0x20 DUP7 ADD PUSH2 0x15E4 JUMP JUMPDEST PUSH1 0x1F ADD PUSH1 0x1F NOT AND SWAP3 SWAP1 SWAP3 ADD PUSH1 0x20 ADD SWAP3 SWAP2 POP POP JUMP JUMPDEST PUSH1 0x1 PUSH1 0x1 PUSH1 0xA0 SHL SUB DUP7 AND DUP2 MSTORE PUSH1 0xA0 PUSH1 0x20 DUP3 ADD DUP2 SWAP1 MSTORE PUSH1 0x0 SWAP1 PUSH2 0x1664 SWAP1 DUP4 ADD DUP8 PUSH2 0x1614 JUMP JUMPDEST PUSH1 0x40 DUP4 ADD SWAP6 SWAP1 SWAP6 MSTORE POP SWAP2 ISZERO ISZERO PUSH1 0x60 DUP4 ADD MSTORE ISZERO ISZERO PUSH1 0x80 SWAP1 SWAP2 ADD MSTORE SWAP3 SWAP2 POP POP JUMP JUMPDEST PUSH1 0x0 DUP1 PUSH1 0x0 DUP1 PUSH1 0x80 DUP6 DUP8 SUB SLT ISZERO PUSH2 0x1699 JUMPI PUSH1 0x0 DUP1 REVERT JUMPDEST PUSH2 0x16A2 DUP6 PUSH2 0x143D JUMP JUMPDEST SWAP4 POP PUSH1 0x20 DUP6 ADD CALLDATALOAD PUSH8 0xFFFFFFFFFFFFFFFF DUP1 DUP3 GT ISZERO PUSH2 0x16BF JUMPI PUSH1 0x0 DUP1 REVERT JUMPDEST PUSH2 0x16CB DUP9 DUP4 DUP10 ADD PUSH2 0x146F JUMP JUMPDEST SWAP5 POP PUSH1 0x40 DUP8 ADD CALLDATALOAD SWAP4 POP PUSH1 0x60 DUP8 ADD CALLDATALOAD SWAP2 POP DUP1 DUP3 GT ISZERO PUSH2 0x16E8 JUMPI PUSH1 0x0 DUP1 REVERT JUMPDEST POP PUSH2 0x16F5 DUP8 DUP3 DUP9 ADD PUSH2 0x146F JUMP JUMPDEST SWAP2 POP POP SWAP3 SWAP6 SWAP2 SWAP5 POP SWAP3 POP JUMP JUMPDEST DUP1 CALLDATALOAD DUP1 ISZERO ISZERO DUP2 EQ PUSH2 0x1454 JUMPI PUSH1 0x0 DUP1 REVERT JUMPDEST PUSH1 0x0 DUP1 PUSH1 0x0 DUP1 PUSH1 0x0 DUP1 PUSH1 0xC0 DUP8 DUP10 SUB SLT ISZERO PUSH2 0x172A JUMPI PUSH1 0x0 DUP1 REVERT JUMPDEST PUSH2 0x1733 DUP8 PUSH2 0x143D JUMP JUMPDEST SWAP6 POP PUSH1 0x20 DUP8 ADD CALLDATALOAD PUSH8 0xFFFFFFFFFFFFFFFF DUP1 DUP3 GT ISZERO PUSH2 0x1750 JUMPI PUSH1 0x0 DUP1 REVERT JUMPDEST PUSH2 0x175C DUP11 DUP4 DUP12 ADD PUSH2 0x146F JUMP JUMPDEST SWAP7 POP PUSH1 0x40 DUP10 ADD CALLDATALOAD SWAP2 POP DUP1 DUP3 GT ISZERO PUSH2 0x1772 JUMPI PUSH1 0x0 DUP1 REVERT JUMPDEST PUSH2 0x177E DUP11 DUP4 DUP12 ADD PUSH2 0x146F JUMP JUMPDEST SWAP6 POP PUSH2 0x178C PUSH1 0x60 DUP11 ADD PUSH2 0x1701 JUMP JUMPDEST SWAP5 POP PUSH1 0x80 DUP10 ADD CALLDATALOAD SWAP4 POP PUSH1 0xA0 DUP10 ADD CALLDATALOAD SWAP2 POP DUP1 DUP3 GT ISZERO PUSH2 0x17A9 JUMPI PUSH1 0x0 DUP1 REVERT JUMPDEST POP PUSH2 0x17B6 DUP10 DUP3 DUP11 ADD PUSH2 0x146F JUMP JUMPDEST SWAP2 POP POP SWAP3 SWAP6 POP SWAP3 SWAP6 POP SWAP3 SWAP6 JUMP JUMPDEST PUSH1 0x0 PUSH1 0x20 DUP3 DUP5 SUB SLT ISZERO PUSH2 0x17D5 JUMPI PUSH1 0x0 DUP1 REVERT JUMPDEST PUSH2 0x17DE DUP3 PUSH2 0x143D JUMP JUMPDEST SWAP4 SWAP3 POP POP POP JUMP JUMPDEST PUSH1 0x20 DUP2 MSTORE PUSH1 0x0 PUSH2 0x17DE PUSH1 0x20 DUP4 ADD DUP5 PUSH2 0x1614 JUMP JUMPDEST PUSH1 0x0 PUSH1 0x20 DUP1 DUP4 ADD DUP2 DUP5 MSTORE DUP1 DUP6 MLOAD DUP1 DUP4 MSTORE PUSH1 0x40 SWAP3 POP DUP3 DUP7 ADD SWAP2 POP DUP3 DUP2 PUSH1 0x5 SHL DUP8 ADD ADD DUP5 DUP9 ADD PUSH1 0x0 JUMPDEST DUP4 DUP2 LT ISZERO PUSH2 0x1878 JUMPI DUP9 DUP4 SUB PUSH1 0x3F NOT ADD DUP6 MSTORE DUP2 MLOAD DUP1 MLOAD PUSH1 0x1 PUSH1 0x1 PUSH1 0xA0 SHL SUB AND DUP5 MSTORE DUP8 DUP2 ADD MLOAD PUSH1 0x60 DUP10 DUP7 ADD DUP2 SWAP1 MSTORE SWAP1 PUSH2 0x1858 DUP3 DUP8 ADD DUP3 PUSH2 0x1614 JUMP JUMPDEST SWAP3 DUP10 ADD MLOAD ISZERO ISZERO SWAP6 DUP10 ADD SWAP6 SWAP1 SWAP6 MSTORE POP SWAP5 DUP8 ADD SWAP5 SWAP3 POP SWAP1 DUP7 ADD SWAP1 PUSH1 0x1 ADD PUSH2 0x181F JUMP JUMPDEST POP SWAP1 SWAP9 SWAP8 POP POP POP POP POP POP POP POP JUMP JUMPDEST DUP3 ISZERO ISZERO DUP2 MSTORE PUSH1 0x40 PUSH1 0x20 DUP3 ADD MSTORE PUSH1 0x0 PUSH2 0x18A1 PUSH1 0x40 DUP4 ADD DUP5 PUSH2 0x1614 JUMP JUMPDEST SWAP5 SWAP4 POP POP POP POP JUMP JUMPDEST PUSH1 0x0 DUP1 PUSH1 0x0 PUSH1 0x60 DUP5 DUP7 SUB SLT ISZERO PUSH2 0x18BE JUMPI PUSH1 0x0 DUP1 REVERT JUMPDEST DUP4 CALLDATALOAD PUSH1 0xFF DUP2 AND DUP2 EQ PUSH2 0x18CF JUMPI PUSH1 0x0 DUP1 REVERT JUMPDEST SWAP3 POP PUSH1 0x20 DUP5 ADD CALLDATALOAD PUSH8 0xFFFFFFFFFFFFFFFF DUP2 GT ISZERO PUSH2 0x18EB JUMPI PUSH1 0x0 DUP1 REVERT JUMPDEST PUSH2 0x18F7 DUP7 DUP3 DUP8 ADD PUSH2 0x146F JUMP JUMPDEST SWAP3 POP POP PUSH1 0x40 DUP5 ADD CALLDATALOAD SWAP1 POP SWAP3 POP SWAP3 POP SWAP3 JUMP JUMPDEST PUSH1 0x0 DUP1 PUSH1 0x40 DUP4 DUP6 SUB SLT ISZERO PUSH2 0x191B JUMPI PUSH1 0x0 DUP1 REVERT JUMPDEST PUSH2 0x1924 DUP4 PUSH2 0x1701 JUMP JUMPDEST SWAP2 POP PUSH1 0x20 DUP4 ADD CALLDATALOAD PUSH8 0xFFFFFFFFFFFFFFFF DUP2 GT ISZERO PUSH2 0x1940 JUMPI PUSH1 0x0 DUP1 REVERT JUMPDEST PUSH2 0x194C DUP6 DUP3 DUP7 ADD PUSH2 0x146F JUMP JUMPDEST SWAP2 POP POP SWAP3 POP SWAP3 SWAP1 POP JUMP JUMPDEST PUSH1 0x1 PUSH1 0x1 PUSH1 0xA0 SHL SUB DUP5 AND DUP2 MSTORE PUSH1 0x60 PUSH1 0x20 DUP3 ADD DUP2 SWAP1 MSTORE PUSH1 0x0 SWAP1 PUSH2 0x197A SWAP1 DUP4 ADD DUP6 PUSH2 0x1614 JUMP JUMPDEST SWAP1 POP DUP3 ISZERO ISZERO PUSH1 0x40 DUP4 ADD MSTORE SWAP5 SWAP4 POP POP POP POP JUMP JUMPDEST PUSH1 0x0 DUP1 PUSH1 0x0 PUSH1 0x60 DUP5 DUP7 SUB SLT ISZERO PUSH2 0x19A1 JUMPI PUSH1 0x0 DUP1 REVERT JUMPDEST DUP4 CALLDATALOAD PUSH8 0xFFFFFFFFFFFFFFFF DUP1 DUP3 GT ISZERO PUSH2 0x19B9 JUMPI PUSH1 0x0 DUP1 REVERT JUMPDEST PUSH2 0x19C5 DUP8 DUP4 DUP9 ADD PUSH2 0x146F JUMP JUMPDEST SWAP5 POP PUSH1 0x20 DUP7 ADD CALLDATALOAD SWAP2 POP DUP1 DUP3 GT ISZERO PUSH2 0x19DB JUMPI PUSH1 0x0 DUP1 REVERT JUMPDEST PUSH2 0x19E7 DUP8 DUP4 DUP9 ADD PUSH2 0x146F JUMP JUMPDEST SWAP4 POP PUSH1 0x40 DUP7 ADD CALLDATALOAD SWAP2 POP DUP1 DUP3 GT ISZERO PUSH2 0x19FD JUMPI PUSH1 0x0 DUP1 REVERT JUMPDEST POP PUSH2 0x1A0A DUP7 DUP3 DUP8 ADD PUSH2 0x146F JUMP JUMPDEST SWAP2 POP POP SWAP3 POP SWAP3 POP SWAP3 JUMP JUMPDEST PUSH4 0x4E487B71 PUSH1 0xE0 SHL PUSH1 0x0 MSTORE PUSH1 0x21 PUSH1 0x4 MSTORE PUSH1 0x24 PUSH1 0x0 REVERT JUMPDEST PUSH1 0x9 DUP2 LT PUSH2 0x1A48 JUMPI PUSH4 0x4E487B71 PUSH1 0xE0 SHL PUSH1 0x0 MSTORE PUSH1 0x21 PUSH1 0x4 MSTORE PUSH1 0x24 PUSH1 0x0 REVERT JUMPDEST SWAP1 MSTORE JUMP JUMPDEST PUSH1 0x0 PUSH1 0x20 DUP1 DUP4 ADD DUP2 DUP5 MSTORE DUP1 DUP6 MLOAD DUP1 DUP4 MSTORE PUSH1 0x40 SWAP3 POP DUP3 DUP7 ADD SWAP2 POP DUP3 DUP2 PUSH1 0x5 SHL DUP8 ADD ADD DUP5 DUP9 ADD PUSH1 0x0 JUMPDEST DUP4 DUP2 LT ISZERO PUSH2 0x1878 JUMPI DUP9 DUP4 SUB PUSH1 0x3F NOT ADD DUP6 MSTORE DUP2 MLOAD DUP1 MLOAD PUSH1 0x1 PUSH1 0x1 PUSH1 0xA0 SHL SUB AND DUP5 MSTORE PUSH2 0x120 DUP9 DUP3 ADD MLOAD PUSH2 0x1AA6 DUP11 DUP8 ADD DUP3 PUSH2 0x1A2A JUMP JUMPDEST POP DUP8 DUP3 ADD MLOAD DUP2 DUP10 DUP8 ADD MSTORE PUSH2 0x1ABC DUP3 DUP8 ADD DUP3 PUSH2 0x1614 JUMP JUMPDEST SWAP2 POP POP PUSH1 0x60 DUP1 DUP4 ADD MLOAD DUP2 DUP8 ADD MSTORE POP PUSH1 0x80 DUP1 DUP4 ADD MLOAD PUSH2 0x1ADE DUP3 DUP9 ADD DUP3 PUSH1 0xFF AND SWAP1 MSTORE JUMP JUMPDEST POP POP PUSH1 0xA0 DUP3 DUP2 ADD MLOAD PUSH1 0xFF AND SWAP1 DUP7 ADD MSTORE PUSH1 0xC0 DUP1 DUP4 ADD MLOAD ISZERO ISZERO SWAP1 DUP7 ADD MSTORE PUSH1 0xE0 DUP1 DUP4 ADD MLOAD ISZERO ISZERO SWAP1 DUP7 ADD MSTORE PUSH2 0x100 SWAP2 DUP3 ADD MLOAD SWAP2 SWAP1 SWAP5 ADD MSTORE SWAP4 DUP7 ADD SWAP4 SWAP1 DUP7 ADD SWAP1 PUSH1 0x1 ADD PUSH2 0x1A73 JUMP JUMPDEST PUSH1 0x0 DUP1 PUSH1 0x0 DUP1 PUSH1 0x80 DUP6 DUP8 SUB SLT ISZERO PUSH2 0x1B37 JUMPI PUSH1 0x0 DUP1 REVERT JUMPDEST DUP5 CALLDATALOAD SWAP4 POP PUSH2 0x1B47 PUSH1 0x20 DUP7 ADD PUSH2 0x1701 JUMP JUMPDEST SWAP3 POP PUSH1 0x40 DUP6 ADD CALLDATALOAD PUSH8 0xFFFFFFFFFFFFFFFF DUP1 DUP3 GT ISZERO PUSH2 0x1B64 JUMPI PUSH1 0x0 DUP1 REVERT JUMPDEST PUSH2 0x1B70 DUP9 DUP4 DUP10 ADD PUSH2 0x146F JUMP JUMPDEST SWAP4 POP PUSH1 0x60 DUP8 ADD CALLDATALOAD SWAP2 POP DUP1 DUP3 GT ISZERO PUSH2 0x16E8 JUMPI PUSH1 0x0 DUP1 REVERT JUMPDEST PUSH1 0x0 DUP1 PUSH1 0x40 DUP4 DUP6 SUB SLT ISZERO PUSH2 0x1B99 JUMPI PUSH1 0x0 DUP1 REVERT JUMPDEST DUP3 CALLDATALOAD SWAP2 POP PUSH2 0x1BA9 PUSH1 0x20 DUP5 ADD PUSH2 0x143D JUMP JUMPDEST SWAP1 POP SWAP3 POP SWAP3 SWAP1 POP JUMP JUMPDEST DUP4 ISZERO ISZERO DUP2 MSTORE DUP3 ISZERO ISZERO PUSH1 0x20 DUP3 ADD MSTORE PUSH1 0x60 PUSH1 0x40 DUP3 ADD MSTORE PUSH1 0x0 PUSH2 0x1BD5 PUSH1 0x60 DUP4 ADD DUP5 PUSH2 0x1614 JUMP JUMPDEST SWAP6 SWAP5 POP POP POP POP POP JUMP JUMPDEST PUSH1 0x1 PUSH1 0x1 PUSH1 0xA0 SHL SUB DUP11 AND DUP2 MSTORE PUSH1 0x0 PUSH2 0x120 PUSH2 0x1BFC PUSH1 0x20 DUP5 ADD DUP13 PUSH2 0x1A2A JUMP JUMPDEST DUP1 PUSH1 0x40 DUP5 ADD MSTORE PUSH2 0x1C0E DUP2 DUP5 ADD DUP12 PUSH2 0x1614 JUMP JUMPDEST PUSH1 0x60 DUP5 ADD SWAP10 SWAP1 SWAP10 MSTORE POP POP PUSH1 0xFF SWAP6 DUP7 AND PUSH1 0x80 DUP3 ADD MSTORE SWAP4 SWAP1 SWAP5 AND PUSH1 0xA0 DUP5 ADD MSTORE SWAP1 ISZERO ISZERO PUSH1 0xC0 DUP4 ADD MSTORE ISZERO ISZERO PUSH1 0xE0 DUP3 ADD MSTORE PUSH2 0x100 ADD MSTORE SWAP4 SWAP3 POP POP POP JUMP JUMPDEST PUSH1 0x0 DUP1 PUSH1 0x0 DUP1 PUSH1 0x0 PUSH1 0xA0 DUP7 DUP9 SUB SLT ISZERO PUSH2 0x1C5E JUMPI PUSH1 0x0 DUP1 REVERT JUMPDEST PUSH2 0x1C67 DUP7 PUSH2 0x143D JUMP JUMPDEST SWAP5 POP PUSH1 0x20 DUP7 ADD CALLDATALOAD SWAP4 POP PUSH2 0x1C7C PUSH1 0x40 DUP8 ADD PUSH2 0x143D JUMP JUMPDEST SWAP3 POP PUSH1 0x60 DUP7 ADD CALLDATALOAD PUSH8 0xFFFFFFFFFFFFFFFF DUP2 GT ISZERO PUSH2 0x15AD JUMPI PUSH1 0x0 DUP1 REVERT JUMPDEST PUSH1 0x1 DUP1 PUSH1 0xA0 SHL SUB DUP6 AND DUP2 MSTORE DUP4 PUSH1 0x20 DUP3 ADD MSTORE PUSH1 0x80 PUSH1 0x40 DUP3 ADD MSTORE PUSH1 0x0 PUSH2 0x1CBF PUSH1 0x80 DUP4 ADD DUP6 PUSH2 0x1614 JUMP JUMPDEST SWAP1 POP DUP3 PUSH1 0x60 DUP4 ADD MSTORE SWAP6 SWAP5 POP POP POP POP POP JUMP JUMPDEST PUSH1 0x0 DUP3 MLOAD PUSH2 0x1CE2 DUP2 DUP5 PUSH1 0x20 DUP8 ADD PUSH2 0x15E4 JUMP JUMPDEST SWAP2 SWAP1 SWAP2 ADD SWAP3 SWAP2 POP POP JUMP JUMPDEST PUSH1 0x1 PUSH1 0x1 PUSH1 0xA0 SHL SUB DUP7 DUP2 AND DUP3 MSTORE DUP6 AND PUSH1 0x20 DUP3 ADD MSTORE PUSH1 0x40 DUP2 ADD DUP5 SWAP1 MSTORE PUSH1 0xA0 PUSH1 0x60 DUP3 ADD DUP2 SWAP1 MSTORE PUSH1 0x0 SWAP1 PUSH2 0x1D1F SWAP1 DUP4 ADD DUP6 PUSH2 0x1614 JUMP JUMPDEST SWAP1 POP DUP3 PUSH1 0x80 DUP4 ADD MSTORE SWAP7 SWAP6 POP POP POP POP POP POP JUMP JUMPDEST PUSH1 0x1 DUP2 DUP2 SHR SWAP1 DUP3 AND DUP1 PUSH2 0x1D45 JUMPI PUSH1 0x7F DUP3 AND SWAP2 POP JUMPDEST PUSH1 0x20 DUP3 LT DUP2 EQ ISZERO PUSH2 0x1D66 JUMPI PUSH4 0x4E487B71 PUSH1 0xE0 SHL PUSH1 0x0 MSTORE PUSH1 0x22 PUSH1 0x4 MSTORE PUSH1 0x24 PUSH1 0x0 REVERT JUMPDEST POP SWAP2 SWAP1 POP JUMP JUMPDEST PUSH1 0x1 PUSH1 0x1 PUSH1 0xA0 SHL SUB DUP6 AND DUP2 MSTORE PUSH1 0x80 PUSH1 0x20 DUP3 ADD DUP2 SWAP1 MSTORE PUSH1 0x0 SWAP1 PUSH2 0x1D90 SWAP1 DUP4 ADD DUP7 PUSH2 0x1614 JUMP JUMPDEST DUP5 PUSH1 0x40 DUP5 ADD MSTORE DUP3 DUP2 SUB PUSH1 0x60 DUP5 ADD MSTORE PUSH2 0x1DA8 DUP2 DUP6 PUSH2 0x1614 JUMP JUMPDEST SWAP8 SWAP7 POP POP POP POP POP POP POP JUMP JUMPDEST PUSH1 0x1 PUSH1 0x1 PUSH1 0xA0 SHL SUB DUP8 AND DUP2 MSTORE PUSH1 0xC0 PUSH1 0x20 DUP3 ADD DUP2 SWAP1 MSTORE PUSH1 0x0 SWAP1 PUSH2 0x1DD7 SWAP1 DUP4 ADD DUP9 PUSH2 0x1614 JUMP JUMPDEST DUP3 DUP2 SUB PUSH1 0x40 DUP5 ADD MSTORE PUSH2 0x1DE9 DUP2 DUP9 PUSH2 0x1614 JUMP JUMPDEST SWAP1 POP DUP6 ISZERO ISZERO PUSH1 0x60 DUP5 ADD MSTORE DUP5 PUSH1 0x80 DUP5 ADD MSTORE DUP3 DUP2 SUB PUSH1 0xA0 DUP5 ADD MSTORE PUSH2 0x1E0B DUP2 DUP6 PUSH2 0x1614 JUMP JUMPDEST SWAP10 SWAP9 POP POP POP POP POP POP POP POP POP JUMP JUMPDEST PUSH1 0xFF DUP5 AND DUP2 MSTORE PUSH1 0x60 PUSH1 0x20 DUP3 ADD MSTORE PUSH1 0x0 PUSH2 0x1E34 PUSH1 0x60 DUP4 ADD DUP6 PUSH2 0x1614 JUMP JUMPDEST SWAP1 POP DUP3 PUSH1 0x40 DUP4 ADD MSTORE SWAP5 SWAP4 POP POP POP POP JUMP JUMPDEST PUSH1 0x60 DUP2 MSTORE PUSH1 0x0 PUSH2 0x1E57 PUSH1 0x60 DUP4 ADD DUP7 PUSH2 0x1614 JUMP JUMPDEST DUP3 DUP2 SUB PUSH1 0x20 DUP5 ADD MSTORE PUSH2 0x1E69 DUP2 DUP7 PUSH2 0x1614 JUMP JUMPDEST SWAP1 POP DUP3 DUP2 SUB PUSH1 0x40 DUP5 ADD MSTORE PUSH2 0x1E7D DUP2 DUP6 PUSH2 0x1614 JUMP JUMPDEST SWAP7 SWAP6 POP POP POP POP POP POP JUMP JUMPDEST DUP5 DUP2 MSTORE DUP4 ISZERO ISZERO PUSH1 0x20 DUP3 ADD MSTORE PUSH1 0x80 PUSH1 0x40 DUP3 ADD MSTORE PUSH1 0x0 PUSH2 0x1EA8 PUSH1 0x80 DUP4 ADD DUP6 PUSH2 0x1614 JUMP JUMPDEST DUP3 DUP2 SUB PUSH1 0x60 DUP5 ADD MSTORE PUSH2 0x1DA8 DUP2 DUP6 PUSH2 0x1614 JUMP JUMPDEST PUSH1 0x1 PUSH1 0x1 PUSH1 0xA0 SHL SUB DUP7 DUP2 AND DUP3 MSTORE PUSH1 0x20 DUP3 ADD DUP7 SWAP1 MSTORE DUP5 AND PUSH1 0x40 DUP3 ADD MSTORE PUSH1 0xA0 PUSH1 0x60 DUP3 ADD DUP2 SWAP1 MSTORE PUSH1 0x0 SWAP1 PUSH2 0x1D1F SWAP1 DUP4 ADD DUP6 PUSH2 0x1614 JUMP INVALID LOG2 PUSH5 0x6970667358 0x22 SLT KECCAK256 0xBF JUMP SHR CALLDATACOPY 0xE5 SWAP12 PUSH1 0xC3 PUSH27 0xDF77B75BFD0A2CAF17E34B2D9531D85A78A8A498A56CFC64736F6C PUSH4 0x4300080C STOP CALLER LOG2 PUSH5 0x6970667358 0x22 SLT KECCAK256 DUP15 0xB0 0xE8 0x4D 0x4A PUSH26 0xD44D9E957DEAFF21B945C3CC6D914305904E25955CCE9B3A274D PUSH5 0x736F6C6343 STOP ADDMOD 0xC STOP CALLER ",
  "sha1": "a4c46322d71b45e0e522351aab00ad2668294581",
  "source": "// SPDX-License-Identifier: MIT\npragma solidity ^0.8.11;\n\nimport \"./CLHouse.sol\";\n\n\n/// @title Crypto League House Factory\n/// @notice Config, create and deploy CLHouses\n/// @dev This contract is the only way to create CLH\n/// @author Leonardo Urrego\ncontract CLFactory {\n    /// @notice Event when house is created\n    /// @param houseAddr Address of the created house\n    /// @param houseName Name of the created house\n    /// @param houseId Id on arrCLH of the created house\n    event evtHouseCreation( address houseAddr, string houseName, uint256 houseId );\n\n    /// @notice Array to store all the created houses\n\tCLHouse[] public arrCLH;\n\n    /// @notice Store the number of houses created\n    uint256 public numCLH = 0;\n\n    /// @notice Relation houseAddr with houseId\n    mapping( address => uint256 ) public mapCLHId;\n\n    /// @notice Contract with the CLH Constructor logic\n    address CLLConstructorCLH;\n\n    /// @notice Contract with the functions for user management\n    address CLLUserManagement;\n\n    /// @notice Contract with the functions for Governance\n    address CLLGovernance;\n\n    /// @notice Contract CLHouse API\n    address CLHAPI;\n\n\n    /// @notice Config the CLFactory with the CL Logic Contracts\n    /// @param _CLLUserManagement Address Contract Logic for user management\n    /// @param _CLLGovernance Address Contract Logic for governance\n    /// @param _CLLConstructorCLH Address Contract with the Constructor logic\n    /// @dev The constructor create a default CLH with the houseId #0\n    constructor(\n        address _CLLUserManagement,\n        address _CLLGovernance,\n        address _CLLConstructorCLH,\n        address _CLHAPI\n    )\n    {\n        CLLUserManagement = _CLLUserManagement;\n        CLLGovernance = _CLLGovernance;\n        CLLConstructorCLH = _CLLConstructorCLH;\n        CLHAPI = _CLHAPI;\n\n        address[] memory _ManagerWallets = new address[] ( 3 );\n        _ManagerWallets[0] = address( 0xc27480520A875bCa3874df1f533523E9ffdb1af9 ) ;\n        _ManagerWallets[1] = address( 0x012775f98FDb33656f240A97f73a61f6B8C25756 ) ;\n        _ManagerWallets[2] = address( 0xa7b59F12F19b96cc67f19eF017Cf9a0928910fD5 ) ;\n\n        CreateCLH( {\n            _houseName: \"CLH #0\",\n            _housePrivate: false,\n            _govModel: __GOV_COMMITTEE__,\n            _govRules: [ 99, 10, 51 ],\n            _ManagerWallets: _ManagerWallets,\n            _signerWallet: address( 0 ),\n            _signature: \"\"\n        } );\n\n        numCLH--;\n    }\n\n\n    /// @notice Deploy a new CLHouse\n    /// @param _houseName Name of the CLH\n    /// @param _housePrivate If is set to 1, the CLH is set to private\n    /// @param _govModel keccak256 hash of the governance model, see the __GOV_* constans\n    /// @param _govRules Array for goverment rules see `enum gRule`\n    /// @param _ManagerWallets Whitelist of address for invitate as managers\n    /// @dev Some parameters wil be ignored depending on the governance model\n    function CreateCLH(\n        string memory _houseName,\n        bool _housePrivate,\n        bytes32 _govModel,\n        uint8[3] memory _govRules,\n        address[] memory _ManagerWallets,\n        address _signerWallet,\n        bytes memory _signature\n    ) \n        public\n        returns( address )\n    {\n        CLHouse daoCLH;\n        address houseOwner = msg.sender;\n\n        require( \n            __GOV_DICTATORSHIP__ == _govModel ||\n            __GOV_COMMITTEE__ == _govModel ||\n            __GOV_SIMPLE_MAJORITY__ == _govModel ,\n            \"Invalid Governance Type\"\n        );\n\n        if( _signerWallet != address(0) ) {\n            require( _signature.length == 65, \"CreateCLH: Bad signature length\" );\n            \n            require(\n                _signerWallet == CLHouseApi( CLHAPI ).SignerOCNewCLH(\n                    _houseName,\n                    _housePrivate,\n                    _govModel,\n                    _govRules[0], // _govRuleMaxUsers,\n                    _govRules[1], // _govRuleMaxManagers,\n                    _govRules[2], // _govRuleApprovPercentage,\n                    _ManagerWallets[0],\n                    address(this),\n                    _signature\n                ),\n                \"CreateCLH: Invalid Signature\"\n            );\n\n            houseOwner = _signerWallet;\n        }\n\n        daoCLH = ( new CLHouse )\n        ( {\n            _owner: houseOwner,\n            _houseName: _houseName,\n            _housePrivate: _housePrivate,\n            _govModel: _govModel,\n            _govRules: _govRules,\n            _CLC: [ CLLUserManagement, CLLGovernance, CLLConstructorCLH, CLHAPI ],\n            _ManagerWallets: _ManagerWallets\n        } );\n\n        address adrCLH = address( daoCLH );\n        uint256 houseId = arrCLH.length;\n        arrCLH.push( daoCLH );\n        numCLH++;\n        mapCLHId[ adrCLH ] = houseId;\n\n        emit evtHouseCreation( adrCLH, _houseName, houseId );\n        \n        return adrCLH;\n    }\n\n\n    /// @notice Return the list of all houses created by the factory\n    /// @return Array with address houses\n    function GetHouseList()\n        external\n        view\n        returns(\n            CLHouse[] memory\n        )\n    {\n        return arrCLH;\n    }\n\n\n    /// @notice List of membership houses of the one wallet address\n    /// @param _walletAddr User wallet address\n    /// @return Array with address houses\n    function GetHousesByUser(\n        address _walletAddr\n    )\n        external\n        view\n        returns(\n            address[] memory\n        )\n    {\n        address[] memory arrHouses = new address[] ( arrCLH.length );\n        uint256 indexarr = 0;\n        for( uint256 did = 1 ; did <= numCLH ; did++ )\n            if( 0 != arrCLH[ did ].mapIdUser( _walletAddr ) )\n                arrHouses[ indexarr++ ] = address( arrCLH[ did ] ) ;\n\n        return arrHouses;\n    }\n\n\n    /// @notice List of houses that have an invitation pending for a specific wallet\n    /// @param _walletAddr The user wallet address\n    /// @return Array with address houses\n    function GetInvitationsByUser(\n        address _walletAddr\n    )\n        external\n        view\n        returns(\n            address[] memory\n        )\n    {\n        address[] memory arrHouses = new address[] ( arrCLH.length );\n        uint256 indexarr = 0;\n        for( uint256 did = 1 ; did <= numCLH ; did++ )\n            if( 0 != arrCLH[ did ].mapInvitationUser( _walletAddr ) )\n                arrHouses[ indexarr++ ] = address( arrCLH[ did ] ) ;\n\n        return arrHouses;\n    }\n}",
  "sourcePath": "contracts/CLHouse/CLFactory.sol",
  "type": "contract"
}