{
  "abi": [
    {
      "inputs": [],
      "stateMutability": "nonpayable",
      "type": "constructor"
    },
    {
      "anonymous": false,
      "inputs": [
        {
          "indexed": false,
          "internalType": "uint8",
          "name": "version",
          "type": "uint8"
        }
      ],
      "name": "Initialized",
      "type": "event"
    },
    {
      "anonymous": false,
      "inputs": [
        {
          "indexed": false,
          "internalType": "uint256",
          "name": "newApprovPercentage",
          "type": "uint256"
        }
      ],
      "name": "evtChangeGovRules",
      "type": "event"
    },
    {
      "anonymous": false,
      "inputs": [
        {
          "indexed": false,
          "internalType": "enum proposalEvent",
          "name": "eventProposal",
          "type": "uint8"
        },
        {
          "indexed": false,
          "internalType": "uint256",
          "name": "propId",
          "type": "uint256"
        },
        {
          "indexed": false,
          "internalType": "enum proposalType",
          "name": "typeProposal",
          "type": "uint8"
        },
        {
          "indexed": false,
          "internalType": "string",
          "name": "description",
          "type": "string"
        }
      ],
      "name": "evtProposal",
      "type": "event"
    },
    {
      "anonymous": false,
      "inputs": [
        {
          "indexed": false,
          "internalType": "address",
          "name": "tokenOutCLV",
          "type": "address"
        },
        {
          "indexed": false,
          "internalType": "uint256",
          "name": "amountOutCLV",
          "type": "uint256"
        },
        {
          "indexed": false,
          "internalType": "address",
          "name": "tokenInCLV",
          "type": "address"
        },
        {
          "indexed": false,
          "internalType": "uint256",
          "name": "amountReceived",
          "type": "uint256"
        }
      ],
      "name": "evtSwapERC20",
      "type": "event"
    },
    {
      "anonymous": false,
      "inputs": [
        {
          "indexed": false,
          "internalType": "address",
          "name": "walletAddr",
          "type": "address"
        },
        {
          "indexed": false,
          "internalType": "uint256",
          "name": "value",
          "type": "uint256"
        },
        {
          "indexed": false,
          "internalType": "address",
          "name": "tokenAdd",
          "type": "address"
        }
      ],
      "name": "evtTxERC20",
      "type": "event"
    },
    {
      "anonymous": false,
      "inputs": [
        {
          "indexed": false,
          "internalType": "enum assetsEvent",
          "name": "typeEvent",
          "type": "uint8"
        },
        {
          "indexed": false,
          "internalType": "address",
          "name": "walletAddr",
          "type": "address"
        },
        {
          "indexed": false,
          "internalType": "uint256",
          "name": "value",
          "type": "uint256"
        },
        {
          "indexed": false,
          "internalType": "uint256",
          "name": "balance",
          "type": "uint256"
        }
      ],
      "name": "evtTxEth",
      "type": "event"
    },
    {
      "anonymous": false,
      "inputs": [
        {
          "indexed": false,
          "internalType": "enum userEvent",
          "name": "eventUser",
          "type": "uint8"
        },
        {
          "indexed": false,
          "internalType": "address",
          "name": "walletAddr",
          "type": "address"
        },
        {
          "indexed": false,
          "internalType": "string",
          "name": "name",
          "type": "string"
        }
      ],
      "name": "evtUser",
      "type": "event"
    },
    {
      "anonymous": false,
      "inputs": [
        {
          "indexed": false,
          "internalType": "uint256",
          "name": "propId",
          "type": "uint256"
        },
        {
          "indexed": false,
          "internalType": "bool",
          "name": "position",
          "type": "bool"
        },
        {
          "indexed": false,
          "internalType": "address",
          "name": "voter",
          "type": "address"
        },
        {
          "indexed": false,
          "internalType": "string",
          "name": "justification",
          "type": "string"
        }
      ],
      "name": "evtVoted",
      "type": "event"
    },
    {
      "inputs": [
        {
          "internalType": "bool",
          "name": "_acceptance",
          "type": "bool"
        },
        {
          "internalType": "bytes",
          "name": "_signature",
          "type": "bytes"
        }
      ],
      "name": "AcceptRejectInvitation",
      "outputs": [],
      "stateMutability": "nonpayable",
      "type": "function"
    },
    {
      "inputs": [],
      "name": "CLHSAFE",
      "outputs": [
        {
          "internalType": "address",
          "name": "",
          "type": "address"
        }
      ],
      "stateMutability": "view",
      "type": "function"
    },
    {
      "inputs": [
        {
          "internalType": "uint256",
          "name": "_propId",
          "type": "uint256"
        }
      ],
      "name": "ExecProp",
      "outputs": [
        {
          "internalType": "bool",
          "name": "status",
          "type": "bool"
        },
        {
          "internalType": "string",
          "name": "message",
          "type": "string"
        }
      ],
      "stateMutability": "nonpayable",
      "type": "function"
    },
    {
      "inputs": [],
      "name": "GetArrDataPropAddUser",
      "outputs": [
        {
          "components": [
            {
              "internalType": "address",
              "name": "walletAddr",
              "type": "address"
            },
            {
              "internalType": "string",
              "name": "name",
              "type": "string"
            },
            {
              "internalType": "bool",
              "name": "isManager",
              "type": "bool"
            }
          ],
          "internalType": "struct strDataAddUser[]",
          "name": "",
          "type": "tuple[]"
        }
      ],
      "stateMutability": "view",
      "type": "function"
    },
    {
      "inputs": [],
      "name": "GetArrProposalsLength",
      "outputs": [
        {
          "internalType": "uint256",
          "name": "",
          "type": "uint256"
        }
      ],
      "stateMutability": "view",
      "type": "function"
    },
    {
      "inputs": [],
      "name": "GetArrUsersLength",
      "outputs": [
        {
          "internalType": "uint256",
          "name": "",
          "type": "uint256"
        }
      ],
      "stateMutability": "view",
      "type": "function"
    },
    {
      "inputs": [],
      "name": "GetProposalList",
      "outputs": [
        {
          "components": [
            {
              "internalType": "address",
              "name": "proponent",
              "type": "address"
            },
            {
              "internalType": "enum proposalType",
              "name": "typeProposal",
              "type": "uint8"
            },
            {
              "internalType": "string",
              "name": "description",
              "type": "string"
            },
            {
              "internalType": "uint256",
              "name": "propDataId",
              "type": "uint256"
            },
            {
              "internalType": "uint8",
              "name": "numVotes",
              "type": "uint8"
            },
            {
              "internalType": "uint8",
              "name": "againstVotes",
              "type": "uint8"
            },
            {
              "internalType": "bool",
              "name": "executed",
              "type": "bool"
            },
            {
              "internalType": "bool",
              "name": "rejected",
              "type": "bool"
            },
            {
              "internalType": "uint256",
              "name": "deadline",
              "type": "uint256"
            }
          ],
          "internalType": "struct strProposal[]",
          "name": "",
          "type": "tuple[]"
        }
      ],
      "stateMutability": "view",
      "type": "function"
    },
    {
      "inputs": [],
      "name": "HOUSE_GOVERNANCE_MODEL",
      "outputs": [
        {
          "internalType": "bytes32",
          "name": "",
          "type": "bytes32"
        }
      ],
      "stateMutability": "view",
      "type": "function"
    },
    {
      "inputs": [],
      "name": "HOUSE_NAME",
      "outputs": [
        {
          "internalType": "string",
          "name": "",
          "type": "string"
        }
      ],
      "stateMutability": "view",
      "type": "function"
    },
    {
      "inputs": [
        {
          "internalType": "address",
          "name": "_owner",
          "type": "address"
        },
        {
          "internalType": "string",
          "name": "_houseName",
          "type": "string"
        },
        {
          "internalType": "bool",
          "name": "_housePrivate",
          "type": "bool"
        },
        {
          "internalType": "bytes32",
          "name": "_govModel",
          "type": "bytes32"
        },
        {
          "internalType": "uint8[3]",
          "name": "_govRules",
          "type": "uint8[3]"
        },
        {
          "internalType": "address[5]",
          "name": "_CLC",
          "type": "address[5]"
        },
        {
          "internalType": "address[]",
          "name": "_ManagerWallets",
          "type": "address[]"
        }
      ],
      "name": "Init",
      "outputs": [],
      "stateMutability": "nonpayable",
      "type": "function"
    },
    {
      "inputs": [
        {
          "internalType": "address",
          "name": "_tokenInCLV",
          "type": "address"
        },
        {
          "internalType": "uint256",
          "name": "_amountOutCLV",
          "type": "uint256"
        },
        {
          "internalType": "string",
          "name": "_description",
          "type": "string"
        },
        {
          "internalType": "uint256",
          "name": "_delayTime",
          "type": "uint256"
        }
      ],
      "name": "PropBuyERC20",
      "outputs": [
        {
          "internalType": "uint256",
          "name": "",
          "type": "uint256"
        }
      ],
      "stateMutability": "nonpayable",
      "type": "function"
    },
    {
      "inputs": [
        {
          "internalType": "uint8",
          "name": "_newApprovPercentage",
          "type": "uint8"
        },
        {
          "internalType": "string",
          "name": "_description",
          "type": "string"
        },
        {
          "internalType": "uint256",
          "name": "_delayTime",
          "type": "uint256"
        }
      ],
      "name": "PropGovRules",
      "outputs": [
        {
          "internalType": "uint256",
          "name": "propId",
          "type": "uint256"
        }
      ],
      "stateMutability": "nonpayable",
      "type": "function"
    },
    {
      "inputs": [
        {
          "internalType": "address",
          "name": "_walletAddr",
          "type": "address"
        },
        {
          "internalType": "string",
          "name": "_name",
          "type": "string"
        },
        {
          "internalType": "string",
          "name": "_description",
          "type": "string"
        },
        {
          "internalType": "bool",
          "name": "_isManager",
          "type": "bool"
        },
        {
          "internalType": "uint256",
          "name": "_delayTime",
          "type": "uint256"
        },
        {
          "internalType": "bytes",
          "name": "_signature",
          "type": "bytes"
        }
      ],
      "name": "PropInviteUser",
      "outputs": [
        {
          "internalType": "uint256",
          "name": "propId",
          "type": "uint256"
        }
      ],
      "stateMutability": "nonpayable",
      "type": "function"
    },
    {
      "inputs": [
        {
          "internalType": "address",
          "name": "_walletAddr",
          "type": "address"
        },
        {
          "internalType": "string",
          "name": "_description",
          "type": "string"
        },
        {
          "internalType": "uint256",
          "name": "_delayTime",
          "type": "uint256"
        },
        {
          "internalType": "bytes",
          "name": "_signature",
          "type": "bytes"
        }
      ],
      "name": "PropRemoveUser",
      "outputs": [
        {
          "internalType": "uint256",
          "name": "propId",
          "type": "uint256"
        }
      ],
      "stateMutability": "nonpayable",
      "type": "function"
    },
    {
      "inputs": [
        {
          "internalType": "string",
          "name": "_name",
          "type": "string"
        },
        {
          "internalType": "string",
          "name": "_description",
          "type": "string"
        },
        {
          "internalType": "bytes",
          "name": "_signature",
          "type": "bytes"
        }
      ],
      "name": "PropRequestToJoin",
      "outputs": [
        {
          "internalType": "uint256",
          "name": "",
          "type": "uint256"
        }
      ],
      "stateMutability": "nonpayable",
      "type": "function"
    },
    {
      "inputs": [
        {
          "internalType": "address",
          "name": "_tokenOutCLV",
          "type": "address"
        },
        {
          "internalType": "uint256",
          "name": "_amountOutCLV",
          "type": "uint256"
        },
        {
          "internalType": "string",
          "name": "_description",
          "type": "string"
        },
        {
          "internalType": "uint256",
          "name": "_delayTime",
          "type": "uint256"
        }
      ],
      "name": "PropSellERC20",
      "outputs": [
        {
          "internalType": "uint256",
          "name": "",
          "type": "uint256"
        }
      ],
      "stateMutability": "nonpayable",
      "type": "function"
    },
    {
      "inputs": [
        {
          "internalType": "address",
          "name": "_tokenOutCLV",
          "type": "address"
        },
        {
          "internalType": "address",
          "name": "_tokenInCLV",
          "type": "address"
        },
        {
          "internalType": "uint256",
          "name": "_amountOutCLV",
          "type": "uint256"
        },
        {
          "internalType": "string",
          "name": "_description",
          "type": "string"
        },
        {
          "internalType": "uint256",
          "name": "_delayTime",
          "type": "uint256"
        }
      ],
      "name": "PropSwapERC20",
      "outputs": [
        {
          "internalType": "uint256",
          "name": "",
          "type": "uint256"
        }
      ],
      "stateMutability": "nonpayable",
      "type": "function"
    },
    {
      "inputs": [
        {
          "internalType": "address",
          "name": "_to",
          "type": "address"
        },
        {
          "internalType": "uint256",
          "name": "_amountOutCLV",
          "type": "uint256"
        },
        {
          "internalType": "address",
          "name": "_tokenOutCLV",
          "type": "address"
        },
        {
          "internalType": "string",
          "name": "_description",
          "type": "string"
        },
        {
          "internalType": "uint256",
          "name": "_delayTime",
          "type": "uint256"
        }
      ],
      "name": "PropTxERC20",
      "outputs": [
        {
          "internalType": "uint256",
          "name": "propId",
          "type": "uint256"
        }
      ],
      "stateMutability": "nonpayable",
      "type": "function"
    },
    {
      "inputs": [
        {
          "internalType": "address",
          "name": "_to",
          "type": "address"
        },
        {
          "internalType": "uint256",
          "name": "_amountOutCLV",
          "type": "uint256"
        },
        {
          "internalType": "string",
          "name": "_description",
          "type": "string"
        },
        {
          "internalType": "uint256",
          "name": "_delayTime",
          "type": "uint256"
        }
      ],
      "name": "PropTxWei",
      "outputs": [
        {
          "internalType": "uint256",
          "name": "propId",
          "type": "uint256"
        }
      ],
      "stateMutability": "nonpayable",
      "type": "function"
    },
    {
      "inputs": [
        {
          "internalType": "uint256",
          "name": "_propId",
          "type": "uint256"
        },
        {
          "internalType": "bool",
          "name": "_support",
          "type": "bool"
        },
        {
          "internalType": "string",
          "name": "_justification",
          "type": "string"
        },
        {
          "internalType": "bytes",
          "name": "_signature",
          "type": "bytes"
        }
      ],
      "name": "VoteProposal",
      "outputs": [],
      "stateMutability": "nonpayable",
      "type": "function"
    },
    {
      "inputs": [
        {
          "internalType": "uint256",
          "name": "",
          "type": "uint256"
        }
      ],
      "name": "arrDataPropAddUser",
      "outputs": [
        {
          "internalType": "address",
          "name": "walletAddr",
          "type": "address"
        },
        {
          "internalType": "string",
          "name": "name",
          "type": "string"
        },
        {
          "internalType": "bool",
          "name": "isManager",
          "type": "bool"
        }
      ],
      "stateMutability": "view",
      "type": "function"
    },
    {
      "inputs": [
        {
          "internalType": "uint256",
          "name": "",
          "type": "uint256"
        }
      ],
      "name": "arrDataPropGovRules",
      "outputs": [
        {
          "internalType": "uint8",
          "name": "newApprovPercentage",
          "type": "uint8"
        }
      ],
      "stateMutability": "view",
      "type": "function"
    },
    {
      "inputs": [
        {
          "internalType": "uint256",
          "name": "",
          "type": "uint256"
        }
      ],
      "name": "arrDataPropTxAssets",
      "outputs": [
        {
          "internalType": "address",
          "name": "to",
          "type": "address"
        },
        {
          "internalType": "uint256",
          "name": "amountOutCLV",
          "type": "uint256"
        },
        {
          "internalType": "address",
          "name": "tokenOutCLV",
          "type": "address"
        },
        {
          "internalType": "address",
          "name": "tokenInCLV",
          "type": "address"
        }
      ],
      "stateMutability": "view",
      "type": "function"
    },
    {
      "inputs": [
        {
          "internalType": "uint256",
          "name": "",
          "type": "uint256"
        }
      ],
      "name": "arrProposals",
      "outputs": [
        {
          "internalType": "address",
          "name": "proponent",
          "type": "address"
        },
        {
          "internalType": "enum proposalType",
          "name": "typeProposal",
          "type": "uint8"
        },
        {
          "internalType": "string",
          "name": "description",
          "type": "string"
        },
        {
          "internalType": "uint256",
          "name": "propDataId",
          "type": "uint256"
        },
        {
          "internalType": "uint8",
          "name": "numVotes",
          "type": "uint8"
        },
        {
          "internalType": "uint8",
          "name": "againstVotes",
          "type": "uint8"
        },
        {
          "internalType": "bool",
          "name": "executed",
          "type": "bool"
        },
        {
          "internalType": "bool",
          "name": "rejected",
          "type": "bool"
        },
        {
          "internalType": "uint256",
          "name": "deadline",
          "type": "uint256"
        }
      ],
      "stateMutability": "view",
      "type": "function"
    },
    {
      "inputs": [
        {
          "internalType": "uint256",
          "name": "",
          "type": "uint256"
        }
      ],
      "name": "arrUsers",
      "outputs": [
        {
          "internalType": "address",
          "name": "walletAddr",
          "type": "address"
        },
        {
          "internalType": "string",
          "name": "name",
          "type": "string"
        },
        {
          "internalType": "uint256",
          "name": "balance",
          "type": "uint256"
        },
        {
          "internalType": "bool",
          "name": "isUser",
          "type": "bool"
        },
        {
          "internalType": "bool",
          "name": "isManager",
          "type": "bool"
        }
      ],
      "stateMutability": "view",
      "type": "function"
    },
    {
      "inputs": [],
      "name": "govRuleApprovPercentage",
      "outputs": [
        {
          "internalType": "uint8",
          "name": "",
          "type": "uint8"
        }
      ],
      "stateMutability": "view",
      "type": "function"
    },
    {
      "inputs": [],
      "name": "govRuleMaxManagers",
      "outputs": [
        {
          "internalType": "uint8",
          "name": "",
          "type": "uint8"
        }
      ],
      "stateMutability": "view",
      "type": "function"
    },
    {
      "inputs": [],
      "name": "govRuleMaxUsers",
      "outputs": [
        {
          "internalType": "uint8",
          "name": "",
          "type": "uint8"
        }
      ],
      "stateMutability": "view",
      "type": "function"
    },
    {
      "inputs": [],
      "name": "housePrivate",
      "outputs": [
        {
          "internalType": "bool",
          "name": "",
          "type": "bool"
        }
      ],
      "stateMutability": "view",
      "type": "function"
    },
    {
      "inputs": [
        {
          "internalType": "address",
          "name": "",
          "type": "address"
        }
      ],
      "name": "mapIdUser",
      "outputs": [
        {
          "internalType": "uint256",
          "name": "",
          "type": "uint256"
        }
      ],
      "stateMutability": "view",
      "type": "function"
    },
    {
      "inputs": [
        {
          "internalType": "address",
          "name": "",
          "type": "address"
        }
      ],
      "name": "mapInvitationUser",
      "outputs": [
        {
          "internalType": "uint256",
          "name": "",
          "type": "uint256"
        }
      ],
      "stateMutability": "view",
      "type": "function"
    },
    {
      "inputs": [
        {
          "internalType": "uint256",
          "name": "",
          "type": "uint256"
        },
        {
          "internalType": "address",
          "name": "",
          "type": "address"
        }
      ],
      "name": "mapVotes",
      "outputs": [
        {
          "internalType": "bool",
          "name": "voted",
          "type": "bool"
        },
        {
          "internalType": "bool",
          "name": "inSupport",
          "type": "bool"
        },
        {
          "internalType": "string",
          "name": "justification",
          "type": "string"
        }
      ],
      "stateMutability": "view",
      "type": "function"
    },
    {
      "inputs": [],
      "name": "nftAdmin",
      "outputs": [
        {
          "internalType": "contract CLHNFT",
          "name": "",
          "type": "address"
        }
      ],
      "stateMutability": "view",
      "type": "function"
    },
    {
      "inputs": [],
      "name": "nftInvitation",
      "outputs": [
        {
          "internalType": "contract CLHNFT",
          "name": "",
          "type": "address"
        }
      ],
      "stateMutability": "view",
      "type": "function"
    },
    {
      "inputs": [],
      "name": "nftMember",
      "outputs": [
        {
          "internalType": "contract CLHNFT",
          "name": "",
          "type": "address"
        }
      ],
      "stateMutability": "view",
      "type": "function"
    },
    {
      "inputs": [],
      "name": "numManagers",
      "outputs": [
        {
          "internalType": "uint8",
          "name": "",
          "type": "uint8"
        }
      ],
      "stateMutability": "view",
      "type": "function"
    },
    {
      "inputs": [],
      "name": "numUsers",
      "outputs": [
        {
          "internalType": "uint8",
          "name": "",
          "type": "uint8"
        }
      ],
      "stateMutability": "view",
      "type": "function"
    },
    {
      "inputs": [],
      "name": "vaultCLH",
      "outputs": [
        {
          "internalType": "contract CLVault",
          "name": "",
          "type": "address"
        }
      ],
      "stateMutability": "view",
      "type": "function"
    }
  ],
  "bytecode": "608060405234801561001057600080fd5b5061001961001e565b6100de565b601254610100900460ff161561008a5760405162461bcd60e51b815260206004820152602760248201527f496e697469616c697a61626c653a20636f6e747261637420697320696e697469604482015266616c697a696e6760c81b606482015260840160405180910390fd5b60125460ff90811610156100dc576012805460ff191660ff9081179091556040519081527f7f26b83ff96e1f2b6a682f133852f6798a09c465da95921460cefb38474024989060200160405180910390a15b565b61245480620000ee6000396000f3fe608060405234801561001057600080fd5b50600436106102325760003560e01c806370acb76111610130578063b4c62192116100b8578063cb85669c1161007c578063cb85669c14610554578063de5ab14e1461057c578063e68777d71461058f578063e810a58e146105a1578063f00d6274146105b657600080fd5b8063b4c62192146104b1578063baa4d5e9146104c6578063c2b3aa081461050c578063c347d2fd1461051f578063cada7f191461054157600080fd5b80639360bfad116100ff5780639360bfad1461044e57806396a3dd84146104615780639c630a8814610483578063a19a5f5014610496578063a693649a146104a957600080fd5b806370acb761146103f557806370ff918c146104085780637c6385481461042857806381cf22d81461043b57600080fd5b80632a57ef84116101be57806359ca2d031161018257806359ca2d03146103825780635aadd414146103975780635c423330146103ac5780635f3d99b3146103c15780636c2f34e7146103e257600080fd5b80632a57ef841461032157806331a0afa7146103345780633a70693d146103475780634e9d54721461035a57806350f7308a1461036257600080fd5b806319a50f491161020557806319a50f49146102c15780631d5fd3ca146102ce5780631f50dd27146102d75780632266e1bc146102ea57806322b4081c146102fd57600080fd5b806304f17a9b14610237578063052f9b0a1461025d5780631343e9a514610288578063152de3b9146102ae575b600080fd5b61024a610245366004611730565b6105dc565b6040519081526020015b60405180910390f35b600854610270906001600160a01b031681565b6040516001600160a01b039091168152602001610254565b60015461029c906301000000900460ff1681565b60405160ff9091168152602001610254565b61024a6102bc36600461178e565b610696565b60015461029c9060ff1681565b61024a60055481565b600954610270906001600160a01b031681565b61024a6102f8366004611730565b6106f8565b61031061030b3660046117fd565b610758565b604051610254959493929190611872565b61024a61032f3660046118b5565b610833565b61024a610342366004611942565b6108f5565b61029c6103553660046117fd565b6109bd565b600d5461024a565b61024a6103703660046119f3565b600a6020526000908152604090205481565b61038a6109e1565b6040516102549190611a15565b61039f610a6f565b6040516102549190611a28565b6103bf6103ba366004611bc1565b610b88565b005b6103d46103cf3660046117fd565b610d3c565b604051610254929190611cb8565b600654610270906001600160a01b031681565b61024a610403366004611cdb565b610e2b565b61024a6104163660046119f3565b600b6020526000908152604090205481565b61024a610436366004611730565b610eea565b6103bf610449366004611d31565b610f4a565b600754610270906001600160a01b031681565b61047461046f3660046117fd565b611007565b60405161025493929190611d7e565b60015461029c9062010000900460ff1681565b61024a6104a4366004611db4565b6110d2565b60115461024a565b6104b9611130565b6040516102549190611e73565b6104d96104d43660046117fd565b6112b5565b604080516001600160a01b0395861681526020810194909452918416918301919091529091166060820152608001610254565b6103bf61051a366004611f48565b6112fd565b61053261052d366004611fac565b6113b6565b60405161025493929190611fd8565b600454610270906001600160a01b031681565b6105676105623660046117fd565b611473565b60405161025499989796959493929190612004565b61024a61058a36600461206c565b611572565b60015461029c90610100900460ff1681565b60015461029c90640100000000900460ff1681565b6001546105cc9065010000000000900460ff1681565b6040519015158152602001610254565b60025460405160009182916001600160a01b03909116906106079088908890889088906024016120bd565b60408051601f198184030181529181526020820180516001600160e01b03166304f17a9b60e01b1790525161063c91906120f5565b600060405180830381855af49150503d8060008114610677576040519150601f19603f3d011682016040523d82523d6000602084013e61067c565b606091505b505090506040513d806000833e82610692578082fd5b8082f35b60025460405160009182916001600160a01b03909116906106c39089908990899089908990602401612111565b60408051601f198184030181529181526020820180516001600160e01b031663152de3b960e01b1790525161063c91906120f5565b60025460405160009182916001600160a01b03909116906107239088908890889088906024016120bd565b60408051601f198184030181529181526020820180516001600160e01b0316630899b86f60e21b1790525161063c91906120f5565b6011818154811061076857600080fd5b6000918252602090912060049091020180546001820180546001600160a01b0390921693509061079790612156565b80601f01602080910402602001604051908101604052809291908181526020018280546107c390612156565b80156108105780601f106107e557610100808354040283529160200191610810565b820191906000526020600020905b8154815290600101906020018083116107f357829003601f168201915b50505050600283015460039093015491929160ff80821692506101009091041685565b60025460405160009182916001600160a01b039091169061085e908890889088908890602401612191565b60408051601f198184030181529181526020820180516001600160e01b0316630a95fbe160e21b1790525161089391906120f5565b600060405180830381855af49150503d80600081146108ce576040519150601f19603f3d011682016040523d82523d6000602084013e6108d3565b606091505b505090506040513d806000833e826108e9578082fd5b50519695505050505050565b60025460405160009182916001600160a01b0390911690610924908a908a908a908a908a908a906024016121cd565b60408051601f198184030181529181526020820180516001600160e01b03166331a0afa760e01b1790525161095991906120f5565b600060405180830381855af49150503d8060008114610994576040519150601f19603f3d011682016040523d82523d6000602084013e610999565b606091505b505090506040513d806000833e826109af578082fd5b505198975050505050505050565b601081815481106109cd57600080fd5b60009182526020909120015460ff16905081565b600080546109ee90612156565b80601f0160208091040260200160405190810160405280929190818152602001828054610a1a90612156565b8015610a675780601f10610a3c57610100808354040283529160200191610a67565b820191906000526020600020905b815481529060010190602001808311610a4a57829003601f168201915b505050505081565b6060600e805480602002602001604051908101604052809291908181526020016000905b82821015610b7f57600084815260209081902060408051606081019091526003850290910180546001600160a01b031682526001810180549293919291840191610adc90612156565b80601f0160208091040260200160405190810160405280929190818152602001828054610b0890612156565b8015610b555780601f10610b2a57610100808354040283529160200191610b55565b820191906000526020600020905b815481529060010190602001808311610b3857829003601f168201915b50505091835250506002919091015460ff1615156020918201529082526001929092019101610a93565b50505050905090565b601254600190610100900460ff16158015610baa575060125460ff8083169116105b610c115760405162461bcd60e51b815260206004820152602e60248201527f496e697469616c697a61626c653a20636f6e747261637420697320616c72656160448201526d191e481a5b9a5d1a585b1a5e995960921b606482015260840160405180910390fd5b6012805461ffff191660ff831617610100179055600083600260058110610c3a57610c3a612232565b60200201516001600160a01b031689898989898989604051602401610c6597969594939291906122b8565b60408051601f198184030181529181526020820180516001600160e01b0316639f221d8160e01b17905251610c9a91906120f5565b600060405180830381855af49150503d8060008114610cd5576040519150601f19603f3d011682016040523d82523d6000602084013e610cda565b606091505b5050905080610cf0576040513d806000833e8082fd5b506012805461ff001916905560405160ff821681527f7f26b83ff96e1f2b6a682f133852f6798a09c465da95921460cefb38474024989060200160405180910390a15050505050505050565b6002546040516024810183905260009160609183916001600160a01b03169060440160408051601f198184030181529181526020820180516001600160e01b0316635f3d99b360e01b17905251610d9391906120f5565b600060405180830381855af49150503d8060008114610dce576040519150601f19603f3d011682016040523d82523d6000602084013e610dd3565b606091505b5050905080610de9576040513d806000833e8082fd5b60016040518060400160405280601981526020017f537563636573732065786563757465642070726f706f73616c000000000000008152509250925050915091565b60025460405160009182916001600160a01b0390911690610e5490879087908790602401612349565b60408051601f198184030181529181526020820180516001600160e01b03166370acb76160e01b17905251610e8991906120f5565b600060405180830381855af49150503d8060008114610ec4576040519150601f19603f3d011682016040523d82523d6000602084013e610ec9565b606091505b505090506040513d806000833e82610edf578082fd5b505195945050505050565b60025460405160009182916001600160a01b0390911690610f159088908890889088906024016120bd565b60408051601f198184030181529181526020820180516001600160e01b0316630f8c70a960e31b1790525161089391906120f5565b600154604051600091660100000000000090046001600160a01b031690610f779085908590602401611cb8565b60408051601f198184030181529181526020820180516001600160e01b0316631039e45b60e31b17905251610fac91906120f5565b600060405180830381855af49150503d8060008114610fe7576040519150601f19603f3d011682016040523d82523d6000602084013e610fec565b606091505b5050905080611002576040513d806000833e8082fd5b505050565b600e818154811061101757600080fd5b6000918252602090912060039091020180546001820180546001600160a01b0390921693509061104690612156565b80601f016020809104026020016040519081016040528092919081815260200182805461107290612156565b80156110bf5780601f10611094576101008083540402835291602001916110bf565b820191906000526020600020905b8154815290600101906020018083116110a257829003601f168201915b5050506002909301549192505060ff1683565b60025460405160009182916001600160a01b03909116906110fb90879087908790602401612375565b60408051601f198184030181529181526020820180516001600160e01b0316630a19a5f560e41b1790525161063c91906120f5565b6060600d805480602002602001604051908101604052809291908181526020016000905b82821015610b7f5760008481526020908190206040805161012081019091526005850290910180546001600160a01b03811683529192909190830190600160a01b900460ff1660088111156111ab576111ab611e3b565b60088111156111bc576111bc611e3b565b81526020016001820180546111d090612156565b80601f01602080910402602001604051908101604052809291908181526020018280546111fc90612156565b80156112495780601f1061121e57610100808354040283529160200191611249565b820191906000526020600020905b81548152906001019060200180831161122c57829003601f168201915b50505091835250506002820154602080830191909152600383015460ff8082166040850152610100820481166060850152620100008204811615156080850152630100000090910416151560a083015260049092015460c0909101529082526001929092019101611154565b600f81815481106112c557600080fd5b600091825260209091206004909102018054600182015460028301546003909301546001600160a01b03928316945090928216911684565b6002546040516000916001600160a01b0316906113249087908790879087906024016123b8565b60408051601f198184030181529181526020820180516001600160e01b0316631856754160e31b1790525161135991906120f5565b600060405180830381855af49150503d8060008114611394576040519150601f19603f3d011682016040523d82523d6000602084013e611399565b606091505b50509050806113af576040513d806000833e8082fd5b5050505050565b600c6020908152600092835260408084209091529082529020805460018201805460ff80841694610100909404169291906113f090612156565b80601f016020809104026020016040519081016040528092919081815260200182805461141c90612156565b80156114695780601f1061143e57610100808354040283529160200191611469565b820191906000526020600020905b81548152906001019060200180831161144c57829003601f168201915b5050505050905083565b600d818154811061148357600080fd5b6000918252602090912060059091020180546001820180546001600160a01b0383169450600160a01b90920460ff1692916114bd90612156565b80601f01602080910402602001604051908101604052809291908181526020018280546114e990612156565b80156115365780601f1061150b57610100808354040283529160200191611536565b820191906000526020600020905b81548152906001019060200180831161151957829003601f168201915b505050600284015460038501546004909501549394909360ff808316945061010083048116935062010000830481169263010000009004169089565b60025460405160009182916001600160a01b039091169061159f90899089908990899089906024016123eb565b60408051601f198184030181529181526020820180516001600160e01b0316636f2d58a760e11b179052516115d491906120f5565b600060405180830381855af49150503d806000811461160f576040519150601f19603f3d011682016040523d82523d6000602084013e611614565b606091505b505090506040513d806000833e8261162a578082fd5b5051979650505050505050565b80356001600160a01b038116811461164e57600080fd5b919050565b634e487b7160e01b600052604160045260246000fd5b604051606081016001600160401b038111828210171561168b5761168b611653565b60405290565b604051601f8201601f191681016001600160401b03811182821017156116b9576116b9611653565b604052919050565b600082601f8301126116d257600080fd5b81356001600160401b038111156116eb576116eb611653565b6116fe601f8201601f1916602001611691565b81815284602083860101111561171357600080fd5b816020850160208301376000918101602001919091529392505050565b6000806000806080858703121561174657600080fd5b61174f85611637565b93506020850135925060408501356001600160401b0381111561177157600080fd5b61177d878288016116c1565b949793965093946060013593505050565b600080600080600060a086880312156117a657600080fd5b6117af86611637565b94506117bd60208701611637565b93506040860135925060608601356001600160401b038111156117df57600080fd5b6117eb888289016116c1565b95989497509295608001359392505050565b60006020828403121561180f57600080fd5b5035919050565b60005b83811015611831578181015183820152602001611819565b83811115611840576000848401525b50505050565b6000815180845261185e816020860160208601611816565b601f01601f19169290920160200192915050565b6001600160a01b038616815260a06020820181905260009061189690830187611846565b6040830195909552509115156060830152151560809091015292915050565b600080600080608085870312156118cb57600080fd5b6118d485611637565b935060208501356001600160401b03808211156118f057600080fd5b6118fc888389016116c1565b945060408701359350606087013591508082111561191957600080fd5b50611926878288016116c1565b91505092959194509250565b8035801515811461164e57600080fd5b60008060008060008060c0878903121561195b57600080fd5b61196487611637565b955060208701356001600160401b038082111561198057600080fd5b61198c8a838b016116c1565b965060408901359150808211156119a257600080fd5b6119ae8a838b016116c1565b95506119bc60608a01611932565b94506080890135935060a08901359150808211156119d957600080fd5b506119e689828a016116c1565b9150509295509295509295565b600060208284031215611a0557600080fd5b611a0e82611637565b9392505050565b602081526000611a0e6020830184611846565b60006020808301818452808551808352604092508286019150828160051b87010184880160005b83811015611aa857888303603f19018552815180516001600160a01b0316845287810151606089860181905290611a8882870182611846565b928901511515958901959095525094870194925090860190600101611a4f565b509098975050505050505050565b803560ff8116811461164e57600080fd5b600082601f830112611ad857600080fd5b60405160a081018181106001600160401b0382111715611afa57611afa611653565b6040528060a0840185811115611b0f57600080fd5b845b81811015611b3057611b2281611637565b835260209283019201611b11565b509195945050505050565b600082601f830112611b4c57600080fd5b813560206001600160401b03821115611b6757611b67611653565b8160051b611b76828201611691565b9283528481018201928281019087851115611b9057600080fd5b83870192505b84831015611bb657611ba783611637565b82529183019190830190611b96565b979650505050505050565b60008060008060008060006101a0888a031215611bdd57600080fd5b611be688611637565b96506020808901356001600160401b0380821115611c0357600080fd5b611c0f8c838d016116c1565b9850611c1d60408c01611932565b975060608b013596508b609f8c0112611c3557600080fd5b611c3d611669565b91508160e08c018d811115611c5157600080fd5b60808d015b81811015611c7457611c6781611ab6565b8552938501938501611c56565b50819750611c828e82611ac7565b965050506101808b0135925080831115611c9b57600080fd5b5050611ca98a828b01611b3b565b91505092959891949750929550565b8215158152604060208201526000611cd36040830184611846565b949350505050565b600080600060608486031215611cf057600080fd5b611cf984611ab6565b925060208401356001600160401b03811115611d1457600080fd5b611d20868287016116c1565b925050604084013590509250925092565b60008060408385031215611d4457600080fd5b611d4d83611932565b915060208301356001600160401b03811115611d6857600080fd5b611d74858286016116c1565b9150509250929050565b6001600160a01b0384168152606060208201819052600090611da290830185611846565b90508215156040830152949350505050565b600080600060608486031215611dc957600080fd5b83356001600160401b0380821115611de057600080fd5b611dec878388016116c1565b94506020860135915080821115611e0257600080fd5b611e0e878388016116c1565b93506040860135915080821115611e2457600080fd5b50611e31868287016116c1565b9150509250925092565b634e487b7160e01b600052602160045260246000fd5b60098110611e6f57634e487b7160e01b600052602160045260246000fd5b9052565b60006020808301818452808551808352604092508286019150828160051b87010184880160005b83811015611aa857888303603f19018552815180516001600160a01b0316845261012088820151611ecd8a870182611e51565b50878201518189870152611ee382870182611846565b9150506060808301518187015250608080830151611f058288018260ff169052565b505060a08281015160ff169086015260c08083015115159086015260e0808301511515908601526101009182015191909401529386019390860190600101611e9a565b60008060008060808587031215611f5e57600080fd5b84359350611f6e60208601611932565b925060408501356001600160401b0380821115611f8a57600080fd5b611f96888389016116c1565b9350606087013591508082111561191957600080fd5b60008060408385031215611fbf57600080fd5b82359150611fcf60208401611637565b90509250929050565b83151581528215156020820152606060408201526000611ffb6060830184611846565b95945050505050565b6001600160a01b038a1681526000610120612022602084018c611e51565b8060408401526120348184018b611846565b6060840199909952505060ff95861660808201529390941660a084015290151560c0830152151560e082015261010001529392505050565b600080600080600060a0868803121561208457600080fd5b61208d86611637565b9450602086013593506120a260408701611637565b925060608601356001600160401b038111156117df57600080fd5b60018060a01b03851681528360208201526080604082015260006120e46080830185611846565b905082606083015295945050505050565b60008251612107818460208701611816565b9190910192915050565b6001600160a01b038681168252851660208201526040810184905260a06060820181905260009061214490830185611846565b90508260808301529695505050505050565b600181811c9082168061216a57607f821691505b6020821081141561218b57634e487b7160e01b600052602260045260246000fd5b50919050565b6001600160a01b03851681526080602082018190526000906121b590830186611846565b8460408401528281036060840152611bb68185611846565b6001600160a01b038716815260c0602082018190526000906121f190830188611846565b82810360408401526122038188611846565b9050851515606084015284608084015282810360a08401526122258185611846565b9998505050505050505050565b634e487b7160e01b600052603260045260246000fd5b8060005b60058110156118405781516001600160a01b031684526020938401939091019060010161224c565b600081518084526020808501945080840160005b838110156122ad5781516001600160a01b031687529582019590820190600101612288565b509495945050505050565b6001600160a01b03881681526101a06020808301829052600091906122df8483018b611846565b91508815156040850152876060850152608084018760005b600381101561231757815160ff16835291830191908301906001016122f7565b5050505061232860e0840186612248565b82810361018084015261233b8185612274565b9a9950505050505050505050565b60ff841681526060602082015260006123656060830185611846565b9050826040830152949350505050565b6060815260006123886060830186611846565b828103602084015261239a8186611846565b905082810360408401526123ae8185611846565b9695505050505050565b84815283151560208201526080604082015260006123d96080830185611846565b8281036060840152611bb68185611846565b6001600160a01b038681168252602082018690528416604082015260a0606082018190526000906121449083018561184656fea264697066735822122085c5dfe088a43dd33b239ad5c13c80ca37358b67c6de9f37afb34116802d655964736f6c634300080c0033",
  "bytecodeSha1": "a2e6617c583dd99f622cb76ed56c2e0dadf9f7dc",
  "compiler": {
    "evm_version": "istanbul",
    "optimizer": {
      "enabled": true,
      "runs": 200
    },
    "version": "0.8.12+commit.f00d7308"
  },
  "contractName": "CLHouse",
  "language": "Solidity",
  "natspec": {
    "author": "Leonardo Urrego",
    "kind": "dev",
    "methods": {
      "AcceptRejectInvitation(bool,bytes)": {
        "notice": "For an user that have an invitation pending",
        "params": {
          "_acceptance": "True for accept the invitation"
        }
      },
      "ExecProp(uint256)": {
        "details": "Normally is called internally after each vote",
        "notice": "Execute (or reject) a proposal computing the votes and the governance model",
        "params": {
          "_propId": "ID of the proposal, based on `arrProposals`"
        },
        "returns": {
          "message": "result of the transaction",
          "status": "True if the proposal can be execute, false in other cases"
        }
      },
      "GetArrDataPropAddUser()": {
        "notice": "Get complete array of arrDataPropAddUser",
        "returns": {
          "_0": "arrDataPropAddUser the array with all data"
        }
      },
      "GetArrProposalsLength()": {
        "notice": "Length of array"
      },
      "GetArrUsersLength()": {
        "notice": "Length of array"
      },
      "GetProposalList()": {
        "notice": "The list of all Proposals",
        "returns": {
          "_0": "arrProposals the array with all proposals"
        }
      },
      "HOUSE_NAME()": {
        "notice": "### CLH Public Variables ###"
      },
      "Init(address,string,bool,bytes32,uint8[3],address[5],address[])": {
        "details": "Some parameters can be ignored depending on the governance model",
        "notice": "Create a new CLH",
        "params": {
          "_CLC": "Array for CL Contracts see `enum eCLC`",
          "_ManagerWallets": "Whitelist of address for invitate as managers",
          "_govModel": "keccak256 hash of the governance model, see the __GOV_* constans",
          "_govRules": "Array for goverment rules see `enum gRule`",
          "_houseName": "Name given by the owner",
          "_housePrivate": "If is set to 1, the CLH is set to private",
          "_owner": "The address of the deployed wallet"
        }
      },
      "PropGovRules(uint8,string,uint256)": {
        "details": "When execute this proposal the new values will be set",
        "notice": "Generate a new proposal for change some governance parameters",
        "params": {
          "_description": "About the new proposal ",
          "_newApprovPercentage": "The new percentaje for accept or reject a proposal"
        },
        "returns": {
          "propId": "ID of the new proposal, based on `arrProposals`"
        }
      },
      "PropInviteUser(address,string,string,bool,uint256,bytes)": {
        "details": "the execution of this proposal only create an invitation ",
        "notice": "Generate a new proposal to invite a new user",
        "params": {
          "_description": "A text for the proposal",
          "_isManager": "True if is for a manager",
          "_name": "Can be the nickname or other reference to the User",
          "_walletAddr": "Address of the new user"
        },
        "returns": {
          "propId": "ID of the new proposal, based on `arrProposals`"
        }
      },
      "PropRemoveUser(address,string,uint256,bytes)": {
        "details": "The user can be a managaer",
        "notice": "Generate a new proposal for remove a user",
        "params": {
          "_description": "About the proposal",
          "_walletAddr": "user Address to be removed"
        },
        "returns": {
          "propId": "ID of the new proposal, based on `arrProposals`"
        }
      },
      "PropRequestToJoin(string,string,bytes)": {
        "details": "Only avaiable in public CLH",
        "notice": "Generate a proposal from a user that want to join to the CLH",
        "params": {
          "_description": "About the request",
          "_name": "Nickname or other user identification"
        },
        "returns": {
          "_0": "propId ID of the new proposal, based on `arrProposals`"
        }
      },
      "PropTxERC20(address,uint256,address,string,uint256)": {
        "details": "When execute this proposal, the transfer is made",
        "notice": "generate a new proposal to transfer ETH in weis",
        "params": {
          "_amountOutCLV": "Amount to transfer (in wei)",
          "_description": "About this proposal",
          "_to": "Recipient address"
        },
        "returns": {
          "propId": "ID of the new proposal, based on `arrProposals`"
        }
      },
      "PropTxWei(address,uint256,string,uint256)": {
        "details": "When execute this proposal, the transfer is made",
        "notice": "generate a new proposal to transfer ETH in weis",
        "params": {
          "_amountOutCLV": "Amount to transfer (in wei)",
          "_description": "About this proposal",
          "_to": "Recipient address"
        },
        "returns": {
          "propId": "ID of the new proposal, based on `arrProposals`"
        }
      },
      "VoteProposal(uint256,bool,string,bytes)": {
        "details": "After vote the proposal automatically try to be executed",
        "notice": "Used to vote a proposal",
        "params": {
          "_justification": "About your vote",
          "_propId": "ID of the proposal, based on `arrProposals`",
          "_support": "True for accept, false to reject"
        }
      },
      "constructor": {
        "custom:oz-upgrades-unsafe-allow": "constructor"
      }
    },
    "notice": "This contract for test only the most basic interactions",
    "title": "Contract to implement and test the basic fuctions of CLHouses",
    "version": 1
  },
  "opcodes": "PUSH1 0x80 PUSH1 0x40 MSTORE CALLVALUE DUP1 ISZERO PUSH2 0x10 JUMPI PUSH1 0x0 DUP1 REVERT JUMPDEST POP PUSH1 0x4 CALLDATASIZE LT PUSH2 0x232 JUMPI PUSH1 0x0 CALLDATALOAD PUSH1 0xE0 SHR DUP1 PUSH4 0x70ACB761 GT PUSH2 0x130 JUMPI DUP1 PUSH4 0xB4C62192 GT PUSH2 0xB8 JUMPI DUP1 PUSH4 0xCB85669C GT PUSH2 0x7C JUMPI DUP1 PUSH4 0xCB85669C EQ PUSH2 0x554 JUMPI DUP1 PUSH4 0xDE5AB14E EQ PUSH2 0x57C JUMPI DUP1 PUSH4 0xE68777D7 EQ PUSH2 0x58F JUMPI DUP1 PUSH4 0xE810A58E EQ PUSH2 0x5A1 JUMPI DUP1 PUSH4 0xF00D6274 EQ PUSH2 0x5B6 JUMPI PUSH1 0x0 DUP1 REVERT JUMPDEST DUP1 PUSH4 0xB4C62192 EQ PUSH2 0x4B1 JUMPI DUP1 PUSH4 0xBAA4D5E9 EQ PUSH2 0x4C6 JUMPI DUP1 PUSH4 0xC2B3AA08 EQ PUSH2 0x50C JUMPI DUP1 PUSH4 0xC347D2FD EQ PUSH2 0x51F JUMPI DUP1 PUSH4 0xCADA7F19 EQ PUSH2 0x541 JUMPI PUSH1 0x0 DUP1 REVERT JUMPDEST DUP1 PUSH4 0x9360BFAD GT PUSH2 0xFF JUMPI DUP1 PUSH4 0x9360BFAD EQ PUSH2 0x44E JUMPI DUP1 PUSH4 0x96A3DD84 EQ PUSH2 0x461 JUMPI DUP1 PUSH4 0x9C630A88 EQ PUSH2 0x483 JUMPI DUP1 PUSH4 0xA19A5F50 EQ PUSH2 0x496 JUMPI DUP1 PUSH4 0xA693649A EQ PUSH2 0x4A9 JUMPI PUSH1 0x0 DUP1 REVERT JUMPDEST DUP1 PUSH4 0x70ACB761 EQ PUSH2 0x3F5 JUMPI DUP1 PUSH4 0x70FF918C EQ PUSH2 0x408 JUMPI DUP1 PUSH4 0x7C638548 EQ PUSH2 0x428 JUMPI DUP1 PUSH4 0x81CF22D8 EQ PUSH2 0x43B JUMPI PUSH1 0x0 DUP1 REVERT JUMPDEST DUP1 PUSH4 0x2A57EF84 GT PUSH2 0x1BE JUMPI DUP1 PUSH4 0x59CA2D03 GT PUSH2 0x182 JUMPI DUP1 PUSH4 0x59CA2D03 EQ PUSH2 0x382 JUMPI DUP1 PUSH4 0x5AADD414 EQ PUSH2 0x397 JUMPI DUP1 PUSH4 0x5C423330 EQ PUSH2 0x3AC JUMPI DUP1 PUSH4 0x5F3D99B3 EQ PUSH2 0x3C1 JUMPI DUP1 PUSH4 0x6C2F34E7 EQ PUSH2 0x3E2 JUMPI PUSH1 0x0 DUP1 REVERT JUMPDEST DUP1 PUSH4 0x2A57EF84 EQ PUSH2 0x321 JUMPI DUP1 PUSH4 0x31A0AFA7 EQ PUSH2 0x334 JUMPI DUP1 PUSH4 0x3A70693D EQ PUSH2 0x347 JUMPI DUP1 PUSH4 0x4E9D5472 EQ PUSH2 0x35A JUMPI DUP1 PUSH4 0x50F7308A EQ PUSH2 0x362 JUMPI PUSH1 0x0 DUP1 REVERT JUMPDEST DUP1 PUSH4 0x19A50F49 GT PUSH2 0x205 JUMPI DUP1 PUSH4 0x19A50F49 EQ PUSH2 0x2C1 JUMPI DUP1 PUSH4 0x1D5FD3CA EQ PUSH2 0x2CE JUMPI DUP1 PUSH4 0x1F50DD27 EQ PUSH2 0x2D7 JUMPI DUP1 PUSH4 0x2266E1BC EQ PUSH2 0x2EA JUMPI DUP1 PUSH4 0x22B4081C EQ PUSH2 0x2FD JUMPI PUSH1 0x0 DUP1 REVERT JUMPDEST DUP1 PUSH4 0x4F17A9B EQ PUSH2 0x237 JUMPI DUP1 PUSH4 0x52F9B0A EQ PUSH2 0x25D JUMPI DUP1 PUSH4 0x1343E9A5 EQ PUSH2 0x288 JUMPI DUP1 PUSH4 0x152DE3B9 EQ PUSH2 0x2AE JUMPI JUMPDEST PUSH1 0x0 DUP1 REVERT JUMPDEST PUSH2 0x24A PUSH2 0x245 CALLDATASIZE PUSH1 0x4 PUSH2 0x1730 JUMP JUMPDEST PUSH2 0x5DC JUMP JUMPDEST PUSH1 0x40 MLOAD SWAP1 DUP2 MSTORE PUSH1 0x20 ADD JUMPDEST PUSH1 0x40 MLOAD DUP1 SWAP2 SUB SWAP1 RETURN JUMPDEST PUSH1 0x8 SLOAD PUSH2 0x270 SWAP1 PUSH1 0x1 PUSH1 0x1 PUSH1 0xA0 SHL SUB AND DUP2 JUMP JUMPDEST PUSH1 0x40 MLOAD PUSH1 0x1 PUSH1 0x1 PUSH1 0xA0 SHL SUB SWAP1 SWAP2 AND DUP2 MSTORE PUSH1 0x20 ADD PUSH2 0x254 JUMP JUMPDEST PUSH1 0x1 SLOAD PUSH2 0x29C SWAP1 PUSH4 0x1000000 SWAP1 DIV PUSH1 0xFF AND DUP2 JUMP JUMPDEST PUSH1 0x40 MLOAD PUSH1 0xFF SWAP1 SWAP2 AND DUP2 MSTORE PUSH1 0x20 ADD PUSH2 0x254 JUMP JUMPDEST PUSH2 0x24A PUSH2 0x2BC CALLDATASIZE PUSH1 0x4 PUSH2 0x178E JUMP JUMPDEST PUSH2 0x696 JUMP JUMPDEST PUSH1 0x1 SLOAD PUSH2 0x29C SWAP1 PUSH1 0xFF AND DUP2 JUMP JUMPDEST PUSH2 0x24A PUSH1 0x5 SLOAD DUP2 JUMP JUMPDEST PUSH1 0x9 SLOAD PUSH2 0x270 SWAP1 PUSH1 0x1 PUSH1 0x1 PUSH1 0xA0 SHL SUB AND DUP2 JUMP JUMPDEST PUSH2 0x24A PUSH2 0x2F8 CALLDATASIZE PUSH1 0x4 PUSH2 0x1730 JUMP JUMPDEST PUSH2 0x6F8 JUMP JUMPDEST PUSH2 0x310 PUSH2 0x30B CALLDATASIZE PUSH1 0x4 PUSH2 0x17FD JUMP JUMPDEST PUSH2 0x758 JUMP JUMPDEST PUSH1 0x40 MLOAD PUSH2 0x254 SWAP6 SWAP5 SWAP4 SWAP3 SWAP2 SWAP1 PUSH2 0x1872 JUMP JUMPDEST PUSH2 0x24A PUSH2 0x32F CALLDATASIZE PUSH1 0x4 PUSH2 0x18B5 JUMP JUMPDEST PUSH2 0x833 JUMP JUMPDEST PUSH2 0x24A PUSH2 0x342 CALLDATASIZE PUSH1 0x4 PUSH2 0x1942 JUMP JUMPDEST PUSH2 0x8F5 JUMP JUMPDEST PUSH2 0x29C PUSH2 0x355 CALLDATASIZE PUSH1 0x4 PUSH2 0x17FD JUMP JUMPDEST PUSH2 0x9BD JUMP JUMPDEST PUSH1 0xD SLOAD PUSH2 0x24A JUMP JUMPDEST PUSH2 0x24A PUSH2 0x370 CALLDATASIZE PUSH1 0x4 PUSH2 0x19F3 JUMP JUMPDEST PUSH1 0xA PUSH1 0x20 MSTORE PUSH1 0x0 SWAP1 DUP2 MSTORE PUSH1 0x40 SWAP1 KECCAK256 SLOAD DUP2 JUMP JUMPDEST PUSH2 0x38A PUSH2 0x9E1 JUMP JUMPDEST PUSH1 0x40 MLOAD PUSH2 0x254 SWAP2 SWAP1 PUSH2 0x1A15 JUMP JUMPDEST PUSH2 0x39F PUSH2 0xA6F JUMP JUMPDEST PUSH1 0x40 MLOAD PUSH2 0x254 SWAP2 SWAP1 PUSH2 0x1A28 JUMP JUMPDEST PUSH2 0x3BF PUSH2 0x3BA CALLDATASIZE PUSH1 0x4 PUSH2 0x1BC1 JUMP JUMPDEST PUSH2 0xB88 JUMP JUMPDEST STOP JUMPDEST PUSH2 0x3D4 PUSH2 0x3CF CALLDATASIZE PUSH1 0x4 PUSH2 0x17FD JUMP JUMPDEST PUSH2 0xD3C JUMP JUMPDEST PUSH1 0x40 MLOAD PUSH2 0x254 SWAP3 SWAP2 SWAP1 PUSH2 0x1CB8 JUMP JUMPDEST PUSH1 0x6 SLOAD PUSH2 0x270 SWAP1 PUSH1 0x1 PUSH1 0x1 PUSH1 0xA0 SHL SUB AND DUP2 JUMP JUMPDEST PUSH2 0x24A PUSH2 0x403 CALLDATASIZE PUSH1 0x4 PUSH2 0x1CDB JUMP JUMPDEST PUSH2 0xE2B JUMP JUMPDEST PUSH2 0x24A PUSH2 0x416 CALLDATASIZE PUSH1 0x4 PUSH2 0x19F3 JUMP JUMPDEST PUSH1 0xB PUSH1 0x20 MSTORE PUSH1 0x0 SWAP1 DUP2 MSTORE PUSH1 0x40 SWAP1 KECCAK256 SLOAD DUP2 JUMP JUMPDEST PUSH2 0x24A PUSH2 0x436 CALLDATASIZE PUSH1 0x4 PUSH2 0x1730 JUMP JUMPDEST PUSH2 0xEEA JUMP JUMPDEST PUSH2 0x3BF PUSH2 0x449 CALLDATASIZE PUSH1 0x4 PUSH2 0x1D31 JUMP JUMPDEST PUSH2 0xF4A JUMP JUMPDEST PUSH1 0x7 SLOAD PUSH2 0x270 SWAP1 PUSH1 0x1 PUSH1 0x1 PUSH1 0xA0 SHL SUB AND DUP2 JUMP JUMPDEST PUSH2 0x474 PUSH2 0x46F CALLDATASIZE PUSH1 0x4 PUSH2 0x17FD JUMP JUMPDEST PUSH2 0x1007 JUMP JUMPDEST PUSH1 0x40 MLOAD PUSH2 0x254 SWAP4 SWAP3 SWAP2 SWAP1 PUSH2 0x1D7E JUMP JUMPDEST PUSH1 0x1 SLOAD PUSH2 0x29C SWAP1 PUSH3 0x10000 SWAP1 DIV PUSH1 0xFF AND DUP2 JUMP JUMPDEST PUSH2 0x24A PUSH2 0x4A4 CALLDATASIZE PUSH1 0x4 PUSH2 0x1DB4 JUMP JUMPDEST PUSH2 0x10D2 JUMP JUMPDEST PUSH1 0x11 SLOAD PUSH2 0x24A JUMP JUMPDEST PUSH2 0x4B9 PUSH2 0x1130 JUMP JUMPDEST PUSH1 0x40 MLOAD PUSH2 0x254 SWAP2 SWAP1 PUSH2 0x1E73 JUMP JUMPDEST PUSH2 0x4D9 PUSH2 0x4D4 CALLDATASIZE PUSH1 0x4 PUSH2 0x17FD JUMP JUMPDEST PUSH2 0x12B5 JUMP JUMPDEST PUSH1 0x40 DUP1 MLOAD PUSH1 0x1 PUSH1 0x1 PUSH1 0xA0 SHL SUB SWAP6 DUP7 AND DUP2 MSTORE PUSH1 0x20 DUP2 ADD SWAP5 SWAP1 SWAP5 MSTORE SWAP2 DUP5 AND SWAP2 DUP4 ADD SWAP2 SWAP1 SWAP2 MSTORE SWAP1 SWAP2 AND PUSH1 0x60 DUP3 ADD MSTORE PUSH1 0x80 ADD PUSH2 0x254 JUMP JUMPDEST PUSH2 0x3BF PUSH2 0x51A CALLDATASIZE PUSH1 0x4 PUSH2 0x1F48 JUMP JUMPDEST PUSH2 0x12FD JUMP JUMPDEST PUSH2 0x532 PUSH2 0x52D CALLDATASIZE PUSH1 0x4 PUSH2 0x1FAC JUMP JUMPDEST PUSH2 0x13B6 JUMP JUMPDEST PUSH1 0x40 MLOAD PUSH2 0x254 SWAP4 SWAP3 SWAP2 SWAP1 PUSH2 0x1FD8 JUMP JUMPDEST PUSH1 0x4 SLOAD PUSH2 0x270 SWAP1 PUSH1 0x1 PUSH1 0x1 PUSH1 0xA0 SHL SUB AND DUP2 JUMP JUMPDEST PUSH2 0x567 PUSH2 0x562 CALLDATASIZE PUSH1 0x4 PUSH2 0x17FD JUMP JUMPDEST PUSH2 0x1473 JUMP JUMPDEST PUSH1 0x40 MLOAD PUSH2 0x254 SWAP10 SWAP9 SWAP8 SWAP7 SWAP6 SWAP5 SWAP4 SWAP3 SWAP2 SWAP1 PUSH2 0x2004 JUMP JUMPDEST PUSH2 0x24A PUSH2 0x58A CALLDATASIZE PUSH1 0x4 PUSH2 0x206C JUMP JUMPDEST PUSH2 0x1572 JUMP JUMPDEST PUSH1 0x1 SLOAD PUSH2 0x29C SWAP1 PUSH2 0x100 SWAP1 DIV PUSH1 0xFF AND DUP2 JUMP JUMPDEST PUSH1 0x1 SLOAD PUSH2 0x29C SWAP1 PUSH5 0x100000000 SWAP1 DIV PUSH1 0xFF AND DUP2 JUMP JUMPDEST PUSH1 0x1 SLOAD PUSH2 0x5CC SWAP1 PUSH6 0x10000000000 SWAP1 DIV PUSH1 0xFF AND DUP2 JUMP JUMPDEST PUSH1 0x40 MLOAD SWAP1 ISZERO ISZERO DUP2 MSTORE PUSH1 0x20 ADD PUSH2 0x254 JUMP JUMPDEST PUSH1 0x2 SLOAD PUSH1 0x40 MLOAD PUSH1 0x0 SWAP2 DUP3 SWAP2 PUSH1 0x1 PUSH1 0x1 PUSH1 0xA0 SHL SUB SWAP1 SWAP2 AND SWAP1 PUSH2 0x607 SWAP1 DUP9 SWAP1 DUP9 SWAP1 DUP9 SWAP1 DUP9 SWAP1 PUSH1 0x24 ADD PUSH2 0x20BD JUMP JUMPDEST PUSH1 0x40 DUP1 MLOAD PUSH1 0x1F NOT DUP2 DUP5 SUB ADD DUP2 MSTORE SWAP2 DUP2 MSTORE PUSH1 0x20 DUP3 ADD DUP1 MLOAD PUSH1 0x1 PUSH1 0x1 PUSH1 0xE0 SHL SUB AND PUSH4 0x4F17A9B PUSH1 0xE0 SHL OR SWAP1 MSTORE MLOAD PUSH2 0x63C SWAP2 SWAP1 PUSH2 0x20F5 JUMP JUMPDEST PUSH1 0x0 PUSH1 0x40 MLOAD DUP1 DUP4 SUB DUP2 DUP6 GAS DELEGATECALL SWAP2 POP POP RETURNDATASIZE DUP1 PUSH1 0x0 DUP2 EQ PUSH2 0x677 JUMPI PUSH1 0x40 MLOAD SWAP2 POP PUSH1 0x1F NOT PUSH1 0x3F RETURNDATASIZE ADD AND DUP3 ADD PUSH1 0x40 MSTORE RETURNDATASIZE DUP3 MSTORE RETURNDATASIZE PUSH1 0x0 PUSH1 0x20 DUP5 ADD RETURNDATACOPY PUSH2 0x67C JUMP JUMPDEST PUSH1 0x60 SWAP2 POP JUMPDEST POP POP SWAP1 POP PUSH1 0x40 MLOAD RETURNDATASIZE DUP1 PUSH1 0x0 DUP4 RETURNDATACOPY DUP3 PUSH2 0x692 JUMPI DUP1 DUP3 REVERT JUMPDEST DUP1 DUP3 RETURN JUMPDEST PUSH1 0x2 SLOAD PUSH1 0x40 MLOAD PUSH1 0x0 SWAP2 DUP3 SWAP2 PUSH1 0x1 PUSH1 0x1 PUSH1 0xA0 SHL SUB SWAP1 SWAP2 AND SWAP1 PUSH2 0x6C3 SWAP1 DUP10 SWAP1 DUP10 SWAP1 DUP10 SWAP1 DUP10 SWAP1 DUP10 SWAP1 PUSH1 0x24 ADD PUSH2 0x2111 JUMP JUMPDEST PUSH1 0x40 DUP1 MLOAD PUSH1 0x1F NOT DUP2 DUP5 SUB ADD DUP2 MSTORE SWAP2 DUP2 MSTORE PUSH1 0x20 DUP3 ADD DUP1 MLOAD PUSH1 0x1 PUSH1 0x1 PUSH1 0xE0 SHL SUB AND PUSH4 0x152DE3B9 PUSH1 0xE0 SHL OR SWAP1 MSTORE MLOAD PUSH2 0x63C SWAP2 SWAP1 PUSH2 0x20F5 JUMP JUMPDEST PUSH1 0x2 SLOAD PUSH1 0x40 MLOAD PUSH1 0x0 SWAP2 DUP3 SWAP2 PUSH1 0x1 PUSH1 0x1 PUSH1 0xA0 SHL SUB SWAP1 SWAP2 AND SWAP1 PUSH2 0x723 SWAP1 DUP9 SWAP1 DUP9 SWAP1 DUP9 SWAP1 DUP9 SWAP1 PUSH1 0x24 ADD PUSH2 0x20BD JUMP JUMPDEST PUSH1 0x40 DUP1 MLOAD PUSH1 0x1F NOT DUP2 DUP5 SUB ADD DUP2 MSTORE SWAP2 DUP2 MSTORE PUSH1 0x20 DUP3 ADD DUP1 MLOAD PUSH1 0x1 PUSH1 0x1 PUSH1 0xE0 SHL SUB AND PUSH4 0x899B86F PUSH1 0xE2 SHL OR SWAP1 MSTORE MLOAD PUSH2 0x63C SWAP2 SWAP1 PUSH2 0x20F5 JUMP JUMPDEST PUSH1 0x11 DUP2 DUP2 SLOAD DUP2 LT PUSH2 0x768 JUMPI PUSH1 0x0 DUP1 REVERT JUMPDEST PUSH1 0x0 SWAP2 DUP3 MSTORE PUSH1 0x20 SWAP1 SWAP2 KECCAK256 PUSH1 0x4 SWAP1 SWAP2 MUL ADD DUP1 SLOAD PUSH1 0x1 DUP3 ADD DUP1 SLOAD PUSH1 0x1 PUSH1 0x1 PUSH1 0xA0 SHL SUB SWAP1 SWAP3 AND SWAP4 POP SWAP1 PUSH2 0x797 SWAP1 PUSH2 0x2156 JUMP JUMPDEST DUP1 PUSH1 0x1F ADD PUSH1 0x20 DUP1 SWAP2 DIV MUL PUSH1 0x20 ADD PUSH1 0x40 MLOAD SWAP1 DUP2 ADD PUSH1 0x40 MSTORE DUP1 SWAP3 SWAP2 SWAP1 DUP2 DUP2 MSTORE PUSH1 0x20 ADD DUP3 DUP1 SLOAD PUSH2 0x7C3 SWAP1 PUSH2 0x2156 JUMP JUMPDEST DUP1 ISZERO PUSH2 0x810 JUMPI DUP1 PUSH1 0x1F LT PUSH2 0x7E5 JUMPI PUSH2 0x100 DUP1 DUP4 SLOAD DIV MUL DUP4 MSTORE SWAP2 PUSH1 0x20 ADD SWAP2 PUSH2 0x810 JUMP JUMPDEST DUP3 ADD SWAP2 SWAP1 PUSH1 0x0 MSTORE PUSH1 0x20 PUSH1 0x0 KECCAK256 SWAP1 JUMPDEST DUP2 SLOAD DUP2 MSTORE SWAP1 PUSH1 0x1 ADD SWAP1 PUSH1 0x20 ADD DUP1 DUP4 GT PUSH2 0x7F3 JUMPI DUP3 SWAP1 SUB PUSH1 0x1F AND DUP3 ADD SWAP2 JUMPDEST POP POP POP POP PUSH1 0x2 DUP4 ADD SLOAD PUSH1 0x3 SWAP1 SWAP4 ADD SLOAD SWAP2 SWAP3 SWAP2 PUSH1 0xFF DUP1 DUP3 AND SWAP3 POP PUSH2 0x100 SWAP1 SWAP2 DIV AND DUP6 JUMP JUMPDEST PUSH1 0x2 SLOAD PUSH1 0x40 MLOAD PUSH1 0x0 SWAP2 DUP3 SWAP2 PUSH1 0x1 PUSH1 0x1 PUSH1 0xA0 SHL SUB SWAP1 SWAP2 AND SWAP1 PUSH2 0x85E SWAP1 DUP9 SWAP1 DUP9 SWAP1 DUP9 SWAP1 DUP9 SWAP1 PUSH1 0x24 ADD PUSH2 0x2191 JUMP JUMPDEST PUSH1 0x40 DUP1 MLOAD PUSH1 0x1F NOT DUP2 DUP5 SUB ADD DUP2 MSTORE SWAP2 DUP2 MSTORE PUSH1 0x20 DUP3 ADD DUP1 MLOAD PUSH1 0x1 PUSH1 0x1 PUSH1 0xE0 SHL SUB AND PUSH4 0xA95FBE1 PUSH1 0xE2 SHL OR SWAP1 MSTORE MLOAD PUSH2 0x893 SWAP2 SWAP1 PUSH2 0x20F5 JUMP JUMPDEST PUSH1 0x0 PUSH1 0x40 MLOAD DUP1 DUP4 SUB DUP2 DUP6 GAS DELEGATECALL SWAP2 POP POP RETURNDATASIZE DUP1 PUSH1 0x0 DUP2 EQ PUSH2 0x8CE JUMPI PUSH1 0x40 MLOAD SWAP2 POP PUSH1 0x1F NOT PUSH1 0x3F RETURNDATASIZE ADD AND DUP3 ADD PUSH1 0x40 MSTORE RETURNDATASIZE DUP3 MSTORE RETURNDATASIZE PUSH1 0x0 PUSH1 0x20 DUP5 ADD RETURNDATACOPY PUSH2 0x8D3 JUMP JUMPDEST PUSH1 0x60 SWAP2 POP JUMPDEST POP POP SWAP1 POP PUSH1 0x40 MLOAD RETURNDATASIZE DUP1 PUSH1 0x0 DUP4 RETURNDATACOPY DUP3 PUSH2 0x8E9 JUMPI DUP1 DUP3 REVERT JUMPDEST POP MLOAD SWAP7 SWAP6 POP POP POP POP POP POP JUMP JUMPDEST PUSH1 0x2 SLOAD PUSH1 0x40 MLOAD PUSH1 0x0 SWAP2 DUP3 SWAP2 PUSH1 0x1 PUSH1 0x1 PUSH1 0xA0 SHL SUB SWAP1 SWAP2 AND SWAP1 PUSH2 0x924 SWAP1 DUP11 SWAP1 DUP11 SWAP1 DUP11 SWAP1 DUP11 SWAP1 DUP11 SWAP1 DUP11 SWAP1 PUSH1 0x24 ADD PUSH2 0x21CD JUMP JUMPDEST PUSH1 0x40 DUP1 MLOAD PUSH1 0x1F NOT DUP2 DUP5 SUB ADD DUP2 MSTORE SWAP2 DUP2 MSTORE PUSH1 0x20 DUP3 ADD DUP1 MLOAD PUSH1 0x1 PUSH1 0x1 PUSH1 0xE0 SHL SUB AND PUSH4 0x31A0AFA7 PUSH1 0xE0 SHL OR SWAP1 MSTORE MLOAD PUSH2 0x959 SWAP2 SWAP1 PUSH2 0x20F5 JUMP JUMPDEST PUSH1 0x0 PUSH1 0x40 MLOAD DUP1 DUP4 SUB DUP2 DUP6 GAS DELEGATECALL SWAP2 POP POP RETURNDATASIZE DUP1 PUSH1 0x0 DUP2 EQ PUSH2 0x994 JUMPI PUSH1 0x40 MLOAD SWAP2 POP PUSH1 0x1F NOT PUSH1 0x3F RETURNDATASIZE ADD AND DUP3 ADD PUSH1 0x40 MSTORE RETURNDATASIZE DUP3 MSTORE RETURNDATASIZE PUSH1 0x0 PUSH1 0x20 DUP5 ADD RETURNDATACOPY PUSH2 0x999 JUMP JUMPDEST PUSH1 0x60 SWAP2 POP JUMPDEST POP POP SWAP1 POP PUSH1 0x40 MLOAD RETURNDATASIZE DUP1 PUSH1 0x0 DUP4 RETURNDATACOPY DUP3 PUSH2 0x9AF JUMPI DUP1 DUP3 REVERT JUMPDEST POP MLOAD SWAP9 SWAP8 POP POP POP POP POP POP POP POP JUMP JUMPDEST PUSH1 0x10 DUP2 DUP2 SLOAD DUP2 LT PUSH2 0x9CD JUMPI PUSH1 0x0 DUP1 REVERT JUMPDEST PUSH1 0x0 SWAP2 DUP3 MSTORE PUSH1 0x20 SWAP1 SWAP2 KECCAK256 ADD SLOAD PUSH1 0xFF AND SWAP1 POP DUP2 JUMP JUMPDEST PUSH1 0x0 DUP1 SLOAD PUSH2 0x9EE SWAP1 PUSH2 0x2156 JUMP JUMPDEST DUP1 PUSH1 0x1F ADD PUSH1 0x20 DUP1 SWAP2 DIV MUL PUSH1 0x20 ADD PUSH1 0x40 MLOAD SWAP1 DUP2 ADD PUSH1 0x40 MSTORE DUP1 SWAP3 SWAP2 SWAP1 DUP2 DUP2 MSTORE PUSH1 0x20 ADD DUP3 DUP1 SLOAD PUSH2 0xA1A SWAP1 PUSH2 0x2156 JUMP JUMPDEST DUP1 ISZERO PUSH2 0xA67 JUMPI DUP1 PUSH1 0x1F LT PUSH2 0xA3C JUMPI PUSH2 0x100 DUP1 DUP4 SLOAD DIV MUL DUP4 MSTORE SWAP2 PUSH1 0x20 ADD SWAP2 PUSH2 0xA67 JUMP JUMPDEST DUP3 ADD SWAP2 SWAP1 PUSH1 0x0 MSTORE PUSH1 0x20 PUSH1 0x0 KECCAK256 SWAP1 JUMPDEST DUP2 SLOAD DUP2 MSTORE SWAP1 PUSH1 0x1 ADD SWAP1 PUSH1 0x20 ADD DUP1 DUP4 GT PUSH2 0xA4A JUMPI DUP3 SWAP1 SUB PUSH1 0x1F AND DUP3 ADD SWAP2 JUMPDEST POP POP POP POP POP DUP2 JUMP JUMPDEST PUSH1 0x60 PUSH1 0xE DUP1 SLOAD DUP1 PUSH1 0x20 MUL PUSH1 0x20 ADD PUSH1 0x40 MLOAD SWAP1 DUP2 ADD PUSH1 0x40 MSTORE DUP1 SWAP3 SWAP2 SWAP1 DUP2 DUP2 MSTORE PUSH1 0x20 ADD PUSH1 0x0 SWAP1 JUMPDEST DUP3 DUP3 LT ISZERO PUSH2 0xB7F JUMPI PUSH1 0x0 DUP5 DUP2 MSTORE PUSH1 0x20 SWAP1 DUP2 SWAP1 KECCAK256 PUSH1 0x40 DUP1 MLOAD PUSH1 0x60 DUP2 ADD SWAP1 SWAP2 MSTORE PUSH1 0x3 DUP6 MUL SWAP1 SWAP2 ADD DUP1 SLOAD PUSH1 0x1 PUSH1 0x1 PUSH1 0xA0 SHL SUB AND DUP3 MSTORE PUSH1 0x1 DUP2 ADD DUP1 SLOAD SWAP3 SWAP4 SWAP2 SWAP3 SWAP2 DUP5 ADD SWAP2 PUSH2 0xADC SWAP1 PUSH2 0x2156 JUMP JUMPDEST DUP1 PUSH1 0x1F ADD PUSH1 0x20 DUP1 SWAP2 DIV MUL PUSH1 0x20 ADD PUSH1 0x40 MLOAD SWAP1 DUP2 ADD PUSH1 0x40 MSTORE DUP1 SWAP3 SWAP2 SWAP1 DUP2 DUP2 MSTORE PUSH1 0x20 ADD DUP3 DUP1 SLOAD PUSH2 0xB08 SWAP1 PUSH2 0x2156 JUMP JUMPDEST DUP1 ISZERO PUSH2 0xB55 JUMPI DUP1 PUSH1 0x1F LT PUSH2 0xB2A JUMPI PUSH2 0x100 DUP1 DUP4 SLOAD DIV MUL DUP4 MSTORE SWAP2 PUSH1 0x20 ADD SWAP2 PUSH2 0xB55 JUMP JUMPDEST DUP3 ADD SWAP2 SWAP1 PUSH1 0x0 MSTORE PUSH1 0x20 PUSH1 0x0 KECCAK256 SWAP1 JUMPDEST DUP2 SLOAD DUP2 MSTORE SWAP1 PUSH1 0x1 ADD SWAP1 PUSH1 0x20 ADD DUP1 DUP4 GT PUSH2 0xB38 JUMPI DUP3 SWAP1 SUB PUSH1 0x1F AND DUP3 ADD SWAP2 JUMPDEST POP POP POP SWAP2 DUP4 MSTORE POP POP PUSH1 0x2 SWAP2 SWAP1 SWAP2 ADD SLOAD PUSH1 0xFF AND ISZERO ISZERO PUSH1 0x20 SWAP2 DUP3 ADD MSTORE SWAP1 DUP3 MSTORE PUSH1 0x1 SWAP3 SWAP1 SWAP3 ADD SWAP2 ADD PUSH2 0xA93 JUMP JUMPDEST POP POP POP POP SWAP1 POP SWAP1 JUMP JUMPDEST PUSH1 0x12 SLOAD PUSH1 0x1 SWAP1 PUSH2 0x100 SWAP1 DIV PUSH1 0xFF AND ISZERO DUP1 ISZERO PUSH2 0xBAA JUMPI POP PUSH1 0x12 SLOAD PUSH1 0xFF DUP1 DUP4 AND SWAP2 AND LT JUMPDEST PUSH2 0xC11 JUMPI PUSH1 0x40 MLOAD PUSH3 0x461BCD PUSH1 0xE5 SHL DUP2 MSTORE PUSH1 0x20 PUSH1 0x4 DUP3 ADD MSTORE PUSH1 0x2E PUSH1 0x24 DUP3 ADD MSTORE PUSH32 0x496E697469616C697A61626C653A20636F6E747261637420697320616C726561 PUSH1 0x44 DUP3 ADD MSTORE PUSH14 0x191E481A5B9A5D1A585B1A5E9959 PUSH1 0x92 SHL PUSH1 0x64 DUP3 ADD MSTORE PUSH1 0x84 ADD PUSH1 0x40 MLOAD DUP1 SWAP2 SUB SWAP1 REVERT JUMPDEST PUSH1 0x12 DUP1 SLOAD PUSH2 0xFFFF NOT AND PUSH1 0xFF DUP4 AND OR PUSH2 0x100 OR SWAP1 SSTORE PUSH1 0x0 DUP4 PUSH1 0x2 PUSH1 0x5 DUP2 LT PUSH2 0xC3A JUMPI PUSH2 0xC3A PUSH2 0x2232 JUMP JUMPDEST PUSH1 0x20 MUL ADD MLOAD PUSH1 0x1 PUSH1 0x1 PUSH1 0xA0 SHL SUB AND DUP10 DUP10 DUP10 DUP10 DUP10 DUP10 DUP10 PUSH1 0x40 MLOAD PUSH1 0x24 ADD PUSH2 0xC65 SWAP8 SWAP7 SWAP6 SWAP5 SWAP4 SWAP3 SWAP2 SWAP1 PUSH2 0x22B8 JUMP JUMPDEST PUSH1 0x40 DUP1 MLOAD PUSH1 0x1F NOT DUP2 DUP5 SUB ADD DUP2 MSTORE SWAP2 DUP2 MSTORE PUSH1 0x20 DUP3 ADD DUP1 MLOAD PUSH1 0x1 PUSH1 0x1 PUSH1 0xE0 SHL SUB AND PUSH4 0x9F221D81 PUSH1 0xE0 SHL OR SWAP1 MSTORE MLOAD PUSH2 0xC9A SWAP2 SWAP1 PUSH2 0x20F5 JUMP JUMPDEST PUSH1 0x0 PUSH1 0x40 MLOAD DUP1 DUP4 SUB DUP2 DUP6 GAS DELEGATECALL SWAP2 POP POP RETURNDATASIZE DUP1 PUSH1 0x0 DUP2 EQ PUSH2 0xCD5 JUMPI PUSH1 0x40 MLOAD SWAP2 POP PUSH1 0x1F NOT PUSH1 0x3F RETURNDATASIZE ADD AND DUP3 ADD PUSH1 0x40 MSTORE RETURNDATASIZE DUP3 MSTORE RETURNDATASIZE PUSH1 0x0 PUSH1 0x20 DUP5 ADD RETURNDATACOPY PUSH2 0xCDA JUMP JUMPDEST PUSH1 0x60 SWAP2 POP JUMPDEST POP POP SWAP1 POP DUP1 PUSH2 0xCF0 JUMPI PUSH1 0x40 MLOAD RETURNDATASIZE DUP1 PUSH1 0x0 DUP4 RETURNDATACOPY DUP1 DUP3 REVERT JUMPDEST POP PUSH1 0x12 DUP1 SLOAD PUSH2 0xFF00 NOT AND SWAP1 SSTORE PUSH1 0x40 MLOAD PUSH1 0xFF DUP3 AND DUP2 MSTORE PUSH32 0x7F26B83FF96E1F2B6A682F133852F6798A09C465DA95921460CEFB3847402498 SWAP1 PUSH1 0x20 ADD PUSH1 0x40 MLOAD DUP1 SWAP2 SUB SWAP1 LOG1 POP POP POP POP POP POP POP POP JUMP JUMPDEST PUSH1 0x2 SLOAD PUSH1 0x40 MLOAD PUSH1 0x24 DUP2 ADD DUP4 SWAP1 MSTORE PUSH1 0x0 SWAP2 PUSH1 0x60 SWAP2 DUP4 SWAP2 PUSH1 0x1 PUSH1 0x1 PUSH1 0xA0 SHL SUB AND SWAP1 PUSH1 0x44 ADD PUSH1 0x40 DUP1 MLOAD PUSH1 0x1F NOT DUP2 DUP5 SUB ADD DUP2 MSTORE SWAP2 DUP2 MSTORE PUSH1 0x20 DUP3 ADD DUP1 MLOAD PUSH1 0x1 PUSH1 0x1 PUSH1 0xE0 SHL SUB AND PUSH4 0x5F3D99B3 PUSH1 0xE0 SHL OR SWAP1 MSTORE MLOAD PUSH2 0xD93 SWAP2 SWAP1 PUSH2 0x20F5 JUMP JUMPDEST PUSH1 0x0 PUSH1 0x40 MLOAD DUP1 DUP4 SUB DUP2 DUP6 GAS DELEGATECALL SWAP2 POP POP RETURNDATASIZE DUP1 PUSH1 0x0 DUP2 EQ PUSH2 0xDCE JUMPI PUSH1 0x40 MLOAD SWAP2 POP PUSH1 0x1F NOT PUSH1 0x3F RETURNDATASIZE ADD AND DUP3 ADD PUSH1 0x40 MSTORE RETURNDATASIZE DUP3 MSTORE RETURNDATASIZE PUSH1 0x0 PUSH1 0x20 DUP5 ADD RETURNDATACOPY PUSH2 0xDD3 JUMP JUMPDEST PUSH1 0x60 SWAP2 POP JUMPDEST POP POP SWAP1 POP DUP1 PUSH2 0xDE9 JUMPI PUSH1 0x40 MLOAD RETURNDATASIZE DUP1 PUSH1 0x0 DUP4 RETURNDATACOPY DUP1 DUP3 REVERT JUMPDEST PUSH1 0x1 PUSH1 0x40 MLOAD DUP1 PUSH1 0x40 ADD PUSH1 0x40 MSTORE DUP1 PUSH1 0x19 DUP2 MSTORE PUSH1 0x20 ADD PUSH32 0x537563636573732065786563757465642070726F706F73616C00000000000000 DUP2 MSTORE POP SWAP3 POP SWAP3 POP POP SWAP2 POP SWAP2 JUMP JUMPDEST PUSH1 0x2 SLOAD PUSH1 0x40 MLOAD PUSH1 0x0 SWAP2 DUP3 SWAP2 PUSH1 0x1 PUSH1 0x1 PUSH1 0xA0 SHL SUB SWAP1 SWAP2 AND SWAP1 PUSH2 0xE54 SWAP1 DUP8 SWAP1 DUP8 SWAP1 DUP8 SWAP1 PUSH1 0x24 ADD PUSH2 0x2349 JUMP JUMPDEST PUSH1 0x40 DUP1 MLOAD PUSH1 0x1F NOT DUP2 DUP5 SUB ADD DUP2 MSTORE SWAP2 DUP2 MSTORE PUSH1 0x20 DUP3 ADD DUP1 MLOAD PUSH1 0x1 PUSH1 0x1 PUSH1 0xE0 SHL SUB AND PUSH4 0x70ACB761 PUSH1 0xE0 SHL OR SWAP1 MSTORE MLOAD PUSH2 0xE89 SWAP2 SWAP1 PUSH2 0x20F5 JUMP JUMPDEST PUSH1 0x0 PUSH1 0x40 MLOAD DUP1 DUP4 SUB DUP2 DUP6 GAS DELEGATECALL SWAP2 POP POP RETURNDATASIZE DUP1 PUSH1 0x0 DUP2 EQ PUSH2 0xEC4 JUMPI PUSH1 0x40 MLOAD SWAP2 POP PUSH1 0x1F NOT PUSH1 0x3F RETURNDATASIZE ADD AND DUP3 ADD PUSH1 0x40 MSTORE RETURNDATASIZE DUP3 MSTORE RETURNDATASIZE PUSH1 0x0 PUSH1 0x20 DUP5 ADD RETURNDATACOPY PUSH2 0xEC9 JUMP JUMPDEST PUSH1 0x60 SWAP2 POP JUMPDEST POP POP SWAP1 POP PUSH1 0x40 MLOAD RETURNDATASIZE DUP1 PUSH1 0x0 DUP4 RETURNDATACOPY DUP3 PUSH2 0xEDF JUMPI DUP1 DUP3 REVERT JUMPDEST POP MLOAD SWAP6 SWAP5 POP POP POP POP POP JUMP JUMPDEST PUSH1 0x2 SLOAD PUSH1 0x40 MLOAD PUSH1 0x0 SWAP2 DUP3 SWAP2 PUSH1 0x1 PUSH1 0x1 PUSH1 0xA0 SHL SUB SWAP1 SWAP2 AND SWAP1 PUSH2 0xF15 SWAP1 DUP9 SWAP1 DUP9 SWAP1 DUP9 SWAP1 DUP9 SWAP1 PUSH1 0x24 ADD PUSH2 0x20BD JUMP JUMPDEST PUSH1 0x40 DUP1 MLOAD PUSH1 0x1F NOT DUP2 DUP5 SUB ADD DUP2 MSTORE SWAP2 DUP2 MSTORE PUSH1 0x20 DUP3 ADD DUP1 MLOAD PUSH1 0x1 PUSH1 0x1 PUSH1 0xE0 SHL SUB AND PUSH4 0xF8C70A9 PUSH1 0xE3 SHL OR SWAP1 MSTORE MLOAD PUSH2 0x893 SWAP2 SWAP1 PUSH2 0x20F5 JUMP JUMPDEST PUSH1 0x1 SLOAD PUSH1 0x40 MLOAD PUSH1 0x0 SWAP2 PUSH7 0x1000000000000 SWAP1 DIV PUSH1 0x1 PUSH1 0x1 PUSH1 0xA0 SHL SUB AND SWAP1 PUSH2 0xF77 SWAP1 DUP6 SWAP1 DUP6 SWAP1 PUSH1 0x24 ADD PUSH2 0x1CB8 JUMP JUMPDEST PUSH1 0x40 DUP1 MLOAD PUSH1 0x1F NOT DUP2 DUP5 SUB ADD DUP2 MSTORE SWAP2 DUP2 MSTORE PUSH1 0x20 DUP3 ADD DUP1 MLOAD PUSH1 0x1 PUSH1 0x1 PUSH1 0xE0 SHL SUB AND PUSH4 0x1039E45B PUSH1 0xE3 SHL OR SWAP1 MSTORE MLOAD PUSH2 0xFAC SWAP2 SWAP1 PUSH2 0x20F5 JUMP JUMPDEST PUSH1 0x0 PUSH1 0x40 MLOAD DUP1 DUP4 SUB DUP2 DUP6 GAS DELEGATECALL SWAP2 POP POP RETURNDATASIZE DUP1 PUSH1 0x0 DUP2 EQ PUSH2 0xFE7 JUMPI PUSH1 0x40 MLOAD SWAP2 POP PUSH1 0x1F NOT PUSH1 0x3F RETURNDATASIZE ADD AND DUP3 ADD PUSH1 0x40 MSTORE RETURNDATASIZE DUP3 MSTORE RETURNDATASIZE PUSH1 0x0 PUSH1 0x20 DUP5 ADD RETURNDATACOPY PUSH2 0xFEC JUMP JUMPDEST PUSH1 0x60 SWAP2 POP JUMPDEST POP POP SWAP1 POP DUP1 PUSH2 0x1002 JUMPI PUSH1 0x40 MLOAD RETURNDATASIZE DUP1 PUSH1 0x0 DUP4 RETURNDATACOPY DUP1 DUP3 REVERT JUMPDEST POP POP POP JUMP JUMPDEST PUSH1 0xE DUP2 DUP2 SLOAD DUP2 LT PUSH2 0x1017 JUMPI PUSH1 0x0 DUP1 REVERT JUMPDEST PUSH1 0x0 SWAP2 DUP3 MSTORE PUSH1 0x20 SWAP1 SWAP2 KECCAK256 PUSH1 0x3 SWAP1 SWAP2 MUL ADD DUP1 SLOAD PUSH1 0x1 DUP3 ADD DUP1 SLOAD PUSH1 0x1 PUSH1 0x1 PUSH1 0xA0 SHL SUB SWAP1 SWAP3 AND SWAP4 POP SWAP1 PUSH2 0x1046 SWAP1 PUSH2 0x2156 JUMP JUMPDEST DUP1 PUSH1 0x1F ADD PUSH1 0x20 DUP1 SWAP2 DIV MUL PUSH1 0x20 ADD PUSH1 0x40 MLOAD SWAP1 DUP2 ADD PUSH1 0x40 MSTORE DUP1 SWAP3 SWAP2 SWAP1 DUP2 DUP2 MSTORE PUSH1 0x20 ADD DUP3 DUP1 SLOAD PUSH2 0x1072 SWAP1 PUSH2 0x2156 JUMP JUMPDEST DUP1 ISZERO PUSH2 0x10BF JUMPI DUP1 PUSH1 0x1F LT PUSH2 0x1094 JUMPI PUSH2 0x100 DUP1 DUP4 SLOAD DIV MUL DUP4 MSTORE SWAP2 PUSH1 0x20 ADD SWAP2 PUSH2 0x10BF JUMP JUMPDEST DUP3 ADD SWAP2 SWAP1 PUSH1 0x0 MSTORE PUSH1 0x20 PUSH1 0x0 KECCAK256 SWAP1 JUMPDEST DUP2 SLOAD DUP2 MSTORE SWAP1 PUSH1 0x1 ADD SWAP1 PUSH1 0x20 ADD DUP1 DUP4 GT PUSH2 0x10A2 JUMPI DUP3 SWAP1 SUB PUSH1 0x1F AND DUP3 ADD SWAP2 JUMPDEST POP POP POP PUSH1 0x2 SWAP1 SWAP4 ADD SLOAD SWAP2 SWAP3 POP POP PUSH1 0xFF AND DUP4 JUMP JUMPDEST PUSH1 0x2 SLOAD PUSH1 0x40 MLOAD PUSH1 0x0 SWAP2 DUP3 SWAP2 PUSH1 0x1 PUSH1 0x1 PUSH1 0xA0 SHL SUB SWAP1 SWAP2 AND SWAP1 PUSH2 0x10FB SWAP1 DUP8 SWAP1 DUP8 SWAP1 DUP8 SWAP1 PUSH1 0x24 ADD PUSH2 0x2375 JUMP JUMPDEST PUSH1 0x40 DUP1 MLOAD PUSH1 0x1F NOT DUP2 DUP5 SUB ADD DUP2 MSTORE SWAP2 DUP2 MSTORE PUSH1 0x20 DUP3 ADD DUP1 MLOAD PUSH1 0x1 PUSH1 0x1 PUSH1 0xE0 SHL SUB AND PUSH4 0xA19A5F5 PUSH1 0xE4 SHL OR SWAP1 MSTORE MLOAD PUSH2 0x63C SWAP2 SWAP1 PUSH2 0x20F5 JUMP JUMPDEST PUSH1 0x60 PUSH1 0xD DUP1 SLOAD DUP1 PUSH1 0x20 MUL PUSH1 0x20 ADD PUSH1 0x40 MLOAD SWAP1 DUP2 ADD PUSH1 0x40 MSTORE DUP1 SWAP3 SWAP2 SWAP1 DUP2 DUP2 MSTORE PUSH1 0x20 ADD PUSH1 0x0 SWAP1 JUMPDEST DUP3 DUP3 LT ISZERO PUSH2 0xB7F JUMPI PUSH1 0x0 DUP5 DUP2 MSTORE PUSH1 0x20 SWAP1 DUP2 SWAP1 KECCAK256 PUSH1 0x40 DUP1 MLOAD PUSH2 0x120 DUP2 ADD SWAP1 SWAP2 MSTORE PUSH1 0x5 DUP6 MUL SWAP1 SWAP2 ADD DUP1 SLOAD PUSH1 0x1 PUSH1 0x1 PUSH1 0xA0 SHL SUB DUP2 AND DUP4 MSTORE SWAP2 SWAP3 SWAP1 SWAP2 SWAP1 DUP4 ADD SWAP1 PUSH1 0x1 PUSH1 0xA0 SHL SWAP1 DIV PUSH1 0xFF AND PUSH1 0x8 DUP2 GT ISZERO PUSH2 0x11AB JUMPI PUSH2 0x11AB PUSH2 0x1E3B JUMP JUMPDEST PUSH1 0x8 DUP2 GT ISZERO PUSH2 0x11BC JUMPI PUSH2 0x11BC PUSH2 0x1E3B JUMP JUMPDEST DUP2 MSTORE PUSH1 0x20 ADD PUSH1 0x1 DUP3 ADD DUP1 SLOAD PUSH2 0x11D0 SWAP1 PUSH2 0x2156 JUMP JUMPDEST DUP1 PUSH1 0x1F ADD PUSH1 0x20 DUP1 SWAP2 DIV MUL PUSH1 0x20 ADD PUSH1 0x40 MLOAD SWAP1 DUP2 ADD PUSH1 0x40 MSTORE DUP1 SWAP3 SWAP2 SWAP1 DUP2 DUP2 MSTORE PUSH1 0x20 ADD DUP3 DUP1 SLOAD PUSH2 0x11FC SWAP1 PUSH2 0x2156 JUMP JUMPDEST DUP1 ISZERO PUSH2 0x1249 JUMPI DUP1 PUSH1 0x1F LT PUSH2 0x121E JUMPI PUSH2 0x100 DUP1 DUP4 SLOAD DIV MUL DUP4 MSTORE SWAP2 PUSH1 0x20 ADD SWAP2 PUSH2 0x1249 JUMP JUMPDEST DUP3 ADD SWAP2 SWAP1 PUSH1 0x0 MSTORE PUSH1 0x20 PUSH1 0x0 KECCAK256 SWAP1 JUMPDEST DUP2 SLOAD DUP2 MSTORE SWAP1 PUSH1 0x1 ADD SWAP1 PUSH1 0x20 ADD DUP1 DUP4 GT PUSH2 0x122C JUMPI DUP3 SWAP1 SUB PUSH1 0x1F AND DUP3 ADD SWAP2 JUMPDEST POP POP POP SWAP2 DUP4 MSTORE POP POP PUSH1 0x2 DUP3 ADD SLOAD PUSH1 0x20 DUP1 DUP4 ADD SWAP2 SWAP1 SWAP2 MSTORE PUSH1 0x3 DUP4 ADD SLOAD PUSH1 0xFF DUP1 DUP3 AND PUSH1 0x40 DUP6 ADD MSTORE PUSH2 0x100 DUP3 DIV DUP2 AND PUSH1 0x60 DUP6 ADD MSTORE PUSH3 0x10000 DUP3 DIV DUP2 AND ISZERO ISZERO PUSH1 0x80 DUP6 ADD MSTORE PUSH4 0x1000000 SWAP1 SWAP2 DIV AND ISZERO ISZERO PUSH1 0xA0 DUP4 ADD MSTORE PUSH1 0x4 SWAP1 SWAP3 ADD SLOAD PUSH1 0xC0 SWAP1 SWAP2 ADD MSTORE SWAP1 DUP3 MSTORE PUSH1 0x1 SWAP3 SWAP1 SWAP3 ADD SWAP2 ADD PUSH2 0x1154 JUMP JUMPDEST PUSH1 0xF DUP2 DUP2 SLOAD DUP2 LT PUSH2 0x12C5 JUMPI PUSH1 0x0 DUP1 REVERT JUMPDEST PUSH1 0x0 SWAP2 DUP3 MSTORE PUSH1 0x20 SWAP1 SWAP2 KECCAK256 PUSH1 0x4 SWAP1 SWAP2 MUL ADD DUP1 SLOAD PUSH1 0x1 DUP3 ADD SLOAD PUSH1 0x2 DUP4 ADD SLOAD PUSH1 0x3 SWAP1 SWAP4 ADD SLOAD PUSH1 0x1 PUSH1 0x1 PUSH1 0xA0 SHL SUB SWAP3 DUP4 AND SWAP5 POP SWAP1 SWAP3 DUP3 AND SWAP2 AND DUP5 JUMP JUMPDEST PUSH1 0x2 SLOAD PUSH1 0x40 MLOAD PUSH1 0x0 SWAP2 PUSH1 0x1 PUSH1 0x1 PUSH1 0xA0 SHL SUB AND SWAP1 PUSH2 0x1324 SWAP1 DUP8 SWAP1 DUP8 SWAP1 DUP8 SWAP1 DUP8 SWAP1 PUSH1 0x24 ADD PUSH2 0x23B8 JUMP JUMPDEST PUSH1 0x40 DUP1 MLOAD PUSH1 0x1F NOT DUP2 DUP5 SUB ADD DUP2 MSTORE SWAP2 DUP2 MSTORE PUSH1 0x20 DUP3 ADD DUP1 MLOAD PUSH1 0x1 PUSH1 0x1 PUSH1 0xE0 SHL SUB AND PUSH4 0x18567541 PUSH1 0xE3 SHL OR SWAP1 MSTORE MLOAD PUSH2 0x1359 SWAP2 SWAP1 PUSH2 0x20F5 JUMP JUMPDEST PUSH1 0x0 PUSH1 0x40 MLOAD DUP1 DUP4 SUB DUP2 DUP6 GAS DELEGATECALL SWAP2 POP POP RETURNDATASIZE DUP1 PUSH1 0x0 DUP2 EQ PUSH2 0x1394 JUMPI PUSH1 0x40 MLOAD SWAP2 POP PUSH1 0x1F NOT PUSH1 0x3F RETURNDATASIZE ADD AND DUP3 ADD PUSH1 0x40 MSTORE RETURNDATASIZE DUP3 MSTORE RETURNDATASIZE PUSH1 0x0 PUSH1 0x20 DUP5 ADD RETURNDATACOPY PUSH2 0x1399 JUMP JUMPDEST PUSH1 0x60 SWAP2 POP JUMPDEST POP POP SWAP1 POP DUP1 PUSH2 0x13AF JUMPI PUSH1 0x40 MLOAD RETURNDATASIZE DUP1 PUSH1 0x0 DUP4 RETURNDATACOPY DUP1 DUP3 REVERT JUMPDEST POP POP POP POP POP JUMP JUMPDEST PUSH1 0xC PUSH1 0x20 SWAP1 DUP2 MSTORE PUSH1 0x0 SWAP3 DUP4 MSTORE PUSH1 0x40 DUP1 DUP5 KECCAK256 SWAP1 SWAP2 MSTORE SWAP1 DUP3 MSTORE SWAP1 KECCAK256 DUP1 SLOAD PUSH1 0x1 DUP3 ADD DUP1 SLOAD PUSH1 0xFF DUP1 DUP5 AND SWAP5 PUSH2 0x100 SWAP1 SWAP5 DIV AND SWAP3 SWAP2 SWAP1 PUSH2 0x13F0 SWAP1 PUSH2 0x2156 JUMP JUMPDEST DUP1 PUSH1 0x1F ADD PUSH1 0x20 DUP1 SWAP2 DIV MUL PUSH1 0x20 ADD PUSH1 0x40 MLOAD SWAP1 DUP2 ADD PUSH1 0x40 MSTORE DUP1 SWAP3 SWAP2 SWAP1 DUP2 DUP2 MSTORE PUSH1 0x20 ADD DUP3 DUP1 SLOAD PUSH2 0x141C SWAP1 PUSH2 0x2156 JUMP JUMPDEST DUP1 ISZERO PUSH2 0x1469 JUMPI DUP1 PUSH1 0x1F LT PUSH2 0x143E JUMPI PUSH2 0x100 DUP1 DUP4 SLOAD DIV MUL DUP4 MSTORE SWAP2 PUSH1 0x20 ADD SWAP2 PUSH2 0x1469 JUMP JUMPDEST DUP3 ADD SWAP2 SWAP1 PUSH1 0x0 MSTORE PUSH1 0x20 PUSH1 0x0 KECCAK256 SWAP1 JUMPDEST DUP2 SLOAD DUP2 MSTORE SWAP1 PUSH1 0x1 ADD SWAP1 PUSH1 0x20 ADD DUP1 DUP4 GT PUSH2 0x144C JUMPI DUP3 SWAP1 SUB PUSH1 0x1F AND DUP3 ADD SWAP2 JUMPDEST POP POP POP POP POP SWAP1 POP DUP4 JUMP JUMPDEST PUSH1 0xD DUP2 DUP2 SLOAD DUP2 LT PUSH2 0x1483 JUMPI PUSH1 0x0 DUP1 REVERT JUMPDEST PUSH1 0x0 SWAP2 DUP3 MSTORE PUSH1 0x20 SWAP1 SWAP2 KECCAK256 PUSH1 0x5 SWAP1 SWAP2 MUL ADD DUP1 SLOAD PUSH1 0x1 DUP3 ADD DUP1 SLOAD PUSH1 0x1 PUSH1 0x1 PUSH1 0xA0 SHL SUB DUP4 AND SWAP5 POP PUSH1 0x1 PUSH1 0xA0 SHL SWAP1 SWAP3 DIV PUSH1 0xFF AND SWAP3 SWAP2 PUSH2 0x14BD SWAP1 PUSH2 0x2156 JUMP JUMPDEST DUP1 PUSH1 0x1F ADD PUSH1 0x20 DUP1 SWAP2 DIV MUL PUSH1 0x20 ADD PUSH1 0x40 MLOAD SWAP1 DUP2 ADD PUSH1 0x40 MSTORE DUP1 SWAP3 SWAP2 SWAP1 DUP2 DUP2 MSTORE PUSH1 0x20 ADD DUP3 DUP1 SLOAD PUSH2 0x14E9 SWAP1 PUSH2 0x2156 JUMP JUMPDEST DUP1 ISZERO PUSH2 0x1536 JUMPI DUP1 PUSH1 0x1F LT PUSH2 0x150B JUMPI PUSH2 0x100 DUP1 DUP4 SLOAD DIV MUL DUP4 MSTORE SWAP2 PUSH1 0x20 ADD SWAP2 PUSH2 0x1536 JUMP JUMPDEST DUP3 ADD SWAP2 SWAP1 PUSH1 0x0 MSTORE PUSH1 0x20 PUSH1 0x0 KECCAK256 SWAP1 JUMPDEST DUP2 SLOAD DUP2 MSTORE SWAP1 PUSH1 0x1 ADD SWAP1 PUSH1 0x20 ADD DUP1 DUP4 GT PUSH2 0x1519 JUMPI DUP3 SWAP1 SUB PUSH1 0x1F AND DUP3 ADD SWAP2 JUMPDEST POP POP POP PUSH1 0x2 DUP5 ADD SLOAD PUSH1 0x3 DUP6 ADD SLOAD PUSH1 0x4 SWAP1 SWAP6 ADD SLOAD SWAP4 SWAP5 SWAP1 SWAP4 PUSH1 0xFF DUP1 DUP4 AND SWAP5 POP PUSH2 0x100 DUP4 DIV DUP2 AND SWAP4 POP PUSH3 0x10000 DUP4 DIV DUP2 AND SWAP3 PUSH4 0x1000000 SWAP1 DIV AND SWAP1 DUP10 JUMP JUMPDEST PUSH1 0x2 SLOAD PUSH1 0x40 MLOAD PUSH1 0x0 SWAP2 DUP3 SWAP2 PUSH1 0x1 PUSH1 0x1 PUSH1 0xA0 SHL SUB SWAP1 SWAP2 AND SWAP1 PUSH2 0x159F SWAP1 DUP10 SWAP1 DUP10 SWAP1 DUP10 SWAP1 DUP10 SWAP1 DUP10 SWAP1 PUSH1 0x24 ADD PUSH2 0x23EB JUMP JUMPDEST PUSH1 0x40 DUP1 MLOAD PUSH1 0x1F NOT DUP2 DUP5 SUB ADD DUP2 MSTORE SWAP2 DUP2 MSTORE PUSH1 0x20 DUP3 ADD DUP1 MLOAD PUSH1 0x1 PUSH1 0x1 PUSH1 0xE0 SHL SUB AND PUSH4 0x6F2D58A7 PUSH1 0xE1 SHL OR SWAP1 MSTORE MLOAD PUSH2 0x15D4 SWAP2 SWAP1 PUSH2 0x20F5 JUMP JUMPDEST PUSH1 0x0 PUSH1 0x40 MLOAD DUP1 DUP4 SUB DUP2 DUP6 GAS DELEGATECALL SWAP2 POP POP RETURNDATASIZE DUP1 PUSH1 0x0 DUP2 EQ PUSH2 0x160F JUMPI PUSH1 0x40 MLOAD SWAP2 POP PUSH1 0x1F NOT PUSH1 0x3F RETURNDATASIZE ADD AND DUP3 ADD PUSH1 0x40 MSTORE RETURNDATASIZE DUP3 MSTORE RETURNDATASIZE PUSH1 0x0 PUSH1 0x20 DUP5 ADD RETURNDATACOPY PUSH2 0x1614 JUMP JUMPDEST PUSH1 0x60 SWAP2 POP JUMPDEST POP POP SWAP1 POP PUSH1 0x40 MLOAD RETURNDATASIZE DUP1 PUSH1 0x0 DUP4 RETURNDATACOPY DUP3 PUSH2 0x162A JUMPI DUP1 DUP3 REVERT JUMPDEST POP MLOAD SWAP8 SWAP7 POP POP POP POP POP POP POP JUMP JUMPDEST DUP1 CALLDATALOAD PUSH1 0x1 PUSH1 0x1 PUSH1 0xA0 SHL SUB DUP2 AND DUP2 EQ PUSH2 0x164E JUMPI PUSH1 0x0 DUP1 REVERT JUMPDEST SWAP2 SWAP1 POP JUMP JUMPDEST PUSH4 0x4E487B71 PUSH1 0xE0 SHL PUSH1 0x0 MSTORE PUSH1 0x41 PUSH1 0x4 MSTORE PUSH1 0x24 PUSH1 0x0 REVERT JUMPDEST PUSH1 0x40 MLOAD PUSH1 0x60 DUP2 ADD PUSH1 0x1 PUSH1 0x1 PUSH1 0x40 SHL SUB DUP2 GT DUP3 DUP3 LT OR ISZERO PUSH2 0x168B JUMPI PUSH2 0x168B PUSH2 0x1653 JUMP JUMPDEST PUSH1 0x40 MSTORE SWAP1 JUMP JUMPDEST PUSH1 0x40 MLOAD PUSH1 0x1F DUP3 ADD PUSH1 0x1F NOT AND DUP2 ADD PUSH1 0x1 PUSH1 0x1 PUSH1 0x40 SHL SUB DUP2 GT DUP3 DUP3 LT OR ISZERO PUSH2 0x16B9 JUMPI PUSH2 0x16B9 PUSH2 0x1653 JUMP JUMPDEST PUSH1 0x40 MSTORE SWAP2 SWAP1 POP JUMP JUMPDEST PUSH1 0x0 DUP3 PUSH1 0x1F DUP4 ADD SLT PUSH2 0x16D2 JUMPI PUSH1 0x0 DUP1 REVERT JUMPDEST DUP2 CALLDATALOAD PUSH1 0x1 PUSH1 0x1 PUSH1 0x40 SHL SUB DUP2 GT ISZERO PUSH2 0x16EB JUMPI PUSH2 0x16EB PUSH2 0x1653 JUMP JUMPDEST PUSH2 0x16FE PUSH1 0x1F DUP3 ADD PUSH1 0x1F NOT AND PUSH1 0x20 ADD PUSH2 0x1691 JUMP JUMPDEST DUP2 DUP2 MSTORE DUP5 PUSH1 0x20 DUP4 DUP7 ADD ADD GT ISZERO PUSH2 0x1713 JUMPI PUSH1 0x0 DUP1 REVERT JUMPDEST DUP2 PUSH1 0x20 DUP6 ADD PUSH1 0x20 DUP4 ADD CALLDATACOPY PUSH1 0x0 SWAP2 DUP2 ADD PUSH1 0x20 ADD SWAP2 SWAP1 SWAP2 MSTORE SWAP4 SWAP3 POP POP POP JUMP JUMPDEST PUSH1 0x0 DUP1 PUSH1 0x0 DUP1 PUSH1 0x80 DUP6 DUP8 SUB SLT ISZERO PUSH2 0x1746 JUMPI PUSH1 0x0 DUP1 REVERT JUMPDEST PUSH2 0x174F DUP6 PUSH2 0x1637 JUMP JUMPDEST SWAP4 POP PUSH1 0x20 DUP6 ADD CALLDATALOAD SWAP3 POP PUSH1 0x40 DUP6 ADD CALLDATALOAD PUSH1 0x1 PUSH1 0x1 PUSH1 0x40 SHL SUB DUP2 GT ISZERO PUSH2 0x1771 JUMPI PUSH1 0x0 DUP1 REVERT JUMPDEST PUSH2 0x177D DUP8 DUP3 DUP9 ADD PUSH2 0x16C1 JUMP JUMPDEST SWAP5 SWAP8 SWAP4 SWAP7 POP SWAP4 SWAP5 PUSH1 0x60 ADD CALLDATALOAD SWAP4 POP POP POP JUMP JUMPDEST PUSH1 0x0 DUP1 PUSH1 0x0 DUP1 PUSH1 0x0 PUSH1 0xA0 DUP7 DUP9 SUB SLT ISZERO PUSH2 0x17A6 JUMPI PUSH1 0x0 DUP1 REVERT JUMPDEST PUSH2 0x17AF DUP7 PUSH2 0x1637 JUMP JUMPDEST SWAP5 POP PUSH2 0x17BD PUSH1 0x20 DUP8 ADD PUSH2 0x1637 JUMP JUMPDEST SWAP4 POP PUSH1 0x40 DUP7 ADD CALLDATALOAD SWAP3 POP PUSH1 0x60 DUP7 ADD CALLDATALOAD PUSH1 0x1 PUSH1 0x1 PUSH1 0x40 SHL SUB DUP2 GT ISZERO PUSH2 0x17DF JUMPI PUSH1 0x0 DUP1 REVERT JUMPDEST PUSH2 0x17EB DUP9 DUP3 DUP10 ADD PUSH2 0x16C1 JUMP JUMPDEST SWAP6 SWAP9 SWAP5 SWAP8 POP SWAP3 SWAP6 PUSH1 0x80 ADD CALLDATALOAD SWAP4 SWAP3 POP POP POP JUMP JUMPDEST PUSH1 0x0 PUSH1 0x20 DUP3 DUP5 SUB SLT ISZERO PUSH2 0x180F JUMPI PUSH1 0x0 DUP1 REVERT JUMPDEST POP CALLDATALOAD SWAP2 SWAP1 POP JUMP JUMPDEST PUSH1 0x0 JUMPDEST DUP4 DUP2 LT ISZERO PUSH2 0x1831 JUMPI DUP2 DUP2 ADD MLOAD DUP4 DUP3 ADD MSTORE PUSH1 0x20 ADD PUSH2 0x1819 JUMP JUMPDEST DUP4 DUP2 GT ISZERO PUSH2 0x1840 JUMPI PUSH1 0x0 DUP5 DUP5 ADD MSTORE JUMPDEST POP POP POP POP JUMP JUMPDEST PUSH1 0x0 DUP2 MLOAD DUP1 DUP5 MSTORE PUSH2 0x185E DUP2 PUSH1 0x20 DUP7 ADD PUSH1 0x20 DUP7 ADD PUSH2 0x1816 JUMP JUMPDEST PUSH1 0x1F ADD PUSH1 0x1F NOT AND SWAP3 SWAP1 SWAP3 ADD PUSH1 0x20 ADD SWAP3 SWAP2 POP POP JUMP JUMPDEST PUSH1 0x1 PUSH1 0x1 PUSH1 0xA0 SHL SUB DUP7 AND DUP2 MSTORE PUSH1 0xA0 PUSH1 0x20 DUP3 ADD DUP2 SWAP1 MSTORE PUSH1 0x0 SWAP1 PUSH2 0x1896 SWAP1 DUP4 ADD DUP8 PUSH2 0x1846 JUMP JUMPDEST PUSH1 0x40 DUP4 ADD SWAP6 SWAP1 SWAP6 MSTORE POP SWAP2 ISZERO ISZERO PUSH1 0x60 DUP4 ADD MSTORE ISZERO ISZERO PUSH1 0x80 SWAP1 SWAP2 ADD MSTORE SWAP3 SWAP2 POP POP JUMP JUMPDEST PUSH1 0x0 DUP1 PUSH1 0x0 DUP1 PUSH1 0x80 DUP6 DUP8 SUB SLT ISZERO PUSH2 0x18CB JUMPI PUSH1 0x0 DUP1 REVERT JUMPDEST PUSH2 0x18D4 DUP6 PUSH2 0x1637 JUMP JUMPDEST SWAP4 POP PUSH1 0x20 DUP6 ADD CALLDATALOAD PUSH1 0x1 PUSH1 0x1 PUSH1 0x40 SHL SUB DUP1 DUP3 GT ISZERO PUSH2 0x18F0 JUMPI PUSH1 0x0 DUP1 REVERT JUMPDEST PUSH2 0x18FC DUP9 DUP4 DUP10 ADD PUSH2 0x16C1 JUMP JUMPDEST SWAP5 POP PUSH1 0x40 DUP8 ADD CALLDATALOAD SWAP4 POP PUSH1 0x60 DUP8 ADD CALLDATALOAD SWAP2 POP DUP1 DUP3 GT ISZERO PUSH2 0x1919 JUMPI PUSH1 0x0 DUP1 REVERT JUMPDEST POP PUSH2 0x1926 DUP8 DUP3 DUP9 ADD PUSH2 0x16C1 JUMP JUMPDEST SWAP2 POP POP SWAP3 SWAP6 SWAP2 SWAP5 POP SWAP3 POP JUMP JUMPDEST DUP1 CALLDATALOAD DUP1 ISZERO ISZERO DUP2 EQ PUSH2 0x164E JUMPI PUSH1 0x0 DUP1 REVERT JUMPDEST PUSH1 0x0 DUP1 PUSH1 0x0 DUP1 PUSH1 0x0 DUP1 PUSH1 0xC0 DUP8 DUP10 SUB SLT ISZERO PUSH2 0x195B JUMPI PUSH1 0x0 DUP1 REVERT JUMPDEST PUSH2 0x1964 DUP8 PUSH2 0x1637 JUMP JUMPDEST SWAP6 POP PUSH1 0x20 DUP8 ADD CALLDATALOAD PUSH1 0x1 PUSH1 0x1 PUSH1 0x40 SHL SUB DUP1 DUP3 GT ISZERO PUSH2 0x1980 JUMPI PUSH1 0x0 DUP1 REVERT JUMPDEST PUSH2 0x198C DUP11 DUP4 DUP12 ADD PUSH2 0x16C1 JUMP JUMPDEST SWAP7 POP PUSH1 0x40 DUP10 ADD CALLDATALOAD SWAP2 POP DUP1 DUP3 GT ISZERO PUSH2 0x19A2 JUMPI PUSH1 0x0 DUP1 REVERT JUMPDEST PUSH2 0x19AE DUP11 DUP4 DUP12 ADD PUSH2 0x16C1 JUMP JUMPDEST SWAP6 POP PUSH2 0x19BC PUSH1 0x60 DUP11 ADD PUSH2 0x1932 JUMP JUMPDEST SWAP5 POP PUSH1 0x80 DUP10 ADD CALLDATALOAD SWAP4 POP PUSH1 0xA0 DUP10 ADD CALLDATALOAD SWAP2 POP DUP1 DUP3 GT ISZERO PUSH2 0x19D9 JUMPI PUSH1 0x0 DUP1 REVERT JUMPDEST POP PUSH2 0x19E6 DUP10 DUP3 DUP11 ADD PUSH2 0x16C1 JUMP JUMPDEST SWAP2 POP POP SWAP3 SWAP6 POP SWAP3 SWAP6 POP SWAP3 SWAP6 JUMP JUMPDEST PUSH1 0x0 PUSH1 0x20 DUP3 DUP5 SUB SLT ISZERO PUSH2 0x1A05 JUMPI PUSH1 0x0 DUP1 REVERT JUMPDEST PUSH2 0x1A0E DUP3 PUSH2 0x1637 JUMP JUMPDEST SWAP4 SWAP3 POP POP POP JUMP JUMPDEST PUSH1 0x20 DUP2 MSTORE PUSH1 0x0 PUSH2 0x1A0E PUSH1 0x20 DUP4 ADD DUP5 PUSH2 0x1846 JUMP JUMPDEST PUSH1 0x0 PUSH1 0x20 DUP1 DUP4 ADD DUP2 DUP5 MSTORE DUP1 DUP6 MLOAD DUP1 DUP4 MSTORE PUSH1 0x40 SWAP3 POP DUP3 DUP7 ADD SWAP2 POP DUP3 DUP2 PUSH1 0x5 SHL DUP8 ADD ADD DUP5 DUP9 ADD PUSH1 0x0 JUMPDEST DUP4 DUP2 LT ISZERO PUSH2 0x1AA8 JUMPI DUP9 DUP4 SUB PUSH1 0x3F NOT ADD DUP6 MSTORE DUP2 MLOAD DUP1 MLOAD PUSH1 0x1 PUSH1 0x1 PUSH1 0xA0 SHL SUB AND DUP5 MSTORE DUP8 DUP2 ADD MLOAD PUSH1 0x60 DUP10 DUP7 ADD DUP2 SWAP1 MSTORE SWAP1 PUSH2 0x1A88 DUP3 DUP8 ADD DUP3 PUSH2 0x1846 JUMP JUMPDEST SWAP3 DUP10 ADD MLOAD ISZERO ISZERO SWAP6 DUP10 ADD SWAP6 SWAP1 SWAP6 MSTORE POP SWAP5 DUP8 ADD SWAP5 SWAP3 POP SWAP1 DUP7 ADD SWAP1 PUSH1 0x1 ADD PUSH2 0x1A4F JUMP JUMPDEST POP SWAP1 SWAP9 SWAP8 POP POP POP POP POP POP POP POP JUMP JUMPDEST DUP1 CALLDATALOAD PUSH1 0xFF DUP2 AND DUP2 EQ PUSH2 0x164E JUMPI PUSH1 0x0 DUP1 REVERT JUMPDEST PUSH1 0x0 DUP3 PUSH1 0x1F DUP4 ADD SLT PUSH2 0x1AD8 JUMPI PUSH1 0x0 DUP1 REVERT JUMPDEST PUSH1 0x40 MLOAD PUSH1 0xA0 DUP2 ADD DUP2 DUP2 LT PUSH1 0x1 PUSH1 0x1 PUSH1 0x40 SHL SUB DUP3 GT OR ISZERO PUSH2 0x1AFA JUMPI PUSH2 0x1AFA PUSH2 0x1653 JUMP JUMPDEST PUSH1 0x40 MSTORE DUP1 PUSH1 0xA0 DUP5 ADD DUP6 DUP2 GT ISZERO PUSH2 0x1B0F JUMPI PUSH1 0x0 DUP1 REVERT JUMPDEST DUP5 JUMPDEST DUP2 DUP2 LT ISZERO PUSH2 0x1B30 JUMPI PUSH2 0x1B22 DUP2 PUSH2 0x1637 JUMP JUMPDEST DUP4 MSTORE PUSH1 0x20 SWAP3 DUP4 ADD SWAP3 ADD PUSH2 0x1B11 JUMP JUMPDEST POP SWAP2 SWAP6 SWAP5 POP POP POP POP POP JUMP JUMPDEST PUSH1 0x0 DUP3 PUSH1 0x1F DUP4 ADD SLT PUSH2 0x1B4C JUMPI PUSH1 0x0 DUP1 REVERT JUMPDEST DUP2 CALLDATALOAD PUSH1 0x20 PUSH1 0x1 PUSH1 0x1 PUSH1 0x40 SHL SUB DUP3 GT ISZERO PUSH2 0x1B67 JUMPI PUSH2 0x1B67 PUSH2 0x1653 JUMP JUMPDEST DUP2 PUSH1 0x5 SHL PUSH2 0x1B76 DUP3 DUP3 ADD PUSH2 0x1691 JUMP JUMPDEST SWAP3 DUP4 MSTORE DUP5 DUP2 ADD DUP3 ADD SWAP3 DUP3 DUP2 ADD SWAP1 DUP8 DUP6 GT ISZERO PUSH2 0x1B90 JUMPI PUSH1 0x0 DUP1 REVERT JUMPDEST DUP4 DUP8 ADD SWAP3 POP JUMPDEST DUP5 DUP4 LT ISZERO PUSH2 0x1BB6 JUMPI PUSH2 0x1BA7 DUP4 PUSH2 0x1637 JUMP JUMPDEST DUP3 MSTORE SWAP2 DUP4 ADD SWAP2 SWAP1 DUP4 ADD SWAP1 PUSH2 0x1B96 JUMP JUMPDEST SWAP8 SWAP7 POP POP POP POP POP POP POP JUMP JUMPDEST PUSH1 0x0 DUP1 PUSH1 0x0 DUP1 PUSH1 0x0 DUP1 PUSH1 0x0 PUSH2 0x1A0 DUP9 DUP11 SUB SLT ISZERO PUSH2 0x1BDD JUMPI PUSH1 0x0 DUP1 REVERT JUMPDEST PUSH2 0x1BE6 DUP9 PUSH2 0x1637 JUMP JUMPDEST SWAP7 POP PUSH1 0x20 DUP1 DUP10 ADD CALLDATALOAD PUSH1 0x1 PUSH1 0x1 PUSH1 0x40 SHL SUB DUP1 DUP3 GT ISZERO PUSH2 0x1C03 JUMPI PUSH1 0x0 DUP1 REVERT JUMPDEST PUSH2 0x1C0F DUP13 DUP4 DUP14 ADD PUSH2 0x16C1 JUMP JUMPDEST SWAP9 POP PUSH2 0x1C1D PUSH1 0x40 DUP13 ADD PUSH2 0x1932 JUMP JUMPDEST SWAP8 POP PUSH1 0x60 DUP12 ADD CALLDATALOAD SWAP7 POP DUP12 PUSH1 0x9F DUP13 ADD SLT PUSH2 0x1C35 JUMPI PUSH1 0x0 DUP1 REVERT JUMPDEST PUSH2 0x1C3D PUSH2 0x1669 JUMP JUMPDEST SWAP2 POP DUP2 PUSH1 0xE0 DUP13 ADD DUP14 DUP2 GT ISZERO PUSH2 0x1C51 JUMPI PUSH1 0x0 DUP1 REVERT JUMPDEST PUSH1 0x80 DUP14 ADD JUMPDEST DUP2 DUP2 LT ISZERO PUSH2 0x1C74 JUMPI PUSH2 0x1C67 DUP2 PUSH2 0x1AB6 JUMP JUMPDEST DUP6 MSTORE SWAP4 DUP6 ADD SWAP4 DUP6 ADD PUSH2 0x1C56 JUMP JUMPDEST POP DUP2 SWAP8 POP PUSH2 0x1C82 DUP15 DUP3 PUSH2 0x1AC7 JUMP JUMPDEST SWAP7 POP POP POP PUSH2 0x180 DUP12 ADD CALLDATALOAD SWAP3 POP DUP1 DUP4 GT ISZERO PUSH2 0x1C9B JUMPI PUSH1 0x0 DUP1 REVERT JUMPDEST POP POP PUSH2 0x1CA9 DUP11 DUP3 DUP12 ADD PUSH2 0x1B3B JUMP JUMPDEST SWAP2 POP POP SWAP3 SWAP6 SWAP9 SWAP2 SWAP5 SWAP8 POP SWAP3 SWAP6 POP JUMP JUMPDEST DUP3 ISZERO ISZERO DUP2 MSTORE PUSH1 0x40 PUSH1 0x20 DUP3 ADD MSTORE PUSH1 0x0 PUSH2 0x1CD3 PUSH1 0x40 DUP4 ADD DUP5 PUSH2 0x1846 JUMP JUMPDEST SWAP5 SWAP4 POP POP POP POP JUMP JUMPDEST PUSH1 0x0 DUP1 PUSH1 0x0 PUSH1 0x60 DUP5 DUP7 SUB SLT ISZERO PUSH2 0x1CF0 JUMPI PUSH1 0x0 DUP1 REVERT JUMPDEST PUSH2 0x1CF9 DUP5 PUSH2 0x1AB6 JUMP JUMPDEST SWAP3 POP PUSH1 0x20 DUP5 ADD CALLDATALOAD PUSH1 0x1 PUSH1 0x1 PUSH1 0x40 SHL SUB DUP2 GT ISZERO PUSH2 0x1D14 JUMPI PUSH1 0x0 DUP1 REVERT JUMPDEST PUSH2 0x1D20 DUP7 DUP3 DUP8 ADD PUSH2 0x16C1 JUMP JUMPDEST SWAP3 POP POP PUSH1 0x40 DUP5 ADD CALLDATALOAD SWAP1 POP SWAP3 POP SWAP3 POP SWAP3 JUMP JUMPDEST PUSH1 0x0 DUP1 PUSH1 0x40 DUP4 DUP6 SUB SLT ISZERO PUSH2 0x1D44 JUMPI PUSH1 0x0 DUP1 REVERT JUMPDEST PUSH2 0x1D4D DUP4 PUSH2 0x1932 JUMP JUMPDEST SWAP2 POP PUSH1 0x20 DUP4 ADD CALLDATALOAD PUSH1 0x1 PUSH1 0x1 PUSH1 0x40 SHL SUB DUP2 GT ISZERO PUSH2 0x1D68 JUMPI PUSH1 0x0 DUP1 REVERT JUMPDEST PUSH2 0x1D74 DUP6 DUP3 DUP7 ADD PUSH2 0x16C1 JUMP JUMPDEST SWAP2 POP POP SWAP3 POP SWAP3 SWAP1 POP JUMP JUMPDEST PUSH1 0x1 PUSH1 0x1 PUSH1 0xA0 SHL SUB DUP5 AND DUP2 MSTORE PUSH1 0x60 PUSH1 0x20 DUP3 ADD DUP2 SWAP1 MSTORE PUSH1 0x0 SWAP1 PUSH2 0x1DA2 SWAP1 DUP4 ADD DUP6 PUSH2 0x1846 JUMP JUMPDEST SWAP1 POP DUP3 ISZERO ISZERO PUSH1 0x40 DUP4 ADD MSTORE SWAP5 SWAP4 POP POP POP POP JUMP JUMPDEST PUSH1 0x0 DUP1 PUSH1 0x0 PUSH1 0x60 DUP5 DUP7 SUB SLT ISZERO PUSH2 0x1DC9 JUMPI PUSH1 0x0 DUP1 REVERT JUMPDEST DUP4 CALLDATALOAD PUSH1 0x1 PUSH1 0x1 PUSH1 0x40 SHL SUB DUP1 DUP3 GT ISZERO PUSH2 0x1DE0 JUMPI PUSH1 0x0 DUP1 REVERT JUMPDEST PUSH2 0x1DEC DUP8 DUP4 DUP9 ADD PUSH2 0x16C1 JUMP JUMPDEST SWAP5 POP PUSH1 0x20 DUP7 ADD CALLDATALOAD SWAP2 POP DUP1 DUP3 GT ISZERO PUSH2 0x1E02 JUMPI PUSH1 0x0 DUP1 REVERT JUMPDEST PUSH2 0x1E0E DUP8 DUP4 DUP9 ADD PUSH2 0x16C1 JUMP JUMPDEST SWAP4 POP PUSH1 0x40 DUP7 ADD CALLDATALOAD SWAP2 POP DUP1 DUP3 GT ISZERO PUSH2 0x1E24 JUMPI PUSH1 0x0 DUP1 REVERT JUMPDEST POP PUSH2 0x1E31 DUP7 DUP3 DUP8 ADD PUSH2 0x16C1 JUMP JUMPDEST SWAP2 POP POP SWAP3 POP SWAP3 POP SWAP3 JUMP JUMPDEST PUSH4 0x4E487B71 PUSH1 0xE0 SHL PUSH1 0x0 MSTORE PUSH1 0x21 PUSH1 0x4 MSTORE PUSH1 0x24 PUSH1 0x0 REVERT JUMPDEST PUSH1 0x9 DUP2 LT PUSH2 0x1E6F JUMPI PUSH4 0x4E487B71 PUSH1 0xE0 SHL PUSH1 0x0 MSTORE PUSH1 0x21 PUSH1 0x4 MSTORE PUSH1 0x24 PUSH1 0x0 REVERT JUMPDEST SWAP1 MSTORE JUMP JUMPDEST PUSH1 0x0 PUSH1 0x20 DUP1 DUP4 ADD DUP2 DUP5 MSTORE DUP1 DUP6 MLOAD DUP1 DUP4 MSTORE PUSH1 0x40 SWAP3 POP DUP3 DUP7 ADD SWAP2 POP DUP3 DUP2 PUSH1 0x5 SHL DUP8 ADD ADD DUP5 DUP9 ADD PUSH1 0x0 JUMPDEST DUP4 DUP2 LT ISZERO PUSH2 0x1AA8 JUMPI DUP9 DUP4 SUB PUSH1 0x3F NOT ADD DUP6 MSTORE DUP2 MLOAD DUP1 MLOAD PUSH1 0x1 PUSH1 0x1 PUSH1 0xA0 SHL SUB AND DUP5 MSTORE PUSH2 0x120 DUP9 DUP3 ADD MLOAD PUSH2 0x1ECD DUP11 DUP8 ADD DUP3 PUSH2 0x1E51 JUMP JUMPDEST POP DUP8 DUP3 ADD MLOAD DUP2 DUP10 DUP8 ADD MSTORE PUSH2 0x1EE3 DUP3 DUP8 ADD DUP3 PUSH2 0x1846 JUMP JUMPDEST SWAP2 POP POP PUSH1 0x60 DUP1 DUP4 ADD MLOAD DUP2 DUP8 ADD MSTORE POP PUSH1 0x80 DUP1 DUP4 ADD MLOAD PUSH2 0x1F05 DUP3 DUP9 ADD DUP3 PUSH1 0xFF AND SWAP1 MSTORE JUMP JUMPDEST POP POP PUSH1 0xA0 DUP3 DUP2 ADD MLOAD PUSH1 0xFF AND SWAP1 DUP7 ADD MSTORE PUSH1 0xC0 DUP1 DUP4 ADD MLOAD ISZERO ISZERO SWAP1 DUP7 ADD MSTORE PUSH1 0xE0 DUP1 DUP4 ADD MLOAD ISZERO ISZERO SWAP1 DUP7 ADD MSTORE PUSH2 0x100 SWAP2 DUP3 ADD MLOAD SWAP2 SWAP1 SWAP5 ADD MSTORE SWAP4 DUP7 ADD SWAP4 SWAP1 DUP7 ADD SWAP1 PUSH1 0x1 ADD PUSH2 0x1E9A JUMP JUMPDEST PUSH1 0x0 DUP1 PUSH1 0x0 DUP1 PUSH1 0x80 DUP6 DUP8 SUB SLT ISZERO PUSH2 0x1F5E JUMPI PUSH1 0x0 DUP1 REVERT JUMPDEST DUP5 CALLDATALOAD SWAP4 POP PUSH2 0x1F6E PUSH1 0x20 DUP7 ADD PUSH2 0x1932 JUMP JUMPDEST SWAP3 POP PUSH1 0x40 DUP6 ADD CALLDATALOAD PUSH1 0x1 PUSH1 0x1 PUSH1 0x40 SHL SUB DUP1 DUP3 GT ISZERO PUSH2 0x1F8A JUMPI PUSH1 0x0 DUP1 REVERT JUMPDEST PUSH2 0x1F96 DUP9 DUP4 DUP10 ADD PUSH2 0x16C1 JUMP JUMPDEST SWAP4 POP PUSH1 0x60 DUP8 ADD CALLDATALOAD SWAP2 POP DUP1 DUP3 GT ISZERO PUSH2 0x1919 JUMPI PUSH1 0x0 DUP1 REVERT JUMPDEST PUSH1 0x0 DUP1 PUSH1 0x40 DUP4 DUP6 SUB SLT ISZERO PUSH2 0x1FBF JUMPI PUSH1 0x0 DUP1 REVERT JUMPDEST DUP3 CALLDATALOAD SWAP2 POP PUSH2 0x1FCF PUSH1 0x20 DUP5 ADD PUSH2 0x1637 JUMP JUMPDEST SWAP1 POP SWAP3 POP SWAP3 SWAP1 POP JUMP JUMPDEST DUP4 ISZERO ISZERO DUP2 MSTORE DUP3 ISZERO ISZERO PUSH1 0x20 DUP3 ADD MSTORE PUSH1 0x60 PUSH1 0x40 DUP3 ADD MSTORE PUSH1 0x0 PUSH2 0x1FFB PUSH1 0x60 DUP4 ADD DUP5 PUSH2 0x1846 JUMP JUMPDEST SWAP6 SWAP5 POP POP POP POP POP JUMP JUMPDEST PUSH1 0x1 PUSH1 0x1 PUSH1 0xA0 SHL SUB DUP11 AND DUP2 MSTORE PUSH1 0x0 PUSH2 0x120 PUSH2 0x2022 PUSH1 0x20 DUP5 ADD DUP13 PUSH2 0x1E51 JUMP JUMPDEST DUP1 PUSH1 0x40 DUP5 ADD MSTORE PUSH2 0x2034 DUP2 DUP5 ADD DUP12 PUSH2 0x1846 JUMP JUMPDEST PUSH1 0x60 DUP5 ADD SWAP10 SWAP1 SWAP10 MSTORE POP POP PUSH1 0xFF SWAP6 DUP7 AND PUSH1 0x80 DUP3 ADD MSTORE SWAP4 SWAP1 SWAP5 AND PUSH1 0xA0 DUP5 ADD MSTORE SWAP1 ISZERO ISZERO PUSH1 0xC0 DUP4 ADD MSTORE ISZERO ISZERO PUSH1 0xE0 DUP3 ADD MSTORE PUSH2 0x100 ADD MSTORE SWAP4 SWAP3 POP POP POP JUMP JUMPDEST PUSH1 0x0 DUP1 PUSH1 0x0 DUP1 PUSH1 0x0 PUSH1 0xA0 DUP7 DUP9 SUB SLT ISZERO PUSH2 0x2084 JUMPI PUSH1 0x0 DUP1 REVERT JUMPDEST PUSH2 0x208D DUP7 PUSH2 0x1637 JUMP JUMPDEST SWAP5 POP PUSH1 0x20 DUP7 ADD CALLDATALOAD SWAP4 POP PUSH2 0x20A2 PUSH1 0x40 DUP8 ADD PUSH2 0x1637 JUMP JUMPDEST SWAP3 POP PUSH1 0x60 DUP7 ADD CALLDATALOAD PUSH1 0x1 PUSH1 0x1 PUSH1 0x40 SHL SUB DUP2 GT ISZERO PUSH2 0x17DF JUMPI PUSH1 0x0 DUP1 REVERT JUMPDEST PUSH1 0x1 DUP1 PUSH1 0xA0 SHL SUB DUP6 AND DUP2 MSTORE DUP4 PUSH1 0x20 DUP3 ADD MSTORE PUSH1 0x80 PUSH1 0x40 DUP3 ADD MSTORE PUSH1 0x0 PUSH2 0x20E4 PUSH1 0x80 DUP4 ADD DUP6 PUSH2 0x1846 JUMP JUMPDEST SWAP1 POP DUP3 PUSH1 0x60 DUP4 ADD MSTORE SWAP6 SWAP5 POP POP POP POP POP JUMP JUMPDEST PUSH1 0x0 DUP3 MLOAD PUSH2 0x2107 DUP2 DUP5 PUSH1 0x20 DUP8 ADD PUSH2 0x1816 JUMP JUMPDEST SWAP2 SWAP1 SWAP2 ADD SWAP3 SWAP2 POP POP JUMP JUMPDEST PUSH1 0x1 PUSH1 0x1 PUSH1 0xA0 SHL SUB DUP7 DUP2 AND DUP3 MSTORE DUP6 AND PUSH1 0x20 DUP3 ADD MSTORE PUSH1 0x40 DUP2 ADD DUP5 SWAP1 MSTORE PUSH1 0xA0 PUSH1 0x60 DUP3 ADD DUP2 SWAP1 MSTORE PUSH1 0x0 SWAP1 PUSH2 0x2144 SWAP1 DUP4 ADD DUP6 PUSH2 0x1846 JUMP JUMPDEST SWAP1 POP DUP3 PUSH1 0x80 DUP4 ADD MSTORE SWAP7 SWAP6 POP POP POP POP POP POP JUMP JUMPDEST PUSH1 0x1 DUP2 DUP2 SHR SWAP1 DUP3 AND DUP1 PUSH2 0x216A JUMPI PUSH1 0x7F DUP3 AND SWAP2 POP JUMPDEST PUSH1 0x20 DUP3 LT DUP2 EQ ISZERO PUSH2 0x218B JUMPI PUSH4 0x4E487B71 PUSH1 0xE0 SHL PUSH1 0x0 MSTORE PUSH1 0x22 PUSH1 0x4 MSTORE PUSH1 0x24 PUSH1 0x0 REVERT JUMPDEST POP SWAP2 SWAP1 POP JUMP JUMPDEST PUSH1 0x1 PUSH1 0x1 PUSH1 0xA0 SHL SUB DUP6 AND DUP2 MSTORE PUSH1 0x80 PUSH1 0x20 DUP3 ADD DUP2 SWAP1 MSTORE PUSH1 0x0 SWAP1 PUSH2 0x21B5 SWAP1 DUP4 ADD DUP7 PUSH2 0x1846 JUMP JUMPDEST DUP5 PUSH1 0x40 DUP5 ADD MSTORE DUP3 DUP2 SUB PUSH1 0x60 DUP5 ADD MSTORE PUSH2 0x1BB6 DUP2 DUP6 PUSH2 0x1846 JUMP JUMPDEST PUSH1 0x1 PUSH1 0x1 PUSH1 0xA0 SHL SUB DUP8 AND DUP2 MSTORE PUSH1 0xC0 PUSH1 0x20 DUP3 ADD DUP2 SWAP1 MSTORE PUSH1 0x0 SWAP1 PUSH2 0x21F1 SWAP1 DUP4 ADD DUP9 PUSH2 0x1846 JUMP JUMPDEST DUP3 DUP2 SUB PUSH1 0x40 DUP5 ADD MSTORE PUSH2 0x2203 DUP2 DUP9 PUSH2 0x1846 JUMP JUMPDEST SWAP1 POP DUP6 ISZERO ISZERO PUSH1 0x60 DUP5 ADD MSTORE DUP5 PUSH1 0x80 DUP5 ADD MSTORE DUP3 DUP2 SUB PUSH1 0xA0 DUP5 ADD MSTORE PUSH2 0x2225 DUP2 DUP6 PUSH2 0x1846 JUMP JUMPDEST SWAP10 SWAP9 POP POP POP POP POP POP POP POP POP JUMP JUMPDEST PUSH4 0x4E487B71 PUSH1 0xE0 SHL PUSH1 0x0 MSTORE PUSH1 0x32 PUSH1 0x4 MSTORE PUSH1 0x24 PUSH1 0x0 REVERT JUMPDEST DUP1 PUSH1 0x0 JUMPDEST PUSH1 0x5 DUP2 LT ISZERO PUSH2 0x1840 JUMPI DUP2 MLOAD PUSH1 0x1 PUSH1 0x1 PUSH1 0xA0 SHL SUB AND DUP5 MSTORE PUSH1 0x20 SWAP4 DUP5 ADD SWAP4 SWAP1 SWAP2 ADD SWAP1 PUSH1 0x1 ADD PUSH2 0x224C JUMP JUMPDEST PUSH1 0x0 DUP2 MLOAD DUP1 DUP5 MSTORE PUSH1 0x20 DUP1 DUP6 ADD SWAP5 POP DUP1 DUP5 ADD PUSH1 0x0 JUMPDEST DUP4 DUP2 LT ISZERO PUSH2 0x22AD JUMPI DUP2 MLOAD PUSH1 0x1 PUSH1 0x1 PUSH1 0xA0 SHL SUB AND DUP8 MSTORE SWAP6 DUP3 ADD SWAP6 SWAP1 DUP3 ADD SWAP1 PUSH1 0x1 ADD PUSH2 0x2288 JUMP JUMPDEST POP SWAP5 SWAP6 SWAP5 POP POP POP POP POP JUMP JUMPDEST PUSH1 0x1 PUSH1 0x1 PUSH1 0xA0 SHL SUB DUP9 AND DUP2 MSTORE PUSH2 0x1A0 PUSH1 0x20 DUP1 DUP4 ADD DUP3 SWAP1 MSTORE PUSH1 0x0 SWAP2 SWAP1 PUSH2 0x22DF DUP5 DUP4 ADD DUP12 PUSH2 0x1846 JUMP JUMPDEST SWAP2 POP DUP9 ISZERO ISZERO PUSH1 0x40 DUP6 ADD MSTORE DUP8 PUSH1 0x60 DUP6 ADD MSTORE PUSH1 0x80 DUP5 ADD DUP8 PUSH1 0x0 JUMPDEST PUSH1 0x3 DUP2 LT ISZERO PUSH2 0x2317 JUMPI DUP2 MLOAD PUSH1 0xFF AND DUP4 MSTORE SWAP2 DUP4 ADD SWAP2 SWAP1 DUP4 ADD SWAP1 PUSH1 0x1 ADD PUSH2 0x22F7 JUMP JUMPDEST POP POP POP POP PUSH2 0x2328 PUSH1 0xE0 DUP5 ADD DUP7 PUSH2 0x2248 JUMP JUMPDEST DUP3 DUP2 SUB PUSH2 0x180 DUP5 ADD MSTORE PUSH2 0x233B DUP2 DUP6 PUSH2 0x2274 JUMP JUMPDEST SWAP11 SWAP10 POP POP POP POP POP POP POP POP POP POP JUMP JUMPDEST PUSH1 0xFF DUP5 AND DUP2 MSTORE PUSH1 0x60 PUSH1 0x20 DUP3 ADD MSTORE PUSH1 0x0 PUSH2 0x2365 PUSH1 0x60 DUP4 ADD DUP6 PUSH2 0x1846 JUMP JUMPDEST SWAP1 POP DUP3 PUSH1 0x40 DUP4 ADD MSTORE SWAP5 SWAP4 POP POP POP POP JUMP JUMPDEST PUSH1 0x60 DUP2 MSTORE PUSH1 0x0 PUSH2 0x2388 PUSH1 0x60 DUP4 ADD DUP7 PUSH2 0x1846 JUMP JUMPDEST DUP3 DUP2 SUB PUSH1 0x20 DUP5 ADD MSTORE PUSH2 0x239A DUP2 DUP7 PUSH2 0x1846 JUMP JUMPDEST SWAP1 POP DUP3 DUP2 SUB PUSH1 0x40 DUP5 ADD MSTORE PUSH2 0x23AE DUP2 DUP6 PUSH2 0x1846 JUMP JUMPDEST SWAP7 SWAP6 POP POP POP POP POP POP JUMP JUMPDEST DUP5 DUP2 MSTORE DUP4 ISZERO ISZERO PUSH1 0x20 DUP3 ADD MSTORE PUSH1 0x80 PUSH1 0x40 DUP3 ADD MSTORE PUSH1 0x0 PUSH2 0x23D9 PUSH1 0x80 DUP4 ADD DUP6 PUSH2 0x1846 JUMP JUMPDEST DUP3 DUP2 SUB PUSH1 0x60 DUP5 ADD MSTORE PUSH2 0x1BB6 DUP2 DUP6 PUSH2 0x1846 JUMP JUMPDEST PUSH1 0x1 PUSH1 0x1 PUSH1 0xA0 SHL SUB DUP7 DUP2 AND DUP3 MSTORE PUSH1 0x20 DUP3 ADD DUP7 SWAP1 MSTORE DUP5 AND PUSH1 0x40 DUP3 ADD MSTORE PUSH1 0xA0 PUSH1 0x60 DUP3 ADD DUP2 SWAP1 MSTORE PUSH1 0x0 SWAP1 PUSH2 0x2144 SWAP1 DUP4 ADD DUP6 PUSH2 0x1846 JUMP INVALID LOG2 PUSH5 0x6970667358 0x22 SLT KECCAK256 DUP6 0xC5 0xDF 0xE0 DUP9 LOG4 RETURNDATASIZE 0xD3 EXTCODESIZE 0x23 SWAP11 0xD5 0xC1 EXTCODECOPY DUP1 0xCA CALLDATACOPY CALLDATALOAD DUP12 PUSH8 0xC6DE9F37AFB34116 DUP1 0x2D PUSH6 0x5964736F6C63 NUMBER STOP ADDMOD 0xC STOP CALLER ",
  "sha1": "48ce1467f7fbd8878b0bd4096afaf0bd3cb9901f",
  "source": "// SPDX-License-Identifier: MIT\npragma solidity ^0.8.11;\n\nimport \"@openzeppelin/contracts/proxy/utils/Initializable.sol\";\nimport \"./CLStorage.sol\";\n\n\n/// @title Contract to implement and test the basic fuctions of CLHouses\n/// @author Leonardo Urrego\n/// @notice This contract for test only the most basic interactions\ncontract CLHouse is CLStorage, Initializable {\n    /// @custom:oz-upgrades-unsafe-allow constructor\n    constructor() {\n        _disableInitializers();\n    }\n\n    /// @notice Create a new CLH\n    /// @dev Some parameters can be ignored depending on the governance model\n    /// @param _owner The address of the deployed wallet\n    /// @param _houseName Name given by the owner\n    /// @param _housePrivate If is set to 1, the CLH is set to private\n    /// @param _govModel keccak256 hash of the governance model, see the __GOV_* constans\n    /// @param _govRules Array for goverment rules see `enum gRule`\n    /// @param _CLC Array for CL Contracts see `enum eCLC`\n    /// @param _ManagerWallets Whitelist of address for invitate as managers\n    function Init(\n        address _owner, \n        string memory _houseName,\n        bool _housePrivate,\n        bytes32 _govModel,\n        uint8[3] memory _govRules,\n        address[5] memory _CLC,\n        address[] memory _ManagerWallets\n    )\n        external\n        reinitializer( __UPGRADEABLE_CLH_VERSION__ )\n    {\n        /// @custom:oz-upgrades-unsafe-allow delegatecall\n        (bool successDGTCLL, ) = _CLC[ uint256( eCLC.CLLConstructorCLH ) ].delegatecall(\n            abi.encodeWithSignature(\n                \"__CLHConstructor(address,string,bool,bytes32,uint8[3],address[5],address[])\",\n                _owner, \n                _houseName,\n                _housePrivate,\n                _govModel,\n                _govRules,\n                _CLC,\n                _ManagerWallets\n            )\n        );\n\n        if( !successDGTCLL ) {\n            assembly {\n                let ptr := mload(0x40)\n                let size := returndatasize()\n                returndatacopy(ptr, 0, size)\n                revert(ptr, size)\n            }\n        }\n    }\n\n    /// @notice Execute (or reject) a proposal computing the votes and the governance model\n    /// @dev Normally is called internally after each vote\n    /// @param _propId ID of the proposal, based on `arrProposals`\n    /// @return status True if the proposal can be execute, false in other cases\n    /// @return message result of the transaction\n    function ExecProp(\n        uint256 _propId\n    )\n        public\n        returns(\n            bool status,\n            string memory message\n        )\n    {\n        /// @custom:oz-upgrades-unsafe-allow delegatecall\n        (bool successDGTCLL, ) = CLLGovernance.delegatecall(\n            abi.encodeWithSignature(\n                \"ExecProp(uint256)\",\n                _propId\n            )\n        );\n\n        if( !successDGTCLL ) {\n            assembly {\n                let ptr := mload(0x40)\n                let size := returndatasize()\n                returndatacopy(ptr, 0, size)\n                revert(ptr, size)\n            }\n        }\n\n        return ( true , \"Success executed proposal\" );\n    }\n\n    /// @notice Used to vote a proposal\n    /// @dev After vote the proposal automatically try to be executed\n    /// @param _propId ID of the proposal, based on `arrProposals`\n    /// @param _support True for accept, false to reject\n    /// @param _justification About your vote\n    function VoteProposal(\n        uint256 _propId,\n        bool _support,\n        string memory _justification,\n        bytes memory _signature\n    )\n        public\n    {\n        /// @custom:oz-upgrades-unsafe-allow delegatecall\n        (bool successDGTCLL, ) = CLLGovernance.delegatecall(\n            abi.encodeWithSignature( \n                \"VoteProposal(uint256,bool,string,bytes)\",\n                _propId,\n                _support,\n                _justification,\n                _signature\n            )\n        );\n\n        if( !successDGTCLL ) {\n            assembly {\n                let ptr := mload(0x40)\n                let size := returndatasize()\n                returndatacopy(ptr, 0, size)\n                revert(ptr, size)\n            }\n        }\n    }\n\n    /// @notice Generate a new proposal to invite a new user\n    /// @dev the execution of this proposal only create an invitation \n    /// @param _walletAddr  Address of the new user\n    /// @param _name Can be the nickname or other reference to the User\n    /// @param _description A text for the proposal\n    /// @param _isManager True if is for a manager\n    /// @return propId ID of the new proposal, based on `arrProposals`\n    function PropInviteUser(\n        address _walletAddr,\n        string memory _name,\n        string memory _description,\n        bool _isManager,\n        uint256 _delayTime,\n        bytes memory _signature\n    )\n        external\n        returns( uint256 propId )\n    {\n        /// @custom:oz-upgrades-unsafe-allow delegatecall\n        (bool successDGTCLL, ) = CLLGovernance.delegatecall(\n            abi.encodeWithSignature( \n                \"PropInviteUser(address,string,string,bool,uint256,bytes)\",\n                _walletAddr,\n                _name,\n                _description,\n                _isManager,\n                _delayTime,\n                _signature\n            )\n        );\n\n        assembly {\n            let ptr := mload(0x40)\n            let size := returndatasize()\n            returndatacopy(ptr, 0, size)\n            if iszero( successDGTCLL ) {\n                revert(ptr, size)\n            }\n            propId := mload(ptr)\n        }\n    }\n\n    /// @notice Generate a new proposal for remove a user\n    /// @dev The user can be a managaer\n    /// @param _walletAddr user Address to be removed\n    /// @param _description About the proposal\n    /// @return propId ID of the new proposal, based on `arrProposals`\n    function PropRemoveUser(\n        address _walletAddr,\n        string memory _description,\n        uint256 _delayTime,\n        bytes memory _signature\n    )\n        external\n        returns( uint256 propId )\n    {\n        /// @custom:oz-upgrades-unsafe-allow delegatecall\n        (bool successDGTCLL, ) = CLLGovernance.delegatecall(\n            abi.encodeWithSignature( \n                \"PropRemoveUser(address,string,uint256,bytes)\",\n                _walletAddr,\n                _description,\n                _delayTime,\n                _signature\n            )\n        );\n\n        assembly {\n            let ptr := mload(0x40)\n            let size := returndatasize()\n            returndatacopy(ptr, 0, size)\n            if iszero( successDGTCLL ) {\n                revert(ptr, size)\n            }\n            propId := mload(ptr)\n        }\n    }\n\n    /// @notice generate a new proposal to transfer ETH in weis\n    /// @dev When execute this proposal, the transfer is made\n    /// @param _to Recipient address\n    /// @param _amountOutCLV Amount to transfer (in wei)\n    /// @param _description About this proposal\n    /// @return propId ID of the new proposal, based on `arrProposals`\n    function PropTxWei(\n        address _to,\n        uint256 _amountOutCLV,\n        string memory _description,\n        uint256 _delayTime\n    )\n        external\n        returns( uint256 propId )\n    {\n        /// @custom:oz-upgrades-unsafe-allow delegatecall\n        (bool successDGTCLL, ) = CLLGovernance.delegatecall(\n            abi.encodeWithSignature( \n                \"PropTxWei(address,uint256,string,uint256)\",\n                _to,\n                _amountOutCLV,\n                _description,\n                _delayTime\n            )\n        );\n\n        assembly {\n            let ptr := mload(0x40)\n            let size := returndatasize()\n            returndatacopy(ptr, 0, size)\n            if iszero( successDGTCLL ) {\n                revert(ptr, size)\n            }\n            propId := mload(ptr)\n        }\n    }\n\n    /// @notice generate a new proposal to transfer ETH in weis\n    /// @dev When execute this proposal, the transfer is made\n    /// @param _to Recipient address\n    /// @param _amountOutCLV Amount to transfer (in wei)\n    /// @param _description About this proposal\n    /// @return propId ID of the new proposal, based on `arrProposals`\n    function PropTxERC20(\n        address _to,\n        uint256 _amountOutCLV,\n        address _tokenOutCLV,\n        string memory _description,\n        uint256 _delayTime\n    )\n        external\n        returns( uint256 propId )\n    {\n        /// @custom:oz-upgrades-unsafe-allow delegatecall\n        (bool successDGTCLL, ) = CLLGovernance.delegatecall(\n            abi.encodeWithSignature( \n                \"PropTxERC20(address,uint256,address,string,uint256)\",\n                _to,\n                _amountOutCLV,\n                _tokenOutCLV,\n                _description,\n                _delayTime\n            )\n        );\n\n        assembly {\n            let ptr := mload(0x40)\n            let size := returndatasize()\n            returndatacopy(ptr, 0, size)\n            if iszero( successDGTCLL ) {\n                revert(ptr, size)\n            }\n            propId := mload(ptr)\n        }\n    }\n\n    /// @notice Generate a new proposal for change some governance parameters\n    /// @dev When execute this proposal the new values will be set\n    /// @param _newApprovPercentage The new percentaje for accept or reject a proposal\n    /// @param _description About the new proposal \n    /// @return propId ID of the new proposal, based on `arrProposals`\n    function PropGovRules(\n        uint8 _newApprovPercentage,\n        string memory _description,\n        uint256 _delayTime\n    )\n        external\n        returns( uint256 propId )\n    {\n        /// @custom:oz-upgrades-unsafe-allow delegatecall\n        (bool successDGTCLL, ) = CLLGovernance.delegatecall(\n            abi.encodeWithSignature( \n                \"PropGovRules(uint8,string,uint256)\",\n                _newApprovPercentage,\n                _description,\n                _delayTime\n            )\n        );\n\n        assembly {\n            let ptr := mload(0x40)\n            let size := returndatasize()\n            returndatacopy(ptr, 0, size)\n            if iszero( successDGTCLL ) {\n                revert(ptr, size)\n            }\n            propId := mload(ptr)\n        }\n    }\n\n    /// @notice Generate a proposal from a user that want to join to the CLH\n    /// @dev Only avaiable in public CLH\n    /// @param _name Nickname or other user identification\n    /// @param _description About the request\n    /// @return propId ID of the new proposal, based on `arrProposals`\n    function PropRequestToJoin(\n        string memory _name,\n        string memory _description,\n        bytes memory _signature\n    )\n        external\n        returns( uint256 )\n    {\n        /// @custom:oz-upgrades-unsafe-allow delegatecall\n        (bool successDGTCLL, ) = CLLGovernance.delegatecall(\n            abi.encodeWithSignature( \n                \"PropRequestToJoin(string,string,bytes)\",\n                _name,\n                _description,\n                _signature\n            )\n        );\n\n        assembly {\n            let ptr := mload(0x40)\n            let size := returndatasize()\n            returndatacopy(ptr, 0, size)\n            if iszero( successDGTCLL ) {\n                revert(ptr, size)\n            }\n            return(ptr, size)\n        }\n    }\n\n    /// @notice For an user that have an invitation pending\n    /// @dev \n    /// @param _acceptance True for accept the invitation\n    function AcceptRejectInvitation(\n        bool _acceptance,\n        bytes memory _signature\n    )\n        external\n    {\n        /// @custom:oz-upgrades-unsafe-allow delegatecall\n        (bool successDGTCLL, ) = CLLUserManagement.delegatecall(\n            abi.encodeWithSignature( \n                \"AcceptRejectInvitation(bool,bytes)\",\n                _acceptance,\n                _signature\n            )\n        );\n\n        if( !successDGTCLL ) {\n            assembly {\n                let ptr := mload(0x40)\n                let size := returndatasize()\n                returndatacopy(ptr, 0, size)\n                revert(ptr, size)\n            }\n        }\n    }\n\n    function PropSwapERC20(\n        address _tokenOutCLV,\n        address _tokenInCLV,\n        uint256 _amountOutCLV,\n        string memory _description,\n        uint256 _delayTime\n    )\n        external\n        returns( uint256 )\n    {\n        /// @custom:oz-upgrades-unsafe-allow delegatecall\n        (bool successDGTCLL, ) = CLLGovernance.delegatecall(\n            abi.encodeWithSignature( \n                \"PropSwapERC20(address,address,uint256,string,uint256)\",\n                _tokenOutCLV,\n                _tokenInCLV,\n                _amountOutCLV,\n                _description,\n                _delayTime\n            )\n        );\n\n        assembly {\n            let ptr := mload(0x40)\n            let size := returndatasize()\n            returndatacopy(ptr, 0, size)\n            if iszero( successDGTCLL ) {\n                revert(ptr, size)\n            }\n            return(ptr, size)\n        }\n    }\n\n    function PropSellERC20(\n        address _tokenOutCLV,\n        uint256 _amountOutCLV,\n        string memory _description,\n        uint256 _delayTime\n    )\n        external\n        returns( uint256 )\n    {\n        /// @custom:oz-upgrades-unsafe-allow delegatecall\n        (bool successDGTCLL, ) = CLLGovernance.delegatecall(\n            abi.encodeWithSignature( \n                \"PropSellERC20(address,uint256,string,uint256)\",\n                _tokenOutCLV,\n                _amountOutCLV,\n                _description,\n                _delayTime\n            )\n        );\n\n        assembly {\n            let ptr := mload(0x40)\n            let size := returndatasize()\n            returndatacopy(ptr, 0, size)\n            if iszero( successDGTCLL ) {\n                revert(ptr, size)\n            }\n            return(ptr, size)\n        }\n    }\n\n    function PropBuyERC20(\n        address _tokenInCLV,\n        uint256 _amountOutCLV,\n        string memory _description,\n        uint256 _delayTime\n    )\n        external\n        returns( uint256 )\n    {\n        /// @custom:oz-upgrades-unsafe-allow delegatecall\n        (bool successDGTCLL, ) = CLLGovernance.delegatecall(\n            abi.encodeWithSignature( \n                \"PropBuyERC20(address,uint256,string,uint256)\",\n                _tokenInCLV,\n                _amountOutCLV,\n                _description,\n                _delayTime\n            )\n        );\n\n        assembly {\n            let ptr := mload(0x40)\n            let size := returndatasize()\n            returndatacopy(ptr, 0, size)\n            if iszero( successDGTCLL ) {\n                revert(ptr, size)\n            }\n            return(ptr, size)\n        }\n    }\n\n    /// @notice Length of array\n    function GetArrUsersLength() external view returns( uint256 ){\n        return arrUsers.length;\n    }\n\n    /// @notice Length of array\n    function GetArrProposalsLength() external view returns( uint256 ){\n        return arrProposals.length;\n    }\n\n    /// @notice The list of all Proposals\n    /// @return arrProposals the array with all proposals\n    function GetProposalList() external view returns( strProposal[] memory ) {\n        return arrProposals;\n    }\n\n    /// @notice Get complete array of arrDataPropAddUser\n    /// @return arrDataPropAddUser the array with all data\n    function GetArrDataPropAddUser() external view returns( strDataAddUser[] memory ) {\n        return arrDataPropAddUser;\n    }\n}",
  "sourcePath": "contracts/CLHouse/CLHouse.sol",
  "type": "contract"
}