{
  "abi": [
    {
      "inputs": [],
      "stateMutability": "nonpayable",
      "type": "constructor"
    },
    {
      "anonymous": false,
      "inputs": [
        {
          "indexed": false,
          "internalType": "uint8",
          "name": "version",
          "type": "uint8"
        }
      ],
      "name": "Initialized",
      "type": "event"
    },
    {
      "anonymous": false,
      "inputs": [
        {
          "indexed": false,
          "internalType": "uint256",
          "name": "newApprovPercentage",
          "type": "uint256"
        }
      ],
      "name": "evtChangeGovRules",
      "type": "event"
    },
    {
      "anonymous": false,
      "inputs": [
        {
          "indexed": false,
          "internalType": "enum proposalEvent",
          "name": "eventProposal",
          "type": "uint8"
        },
        {
          "indexed": false,
          "internalType": "uint256",
          "name": "propId",
          "type": "uint256"
        },
        {
          "indexed": false,
          "internalType": "enum proposalType",
          "name": "typeProposal",
          "type": "uint8"
        },
        {
          "indexed": false,
          "internalType": "string",
          "name": "description",
          "type": "string"
        }
      ],
      "name": "evtProposal",
      "type": "event"
    },
    {
      "anonymous": false,
      "inputs": [
        {
          "indexed": false,
          "internalType": "address",
          "name": "tokenOutCLV",
          "type": "address"
        },
        {
          "indexed": false,
          "internalType": "uint256",
          "name": "amountOutCLV",
          "type": "uint256"
        },
        {
          "indexed": false,
          "internalType": "address",
          "name": "tokenInCLV",
          "type": "address"
        },
        {
          "indexed": false,
          "internalType": "uint256",
          "name": "amountReceived",
          "type": "uint256"
        }
      ],
      "name": "evtSwapERC20",
      "type": "event"
    },
    {
      "anonymous": false,
      "inputs": [
        {
          "indexed": false,
          "internalType": "address",
          "name": "walletAddr",
          "type": "address"
        },
        {
          "indexed": false,
          "internalType": "uint256",
          "name": "value",
          "type": "uint256"
        },
        {
          "indexed": false,
          "internalType": "address",
          "name": "tokenAdd",
          "type": "address"
        }
      ],
      "name": "evtTxERC20",
      "type": "event"
    },
    {
      "anonymous": false,
      "inputs": [
        {
          "indexed": false,
          "internalType": "enum assetsEvent",
          "name": "typeEvent",
          "type": "uint8"
        },
        {
          "indexed": false,
          "internalType": "address",
          "name": "walletAddr",
          "type": "address"
        },
        {
          "indexed": false,
          "internalType": "uint256",
          "name": "value",
          "type": "uint256"
        },
        {
          "indexed": false,
          "internalType": "uint256",
          "name": "balance",
          "type": "uint256"
        }
      ],
      "name": "evtTxEth",
      "type": "event"
    },
    {
      "anonymous": false,
      "inputs": [
        {
          "indexed": false,
          "internalType": "enum userEvent",
          "name": "eventUser",
          "type": "uint8"
        },
        {
          "indexed": false,
          "internalType": "address",
          "name": "walletAddr",
          "type": "address"
        },
        {
          "indexed": false,
          "internalType": "string",
          "name": "name",
          "type": "string"
        }
      ],
      "name": "evtUser",
      "type": "event"
    },
    {
      "anonymous": false,
      "inputs": [
        {
          "indexed": false,
          "internalType": "uint256",
          "name": "propId",
          "type": "uint256"
        },
        {
          "indexed": false,
          "internalType": "bool",
          "name": "position",
          "type": "bool"
        },
        {
          "indexed": false,
          "internalType": "address",
          "name": "voter",
          "type": "address"
        },
        {
          "indexed": false,
          "internalType": "string",
          "name": "justification",
          "type": "string"
        }
      ],
      "name": "evtVoted",
      "type": "event"
    },
    {
      "inputs": [
        {
          "internalType": "bool",
          "name": "_acceptance",
          "type": "bool"
        },
        {
          "internalType": "bytes",
          "name": "_signature",
          "type": "bytes"
        }
      ],
      "name": "AcceptRejectInvitation",
      "outputs": [],
      "stateMutability": "nonpayable",
      "type": "function"
    },
    {
      "inputs": [],
      "name": "CCLFACTORY",
      "outputs": [
        {
          "internalType": "contract ICLFactory",
          "name": "",
          "type": "address"
        }
      ],
      "stateMutability": "view",
      "type": "function"
    },
    {
      "inputs": [],
      "name": "CLHAPI",
      "outputs": [
        {
          "internalType": "address",
          "name": "",
          "type": "address"
        }
      ],
      "stateMutability": "view",
      "type": "function"
    },
    {
      "inputs": [],
      "name": "CLHSAFE",
      "outputs": [
        {
          "internalType": "address",
          "name": "",
          "type": "address"
        }
      ],
      "stateMutability": "view",
      "type": "function"
    },
    {
      "inputs": [
        {
          "internalType": "uint256",
          "name": "_propId",
          "type": "uint256"
        }
      ],
      "name": "ExecProp",
      "outputs": [
        {
          "internalType": "bool",
          "name": "status",
          "type": "bool"
        },
        {
          "internalType": "string",
          "name": "message",
          "type": "string"
        }
      ],
      "stateMutability": "nonpayable",
      "type": "function"
    },
    {
      "inputs": [],
      "name": "GetArrDataPropUser",
      "outputs": [
        {
          "components": [
            {
              "internalType": "address",
              "name": "walletAddr",
              "type": "address"
            },
            {
              "internalType": "string",
              "name": "name",
              "type": "string"
            },
            {
              "internalType": "bool",
              "name": "isManager",
              "type": "bool"
            }
          ],
          "internalType": "struct strDataUser[]",
          "name": "",
          "type": "tuple[]"
        }
      ],
      "stateMutability": "view",
      "type": "function"
    },
    {
      "inputs": [],
      "name": "GetArrProposalsLength",
      "outputs": [
        {
          "internalType": "uint256",
          "name": "",
          "type": "uint256"
        }
      ],
      "stateMutability": "view",
      "type": "function"
    },
    {
      "inputs": [],
      "name": "GetArrUsersLength",
      "outputs": [
        {
          "internalType": "uint256",
          "name": "",
          "type": "uint256"
        }
      ],
      "stateMutability": "view",
      "type": "function"
    },
    {
      "inputs": [],
      "name": "GetProposalList",
      "outputs": [
        {
          "components": [
            {
              "internalType": "address",
              "name": "proponent",
              "type": "address"
            },
            {
              "internalType": "enum proposalType",
              "name": "typeProposal",
              "type": "uint8"
            },
            {
              "internalType": "string",
              "name": "description",
              "type": "string"
            },
            {
              "internalType": "uint256",
              "name": "propDataId",
              "type": "uint256"
            },
            {
              "internalType": "uint256",
              "name": "numVotes",
              "type": "uint256"
            },
            {
              "internalType": "uint256",
              "name": "againstVotes",
              "type": "uint256"
            },
            {
              "internalType": "bool",
              "name": "executed",
              "type": "bool"
            },
            {
              "internalType": "bool",
              "name": "rejected",
              "type": "bool"
            },
            {
              "internalType": "uint256",
              "name": "deadline",
              "type": "uint256"
            }
          ],
          "internalType": "struct strProposal[]",
          "name": "",
          "type": "tuple[]"
        }
      ],
      "stateMutability": "view",
      "type": "function"
    },
    {
      "inputs": [],
      "name": "HOUSE_GOVERNANCE_MODEL",
      "outputs": [
        {
          "internalType": "bytes32",
          "name": "",
          "type": "bytes32"
        }
      ],
      "stateMutability": "view",
      "type": "function"
    },
    {
      "inputs": [],
      "name": "HOUSE_NAME",
      "outputs": [
        {
          "internalType": "string",
          "name": "",
          "type": "string"
        }
      ],
      "stateMutability": "view",
      "type": "function"
    },
    {
      "inputs": [
        {
          "internalType": "address",
          "name": "_owner",
          "type": "address"
        },
        {
          "internalType": "string",
          "name": "_houseName",
          "type": "string"
        },
        {
          "internalType": "bool",
          "name": "_housePrivate",
          "type": "bool"
        },
        {
          "internalType": "bool",
          "name": "_houseOpen",
          "type": "bool"
        },
        {
          "internalType": "bytes32",
          "name": "_govModel",
          "type": "bytes32"
        },
        {
          "internalType": "uint256[3]",
          "name": "_govRules",
          "type": "uint256[3]"
        },
        {
          "internalType": "address[5]",
          "name": "_CLC",
          "type": "address[5]"
        },
        {
          "internalType": "address[]",
          "name": "_ManagerWallets",
          "type": "address[]"
        }
      ],
      "name": "Init",
      "outputs": [],
      "stateMutability": "nonpayable",
      "type": "function"
    },
    {
      "inputs": [
        {
          "internalType": "address",
          "name": "_tokenInCLV",
          "type": "address"
        },
        {
          "internalType": "uint256",
          "name": "_amountOutCLV",
          "type": "uint256"
        },
        {
          "internalType": "string",
          "name": "_description",
          "type": "string"
        },
        {
          "internalType": "uint256",
          "name": "_delayTime",
          "type": "uint256"
        }
      ],
      "name": "PropBuyERC20",
      "outputs": [
        {
          "internalType": "uint256",
          "name": "",
          "type": "uint256"
        }
      ],
      "stateMutability": "nonpayable",
      "type": "function"
    },
    {
      "inputs": [
        {
          "internalType": "uint256",
          "name": "_newApprovPercentage",
          "type": "uint256"
        },
        {
          "internalType": "string",
          "name": "_description",
          "type": "string"
        },
        {
          "internalType": "uint256",
          "name": "_delayTime",
          "type": "uint256"
        }
      ],
      "name": "PropGovRules",
      "outputs": [
        {
          "internalType": "uint256",
          "name": "propId",
          "type": "uint256"
        }
      ],
      "stateMutability": "nonpayable",
      "type": "function"
    },
    {
      "inputs": [
        {
          "internalType": "address",
          "name": "_walletAddr",
          "type": "address"
        },
        {
          "internalType": "string",
          "name": "_name",
          "type": "string"
        },
        {
          "internalType": "string",
          "name": "_description",
          "type": "string"
        },
        {
          "internalType": "bool",
          "name": "_isManager",
          "type": "bool"
        },
        {
          "internalType": "uint256",
          "name": "_delayTime",
          "type": "uint256"
        },
        {
          "internalType": "bytes",
          "name": "_signature",
          "type": "bytes"
        }
      ],
      "name": "PropInviteUser",
      "outputs": [
        {
          "internalType": "uint256",
          "name": "propId",
          "type": "uint256"
        }
      ],
      "stateMutability": "nonpayable",
      "type": "function"
    },
    {
      "inputs": [
        {
          "internalType": "address",
          "name": "_walletAddr",
          "type": "address"
        },
        {
          "internalType": "string",
          "name": "_description",
          "type": "string"
        },
        {
          "internalType": "uint256",
          "name": "_delayTime",
          "type": "uint256"
        },
        {
          "internalType": "bytes",
          "name": "_signature",
          "type": "bytes"
        }
      ],
      "name": "PropRemoveUser",
      "outputs": [
        {
          "internalType": "uint256",
          "name": "propId",
          "type": "uint256"
        }
      ],
      "stateMutability": "nonpayable",
      "type": "function"
    },
    {
      "inputs": [
        {
          "internalType": "string",
          "name": "_name",
          "type": "string"
        },
        {
          "internalType": "string",
          "name": "_description",
          "type": "string"
        },
        {
          "internalType": "address",
          "name": "_signerWallet",
          "type": "address"
        },
        {
          "internalType": "bytes",
          "name": "_signature",
          "type": "bytes"
        }
      ],
      "name": "PropRequestToJoin",
      "outputs": [
        {
          "internalType": "uint256",
          "name": "",
          "type": "uint256"
        }
      ],
      "stateMutability": "nonpayable",
      "type": "function"
    },
    {
      "inputs": [
        {
          "internalType": "address",
          "name": "_tokenOutCLV",
          "type": "address"
        },
        {
          "internalType": "uint256",
          "name": "_amountOutCLV",
          "type": "uint256"
        },
        {
          "internalType": "string",
          "name": "_description",
          "type": "string"
        },
        {
          "internalType": "uint256",
          "name": "_delayTime",
          "type": "uint256"
        }
      ],
      "name": "PropSellERC20",
      "outputs": [
        {
          "internalType": "uint256",
          "name": "",
          "type": "uint256"
        }
      ],
      "stateMutability": "nonpayable",
      "type": "function"
    },
    {
      "inputs": [
        {
          "internalType": "address",
          "name": "_tokenOutCLV",
          "type": "address"
        },
        {
          "internalType": "address",
          "name": "_tokenInCLV",
          "type": "address"
        },
        {
          "internalType": "uint256",
          "name": "_amountOutCLV",
          "type": "uint256"
        },
        {
          "internalType": "string",
          "name": "_description",
          "type": "string"
        },
        {
          "internalType": "uint256",
          "name": "_delayTime",
          "type": "uint256"
        }
      ],
      "name": "PropSwapERC20",
      "outputs": [
        {
          "internalType": "uint256",
          "name": "",
          "type": "uint256"
        }
      ],
      "stateMutability": "nonpayable",
      "type": "function"
    },
    {
      "inputs": [
        {
          "internalType": "address",
          "name": "_to",
          "type": "address"
        },
        {
          "internalType": "uint256",
          "name": "_amountOutCLV",
          "type": "uint256"
        },
        {
          "internalType": "address",
          "name": "_tokenOutCLV",
          "type": "address"
        },
        {
          "internalType": "string",
          "name": "_description",
          "type": "string"
        },
        {
          "internalType": "uint256",
          "name": "_delayTime",
          "type": "uint256"
        }
      ],
      "name": "PropTxERC20",
      "outputs": [
        {
          "internalType": "uint256",
          "name": "propId",
          "type": "uint256"
        }
      ],
      "stateMutability": "nonpayable",
      "type": "function"
    },
    {
      "inputs": [
        {
          "internalType": "address",
          "name": "_to",
          "type": "address"
        },
        {
          "internalType": "uint256",
          "name": "_amountOutCLV",
          "type": "uint256"
        },
        {
          "internalType": "string",
          "name": "_description",
          "type": "string"
        },
        {
          "internalType": "uint256",
          "name": "_delayTime",
          "type": "uint256"
        }
      ],
      "name": "PropTxWei",
      "outputs": [
        {
          "internalType": "uint256",
          "name": "propId",
          "type": "uint256"
        }
      ],
      "stateMutability": "nonpayable",
      "type": "function"
    },
    {
      "inputs": [
        {
          "internalType": "uint256",
          "name": "_propId",
          "type": "uint256"
        },
        {
          "internalType": "bool",
          "name": "_support",
          "type": "bool"
        },
        {
          "internalType": "string",
          "name": "_justification",
          "type": "string"
        },
        {
          "internalType": "bytes",
          "name": "_signature",
          "type": "bytes"
        }
      ],
      "name": "VoteProposal",
      "outputs": [],
      "stateMutability": "nonpayable",
      "type": "function"
    },
    {
      "inputs": [
        {
          "internalType": "uint256",
          "name": "",
          "type": "uint256"
        }
      ],
      "name": "arrDataPropGovRules",
      "outputs": [
        {
          "internalType": "uint256",
          "name": "newApprovPercentage",
          "type": "uint256"
        }
      ],
      "stateMutability": "view",
      "type": "function"
    },
    {
      "inputs": [
        {
          "internalType": "uint256",
          "name": "",
          "type": "uint256"
        }
      ],
      "name": "arrDataPropTxAssets",
      "outputs": [
        {
          "internalType": "address",
          "name": "to",
          "type": "address"
        },
        {
          "internalType": "uint256",
          "name": "amountOutCLV",
          "type": "uint256"
        },
        {
          "internalType": "address",
          "name": "tokenOutCLV",
          "type": "address"
        },
        {
          "internalType": "address",
          "name": "tokenInCLV",
          "type": "address"
        }
      ],
      "stateMutability": "view",
      "type": "function"
    },
    {
      "inputs": [
        {
          "internalType": "uint256",
          "name": "",
          "type": "uint256"
        }
      ],
      "name": "arrDataPropUser",
      "outputs": [
        {
          "internalType": "address",
          "name": "walletAddr",
          "type": "address"
        },
        {
          "internalType": "string",
          "name": "name",
          "type": "string"
        },
        {
          "internalType": "bool",
          "name": "isManager",
          "type": "bool"
        }
      ],
      "stateMutability": "view",
      "type": "function"
    },
    {
      "inputs": [
        {
          "internalType": "uint256",
          "name": "",
          "type": "uint256"
        }
      ],
      "name": "arrProposals",
      "outputs": [
        {
          "internalType": "address",
          "name": "proponent",
          "type": "address"
        },
        {
          "internalType": "enum proposalType",
          "name": "typeProposal",
          "type": "uint8"
        },
        {
          "internalType": "string",
          "name": "description",
          "type": "string"
        },
        {
          "internalType": "uint256",
          "name": "propDataId",
          "type": "uint256"
        },
        {
          "internalType": "uint256",
          "name": "numVotes",
          "type": "uint256"
        },
        {
          "internalType": "uint256",
          "name": "againstVotes",
          "type": "uint256"
        },
        {
          "internalType": "bool",
          "name": "executed",
          "type": "bool"
        },
        {
          "internalType": "bool",
          "name": "rejected",
          "type": "bool"
        },
        {
          "internalType": "uint256",
          "name": "deadline",
          "type": "uint256"
        }
      ],
      "stateMutability": "view",
      "type": "function"
    },
    {
      "inputs": [
        {
          "internalType": "uint256",
          "name": "",
          "type": "uint256"
        }
      ],
      "name": "arrUsers",
      "outputs": [
        {
          "internalType": "address",
          "name": "walletAddr",
          "type": "address"
        },
        {
          "internalType": "string",
          "name": "name",
          "type": "string"
        },
        {
          "internalType": "uint256",
          "name": "balance",
          "type": "uint256"
        },
        {
          "internalType": "bool",
          "name": "isUser",
          "type": "bool"
        },
        {
          "internalType": "bool",
          "name": "isManager",
          "type": "bool"
        }
      ],
      "stateMutability": "view",
      "type": "function"
    },
    {
      "inputs": [
        {
          "internalType": "uint256[]",
          "name": "_propId",
          "type": "uint256[]"
        },
        {
          "internalType": "bool",
          "name": "_support",
          "type": "bool"
        },
        {
          "internalType": "string",
          "name": "_justification",
          "type": "string"
        },
        {
          "internalType": "bytes",
          "name": "_signature",
          "type": "bytes"
        }
      ],
      "name": "bulkVote",
      "outputs": [],
      "stateMutability": "nonpayable",
      "type": "function"
    },
    {
      "inputs": [],
      "name": "govRuleApprovPercentage",
      "outputs": [
        {
          "internalType": "uint256",
          "name": "",
          "type": "uint256"
        }
      ],
      "stateMutability": "view",
      "type": "function"
    },
    {
      "inputs": [],
      "name": "govRuleMaxManagers",
      "outputs": [
        {
          "internalType": "uint256",
          "name": "",
          "type": "uint256"
        }
      ],
      "stateMutability": "view",
      "type": "function"
    },
    {
      "inputs": [],
      "name": "govRuleMaxUsers",
      "outputs": [
        {
          "internalType": "uint256",
          "name": "",
          "type": "uint256"
        }
      ],
      "stateMutability": "view",
      "type": "function"
    },
    {
      "inputs": [],
      "name": "houseOpen",
      "outputs": [
        {
          "internalType": "bool",
          "name": "",
          "type": "bool"
        }
      ],
      "stateMutability": "view",
      "type": "function"
    },
    {
      "inputs": [],
      "name": "housePrivate",
      "outputs": [
        {
          "internalType": "bool",
          "name": "",
          "type": "bool"
        }
      ],
      "stateMutability": "view",
      "type": "function"
    },
    {
      "inputs": [
        {
          "internalType": "address",
          "name": "",
          "type": "address"
        }
      ],
      "name": "mapIdUser",
      "outputs": [
        {
          "internalType": "uint256",
          "name": "",
          "type": "uint256"
        }
      ],
      "stateMutability": "view",
      "type": "function"
    },
    {
      "inputs": [
        {
          "internalType": "address",
          "name": "",
          "type": "address"
        }
      ],
      "name": "mapInvitationUser",
      "outputs": [
        {
          "internalType": "uint256",
          "name": "",
          "type": "uint256"
        }
      ],
      "stateMutability": "view",
      "type": "function"
    },
    {
      "inputs": [
        {
          "internalType": "address",
          "name": "",
          "type": "address"
        }
      ],
      "name": "mapReq2Join",
      "outputs": [
        {
          "internalType": "uint256",
          "name": "",
          "type": "uint256"
        }
      ],
      "stateMutability": "view",
      "type": "function"
    },
    {
      "inputs": [
        {
          "internalType": "uint256",
          "name": "",
          "type": "uint256"
        },
        {
          "internalType": "address",
          "name": "",
          "type": "address"
        }
      ],
      "name": "mapVotes",
      "outputs": [
        {
          "internalType": "bool",
          "name": "voted",
          "type": "bool"
        },
        {
          "internalType": "bool",
          "name": "inSupport",
          "type": "bool"
        },
        {
          "internalType": "string",
          "name": "justification",
          "type": "string"
        }
      ],
      "stateMutability": "view",
      "type": "function"
    },
    {
      "inputs": [],
      "name": "nftAdmin",
      "outputs": [
        {
          "internalType": "contract CLHNFT",
          "name": "",
          "type": "address"
        }
      ],
      "stateMutability": "view",
      "type": "function"
    },
    {
      "inputs": [],
      "name": "nftInvitation",
      "outputs": [
        {
          "internalType": "contract CLHNFT",
          "name": "",
          "type": "address"
        }
      ],
      "stateMutability": "view",
      "type": "function"
    },
    {
      "inputs": [],
      "name": "nftMember",
      "outputs": [
        {
          "internalType": "contract CLHNFT",
          "name": "",
          "type": "address"
        }
      ],
      "stateMutability": "view",
      "type": "function"
    },
    {
      "inputs": [],
      "name": "numManagers",
      "outputs": [
        {
          "internalType": "uint256",
          "name": "",
          "type": "uint256"
        }
      ],
      "stateMutability": "view",
      "type": "function"
    },
    {
      "inputs": [],
      "name": "numUsers",
      "outputs": [
        {
          "internalType": "uint256",
          "name": "",
          "type": "uint256"
        }
      ],
      "stateMutability": "view",
      "type": "function"
    },
    {
      "inputs": [],
      "name": "vaultCLH",
      "outputs": [
        {
          "internalType": "contract CLVault",
          "name": "",
          "type": "address"
        }
      ],
      "stateMutability": "view",
      "type": "function"
    },
    {
      "inputs": [],
      "name": "whiteListNFT",
      "outputs": [
        {
          "internalType": "address",
          "name": "",
          "type": "address"
        }
      ],
      "stateMutability": "view",
      "type": "function"
    }
  ],
  "bytecode": "60806040523480156200001157600080fd5b506200001c62000022565b620000f1565b60c554600160a81b900460ff1615620000915760405162461bcd60e51b815260206004820152602760248201527f496e697469616c697a61626c653a20636f6e747261637420697320696e697469604482015266616c697a696e6760c81b606482015260840160405180910390fd5b60c55460ff600160a01b90910481161015620000ef5760c5805460ff60a01b191660ff60a01b17905560405160ff81527f7f26b83ff96e1f2b6a682f133852f6798a09c465da95921460cefb38474024989060200160405180910390a15b565b612c3780620001016000396000f3fe608060405234801561001057600080fd5b50600436106102745760003560e01c80635f3d99b311610151578063a693649a116100c3578063cada7f1911610087578063cada7f19146105e6578063cb85669c146105f9578063de5ab14e14610621578063e68777d714610634578063e810a58e1461063d578063f00d62741461064657600080fd5b8063a693649a1461054e578063b4c6219214610556578063baa4d5e91461056b578063c2b3aa08146105b1578063c347d2fd146105c457600080fd5b806381cf22d81161011557806381cf22d8146104d9578063860228fd146104ec5780639360bfad1461050c5780639c630a881461051f578063a0a625f914610528578063a1c89c9d1461053b57600080fd5b80635f3d99b31461045f5780636285e98c146104805780636c2f34e71461049357806370ff918c146104a65780637c638548146104c657600080fd5b80632266e1bc116101ea5780633a70693d116101ae5780633a70693d146103e75780634e9d5472146103fa57806350f7308a1461040257806353d1ee2d1461042257806359ca2d03146104375780635de58f601461044c57600080fd5b80632266e1bc1461037557806322b4081c1461038857806329647ee5146103ac5780632a57ef84146103c157806331a0afa7146103d457600080fd5b8063152de3b91161023c578063152de3b9146102f95780631707ace81461030c57806319a50f491461032e5780631d5fd3ca146103375780631f2e1339146103405780631f50dd271461036257600080fd5b806304f17a9b14610279578063052f9b0a1461029f57806310790717146102ca57806312eab7ff146102dd5780631343e9a5146102f0575b600080fd5b61028c610287366004611dd0565b610653565b6040519081526020015b60405180910390f35b60c4546102b2906001600160a01b031681565b6040516001600160a01b039091168152602001610296565b6022546102b2906001600160a01b031681565b61028c6102eb366004611e30565b610781565b61028c60055481565b61028c610307366004611ecc565b610855565b61031f61031a366004611f3f565b61092b565b60405161029693929190611fb0565b61028c60025481565b61028c60625481565b60005461035290610100900460ff1681565b6040519015158152602001610296565b60c5546102b2906001600160a01b031681565b61028c610383366004611dd0565b6109f6565b61039b610396366004611f3f565b610aca565b604051610296959493929190611fe6565b6103b4610ba5565b6040516102969190612029565b61028c6103cf3660046120b7565b610cbe565b61028c6103e2366004612132565b610df5565b61028c6103f5366004611f3f565b610f32565b60835461028c565b61028c6104103660046121e5565b60a36020526000908152604090205481565b610435610430366004612316565b610f53565b005b61043f611115565b6040516102969190612419565b61028c61045a36600461242c565b6111a3565b61047261046d366004611f3f565b6112d7565b60405161029692919061247b565b6024546102b2906001600160a01b031681565b60c2546102b2906001600160a01b031681565b61028c6104b43660046121e5565b60a26020526000908152604090205481565b61028c6104d4366004611dd0565b611443565b6104356104e736600461249e565b611517565b61028c6104fa3660046121e5565b60a46020526000908152604090205481565b60c3546102b2906001600160a01b031681565b61028c60045481565b60c1546102b2906001600160a01b031681565b6104356105493660046124eb565b611637565b60825461028c565b61055e6116ff565b60405161029691906125fa565b61057e610579366004611f3f565b61187d565b604080516001600160a01b0395861681526020810194909452918416918301919091529091166060820152608001610296565b6104356105bf3660046126c1565b6118c5565b6105d76105d2366004612703565b6119eb565b60405161029693929190612733565b6023546102b2906001600160a01b031681565b61060c610607366004611f3f565b611aa8565b6040516102969998979695949392919061275f565b61028c61062f3660046127c6565b611ba1565b61028c60035481565b61028c60065481565b6000546103529060ff1681565b60008060c160009054906101000a90046001600160a01b03166001600160a01b031663a327ab696040518163ffffffff1660e01b8152600401602060405180830381865afa1580156106a9573d6000803e3d6000fd5b505050506040513d601f19601f820116820180604052508101906106cd919061281b565b90506000816001600160a01b0316878787876040516024016106f29493929190612838565b60408051601f198184030181529181526020820180516001600160e01b03166304f17a9b60e01b179052516107279190612870565b600060405180830381855af49150503d8060008114610762576040519150601f19603f3d011682016040523d82523d6000602084013e610767565b606091505b505090506040513d806000833e8261077d578082fd5b8082f35b60008060c160009054906101000a90046001600160a01b03166001600160a01b031663a327ab696040518163ffffffff1660e01b8152600401602060405180830381865afa1580156107d7573d6000803e3d6000fd5b505050506040513d601f19601f820116820180604052508101906107fb919061281b565b90506000816001600160a01b031687878787604051602401610820949392919061288c565b60408051601f198184030181529181526020820180516001600160e01b03166312eab7ff60e01b179052516107279190612870565b60008060c160009054906101000a90046001600160a01b03166001600160a01b031663a327ab696040518163ffffffff1660e01b8152600401602060405180830381865afa1580156108ab573d6000803e3d6000fd5b505050506040513d601f19601f820116820180604052508101906108cf919061281b565b90506000816001600160a01b031688888888886040516024016108f69594939291906128df565b60408051601f198184030181529181526020820180516001600160e01b031663152de3b960e01b179052516107279190612870565b6084818154811061093b57600080fd5b6000918252602090912060039091020180546001820180546001600160a01b0390921693509061096a90612924565b80601f016020809104026020016040519081016040528092919081815260200182805461099690612924565b80156109e35780601f106109b8576101008083540402835291602001916109e3565b820191906000526020600020905b8154815290600101906020018083116109c657829003601f168201915b5050506002909301549192505060ff1683565b60008060c160009054906101000a90046001600160a01b03166001600160a01b031663a327ab696040518163ffffffff1660e01b8152600401602060405180830381865afa158015610a4c573d6000803e3d6000fd5b505050506040513d601f19601f82011682018060405250810190610a70919061281b565b90506000816001600160a01b031687878787604051602401610a959493929190612838565b60408051601f198184030181529181526020820180516001600160e01b0316630899b86f60e21b179052516107279190612870565b60828181548110610ada57600080fd5b6000918252602090912060049091020180546001820180546001600160a01b03909216935090610b0990612924565b80601f0160208091040260200160405190810160405280929190818152602001828054610b3590612924565b8015610b825780601f10610b5757610100808354040283529160200191610b82565b820191906000526020600020905b815481529060010190602001808311610b6557829003601f168201915b50505050600283015460039093015491929160ff80821692506101009091041685565b60606084805480602002602001604051908101604052809291908181526020016000905b82821015610cb557600084815260209081902060408051606081019091526003850290910180546001600160a01b031682526001810180549293919291840191610c1290612924565b80601f0160208091040260200160405190810160405280929190818152602001828054610c3e90612924565b8015610c8b5780601f10610c6057610100808354040283529160200191610c8b565b820191906000526020600020905b815481529060010190602001808311610c6e57829003601f168201915b50505091835250506002919091015460ff1615156020918201529082526001929092019101610bc9565b50505050905090565b60008060c160009054906101000a90046001600160a01b03166001600160a01b031663a327ab696040518163ffffffff1660e01b8152600401602060405180830381865afa158015610d14573d6000803e3d6000fd5b505050506040513d601f19601f82011682018060405250810190610d38919061281b565b90506000816001600160a01b031687878787604051602401610d5d949392919061295f565b60408051601f198184030181529181526020820180516001600160e01b0316630a95fbe160e21b17905251610d929190612870565b600060405180830381855af49150503d8060008114610dcd576040519150601f19603f3d011682016040523d82523d6000602084013e610dd2565b606091505b505090506040513d806000833e82610de8578082fd5b5051979650505050505050565b60008060c160009054906101000a90046001600160a01b03166001600160a01b031663a327ab696040518163ffffffff1660e01b8152600401602060405180830381865afa158015610e4b573d6000803e3d6000fd5b505050506040513d601f19601f82011682018060405250810190610e6f919061281b565b90506000816001600160a01b0316898989898989604051602401610e989695949392919061299b565b60408051601f198184030181529181526020820180516001600160e01b03166331a0afa760e01b17905251610ecd9190612870565b600060405180830381855af49150503d8060008114610f08576040519150601f19603f3d011682016040523d82523d6000602084013e610f0d565b606091505b505090506040513d806000833e82610f23578082fd5b50519998505050505050505050565b60868181548110610f4257600080fd5b600091825260209091200154905081565b60c554600190600160a81b900460ff16158015610f7e575060c55460ff808316600160a01b90920416105b610fe55760405162461bcd60e51b815260206004820152602e60248201527f496e697469616c697a61626c653a20636f6e747261637420697320616c72656160448201526d191e481a5b9a5d1a585b1a5e995960921b606482015260840160405180910390fd5b60c5805460ff60a81b1960ff8416600160a01b021661ffff60a01b1990911617600160a81b17905582516040516000916001600160a01b03169061103b908c908c908c908c908c908c908c908c90602401612a70565b60408051601f198184030181529181526020820180516001600160e01b031663864cf15560e01b179052516110709190612870565b600060405180830381855af49150503d80600081146110ab576040519150601f19603f3d011682016040523d82523d6000602084013e6110b0565b606091505b50509050806110c6576040513d806000833e8082fd5b5060c5805460ff60a81b1916905560405160ff821681527f7f26b83ff96e1f2b6a682f133852f6798a09c465da95921460cefb38474024989060200160405180910390a1505050505050505050565b6042805461112290612924565b80601f016020809104026020016040519081016040528092919081815260200182805461114e90612924565b801561119b5780601f106111705761010080835404028352916020019161119b565b820191906000526020600020905b81548152906001019060200180831161117e57829003601f168201915b505050505081565b60008060c160009054906101000a90046001600160a01b03166001600160a01b031663a327ab696040518163ffffffff1660e01b8152600401602060405180830381865afa1580156111f9573d6000803e3d6000fd5b505050506040513d601f19601f8201168201806040525081019061121d919061281b565b90506000816001600160a01b031686868660405160240161124093929190612b08565b60408051601f198184030181529181526020820180516001600160e01b03166302ef2c7b60e51b179052516112759190612870565b600060405180830381855af49150503d80600081146112b0576040519150601f19603f3d011682016040523d82523d6000602084013e6112b5565b606091505b505090506040513d806000833e826112cb578082fd5b50519695505050505050565b60006060600060c160009054906101000a90046001600160a01b03166001600160a01b031663a327ab696040518163ffffffff1660e01b8152600401602060405180830381865afa158015611330573d6000803e3d6000fd5b505050506040513d601f19601f82011682018060405250810190611354919061281b565b90506000816001600160a01b03168560405160240161137591815260200190565b60408051601f198184030181529181526020820180516001600160e01b0316635f3d99b360e01b179052516113aa9190612870565b600060405180830381855af49150503d80600081146113e5576040519150601f19603f3d011682016040523d82523d6000602084013e6113ea565b606091505b5050905080611400576040513d806000833e8082fd5b60016040518060400160405280601981526020017f537563636573732065786563757465642070726f706f73616c00000000000000815250935093505050915091565b60008060c160009054906101000a90046001600160a01b03166001600160a01b031663a327ab696040518163ffffffff1660e01b8152600401602060405180830381865afa158015611499573d6000803e3d6000fd5b505050506040513d601f19601f820116820180604052508101906114bd919061281b565b90506000816001600160a01b0316878787876040516024016114e29493929190612838565b60408051601f198184030181529181526020820180516001600160e01b0316630f8c70a960e31b17905251610d929190612870565b60c1546040805163529382d560e01b815290516000926001600160a01b03169163529382d59160048083019260209291908290030181865afa158015611561573d6000803e3d6000fd5b505050506040513d601f19601f82011682018060405250810190611585919061281b565b90506000816001600160a01b031684846040516024016115a692919061247b565b60408051601f198184030181529181526020820180516001600160e01b0316631039e45b60e31b179052516115db9190612870565b600060405180830381855af49150503d8060008114611616576040519150601f19603f3d011682016040523d82523d6000602084013e61161b565b606091505b5050905080611631576040513d806000833e8082fd5b50505050565b60c1546040805163a327ab6960e01b815290516000926001600160a01b03169163a327ab699160048083019260209291908290030181865afa158015611681573d6000803e3d6000fd5b505050506040513d601f19601f820116820180604052508101906116a5919061281b565b90506000816001600160a01b0316868686866040516024016116ca9493929190612b31565b60408051601f198184030181529181526020820180516001600160e01b031663a1c89c9d60e01b179052516107279190612870565b60606083805480602002602001604051908101604052809291908181526020016000905b82821015610cb55760008481526020908190206040805161012081019091526007850290910180546001600160a01b03811683529192909190830190600160a01b900460ff16600881111561177a5761177a6125c2565b600881111561178b5761178b6125c2565b815260200160018201805461179f90612924565b80601f01602080910402602001604051908101604052809291908181526020018280546117cb90612924565b80156118185780601f106117ed57610100808354040283529160200191611818565b820191906000526020600020905b8154815290600101906020018083116117fb57829003601f168201915b505050918352505060028201546020808301919091526003830154604083015260048301546060830152600583015460ff8082161515608085015261010090910416151560a083015260069092015460c0909101529082526001929092019101611723565b6085818154811061188d57600080fd5b600091825260209091206004909102018054600182015460028301546003909301546001600160a01b03928316945090928216911684565b60c1546040805163a327ab6960e01b815290516000926001600160a01b03169163a327ab699160048083019260209291908290030181865afa15801561190f573d6000803e3d6000fd5b505050506040513d601f19601f82011682018060405250810190611933919061281b565b90506000816001600160a01b0316868686866040516024016119589493929190612b9b565b60408051601f198184030181529181526020820180516001600160e01b0316631856754160e31b1790525161198d9190612870565b600060405180830381855af49150503d80600081146119c8576040519150601f19603f3d011682016040523d82523d6000602084013e6119cd565b606091505b50509050806119e3576040513d806000833e8082fd5b505050505050565b60a56020908152600092835260408084209091529082529020805460018201805460ff8084169461010090940416929190611a2590612924565b80601f0160208091040260200160405190810160405280929190818152602001828054611a5190612924565b8015611a9e5780601f10611a7357610100808354040283529160200191611a9e565b820191906000526020600020905b815481529060010190602001808311611a8157829003601f168201915b5050505050905083565b60838181548110611ab857600080fd5b6000918252602090912060079091020180546001820180546001600160a01b0383169450600160a01b90920460ff169291611af290612924565b80601f0160208091040260200160405190810160405280929190818152602001828054611b1e90612924565b8015611b6b5780601f10611b4057610100808354040283529160200191611b6b565b820191906000526020600020905b815481529060010190602001808311611b4e57829003601f168201915b505050600284015460038501546004860154600587015460069097015495969295919450925060ff808316926101009004169089565b60008060c160009054906101000a90046001600160a01b03166001600160a01b031663a327ab696040518163ffffffff1660e01b8152600401602060405180830381865afa158015611bf7573d6000803e3d6000fd5b505050506040513d601f19601f82011682018060405250810190611c1b919061281b565b90506000816001600160a01b03168888888888604051602401611c42959493929190612bce565b60408051601f198184030181529181526020820180516001600160e01b0316636f2d58a760e11b17905251611c779190612870565b600060405180830381855af49150503d8060008114611cb2576040519150601f19603f3d011682016040523d82523d6000602084013e611cb7565b606091505b505090506040513d806000833e82611ccd578082fd5b505198975050505050505050565b6001600160a01b0381168114611cf057600080fd5b50565b634e487b7160e01b600052604160045260246000fd5b604051606081016001600160401b0381118282101715611d2b57611d2b611cf3565b60405290565b604051601f8201601f191681016001600160401b0381118282101715611d5957611d59611cf3565b604052919050565b600082601f830112611d7257600080fd5b81356001600160401b03811115611d8b57611d8b611cf3565b611d9e601f8201601f1916602001611d31565b818152846020838601011115611db357600080fd5b816020850160208301376000918101602001919091529392505050565b60008060008060808587031215611de657600080fd5b8435611df181611cdb565b93506020850135925060408501356001600160401b03811115611e1357600080fd5b611e1f87828801611d61565b949793965093946060013593505050565b60008060008060808587031215611e4657600080fd5b84356001600160401b0380821115611e5d57600080fd5b611e6988838901611d61565b95506020870135915080821115611e7f57600080fd5b611e8b88838901611d61565b945060408701359150611e9d82611cdb565b90925060608601359080821115611eb357600080fd5b50611ec087828801611d61565b91505092959194509250565b600080600080600060a08688031215611ee457600080fd5b8535611eef81611cdb565b94506020860135611eff81611cdb565b93506040860135925060608601356001600160401b03811115611f2157600080fd5b611f2d88828901611d61565b95989497509295608001359392505050565b600060208284031215611f5157600080fd5b5035919050565b60005b83811015611f73578181015183820152602001611f5b565b838111156116315750506000910152565b60008151808452611f9c816020860160208601611f58565b601f01601f19169290920160200192915050565b6001600160a01b0384168152606060208201819052600090611fd490830185611f84565b90508215156040830152949350505050565b6001600160a01b038616815260a06020820181905260009061200a90830187611f84565b6040830195909552509115156060830152151560809091015292915050565b60006020808301818452808551808352604092508286019150828160051b87010184880160005b838110156120a957888303603f19018552815180516001600160a01b031684528781015160608986018190529061208982870182611f84565b928901511515958901959095525094870194925090860190600101612050565b509098975050505050505050565b600080600080608085870312156120cd57600080fd5b84356120d881611cdb565b935060208501356001600160401b03808211156120f457600080fd5b61210088838901611d61565b9450604087013593506060870135915080821115611eb357600080fd5b8035801515811461212d57600080fd5b919050565b60008060008060008060c0878903121561214b57600080fd5b863561215681611cdb565b955060208701356001600160401b038082111561217257600080fd5b61217e8a838b01611d61565b9650604089013591508082111561219457600080fd5b6121a08a838b01611d61565b95506121ae60608a0161211d565b94506080890135935060a08901359150808211156121cb57600080fd5b506121d889828a01611d61565b9150509295509295509295565b6000602082840312156121f757600080fd5b813561220281611cdb565b9392505050565b600082601f83011261221a57600080fd5b60405160a081018181106001600160401b038211171561223c5761223c611cf3565b6040528060a084018581111561225157600080fd5b845b8181101561227457803561226681611cdb565b835260209283019201612253565b509195945050505050565b60006001600160401b0382111561229857612298611cf3565b5060051b60200190565b600082601f8301126122b357600080fd5b813560206122c86122c38361227f565b611d31565b82815260059290921b840181019181810190868411156122e757600080fd5b8286015b8481101561230b5780356122fe81611cdb565b83529183019183016122eb565b509695505050505050565b6000806000806000806000806101c0898b03121561233357600080fd5b883561233e81611cdb565b97506020898101356001600160401b038082111561235b57600080fd5b6123678d838e01611d61565b995061237560408d0161211d565b985061238360608d0161211d565b975060808c013596508c60bf8d011261239b57600080fd5b6123a3611d09565b9150816101008d018e8111156123b857600080fd5b60a08e015b818110156123d457803585529385019385016123bd565b508197506123e28f82612209565b965050506101a08c01359250808311156123fb57600080fd5b50506124098b828c016122a2565b9150509295985092959890939650565b6020815260006122026020830184611f84565b60008060006060848603121561244157600080fd5b8335925060208401356001600160401b0381111561245e57600080fd5b61246a86828701611d61565b925050604084013590509250925092565b82151581526040602082015260006124966040830184611f84565b949350505050565b600080604083850312156124b157600080fd5b6124ba8361211d565b915060208301356001600160401b038111156124d557600080fd5b6124e185828601611d61565b9150509250929050565b6000806000806080858703121561250157600080fd5b84356001600160401b038082111561251857600080fd5b818701915087601f83011261252c57600080fd5b8135602061253c6122c38361227f565b82815260059290921b8401810191818101908b84111561255b57600080fd5b948201945b8386101561257957853582529482019490820190612560565b9850612588905089820161211d565b9650505060408701359150808211156125a057600080fd5b6125ac88838901611d61565b93506060870135915080821115611eb357600080fd5b634e487b7160e01b600052602160045260246000fd5b600981106125f657634e487b7160e01b600052602160045260246000fd5b9052565b60006020808301818452808551808352604092508286019150828160051b87010184880160005b838110156120a957888303603f19018552815180516001600160a01b03168452610120888201516126548a8701826125d8565b5087820151818987015261266a82870182611f84565b606084810151908801526080808501519088015260a0808501519088015260c08085015115159088015260e08085015115159088015261010093840151939096019290925250509386019390860190600101612621565b600080600080608085870312156126d757600080fd5b843593506126e76020860161211d565b925060408501356001600160401b03808211156125a057600080fd5b6000806040838503121561271657600080fd5b82359150602083013561272881611cdb565b809150509250929050565b831515815282151560208201526060604082015260006127566060830184611f84565b95945050505050565b6001600160a01b038a168152600061012061277d602084018c6125d8565b80604084015261278f8184018b611f84565b60608401999099525050608081019590955260a085019390935290151560c0840152151560e0830152610100909101529392505050565b600080600080600060a086880312156127de57600080fd5b85356127e981611cdb565b945060208601359350604086013561280081611cdb565b925060608601356001600160401b03811115611f2157600080fd5b60006020828403121561282d57600080fd5b815161220281611cdb565b60018060a01b038516815283602082015260806040820152600061285f6080830185611f84565b905082606083015295945050505050565b60008251612882818460208701611f58565b9190910192915050565b60808152600061289f6080830187611f84565b82810360208401526128b18187611f84565b6001600160a01b0386166040850152838103606085015290506128d48185611f84565b979650505050505050565b6001600160a01b038681168252851660208201526040810184905260a06060820181905260009061291290830185611f84565b90508260808301529695505050505050565b600181811c9082168061293857607f821691505b6020821081141561295957634e487b7160e01b600052602260045260246000fd5b50919050565b6001600160a01b038516815260806020820181905260009061298390830186611f84565b84604084015282810360608401526128d48185611f84565b6001600160a01b038716815260c0602082018190526000906129bf90830188611f84565b82810360408401526129d18188611f84565b9050851515606084015284608084015282810360a08401526129f38185611f84565b9998505050505050505050565b8060005b60058110156116315781516001600160a01b0316845260209384019390910190600101612a04565b600081518084526020808501945080840160005b83811015612a655781516001600160a01b031687529582019590820190600101612a40565b509495945050505050565b6001600160a01b03891681526101c0602080830182905260009190612a978483018c611f84565b91508915156040850152881515606085015287608085015260a084018760005b6003811015612ad457815183529183019190830190600101612ab7565b50505050612ae6610100840186612a00565b8281036101a0840152612af98185612a2c565b9b9a5050505050505050505050565b838152606060208201526000612b216060830185611f84565b9050826040830152949350505050565b6080808252855190820181905260009060209060a0840190828901845b82811015612b6a57815184529284019290840190600101612b4e565b505050861515828501528381036040850152612b868187611f84565b91505082810360608401526128d48185611f84565b8481528315156020820152608060408201526000612bbc6080830185611f84565b82810360608401526128d48185611f84565b6001600160a01b038681168252602082018690528416604082015260a06060820181905260009061291290830185611f8456fea2646970667358221220f2b6d9a0bbb4c99016e7fa92f3ee9c5633d09499a3dd29b484b5d8d676f4ffb464736f6c634300080c0033",
  "bytecodeSha1": "0dd782d998c5da43cc69e255a4ca2bdcd63384e9",
  "compiler": {
    "evm_version": "istanbul",
    "optimizer": {
      "enabled": true,
      "runs": 200
    },
    "version": "0.8.12+commit.f00d7308"
  },
  "contractName": "CLHouse",
  "language": "Solidity",
  "natspec": {
    "author": "Leonardo Urrego",
    "kind": "dev",
    "methods": {
      "AcceptRejectInvitation(bool,bytes)": {
        "notice": "For an user that have an invitation pending",
        "params": {
          "_acceptance": "True for accept the invitation"
        }
      },
      "ExecProp(uint256)": {
        "details": "Normally is called internally after each vote",
        "notice": "Execute (or reject) a proposal computing the votes and the governance model",
        "params": {
          "_propId": "ID of the proposal, based on `arrProposals`"
        },
        "returns": {
          "message": "result of the transaction",
          "status": "True if the proposal can be execute, false in other cases"
        }
      },
      "GetArrDataPropUser()": {
        "notice": "Get complete array of arrDataPropUser",
        "returns": {
          "_0": "arrDataPropUser the array with all data"
        }
      },
      "GetArrProposalsLength()": {
        "notice": "Length of arrProposals array"
      },
      "GetArrUsersLength()": {
        "notice": "Length of arrUsers array"
      },
      "GetProposalList()": {
        "notice": "The list of all Proposals",
        "returns": {
          "_0": "arrProposals the array with all proposals"
        }
      },
      "Init(address,string,bool,bool,bytes32,uint256[3],address[5],address[])": {
        "details": "Some parameters can be ignored depending on the governance model",
        "notice": "Create a new CLH",
        "params": {
          "_CLC": "Array for CL Contracts and others see `enum eCLC`",
          "_ManagerWallets": "Whitelist of address for invitate as managers",
          "_govModel": "keccak256 hash of the governance model, see the __GOV_* constans",
          "_govRules": "Array for goverment rules see `enum gRule`",
          "_houseName": "Name given by the owner",
          "_houseOpen": "If is set to 1, the CLH is set to Open",
          "_housePrivate": "If is set to 1, the CLH is set to private",
          "_owner": "The address of the deployed wallet"
        }
      },
      "PropGovRules(uint256,string,uint256)": {
        "details": "When execute this proposal the new values will be set",
        "notice": "Generate a new proposal for change some governance parameters",
        "params": {
          "_description": "About the new proposal ",
          "_newApprovPercentage": "The new percentaje for accept or reject a proposal"
        },
        "returns": {
          "propId": "ID of the new proposal, based on `arrProposals`"
        }
      },
      "PropInviteUser(address,string,string,bool,uint256,bytes)": {
        "details": "the execution of this proposal only create an invitation ",
        "notice": "Generate a new proposal to invite a new user",
        "params": {
          "_description": "A text for the proposal",
          "_isManager": "True if is for a manager",
          "_name": "Can be the nickname or other reference to the User",
          "_walletAddr": "Address of the new user"
        },
        "returns": {
          "propId": "ID of the new proposal, based on `arrProposals`"
        }
      },
      "PropRemoveUser(address,string,uint256,bytes)": {
        "details": "The user can be a managaer",
        "notice": "Generate a new proposal for remove a user",
        "params": {
          "_description": "About the proposal",
          "_walletAddr": "user Address to be removed"
        },
        "returns": {
          "propId": "ID of the new proposal, based on `arrProposals`"
        }
      },
      "PropRequestToJoin(string,string,address,bytes)": {
        "details": "Only avaiable in public CLH",
        "notice": "Generate a proposal from a user that want to join to the CLH",
        "params": {
          "_description": "About the request",
          "_name": "Nickname or other user identification",
          "_signerWallet": "Address of signer to check OffChain signature"
        },
        "returns": {
          "_0": "propId ID of the new proposal, based on `arrProposals`"
        }
      },
      "PropTxERC20(address,uint256,address,string,uint256)": {
        "details": "When execute this proposal, the transfer is made",
        "notice": "generate a new proposal to transfer ETH in weis",
        "params": {
          "_amountOutCLV": "Amount to transfer (in wei)",
          "_description": "About this proposal",
          "_to": "Recipient address"
        },
        "returns": {
          "propId": "ID of the new proposal, based on `arrProposals`"
        }
      },
      "PropTxWei(address,uint256,string,uint256)": {
        "details": "When execute this proposal, the transfer is made",
        "notice": "generate a new proposal to transfer ETH in weis",
        "params": {
          "_amountOutCLV": "Amount to transfer (in wei)",
          "_description": "About this proposal",
          "_to": "Recipient address"
        },
        "returns": {
          "propId": "ID of the new proposal, based on `arrProposals`"
        }
      },
      "VoteProposal(uint256,bool,string,bytes)": {
        "details": "After vote the proposal automatically try to be executed",
        "notice": "Used to vote a proposal",
        "params": {
          "_justification": "About your vote",
          "_propId": "ID of the proposal, based on `arrProposals`",
          "_support": "True for accept, false to reject"
        }
      },
      "bulkVote(uint256[],bool,string,bytes)": {
        "notice": "Vote for multiple proposal",
        "params": {
          "_justification": "Description of the vote",
          "_propId": "Array with ID of the proposal to votes",
          "_support": "is the Vote (True or False) for all proposals"
        }
      },
      "constructor": {
        "custom:oz-upgrades-unsafe-allow": "constructor"
      },
      "housePrivate()": {
        "notice": "### CLH Public Variables ###"
      }
    },
    "notice": "This contract for test only the most basic interactions",
    "title": "Contract to implement and test the basic fuctions of CLHouses",
    "version": 1
  },
  "opcodes": "PUSH1 0x80 PUSH1 0x40 MSTORE CALLVALUE DUP1 ISZERO PUSH2 0x10 JUMPI PUSH1 0x0 DUP1 REVERT JUMPDEST POP PUSH1 0x4 CALLDATASIZE LT PUSH2 0x274 JUMPI PUSH1 0x0 CALLDATALOAD PUSH1 0xE0 SHR DUP1 PUSH4 0x5F3D99B3 GT PUSH2 0x151 JUMPI DUP1 PUSH4 0xA693649A GT PUSH2 0xC3 JUMPI DUP1 PUSH4 0xCADA7F19 GT PUSH2 0x87 JUMPI DUP1 PUSH4 0xCADA7F19 EQ PUSH2 0x5E6 JUMPI DUP1 PUSH4 0xCB85669C EQ PUSH2 0x5F9 JUMPI DUP1 PUSH4 0xDE5AB14E EQ PUSH2 0x621 JUMPI DUP1 PUSH4 0xE68777D7 EQ PUSH2 0x634 JUMPI DUP1 PUSH4 0xE810A58E EQ PUSH2 0x63D JUMPI DUP1 PUSH4 0xF00D6274 EQ PUSH2 0x646 JUMPI PUSH1 0x0 DUP1 REVERT JUMPDEST DUP1 PUSH4 0xA693649A EQ PUSH2 0x54E JUMPI DUP1 PUSH4 0xB4C62192 EQ PUSH2 0x556 JUMPI DUP1 PUSH4 0xBAA4D5E9 EQ PUSH2 0x56B JUMPI DUP1 PUSH4 0xC2B3AA08 EQ PUSH2 0x5B1 JUMPI DUP1 PUSH4 0xC347D2FD EQ PUSH2 0x5C4 JUMPI PUSH1 0x0 DUP1 REVERT JUMPDEST DUP1 PUSH4 0x81CF22D8 GT PUSH2 0x115 JUMPI DUP1 PUSH4 0x81CF22D8 EQ PUSH2 0x4D9 JUMPI DUP1 PUSH4 0x860228FD EQ PUSH2 0x4EC JUMPI DUP1 PUSH4 0x9360BFAD EQ PUSH2 0x50C JUMPI DUP1 PUSH4 0x9C630A88 EQ PUSH2 0x51F JUMPI DUP1 PUSH4 0xA0A625F9 EQ PUSH2 0x528 JUMPI DUP1 PUSH4 0xA1C89C9D EQ PUSH2 0x53B JUMPI PUSH1 0x0 DUP1 REVERT JUMPDEST DUP1 PUSH4 0x5F3D99B3 EQ PUSH2 0x45F JUMPI DUP1 PUSH4 0x6285E98C EQ PUSH2 0x480 JUMPI DUP1 PUSH4 0x6C2F34E7 EQ PUSH2 0x493 JUMPI DUP1 PUSH4 0x70FF918C EQ PUSH2 0x4A6 JUMPI DUP1 PUSH4 0x7C638548 EQ PUSH2 0x4C6 JUMPI PUSH1 0x0 DUP1 REVERT JUMPDEST DUP1 PUSH4 0x2266E1BC GT PUSH2 0x1EA JUMPI DUP1 PUSH4 0x3A70693D GT PUSH2 0x1AE JUMPI DUP1 PUSH4 0x3A70693D EQ PUSH2 0x3E7 JUMPI DUP1 PUSH4 0x4E9D5472 EQ PUSH2 0x3FA JUMPI DUP1 PUSH4 0x50F7308A EQ PUSH2 0x402 JUMPI DUP1 PUSH4 0x53D1EE2D EQ PUSH2 0x422 JUMPI DUP1 PUSH4 0x59CA2D03 EQ PUSH2 0x437 JUMPI DUP1 PUSH4 0x5DE58F60 EQ PUSH2 0x44C JUMPI PUSH1 0x0 DUP1 REVERT JUMPDEST DUP1 PUSH4 0x2266E1BC EQ PUSH2 0x375 JUMPI DUP1 PUSH4 0x22B4081C EQ PUSH2 0x388 JUMPI DUP1 PUSH4 0x29647EE5 EQ PUSH2 0x3AC JUMPI DUP1 PUSH4 0x2A57EF84 EQ PUSH2 0x3C1 JUMPI DUP1 PUSH4 0x31A0AFA7 EQ PUSH2 0x3D4 JUMPI PUSH1 0x0 DUP1 REVERT JUMPDEST DUP1 PUSH4 0x152DE3B9 GT PUSH2 0x23C JUMPI DUP1 PUSH4 0x152DE3B9 EQ PUSH2 0x2F9 JUMPI DUP1 PUSH4 0x1707ACE8 EQ PUSH2 0x30C JUMPI DUP1 PUSH4 0x19A50F49 EQ PUSH2 0x32E JUMPI DUP1 PUSH4 0x1D5FD3CA EQ PUSH2 0x337 JUMPI DUP1 PUSH4 0x1F2E1339 EQ PUSH2 0x340 JUMPI DUP1 PUSH4 0x1F50DD27 EQ PUSH2 0x362 JUMPI PUSH1 0x0 DUP1 REVERT JUMPDEST DUP1 PUSH4 0x4F17A9B EQ PUSH2 0x279 JUMPI DUP1 PUSH4 0x52F9B0A EQ PUSH2 0x29F JUMPI DUP1 PUSH4 0x10790717 EQ PUSH2 0x2CA JUMPI DUP1 PUSH4 0x12EAB7FF EQ PUSH2 0x2DD JUMPI DUP1 PUSH4 0x1343E9A5 EQ PUSH2 0x2F0 JUMPI JUMPDEST PUSH1 0x0 DUP1 REVERT JUMPDEST PUSH2 0x28C PUSH2 0x287 CALLDATASIZE PUSH1 0x4 PUSH2 0x1DD0 JUMP JUMPDEST PUSH2 0x653 JUMP JUMPDEST PUSH1 0x40 MLOAD SWAP1 DUP2 MSTORE PUSH1 0x20 ADD JUMPDEST PUSH1 0x40 MLOAD DUP1 SWAP2 SUB SWAP1 RETURN JUMPDEST PUSH1 0xC4 SLOAD PUSH2 0x2B2 SWAP1 PUSH1 0x1 PUSH1 0x1 PUSH1 0xA0 SHL SUB AND DUP2 JUMP JUMPDEST PUSH1 0x40 MLOAD PUSH1 0x1 PUSH1 0x1 PUSH1 0xA0 SHL SUB SWAP1 SWAP2 AND DUP2 MSTORE PUSH1 0x20 ADD PUSH2 0x296 JUMP JUMPDEST PUSH1 0x22 SLOAD PUSH2 0x2B2 SWAP1 PUSH1 0x1 PUSH1 0x1 PUSH1 0xA0 SHL SUB AND DUP2 JUMP JUMPDEST PUSH2 0x28C PUSH2 0x2EB CALLDATASIZE PUSH1 0x4 PUSH2 0x1E30 JUMP JUMPDEST PUSH2 0x781 JUMP JUMPDEST PUSH2 0x28C PUSH1 0x5 SLOAD DUP2 JUMP JUMPDEST PUSH2 0x28C PUSH2 0x307 CALLDATASIZE PUSH1 0x4 PUSH2 0x1ECC JUMP JUMPDEST PUSH2 0x855 JUMP JUMPDEST PUSH2 0x31F PUSH2 0x31A CALLDATASIZE PUSH1 0x4 PUSH2 0x1F3F JUMP JUMPDEST PUSH2 0x92B JUMP JUMPDEST PUSH1 0x40 MLOAD PUSH2 0x296 SWAP4 SWAP3 SWAP2 SWAP1 PUSH2 0x1FB0 JUMP JUMPDEST PUSH2 0x28C PUSH1 0x2 SLOAD DUP2 JUMP JUMPDEST PUSH2 0x28C PUSH1 0x62 SLOAD DUP2 JUMP JUMPDEST PUSH1 0x0 SLOAD PUSH2 0x352 SWAP1 PUSH2 0x100 SWAP1 DIV PUSH1 0xFF AND DUP2 JUMP JUMPDEST PUSH1 0x40 MLOAD SWAP1 ISZERO ISZERO DUP2 MSTORE PUSH1 0x20 ADD PUSH2 0x296 JUMP JUMPDEST PUSH1 0xC5 SLOAD PUSH2 0x2B2 SWAP1 PUSH1 0x1 PUSH1 0x1 PUSH1 0xA0 SHL SUB AND DUP2 JUMP JUMPDEST PUSH2 0x28C PUSH2 0x383 CALLDATASIZE PUSH1 0x4 PUSH2 0x1DD0 JUMP JUMPDEST PUSH2 0x9F6 JUMP JUMPDEST PUSH2 0x39B PUSH2 0x396 CALLDATASIZE PUSH1 0x4 PUSH2 0x1F3F JUMP JUMPDEST PUSH2 0xACA JUMP JUMPDEST PUSH1 0x40 MLOAD PUSH2 0x296 SWAP6 SWAP5 SWAP4 SWAP3 SWAP2 SWAP1 PUSH2 0x1FE6 JUMP JUMPDEST PUSH2 0x3B4 PUSH2 0xBA5 JUMP JUMPDEST PUSH1 0x40 MLOAD PUSH2 0x296 SWAP2 SWAP1 PUSH2 0x2029 JUMP JUMPDEST PUSH2 0x28C PUSH2 0x3CF CALLDATASIZE PUSH1 0x4 PUSH2 0x20B7 JUMP JUMPDEST PUSH2 0xCBE JUMP JUMPDEST PUSH2 0x28C PUSH2 0x3E2 CALLDATASIZE PUSH1 0x4 PUSH2 0x2132 JUMP JUMPDEST PUSH2 0xDF5 JUMP JUMPDEST PUSH2 0x28C PUSH2 0x3F5 CALLDATASIZE PUSH1 0x4 PUSH2 0x1F3F JUMP JUMPDEST PUSH2 0xF32 JUMP JUMPDEST PUSH1 0x83 SLOAD PUSH2 0x28C JUMP JUMPDEST PUSH2 0x28C PUSH2 0x410 CALLDATASIZE PUSH1 0x4 PUSH2 0x21E5 JUMP JUMPDEST PUSH1 0xA3 PUSH1 0x20 MSTORE PUSH1 0x0 SWAP1 DUP2 MSTORE PUSH1 0x40 SWAP1 KECCAK256 SLOAD DUP2 JUMP JUMPDEST PUSH2 0x435 PUSH2 0x430 CALLDATASIZE PUSH1 0x4 PUSH2 0x2316 JUMP JUMPDEST PUSH2 0xF53 JUMP JUMPDEST STOP JUMPDEST PUSH2 0x43F PUSH2 0x1115 JUMP JUMPDEST PUSH1 0x40 MLOAD PUSH2 0x296 SWAP2 SWAP1 PUSH2 0x2419 JUMP JUMPDEST PUSH2 0x28C PUSH2 0x45A CALLDATASIZE PUSH1 0x4 PUSH2 0x242C JUMP JUMPDEST PUSH2 0x11A3 JUMP JUMPDEST PUSH2 0x472 PUSH2 0x46D CALLDATASIZE PUSH1 0x4 PUSH2 0x1F3F JUMP JUMPDEST PUSH2 0x12D7 JUMP JUMPDEST PUSH1 0x40 MLOAD PUSH2 0x296 SWAP3 SWAP2 SWAP1 PUSH2 0x247B JUMP JUMPDEST PUSH1 0x24 SLOAD PUSH2 0x2B2 SWAP1 PUSH1 0x1 PUSH1 0x1 PUSH1 0xA0 SHL SUB AND DUP2 JUMP JUMPDEST PUSH1 0xC2 SLOAD PUSH2 0x2B2 SWAP1 PUSH1 0x1 PUSH1 0x1 PUSH1 0xA0 SHL SUB AND DUP2 JUMP JUMPDEST PUSH2 0x28C PUSH2 0x4B4 CALLDATASIZE PUSH1 0x4 PUSH2 0x21E5 JUMP JUMPDEST PUSH1 0xA2 PUSH1 0x20 MSTORE PUSH1 0x0 SWAP1 DUP2 MSTORE PUSH1 0x40 SWAP1 KECCAK256 SLOAD DUP2 JUMP JUMPDEST PUSH2 0x28C PUSH2 0x4D4 CALLDATASIZE PUSH1 0x4 PUSH2 0x1DD0 JUMP JUMPDEST PUSH2 0x1443 JUMP JUMPDEST PUSH2 0x435 PUSH2 0x4E7 CALLDATASIZE PUSH1 0x4 PUSH2 0x249E JUMP JUMPDEST PUSH2 0x1517 JUMP JUMPDEST PUSH2 0x28C PUSH2 0x4FA CALLDATASIZE PUSH1 0x4 PUSH2 0x21E5 JUMP JUMPDEST PUSH1 0xA4 PUSH1 0x20 MSTORE PUSH1 0x0 SWAP1 DUP2 MSTORE PUSH1 0x40 SWAP1 KECCAK256 SLOAD DUP2 JUMP JUMPDEST PUSH1 0xC3 SLOAD PUSH2 0x2B2 SWAP1 PUSH1 0x1 PUSH1 0x1 PUSH1 0xA0 SHL SUB AND DUP2 JUMP JUMPDEST PUSH2 0x28C PUSH1 0x4 SLOAD DUP2 JUMP JUMPDEST PUSH1 0xC1 SLOAD PUSH2 0x2B2 SWAP1 PUSH1 0x1 PUSH1 0x1 PUSH1 0xA0 SHL SUB AND DUP2 JUMP JUMPDEST PUSH2 0x435 PUSH2 0x549 CALLDATASIZE PUSH1 0x4 PUSH2 0x24EB JUMP JUMPDEST PUSH2 0x1637 JUMP JUMPDEST PUSH1 0x82 SLOAD PUSH2 0x28C JUMP JUMPDEST PUSH2 0x55E PUSH2 0x16FF JUMP JUMPDEST PUSH1 0x40 MLOAD PUSH2 0x296 SWAP2 SWAP1 PUSH2 0x25FA JUMP JUMPDEST PUSH2 0x57E PUSH2 0x579 CALLDATASIZE PUSH1 0x4 PUSH2 0x1F3F JUMP JUMPDEST PUSH2 0x187D JUMP JUMPDEST PUSH1 0x40 DUP1 MLOAD PUSH1 0x1 PUSH1 0x1 PUSH1 0xA0 SHL SUB SWAP6 DUP7 AND DUP2 MSTORE PUSH1 0x20 DUP2 ADD SWAP5 SWAP1 SWAP5 MSTORE SWAP2 DUP5 AND SWAP2 DUP4 ADD SWAP2 SWAP1 SWAP2 MSTORE SWAP1 SWAP2 AND PUSH1 0x60 DUP3 ADD MSTORE PUSH1 0x80 ADD PUSH2 0x296 JUMP JUMPDEST PUSH2 0x435 PUSH2 0x5BF CALLDATASIZE PUSH1 0x4 PUSH2 0x26C1 JUMP JUMPDEST PUSH2 0x18C5 JUMP JUMPDEST PUSH2 0x5D7 PUSH2 0x5D2 CALLDATASIZE PUSH1 0x4 PUSH2 0x2703 JUMP JUMPDEST PUSH2 0x19EB JUMP JUMPDEST PUSH1 0x40 MLOAD PUSH2 0x296 SWAP4 SWAP3 SWAP2 SWAP1 PUSH2 0x2733 JUMP JUMPDEST PUSH1 0x23 SLOAD PUSH2 0x2B2 SWAP1 PUSH1 0x1 PUSH1 0x1 PUSH1 0xA0 SHL SUB AND DUP2 JUMP JUMPDEST PUSH2 0x60C PUSH2 0x607 CALLDATASIZE PUSH1 0x4 PUSH2 0x1F3F JUMP JUMPDEST PUSH2 0x1AA8 JUMP JUMPDEST PUSH1 0x40 MLOAD PUSH2 0x296 SWAP10 SWAP9 SWAP8 SWAP7 SWAP6 SWAP5 SWAP4 SWAP3 SWAP2 SWAP1 PUSH2 0x275F JUMP JUMPDEST PUSH2 0x28C PUSH2 0x62F CALLDATASIZE PUSH1 0x4 PUSH2 0x27C6 JUMP JUMPDEST PUSH2 0x1BA1 JUMP JUMPDEST PUSH2 0x28C PUSH1 0x3 SLOAD DUP2 JUMP JUMPDEST PUSH2 0x28C PUSH1 0x6 SLOAD DUP2 JUMP JUMPDEST PUSH1 0x0 SLOAD PUSH2 0x352 SWAP1 PUSH1 0xFF AND DUP2 JUMP JUMPDEST PUSH1 0x0 DUP1 PUSH1 0xC1 PUSH1 0x0 SWAP1 SLOAD SWAP1 PUSH2 0x100 EXP SWAP1 DIV PUSH1 0x1 PUSH1 0x1 PUSH1 0xA0 SHL SUB AND PUSH1 0x1 PUSH1 0x1 PUSH1 0xA0 SHL SUB AND PUSH4 0xA327AB69 PUSH1 0x40 MLOAD DUP2 PUSH4 0xFFFFFFFF AND PUSH1 0xE0 SHL DUP2 MSTORE PUSH1 0x4 ADD PUSH1 0x20 PUSH1 0x40 MLOAD DUP1 DUP4 SUB DUP2 DUP7 GAS STATICCALL ISZERO DUP1 ISZERO PUSH2 0x6A9 JUMPI RETURNDATASIZE PUSH1 0x0 DUP1 RETURNDATACOPY RETURNDATASIZE PUSH1 0x0 REVERT JUMPDEST POP POP POP POP PUSH1 0x40 MLOAD RETURNDATASIZE PUSH1 0x1F NOT PUSH1 0x1F DUP3 ADD AND DUP3 ADD DUP1 PUSH1 0x40 MSTORE POP DUP2 ADD SWAP1 PUSH2 0x6CD SWAP2 SWAP1 PUSH2 0x281B JUMP JUMPDEST SWAP1 POP PUSH1 0x0 DUP2 PUSH1 0x1 PUSH1 0x1 PUSH1 0xA0 SHL SUB AND DUP8 DUP8 DUP8 DUP8 PUSH1 0x40 MLOAD PUSH1 0x24 ADD PUSH2 0x6F2 SWAP5 SWAP4 SWAP3 SWAP2 SWAP1 PUSH2 0x2838 JUMP JUMPDEST PUSH1 0x40 DUP1 MLOAD PUSH1 0x1F NOT DUP2 DUP5 SUB ADD DUP2 MSTORE SWAP2 DUP2 MSTORE PUSH1 0x20 DUP3 ADD DUP1 MLOAD PUSH1 0x1 PUSH1 0x1 PUSH1 0xE0 SHL SUB AND PUSH4 0x4F17A9B PUSH1 0xE0 SHL OR SWAP1 MSTORE MLOAD PUSH2 0x727 SWAP2 SWAP1 PUSH2 0x2870 JUMP JUMPDEST PUSH1 0x0 PUSH1 0x40 MLOAD DUP1 DUP4 SUB DUP2 DUP6 GAS DELEGATECALL SWAP2 POP POP RETURNDATASIZE DUP1 PUSH1 0x0 DUP2 EQ PUSH2 0x762 JUMPI PUSH1 0x40 MLOAD SWAP2 POP PUSH1 0x1F NOT PUSH1 0x3F RETURNDATASIZE ADD AND DUP3 ADD PUSH1 0x40 MSTORE RETURNDATASIZE DUP3 MSTORE RETURNDATASIZE PUSH1 0x0 PUSH1 0x20 DUP5 ADD RETURNDATACOPY PUSH2 0x767 JUMP JUMPDEST PUSH1 0x60 SWAP2 POP JUMPDEST POP POP SWAP1 POP PUSH1 0x40 MLOAD RETURNDATASIZE DUP1 PUSH1 0x0 DUP4 RETURNDATACOPY DUP3 PUSH2 0x77D JUMPI DUP1 DUP3 REVERT JUMPDEST DUP1 DUP3 RETURN JUMPDEST PUSH1 0x0 DUP1 PUSH1 0xC1 PUSH1 0x0 SWAP1 SLOAD SWAP1 PUSH2 0x100 EXP SWAP1 DIV PUSH1 0x1 PUSH1 0x1 PUSH1 0xA0 SHL SUB AND PUSH1 0x1 PUSH1 0x1 PUSH1 0xA0 SHL SUB AND PUSH4 0xA327AB69 PUSH1 0x40 MLOAD DUP2 PUSH4 0xFFFFFFFF AND PUSH1 0xE0 SHL DUP2 MSTORE PUSH1 0x4 ADD PUSH1 0x20 PUSH1 0x40 MLOAD DUP1 DUP4 SUB DUP2 DUP7 GAS STATICCALL ISZERO DUP1 ISZERO PUSH2 0x7D7 JUMPI RETURNDATASIZE PUSH1 0x0 DUP1 RETURNDATACOPY RETURNDATASIZE PUSH1 0x0 REVERT JUMPDEST POP POP POP POP PUSH1 0x40 MLOAD RETURNDATASIZE PUSH1 0x1F NOT PUSH1 0x1F DUP3 ADD AND DUP3 ADD DUP1 PUSH1 0x40 MSTORE POP DUP2 ADD SWAP1 PUSH2 0x7FB SWAP2 SWAP1 PUSH2 0x281B JUMP JUMPDEST SWAP1 POP PUSH1 0x0 DUP2 PUSH1 0x1 PUSH1 0x1 PUSH1 0xA0 SHL SUB AND DUP8 DUP8 DUP8 DUP8 PUSH1 0x40 MLOAD PUSH1 0x24 ADD PUSH2 0x820 SWAP5 SWAP4 SWAP3 SWAP2 SWAP1 PUSH2 0x288C JUMP JUMPDEST PUSH1 0x40 DUP1 MLOAD PUSH1 0x1F NOT DUP2 DUP5 SUB ADD DUP2 MSTORE SWAP2 DUP2 MSTORE PUSH1 0x20 DUP3 ADD DUP1 MLOAD PUSH1 0x1 PUSH1 0x1 PUSH1 0xE0 SHL SUB AND PUSH4 0x12EAB7FF PUSH1 0xE0 SHL OR SWAP1 MSTORE MLOAD PUSH2 0x727 SWAP2 SWAP1 PUSH2 0x2870 JUMP JUMPDEST PUSH1 0x0 DUP1 PUSH1 0xC1 PUSH1 0x0 SWAP1 SLOAD SWAP1 PUSH2 0x100 EXP SWAP1 DIV PUSH1 0x1 PUSH1 0x1 PUSH1 0xA0 SHL SUB AND PUSH1 0x1 PUSH1 0x1 PUSH1 0xA0 SHL SUB AND PUSH4 0xA327AB69 PUSH1 0x40 MLOAD DUP2 PUSH4 0xFFFFFFFF AND PUSH1 0xE0 SHL DUP2 MSTORE PUSH1 0x4 ADD PUSH1 0x20 PUSH1 0x40 MLOAD DUP1 DUP4 SUB DUP2 DUP7 GAS STATICCALL ISZERO DUP1 ISZERO PUSH2 0x8AB JUMPI RETURNDATASIZE PUSH1 0x0 DUP1 RETURNDATACOPY RETURNDATASIZE PUSH1 0x0 REVERT JUMPDEST POP POP POP POP PUSH1 0x40 MLOAD RETURNDATASIZE PUSH1 0x1F NOT PUSH1 0x1F DUP3 ADD AND DUP3 ADD DUP1 PUSH1 0x40 MSTORE POP DUP2 ADD SWAP1 PUSH2 0x8CF SWAP2 SWAP1 PUSH2 0x281B JUMP JUMPDEST SWAP1 POP PUSH1 0x0 DUP2 PUSH1 0x1 PUSH1 0x1 PUSH1 0xA0 SHL SUB AND DUP9 DUP9 DUP9 DUP9 DUP9 PUSH1 0x40 MLOAD PUSH1 0x24 ADD PUSH2 0x8F6 SWAP6 SWAP5 SWAP4 SWAP3 SWAP2 SWAP1 PUSH2 0x28DF JUMP JUMPDEST PUSH1 0x40 DUP1 MLOAD PUSH1 0x1F NOT DUP2 DUP5 SUB ADD DUP2 MSTORE SWAP2 DUP2 MSTORE PUSH1 0x20 DUP3 ADD DUP1 MLOAD PUSH1 0x1 PUSH1 0x1 PUSH1 0xE0 SHL SUB AND PUSH4 0x152DE3B9 PUSH1 0xE0 SHL OR SWAP1 MSTORE MLOAD PUSH2 0x727 SWAP2 SWAP1 PUSH2 0x2870 JUMP JUMPDEST PUSH1 0x84 DUP2 DUP2 SLOAD DUP2 LT PUSH2 0x93B JUMPI PUSH1 0x0 DUP1 REVERT JUMPDEST PUSH1 0x0 SWAP2 DUP3 MSTORE PUSH1 0x20 SWAP1 SWAP2 KECCAK256 PUSH1 0x3 SWAP1 SWAP2 MUL ADD DUP1 SLOAD PUSH1 0x1 DUP3 ADD DUP1 SLOAD PUSH1 0x1 PUSH1 0x1 PUSH1 0xA0 SHL SUB SWAP1 SWAP3 AND SWAP4 POP SWAP1 PUSH2 0x96A SWAP1 PUSH2 0x2924 JUMP JUMPDEST DUP1 PUSH1 0x1F ADD PUSH1 0x20 DUP1 SWAP2 DIV MUL PUSH1 0x20 ADD PUSH1 0x40 MLOAD SWAP1 DUP2 ADD PUSH1 0x40 MSTORE DUP1 SWAP3 SWAP2 SWAP1 DUP2 DUP2 MSTORE PUSH1 0x20 ADD DUP3 DUP1 SLOAD PUSH2 0x996 SWAP1 PUSH2 0x2924 JUMP JUMPDEST DUP1 ISZERO PUSH2 0x9E3 JUMPI DUP1 PUSH1 0x1F LT PUSH2 0x9B8 JUMPI PUSH2 0x100 DUP1 DUP4 SLOAD DIV MUL DUP4 MSTORE SWAP2 PUSH1 0x20 ADD SWAP2 PUSH2 0x9E3 JUMP JUMPDEST DUP3 ADD SWAP2 SWAP1 PUSH1 0x0 MSTORE PUSH1 0x20 PUSH1 0x0 KECCAK256 SWAP1 JUMPDEST DUP2 SLOAD DUP2 MSTORE SWAP1 PUSH1 0x1 ADD SWAP1 PUSH1 0x20 ADD DUP1 DUP4 GT PUSH2 0x9C6 JUMPI DUP3 SWAP1 SUB PUSH1 0x1F AND DUP3 ADD SWAP2 JUMPDEST POP POP POP PUSH1 0x2 SWAP1 SWAP4 ADD SLOAD SWAP2 SWAP3 POP POP PUSH1 0xFF AND DUP4 JUMP JUMPDEST PUSH1 0x0 DUP1 PUSH1 0xC1 PUSH1 0x0 SWAP1 SLOAD SWAP1 PUSH2 0x100 EXP SWAP1 DIV PUSH1 0x1 PUSH1 0x1 PUSH1 0xA0 SHL SUB AND PUSH1 0x1 PUSH1 0x1 PUSH1 0xA0 SHL SUB AND PUSH4 0xA327AB69 PUSH1 0x40 MLOAD DUP2 PUSH4 0xFFFFFFFF AND PUSH1 0xE0 SHL DUP2 MSTORE PUSH1 0x4 ADD PUSH1 0x20 PUSH1 0x40 MLOAD DUP1 DUP4 SUB DUP2 DUP7 GAS STATICCALL ISZERO DUP1 ISZERO PUSH2 0xA4C JUMPI RETURNDATASIZE PUSH1 0x0 DUP1 RETURNDATACOPY RETURNDATASIZE PUSH1 0x0 REVERT JUMPDEST POP POP POP POP PUSH1 0x40 MLOAD RETURNDATASIZE PUSH1 0x1F NOT PUSH1 0x1F DUP3 ADD AND DUP3 ADD DUP1 PUSH1 0x40 MSTORE POP DUP2 ADD SWAP1 PUSH2 0xA70 SWAP2 SWAP1 PUSH2 0x281B JUMP JUMPDEST SWAP1 POP PUSH1 0x0 DUP2 PUSH1 0x1 PUSH1 0x1 PUSH1 0xA0 SHL SUB AND DUP8 DUP8 DUP8 DUP8 PUSH1 0x40 MLOAD PUSH1 0x24 ADD PUSH2 0xA95 SWAP5 SWAP4 SWAP3 SWAP2 SWAP1 PUSH2 0x2838 JUMP JUMPDEST PUSH1 0x40 DUP1 MLOAD PUSH1 0x1F NOT DUP2 DUP5 SUB ADD DUP2 MSTORE SWAP2 DUP2 MSTORE PUSH1 0x20 DUP3 ADD DUP1 MLOAD PUSH1 0x1 PUSH1 0x1 PUSH1 0xE0 SHL SUB AND PUSH4 0x899B86F PUSH1 0xE2 SHL OR SWAP1 MSTORE MLOAD PUSH2 0x727 SWAP2 SWAP1 PUSH2 0x2870 JUMP JUMPDEST PUSH1 0x82 DUP2 DUP2 SLOAD DUP2 LT PUSH2 0xADA JUMPI PUSH1 0x0 DUP1 REVERT JUMPDEST PUSH1 0x0 SWAP2 DUP3 MSTORE PUSH1 0x20 SWAP1 SWAP2 KECCAK256 PUSH1 0x4 SWAP1 SWAP2 MUL ADD DUP1 SLOAD PUSH1 0x1 DUP3 ADD DUP1 SLOAD PUSH1 0x1 PUSH1 0x1 PUSH1 0xA0 SHL SUB SWAP1 SWAP3 AND SWAP4 POP SWAP1 PUSH2 0xB09 SWAP1 PUSH2 0x2924 JUMP JUMPDEST DUP1 PUSH1 0x1F ADD PUSH1 0x20 DUP1 SWAP2 DIV MUL PUSH1 0x20 ADD PUSH1 0x40 MLOAD SWAP1 DUP2 ADD PUSH1 0x40 MSTORE DUP1 SWAP3 SWAP2 SWAP1 DUP2 DUP2 MSTORE PUSH1 0x20 ADD DUP3 DUP1 SLOAD PUSH2 0xB35 SWAP1 PUSH2 0x2924 JUMP JUMPDEST DUP1 ISZERO PUSH2 0xB82 JUMPI DUP1 PUSH1 0x1F LT PUSH2 0xB57 JUMPI PUSH2 0x100 DUP1 DUP4 SLOAD DIV MUL DUP4 MSTORE SWAP2 PUSH1 0x20 ADD SWAP2 PUSH2 0xB82 JUMP JUMPDEST DUP3 ADD SWAP2 SWAP1 PUSH1 0x0 MSTORE PUSH1 0x20 PUSH1 0x0 KECCAK256 SWAP1 JUMPDEST DUP2 SLOAD DUP2 MSTORE SWAP1 PUSH1 0x1 ADD SWAP1 PUSH1 0x20 ADD DUP1 DUP4 GT PUSH2 0xB65 JUMPI DUP3 SWAP1 SUB PUSH1 0x1F AND DUP3 ADD SWAP2 JUMPDEST POP POP POP POP PUSH1 0x2 DUP4 ADD SLOAD PUSH1 0x3 SWAP1 SWAP4 ADD SLOAD SWAP2 SWAP3 SWAP2 PUSH1 0xFF DUP1 DUP3 AND SWAP3 POP PUSH2 0x100 SWAP1 SWAP2 DIV AND DUP6 JUMP JUMPDEST PUSH1 0x60 PUSH1 0x84 DUP1 SLOAD DUP1 PUSH1 0x20 MUL PUSH1 0x20 ADD PUSH1 0x40 MLOAD SWAP1 DUP2 ADD PUSH1 0x40 MSTORE DUP1 SWAP3 SWAP2 SWAP1 DUP2 DUP2 MSTORE PUSH1 0x20 ADD PUSH1 0x0 SWAP1 JUMPDEST DUP3 DUP3 LT ISZERO PUSH2 0xCB5 JUMPI PUSH1 0x0 DUP5 DUP2 MSTORE PUSH1 0x20 SWAP1 DUP2 SWAP1 KECCAK256 PUSH1 0x40 DUP1 MLOAD PUSH1 0x60 DUP2 ADD SWAP1 SWAP2 MSTORE PUSH1 0x3 DUP6 MUL SWAP1 SWAP2 ADD DUP1 SLOAD PUSH1 0x1 PUSH1 0x1 PUSH1 0xA0 SHL SUB AND DUP3 MSTORE PUSH1 0x1 DUP2 ADD DUP1 SLOAD SWAP3 SWAP4 SWAP2 SWAP3 SWAP2 DUP5 ADD SWAP2 PUSH2 0xC12 SWAP1 PUSH2 0x2924 JUMP JUMPDEST DUP1 PUSH1 0x1F ADD PUSH1 0x20 DUP1 SWAP2 DIV MUL PUSH1 0x20 ADD PUSH1 0x40 MLOAD SWAP1 DUP2 ADD PUSH1 0x40 MSTORE DUP1 SWAP3 SWAP2 SWAP1 DUP2 DUP2 MSTORE PUSH1 0x20 ADD DUP3 DUP1 SLOAD PUSH2 0xC3E SWAP1 PUSH2 0x2924 JUMP JUMPDEST DUP1 ISZERO PUSH2 0xC8B JUMPI DUP1 PUSH1 0x1F LT PUSH2 0xC60 JUMPI PUSH2 0x100 DUP1 DUP4 SLOAD DIV MUL DUP4 MSTORE SWAP2 PUSH1 0x20 ADD SWAP2 PUSH2 0xC8B JUMP JUMPDEST DUP3 ADD SWAP2 SWAP1 PUSH1 0x0 MSTORE PUSH1 0x20 PUSH1 0x0 KECCAK256 SWAP1 JUMPDEST DUP2 SLOAD DUP2 MSTORE SWAP1 PUSH1 0x1 ADD SWAP1 PUSH1 0x20 ADD DUP1 DUP4 GT PUSH2 0xC6E JUMPI DUP3 SWAP1 SUB PUSH1 0x1F AND DUP3 ADD SWAP2 JUMPDEST POP POP POP SWAP2 DUP4 MSTORE POP POP PUSH1 0x2 SWAP2 SWAP1 SWAP2 ADD SLOAD PUSH1 0xFF AND ISZERO ISZERO PUSH1 0x20 SWAP2 DUP3 ADD MSTORE SWAP1 DUP3 MSTORE PUSH1 0x1 SWAP3 SWAP1 SWAP3 ADD SWAP2 ADD PUSH2 0xBC9 JUMP JUMPDEST POP POP POP POP SWAP1 POP SWAP1 JUMP JUMPDEST PUSH1 0x0 DUP1 PUSH1 0xC1 PUSH1 0x0 SWAP1 SLOAD SWAP1 PUSH2 0x100 EXP SWAP1 DIV PUSH1 0x1 PUSH1 0x1 PUSH1 0xA0 SHL SUB AND PUSH1 0x1 PUSH1 0x1 PUSH1 0xA0 SHL SUB AND PUSH4 0xA327AB69 PUSH1 0x40 MLOAD DUP2 PUSH4 0xFFFFFFFF AND PUSH1 0xE0 SHL DUP2 MSTORE PUSH1 0x4 ADD PUSH1 0x20 PUSH1 0x40 MLOAD DUP1 DUP4 SUB DUP2 DUP7 GAS STATICCALL ISZERO DUP1 ISZERO PUSH2 0xD14 JUMPI RETURNDATASIZE PUSH1 0x0 DUP1 RETURNDATACOPY RETURNDATASIZE PUSH1 0x0 REVERT JUMPDEST POP POP POP POP PUSH1 0x40 MLOAD RETURNDATASIZE PUSH1 0x1F NOT PUSH1 0x1F DUP3 ADD AND DUP3 ADD DUP1 PUSH1 0x40 MSTORE POP DUP2 ADD SWAP1 PUSH2 0xD38 SWAP2 SWAP1 PUSH2 0x281B JUMP JUMPDEST SWAP1 POP PUSH1 0x0 DUP2 PUSH1 0x1 PUSH1 0x1 PUSH1 0xA0 SHL SUB AND DUP8 DUP8 DUP8 DUP8 PUSH1 0x40 MLOAD PUSH1 0x24 ADD PUSH2 0xD5D SWAP5 SWAP4 SWAP3 SWAP2 SWAP1 PUSH2 0x295F JUMP JUMPDEST PUSH1 0x40 DUP1 MLOAD PUSH1 0x1F NOT DUP2 DUP5 SUB ADD DUP2 MSTORE SWAP2 DUP2 MSTORE PUSH1 0x20 DUP3 ADD DUP1 MLOAD PUSH1 0x1 PUSH1 0x1 PUSH1 0xE0 SHL SUB AND PUSH4 0xA95FBE1 PUSH1 0xE2 SHL OR SWAP1 MSTORE MLOAD PUSH2 0xD92 SWAP2 SWAP1 PUSH2 0x2870 JUMP JUMPDEST PUSH1 0x0 PUSH1 0x40 MLOAD DUP1 DUP4 SUB DUP2 DUP6 GAS DELEGATECALL SWAP2 POP POP RETURNDATASIZE DUP1 PUSH1 0x0 DUP2 EQ PUSH2 0xDCD JUMPI PUSH1 0x40 MLOAD SWAP2 POP PUSH1 0x1F NOT PUSH1 0x3F RETURNDATASIZE ADD AND DUP3 ADD PUSH1 0x40 MSTORE RETURNDATASIZE DUP3 MSTORE RETURNDATASIZE PUSH1 0x0 PUSH1 0x20 DUP5 ADD RETURNDATACOPY PUSH2 0xDD2 JUMP JUMPDEST PUSH1 0x60 SWAP2 POP JUMPDEST POP POP SWAP1 POP PUSH1 0x40 MLOAD RETURNDATASIZE DUP1 PUSH1 0x0 DUP4 RETURNDATACOPY DUP3 PUSH2 0xDE8 JUMPI DUP1 DUP3 REVERT JUMPDEST POP MLOAD SWAP8 SWAP7 POP POP POP POP POP POP POP JUMP JUMPDEST PUSH1 0x0 DUP1 PUSH1 0xC1 PUSH1 0x0 SWAP1 SLOAD SWAP1 PUSH2 0x100 EXP SWAP1 DIV PUSH1 0x1 PUSH1 0x1 PUSH1 0xA0 SHL SUB AND PUSH1 0x1 PUSH1 0x1 PUSH1 0xA0 SHL SUB AND PUSH4 0xA327AB69 PUSH1 0x40 MLOAD DUP2 PUSH4 0xFFFFFFFF AND PUSH1 0xE0 SHL DUP2 MSTORE PUSH1 0x4 ADD PUSH1 0x20 PUSH1 0x40 MLOAD DUP1 DUP4 SUB DUP2 DUP7 GAS STATICCALL ISZERO DUP1 ISZERO PUSH2 0xE4B JUMPI RETURNDATASIZE PUSH1 0x0 DUP1 RETURNDATACOPY RETURNDATASIZE PUSH1 0x0 REVERT JUMPDEST POP POP POP POP PUSH1 0x40 MLOAD RETURNDATASIZE PUSH1 0x1F NOT PUSH1 0x1F DUP3 ADD AND DUP3 ADD DUP1 PUSH1 0x40 MSTORE POP DUP2 ADD SWAP1 PUSH2 0xE6F SWAP2 SWAP1 PUSH2 0x281B JUMP JUMPDEST SWAP1 POP PUSH1 0x0 DUP2 PUSH1 0x1 PUSH1 0x1 PUSH1 0xA0 SHL SUB AND DUP10 DUP10 DUP10 DUP10 DUP10 DUP10 PUSH1 0x40 MLOAD PUSH1 0x24 ADD PUSH2 0xE98 SWAP7 SWAP6 SWAP5 SWAP4 SWAP3 SWAP2 SWAP1 PUSH2 0x299B JUMP JUMPDEST PUSH1 0x40 DUP1 MLOAD PUSH1 0x1F NOT DUP2 DUP5 SUB ADD DUP2 MSTORE SWAP2 DUP2 MSTORE PUSH1 0x20 DUP3 ADD DUP1 MLOAD PUSH1 0x1 PUSH1 0x1 PUSH1 0xE0 SHL SUB AND PUSH4 0x31A0AFA7 PUSH1 0xE0 SHL OR SWAP1 MSTORE MLOAD PUSH2 0xECD SWAP2 SWAP1 PUSH2 0x2870 JUMP JUMPDEST PUSH1 0x0 PUSH1 0x40 MLOAD DUP1 DUP4 SUB DUP2 DUP6 GAS DELEGATECALL SWAP2 POP POP RETURNDATASIZE DUP1 PUSH1 0x0 DUP2 EQ PUSH2 0xF08 JUMPI PUSH1 0x40 MLOAD SWAP2 POP PUSH1 0x1F NOT PUSH1 0x3F RETURNDATASIZE ADD AND DUP3 ADD PUSH1 0x40 MSTORE RETURNDATASIZE DUP3 MSTORE RETURNDATASIZE PUSH1 0x0 PUSH1 0x20 DUP5 ADD RETURNDATACOPY PUSH2 0xF0D JUMP JUMPDEST PUSH1 0x60 SWAP2 POP JUMPDEST POP POP SWAP1 POP PUSH1 0x40 MLOAD RETURNDATASIZE DUP1 PUSH1 0x0 DUP4 RETURNDATACOPY DUP3 PUSH2 0xF23 JUMPI DUP1 DUP3 REVERT JUMPDEST POP MLOAD SWAP10 SWAP9 POP POP POP POP POP POP POP POP POP JUMP JUMPDEST PUSH1 0x86 DUP2 DUP2 SLOAD DUP2 LT PUSH2 0xF42 JUMPI PUSH1 0x0 DUP1 REVERT JUMPDEST PUSH1 0x0 SWAP2 DUP3 MSTORE PUSH1 0x20 SWAP1 SWAP2 KECCAK256 ADD SLOAD SWAP1 POP DUP2 JUMP JUMPDEST PUSH1 0xC5 SLOAD PUSH1 0x1 SWAP1 PUSH1 0x1 PUSH1 0xA8 SHL SWAP1 DIV PUSH1 0xFF AND ISZERO DUP1 ISZERO PUSH2 0xF7E JUMPI POP PUSH1 0xC5 SLOAD PUSH1 0xFF DUP1 DUP4 AND PUSH1 0x1 PUSH1 0xA0 SHL SWAP1 SWAP3 DIV AND LT JUMPDEST PUSH2 0xFE5 JUMPI PUSH1 0x40 MLOAD PUSH3 0x461BCD PUSH1 0xE5 SHL DUP2 MSTORE PUSH1 0x20 PUSH1 0x4 DUP3 ADD MSTORE PUSH1 0x2E PUSH1 0x24 DUP3 ADD MSTORE PUSH32 0x496E697469616C697A61626C653A20636F6E747261637420697320616C726561 PUSH1 0x44 DUP3 ADD MSTORE PUSH14 0x191E481A5B9A5D1A585B1A5E9959 PUSH1 0x92 SHL PUSH1 0x64 DUP3 ADD MSTORE PUSH1 0x84 ADD PUSH1 0x40 MLOAD DUP1 SWAP2 SUB SWAP1 REVERT JUMPDEST PUSH1 0xC5 DUP1 SLOAD PUSH1 0xFF PUSH1 0xA8 SHL NOT PUSH1 0xFF DUP5 AND PUSH1 0x1 PUSH1 0xA0 SHL MUL AND PUSH2 0xFFFF PUSH1 0xA0 SHL NOT SWAP1 SWAP2 AND OR PUSH1 0x1 PUSH1 0xA8 SHL OR SWAP1 SSTORE DUP3 MLOAD PUSH1 0x40 MLOAD PUSH1 0x0 SWAP2 PUSH1 0x1 PUSH1 0x1 PUSH1 0xA0 SHL SUB AND SWAP1 PUSH2 0x103B SWAP1 DUP13 SWAP1 DUP13 SWAP1 DUP13 SWAP1 DUP13 SWAP1 DUP13 SWAP1 DUP13 SWAP1 DUP13 SWAP1 DUP13 SWAP1 PUSH1 0x24 ADD PUSH2 0x2A70 JUMP JUMPDEST PUSH1 0x40 DUP1 MLOAD PUSH1 0x1F NOT DUP2 DUP5 SUB ADD DUP2 MSTORE SWAP2 DUP2 MSTORE PUSH1 0x20 DUP3 ADD DUP1 MLOAD PUSH1 0x1 PUSH1 0x1 PUSH1 0xE0 SHL SUB AND PUSH4 0x864CF155 PUSH1 0xE0 SHL OR SWAP1 MSTORE MLOAD PUSH2 0x1070 SWAP2 SWAP1 PUSH2 0x2870 JUMP JUMPDEST PUSH1 0x0 PUSH1 0x40 MLOAD DUP1 DUP4 SUB DUP2 DUP6 GAS DELEGATECALL SWAP2 POP POP RETURNDATASIZE DUP1 PUSH1 0x0 DUP2 EQ PUSH2 0x10AB JUMPI PUSH1 0x40 MLOAD SWAP2 POP PUSH1 0x1F NOT PUSH1 0x3F RETURNDATASIZE ADD AND DUP3 ADD PUSH1 0x40 MSTORE RETURNDATASIZE DUP3 MSTORE RETURNDATASIZE PUSH1 0x0 PUSH1 0x20 DUP5 ADD RETURNDATACOPY PUSH2 0x10B0 JUMP JUMPDEST PUSH1 0x60 SWAP2 POP JUMPDEST POP POP SWAP1 POP DUP1 PUSH2 0x10C6 JUMPI PUSH1 0x40 MLOAD RETURNDATASIZE DUP1 PUSH1 0x0 DUP4 RETURNDATACOPY DUP1 DUP3 REVERT JUMPDEST POP PUSH1 0xC5 DUP1 SLOAD PUSH1 0xFF PUSH1 0xA8 SHL NOT AND SWAP1 SSTORE PUSH1 0x40 MLOAD PUSH1 0xFF DUP3 AND DUP2 MSTORE PUSH32 0x7F26B83FF96E1F2B6A682F133852F6798A09C465DA95921460CEFB3847402498 SWAP1 PUSH1 0x20 ADD PUSH1 0x40 MLOAD DUP1 SWAP2 SUB SWAP1 LOG1 POP POP POP POP POP POP POP POP POP JUMP JUMPDEST PUSH1 0x42 DUP1 SLOAD PUSH2 0x1122 SWAP1 PUSH2 0x2924 JUMP JUMPDEST DUP1 PUSH1 0x1F ADD PUSH1 0x20 DUP1 SWAP2 DIV MUL PUSH1 0x20 ADD PUSH1 0x40 MLOAD SWAP1 DUP2 ADD PUSH1 0x40 MSTORE DUP1 SWAP3 SWAP2 SWAP1 DUP2 DUP2 MSTORE PUSH1 0x20 ADD DUP3 DUP1 SLOAD PUSH2 0x114E SWAP1 PUSH2 0x2924 JUMP JUMPDEST DUP1 ISZERO PUSH2 0x119B JUMPI DUP1 PUSH1 0x1F LT PUSH2 0x1170 JUMPI PUSH2 0x100 DUP1 DUP4 SLOAD DIV MUL DUP4 MSTORE SWAP2 PUSH1 0x20 ADD SWAP2 PUSH2 0x119B JUMP JUMPDEST DUP3 ADD SWAP2 SWAP1 PUSH1 0x0 MSTORE PUSH1 0x20 PUSH1 0x0 KECCAK256 SWAP1 JUMPDEST DUP2 SLOAD DUP2 MSTORE SWAP1 PUSH1 0x1 ADD SWAP1 PUSH1 0x20 ADD DUP1 DUP4 GT PUSH2 0x117E JUMPI DUP3 SWAP1 SUB PUSH1 0x1F AND DUP3 ADD SWAP2 JUMPDEST POP POP POP POP POP DUP2 JUMP JUMPDEST PUSH1 0x0 DUP1 PUSH1 0xC1 PUSH1 0x0 SWAP1 SLOAD SWAP1 PUSH2 0x100 EXP SWAP1 DIV PUSH1 0x1 PUSH1 0x1 PUSH1 0xA0 SHL SUB AND PUSH1 0x1 PUSH1 0x1 PUSH1 0xA0 SHL SUB AND PUSH4 0xA327AB69 PUSH1 0x40 MLOAD DUP2 PUSH4 0xFFFFFFFF AND PUSH1 0xE0 SHL DUP2 MSTORE PUSH1 0x4 ADD PUSH1 0x20 PUSH1 0x40 MLOAD DUP1 DUP4 SUB DUP2 DUP7 GAS STATICCALL ISZERO DUP1 ISZERO PUSH2 0x11F9 JUMPI RETURNDATASIZE PUSH1 0x0 DUP1 RETURNDATACOPY RETURNDATASIZE PUSH1 0x0 REVERT JUMPDEST POP POP POP POP PUSH1 0x40 MLOAD RETURNDATASIZE PUSH1 0x1F NOT PUSH1 0x1F DUP3 ADD AND DUP3 ADD DUP1 PUSH1 0x40 MSTORE POP DUP2 ADD SWAP1 PUSH2 0x121D SWAP2 SWAP1 PUSH2 0x281B JUMP JUMPDEST SWAP1 POP PUSH1 0x0 DUP2 PUSH1 0x1 PUSH1 0x1 PUSH1 0xA0 SHL SUB AND DUP7 DUP7 DUP7 PUSH1 0x40 MLOAD PUSH1 0x24 ADD PUSH2 0x1240 SWAP4 SWAP3 SWAP2 SWAP1 PUSH2 0x2B08 JUMP JUMPDEST PUSH1 0x40 DUP1 MLOAD PUSH1 0x1F NOT DUP2 DUP5 SUB ADD DUP2 MSTORE SWAP2 DUP2 MSTORE PUSH1 0x20 DUP3 ADD DUP1 MLOAD PUSH1 0x1 PUSH1 0x1 PUSH1 0xE0 SHL SUB AND PUSH4 0x2EF2C7B PUSH1 0xE5 SHL OR SWAP1 MSTORE MLOAD PUSH2 0x1275 SWAP2 SWAP1 PUSH2 0x2870 JUMP JUMPDEST PUSH1 0x0 PUSH1 0x40 MLOAD DUP1 DUP4 SUB DUP2 DUP6 GAS DELEGATECALL SWAP2 POP POP RETURNDATASIZE DUP1 PUSH1 0x0 DUP2 EQ PUSH2 0x12B0 JUMPI PUSH1 0x40 MLOAD SWAP2 POP PUSH1 0x1F NOT PUSH1 0x3F RETURNDATASIZE ADD AND DUP3 ADD PUSH1 0x40 MSTORE RETURNDATASIZE DUP3 MSTORE RETURNDATASIZE PUSH1 0x0 PUSH1 0x20 DUP5 ADD RETURNDATACOPY PUSH2 0x12B5 JUMP JUMPDEST PUSH1 0x60 SWAP2 POP JUMPDEST POP POP SWAP1 POP PUSH1 0x40 MLOAD RETURNDATASIZE DUP1 PUSH1 0x0 DUP4 RETURNDATACOPY DUP3 PUSH2 0x12CB JUMPI DUP1 DUP3 REVERT JUMPDEST POP MLOAD SWAP7 SWAP6 POP POP POP POP POP POP JUMP JUMPDEST PUSH1 0x0 PUSH1 0x60 PUSH1 0x0 PUSH1 0xC1 PUSH1 0x0 SWAP1 SLOAD SWAP1 PUSH2 0x100 EXP SWAP1 DIV PUSH1 0x1 PUSH1 0x1 PUSH1 0xA0 SHL SUB AND PUSH1 0x1 PUSH1 0x1 PUSH1 0xA0 SHL SUB AND PUSH4 0xA327AB69 PUSH1 0x40 MLOAD DUP2 PUSH4 0xFFFFFFFF AND PUSH1 0xE0 SHL DUP2 MSTORE PUSH1 0x4 ADD PUSH1 0x20 PUSH1 0x40 MLOAD DUP1 DUP4 SUB DUP2 DUP7 GAS STATICCALL ISZERO DUP1 ISZERO PUSH2 0x1330 JUMPI RETURNDATASIZE PUSH1 0x0 DUP1 RETURNDATACOPY RETURNDATASIZE PUSH1 0x0 REVERT JUMPDEST POP POP POP POP PUSH1 0x40 MLOAD RETURNDATASIZE PUSH1 0x1F NOT PUSH1 0x1F DUP3 ADD AND DUP3 ADD DUP1 PUSH1 0x40 MSTORE POP DUP2 ADD SWAP1 PUSH2 0x1354 SWAP2 SWAP1 PUSH2 0x281B JUMP JUMPDEST SWAP1 POP PUSH1 0x0 DUP2 PUSH1 0x1 PUSH1 0x1 PUSH1 0xA0 SHL SUB AND DUP6 PUSH1 0x40 MLOAD PUSH1 0x24 ADD PUSH2 0x1375 SWAP2 DUP2 MSTORE PUSH1 0x20 ADD SWAP1 JUMP JUMPDEST PUSH1 0x40 DUP1 MLOAD PUSH1 0x1F NOT DUP2 DUP5 SUB ADD DUP2 MSTORE SWAP2 DUP2 MSTORE PUSH1 0x20 DUP3 ADD DUP1 MLOAD PUSH1 0x1 PUSH1 0x1 PUSH1 0xE0 SHL SUB AND PUSH4 0x5F3D99B3 PUSH1 0xE0 SHL OR SWAP1 MSTORE MLOAD PUSH2 0x13AA SWAP2 SWAP1 PUSH2 0x2870 JUMP JUMPDEST PUSH1 0x0 PUSH1 0x40 MLOAD DUP1 DUP4 SUB DUP2 DUP6 GAS DELEGATECALL SWAP2 POP POP RETURNDATASIZE DUP1 PUSH1 0x0 DUP2 EQ PUSH2 0x13E5 JUMPI PUSH1 0x40 MLOAD SWAP2 POP PUSH1 0x1F NOT PUSH1 0x3F RETURNDATASIZE ADD AND DUP3 ADD PUSH1 0x40 MSTORE RETURNDATASIZE DUP3 MSTORE RETURNDATASIZE PUSH1 0x0 PUSH1 0x20 DUP5 ADD RETURNDATACOPY PUSH2 0x13EA JUMP JUMPDEST PUSH1 0x60 SWAP2 POP JUMPDEST POP POP SWAP1 POP DUP1 PUSH2 0x1400 JUMPI PUSH1 0x40 MLOAD RETURNDATASIZE DUP1 PUSH1 0x0 DUP4 RETURNDATACOPY DUP1 DUP3 REVERT JUMPDEST PUSH1 0x1 PUSH1 0x40 MLOAD DUP1 PUSH1 0x40 ADD PUSH1 0x40 MSTORE DUP1 PUSH1 0x19 DUP2 MSTORE PUSH1 0x20 ADD PUSH32 0x537563636573732065786563757465642070726F706F73616C00000000000000 DUP2 MSTORE POP SWAP4 POP SWAP4 POP POP POP SWAP2 POP SWAP2 JUMP JUMPDEST PUSH1 0x0 DUP1 PUSH1 0xC1 PUSH1 0x0 SWAP1 SLOAD SWAP1 PUSH2 0x100 EXP SWAP1 DIV PUSH1 0x1 PUSH1 0x1 PUSH1 0xA0 SHL SUB AND PUSH1 0x1 PUSH1 0x1 PUSH1 0xA0 SHL SUB AND PUSH4 0xA327AB69 PUSH1 0x40 MLOAD DUP2 PUSH4 0xFFFFFFFF AND PUSH1 0xE0 SHL DUP2 MSTORE PUSH1 0x4 ADD PUSH1 0x20 PUSH1 0x40 MLOAD DUP1 DUP4 SUB DUP2 DUP7 GAS STATICCALL ISZERO DUP1 ISZERO PUSH2 0x1499 JUMPI RETURNDATASIZE PUSH1 0x0 DUP1 RETURNDATACOPY RETURNDATASIZE PUSH1 0x0 REVERT JUMPDEST POP POP POP POP PUSH1 0x40 MLOAD RETURNDATASIZE PUSH1 0x1F NOT PUSH1 0x1F DUP3 ADD AND DUP3 ADD DUP1 PUSH1 0x40 MSTORE POP DUP2 ADD SWAP1 PUSH2 0x14BD SWAP2 SWAP1 PUSH2 0x281B JUMP JUMPDEST SWAP1 POP PUSH1 0x0 DUP2 PUSH1 0x1 PUSH1 0x1 PUSH1 0xA0 SHL SUB AND DUP8 DUP8 DUP8 DUP8 PUSH1 0x40 MLOAD PUSH1 0x24 ADD PUSH2 0x14E2 SWAP5 SWAP4 SWAP3 SWAP2 SWAP1 PUSH2 0x2838 JUMP JUMPDEST PUSH1 0x40 DUP1 MLOAD PUSH1 0x1F NOT DUP2 DUP5 SUB ADD DUP2 MSTORE SWAP2 DUP2 MSTORE PUSH1 0x20 DUP3 ADD DUP1 MLOAD PUSH1 0x1 PUSH1 0x1 PUSH1 0xE0 SHL SUB AND PUSH4 0xF8C70A9 PUSH1 0xE3 SHL OR SWAP1 MSTORE MLOAD PUSH2 0xD92 SWAP2 SWAP1 PUSH2 0x2870 JUMP JUMPDEST PUSH1 0xC1 SLOAD PUSH1 0x40 DUP1 MLOAD PUSH4 0x529382D5 PUSH1 0xE0 SHL DUP2 MSTORE SWAP1 MLOAD PUSH1 0x0 SWAP3 PUSH1 0x1 PUSH1 0x1 PUSH1 0xA0 SHL SUB AND SWAP2 PUSH4 0x529382D5 SWAP2 PUSH1 0x4 DUP1 DUP4 ADD SWAP3 PUSH1 0x20 SWAP3 SWAP2 SWAP1 DUP3 SWAP1 SUB ADD DUP2 DUP7 GAS STATICCALL ISZERO DUP1 ISZERO PUSH2 0x1561 JUMPI RETURNDATASIZE PUSH1 0x0 DUP1 RETURNDATACOPY RETURNDATASIZE PUSH1 0x0 REVERT JUMPDEST POP POP POP POP PUSH1 0x40 MLOAD RETURNDATASIZE PUSH1 0x1F NOT PUSH1 0x1F DUP3 ADD AND DUP3 ADD DUP1 PUSH1 0x40 MSTORE POP DUP2 ADD SWAP1 PUSH2 0x1585 SWAP2 SWAP1 PUSH2 0x281B JUMP JUMPDEST SWAP1 POP PUSH1 0x0 DUP2 PUSH1 0x1 PUSH1 0x1 PUSH1 0xA0 SHL SUB AND DUP5 DUP5 PUSH1 0x40 MLOAD PUSH1 0x24 ADD PUSH2 0x15A6 SWAP3 SWAP2 SWAP1 PUSH2 0x247B JUMP JUMPDEST PUSH1 0x40 DUP1 MLOAD PUSH1 0x1F NOT DUP2 DUP5 SUB ADD DUP2 MSTORE SWAP2 DUP2 MSTORE PUSH1 0x20 DUP3 ADD DUP1 MLOAD PUSH1 0x1 PUSH1 0x1 PUSH1 0xE0 SHL SUB AND PUSH4 0x1039E45B PUSH1 0xE3 SHL OR SWAP1 MSTORE MLOAD PUSH2 0x15DB SWAP2 SWAP1 PUSH2 0x2870 JUMP JUMPDEST PUSH1 0x0 PUSH1 0x40 MLOAD DUP1 DUP4 SUB DUP2 DUP6 GAS DELEGATECALL SWAP2 POP POP RETURNDATASIZE DUP1 PUSH1 0x0 DUP2 EQ PUSH2 0x1616 JUMPI PUSH1 0x40 MLOAD SWAP2 POP PUSH1 0x1F NOT PUSH1 0x3F RETURNDATASIZE ADD AND DUP3 ADD PUSH1 0x40 MSTORE RETURNDATASIZE DUP3 MSTORE RETURNDATASIZE PUSH1 0x0 PUSH1 0x20 DUP5 ADD RETURNDATACOPY PUSH2 0x161B JUMP JUMPDEST PUSH1 0x60 SWAP2 POP JUMPDEST POP POP SWAP1 POP DUP1 PUSH2 0x1631 JUMPI PUSH1 0x40 MLOAD RETURNDATASIZE DUP1 PUSH1 0x0 DUP4 RETURNDATACOPY DUP1 DUP3 REVERT JUMPDEST POP POP POP POP JUMP JUMPDEST PUSH1 0xC1 SLOAD PUSH1 0x40 DUP1 MLOAD PUSH4 0xA327AB69 PUSH1 0xE0 SHL DUP2 MSTORE SWAP1 MLOAD PUSH1 0x0 SWAP3 PUSH1 0x1 PUSH1 0x1 PUSH1 0xA0 SHL SUB AND SWAP2 PUSH4 0xA327AB69 SWAP2 PUSH1 0x4 DUP1 DUP4 ADD SWAP3 PUSH1 0x20 SWAP3 SWAP2 SWAP1 DUP3 SWAP1 SUB ADD DUP2 DUP7 GAS STATICCALL ISZERO DUP1 ISZERO PUSH2 0x1681 JUMPI RETURNDATASIZE PUSH1 0x0 DUP1 RETURNDATACOPY RETURNDATASIZE PUSH1 0x0 REVERT JUMPDEST POP POP POP POP PUSH1 0x40 MLOAD RETURNDATASIZE PUSH1 0x1F NOT PUSH1 0x1F DUP3 ADD AND DUP3 ADD DUP1 PUSH1 0x40 MSTORE POP DUP2 ADD SWAP1 PUSH2 0x16A5 SWAP2 SWAP1 PUSH2 0x281B JUMP JUMPDEST SWAP1 POP PUSH1 0x0 DUP2 PUSH1 0x1 PUSH1 0x1 PUSH1 0xA0 SHL SUB AND DUP7 DUP7 DUP7 DUP7 PUSH1 0x40 MLOAD PUSH1 0x24 ADD PUSH2 0x16CA SWAP5 SWAP4 SWAP3 SWAP2 SWAP1 PUSH2 0x2B31 JUMP JUMPDEST PUSH1 0x40 DUP1 MLOAD PUSH1 0x1F NOT DUP2 DUP5 SUB ADD DUP2 MSTORE SWAP2 DUP2 MSTORE PUSH1 0x20 DUP3 ADD DUP1 MLOAD PUSH1 0x1 PUSH1 0x1 PUSH1 0xE0 SHL SUB AND PUSH4 0xA1C89C9D PUSH1 0xE0 SHL OR SWAP1 MSTORE MLOAD PUSH2 0x727 SWAP2 SWAP1 PUSH2 0x2870 JUMP JUMPDEST PUSH1 0x60 PUSH1 0x83 DUP1 SLOAD DUP1 PUSH1 0x20 MUL PUSH1 0x20 ADD PUSH1 0x40 MLOAD SWAP1 DUP2 ADD PUSH1 0x40 MSTORE DUP1 SWAP3 SWAP2 SWAP1 DUP2 DUP2 MSTORE PUSH1 0x20 ADD PUSH1 0x0 SWAP1 JUMPDEST DUP3 DUP3 LT ISZERO PUSH2 0xCB5 JUMPI PUSH1 0x0 DUP5 DUP2 MSTORE PUSH1 0x20 SWAP1 DUP2 SWAP1 KECCAK256 PUSH1 0x40 DUP1 MLOAD PUSH2 0x120 DUP2 ADD SWAP1 SWAP2 MSTORE PUSH1 0x7 DUP6 MUL SWAP1 SWAP2 ADD DUP1 SLOAD PUSH1 0x1 PUSH1 0x1 PUSH1 0xA0 SHL SUB DUP2 AND DUP4 MSTORE SWAP2 SWAP3 SWAP1 SWAP2 SWAP1 DUP4 ADD SWAP1 PUSH1 0x1 PUSH1 0xA0 SHL SWAP1 DIV PUSH1 0xFF AND PUSH1 0x8 DUP2 GT ISZERO PUSH2 0x177A JUMPI PUSH2 0x177A PUSH2 0x25C2 JUMP JUMPDEST PUSH1 0x8 DUP2 GT ISZERO PUSH2 0x178B JUMPI PUSH2 0x178B PUSH2 0x25C2 JUMP JUMPDEST DUP2 MSTORE PUSH1 0x20 ADD PUSH1 0x1 DUP3 ADD DUP1 SLOAD PUSH2 0x179F SWAP1 PUSH2 0x2924 JUMP JUMPDEST DUP1 PUSH1 0x1F ADD PUSH1 0x20 DUP1 SWAP2 DIV MUL PUSH1 0x20 ADD PUSH1 0x40 MLOAD SWAP1 DUP2 ADD PUSH1 0x40 MSTORE DUP1 SWAP3 SWAP2 SWAP1 DUP2 DUP2 MSTORE PUSH1 0x20 ADD DUP3 DUP1 SLOAD PUSH2 0x17CB SWAP1 PUSH2 0x2924 JUMP JUMPDEST DUP1 ISZERO PUSH2 0x1818 JUMPI DUP1 PUSH1 0x1F LT PUSH2 0x17ED JUMPI PUSH2 0x100 DUP1 DUP4 SLOAD DIV MUL DUP4 MSTORE SWAP2 PUSH1 0x20 ADD SWAP2 PUSH2 0x1818 JUMP JUMPDEST DUP3 ADD SWAP2 SWAP1 PUSH1 0x0 MSTORE PUSH1 0x20 PUSH1 0x0 KECCAK256 SWAP1 JUMPDEST DUP2 SLOAD DUP2 MSTORE SWAP1 PUSH1 0x1 ADD SWAP1 PUSH1 0x20 ADD DUP1 DUP4 GT PUSH2 0x17FB JUMPI DUP3 SWAP1 SUB PUSH1 0x1F AND DUP3 ADD SWAP2 JUMPDEST POP POP POP SWAP2 DUP4 MSTORE POP POP PUSH1 0x2 DUP3 ADD SLOAD PUSH1 0x20 DUP1 DUP4 ADD SWAP2 SWAP1 SWAP2 MSTORE PUSH1 0x3 DUP4 ADD SLOAD PUSH1 0x40 DUP4 ADD MSTORE PUSH1 0x4 DUP4 ADD SLOAD PUSH1 0x60 DUP4 ADD MSTORE PUSH1 0x5 DUP4 ADD SLOAD PUSH1 0xFF DUP1 DUP3 AND ISZERO ISZERO PUSH1 0x80 DUP6 ADD MSTORE PUSH2 0x100 SWAP1 SWAP2 DIV AND ISZERO ISZERO PUSH1 0xA0 DUP4 ADD MSTORE PUSH1 0x6 SWAP1 SWAP3 ADD SLOAD PUSH1 0xC0 SWAP1 SWAP2 ADD MSTORE SWAP1 DUP3 MSTORE PUSH1 0x1 SWAP3 SWAP1 SWAP3 ADD SWAP2 ADD PUSH2 0x1723 JUMP JUMPDEST PUSH1 0x85 DUP2 DUP2 SLOAD DUP2 LT PUSH2 0x188D JUMPI PUSH1 0x0 DUP1 REVERT JUMPDEST PUSH1 0x0 SWAP2 DUP3 MSTORE PUSH1 0x20 SWAP1 SWAP2 KECCAK256 PUSH1 0x4 SWAP1 SWAP2 MUL ADD DUP1 SLOAD PUSH1 0x1 DUP3 ADD SLOAD PUSH1 0x2 DUP4 ADD SLOAD PUSH1 0x3 SWAP1 SWAP4 ADD SLOAD PUSH1 0x1 PUSH1 0x1 PUSH1 0xA0 SHL SUB SWAP3 DUP4 AND SWAP5 POP SWAP1 SWAP3 DUP3 AND SWAP2 AND DUP5 JUMP JUMPDEST PUSH1 0xC1 SLOAD PUSH1 0x40 DUP1 MLOAD PUSH4 0xA327AB69 PUSH1 0xE0 SHL DUP2 MSTORE SWAP1 MLOAD PUSH1 0x0 SWAP3 PUSH1 0x1 PUSH1 0x1 PUSH1 0xA0 SHL SUB AND SWAP2 PUSH4 0xA327AB69 SWAP2 PUSH1 0x4 DUP1 DUP4 ADD SWAP3 PUSH1 0x20 SWAP3 SWAP2 SWAP1 DUP3 SWAP1 SUB ADD DUP2 DUP7 GAS STATICCALL ISZERO DUP1 ISZERO PUSH2 0x190F JUMPI RETURNDATASIZE PUSH1 0x0 DUP1 RETURNDATACOPY RETURNDATASIZE PUSH1 0x0 REVERT JUMPDEST POP POP POP POP PUSH1 0x40 MLOAD RETURNDATASIZE PUSH1 0x1F NOT PUSH1 0x1F DUP3 ADD AND DUP3 ADD DUP1 PUSH1 0x40 MSTORE POP DUP2 ADD SWAP1 PUSH2 0x1933 SWAP2 SWAP1 PUSH2 0x281B JUMP JUMPDEST SWAP1 POP PUSH1 0x0 DUP2 PUSH1 0x1 PUSH1 0x1 PUSH1 0xA0 SHL SUB AND DUP7 DUP7 DUP7 DUP7 PUSH1 0x40 MLOAD PUSH1 0x24 ADD PUSH2 0x1958 SWAP5 SWAP4 SWAP3 SWAP2 SWAP1 PUSH2 0x2B9B JUMP JUMPDEST PUSH1 0x40 DUP1 MLOAD PUSH1 0x1F NOT DUP2 DUP5 SUB ADD DUP2 MSTORE SWAP2 DUP2 MSTORE PUSH1 0x20 DUP3 ADD DUP1 MLOAD PUSH1 0x1 PUSH1 0x1 PUSH1 0xE0 SHL SUB AND PUSH4 0x18567541 PUSH1 0xE3 SHL OR SWAP1 MSTORE MLOAD PUSH2 0x198D SWAP2 SWAP1 PUSH2 0x2870 JUMP JUMPDEST PUSH1 0x0 PUSH1 0x40 MLOAD DUP1 DUP4 SUB DUP2 DUP6 GAS DELEGATECALL SWAP2 POP POP RETURNDATASIZE DUP1 PUSH1 0x0 DUP2 EQ PUSH2 0x19C8 JUMPI PUSH1 0x40 MLOAD SWAP2 POP PUSH1 0x1F NOT PUSH1 0x3F RETURNDATASIZE ADD AND DUP3 ADD PUSH1 0x40 MSTORE RETURNDATASIZE DUP3 MSTORE RETURNDATASIZE PUSH1 0x0 PUSH1 0x20 DUP5 ADD RETURNDATACOPY PUSH2 0x19CD JUMP JUMPDEST PUSH1 0x60 SWAP2 POP JUMPDEST POP POP SWAP1 POP DUP1 PUSH2 0x19E3 JUMPI PUSH1 0x40 MLOAD RETURNDATASIZE DUP1 PUSH1 0x0 DUP4 RETURNDATACOPY DUP1 DUP3 REVERT JUMPDEST POP POP POP POP POP POP JUMP JUMPDEST PUSH1 0xA5 PUSH1 0x20 SWAP1 DUP2 MSTORE PUSH1 0x0 SWAP3 DUP4 MSTORE PUSH1 0x40 DUP1 DUP5 KECCAK256 SWAP1 SWAP2 MSTORE SWAP1 DUP3 MSTORE SWAP1 KECCAK256 DUP1 SLOAD PUSH1 0x1 DUP3 ADD DUP1 SLOAD PUSH1 0xFF DUP1 DUP5 AND SWAP5 PUSH2 0x100 SWAP1 SWAP5 DIV AND SWAP3 SWAP2 SWAP1 PUSH2 0x1A25 SWAP1 PUSH2 0x2924 JUMP JUMPDEST DUP1 PUSH1 0x1F ADD PUSH1 0x20 DUP1 SWAP2 DIV MUL PUSH1 0x20 ADD PUSH1 0x40 MLOAD SWAP1 DUP2 ADD PUSH1 0x40 MSTORE DUP1 SWAP3 SWAP2 SWAP1 DUP2 DUP2 MSTORE PUSH1 0x20 ADD DUP3 DUP1 SLOAD PUSH2 0x1A51 SWAP1 PUSH2 0x2924 JUMP JUMPDEST DUP1 ISZERO PUSH2 0x1A9E JUMPI DUP1 PUSH1 0x1F LT PUSH2 0x1A73 JUMPI PUSH2 0x100 DUP1 DUP4 SLOAD DIV MUL DUP4 MSTORE SWAP2 PUSH1 0x20 ADD SWAP2 PUSH2 0x1A9E JUMP JUMPDEST DUP3 ADD SWAP2 SWAP1 PUSH1 0x0 MSTORE PUSH1 0x20 PUSH1 0x0 KECCAK256 SWAP1 JUMPDEST DUP2 SLOAD DUP2 MSTORE SWAP1 PUSH1 0x1 ADD SWAP1 PUSH1 0x20 ADD DUP1 DUP4 GT PUSH2 0x1A81 JUMPI DUP3 SWAP1 SUB PUSH1 0x1F AND DUP3 ADD SWAP2 JUMPDEST POP POP POP POP POP SWAP1 POP DUP4 JUMP JUMPDEST PUSH1 0x83 DUP2 DUP2 SLOAD DUP2 LT PUSH2 0x1AB8 JUMPI PUSH1 0x0 DUP1 REVERT JUMPDEST PUSH1 0x0 SWAP2 DUP3 MSTORE PUSH1 0x20 SWAP1 SWAP2 KECCAK256 PUSH1 0x7 SWAP1 SWAP2 MUL ADD DUP1 SLOAD PUSH1 0x1 DUP3 ADD DUP1 SLOAD PUSH1 0x1 PUSH1 0x1 PUSH1 0xA0 SHL SUB DUP4 AND SWAP5 POP PUSH1 0x1 PUSH1 0xA0 SHL SWAP1 SWAP3 DIV PUSH1 0xFF AND SWAP3 SWAP2 PUSH2 0x1AF2 SWAP1 PUSH2 0x2924 JUMP JUMPDEST DUP1 PUSH1 0x1F ADD PUSH1 0x20 DUP1 SWAP2 DIV MUL PUSH1 0x20 ADD PUSH1 0x40 MLOAD SWAP1 DUP2 ADD PUSH1 0x40 MSTORE DUP1 SWAP3 SWAP2 SWAP1 DUP2 DUP2 MSTORE PUSH1 0x20 ADD DUP3 DUP1 SLOAD PUSH2 0x1B1E SWAP1 PUSH2 0x2924 JUMP JUMPDEST DUP1 ISZERO PUSH2 0x1B6B JUMPI DUP1 PUSH1 0x1F LT PUSH2 0x1B40 JUMPI PUSH2 0x100 DUP1 DUP4 SLOAD DIV MUL DUP4 MSTORE SWAP2 PUSH1 0x20 ADD SWAP2 PUSH2 0x1B6B JUMP JUMPDEST DUP3 ADD SWAP2 SWAP1 PUSH1 0x0 MSTORE PUSH1 0x20 PUSH1 0x0 KECCAK256 SWAP1 JUMPDEST DUP2 SLOAD DUP2 MSTORE SWAP1 PUSH1 0x1 ADD SWAP1 PUSH1 0x20 ADD DUP1 DUP4 GT PUSH2 0x1B4E JUMPI DUP3 SWAP1 SUB PUSH1 0x1F AND DUP3 ADD SWAP2 JUMPDEST POP POP POP PUSH1 0x2 DUP5 ADD SLOAD PUSH1 0x3 DUP6 ADD SLOAD PUSH1 0x4 DUP7 ADD SLOAD PUSH1 0x5 DUP8 ADD SLOAD PUSH1 0x6 SWAP1 SWAP8 ADD SLOAD SWAP6 SWAP7 SWAP3 SWAP6 SWAP2 SWAP5 POP SWAP3 POP PUSH1 0xFF DUP1 DUP4 AND SWAP3 PUSH2 0x100 SWAP1 DIV AND SWAP1 DUP10 JUMP JUMPDEST PUSH1 0x0 DUP1 PUSH1 0xC1 PUSH1 0x0 SWAP1 SLOAD SWAP1 PUSH2 0x100 EXP SWAP1 DIV PUSH1 0x1 PUSH1 0x1 PUSH1 0xA0 SHL SUB AND PUSH1 0x1 PUSH1 0x1 PUSH1 0xA0 SHL SUB AND PUSH4 0xA327AB69 PUSH1 0x40 MLOAD DUP2 PUSH4 0xFFFFFFFF AND PUSH1 0xE0 SHL DUP2 MSTORE PUSH1 0x4 ADD PUSH1 0x20 PUSH1 0x40 MLOAD DUP1 DUP4 SUB DUP2 DUP7 GAS STATICCALL ISZERO DUP1 ISZERO PUSH2 0x1BF7 JUMPI RETURNDATASIZE PUSH1 0x0 DUP1 RETURNDATACOPY RETURNDATASIZE PUSH1 0x0 REVERT JUMPDEST POP POP POP POP PUSH1 0x40 MLOAD RETURNDATASIZE PUSH1 0x1F NOT PUSH1 0x1F DUP3 ADD AND DUP3 ADD DUP1 PUSH1 0x40 MSTORE POP DUP2 ADD SWAP1 PUSH2 0x1C1B SWAP2 SWAP1 PUSH2 0x281B JUMP JUMPDEST SWAP1 POP PUSH1 0x0 DUP2 PUSH1 0x1 PUSH1 0x1 PUSH1 0xA0 SHL SUB AND DUP9 DUP9 DUP9 DUP9 DUP9 PUSH1 0x40 MLOAD PUSH1 0x24 ADD PUSH2 0x1C42 SWAP6 SWAP5 SWAP4 SWAP3 SWAP2 SWAP1 PUSH2 0x2BCE JUMP JUMPDEST PUSH1 0x40 DUP1 MLOAD PUSH1 0x1F NOT DUP2 DUP5 SUB ADD DUP2 MSTORE SWAP2 DUP2 MSTORE PUSH1 0x20 DUP3 ADD DUP1 MLOAD PUSH1 0x1 PUSH1 0x1 PUSH1 0xE0 SHL SUB AND PUSH4 0x6F2D58A7 PUSH1 0xE1 SHL OR SWAP1 MSTORE MLOAD PUSH2 0x1C77 SWAP2 SWAP1 PUSH2 0x2870 JUMP JUMPDEST PUSH1 0x0 PUSH1 0x40 MLOAD DUP1 DUP4 SUB DUP2 DUP6 GAS DELEGATECALL SWAP2 POP POP RETURNDATASIZE DUP1 PUSH1 0x0 DUP2 EQ PUSH2 0x1CB2 JUMPI PUSH1 0x40 MLOAD SWAP2 POP PUSH1 0x1F NOT PUSH1 0x3F RETURNDATASIZE ADD AND DUP3 ADD PUSH1 0x40 MSTORE RETURNDATASIZE DUP3 MSTORE RETURNDATASIZE PUSH1 0x0 PUSH1 0x20 DUP5 ADD RETURNDATACOPY PUSH2 0x1CB7 JUMP JUMPDEST PUSH1 0x60 SWAP2 POP JUMPDEST POP POP SWAP1 POP PUSH1 0x40 MLOAD RETURNDATASIZE DUP1 PUSH1 0x0 DUP4 RETURNDATACOPY DUP3 PUSH2 0x1CCD JUMPI DUP1 DUP3 REVERT JUMPDEST POP MLOAD SWAP9 SWAP8 POP POP POP POP POP POP POP POP JUMP JUMPDEST PUSH1 0x1 PUSH1 0x1 PUSH1 0xA0 SHL SUB DUP2 AND DUP2 EQ PUSH2 0x1CF0 JUMPI PUSH1 0x0 DUP1 REVERT JUMPDEST POP JUMP JUMPDEST PUSH4 0x4E487B71 PUSH1 0xE0 SHL PUSH1 0x0 MSTORE PUSH1 0x41 PUSH1 0x4 MSTORE PUSH1 0x24 PUSH1 0x0 REVERT JUMPDEST PUSH1 0x40 MLOAD PUSH1 0x60 DUP2 ADD PUSH1 0x1 PUSH1 0x1 PUSH1 0x40 SHL SUB DUP2 GT DUP3 DUP3 LT OR ISZERO PUSH2 0x1D2B JUMPI PUSH2 0x1D2B PUSH2 0x1CF3 JUMP JUMPDEST PUSH1 0x40 MSTORE SWAP1 JUMP JUMPDEST PUSH1 0x40 MLOAD PUSH1 0x1F DUP3 ADD PUSH1 0x1F NOT AND DUP2 ADD PUSH1 0x1 PUSH1 0x1 PUSH1 0x40 SHL SUB DUP2 GT DUP3 DUP3 LT OR ISZERO PUSH2 0x1D59 JUMPI PUSH2 0x1D59 PUSH2 0x1CF3 JUMP JUMPDEST PUSH1 0x40 MSTORE SWAP2 SWAP1 POP JUMP JUMPDEST PUSH1 0x0 DUP3 PUSH1 0x1F DUP4 ADD SLT PUSH2 0x1D72 JUMPI PUSH1 0x0 DUP1 REVERT JUMPDEST DUP2 CALLDATALOAD PUSH1 0x1 PUSH1 0x1 PUSH1 0x40 SHL SUB DUP2 GT ISZERO PUSH2 0x1D8B JUMPI PUSH2 0x1D8B PUSH2 0x1CF3 JUMP JUMPDEST PUSH2 0x1D9E PUSH1 0x1F DUP3 ADD PUSH1 0x1F NOT AND PUSH1 0x20 ADD PUSH2 0x1D31 JUMP JUMPDEST DUP2 DUP2 MSTORE DUP5 PUSH1 0x20 DUP4 DUP7 ADD ADD GT ISZERO PUSH2 0x1DB3 JUMPI PUSH1 0x0 DUP1 REVERT JUMPDEST DUP2 PUSH1 0x20 DUP6 ADD PUSH1 0x20 DUP4 ADD CALLDATACOPY PUSH1 0x0 SWAP2 DUP2 ADD PUSH1 0x20 ADD SWAP2 SWAP1 SWAP2 MSTORE SWAP4 SWAP3 POP POP POP JUMP JUMPDEST PUSH1 0x0 DUP1 PUSH1 0x0 DUP1 PUSH1 0x80 DUP6 DUP8 SUB SLT ISZERO PUSH2 0x1DE6 JUMPI PUSH1 0x0 DUP1 REVERT JUMPDEST DUP5 CALLDATALOAD PUSH2 0x1DF1 DUP2 PUSH2 0x1CDB JUMP JUMPDEST SWAP4 POP PUSH1 0x20 DUP6 ADD CALLDATALOAD SWAP3 POP PUSH1 0x40 DUP6 ADD CALLDATALOAD PUSH1 0x1 PUSH1 0x1 PUSH1 0x40 SHL SUB DUP2 GT ISZERO PUSH2 0x1E13 JUMPI PUSH1 0x0 DUP1 REVERT JUMPDEST PUSH2 0x1E1F DUP8 DUP3 DUP9 ADD PUSH2 0x1D61 JUMP JUMPDEST SWAP5 SWAP8 SWAP4 SWAP7 POP SWAP4 SWAP5 PUSH1 0x60 ADD CALLDATALOAD SWAP4 POP POP POP JUMP JUMPDEST PUSH1 0x0 DUP1 PUSH1 0x0 DUP1 PUSH1 0x80 DUP6 DUP8 SUB SLT ISZERO PUSH2 0x1E46 JUMPI PUSH1 0x0 DUP1 REVERT JUMPDEST DUP5 CALLDATALOAD PUSH1 0x1 PUSH1 0x1 PUSH1 0x40 SHL SUB DUP1 DUP3 GT ISZERO PUSH2 0x1E5D JUMPI PUSH1 0x0 DUP1 REVERT JUMPDEST PUSH2 0x1E69 DUP9 DUP4 DUP10 ADD PUSH2 0x1D61 JUMP JUMPDEST SWAP6 POP PUSH1 0x20 DUP8 ADD CALLDATALOAD SWAP2 POP DUP1 DUP3 GT ISZERO PUSH2 0x1E7F JUMPI PUSH1 0x0 DUP1 REVERT JUMPDEST PUSH2 0x1E8B DUP9 DUP4 DUP10 ADD PUSH2 0x1D61 JUMP JUMPDEST SWAP5 POP PUSH1 0x40 DUP8 ADD CALLDATALOAD SWAP2 POP PUSH2 0x1E9D DUP3 PUSH2 0x1CDB JUMP JUMPDEST SWAP1 SWAP3 POP PUSH1 0x60 DUP7 ADD CALLDATALOAD SWAP1 DUP1 DUP3 GT ISZERO PUSH2 0x1EB3 JUMPI PUSH1 0x0 DUP1 REVERT JUMPDEST POP PUSH2 0x1EC0 DUP8 DUP3 DUP9 ADD PUSH2 0x1D61 JUMP JUMPDEST SWAP2 POP POP SWAP3 SWAP6 SWAP2 SWAP5 POP SWAP3 POP JUMP JUMPDEST PUSH1 0x0 DUP1 PUSH1 0x0 DUP1 PUSH1 0x0 PUSH1 0xA0 DUP7 DUP9 SUB SLT ISZERO PUSH2 0x1EE4 JUMPI PUSH1 0x0 DUP1 REVERT JUMPDEST DUP6 CALLDATALOAD PUSH2 0x1EEF DUP2 PUSH2 0x1CDB JUMP JUMPDEST SWAP5 POP PUSH1 0x20 DUP7 ADD CALLDATALOAD PUSH2 0x1EFF DUP2 PUSH2 0x1CDB JUMP JUMPDEST SWAP4 POP PUSH1 0x40 DUP7 ADD CALLDATALOAD SWAP3 POP PUSH1 0x60 DUP7 ADD CALLDATALOAD PUSH1 0x1 PUSH1 0x1 PUSH1 0x40 SHL SUB DUP2 GT ISZERO PUSH2 0x1F21 JUMPI PUSH1 0x0 DUP1 REVERT JUMPDEST PUSH2 0x1F2D DUP9 DUP3 DUP10 ADD PUSH2 0x1D61 JUMP JUMPDEST SWAP6 SWAP9 SWAP5 SWAP8 POP SWAP3 SWAP6 PUSH1 0x80 ADD CALLDATALOAD SWAP4 SWAP3 POP POP POP JUMP JUMPDEST PUSH1 0x0 PUSH1 0x20 DUP3 DUP5 SUB SLT ISZERO PUSH2 0x1F51 JUMPI PUSH1 0x0 DUP1 REVERT JUMPDEST POP CALLDATALOAD SWAP2 SWAP1 POP JUMP JUMPDEST PUSH1 0x0 JUMPDEST DUP4 DUP2 LT ISZERO PUSH2 0x1F73 JUMPI DUP2 DUP2 ADD MLOAD DUP4 DUP3 ADD MSTORE PUSH1 0x20 ADD PUSH2 0x1F5B JUMP JUMPDEST DUP4 DUP2 GT ISZERO PUSH2 0x1631 JUMPI POP POP PUSH1 0x0 SWAP2 ADD MSTORE JUMP JUMPDEST PUSH1 0x0 DUP2 MLOAD DUP1 DUP5 MSTORE PUSH2 0x1F9C DUP2 PUSH1 0x20 DUP7 ADD PUSH1 0x20 DUP7 ADD PUSH2 0x1F58 JUMP JUMPDEST PUSH1 0x1F ADD PUSH1 0x1F NOT AND SWAP3 SWAP1 SWAP3 ADD PUSH1 0x20 ADD SWAP3 SWAP2 POP POP JUMP JUMPDEST PUSH1 0x1 PUSH1 0x1 PUSH1 0xA0 SHL SUB DUP5 AND DUP2 MSTORE PUSH1 0x60 PUSH1 0x20 DUP3 ADD DUP2 SWAP1 MSTORE PUSH1 0x0 SWAP1 PUSH2 0x1FD4 SWAP1 DUP4 ADD DUP6 PUSH2 0x1F84 JUMP JUMPDEST SWAP1 POP DUP3 ISZERO ISZERO PUSH1 0x40 DUP4 ADD MSTORE SWAP5 SWAP4 POP POP POP POP JUMP JUMPDEST PUSH1 0x1 PUSH1 0x1 PUSH1 0xA0 SHL SUB DUP7 AND DUP2 MSTORE PUSH1 0xA0 PUSH1 0x20 DUP3 ADD DUP2 SWAP1 MSTORE PUSH1 0x0 SWAP1 PUSH2 0x200A SWAP1 DUP4 ADD DUP8 PUSH2 0x1F84 JUMP JUMPDEST PUSH1 0x40 DUP4 ADD SWAP6 SWAP1 SWAP6 MSTORE POP SWAP2 ISZERO ISZERO PUSH1 0x60 DUP4 ADD MSTORE ISZERO ISZERO PUSH1 0x80 SWAP1 SWAP2 ADD MSTORE SWAP3 SWAP2 POP POP JUMP JUMPDEST PUSH1 0x0 PUSH1 0x20 DUP1 DUP4 ADD DUP2 DUP5 MSTORE DUP1 DUP6 MLOAD DUP1 DUP4 MSTORE PUSH1 0x40 SWAP3 POP DUP3 DUP7 ADD SWAP2 POP DUP3 DUP2 PUSH1 0x5 SHL DUP8 ADD ADD DUP5 DUP9 ADD PUSH1 0x0 JUMPDEST DUP4 DUP2 LT ISZERO PUSH2 0x20A9 JUMPI DUP9 DUP4 SUB PUSH1 0x3F NOT ADD DUP6 MSTORE DUP2 MLOAD DUP1 MLOAD PUSH1 0x1 PUSH1 0x1 PUSH1 0xA0 SHL SUB AND DUP5 MSTORE DUP8 DUP2 ADD MLOAD PUSH1 0x60 DUP10 DUP7 ADD DUP2 SWAP1 MSTORE SWAP1 PUSH2 0x2089 DUP3 DUP8 ADD DUP3 PUSH2 0x1F84 JUMP JUMPDEST SWAP3 DUP10 ADD MLOAD ISZERO ISZERO SWAP6 DUP10 ADD SWAP6 SWAP1 SWAP6 MSTORE POP SWAP5 DUP8 ADD SWAP5 SWAP3 POP SWAP1 DUP7 ADD SWAP1 PUSH1 0x1 ADD PUSH2 0x2050 JUMP JUMPDEST POP SWAP1 SWAP9 SWAP8 POP POP POP POP POP POP POP POP JUMP JUMPDEST PUSH1 0x0 DUP1 PUSH1 0x0 DUP1 PUSH1 0x80 DUP6 DUP8 SUB SLT ISZERO PUSH2 0x20CD JUMPI PUSH1 0x0 DUP1 REVERT JUMPDEST DUP5 CALLDATALOAD PUSH2 0x20D8 DUP2 PUSH2 0x1CDB JUMP JUMPDEST SWAP4 POP PUSH1 0x20 DUP6 ADD CALLDATALOAD PUSH1 0x1 PUSH1 0x1 PUSH1 0x40 SHL SUB DUP1 DUP3 GT ISZERO PUSH2 0x20F4 JUMPI PUSH1 0x0 DUP1 REVERT JUMPDEST PUSH2 0x2100 DUP9 DUP4 DUP10 ADD PUSH2 0x1D61 JUMP JUMPDEST SWAP5 POP PUSH1 0x40 DUP8 ADD CALLDATALOAD SWAP4 POP PUSH1 0x60 DUP8 ADD CALLDATALOAD SWAP2 POP DUP1 DUP3 GT ISZERO PUSH2 0x1EB3 JUMPI PUSH1 0x0 DUP1 REVERT JUMPDEST DUP1 CALLDATALOAD DUP1 ISZERO ISZERO DUP2 EQ PUSH2 0x212D JUMPI PUSH1 0x0 DUP1 REVERT JUMPDEST SWAP2 SWAP1 POP JUMP JUMPDEST PUSH1 0x0 DUP1 PUSH1 0x0 DUP1 PUSH1 0x0 DUP1 PUSH1 0xC0 DUP8 DUP10 SUB SLT ISZERO PUSH2 0x214B JUMPI PUSH1 0x0 DUP1 REVERT JUMPDEST DUP7 CALLDATALOAD PUSH2 0x2156 DUP2 PUSH2 0x1CDB JUMP JUMPDEST SWAP6 POP PUSH1 0x20 DUP8 ADD CALLDATALOAD PUSH1 0x1 PUSH1 0x1 PUSH1 0x40 SHL SUB DUP1 DUP3 GT ISZERO PUSH2 0x2172 JUMPI PUSH1 0x0 DUP1 REVERT JUMPDEST PUSH2 0x217E DUP11 DUP4 DUP12 ADD PUSH2 0x1D61 JUMP JUMPDEST SWAP7 POP PUSH1 0x40 DUP10 ADD CALLDATALOAD SWAP2 POP DUP1 DUP3 GT ISZERO PUSH2 0x2194 JUMPI PUSH1 0x0 DUP1 REVERT JUMPDEST PUSH2 0x21A0 DUP11 DUP4 DUP12 ADD PUSH2 0x1D61 JUMP JUMPDEST SWAP6 POP PUSH2 0x21AE PUSH1 0x60 DUP11 ADD PUSH2 0x211D JUMP JUMPDEST SWAP5 POP PUSH1 0x80 DUP10 ADD CALLDATALOAD SWAP4 POP PUSH1 0xA0 DUP10 ADD CALLDATALOAD SWAP2 POP DUP1 DUP3 GT ISZERO PUSH2 0x21CB JUMPI PUSH1 0x0 DUP1 REVERT JUMPDEST POP PUSH2 0x21D8 DUP10 DUP3 DUP11 ADD PUSH2 0x1D61 JUMP JUMPDEST SWAP2 POP POP SWAP3 SWAP6 POP SWAP3 SWAP6 POP SWAP3 SWAP6 JUMP JUMPDEST PUSH1 0x0 PUSH1 0x20 DUP3 DUP5 SUB SLT ISZERO PUSH2 0x21F7 JUMPI PUSH1 0x0 DUP1 REVERT JUMPDEST DUP2 CALLDATALOAD PUSH2 0x2202 DUP2 PUSH2 0x1CDB JUMP JUMPDEST SWAP4 SWAP3 POP POP POP JUMP JUMPDEST PUSH1 0x0 DUP3 PUSH1 0x1F DUP4 ADD SLT PUSH2 0x221A JUMPI PUSH1 0x0 DUP1 REVERT JUMPDEST PUSH1 0x40 MLOAD PUSH1 0xA0 DUP2 ADD DUP2 DUP2 LT PUSH1 0x1 PUSH1 0x1 PUSH1 0x40 SHL SUB DUP3 GT OR ISZERO PUSH2 0x223C JUMPI PUSH2 0x223C PUSH2 0x1CF3 JUMP JUMPDEST PUSH1 0x40 MSTORE DUP1 PUSH1 0xA0 DUP5 ADD DUP6 DUP2 GT ISZERO PUSH2 0x2251 JUMPI PUSH1 0x0 DUP1 REVERT JUMPDEST DUP5 JUMPDEST DUP2 DUP2 LT ISZERO PUSH2 0x2274 JUMPI DUP1 CALLDATALOAD PUSH2 0x2266 DUP2 PUSH2 0x1CDB JUMP JUMPDEST DUP4 MSTORE PUSH1 0x20 SWAP3 DUP4 ADD SWAP3 ADD PUSH2 0x2253 JUMP JUMPDEST POP SWAP2 SWAP6 SWAP5 POP POP POP POP POP JUMP JUMPDEST PUSH1 0x0 PUSH1 0x1 PUSH1 0x1 PUSH1 0x40 SHL SUB DUP3 GT ISZERO PUSH2 0x2298 JUMPI PUSH2 0x2298 PUSH2 0x1CF3 JUMP JUMPDEST POP PUSH1 0x5 SHL PUSH1 0x20 ADD SWAP1 JUMP JUMPDEST PUSH1 0x0 DUP3 PUSH1 0x1F DUP4 ADD SLT PUSH2 0x22B3 JUMPI PUSH1 0x0 DUP1 REVERT JUMPDEST DUP2 CALLDATALOAD PUSH1 0x20 PUSH2 0x22C8 PUSH2 0x22C3 DUP4 PUSH2 0x227F JUMP JUMPDEST PUSH2 0x1D31 JUMP JUMPDEST DUP3 DUP2 MSTORE PUSH1 0x5 SWAP3 SWAP1 SWAP3 SHL DUP5 ADD DUP2 ADD SWAP2 DUP2 DUP2 ADD SWAP1 DUP7 DUP5 GT ISZERO PUSH2 0x22E7 JUMPI PUSH1 0x0 DUP1 REVERT JUMPDEST DUP3 DUP7 ADD JUMPDEST DUP5 DUP2 LT ISZERO PUSH2 0x230B JUMPI DUP1 CALLDATALOAD PUSH2 0x22FE DUP2 PUSH2 0x1CDB JUMP JUMPDEST DUP4 MSTORE SWAP2 DUP4 ADD SWAP2 DUP4 ADD PUSH2 0x22EB JUMP JUMPDEST POP SWAP7 SWAP6 POP POP POP POP POP POP JUMP JUMPDEST PUSH1 0x0 DUP1 PUSH1 0x0 DUP1 PUSH1 0x0 DUP1 PUSH1 0x0 DUP1 PUSH2 0x1C0 DUP10 DUP12 SUB SLT ISZERO PUSH2 0x2333 JUMPI PUSH1 0x0 DUP1 REVERT JUMPDEST DUP9 CALLDATALOAD PUSH2 0x233E DUP2 PUSH2 0x1CDB JUMP JUMPDEST SWAP8 POP PUSH1 0x20 DUP10 DUP2 ADD CALLDATALOAD PUSH1 0x1 PUSH1 0x1 PUSH1 0x40 SHL SUB DUP1 DUP3 GT ISZERO PUSH2 0x235B JUMPI PUSH1 0x0 DUP1 REVERT JUMPDEST PUSH2 0x2367 DUP14 DUP4 DUP15 ADD PUSH2 0x1D61 JUMP JUMPDEST SWAP10 POP PUSH2 0x2375 PUSH1 0x40 DUP14 ADD PUSH2 0x211D JUMP JUMPDEST SWAP9 POP PUSH2 0x2383 PUSH1 0x60 DUP14 ADD PUSH2 0x211D JUMP JUMPDEST SWAP8 POP PUSH1 0x80 DUP13 ADD CALLDATALOAD SWAP7 POP DUP13 PUSH1 0xBF DUP14 ADD SLT PUSH2 0x239B JUMPI PUSH1 0x0 DUP1 REVERT JUMPDEST PUSH2 0x23A3 PUSH2 0x1D09 JUMP JUMPDEST SWAP2 POP DUP2 PUSH2 0x100 DUP14 ADD DUP15 DUP2 GT ISZERO PUSH2 0x23B8 JUMPI PUSH1 0x0 DUP1 REVERT JUMPDEST PUSH1 0xA0 DUP15 ADD JUMPDEST DUP2 DUP2 LT ISZERO PUSH2 0x23D4 JUMPI DUP1 CALLDATALOAD DUP6 MSTORE SWAP4 DUP6 ADD SWAP4 DUP6 ADD PUSH2 0x23BD JUMP JUMPDEST POP DUP2 SWAP8 POP PUSH2 0x23E2 DUP16 DUP3 PUSH2 0x2209 JUMP JUMPDEST SWAP7 POP POP POP PUSH2 0x1A0 DUP13 ADD CALLDATALOAD SWAP3 POP DUP1 DUP4 GT ISZERO PUSH2 0x23FB JUMPI PUSH1 0x0 DUP1 REVERT JUMPDEST POP POP PUSH2 0x2409 DUP12 DUP3 DUP13 ADD PUSH2 0x22A2 JUMP JUMPDEST SWAP2 POP POP SWAP3 SWAP6 SWAP9 POP SWAP3 SWAP6 SWAP9 SWAP1 SWAP4 SWAP7 POP JUMP JUMPDEST PUSH1 0x20 DUP2 MSTORE PUSH1 0x0 PUSH2 0x2202 PUSH1 0x20 DUP4 ADD DUP5 PUSH2 0x1F84 JUMP JUMPDEST PUSH1 0x0 DUP1 PUSH1 0x0 PUSH1 0x60 DUP5 DUP7 SUB SLT ISZERO PUSH2 0x2441 JUMPI PUSH1 0x0 DUP1 REVERT JUMPDEST DUP4 CALLDATALOAD SWAP3 POP PUSH1 0x20 DUP5 ADD CALLDATALOAD PUSH1 0x1 PUSH1 0x1 PUSH1 0x40 SHL SUB DUP2 GT ISZERO PUSH2 0x245E JUMPI PUSH1 0x0 DUP1 REVERT JUMPDEST PUSH2 0x246A DUP7 DUP3 DUP8 ADD PUSH2 0x1D61 JUMP JUMPDEST SWAP3 POP POP PUSH1 0x40 DUP5 ADD CALLDATALOAD SWAP1 POP SWAP3 POP SWAP3 POP SWAP3 JUMP JUMPDEST DUP3 ISZERO ISZERO DUP2 MSTORE PUSH1 0x40 PUSH1 0x20 DUP3 ADD MSTORE PUSH1 0x0 PUSH2 0x2496 PUSH1 0x40 DUP4 ADD DUP5 PUSH2 0x1F84 JUMP JUMPDEST SWAP5 SWAP4 POP POP POP POP JUMP JUMPDEST PUSH1 0x0 DUP1 PUSH1 0x40 DUP4 DUP6 SUB SLT ISZERO PUSH2 0x24B1 JUMPI PUSH1 0x0 DUP1 REVERT JUMPDEST PUSH2 0x24BA DUP4 PUSH2 0x211D JUMP JUMPDEST SWAP2 POP PUSH1 0x20 DUP4 ADD CALLDATALOAD PUSH1 0x1 PUSH1 0x1 PUSH1 0x40 SHL SUB DUP2 GT ISZERO PUSH2 0x24D5 JUMPI PUSH1 0x0 DUP1 REVERT JUMPDEST PUSH2 0x24E1 DUP6 DUP3 DUP7 ADD PUSH2 0x1D61 JUMP JUMPDEST SWAP2 POP POP SWAP3 POP SWAP3 SWAP1 POP JUMP JUMPDEST PUSH1 0x0 DUP1 PUSH1 0x0 DUP1 PUSH1 0x80 DUP6 DUP8 SUB SLT ISZERO PUSH2 0x2501 JUMPI PUSH1 0x0 DUP1 REVERT JUMPDEST DUP5 CALLDATALOAD PUSH1 0x1 PUSH1 0x1 PUSH1 0x40 SHL SUB DUP1 DUP3 GT ISZERO PUSH2 0x2518 JUMPI PUSH1 0x0 DUP1 REVERT JUMPDEST DUP2 DUP8 ADD SWAP2 POP DUP8 PUSH1 0x1F DUP4 ADD SLT PUSH2 0x252C JUMPI PUSH1 0x0 DUP1 REVERT JUMPDEST DUP2 CALLDATALOAD PUSH1 0x20 PUSH2 0x253C PUSH2 0x22C3 DUP4 PUSH2 0x227F JUMP JUMPDEST DUP3 DUP2 MSTORE PUSH1 0x5 SWAP3 SWAP1 SWAP3 SHL DUP5 ADD DUP2 ADD SWAP2 DUP2 DUP2 ADD SWAP1 DUP12 DUP5 GT ISZERO PUSH2 0x255B JUMPI PUSH1 0x0 DUP1 REVERT JUMPDEST SWAP5 DUP3 ADD SWAP5 JUMPDEST DUP4 DUP7 LT ISZERO PUSH2 0x2579 JUMPI DUP6 CALLDATALOAD DUP3 MSTORE SWAP5 DUP3 ADD SWAP5 SWAP1 DUP3 ADD SWAP1 PUSH2 0x2560 JUMP JUMPDEST SWAP9 POP PUSH2 0x2588 SWAP1 POP DUP10 DUP3 ADD PUSH2 0x211D JUMP JUMPDEST SWAP7 POP POP POP PUSH1 0x40 DUP8 ADD CALLDATALOAD SWAP2 POP DUP1 DUP3 GT ISZERO PUSH2 0x25A0 JUMPI PUSH1 0x0 DUP1 REVERT JUMPDEST PUSH2 0x25AC DUP9 DUP4 DUP10 ADD PUSH2 0x1D61 JUMP JUMPDEST SWAP4 POP PUSH1 0x60 DUP8 ADD CALLDATALOAD SWAP2 POP DUP1 DUP3 GT ISZERO PUSH2 0x1EB3 JUMPI PUSH1 0x0 DUP1 REVERT JUMPDEST PUSH4 0x4E487B71 PUSH1 0xE0 SHL PUSH1 0x0 MSTORE PUSH1 0x21 PUSH1 0x4 MSTORE PUSH1 0x24 PUSH1 0x0 REVERT JUMPDEST PUSH1 0x9 DUP2 LT PUSH2 0x25F6 JUMPI PUSH4 0x4E487B71 PUSH1 0xE0 SHL PUSH1 0x0 MSTORE PUSH1 0x21 PUSH1 0x4 MSTORE PUSH1 0x24 PUSH1 0x0 REVERT JUMPDEST SWAP1 MSTORE JUMP JUMPDEST PUSH1 0x0 PUSH1 0x20 DUP1 DUP4 ADD DUP2 DUP5 MSTORE DUP1 DUP6 MLOAD DUP1 DUP4 MSTORE PUSH1 0x40 SWAP3 POP DUP3 DUP7 ADD SWAP2 POP DUP3 DUP2 PUSH1 0x5 SHL DUP8 ADD ADD DUP5 DUP9 ADD PUSH1 0x0 JUMPDEST DUP4 DUP2 LT ISZERO PUSH2 0x20A9 JUMPI DUP9 DUP4 SUB PUSH1 0x3F NOT ADD DUP6 MSTORE DUP2 MLOAD DUP1 MLOAD PUSH1 0x1 PUSH1 0x1 PUSH1 0xA0 SHL SUB AND DUP5 MSTORE PUSH2 0x120 DUP9 DUP3 ADD MLOAD PUSH2 0x2654 DUP11 DUP8 ADD DUP3 PUSH2 0x25D8 JUMP JUMPDEST POP DUP8 DUP3 ADD MLOAD DUP2 DUP10 DUP8 ADD MSTORE PUSH2 0x266A DUP3 DUP8 ADD DUP3 PUSH2 0x1F84 JUMP JUMPDEST PUSH1 0x60 DUP5 DUP2 ADD MLOAD SWAP1 DUP9 ADD MSTORE PUSH1 0x80 DUP1 DUP6 ADD MLOAD SWAP1 DUP9 ADD MSTORE PUSH1 0xA0 DUP1 DUP6 ADD MLOAD SWAP1 DUP9 ADD MSTORE PUSH1 0xC0 DUP1 DUP6 ADD MLOAD ISZERO ISZERO SWAP1 DUP9 ADD MSTORE PUSH1 0xE0 DUP1 DUP6 ADD MLOAD ISZERO ISZERO SWAP1 DUP9 ADD MSTORE PUSH2 0x100 SWAP4 DUP5 ADD MLOAD SWAP4 SWAP1 SWAP7 ADD SWAP3 SWAP1 SWAP3 MSTORE POP POP SWAP4 DUP7 ADD SWAP4 SWAP1 DUP7 ADD SWAP1 PUSH1 0x1 ADD PUSH2 0x2621 JUMP JUMPDEST PUSH1 0x0 DUP1 PUSH1 0x0 DUP1 PUSH1 0x80 DUP6 DUP8 SUB SLT ISZERO PUSH2 0x26D7 JUMPI PUSH1 0x0 DUP1 REVERT JUMPDEST DUP5 CALLDATALOAD SWAP4 POP PUSH2 0x26E7 PUSH1 0x20 DUP7 ADD PUSH2 0x211D JUMP JUMPDEST SWAP3 POP PUSH1 0x40 DUP6 ADD CALLDATALOAD PUSH1 0x1 PUSH1 0x1 PUSH1 0x40 SHL SUB DUP1 DUP3 GT ISZERO PUSH2 0x25A0 JUMPI PUSH1 0x0 DUP1 REVERT JUMPDEST PUSH1 0x0 DUP1 PUSH1 0x40 DUP4 DUP6 SUB SLT ISZERO PUSH2 0x2716 JUMPI PUSH1 0x0 DUP1 REVERT JUMPDEST DUP3 CALLDATALOAD SWAP2 POP PUSH1 0x20 DUP4 ADD CALLDATALOAD PUSH2 0x2728 DUP2 PUSH2 0x1CDB JUMP JUMPDEST DUP1 SWAP2 POP POP SWAP3 POP SWAP3 SWAP1 POP JUMP JUMPDEST DUP4 ISZERO ISZERO DUP2 MSTORE DUP3 ISZERO ISZERO PUSH1 0x20 DUP3 ADD MSTORE PUSH1 0x60 PUSH1 0x40 DUP3 ADD MSTORE PUSH1 0x0 PUSH2 0x2756 PUSH1 0x60 DUP4 ADD DUP5 PUSH2 0x1F84 JUMP JUMPDEST SWAP6 SWAP5 POP POP POP POP POP JUMP JUMPDEST PUSH1 0x1 PUSH1 0x1 PUSH1 0xA0 SHL SUB DUP11 AND DUP2 MSTORE PUSH1 0x0 PUSH2 0x120 PUSH2 0x277D PUSH1 0x20 DUP5 ADD DUP13 PUSH2 0x25D8 JUMP JUMPDEST DUP1 PUSH1 0x40 DUP5 ADD MSTORE PUSH2 0x278F DUP2 DUP5 ADD DUP12 PUSH2 0x1F84 JUMP JUMPDEST PUSH1 0x60 DUP5 ADD SWAP10 SWAP1 SWAP10 MSTORE POP POP PUSH1 0x80 DUP2 ADD SWAP6 SWAP1 SWAP6 MSTORE PUSH1 0xA0 DUP6 ADD SWAP4 SWAP1 SWAP4 MSTORE SWAP1 ISZERO ISZERO PUSH1 0xC0 DUP5 ADD MSTORE ISZERO ISZERO PUSH1 0xE0 DUP4 ADD MSTORE PUSH2 0x100 SWAP1 SWAP2 ADD MSTORE SWAP4 SWAP3 POP POP POP JUMP JUMPDEST PUSH1 0x0 DUP1 PUSH1 0x0 DUP1 PUSH1 0x0 PUSH1 0xA0 DUP7 DUP9 SUB SLT ISZERO PUSH2 0x27DE JUMPI PUSH1 0x0 DUP1 REVERT JUMPDEST DUP6 CALLDATALOAD PUSH2 0x27E9 DUP2 PUSH2 0x1CDB JUMP JUMPDEST SWAP5 POP PUSH1 0x20 DUP7 ADD CALLDATALOAD SWAP4 POP PUSH1 0x40 DUP7 ADD CALLDATALOAD PUSH2 0x2800 DUP2 PUSH2 0x1CDB JUMP JUMPDEST SWAP3 POP PUSH1 0x60 DUP7 ADD CALLDATALOAD PUSH1 0x1 PUSH1 0x1 PUSH1 0x40 SHL SUB DUP2 GT ISZERO PUSH2 0x1F21 JUMPI PUSH1 0x0 DUP1 REVERT JUMPDEST PUSH1 0x0 PUSH1 0x20 DUP3 DUP5 SUB SLT ISZERO PUSH2 0x282D JUMPI PUSH1 0x0 DUP1 REVERT JUMPDEST DUP2 MLOAD PUSH2 0x2202 DUP2 PUSH2 0x1CDB JUMP JUMPDEST PUSH1 0x1 DUP1 PUSH1 0xA0 SHL SUB DUP6 AND DUP2 MSTORE DUP4 PUSH1 0x20 DUP3 ADD MSTORE PUSH1 0x80 PUSH1 0x40 DUP3 ADD MSTORE PUSH1 0x0 PUSH2 0x285F PUSH1 0x80 DUP4 ADD DUP6 PUSH2 0x1F84 JUMP JUMPDEST SWAP1 POP DUP3 PUSH1 0x60 DUP4 ADD MSTORE SWAP6 SWAP5 POP POP POP POP POP JUMP JUMPDEST PUSH1 0x0 DUP3 MLOAD PUSH2 0x2882 DUP2 DUP5 PUSH1 0x20 DUP8 ADD PUSH2 0x1F58 JUMP JUMPDEST SWAP2 SWAP1 SWAP2 ADD SWAP3 SWAP2 POP POP JUMP JUMPDEST PUSH1 0x80 DUP2 MSTORE PUSH1 0x0 PUSH2 0x289F PUSH1 0x80 DUP4 ADD DUP8 PUSH2 0x1F84 JUMP JUMPDEST DUP3 DUP2 SUB PUSH1 0x20 DUP5 ADD MSTORE PUSH2 0x28B1 DUP2 DUP8 PUSH2 0x1F84 JUMP JUMPDEST PUSH1 0x1 PUSH1 0x1 PUSH1 0xA0 SHL SUB DUP7 AND PUSH1 0x40 DUP6 ADD MSTORE DUP4 DUP2 SUB PUSH1 0x60 DUP6 ADD MSTORE SWAP1 POP PUSH2 0x28D4 DUP2 DUP6 PUSH2 0x1F84 JUMP JUMPDEST SWAP8 SWAP7 POP POP POP POP POP POP POP JUMP JUMPDEST PUSH1 0x1 PUSH1 0x1 PUSH1 0xA0 SHL SUB DUP7 DUP2 AND DUP3 MSTORE DUP6 AND PUSH1 0x20 DUP3 ADD MSTORE PUSH1 0x40 DUP2 ADD DUP5 SWAP1 MSTORE PUSH1 0xA0 PUSH1 0x60 DUP3 ADD DUP2 SWAP1 MSTORE PUSH1 0x0 SWAP1 PUSH2 0x2912 SWAP1 DUP4 ADD DUP6 PUSH2 0x1F84 JUMP JUMPDEST SWAP1 POP DUP3 PUSH1 0x80 DUP4 ADD MSTORE SWAP7 SWAP6 POP POP POP POP POP POP JUMP JUMPDEST PUSH1 0x1 DUP2 DUP2 SHR SWAP1 DUP3 AND DUP1 PUSH2 0x2938 JUMPI PUSH1 0x7F DUP3 AND SWAP2 POP JUMPDEST PUSH1 0x20 DUP3 LT DUP2 EQ ISZERO PUSH2 0x2959 JUMPI PUSH4 0x4E487B71 PUSH1 0xE0 SHL PUSH1 0x0 MSTORE PUSH1 0x22 PUSH1 0x4 MSTORE PUSH1 0x24 PUSH1 0x0 REVERT JUMPDEST POP SWAP2 SWAP1 POP JUMP JUMPDEST PUSH1 0x1 PUSH1 0x1 PUSH1 0xA0 SHL SUB DUP6 AND DUP2 MSTORE PUSH1 0x80 PUSH1 0x20 DUP3 ADD DUP2 SWAP1 MSTORE PUSH1 0x0 SWAP1 PUSH2 0x2983 SWAP1 DUP4 ADD DUP7 PUSH2 0x1F84 JUMP JUMPDEST DUP5 PUSH1 0x40 DUP5 ADD MSTORE DUP3 DUP2 SUB PUSH1 0x60 DUP5 ADD MSTORE PUSH2 0x28D4 DUP2 DUP6 PUSH2 0x1F84 JUMP JUMPDEST PUSH1 0x1 PUSH1 0x1 PUSH1 0xA0 SHL SUB DUP8 AND DUP2 MSTORE PUSH1 0xC0 PUSH1 0x20 DUP3 ADD DUP2 SWAP1 MSTORE PUSH1 0x0 SWAP1 PUSH2 0x29BF SWAP1 DUP4 ADD DUP9 PUSH2 0x1F84 JUMP JUMPDEST DUP3 DUP2 SUB PUSH1 0x40 DUP5 ADD MSTORE PUSH2 0x29D1 DUP2 DUP9 PUSH2 0x1F84 JUMP JUMPDEST SWAP1 POP DUP6 ISZERO ISZERO PUSH1 0x60 DUP5 ADD MSTORE DUP5 PUSH1 0x80 DUP5 ADD MSTORE DUP3 DUP2 SUB PUSH1 0xA0 DUP5 ADD MSTORE PUSH2 0x29F3 DUP2 DUP6 PUSH2 0x1F84 JUMP JUMPDEST SWAP10 SWAP9 POP POP POP POP POP POP POP POP POP JUMP JUMPDEST DUP1 PUSH1 0x0 JUMPDEST PUSH1 0x5 DUP2 LT ISZERO PUSH2 0x1631 JUMPI DUP2 MLOAD PUSH1 0x1 PUSH1 0x1 PUSH1 0xA0 SHL SUB AND DUP5 MSTORE PUSH1 0x20 SWAP4 DUP5 ADD SWAP4 SWAP1 SWAP2 ADD SWAP1 PUSH1 0x1 ADD PUSH2 0x2A04 JUMP JUMPDEST PUSH1 0x0 DUP2 MLOAD DUP1 DUP5 MSTORE PUSH1 0x20 DUP1 DUP6 ADD SWAP5 POP DUP1 DUP5 ADD PUSH1 0x0 JUMPDEST DUP4 DUP2 LT ISZERO PUSH2 0x2A65 JUMPI DUP2 MLOAD PUSH1 0x1 PUSH1 0x1 PUSH1 0xA0 SHL SUB AND DUP8 MSTORE SWAP6 DUP3 ADD SWAP6 SWAP1 DUP3 ADD SWAP1 PUSH1 0x1 ADD PUSH2 0x2A40 JUMP JUMPDEST POP SWAP5 SWAP6 SWAP5 POP POP POP POP POP JUMP JUMPDEST PUSH1 0x1 PUSH1 0x1 PUSH1 0xA0 SHL SUB DUP10 AND DUP2 MSTORE PUSH2 0x1C0 PUSH1 0x20 DUP1 DUP4 ADD DUP3 SWAP1 MSTORE PUSH1 0x0 SWAP2 SWAP1 PUSH2 0x2A97 DUP5 DUP4 ADD DUP13 PUSH2 0x1F84 JUMP JUMPDEST SWAP2 POP DUP10 ISZERO ISZERO PUSH1 0x40 DUP6 ADD MSTORE DUP9 ISZERO ISZERO PUSH1 0x60 DUP6 ADD MSTORE DUP8 PUSH1 0x80 DUP6 ADD MSTORE PUSH1 0xA0 DUP5 ADD DUP8 PUSH1 0x0 JUMPDEST PUSH1 0x3 DUP2 LT ISZERO PUSH2 0x2AD4 JUMPI DUP2 MLOAD DUP4 MSTORE SWAP2 DUP4 ADD SWAP2 SWAP1 DUP4 ADD SWAP1 PUSH1 0x1 ADD PUSH2 0x2AB7 JUMP JUMPDEST POP POP POP POP PUSH2 0x2AE6 PUSH2 0x100 DUP5 ADD DUP7 PUSH2 0x2A00 JUMP JUMPDEST DUP3 DUP2 SUB PUSH2 0x1A0 DUP5 ADD MSTORE PUSH2 0x2AF9 DUP2 DUP6 PUSH2 0x2A2C JUMP JUMPDEST SWAP12 SWAP11 POP POP POP POP POP POP POP POP POP POP POP JUMP JUMPDEST DUP4 DUP2 MSTORE PUSH1 0x60 PUSH1 0x20 DUP3 ADD MSTORE PUSH1 0x0 PUSH2 0x2B21 PUSH1 0x60 DUP4 ADD DUP6 PUSH2 0x1F84 JUMP JUMPDEST SWAP1 POP DUP3 PUSH1 0x40 DUP4 ADD MSTORE SWAP5 SWAP4 POP POP POP POP JUMP JUMPDEST PUSH1 0x80 DUP1 DUP3 MSTORE DUP6 MLOAD SWAP1 DUP3 ADD DUP2 SWAP1 MSTORE PUSH1 0x0 SWAP1 PUSH1 0x20 SWAP1 PUSH1 0xA0 DUP5 ADD SWAP1 DUP3 DUP10 ADD DUP5 JUMPDEST DUP3 DUP2 LT ISZERO PUSH2 0x2B6A JUMPI DUP2 MLOAD DUP5 MSTORE SWAP3 DUP5 ADD SWAP3 SWAP1 DUP5 ADD SWAP1 PUSH1 0x1 ADD PUSH2 0x2B4E JUMP JUMPDEST POP POP POP DUP7 ISZERO ISZERO DUP3 DUP6 ADD MSTORE DUP4 DUP2 SUB PUSH1 0x40 DUP6 ADD MSTORE PUSH2 0x2B86 DUP2 DUP8 PUSH2 0x1F84 JUMP JUMPDEST SWAP2 POP POP DUP3 DUP2 SUB PUSH1 0x60 DUP5 ADD MSTORE PUSH2 0x28D4 DUP2 DUP6 PUSH2 0x1F84 JUMP JUMPDEST DUP5 DUP2 MSTORE DUP4 ISZERO ISZERO PUSH1 0x20 DUP3 ADD MSTORE PUSH1 0x80 PUSH1 0x40 DUP3 ADD MSTORE PUSH1 0x0 PUSH2 0x2BBC PUSH1 0x80 DUP4 ADD DUP6 PUSH2 0x1F84 JUMP JUMPDEST DUP3 DUP2 SUB PUSH1 0x60 DUP5 ADD MSTORE PUSH2 0x28D4 DUP2 DUP6 PUSH2 0x1F84 JUMP JUMPDEST PUSH1 0x1 PUSH1 0x1 PUSH1 0xA0 SHL SUB DUP7 DUP2 AND DUP3 MSTORE PUSH1 0x20 DUP3 ADD DUP7 SWAP1 MSTORE DUP5 AND PUSH1 0x40 DUP3 ADD MSTORE PUSH1 0xA0 PUSH1 0x60 DUP3 ADD DUP2 SWAP1 MSTORE PUSH1 0x0 SWAP1 PUSH2 0x2912 SWAP1 DUP4 ADD DUP6 PUSH2 0x1F84 JUMP INVALID LOG2 PUSH5 0x6970667358 0x22 SLT KECCAK256 CALLCODE 0xB6 0xD9 LOG0 0xBB 0xB4 0xC9 SWAP1 AND 0xE7 STATICCALL SWAP3 RETURN 0xEE SWAP13 JUMP CALLER 0xD0 SWAP5 SWAP10 LOG3 0xDD 0x29 0xB4 DUP5 0xB5 0xD8 0xD6 PUSH23 0xF4FFB464736F6C634300080C0033000000000000000000 ",
  "sha1": "068bc94deb3158285e23156bab01618134e212d3",
  "source": "// SPDX-License-Identifier: MIT\npragma solidity ^0.8.11;\n\nimport \"@openzeppelin/contracts/proxy/utils/Initializable.sol\";\nimport \"../CLCore/CLStorage.sol\";\n\n\n/// @title Contract to implement and test the basic fuctions of CLHouses\n/// @author Leonardo Urrego\n/// @notice This contract for test only the most basic interactions\ncontract CLHouse is CLStorage, Initializable {\n    /// @custom:oz-upgrades-unsafe-allow constructor\n    constructor() {\n        _disableInitializers();\n    }\n\n    /// @notice Create a new CLH\n    /// @dev Some parameters can be ignored depending on the governance model\n    /// @param _owner The address of the deployed wallet\n    /// @param _houseName Name given by the owner\n    /// @param _housePrivate If is set to 1, the CLH is set to private\n    /// @param _houseOpen If is set to 1, the CLH is set to Open\n    /// @param _govModel keccak256 hash of the governance model, see the __GOV_* constans\n    /// @param _govRules Array for goverment rules see `enum gRule`\n    /// @param _CLC Array for CL Contracts and others see `enum eCLC`\n    /// @param _ManagerWallets Whitelist of address for invitate as managers\n    function Init(\n        address _owner, \n        string memory _houseName,\n        bool _housePrivate,\n        bool _houseOpen,\n        bytes32 _govModel,\n        uint256[3] memory _govRules,\n        address[5] memory _CLC,\n        address[] memory _ManagerWallets\n    )\n        external\n        reinitializer( __UPGRADEABLE_CLH_VERSION__ )\n    {\n        /// @custom:oz-upgrades-unsafe-allow delegatecall\n        (bool successDGTCLL, ) = _CLC[ uint256( eCLC.CLLConstructorCLH ) ].delegatecall(\n            abi.encodeWithSignature(\n                \"__CLHConstructor(address,string,bool,bool,bytes32,uint256[3],address[5],address[])\",\n                _owner, \n                _houseName,\n                _housePrivate,\n                _houseOpen,\n                _govModel,\n                _govRules,\n                _CLC,\n                _ManagerWallets\n            )\n        );\n\n        if( !successDGTCLL ) {\n            assembly {\n                let ptr := mload(0x40)\n                let size := returndatasize()\n                returndatacopy(ptr, 0, size)\n                revert(ptr, size)\n            }\n        }\n    }\n\n    /// @notice Execute (or reject) a proposal computing the votes and the governance model\n    /// @dev Normally is called internally after each vote\n    /// @param _propId ID of the proposal, based on `arrProposals`\n    /// @return status True if the proposal can be execute, false in other cases\n    /// @return message result of the transaction\n    function ExecProp(\n        uint256 _propId\n    )\n        public\n        returns(\n            bool status,\n            string memory message\n        )\n    {\n        address CLLGovernance = CCLFACTORY.CLLGovernance();\n        /// @custom:oz-upgrades-unsafe-allow delegatecall\n        (bool successDGTCLL, ) = CLLGovernance.delegatecall(\n            abi.encodeWithSignature(\n                \"ExecProp(uint256)\",\n                _propId\n            )\n        );\n\n        if( !successDGTCLL ) {\n            assembly {\n                let ptr := mload(0x40)\n                let size := returndatasize()\n                returndatacopy(ptr, 0, size)\n                revert(ptr, size)\n            }\n        }\n\n        return ( true , \"Success executed proposal\" );\n    }\n\n    /// @notice Used to vote a proposal\n    /// @dev After vote the proposal automatically try to be executed\n    /// @param _propId ID of the proposal, based on `arrProposals`\n    /// @param _support True for accept, false to reject\n    /// @param _justification About your vote\n    function VoteProposal(\n        uint256 _propId,\n        bool _support,\n        string memory _justification,\n        bytes memory _signature\n    )\n        public\n    {\n        address CLLGovernance = CCLFACTORY.CLLGovernance();\n        /// @custom:oz-upgrades-unsafe-allow delegatecall\n        (bool successDGTCLL, ) = CLLGovernance.delegatecall(\n            abi.encodeWithSignature( \n                \"VoteProposal(uint256,bool,string,bytes)\",\n                _propId,\n                _support,\n                _justification,\n                _signature\n            )\n        );\n\n        if( !successDGTCLL ) {\n            assembly {\n                let ptr := mload(0x40)\n                let size := returndatasize()\n                returndatacopy(ptr, 0, size)\n                revert(ptr, size)\n            }\n        }\n    }\n\n    /// @notice Generate a new proposal to invite a new user\n    /// @dev the execution of this proposal only create an invitation \n    /// @param _walletAddr  Address of the new user\n    /// @param _name Can be the nickname or other reference to the User\n    /// @param _description A text for the proposal\n    /// @param _isManager True if is for a manager\n    /// @return propId ID of the new proposal, based on `arrProposals`\n    function PropInviteUser(\n        address _walletAddr,\n        string memory _name,\n        string memory _description,\n        bool _isManager,\n        uint256 _delayTime,\n        bytes memory _signature\n    )\n        external\n        returns( uint256 propId )\n    {\n        address CLLGovernance = CCLFACTORY.CLLGovernance();\n        /// @custom:oz-upgrades-unsafe-allow delegatecall\n        (bool successDGTCLL, ) = CLLGovernance.delegatecall(\n            abi.encodeWithSignature( \n                \"PropInviteUser(address,string,string,bool,uint256,bytes)\",\n                _walletAddr,\n                _name,\n                _description,\n                _isManager,\n                _delayTime,\n                _signature\n            )\n        );\n\n        assembly {\n            let ptr := mload(0x40)\n            let size := returndatasize()\n            returndatacopy(ptr, 0, size)\n            if iszero( successDGTCLL ) {\n                revert(ptr, size)\n            }\n            propId := mload(ptr)\n        }\n    }\n\n    /// @notice Generate a new proposal for remove a user\n    /// @dev The user can be a managaer\n    /// @param _walletAddr user Address to be removed\n    /// @param _description About the proposal\n    /// @return propId ID of the new proposal, based on `arrProposals`\n    function PropRemoveUser(\n        address _walletAddr,\n        string memory _description,\n        uint256 _delayTime,\n        bytes memory _signature\n    )\n        external\n        returns( uint256 propId )\n    {\n        address CLLGovernance = CCLFACTORY.CLLGovernance();\n        /// @custom:oz-upgrades-unsafe-allow delegatecall\n        (bool successDGTCLL, ) = CLLGovernance.delegatecall(\n            abi.encodeWithSignature( \n                \"PropRemoveUser(address,string,uint256,bytes)\",\n                _walletAddr,\n                _description,\n                _delayTime,\n                _signature\n            )\n        );\n\n        assembly {\n            let ptr := mload(0x40)\n            let size := returndatasize()\n            returndatacopy(ptr, 0, size)\n            if iszero( successDGTCLL ) {\n                revert(ptr, size)\n            }\n            propId := mload(ptr)\n        }\n    }\n\n    /// @notice generate a new proposal to transfer ETH in weis\n    /// @dev When execute this proposal, the transfer is made\n    /// @param _to Recipient address\n    /// @param _amountOutCLV Amount to transfer (in wei)\n    /// @param _description About this proposal\n    /// @return propId ID of the new proposal, based on `arrProposals`\n    function PropTxWei(\n        address _to,\n        uint256 _amountOutCLV,\n        string memory _description,\n        uint256 _delayTime\n    )\n        external\n        returns( uint256 propId )\n    {\n        address CLLGovernance = CCLFACTORY.CLLGovernance();\n        /// @custom:oz-upgrades-unsafe-allow delegatecall\n        (bool successDGTCLL, ) = CLLGovernance.delegatecall(\n            abi.encodeWithSignature( \n                \"PropTxWei(address,uint256,string,uint256)\",\n                _to,\n                _amountOutCLV,\n                _description,\n                _delayTime\n            )\n        );\n\n        assembly {\n            let ptr := mload(0x40)\n            let size := returndatasize()\n            returndatacopy(ptr, 0, size)\n            if iszero( successDGTCLL ) {\n                revert(ptr, size)\n            }\n            propId := mload(ptr)\n        }\n    }\n\n    /// @notice generate a new proposal to transfer ETH in weis\n    /// @dev When execute this proposal, the transfer is made\n    /// @param _to Recipient address\n    /// @param _amountOutCLV Amount to transfer (in wei)\n    /// @param _description About this proposal\n    /// @return propId ID of the new proposal, based on `arrProposals`\n    function PropTxERC20(\n        address _to,\n        uint256 _amountOutCLV,\n        address _tokenOutCLV,\n        string memory _description,\n        uint256 _delayTime\n    )\n        external\n        returns( uint256 propId )\n    {\n        address CLLGovernance = CCLFACTORY.CLLGovernance();\n        /// @custom:oz-upgrades-unsafe-allow delegatecall\n        (bool successDGTCLL, ) = CLLGovernance.delegatecall(\n            abi.encodeWithSignature( \n                \"PropTxERC20(address,uint256,address,string,uint256)\",\n                _to,\n                _amountOutCLV,\n                _tokenOutCLV,\n                _description,\n                _delayTime\n            )\n        );\n\n        assembly {\n            let ptr := mload(0x40)\n            let size := returndatasize()\n            returndatacopy(ptr, 0, size)\n            if iszero( successDGTCLL ) {\n                revert(ptr, size)\n            }\n            propId := mload(ptr)\n        }\n    }\n\n    /// @notice Generate a new proposal for change some governance parameters\n    /// @dev When execute this proposal the new values will be set\n    /// @param _newApprovPercentage The new percentaje for accept or reject a proposal\n    /// @param _description About the new proposal \n    /// @return propId ID of the new proposal, based on `arrProposals`\n    function PropGovRules(\n        uint256 _newApprovPercentage,\n        string memory _description,\n        uint256 _delayTime\n    )\n        external\n        returns( uint256 propId )\n    {\n        address CLLGovernance = CCLFACTORY.CLLGovernance();\n        /// @custom:oz-upgrades-unsafe-allow delegatecall\n        (bool successDGTCLL, ) = CLLGovernance.delegatecall(\n            abi.encodeWithSignature( \n                \"PropGovRules(uint256,string,uint256)\",\n                _newApprovPercentage,\n                _description,\n                _delayTime\n            )\n        );\n\n        assembly {\n            let ptr := mload(0x40)\n            let size := returndatasize()\n            returndatacopy(ptr, 0, size)\n            if iszero( successDGTCLL ) {\n                revert(ptr, size)\n            }\n            propId := mload(ptr)\n        }\n    }\n\n    /// @notice Generate a proposal from a user that want to join to the CLH\n    /// @dev Only avaiable in public CLH\n    /// @param _name Nickname or other user identification\n    /// @param _description About the request\n    /// @param _signerWallet Address of signer to check OffChain signature\n    /// @return propId ID of the new proposal, based on `arrProposals`\n    function PropRequestToJoin(\n        string memory _name,\n        string memory _description,\n        address _signerWallet,\n        bytes memory _signature\n    )\n        external\n        returns( uint256 )\n    {\n        address CLLGovernance = CCLFACTORY.CLLGovernance();\n        /// @custom:oz-upgrades-unsafe-allow delegatecall\n        (bool successDGTCLL, ) = CLLGovernance.delegatecall(\n            abi.encodeWithSignature( \n                \"PropRequestToJoin(string,string,address,bytes)\",\n                _name,\n                _description,\n                _signerWallet,\n                _signature\n            )\n        );\n\n        assembly {\n            let ptr := mload(0x40)\n            let size := returndatasize()\n            returndatacopy(ptr, 0, size)\n            if iszero( successDGTCLL ) {\n                revert(ptr, size)\n            }\n            return(ptr, size)\n        }\n    }\n\n    /// @notice For an user that have an invitation pending\n    /// @param _acceptance True for accept the invitation\n    function AcceptRejectInvitation(\n        bool _acceptance,\n        bytes memory _signature\n    )\n        external\n    {\n        address CLLUserManagement = CCLFACTORY.CLLUserManagement();\n        /// @custom:oz-upgrades-unsafe-allow delegatecall\n        (bool successDGTCLL, ) = CLLUserManagement.delegatecall(\n            abi.encodeWithSignature( \n                \"AcceptRejectInvitation(bool,bytes)\",\n                _acceptance,\n                _signature\n            )\n        );\n\n        if( !successDGTCLL ) {\n            assembly {\n                let ptr := mload(0x40)\n                let size := returndatasize()\n                returndatacopy(ptr, 0, size)\n                revert(ptr, size)\n            }\n        }\n    }\n\n    function PropSwapERC20(\n        address _tokenOutCLV,\n        address _tokenInCLV,\n        uint256 _amountOutCLV,\n        string memory _description,\n        uint256 _delayTime\n    )\n        external\n        returns( uint256 )\n    {\n        address CLLGovernance = CCLFACTORY.CLLGovernance();\n        /// @custom:oz-upgrades-unsafe-allow delegatecall\n        (bool successDGTCLL, ) = CLLGovernance.delegatecall(\n            abi.encodeWithSignature( \n                \"PropSwapERC20(address,address,uint256,string,uint256)\",\n                _tokenOutCLV,\n                _tokenInCLV,\n                _amountOutCLV,\n                _description,\n                _delayTime\n            )\n        );\n\n        assembly {\n            let ptr := mload(0x40)\n            let size := returndatasize()\n            returndatacopy(ptr, 0, size)\n            if iszero( successDGTCLL ) {\n                revert(ptr, size)\n            }\n            return(ptr, size)\n        }\n    }\n\n    function PropSellERC20(\n        address _tokenOutCLV,\n        uint256 _amountOutCLV,\n        string memory _description,\n        uint256 _delayTime\n    )\n        external\n        returns( uint256 )\n    {\n        address CLLGovernance = CCLFACTORY.CLLGovernance();\n        /// @custom:oz-upgrades-unsafe-allow delegatecall\n        (bool successDGTCLL, ) = CLLGovernance.delegatecall(\n            abi.encodeWithSignature( \n                \"PropSellERC20(address,uint256,string,uint256)\",\n                _tokenOutCLV,\n                _amountOutCLV,\n                _description,\n                _delayTime\n            )\n        );\n\n        assembly {\n            let ptr := mload(0x40)\n            let size := returndatasize()\n            returndatacopy(ptr, 0, size)\n            if iszero( successDGTCLL ) {\n                revert(ptr, size)\n            }\n            return(ptr, size)\n        }\n    }\n\n    function PropBuyERC20(\n        address _tokenInCLV,\n        uint256 _amountOutCLV,\n        string memory _description,\n        uint256 _delayTime\n    )\n        external\n        returns( uint256 )\n    {\n        address CLLGovernance = CCLFACTORY.CLLGovernance();\n        /// @custom:oz-upgrades-unsafe-allow delegatecall\n        (bool successDGTCLL, ) = CLLGovernance.delegatecall(\n            abi.encodeWithSignature( \n                \"PropBuyERC20(address,uint256,string,uint256)\",\n                _tokenInCLV,\n                _amountOutCLV,\n                _description,\n                _delayTime\n            )\n        );\n\n        assembly {\n            let ptr := mload(0x40)\n            let size := returndatasize()\n            returndatacopy(ptr, 0, size)\n            if iszero( successDGTCLL ) {\n                revert(ptr, size)\n            }\n            return(ptr, size)\n        }\n    }\n\n\n    /// @notice Vote for multiple proposal\n    /// @param _propId Array with ID of the proposal to votes\n    /// @param _support is the Vote (True or False) for all proposals\n    /// @param _justification Description of the vote\n    function bulkVote(\n        uint256[] memory _propId,\n        bool _support,\n        string memory _justification,\n        bytes memory _signature\n    )\n        external\n    {\n        address CLLGovernance = CCLFACTORY.CLLGovernance();\n        /// @custom:oz-upgrades-unsafe-allow delegatecall\n        (bool successDGTCLL, ) = CLLGovernance.delegatecall(\n            abi.encodeWithSignature( \n                \"bulkVote(uint256[],bool,string,bytes)\",\n                _propId,\n                _support,\n                _justification,\n                _signature\n            )\n        );\n\n        assembly {\n            let ptr := mload(0x40)\n            let size := returndatasize()\n            returndatacopy(ptr, 0, size)\n            if iszero( successDGTCLL ) {\n                revert(ptr, size)\n            }\n            return(ptr, size)\n        }\n    }\n\n    /// @notice Length of arrUsers array\n    function GetArrUsersLength() external view returns( uint256 ){\n        return arrUsers.length;\n    }\n\n    /// @notice Length of arrProposals array\n    function GetArrProposalsLength() external view returns( uint256 ){\n        return arrProposals.length;\n    }\n\n    /// @notice The list of all Proposals\n    /// @return arrProposals the array with all proposals\n    function GetProposalList() external view returns( strProposal[] memory ) {\n        return arrProposals;\n    }\n\n    /// @notice Get complete array of arrDataPropUser\n    /// @return arrDataPropUser the array with all data\n    function GetArrDataPropUser() external view returns( strDataUser[] memory ) {\n        return arrDataPropUser;\n    }\n}",
  "sourcePath": "contracts/CLHouse/CLHouse.sol",
  "type": "contract"
}