{
  "abi": [
    {
      "inputs": [
        {
          "internalType": "address",
          "name": "_houseAddr",
          "type": "address"
        }
      ],
      "name": "GetHouseUserList",
      "outputs": [
        {
          "components": [
            {
              "internalType": "address",
              "name": "wallet",
              "type": "address"
            },
            {
              "internalType": "uint256",
              "name": "userID",
              "type": "uint256"
            },
            {
              "internalType": "string",
              "name": "nickname",
              "type": "string"
            },
            {
              "internalType": "bool",
              "name": "isManager",
              "type": "bool"
            }
          ],
          "internalType": "struct CLHouseApi.strInfoUser[]",
          "name": "arrUsers",
          "type": "tuple[]"
        }
      ],
      "stateMutability": "view",
      "type": "function"
    },
    {
      "inputs": [
        {
          "internalType": "uint256[]",
          "name": "_propIds",
          "type": "uint256[]"
        },
        {
          "internalType": "bool",
          "name": "_support",
          "type": "bool"
        },
        {
          "internalType": "string",
          "name": "_justification",
          "type": "string"
        },
        {
          "internalType": "address",
          "name": "_houseAddr",
          "type": "address"
        },
        {
          "internalType": "bytes",
          "name": "_signature",
          "type": "bytes"
        }
      ],
      "name": "SignerOCBulkVote",
      "outputs": [
        {
          "internalType": "address",
          "name": "",
          "type": "address"
        }
      ],
      "stateMutability": "view",
      "type": "function"
    },
    {
      "inputs": [
        {
          "internalType": "bool",
          "name": "_acceptance",
          "type": "bool"
        },
        {
          "internalType": "string",
          "name": "_nickname",
          "type": "string"
        },
        {
          "internalType": "address",
          "name": "_houseAddr",
          "type": "address"
        },
        {
          "internalType": "bytes",
          "name": "_signature",
          "type": "bytes"
        }
      ],
      "name": "SignerOCInvit",
      "outputs": [
        {
          "internalType": "address",
          "name": "",
          "type": "address"
        }
      ],
      "stateMutability": "view",
      "type": "function"
    },
    {
      "inputs": [
        {
          "internalType": "address",
          "name": "_walletAddr",
          "type": "address"
        },
        {
          "internalType": "string",
          "name": "_name",
          "type": "string"
        },
        {
          "internalType": "string",
          "name": "_description",
          "type": "string"
        },
        {
          "internalType": "bool",
          "name": "_isManager",
          "type": "bool"
        },
        {
          "internalType": "uint256",
          "name": "_delayTime",
          "type": "uint256"
        },
        {
          "internalType": "address",
          "name": "_houseAddr",
          "type": "address"
        },
        {
          "internalType": "bytes",
          "name": "_signature",
          "type": "bytes"
        }
      ],
      "name": "SignerOCInvitUser",
      "outputs": [
        {
          "internalType": "address",
          "name": "",
          "type": "address"
        }
      ],
      "stateMutability": "view",
      "type": "function"
    },
    {
      "inputs": [
        {
          "internalType": "string",
          "name": "_houseName",
          "type": "string"
        },
        {
          "internalType": "bool",
          "name": "_housePrivate",
          "type": "bool"
        },
        {
          "internalType": "bool",
          "name": "_houseOpen",
          "type": "bool"
        },
        {
          "internalType": "uint256",
          "name": "_govRuleMaxUsers",
          "type": "uint256"
        },
        {
          "internalType": "address",
          "name": "_whiteListNFT",
          "type": "address"
        },
        {
          "internalType": "address",
          "name": "_pxyCLF",
          "type": "address"
        },
        {
          "internalType": "bytes",
          "name": "_signature",
          "type": "bytes"
        }
      ],
      "name": "SignerOCNewCLH",
      "outputs": [
        {
          "internalType": "address",
          "name": "",
          "type": "address"
        }
      ],
      "stateMutability": "view",
      "type": "function"
    },
    {
      "inputs": [
        {
          "internalType": "uint256",
          "name": "_expirationDuration",
          "type": "uint256"
        },
        {
          "internalType": "uint256",
          "name": "_keyPrice",
          "type": "uint256"
        },
        {
          "internalType": "uint256",
          "name": "_maxNumberOfKeys",
          "type": "uint256"
        },
        {
          "internalType": "string",
          "name": "_lockName",
          "type": "string"
        },
        {
          "internalType": "address",
          "name": "_houseAddr",
          "type": "address"
        },
        {
          "internalType": "bytes",
          "name": "_signature",
          "type": "bytes"
        }
      ],
      "name": "SignerOCNewLock",
      "outputs": [
        {
          "internalType": "address",
          "name": "",
          "type": "address"
        }
      ],
      "stateMutability": "view",
      "type": "function"
    },
    {
      "inputs": [
        {
          "internalType": "address",
          "name": "_walletAddr",
          "type": "address"
        },
        {
          "internalType": "string",
          "name": "_description",
          "type": "string"
        },
        {
          "internalType": "uint256",
          "name": "_delayTime",
          "type": "uint256"
        },
        {
          "internalType": "address",
          "name": "_houseAddr",
          "type": "address"
        },
        {
          "internalType": "bytes",
          "name": "_signature",
          "type": "bytes"
        }
      ],
      "name": "SignerOCRemoveUser",
      "outputs": [
        {
          "internalType": "address",
          "name": "",
          "type": "address"
        }
      ],
      "stateMutability": "view",
      "type": "function"
    },
    {
      "inputs": [
        {
          "internalType": "string",
          "name": "_name",
          "type": "string"
        },
        {
          "internalType": "string",
          "name": "_description",
          "type": "string"
        },
        {
          "internalType": "address",
          "name": "_houseAddr",
          "type": "address"
        },
        {
          "internalType": "bytes",
          "name": "_signature",
          "type": "bytes"
        }
      ],
      "name": "SignerOCRequestToJoin",
      "outputs": [
        {
          "internalType": "address",
          "name": "",
          "type": "address"
        }
      ],
      "stateMutability": "view",
      "type": "function"
    },
    {
      "inputs": [
        {
          "internalType": "string",
          "name": "_houseName",
          "type": "string"
        },
        {
          "internalType": "address",
          "name": "_houseAddr",
          "type": "address"
        },
        {
          "internalType": "bytes",
          "name": "_signature",
          "type": "bytes"
        }
      ],
      "name": "SignerOCUpCLHName",
      "outputs": [
        {
          "internalType": "address",
          "name": "",
          "type": "address"
        }
      ],
      "stateMutability": "view",
      "type": "function"
    },
    {
      "inputs": [
        {
          "internalType": "address",
          "name": "_whiteListNFT",
          "type": "address"
        },
        {
          "internalType": "address",
          "name": "_houseAddr",
          "type": "address"
        },
        {
          "internalType": "bytes",
          "name": "_signature",
          "type": "bytes"
        }
      ],
      "name": "SignerOCUpCLHWLNFT",
      "outputs": [
        {
          "internalType": "address",
          "name": "",
          "type": "address"
        }
      ],
      "stateMutability": "view",
      "type": "function"
    },
    {
      "inputs": [
        {
          "internalType": "uint256",
          "name": "_propId",
          "type": "uint256"
        },
        {
          "internalType": "bool",
          "name": "_support",
          "type": "bool"
        },
        {
          "internalType": "string",
          "name": "_justification",
          "type": "string"
        },
        {
          "internalType": "address",
          "name": "_houseAddr",
          "type": "address"
        },
        {
          "internalType": "bytes",
          "name": "_signature",
          "type": "bytes"
        }
      ],
      "name": "SignerOCVote",
      "outputs": [
        {
          "internalType": "address",
          "name": "",
          "type": "address"
        }
      ],
      "stateMutability": "view",
      "type": "function"
    },
    {
      "inputs": [
        {
          "internalType": "bytes32",
          "name": "_msghash",
          "type": "bytes32"
        },
        {
          "internalType": "bytes",
          "name": "_signature",
          "type": "bytes"
        }
      ],
      "name": "SignerOfMsg",
      "outputs": [
        {
          "internalType": "address",
          "name": "",
          "type": "address"
        }
      ],
      "stateMutability": "pure",
      "type": "function"
    }
  ],
  "bytecode": "608060405234801561001057600080fd5b50611faf806100206000396000f3fe608060405234801561001057600080fd5b50600436106100b45760003560e01c806362423c751161007157806362423c751461014857806389ab062a1461015b578063aa25f2d71461016e578063aea35cb114610181578063b698be8d14610194578063f0b00c9f146101b457600080fd5b80630daff036146100b95780632ee9c163146100e957806331e65582146100fc57806344d725831461010f578063476216dc14610122578063622eca7714610135575b600080fd5b6100cc6100c736600461164e565b6101c7565b6040516001600160a01b0390911681526020015b60405180910390f35b6100cc6100f73660046116fa565b6103b8565b6100cc61010a366004611784565b61055f565b6100cc61011d3660046117e5565b6106cc565b6100cc6101303660046118a4565b6108d7565b6100cc610143366004611952565b610a9e565b6100cc610156366004611998565b610b61565b6100cc610169366004611a05565b610c8f565b6100cc61017c366004611a99565b610e49565b6100cc61018f366004611afd565b610fc5565b6101a76101a2366004611b4c565b611134565b6040516100e09190611ba0565b6100cc6101c2366004611c55565b61140c565b6000806040516020016101d990611d4b565b60408051601f198184030181528282528051602091820120838301835260058452640302e322e360dc1b8483015291519192600080516020611f5a833981519152926102259201611db5565b604051602081830303815290604052805190602001204687604051602001610251959493929190611dd1565b60405160208183030381529060405280519060200120905060006040516020016102f4907f7374724f434e65774c6f636b2875696e743235362065787069726174696f6e4481527f75726174696f6e2c75696e74323536206b657950726963652c75696e7432353660208201527f206d61784e756d6265724f664b6579732c737472696e67206c6f636b4e616d656040820152602960f81b606082015260610190565b604051602081830303815290604052805190602001208989898960405160200161031e9190611db5565b60408051601f198184030181528282528051602091820120908301969096528101939093526060830191909152608082015260a081019190915260c00160405160208183030381529060405280519060200120905060008282604051602001610388929190611dfd565b6040516020818303038152906040528051906020012090506103aa8186610a9e565b9a9950505050505050505050565b6000806040516020016103ca90611d4b565b60408051601f198184030181528282528051602091820120838301835260058452640302e322e360dc1b8483015291519192600080516020611f5a833981519152926104169201611db5565b604051602081830303815290604052805190602001204687604051602001610442959493929190611dd1565b60405160208183030381529060405280519060200120905060006040516020016104a3907f7374724f43496e76697428626f6f6c20616363657074616e63652c737472696e81526a67206e69636b6e616d652960a81b6020820152602b0190565b6040516020818303038152906040528051906020012087876040516020016104cb9190611db5565b60405160208183030381529060405280519060200120604051602001610504939291909283529015156020830152604082015260600190565b60405160208183030381529060405280519060200120905060008282604051602001610531929190611dfd565b6040516020818303038152906040528051906020012090506105538186610a9e565b98975050505050505050565b60008060405160200161057190611d4b565b60408051601f198184030181528282528051602091820120838301835260058452640302e322e360dc1b8483015291519192600080516020611f5a833981519152926105bd9201611db5565b6040516020818303038152906040528051906020012046876040516020016105e9959493929190611dd1565b6040516020818303038152906040528051906020012090506000604051602001610644907f7374724f435570434c48574c4e465428616464726573732077686974654c6973815264744e46542960d81b602082015260250190565b60408051601f198184030181528282528051602091820120908301526001600160a01b038816908201526060015b6040516020818303038152906040528051906020012090506000828260405160200161069f929190611dfd565b6040516020818303038152906040528051906020012090506106c18186610a9e565b979650505050505050565b6000806040516020016106de90611d4b565b60408051601f198184030181528282528051602091820120838301835260058452640302e322e360dc1b8483015291519192600080516020611f5a8339815191529261072a9201611db5565b604051602081830303815290604052805190602001204687604051602001610756959493929190611dd1565b6040516020818303038152906040528051906020012090506000604051602001610803907f7374724f434e6577434c4828737472696e6720686f7573654e616d652c626f6f81527f6c20686f757365507269766174652c626f6f6c20686f7573654f70656e2c756960208201527f6e7432353620676f7652756c654d617855736572732c6164647265737320776860408201526a6974654c6973744e46542960a81b6060820152606b0190565b604051602081830303815290604052805190602001208a60405160200161082a9190611db5565b60408051601f198184030181528282528051602091820120908301939093528101919091528915156060820152881515608082015260a081018890526001600160a01b03871660c082015260e0015b604051602081830303815290604052805190602001209050600082826040516020016108a6929190611dfd565b6040516020818303038152906040528051906020012090506108c88186610a9e565b9b9a5050505050505050505050565b6000806040516020016108e990611d4b565b60408051601f198184030181528282528051602091820120838301835260058452640302e322e360dc1b8483015291519192600080516020611f5a833981519152926109359201611db5565b604051602081830303815290604052805190602001204687604051602001610961959493929190611dd1565b60405160208183030381529060405280519060200120905060006040516020016109fa907f7374724f434e65775573657228616464726573732077616c6c6574416464722c81527f737472696e67206e616d652c737472696e67206465736372697074696f6e2c6260208201527f6f6f6c2069734d616e616765722c75696e743235362064656c617954696d6529604082015260600190565b604051602081830303815290604052805190602001208a8a604051602001610a229190611db5565b604051602081830303815290604052805190602001208a604051602001610a499190611db5565b60408051601f198184030181528282528051602091820120908301959095526001600160a01b03909316928101929092526060820152608081019190915287151560a082015260c0810187905260e001610879565b60008151604114610aec5760405162461bcd60e51b8152602060048201526014602482015273084c2c840e6d2cedcc2e8eae4ca40d8cadccee8d60631b604482015260640160405180910390fd5b602082810151604080850151606080870151835160008082529681018086528a9052951a928501839052840183905260808401819052919260019060a0016020604051602081039080840390855afa158015610b4c573d6000803e3d6000fd5b5050604051601f190151979650505050505050565b600080604051602001610b7390611d4b565b60408051601f198184030181528282528051602091820120838301835260058452640302e322e360dc1b8483015291519192600080516020611f5a83398151915292610bbf9201611db5565b604051602081830303815290604052805190602001204687604051602001610beb959493929190611dd1565b6040516020818303038152906040528051906020012090506000604051602001610c38907f7374724f435570434c484e616d6528737472696e6720686f7573654e616d6529815260200190565b6040516020818303038152906040528051906020012086604051602001610c5f9190611db5565b60405160208183030381529060405280519060200120604051602001610672929190918252602082015260400190565b600080604051602001610ca190611d4b565b60408051601f198184030181528282528051602091820120838301835260058452640302e322e360dc1b8483015291519192600080516020611f5a83398151915292610ced9201611db5565b604051602081830303815290604052805190602001204687604051602001610d19959493929190611dd1565b6040516020818303038152906040528051906020012090506000604051602001610d8c907f7374724f43566f74652875696e743235362070726f7049642c626f6f6c20737581527f70706f72742c737472696e67206a757374696669636174696f6e2900000000006020820152603b0190565b60405160208183030381529060405280519060200120888888604051602001610db59190611db5565b60408051601f1981840301815282825280516020918201209083019590955281019290925215156060820152608081019190915260a0015b60405160208183030381529060405280519060200120905060008282604051602001610e1a929190611dfd565b604051602081830303815290604052805190602001209050610e3c8186610a9e565b9998505050505050505050565b600080604051602001610e5b90611d4b565b60408051601f198184030181528282528051602091820120838301835260058452640302e322e360dc1b8483015291519192600080516020611f5a83398151915292610ea79201611db5565b604051602081830303815290604052805190602001204687604051602001610ed3959493929190611dd1565b6040516020818303038152906040528051906020012090506000604051602001610f54907f7374724f4344656c5573657228616464726573732077616c6c6574416464722c81527f737472696e67206465736372697074696f6e2c75696e743235362064656c617960208201526454696d652960d81b604082015260450190565b604051602081830303815290604052805190602001208888604051602001610f7c9190611db5565b6040516020818303038152906040528051906020012088604051602001610ded94939291909384526001600160a01b039290921660208401526040830152606082015260800190565b600080604051602001610fd790611d4b565b60408051601f198184030181528282528051602091820120838301835260058452640302e322e360dc1b8483015291519192600080516020611f5a833981519152926110239201611db5565b60405160208183030381529060405280519060200120468760405160200161104f959493929190611dd1565b60405160208183030381529060405280519060200120905060006040516020016110b1907f7374724f435265717565737428737472696e67206e616d652c737472696e672081526b6465736372697074696f6e2960a01b6020820152602c0190565b60405160208183030381529060405280519060200120876040516020016110d89190611db5565b60405160208183030381529060405280519060200120876040516020016110ff9190611db5565b60408051601f198184030181528282528051602091820120908301949094528101919091526060810191909152608001610504565b606060008290506000816001600160a01b03166319a50f496040518163ffffffff1660e01b8152600401602060405180830381865afa15801561117b573d6000803e3d6000fd5b505050506040513d601f19601f8201168201806040525081019061119f9190611e18565b90506000826001600160a01b031663a693649a6040518163ffffffff1660e01b8152600401602060405180830381865afa1580156111e1573d6000803e3d6000fd5b505050506040513d601f19601f820116820180604052508101906112059190611e18565b9050816001600160401b0381111561121f5761121f611563565b60405190808252806020026020018201604052801561128657816020015b611273604051806080016040528060006001600160a01b0316815260200160008152602001606081526020016000151581525090565b81526020019060019003908161123d5790505b509350600060015b82811015611402576112cc604051806080016040528060006001600160a01b0316815260200160008152602001606081526020016000151581525090565b6040516308ad020760e21b8152600481018390526001600160a01b038716906322b4081c90602401602060405180830381865afa158015611311573d6000803e3d6000fd5b505050506040513d601f19601f820116820180604052508101906113359190611e31565b6001600160a01b03908116808352604051639d2fcb8760e01b8152600481019190915290871690639d2fcb8790602401600060405180830381865afa158015611382573d6000803e3d6000fd5b505050506040513d6000823e601f3d908101601f191682016040526113aa9190810190611e4e565b15156060840152604083015260208201819052156113ef57808784815181106113d5576113d5611ee4565b602002602001018190525082806113eb90611efa565b9350505b50806113fa81611efa565b91505061128e565b5050505050919050565b60008060405160200161141e90611d4b565b60408051601f198184030181528282528051602091820120838301835260058452640302e322e360dc1b8483015291519192600080516020611f5a8339815191529261146a9201611db5565b604051602081830303815290604052805190602001204687604051602001611496959493929190611dd1565b6040516020818303038152906040528051906020012090506000604051602001611514907f7374724f4342756c6b566f74652875696e743235365b5d2070726f704964732c81527f626f6f6c20737570706f72742c737472696e67206a757374696669636174696f6020820152616e2960f01b604082015260420190565b604051602081830303815290604052805190602001208860405160200161153b9190611f23565b604051602081830303815290604052805190602001208888604051602001610db59190611db5565b634e487b7160e01b600052604160045260246000fd5b604051601f8201601f191681016001600160401b03811182821017156115a1576115a1611563565b604052919050565b60006001600160401b038211156115c2576115c2611563565b50601f01601f191660200190565b600082601f8301126115e157600080fd5b81356115f46115ef826115a9565b611579565b81815284602083860101111561160957600080fd5b816020850160208301376000918101602001919091529392505050565b6001600160a01b038116811461163b57600080fd5b50565b803561164981611626565b919050565b60008060008060008060c0878903121561166757600080fd5b86359550602087013594506040870135935060608701356001600160401b038082111561169357600080fd5b61169f8a838b016115d0565b9450608089013591506116b182611626565b90925060a088013590808211156116c757600080fd5b506116d489828a016115d0565b9150509295509295509295565b801515811461163b57600080fd5b8035611649816116e1565b6000806000806080858703121561171057600080fd5b843561171b816116e1565b935060208501356001600160401b038082111561173757600080fd5b611743888389016115d0565b94506040870135915061175582611626565b9092506060860135908082111561176b57600080fd5b50611778878288016115d0565b91505092959194509250565b60008060006060848603121561179957600080fd5b83356117a481611626565b925060208401356117b481611626565b915060408401356001600160401b038111156117cf57600080fd5b6117db868287016115d0565b9150509250925092565b600080600080600080600060e0888a03121561180057600080fd5b87356001600160401b038082111561181757600080fd5b6118238b838c016115d0565b985060208a01359150611835826116e1565b909650604089013590611847826116e1565b9095506060890135945060808901359061186082611626565b90935060a08901359061187282611626565b90925060c0890135908082111561188857600080fd5b506118958a828b016115d0565b91505092959891949750929550565b600080600080600080600060e0888a0312156118bf57600080fd5b87356118ca81611626565b965060208801356001600160401b03808211156118e657600080fd5b6118f28b838c016115d0565b975060408a013591508082111561190857600080fd5b6119148b838c016115d0565b965060608a01359150611926826116e1565b81955060808a0135945061193c60a08b0161163e565b935060c08a013591508082111561188857600080fd5b6000806040838503121561196557600080fd5b8235915060208301356001600160401b0381111561198257600080fd5b61198e858286016115d0565b9150509250929050565b6000806000606084860312156119ad57600080fd5b83356001600160401b03808211156119c457600080fd5b6119d0878388016115d0565b9450602086013591506119e282611626565b909250604085013590808211156119f857600080fd5b506117db868287016115d0565b600080600080600060a08688031215611a1d57600080fd5b853594506020860135611a2f816116e1565b935060408601356001600160401b0380821115611a4b57600080fd5b611a5789838a016115d0565b945060608801359150611a6982611626565b90925060808701359080821115611a7f57600080fd5b50611a8c888289016115d0565b9150509295509295909350565b600080600080600060a08688031215611ab157600080fd5b8535611abc81611626565b945060208601356001600160401b0380821115611ad857600080fd5b611ae489838a016115d0565b95506040880135945060608801359150611a6982611626565b60008060008060808587031215611b1357600080fd5b84356001600160401b0380821115611b2a57600080fd5b611b36888389016115d0565b9550602087013591508082111561173757600080fd5b600060208284031215611b5e57600080fd5b8135611b6981611626565b9392505050565b60005b83811015611b8b578181015183820152602001611b73565b83811115611b9a576000848401525b50505050565b60006020808301818452808551808352604092508286019150828160051b87010184880160005b83811015611c4757888303603f19018552815180516001600160a01b031684528781015188850152868101516080888601819052815190860181905260a09190611c1681848901848e01611b70565b6060938401511515938701939093525095880195601f91909101601f19169093019092019190860190600101611bc7565b509098975050505050505050565b600080600080600060a08688031215611c6d57600080fd5b85356001600160401b0380821115611c8457600080fd5b818801915088601f830112611c9857600080fd5b8135602082821115611cac57611cac611563565b8160051b611cbb828201611579565b928352848101820192828101908d851115611cd557600080fd5b958301955b84871015611cf357863582529583019590830190611cda565b9a50611d039150508a82016116ef565b975050506040880135915080821115611d1b57600080fd5b611d2789838a016115d0565b9450611d356060890161163e565b93506080880135915080821115611a7f57600080fd5b7f454950373132446f6d61696e28737472696e67206e616d652c737472696e672081527f76657273696f6e2c75696e7432353620636861696e49642c6164647265737320602082015271766572696679696e67436f6e74726163742960701b604082015260520190565b60008251611dc7818460208701611b70565b9190910192915050565b9485526020850193909352604084019190915260608301526001600160a01b0316608082015260a00190565b61190160f01b81526002810192909252602282015260420190565b600060208284031215611e2a57600080fd5b5051919050565b600060208284031215611e4357600080fd5b8151611b6981611626565b600080600060608486031215611e6357600080fd5b8351925060208401516001600160401b03811115611e8057600080fd5b8401601f81018613611e9157600080fd5b8051611e9f6115ef826115a9565b818152876020838501011115611eb457600080fd5b611ec5826020830160208601611b70565b8094505050506040840151611ed9816116e1565b809150509250925092565b634e487b7160e01b600052603260045260246000fd5b6000600019821415611f1c57634e487b7160e01b600052601160045260246000fd5b5060010190565b815160009082906020808601845b83811015611f4d57815185529382019390820190600101611f31565b5092969550505050505056fe01318895af1f6db161b2ba745b8e57a6b46efad77d736630379ec69c3cd4c875a264697066735822122071cabb830cfa3bc07b998f94a107a2b82c26564c51df4866ab65b88ebfe23afd64736f6c634300080c0033",
  "bytecodeSha1": "6ab72ebdc0c432e82de7397a739fe122bddabf22",
  "compiler": {
    "evm_version": "istanbul",
    "optimizer": {
      "enabled": true,
      "runs": 200
    },
    "version": "0.8.12+commit.f00d7308"
  },
  "contractName": "CLHouseApi",
  "language": "Solidity",
  "natspec": {
    "author": "Leonardo Urrego",
    "kind": "dev",
    "methods": {
      "GetHouseUserList(address)": {
        "notice": "The list of all users address",
        "params": {
          "_houseAddr": "address of the CLH"
        },
        "returns": {
          "arrUsers": "array of user address"
        }
      },
      "SignerOCBulkVote(uint256[],bool,string,address,bytes)": {
        "notice": "Retrieve the signer from Offchain BulkVote signature",
        "params": {
          "_houseAddr": "address of the CLH",
          "_justification": "Description of the vote",
          "_propIds": "Array with ID of the proposal to votes",
          "_signature": "EIP712 Signature",
          "_support": "is the Vote (True or False) for all proposals"
        },
        "returns": {
          "_0": "Wallet address of the signer"
        }
      },
      "SignerOCInvit(bool,string,address,bytes)": {
        "notice": "Retrieve the signer from Offchain Invitation signature",
        "params": {
          "_acceptance": "True for accept the invitation",
          "_houseAddr": "address of the CLH",
          "_nickname": "A nickname for the user",
          "_signature": "EIP712 Signature"
        },
        "returns": {
          "_0": "Wallet address of the signer"
        }
      },
      "SignerOCInvitUser(address,string,string,bool,uint256,address,bytes)": {
        "notice": "Retrieve the signer from Offchain Invite User signature",
        "params": {
          "_description": "A text for the proposal",
          "_houseAddr": "address of the CLH",
          "_isManager": "True if is for a manager",
          "_name": "Can be the nickname or other reference to the User",
          "_signature": "EIP712 Signature",
          "_walletAddr": "Address of the new user"
        },
        "returns": {
          "_0": "Wallet address of the signer"
        }
      },
      "SignerOCNewCLH(string,bool,bool,uint256,address,address,bytes)": {
        "notice": "Retrieve the signer from Offchain New house signature",
        "params": {
          "_govRuleMaxUsers": "Max users in the house",
          "_houseName": "Name of the CLH",
          "_houseOpen": "If is set to 1, the CLH is set to open",
          "_housePrivate": "If is set to 1, the CLH is set to private",
          "_pxyCLF": "address of the CLF",
          "_signature": "EIP712 Signature",
          "_whiteListNFT": "Address of NFT Collection for users invitation"
        },
        "returns": {
          "_0": "Wallet address of the signer"
        }
      },
      "SignerOCNewLock(uint256,uint256,uint256,string,address,bytes)": {
        "notice": "Retrieve the signer from Offchain New Lock signature",
        "params": {
          "_expirationDuration": "Expiration for lcok in seconds",
          "_houseAddr": "address of the CLH",
          "_keyPrice": "Price for each lock in wei",
          "_lockName": "Lock Name",
          "_maxNumberOfKeys": "How many locks",
          "_signature": "EIP712 Signature"
        },
        "returns": {
          "_0": "Wallet address of the signer"
        }
      },
      "SignerOCRemoveUser(address,string,uint256,address,bytes)": {
        "notice": "Retrieve the signer from Offchain Remove User signature",
        "params": {
          "_description": "About the proposal",
          "_houseAddr": "address of the CLH",
          "_signature": "EIP712 Signature",
          "_walletAddr": "user Address to be removed"
        },
        "returns": {
          "_0": "Wallet address of the signer"
        }
      },
      "SignerOCRequestToJoin(string,string,address,bytes)": {
        "notice": "Retrieve the signer from Offchain request to join signature",
        "params": {
          "_description": "About the request",
          "_houseAddr": "address of the CLH",
          "_name": "Nickname or other user identification",
          "_signature": "EIP712 Signature"
        },
        "returns": {
          "_0": "Wallet address of the signer"
        }
      },
      "SignerOCUpCLHName(string,address,bytes)": {
        "notice": "Retrieve the signer from Offchain Update CLH Name",
        "params": {
          "_houseAddr": "address of the CLH",
          "_houseName": "new CLH Name",
          "_signature": "EIP712 Signature"
        },
        "returns": {
          "_0": "Wallet address of the signer"
        }
      },
      "SignerOCUpCLHWLNFT(address,address,bytes)": {
        "notice": "Retrieve the signer from Offchain Update CLH Whitelist NFT",
        "params": {
          "_houseAddr": "address of the CLH",
          "_signature": "EIP712 Signature",
          "_whiteListNFT": "New contract address of NFT"
        },
        "returns": {
          "_0": "Wallet address of the signer"
        }
      },
      "SignerOCVote(uint256,bool,string,address,bytes)": {
        "notice": "Retrieve the signer from Offchain Vote signature",
        "params": {
          "_houseAddr": "address of the CLH",
          "_justification": "About your vote",
          "_propId": "ID of the proposal, based on `arrProposals`",
          "_signature": "EIP712 Signature",
          "_support": "True for accept, false to reject"
        },
        "returns": {
          "_0": "Wallet address of the signer"
        }
      },
      "SignerOfMsg(bytes32,bytes)": {
        "notice": "A funtion to verify the signer of a menssage",
        "params": {
          "_msghash": "Hash of the message",
          "_signature": "Signature of the message"
        },
        "returns": {
          "_0": "Signer address of the message"
        }
      }
    },
    "title": "Some view funtions to interact with a CLHouse",
    "version": 1
  },
  "opcodes": "PUSH1 0x80 PUSH1 0x40 MSTORE CALLVALUE DUP1 ISZERO PUSH2 0x10 JUMPI PUSH1 0x0 DUP1 REVERT JUMPDEST POP PUSH1 0x4 CALLDATASIZE LT PUSH2 0xB4 JUMPI PUSH1 0x0 CALLDATALOAD PUSH1 0xE0 SHR DUP1 PUSH4 0x62423C75 GT PUSH2 0x71 JUMPI DUP1 PUSH4 0x62423C75 EQ PUSH2 0x148 JUMPI DUP1 PUSH4 0x89AB062A EQ PUSH2 0x15B JUMPI DUP1 PUSH4 0xAA25F2D7 EQ PUSH2 0x16E JUMPI DUP1 PUSH4 0xAEA35CB1 EQ PUSH2 0x181 JUMPI DUP1 PUSH4 0xB698BE8D EQ PUSH2 0x194 JUMPI DUP1 PUSH4 0xF0B00C9F EQ PUSH2 0x1B4 JUMPI PUSH1 0x0 DUP1 REVERT JUMPDEST DUP1 PUSH4 0xDAFF036 EQ PUSH2 0xB9 JUMPI DUP1 PUSH4 0x2EE9C163 EQ PUSH2 0xE9 JUMPI DUP1 PUSH4 0x31E65582 EQ PUSH2 0xFC JUMPI DUP1 PUSH4 0x44D72583 EQ PUSH2 0x10F JUMPI DUP1 PUSH4 0x476216DC EQ PUSH2 0x122 JUMPI DUP1 PUSH4 0x622ECA77 EQ PUSH2 0x135 JUMPI JUMPDEST PUSH1 0x0 DUP1 REVERT JUMPDEST PUSH2 0xCC PUSH2 0xC7 CALLDATASIZE PUSH1 0x4 PUSH2 0x164E JUMP JUMPDEST PUSH2 0x1C7 JUMP JUMPDEST PUSH1 0x40 MLOAD PUSH1 0x1 PUSH1 0x1 PUSH1 0xA0 SHL SUB SWAP1 SWAP2 AND DUP2 MSTORE PUSH1 0x20 ADD JUMPDEST PUSH1 0x40 MLOAD DUP1 SWAP2 SUB SWAP1 RETURN JUMPDEST PUSH2 0xCC PUSH2 0xF7 CALLDATASIZE PUSH1 0x4 PUSH2 0x16FA JUMP JUMPDEST PUSH2 0x3B8 JUMP JUMPDEST PUSH2 0xCC PUSH2 0x10A CALLDATASIZE PUSH1 0x4 PUSH2 0x1784 JUMP JUMPDEST PUSH2 0x55F JUMP JUMPDEST PUSH2 0xCC PUSH2 0x11D CALLDATASIZE PUSH1 0x4 PUSH2 0x17E5 JUMP JUMPDEST PUSH2 0x6CC JUMP JUMPDEST PUSH2 0xCC PUSH2 0x130 CALLDATASIZE PUSH1 0x4 PUSH2 0x18A4 JUMP JUMPDEST PUSH2 0x8D7 JUMP JUMPDEST PUSH2 0xCC PUSH2 0x143 CALLDATASIZE PUSH1 0x4 PUSH2 0x1952 JUMP JUMPDEST PUSH2 0xA9E JUMP JUMPDEST PUSH2 0xCC PUSH2 0x156 CALLDATASIZE PUSH1 0x4 PUSH2 0x1998 JUMP JUMPDEST PUSH2 0xB61 JUMP JUMPDEST PUSH2 0xCC PUSH2 0x169 CALLDATASIZE PUSH1 0x4 PUSH2 0x1A05 JUMP JUMPDEST PUSH2 0xC8F JUMP JUMPDEST PUSH2 0xCC PUSH2 0x17C CALLDATASIZE PUSH1 0x4 PUSH2 0x1A99 JUMP JUMPDEST PUSH2 0xE49 JUMP JUMPDEST PUSH2 0xCC PUSH2 0x18F CALLDATASIZE PUSH1 0x4 PUSH2 0x1AFD JUMP JUMPDEST PUSH2 0xFC5 JUMP JUMPDEST PUSH2 0x1A7 PUSH2 0x1A2 CALLDATASIZE PUSH1 0x4 PUSH2 0x1B4C JUMP JUMPDEST PUSH2 0x1134 JUMP JUMPDEST PUSH1 0x40 MLOAD PUSH2 0xE0 SWAP2 SWAP1 PUSH2 0x1BA0 JUMP JUMPDEST PUSH2 0xCC PUSH2 0x1C2 CALLDATASIZE PUSH1 0x4 PUSH2 0x1C55 JUMP JUMPDEST PUSH2 0x140C JUMP JUMPDEST PUSH1 0x0 DUP1 PUSH1 0x40 MLOAD PUSH1 0x20 ADD PUSH2 0x1D9 SWAP1 PUSH2 0x1D4B JUMP JUMPDEST PUSH1 0x40 DUP1 MLOAD PUSH1 0x1F NOT DUP2 DUP5 SUB ADD DUP2 MSTORE DUP3 DUP3 MSTORE DUP1 MLOAD PUSH1 0x20 SWAP2 DUP3 ADD KECCAK256 DUP4 DUP4 ADD DUP4 MSTORE PUSH1 0x5 DUP5 MSTORE PUSH5 0x302E322E3 PUSH1 0xDC SHL DUP5 DUP4 ADD MSTORE SWAP2 MLOAD SWAP2 SWAP3 PUSH1 0x0 DUP1 MLOAD PUSH1 0x20 PUSH2 0x1F5A DUP4 CODECOPY DUP2 MLOAD SWAP2 MSTORE SWAP3 PUSH2 0x225 SWAP3 ADD PUSH2 0x1DB5 JUMP JUMPDEST PUSH1 0x40 MLOAD PUSH1 0x20 DUP2 DUP4 SUB SUB DUP2 MSTORE SWAP1 PUSH1 0x40 MSTORE DUP1 MLOAD SWAP1 PUSH1 0x20 ADD KECCAK256 CHAINID DUP8 PUSH1 0x40 MLOAD PUSH1 0x20 ADD PUSH2 0x251 SWAP6 SWAP5 SWAP4 SWAP3 SWAP2 SWAP1 PUSH2 0x1DD1 JUMP JUMPDEST PUSH1 0x40 MLOAD PUSH1 0x20 DUP2 DUP4 SUB SUB DUP2 MSTORE SWAP1 PUSH1 0x40 MSTORE DUP1 MLOAD SWAP1 PUSH1 0x20 ADD KECCAK256 SWAP1 POP PUSH1 0x0 PUSH1 0x40 MLOAD PUSH1 0x20 ADD PUSH2 0x2F4 SWAP1 PUSH32 0x7374724F434E65774C6F636B2875696E743235362065787069726174696F6E44 DUP2 MSTORE PUSH32 0x75726174696F6E2C75696E74323536206B657950726963652C75696E74323536 PUSH1 0x20 DUP3 ADD MSTORE PUSH32 0x206D61784E756D6265724F664B6579732C737472696E67206C6F636B4E616D65 PUSH1 0x40 DUP3 ADD MSTORE PUSH1 0x29 PUSH1 0xF8 SHL PUSH1 0x60 DUP3 ADD MSTORE PUSH1 0x61 ADD SWAP1 JUMP JUMPDEST PUSH1 0x40 MLOAD PUSH1 0x20 DUP2 DUP4 SUB SUB DUP2 MSTORE SWAP1 PUSH1 0x40 MSTORE DUP1 MLOAD SWAP1 PUSH1 0x20 ADD KECCAK256 DUP10 DUP10 DUP10 DUP10 PUSH1 0x40 MLOAD PUSH1 0x20 ADD PUSH2 0x31E SWAP2 SWAP1 PUSH2 0x1DB5 JUMP JUMPDEST PUSH1 0x40 DUP1 MLOAD PUSH1 0x1F NOT DUP2 DUP5 SUB ADD DUP2 MSTORE DUP3 DUP3 MSTORE DUP1 MLOAD PUSH1 0x20 SWAP2 DUP3 ADD KECCAK256 SWAP1 DUP4 ADD SWAP7 SWAP1 SWAP7 MSTORE DUP2 ADD SWAP4 SWAP1 SWAP4 MSTORE PUSH1 0x60 DUP4 ADD SWAP2 SWAP1 SWAP2 MSTORE PUSH1 0x80 DUP3 ADD MSTORE PUSH1 0xA0 DUP2 ADD SWAP2 SWAP1 SWAP2 MSTORE PUSH1 0xC0 ADD PUSH1 0x40 MLOAD PUSH1 0x20 DUP2 DUP4 SUB SUB DUP2 MSTORE SWAP1 PUSH1 0x40 MSTORE DUP1 MLOAD SWAP1 PUSH1 0x20 ADD KECCAK256 SWAP1 POP PUSH1 0x0 DUP3 DUP3 PUSH1 0x40 MLOAD PUSH1 0x20 ADD PUSH2 0x388 SWAP3 SWAP2 SWAP1 PUSH2 0x1DFD JUMP JUMPDEST PUSH1 0x40 MLOAD PUSH1 0x20 DUP2 DUP4 SUB SUB DUP2 MSTORE SWAP1 PUSH1 0x40 MSTORE DUP1 MLOAD SWAP1 PUSH1 0x20 ADD KECCAK256 SWAP1 POP PUSH2 0x3AA DUP2 DUP7 PUSH2 0xA9E JUMP JUMPDEST SWAP11 SWAP10 POP POP POP POP POP POP POP POP POP POP JUMP JUMPDEST PUSH1 0x0 DUP1 PUSH1 0x40 MLOAD PUSH1 0x20 ADD PUSH2 0x3CA SWAP1 PUSH2 0x1D4B JUMP JUMPDEST PUSH1 0x40 DUP1 MLOAD PUSH1 0x1F NOT DUP2 DUP5 SUB ADD DUP2 MSTORE DUP3 DUP3 MSTORE DUP1 MLOAD PUSH1 0x20 SWAP2 DUP3 ADD KECCAK256 DUP4 DUP4 ADD DUP4 MSTORE PUSH1 0x5 DUP5 MSTORE PUSH5 0x302E322E3 PUSH1 0xDC SHL DUP5 DUP4 ADD MSTORE SWAP2 MLOAD SWAP2 SWAP3 PUSH1 0x0 DUP1 MLOAD PUSH1 0x20 PUSH2 0x1F5A DUP4 CODECOPY DUP2 MLOAD SWAP2 MSTORE SWAP3 PUSH2 0x416 SWAP3 ADD PUSH2 0x1DB5 JUMP JUMPDEST PUSH1 0x40 MLOAD PUSH1 0x20 DUP2 DUP4 SUB SUB DUP2 MSTORE SWAP1 PUSH1 0x40 MSTORE DUP1 MLOAD SWAP1 PUSH1 0x20 ADD KECCAK256 CHAINID DUP8 PUSH1 0x40 MLOAD PUSH1 0x20 ADD PUSH2 0x442 SWAP6 SWAP5 SWAP4 SWAP3 SWAP2 SWAP1 PUSH2 0x1DD1 JUMP JUMPDEST PUSH1 0x40 MLOAD PUSH1 0x20 DUP2 DUP4 SUB SUB DUP2 MSTORE SWAP1 PUSH1 0x40 MSTORE DUP1 MLOAD SWAP1 PUSH1 0x20 ADD KECCAK256 SWAP1 POP PUSH1 0x0 PUSH1 0x40 MLOAD PUSH1 0x20 ADD PUSH2 0x4A3 SWAP1 PUSH32 0x7374724F43496E76697428626F6F6C20616363657074616E63652C737472696E DUP2 MSTORE PUSH11 0x67206E69636B6E616D6529 PUSH1 0xA8 SHL PUSH1 0x20 DUP3 ADD MSTORE PUSH1 0x2B ADD SWAP1 JUMP JUMPDEST PUSH1 0x40 MLOAD PUSH1 0x20 DUP2 DUP4 SUB SUB DUP2 MSTORE SWAP1 PUSH1 0x40 MSTORE DUP1 MLOAD SWAP1 PUSH1 0x20 ADD KECCAK256 DUP8 DUP8 PUSH1 0x40 MLOAD PUSH1 0x20 ADD PUSH2 0x4CB SWAP2 SWAP1 PUSH2 0x1DB5 JUMP JUMPDEST PUSH1 0x40 MLOAD PUSH1 0x20 DUP2 DUP4 SUB SUB DUP2 MSTORE SWAP1 PUSH1 0x40 MSTORE DUP1 MLOAD SWAP1 PUSH1 0x20 ADD KECCAK256 PUSH1 0x40 MLOAD PUSH1 0x20 ADD PUSH2 0x504 SWAP4 SWAP3 SWAP2 SWAP1 SWAP3 DUP4 MSTORE SWAP1 ISZERO ISZERO PUSH1 0x20 DUP4 ADD MSTORE PUSH1 0x40 DUP3 ADD MSTORE PUSH1 0x60 ADD SWAP1 JUMP JUMPDEST PUSH1 0x40 MLOAD PUSH1 0x20 DUP2 DUP4 SUB SUB DUP2 MSTORE SWAP1 PUSH1 0x40 MSTORE DUP1 MLOAD SWAP1 PUSH1 0x20 ADD KECCAK256 SWAP1 POP PUSH1 0x0 DUP3 DUP3 PUSH1 0x40 MLOAD PUSH1 0x20 ADD PUSH2 0x531 SWAP3 SWAP2 SWAP1 PUSH2 0x1DFD JUMP JUMPDEST PUSH1 0x40 MLOAD PUSH1 0x20 DUP2 DUP4 SUB SUB DUP2 MSTORE SWAP1 PUSH1 0x40 MSTORE DUP1 MLOAD SWAP1 PUSH1 0x20 ADD KECCAK256 SWAP1 POP PUSH2 0x553 DUP2 DUP7 PUSH2 0xA9E JUMP JUMPDEST SWAP9 SWAP8 POP POP POP POP POP POP POP POP JUMP JUMPDEST PUSH1 0x0 DUP1 PUSH1 0x40 MLOAD PUSH1 0x20 ADD PUSH2 0x571 SWAP1 PUSH2 0x1D4B JUMP JUMPDEST PUSH1 0x40 DUP1 MLOAD PUSH1 0x1F NOT DUP2 DUP5 SUB ADD DUP2 MSTORE DUP3 DUP3 MSTORE DUP1 MLOAD PUSH1 0x20 SWAP2 DUP3 ADD KECCAK256 DUP4 DUP4 ADD DUP4 MSTORE PUSH1 0x5 DUP5 MSTORE PUSH5 0x302E322E3 PUSH1 0xDC SHL DUP5 DUP4 ADD MSTORE SWAP2 MLOAD SWAP2 SWAP3 PUSH1 0x0 DUP1 MLOAD PUSH1 0x20 PUSH2 0x1F5A DUP4 CODECOPY DUP2 MLOAD SWAP2 MSTORE SWAP3 PUSH2 0x5BD SWAP3 ADD PUSH2 0x1DB5 JUMP JUMPDEST PUSH1 0x40 MLOAD PUSH1 0x20 DUP2 DUP4 SUB SUB DUP2 MSTORE SWAP1 PUSH1 0x40 MSTORE DUP1 MLOAD SWAP1 PUSH1 0x20 ADD KECCAK256 CHAINID DUP8 PUSH1 0x40 MLOAD PUSH1 0x20 ADD PUSH2 0x5E9 SWAP6 SWAP5 SWAP4 SWAP3 SWAP2 SWAP1 PUSH2 0x1DD1 JUMP JUMPDEST PUSH1 0x40 MLOAD PUSH1 0x20 DUP2 DUP4 SUB SUB DUP2 MSTORE SWAP1 PUSH1 0x40 MSTORE DUP1 MLOAD SWAP1 PUSH1 0x20 ADD KECCAK256 SWAP1 POP PUSH1 0x0 PUSH1 0x40 MLOAD PUSH1 0x20 ADD PUSH2 0x644 SWAP1 PUSH32 0x7374724F435570434C48574C4E465428616464726573732077686974654C6973 DUP2 MSTORE PUSH5 0x744E465429 PUSH1 0xD8 SHL PUSH1 0x20 DUP3 ADD MSTORE PUSH1 0x25 ADD SWAP1 JUMP JUMPDEST PUSH1 0x40 DUP1 MLOAD PUSH1 0x1F NOT DUP2 DUP5 SUB ADD DUP2 MSTORE DUP3 DUP3 MSTORE DUP1 MLOAD PUSH1 0x20 SWAP2 DUP3 ADD KECCAK256 SWAP1 DUP4 ADD MSTORE PUSH1 0x1 PUSH1 0x1 PUSH1 0xA0 SHL SUB DUP9 AND SWAP1 DUP3 ADD MSTORE PUSH1 0x60 ADD JUMPDEST PUSH1 0x40 MLOAD PUSH1 0x20 DUP2 DUP4 SUB SUB DUP2 MSTORE SWAP1 PUSH1 0x40 MSTORE DUP1 MLOAD SWAP1 PUSH1 0x20 ADD KECCAK256 SWAP1 POP PUSH1 0x0 DUP3 DUP3 PUSH1 0x40 MLOAD PUSH1 0x20 ADD PUSH2 0x69F SWAP3 SWAP2 SWAP1 PUSH2 0x1DFD JUMP JUMPDEST PUSH1 0x40 MLOAD PUSH1 0x20 DUP2 DUP4 SUB SUB DUP2 MSTORE SWAP1 PUSH1 0x40 MSTORE DUP1 MLOAD SWAP1 PUSH1 0x20 ADD KECCAK256 SWAP1 POP PUSH2 0x6C1 DUP2 DUP7 PUSH2 0xA9E JUMP JUMPDEST SWAP8 SWAP7 POP POP POP POP POP POP POP JUMP JUMPDEST PUSH1 0x0 DUP1 PUSH1 0x40 MLOAD PUSH1 0x20 ADD PUSH2 0x6DE SWAP1 PUSH2 0x1D4B JUMP JUMPDEST PUSH1 0x40 DUP1 MLOAD PUSH1 0x1F NOT DUP2 DUP5 SUB ADD DUP2 MSTORE DUP3 DUP3 MSTORE DUP1 MLOAD PUSH1 0x20 SWAP2 DUP3 ADD KECCAK256 DUP4 DUP4 ADD DUP4 MSTORE PUSH1 0x5 DUP5 MSTORE PUSH5 0x302E322E3 PUSH1 0xDC SHL DUP5 DUP4 ADD MSTORE SWAP2 MLOAD SWAP2 SWAP3 PUSH1 0x0 DUP1 MLOAD PUSH1 0x20 PUSH2 0x1F5A DUP4 CODECOPY DUP2 MLOAD SWAP2 MSTORE SWAP3 PUSH2 0x72A SWAP3 ADD PUSH2 0x1DB5 JUMP JUMPDEST PUSH1 0x40 MLOAD PUSH1 0x20 DUP2 DUP4 SUB SUB DUP2 MSTORE SWAP1 PUSH1 0x40 MSTORE DUP1 MLOAD SWAP1 PUSH1 0x20 ADD KECCAK256 CHAINID DUP8 PUSH1 0x40 MLOAD PUSH1 0x20 ADD PUSH2 0x756 SWAP6 SWAP5 SWAP4 SWAP3 SWAP2 SWAP1 PUSH2 0x1DD1 JUMP JUMPDEST PUSH1 0x40 MLOAD PUSH1 0x20 DUP2 DUP4 SUB SUB DUP2 MSTORE SWAP1 PUSH1 0x40 MSTORE DUP1 MLOAD SWAP1 PUSH1 0x20 ADD KECCAK256 SWAP1 POP PUSH1 0x0 PUSH1 0x40 MLOAD PUSH1 0x20 ADD PUSH2 0x803 SWAP1 PUSH32 0x7374724F434E6577434C4828737472696E6720686F7573654E616D652C626F6F DUP2 MSTORE PUSH32 0x6C20686F757365507269766174652C626F6F6C20686F7573654F70656E2C7569 PUSH1 0x20 DUP3 ADD MSTORE PUSH32 0x6E7432353620676F7652756C654D617855736572732C61646472657373207768 PUSH1 0x40 DUP3 ADD MSTORE PUSH11 0x6974654C6973744E465429 PUSH1 0xA8 SHL PUSH1 0x60 DUP3 ADD MSTORE PUSH1 0x6B ADD SWAP1 JUMP JUMPDEST PUSH1 0x40 MLOAD PUSH1 0x20 DUP2 DUP4 SUB SUB DUP2 MSTORE SWAP1 PUSH1 0x40 MSTORE DUP1 MLOAD SWAP1 PUSH1 0x20 ADD KECCAK256 DUP11 PUSH1 0x40 MLOAD PUSH1 0x20 ADD PUSH2 0x82A SWAP2 SWAP1 PUSH2 0x1DB5 JUMP JUMPDEST PUSH1 0x40 DUP1 MLOAD PUSH1 0x1F NOT DUP2 DUP5 SUB ADD DUP2 MSTORE DUP3 DUP3 MSTORE DUP1 MLOAD PUSH1 0x20 SWAP2 DUP3 ADD KECCAK256 SWAP1 DUP4 ADD SWAP4 SWAP1 SWAP4 MSTORE DUP2 ADD SWAP2 SWAP1 SWAP2 MSTORE DUP10 ISZERO ISZERO PUSH1 0x60 DUP3 ADD MSTORE DUP9 ISZERO ISZERO PUSH1 0x80 DUP3 ADD MSTORE PUSH1 0xA0 DUP2 ADD DUP9 SWAP1 MSTORE PUSH1 0x1 PUSH1 0x1 PUSH1 0xA0 SHL SUB DUP8 AND PUSH1 0xC0 DUP3 ADD MSTORE PUSH1 0xE0 ADD JUMPDEST PUSH1 0x40 MLOAD PUSH1 0x20 DUP2 DUP4 SUB SUB DUP2 MSTORE SWAP1 PUSH1 0x40 MSTORE DUP1 MLOAD SWAP1 PUSH1 0x20 ADD KECCAK256 SWAP1 POP PUSH1 0x0 DUP3 DUP3 PUSH1 0x40 MLOAD PUSH1 0x20 ADD PUSH2 0x8A6 SWAP3 SWAP2 SWAP1 PUSH2 0x1DFD JUMP JUMPDEST PUSH1 0x40 MLOAD PUSH1 0x20 DUP2 DUP4 SUB SUB DUP2 MSTORE SWAP1 PUSH1 0x40 MSTORE DUP1 MLOAD SWAP1 PUSH1 0x20 ADD KECCAK256 SWAP1 POP PUSH2 0x8C8 DUP2 DUP7 PUSH2 0xA9E JUMP JUMPDEST SWAP12 SWAP11 POP POP POP POP POP POP POP POP POP POP POP JUMP JUMPDEST PUSH1 0x0 DUP1 PUSH1 0x40 MLOAD PUSH1 0x20 ADD PUSH2 0x8E9 SWAP1 PUSH2 0x1D4B JUMP JUMPDEST PUSH1 0x40 DUP1 MLOAD PUSH1 0x1F NOT DUP2 DUP5 SUB ADD DUP2 MSTORE DUP3 DUP3 MSTORE DUP1 MLOAD PUSH1 0x20 SWAP2 DUP3 ADD KECCAK256 DUP4 DUP4 ADD DUP4 MSTORE PUSH1 0x5 DUP5 MSTORE PUSH5 0x302E322E3 PUSH1 0xDC SHL DUP5 DUP4 ADD MSTORE SWAP2 MLOAD SWAP2 SWAP3 PUSH1 0x0 DUP1 MLOAD PUSH1 0x20 PUSH2 0x1F5A DUP4 CODECOPY DUP2 MLOAD SWAP2 MSTORE SWAP3 PUSH2 0x935 SWAP3 ADD PUSH2 0x1DB5 JUMP JUMPDEST PUSH1 0x40 MLOAD PUSH1 0x20 DUP2 DUP4 SUB SUB DUP2 MSTORE SWAP1 PUSH1 0x40 MSTORE DUP1 MLOAD SWAP1 PUSH1 0x20 ADD KECCAK256 CHAINID DUP8 PUSH1 0x40 MLOAD PUSH1 0x20 ADD PUSH2 0x961 SWAP6 SWAP5 SWAP4 SWAP3 SWAP2 SWAP1 PUSH2 0x1DD1 JUMP JUMPDEST PUSH1 0x40 MLOAD PUSH1 0x20 DUP2 DUP4 SUB SUB DUP2 MSTORE SWAP1 PUSH1 0x40 MSTORE DUP1 MLOAD SWAP1 PUSH1 0x20 ADD KECCAK256 SWAP1 POP PUSH1 0x0 PUSH1 0x40 MLOAD PUSH1 0x20 ADD PUSH2 0x9FA SWAP1 PUSH32 0x7374724F434E65775573657228616464726573732077616C6C6574416464722C DUP2 MSTORE PUSH32 0x737472696E67206E616D652C737472696E67206465736372697074696F6E2C62 PUSH1 0x20 DUP3 ADD MSTORE PUSH32 0x6F6F6C2069734D616E616765722C75696E743235362064656C617954696D6529 PUSH1 0x40 DUP3 ADD MSTORE PUSH1 0x60 ADD SWAP1 JUMP JUMPDEST PUSH1 0x40 MLOAD PUSH1 0x20 DUP2 DUP4 SUB SUB DUP2 MSTORE SWAP1 PUSH1 0x40 MSTORE DUP1 MLOAD SWAP1 PUSH1 0x20 ADD KECCAK256 DUP11 DUP11 PUSH1 0x40 MLOAD PUSH1 0x20 ADD PUSH2 0xA22 SWAP2 SWAP1 PUSH2 0x1DB5 JUMP JUMPDEST PUSH1 0x40 MLOAD PUSH1 0x20 DUP2 DUP4 SUB SUB DUP2 MSTORE SWAP1 PUSH1 0x40 MSTORE DUP1 MLOAD SWAP1 PUSH1 0x20 ADD KECCAK256 DUP11 PUSH1 0x40 MLOAD PUSH1 0x20 ADD PUSH2 0xA49 SWAP2 SWAP1 PUSH2 0x1DB5 JUMP JUMPDEST PUSH1 0x40 DUP1 MLOAD PUSH1 0x1F NOT DUP2 DUP5 SUB ADD DUP2 MSTORE DUP3 DUP3 MSTORE DUP1 MLOAD PUSH1 0x20 SWAP2 DUP3 ADD KECCAK256 SWAP1 DUP4 ADD SWAP6 SWAP1 SWAP6 MSTORE PUSH1 0x1 PUSH1 0x1 PUSH1 0xA0 SHL SUB SWAP1 SWAP4 AND SWAP3 DUP2 ADD SWAP3 SWAP1 SWAP3 MSTORE PUSH1 0x60 DUP3 ADD MSTORE PUSH1 0x80 DUP2 ADD SWAP2 SWAP1 SWAP2 MSTORE DUP8 ISZERO ISZERO PUSH1 0xA0 DUP3 ADD MSTORE PUSH1 0xC0 DUP2 ADD DUP8 SWAP1 MSTORE PUSH1 0xE0 ADD PUSH2 0x879 JUMP JUMPDEST PUSH1 0x0 DUP2 MLOAD PUSH1 0x41 EQ PUSH2 0xAEC JUMPI PUSH1 0x40 MLOAD PUSH3 0x461BCD PUSH1 0xE5 SHL DUP2 MSTORE PUSH1 0x20 PUSH1 0x4 DUP3 ADD MSTORE PUSH1 0x14 PUSH1 0x24 DUP3 ADD MSTORE PUSH20 0x84C2C840E6D2CEDCC2E8EAE4CA40D8CADCCEE8D PUSH1 0x63 SHL PUSH1 0x44 DUP3 ADD MSTORE PUSH1 0x64 ADD PUSH1 0x40 MLOAD DUP1 SWAP2 SUB SWAP1 REVERT JUMPDEST PUSH1 0x20 DUP3 DUP2 ADD MLOAD PUSH1 0x40 DUP1 DUP6 ADD MLOAD PUSH1 0x60 DUP1 DUP8 ADD MLOAD DUP4 MLOAD PUSH1 0x0 DUP1 DUP3 MSTORE SWAP7 DUP2 ADD DUP1 DUP7 MSTORE DUP11 SWAP1 MSTORE SWAP6 BYTE SWAP3 DUP6 ADD DUP4 SWAP1 MSTORE DUP5 ADD DUP4 SWAP1 MSTORE PUSH1 0x80 DUP5 ADD DUP2 SWAP1 MSTORE SWAP2 SWAP3 PUSH1 0x1 SWAP1 PUSH1 0xA0 ADD PUSH1 0x20 PUSH1 0x40 MLOAD PUSH1 0x20 DUP2 SUB SWAP1 DUP1 DUP5 SUB SWAP1 DUP6 GAS STATICCALL ISZERO DUP1 ISZERO PUSH2 0xB4C JUMPI RETURNDATASIZE PUSH1 0x0 DUP1 RETURNDATACOPY RETURNDATASIZE PUSH1 0x0 REVERT JUMPDEST POP POP PUSH1 0x40 MLOAD PUSH1 0x1F NOT ADD MLOAD SWAP8 SWAP7 POP POP POP POP POP POP POP JUMP JUMPDEST PUSH1 0x0 DUP1 PUSH1 0x40 MLOAD PUSH1 0x20 ADD PUSH2 0xB73 SWAP1 PUSH2 0x1D4B JUMP JUMPDEST PUSH1 0x40 DUP1 MLOAD PUSH1 0x1F NOT DUP2 DUP5 SUB ADD DUP2 MSTORE DUP3 DUP3 MSTORE DUP1 MLOAD PUSH1 0x20 SWAP2 DUP3 ADD KECCAK256 DUP4 DUP4 ADD DUP4 MSTORE PUSH1 0x5 DUP5 MSTORE PUSH5 0x302E322E3 PUSH1 0xDC SHL DUP5 DUP4 ADD MSTORE SWAP2 MLOAD SWAP2 SWAP3 PUSH1 0x0 DUP1 MLOAD PUSH1 0x20 PUSH2 0x1F5A DUP4 CODECOPY DUP2 MLOAD SWAP2 MSTORE SWAP3 PUSH2 0xBBF SWAP3 ADD PUSH2 0x1DB5 JUMP JUMPDEST PUSH1 0x40 MLOAD PUSH1 0x20 DUP2 DUP4 SUB SUB DUP2 MSTORE SWAP1 PUSH1 0x40 MSTORE DUP1 MLOAD SWAP1 PUSH1 0x20 ADD KECCAK256 CHAINID DUP8 PUSH1 0x40 MLOAD PUSH1 0x20 ADD PUSH2 0xBEB SWAP6 SWAP5 SWAP4 SWAP3 SWAP2 SWAP1 PUSH2 0x1DD1 JUMP JUMPDEST PUSH1 0x40 MLOAD PUSH1 0x20 DUP2 DUP4 SUB SUB DUP2 MSTORE SWAP1 PUSH1 0x40 MSTORE DUP1 MLOAD SWAP1 PUSH1 0x20 ADD KECCAK256 SWAP1 POP PUSH1 0x0 PUSH1 0x40 MLOAD PUSH1 0x20 ADD PUSH2 0xC38 SWAP1 PUSH32 0x7374724F435570434C484E616D6528737472696E6720686F7573654E616D6529 DUP2 MSTORE PUSH1 0x20 ADD SWAP1 JUMP JUMPDEST PUSH1 0x40 MLOAD PUSH1 0x20 DUP2 DUP4 SUB SUB DUP2 MSTORE SWAP1 PUSH1 0x40 MSTORE DUP1 MLOAD SWAP1 PUSH1 0x20 ADD KECCAK256 DUP7 PUSH1 0x40 MLOAD PUSH1 0x20 ADD PUSH2 0xC5F SWAP2 SWAP1 PUSH2 0x1DB5 JUMP JUMPDEST PUSH1 0x40 MLOAD PUSH1 0x20 DUP2 DUP4 SUB SUB DUP2 MSTORE SWAP1 PUSH1 0x40 MSTORE DUP1 MLOAD SWAP1 PUSH1 0x20 ADD KECCAK256 PUSH1 0x40 MLOAD PUSH1 0x20 ADD PUSH2 0x672 SWAP3 SWAP2 SWAP1 SWAP2 DUP3 MSTORE PUSH1 0x20 DUP3 ADD MSTORE PUSH1 0x40 ADD SWAP1 JUMP JUMPDEST PUSH1 0x0 DUP1 PUSH1 0x40 MLOAD PUSH1 0x20 ADD PUSH2 0xCA1 SWAP1 PUSH2 0x1D4B JUMP JUMPDEST PUSH1 0x40 DUP1 MLOAD PUSH1 0x1F NOT DUP2 DUP5 SUB ADD DUP2 MSTORE DUP3 DUP3 MSTORE DUP1 MLOAD PUSH1 0x20 SWAP2 DUP3 ADD KECCAK256 DUP4 DUP4 ADD DUP4 MSTORE PUSH1 0x5 DUP5 MSTORE PUSH5 0x302E322E3 PUSH1 0xDC SHL DUP5 DUP4 ADD MSTORE SWAP2 MLOAD SWAP2 SWAP3 PUSH1 0x0 DUP1 MLOAD PUSH1 0x20 PUSH2 0x1F5A DUP4 CODECOPY DUP2 MLOAD SWAP2 MSTORE SWAP3 PUSH2 0xCED SWAP3 ADD PUSH2 0x1DB5 JUMP JUMPDEST PUSH1 0x40 MLOAD PUSH1 0x20 DUP2 DUP4 SUB SUB DUP2 MSTORE SWAP1 PUSH1 0x40 MSTORE DUP1 MLOAD SWAP1 PUSH1 0x20 ADD KECCAK256 CHAINID DUP8 PUSH1 0x40 MLOAD PUSH1 0x20 ADD PUSH2 0xD19 SWAP6 SWAP5 SWAP4 SWAP3 SWAP2 SWAP1 PUSH2 0x1DD1 JUMP JUMPDEST PUSH1 0x40 MLOAD PUSH1 0x20 DUP2 DUP4 SUB SUB DUP2 MSTORE SWAP1 PUSH1 0x40 MSTORE DUP1 MLOAD SWAP1 PUSH1 0x20 ADD KECCAK256 SWAP1 POP PUSH1 0x0 PUSH1 0x40 MLOAD PUSH1 0x20 ADD PUSH2 0xD8C SWAP1 PUSH32 0x7374724F43566F74652875696E743235362070726F7049642C626F6F6C207375 DUP2 MSTORE PUSH32 0x70706F72742C737472696E67206A757374696669636174696F6E290000000000 PUSH1 0x20 DUP3 ADD MSTORE PUSH1 0x3B ADD SWAP1 JUMP JUMPDEST PUSH1 0x40 MLOAD PUSH1 0x20 DUP2 DUP4 SUB SUB DUP2 MSTORE SWAP1 PUSH1 0x40 MSTORE DUP1 MLOAD SWAP1 PUSH1 0x20 ADD KECCAK256 DUP9 DUP9 DUP9 PUSH1 0x40 MLOAD PUSH1 0x20 ADD PUSH2 0xDB5 SWAP2 SWAP1 PUSH2 0x1DB5 JUMP JUMPDEST PUSH1 0x40 DUP1 MLOAD PUSH1 0x1F NOT DUP2 DUP5 SUB ADD DUP2 MSTORE DUP3 DUP3 MSTORE DUP1 MLOAD PUSH1 0x20 SWAP2 DUP3 ADD KECCAK256 SWAP1 DUP4 ADD SWAP6 SWAP1 SWAP6 MSTORE DUP2 ADD SWAP3 SWAP1 SWAP3 MSTORE ISZERO ISZERO PUSH1 0x60 DUP3 ADD MSTORE PUSH1 0x80 DUP2 ADD SWAP2 SWAP1 SWAP2 MSTORE PUSH1 0xA0 ADD JUMPDEST PUSH1 0x40 MLOAD PUSH1 0x20 DUP2 DUP4 SUB SUB DUP2 MSTORE SWAP1 PUSH1 0x40 MSTORE DUP1 MLOAD SWAP1 PUSH1 0x20 ADD KECCAK256 SWAP1 POP PUSH1 0x0 DUP3 DUP3 PUSH1 0x40 MLOAD PUSH1 0x20 ADD PUSH2 0xE1A SWAP3 SWAP2 SWAP1 PUSH2 0x1DFD JUMP JUMPDEST PUSH1 0x40 MLOAD PUSH1 0x20 DUP2 DUP4 SUB SUB DUP2 MSTORE SWAP1 PUSH1 0x40 MSTORE DUP1 MLOAD SWAP1 PUSH1 0x20 ADD KECCAK256 SWAP1 POP PUSH2 0xE3C DUP2 DUP7 PUSH2 0xA9E JUMP JUMPDEST SWAP10 SWAP9 POP POP POP POP POP POP POP POP POP JUMP JUMPDEST PUSH1 0x0 DUP1 PUSH1 0x40 MLOAD PUSH1 0x20 ADD PUSH2 0xE5B SWAP1 PUSH2 0x1D4B JUMP JUMPDEST PUSH1 0x40 DUP1 MLOAD PUSH1 0x1F NOT DUP2 DUP5 SUB ADD DUP2 MSTORE DUP3 DUP3 MSTORE DUP1 MLOAD PUSH1 0x20 SWAP2 DUP3 ADD KECCAK256 DUP4 DUP4 ADD DUP4 MSTORE PUSH1 0x5 DUP5 MSTORE PUSH5 0x302E322E3 PUSH1 0xDC SHL DUP5 DUP4 ADD MSTORE SWAP2 MLOAD SWAP2 SWAP3 PUSH1 0x0 DUP1 MLOAD PUSH1 0x20 PUSH2 0x1F5A DUP4 CODECOPY DUP2 MLOAD SWAP2 MSTORE SWAP3 PUSH2 0xEA7 SWAP3 ADD PUSH2 0x1DB5 JUMP JUMPDEST PUSH1 0x40 MLOAD PUSH1 0x20 DUP2 DUP4 SUB SUB DUP2 MSTORE SWAP1 PUSH1 0x40 MSTORE DUP1 MLOAD SWAP1 PUSH1 0x20 ADD KECCAK256 CHAINID DUP8 PUSH1 0x40 MLOAD PUSH1 0x20 ADD PUSH2 0xED3 SWAP6 SWAP5 SWAP4 SWAP3 SWAP2 SWAP1 PUSH2 0x1DD1 JUMP JUMPDEST PUSH1 0x40 MLOAD PUSH1 0x20 DUP2 DUP4 SUB SUB DUP2 MSTORE SWAP1 PUSH1 0x40 MSTORE DUP1 MLOAD SWAP1 PUSH1 0x20 ADD KECCAK256 SWAP1 POP PUSH1 0x0 PUSH1 0x40 MLOAD PUSH1 0x20 ADD PUSH2 0xF54 SWAP1 PUSH32 0x7374724F4344656C5573657228616464726573732077616C6C6574416464722C DUP2 MSTORE PUSH32 0x737472696E67206465736372697074696F6E2C75696E743235362064656C6179 PUSH1 0x20 DUP3 ADD MSTORE PUSH5 0x54696D6529 PUSH1 0xD8 SHL PUSH1 0x40 DUP3 ADD MSTORE PUSH1 0x45 ADD SWAP1 JUMP JUMPDEST PUSH1 0x40 MLOAD PUSH1 0x20 DUP2 DUP4 SUB SUB DUP2 MSTORE SWAP1 PUSH1 0x40 MSTORE DUP1 MLOAD SWAP1 PUSH1 0x20 ADD KECCAK256 DUP9 DUP9 PUSH1 0x40 MLOAD PUSH1 0x20 ADD PUSH2 0xF7C SWAP2 SWAP1 PUSH2 0x1DB5 JUMP JUMPDEST PUSH1 0x40 MLOAD PUSH1 0x20 DUP2 DUP4 SUB SUB DUP2 MSTORE SWAP1 PUSH1 0x40 MSTORE DUP1 MLOAD SWAP1 PUSH1 0x20 ADD KECCAK256 DUP9 PUSH1 0x40 MLOAD PUSH1 0x20 ADD PUSH2 0xDED SWAP5 SWAP4 SWAP3 SWAP2 SWAP1 SWAP4 DUP5 MSTORE PUSH1 0x1 PUSH1 0x1 PUSH1 0xA0 SHL SUB SWAP3 SWAP1 SWAP3 AND PUSH1 0x20 DUP5 ADD MSTORE PUSH1 0x40 DUP4 ADD MSTORE PUSH1 0x60 DUP3 ADD MSTORE PUSH1 0x80 ADD SWAP1 JUMP JUMPDEST PUSH1 0x0 DUP1 PUSH1 0x40 MLOAD PUSH1 0x20 ADD PUSH2 0xFD7 SWAP1 PUSH2 0x1D4B JUMP JUMPDEST PUSH1 0x40 DUP1 MLOAD PUSH1 0x1F NOT DUP2 DUP5 SUB ADD DUP2 MSTORE DUP3 DUP3 MSTORE DUP1 MLOAD PUSH1 0x20 SWAP2 DUP3 ADD KECCAK256 DUP4 DUP4 ADD DUP4 MSTORE PUSH1 0x5 DUP5 MSTORE PUSH5 0x302E322E3 PUSH1 0xDC SHL DUP5 DUP4 ADD MSTORE SWAP2 MLOAD SWAP2 SWAP3 PUSH1 0x0 DUP1 MLOAD PUSH1 0x20 PUSH2 0x1F5A DUP4 CODECOPY DUP2 MLOAD SWAP2 MSTORE SWAP3 PUSH2 0x1023 SWAP3 ADD PUSH2 0x1DB5 JUMP JUMPDEST PUSH1 0x40 MLOAD PUSH1 0x20 DUP2 DUP4 SUB SUB DUP2 MSTORE SWAP1 PUSH1 0x40 MSTORE DUP1 MLOAD SWAP1 PUSH1 0x20 ADD KECCAK256 CHAINID DUP8 PUSH1 0x40 MLOAD PUSH1 0x20 ADD PUSH2 0x104F SWAP6 SWAP5 SWAP4 SWAP3 SWAP2 SWAP1 PUSH2 0x1DD1 JUMP JUMPDEST PUSH1 0x40 MLOAD PUSH1 0x20 DUP2 DUP4 SUB SUB DUP2 MSTORE SWAP1 PUSH1 0x40 MSTORE DUP1 MLOAD SWAP1 PUSH1 0x20 ADD KECCAK256 SWAP1 POP PUSH1 0x0 PUSH1 0x40 MLOAD PUSH1 0x20 ADD PUSH2 0x10B1 SWAP1 PUSH32 0x7374724F435265717565737428737472696E67206E616D652C737472696E6720 DUP2 MSTORE PUSH12 0x6465736372697074696F6E29 PUSH1 0xA0 SHL PUSH1 0x20 DUP3 ADD MSTORE PUSH1 0x2C ADD SWAP1 JUMP JUMPDEST PUSH1 0x40 MLOAD PUSH1 0x20 DUP2 DUP4 SUB SUB DUP2 MSTORE SWAP1 PUSH1 0x40 MSTORE DUP1 MLOAD SWAP1 PUSH1 0x20 ADD KECCAK256 DUP8 PUSH1 0x40 MLOAD PUSH1 0x20 ADD PUSH2 0x10D8 SWAP2 SWAP1 PUSH2 0x1DB5 JUMP JUMPDEST PUSH1 0x40 MLOAD PUSH1 0x20 DUP2 DUP4 SUB SUB DUP2 MSTORE SWAP1 PUSH1 0x40 MSTORE DUP1 MLOAD SWAP1 PUSH1 0x20 ADD KECCAK256 DUP8 PUSH1 0x40 MLOAD PUSH1 0x20 ADD PUSH2 0x10FF SWAP2 SWAP1 PUSH2 0x1DB5 JUMP JUMPDEST PUSH1 0x40 DUP1 MLOAD PUSH1 0x1F NOT DUP2 DUP5 SUB ADD DUP2 MSTORE DUP3 DUP3 MSTORE DUP1 MLOAD PUSH1 0x20 SWAP2 DUP3 ADD KECCAK256 SWAP1 DUP4 ADD SWAP5 SWAP1 SWAP5 MSTORE DUP2 ADD SWAP2 SWAP1 SWAP2 MSTORE PUSH1 0x60 DUP2 ADD SWAP2 SWAP1 SWAP2 MSTORE PUSH1 0x80 ADD PUSH2 0x504 JUMP JUMPDEST PUSH1 0x60 PUSH1 0x0 DUP3 SWAP1 POP PUSH1 0x0 DUP2 PUSH1 0x1 PUSH1 0x1 PUSH1 0xA0 SHL SUB AND PUSH4 0x19A50F49 PUSH1 0x40 MLOAD DUP2 PUSH4 0xFFFFFFFF AND PUSH1 0xE0 SHL DUP2 MSTORE PUSH1 0x4 ADD PUSH1 0x20 PUSH1 0x40 MLOAD DUP1 DUP4 SUB DUP2 DUP7 GAS STATICCALL ISZERO DUP1 ISZERO PUSH2 0x117B JUMPI RETURNDATASIZE PUSH1 0x0 DUP1 RETURNDATACOPY RETURNDATASIZE PUSH1 0x0 REVERT JUMPDEST POP POP POP POP PUSH1 0x40 MLOAD RETURNDATASIZE PUSH1 0x1F NOT PUSH1 0x1F DUP3 ADD AND DUP3 ADD DUP1 PUSH1 0x40 MSTORE POP DUP2 ADD SWAP1 PUSH2 0x119F SWAP2 SWAP1 PUSH2 0x1E18 JUMP JUMPDEST SWAP1 POP PUSH1 0x0 DUP3 PUSH1 0x1 PUSH1 0x1 PUSH1 0xA0 SHL SUB AND PUSH4 0xA693649A PUSH1 0x40 MLOAD DUP2 PUSH4 0xFFFFFFFF AND PUSH1 0xE0 SHL DUP2 MSTORE PUSH1 0x4 ADD PUSH1 0x20 PUSH1 0x40 MLOAD DUP1 DUP4 SUB DUP2 DUP7 GAS STATICCALL ISZERO DUP1 ISZERO PUSH2 0x11E1 JUMPI RETURNDATASIZE PUSH1 0x0 DUP1 RETURNDATACOPY RETURNDATASIZE PUSH1 0x0 REVERT JUMPDEST POP POP POP POP PUSH1 0x40 MLOAD RETURNDATASIZE PUSH1 0x1F NOT PUSH1 0x1F DUP3 ADD AND DUP3 ADD DUP1 PUSH1 0x40 MSTORE POP DUP2 ADD SWAP1 PUSH2 0x1205 SWAP2 SWAP1 PUSH2 0x1E18 JUMP JUMPDEST SWAP1 POP DUP2 PUSH1 0x1 PUSH1 0x1 PUSH1 0x40 SHL SUB DUP2 GT ISZERO PUSH2 0x121F JUMPI PUSH2 0x121F PUSH2 0x1563 JUMP JUMPDEST PUSH1 0x40 MLOAD SWAP1 DUP1 DUP3 MSTORE DUP1 PUSH1 0x20 MUL PUSH1 0x20 ADD DUP3 ADD PUSH1 0x40 MSTORE DUP1 ISZERO PUSH2 0x1286 JUMPI DUP2 PUSH1 0x20 ADD JUMPDEST PUSH2 0x1273 PUSH1 0x40 MLOAD DUP1 PUSH1 0x80 ADD PUSH1 0x40 MSTORE DUP1 PUSH1 0x0 PUSH1 0x1 PUSH1 0x1 PUSH1 0xA0 SHL SUB AND DUP2 MSTORE PUSH1 0x20 ADD PUSH1 0x0 DUP2 MSTORE PUSH1 0x20 ADD PUSH1 0x60 DUP2 MSTORE PUSH1 0x20 ADD PUSH1 0x0 ISZERO ISZERO DUP2 MSTORE POP SWAP1 JUMP JUMPDEST DUP2 MSTORE PUSH1 0x20 ADD SWAP1 PUSH1 0x1 SWAP1 SUB SWAP1 DUP2 PUSH2 0x123D JUMPI SWAP1 POP JUMPDEST POP SWAP4 POP PUSH1 0x0 PUSH1 0x1 JUMPDEST DUP3 DUP2 LT ISZERO PUSH2 0x1402 JUMPI PUSH2 0x12CC PUSH1 0x40 MLOAD DUP1 PUSH1 0x80 ADD PUSH1 0x40 MSTORE DUP1 PUSH1 0x0 PUSH1 0x1 PUSH1 0x1 PUSH1 0xA0 SHL SUB AND DUP2 MSTORE PUSH1 0x20 ADD PUSH1 0x0 DUP2 MSTORE PUSH1 0x20 ADD PUSH1 0x60 DUP2 MSTORE PUSH1 0x20 ADD PUSH1 0x0 ISZERO ISZERO DUP2 MSTORE POP SWAP1 JUMP JUMPDEST PUSH1 0x40 MLOAD PUSH4 0x8AD0207 PUSH1 0xE2 SHL DUP2 MSTORE PUSH1 0x4 DUP2 ADD DUP4 SWAP1 MSTORE PUSH1 0x1 PUSH1 0x1 PUSH1 0xA0 SHL SUB DUP8 AND SWAP1 PUSH4 0x22B4081C SWAP1 PUSH1 0x24 ADD PUSH1 0x20 PUSH1 0x40 MLOAD DUP1 DUP4 SUB DUP2 DUP7 GAS STATICCALL ISZERO DUP1 ISZERO PUSH2 0x1311 JUMPI RETURNDATASIZE PUSH1 0x0 DUP1 RETURNDATACOPY RETURNDATASIZE PUSH1 0x0 REVERT JUMPDEST POP POP POP POP PUSH1 0x40 MLOAD RETURNDATASIZE PUSH1 0x1F NOT PUSH1 0x1F DUP3 ADD AND DUP3 ADD DUP1 PUSH1 0x40 MSTORE POP DUP2 ADD SWAP1 PUSH2 0x1335 SWAP2 SWAP1 PUSH2 0x1E31 JUMP JUMPDEST PUSH1 0x1 PUSH1 0x1 PUSH1 0xA0 SHL SUB SWAP1 DUP2 AND DUP1 DUP4 MSTORE PUSH1 0x40 MLOAD PUSH4 0x9D2FCB87 PUSH1 0xE0 SHL DUP2 MSTORE PUSH1 0x4 DUP2 ADD SWAP2 SWAP1 SWAP2 MSTORE SWAP1 DUP8 AND SWAP1 PUSH4 0x9D2FCB87 SWAP1 PUSH1 0x24 ADD PUSH1 0x0 PUSH1 0x40 MLOAD DUP1 DUP4 SUB DUP2 DUP7 GAS STATICCALL ISZERO DUP1 ISZERO PUSH2 0x1382 JUMPI RETURNDATASIZE PUSH1 0x0 DUP1 RETURNDATACOPY RETURNDATASIZE PUSH1 0x0 REVERT JUMPDEST POP POP POP POP PUSH1 0x40 MLOAD RETURNDATASIZE PUSH1 0x0 DUP3 RETURNDATACOPY PUSH1 0x1F RETURNDATASIZE SWAP1 DUP2 ADD PUSH1 0x1F NOT AND DUP3 ADD PUSH1 0x40 MSTORE PUSH2 0x13AA SWAP2 SWAP1 DUP2 ADD SWAP1 PUSH2 0x1E4E JUMP JUMPDEST ISZERO ISZERO PUSH1 0x60 DUP5 ADD MSTORE PUSH1 0x40 DUP4 ADD MSTORE PUSH1 0x20 DUP3 ADD DUP2 SWAP1 MSTORE ISZERO PUSH2 0x13EF JUMPI DUP1 DUP8 DUP5 DUP2 MLOAD DUP2 LT PUSH2 0x13D5 JUMPI PUSH2 0x13D5 PUSH2 0x1EE4 JUMP JUMPDEST PUSH1 0x20 MUL PUSH1 0x20 ADD ADD DUP2 SWAP1 MSTORE POP DUP3 DUP1 PUSH2 0x13EB SWAP1 PUSH2 0x1EFA JUMP JUMPDEST SWAP4 POP POP JUMPDEST POP DUP1 PUSH2 0x13FA DUP2 PUSH2 0x1EFA JUMP JUMPDEST SWAP2 POP POP PUSH2 0x128E JUMP JUMPDEST POP POP POP POP POP SWAP2 SWAP1 POP JUMP JUMPDEST PUSH1 0x0 DUP1 PUSH1 0x40 MLOAD PUSH1 0x20 ADD PUSH2 0x141E SWAP1 PUSH2 0x1D4B JUMP JUMPDEST PUSH1 0x40 DUP1 MLOAD PUSH1 0x1F NOT DUP2 DUP5 SUB ADD DUP2 MSTORE DUP3 DUP3 MSTORE DUP1 MLOAD PUSH1 0x20 SWAP2 DUP3 ADD KECCAK256 DUP4 DUP4 ADD DUP4 MSTORE PUSH1 0x5 DUP5 MSTORE PUSH5 0x302E322E3 PUSH1 0xDC SHL DUP5 DUP4 ADD MSTORE SWAP2 MLOAD SWAP2 SWAP3 PUSH1 0x0 DUP1 MLOAD PUSH1 0x20 PUSH2 0x1F5A DUP4 CODECOPY DUP2 MLOAD SWAP2 MSTORE SWAP3 PUSH2 0x146A SWAP3 ADD PUSH2 0x1DB5 JUMP JUMPDEST PUSH1 0x40 MLOAD PUSH1 0x20 DUP2 DUP4 SUB SUB DUP2 MSTORE SWAP1 PUSH1 0x40 MSTORE DUP1 MLOAD SWAP1 PUSH1 0x20 ADD KECCAK256 CHAINID DUP8 PUSH1 0x40 MLOAD PUSH1 0x20 ADD PUSH2 0x1496 SWAP6 SWAP5 SWAP4 SWAP3 SWAP2 SWAP1 PUSH2 0x1DD1 JUMP JUMPDEST PUSH1 0x40 MLOAD PUSH1 0x20 DUP2 DUP4 SUB SUB DUP2 MSTORE SWAP1 PUSH1 0x40 MSTORE DUP1 MLOAD SWAP1 PUSH1 0x20 ADD KECCAK256 SWAP1 POP PUSH1 0x0 PUSH1 0x40 MLOAD PUSH1 0x20 ADD PUSH2 0x1514 SWAP1 PUSH32 0x7374724F4342756C6B566F74652875696E743235365B5D2070726F704964732C DUP2 MSTORE PUSH32 0x626F6F6C20737570706F72742C737472696E67206A757374696669636174696F PUSH1 0x20 DUP3 ADD MSTORE PUSH2 0x6E29 PUSH1 0xF0 SHL PUSH1 0x40 DUP3 ADD MSTORE PUSH1 0x42 ADD SWAP1 JUMP JUMPDEST PUSH1 0x40 MLOAD PUSH1 0x20 DUP2 DUP4 SUB SUB DUP2 MSTORE SWAP1 PUSH1 0x40 MSTORE DUP1 MLOAD SWAP1 PUSH1 0x20 ADD KECCAK256 DUP9 PUSH1 0x40 MLOAD PUSH1 0x20 ADD PUSH2 0x153B SWAP2 SWAP1 PUSH2 0x1F23 JUMP JUMPDEST PUSH1 0x40 MLOAD PUSH1 0x20 DUP2 DUP4 SUB SUB DUP2 MSTORE SWAP1 PUSH1 0x40 MSTORE DUP1 MLOAD SWAP1 PUSH1 0x20 ADD KECCAK256 DUP9 DUP9 PUSH1 0x40 MLOAD PUSH1 0x20 ADD PUSH2 0xDB5 SWAP2 SWAP1 PUSH2 0x1DB5 JUMP JUMPDEST PUSH4 0x4E487B71 PUSH1 0xE0 SHL PUSH1 0x0 MSTORE PUSH1 0x41 PUSH1 0x4 MSTORE PUSH1 0x24 PUSH1 0x0 REVERT JUMPDEST PUSH1 0x40 MLOAD PUSH1 0x1F DUP3 ADD PUSH1 0x1F NOT AND DUP2 ADD PUSH1 0x1 PUSH1 0x1 PUSH1 0x40 SHL SUB DUP2 GT DUP3 DUP3 LT OR ISZERO PUSH2 0x15A1 JUMPI PUSH2 0x15A1 PUSH2 0x1563 JUMP JUMPDEST PUSH1 0x40 MSTORE SWAP2 SWAP1 POP JUMP JUMPDEST PUSH1 0x0 PUSH1 0x1 PUSH1 0x1 PUSH1 0x40 SHL SUB DUP3 GT ISZERO PUSH2 0x15C2 JUMPI PUSH2 0x15C2 PUSH2 0x1563 JUMP JUMPDEST POP PUSH1 0x1F ADD PUSH1 0x1F NOT AND PUSH1 0x20 ADD SWAP1 JUMP JUMPDEST PUSH1 0x0 DUP3 PUSH1 0x1F DUP4 ADD SLT PUSH2 0x15E1 JUMPI PUSH1 0x0 DUP1 REVERT JUMPDEST DUP2 CALLDATALOAD PUSH2 0x15F4 PUSH2 0x15EF DUP3 PUSH2 0x15A9 JUMP JUMPDEST PUSH2 0x1579 JUMP JUMPDEST DUP2 DUP2 MSTORE DUP5 PUSH1 0x20 DUP4 DUP7 ADD ADD GT ISZERO PUSH2 0x1609 JUMPI PUSH1 0x0 DUP1 REVERT JUMPDEST DUP2 PUSH1 0x20 DUP6 ADD PUSH1 0x20 DUP4 ADD CALLDATACOPY PUSH1 0x0 SWAP2 DUP2 ADD PUSH1 0x20 ADD SWAP2 SWAP1 SWAP2 MSTORE SWAP4 SWAP3 POP POP POP JUMP JUMPDEST PUSH1 0x1 PUSH1 0x1 PUSH1 0xA0 SHL SUB DUP2 AND DUP2 EQ PUSH2 0x163B JUMPI PUSH1 0x0 DUP1 REVERT JUMPDEST POP JUMP JUMPDEST DUP1 CALLDATALOAD PUSH2 0x1649 DUP2 PUSH2 0x1626 JUMP JUMPDEST SWAP2 SWAP1 POP JUMP JUMPDEST PUSH1 0x0 DUP1 PUSH1 0x0 DUP1 PUSH1 0x0 DUP1 PUSH1 0xC0 DUP8 DUP10 SUB SLT ISZERO PUSH2 0x1667 JUMPI PUSH1 0x0 DUP1 REVERT JUMPDEST DUP7 CALLDATALOAD SWAP6 POP PUSH1 0x20 DUP8 ADD CALLDATALOAD SWAP5 POP PUSH1 0x40 DUP8 ADD CALLDATALOAD SWAP4 POP PUSH1 0x60 DUP8 ADD CALLDATALOAD PUSH1 0x1 PUSH1 0x1 PUSH1 0x40 SHL SUB DUP1 DUP3 GT ISZERO PUSH2 0x1693 JUMPI PUSH1 0x0 DUP1 REVERT JUMPDEST PUSH2 0x169F DUP11 DUP4 DUP12 ADD PUSH2 0x15D0 JUMP JUMPDEST SWAP5 POP PUSH1 0x80 DUP10 ADD CALLDATALOAD SWAP2 POP PUSH2 0x16B1 DUP3 PUSH2 0x1626 JUMP JUMPDEST SWAP1 SWAP3 POP PUSH1 0xA0 DUP9 ADD CALLDATALOAD SWAP1 DUP1 DUP3 GT ISZERO PUSH2 0x16C7 JUMPI PUSH1 0x0 DUP1 REVERT JUMPDEST POP PUSH2 0x16D4 DUP10 DUP3 DUP11 ADD PUSH2 0x15D0 JUMP JUMPDEST SWAP2 POP POP SWAP3 SWAP6 POP SWAP3 SWAP6 POP SWAP3 SWAP6 JUMP JUMPDEST DUP1 ISZERO ISZERO DUP2 EQ PUSH2 0x163B JUMPI PUSH1 0x0 DUP1 REVERT JUMPDEST DUP1 CALLDATALOAD PUSH2 0x1649 DUP2 PUSH2 0x16E1 JUMP JUMPDEST PUSH1 0x0 DUP1 PUSH1 0x0 DUP1 PUSH1 0x80 DUP6 DUP8 SUB SLT ISZERO PUSH2 0x1710 JUMPI PUSH1 0x0 DUP1 REVERT JUMPDEST DUP5 CALLDATALOAD PUSH2 0x171B DUP2 PUSH2 0x16E1 JUMP JUMPDEST SWAP4 POP PUSH1 0x20 DUP6 ADD CALLDATALOAD PUSH1 0x1 PUSH1 0x1 PUSH1 0x40 SHL SUB DUP1 DUP3 GT ISZERO PUSH2 0x1737 JUMPI PUSH1 0x0 DUP1 REVERT JUMPDEST PUSH2 0x1743 DUP9 DUP4 DUP10 ADD PUSH2 0x15D0 JUMP JUMPDEST SWAP5 POP PUSH1 0x40 DUP8 ADD CALLDATALOAD SWAP2 POP PUSH2 0x1755 DUP3 PUSH2 0x1626 JUMP JUMPDEST SWAP1 SWAP3 POP PUSH1 0x60 DUP7 ADD CALLDATALOAD SWAP1 DUP1 DUP3 GT ISZERO PUSH2 0x176B JUMPI PUSH1 0x0 DUP1 REVERT JUMPDEST POP PUSH2 0x1778 DUP8 DUP3 DUP9 ADD PUSH2 0x15D0 JUMP JUMPDEST SWAP2 POP POP SWAP3 SWAP6 SWAP2 SWAP5 POP SWAP3 POP JUMP JUMPDEST PUSH1 0x0 DUP1 PUSH1 0x0 PUSH1 0x60 DUP5 DUP7 SUB SLT ISZERO PUSH2 0x1799 JUMPI PUSH1 0x0 DUP1 REVERT JUMPDEST DUP4 CALLDATALOAD PUSH2 0x17A4 DUP2 PUSH2 0x1626 JUMP JUMPDEST SWAP3 POP PUSH1 0x20 DUP5 ADD CALLDATALOAD PUSH2 0x17B4 DUP2 PUSH2 0x1626 JUMP JUMPDEST SWAP2 POP PUSH1 0x40 DUP5 ADD CALLDATALOAD PUSH1 0x1 PUSH1 0x1 PUSH1 0x40 SHL SUB DUP2 GT ISZERO PUSH2 0x17CF JUMPI PUSH1 0x0 DUP1 REVERT JUMPDEST PUSH2 0x17DB DUP7 DUP3 DUP8 ADD PUSH2 0x15D0 JUMP JUMPDEST SWAP2 POP POP SWAP3 POP SWAP3 POP SWAP3 JUMP JUMPDEST PUSH1 0x0 DUP1 PUSH1 0x0 DUP1 PUSH1 0x0 DUP1 PUSH1 0x0 PUSH1 0xE0 DUP9 DUP11 SUB SLT ISZERO PUSH2 0x1800 JUMPI PUSH1 0x0 DUP1 REVERT JUMPDEST DUP8 CALLDATALOAD PUSH1 0x1 PUSH1 0x1 PUSH1 0x40 SHL SUB DUP1 DUP3 GT ISZERO PUSH2 0x1817 JUMPI PUSH1 0x0 DUP1 REVERT JUMPDEST PUSH2 0x1823 DUP12 DUP4 DUP13 ADD PUSH2 0x15D0 JUMP JUMPDEST SWAP9 POP PUSH1 0x20 DUP11 ADD CALLDATALOAD SWAP2 POP PUSH2 0x1835 DUP3 PUSH2 0x16E1 JUMP JUMPDEST SWAP1 SWAP7 POP PUSH1 0x40 DUP10 ADD CALLDATALOAD SWAP1 PUSH2 0x1847 DUP3 PUSH2 0x16E1 JUMP JUMPDEST SWAP1 SWAP6 POP PUSH1 0x60 DUP10 ADD CALLDATALOAD SWAP5 POP PUSH1 0x80 DUP10 ADD CALLDATALOAD SWAP1 PUSH2 0x1860 DUP3 PUSH2 0x1626 JUMP JUMPDEST SWAP1 SWAP4 POP PUSH1 0xA0 DUP10 ADD CALLDATALOAD SWAP1 PUSH2 0x1872 DUP3 PUSH2 0x1626 JUMP JUMPDEST SWAP1 SWAP3 POP PUSH1 0xC0 DUP10 ADD CALLDATALOAD SWAP1 DUP1 DUP3 GT ISZERO PUSH2 0x1888 JUMPI PUSH1 0x0 DUP1 REVERT JUMPDEST POP PUSH2 0x1895 DUP11 DUP3 DUP12 ADD PUSH2 0x15D0 JUMP JUMPDEST SWAP2 POP POP SWAP3 SWAP6 SWAP9 SWAP2 SWAP5 SWAP8 POP SWAP3 SWAP6 POP JUMP JUMPDEST PUSH1 0x0 DUP1 PUSH1 0x0 DUP1 PUSH1 0x0 DUP1 PUSH1 0x0 PUSH1 0xE0 DUP9 DUP11 SUB SLT ISZERO PUSH2 0x18BF JUMPI PUSH1 0x0 DUP1 REVERT JUMPDEST DUP8 CALLDATALOAD PUSH2 0x18CA DUP2 PUSH2 0x1626 JUMP JUMPDEST SWAP7 POP PUSH1 0x20 DUP9 ADD CALLDATALOAD PUSH1 0x1 PUSH1 0x1 PUSH1 0x40 SHL SUB DUP1 DUP3 GT ISZERO PUSH2 0x18E6 JUMPI PUSH1 0x0 DUP1 REVERT JUMPDEST PUSH2 0x18F2 DUP12 DUP4 DUP13 ADD PUSH2 0x15D0 JUMP JUMPDEST SWAP8 POP PUSH1 0x40 DUP11 ADD CALLDATALOAD SWAP2 POP DUP1 DUP3 GT ISZERO PUSH2 0x1908 JUMPI PUSH1 0x0 DUP1 REVERT JUMPDEST PUSH2 0x1914 DUP12 DUP4 DUP13 ADD PUSH2 0x15D0 JUMP JUMPDEST SWAP7 POP PUSH1 0x60 DUP11 ADD CALLDATALOAD SWAP2 POP PUSH2 0x1926 DUP3 PUSH2 0x16E1 JUMP JUMPDEST DUP2 SWAP6 POP PUSH1 0x80 DUP11 ADD CALLDATALOAD SWAP5 POP PUSH2 0x193C PUSH1 0xA0 DUP12 ADD PUSH2 0x163E JUMP JUMPDEST SWAP4 POP PUSH1 0xC0 DUP11 ADD CALLDATALOAD SWAP2 POP DUP1 DUP3 GT ISZERO PUSH2 0x1888 JUMPI PUSH1 0x0 DUP1 REVERT JUMPDEST PUSH1 0x0 DUP1 PUSH1 0x40 DUP4 DUP6 SUB SLT ISZERO PUSH2 0x1965 JUMPI PUSH1 0x0 DUP1 REVERT JUMPDEST DUP3 CALLDATALOAD SWAP2 POP PUSH1 0x20 DUP4 ADD CALLDATALOAD PUSH1 0x1 PUSH1 0x1 PUSH1 0x40 SHL SUB DUP2 GT ISZERO PUSH2 0x1982 JUMPI PUSH1 0x0 DUP1 REVERT JUMPDEST PUSH2 0x198E DUP6 DUP3 DUP7 ADD PUSH2 0x15D0 JUMP JUMPDEST SWAP2 POP POP SWAP3 POP SWAP3 SWAP1 POP JUMP JUMPDEST PUSH1 0x0 DUP1 PUSH1 0x0 PUSH1 0x60 DUP5 DUP7 SUB SLT ISZERO PUSH2 0x19AD JUMPI PUSH1 0x0 DUP1 REVERT JUMPDEST DUP4 CALLDATALOAD PUSH1 0x1 PUSH1 0x1 PUSH1 0x40 SHL SUB DUP1 DUP3 GT ISZERO PUSH2 0x19C4 JUMPI PUSH1 0x0 DUP1 REVERT JUMPDEST PUSH2 0x19D0 DUP8 DUP4 DUP9 ADD PUSH2 0x15D0 JUMP JUMPDEST SWAP5 POP PUSH1 0x20 DUP7 ADD CALLDATALOAD SWAP2 POP PUSH2 0x19E2 DUP3 PUSH2 0x1626 JUMP JUMPDEST SWAP1 SWAP3 POP PUSH1 0x40 DUP6 ADD CALLDATALOAD SWAP1 DUP1 DUP3 GT ISZERO PUSH2 0x19F8 JUMPI PUSH1 0x0 DUP1 REVERT JUMPDEST POP PUSH2 0x17DB DUP7 DUP3 DUP8 ADD PUSH2 0x15D0 JUMP JUMPDEST PUSH1 0x0 DUP1 PUSH1 0x0 DUP1 PUSH1 0x0 PUSH1 0xA0 DUP7 DUP9 SUB SLT ISZERO PUSH2 0x1A1D JUMPI PUSH1 0x0 DUP1 REVERT JUMPDEST DUP6 CALLDATALOAD SWAP5 POP PUSH1 0x20 DUP7 ADD CALLDATALOAD PUSH2 0x1A2F DUP2 PUSH2 0x16E1 JUMP JUMPDEST SWAP4 POP PUSH1 0x40 DUP7 ADD CALLDATALOAD PUSH1 0x1 PUSH1 0x1 PUSH1 0x40 SHL SUB DUP1 DUP3 GT ISZERO PUSH2 0x1A4B JUMPI PUSH1 0x0 DUP1 REVERT JUMPDEST PUSH2 0x1A57 DUP10 DUP4 DUP11 ADD PUSH2 0x15D0 JUMP JUMPDEST SWAP5 POP PUSH1 0x60 DUP9 ADD CALLDATALOAD SWAP2 POP PUSH2 0x1A69 DUP3 PUSH2 0x1626 JUMP JUMPDEST SWAP1 SWAP3 POP PUSH1 0x80 DUP8 ADD CALLDATALOAD SWAP1 DUP1 DUP3 GT ISZERO PUSH2 0x1A7F JUMPI PUSH1 0x0 DUP1 REVERT JUMPDEST POP PUSH2 0x1A8C DUP9 DUP3 DUP10 ADD PUSH2 0x15D0 JUMP JUMPDEST SWAP2 POP POP SWAP3 SWAP6 POP SWAP3 SWAP6 SWAP1 SWAP4 POP JUMP JUMPDEST PUSH1 0x0 DUP1 PUSH1 0x0 DUP1 PUSH1 0x0 PUSH1 0xA0 DUP7 DUP9 SUB SLT ISZERO PUSH2 0x1AB1 JUMPI PUSH1 0x0 DUP1 REVERT JUMPDEST DUP6 CALLDATALOAD PUSH2 0x1ABC DUP2 PUSH2 0x1626 JUMP JUMPDEST SWAP5 POP PUSH1 0x20 DUP7 ADD CALLDATALOAD PUSH1 0x1 PUSH1 0x1 PUSH1 0x40 SHL SUB DUP1 DUP3 GT ISZERO PUSH2 0x1AD8 JUMPI PUSH1 0x0 DUP1 REVERT JUMPDEST PUSH2 0x1AE4 DUP10 DUP4 DUP11 ADD PUSH2 0x15D0 JUMP JUMPDEST SWAP6 POP PUSH1 0x40 DUP9 ADD CALLDATALOAD SWAP5 POP PUSH1 0x60 DUP9 ADD CALLDATALOAD SWAP2 POP PUSH2 0x1A69 DUP3 PUSH2 0x1626 JUMP JUMPDEST PUSH1 0x0 DUP1 PUSH1 0x0 DUP1 PUSH1 0x80 DUP6 DUP8 SUB SLT ISZERO PUSH2 0x1B13 JUMPI PUSH1 0x0 DUP1 REVERT JUMPDEST DUP5 CALLDATALOAD PUSH1 0x1 PUSH1 0x1 PUSH1 0x40 SHL SUB DUP1 DUP3 GT ISZERO PUSH2 0x1B2A JUMPI PUSH1 0x0 DUP1 REVERT JUMPDEST PUSH2 0x1B36 DUP9 DUP4 DUP10 ADD PUSH2 0x15D0 JUMP JUMPDEST SWAP6 POP PUSH1 0x20 DUP8 ADD CALLDATALOAD SWAP2 POP DUP1 DUP3 GT ISZERO PUSH2 0x1737 JUMPI PUSH1 0x0 DUP1 REVERT JUMPDEST PUSH1 0x0 PUSH1 0x20 DUP3 DUP5 SUB SLT ISZERO PUSH2 0x1B5E JUMPI PUSH1 0x0 DUP1 REVERT JUMPDEST DUP2 CALLDATALOAD PUSH2 0x1B69 DUP2 PUSH2 0x1626 JUMP JUMPDEST SWAP4 SWAP3 POP POP POP JUMP JUMPDEST PUSH1 0x0 JUMPDEST DUP4 DUP2 LT ISZERO PUSH2 0x1B8B JUMPI DUP2 DUP2 ADD MLOAD DUP4 DUP3 ADD MSTORE PUSH1 0x20 ADD PUSH2 0x1B73 JUMP JUMPDEST DUP4 DUP2 GT ISZERO PUSH2 0x1B9A JUMPI PUSH1 0x0 DUP5 DUP5 ADD MSTORE JUMPDEST POP POP POP POP JUMP JUMPDEST PUSH1 0x0 PUSH1 0x20 DUP1 DUP4 ADD DUP2 DUP5 MSTORE DUP1 DUP6 MLOAD DUP1 DUP4 MSTORE PUSH1 0x40 SWAP3 POP DUP3 DUP7 ADD SWAP2 POP DUP3 DUP2 PUSH1 0x5 SHL DUP8 ADD ADD DUP5 DUP9 ADD PUSH1 0x0 JUMPDEST DUP4 DUP2 LT ISZERO PUSH2 0x1C47 JUMPI DUP9 DUP4 SUB PUSH1 0x3F NOT ADD DUP6 MSTORE DUP2 MLOAD DUP1 MLOAD PUSH1 0x1 PUSH1 0x1 PUSH1 0xA0 SHL SUB AND DUP5 MSTORE DUP8 DUP2 ADD MLOAD DUP9 DUP6 ADD MSTORE DUP7 DUP2 ADD MLOAD PUSH1 0x80 DUP9 DUP7 ADD DUP2 SWAP1 MSTORE DUP2 MLOAD SWAP1 DUP7 ADD DUP2 SWAP1 MSTORE PUSH1 0xA0 SWAP2 SWAP1 PUSH2 0x1C16 DUP2 DUP5 DUP10 ADD DUP5 DUP15 ADD PUSH2 0x1B70 JUMP JUMPDEST PUSH1 0x60 SWAP4 DUP5 ADD MLOAD ISZERO ISZERO SWAP4 DUP8 ADD SWAP4 SWAP1 SWAP4 MSTORE POP SWAP6 DUP9 ADD SWAP6 PUSH1 0x1F SWAP2 SWAP1 SWAP2 ADD PUSH1 0x1F NOT AND SWAP1 SWAP4 ADD SWAP1 SWAP3 ADD SWAP2 SWAP1 DUP7 ADD SWAP1 PUSH1 0x1 ADD PUSH2 0x1BC7 JUMP JUMPDEST POP SWAP1 SWAP9 SWAP8 POP POP POP POP POP POP POP POP JUMP JUMPDEST PUSH1 0x0 DUP1 PUSH1 0x0 DUP1 PUSH1 0x0 PUSH1 0xA0 DUP7 DUP9 SUB SLT ISZERO PUSH2 0x1C6D JUMPI PUSH1 0x0 DUP1 REVERT JUMPDEST DUP6 CALLDATALOAD PUSH1 0x1 PUSH1 0x1 PUSH1 0x40 SHL SUB DUP1 DUP3 GT ISZERO PUSH2 0x1C84 JUMPI PUSH1 0x0 DUP1 REVERT JUMPDEST DUP2 DUP9 ADD SWAP2 POP DUP9 PUSH1 0x1F DUP4 ADD SLT PUSH2 0x1C98 JUMPI PUSH1 0x0 DUP1 REVERT JUMPDEST DUP2 CALLDATALOAD PUSH1 0x20 DUP3 DUP3 GT ISZERO PUSH2 0x1CAC JUMPI PUSH2 0x1CAC PUSH2 0x1563 JUMP JUMPDEST DUP2 PUSH1 0x5 SHL PUSH2 0x1CBB DUP3 DUP3 ADD PUSH2 0x1579 JUMP JUMPDEST SWAP3 DUP4 MSTORE DUP5 DUP2 ADD DUP3 ADD SWAP3 DUP3 DUP2 ADD SWAP1 DUP14 DUP6 GT ISZERO PUSH2 0x1CD5 JUMPI PUSH1 0x0 DUP1 REVERT JUMPDEST SWAP6 DUP4 ADD SWAP6 JUMPDEST DUP5 DUP8 LT ISZERO PUSH2 0x1CF3 JUMPI DUP7 CALLDATALOAD DUP3 MSTORE SWAP6 DUP4 ADD SWAP6 SWAP1 DUP4 ADD SWAP1 PUSH2 0x1CDA JUMP JUMPDEST SWAP11 POP PUSH2 0x1D03 SWAP2 POP POP DUP11 DUP3 ADD PUSH2 0x16EF JUMP JUMPDEST SWAP8 POP POP POP PUSH1 0x40 DUP9 ADD CALLDATALOAD SWAP2 POP DUP1 DUP3 GT ISZERO PUSH2 0x1D1B JUMPI PUSH1 0x0 DUP1 REVERT JUMPDEST PUSH2 0x1D27 DUP10 DUP4 DUP11 ADD PUSH2 0x15D0 JUMP JUMPDEST SWAP5 POP PUSH2 0x1D35 PUSH1 0x60 DUP10 ADD PUSH2 0x163E JUMP JUMPDEST SWAP4 POP PUSH1 0x80 DUP9 ADD CALLDATALOAD SWAP2 POP DUP1 DUP3 GT ISZERO PUSH2 0x1A7F JUMPI PUSH1 0x0 DUP1 REVERT JUMPDEST PUSH32 0x454950373132446F6D61696E28737472696E67206E616D652C737472696E6720 DUP2 MSTORE PUSH32 0x76657273696F6E2C75696E7432353620636861696E49642C6164647265737320 PUSH1 0x20 DUP3 ADD MSTORE PUSH18 0x766572696679696E67436F6E747261637429 PUSH1 0x70 SHL PUSH1 0x40 DUP3 ADD MSTORE PUSH1 0x52 ADD SWAP1 JUMP JUMPDEST PUSH1 0x0 DUP3 MLOAD PUSH2 0x1DC7 DUP2 DUP5 PUSH1 0x20 DUP8 ADD PUSH2 0x1B70 JUMP JUMPDEST SWAP2 SWAP1 SWAP2 ADD SWAP3 SWAP2 POP POP JUMP JUMPDEST SWAP5 DUP6 MSTORE PUSH1 0x20 DUP6 ADD SWAP4 SWAP1 SWAP4 MSTORE PUSH1 0x40 DUP5 ADD SWAP2 SWAP1 SWAP2 MSTORE PUSH1 0x60 DUP4 ADD MSTORE PUSH1 0x1 PUSH1 0x1 PUSH1 0xA0 SHL SUB AND PUSH1 0x80 DUP3 ADD MSTORE PUSH1 0xA0 ADD SWAP1 JUMP JUMPDEST PUSH2 0x1901 PUSH1 0xF0 SHL DUP2 MSTORE PUSH1 0x2 DUP2 ADD SWAP3 SWAP1 SWAP3 MSTORE PUSH1 0x22 DUP3 ADD MSTORE PUSH1 0x42 ADD SWAP1 JUMP JUMPDEST PUSH1 0x0 PUSH1 0x20 DUP3 DUP5 SUB SLT ISZERO PUSH2 0x1E2A JUMPI PUSH1 0x0 DUP1 REVERT JUMPDEST POP MLOAD SWAP2 SWAP1 POP JUMP JUMPDEST PUSH1 0x0 PUSH1 0x20 DUP3 DUP5 SUB SLT ISZERO PUSH2 0x1E43 JUMPI PUSH1 0x0 DUP1 REVERT JUMPDEST DUP2 MLOAD PUSH2 0x1B69 DUP2 PUSH2 0x1626 JUMP JUMPDEST PUSH1 0x0 DUP1 PUSH1 0x0 PUSH1 0x60 DUP5 DUP7 SUB SLT ISZERO PUSH2 0x1E63 JUMPI PUSH1 0x0 DUP1 REVERT JUMPDEST DUP4 MLOAD SWAP3 POP PUSH1 0x20 DUP5 ADD MLOAD PUSH1 0x1 PUSH1 0x1 PUSH1 0x40 SHL SUB DUP2 GT ISZERO PUSH2 0x1E80 JUMPI PUSH1 0x0 DUP1 REVERT JUMPDEST DUP5 ADD PUSH1 0x1F DUP2 ADD DUP7 SGT PUSH2 0x1E91 JUMPI PUSH1 0x0 DUP1 REVERT JUMPDEST DUP1 MLOAD PUSH2 0x1E9F PUSH2 0x15EF DUP3 PUSH2 0x15A9 JUMP JUMPDEST DUP2 DUP2 MSTORE DUP8 PUSH1 0x20 DUP4 DUP6 ADD ADD GT ISZERO PUSH2 0x1EB4 JUMPI PUSH1 0x0 DUP1 REVERT JUMPDEST PUSH2 0x1EC5 DUP3 PUSH1 0x20 DUP4 ADD PUSH1 0x20 DUP7 ADD PUSH2 0x1B70 JUMP JUMPDEST DUP1 SWAP5 POP POP POP POP PUSH1 0x40 DUP5 ADD MLOAD PUSH2 0x1ED9 DUP2 PUSH2 0x16E1 JUMP JUMPDEST DUP1 SWAP2 POP POP SWAP3 POP SWAP3 POP SWAP3 JUMP JUMPDEST PUSH4 0x4E487B71 PUSH1 0xE0 SHL PUSH1 0x0 MSTORE PUSH1 0x32 PUSH1 0x4 MSTORE PUSH1 0x24 PUSH1 0x0 REVERT JUMPDEST PUSH1 0x0 PUSH1 0x0 NOT DUP3 EQ ISZERO PUSH2 0x1F1C JUMPI PUSH4 0x4E487B71 PUSH1 0xE0 SHL PUSH1 0x0 MSTORE PUSH1 0x11 PUSH1 0x4 MSTORE PUSH1 0x24 PUSH1 0x0 REVERT JUMPDEST POP PUSH1 0x1 ADD SWAP1 JUMP JUMPDEST DUP2 MLOAD PUSH1 0x0 SWAP1 DUP3 SWAP1 PUSH1 0x20 DUP1 DUP7 ADD DUP5 JUMPDEST DUP4 DUP2 LT ISZERO PUSH2 0x1F4D JUMPI DUP2 MLOAD DUP6 MSTORE SWAP4 DUP3 ADD SWAP4 SWAP1 DUP3 ADD SWAP1 PUSH1 0x1 ADD PUSH2 0x1F31 JUMP JUMPDEST POP SWAP3 SWAP7 SWAP6 POP POP POP POP POP POP JUMP INVALID ADD BALANCE DUP9 SWAP6 0xAF 0x1F PUSH14 0xB161B2BA745B8E57A6B46EFAD77D PUSH20 0x6630379EC69C3CD4C875A2646970667358221220 PUSH18 0xCABB830CFA3BC07B998F94A107A2B82C2656 0x4C MLOAD 0xDF BASEFEE PUSH7 0xAB65B88EBFE23A REVERT PUSH5 0x736F6C6343 STOP ADDMOD 0xC STOP CALLER ",
  "sha1": "ba9a1e9c1c15e2f61fa6a9d0e0daf11a94c687d4",
  "source": "// SPDX-License-Identifier: MIT\npragma solidity ^0.8.11;\n\nimport \"../../interfaces/ICLHouse.sol\";\n\n/// @title Some view funtions to interact with a CLHouse\n/// @author Leonardo Urrego\ncontract CLHouseApi {\n\n    /// @notice A funtion to verify the signer of a menssage\n    /// @param _msghash Hash of the message\n    /// @param _signature Signature of the message\n    /// @return Signer address of the message\n    function SignerOfMsg(\n        bytes32  _msghash,\n        bytes memory _signature\n    )\n        public\n        pure\n        returns( address )\n    {\n        require( _signature.length == 65, \"Bad signature length\" );\n\n        bytes32 signR;\n        bytes32 signS;\n        uint8 signV;\n\n        assembly {\n            // first 32 bytes, after the length prefix\n            signR := mload( add( _signature, 32 ) )\n            // second 32 bytes\n            signS := mload( add( _signature, 64 ) )\n            // final byte (first byte of the next 32 bytes)\n            signV := byte( 0, mload( add( _signature, 96 ) ) )\n        }\n\n        return ecrecover( _msghash, signV, signR, signS );\n    }\n\n\n    struct strInfoUser {\n        address wallet;\n        uint256 userID;\n        string nickname;\n        bool isManager;\n    }\n\n    /// @notice The list of all users address\n    /// @param _houseAddr address of the CLH\n    /// @return arrUsers array of user address\n    function GetHouseUserList(\n        address _houseAddr\n    )\n        external\n        view\n        returns(\n            strInfoUser[] memory arrUsers\n        )\n    {\n        ICLHouse daoCLH = ICLHouse( _houseAddr );\n\n        uint256 numUsers = daoCLH.numUsers( );\n        uint256 arrUsersLength = daoCLH.GetArrUsersLength();\n        arrUsers = new strInfoUser[] ( numUsers );\n\n        uint256 index = 0 ;\n\n        for( uint256 uid = 1 ; uid < arrUsersLength ; uid++ ) {\n            strInfoUser memory houseUser;\n\n            houseUser.wallet = daoCLH.arrUsers( uid );\n\n            (   houseUser.userID,\n                houseUser.nickname,\n                houseUser.isManager ) = daoCLH.mapUsers( houseUser.wallet );\n\n            if( 0 != houseUser.userID ){\n                arrUsers[ index ] = houseUser;\n                index++;\n            }\n        }\n    }\n\n\n    /// @notice Retrieve the signer from Offchain Invitation signature\n    /// @param _acceptance True for accept the invitation\n    /// @param _nickname A nickname for the user\n    /// @param _houseAddr address of the CLH\n    /// @param _signature EIP712 Signature\n    /// @return Wallet address of the signer\n    function SignerOCInvit(\n        bool _acceptance,\n        string memory _nickname,\n        address _houseAddr,\n        bytes memory _signature\n    ) \n        external view\n        returns( address )\n    {\n        bytes32 hashEIP712Domain = keccak256(\n            abi.encode(\n                __STR_EIP712DOMAIN_HASH__,\n                __CONTRACT_NAME_HASH__,\n                __CONTRACT_VERSION_HASH__,\n                block.chainid,\n                _houseAddr\n            )\n        );\n\n        bytes32 hashMsg = keccak256(\n            abi.encode(\n                __STR_OCINVIT_HASH__,\n                _acceptance,\n                keccak256( abi.encodePacked( _nickname ) )\n            )\n        );\n\n        bytes32 singhash = keccak256( abi.encodePacked( \"\\x19\\x01\", hashEIP712Domain, hashMsg ) );\n\n        return SignerOfMsg( singhash, _signature );\n    }\n\n\n    /// @notice Retrieve the signer from Offchain Vote signature\n    /// @param _propId ID of the proposal, based on `arrProposals`\n    /// @param _support True for accept, false to reject\n    /// @param _justification About your vote\n    /// @param _houseAddr address of the CLH\n    /// @param _signature EIP712 Signature\n    /// @return Wallet address of the signer\n    function SignerOCVote(\n        uint _propId,\n        bool _support,\n        string memory _justification,\n        address _houseAddr,\n        bytes memory _signature\n    ) \n        external view\n        returns( address )\n    {\n        bytes32 hashEIP712Domain = keccak256(\n            abi.encode(\n                __STR_EIP712DOMAIN_HASH__,\n                __CONTRACT_NAME_HASH__,\n                __CONTRACT_VERSION_HASH__,\n                block.chainid,\n                _houseAddr\n            )\n        );\n\n        bytes32 hashMsg = keccak256(\n            abi.encode(\n                __STR_OCVOTE_HASH__,\n                _propId,\n                _support,\n                keccak256( abi.encodePacked( _justification ) )\n            )\n        );\n\n        bytes32 singhash = keccak256( abi.encodePacked( \"\\x19\\x01\", hashEIP712Domain, hashMsg ) );\n\n        return SignerOfMsg( singhash, _signature );\n    }\n\n\n    /// @notice Retrieve the signer from Offchain BulkVote signature\n    /// @param _propIds Array with ID of the proposal to votes\n    /// @param _support is the Vote (True or False) for all proposals\n    /// @param _justification Description of the vote\n    /// @param _houseAddr address of the CLH\n    /// @param _signature EIP712 Signature\n    /// @return Wallet address of the signer\n    function SignerOCBulkVote(\n        uint256[] memory _propIds,\n        bool _support,\n        string memory _justification,\n        address _houseAddr,\n        bytes memory _signature\n    ) \n        external view\n        returns( address )\n    {\n        bytes32 hashEIP712Domain = keccak256(\n            abi.encode(\n                __STR_EIP712DOMAIN_HASH__,\n                __CONTRACT_NAME_HASH__,\n                __CONTRACT_VERSION_HASH__,\n                block.chainid,\n                _houseAddr\n            )\n        );\n\n        bytes32 hashMsg = keccak256(\n            abi.encode(\n                __STR_OCBULKVOTE_HASH__,\n                keccak256( abi.encodePacked( _propIds ) ),\n                _support,\n                keccak256( abi.encodePacked( _justification ) )\n            )\n        );\n\n        bytes32 singhash = keccak256( abi.encodePacked( \"\\x19\\x01\", hashEIP712Domain, hashMsg ) );\n\n        return SignerOfMsg( singhash, _signature );\n    }\n\n\n    /// @notice Retrieve the signer from Offchain Invite User signature\n    /// @param _walletAddr  Address of the new user\n    /// @param _name Can be the nickname or other reference to the User\n    /// @param _description A text for the proposal\n    /// @param _isManager True if is for a manager\n    /// @param _houseAddr address of the CLH\n    /// @param _signature EIP712 Signature\n    /// @return Wallet address of the signer\n    function SignerOCInvitUser(\n        address _walletAddr,\n        string memory _name,\n        string memory _description,\n        bool _isManager,\n        uint256 _delayTime,\n        address _houseAddr,\n        bytes memory _signature\n    ) \n        external view\n        returns( address )\n    {\n        bytes32 hashEIP712Domain = keccak256(\n            abi.encode(\n                __STR_EIP712DOMAIN_HASH__,\n                __CONTRACT_NAME_HASH__,\n                __CONTRACT_VERSION_HASH__,\n                block.chainid,\n                _houseAddr\n            )\n        );\n\n        bytes32 hashMsg = keccak256(\n            abi.encode(\n                __STR_OCNEWUSER_HASH__,\n                _walletAddr,\n                keccak256( abi.encodePacked( _name ) ),\n                keccak256( abi.encodePacked( _description ) ),\n                _isManager,\n                _delayTime\n            )\n        );\n\n        bytes32 singhash = keccak256( abi.encodePacked( \"\\x19\\x01\", hashEIP712Domain, hashMsg ) );\n\n        return SignerOfMsg( singhash, _signature );\n    }\n\n\n    /// @notice Retrieve the signer from Offchain Remove User signature\n    /// @param _walletAddr user Address to be removed\n    /// @param _description About the proposal\n    /// @param _houseAddr address of the CLH\n    /// @param _signature EIP712 Signature\n    /// @return Wallet address of the signer\n    function SignerOCRemoveUser(\n        address _walletAddr,\n        string memory _description,\n        uint256 _delayTime,\n        address _houseAddr,\n        bytes memory _signature\n    ) \n        external view\n        returns( address )\n    {\n        bytes32 hashEIP712Domain = keccak256(\n            abi.encode(\n                __STR_EIP712DOMAIN_HASH__,\n                __CONTRACT_NAME_HASH__,\n                __CONTRACT_VERSION_HASH__,\n                block.chainid,\n                _houseAddr\n            )\n        );\n\n        bytes32 hashMsg = keccak256(\n            abi.encode(\n                __STR_OCDELUSER_HASH__,\n                _walletAddr,\n                keccak256( abi.encodePacked( _description ) ),\n                _delayTime\n            )\n        );\n\n        bytes32 singhash = keccak256( abi.encodePacked( \"\\x19\\x01\", hashEIP712Domain, hashMsg ) );\n\n        return SignerOfMsg( singhash, _signature );\n    }\n\n\n    /// @notice Retrieve the signer from Offchain request to join signature\n    /// @param _name Nickname or other user identification\n    /// @param _description About the request\n    /// @param _houseAddr address of the CLH\n    /// @param _signature EIP712 Signature\n    /// @return Wallet address of the signer\n    function SignerOCRequestToJoin(\n        string memory _name,\n        string memory _description,\n        address _houseAddr,\n        bytes memory _signature\n    ) \n        external view\n        returns( address )\n    {\n        bytes32 hashEIP712Domain = keccak256(\n            abi.encode(\n                __STR_EIP712DOMAIN_HASH__,\n                __CONTRACT_NAME_HASH__,\n                __CONTRACT_VERSION_HASH__,\n                block.chainid,\n                _houseAddr\n            )\n        );\n\n        bytes32 hashMsg = keccak256(\n            abi.encode(\n                __STR_OCREQUEST_HASH__,\n                keccak256( abi.encodePacked( _name ) ),\n                keccak256( abi.encodePacked( _description ) )\n            )\n        );\n\n        bytes32 singhash = keccak256( abi.encodePacked( \"\\x19\\x01\", hashEIP712Domain, hashMsg ) );\n\n        return SignerOfMsg( singhash, _signature );\n    }\n\n\n    /// @notice Retrieve the signer from Offchain New house signature\n    /// @param _houseName Name of the CLH\n    /// @param _housePrivate If is set to 1, the CLH is set to private\n    /// @param _houseOpen If is set to 1, the CLH is set to open\n    /// @param _govRuleMaxUsers Max users in the house\n    /// @param _whiteListNFT Address of NFT Collection for users invitation\n    /// @param _pxyCLF address of the CLF\n    /// @param _signature EIP712 Signature\n    /// @return Wallet address of the signer\n    function SignerOCNewCLH(\n        string memory _houseName,\n        bool _housePrivate,\n        bool _houseOpen,\n        uint256 _govRuleMaxUsers,\n        address _whiteListNFT,\n        address _pxyCLF,\n        bytes memory _signature\n    ) \n        external view\n        returns( address )\n    {\n        bytes32 hashEIP712Domain = keccak256(\n            abi.encode(\n                __STR_EIP712DOMAIN_HASH__,\n                __CONTRACT_NAME_HASH__,\n                __CONTRACT_VERSION_HASH__,\n                block.chainid,\n                _pxyCLF\n            )\n        );\n\n        bytes32 hashMsg = keccak256(\n            abi.encode(\n                __STR_OCNEWCLH_HASH__,\n                keccak256( abi.encodePacked( _houseName ) ),\n                _housePrivate,\n                _houseOpen,\n                _govRuleMaxUsers,\n                _whiteListNFT\n                // keccak256( abi.encodePacked( _whiteListWallets ) )\n            )\n        );\n\n        bytes32 singhash = keccak256( abi.encodePacked( \"\\x19\\x01\", hashEIP712Domain, hashMsg ) );\n\n        return SignerOfMsg( singhash, _signature );\n    }\n\n\n    /// @notice Retrieve the signer from Offchain New Lock signature\n    /// @param _expirationDuration Expiration for lcok in seconds\n    /// @param _keyPrice Price for each lock in wei\n    /// @param _maxNumberOfKeys How many locks\n    /// @param _lockName Lock Name\n    /// @param _houseAddr address of the CLH\n    /// @param _signature EIP712 Signature\n    /// @return Wallet address of the signer\n    function SignerOCNewLock(\n        uint256 _expirationDuration,\n        uint256 _keyPrice,\n        uint256 _maxNumberOfKeys,\n        string memory _lockName,\n        address _houseAddr,\n        bytes memory _signature\n    ) \n        external view\n        returns( address )\n    {\n        bytes32 hashEIP712Domain = keccak256(\n            abi.encode(\n                __STR_EIP712DOMAIN_HASH__,\n                __CONTRACT_NAME_HASH__,\n                __CONTRACT_VERSION_HASH__,\n                block.chainid,\n                _houseAddr\n            )\n        );\n\n        bytes32 hashMsg = keccak256(\n            abi.encode(\n                __STR_OCNEWLOCK_HASH__,\n                _expirationDuration,\n                _keyPrice,\n                _maxNumberOfKeys,\n                keccak256( abi.encodePacked( _lockName ) )\n            )\n        );\n\n        bytes32 singhash = keccak256( abi.encodePacked( \"\\x19\\x01\", hashEIP712Domain, hashMsg ) );\n\n        return SignerOfMsg( singhash, _signature );\n    }\n\n    /// @notice Retrieve the signer from Offchain Update CLH Name\n    /// @param _houseName new CLH Name\n    /// @param _houseAddr address of the CLH\n    /// @param _signature EIP712 Signature\n    /// @return Wallet address of the signer\n    function SignerOCUpCLHName(\n        string memory _houseName,\n        address _houseAddr,\n        bytes memory _signature\n    ) \n        external view\n        returns( address )\n    {\n        bytes32 hashEIP712Domain = keccak256(\n            abi.encode(\n                __STR_EIP712DOMAIN_HASH__,\n                __CONTRACT_NAME_HASH__,\n                __CONTRACT_VERSION_HASH__,\n                block.chainid,\n                _houseAddr\n            )\n        );\n\n        bytes32 hashMsg = keccak256(\n            abi.encode(\n                __STR_OCUPCLH_NAME_HASH__,\n                keccak256( abi.encodePacked( _houseName ) )\n            )\n        );\n\n        bytes32 singhash = keccak256( abi.encodePacked( \"\\x19\\x01\", hashEIP712Domain, hashMsg ) );\n\n        return SignerOfMsg( singhash, _signature );\n    }\n\n    /// @notice Retrieve the signer from Offchain Update CLH Whitelist NFT\n    /// @param _whiteListNFT New contract address of NFT\n    /// @param _houseAddr address of the CLH\n    /// @param _signature EIP712 Signature\n    /// @return Wallet address of the signer\n    function SignerOCUpCLHWLNFT(\n        address _whiteListNFT,\n        address _houseAddr,\n        bytes memory _signature\n    ) \n        external view\n        returns( address )\n    {\n        bytes32 hashEIP712Domain = keccak256(\n            abi.encode(\n                __STR_EIP712DOMAIN_HASH__,\n                __CONTRACT_NAME_HASH__,\n                __CONTRACT_VERSION_HASH__,\n                block.chainid,\n                _houseAddr\n            )\n        );\n\n        bytes32 hashMsg = keccak256(\n            abi.encode(\n                __STR_OCUPCLH_WLNFT_HASH__,\n                _whiteListNFT\n            )\n        );\n\n        bytes32 singhash = keccak256( abi.encodePacked( \"\\x19\\x01\", hashEIP712Domain, hashMsg ) );\n\n        return SignerOfMsg( singhash, _signature );\n    }\n}",
  "sourcePath": "contracts/APICLH/CLHouseApi.sol",
  "type": "contract"
}