{
  "abi": [
    {
      "inputs": [
        {
          "internalType": "address",
          "name": "_owner",
          "type": "address"
        },
        {
          "internalType": "string",
          "name": "_houseName",
          "type": "string"
        },
        {
          "internalType": "bool",
          "name": "_housePrivate",
          "type": "bool"
        },
        {
          "internalType": "bytes32",
          "name": "_gov",
          "type": "bytes32"
        },
        {
          "internalType": "uint8",
          "name": "_govRuleMaxManagerMembers",
          "type": "uint8"
        },
        {
          "internalType": "uint8",
          "name": "_govRuleMaxActiveMembers",
          "type": "uint8"
        },
        {
          "internalType": "uint8",
          "name": "_govRuleApprovPercentage",
          "type": "uint8"
        },
        {
          "internalType": "address",
          "name": "_CLCMemberManagement",
          "type": "address"
        },
        {
          "internalType": "address",
          "name": "_CLCGovernance",
          "type": "address"
        },
        {
          "internalType": "address",
          "name": "_CLLConstructor",
          "type": "address"
        },
        {
          "internalType": "address[]",
          "name": "_ManagerWallets",
          "type": "address[]"
        }
      ],
      "stateMutability": "nonpayable",
      "type": "constructor"
    },
    {
      "anonymous": false,
      "inputs": [
        {
          "indexed": false,
          "internalType": "uint256",
          "name": "newApprovPercentage",
          "type": "uint256"
        }
      ],
      "name": "evtChangeGovRules",
      "type": "event"
    },
    {
      "anonymous": false,
      "inputs": [
        {
          "indexed": false,
          "internalType": "enum memberEvent",
          "name": "eventMember",
          "type": "uint8"
        },
        {
          "indexed": false,
          "internalType": "address",
          "name": "walletAddr",
          "type": "address"
        },
        {
          "indexed": false,
          "internalType": "string",
          "name": "name",
          "type": "string"
        }
      ],
      "name": "evtMember",
      "type": "event"
    },
    {
      "anonymous": false,
      "inputs": [
        {
          "indexed": false,
          "internalType": "enum proposalEvent",
          "name": "eventProposal",
          "type": "uint8"
        },
        {
          "indexed": false,
          "internalType": "uint256",
          "name": "propId",
          "type": "uint256"
        },
        {
          "indexed": false,
          "internalType": "enum proposalType",
          "name": "typeProposal",
          "type": "uint8"
        },
        {
          "indexed": false,
          "internalType": "string",
          "name": "description",
          "type": "string"
        }
      ],
      "name": "evtProposal",
      "type": "event"
    },
    {
      "anonymous": false,
      "inputs": [
        {
          "indexed": false,
          "internalType": "address",
          "name": "tokenOutCLV",
          "type": "address"
        },
        {
          "indexed": false,
          "internalType": "uint256",
          "name": "amountOutCLV",
          "type": "uint256"
        },
        {
          "indexed": false,
          "internalType": "address",
          "name": "tokenInCLV",
          "type": "address"
        },
        {
          "indexed": false,
          "internalType": "uint256",
          "name": "amountReceived",
          "type": "uint256"
        }
      ],
      "name": "evtSwapERC20",
      "type": "event"
    },
    {
      "anonymous": false,
      "inputs": [
        {
          "indexed": false,
          "internalType": "address",
          "name": "walletAddr",
          "type": "address"
        },
        {
          "indexed": false,
          "internalType": "uint256",
          "name": "value",
          "type": "uint256"
        },
        {
          "indexed": false,
          "internalType": "address",
          "name": "tokenAdd",
          "type": "address"
        }
      ],
      "name": "evtTxERC20",
      "type": "event"
    },
    {
      "anonymous": false,
      "inputs": [
        {
          "indexed": false,
          "internalType": "enum assetsEvent",
          "name": "typeEvent",
          "type": "uint8"
        },
        {
          "indexed": false,
          "internalType": "address",
          "name": "walletAddr",
          "type": "address"
        },
        {
          "indexed": false,
          "internalType": "uint256",
          "name": "value",
          "type": "uint256"
        },
        {
          "indexed": false,
          "internalType": "uint256",
          "name": "balance",
          "type": "uint256"
        }
      ],
      "name": "evtTxEth",
      "type": "event"
    },
    {
      "anonymous": false,
      "inputs": [
        {
          "indexed": false,
          "internalType": "uint256",
          "name": "propId",
          "type": "uint256"
        },
        {
          "indexed": false,
          "internalType": "bool",
          "name": "position",
          "type": "bool"
        },
        {
          "indexed": false,
          "internalType": "address",
          "name": "voter",
          "type": "address"
        },
        {
          "indexed": false,
          "internalType": "string",
          "name": "justification",
          "type": "string"
        }
      ],
      "name": "evtVoted",
      "type": "event"
    },
    {
      "inputs": [
        {
          "internalType": "bool",
          "name": "_acceptance",
          "type": "bool"
        },
        {
          "internalType": "address",
          "name": "_signerWallet",
          "type": "address"
        },
        {
          "internalType": "bytes",
          "name": "_signature",
          "type": "bytes"
        }
      ],
      "name": "AcceptRejectInvitation",
      "outputs": [],
      "stateMutability": "nonpayable",
      "type": "function"
    },
    {
      "inputs": [
        {
          "internalType": "uint256",
          "name": "_propId",
          "type": "uint256"
        }
      ],
      "name": "ExecProp",
      "outputs": [
        {
          "internalType": "bool",
          "name": "status",
          "type": "bool"
        },
        {
          "internalType": "string",
          "name": "message",
          "type": "string"
        }
      ],
      "stateMutability": "nonpayable",
      "type": "function"
    },
    {
      "inputs": [],
      "name": "GetArrMembersLength",
      "outputs": [
        {
          "internalType": "uint256",
          "name": "",
          "type": "uint256"
        }
      ],
      "stateMutability": "view",
      "type": "function"
    },
    {
      "inputs": [],
      "name": "HOUSE_GOVERNANCE_MODEL",
      "outputs": [
        {
          "internalType": "bytes32",
          "name": "",
          "type": "bytes32"
        }
      ],
      "stateMutability": "view",
      "type": "function"
    },
    {
      "inputs": [],
      "name": "HOUSE_NAME",
      "outputs": [
        {
          "internalType": "string",
          "name": "",
          "type": "string"
        }
      ],
      "stateMutability": "view",
      "type": "function"
    },
    {
      "inputs": [
        {
          "internalType": "address",
          "name": "_tokenInCLV",
          "type": "address"
        },
        {
          "internalType": "uint256",
          "name": "_amountOutCLV",
          "type": "uint256"
        },
        {
          "internalType": "string",
          "name": "_description",
          "type": "string"
        },
        {
          "internalType": "uint256",
          "name": "_delayTime",
          "type": "uint256"
        }
      ],
      "name": "PropBuyERC20",
      "outputs": [
        {
          "internalType": "uint256",
          "name": "propId",
          "type": "uint256"
        }
      ],
      "stateMutability": "nonpayable",
      "type": "function"
    },
    {
      "inputs": [
        {
          "internalType": "uint8",
          "name": "_newApprovPercentage",
          "type": "uint8"
        },
        {
          "internalType": "string",
          "name": "_description",
          "type": "string"
        },
        {
          "internalType": "uint256",
          "name": "_delayTime",
          "type": "uint256"
        }
      ],
      "name": "PropGovRules",
      "outputs": [
        {
          "internalType": "uint256",
          "name": "propId",
          "type": "uint256"
        }
      ],
      "stateMutability": "nonpayable",
      "type": "function"
    },
    {
      "inputs": [
        {
          "internalType": "address",
          "name": "_walletAddr",
          "type": "address"
        },
        {
          "internalType": "string",
          "name": "_name",
          "type": "string"
        },
        {
          "internalType": "string",
          "name": "_description",
          "type": "string"
        },
        {
          "internalType": "bool",
          "name": "_isManager",
          "type": "bool"
        },
        {
          "internalType": "uint256",
          "name": "_delayTime",
          "type": "uint256"
        }
      ],
      "name": "PropInviteMember",
      "outputs": [
        {
          "internalType": "uint256",
          "name": "propId",
          "type": "uint256"
        }
      ],
      "stateMutability": "nonpayable",
      "type": "function"
    },
    {
      "inputs": [
        {
          "internalType": "address",
          "name": "_walletAddr",
          "type": "address"
        },
        {
          "internalType": "string",
          "name": "_description",
          "type": "string"
        },
        {
          "internalType": "uint256",
          "name": "_delayTime",
          "type": "uint256"
        }
      ],
      "name": "PropRemoveMember",
      "outputs": [
        {
          "internalType": "uint256",
          "name": "propId",
          "type": "uint256"
        }
      ],
      "stateMutability": "nonpayable",
      "type": "function"
    },
    {
      "inputs": [
        {
          "internalType": "string",
          "name": "_name",
          "type": "string"
        },
        {
          "internalType": "string",
          "name": "_description",
          "type": "string"
        }
      ],
      "name": "PropRequestToJoin",
      "outputs": [
        {
          "internalType": "uint256",
          "name": "",
          "type": "uint256"
        }
      ],
      "stateMutability": "nonpayable",
      "type": "function"
    },
    {
      "inputs": [
        {
          "internalType": "address",
          "name": "_tokenOutCLV",
          "type": "address"
        },
        {
          "internalType": "uint256",
          "name": "_amountOutCLV",
          "type": "uint256"
        },
        {
          "internalType": "string",
          "name": "_description",
          "type": "string"
        },
        {
          "internalType": "uint256",
          "name": "_delayTime",
          "type": "uint256"
        }
      ],
      "name": "PropSellERC20",
      "outputs": [
        {
          "internalType": "uint256",
          "name": "propId",
          "type": "uint256"
        }
      ],
      "stateMutability": "nonpayable",
      "type": "function"
    },
    {
      "inputs": [
        {
          "internalType": "address",
          "name": "_tokenOutCLV",
          "type": "address"
        },
        {
          "internalType": "address",
          "name": "_tokenInCLV",
          "type": "address"
        },
        {
          "internalType": "uint256",
          "name": "_amountOutCLV",
          "type": "uint256"
        },
        {
          "internalType": "string",
          "name": "_description",
          "type": "string"
        },
        {
          "internalType": "uint256",
          "name": "_delayTime",
          "type": "uint256"
        }
      ],
      "name": "PropSwapERC20",
      "outputs": [
        {
          "internalType": "uint256",
          "name": "propId",
          "type": "uint256"
        }
      ],
      "stateMutability": "nonpayable",
      "type": "function"
    },
    {
      "inputs": [
        {
          "internalType": "address",
          "name": "_to",
          "type": "address"
        },
        {
          "internalType": "uint256",
          "name": "_amountOutCLV",
          "type": "uint256"
        },
        {
          "internalType": "address",
          "name": "_tokenOutCLV",
          "type": "address"
        },
        {
          "internalType": "string",
          "name": "_description",
          "type": "string"
        },
        {
          "internalType": "uint256",
          "name": "_delayTime",
          "type": "uint256"
        }
      ],
      "name": "PropTxERC20",
      "outputs": [
        {
          "internalType": "uint256",
          "name": "propId",
          "type": "uint256"
        }
      ],
      "stateMutability": "nonpayable",
      "type": "function"
    },
    {
      "inputs": [
        {
          "internalType": "address",
          "name": "_to",
          "type": "address"
        },
        {
          "internalType": "uint256",
          "name": "_amountOutCLV",
          "type": "uint256"
        },
        {
          "internalType": "string",
          "name": "_description",
          "type": "string"
        },
        {
          "internalType": "uint256",
          "name": "_delayTime",
          "type": "uint256"
        }
      ],
      "name": "PropTxWei",
      "outputs": [
        {
          "internalType": "uint256",
          "name": "propId",
          "type": "uint256"
        }
      ],
      "stateMutability": "nonpayable",
      "type": "function"
    },
    {
      "inputs": [
        {
          "internalType": "address",
          "name": "_voter",
          "type": "address"
        },
        {
          "internalType": "uint256",
          "name": "_propId",
          "type": "uint256"
        },
        {
          "internalType": "bool",
          "name": "_support",
          "type": "bool"
        },
        {
          "internalType": "string",
          "name": "_justification",
          "type": "string"
        },
        {
          "internalType": "bytes32",
          "name": "signR",
          "type": "bytes32"
        },
        {
          "internalType": "bytes32",
          "name": "signS",
          "type": "bytes32"
        },
        {
          "internalType": "uint8",
          "name": "signV",
          "type": "uint8"
        }
      ],
      "name": "VotePropOffChain",
      "outputs": [
        {
          "internalType": "bool",
          "name": "",
          "type": "bool"
        }
      ],
      "stateMutability": "nonpayable",
      "type": "function"
    },
    {
      "inputs": [
        {
          "internalType": "uint256",
          "name": "_propId",
          "type": "uint256"
        },
        {
          "internalType": "bool",
          "name": "_support",
          "type": "bool"
        },
        {
          "internalType": "string",
          "name": "_justification",
          "type": "string"
        }
      ],
      "name": "VoteProposal",
      "outputs": [
        {
          "internalType": "bool",
          "name": "",
          "type": "bool"
        }
      ],
      "stateMutability": "nonpayable",
      "type": "function"
    },
    {
      "inputs": [],
      "name": "__OFFCHAINVOTE_STRUCT_TYPEHASH__",
      "outputs": [
        {
          "internalType": "bytes32",
          "name": "",
          "type": "bytes32"
        }
      ],
      "stateMutability": "view",
      "type": "function"
    },
    {
      "inputs": [
        {
          "internalType": "uint256",
          "name": "",
          "type": "uint256"
        }
      ],
      "name": "arrDataPropAddMember",
      "outputs": [
        {
          "internalType": "address",
          "name": "walletAddr",
          "type": "address"
        },
        {
          "internalType": "string",
          "name": "name",
          "type": "string"
        },
        {
          "internalType": "bool",
          "name": "isManager",
          "type": "bool"
        }
      ],
      "stateMutability": "view",
      "type": "function"
    },
    {
      "inputs": [
        {
          "internalType": "uint256",
          "name": "",
          "type": "uint256"
        }
      ],
      "name": "arrDataPropGovRules",
      "outputs": [
        {
          "internalType": "uint8",
          "name": "newApprovPercentage",
          "type": "uint8"
        }
      ],
      "stateMutability": "view",
      "type": "function"
    },
    {
      "inputs": [
        {
          "internalType": "uint256",
          "name": "",
          "type": "uint256"
        }
      ],
      "name": "arrDataPropTxAssets",
      "outputs": [
        {
          "internalType": "address",
          "name": "to",
          "type": "address"
        },
        {
          "internalType": "uint256",
          "name": "amountOutCLV",
          "type": "uint256"
        },
        {
          "internalType": "address",
          "name": "tokenOutCLV",
          "type": "address"
        },
        {
          "internalType": "address",
          "name": "tokenInCLV",
          "type": "address"
        }
      ],
      "stateMutability": "view",
      "type": "function"
    },
    {
      "inputs": [
        {
          "internalType": "uint256",
          "name": "",
          "type": "uint256"
        }
      ],
      "name": "arrMembers",
      "outputs": [
        {
          "internalType": "address",
          "name": "walletAddr",
          "type": "address"
        },
        {
          "internalType": "string",
          "name": "name",
          "type": "string"
        },
        {
          "internalType": "uint256",
          "name": "balance",
          "type": "uint256"
        },
        {
          "internalType": "bool",
          "name": "isMember",
          "type": "bool"
        },
        {
          "internalType": "bool",
          "name": "isManager",
          "type": "bool"
        }
      ],
      "stateMutability": "view",
      "type": "function"
    },
    {
      "inputs": [
        {
          "internalType": "uint256",
          "name": "",
          "type": "uint256"
        }
      ],
      "name": "arrProposals",
      "outputs": [
        {
          "internalType": "address",
          "name": "proponent",
          "type": "address"
        },
        {
          "internalType": "enum proposalType",
          "name": "typeProposal",
          "type": "uint8"
        },
        {
          "internalType": "string",
          "name": "description",
          "type": "string"
        },
        {
          "internalType": "uint256",
          "name": "propDataId",
          "type": "uint256"
        },
        {
          "internalType": "uint8",
          "name": "numVotes",
          "type": "uint8"
        },
        {
          "internalType": "uint8",
          "name": "againstVotes",
          "type": "uint8"
        },
        {
          "internalType": "bool",
          "name": "executed",
          "type": "bool"
        },
        {
          "internalType": "bool",
          "name": "rejected",
          "type": "bool"
        },
        {
          "internalType": "uint256",
          "name": "deadline",
          "type": "uint256"
        }
      ],
      "stateMutability": "view",
      "type": "function"
    },
    {
      "inputs": [],
      "name": "govRuleApprovPercentage",
      "outputs": [
        {
          "internalType": "uint8",
          "name": "",
          "type": "uint8"
        }
      ],
      "stateMutability": "view",
      "type": "function"
    },
    {
      "inputs": [],
      "name": "govRuleMaxActiveMembers",
      "outputs": [
        {
          "internalType": "uint8",
          "name": "",
          "type": "uint8"
        }
      ],
      "stateMutability": "view",
      "type": "function"
    },
    {
      "inputs": [],
      "name": "govRuleMaxManagerMembers",
      "outputs": [
        {
          "internalType": "uint8",
          "name": "",
          "type": "uint8"
        }
      ],
      "stateMutability": "view",
      "type": "function"
    },
    {
      "inputs": [],
      "name": "housePrivate",
      "outputs": [
        {
          "internalType": "bool",
          "name": "",
          "type": "bool"
        }
      ],
      "stateMutability": "view",
      "type": "function"
    },
    {
      "inputs": [
        {
          "internalType": "address",
          "name": "",
          "type": "address"
        }
      ],
      "name": "mapIdMember",
      "outputs": [
        {
          "internalType": "uint256",
          "name": "",
          "type": "uint256"
        }
      ],
      "stateMutability": "view",
      "type": "function"
    },
    {
      "inputs": [
        {
          "internalType": "address",
          "name": "",
          "type": "address"
        }
      ],
      "name": "mapInvitationMember",
      "outputs": [
        {
          "internalType": "uint256",
          "name": "",
          "type": "uint256"
        }
      ],
      "stateMutability": "view",
      "type": "function"
    },
    {
      "inputs": [
        {
          "internalType": "uint256",
          "name": "",
          "type": "uint256"
        },
        {
          "internalType": "address",
          "name": "",
          "type": "address"
        }
      ],
      "name": "mapVotes",
      "outputs": [
        {
          "internalType": "bool",
          "name": "voted",
          "type": "bool"
        },
        {
          "internalType": "bool",
          "name": "inSupport",
          "type": "bool"
        },
        {
          "internalType": "string",
          "name": "justification",
          "type": "string"
        }
      ],
      "stateMutability": "view",
      "type": "function"
    },
    {
      "inputs": [],
      "name": "nftAdmin",
      "outputs": [
        {
          "internalType": "contract CLHNFT",
          "name": "",
          "type": "address"
        }
      ],
      "stateMutability": "view",
      "type": "function"
    },
    {
      "inputs": [],
      "name": "nftInvitation",
      "outputs": [
        {
          "internalType": "contract CLHNFT",
          "name": "",
          "type": "address"
        }
      ],
      "stateMutability": "view",
      "type": "function"
    },
    {
      "inputs": [],
      "name": "nftMember",
      "outputs": [
        {
          "internalType": "contract CLHNFT",
          "name": "",
          "type": "address"
        }
      ],
      "stateMutability": "view",
      "type": "function"
    },
    {
      "inputs": [],
      "name": "numActiveMembers",
      "outputs": [
        {
          "internalType": "uint8",
          "name": "",
          "type": "uint8"
        }
      ],
      "stateMutability": "view",
      "type": "function"
    },
    {
      "inputs": [],
      "name": "numManagerMembers",
      "outputs": [
        {
          "internalType": "uint8",
          "name": "",
          "type": "uint8"
        }
      ],
      "stateMutability": "view",
      "type": "function"
    },
    {
      "inputs": [],
      "name": "vaultCLH",
      "outputs": [
        {
          "internalType": "contract CLVault",
          "name": "",
          "type": "address"
        }
      ],
      "stateMutability": "view",
      "type": "function"
    }
  ],
  "bytecode": "60806040523480156200001157600080fd5b506040516200287d3803806200287d8339810160408190526200003491620002cb565b600080836001600160a01b03168d8d8d8d8d8d8d8d8d8c604051602401620000669a9998979695949392919062000423565b60408051601f198184030181529181526020820180516001600160e01b0316631c4b558f60e01b179052516200009d9190620004e2565b600060405180830381855af49150503d8060008114620000da576040519150601f19603f3d011682016040523d82523d6000602084013e620000df565b606091505b509150915081620000f7576040513d806000833e8082fd5b5050505050505050505050505062000500565b80516001600160a01b03811681146200012257600080fd5b919050565b634e487b7160e01b600052604160045260246000fd5b604051601f8201601f191681016001600160401b038111828210171562000168576200016862000127565b604052919050565b60005b838110156200018d57818101518382015260200162000173565b838111156200019d576000848401525b50505050565b600082601f830112620001b557600080fd5b81516001600160401b03811115620001d157620001d162000127565b620001e6601f8201601f19166020016200013d565b818152846020838601011115620001fc57600080fd5b6200020f82602083016020870162000170565b949350505050565b805180151581146200012257600080fd5b805160ff811681146200012257600080fd5b600082601f8301126200024c57600080fd5b815160206001600160401b038211156200026a576200026a62000127565b8160051b6200027b8282016200013d565b92835284810182019282810190878511156200029657600080fd5b83870192505b84831015620002c057620002b0836200010a565b825291830191908301906200029c565b979650505050505050565b60008060008060008060008060008060006101608c8e031215620002ee57600080fd5b620002f98c6200010a565b60208d0151909b506001600160401b038111156200031657600080fd5b620003248e828f01620001a3565b9a50506200033560408d0162000217565b985060608c015197506200034c60808d0162000228565b96506200035c60a08d0162000228565b95506200036c60c08d0162000228565b94506200037c60e08d016200010a565b93506200038d6101008d016200010a565b92506200039e6101208d016200010a565b6101408d01519092506001600160401b03811115620003bc57600080fd5b620003ca8e828f016200023a565b9150509295989b509295989b9093969950565b600081518084526020808501945080840160005b83811015620004185781516001600160a01b031687529582019590820190600101620003f1565b509495945050505050565b60018060a01b038b168152610140602082015260008a51806101408401526200045581610160850160208f0162000170565b601f01601f191682016200046d604084018c15159052565b89606084015262000483608084018a60ff169052565b60ff881660a084015260ff871660c08401526001600160a01b03861660e08401526001600160a01b03851661010084015261016083820301610120840152620004d1610160820185620003dd565b9d9c50505050505050505050505050565b60008251620004f681846020870162000170565b9190910192915050565b61236d80620005106000396000f3fe608060405234801561001057600080fd5b50600436106102115760003560e01c8063824c88da11610125578063baa4d5e9116100ad578063cb85669c1161007c578063cb85669c1461052c578063da9bca2114610554578063de5ab14e14610561578063f00d627414610574578063fe6eade61461058a57600080fd5b8063baa4d5e91461048f578063bb3a9065146104d5578063c347d2fd146104f7578063c4caeb631461051957600080fd5b806399db7fb3116100f457806399db7fb3146104205780639bcb9abb146104405780639c630a8814610455578063a5ac0f3114610468578063ab44997b1461047b57600080fd5b8063824c88da146103cf5780638532cbf7146103d75780638668eafc146103fb5780639360bfad1461040d57600080fd5b80632266e1bc116101a85780635f3d99b3116101775780635f3d99b31461035257806361461e2f146103735780636c2f34e71461039657806370acb761146103a95780637c638548146103bc57600080fd5b80632266e1bc146103045780632c26fb6e146103175780633a70693d1461032a57806359ca2d031461033d57600080fd5b8063152de3b9116101e4578063152de3b9146102ae57806316e58a2f146102c15780631d5fd3ca146102e85780631f50dd27146102f157600080fd5b806304f17a9b14610216578063052f9b0a1461023c57806305fe66631461026757806309c57df71461028e575b600080fd5b610229610224366004611a8c565b61059d565b6040519081526020015b60405180910390f35b60065461024f906001600160a01b031681565b6040516001600160a01b039091168152602001610233565b60015461027c90640100000000900460ff1681565b60405160ff9091168152602001610233565b61022961029c366004611aeb565b60096020526000908152604090205481565b6102296102bc366004611b06565b610658565b6102297f29db90f499fc17d858adf930fec9986f376f0ba9b76d35b25f1db7afb7f4b60c81565b61022960035481565b60075461024f906001600160a01b031681565b610229610312366004611a8c565b6106ba565b610229610325366004611b76565b61071a565b61027c610338366004611bda565b610776565b61034561079a565b6040516102339190611c4f565b610365610360366004611bda565b610828565b604051610233929190611c62565b610386610381366004611ca6565b61091d565b6040519015158152602001610233565b60045461024f906001600160a01b031681565b6102296103b7366004611d32565b6110e3565b6102296103ca366004611a8c565b6111a4565b600f54610229565b6103ea6103e5366004611bda565b611268565b604051610233959493929190611d89565b60015461027c90610100900460ff1681565b60055461024f906001600160a01b031681565b61022961042e366004611aeb565b60086020526000908152604090205481565b61045361044e366004611dcc565b611343565b005b60015461027c9062010000900460ff1681565b610386610476366004611e3e565b61140d565b60015461027c906301000000900460ff1681565b6104a261049d366004611bda565b6114ce565b604080516001600160a01b0395861681526020810194909452918416918301919091529091166060820152608001610233565b6104e86104e3366004611bda565b611516565b60405161023393929190611e8b565b61050a610505366004611ec1565b6115e1565b60405161023393929190611eed565b610229610527366004611f19565b61169e565b61053f61053a366004611bda565b6116fc565b60405161023399989796959493929190611f37565b60015461027c9060ff1681565b61022961056f366004611fc4565b6117fb565b6001546103869065010000000000900460ff1681565b610229610598366004612016565b6118c2565b600254604051600091829182916001600160a01b0316906105c89089908990899089906024016120a3565b60408051601f198184030181529181526020820180516001600160e01b03166304f17a9b60e01b179052516105fd91906120db565b600060405180830381855af49150503d8060008114610638576040519150601f19603f3d011682016040523d82523d6000602084013e61063d565b606091505b50915091506040513d806000833e83610654578082fd5b8082f35b600254604051600091829182916001600160a01b031690610685908a908a908a908a908a906024016120f7565b60408051601f198184030181529181526020820180516001600160e01b031663152de3b960e01b179052516105fd91906120db565b600254604051600091829182916001600160a01b0316906106e59089908990899089906024016120a3565b60408051601f198184030181529181526020820180516001600160e01b0316630899b86f60e21b179052516105fd91906120db565b600254604051600091829182916001600160a01b031690610741908790879060240161213c565b60408051601f198184030181529181526020820180516001600160e01b03166316137db760e11b179052516105fd91906120db565b600e818154811061078657600080fd5b60009182526020909120015460ff16905081565b600080546107a790612161565b80601f01602080910402602001604051908101604052809291908181526020018280546107d390612161565b80156108205780601f106107f557610100808354040283529160200191610820565b820191906000526020600020905b81548152906001019060200180831161080357829003601f168201915b505050505081565b60025460405160248101839052600091606091839182916001600160a01b039091169060440160408051601f198184030181529181526020820180516001600160e01b0316634eeb7b8560e01b1790525161088391906120db565b600060405180830381855af49150503d80600081146108be576040519150601f19603f3d011682016040523d82523d6000602084013e6108c3565b606091505b5091509150816108da576040513d806000833e8082fd5b60016040518060400160405280601981526020017f537563636573732065786563757465642070726f706f73616c00000000000000815250935093505050915091565b6000804690506000604051602001610999907f454950373132446f6d61696e28737472696e67206e616d652c737472696e672081527f76657273696f6e2c75696e7432353620636861696e49642c6164647265737320602082015271766572696679696e67436f6e74726163742960701b604082015260520190565b60408051601f198184030181528282528051602091820120908301527f01318895af1f6db161b2ba745b8e57a6b46efad77d736630379ec69c3cd4c875908201527f07ef8ec374e43c85c540da8f69de7866f66e96deb3aa6b597df20e0ff3ce0c646060820152608081018390523060a082015260c0016040516020818303038152906040528051906020012090506000604051602001610a9b907f7374724f6666436861696e566f7465286164647265737320766f7465722c756981527f6e743235362070726f7049642c626f6f6c20737570706f72742c737472696e6760208201526e206a757374696669636174696f6e2960881b6040820152604f0190565b604051602081830303815290604052805190602001208b8b8b8b604051602001610ac591906120db565b60405160208183030381529060405280519060200120604051602001610b189594939291909485526001600160a01b03939093166020850152604084019190915215156060830152608082015260a00190565b60405160208183030381529060405280519060200120905060008282604051602001610b5b92919061190160f01b81526002810192909252602282015260420190565b60408051601f198184030181528282528051602091820120600080855291840180845281905260ff8a1692840192909252606083018b9052608083018a90529092509060019060a0016020604051602081039080840390855afa158015610bc6573d6000803e3d6000fd5b5050604051601f1901519150506001600160a01b038116610c2e5760405162461bcd60e51b815260206004820152601860248201527f45434453413a20696e76616c6964207369676e6174757265000000000000000060448201526064015b60405180910390fd5b8c6001600160a01b0316816001600160a01b031614610c9b5760405162461bcd60e51b815260206004820152602360248201527f566f746550726f704f6666436861696e3a20696e76616c6964207369676e617460448201526275726560e81b6064820152608401610c25565b600b548c10610cec5760405162461bcd60e51b815260206004820152601760248201527f50726f706f73616c20646f6573206e6f742065786973740000000000000000006044820152606401610c25565b600b8c81548110610cff57610cff61219c565b600091825260209091206005909102016003015462010000900460ff1615610d695760405162461bcd60e51b815260206004820152601960248201527f50726f706f73616c20616c7265616479206578656375746564000000000000006044820152606401610c25565b600b8c81548110610d7c57610d7c61219c565b60009182526020909120600590910201600301546301000000900460ff1615610ddf5760405162461bcd60e51b8152602060048201526015602482015274141c9bdc1bdcd85b081dd85cc81c995a9958dd1959605a1b6044820152606401610c25565b600a60008d815260200190815260200160002060008e6001600160a01b03166001600160a01b0316815260200190815260200160002060000160009054906101000a900460ff1615610e885760405162461bcd60e51b815260206004820152602c60248201527f557365722068617665206120766f74652072656769737472656420666f72207460448201526b1a1a5cc81c1c9bdc1bdcd85b60a21b6064820152608401610c25565b600b8c81548110610e9b57610e9b61219c565b9060005260206000209060050201600401544210610eef5760405162461bcd60e51b815260206004820152601160248201527050726f706f73616c20646561646c696e6560781b6044820152606401610c25565b8a600a60008e815260200190815260200160002060008f6001600160a01b03166001600160a01b0316815260200190815260200160002060000160016101000a81548160ff02191690831515021790555089600a60008e815260200190815260200160002060008f6001600160a01b03166001600160a01b031681526020019081526020016000206001019080519060200190610f8d929190611924565b506001600a60008e815260200190815260200160002060008f6001600160a01b03166001600160a01b0316815260200190815260200160002060000160006101000a81548160ff021916908315150217905550600b8c81548110610ff357610ff361219c565b600091825260208220600360059092020101805460ff1691611014836121b2565b91906101000a81548160ff021916908360ff160217905550508a61108857600b8c815481106110455761104561219c565b600091825260209091206005909102016003018054610100900460ff1690600161106e836121b2565b91906101000a81548160ff021916908360ff160217905550505b7fcf689387e0cfbcfe58bee1b497861a7f47c2dd413053b5d49df763b7928b254e8c8c8f8d6040516110bd94939291906121e0565b60405180910390a16110ce8c610828565b5060019e9d5050505050505050505050505050565b600254604051600091829182916001600160a01b03169061110c9088908890889060240161221c565b60408051601f198184030181529181526020820180516001600160e01b03166370acb76160e01b1790525161114191906120db565b600060405180830381855af49150503d806000811461117c576040519150601f19603f3d011682016040523d82523d6000602084013e611181565b606091505b50915091506040513d806000833e83611198578082fd5b50519695505050505050565b600254604051600091829182916001600160a01b0316906111cf9089908990899089906024016120a3565b60408051601f198184030181529181526020820180516001600160e01b0316630f8c70a960e31b1790525161120491906120db565b600060405180830381855af49150503d806000811461123f576040519150601f19603f3d011682016040523d82523d6000602084013e611244565b606091505b50915091506040513d806000833e8361125b578082fd5b5051979650505050505050565b600f818154811061127857600080fd5b6000918252602090912060049091020180546001820180546001600160a01b039092169350906112a790612161565b80601f01602080910402602001604051908101604052809291908181526020018280546112d390612161565b80156113205780601f106112f557610100808354040283529160200191611320565b820191906000526020600020905b81548152906001019060200180831161130357829003601f168201915b50505050600283015460039093015491929160ff80821692506101009091041685565b600080600160069054906101000a90046001600160a01b03166001600160a01b031685858560405160240161137a93929190612248565b60408051601f198184030181529181526020820180516001600160e01b0316639bcb9abb60e01b179052516113af91906120db565b600060405180830381855af49150503d80600081146113ea576040519150601f19603f3d011682016040523d82523d6000602084013e6113ef565b606091505b509150915081611406576040513d806000833e8082fd5b5050505050565b600254604051600091829182916001600160a01b03169061143690889088908890602401612274565b60408051601f198184030181529181526020820180516001600160e01b031663f40e9b4560e01b1790525161146b91906120db565b600060405180830381855af49150503d80600081146114a6576040519150601f19603f3d011682016040523d82523d6000602084013e6114ab565b606091505b5091509150816114c2576040513d806000833e8082fd5b50600195945050505050565b600d81815481106114de57600080fd5b600091825260209091206004909102018054600182015460028301546003909301546001600160a01b03928316945090928216911684565b600c818154811061152657600080fd5b6000918252602090912060039091020180546001820180546001600160a01b0390921693509061155590612161565b80601f016020809104026020016040519081016040528092919081815260200182805461158190612161565b80156115ce5780601f106115a3576101008083540402835291602001916115ce565b820191906000526020600020905b8154815290600101906020018083116115b157829003601f168201915b5050506002909301549192505060ff1683565b600a6020908152600092835260408084209091529082529020805460018201805460ff808416946101009094041692919061161b90612161565b80601f016020809104026020016040519081016040528092919081815260200182805461164790612161565b80156116945780601f1061166957610100808354040283529160200191611694565b820191906000526020600020905b81548152906001019060200180831161167757829003601f168201915b5050505050905083565b600254604051600091829182916001600160a01b0316906116c790889088908890602401612295565b60408051601f198184030181529181526020820180516001600160e01b031663c4caeb6360e01b1790525161114191906120db565b600b818154811061170c57600080fd5b6000918252602090912060059091020180546001820180546001600160a01b0383169450600160a01b90920460ff16929161174690612161565b80601f016020809104026020016040519081016040528092919081815260200182805461177290612161565b80156117bf5780601f10611794576101008083540402835291602001916117bf565b820191906000526020600020905b8154815290600101906020018083116117a257829003601f168201915b505050600284015460038501546004909501549394909360ff808316945061010083048116935062010000830481169263010000009004169089565b600254604051600091829182916001600160a01b031690611828908a908a908a908a908a906024016122b9565b60408051601f198184030181529181526020820180516001600160e01b0316636f2d58a760e11b1790525161185d91906120db565b600060405180830381855af49150503d8060008114611898576040519150601f19603f3d011682016040523d82523d6000602084013e61189d565b606091505b50915091506040513d806000833e836118b4578082fd5b505198975050505050505050565b600254604051600091829182916001600160a01b0316906118ef908a908a908a908a908a906024016122ec565b60408051601f198184030181529181526020820180516001600160e01b0316637f3756f360e11b1790525161185d91906120db565b82805461193090612161565b90600052602060002090601f0160209004810192826119525760008555611998565b82601f1061196b57805160ff1916838001178555611998565b82800160010185558215611998579182015b8281111561199857825182559160200191906001019061197d565b506119a49291506119a8565b5090565b5b808211156119a457600081556001016119a9565b80356001600160a01b03811681146119d457600080fd5b919050565b634e487b7160e01b600052604160045260246000fd5b600067ffffffffffffffff80841115611a0a57611a0a6119d9565b604051601f8501601f19908116603f01168101908282118183101715611a3257611a326119d9565b81604052809350858152868686011115611a4b57600080fd5b858560208301376000602087830101525050509392505050565b600082601f830112611a7657600080fd5b611a85838335602085016119ef565b9392505050565b60008060008060808587031215611aa257600080fd5b611aab856119bd565b935060208501359250604085013567ffffffffffffffff811115611ace57600080fd5b611ada87828801611a65565b949793965093946060013593505050565b600060208284031215611afd57600080fd5b611a85826119bd565b600080600080600060a08688031215611b1e57600080fd5b611b27866119bd565b9450611b35602087016119bd565b935060408601359250606086013567ffffffffffffffff811115611b5857600080fd5b611b6488828901611a65565b95989497509295608001359392505050565b60008060408385031215611b8957600080fd5b823567ffffffffffffffff80821115611ba157600080fd5b611bad86838701611a65565b93506020850135915080821115611bc357600080fd5b50611bd085828601611a65565b9150509250929050565b600060208284031215611bec57600080fd5b5035919050565b60005b83811015611c0e578181015183820152602001611bf6565b83811115611c1d576000848401525b50505050565b60008151808452611c3b816020860160208601611bf3565b601f01601f19169290920160200192915050565b602081526000611a856020830184611c23565b8215158152604060208201526000611c7d6040830184611c23565b949350505050565b803580151581146119d457600080fd5b803560ff811681146119d457600080fd5b600080600080600080600060e0888a031215611cc157600080fd5b611cca886119bd565b965060208801359550611cdf60408901611c85565b9450606088013567ffffffffffffffff811115611cfb57600080fd5b611d078a828b01611a65565b9450506080880135925060a08801359150611d2460c08901611c95565b905092959891949750929550565b600080600060608486031215611d4757600080fd5b611d5084611c95565b9250602084013567ffffffffffffffff811115611d6c57600080fd5b611d7886828701611a65565b925050604084013590509250925092565b6001600160a01b038616815260a060208201819052600090611dad90830187611c23565b6040830195909552509115156060830152151560809091015292915050565b600080600060608486031215611de157600080fd5b611dea84611c85565b9250611df8602085016119bd565b9150604084013567ffffffffffffffff811115611e1457600080fd5b8401601f81018613611e2557600080fd5b611e34868235602084016119ef565b9150509250925092565b600080600060608486031215611e5357600080fd5b83359250611e6360208501611c85565b9150604084013567ffffffffffffffff811115611e7f57600080fd5b611e3486828701611a65565b6001600160a01b0384168152606060208201819052600090611eaf90830185611c23565b90508215156040830152949350505050565b60008060408385031215611ed457600080fd5b82359150611ee4602084016119bd565b90509250929050565b83151581528215156020820152606060408201526000611f106060830184611c23565b95945050505050565b600080600060608486031215611f2e57600080fd5b611d50846119bd565b6001600160a01b038a168152600061012060098b10611f6657634e487b7160e01b600052602160045260246000fd5b8a6020840152806040840152611f7e8184018b611c23565b91505087606083015260ff8716608083015260ff861660a083015284151560c0830152611faf60e083018515159052565b826101008301529a9950505050505050505050565b600080600080600060a08688031215611fdc57600080fd5b611fe5866119bd565b945060208601359350611ffa604087016119bd565b9250606086013567ffffffffffffffff811115611b5857600080fd5b600080600080600060a0868803121561202e57600080fd5b612037866119bd565b9450602086013567ffffffffffffffff8082111561205457600080fd5b61206089838a01611a65565b9550604088013591508082111561207657600080fd5b5061208388828901611a65565b93505061209260608701611c85565b949793965091946080013592915050565b60018060a01b03851681528360208201526080604082015260006120ca6080830185611c23565b905082606083015295945050505050565b600082516120ed818460208701611bf3565b9190910192915050565b6001600160a01b038681168252851660208201526040810184905260a06060820181905260009061212a90830185611c23565b90508260808301529695505050505050565b60408152600061214f6040830185611c23565b8281036020840152611f108185611c23565b600181811c9082168061217557607f821691505b6020821081141561219657634e487b7160e01b600052602260045260246000fd5b50919050565b634e487b7160e01b600052603260045260246000fd5b600060ff821660ff8114156121d757634e487b7160e01b600052601160045260246000fd5b60010192915050565b84815283151560208201526001600160a01b038316604082015260806060820181905260009061221290830184611c23565b9695505050505050565b60ff841681526060602082015260006122386060830185611c23565b9050826040830152949350505050565b83151581526001600160a01b0383166020820152606060408201819052600090611f1090830184611c23565b8381528215156020820152606060408201526000611f106060830184611c23565b6001600160a01b038416815260606020820181905260009061223890830185611c23565b6001600160a01b038681168252602082018690528416604082015260a06060820181905260009061212a90830185611c23565b6001600160a01b038616815260a06020820181905260009061231090830187611c23565b82810360408401526123228187611c23565b9415156060840152505060800152939250505056fea2646970667358221220530b672b046feaeb686894066a4195aa0a94f9b6230b807b29a231e748ae437464736f6c634300080c0033",
  "bytecodeSha1": "b9e672e42599452b288f0df2550dc88e226bfb44",
  "compiler": {
    "evm_version": "istanbul",
    "optimizer": {
      "enabled": true,
      "runs": 200
    },
    "version": "0.8.12+commit.f00d7308"
  },
  "contractName": "CLHouse",
  "language": "Solidity",
  "natspec": {
    "author": "Leonardo Urrego",
    "kind": "dev",
    "methods": {
      "AcceptRejectInvitation(bool,address,bytes)": {
        "notice": "For an user that have an invitation pending",
        "params": {
          "_acceptance": "True for accept the invitation"
        }
      },
      "ExecProp(uint256)": {
        "details": "Normally is called internally after each vote",
        "notice": "Execute (or reject) a proposal computing the votes and the governance model",
        "params": {
          "_propId": "ID of the proposal, based on `arrProposals`"
        },
        "returns": {
          "message": "result of the transaction",
          "status": "True if the proposal can be execute, false in other cases"
        }
      },
      "HOUSE_NAME()": {
        "notice": "### CLH Public Variables ###"
      },
      "PropGovRules(uint8,string,uint256)": {
        "details": "When execute this proposal the new values will be set",
        "notice": "Generate a new proposal for change some governance parameters",
        "params": {
          "_description": "About the new proposal ",
          "_newApprovPercentage": "The new percentaje for accept or reject a proposal"
        },
        "returns": {
          "propId": "ID of the new proposal, based on `arrProposals`"
        }
      },
      "PropInviteMember(address,string,string,bool,uint256)": {
        "details": "the execution of this proposal only create an invitation ",
        "notice": "Generate a new proposal to invite a new member",
        "params": {
          "_description": "A text for the proposal",
          "_isManager": "True if is for a manager member",
          "_name": "Can be the nickname or other reference to the User",
          "_walletAddr": "Address of the new user"
        },
        "returns": {
          "propId": "ID of the new proposal, based on `arrProposals`"
        }
      },
      "PropRemoveMember(address,string,uint256)": {
        "details": "The member can be a managaer",
        "notice": "Generate a new proposal for remove a member",
        "params": {
          "_description": "About the proposal",
          "_walletAddr": "member Address to be removed"
        },
        "returns": {
          "propId": "ID of the new proposal, based on `arrProposals`"
        }
      },
      "PropRequestToJoin(string,string)": {
        "details": "Only avaiable in public CLH",
        "notice": "Generate a proposal from a user that want to join to the CLH",
        "params": {
          "_description": "About the request",
          "_name": "Nickname or other user identification"
        },
        "returns": {
          "_0": "propId ID of the new proposal, based on `arrProposals`"
        }
      },
      "PropTxERC20(address,uint256,address,string,uint256)": {
        "details": "When execute this proposal, the transfer is made",
        "notice": "generate a new proposal to transfer ETH in weis",
        "params": {
          "_amountOutCLV": "Amount to transfer (in wei)",
          "_description": "About this proposal",
          "_to": "Recipient address"
        },
        "returns": {
          "propId": "ID of the new proposal, based on `arrProposals`"
        }
      },
      "PropTxWei(address,uint256,string,uint256)": {
        "details": "When execute this proposal, the transfer is made",
        "notice": "generate a new proposal to transfer ETH in weis",
        "params": {
          "_amountOutCLV": "Amount to transfer (in wei)",
          "_description": "About this proposal",
          "_to": "Recipient address"
        },
        "returns": {
          "propId": "ID of the new proposal, based on `arrProposals`"
        }
      },
      "VoteProposal(uint256,bool,string)": {
        "details": "After vote the proposal automatically try to be executed",
        "notice": "Used to vote a proposal",
        "params": {
          "_justification": "About your vote",
          "_propId": "ID of the proposal, based on `arrProposals`",
          "_support": "True for accept, false to reject"
        },
        "returns": {
          "_0": "true is the vote can be stored"
        }
      },
      "__OFFCHAINVOTE_STRUCT_TYPEHASH__()": {
        "notice": "The EIP-712 typehash for the offChainVote struct used by the CLH"
      },
      "constructor": {
        "details": "Some parameters can be ignored depending on the governance model",
        "notice": "Create a new CLH",
        "params": {
          "_ManagerWallets": "Whitelist of address for invitate as managers",
          "_gov": "keccak256 hash of the governance model, see the __GOV_* constans",
          "_govRuleApprovPercentage": "Percentage for approval o reject proposal based on `numManagerMembers`",
          "_govRuleMaxActiveMembers": "Max of all members (including managers)",
          "_govRuleMaxManagerMembers": "Max of manager member that CLH can accept (only for COMMITTEE )",
          "_houseName": "Name given by the owner",
          "_housePrivate": "If is set to 1, the CLH is set to private",
          "_owner": "The address of the deployed wallet"
        }
      }
    },
    "notice": "This contract for test only the most basic interactions",
    "title": "Contract to implement and test the basic fuctions of CLHouses",
    "version": 1
  },
  "opcodes": "PUSH1 0x80 PUSH1 0x40 MSTORE CALLVALUE DUP1 ISZERO PUSH2 0x10 JUMPI PUSH1 0x0 DUP1 REVERT JUMPDEST POP PUSH1 0x4 CALLDATASIZE LT PUSH2 0x211 JUMPI PUSH1 0x0 CALLDATALOAD PUSH1 0xE0 SHR DUP1 PUSH4 0x824C88DA GT PUSH2 0x125 JUMPI DUP1 PUSH4 0xBAA4D5E9 GT PUSH2 0xAD JUMPI DUP1 PUSH4 0xCB85669C GT PUSH2 0x7C JUMPI DUP1 PUSH4 0xCB85669C EQ PUSH2 0x52C JUMPI DUP1 PUSH4 0xDA9BCA21 EQ PUSH2 0x554 JUMPI DUP1 PUSH4 0xDE5AB14E EQ PUSH2 0x561 JUMPI DUP1 PUSH4 0xF00D6274 EQ PUSH2 0x574 JUMPI DUP1 PUSH4 0xFE6EADE6 EQ PUSH2 0x58A JUMPI PUSH1 0x0 DUP1 REVERT JUMPDEST DUP1 PUSH4 0xBAA4D5E9 EQ PUSH2 0x48F JUMPI DUP1 PUSH4 0xBB3A9065 EQ PUSH2 0x4D5 JUMPI DUP1 PUSH4 0xC347D2FD EQ PUSH2 0x4F7 JUMPI DUP1 PUSH4 0xC4CAEB63 EQ PUSH2 0x519 JUMPI PUSH1 0x0 DUP1 REVERT JUMPDEST DUP1 PUSH4 0x99DB7FB3 GT PUSH2 0xF4 JUMPI DUP1 PUSH4 0x99DB7FB3 EQ PUSH2 0x420 JUMPI DUP1 PUSH4 0x9BCB9ABB EQ PUSH2 0x440 JUMPI DUP1 PUSH4 0x9C630A88 EQ PUSH2 0x455 JUMPI DUP1 PUSH4 0xA5AC0F31 EQ PUSH2 0x468 JUMPI DUP1 PUSH4 0xAB44997B EQ PUSH2 0x47B JUMPI PUSH1 0x0 DUP1 REVERT JUMPDEST DUP1 PUSH4 0x824C88DA EQ PUSH2 0x3CF JUMPI DUP1 PUSH4 0x8532CBF7 EQ PUSH2 0x3D7 JUMPI DUP1 PUSH4 0x8668EAFC EQ PUSH2 0x3FB JUMPI DUP1 PUSH4 0x9360BFAD EQ PUSH2 0x40D JUMPI PUSH1 0x0 DUP1 REVERT JUMPDEST DUP1 PUSH4 0x2266E1BC GT PUSH2 0x1A8 JUMPI DUP1 PUSH4 0x5F3D99B3 GT PUSH2 0x177 JUMPI DUP1 PUSH4 0x5F3D99B3 EQ PUSH2 0x352 JUMPI DUP1 PUSH4 0x61461E2F EQ PUSH2 0x373 JUMPI DUP1 PUSH4 0x6C2F34E7 EQ PUSH2 0x396 JUMPI DUP1 PUSH4 0x70ACB761 EQ PUSH2 0x3A9 JUMPI DUP1 PUSH4 0x7C638548 EQ PUSH2 0x3BC JUMPI PUSH1 0x0 DUP1 REVERT JUMPDEST DUP1 PUSH4 0x2266E1BC EQ PUSH2 0x304 JUMPI DUP1 PUSH4 0x2C26FB6E EQ PUSH2 0x317 JUMPI DUP1 PUSH4 0x3A70693D EQ PUSH2 0x32A JUMPI DUP1 PUSH4 0x59CA2D03 EQ PUSH2 0x33D JUMPI PUSH1 0x0 DUP1 REVERT JUMPDEST DUP1 PUSH4 0x152DE3B9 GT PUSH2 0x1E4 JUMPI DUP1 PUSH4 0x152DE3B9 EQ PUSH2 0x2AE JUMPI DUP1 PUSH4 0x16E58A2F EQ PUSH2 0x2C1 JUMPI DUP1 PUSH4 0x1D5FD3CA EQ PUSH2 0x2E8 JUMPI DUP1 PUSH4 0x1F50DD27 EQ PUSH2 0x2F1 JUMPI PUSH1 0x0 DUP1 REVERT JUMPDEST DUP1 PUSH4 0x4F17A9B EQ PUSH2 0x216 JUMPI DUP1 PUSH4 0x52F9B0A EQ PUSH2 0x23C JUMPI DUP1 PUSH4 0x5FE6663 EQ PUSH2 0x267 JUMPI DUP1 PUSH4 0x9C57DF7 EQ PUSH2 0x28E JUMPI JUMPDEST PUSH1 0x0 DUP1 REVERT JUMPDEST PUSH2 0x229 PUSH2 0x224 CALLDATASIZE PUSH1 0x4 PUSH2 0x1A8C JUMP JUMPDEST PUSH2 0x59D JUMP JUMPDEST PUSH1 0x40 MLOAD SWAP1 DUP2 MSTORE PUSH1 0x20 ADD JUMPDEST PUSH1 0x40 MLOAD DUP1 SWAP2 SUB SWAP1 RETURN JUMPDEST PUSH1 0x6 SLOAD PUSH2 0x24F SWAP1 PUSH1 0x1 PUSH1 0x1 PUSH1 0xA0 SHL SUB AND DUP2 JUMP JUMPDEST PUSH1 0x40 MLOAD PUSH1 0x1 PUSH1 0x1 PUSH1 0xA0 SHL SUB SWAP1 SWAP2 AND DUP2 MSTORE PUSH1 0x20 ADD PUSH2 0x233 JUMP JUMPDEST PUSH1 0x1 SLOAD PUSH2 0x27C SWAP1 PUSH5 0x100000000 SWAP1 DIV PUSH1 0xFF AND DUP2 JUMP JUMPDEST PUSH1 0x40 MLOAD PUSH1 0xFF SWAP1 SWAP2 AND DUP2 MSTORE PUSH1 0x20 ADD PUSH2 0x233 JUMP JUMPDEST PUSH2 0x229 PUSH2 0x29C CALLDATASIZE PUSH1 0x4 PUSH2 0x1AEB JUMP JUMPDEST PUSH1 0x9 PUSH1 0x20 MSTORE PUSH1 0x0 SWAP1 DUP2 MSTORE PUSH1 0x40 SWAP1 KECCAK256 SLOAD DUP2 JUMP JUMPDEST PUSH2 0x229 PUSH2 0x2BC CALLDATASIZE PUSH1 0x4 PUSH2 0x1B06 JUMP JUMPDEST PUSH2 0x658 JUMP JUMPDEST PUSH2 0x229 PUSH32 0x29DB90F499FC17D858ADF930FEC9986F376F0BA9B76D35B25F1DB7AFB7F4B60C DUP2 JUMP JUMPDEST PUSH2 0x229 PUSH1 0x3 SLOAD DUP2 JUMP JUMPDEST PUSH1 0x7 SLOAD PUSH2 0x24F SWAP1 PUSH1 0x1 PUSH1 0x1 PUSH1 0xA0 SHL SUB AND DUP2 JUMP JUMPDEST PUSH2 0x229 PUSH2 0x312 CALLDATASIZE PUSH1 0x4 PUSH2 0x1A8C JUMP JUMPDEST PUSH2 0x6BA JUMP JUMPDEST PUSH2 0x229 PUSH2 0x325 CALLDATASIZE PUSH1 0x4 PUSH2 0x1B76 JUMP JUMPDEST PUSH2 0x71A JUMP JUMPDEST PUSH2 0x27C PUSH2 0x338 CALLDATASIZE PUSH1 0x4 PUSH2 0x1BDA JUMP JUMPDEST PUSH2 0x776 JUMP JUMPDEST PUSH2 0x345 PUSH2 0x79A JUMP JUMPDEST PUSH1 0x40 MLOAD PUSH2 0x233 SWAP2 SWAP1 PUSH2 0x1C4F JUMP JUMPDEST PUSH2 0x365 PUSH2 0x360 CALLDATASIZE PUSH1 0x4 PUSH2 0x1BDA JUMP JUMPDEST PUSH2 0x828 JUMP JUMPDEST PUSH1 0x40 MLOAD PUSH2 0x233 SWAP3 SWAP2 SWAP1 PUSH2 0x1C62 JUMP JUMPDEST PUSH2 0x386 PUSH2 0x381 CALLDATASIZE PUSH1 0x4 PUSH2 0x1CA6 JUMP JUMPDEST PUSH2 0x91D JUMP JUMPDEST PUSH1 0x40 MLOAD SWAP1 ISZERO ISZERO DUP2 MSTORE PUSH1 0x20 ADD PUSH2 0x233 JUMP JUMPDEST PUSH1 0x4 SLOAD PUSH2 0x24F SWAP1 PUSH1 0x1 PUSH1 0x1 PUSH1 0xA0 SHL SUB AND DUP2 JUMP JUMPDEST PUSH2 0x229 PUSH2 0x3B7 CALLDATASIZE PUSH1 0x4 PUSH2 0x1D32 JUMP JUMPDEST PUSH2 0x10E3 JUMP JUMPDEST PUSH2 0x229 PUSH2 0x3CA CALLDATASIZE PUSH1 0x4 PUSH2 0x1A8C JUMP JUMPDEST PUSH2 0x11A4 JUMP JUMPDEST PUSH1 0xF SLOAD PUSH2 0x229 JUMP JUMPDEST PUSH2 0x3EA PUSH2 0x3E5 CALLDATASIZE PUSH1 0x4 PUSH2 0x1BDA JUMP JUMPDEST PUSH2 0x1268 JUMP JUMPDEST PUSH1 0x40 MLOAD PUSH2 0x233 SWAP6 SWAP5 SWAP4 SWAP3 SWAP2 SWAP1 PUSH2 0x1D89 JUMP JUMPDEST PUSH1 0x1 SLOAD PUSH2 0x27C SWAP1 PUSH2 0x100 SWAP1 DIV PUSH1 0xFF AND DUP2 JUMP JUMPDEST PUSH1 0x5 SLOAD PUSH2 0x24F SWAP1 PUSH1 0x1 PUSH1 0x1 PUSH1 0xA0 SHL SUB AND DUP2 JUMP JUMPDEST PUSH2 0x229 PUSH2 0x42E CALLDATASIZE PUSH1 0x4 PUSH2 0x1AEB JUMP JUMPDEST PUSH1 0x8 PUSH1 0x20 MSTORE PUSH1 0x0 SWAP1 DUP2 MSTORE PUSH1 0x40 SWAP1 KECCAK256 SLOAD DUP2 JUMP JUMPDEST PUSH2 0x453 PUSH2 0x44E CALLDATASIZE PUSH1 0x4 PUSH2 0x1DCC JUMP JUMPDEST PUSH2 0x1343 JUMP JUMPDEST STOP JUMPDEST PUSH1 0x1 SLOAD PUSH2 0x27C SWAP1 PUSH3 0x10000 SWAP1 DIV PUSH1 0xFF AND DUP2 JUMP JUMPDEST PUSH2 0x386 PUSH2 0x476 CALLDATASIZE PUSH1 0x4 PUSH2 0x1E3E JUMP JUMPDEST PUSH2 0x140D JUMP JUMPDEST PUSH1 0x1 SLOAD PUSH2 0x27C SWAP1 PUSH4 0x1000000 SWAP1 DIV PUSH1 0xFF AND DUP2 JUMP JUMPDEST PUSH2 0x4A2 PUSH2 0x49D CALLDATASIZE PUSH1 0x4 PUSH2 0x1BDA JUMP JUMPDEST PUSH2 0x14CE JUMP JUMPDEST PUSH1 0x40 DUP1 MLOAD PUSH1 0x1 PUSH1 0x1 PUSH1 0xA0 SHL SUB SWAP6 DUP7 AND DUP2 MSTORE PUSH1 0x20 DUP2 ADD SWAP5 SWAP1 SWAP5 MSTORE SWAP2 DUP5 AND SWAP2 DUP4 ADD SWAP2 SWAP1 SWAP2 MSTORE SWAP1 SWAP2 AND PUSH1 0x60 DUP3 ADD MSTORE PUSH1 0x80 ADD PUSH2 0x233 JUMP JUMPDEST PUSH2 0x4E8 PUSH2 0x4E3 CALLDATASIZE PUSH1 0x4 PUSH2 0x1BDA JUMP JUMPDEST PUSH2 0x1516 JUMP JUMPDEST PUSH1 0x40 MLOAD PUSH2 0x233 SWAP4 SWAP3 SWAP2 SWAP1 PUSH2 0x1E8B JUMP JUMPDEST PUSH2 0x50A PUSH2 0x505 CALLDATASIZE PUSH1 0x4 PUSH2 0x1EC1 JUMP JUMPDEST PUSH2 0x15E1 JUMP JUMPDEST PUSH1 0x40 MLOAD PUSH2 0x233 SWAP4 SWAP3 SWAP2 SWAP1 PUSH2 0x1EED JUMP JUMPDEST PUSH2 0x229 PUSH2 0x527 CALLDATASIZE PUSH1 0x4 PUSH2 0x1F19 JUMP JUMPDEST PUSH2 0x169E JUMP JUMPDEST PUSH2 0x53F PUSH2 0x53A CALLDATASIZE PUSH1 0x4 PUSH2 0x1BDA JUMP JUMPDEST PUSH2 0x16FC JUMP JUMPDEST PUSH1 0x40 MLOAD PUSH2 0x233 SWAP10 SWAP9 SWAP8 SWAP7 SWAP6 SWAP5 SWAP4 SWAP3 SWAP2 SWAP1 PUSH2 0x1F37 JUMP JUMPDEST PUSH1 0x1 SLOAD PUSH2 0x27C SWAP1 PUSH1 0xFF AND DUP2 JUMP JUMPDEST PUSH2 0x229 PUSH2 0x56F CALLDATASIZE PUSH1 0x4 PUSH2 0x1FC4 JUMP JUMPDEST PUSH2 0x17FB JUMP JUMPDEST PUSH1 0x1 SLOAD PUSH2 0x386 SWAP1 PUSH6 0x10000000000 SWAP1 DIV PUSH1 0xFF AND DUP2 JUMP JUMPDEST PUSH2 0x229 PUSH2 0x598 CALLDATASIZE PUSH1 0x4 PUSH2 0x2016 JUMP JUMPDEST PUSH2 0x18C2 JUMP JUMPDEST PUSH1 0x2 SLOAD PUSH1 0x40 MLOAD PUSH1 0x0 SWAP2 DUP3 SWAP2 DUP3 SWAP2 PUSH1 0x1 PUSH1 0x1 PUSH1 0xA0 SHL SUB AND SWAP1 PUSH2 0x5C8 SWAP1 DUP10 SWAP1 DUP10 SWAP1 DUP10 SWAP1 DUP10 SWAP1 PUSH1 0x24 ADD PUSH2 0x20A3 JUMP JUMPDEST PUSH1 0x40 DUP1 MLOAD PUSH1 0x1F NOT DUP2 DUP5 SUB ADD DUP2 MSTORE SWAP2 DUP2 MSTORE PUSH1 0x20 DUP3 ADD DUP1 MLOAD PUSH1 0x1 PUSH1 0x1 PUSH1 0xE0 SHL SUB AND PUSH4 0x4F17A9B PUSH1 0xE0 SHL OR SWAP1 MSTORE MLOAD PUSH2 0x5FD SWAP2 SWAP1 PUSH2 0x20DB JUMP JUMPDEST PUSH1 0x0 PUSH1 0x40 MLOAD DUP1 DUP4 SUB DUP2 DUP6 GAS DELEGATECALL SWAP2 POP POP RETURNDATASIZE DUP1 PUSH1 0x0 DUP2 EQ PUSH2 0x638 JUMPI PUSH1 0x40 MLOAD SWAP2 POP PUSH1 0x1F NOT PUSH1 0x3F RETURNDATASIZE ADD AND DUP3 ADD PUSH1 0x40 MSTORE RETURNDATASIZE DUP3 MSTORE RETURNDATASIZE PUSH1 0x0 PUSH1 0x20 DUP5 ADD RETURNDATACOPY PUSH2 0x63D JUMP JUMPDEST PUSH1 0x60 SWAP2 POP JUMPDEST POP SWAP2 POP SWAP2 POP PUSH1 0x40 MLOAD RETURNDATASIZE DUP1 PUSH1 0x0 DUP4 RETURNDATACOPY DUP4 PUSH2 0x654 JUMPI DUP1 DUP3 REVERT JUMPDEST DUP1 DUP3 RETURN JUMPDEST PUSH1 0x2 SLOAD PUSH1 0x40 MLOAD PUSH1 0x0 SWAP2 DUP3 SWAP2 DUP3 SWAP2 PUSH1 0x1 PUSH1 0x1 PUSH1 0xA0 SHL SUB AND SWAP1 PUSH2 0x685 SWAP1 DUP11 SWAP1 DUP11 SWAP1 DUP11 SWAP1 DUP11 SWAP1 DUP11 SWAP1 PUSH1 0x24 ADD PUSH2 0x20F7 JUMP JUMPDEST PUSH1 0x40 DUP1 MLOAD PUSH1 0x1F NOT DUP2 DUP5 SUB ADD DUP2 MSTORE SWAP2 DUP2 MSTORE PUSH1 0x20 DUP3 ADD DUP1 MLOAD PUSH1 0x1 PUSH1 0x1 PUSH1 0xE0 SHL SUB AND PUSH4 0x152DE3B9 PUSH1 0xE0 SHL OR SWAP1 MSTORE MLOAD PUSH2 0x5FD SWAP2 SWAP1 PUSH2 0x20DB JUMP JUMPDEST PUSH1 0x2 SLOAD PUSH1 0x40 MLOAD PUSH1 0x0 SWAP2 DUP3 SWAP2 DUP3 SWAP2 PUSH1 0x1 PUSH1 0x1 PUSH1 0xA0 SHL SUB AND SWAP1 PUSH2 0x6E5 SWAP1 DUP10 SWAP1 DUP10 SWAP1 DUP10 SWAP1 DUP10 SWAP1 PUSH1 0x24 ADD PUSH2 0x20A3 JUMP JUMPDEST PUSH1 0x40 DUP1 MLOAD PUSH1 0x1F NOT DUP2 DUP5 SUB ADD DUP2 MSTORE SWAP2 DUP2 MSTORE PUSH1 0x20 DUP3 ADD DUP1 MLOAD PUSH1 0x1 PUSH1 0x1 PUSH1 0xE0 SHL SUB AND PUSH4 0x899B86F PUSH1 0xE2 SHL OR SWAP1 MSTORE MLOAD PUSH2 0x5FD SWAP2 SWAP1 PUSH2 0x20DB JUMP JUMPDEST PUSH1 0x2 SLOAD PUSH1 0x40 MLOAD PUSH1 0x0 SWAP2 DUP3 SWAP2 DUP3 SWAP2 PUSH1 0x1 PUSH1 0x1 PUSH1 0xA0 SHL SUB AND SWAP1 PUSH2 0x741 SWAP1 DUP8 SWAP1 DUP8 SWAP1 PUSH1 0x24 ADD PUSH2 0x213C JUMP JUMPDEST PUSH1 0x40 DUP1 MLOAD PUSH1 0x1F NOT DUP2 DUP5 SUB ADD DUP2 MSTORE SWAP2 DUP2 MSTORE PUSH1 0x20 DUP3 ADD DUP1 MLOAD PUSH1 0x1 PUSH1 0x1 PUSH1 0xE0 SHL SUB AND PUSH4 0x16137DB7 PUSH1 0xE1 SHL OR SWAP1 MSTORE MLOAD PUSH2 0x5FD SWAP2 SWAP1 PUSH2 0x20DB JUMP JUMPDEST PUSH1 0xE DUP2 DUP2 SLOAD DUP2 LT PUSH2 0x786 JUMPI PUSH1 0x0 DUP1 REVERT JUMPDEST PUSH1 0x0 SWAP2 DUP3 MSTORE PUSH1 0x20 SWAP1 SWAP2 KECCAK256 ADD SLOAD PUSH1 0xFF AND SWAP1 POP DUP2 JUMP JUMPDEST PUSH1 0x0 DUP1 SLOAD PUSH2 0x7A7 SWAP1 PUSH2 0x2161 JUMP JUMPDEST DUP1 PUSH1 0x1F ADD PUSH1 0x20 DUP1 SWAP2 DIV MUL PUSH1 0x20 ADD PUSH1 0x40 MLOAD SWAP1 DUP2 ADD PUSH1 0x40 MSTORE DUP1 SWAP3 SWAP2 SWAP1 DUP2 DUP2 MSTORE PUSH1 0x20 ADD DUP3 DUP1 SLOAD PUSH2 0x7D3 SWAP1 PUSH2 0x2161 JUMP JUMPDEST DUP1 ISZERO PUSH2 0x820 JUMPI DUP1 PUSH1 0x1F LT PUSH2 0x7F5 JUMPI PUSH2 0x100 DUP1 DUP4 SLOAD DIV MUL DUP4 MSTORE SWAP2 PUSH1 0x20 ADD SWAP2 PUSH2 0x820 JUMP JUMPDEST DUP3 ADD SWAP2 SWAP1 PUSH1 0x0 MSTORE PUSH1 0x20 PUSH1 0x0 KECCAK256 SWAP1 JUMPDEST DUP2 SLOAD DUP2 MSTORE SWAP1 PUSH1 0x1 ADD SWAP1 PUSH1 0x20 ADD DUP1 DUP4 GT PUSH2 0x803 JUMPI DUP3 SWAP1 SUB PUSH1 0x1F AND DUP3 ADD SWAP2 JUMPDEST POP POP POP POP POP DUP2 JUMP JUMPDEST PUSH1 0x2 SLOAD PUSH1 0x40 MLOAD PUSH1 0x24 DUP2 ADD DUP4 SWAP1 MSTORE PUSH1 0x0 SWAP2 PUSH1 0x60 SWAP2 DUP4 SWAP2 DUP3 SWAP2 PUSH1 0x1 PUSH1 0x1 PUSH1 0xA0 SHL SUB SWAP1 SWAP2 AND SWAP1 PUSH1 0x44 ADD PUSH1 0x40 DUP1 MLOAD PUSH1 0x1F NOT DUP2 DUP5 SUB ADD DUP2 MSTORE SWAP2 DUP2 MSTORE PUSH1 0x20 DUP3 ADD DUP1 MLOAD PUSH1 0x1 PUSH1 0x1 PUSH1 0xE0 SHL SUB AND PUSH4 0x4EEB7B85 PUSH1 0xE0 SHL OR SWAP1 MSTORE MLOAD PUSH2 0x883 SWAP2 SWAP1 PUSH2 0x20DB JUMP JUMPDEST PUSH1 0x0 PUSH1 0x40 MLOAD DUP1 DUP4 SUB DUP2 DUP6 GAS DELEGATECALL SWAP2 POP POP RETURNDATASIZE DUP1 PUSH1 0x0 DUP2 EQ PUSH2 0x8BE JUMPI PUSH1 0x40 MLOAD SWAP2 POP PUSH1 0x1F NOT PUSH1 0x3F RETURNDATASIZE ADD AND DUP3 ADD PUSH1 0x40 MSTORE RETURNDATASIZE DUP3 MSTORE RETURNDATASIZE PUSH1 0x0 PUSH1 0x20 DUP5 ADD RETURNDATACOPY PUSH2 0x8C3 JUMP JUMPDEST PUSH1 0x60 SWAP2 POP JUMPDEST POP SWAP2 POP SWAP2 POP DUP2 PUSH2 0x8DA JUMPI PUSH1 0x40 MLOAD RETURNDATASIZE DUP1 PUSH1 0x0 DUP4 RETURNDATACOPY DUP1 DUP3 REVERT JUMPDEST PUSH1 0x1 PUSH1 0x40 MLOAD DUP1 PUSH1 0x40 ADD PUSH1 0x40 MSTORE DUP1 PUSH1 0x19 DUP2 MSTORE PUSH1 0x20 ADD PUSH32 0x537563636573732065786563757465642070726F706F73616C00000000000000 DUP2 MSTORE POP SWAP4 POP SWAP4 POP POP POP SWAP2 POP SWAP2 JUMP JUMPDEST PUSH1 0x0 DUP1 CHAINID SWAP1 POP PUSH1 0x0 PUSH1 0x40 MLOAD PUSH1 0x20 ADD PUSH2 0x999 SWAP1 PUSH32 0x454950373132446F6D61696E28737472696E67206E616D652C737472696E6720 DUP2 MSTORE PUSH32 0x76657273696F6E2C75696E7432353620636861696E49642C6164647265737320 PUSH1 0x20 DUP3 ADD MSTORE PUSH18 0x766572696679696E67436F6E747261637429 PUSH1 0x70 SHL PUSH1 0x40 DUP3 ADD MSTORE PUSH1 0x52 ADD SWAP1 JUMP JUMPDEST PUSH1 0x40 DUP1 MLOAD PUSH1 0x1F NOT DUP2 DUP5 SUB ADD DUP2 MSTORE DUP3 DUP3 MSTORE DUP1 MLOAD PUSH1 0x20 SWAP2 DUP3 ADD KECCAK256 SWAP1 DUP4 ADD MSTORE PUSH32 0x1318895AF1F6DB161B2BA745B8E57A6B46EFAD77D736630379EC69C3CD4C875 SWAP1 DUP3 ADD MSTORE PUSH32 0x7EF8EC374E43C85C540DA8F69DE7866F66E96DEB3AA6B597DF20E0FF3CE0C64 PUSH1 0x60 DUP3 ADD MSTORE PUSH1 0x80 DUP2 ADD DUP4 SWAP1 MSTORE ADDRESS PUSH1 0xA0 DUP3 ADD MSTORE PUSH1 0xC0 ADD PUSH1 0x40 MLOAD PUSH1 0x20 DUP2 DUP4 SUB SUB DUP2 MSTORE SWAP1 PUSH1 0x40 MSTORE DUP1 MLOAD SWAP1 PUSH1 0x20 ADD KECCAK256 SWAP1 POP PUSH1 0x0 PUSH1 0x40 MLOAD PUSH1 0x20 ADD PUSH2 0xA9B SWAP1 PUSH32 0x7374724F6666436861696E566F7465286164647265737320766F7465722C7569 DUP2 MSTORE PUSH32 0x6E743235362070726F7049642C626F6F6C20737570706F72742C737472696E67 PUSH1 0x20 DUP3 ADD MSTORE PUSH15 0x206A757374696669636174696F6E29 PUSH1 0x88 SHL PUSH1 0x40 DUP3 ADD MSTORE PUSH1 0x4F ADD SWAP1 JUMP JUMPDEST PUSH1 0x40 MLOAD PUSH1 0x20 DUP2 DUP4 SUB SUB DUP2 MSTORE SWAP1 PUSH1 0x40 MSTORE DUP1 MLOAD SWAP1 PUSH1 0x20 ADD KECCAK256 DUP12 DUP12 DUP12 DUP12 PUSH1 0x40 MLOAD PUSH1 0x20 ADD PUSH2 0xAC5 SWAP2 SWAP1 PUSH2 0x20DB JUMP JUMPDEST PUSH1 0x40 MLOAD PUSH1 0x20 DUP2 DUP4 SUB SUB DUP2 MSTORE SWAP1 PUSH1 0x40 MSTORE DUP1 MLOAD SWAP1 PUSH1 0x20 ADD KECCAK256 PUSH1 0x40 MLOAD PUSH1 0x20 ADD PUSH2 0xB18 SWAP6 SWAP5 SWAP4 SWAP3 SWAP2 SWAP1 SWAP5 DUP6 MSTORE PUSH1 0x1 PUSH1 0x1 PUSH1 0xA0 SHL SUB SWAP4 SWAP1 SWAP4 AND PUSH1 0x20 DUP6 ADD MSTORE PUSH1 0x40 DUP5 ADD SWAP2 SWAP1 SWAP2 MSTORE ISZERO ISZERO PUSH1 0x60 DUP4 ADD MSTORE PUSH1 0x80 DUP3 ADD MSTORE PUSH1 0xA0 ADD SWAP1 JUMP JUMPDEST PUSH1 0x40 MLOAD PUSH1 0x20 DUP2 DUP4 SUB SUB DUP2 MSTORE SWAP1 PUSH1 0x40 MSTORE DUP1 MLOAD SWAP1 PUSH1 0x20 ADD KECCAK256 SWAP1 POP PUSH1 0x0 DUP3 DUP3 PUSH1 0x40 MLOAD PUSH1 0x20 ADD PUSH2 0xB5B SWAP3 SWAP2 SWAP1 PUSH2 0x1901 PUSH1 0xF0 SHL DUP2 MSTORE PUSH1 0x2 DUP2 ADD SWAP3 SWAP1 SWAP3 MSTORE PUSH1 0x22 DUP3 ADD MSTORE PUSH1 0x42 ADD SWAP1 JUMP JUMPDEST PUSH1 0x40 DUP1 MLOAD PUSH1 0x1F NOT DUP2 DUP5 SUB ADD DUP2 MSTORE DUP3 DUP3 MSTORE DUP1 MLOAD PUSH1 0x20 SWAP2 DUP3 ADD KECCAK256 PUSH1 0x0 DUP1 DUP6 MSTORE SWAP2 DUP5 ADD DUP1 DUP5 MSTORE DUP2 SWAP1 MSTORE PUSH1 0xFF DUP11 AND SWAP3 DUP5 ADD SWAP3 SWAP1 SWAP3 MSTORE PUSH1 0x60 DUP4 ADD DUP12 SWAP1 MSTORE PUSH1 0x80 DUP4 ADD DUP11 SWAP1 MSTORE SWAP1 SWAP3 POP SWAP1 PUSH1 0x1 SWAP1 PUSH1 0xA0 ADD PUSH1 0x20 PUSH1 0x40 MLOAD PUSH1 0x20 DUP2 SUB SWAP1 DUP1 DUP5 SUB SWAP1 DUP6 GAS STATICCALL ISZERO DUP1 ISZERO PUSH2 0xBC6 JUMPI RETURNDATASIZE PUSH1 0x0 DUP1 RETURNDATACOPY RETURNDATASIZE PUSH1 0x0 REVERT JUMPDEST POP POP PUSH1 0x40 MLOAD PUSH1 0x1F NOT ADD MLOAD SWAP2 POP POP PUSH1 0x1 PUSH1 0x1 PUSH1 0xA0 SHL SUB DUP2 AND PUSH2 0xC2E JUMPI PUSH1 0x40 MLOAD PUSH3 0x461BCD PUSH1 0xE5 SHL DUP2 MSTORE PUSH1 0x20 PUSH1 0x4 DUP3 ADD MSTORE PUSH1 0x18 PUSH1 0x24 DUP3 ADD MSTORE PUSH32 0x45434453413A20696E76616C6964207369676E61747572650000000000000000 PUSH1 0x44 DUP3 ADD MSTORE PUSH1 0x64 ADD JUMPDEST PUSH1 0x40 MLOAD DUP1 SWAP2 SUB SWAP1 REVERT JUMPDEST DUP13 PUSH1 0x1 PUSH1 0x1 PUSH1 0xA0 SHL SUB AND DUP2 PUSH1 0x1 PUSH1 0x1 PUSH1 0xA0 SHL SUB AND EQ PUSH2 0xC9B JUMPI PUSH1 0x40 MLOAD PUSH3 0x461BCD PUSH1 0xE5 SHL DUP2 MSTORE PUSH1 0x20 PUSH1 0x4 DUP3 ADD MSTORE PUSH1 0x23 PUSH1 0x24 DUP3 ADD MSTORE PUSH32 0x566F746550726F704F6666436861696E3A20696E76616C6964207369676E6174 PUSH1 0x44 DUP3 ADD MSTORE PUSH3 0x757265 PUSH1 0xE8 SHL PUSH1 0x64 DUP3 ADD MSTORE PUSH1 0x84 ADD PUSH2 0xC25 JUMP JUMPDEST PUSH1 0xB SLOAD DUP13 LT PUSH2 0xCEC JUMPI PUSH1 0x40 MLOAD PUSH3 0x461BCD PUSH1 0xE5 SHL DUP2 MSTORE PUSH1 0x20 PUSH1 0x4 DUP3 ADD MSTORE PUSH1 0x17 PUSH1 0x24 DUP3 ADD MSTORE PUSH32 0x50726F706F73616C20646F6573206E6F74206578697374000000000000000000 PUSH1 0x44 DUP3 ADD MSTORE PUSH1 0x64 ADD PUSH2 0xC25 JUMP JUMPDEST PUSH1 0xB DUP13 DUP2 SLOAD DUP2 LT PUSH2 0xCFF JUMPI PUSH2 0xCFF PUSH2 0x219C JUMP JUMPDEST PUSH1 0x0 SWAP2 DUP3 MSTORE PUSH1 0x20 SWAP1 SWAP2 KECCAK256 PUSH1 0x5 SWAP1 SWAP2 MUL ADD PUSH1 0x3 ADD SLOAD PUSH3 0x10000 SWAP1 DIV PUSH1 0xFF AND ISZERO PUSH2 0xD69 JUMPI PUSH1 0x40 MLOAD PUSH3 0x461BCD PUSH1 0xE5 SHL DUP2 MSTORE PUSH1 0x20 PUSH1 0x4 DUP3 ADD MSTORE PUSH1 0x19 PUSH1 0x24 DUP3 ADD MSTORE PUSH32 0x50726F706F73616C20616C726561647920657865637574656400000000000000 PUSH1 0x44 DUP3 ADD MSTORE PUSH1 0x64 ADD PUSH2 0xC25 JUMP JUMPDEST PUSH1 0xB DUP13 DUP2 SLOAD DUP2 LT PUSH2 0xD7C JUMPI PUSH2 0xD7C PUSH2 0x219C JUMP JUMPDEST PUSH1 0x0 SWAP2 DUP3 MSTORE PUSH1 0x20 SWAP1 SWAP2 KECCAK256 PUSH1 0x5 SWAP1 SWAP2 MUL ADD PUSH1 0x3 ADD SLOAD PUSH4 0x1000000 SWAP1 DIV PUSH1 0xFF AND ISZERO PUSH2 0xDDF JUMPI PUSH1 0x40 MLOAD PUSH3 0x461BCD PUSH1 0xE5 SHL DUP2 MSTORE PUSH1 0x20 PUSH1 0x4 DUP3 ADD MSTORE PUSH1 0x15 PUSH1 0x24 DUP3 ADD MSTORE PUSH21 0x141C9BDC1BDCD85B081DD85CC81C995A9958DD1959 PUSH1 0x5A SHL PUSH1 0x44 DUP3 ADD MSTORE PUSH1 0x64 ADD PUSH2 0xC25 JUMP JUMPDEST PUSH1 0xA PUSH1 0x0 DUP14 DUP2 MSTORE PUSH1 0x20 ADD SWAP1 DUP2 MSTORE PUSH1 0x20 ADD PUSH1 0x0 KECCAK256 PUSH1 0x0 DUP15 PUSH1 0x1 PUSH1 0x1 PUSH1 0xA0 SHL SUB AND PUSH1 0x1 PUSH1 0x1 PUSH1 0xA0 SHL SUB AND DUP2 MSTORE PUSH1 0x20 ADD SWAP1 DUP2 MSTORE PUSH1 0x20 ADD PUSH1 0x0 KECCAK256 PUSH1 0x0 ADD PUSH1 0x0 SWAP1 SLOAD SWAP1 PUSH2 0x100 EXP SWAP1 DIV PUSH1 0xFF AND ISZERO PUSH2 0xE88 JUMPI PUSH1 0x40 MLOAD PUSH3 0x461BCD PUSH1 0xE5 SHL DUP2 MSTORE PUSH1 0x20 PUSH1 0x4 DUP3 ADD MSTORE PUSH1 0x2C PUSH1 0x24 DUP3 ADD MSTORE PUSH32 0x557365722068617665206120766F74652072656769737472656420666F722074 PUSH1 0x44 DUP3 ADD MSTORE PUSH12 0x1A1A5CC81C1C9BDC1BDCD85B PUSH1 0xA2 SHL PUSH1 0x64 DUP3 ADD MSTORE PUSH1 0x84 ADD PUSH2 0xC25 JUMP JUMPDEST PUSH1 0xB DUP13 DUP2 SLOAD DUP2 LT PUSH2 0xE9B JUMPI PUSH2 0xE9B PUSH2 0x219C JUMP JUMPDEST SWAP1 PUSH1 0x0 MSTORE PUSH1 0x20 PUSH1 0x0 KECCAK256 SWAP1 PUSH1 0x5 MUL ADD PUSH1 0x4 ADD SLOAD TIMESTAMP LT PUSH2 0xEEF JUMPI PUSH1 0x40 MLOAD PUSH3 0x461BCD PUSH1 0xE5 SHL DUP2 MSTORE PUSH1 0x20 PUSH1 0x4 DUP3 ADD MSTORE PUSH1 0x11 PUSH1 0x24 DUP3 ADD MSTORE PUSH17 0x50726F706F73616C20646561646C696E65 PUSH1 0x78 SHL PUSH1 0x44 DUP3 ADD MSTORE PUSH1 0x64 ADD PUSH2 0xC25 JUMP JUMPDEST DUP11 PUSH1 0xA PUSH1 0x0 DUP15 DUP2 MSTORE PUSH1 0x20 ADD SWAP1 DUP2 MSTORE PUSH1 0x20 ADD PUSH1 0x0 KECCAK256 PUSH1 0x0 DUP16 PUSH1 0x1 PUSH1 0x1 PUSH1 0xA0 SHL SUB AND PUSH1 0x1 PUSH1 0x1 PUSH1 0xA0 SHL SUB AND DUP2 MSTORE PUSH1 0x20 ADD SWAP1 DUP2 MSTORE PUSH1 0x20 ADD PUSH1 0x0 KECCAK256 PUSH1 0x0 ADD PUSH1 0x1 PUSH2 0x100 EXP DUP2 SLOAD DUP2 PUSH1 0xFF MUL NOT AND SWAP1 DUP4 ISZERO ISZERO MUL OR SWAP1 SSTORE POP DUP10 PUSH1 0xA PUSH1 0x0 DUP15 DUP2 MSTORE PUSH1 0x20 ADD SWAP1 DUP2 MSTORE PUSH1 0x20 ADD PUSH1 0x0 KECCAK256 PUSH1 0x0 DUP16 PUSH1 0x1 PUSH1 0x1 PUSH1 0xA0 SHL SUB AND PUSH1 0x1 PUSH1 0x1 PUSH1 0xA0 SHL SUB AND DUP2 MSTORE PUSH1 0x20 ADD SWAP1 DUP2 MSTORE PUSH1 0x20 ADD PUSH1 0x0 KECCAK256 PUSH1 0x1 ADD SWAP1 DUP1 MLOAD SWAP1 PUSH1 0x20 ADD SWAP1 PUSH2 0xF8D SWAP3 SWAP2 SWAP1 PUSH2 0x1924 JUMP JUMPDEST POP PUSH1 0x1 PUSH1 0xA PUSH1 0x0 DUP15 DUP2 MSTORE PUSH1 0x20 ADD SWAP1 DUP2 MSTORE PUSH1 0x20 ADD PUSH1 0x0 KECCAK256 PUSH1 0x0 DUP16 PUSH1 0x1 PUSH1 0x1 PUSH1 0xA0 SHL SUB AND PUSH1 0x1 PUSH1 0x1 PUSH1 0xA0 SHL SUB AND DUP2 MSTORE PUSH1 0x20 ADD SWAP1 DUP2 MSTORE PUSH1 0x20 ADD PUSH1 0x0 KECCAK256 PUSH1 0x0 ADD PUSH1 0x0 PUSH2 0x100 EXP DUP2 SLOAD DUP2 PUSH1 0xFF MUL NOT AND SWAP1 DUP4 ISZERO ISZERO MUL OR SWAP1 SSTORE POP PUSH1 0xB DUP13 DUP2 SLOAD DUP2 LT PUSH2 0xFF3 JUMPI PUSH2 0xFF3 PUSH2 0x219C JUMP JUMPDEST PUSH1 0x0 SWAP2 DUP3 MSTORE PUSH1 0x20 DUP3 KECCAK256 PUSH1 0x3 PUSH1 0x5 SWAP1 SWAP3 MUL ADD ADD DUP1 SLOAD PUSH1 0xFF AND SWAP2 PUSH2 0x1014 DUP4 PUSH2 0x21B2 JUMP JUMPDEST SWAP2 SWAP1 PUSH2 0x100 EXP DUP2 SLOAD DUP2 PUSH1 0xFF MUL NOT AND SWAP1 DUP4 PUSH1 0xFF AND MUL OR SWAP1 SSTORE POP POP DUP11 PUSH2 0x1088 JUMPI PUSH1 0xB DUP13 DUP2 SLOAD DUP2 LT PUSH2 0x1045 JUMPI PUSH2 0x1045 PUSH2 0x219C JUMP JUMPDEST PUSH1 0x0 SWAP2 DUP3 MSTORE PUSH1 0x20 SWAP1 SWAP2 KECCAK256 PUSH1 0x5 SWAP1 SWAP2 MUL ADD PUSH1 0x3 ADD DUP1 SLOAD PUSH2 0x100 SWAP1 DIV PUSH1 0xFF AND SWAP1 PUSH1 0x1 PUSH2 0x106E DUP4 PUSH2 0x21B2 JUMP JUMPDEST SWAP2 SWAP1 PUSH2 0x100 EXP DUP2 SLOAD DUP2 PUSH1 0xFF MUL NOT AND SWAP1 DUP4 PUSH1 0xFF AND MUL OR SWAP1 SSTORE POP POP JUMPDEST PUSH32 0xCF689387E0CFBCFE58BEE1B497861A7F47C2DD413053B5D49DF763B7928B254E DUP13 DUP13 DUP16 DUP14 PUSH1 0x40 MLOAD PUSH2 0x10BD SWAP5 SWAP4 SWAP3 SWAP2 SWAP1 PUSH2 0x21E0 JUMP JUMPDEST PUSH1 0x40 MLOAD DUP1 SWAP2 SUB SWAP1 LOG1 PUSH2 0x10CE DUP13 PUSH2 0x828 JUMP JUMPDEST POP PUSH1 0x1 SWAP15 SWAP14 POP POP POP POP POP POP POP POP POP POP POP POP POP POP JUMP JUMPDEST PUSH1 0x2 SLOAD PUSH1 0x40 MLOAD PUSH1 0x0 SWAP2 DUP3 SWAP2 DUP3 SWAP2 PUSH1 0x1 PUSH1 0x1 PUSH1 0xA0 SHL SUB AND SWAP1 PUSH2 0x110C SWAP1 DUP9 SWAP1 DUP9 SWAP1 DUP9 SWAP1 PUSH1 0x24 ADD PUSH2 0x221C JUMP JUMPDEST PUSH1 0x40 DUP1 MLOAD PUSH1 0x1F NOT DUP2 DUP5 SUB ADD DUP2 MSTORE SWAP2 DUP2 MSTORE PUSH1 0x20 DUP3 ADD DUP1 MLOAD PUSH1 0x1 PUSH1 0x1 PUSH1 0xE0 SHL SUB AND PUSH4 0x70ACB761 PUSH1 0xE0 SHL OR SWAP1 MSTORE MLOAD PUSH2 0x1141 SWAP2 SWAP1 PUSH2 0x20DB JUMP JUMPDEST PUSH1 0x0 PUSH1 0x40 MLOAD DUP1 DUP4 SUB DUP2 DUP6 GAS DELEGATECALL SWAP2 POP POP RETURNDATASIZE DUP1 PUSH1 0x0 DUP2 EQ PUSH2 0x117C JUMPI PUSH1 0x40 MLOAD SWAP2 POP PUSH1 0x1F NOT PUSH1 0x3F RETURNDATASIZE ADD AND DUP3 ADD PUSH1 0x40 MSTORE RETURNDATASIZE DUP3 MSTORE RETURNDATASIZE PUSH1 0x0 PUSH1 0x20 DUP5 ADD RETURNDATACOPY PUSH2 0x1181 JUMP JUMPDEST PUSH1 0x60 SWAP2 POP JUMPDEST POP SWAP2 POP SWAP2 POP PUSH1 0x40 MLOAD RETURNDATASIZE DUP1 PUSH1 0x0 DUP4 RETURNDATACOPY DUP4 PUSH2 0x1198 JUMPI DUP1 DUP3 REVERT JUMPDEST POP MLOAD SWAP7 SWAP6 POP POP POP POP POP POP JUMP JUMPDEST PUSH1 0x2 SLOAD PUSH1 0x40 MLOAD PUSH1 0x0 SWAP2 DUP3 SWAP2 DUP3 SWAP2 PUSH1 0x1 PUSH1 0x1 PUSH1 0xA0 SHL SUB AND SWAP1 PUSH2 0x11CF SWAP1 DUP10 SWAP1 DUP10 SWAP1 DUP10 SWAP1 DUP10 SWAP1 PUSH1 0x24 ADD PUSH2 0x20A3 JUMP JUMPDEST PUSH1 0x40 DUP1 MLOAD PUSH1 0x1F NOT DUP2 DUP5 SUB ADD DUP2 MSTORE SWAP2 DUP2 MSTORE PUSH1 0x20 DUP3 ADD DUP1 MLOAD PUSH1 0x1 PUSH1 0x1 PUSH1 0xE0 SHL SUB AND PUSH4 0xF8C70A9 PUSH1 0xE3 SHL OR SWAP1 MSTORE MLOAD PUSH2 0x1204 SWAP2 SWAP1 PUSH2 0x20DB JUMP JUMPDEST PUSH1 0x0 PUSH1 0x40 MLOAD DUP1 DUP4 SUB DUP2 DUP6 GAS DELEGATECALL SWAP2 POP POP RETURNDATASIZE DUP1 PUSH1 0x0 DUP2 EQ PUSH2 0x123F JUMPI PUSH1 0x40 MLOAD SWAP2 POP PUSH1 0x1F NOT PUSH1 0x3F RETURNDATASIZE ADD AND DUP3 ADD PUSH1 0x40 MSTORE RETURNDATASIZE DUP3 MSTORE RETURNDATASIZE PUSH1 0x0 PUSH1 0x20 DUP5 ADD RETURNDATACOPY PUSH2 0x1244 JUMP JUMPDEST PUSH1 0x60 SWAP2 POP JUMPDEST POP SWAP2 POP SWAP2 POP PUSH1 0x40 MLOAD RETURNDATASIZE DUP1 PUSH1 0x0 DUP4 RETURNDATACOPY DUP4 PUSH2 0x125B JUMPI DUP1 DUP3 REVERT JUMPDEST POP MLOAD SWAP8 SWAP7 POP POP POP POP POP POP POP JUMP JUMPDEST PUSH1 0xF DUP2 DUP2 SLOAD DUP2 LT PUSH2 0x1278 JUMPI PUSH1 0x0 DUP1 REVERT JUMPDEST PUSH1 0x0 SWAP2 DUP3 MSTORE PUSH1 0x20 SWAP1 SWAP2 KECCAK256 PUSH1 0x4 SWAP1 SWAP2 MUL ADD DUP1 SLOAD PUSH1 0x1 DUP3 ADD DUP1 SLOAD PUSH1 0x1 PUSH1 0x1 PUSH1 0xA0 SHL SUB SWAP1 SWAP3 AND SWAP4 POP SWAP1 PUSH2 0x12A7 SWAP1 PUSH2 0x2161 JUMP JUMPDEST DUP1 PUSH1 0x1F ADD PUSH1 0x20 DUP1 SWAP2 DIV MUL PUSH1 0x20 ADD PUSH1 0x40 MLOAD SWAP1 DUP2 ADD PUSH1 0x40 MSTORE DUP1 SWAP3 SWAP2 SWAP1 DUP2 DUP2 MSTORE PUSH1 0x20 ADD DUP3 DUP1 SLOAD PUSH2 0x12D3 SWAP1 PUSH2 0x2161 JUMP JUMPDEST DUP1 ISZERO PUSH2 0x1320 JUMPI DUP1 PUSH1 0x1F LT PUSH2 0x12F5 JUMPI PUSH2 0x100 DUP1 DUP4 SLOAD DIV MUL DUP4 MSTORE SWAP2 PUSH1 0x20 ADD SWAP2 PUSH2 0x1320 JUMP JUMPDEST DUP3 ADD SWAP2 SWAP1 PUSH1 0x0 MSTORE PUSH1 0x20 PUSH1 0x0 KECCAK256 SWAP1 JUMPDEST DUP2 SLOAD DUP2 MSTORE SWAP1 PUSH1 0x1 ADD SWAP1 PUSH1 0x20 ADD DUP1 DUP4 GT PUSH2 0x1303 JUMPI DUP3 SWAP1 SUB PUSH1 0x1F AND DUP3 ADD SWAP2 JUMPDEST POP POP POP POP PUSH1 0x2 DUP4 ADD SLOAD PUSH1 0x3 SWAP1 SWAP4 ADD SLOAD SWAP2 SWAP3 SWAP2 PUSH1 0xFF DUP1 DUP3 AND SWAP3 POP PUSH2 0x100 SWAP1 SWAP2 DIV AND DUP6 JUMP JUMPDEST PUSH1 0x0 DUP1 PUSH1 0x1 PUSH1 0x6 SWAP1 SLOAD SWAP1 PUSH2 0x100 EXP SWAP1 DIV PUSH1 0x1 PUSH1 0x1 PUSH1 0xA0 SHL SUB AND PUSH1 0x1 PUSH1 0x1 PUSH1 0xA0 SHL SUB AND DUP6 DUP6 DUP6 PUSH1 0x40 MLOAD PUSH1 0x24 ADD PUSH2 0x137A SWAP4 SWAP3 SWAP2 SWAP1 PUSH2 0x2248 JUMP JUMPDEST PUSH1 0x40 DUP1 MLOAD PUSH1 0x1F NOT DUP2 DUP5 SUB ADD DUP2 MSTORE SWAP2 DUP2 MSTORE PUSH1 0x20 DUP3 ADD DUP1 MLOAD PUSH1 0x1 PUSH1 0x1 PUSH1 0xE0 SHL SUB AND PUSH4 0x9BCB9ABB PUSH1 0xE0 SHL OR SWAP1 MSTORE MLOAD PUSH2 0x13AF SWAP2 SWAP1 PUSH2 0x20DB JUMP JUMPDEST PUSH1 0x0 PUSH1 0x40 MLOAD DUP1 DUP4 SUB DUP2 DUP6 GAS DELEGATECALL SWAP2 POP POP RETURNDATASIZE DUP1 PUSH1 0x0 DUP2 EQ PUSH2 0x13EA JUMPI PUSH1 0x40 MLOAD SWAP2 POP PUSH1 0x1F NOT PUSH1 0x3F RETURNDATASIZE ADD AND DUP3 ADD PUSH1 0x40 MSTORE RETURNDATASIZE DUP3 MSTORE RETURNDATASIZE PUSH1 0x0 PUSH1 0x20 DUP5 ADD RETURNDATACOPY PUSH2 0x13EF JUMP JUMPDEST PUSH1 0x60 SWAP2 POP JUMPDEST POP SWAP2 POP SWAP2 POP DUP2 PUSH2 0x1406 JUMPI PUSH1 0x40 MLOAD RETURNDATASIZE DUP1 PUSH1 0x0 DUP4 RETURNDATACOPY DUP1 DUP3 REVERT JUMPDEST POP POP POP POP POP JUMP JUMPDEST PUSH1 0x2 SLOAD PUSH1 0x40 MLOAD PUSH1 0x0 SWAP2 DUP3 SWAP2 DUP3 SWAP2 PUSH1 0x1 PUSH1 0x1 PUSH1 0xA0 SHL SUB AND SWAP1 PUSH2 0x1436 SWAP1 DUP9 SWAP1 DUP9 SWAP1 DUP9 SWAP1 PUSH1 0x24 ADD PUSH2 0x2274 JUMP JUMPDEST PUSH1 0x40 DUP1 MLOAD PUSH1 0x1F NOT DUP2 DUP5 SUB ADD DUP2 MSTORE SWAP2 DUP2 MSTORE PUSH1 0x20 DUP3 ADD DUP1 MLOAD PUSH1 0x1 PUSH1 0x1 PUSH1 0xE0 SHL SUB AND PUSH4 0xF40E9B45 PUSH1 0xE0 SHL OR SWAP1 MSTORE MLOAD PUSH2 0x146B SWAP2 SWAP1 PUSH2 0x20DB JUMP JUMPDEST PUSH1 0x0 PUSH1 0x40 MLOAD DUP1 DUP4 SUB DUP2 DUP6 GAS DELEGATECALL SWAP2 POP POP RETURNDATASIZE DUP1 PUSH1 0x0 DUP2 EQ PUSH2 0x14A6 JUMPI PUSH1 0x40 MLOAD SWAP2 POP PUSH1 0x1F NOT PUSH1 0x3F RETURNDATASIZE ADD AND DUP3 ADD PUSH1 0x40 MSTORE RETURNDATASIZE DUP3 MSTORE RETURNDATASIZE PUSH1 0x0 PUSH1 0x20 DUP5 ADD RETURNDATACOPY PUSH2 0x14AB JUMP JUMPDEST PUSH1 0x60 SWAP2 POP JUMPDEST POP SWAP2 POP SWAP2 POP DUP2 PUSH2 0x14C2 JUMPI PUSH1 0x40 MLOAD RETURNDATASIZE DUP1 PUSH1 0x0 DUP4 RETURNDATACOPY DUP1 DUP3 REVERT JUMPDEST POP PUSH1 0x1 SWAP6 SWAP5 POP POP POP POP POP JUMP JUMPDEST PUSH1 0xD DUP2 DUP2 SLOAD DUP2 LT PUSH2 0x14DE JUMPI PUSH1 0x0 DUP1 REVERT JUMPDEST PUSH1 0x0 SWAP2 DUP3 MSTORE PUSH1 0x20 SWAP1 SWAP2 KECCAK256 PUSH1 0x4 SWAP1 SWAP2 MUL ADD DUP1 SLOAD PUSH1 0x1 DUP3 ADD SLOAD PUSH1 0x2 DUP4 ADD SLOAD PUSH1 0x3 SWAP1 SWAP4 ADD SLOAD PUSH1 0x1 PUSH1 0x1 PUSH1 0xA0 SHL SUB SWAP3 DUP4 AND SWAP5 POP SWAP1 SWAP3 DUP3 AND SWAP2 AND DUP5 JUMP JUMPDEST PUSH1 0xC DUP2 DUP2 SLOAD DUP2 LT PUSH2 0x1526 JUMPI PUSH1 0x0 DUP1 REVERT JUMPDEST PUSH1 0x0 SWAP2 DUP3 MSTORE PUSH1 0x20 SWAP1 SWAP2 KECCAK256 PUSH1 0x3 SWAP1 SWAP2 MUL ADD DUP1 SLOAD PUSH1 0x1 DUP3 ADD DUP1 SLOAD PUSH1 0x1 PUSH1 0x1 PUSH1 0xA0 SHL SUB SWAP1 SWAP3 AND SWAP4 POP SWAP1 PUSH2 0x1555 SWAP1 PUSH2 0x2161 JUMP JUMPDEST DUP1 PUSH1 0x1F ADD PUSH1 0x20 DUP1 SWAP2 DIV MUL PUSH1 0x20 ADD PUSH1 0x40 MLOAD SWAP1 DUP2 ADD PUSH1 0x40 MSTORE DUP1 SWAP3 SWAP2 SWAP1 DUP2 DUP2 MSTORE PUSH1 0x20 ADD DUP3 DUP1 SLOAD PUSH2 0x1581 SWAP1 PUSH2 0x2161 JUMP JUMPDEST DUP1 ISZERO PUSH2 0x15CE JUMPI DUP1 PUSH1 0x1F LT PUSH2 0x15A3 JUMPI PUSH2 0x100 DUP1 DUP4 SLOAD DIV MUL DUP4 MSTORE SWAP2 PUSH1 0x20 ADD SWAP2 PUSH2 0x15CE JUMP JUMPDEST DUP3 ADD SWAP2 SWAP1 PUSH1 0x0 MSTORE PUSH1 0x20 PUSH1 0x0 KECCAK256 SWAP1 JUMPDEST DUP2 SLOAD DUP2 MSTORE SWAP1 PUSH1 0x1 ADD SWAP1 PUSH1 0x20 ADD DUP1 DUP4 GT PUSH2 0x15B1 JUMPI DUP3 SWAP1 SUB PUSH1 0x1F AND DUP3 ADD SWAP2 JUMPDEST POP POP POP PUSH1 0x2 SWAP1 SWAP4 ADD SLOAD SWAP2 SWAP3 POP POP PUSH1 0xFF AND DUP4 JUMP JUMPDEST PUSH1 0xA PUSH1 0x20 SWAP1 DUP2 MSTORE PUSH1 0x0 SWAP3 DUP4 MSTORE PUSH1 0x40 DUP1 DUP5 KECCAK256 SWAP1 SWAP2 MSTORE SWAP1 DUP3 MSTORE SWAP1 KECCAK256 DUP1 SLOAD PUSH1 0x1 DUP3 ADD DUP1 SLOAD PUSH1 0xFF DUP1 DUP5 AND SWAP5 PUSH2 0x100 SWAP1 SWAP5 DIV AND SWAP3 SWAP2 SWAP1 PUSH2 0x161B SWAP1 PUSH2 0x2161 JUMP JUMPDEST DUP1 PUSH1 0x1F ADD PUSH1 0x20 DUP1 SWAP2 DIV MUL PUSH1 0x20 ADD PUSH1 0x40 MLOAD SWAP1 DUP2 ADD PUSH1 0x40 MSTORE DUP1 SWAP3 SWAP2 SWAP1 DUP2 DUP2 MSTORE PUSH1 0x20 ADD DUP3 DUP1 SLOAD PUSH2 0x1647 SWAP1 PUSH2 0x2161 JUMP JUMPDEST DUP1 ISZERO PUSH2 0x1694 JUMPI DUP1 PUSH1 0x1F LT PUSH2 0x1669 JUMPI PUSH2 0x100 DUP1 DUP4 SLOAD DIV MUL DUP4 MSTORE SWAP2 PUSH1 0x20 ADD SWAP2 PUSH2 0x1694 JUMP JUMPDEST DUP3 ADD SWAP2 SWAP1 PUSH1 0x0 MSTORE PUSH1 0x20 PUSH1 0x0 KECCAK256 SWAP1 JUMPDEST DUP2 SLOAD DUP2 MSTORE SWAP1 PUSH1 0x1 ADD SWAP1 PUSH1 0x20 ADD DUP1 DUP4 GT PUSH2 0x1677 JUMPI DUP3 SWAP1 SUB PUSH1 0x1F AND DUP3 ADD SWAP2 JUMPDEST POP POP POP POP POP SWAP1 POP DUP4 JUMP JUMPDEST PUSH1 0x2 SLOAD PUSH1 0x40 MLOAD PUSH1 0x0 SWAP2 DUP3 SWAP2 DUP3 SWAP2 PUSH1 0x1 PUSH1 0x1 PUSH1 0xA0 SHL SUB AND SWAP1 PUSH2 0x16C7 SWAP1 DUP9 SWAP1 DUP9 SWAP1 DUP9 SWAP1 PUSH1 0x24 ADD PUSH2 0x2295 JUMP JUMPDEST PUSH1 0x40 DUP1 MLOAD PUSH1 0x1F NOT DUP2 DUP5 SUB ADD DUP2 MSTORE SWAP2 DUP2 MSTORE PUSH1 0x20 DUP3 ADD DUP1 MLOAD PUSH1 0x1 PUSH1 0x1 PUSH1 0xE0 SHL SUB AND PUSH4 0xC4CAEB63 PUSH1 0xE0 SHL OR SWAP1 MSTORE MLOAD PUSH2 0x1141 SWAP2 SWAP1 PUSH2 0x20DB JUMP JUMPDEST PUSH1 0xB DUP2 DUP2 SLOAD DUP2 LT PUSH2 0x170C JUMPI PUSH1 0x0 DUP1 REVERT JUMPDEST PUSH1 0x0 SWAP2 DUP3 MSTORE PUSH1 0x20 SWAP1 SWAP2 KECCAK256 PUSH1 0x5 SWAP1 SWAP2 MUL ADD DUP1 SLOAD PUSH1 0x1 DUP3 ADD DUP1 SLOAD PUSH1 0x1 PUSH1 0x1 PUSH1 0xA0 SHL SUB DUP4 AND SWAP5 POP PUSH1 0x1 PUSH1 0xA0 SHL SWAP1 SWAP3 DIV PUSH1 0xFF AND SWAP3 SWAP2 PUSH2 0x1746 SWAP1 PUSH2 0x2161 JUMP JUMPDEST DUP1 PUSH1 0x1F ADD PUSH1 0x20 DUP1 SWAP2 DIV MUL PUSH1 0x20 ADD PUSH1 0x40 MLOAD SWAP1 DUP2 ADD PUSH1 0x40 MSTORE DUP1 SWAP3 SWAP2 SWAP1 DUP2 DUP2 MSTORE PUSH1 0x20 ADD DUP3 DUP1 SLOAD PUSH2 0x1772 SWAP1 PUSH2 0x2161 JUMP JUMPDEST DUP1 ISZERO PUSH2 0x17BF JUMPI DUP1 PUSH1 0x1F LT PUSH2 0x1794 JUMPI PUSH2 0x100 DUP1 DUP4 SLOAD DIV MUL DUP4 MSTORE SWAP2 PUSH1 0x20 ADD SWAP2 PUSH2 0x17BF JUMP JUMPDEST DUP3 ADD SWAP2 SWAP1 PUSH1 0x0 MSTORE PUSH1 0x20 PUSH1 0x0 KECCAK256 SWAP1 JUMPDEST DUP2 SLOAD DUP2 MSTORE SWAP1 PUSH1 0x1 ADD SWAP1 PUSH1 0x20 ADD DUP1 DUP4 GT PUSH2 0x17A2 JUMPI DUP3 SWAP1 SUB PUSH1 0x1F AND DUP3 ADD SWAP2 JUMPDEST POP POP POP PUSH1 0x2 DUP5 ADD SLOAD PUSH1 0x3 DUP6 ADD SLOAD PUSH1 0x4 SWAP1 SWAP6 ADD SLOAD SWAP4 SWAP5 SWAP1 SWAP4 PUSH1 0xFF DUP1 DUP4 AND SWAP5 POP PUSH2 0x100 DUP4 DIV DUP2 AND SWAP4 POP PUSH3 0x10000 DUP4 DIV DUP2 AND SWAP3 PUSH4 0x1000000 SWAP1 DIV AND SWAP1 DUP10 JUMP JUMPDEST PUSH1 0x2 SLOAD PUSH1 0x40 MLOAD PUSH1 0x0 SWAP2 DUP3 SWAP2 DUP3 SWAP2 PUSH1 0x1 PUSH1 0x1 PUSH1 0xA0 SHL SUB AND SWAP1 PUSH2 0x1828 SWAP1 DUP11 SWAP1 DUP11 SWAP1 DUP11 SWAP1 DUP11 SWAP1 DUP11 SWAP1 PUSH1 0x24 ADD PUSH2 0x22B9 JUMP JUMPDEST PUSH1 0x40 DUP1 MLOAD PUSH1 0x1F NOT DUP2 DUP5 SUB ADD DUP2 MSTORE SWAP2 DUP2 MSTORE PUSH1 0x20 DUP3 ADD DUP1 MLOAD PUSH1 0x1 PUSH1 0x1 PUSH1 0xE0 SHL SUB AND PUSH4 0x6F2D58A7 PUSH1 0xE1 SHL OR SWAP1 MSTORE MLOAD PUSH2 0x185D SWAP2 SWAP1 PUSH2 0x20DB JUMP JUMPDEST PUSH1 0x0 PUSH1 0x40 MLOAD DUP1 DUP4 SUB DUP2 DUP6 GAS DELEGATECALL SWAP2 POP POP RETURNDATASIZE DUP1 PUSH1 0x0 DUP2 EQ PUSH2 0x1898 JUMPI PUSH1 0x40 MLOAD SWAP2 POP PUSH1 0x1F NOT PUSH1 0x3F RETURNDATASIZE ADD AND DUP3 ADD PUSH1 0x40 MSTORE RETURNDATASIZE DUP3 MSTORE RETURNDATASIZE PUSH1 0x0 PUSH1 0x20 DUP5 ADD RETURNDATACOPY PUSH2 0x189D JUMP JUMPDEST PUSH1 0x60 SWAP2 POP JUMPDEST POP SWAP2 POP SWAP2 POP PUSH1 0x40 MLOAD RETURNDATASIZE DUP1 PUSH1 0x0 DUP4 RETURNDATACOPY DUP4 PUSH2 0x18B4 JUMPI DUP1 DUP3 REVERT JUMPDEST POP MLOAD SWAP9 SWAP8 POP POP POP POP POP POP POP POP JUMP JUMPDEST PUSH1 0x2 SLOAD PUSH1 0x40 MLOAD PUSH1 0x0 SWAP2 DUP3 SWAP2 DUP3 SWAP2 PUSH1 0x1 PUSH1 0x1 PUSH1 0xA0 SHL SUB AND SWAP1 PUSH2 0x18EF SWAP1 DUP11 SWAP1 DUP11 SWAP1 DUP11 SWAP1 DUP11 SWAP1 DUP11 SWAP1 PUSH1 0x24 ADD PUSH2 0x22EC JUMP JUMPDEST PUSH1 0x40 DUP1 MLOAD PUSH1 0x1F NOT DUP2 DUP5 SUB ADD DUP2 MSTORE SWAP2 DUP2 MSTORE PUSH1 0x20 DUP3 ADD DUP1 MLOAD PUSH1 0x1 PUSH1 0x1 PUSH1 0xE0 SHL SUB AND PUSH4 0x7F3756F3 PUSH1 0xE1 SHL OR SWAP1 MSTORE MLOAD PUSH2 0x185D SWAP2 SWAP1 PUSH2 0x20DB JUMP JUMPDEST DUP3 DUP1 SLOAD PUSH2 0x1930 SWAP1 PUSH2 0x2161 JUMP JUMPDEST SWAP1 PUSH1 0x0 MSTORE PUSH1 0x20 PUSH1 0x0 KECCAK256 SWAP1 PUSH1 0x1F ADD PUSH1 0x20 SWAP1 DIV DUP2 ADD SWAP3 DUP3 PUSH2 0x1952 JUMPI PUSH1 0x0 DUP6 SSTORE PUSH2 0x1998 JUMP JUMPDEST DUP3 PUSH1 0x1F LT PUSH2 0x196B JUMPI DUP1 MLOAD PUSH1 0xFF NOT AND DUP4 DUP1 ADD OR DUP6 SSTORE PUSH2 0x1998 JUMP JUMPDEST DUP3 DUP1 ADD PUSH1 0x1 ADD DUP6 SSTORE DUP3 ISZERO PUSH2 0x1998 JUMPI SWAP2 DUP3 ADD JUMPDEST DUP3 DUP2 GT ISZERO PUSH2 0x1998 JUMPI DUP3 MLOAD DUP3 SSTORE SWAP2 PUSH1 0x20 ADD SWAP2 SWAP1 PUSH1 0x1 ADD SWAP1 PUSH2 0x197D JUMP JUMPDEST POP PUSH2 0x19A4 SWAP3 SWAP2 POP PUSH2 0x19A8 JUMP JUMPDEST POP SWAP1 JUMP JUMPDEST JUMPDEST DUP1 DUP3 GT ISZERO PUSH2 0x19A4 JUMPI PUSH1 0x0 DUP2 SSTORE PUSH1 0x1 ADD PUSH2 0x19A9 JUMP JUMPDEST DUP1 CALLDATALOAD PUSH1 0x1 PUSH1 0x1 PUSH1 0xA0 SHL SUB DUP2 AND DUP2 EQ PUSH2 0x19D4 JUMPI PUSH1 0x0 DUP1 REVERT JUMPDEST SWAP2 SWAP1 POP JUMP JUMPDEST PUSH4 0x4E487B71 PUSH1 0xE0 SHL PUSH1 0x0 MSTORE PUSH1 0x41 PUSH1 0x4 MSTORE PUSH1 0x24 PUSH1 0x0 REVERT JUMPDEST PUSH1 0x0 PUSH8 0xFFFFFFFFFFFFFFFF DUP1 DUP5 GT ISZERO PUSH2 0x1A0A JUMPI PUSH2 0x1A0A PUSH2 0x19D9 JUMP JUMPDEST PUSH1 0x40 MLOAD PUSH1 0x1F DUP6 ADD PUSH1 0x1F NOT SWAP1 DUP2 AND PUSH1 0x3F ADD AND DUP2 ADD SWAP1 DUP3 DUP3 GT DUP2 DUP4 LT OR ISZERO PUSH2 0x1A32 JUMPI PUSH2 0x1A32 PUSH2 0x19D9 JUMP JUMPDEST DUP2 PUSH1 0x40 MSTORE DUP1 SWAP4 POP DUP6 DUP2 MSTORE DUP7 DUP7 DUP7 ADD GT ISZERO PUSH2 0x1A4B JUMPI PUSH1 0x0 DUP1 REVERT JUMPDEST DUP6 DUP6 PUSH1 0x20 DUP4 ADD CALLDATACOPY PUSH1 0x0 PUSH1 0x20 DUP8 DUP4 ADD ADD MSTORE POP POP POP SWAP4 SWAP3 POP POP POP JUMP JUMPDEST PUSH1 0x0 DUP3 PUSH1 0x1F DUP4 ADD SLT PUSH2 0x1A76 JUMPI PUSH1 0x0 DUP1 REVERT JUMPDEST PUSH2 0x1A85 DUP4 DUP4 CALLDATALOAD PUSH1 0x20 DUP6 ADD PUSH2 0x19EF JUMP JUMPDEST SWAP4 SWAP3 POP POP POP JUMP JUMPDEST PUSH1 0x0 DUP1 PUSH1 0x0 DUP1 PUSH1 0x80 DUP6 DUP8 SUB SLT ISZERO PUSH2 0x1AA2 JUMPI PUSH1 0x0 DUP1 REVERT JUMPDEST PUSH2 0x1AAB DUP6 PUSH2 0x19BD JUMP JUMPDEST SWAP4 POP PUSH1 0x20 DUP6 ADD CALLDATALOAD SWAP3 POP PUSH1 0x40 DUP6 ADD CALLDATALOAD PUSH8 0xFFFFFFFFFFFFFFFF DUP2 GT ISZERO PUSH2 0x1ACE JUMPI PUSH1 0x0 DUP1 REVERT JUMPDEST PUSH2 0x1ADA DUP8 DUP3 DUP9 ADD PUSH2 0x1A65 JUMP JUMPDEST SWAP5 SWAP8 SWAP4 SWAP7 POP SWAP4 SWAP5 PUSH1 0x60 ADD CALLDATALOAD SWAP4 POP POP POP JUMP JUMPDEST PUSH1 0x0 PUSH1 0x20 DUP3 DUP5 SUB SLT ISZERO PUSH2 0x1AFD JUMPI PUSH1 0x0 DUP1 REVERT JUMPDEST PUSH2 0x1A85 DUP3 PUSH2 0x19BD JUMP JUMPDEST PUSH1 0x0 DUP1 PUSH1 0x0 DUP1 PUSH1 0x0 PUSH1 0xA0 DUP7 DUP9 SUB SLT ISZERO PUSH2 0x1B1E JUMPI PUSH1 0x0 DUP1 REVERT JUMPDEST PUSH2 0x1B27 DUP7 PUSH2 0x19BD JUMP JUMPDEST SWAP5 POP PUSH2 0x1B35 PUSH1 0x20 DUP8 ADD PUSH2 0x19BD JUMP JUMPDEST SWAP4 POP PUSH1 0x40 DUP7 ADD CALLDATALOAD SWAP3 POP PUSH1 0x60 DUP7 ADD CALLDATALOAD PUSH8 0xFFFFFFFFFFFFFFFF DUP2 GT ISZERO PUSH2 0x1B58 JUMPI PUSH1 0x0 DUP1 REVERT JUMPDEST PUSH2 0x1B64 DUP9 DUP3 DUP10 ADD PUSH2 0x1A65 JUMP JUMPDEST SWAP6 SWAP9 SWAP5 SWAP8 POP SWAP3 SWAP6 PUSH1 0x80 ADD CALLDATALOAD SWAP4 SWAP3 POP POP POP JUMP JUMPDEST PUSH1 0x0 DUP1 PUSH1 0x40 DUP4 DUP6 SUB SLT ISZERO PUSH2 0x1B89 JUMPI PUSH1 0x0 DUP1 REVERT JUMPDEST DUP3 CALLDATALOAD PUSH8 0xFFFFFFFFFFFFFFFF DUP1 DUP3 GT ISZERO PUSH2 0x1BA1 JUMPI PUSH1 0x0 DUP1 REVERT JUMPDEST PUSH2 0x1BAD DUP7 DUP4 DUP8 ADD PUSH2 0x1A65 JUMP JUMPDEST SWAP4 POP PUSH1 0x20 DUP6 ADD CALLDATALOAD SWAP2 POP DUP1 DUP3 GT ISZERO PUSH2 0x1BC3 JUMPI PUSH1 0x0 DUP1 REVERT JUMPDEST POP PUSH2 0x1BD0 DUP6 DUP3 DUP7 ADD PUSH2 0x1A65 JUMP JUMPDEST SWAP2 POP POP SWAP3 POP SWAP3 SWAP1 POP JUMP JUMPDEST PUSH1 0x0 PUSH1 0x20 DUP3 DUP5 SUB SLT ISZERO PUSH2 0x1BEC JUMPI PUSH1 0x0 DUP1 REVERT JUMPDEST POP CALLDATALOAD SWAP2 SWAP1 POP JUMP JUMPDEST PUSH1 0x0 JUMPDEST DUP4 DUP2 LT ISZERO PUSH2 0x1C0E JUMPI DUP2 DUP2 ADD MLOAD DUP4 DUP3 ADD MSTORE PUSH1 0x20 ADD PUSH2 0x1BF6 JUMP JUMPDEST DUP4 DUP2 GT ISZERO PUSH2 0x1C1D JUMPI PUSH1 0x0 DUP5 DUP5 ADD MSTORE JUMPDEST POP POP POP POP JUMP JUMPDEST PUSH1 0x0 DUP2 MLOAD DUP1 DUP5 MSTORE PUSH2 0x1C3B DUP2 PUSH1 0x20 DUP7 ADD PUSH1 0x20 DUP7 ADD PUSH2 0x1BF3 JUMP JUMPDEST PUSH1 0x1F ADD PUSH1 0x1F NOT AND SWAP3 SWAP1 SWAP3 ADD PUSH1 0x20 ADD SWAP3 SWAP2 POP POP JUMP JUMPDEST PUSH1 0x20 DUP2 MSTORE PUSH1 0x0 PUSH2 0x1A85 PUSH1 0x20 DUP4 ADD DUP5 PUSH2 0x1C23 JUMP JUMPDEST DUP3 ISZERO ISZERO DUP2 MSTORE PUSH1 0x40 PUSH1 0x20 DUP3 ADD MSTORE PUSH1 0x0 PUSH2 0x1C7D PUSH1 0x40 DUP4 ADD DUP5 PUSH2 0x1C23 JUMP JUMPDEST SWAP5 SWAP4 POP POP POP POP JUMP JUMPDEST DUP1 CALLDATALOAD DUP1 ISZERO ISZERO DUP2 EQ PUSH2 0x19D4 JUMPI PUSH1 0x0 DUP1 REVERT JUMPDEST DUP1 CALLDATALOAD PUSH1 0xFF DUP2 AND DUP2 EQ PUSH2 0x19D4 JUMPI PUSH1 0x0 DUP1 REVERT JUMPDEST PUSH1 0x0 DUP1 PUSH1 0x0 DUP1 PUSH1 0x0 DUP1 PUSH1 0x0 PUSH1 0xE0 DUP9 DUP11 SUB SLT ISZERO PUSH2 0x1CC1 JUMPI PUSH1 0x0 DUP1 REVERT JUMPDEST PUSH2 0x1CCA DUP9 PUSH2 0x19BD JUMP JUMPDEST SWAP7 POP PUSH1 0x20 DUP9 ADD CALLDATALOAD SWAP6 POP PUSH2 0x1CDF PUSH1 0x40 DUP10 ADD PUSH2 0x1C85 JUMP JUMPDEST SWAP5 POP PUSH1 0x60 DUP9 ADD CALLDATALOAD PUSH8 0xFFFFFFFFFFFFFFFF DUP2 GT ISZERO PUSH2 0x1CFB JUMPI PUSH1 0x0 DUP1 REVERT JUMPDEST PUSH2 0x1D07 DUP11 DUP3 DUP12 ADD PUSH2 0x1A65 JUMP JUMPDEST SWAP5 POP POP PUSH1 0x80 DUP9 ADD CALLDATALOAD SWAP3 POP PUSH1 0xA0 DUP9 ADD CALLDATALOAD SWAP2 POP PUSH2 0x1D24 PUSH1 0xC0 DUP10 ADD PUSH2 0x1C95 JUMP JUMPDEST SWAP1 POP SWAP3 SWAP6 SWAP9 SWAP2 SWAP5 SWAP8 POP SWAP3 SWAP6 POP JUMP JUMPDEST PUSH1 0x0 DUP1 PUSH1 0x0 PUSH1 0x60 DUP5 DUP7 SUB SLT ISZERO PUSH2 0x1D47 JUMPI PUSH1 0x0 DUP1 REVERT JUMPDEST PUSH2 0x1D50 DUP5 PUSH2 0x1C95 JUMP JUMPDEST SWAP3 POP PUSH1 0x20 DUP5 ADD CALLDATALOAD PUSH8 0xFFFFFFFFFFFFFFFF DUP2 GT ISZERO PUSH2 0x1D6C JUMPI PUSH1 0x0 DUP1 REVERT JUMPDEST PUSH2 0x1D78 DUP7 DUP3 DUP8 ADD PUSH2 0x1A65 JUMP JUMPDEST SWAP3 POP POP PUSH1 0x40 DUP5 ADD CALLDATALOAD SWAP1 POP SWAP3 POP SWAP3 POP SWAP3 JUMP JUMPDEST PUSH1 0x1 PUSH1 0x1 PUSH1 0xA0 SHL SUB DUP7 AND DUP2 MSTORE PUSH1 0xA0 PUSH1 0x20 DUP3 ADD DUP2 SWAP1 MSTORE PUSH1 0x0 SWAP1 PUSH2 0x1DAD SWAP1 DUP4 ADD DUP8 PUSH2 0x1C23 JUMP JUMPDEST PUSH1 0x40 DUP4 ADD SWAP6 SWAP1 SWAP6 MSTORE POP SWAP2 ISZERO ISZERO PUSH1 0x60 DUP4 ADD MSTORE ISZERO ISZERO PUSH1 0x80 SWAP1 SWAP2 ADD MSTORE SWAP3 SWAP2 POP POP JUMP JUMPDEST PUSH1 0x0 DUP1 PUSH1 0x0 PUSH1 0x60 DUP5 DUP7 SUB SLT ISZERO PUSH2 0x1DE1 JUMPI PUSH1 0x0 DUP1 REVERT JUMPDEST PUSH2 0x1DEA DUP5 PUSH2 0x1C85 JUMP JUMPDEST SWAP3 POP PUSH2 0x1DF8 PUSH1 0x20 DUP6 ADD PUSH2 0x19BD JUMP JUMPDEST SWAP2 POP PUSH1 0x40 DUP5 ADD CALLDATALOAD PUSH8 0xFFFFFFFFFFFFFFFF DUP2 GT ISZERO PUSH2 0x1E14 JUMPI PUSH1 0x0 DUP1 REVERT JUMPDEST DUP5 ADD PUSH1 0x1F DUP2 ADD DUP7 SGT PUSH2 0x1E25 JUMPI PUSH1 0x0 DUP1 REVERT JUMPDEST PUSH2 0x1E34 DUP7 DUP3 CALLDATALOAD PUSH1 0x20 DUP5 ADD PUSH2 0x19EF JUMP JUMPDEST SWAP2 POP POP SWAP3 POP SWAP3 POP SWAP3 JUMP JUMPDEST PUSH1 0x0 DUP1 PUSH1 0x0 PUSH1 0x60 DUP5 DUP7 SUB SLT ISZERO PUSH2 0x1E53 JUMPI PUSH1 0x0 DUP1 REVERT JUMPDEST DUP4 CALLDATALOAD SWAP3 POP PUSH2 0x1E63 PUSH1 0x20 DUP6 ADD PUSH2 0x1C85 JUMP JUMPDEST SWAP2 POP PUSH1 0x40 DUP5 ADD CALLDATALOAD PUSH8 0xFFFFFFFFFFFFFFFF DUP2 GT ISZERO PUSH2 0x1E7F JUMPI PUSH1 0x0 DUP1 REVERT JUMPDEST PUSH2 0x1E34 DUP7 DUP3 DUP8 ADD PUSH2 0x1A65 JUMP JUMPDEST PUSH1 0x1 PUSH1 0x1 PUSH1 0xA0 SHL SUB DUP5 AND DUP2 MSTORE PUSH1 0x60 PUSH1 0x20 DUP3 ADD DUP2 SWAP1 MSTORE PUSH1 0x0 SWAP1 PUSH2 0x1EAF SWAP1 DUP4 ADD DUP6 PUSH2 0x1C23 JUMP JUMPDEST SWAP1 POP DUP3 ISZERO ISZERO PUSH1 0x40 DUP4 ADD MSTORE SWAP5 SWAP4 POP POP POP POP JUMP JUMPDEST PUSH1 0x0 DUP1 PUSH1 0x40 DUP4 DUP6 SUB SLT ISZERO PUSH2 0x1ED4 JUMPI PUSH1 0x0 DUP1 REVERT JUMPDEST DUP3 CALLDATALOAD SWAP2 POP PUSH2 0x1EE4 PUSH1 0x20 DUP5 ADD PUSH2 0x19BD JUMP JUMPDEST SWAP1 POP SWAP3 POP SWAP3 SWAP1 POP JUMP JUMPDEST DUP4 ISZERO ISZERO DUP2 MSTORE DUP3 ISZERO ISZERO PUSH1 0x20 DUP3 ADD MSTORE PUSH1 0x60 PUSH1 0x40 DUP3 ADD MSTORE PUSH1 0x0 PUSH2 0x1F10 PUSH1 0x60 DUP4 ADD DUP5 PUSH2 0x1C23 JUMP JUMPDEST SWAP6 SWAP5 POP POP POP POP POP JUMP JUMPDEST PUSH1 0x0 DUP1 PUSH1 0x0 PUSH1 0x60 DUP5 DUP7 SUB SLT ISZERO PUSH2 0x1F2E JUMPI PUSH1 0x0 DUP1 REVERT JUMPDEST PUSH2 0x1D50 DUP5 PUSH2 0x19BD JUMP JUMPDEST PUSH1 0x1 PUSH1 0x1 PUSH1 0xA0 SHL SUB DUP11 AND DUP2 MSTORE PUSH1 0x0 PUSH2 0x120 PUSH1 0x9 DUP12 LT PUSH2 0x1F66 JUMPI PUSH4 0x4E487B71 PUSH1 0xE0 SHL PUSH1 0x0 MSTORE PUSH1 0x21 PUSH1 0x4 MSTORE PUSH1 0x24 PUSH1 0x0 REVERT JUMPDEST DUP11 PUSH1 0x20 DUP5 ADD MSTORE DUP1 PUSH1 0x40 DUP5 ADD MSTORE PUSH2 0x1F7E DUP2 DUP5 ADD DUP12 PUSH2 0x1C23 JUMP JUMPDEST SWAP2 POP POP DUP8 PUSH1 0x60 DUP4 ADD MSTORE PUSH1 0xFF DUP8 AND PUSH1 0x80 DUP4 ADD MSTORE PUSH1 0xFF DUP7 AND PUSH1 0xA0 DUP4 ADD MSTORE DUP5 ISZERO ISZERO PUSH1 0xC0 DUP4 ADD MSTORE PUSH2 0x1FAF PUSH1 0xE0 DUP4 ADD DUP6 ISZERO ISZERO SWAP1 MSTORE JUMP JUMPDEST DUP3 PUSH2 0x100 DUP4 ADD MSTORE SWAP11 SWAP10 POP POP POP POP POP POP POP POP POP POP JUMP JUMPDEST PUSH1 0x0 DUP1 PUSH1 0x0 DUP1 PUSH1 0x0 PUSH1 0xA0 DUP7 DUP9 SUB SLT ISZERO PUSH2 0x1FDC JUMPI PUSH1 0x0 DUP1 REVERT JUMPDEST PUSH2 0x1FE5 DUP7 PUSH2 0x19BD JUMP JUMPDEST SWAP5 POP PUSH1 0x20 DUP7 ADD CALLDATALOAD SWAP4 POP PUSH2 0x1FFA PUSH1 0x40 DUP8 ADD PUSH2 0x19BD JUMP JUMPDEST SWAP3 POP PUSH1 0x60 DUP7 ADD CALLDATALOAD PUSH8 0xFFFFFFFFFFFFFFFF DUP2 GT ISZERO PUSH2 0x1B58 JUMPI PUSH1 0x0 DUP1 REVERT JUMPDEST PUSH1 0x0 DUP1 PUSH1 0x0 DUP1 PUSH1 0x0 PUSH1 0xA0 DUP7 DUP9 SUB SLT ISZERO PUSH2 0x202E JUMPI PUSH1 0x0 DUP1 REVERT JUMPDEST PUSH2 0x2037 DUP7 PUSH2 0x19BD JUMP JUMPDEST SWAP5 POP PUSH1 0x20 DUP7 ADD CALLDATALOAD PUSH8 0xFFFFFFFFFFFFFFFF DUP1 DUP3 GT ISZERO PUSH2 0x2054 JUMPI PUSH1 0x0 DUP1 REVERT JUMPDEST PUSH2 0x2060 DUP10 DUP4 DUP11 ADD PUSH2 0x1A65 JUMP JUMPDEST SWAP6 POP PUSH1 0x40 DUP9 ADD CALLDATALOAD SWAP2 POP DUP1 DUP3 GT ISZERO PUSH2 0x2076 JUMPI PUSH1 0x0 DUP1 REVERT JUMPDEST POP PUSH2 0x2083 DUP9 DUP3 DUP10 ADD PUSH2 0x1A65 JUMP JUMPDEST SWAP4 POP POP PUSH2 0x2092 PUSH1 0x60 DUP8 ADD PUSH2 0x1C85 JUMP JUMPDEST SWAP5 SWAP8 SWAP4 SWAP7 POP SWAP2 SWAP5 PUSH1 0x80 ADD CALLDATALOAD SWAP3 SWAP2 POP POP JUMP JUMPDEST PUSH1 0x1 DUP1 PUSH1 0xA0 SHL SUB DUP6 AND DUP2 MSTORE DUP4 PUSH1 0x20 DUP3 ADD MSTORE PUSH1 0x80 PUSH1 0x40 DUP3 ADD MSTORE PUSH1 0x0 PUSH2 0x20CA PUSH1 0x80 DUP4 ADD DUP6 PUSH2 0x1C23 JUMP JUMPDEST SWAP1 POP DUP3 PUSH1 0x60 DUP4 ADD MSTORE SWAP6 SWAP5 POP POP POP POP POP JUMP JUMPDEST PUSH1 0x0 DUP3 MLOAD PUSH2 0x20ED DUP2 DUP5 PUSH1 0x20 DUP8 ADD PUSH2 0x1BF3 JUMP JUMPDEST SWAP2 SWAP1 SWAP2 ADD SWAP3 SWAP2 POP POP JUMP JUMPDEST PUSH1 0x1 PUSH1 0x1 PUSH1 0xA0 SHL SUB DUP7 DUP2 AND DUP3 MSTORE DUP6 AND PUSH1 0x20 DUP3 ADD MSTORE PUSH1 0x40 DUP2 ADD DUP5 SWAP1 MSTORE PUSH1 0xA0 PUSH1 0x60 DUP3 ADD DUP2 SWAP1 MSTORE PUSH1 0x0 SWAP1 PUSH2 0x212A SWAP1 DUP4 ADD DUP6 PUSH2 0x1C23 JUMP JUMPDEST SWAP1 POP DUP3 PUSH1 0x80 DUP4 ADD MSTORE SWAP7 SWAP6 POP POP POP POP POP POP JUMP JUMPDEST PUSH1 0x40 DUP2 MSTORE PUSH1 0x0 PUSH2 0x214F PUSH1 0x40 DUP4 ADD DUP6 PUSH2 0x1C23 JUMP JUMPDEST DUP3 DUP2 SUB PUSH1 0x20 DUP5 ADD MSTORE PUSH2 0x1F10 DUP2 DUP6 PUSH2 0x1C23 JUMP JUMPDEST PUSH1 0x1 DUP2 DUP2 SHR SWAP1 DUP3 AND DUP1 PUSH2 0x2175 JUMPI PUSH1 0x7F DUP3 AND SWAP2 POP JUMPDEST PUSH1 0x20 DUP3 LT DUP2 EQ ISZERO PUSH2 0x2196 JUMPI PUSH4 0x4E487B71 PUSH1 0xE0 SHL PUSH1 0x0 MSTORE PUSH1 0x22 PUSH1 0x4 MSTORE PUSH1 0x24 PUSH1 0x0 REVERT JUMPDEST POP SWAP2 SWAP1 POP JUMP JUMPDEST PUSH4 0x4E487B71 PUSH1 0xE0 SHL PUSH1 0x0 MSTORE PUSH1 0x32 PUSH1 0x4 MSTORE PUSH1 0x24 PUSH1 0x0 REVERT JUMPDEST PUSH1 0x0 PUSH1 0xFF DUP3 AND PUSH1 0xFF DUP2 EQ ISZERO PUSH2 0x21D7 JUMPI PUSH4 0x4E487B71 PUSH1 0xE0 SHL PUSH1 0x0 MSTORE PUSH1 0x11 PUSH1 0x4 MSTORE PUSH1 0x24 PUSH1 0x0 REVERT JUMPDEST PUSH1 0x1 ADD SWAP3 SWAP2 POP POP JUMP JUMPDEST DUP5 DUP2 MSTORE DUP4 ISZERO ISZERO PUSH1 0x20 DUP3 ADD MSTORE PUSH1 0x1 PUSH1 0x1 PUSH1 0xA0 SHL SUB DUP4 AND PUSH1 0x40 DUP3 ADD MSTORE PUSH1 0x80 PUSH1 0x60 DUP3 ADD DUP2 SWAP1 MSTORE PUSH1 0x0 SWAP1 PUSH2 0x2212 SWAP1 DUP4 ADD DUP5 PUSH2 0x1C23 JUMP JUMPDEST SWAP7 SWAP6 POP POP POP POP POP POP JUMP JUMPDEST PUSH1 0xFF DUP5 AND DUP2 MSTORE PUSH1 0x60 PUSH1 0x20 DUP3 ADD MSTORE PUSH1 0x0 PUSH2 0x2238 PUSH1 0x60 DUP4 ADD DUP6 PUSH2 0x1C23 JUMP JUMPDEST SWAP1 POP DUP3 PUSH1 0x40 DUP4 ADD MSTORE SWAP5 SWAP4 POP POP POP POP JUMP JUMPDEST DUP4 ISZERO ISZERO DUP2 MSTORE PUSH1 0x1 PUSH1 0x1 PUSH1 0xA0 SHL SUB DUP4 AND PUSH1 0x20 DUP3 ADD MSTORE PUSH1 0x60 PUSH1 0x40 DUP3 ADD DUP2 SWAP1 MSTORE PUSH1 0x0 SWAP1 PUSH2 0x1F10 SWAP1 DUP4 ADD DUP5 PUSH2 0x1C23 JUMP JUMPDEST DUP4 DUP2 MSTORE DUP3 ISZERO ISZERO PUSH1 0x20 DUP3 ADD MSTORE PUSH1 0x60 PUSH1 0x40 DUP3 ADD MSTORE PUSH1 0x0 PUSH2 0x1F10 PUSH1 0x60 DUP4 ADD DUP5 PUSH2 0x1C23 JUMP JUMPDEST PUSH1 0x1 PUSH1 0x1 PUSH1 0xA0 SHL SUB DUP5 AND DUP2 MSTORE PUSH1 0x60 PUSH1 0x20 DUP3 ADD DUP2 SWAP1 MSTORE PUSH1 0x0 SWAP1 PUSH2 0x2238 SWAP1 DUP4 ADD DUP6 PUSH2 0x1C23 JUMP JUMPDEST PUSH1 0x1 PUSH1 0x1 PUSH1 0xA0 SHL SUB DUP7 DUP2 AND DUP3 MSTORE PUSH1 0x20 DUP3 ADD DUP7 SWAP1 MSTORE DUP5 AND PUSH1 0x40 DUP3 ADD MSTORE PUSH1 0xA0 PUSH1 0x60 DUP3 ADD DUP2 SWAP1 MSTORE PUSH1 0x0 SWAP1 PUSH2 0x212A SWAP1 DUP4 ADD DUP6 PUSH2 0x1C23 JUMP JUMPDEST PUSH1 0x1 PUSH1 0x1 PUSH1 0xA0 SHL SUB DUP7 AND DUP2 MSTORE PUSH1 0xA0 PUSH1 0x20 DUP3 ADD DUP2 SWAP1 MSTORE PUSH1 0x0 SWAP1 PUSH2 0x2310 SWAP1 DUP4 ADD DUP8 PUSH2 0x1C23 JUMP JUMPDEST DUP3 DUP2 SUB PUSH1 0x40 DUP5 ADD MSTORE PUSH2 0x2322 DUP2 DUP8 PUSH2 0x1C23 JUMP JUMPDEST SWAP5 ISZERO ISZERO PUSH1 0x60 DUP5 ADD MSTORE POP POP PUSH1 0x80 ADD MSTORE SWAP4 SWAP3 POP POP POP JUMP INVALID LOG2 PUSH5 0x6970667358 0x22 SLT KECCAK256 MSTORE8 SIGNEXTEND PUSH8 0x2B046FEAEB686894 MOD PUSH11 0x4195AA0A94F9B6230B807B 0x29 LOG2 BALANCE 0xE7 BASEFEE 0xAE NUMBER PUSH21 0x64736F6C634300080C003300000000000000000000 ",
  "sha1": "1f8bd44aba111cd474b703eb8d268d254c097a51",
  "source": "// SPDX-License-Identifier: MIT\npragma solidity ^0.8.11;\n\nimport \"./CLStorage.sol\";\n\n/// @title Contract to implement and test the basic fuctions of CLHouses\n/// @author Leonardo Urrego\n/// @notice This contract for test only the most basic interactions\ncontract CLHouse is CLStorage {\n\n    /// @notice Create a new CLH\n    /// @dev Some parameters can be ignored depending on the governance model\n    /// @param _owner The address of the deployed wallet\n    /// @param _houseName Name given by the owner\n    /// @param _housePrivate If is set to 1, the CLH is set to private\n    /// @param _gov keccak256 hash of the governance model, see the __GOV_* constans\n    /// @param _govRuleMaxManagerMembers Max of manager member that CLH can accept (only for COMMITTEE )\n    /// @param _govRuleMaxActiveMembers Max of all members (including managers)\n    /// @param _govRuleApprovPercentage Percentage for approval o reject proposal based on `numManagerMembers`\n    /// @param _ManagerWallets Whitelist of address for invitate as managers\n    constructor(\n        address _owner, \n        string memory _houseName,\n        bool _housePrivate,\n        bytes32 _gov,\n        uint8 _govRuleMaxManagerMembers,\n        uint8 _govRuleMaxActiveMembers,\n        uint8 _govRuleApprovPercentage,\n        address _CLCMemberManagement,\n        address _CLCGovernance,\n        address _CLLConstructor,\n        address[] memory _ManagerWallets\n    )\n    {\n\n        \n        (bool successDGTCLL, bytes memory dataDLGTCLL) = _CLLConstructor.delegatecall(\n            abi.encodeWithSignature(\n                \"CLLCLHConstructor(address,string,bool,bytes32,uint8,uint8,uint8,address,address,address[])\",\n                _owner, \n                _houseName,\n                _housePrivate,\n                _gov,\n                _govRuleMaxManagerMembers,\n                _govRuleMaxActiveMembers,\n                _govRuleApprovPercentage,\n                _CLCMemberManagement,\n                _CLCGovernance,\n                _ManagerWallets\n            )\n        );\n\n        if( !successDGTCLL ) {\n            assembly {\n                let ptr := mload(0x40)\n                let size := returndatasize()\n                returndatacopy(ptr, 0, size)\n                revert(ptr, size)\n            }\n        }\n    }\n\n    /// @notice Execute (or reject) a proposal computing the votes and the governance model\n    /// @dev Normally is called internally after each vote\n    /// @param _propId ID of the proposal, based on `arrProposals`\n    /// @return status True if the proposal can be execute, false in other cases\n    /// @return message result of the transaction\n    function ExecProp(\n        uint256 _propId\n    )\n        public\n        returns(\n            bool status,\n            string memory message\n        )\n    {\n        (bool successDGTCLL, bytes memory dataDLGTCLL) = CLCGovernance.delegatecall(\n            abi.encodeWithSignature(\n                \"_ExecProp(uint256)\",\n                _propId\n            )\n        );\n\n        if( !successDGTCLL ) {\n            assembly {\n                let ptr := mload(0x40)\n                let size := returndatasize()\n                returndatacopy(ptr, 0, size)\n                revert(ptr, size)\n            }\n        }\n\n        return ( true , \"Success executed proposal\" );\n    }\n\n    /// @notice Used to vote a proposal\n    /// @dev After vote the proposal automatically try to be executed\n    /// @param _propId ID of the proposal, based on `arrProposals`\n    /// @param _support True for accept, false to reject\n    /// @param _justification About your vote\n    /// @return true is the vote can be stored\n    function VoteProposal(\n        uint256 _propId,\n        bool _support,\n        string memory _justification\n    )\n        public\n        returns( bool )\n    {\n        (bool successDGTCLL, bytes memory dataDLGTCLL) = CLCGovernance.delegatecall(\n            abi.encodeWithSignature( \n                \"_VoteProposal(uint256,bool,string)\", \n                _propId,\n                _support,\n                _justification\n            )\n        );\n\n        if( !successDGTCLL ) {\n            assembly {\n                let ptr := mload(0x40)\n                let size := returndatasize()\n                returndatacopy(ptr, 0, size)\n                revert(ptr, size)\n            }\n        }\n\n        return true;\n    }\n\n    function VotePropOffChain(\n        address _voter,\n        uint256 _propId,\n        bool _support,\n        string memory _justification,\n        bytes32 signR,\n        bytes32 signS,\n        uint8 signV\n\n    )\n        external\n        returns( bool )\n    {\n        uint256 chainId = block.chainid;\n\n        bytes32 eip712DomainHash = keccak256(\n            abi.encode(\n                keccak256(abi.encodePacked(\n                    \"EIP712Domain(string name,string version,uint256 chainId,address verifyingContract)\"\n                )),\n                keccak256(\"CLHouse\"),\n                keccak256(\"0.0.10\"),\n                chainId,\n                address(this)\n            )\n        );\n\n        bytes32 hashStruct = keccak256(\n            abi.encode(\n                keccak256(abi.encodePacked(\n                    \"strOffChainVote(address voter,uint256 propId,bool support,string justification)\"\n                )),\n                _voter,\n                _propId,\n                _support,\n                keccak256(abi.encodePacked(_justification))\n            )\n        );\n        \n        bytes32 singhash = keccak256(abi.encodePacked(\"\\x19\\x01\", eip712DomainHash, hashStruct));\n            \n        // require( _signature.length == 65, \"VotePropOffChain: Bad signature length\");\n\n        // bytes32 signR;\n        // bytes32 signS;\n        // uint8 signV;\n\n        // assembly {\n        //     // first 32 bytes, after the length prefix\n        //     signR := mload(add(_signature, 32))\n        //     // second 32 bytes\n        //     signS := mload(add(_signature, 64))\n        //     // final byte (first byte of the next 32 bytes)\n        //     signV := byte(0, mload(add(_signature, 96)))\n        // }\n\n        address signer = ecrecover( singhash, signV, signR, signS );\n\n        require( signer != address(0), \"ECDSA: invalid signature\" );\n        require( signer == _voter, \"VotePropOffChain: invalid signature\" );\n        require( _propId < arrProposals.length , \"Proposal does not exist\" );\n        require( false == arrProposals[ _propId ].executed , \"Proposal already executed\" );\n        require( false == arrProposals[ _propId ].rejected , \"Proposal was rejected\" );\n        require( !mapVotes[ _propId ][ _voter ].voted , \"User have a vote registred for this proposal\" );\n        require( block.timestamp < arrProposals[ _propId ].deadline , \"Proposal deadline\" );\n\n        mapVotes[ _propId ][ _voter ].inSupport = _support;\n        mapVotes[ _propId ][ _voter ].justification = _justification;\n        mapVotes[ _propId ][ _voter ].voted = true;\n\n        arrProposals[ _propId ].numVotes++;\n\n        if( !_support )\n            arrProposals[ _propId ].againstVotes++;\n\n        emit evtVoted( _propId,  _support, _voter, _justification );\n\n        // auto exec\n        ExecProp( _propId );\n\n        return true;\n    }\n\n    /// @notice Generate a new proposal to invite a new member\n    /// @dev the execution of this proposal only create an invitation \n    /// @param _walletAddr  Address of the new user\n    /// @param _name Can be the nickname or other reference to the User\n    /// @param _description A text for the proposal\n    /// @param _isManager True if is for a manager member\n    /// @return propId ID of the new proposal, based on `arrProposals`\n    function PropInviteMember(\n        address _walletAddr,\n        string memory _name,\n        string memory _description,\n        bool _isManager,\n        uint256 _delayTime\n    )\n        external\n        returns( uint256 propId )\n    {\n        (bool successDGTCLL, bytes memory dataDLGTCLL) = CLCGovernance.delegatecall(\n            abi.encodeWithSignature( \n                \"PropInviteMember(address,string,string,bool,uint256)\", \n                _walletAddr,\n                _name,\n                _description,\n                _isManager,\n                _delayTime\n            )\n        );\n\n        assembly {\n            let ptr := mload(0x40)\n            let size := returndatasize()\n            returndatacopy(ptr, 0, size)\n            if iszero( successDGTCLL ) {\n                revert(ptr, size)\n            }\n            propId := mload(ptr)\n        }\n    }\n\n    /// @notice Generate a new proposal for remove a member\n    /// @dev The member can be a managaer\n    /// @param _walletAddr member Address to be removed\n    /// @param _description About the proposal\n    /// @return propId ID of the new proposal, based on `arrProposals`\n    function PropRemoveMember(\n        address _walletAddr,\n        string memory _description,\n        uint256 _delayTime\n    )\n        external\n        returns( uint256 propId )\n    {\n        (bool successDGTCLL, bytes memory dataDLGTCLL) = CLCGovernance.delegatecall(\n            abi.encodeWithSignature( \n                \"PropRemoveMember(address,string,uint256)\", \n                _walletAddr,\n                _description,\n                _delayTime\n            )\n        );\n\n        assembly {\n            let ptr := mload(0x40)\n            let size := returndatasize()\n            returndatacopy(ptr, 0, size)\n            if iszero( successDGTCLL ) {\n                revert(ptr, size)\n            }\n            propId := mload(ptr)\n        }\n    }\n\n    /// @notice generate a new proposal to transfer ETH in weis\n    /// @dev When execute this proposal, the transfer is made\n    /// @param _to Recipient address\n    /// @param _amountOutCLV Amount to transfer (in wei)\n    /// @param _description About this proposal\n    /// @return propId ID of the new proposal, based on `arrProposals`\n    function PropTxWei(\n        address _to,\n        uint256 _amountOutCLV,\n        string memory _description,\n        uint256 _delayTime\n    )\n        external\n        returns( uint256 propId )\n    {\n        (bool successDGTCLL, bytes memory dataDLGTCLL) = CLCGovernance.delegatecall(\n            abi.encodeWithSignature( \n                \"PropTxWei(address,uint256,string,uint256)\", \n                _to,\n                _amountOutCLV,\n                _description,\n                _delayTime\n            )\n        );\n\n        assembly {\n            let ptr := mload(0x40)\n            let size := returndatasize()\n            returndatacopy(ptr, 0, size)\n            if iszero( successDGTCLL ) {\n                revert(ptr, size)\n            }\n            propId := mload(ptr)\n        }\n    }\n\n    /// @notice generate a new proposal to transfer ETH in weis\n    /// @dev When execute this proposal, the transfer is made\n    /// @param _to Recipient address\n    /// @param _amountOutCLV Amount to transfer (in wei)\n    /// @param _description About this proposal\n    /// @return propId ID of the new proposal, based on `arrProposals`\n    function PropTxERC20(\n        address _to,\n        uint256 _amountOutCLV,\n        address _tokenOutCLV,\n        string memory _description,\n        uint256 _delayTime\n    )\n        external\n        returns( uint256 propId )\n    {\n        (bool successDGTCLL, bytes memory dataDLGTCLL) = CLCGovernance.delegatecall(\n            abi.encodeWithSignature( \n                \"PropTxERC20(address,uint256,address,string,uint256)\", \n                _to,\n                _amountOutCLV,\n                _tokenOutCLV,\n                _description,\n                _delayTime\n            )\n        );\n\n        assembly {\n            let ptr := mload(0x40)\n            let size := returndatasize()\n            returndatacopy(ptr, 0, size)\n            if iszero( successDGTCLL ) {\n                revert(ptr, size)\n            }\n            propId := mload(ptr)\n        }\n    }\n\n    /// @notice Generate a new proposal for change some governance parameters\n    /// @dev When execute this proposal the new values will be set\n    /// @param _newApprovPercentage The new percentaje for accept or reject a proposal\n    /// @param _description About the new proposal \n    /// @return propId ID of the new proposal, based on `arrProposals`\n    function PropGovRules(\n        uint8 _newApprovPercentage,\n        string memory _description,\n        uint256 _delayTime\n    )\n        external\n        returns( uint256 propId )\n    {\n        (bool successDGTCLL, bytes memory dataDLGTCLL) = CLCGovernance.delegatecall(\n            abi.encodeWithSignature( \n                \"PropGovRules(uint8,string,uint256)\", \n                _newApprovPercentage,\n                _description,\n                _delayTime\n            )\n        );\n\n        assembly {\n            let ptr := mload(0x40)\n            let size := returndatasize()\n            returndatacopy(ptr, 0, size)\n            if iszero( successDGTCLL ) {\n                revert(ptr, size)\n            }\n            propId := mload(ptr)\n        }\n    }\n\n    /// @notice Generate a proposal from a user that want to join to the CLH\n    /// @dev Only avaiable in public CLH\n    /// @param _name Nickname or other user identification\n    /// @param _description About the request\n    /// @return propId ID of the new proposal, based on `arrProposals`\n    function PropRequestToJoin(\n        string memory _name,\n        string memory _description\n    )\n        external\n        returns( uint256 )\n    {\n        (bool successDGTCLL, bytes memory dataDLGTCLL) = CLCGovernance.delegatecall(\n            abi.encodeWithSignature( \n                \"PropRequestToJoin(string,string)\", \n                _name,\n                _description\n            )\n        );\n\n        assembly {\n            let ptr := mload(0x40)\n            let size := returndatasize()\n            returndatacopy(ptr, 0, size)\n            if iszero( successDGTCLL ) {\n                revert(ptr, size)\n            }\n            return(ptr, size)\n        }\n    }\n\n    /// @notice For an user that have an invitation pending\n    /// @dev \n    /// @param _acceptance True for accept the invitation\n    function AcceptRejectInvitation(\n        bool _acceptance,\n        address _signerWallet,\n        bytes memory _signature\n    )\n        external\n    {\n        (bool successDGTCLL, bytes memory dataDLGTCLL) = CLCMemberManagement.delegatecall(\n            abi.encodeWithSignature(\n                \"AcceptRejectInvitation(bool,address,bytes)\",\n                _acceptance,\n                _signerWallet,\n                _signature\n            )\n        );\n\n        if( !successDGTCLL ) {\n            assembly {\n                let ptr := mload(0x40)\n                let size := returndatasize()\n                returndatacopy(ptr, 0, size)\n                revert(ptr, size)\n            }\n        }\n    }\n\n    function PropSwapERC20(\n        address _tokenOutCLV,\n        address _tokenInCLV,\n        uint256 _amountOutCLV,\n        string memory _description,\n        uint256 _delayTime\n    )\n        external\n        returns( uint256 propId )\n    {\n        (bool successDGTCLL, bytes memory dataDLGTCLL) = CLCGovernance.delegatecall(\n            abi.encodeWithSignature( \n                \"PropSwapERC20(address,address,uint256,string,uint256)\", \n                 _tokenOutCLV,\n                 _tokenInCLV,\n                 _amountOutCLV,\n                 _description,\n                 _delayTime\n            )\n        );\n\n        assembly {\n            let ptr := mload(0x40)\n            let size := returndatasize()\n            returndatacopy(ptr, 0, size)\n            if iszero( successDGTCLL ) {\n                revert(ptr, size)\n            }\n            return(ptr, size)\n        }\n    }\n\n    function PropSellERC20(\n        address _tokenOutCLV,\n        uint256 _amountOutCLV,\n        string memory _description,\n        uint256 _delayTime\n    )\n        external\n        returns( uint256 propId )\n    {\n        (bool successDGTCLL, bytes memory dataDLGTCLL) = CLCGovernance.delegatecall(\n            abi.encodeWithSignature( \n                \"PropSellERC20(address,uint256,string,uint256)\", \n                 _tokenOutCLV,\n                 _amountOutCLV,\n                 _description,\n                 _delayTime\n            )\n        );\n\n        assembly {\n            let ptr := mload(0x40)\n            let size := returndatasize()\n            returndatacopy(ptr, 0, size)\n            if iszero( successDGTCLL ) {\n                revert(ptr, size)\n            }\n            return(ptr, size)\n        }\n    }\n\n    function PropBuyERC20(\n        address _tokenInCLV,\n        uint256 _amountOutCLV,\n        string memory _description,\n        uint256 _delayTime\n    )\n        external\n        returns( uint256 propId )\n    {\n        (bool successDGTCLL, bytes memory dataDLGTCLL) = CLCGovernance.delegatecall(\n            abi.encodeWithSignature( \n                \"PropBuyERC20(address,uint256,string,uint256)\", \n                 _tokenInCLV,\n                 _amountOutCLV,\n                 _description,\n                 _delayTime\n            )\n        );\n\n        assembly {\n            let ptr := mload(0x40)\n            let size := returndatasize()\n            returndatacopy(ptr, 0, size)\n            if iszero( successDGTCLL ) {\n                revert(ptr, size)\n            }\n            return(ptr, size)\n        }\n    }\n\n    function GetArrMembersLength() external view returns( uint256 ){\n        return arrMembers.length;\n    }\n}",
  "sourcePath": "contracts/CLHouse/CLHouse.sol",
  "type": "contract"
}