{
  "abi": [
    {
      "inputs": [],
      "stateMutability": "nonpayable",
      "type": "constructor"
    },
    {
      "anonymous": false,
      "inputs": [
        {
          "indexed": false,
          "internalType": "uint8",
          "name": "version",
          "type": "uint8"
        }
      ],
      "name": "Initialized",
      "type": "event"
    },
    {
      "anonymous": false,
      "inputs": [
        {
          "indexed": false,
          "internalType": "uint256",
          "name": "newApprovPercentage",
          "type": "uint256"
        }
      ],
      "name": "evtChangeGovRules",
      "type": "event"
    },
    {
      "anonymous": false,
      "inputs": [
        {
          "indexed": false,
          "internalType": "enum proposalEvent",
          "name": "eventProposal",
          "type": "uint8"
        },
        {
          "indexed": false,
          "internalType": "uint256",
          "name": "propId",
          "type": "uint256"
        },
        {
          "indexed": false,
          "internalType": "enum proposalType",
          "name": "typeProposal",
          "type": "uint8"
        },
        {
          "indexed": false,
          "internalType": "string",
          "name": "description",
          "type": "string"
        },
        {
          "indexed": false,
          "internalType": "address",
          "name": "realSender",
          "type": "address"
        }
      ],
      "name": "evtProposal",
      "type": "event"
    },
    {
      "anonymous": false,
      "inputs": [
        {
          "indexed": false,
          "internalType": "string",
          "name": "houseName",
          "type": "string"
        }
      ],
      "name": "evtUpCLHName",
      "type": "event"
    },
    {
      "anonymous": false,
      "inputs": [
        {
          "indexed": false,
          "internalType": "address",
          "name": "whiteListNFT",
          "type": "address"
        }
      ],
      "name": "evtUpCLHWLNFT",
      "type": "event"
    },
    {
      "anonymous": false,
      "inputs": [
        {
          "indexed": false,
          "internalType": "enum userEvent",
          "name": "eventUser",
          "type": "uint8"
        },
        {
          "indexed": false,
          "internalType": "address",
          "name": "walletAddr",
          "type": "address"
        },
        {
          "indexed": false,
          "internalType": "string",
          "name": "name",
          "type": "string"
        }
      ],
      "name": "evtUser",
      "type": "event"
    },
    {
      "anonymous": false,
      "inputs": [
        {
          "indexed": false,
          "internalType": "uint256",
          "name": "propId",
          "type": "uint256"
        },
        {
          "indexed": false,
          "internalType": "bool",
          "name": "position",
          "type": "bool"
        },
        {
          "indexed": false,
          "internalType": "address",
          "name": "voter",
          "type": "address"
        },
        {
          "indexed": false,
          "internalType": "string",
          "name": "justification",
          "type": "string"
        }
      ],
      "name": "evtVoted",
      "type": "event"
    },
    {
      "inputs": [
        {
          "internalType": "bool",
          "name": "_acceptance",
          "type": "bool"
        },
        {
          "internalType": "string",
          "name": "_nickname",
          "type": "string"
        },
        {
          "internalType": "bytes",
          "name": "_signature",
          "type": "bytes"
        }
      ],
      "name": "AcceptRejectInvitation",
      "outputs": [],
      "stateMutability": "nonpayable",
      "type": "function"
    },
    {
      "inputs": [
        {
          "internalType": "uint256",
          "name": "_expirationDuration",
          "type": "uint256"
        },
        {
          "internalType": "uint256",
          "name": "_keyPrice",
          "type": "uint256"
        },
        {
          "internalType": "uint256",
          "name": "_maxNumberOfKeys",
          "type": "uint256"
        },
        {
          "internalType": "string",
          "name": "_lockName",
          "type": "string"
        },
        {
          "internalType": "bytes",
          "name": "_signature",
          "type": "bytes"
        }
      ],
      "name": "CreateLock",
      "outputs": [
        {
          "internalType": "address",
          "name": "",
          "type": "address"
        }
      ],
      "stateMutability": "nonpayable",
      "type": "function"
    },
    {
      "inputs": [],
      "name": "GetArrDataPropUser",
      "outputs": [
        {
          "components": [
            {
              "internalType": "address",
              "name": "walletAddr",
              "type": "address"
            },
            {
              "internalType": "string",
              "name": "name",
              "type": "string"
            },
            {
              "internalType": "bool",
              "name": "isManager",
              "type": "bool"
            }
          ],
          "internalType": "struct strDataUser[]",
          "name": "",
          "type": "tuple[]"
        }
      ],
      "stateMutability": "view",
      "type": "function"
    },
    {
      "inputs": [],
      "name": "GetArrProposalsLength",
      "outputs": [
        {
          "internalType": "uint256",
          "name": "",
          "type": "uint256"
        }
      ],
      "stateMutability": "view",
      "type": "function"
    },
    {
      "inputs": [],
      "name": "GetArrUsersLength",
      "outputs": [
        {
          "internalType": "uint256",
          "name": "",
          "type": "uint256"
        }
      ],
      "stateMutability": "view",
      "type": "function"
    },
    {
      "inputs": [],
      "name": "GetCLHouseVersion",
      "outputs": [
        {
          "internalType": "string",
          "name": "",
          "type": "string"
        }
      ],
      "stateMutability": "pure",
      "type": "function"
    },
    {
      "inputs": [],
      "name": "GetProposalList",
      "outputs": [
        {
          "components": [
            {
              "internalType": "address",
              "name": "proponent",
              "type": "address"
            },
            {
              "internalType": "enum proposalType",
              "name": "typeProposal",
              "type": "uint8"
            },
            {
              "internalType": "string",
              "name": "description",
              "type": "string"
            },
            {
              "internalType": "uint256",
              "name": "propDataId",
              "type": "uint256"
            },
            {
              "internalType": "uint256",
              "name": "numVotes",
              "type": "uint256"
            },
            {
              "internalType": "uint256",
              "name": "againstVotes",
              "type": "uint256"
            },
            {
              "internalType": "bool",
              "name": "executed",
              "type": "bool"
            },
            {
              "internalType": "bool",
              "name": "rejected",
              "type": "bool"
            },
            {
              "internalType": "uint256",
              "name": "deadline",
              "type": "uint256"
            }
          ],
          "internalType": "struct strProposal[]",
          "name": "",
          "type": "tuple[]"
        }
      ],
      "stateMutability": "view",
      "type": "function"
    },
    {
      "inputs": [],
      "name": "HouseProperties",
      "outputs": [
        {
          "internalType": "string",
          "name": "clhName",
          "type": "string"
        },
        {
          "internalType": "bool[2]",
          "name": "booleanVar",
          "type": "bool[2]"
        },
        {
          "internalType": "uint256[5]",
          "name": "uint256Var",
          "type": "uint256[5]"
        },
        {
          "internalType": "address[6]",
          "name": "addressVar",
          "type": "address[6]"
        },
        {
          "internalType": "bytes32",
          "name": "govModelVar",
          "type": "bytes32"
        }
      ],
      "stateMutability": "view",
      "type": "function"
    },
    {
      "inputs": [
        {
          "internalType": "address",
          "name": "_owner",
          "type": "address"
        },
        {
          "internalType": "string",
          "name": "_houseName",
          "type": "string"
        },
        {
          "internalType": "bool",
          "name": "_housePrivate",
          "type": "bool"
        },
        {
          "internalType": "bool",
          "name": "_houseOpen",
          "type": "bool"
        },
        {
          "internalType": "uint256",
          "name": "_govRuleMaxUsers",
          "type": "uint256"
        },
        {
          "internalType": "address[7]",
          "name": "_CLC",
          "type": "address[7]"
        }
      ],
      "name": "Init",
      "outputs": [],
      "stateMutability": "nonpayable",
      "type": "function"
    },
    {
      "inputs": [
        {
          "internalType": "address",
          "name": "_walletAddr",
          "type": "address"
        },
        {
          "internalType": "string",
          "name": "_nickname",
          "type": "string"
        },
        {
          "internalType": "string",
          "name": "_description",
          "type": "string"
        },
        {
          "internalType": "bool",
          "name": "_isManager",
          "type": "bool"
        },
        {
          "internalType": "uint256",
          "name": "_delayTime",
          "type": "uint256"
        },
        {
          "internalType": "bytes",
          "name": "_signature",
          "type": "bytes"
        }
      ],
      "name": "PropInvitUser",
      "outputs": [
        {
          "internalType": "uint256",
          "name": "propId",
          "type": "uint256"
        }
      ],
      "stateMutability": "nonpayable",
      "type": "function"
    },
    {
      "inputs": [
        {
          "internalType": "address",
          "name": "_walletAddr",
          "type": "address"
        },
        {
          "internalType": "string",
          "name": "_description",
          "type": "string"
        },
        {
          "internalType": "uint256",
          "name": "_delayTime",
          "type": "uint256"
        },
        {
          "internalType": "bytes",
          "name": "_signature",
          "type": "bytes"
        }
      ],
      "name": "PropRemoveUser",
      "outputs": [
        {
          "internalType": "uint256",
          "name": "propId",
          "type": "uint256"
        }
      ],
      "stateMutability": "nonpayable",
      "type": "function"
    },
    {
      "inputs": [
        {
          "internalType": "string",
          "name": "_name",
          "type": "string"
        },
        {
          "internalType": "string",
          "name": "_description",
          "type": "string"
        },
        {
          "internalType": "address",
          "name": "_signerWallet",
          "type": "address"
        },
        {
          "internalType": "bytes",
          "name": "_signature",
          "type": "bytes"
        }
      ],
      "name": "PropRequestToJoin",
      "outputs": [
        {
          "internalType": "uint256",
          "name": "",
          "type": "uint256"
        }
      ],
      "stateMutability": "nonpayable",
      "type": "function"
    },
    {
      "inputs": [
        {
          "internalType": "string",
          "name": "_houseName",
          "type": "string"
        },
        {
          "internalType": "bytes",
          "name": "_signature",
          "type": "bytes"
        }
      ],
      "name": "UpdateCLHName",
      "outputs": [],
      "stateMutability": "nonpayable",
      "type": "function"
    },
    {
      "inputs": [
        {
          "internalType": "address",
          "name": "_whiteListNFT",
          "type": "address"
        },
        {
          "internalType": "bytes",
          "name": "_signature",
          "type": "bytes"
        }
      ],
      "name": "UpdateCLHWLNFT",
      "outputs": [],
      "stateMutability": "nonpayable",
      "type": "function"
    },
    {
      "inputs": [
        {
          "internalType": "uint256",
          "name": "_propId",
          "type": "uint256"
        },
        {
          "internalType": "bool",
          "name": "_support",
          "type": "bool"
        },
        {
          "internalType": "string",
          "name": "_justification",
          "type": "string"
        },
        {
          "internalType": "bytes",
          "name": "_signature",
          "type": "bytes"
        }
      ],
      "name": "VoteProposal",
      "outputs": [],
      "stateMutability": "nonpayable",
      "type": "function"
    },
    {
      "inputs": [
        {
          "internalType": "uint256",
          "name": "",
          "type": "uint256"
        }
      ],
      "name": "arrDataPropGovRules",
      "outputs": [
        {
          "internalType": "uint256",
          "name": "newApprovPercentage",
          "type": "uint256"
        }
      ],
      "stateMutability": "view",
      "type": "function"
    },
    {
      "inputs": [
        {
          "internalType": "uint256",
          "name": "",
          "type": "uint256"
        }
      ],
      "name": "arrDataPropUser",
      "outputs": [
        {
          "internalType": "address",
          "name": "walletAddr",
          "type": "address"
        },
        {
          "internalType": "string",
          "name": "name",
          "type": "string"
        },
        {
          "internalType": "bool",
          "name": "isManager",
          "type": "bool"
        }
      ],
      "stateMutability": "view",
      "type": "function"
    },
    {
      "inputs": [
        {
          "internalType": "uint256",
          "name": "",
          "type": "uint256"
        }
      ],
      "name": "arrProposals",
      "outputs": [
        {
          "internalType": "address",
          "name": "proponent",
          "type": "address"
        },
        {
          "internalType": "enum proposalType",
          "name": "typeProposal",
          "type": "uint8"
        },
        {
          "internalType": "string",
          "name": "description",
          "type": "string"
        },
        {
          "internalType": "uint256",
          "name": "propDataId",
          "type": "uint256"
        },
        {
          "internalType": "uint256",
          "name": "numVotes",
          "type": "uint256"
        },
        {
          "internalType": "uint256",
          "name": "againstVotes",
          "type": "uint256"
        },
        {
          "internalType": "bool",
          "name": "executed",
          "type": "bool"
        },
        {
          "internalType": "bool",
          "name": "rejected",
          "type": "bool"
        },
        {
          "internalType": "uint256",
          "name": "deadline",
          "type": "uint256"
        }
      ],
      "stateMutability": "view",
      "type": "function"
    },
    {
      "inputs": [
        {
          "internalType": "uint256",
          "name": "",
          "type": "uint256"
        }
      ],
      "name": "arrUsers",
      "outputs": [
        {
          "internalType": "address",
          "name": "",
          "type": "address"
        }
      ],
      "stateMutability": "view",
      "type": "function"
    },
    {
      "inputs": [
        {
          "internalType": "uint256[]",
          "name": "_propIds",
          "type": "uint256[]"
        },
        {
          "internalType": "bool",
          "name": "_support",
          "type": "bool"
        },
        {
          "internalType": "string",
          "name": "_justification",
          "type": "string"
        },
        {
          "internalType": "bytes",
          "name": "_signature",
          "type": "bytes"
        }
      ],
      "name": "bulkVote",
      "outputs": [],
      "stateMutability": "nonpayable",
      "type": "function"
    },
    {
      "inputs": [
        {
          "internalType": "address",
          "name": "",
          "type": "address"
        }
      ],
      "name": "mapReq2Join",
      "outputs": [
        {
          "internalType": "uint256",
          "name": "",
          "type": "uint256"
        }
      ],
      "stateMutability": "view",
      "type": "function"
    },
    {
      "inputs": [
        {
          "internalType": "address",
          "name": "",
          "type": "address"
        }
      ],
      "name": "mapUsers",
      "outputs": [
        {
          "internalType": "uint256",
          "name": "userID",
          "type": "uint256"
        },
        {
          "internalType": "string",
          "name": "nickname",
          "type": "string"
        },
        {
          "internalType": "bool",
          "name": "isManager",
          "type": "bool"
        }
      ],
      "stateMutability": "view",
      "type": "function"
    },
    {
      "inputs": [
        {
          "internalType": "uint256",
          "name": "",
          "type": "uint256"
        },
        {
          "internalType": "address",
          "name": "",
          "type": "address"
        }
      ],
      "name": "mapVotes",
      "outputs": [
        {
          "internalType": "bool",
          "name": "voted",
          "type": "bool"
        },
        {
          "internalType": "bool",
          "name": "inSupport",
          "type": "bool"
        },
        {
          "internalType": "string",
          "name": "justification",
          "type": "string"
        }
      ],
      "stateMutability": "view",
      "type": "function"
    },
    {
      "inputs": [],
      "name": "numUsers",
      "outputs": [
        {
          "internalType": "uint256",
          "name": "",
          "type": "uint256"
        }
      ],
      "stateMutability": "view",
      "type": "function"
    }
  ],
  "bytecode": "60806040523480156200001157600080fd5b506200001c62000022565b620000f1565b60c654600160a81b900460ff1615620000915760405162461bcd60e51b815260206004820152602760248201527f496e697469616c697a61626c653a20636f6e747261637420697320696e697469604482015266616c697a696e6760c81b606482015260840160405180910390fd5b60c65460ff600160a01b90910481161015620000ef5760c6805460ff60a01b191660ff60a01b17905560405160ff81527f7f26b83ff96e1f2b6a682f133852f6798a09c465da95921460cefb38474024989060200160405180910390a15b565b61275880620001016000396000f3fe608060405234801561001057600080fd5b50600436106101585760003560e01c80639d2fcb87116100c3578063c347d2fd1161007c578063c347d2fd146102ef578063cb85669c14610311578063de8b9e6d14610339578063eb63548114610352578063fc9db38c14610365578063fe0298db1461037857600080fd5b80639d2fcb8714610277578063a1c89c9d14610299578063a693649a146102ac578063ad7cceeb146102b4578063b4c62192146102c7578063c2b3aa08146102dc57600080fd5b806329647ee51161011557806329647ee5146102015780632a57ef84146102165780633a70693d146102295780634e9d54721461023c5780635b4587e114610244578063860228fd1461025757600080fd5b806302e2d5251461015d57806312eab7ff146101835780631707ace81461019657806319a50f49146101b85780631d236d29146101c157806322b4081c146101d6575b600080fd5b61017061016b366004611a0f565b61039f565b6040519081526020015b60405180910390f35b610170610191366004611ac2565b6104d6565b6101a96101a4366004611b5e565b6105ff565b60405161017a93929190611bcf565b61017060025481565b6101d46101cf366004611c05565b6106ca565b005b6101e96101e4366004611b5e565b6107b6565b6040516001600160a01b03909116815260200161017a565b6102096107e0565b60405161017a9190611c54565b610170610224366004611ce2565b6108f9565b610170610237366004611b5e565b610a2a565b608354610170565b6101d4610252366004611d48565b610a4b565b610170610265366004611e1c565b60a36020526000908152604090205481565b61028a610285366004611e1c565b610c08565b60405161017a93929190611e40565b6101d46102a7366004611e59565b610c2a565b608254610170565b6101d46102c2366004611f3f565b610d4c565b6102cf610e69565b60405161017a9190611fea565b6101d46102ea3660046120b1565b610fe7565b6103026102fd3660046120f3565b611107565b60405161017a93929190612123565b61032461031f366004611b5e565b6111c4565b60405161017a9998979695949392919061214f565b6103416112bd565b60405161017a9594939291906121e2565b6101d461036036600461226c565b61141a565b6101e96103733660046122c5565b6114f2565b60408051808201825260058152640302e322e360dc1b6020820152905161017a9190612345565b60008060c260009054906101000a90046001600160a01b03166001600160a01b031663a327ab696040518163ffffffff1660e01b8152600401602060405180830381865afa1580156103f5573d6000803e3d6000fd5b505050506040513d601f19601f820116820180604052508101906104199190612358565b6001600160a01b031688888888888860405160240161043d96959493929190612375565b60408051601f198184030181529181526020820180516001600160e01b03166302e2d52560e01b1790525161047291906123da565b600060405180830381855af49150503d80600081146104ad576040519150601f19603f3d011682016040523d82523d6000602084013e6104b2565b606091505b505090506040513d806000833e826104c8578082fd5b505198975050505050505050565b60008060c260009054906101000a90046001600160a01b03166001600160a01b031663a327ab696040518163ffffffff1660e01b8152600401602060405180830381865afa15801561052c573d6000803e3d6000fd5b505050506040513d601f19601f820116820180604052508101906105509190612358565b6001600160a01b03168686868660405160240161057094939291906123f6565b60408051601f198184030181529181526020820180516001600160e01b03166312eab7ff60e01b179052516105a591906123da565b600060405180830381855af49150503d80600081146105e0576040519150601f19603f3d011682016040523d82523d6000602084013e6105e5565b606091505b505090506040513d806000833e826105fb578082fd5b8082f35b6084818154811061060f57600080fd5b6000918252602090912060039091020180546001820180546001600160a01b0390921693509061063e90612449565b80601f016020809104026020016040519081016040528092919081815260200182805461066a90612449565b80156106b75780601f1061068c576101008083540402835291602001916106b7565b820191906000526020600020905b81548152906001019060200180831161069a57829003601f168201915b5050506002909301549192505060ff1683565b80513390604114156107565760c3546040516318f32ac160e11b81526001600160a01b03909116906331e655829061070a90869030908790600401612484565b602060405180830381865afa158015610727573d6000803e3d6000fd5b505050506040513d601f19601f8201168201806040525081019061074b9190612358565b905061075681611757565b61075f816117b0565b602280546001600160a01b0319166001600160a01b0385169081179091556040519081527fb277f151915206b99a5ad1f93be8edff73ac3e04cafcecaaaaa9b0be7c7c41c0906020015b60405180910390a1505050565b608281815481106107c657600080fd5b6000918252602090912001546001600160a01b0316905081565b60606084805480602002602001604051908101604052809291908181526020016000905b828210156108f057600084815260209081902060408051606081019091526003850290910180546001600160a01b03168252600181018054929391929184019161084d90612449565b80601f016020809104026020016040519081016040528092919081815260200182805461087990612449565b80156108c65780601f1061089b576101008083540402835291602001916108c6565b820191906000526020600020905b8154815290600101906020018083116108a957829003601f168201915b50505091835250506002919091015460ff1615156020918201529082526001929092019101610804565b50505050905090565b60008060c260009054906101000a90046001600160a01b03166001600160a01b031663a327ab696040518163ffffffff1660e01b8152600401602060405180830381865afa15801561094f573d6000803e3d6000fd5b505050506040513d601f19601f820116820180604052508101906109739190612358565b6001600160a01b03168686868660405160240161099394939291906124b0565b60408051601f198184030181529181526020820180516001600160e01b0316630a95fbe160e21b179052516109c891906123da565b600060405180830381855af49150503d8060008114610a03576040519150601f19603f3d011682016040523d82523d6000602084013e610a08565b606091505b505090506040513d806000833e82610a1e578082fd5b50519695505050505050565b60858181548110610a3a57600080fd5b600091825260209091200154905081565b60c654600190600160a81b900460ff16158015610a76575060c65460ff808316600160a01b90920416105b610ade5760405162461bcd60e51b815260206004820152602e60248201527f496e697469616c697a61626c653a20636f6e747261637420697320616c72656160448201526d191e481a5b9a5d1a585b1a5e995960921b60648201526084015b60405180910390fd5b60c6805460ff60a81b1960ff8416600160a01b021661ffff60a01b1990911617600160a81b17905581516040516000916001600160a01b031690610b30908a908a908a908a908a908a906024016124ec565b60408051601f198184030181529181526020820180516001600160e01b03166353858fbf60e11b17905251610b6591906123da565b600060405180830381855af49150503d8060008114610ba0576040519150601f19603f3d011682016040523d82523d6000602084013e610ba5565b606091505b5050905080610bbb576040513d806000833e8082fd5b5060c6805460ff60a81b1916905560405160ff821681527f7f26b83ff96e1f2b6a682f133852f6798a09c465da95921460cefb38474024989060200160405180910390a150505050505050565b60a2602052600090815260409020805460018201805491929161063e90612449565b60c2546040805163a327ab6960e01b815290516000926001600160a01b03169163a327ab699160048083019260209291908290030181865afa158015610c74573d6000803e3d6000fd5b505050506040513d601f19601f82011682018060405250810190610c989190612358565b6001600160a01b031685858585604051602401610cb89493929190612565565b60408051601f198184030181529181526020820180516001600160e01b031663a1c89c9d60e01b17905251610ced91906123da565b600060405180830381855af49150503d8060008114610d28576040519150601f19603f3d011682016040523d82523d6000602084013e610d2d565b606091505b505090506040513d806000833e82610d43578082fd5b50505050505050565b60c2546040805163529382d560e01b815290516000926001600160a01b03169163529382d59160048083019260209291908290030181865afa158015610d96573d6000803e3d6000fd5b505050506040513d601f19601f82011682018060405250810190610dba9190612358565b6001600160a01b0316848484604051602401610dd8939291906125cf565b60408051601f198184030181529181526020820180516001600160e01b031663ad7cceeb60e01b17905251610e0d91906123da565b600060405180830381855af49150503d8060008114610e48576040519150601f19603f3d011682016040523d82523d6000602084013e610e4d565b606091505b5050905080610e63576040513d806000833e8082fd5b50505050565b60606083805480602002602001604051908101604052809291908181526020016000905b828210156108f05760008481526020908190206040805161012081019091526007850290910180546001600160a01b03811683529192909190830190600160a01b900460ff166003811115610ee457610ee4611fb2565b6003811115610ef557610ef5611fb2565b8152602001600182018054610f0990612449565b80601f0160208091040260200160405190810160405280929190818152602001828054610f3590612449565b8015610f825780601f10610f5757610100808354040283529160200191610f82565b820191906000526020600020905b815481529060010190602001808311610f6557829003601f168201915b505050918352505060028201546020808301919091526003830154604083015260048301546060830152600583015460ff8082161515608085015261010090910416151560a083015260069092015460c0909101529082526001929092019101610e8d565b60c2546040805163a327ab6960e01b815290516000926001600160a01b03169163a327ab699160048083019260209291908290030181865afa158015611031573d6000803e3d6000fd5b505050506040513d601f19601f820116820180604052508101906110559190612358565b6001600160a01b0316858585856040516024016110759493929190612606565b60408051601f198184030181529181526020820180516001600160e01b0316631856754160e31b179052516110aa91906123da565b600060405180830381855af49150503d80600081146110e5576040519150601f19603f3d011682016040523d82523d6000602084013e6110ea565b606091505b5050905080611100576040513d806000833e8082fd5b5050505050565b60a46020908152600092835260408084209091529082529020805460018201805460ff808416946101009094041692919061114190612449565b80601f016020809104026020016040519081016040528092919081815260200182805461116d90612449565b80156111ba5780601f1061118f576101008083540402835291602001916111ba565b820191906000526020600020905b81548152906001019060200180831161119d57829003601f168201915b5050505050905083565b608381815481106111d457600080fd5b6000918252602090912060079091020180546001820180546001600160a01b0383169450600160a01b90920460ff16929161120e90612449565b80601f016020809104026020016040519081016040528092919081815260200182805461123a90612449565b80156112875780601f1061125c57610100808354040283529160200191611287565b820191906000526020600020905b81548152906001019060200180831161126a57829003601f168201915b505050600284015460038501546004860154600587015460069097015495969295919450925060ff808316926101009004169089565b60606112c7611815565b6112cf611833565b6112d7611851565b6000604280546112e690612449565b80601f016020809104026020016040519081016040528092919081815260200182805461131290612449565b801561135f5780601f106113345761010080835404028352916020019161135f565b820191906000526020600020905b81548152906001019060200180831161134257829003601f168201915b50506000805494995060ff90941693889350915061137a9050565b91151560209283029190910152600054610100900460ff1615158582015260025484526003548482015260045460408086019190915260055460608087019190915260065460808088019190915260c2546001600160a01b03908116875260c35481169487019490945260c45484169286019290925260c55483169085015260c6548216908401526022541660a083015250606254939492939192909190565b80513390604114156114a65760c3546040516362423c7560e01b81526001600160a01b03909116906362423c759061145a90869030908790600401612639565b602060405180830381865afa158015611477573d6000803e3d6000fd5b505050506040513d601f19601f8201168201806040525081019061149b9190612358565b90506114a681611757565b6114af816117b0565b82516114c290604290602086019061186f565b507f983a5ee7e8a53d590fb3a59d6346edba553a9937dae5de22717015e98dd805d0836040516107a99190612345565b80516000903390604114156115875760c3546040516306d7f81b60e11b81526001600160a01b0390911690630daff0369061153b908a908a908a908a9030908b9060040161266d565b602060405180830381865afa158015611558573d6000803e3d6000fd5b505050506040513d601f19601f8201168201806040525081019061157c9190612358565b905061158781611757565b611590816117b0565b6000818860008989896040516024016115ae969594939291906126b3565b60408051601f198184030181529190526020810180516001600160e01b0316636eadde4360e01b179052905060006005461415611600575073627118a4fb747016911e5cda82e2e77c531e82066116b6565b4660891415611624575073e8e5cd156f89f7bdb267eabd5c43af3d5af2a78f6116b6565b4662013881141561164a5750731ff7e338d5e582138c46044dc238543ce555c9636116b6565b466001141561166e5750733d5409cce1d45233de1d4ebdee74b8e004abdd136116b6565b60405162461bcd60e51b815260206004820152601d60248201527f4372656174654c6f636b3a20756e737570706f7274656420636861696e0000006044820152606401610ad5565b60405163243d453b60e11b815281906001600160a01b0382169063487a8a76906116e7908690600b906004016126fc565b6020604051808303816000875af1158015611706573d6000803e3d6000fd5b505050506040513d601f19601f8201168201806040525081019061172a9190612358565b602280546001600160a01b0319166001600160a01b039290921691821790559a9950505050505050505050565b6001600160a01b0381166117ad5760405162461bcd60e51b815260206004820152601860248201527f45434453413a20696e76616c6964207369676e617475726500000000000000006044820152606401610ad5565b50565b6001600160a01b038116600090815260a2602052604090206002015460ff1615156001146117ad5760405162461bcd60e51b81526020600482015260126024820152714e6f74206d616e616765722072696768747360701b6044820152606401610ad5565b60405180604001604052806002906020820280368337509192915050565b6040518060a001604052806005906020820280368337509192915050565b6040518060c001604052806006906020820280368337509192915050565b82805461187b90612449565b90600052602060002090601f01602090048101928261189d57600085556118e3565b82601f106118b657805160ff19168380011785556118e3565b828001600101855582156118e3579182015b828111156118e35782518255916020019190600101906118c8565b506118ef9291506118f3565b5090565b5b808211156118ef57600081556001016118f4565b6001600160a01b03811681146117ad57600080fd5b634e487b7160e01b600052604160045260246000fd5b60405160e081016001600160401b03811182821017156119555761195561191d565b60405290565b604051601f8201601f191681016001600160401b03811182821017156119835761198361191d565b604052919050565b600082601f83011261199c57600080fd5b81356001600160401b038111156119b5576119b561191d565b6119c8601f8201601f191660200161195b565b8181528460208386010111156119dd57600080fd5b816020850160208301376000918101602001919091529392505050565b80358015158114611a0a57600080fd5b919050565b60008060008060008060c08789031215611a2857600080fd5b8635611a3381611908565b955060208701356001600160401b0380821115611a4f57600080fd5b611a5b8a838b0161198b565b96506040890135915080821115611a7157600080fd5b611a7d8a838b0161198b565b9550611a8b60608a016119fa565b94506080890135935060a0890135915080821115611aa857600080fd5b50611ab589828a0161198b565b9150509295509295509295565b60008060008060808587031215611ad857600080fd5b84356001600160401b0380821115611aef57600080fd5b611afb8883890161198b565b95506020870135915080821115611b1157600080fd5b611b1d8883890161198b565b945060408701359150611b2f82611908565b90925060608601359080821115611b4557600080fd5b50611b528782880161198b565b91505092959194509250565b600060208284031215611b7057600080fd5b5035919050565b60005b83811015611b92578181015183820152602001611b7a565b83811115610e635750506000910152565b60008151808452611bbb816020860160208601611b77565b601f01601f19169290920160200192915050565b6001600160a01b0384168152606060208201819052600090611bf390830185611ba3565b90508215156040830152949350505050565b60008060408385031215611c1857600080fd5b8235611c2381611908565b915060208301356001600160401b03811115611c3e57600080fd5b611c4a8582860161198b565b9150509250929050565b60006020808301818452808551808352604092508286019150828160051b87010184880160005b83811015611cd457888303603f19018552815180516001600160a01b0316845287810151606089860181905290611cb482870182611ba3565b928901511515958901959095525094870194925090860190600101611c7b565b509098975050505050505050565b60008060008060808587031215611cf857600080fd5b8435611d0381611908565b935060208501356001600160401b0380821115611d1f57600080fd5b611d2b8883890161198b565b9450604087013593506060870135915080821115611b4557600080fd5b60008060008060008061018080888a031215611d6357600080fd5b8735611d6e81611908565b96506020888101356001600160401b03811115611d8a57600080fd5b611d968b828c0161198b565b975050611da560408a016119fa565b9550611db360608a016119fa565b9450608089013593508960bf8a0112611dcb57600080fd5b611dd3611933565b91890191808b841115611de557600080fd5b60a08b015b84811015611e0a578035611dfd81611908565b8352918301918301611dea565b50809450505050509295509295509295565b600060208284031215611e2e57600080fd5b8135611e3981611908565b9392505050565b838152606060208201526000611bf36060830185611ba3565b60008060008060808587031215611e6f57600080fd5b84356001600160401b0380821115611e8657600080fd5b818701915087601f830112611e9a57600080fd5b8135602082821115611eae57611eae61191d565b8160051b611ebd82820161195b565b928352848101820192828101908c851115611ed757600080fd5b958301955b84871015611ef557863582529583019590830190611edc565b9950611f059150508982016119fa565b965050506040870135915080821115611f1d57600080fd5b611f298883890161198b565b93506060870135915080821115611b4557600080fd5b600080600060608486031215611f5457600080fd5b611f5d846119fa565b925060208401356001600160401b0380821115611f7957600080fd5b611f858783880161198b565b93506040860135915080821115611f9b57600080fd5b50611fa88682870161198b565b9150509250925092565b634e487b7160e01b600052602160045260246000fd5b60048110611fe657634e487b7160e01b600052602160045260246000fd5b9052565b60006020808301818452808551808352604092508286019150828160051b87010184880160005b83811015611cd457888303603f19018552815180516001600160a01b03168452610120888201516120448a870182611fc8565b5087820151818987015261205a82870182611ba3565b606084810151908801526080808501519088015260a0808501519088015260c08085015115159088015260e08085015115159088015261010093840151939096019290925250509386019390860190600101612011565b600080600080608085870312156120c757600080fd5b843593506120d7602086016119fa565b925060408501356001600160401b0380821115611f1d57600080fd5b6000806040838503121561210657600080fd5b82359150602083013561211881611908565b809150509250929050565b831515815282151560208201526060604082015260006121466060830184611ba3565b95945050505050565b6001600160a01b038a168152600061012061216d602084018c611fc8565b80604084015261217f8184018b611ba3565b60608401999099525050608081019590955260a085019390935290151560c0840152151560e0830152610100909101529392505050565b8060005b6006811015610e635781516001600160a01b03168452602093840193909101906001016121ba565b60006101e08083526121f681840189611ba3565b91505060208083018760005b6002811015612221578151151583529183019190830190600101612202565b505050606083018660005b60058110156122495781518352918301919083019060010161222c565b5050505061225b6101008301856121b6565b826101c08301529695505050505050565b6000806040838503121561227f57600080fd5b82356001600160401b038082111561229657600080fd5b6122a28683870161198b565b935060208501359150808211156122b857600080fd5b50611c4a8582860161198b565b600080600080600060a086880312156122dd57600080fd5b85359450602086013593506040860135925060608601356001600160401b038082111561230957600080fd5b61231589838a0161198b565b9350608088013591508082111561232b57600080fd5b506123388882890161198b565b9150509295509295909350565b602081526000611e396020830184611ba3565b60006020828403121561236a57600080fd5b8151611e3981611908565b6001600160a01b038716815260c06020820181905260009061239990830188611ba3565b82810360408401526123ab8188611ba3565b9050851515606084015284608084015282810360a08401526123cd8185611ba3565b9998505050505050505050565b600082516123ec818460208701611b77565b9190910192915050565b6080815260006124096080830187611ba3565b828103602084015261241b8187611ba3565b6001600160a01b03861660408501528381036060850152905061243e8185611ba3565b979650505050505050565b600181811c9082168061245d57607f821691505b6020821081141561247e57634e487b7160e01b600052602260045260246000fd5b50919050565b6001600160a01b0384811682528316602082015260606040820181905260009061214690830184611ba3565b6001600160a01b03851681526080602082018190526000906124d490830186611ba3565b846040840152828103606084015261243e8185611ba3565b6001600160a01b0387811682526101806020808401829052600092906125148584018b611ba3565b93508815156040860152871515606086015286608086015260a0850192508560005b6007811015612555578151841685529382019390820190600101612536565b5050505050979650505050505050565b6080808252855190820181905260009060209060a0840190828901845b8281101561259e57815184529284019290840190600101612582565b5050508615158285015283810360408501526125ba8187611ba3565b915050828103606084015261243e8185611ba3565b83151581526060602082015260006125ea6060830185611ba3565b82810360408401526125fc8185611ba3565b9695505050505050565b84815283151560208201526080604082015260006126276080830185611ba3565b828103606084015261243e8185611ba3565b60608152600061264c6060830186611ba3565b6001600160a01b038516602084015282810360408401526125fc8185611ba3565b86815285602082015284604082015260c06060820152600061269260c0830186611ba3565b6001600160a01b038516608084015282810360a08401526123cd8185611ba3565b600060018060a01b03808916835287602084015280871660408401525084606083015283608083015260c060a08301526126f060c0830184611ba3565b98975050505050505050565b60408152600061270f6040830185611ba3565b905061ffff83166020830152939250505056fea26469706673582212200cf47bb19c1ded80221beda852af2a72f5d5981facbd4829d1155b6dee302bf664736f6c634300080c0033",
  "bytecodeSha1": "2974f53467e1470d6b978772cff882ad2efa72b5",
  "compiler": {
    "evm_version": "istanbul",
    "optimizer": {
      "enabled": true,
      "runs": 200
    },
    "version": "0.8.12+commit.f00d7308"
  },
  "contractName": "CLHouse",
  "language": "Solidity",
  "natspec": {
    "author": "Leonardo Urrego",
    "kind": "dev",
    "methods": {
      "AcceptRejectInvitation(bool,string,bytes)": {
        "notice": "For an user that have an invitation pending",
        "params": {
          "_acceptance": "True for accept the invitation",
          "_nickname": "A nickname for the user",
          "_signature": "EIP712 Signature"
        }
      },
      "CreateLock(uint256,uint256,uint256,string,bytes)": {
        "notice": "Create a new Lock proxy contract from Lock Factory",
        "params": {
          "_expirationDuration": "Expiration for lcok in seconds",
          "_keyPrice": "Price for each lock in wei",
          "_lockName": "Lock Name",
          "_maxNumberOfKeys": "How many locks",
          "_signature": "EIP712 Signature"
        },
        "returns": {
          "_0": "Contract address of the new lock"
        }
      },
      "GetArrDataPropUser()": {
        "notice": "Get complete array of arrDataPropUser",
        "returns": {
          "_0": "arrDataPropUser the array with all data"
        }
      },
      "GetArrProposalsLength()": {
        "notice": "Length of arrProposals array"
      },
      "GetArrUsersLength()": {
        "notice": "Length of arrUsers array"
      },
      "GetCLHouseVersion()": {
        "notice": "Get a version of CLH",
        "returns": {
          "_0": "version"
        }
      },
      "GetProposalList()": {
        "notice": "The list of all Proposals",
        "returns": {
          "_0": "arrProposals the array with all proposals"
        }
      },
      "HouseProperties()": {
        "notice": "Retrieve some of the internal variables of the house"
      },
      "Init(address,string,bool,bool,uint256,address[7])": {
        "details": "This function can be called once after proxy creation",
        "notice": "Constructor of the new CLH",
        "params": {
          "_CLC": "Array for CL Contracts and others see `enum eCLC`",
          "_govRuleMaxUsers": "Max users in the house",
          "_houseName": "Name given by the owner",
          "_houseOpen": "If is set to 1, the CLH is set to Open",
          "_housePrivate": "If is set to 1, the CLH is set to private",
          "_owner": "The address of the owner"
        }
      },
      "PropInvitUser(address,string,string,bool,uint256,bytes)": {
        "details": "the execution of this proposal only create an invitation ",
        "notice": "Generate a new proposal to invite a new user",
        "params": {
          "_delayTime": "Time of live od the proposal in seconds",
          "_description": "A text for the proposal",
          "_isManager": "True if is for a manager",
          "_nickname": "Can be the nickname or other reference to the User",
          "_signature": "EIP712 Signature",
          "_walletAddr": "Wallet of the user"
        },
        "returns": {
          "propId": "ID of the new proposal, based on `arrProposals`"
        }
      },
      "PropRemoveUser(address,string,uint256,bytes)": {
        "details": "The user to remove can be a managaer",
        "notice": "Generate a new proposal for remove a user",
        "params": {
          "_delayTime": "Time of live od the proposal in seconds",
          "_description": "About the proposal",
          "_signature": "EIP712 Signature",
          "_walletAddr": "user Address to be removed"
        },
        "returns": {
          "propId": "ID of the new proposal, based on `arrProposals`"
        }
      },
      "PropRequestToJoin(string,string,address,bytes)": {
        "details": "Only avaiable in non private CLH",
        "notice": "Generate a proposal from a user that want to join to the CLH",
        "params": {
          "_description": "About the request",
          "_name": "Nickname or other user identification",
          "_signature": "EIP712 Signature",
          "_signerWallet": "Address of signer to check OffChain signature"
        },
        "returns": {
          "_0": "propId ID of the new proposal, based on `arrProposals`"
        }
      },
      "UpdateCLHName(string,bytes)": {
        "notice": "Change the name of de House",
        "params": {
          "_houseName": "New House Name",
          "_signature": "EIP712 Signature"
        }
      },
      "UpdateCLHWLNFT(address,bytes)": {
        "notice": "Set a new NFT Collection for Invitations",
        "params": {
          "_signature": "EIP712 Signature",
          "_whiteListNFT": "contract address of NFT"
        }
      },
      "VoteProposal(uint256,bool,string,bytes)": {
        "details": "After vote the proposal automatically try to be executed",
        "notice": "Used to vote a proposal",
        "params": {
          "_justification": "About your vote",
          "_propId": "ID of the proposal, based on `arrProposals`",
          "_signature": "EIP712 Signature",
          "_support": "True for accept, false to reject"
        }
      },
      "bulkVote(uint256[],bool,string,bytes)": {
        "notice": "Vote for multiple proposal",
        "params": {
          "_justification": "Description of the vote",
          "_propIds": "Array with ID of the proposal to votes",
          "_signature": "EIP712 Signature",
          "_support": "is the Vote (True or False) for all proposals"
        }
      },
      "constructor": {
        "custom:oz-upgrades-unsafe-allow": "constructor"
      }
    },
    "title": "Contract to implement and call the fuctions of CLHouses",
    "version": 1
  },
  "opcodes": "PUSH1 0x80 PUSH1 0x40 MSTORE CALLVALUE DUP1 ISZERO PUSH2 0x10 JUMPI PUSH1 0x0 DUP1 REVERT JUMPDEST POP PUSH1 0x4 CALLDATASIZE LT PUSH2 0x158 JUMPI PUSH1 0x0 CALLDATALOAD PUSH1 0xE0 SHR DUP1 PUSH4 0x9D2FCB87 GT PUSH2 0xC3 JUMPI DUP1 PUSH4 0xC347D2FD GT PUSH2 0x7C JUMPI DUP1 PUSH4 0xC347D2FD EQ PUSH2 0x2EF JUMPI DUP1 PUSH4 0xCB85669C EQ PUSH2 0x311 JUMPI DUP1 PUSH4 0xDE8B9E6D EQ PUSH2 0x339 JUMPI DUP1 PUSH4 0xEB635481 EQ PUSH2 0x352 JUMPI DUP1 PUSH4 0xFC9DB38C EQ PUSH2 0x365 JUMPI DUP1 PUSH4 0xFE0298DB EQ PUSH2 0x378 JUMPI PUSH1 0x0 DUP1 REVERT JUMPDEST DUP1 PUSH4 0x9D2FCB87 EQ PUSH2 0x277 JUMPI DUP1 PUSH4 0xA1C89C9D EQ PUSH2 0x299 JUMPI DUP1 PUSH4 0xA693649A EQ PUSH2 0x2AC JUMPI DUP1 PUSH4 0xAD7CCEEB EQ PUSH2 0x2B4 JUMPI DUP1 PUSH4 0xB4C62192 EQ PUSH2 0x2C7 JUMPI DUP1 PUSH4 0xC2B3AA08 EQ PUSH2 0x2DC JUMPI PUSH1 0x0 DUP1 REVERT JUMPDEST DUP1 PUSH4 0x29647EE5 GT PUSH2 0x115 JUMPI DUP1 PUSH4 0x29647EE5 EQ PUSH2 0x201 JUMPI DUP1 PUSH4 0x2A57EF84 EQ PUSH2 0x216 JUMPI DUP1 PUSH4 0x3A70693D EQ PUSH2 0x229 JUMPI DUP1 PUSH4 0x4E9D5472 EQ PUSH2 0x23C JUMPI DUP1 PUSH4 0x5B4587E1 EQ PUSH2 0x244 JUMPI DUP1 PUSH4 0x860228FD EQ PUSH2 0x257 JUMPI PUSH1 0x0 DUP1 REVERT JUMPDEST DUP1 PUSH4 0x2E2D525 EQ PUSH2 0x15D JUMPI DUP1 PUSH4 0x12EAB7FF EQ PUSH2 0x183 JUMPI DUP1 PUSH4 0x1707ACE8 EQ PUSH2 0x196 JUMPI DUP1 PUSH4 0x19A50F49 EQ PUSH2 0x1B8 JUMPI DUP1 PUSH4 0x1D236D29 EQ PUSH2 0x1C1 JUMPI DUP1 PUSH4 0x22B4081C EQ PUSH2 0x1D6 JUMPI JUMPDEST PUSH1 0x0 DUP1 REVERT JUMPDEST PUSH2 0x170 PUSH2 0x16B CALLDATASIZE PUSH1 0x4 PUSH2 0x1A0F JUMP JUMPDEST PUSH2 0x39F JUMP JUMPDEST PUSH1 0x40 MLOAD SWAP1 DUP2 MSTORE PUSH1 0x20 ADD JUMPDEST PUSH1 0x40 MLOAD DUP1 SWAP2 SUB SWAP1 RETURN JUMPDEST PUSH2 0x170 PUSH2 0x191 CALLDATASIZE PUSH1 0x4 PUSH2 0x1AC2 JUMP JUMPDEST PUSH2 0x4D6 JUMP JUMPDEST PUSH2 0x1A9 PUSH2 0x1A4 CALLDATASIZE PUSH1 0x4 PUSH2 0x1B5E JUMP JUMPDEST PUSH2 0x5FF JUMP JUMPDEST PUSH1 0x40 MLOAD PUSH2 0x17A SWAP4 SWAP3 SWAP2 SWAP1 PUSH2 0x1BCF JUMP JUMPDEST PUSH2 0x170 PUSH1 0x2 SLOAD DUP2 JUMP JUMPDEST PUSH2 0x1D4 PUSH2 0x1CF CALLDATASIZE PUSH1 0x4 PUSH2 0x1C05 JUMP JUMPDEST PUSH2 0x6CA JUMP JUMPDEST STOP JUMPDEST PUSH2 0x1E9 PUSH2 0x1E4 CALLDATASIZE PUSH1 0x4 PUSH2 0x1B5E JUMP JUMPDEST PUSH2 0x7B6 JUMP JUMPDEST PUSH1 0x40 MLOAD PUSH1 0x1 PUSH1 0x1 PUSH1 0xA0 SHL SUB SWAP1 SWAP2 AND DUP2 MSTORE PUSH1 0x20 ADD PUSH2 0x17A JUMP JUMPDEST PUSH2 0x209 PUSH2 0x7E0 JUMP JUMPDEST PUSH1 0x40 MLOAD PUSH2 0x17A SWAP2 SWAP1 PUSH2 0x1C54 JUMP JUMPDEST PUSH2 0x170 PUSH2 0x224 CALLDATASIZE PUSH1 0x4 PUSH2 0x1CE2 JUMP JUMPDEST PUSH2 0x8F9 JUMP JUMPDEST PUSH2 0x170 PUSH2 0x237 CALLDATASIZE PUSH1 0x4 PUSH2 0x1B5E JUMP JUMPDEST PUSH2 0xA2A JUMP JUMPDEST PUSH1 0x83 SLOAD PUSH2 0x170 JUMP JUMPDEST PUSH2 0x1D4 PUSH2 0x252 CALLDATASIZE PUSH1 0x4 PUSH2 0x1D48 JUMP JUMPDEST PUSH2 0xA4B JUMP JUMPDEST PUSH2 0x170 PUSH2 0x265 CALLDATASIZE PUSH1 0x4 PUSH2 0x1E1C JUMP JUMPDEST PUSH1 0xA3 PUSH1 0x20 MSTORE PUSH1 0x0 SWAP1 DUP2 MSTORE PUSH1 0x40 SWAP1 KECCAK256 SLOAD DUP2 JUMP JUMPDEST PUSH2 0x28A PUSH2 0x285 CALLDATASIZE PUSH1 0x4 PUSH2 0x1E1C JUMP JUMPDEST PUSH2 0xC08 JUMP JUMPDEST PUSH1 0x40 MLOAD PUSH2 0x17A SWAP4 SWAP3 SWAP2 SWAP1 PUSH2 0x1E40 JUMP JUMPDEST PUSH2 0x1D4 PUSH2 0x2A7 CALLDATASIZE PUSH1 0x4 PUSH2 0x1E59 JUMP JUMPDEST PUSH2 0xC2A JUMP JUMPDEST PUSH1 0x82 SLOAD PUSH2 0x170 JUMP JUMPDEST PUSH2 0x1D4 PUSH2 0x2C2 CALLDATASIZE PUSH1 0x4 PUSH2 0x1F3F JUMP JUMPDEST PUSH2 0xD4C JUMP JUMPDEST PUSH2 0x2CF PUSH2 0xE69 JUMP JUMPDEST PUSH1 0x40 MLOAD PUSH2 0x17A SWAP2 SWAP1 PUSH2 0x1FEA JUMP JUMPDEST PUSH2 0x1D4 PUSH2 0x2EA CALLDATASIZE PUSH1 0x4 PUSH2 0x20B1 JUMP JUMPDEST PUSH2 0xFE7 JUMP JUMPDEST PUSH2 0x302 PUSH2 0x2FD CALLDATASIZE PUSH1 0x4 PUSH2 0x20F3 JUMP JUMPDEST PUSH2 0x1107 JUMP JUMPDEST PUSH1 0x40 MLOAD PUSH2 0x17A SWAP4 SWAP3 SWAP2 SWAP1 PUSH2 0x2123 JUMP JUMPDEST PUSH2 0x324 PUSH2 0x31F CALLDATASIZE PUSH1 0x4 PUSH2 0x1B5E JUMP JUMPDEST PUSH2 0x11C4 JUMP JUMPDEST PUSH1 0x40 MLOAD PUSH2 0x17A SWAP10 SWAP9 SWAP8 SWAP7 SWAP6 SWAP5 SWAP4 SWAP3 SWAP2 SWAP1 PUSH2 0x214F JUMP JUMPDEST PUSH2 0x341 PUSH2 0x12BD JUMP JUMPDEST PUSH1 0x40 MLOAD PUSH2 0x17A SWAP6 SWAP5 SWAP4 SWAP3 SWAP2 SWAP1 PUSH2 0x21E2 JUMP JUMPDEST PUSH2 0x1D4 PUSH2 0x360 CALLDATASIZE PUSH1 0x4 PUSH2 0x226C JUMP JUMPDEST PUSH2 0x141A JUMP JUMPDEST PUSH2 0x1E9 PUSH2 0x373 CALLDATASIZE PUSH1 0x4 PUSH2 0x22C5 JUMP JUMPDEST PUSH2 0x14F2 JUMP JUMPDEST PUSH1 0x40 DUP1 MLOAD DUP1 DUP3 ADD DUP3 MSTORE PUSH1 0x5 DUP2 MSTORE PUSH5 0x302E322E3 PUSH1 0xDC SHL PUSH1 0x20 DUP3 ADD MSTORE SWAP1 MLOAD PUSH2 0x17A SWAP2 SWAP1 PUSH2 0x2345 JUMP JUMPDEST PUSH1 0x0 DUP1 PUSH1 0xC2 PUSH1 0x0 SWAP1 SLOAD SWAP1 PUSH2 0x100 EXP SWAP1 DIV PUSH1 0x1 PUSH1 0x1 PUSH1 0xA0 SHL SUB AND PUSH1 0x1 PUSH1 0x1 PUSH1 0xA0 SHL SUB AND PUSH4 0xA327AB69 PUSH1 0x40 MLOAD DUP2 PUSH4 0xFFFFFFFF AND PUSH1 0xE0 SHL DUP2 MSTORE PUSH1 0x4 ADD PUSH1 0x20 PUSH1 0x40 MLOAD DUP1 DUP4 SUB DUP2 DUP7 GAS STATICCALL ISZERO DUP1 ISZERO PUSH2 0x3F5 JUMPI RETURNDATASIZE PUSH1 0x0 DUP1 RETURNDATACOPY RETURNDATASIZE PUSH1 0x0 REVERT JUMPDEST POP POP POP POP PUSH1 0x40 MLOAD RETURNDATASIZE PUSH1 0x1F NOT PUSH1 0x1F DUP3 ADD AND DUP3 ADD DUP1 PUSH1 0x40 MSTORE POP DUP2 ADD SWAP1 PUSH2 0x419 SWAP2 SWAP1 PUSH2 0x2358 JUMP JUMPDEST PUSH1 0x1 PUSH1 0x1 PUSH1 0xA0 SHL SUB AND DUP9 DUP9 DUP9 DUP9 DUP9 DUP9 PUSH1 0x40 MLOAD PUSH1 0x24 ADD PUSH2 0x43D SWAP7 SWAP6 SWAP5 SWAP4 SWAP3 SWAP2 SWAP1 PUSH2 0x2375 JUMP JUMPDEST PUSH1 0x40 DUP1 MLOAD PUSH1 0x1F NOT DUP2 DUP5 SUB ADD DUP2 MSTORE SWAP2 DUP2 MSTORE PUSH1 0x20 DUP3 ADD DUP1 MLOAD PUSH1 0x1 PUSH1 0x1 PUSH1 0xE0 SHL SUB AND PUSH4 0x2E2D525 PUSH1 0xE0 SHL OR SWAP1 MSTORE MLOAD PUSH2 0x472 SWAP2 SWAP1 PUSH2 0x23DA JUMP JUMPDEST PUSH1 0x0 PUSH1 0x40 MLOAD DUP1 DUP4 SUB DUP2 DUP6 GAS DELEGATECALL SWAP2 POP POP RETURNDATASIZE DUP1 PUSH1 0x0 DUP2 EQ PUSH2 0x4AD JUMPI PUSH1 0x40 MLOAD SWAP2 POP PUSH1 0x1F NOT PUSH1 0x3F RETURNDATASIZE ADD AND DUP3 ADD PUSH1 0x40 MSTORE RETURNDATASIZE DUP3 MSTORE RETURNDATASIZE PUSH1 0x0 PUSH1 0x20 DUP5 ADD RETURNDATACOPY PUSH2 0x4B2 JUMP JUMPDEST PUSH1 0x60 SWAP2 POP JUMPDEST POP POP SWAP1 POP PUSH1 0x40 MLOAD RETURNDATASIZE DUP1 PUSH1 0x0 DUP4 RETURNDATACOPY DUP3 PUSH2 0x4C8 JUMPI DUP1 DUP3 REVERT JUMPDEST POP MLOAD SWAP9 SWAP8 POP POP POP POP POP POP POP POP JUMP JUMPDEST PUSH1 0x0 DUP1 PUSH1 0xC2 PUSH1 0x0 SWAP1 SLOAD SWAP1 PUSH2 0x100 EXP SWAP1 DIV PUSH1 0x1 PUSH1 0x1 PUSH1 0xA0 SHL SUB AND PUSH1 0x1 PUSH1 0x1 PUSH1 0xA0 SHL SUB AND PUSH4 0xA327AB69 PUSH1 0x40 MLOAD DUP2 PUSH4 0xFFFFFFFF AND PUSH1 0xE0 SHL DUP2 MSTORE PUSH1 0x4 ADD PUSH1 0x20 PUSH1 0x40 MLOAD DUP1 DUP4 SUB DUP2 DUP7 GAS STATICCALL ISZERO DUP1 ISZERO PUSH2 0x52C JUMPI RETURNDATASIZE PUSH1 0x0 DUP1 RETURNDATACOPY RETURNDATASIZE PUSH1 0x0 REVERT JUMPDEST POP POP POP POP PUSH1 0x40 MLOAD RETURNDATASIZE PUSH1 0x1F NOT PUSH1 0x1F DUP3 ADD AND DUP3 ADD DUP1 PUSH1 0x40 MSTORE POP DUP2 ADD SWAP1 PUSH2 0x550 SWAP2 SWAP1 PUSH2 0x2358 JUMP JUMPDEST PUSH1 0x1 PUSH1 0x1 PUSH1 0xA0 SHL SUB AND DUP7 DUP7 DUP7 DUP7 PUSH1 0x40 MLOAD PUSH1 0x24 ADD PUSH2 0x570 SWAP5 SWAP4 SWAP3 SWAP2 SWAP1 PUSH2 0x23F6 JUMP JUMPDEST PUSH1 0x40 DUP1 MLOAD PUSH1 0x1F NOT DUP2 DUP5 SUB ADD DUP2 MSTORE SWAP2 DUP2 MSTORE PUSH1 0x20 DUP3 ADD DUP1 MLOAD PUSH1 0x1 PUSH1 0x1 PUSH1 0xE0 SHL SUB AND PUSH4 0x12EAB7FF PUSH1 0xE0 SHL OR SWAP1 MSTORE MLOAD PUSH2 0x5A5 SWAP2 SWAP1 PUSH2 0x23DA JUMP JUMPDEST PUSH1 0x0 PUSH1 0x40 MLOAD DUP1 DUP4 SUB DUP2 DUP6 GAS DELEGATECALL SWAP2 POP POP RETURNDATASIZE DUP1 PUSH1 0x0 DUP2 EQ PUSH2 0x5E0 JUMPI PUSH1 0x40 MLOAD SWAP2 POP PUSH1 0x1F NOT PUSH1 0x3F RETURNDATASIZE ADD AND DUP3 ADD PUSH1 0x40 MSTORE RETURNDATASIZE DUP3 MSTORE RETURNDATASIZE PUSH1 0x0 PUSH1 0x20 DUP5 ADD RETURNDATACOPY PUSH2 0x5E5 JUMP JUMPDEST PUSH1 0x60 SWAP2 POP JUMPDEST POP POP SWAP1 POP PUSH1 0x40 MLOAD RETURNDATASIZE DUP1 PUSH1 0x0 DUP4 RETURNDATACOPY DUP3 PUSH2 0x5FB JUMPI DUP1 DUP3 REVERT JUMPDEST DUP1 DUP3 RETURN JUMPDEST PUSH1 0x84 DUP2 DUP2 SLOAD DUP2 LT PUSH2 0x60F JUMPI PUSH1 0x0 DUP1 REVERT JUMPDEST PUSH1 0x0 SWAP2 DUP3 MSTORE PUSH1 0x20 SWAP1 SWAP2 KECCAK256 PUSH1 0x3 SWAP1 SWAP2 MUL ADD DUP1 SLOAD PUSH1 0x1 DUP3 ADD DUP1 SLOAD PUSH1 0x1 PUSH1 0x1 PUSH1 0xA0 SHL SUB SWAP1 SWAP3 AND SWAP4 POP SWAP1 PUSH2 0x63E SWAP1 PUSH2 0x2449 JUMP JUMPDEST DUP1 PUSH1 0x1F ADD PUSH1 0x20 DUP1 SWAP2 DIV MUL PUSH1 0x20 ADD PUSH1 0x40 MLOAD SWAP1 DUP2 ADD PUSH1 0x40 MSTORE DUP1 SWAP3 SWAP2 SWAP1 DUP2 DUP2 MSTORE PUSH1 0x20 ADD DUP3 DUP1 SLOAD PUSH2 0x66A SWAP1 PUSH2 0x2449 JUMP JUMPDEST DUP1 ISZERO PUSH2 0x6B7 JUMPI DUP1 PUSH1 0x1F LT PUSH2 0x68C JUMPI PUSH2 0x100 DUP1 DUP4 SLOAD DIV MUL DUP4 MSTORE SWAP2 PUSH1 0x20 ADD SWAP2 PUSH2 0x6B7 JUMP JUMPDEST DUP3 ADD SWAP2 SWAP1 PUSH1 0x0 MSTORE PUSH1 0x20 PUSH1 0x0 KECCAK256 SWAP1 JUMPDEST DUP2 SLOAD DUP2 MSTORE SWAP1 PUSH1 0x1 ADD SWAP1 PUSH1 0x20 ADD DUP1 DUP4 GT PUSH2 0x69A JUMPI DUP3 SWAP1 SUB PUSH1 0x1F AND DUP3 ADD SWAP2 JUMPDEST POP POP POP PUSH1 0x2 SWAP1 SWAP4 ADD SLOAD SWAP2 SWAP3 POP POP PUSH1 0xFF AND DUP4 JUMP JUMPDEST DUP1 MLOAD CALLER SWAP1 PUSH1 0x41 EQ ISZERO PUSH2 0x756 JUMPI PUSH1 0xC3 SLOAD PUSH1 0x40 MLOAD PUSH4 0x18F32AC1 PUSH1 0xE1 SHL DUP2 MSTORE PUSH1 0x1 PUSH1 0x1 PUSH1 0xA0 SHL SUB SWAP1 SWAP2 AND SWAP1 PUSH4 0x31E65582 SWAP1 PUSH2 0x70A SWAP1 DUP7 SWAP1 ADDRESS SWAP1 DUP8 SWAP1 PUSH1 0x4 ADD PUSH2 0x2484 JUMP JUMPDEST PUSH1 0x20 PUSH1 0x40 MLOAD DUP1 DUP4 SUB DUP2 DUP7 GAS STATICCALL ISZERO DUP1 ISZERO PUSH2 0x727 JUMPI RETURNDATASIZE PUSH1 0x0 DUP1 RETURNDATACOPY RETURNDATASIZE PUSH1 0x0 REVERT JUMPDEST POP POP POP POP PUSH1 0x40 MLOAD RETURNDATASIZE PUSH1 0x1F NOT PUSH1 0x1F DUP3 ADD AND DUP3 ADD DUP1 PUSH1 0x40 MSTORE POP DUP2 ADD SWAP1 PUSH2 0x74B SWAP2 SWAP1 PUSH2 0x2358 JUMP JUMPDEST SWAP1 POP PUSH2 0x756 DUP2 PUSH2 0x1757 JUMP JUMPDEST PUSH2 0x75F DUP2 PUSH2 0x17B0 JUMP JUMPDEST PUSH1 0x22 DUP1 SLOAD PUSH1 0x1 PUSH1 0x1 PUSH1 0xA0 SHL SUB NOT AND PUSH1 0x1 PUSH1 0x1 PUSH1 0xA0 SHL SUB DUP6 AND SWAP1 DUP2 OR SWAP1 SWAP2 SSTORE PUSH1 0x40 MLOAD SWAP1 DUP2 MSTORE PUSH32 0xB277F151915206B99A5AD1F93BE8EDFF73AC3E04CAFCECAAAAA9B0BE7C7C41C0 SWAP1 PUSH1 0x20 ADD JUMPDEST PUSH1 0x40 MLOAD DUP1 SWAP2 SUB SWAP1 LOG1 POP POP POP JUMP JUMPDEST PUSH1 0x82 DUP2 DUP2 SLOAD DUP2 LT PUSH2 0x7C6 JUMPI PUSH1 0x0 DUP1 REVERT JUMPDEST PUSH1 0x0 SWAP2 DUP3 MSTORE PUSH1 0x20 SWAP1 SWAP2 KECCAK256 ADD SLOAD PUSH1 0x1 PUSH1 0x1 PUSH1 0xA0 SHL SUB AND SWAP1 POP DUP2 JUMP JUMPDEST PUSH1 0x60 PUSH1 0x84 DUP1 SLOAD DUP1 PUSH1 0x20 MUL PUSH1 0x20 ADD PUSH1 0x40 MLOAD SWAP1 DUP2 ADD PUSH1 0x40 MSTORE DUP1 SWAP3 SWAP2 SWAP1 DUP2 DUP2 MSTORE PUSH1 0x20 ADD PUSH1 0x0 SWAP1 JUMPDEST DUP3 DUP3 LT ISZERO PUSH2 0x8F0 JUMPI PUSH1 0x0 DUP5 DUP2 MSTORE PUSH1 0x20 SWAP1 DUP2 SWAP1 KECCAK256 PUSH1 0x40 DUP1 MLOAD PUSH1 0x60 DUP2 ADD SWAP1 SWAP2 MSTORE PUSH1 0x3 DUP6 MUL SWAP1 SWAP2 ADD DUP1 SLOAD PUSH1 0x1 PUSH1 0x1 PUSH1 0xA0 SHL SUB AND DUP3 MSTORE PUSH1 0x1 DUP2 ADD DUP1 SLOAD SWAP3 SWAP4 SWAP2 SWAP3 SWAP2 DUP5 ADD SWAP2 PUSH2 0x84D SWAP1 PUSH2 0x2449 JUMP JUMPDEST DUP1 PUSH1 0x1F ADD PUSH1 0x20 DUP1 SWAP2 DIV MUL PUSH1 0x20 ADD PUSH1 0x40 MLOAD SWAP1 DUP2 ADD PUSH1 0x40 MSTORE DUP1 SWAP3 SWAP2 SWAP1 DUP2 DUP2 MSTORE PUSH1 0x20 ADD DUP3 DUP1 SLOAD PUSH2 0x879 SWAP1 PUSH2 0x2449 JUMP JUMPDEST DUP1 ISZERO PUSH2 0x8C6 JUMPI DUP1 PUSH1 0x1F LT PUSH2 0x89B JUMPI PUSH2 0x100 DUP1 DUP4 SLOAD DIV MUL DUP4 MSTORE SWAP2 PUSH1 0x20 ADD SWAP2 PUSH2 0x8C6 JUMP JUMPDEST DUP3 ADD SWAP2 SWAP1 PUSH1 0x0 MSTORE PUSH1 0x20 PUSH1 0x0 KECCAK256 SWAP1 JUMPDEST DUP2 SLOAD DUP2 MSTORE SWAP1 PUSH1 0x1 ADD SWAP1 PUSH1 0x20 ADD DUP1 DUP4 GT PUSH2 0x8A9 JUMPI DUP3 SWAP1 SUB PUSH1 0x1F AND DUP3 ADD SWAP2 JUMPDEST POP POP POP SWAP2 DUP4 MSTORE POP POP PUSH1 0x2 SWAP2 SWAP1 SWAP2 ADD SLOAD PUSH1 0xFF AND ISZERO ISZERO PUSH1 0x20 SWAP2 DUP3 ADD MSTORE SWAP1 DUP3 MSTORE PUSH1 0x1 SWAP3 SWAP1 SWAP3 ADD SWAP2 ADD PUSH2 0x804 JUMP JUMPDEST POP POP POP POP SWAP1 POP SWAP1 JUMP JUMPDEST PUSH1 0x0 DUP1 PUSH1 0xC2 PUSH1 0x0 SWAP1 SLOAD SWAP1 PUSH2 0x100 EXP SWAP1 DIV PUSH1 0x1 PUSH1 0x1 PUSH1 0xA0 SHL SUB AND PUSH1 0x1 PUSH1 0x1 PUSH1 0xA0 SHL SUB AND PUSH4 0xA327AB69 PUSH1 0x40 MLOAD DUP2 PUSH4 0xFFFFFFFF AND PUSH1 0xE0 SHL DUP2 MSTORE PUSH1 0x4 ADD PUSH1 0x20 PUSH1 0x40 MLOAD DUP1 DUP4 SUB DUP2 DUP7 GAS STATICCALL ISZERO DUP1 ISZERO PUSH2 0x94F JUMPI RETURNDATASIZE PUSH1 0x0 DUP1 RETURNDATACOPY RETURNDATASIZE PUSH1 0x0 REVERT JUMPDEST POP POP POP POP PUSH1 0x40 MLOAD RETURNDATASIZE PUSH1 0x1F NOT PUSH1 0x1F DUP3 ADD AND DUP3 ADD DUP1 PUSH1 0x40 MSTORE POP DUP2 ADD SWAP1 PUSH2 0x973 SWAP2 SWAP1 PUSH2 0x2358 JUMP JUMPDEST PUSH1 0x1 PUSH1 0x1 PUSH1 0xA0 SHL SUB AND DUP7 DUP7 DUP7 DUP7 PUSH1 0x40 MLOAD PUSH1 0x24 ADD PUSH2 0x993 SWAP5 SWAP4 SWAP3 SWAP2 SWAP1 PUSH2 0x24B0 JUMP JUMPDEST PUSH1 0x40 DUP1 MLOAD PUSH1 0x1F NOT DUP2 DUP5 SUB ADD DUP2 MSTORE SWAP2 DUP2 MSTORE PUSH1 0x20 DUP3 ADD DUP1 MLOAD PUSH1 0x1 PUSH1 0x1 PUSH1 0xE0 SHL SUB AND PUSH4 0xA95FBE1 PUSH1 0xE2 SHL OR SWAP1 MSTORE MLOAD PUSH2 0x9C8 SWAP2 SWAP1 PUSH2 0x23DA JUMP JUMPDEST PUSH1 0x0 PUSH1 0x40 MLOAD DUP1 DUP4 SUB DUP2 DUP6 GAS DELEGATECALL SWAP2 POP POP RETURNDATASIZE DUP1 PUSH1 0x0 DUP2 EQ PUSH2 0xA03 JUMPI PUSH1 0x40 MLOAD SWAP2 POP PUSH1 0x1F NOT PUSH1 0x3F RETURNDATASIZE ADD AND DUP3 ADD PUSH1 0x40 MSTORE RETURNDATASIZE DUP3 MSTORE RETURNDATASIZE PUSH1 0x0 PUSH1 0x20 DUP5 ADD RETURNDATACOPY PUSH2 0xA08 JUMP JUMPDEST PUSH1 0x60 SWAP2 POP JUMPDEST POP POP SWAP1 POP PUSH1 0x40 MLOAD RETURNDATASIZE DUP1 PUSH1 0x0 DUP4 RETURNDATACOPY DUP3 PUSH2 0xA1E JUMPI DUP1 DUP3 REVERT JUMPDEST POP MLOAD SWAP7 SWAP6 POP POP POP POP POP POP JUMP JUMPDEST PUSH1 0x85 DUP2 DUP2 SLOAD DUP2 LT PUSH2 0xA3A JUMPI PUSH1 0x0 DUP1 REVERT JUMPDEST PUSH1 0x0 SWAP2 DUP3 MSTORE PUSH1 0x20 SWAP1 SWAP2 KECCAK256 ADD SLOAD SWAP1 POP DUP2 JUMP JUMPDEST PUSH1 0xC6 SLOAD PUSH1 0x1 SWAP1 PUSH1 0x1 PUSH1 0xA8 SHL SWAP1 DIV PUSH1 0xFF AND ISZERO DUP1 ISZERO PUSH2 0xA76 JUMPI POP PUSH1 0xC6 SLOAD PUSH1 0xFF DUP1 DUP4 AND PUSH1 0x1 PUSH1 0xA0 SHL SWAP1 SWAP3 DIV AND LT JUMPDEST PUSH2 0xADE JUMPI PUSH1 0x40 MLOAD PUSH3 0x461BCD PUSH1 0xE5 SHL DUP2 MSTORE PUSH1 0x20 PUSH1 0x4 DUP3 ADD MSTORE PUSH1 0x2E PUSH1 0x24 DUP3 ADD MSTORE PUSH32 0x496E697469616C697A61626C653A20636F6E747261637420697320616C726561 PUSH1 0x44 DUP3 ADD MSTORE PUSH14 0x191E481A5B9A5D1A585B1A5E9959 PUSH1 0x92 SHL PUSH1 0x64 DUP3 ADD MSTORE PUSH1 0x84 ADD JUMPDEST PUSH1 0x40 MLOAD DUP1 SWAP2 SUB SWAP1 REVERT JUMPDEST PUSH1 0xC6 DUP1 SLOAD PUSH1 0xFF PUSH1 0xA8 SHL NOT PUSH1 0xFF DUP5 AND PUSH1 0x1 PUSH1 0xA0 SHL MUL AND PUSH2 0xFFFF PUSH1 0xA0 SHL NOT SWAP1 SWAP2 AND OR PUSH1 0x1 PUSH1 0xA8 SHL OR SWAP1 SSTORE DUP2 MLOAD PUSH1 0x40 MLOAD PUSH1 0x0 SWAP2 PUSH1 0x1 PUSH1 0x1 PUSH1 0xA0 SHL SUB AND SWAP1 PUSH2 0xB30 SWAP1 DUP11 SWAP1 DUP11 SWAP1 DUP11 SWAP1 DUP11 SWAP1 DUP11 SWAP1 DUP11 SWAP1 PUSH1 0x24 ADD PUSH2 0x24EC JUMP JUMPDEST PUSH1 0x40 DUP1 MLOAD PUSH1 0x1F NOT DUP2 DUP5 SUB ADD DUP2 MSTORE SWAP2 DUP2 MSTORE PUSH1 0x20 DUP3 ADD DUP1 MLOAD PUSH1 0x1 PUSH1 0x1 PUSH1 0xE0 SHL SUB AND PUSH4 0x53858FBF PUSH1 0xE1 SHL OR SWAP1 MSTORE MLOAD PUSH2 0xB65 SWAP2 SWAP1 PUSH2 0x23DA JUMP JUMPDEST PUSH1 0x0 PUSH1 0x40 MLOAD DUP1 DUP4 SUB DUP2 DUP6 GAS DELEGATECALL SWAP2 POP POP RETURNDATASIZE DUP1 PUSH1 0x0 DUP2 EQ PUSH2 0xBA0 JUMPI PUSH1 0x40 MLOAD SWAP2 POP PUSH1 0x1F NOT PUSH1 0x3F RETURNDATASIZE ADD AND DUP3 ADD PUSH1 0x40 MSTORE RETURNDATASIZE DUP3 MSTORE RETURNDATASIZE PUSH1 0x0 PUSH1 0x20 DUP5 ADD RETURNDATACOPY PUSH2 0xBA5 JUMP JUMPDEST PUSH1 0x60 SWAP2 POP JUMPDEST POP POP SWAP1 POP DUP1 PUSH2 0xBBB JUMPI PUSH1 0x40 MLOAD RETURNDATASIZE DUP1 PUSH1 0x0 DUP4 RETURNDATACOPY DUP1 DUP3 REVERT JUMPDEST POP PUSH1 0xC6 DUP1 SLOAD PUSH1 0xFF PUSH1 0xA8 SHL NOT AND SWAP1 SSTORE PUSH1 0x40 MLOAD PUSH1 0xFF DUP3 AND DUP2 MSTORE PUSH32 0x7F26B83FF96E1F2B6A682F133852F6798A09C465DA95921460CEFB3847402498 SWAP1 PUSH1 0x20 ADD PUSH1 0x40 MLOAD DUP1 SWAP2 SUB SWAP1 LOG1 POP POP POP POP POP POP POP JUMP JUMPDEST PUSH1 0xA2 PUSH1 0x20 MSTORE PUSH1 0x0 SWAP1 DUP2 MSTORE PUSH1 0x40 SWAP1 KECCAK256 DUP1 SLOAD PUSH1 0x1 DUP3 ADD DUP1 SLOAD SWAP2 SWAP3 SWAP2 PUSH2 0x63E SWAP1 PUSH2 0x2449 JUMP JUMPDEST PUSH1 0xC2 SLOAD PUSH1 0x40 DUP1 MLOAD PUSH4 0xA327AB69 PUSH1 0xE0 SHL DUP2 MSTORE SWAP1 MLOAD PUSH1 0x0 SWAP3 PUSH1 0x1 PUSH1 0x1 PUSH1 0xA0 SHL SUB AND SWAP2 PUSH4 0xA327AB69 SWAP2 PUSH1 0x4 DUP1 DUP4 ADD SWAP3 PUSH1 0x20 SWAP3 SWAP2 SWAP1 DUP3 SWAP1 SUB ADD DUP2 DUP7 GAS STATICCALL ISZERO DUP1 ISZERO PUSH2 0xC74 JUMPI RETURNDATASIZE PUSH1 0x0 DUP1 RETURNDATACOPY RETURNDATASIZE PUSH1 0x0 REVERT JUMPDEST POP POP POP POP PUSH1 0x40 MLOAD RETURNDATASIZE PUSH1 0x1F NOT PUSH1 0x1F DUP3 ADD AND DUP3 ADD DUP1 PUSH1 0x40 MSTORE POP DUP2 ADD SWAP1 PUSH2 0xC98 SWAP2 SWAP1 PUSH2 0x2358 JUMP JUMPDEST PUSH1 0x1 PUSH1 0x1 PUSH1 0xA0 SHL SUB AND DUP6 DUP6 DUP6 DUP6 PUSH1 0x40 MLOAD PUSH1 0x24 ADD PUSH2 0xCB8 SWAP5 SWAP4 SWAP3 SWAP2 SWAP1 PUSH2 0x2565 JUMP JUMPDEST PUSH1 0x40 DUP1 MLOAD PUSH1 0x1F NOT DUP2 DUP5 SUB ADD DUP2 MSTORE SWAP2 DUP2 MSTORE PUSH1 0x20 DUP3 ADD DUP1 MLOAD PUSH1 0x1 PUSH1 0x1 PUSH1 0xE0 SHL SUB AND PUSH4 0xA1C89C9D PUSH1 0xE0 SHL OR SWAP1 MSTORE MLOAD PUSH2 0xCED SWAP2 SWAP1 PUSH2 0x23DA JUMP JUMPDEST PUSH1 0x0 PUSH1 0x40 MLOAD DUP1 DUP4 SUB DUP2 DUP6 GAS DELEGATECALL SWAP2 POP POP RETURNDATASIZE DUP1 PUSH1 0x0 DUP2 EQ PUSH2 0xD28 JUMPI PUSH1 0x40 MLOAD SWAP2 POP PUSH1 0x1F NOT PUSH1 0x3F RETURNDATASIZE ADD AND DUP3 ADD PUSH1 0x40 MSTORE RETURNDATASIZE DUP3 MSTORE RETURNDATASIZE PUSH1 0x0 PUSH1 0x20 DUP5 ADD RETURNDATACOPY PUSH2 0xD2D JUMP JUMPDEST PUSH1 0x60 SWAP2 POP JUMPDEST POP POP SWAP1 POP PUSH1 0x40 MLOAD RETURNDATASIZE DUP1 PUSH1 0x0 DUP4 RETURNDATACOPY DUP3 PUSH2 0xD43 JUMPI DUP1 DUP3 REVERT JUMPDEST POP POP POP POP POP POP POP JUMP JUMPDEST PUSH1 0xC2 SLOAD PUSH1 0x40 DUP1 MLOAD PUSH4 0x529382D5 PUSH1 0xE0 SHL DUP2 MSTORE SWAP1 MLOAD PUSH1 0x0 SWAP3 PUSH1 0x1 PUSH1 0x1 PUSH1 0xA0 SHL SUB AND SWAP2 PUSH4 0x529382D5 SWAP2 PUSH1 0x4 DUP1 DUP4 ADD SWAP3 PUSH1 0x20 SWAP3 SWAP2 SWAP1 DUP3 SWAP1 SUB ADD DUP2 DUP7 GAS STATICCALL ISZERO DUP1 ISZERO PUSH2 0xD96 JUMPI RETURNDATASIZE PUSH1 0x0 DUP1 RETURNDATACOPY RETURNDATASIZE PUSH1 0x0 REVERT JUMPDEST POP POP POP POP PUSH1 0x40 MLOAD RETURNDATASIZE PUSH1 0x1F NOT PUSH1 0x1F DUP3 ADD AND DUP3 ADD DUP1 PUSH1 0x40 MSTORE POP DUP2 ADD SWAP1 PUSH2 0xDBA SWAP2 SWAP1 PUSH2 0x2358 JUMP JUMPDEST PUSH1 0x1 PUSH1 0x1 PUSH1 0xA0 SHL SUB AND DUP5 DUP5 DUP5 PUSH1 0x40 MLOAD PUSH1 0x24 ADD PUSH2 0xDD8 SWAP4 SWAP3 SWAP2 SWAP1 PUSH2 0x25CF JUMP JUMPDEST PUSH1 0x40 DUP1 MLOAD PUSH1 0x1F NOT DUP2 DUP5 SUB ADD DUP2 MSTORE SWAP2 DUP2 MSTORE PUSH1 0x20 DUP3 ADD DUP1 MLOAD PUSH1 0x1 PUSH1 0x1 PUSH1 0xE0 SHL SUB AND PUSH4 0xAD7CCEEB PUSH1 0xE0 SHL OR SWAP1 MSTORE MLOAD PUSH2 0xE0D SWAP2 SWAP1 PUSH2 0x23DA JUMP JUMPDEST PUSH1 0x0 PUSH1 0x40 MLOAD DUP1 DUP4 SUB DUP2 DUP6 GAS DELEGATECALL SWAP2 POP POP RETURNDATASIZE DUP1 PUSH1 0x0 DUP2 EQ PUSH2 0xE48 JUMPI PUSH1 0x40 MLOAD SWAP2 POP PUSH1 0x1F NOT PUSH1 0x3F RETURNDATASIZE ADD AND DUP3 ADD PUSH1 0x40 MSTORE RETURNDATASIZE DUP3 MSTORE RETURNDATASIZE PUSH1 0x0 PUSH1 0x20 DUP5 ADD RETURNDATACOPY PUSH2 0xE4D JUMP JUMPDEST PUSH1 0x60 SWAP2 POP JUMPDEST POP POP SWAP1 POP DUP1 PUSH2 0xE63 JUMPI PUSH1 0x40 MLOAD RETURNDATASIZE DUP1 PUSH1 0x0 DUP4 RETURNDATACOPY DUP1 DUP3 REVERT JUMPDEST POP POP POP POP JUMP JUMPDEST PUSH1 0x60 PUSH1 0x83 DUP1 SLOAD DUP1 PUSH1 0x20 MUL PUSH1 0x20 ADD PUSH1 0x40 MLOAD SWAP1 DUP2 ADD PUSH1 0x40 MSTORE DUP1 SWAP3 SWAP2 SWAP1 DUP2 DUP2 MSTORE PUSH1 0x20 ADD PUSH1 0x0 SWAP1 JUMPDEST DUP3 DUP3 LT ISZERO PUSH2 0x8F0 JUMPI PUSH1 0x0 DUP5 DUP2 MSTORE PUSH1 0x20 SWAP1 DUP2 SWAP1 KECCAK256 PUSH1 0x40 DUP1 MLOAD PUSH2 0x120 DUP2 ADD SWAP1 SWAP2 MSTORE PUSH1 0x7 DUP6 MUL SWAP1 SWAP2 ADD DUP1 SLOAD PUSH1 0x1 PUSH1 0x1 PUSH1 0xA0 SHL SUB DUP2 AND DUP4 MSTORE SWAP2 SWAP3 SWAP1 SWAP2 SWAP1 DUP4 ADD SWAP1 PUSH1 0x1 PUSH1 0xA0 SHL SWAP1 DIV PUSH1 0xFF AND PUSH1 0x3 DUP2 GT ISZERO PUSH2 0xEE4 JUMPI PUSH2 0xEE4 PUSH2 0x1FB2 JUMP JUMPDEST PUSH1 0x3 DUP2 GT ISZERO PUSH2 0xEF5 JUMPI PUSH2 0xEF5 PUSH2 0x1FB2 JUMP JUMPDEST DUP2 MSTORE PUSH1 0x20 ADD PUSH1 0x1 DUP3 ADD DUP1 SLOAD PUSH2 0xF09 SWAP1 PUSH2 0x2449 JUMP JUMPDEST DUP1 PUSH1 0x1F ADD PUSH1 0x20 DUP1 SWAP2 DIV MUL PUSH1 0x20 ADD PUSH1 0x40 MLOAD SWAP1 DUP2 ADD PUSH1 0x40 MSTORE DUP1 SWAP3 SWAP2 SWAP1 DUP2 DUP2 MSTORE PUSH1 0x20 ADD DUP3 DUP1 SLOAD PUSH2 0xF35 SWAP1 PUSH2 0x2449 JUMP JUMPDEST DUP1 ISZERO PUSH2 0xF82 JUMPI DUP1 PUSH1 0x1F LT PUSH2 0xF57 JUMPI PUSH2 0x100 DUP1 DUP4 SLOAD DIV MUL DUP4 MSTORE SWAP2 PUSH1 0x20 ADD SWAP2 PUSH2 0xF82 JUMP JUMPDEST DUP3 ADD SWAP2 SWAP1 PUSH1 0x0 MSTORE PUSH1 0x20 PUSH1 0x0 KECCAK256 SWAP1 JUMPDEST DUP2 SLOAD DUP2 MSTORE SWAP1 PUSH1 0x1 ADD SWAP1 PUSH1 0x20 ADD DUP1 DUP4 GT PUSH2 0xF65 JUMPI DUP3 SWAP1 SUB PUSH1 0x1F AND DUP3 ADD SWAP2 JUMPDEST POP POP POP SWAP2 DUP4 MSTORE POP POP PUSH1 0x2 DUP3 ADD SLOAD PUSH1 0x20 DUP1 DUP4 ADD SWAP2 SWAP1 SWAP2 MSTORE PUSH1 0x3 DUP4 ADD SLOAD PUSH1 0x40 DUP4 ADD MSTORE PUSH1 0x4 DUP4 ADD SLOAD PUSH1 0x60 DUP4 ADD MSTORE PUSH1 0x5 DUP4 ADD SLOAD PUSH1 0xFF DUP1 DUP3 AND ISZERO ISZERO PUSH1 0x80 DUP6 ADD MSTORE PUSH2 0x100 SWAP1 SWAP2 DIV AND ISZERO ISZERO PUSH1 0xA0 DUP4 ADD MSTORE PUSH1 0x6 SWAP1 SWAP3 ADD SLOAD PUSH1 0xC0 SWAP1 SWAP2 ADD MSTORE SWAP1 DUP3 MSTORE PUSH1 0x1 SWAP3 SWAP1 SWAP3 ADD SWAP2 ADD PUSH2 0xE8D JUMP JUMPDEST PUSH1 0xC2 SLOAD PUSH1 0x40 DUP1 MLOAD PUSH4 0xA327AB69 PUSH1 0xE0 SHL DUP2 MSTORE SWAP1 MLOAD PUSH1 0x0 SWAP3 PUSH1 0x1 PUSH1 0x1 PUSH1 0xA0 SHL SUB AND SWAP2 PUSH4 0xA327AB69 SWAP2 PUSH1 0x4 DUP1 DUP4 ADD SWAP3 PUSH1 0x20 SWAP3 SWAP2 SWAP1 DUP3 SWAP1 SUB ADD DUP2 DUP7 GAS STATICCALL ISZERO DUP1 ISZERO PUSH2 0x1031 JUMPI RETURNDATASIZE PUSH1 0x0 DUP1 RETURNDATACOPY RETURNDATASIZE PUSH1 0x0 REVERT JUMPDEST POP POP POP POP PUSH1 0x40 MLOAD RETURNDATASIZE PUSH1 0x1F NOT PUSH1 0x1F DUP3 ADD AND DUP3 ADD DUP1 PUSH1 0x40 MSTORE POP DUP2 ADD SWAP1 PUSH2 0x1055 SWAP2 SWAP1 PUSH2 0x2358 JUMP JUMPDEST PUSH1 0x1 PUSH1 0x1 PUSH1 0xA0 SHL SUB AND DUP6 DUP6 DUP6 DUP6 PUSH1 0x40 MLOAD PUSH1 0x24 ADD PUSH2 0x1075 SWAP5 SWAP4 SWAP3 SWAP2 SWAP1 PUSH2 0x2606 JUMP JUMPDEST PUSH1 0x40 DUP1 MLOAD PUSH1 0x1F NOT DUP2 DUP5 SUB ADD DUP2 MSTORE SWAP2 DUP2 MSTORE PUSH1 0x20 DUP3 ADD DUP1 MLOAD PUSH1 0x1 PUSH1 0x1 PUSH1 0xE0 SHL SUB AND PUSH4 0x18567541 PUSH1 0xE3 SHL OR SWAP1 MSTORE MLOAD PUSH2 0x10AA SWAP2 SWAP1 PUSH2 0x23DA JUMP JUMPDEST PUSH1 0x0 PUSH1 0x40 MLOAD DUP1 DUP4 SUB DUP2 DUP6 GAS DELEGATECALL SWAP2 POP POP RETURNDATASIZE DUP1 PUSH1 0x0 DUP2 EQ PUSH2 0x10E5 JUMPI PUSH1 0x40 MLOAD SWAP2 POP PUSH1 0x1F NOT PUSH1 0x3F RETURNDATASIZE ADD AND DUP3 ADD PUSH1 0x40 MSTORE RETURNDATASIZE DUP3 MSTORE RETURNDATASIZE PUSH1 0x0 PUSH1 0x20 DUP5 ADD RETURNDATACOPY PUSH2 0x10EA JUMP JUMPDEST PUSH1 0x60 SWAP2 POP JUMPDEST POP POP SWAP1 POP DUP1 PUSH2 0x1100 JUMPI PUSH1 0x40 MLOAD RETURNDATASIZE DUP1 PUSH1 0x0 DUP4 RETURNDATACOPY DUP1 DUP3 REVERT JUMPDEST POP POP POP POP POP JUMP JUMPDEST PUSH1 0xA4 PUSH1 0x20 SWAP1 DUP2 MSTORE PUSH1 0x0 SWAP3 DUP4 MSTORE PUSH1 0x40 DUP1 DUP5 KECCAK256 SWAP1 SWAP2 MSTORE SWAP1 DUP3 MSTORE SWAP1 KECCAK256 DUP1 SLOAD PUSH1 0x1 DUP3 ADD DUP1 SLOAD PUSH1 0xFF DUP1 DUP5 AND SWAP5 PUSH2 0x100 SWAP1 SWAP5 DIV AND SWAP3 SWAP2 SWAP1 PUSH2 0x1141 SWAP1 PUSH2 0x2449 JUMP JUMPDEST DUP1 PUSH1 0x1F ADD PUSH1 0x20 DUP1 SWAP2 DIV MUL PUSH1 0x20 ADD PUSH1 0x40 MLOAD SWAP1 DUP2 ADD PUSH1 0x40 MSTORE DUP1 SWAP3 SWAP2 SWAP1 DUP2 DUP2 MSTORE PUSH1 0x20 ADD DUP3 DUP1 SLOAD PUSH2 0x116D SWAP1 PUSH2 0x2449 JUMP JUMPDEST DUP1 ISZERO PUSH2 0x11BA JUMPI DUP1 PUSH1 0x1F LT PUSH2 0x118F JUMPI PUSH2 0x100 DUP1 DUP4 SLOAD DIV MUL DUP4 MSTORE SWAP2 PUSH1 0x20 ADD SWAP2 PUSH2 0x11BA JUMP JUMPDEST DUP3 ADD SWAP2 SWAP1 PUSH1 0x0 MSTORE PUSH1 0x20 PUSH1 0x0 KECCAK256 SWAP1 JUMPDEST DUP2 SLOAD DUP2 MSTORE SWAP1 PUSH1 0x1 ADD SWAP1 PUSH1 0x20 ADD DUP1 DUP4 GT PUSH2 0x119D JUMPI DUP3 SWAP1 SUB PUSH1 0x1F AND DUP3 ADD SWAP2 JUMPDEST POP POP POP POP POP SWAP1 POP DUP4 JUMP JUMPDEST PUSH1 0x83 DUP2 DUP2 SLOAD DUP2 LT PUSH2 0x11D4 JUMPI PUSH1 0x0 DUP1 REVERT JUMPDEST PUSH1 0x0 SWAP2 DUP3 MSTORE PUSH1 0x20 SWAP1 SWAP2 KECCAK256 PUSH1 0x7 SWAP1 SWAP2 MUL ADD DUP1 SLOAD PUSH1 0x1 DUP3 ADD DUP1 SLOAD PUSH1 0x1 PUSH1 0x1 PUSH1 0xA0 SHL SUB DUP4 AND SWAP5 POP PUSH1 0x1 PUSH1 0xA0 SHL SWAP1 SWAP3 DIV PUSH1 0xFF AND SWAP3 SWAP2 PUSH2 0x120E SWAP1 PUSH2 0x2449 JUMP JUMPDEST DUP1 PUSH1 0x1F ADD PUSH1 0x20 DUP1 SWAP2 DIV MUL PUSH1 0x20 ADD PUSH1 0x40 MLOAD SWAP1 DUP2 ADD PUSH1 0x40 MSTORE DUP1 SWAP3 SWAP2 SWAP1 DUP2 DUP2 MSTORE PUSH1 0x20 ADD DUP3 DUP1 SLOAD PUSH2 0x123A SWAP1 PUSH2 0x2449 JUMP JUMPDEST DUP1 ISZERO PUSH2 0x1287 JUMPI DUP1 PUSH1 0x1F LT PUSH2 0x125C JUMPI PUSH2 0x100 DUP1 DUP4 SLOAD DIV MUL DUP4 MSTORE SWAP2 PUSH1 0x20 ADD SWAP2 PUSH2 0x1287 JUMP JUMPDEST DUP3 ADD SWAP2 SWAP1 PUSH1 0x0 MSTORE PUSH1 0x20 PUSH1 0x0 KECCAK256 SWAP1 JUMPDEST DUP2 SLOAD DUP2 MSTORE SWAP1 PUSH1 0x1 ADD SWAP1 PUSH1 0x20 ADD DUP1 DUP4 GT PUSH2 0x126A JUMPI DUP3 SWAP1 SUB PUSH1 0x1F AND DUP3 ADD SWAP2 JUMPDEST POP POP POP PUSH1 0x2 DUP5 ADD SLOAD PUSH1 0x3 DUP6 ADD SLOAD PUSH1 0x4 DUP7 ADD SLOAD PUSH1 0x5 DUP8 ADD SLOAD PUSH1 0x6 SWAP1 SWAP8 ADD SLOAD SWAP6 SWAP7 SWAP3 SWAP6 SWAP2 SWAP5 POP SWAP3 POP PUSH1 0xFF DUP1 DUP4 AND SWAP3 PUSH2 0x100 SWAP1 DIV AND SWAP1 DUP10 JUMP JUMPDEST PUSH1 0x60 PUSH2 0x12C7 PUSH2 0x1815 JUMP JUMPDEST PUSH2 0x12CF PUSH2 0x1833 JUMP JUMPDEST PUSH2 0x12D7 PUSH2 0x1851 JUMP JUMPDEST PUSH1 0x0 PUSH1 0x42 DUP1 SLOAD PUSH2 0x12E6 SWAP1 PUSH2 0x2449 JUMP JUMPDEST DUP1 PUSH1 0x1F ADD PUSH1 0x20 DUP1 SWAP2 DIV MUL PUSH1 0x20 ADD PUSH1 0x40 MLOAD SWAP1 DUP2 ADD PUSH1 0x40 MSTORE DUP1 SWAP3 SWAP2 SWAP1 DUP2 DUP2 MSTORE PUSH1 0x20 ADD DUP3 DUP1 SLOAD PUSH2 0x1312 SWAP1 PUSH2 0x2449 JUMP JUMPDEST DUP1 ISZERO PUSH2 0x135F JUMPI DUP1 PUSH1 0x1F LT PUSH2 0x1334 JUMPI PUSH2 0x100 DUP1 DUP4 SLOAD DIV MUL DUP4 MSTORE SWAP2 PUSH1 0x20 ADD SWAP2 PUSH2 0x135F JUMP JUMPDEST DUP3 ADD SWAP2 SWAP1 PUSH1 0x0 MSTORE PUSH1 0x20 PUSH1 0x0 KECCAK256 SWAP1 JUMPDEST DUP2 SLOAD DUP2 MSTORE SWAP1 PUSH1 0x1 ADD SWAP1 PUSH1 0x20 ADD DUP1 DUP4 GT PUSH2 0x1342 JUMPI DUP3 SWAP1 SUB PUSH1 0x1F AND DUP3 ADD SWAP2 JUMPDEST POP POP PUSH1 0x0 DUP1 SLOAD SWAP5 SWAP10 POP PUSH1 0xFF SWAP1 SWAP5 AND SWAP4 DUP9 SWAP4 POP SWAP2 POP PUSH2 0x137A SWAP1 POP JUMP JUMPDEST SWAP2 ISZERO ISZERO PUSH1 0x20 SWAP3 DUP4 MUL SWAP2 SWAP1 SWAP2 ADD MSTORE PUSH1 0x0 SLOAD PUSH2 0x100 SWAP1 DIV PUSH1 0xFF AND ISZERO ISZERO DUP6 DUP3 ADD MSTORE PUSH1 0x2 SLOAD DUP5 MSTORE PUSH1 0x3 SLOAD DUP5 DUP3 ADD MSTORE PUSH1 0x4 SLOAD PUSH1 0x40 DUP1 DUP7 ADD SWAP2 SWAP1 SWAP2 MSTORE PUSH1 0x5 SLOAD PUSH1 0x60 DUP1 DUP8 ADD SWAP2 SWAP1 SWAP2 MSTORE PUSH1 0x6 SLOAD PUSH1 0x80 DUP1 DUP9 ADD SWAP2 SWAP1 SWAP2 MSTORE PUSH1 0xC2 SLOAD PUSH1 0x1 PUSH1 0x1 PUSH1 0xA0 SHL SUB SWAP1 DUP2 AND DUP8 MSTORE PUSH1 0xC3 SLOAD DUP2 AND SWAP5 DUP8 ADD SWAP5 SWAP1 SWAP5 MSTORE PUSH1 0xC4 SLOAD DUP5 AND SWAP3 DUP7 ADD SWAP3 SWAP1 SWAP3 MSTORE PUSH1 0xC5 SLOAD DUP4 AND SWAP1 DUP6 ADD MSTORE PUSH1 0xC6 SLOAD DUP3 AND SWAP1 DUP5 ADD MSTORE PUSH1 0x22 SLOAD AND PUSH1 0xA0 DUP4 ADD MSTORE POP PUSH1 0x62 SLOAD SWAP4 SWAP5 SWAP3 SWAP4 SWAP2 SWAP3 SWAP1 SWAP2 SWAP1 JUMP JUMPDEST DUP1 MLOAD CALLER SWAP1 PUSH1 0x41 EQ ISZERO PUSH2 0x14A6 JUMPI PUSH1 0xC3 SLOAD PUSH1 0x40 MLOAD PUSH4 0x62423C75 PUSH1 0xE0 SHL DUP2 MSTORE PUSH1 0x1 PUSH1 0x1 PUSH1 0xA0 SHL SUB SWAP1 SWAP2 AND SWAP1 PUSH4 0x62423C75 SWAP1 PUSH2 0x145A SWAP1 DUP7 SWAP1 ADDRESS SWAP1 DUP8 SWAP1 PUSH1 0x4 ADD PUSH2 0x2639 JUMP JUMPDEST PUSH1 0x20 PUSH1 0x40 MLOAD DUP1 DUP4 SUB DUP2 DUP7 GAS STATICCALL ISZERO DUP1 ISZERO PUSH2 0x1477 JUMPI RETURNDATASIZE PUSH1 0x0 DUP1 RETURNDATACOPY RETURNDATASIZE PUSH1 0x0 REVERT JUMPDEST POP POP POP POP PUSH1 0x40 MLOAD RETURNDATASIZE PUSH1 0x1F NOT PUSH1 0x1F DUP3 ADD AND DUP3 ADD DUP1 PUSH1 0x40 MSTORE POP DUP2 ADD SWAP1 PUSH2 0x149B SWAP2 SWAP1 PUSH2 0x2358 JUMP JUMPDEST SWAP1 POP PUSH2 0x14A6 DUP2 PUSH2 0x1757 JUMP JUMPDEST PUSH2 0x14AF DUP2 PUSH2 0x17B0 JUMP JUMPDEST DUP3 MLOAD PUSH2 0x14C2 SWAP1 PUSH1 0x42 SWAP1 PUSH1 0x20 DUP7 ADD SWAP1 PUSH2 0x186F JUMP JUMPDEST POP PUSH32 0x983A5EE7E8A53D590FB3A59D6346EDBA553A9937DAE5DE22717015E98DD805D0 DUP4 PUSH1 0x40 MLOAD PUSH2 0x7A9 SWAP2 SWAP1 PUSH2 0x2345 JUMP JUMPDEST DUP1 MLOAD PUSH1 0x0 SWAP1 CALLER SWAP1 PUSH1 0x41 EQ ISZERO PUSH2 0x1587 JUMPI PUSH1 0xC3 SLOAD PUSH1 0x40 MLOAD PUSH4 0x6D7F81B PUSH1 0xE1 SHL DUP2 MSTORE PUSH1 0x1 PUSH1 0x1 PUSH1 0xA0 SHL SUB SWAP1 SWAP2 AND SWAP1 PUSH4 0xDAFF036 SWAP1 PUSH2 0x153B SWAP1 DUP11 SWAP1 DUP11 SWAP1 DUP11 SWAP1 DUP11 SWAP1 ADDRESS SWAP1 DUP12 SWAP1 PUSH1 0x4 ADD PUSH2 0x266D JUMP JUMPDEST PUSH1 0x20 PUSH1 0x40 MLOAD DUP1 DUP4 SUB DUP2 DUP7 GAS STATICCALL ISZERO DUP1 ISZERO PUSH2 0x1558 JUMPI RETURNDATASIZE PUSH1 0x0 DUP1 RETURNDATACOPY RETURNDATASIZE PUSH1 0x0 REVERT JUMPDEST POP POP POP POP PUSH1 0x40 MLOAD RETURNDATASIZE PUSH1 0x1F NOT PUSH1 0x1F DUP3 ADD AND DUP3 ADD DUP1 PUSH1 0x40 MSTORE POP DUP2 ADD SWAP1 PUSH2 0x157C SWAP2 SWAP1 PUSH2 0x2358 JUMP JUMPDEST SWAP1 POP PUSH2 0x1587 DUP2 PUSH2 0x1757 JUMP JUMPDEST PUSH2 0x1590 DUP2 PUSH2 0x17B0 JUMP JUMPDEST PUSH1 0x0 DUP2 DUP9 PUSH1 0x0 DUP10 DUP10 DUP10 PUSH1 0x40 MLOAD PUSH1 0x24 ADD PUSH2 0x15AE SWAP7 SWAP6 SWAP5 SWAP4 SWAP3 SWAP2 SWAP1 PUSH2 0x26B3 JUMP JUMPDEST PUSH1 0x40 DUP1 MLOAD PUSH1 0x1F NOT DUP2 DUP5 SUB ADD DUP2 MSTORE SWAP2 SWAP1 MSTORE PUSH1 0x20 DUP2 ADD DUP1 MLOAD PUSH1 0x1 PUSH1 0x1 PUSH1 0xE0 SHL SUB AND PUSH4 0x6EADDE43 PUSH1 0xE0 SHL OR SWAP1 MSTORE SWAP1 POP PUSH1 0x0 PUSH1 0x5 CHAINID EQ ISZERO PUSH2 0x1600 JUMPI POP PUSH20 0x627118A4FB747016911E5CDA82E2E77C531E8206 PUSH2 0x16B6 JUMP JUMPDEST CHAINID PUSH1 0x89 EQ ISZERO PUSH2 0x1624 JUMPI POP PUSH20 0xE8E5CD156F89F7BDB267EABD5C43AF3D5AF2A78F PUSH2 0x16B6 JUMP JUMPDEST CHAINID PUSH3 0x13881 EQ ISZERO PUSH2 0x164A JUMPI POP PUSH20 0x1FF7E338D5E582138C46044DC238543CE555C963 PUSH2 0x16B6 JUMP JUMPDEST CHAINID PUSH1 0x1 EQ ISZERO PUSH2 0x166E JUMPI POP PUSH20 0x3D5409CCE1D45233DE1D4EBDEE74B8E004ABDD13 PUSH2 0x16B6 JUMP JUMPDEST PUSH1 0x40 MLOAD PUSH3 0x461BCD PUSH1 0xE5 SHL DUP2 MSTORE PUSH1 0x20 PUSH1 0x4 DUP3 ADD MSTORE PUSH1 0x1D PUSH1 0x24 DUP3 ADD MSTORE PUSH32 0x4372656174654C6F636B3A20756E737570706F7274656420636861696E000000 PUSH1 0x44 DUP3 ADD MSTORE PUSH1 0x64 ADD PUSH2 0xAD5 JUMP JUMPDEST PUSH1 0x40 MLOAD PUSH4 0x243D453B PUSH1 0xE1 SHL DUP2 MSTORE DUP2 SWAP1 PUSH1 0x1 PUSH1 0x1 PUSH1 0xA0 SHL SUB DUP3 AND SWAP1 PUSH4 0x487A8A76 SWAP1 PUSH2 0x16E7 SWAP1 DUP7 SWAP1 PUSH1 0xB SWAP1 PUSH1 0x4 ADD PUSH2 0x26FC JUMP JUMPDEST PUSH1 0x20 PUSH1 0x40 MLOAD DUP1 DUP4 SUB DUP2 PUSH1 0x0 DUP8 GAS CALL ISZERO DUP1 ISZERO PUSH2 0x1706 JUMPI RETURNDATASIZE PUSH1 0x0 DUP1 RETURNDATACOPY RETURNDATASIZE PUSH1 0x0 REVERT JUMPDEST POP POP POP POP PUSH1 0x40 MLOAD RETURNDATASIZE PUSH1 0x1F NOT PUSH1 0x1F DUP3 ADD AND DUP3 ADD DUP1 PUSH1 0x40 MSTORE POP DUP2 ADD SWAP1 PUSH2 0x172A SWAP2 SWAP1 PUSH2 0x2358 JUMP JUMPDEST PUSH1 0x22 DUP1 SLOAD PUSH1 0x1 PUSH1 0x1 PUSH1 0xA0 SHL SUB NOT AND PUSH1 0x1 PUSH1 0x1 PUSH1 0xA0 SHL SUB SWAP3 SWAP1 SWAP3 AND SWAP2 DUP3 OR SWAP1 SSTORE SWAP11 SWAP10 POP POP POP POP POP POP POP POP POP POP JUMP JUMPDEST PUSH1 0x1 PUSH1 0x1 PUSH1 0xA0 SHL SUB DUP2 AND PUSH2 0x17AD JUMPI PUSH1 0x40 MLOAD PUSH3 0x461BCD PUSH1 0xE5 SHL DUP2 MSTORE PUSH1 0x20 PUSH1 0x4 DUP3 ADD MSTORE PUSH1 0x18 PUSH1 0x24 DUP3 ADD MSTORE PUSH32 0x45434453413A20696E76616C6964207369676E61747572650000000000000000 PUSH1 0x44 DUP3 ADD MSTORE PUSH1 0x64 ADD PUSH2 0xAD5 JUMP JUMPDEST POP JUMP JUMPDEST PUSH1 0x1 PUSH1 0x1 PUSH1 0xA0 SHL SUB DUP2 AND PUSH1 0x0 SWAP1 DUP2 MSTORE PUSH1 0xA2 PUSH1 0x20 MSTORE PUSH1 0x40 SWAP1 KECCAK256 PUSH1 0x2 ADD SLOAD PUSH1 0xFF AND ISZERO ISZERO PUSH1 0x1 EQ PUSH2 0x17AD JUMPI PUSH1 0x40 MLOAD PUSH3 0x461BCD PUSH1 0xE5 SHL DUP2 MSTORE PUSH1 0x20 PUSH1 0x4 DUP3 ADD MSTORE PUSH1 0x12 PUSH1 0x24 DUP3 ADD MSTORE PUSH18 0x4E6F74206D616E6167657220726967687473 PUSH1 0x70 SHL PUSH1 0x44 DUP3 ADD MSTORE PUSH1 0x64 ADD PUSH2 0xAD5 JUMP JUMPDEST PUSH1 0x40 MLOAD DUP1 PUSH1 0x40 ADD PUSH1 0x40 MSTORE DUP1 PUSH1 0x2 SWAP1 PUSH1 0x20 DUP3 MUL DUP1 CALLDATASIZE DUP4 CALLDATACOPY POP SWAP2 SWAP3 SWAP2 POP POP JUMP JUMPDEST PUSH1 0x40 MLOAD DUP1 PUSH1 0xA0 ADD PUSH1 0x40 MSTORE DUP1 PUSH1 0x5 SWAP1 PUSH1 0x20 DUP3 MUL DUP1 CALLDATASIZE DUP4 CALLDATACOPY POP SWAP2 SWAP3 SWAP2 POP POP JUMP JUMPDEST PUSH1 0x40 MLOAD DUP1 PUSH1 0xC0 ADD PUSH1 0x40 MSTORE DUP1 PUSH1 0x6 SWAP1 PUSH1 0x20 DUP3 MUL DUP1 CALLDATASIZE DUP4 CALLDATACOPY POP SWAP2 SWAP3 SWAP2 POP POP JUMP JUMPDEST DUP3 DUP1 SLOAD PUSH2 0x187B SWAP1 PUSH2 0x2449 JUMP JUMPDEST SWAP1 PUSH1 0x0 MSTORE PUSH1 0x20 PUSH1 0x0 KECCAK256 SWAP1 PUSH1 0x1F ADD PUSH1 0x20 SWAP1 DIV DUP2 ADD SWAP3 DUP3 PUSH2 0x189D JUMPI PUSH1 0x0 DUP6 SSTORE PUSH2 0x18E3 JUMP JUMPDEST DUP3 PUSH1 0x1F LT PUSH2 0x18B6 JUMPI DUP1 MLOAD PUSH1 0xFF NOT AND DUP4 DUP1 ADD OR DUP6 SSTORE PUSH2 0x18E3 JUMP JUMPDEST DUP3 DUP1 ADD PUSH1 0x1 ADD DUP6 SSTORE DUP3 ISZERO PUSH2 0x18E3 JUMPI SWAP2 DUP3 ADD JUMPDEST DUP3 DUP2 GT ISZERO PUSH2 0x18E3 JUMPI DUP3 MLOAD DUP3 SSTORE SWAP2 PUSH1 0x20 ADD SWAP2 SWAP1 PUSH1 0x1 ADD SWAP1 PUSH2 0x18C8 JUMP JUMPDEST POP PUSH2 0x18EF SWAP3 SWAP2 POP PUSH2 0x18F3 JUMP JUMPDEST POP SWAP1 JUMP JUMPDEST JUMPDEST DUP1 DUP3 GT ISZERO PUSH2 0x18EF JUMPI PUSH1 0x0 DUP2 SSTORE PUSH1 0x1 ADD PUSH2 0x18F4 JUMP JUMPDEST PUSH1 0x1 PUSH1 0x1 PUSH1 0xA0 SHL SUB DUP2 AND DUP2 EQ PUSH2 0x17AD JUMPI PUSH1 0x0 DUP1 REVERT JUMPDEST PUSH4 0x4E487B71 PUSH1 0xE0 SHL PUSH1 0x0 MSTORE PUSH1 0x41 PUSH1 0x4 MSTORE PUSH1 0x24 PUSH1 0x0 REVERT JUMPDEST PUSH1 0x40 MLOAD PUSH1 0xE0 DUP2 ADD PUSH1 0x1 PUSH1 0x1 PUSH1 0x40 SHL SUB DUP2 GT DUP3 DUP3 LT OR ISZERO PUSH2 0x1955 JUMPI PUSH2 0x1955 PUSH2 0x191D JUMP JUMPDEST PUSH1 0x40 MSTORE SWAP1 JUMP JUMPDEST PUSH1 0x40 MLOAD PUSH1 0x1F DUP3 ADD PUSH1 0x1F NOT AND DUP2 ADD PUSH1 0x1 PUSH1 0x1 PUSH1 0x40 SHL SUB DUP2 GT DUP3 DUP3 LT OR ISZERO PUSH2 0x1983 JUMPI PUSH2 0x1983 PUSH2 0x191D JUMP JUMPDEST PUSH1 0x40 MSTORE SWAP2 SWAP1 POP JUMP JUMPDEST PUSH1 0x0 DUP3 PUSH1 0x1F DUP4 ADD SLT PUSH2 0x199C JUMPI PUSH1 0x0 DUP1 REVERT JUMPDEST DUP2 CALLDATALOAD PUSH1 0x1 PUSH1 0x1 PUSH1 0x40 SHL SUB DUP2 GT ISZERO PUSH2 0x19B5 JUMPI PUSH2 0x19B5 PUSH2 0x191D JUMP JUMPDEST PUSH2 0x19C8 PUSH1 0x1F DUP3 ADD PUSH1 0x1F NOT AND PUSH1 0x20 ADD PUSH2 0x195B JUMP JUMPDEST DUP2 DUP2 MSTORE DUP5 PUSH1 0x20 DUP4 DUP7 ADD ADD GT ISZERO PUSH2 0x19DD JUMPI PUSH1 0x0 DUP1 REVERT JUMPDEST DUP2 PUSH1 0x20 DUP6 ADD PUSH1 0x20 DUP4 ADD CALLDATACOPY PUSH1 0x0 SWAP2 DUP2 ADD PUSH1 0x20 ADD SWAP2 SWAP1 SWAP2 MSTORE SWAP4 SWAP3 POP POP POP JUMP JUMPDEST DUP1 CALLDATALOAD DUP1 ISZERO ISZERO DUP2 EQ PUSH2 0x1A0A JUMPI PUSH1 0x0 DUP1 REVERT JUMPDEST SWAP2 SWAP1 POP JUMP JUMPDEST PUSH1 0x0 DUP1 PUSH1 0x0 DUP1 PUSH1 0x0 DUP1 PUSH1 0xC0 DUP8 DUP10 SUB SLT ISZERO PUSH2 0x1A28 JUMPI PUSH1 0x0 DUP1 REVERT JUMPDEST DUP7 CALLDATALOAD PUSH2 0x1A33 DUP2 PUSH2 0x1908 JUMP JUMPDEST SWAP6 POP PUSH1 0x20 DUP8 ADD CALLDATALOAD PUSH1 0x1 PUSH1 0x1 PUSH1 0x40 SHL SUB DUP1 DUP3 GT ISZERO PUSH2 0x1A4F JUMPI PUSH1 0x0 DUP1 REVERT JUMPDEST PUSH2 0x1A5B DUP11 DUP4 DUP12 ADD PUSH2 0x198B JUMP JUMPDEST SWAP7 POP PUSH1 0x40 DUP10 ADD CALLDATALOAD SWAP2 POP DUP1 DUP3 GT ISZERO PUSH2 0x1A71 JUMPI PUSH1 0x0 DUP1 REVERT JUMPDEST PUSH2 0x1A7D DUP11 DUP4 DUP12 ADD PUSH2 0x198B JUMP JUMPDEST SWAP6 POP PUSH2 0x1A8B PUSH1 0x60 DUP11 ADD PUSH2 0x19FA JUMP JUMPDEST SWAP5 POP PUSH1 0x80 DUP10 ADD CALLDATALOAD SWAP4 POP PUSH1 0xA0 DUP10 ADD CALLDATALOAD SWAP2 POP DUP1 DUP3 GT ISZERO PUSH2 0x1AA8 JUMPI PUSH1 0x0 DUP1 REVERT JUMPDEST POP PUSH2 0x1AB5 DUP10 DUP3 DUP11 ADD PUSH2 0x198B JUMP JUMPDEST SWAP2 POP POP SWAP3 SWAP6 POP SWAP3 SWAP6 POP SWAP3 SWAP6 JUMP JUMPDEST PUSH1 0x0 DUP1 PUSH1 0x0 DUP1 PUSH1 0x80 DUP6 DUP8 SUB SLT ISZERO PUSH2 0x1AD8 JUMPI PUSH1 0x0 DUP1 REVERT JUMPDEST DUP5 CALLDATALOAD PUSH1 0x1 PUSH1 0x1 PUSH1 0x40 SHL SUB DUP1 DUP3 GT ISZERO PUSH2 0x1AEF JUMPI PUSH1 0x0 DUP1 REVERT JUMPDEST PUSH2 0x1AFB DUP9 DUP4 DUP10 ADD PUSH2 0x198B JUMP JUMPDEST SWAP6 POP PUSH1 0x20 DUP8 ADD CALLDATALOAD SWAP2 POP DUP1 DUP3 GT ISZERO PUSH2 0x1B11 JUMPI PUSH1 0x0 DUP1 REVERT JUMPDEST PUSH2 0x1B1D DUP9 DUP4 DUP10 ADD PUSH2 0x198B JUMP JUMPDEST SWAP5 POP PUSH1 0x40 DUP8 ADD CALLDATALOAD SWAP2 POP PUSH2 0x1B2F DUP3 PUSH2 0x1908 JUMP JUMPDEST SWAP1 SWAP3 POP PUSH1 0x60 DUP7 ADD CALLDATALOAD SWAP1 DUP1 DUP3 GT ISZERO PUSH2 0x1B45 JUMPI PUSH1 0x0 DUP1 REVERT JUMPDEST POP PUSH2 0x1B52 DUP8 DUP3 DUP9 ADD PUSH2 0x198B JUMP JUMPDEST SWAP2 POP POP SWAP3 SWAP6 SWAP2 SWAP5 POP SWAP3 POP JUMP JUMPDEST PUSH1 0x0 PUSH1 0x20 DUP3 DUP5 SUB SLT ISZERO PUSH2 0x1B70 JUMPI PUSH1 0x0 DUP1 REVERT JUMPDEST POP CALLDATALOAD SWAP2 SWAP1 POP JUMP JUMPDEST PUSH1 0x0 JUMPDEST DUP4 DUP2 LT ISZERO PUSH2 0x1B92 JUMPI DUP2 DUP2 ADD MLOAD DUP4 DUP3 ADD MSTORE PUSH1 0x20 ADD PUSH2 0x1B7A JUMP JUMPDEST DUP4 DUP2 GT ISZERO PUSH2 0xE63 JUMPI POP POP PUSH1 0x0 SWAP2 ADD MSTORE JUMP JUMPDEST PUSH1 0x0 DUP2 MLOAD DUP1 DUP5 MSTORE PUSH2 0x1BBB DUP2 PUSH1 0x20 DUP7 ADD PUSH1 0x20 DUP7 ADD PUSH2 0x1B77 JUMP JUMPDEST PUSH1 0x1F ADD PUSH1 0x1F NOT AND SWAP3 SWAP1 SWAP3 ADD PUSH1 0x20 ADD SWAP3 SWAP2 POP POP JUMP JUMPDEST PUSH1 0x1 PUSH1 0x1 PUSH1 0xA0 SHL SUB DUP5 AND DUP2 MSTORE PUSH1 0x60 PUSH1 0x20 DUP3 ADD DUP2 SWAP1 MSTORE PUSH1 0x0 SWAP1 PUSH2 0x1BF3 SWAP1 DUP4 ADD DUP6 PUSH2 0x1BA3 JUMP JUMPDEST SWAP1 POP DUP3 ISZERO ISZERO PUSH1 0x40 DUP4 ADD MSTORE SWAP5 SWAP4 POP POP POP POP JUMP JUMPDEST PUSH1 0x0 DUP1 PUSH1 0x40 DUP4 DUP6 SUB SLT ISZERO PUSH2 0x1C18 JUMPI PUSH1 0x0 DUP1 REVERT JUMPDEST DUP3 CALLDATALOAD PUSH2 0x1C23 DUP2 PUSH2 0x1908 JUMP JUMPDEST SWAP2 POP PUSH1 0x20 DUP4 ADD CALLDATALOAD PUSH1 0x1 PUSH1 0x1 PUSH1 0x40 SHL SUB DUP2 GT ISZERO PUSH2 0x1C3E JUMPI PUSH1 0x0 DUP1 REVERT JUMPDEST PUSH2 0x1C4A DUP6 DUP3 DUP7 ADD PUSH2 0x198B JUMP JUMPDEST SWAP2 POP POP SWAP3 POP SWAP3 SWAP1 POP JUMP JUMPDEST PUSH1 0x0 PUSH1 0x20 DUP1 DUP4 ADD DUP2 DUP5 MSTORE DUP1 DUP6 MLOAD DUP1 DUP4 MSTORE PUSH1 0x40 SWAP3 POP DUP3 DUP7 ADD SWAP2 POP DUP3 DUP2 PUSH1 0x5 SHL DUP8 ADD ADD DUP5 DUP9 ADD PUSH1 0x0 JUMPDEST DUP4 DUP2 LT ISZERO PUSH2 0x1CD4 JUMPI DUP9 DUP4 SUB PUSH1 0x3F NOT ADD DUP6 MSTORE DUP2 MLOAD DUP1 MLOAD PUSH1 0x1 PUSH1 0x1 PUSH1 0xA0 SHL SUB AND DUP5 MSTORE DUP8 DUP2 ADD MLOAD PUSH1 0x60 DUP10 DUP7 ADD DUP2 SWAP1 MSTORE SWAP1 PUSH2 0x1CB4 DUP3 DUP8 ADD DUP3 PUSH2 0x1BA3 JUMP JUMPDEST SWAP3 DUP10 ADD MLOAD ISZERO ISZERO SWAP6 DUP10 ADD SWAP6 SWAP1 SWAP6 MSTORE POP SWAP5 DUP8 ADD SWAP5 SWAP3 POP SWAP1 DUP7 ADD SWAP1 PUSH1 0x1 ADD PUSH2 0x1C7B JUMP JUMPDEST POP SWAP1 SWAP9 SWAP8 POP POP POP POP POP POP POP POP JUMP JUMPDEST PUSH1 0x0 DUP1 PUSH1 0x0 DUP1 PUSH1 0x80 DUP6 DUP8 SUB SLT ISZERO PUSH2 0x1CF8 JUMPI PUSH1 0x0 DUP1 REVERT JUMPDEST DUP5 CALLDATALOAD PUSH2 0x1D03 DUP2 PUSH2 0x1908 JUMP JUMPDEST SWAP4 POP PUSH1 0x20 DUP6 ADD CALLDATALOAD PUSH1 0x1 PUSH1 0x1 PUSH1 0x40 SHL SUB DUP1 DUP3 GT ISZERO PUSH2 0x1D1F JUMPI PUSH1 0x0 DUP1 REVERT JUMPDEST PUSH2 0x1D2B DUP9 DUP4 DUP10 ADD PUSH2 0x198B JUMP JUMPDEST SWAP5 POP PUSH1 0x40 DUP8 ADD CALLDATALOAD SWAP4 POP PUSH1 0x60 DUP8 ADD CALLDATALOAD SWAP2 POP DUP1 DUP3 GT ISZERO PUSH2 0x1B45 JUMPI PUSH1 0x0 DUP1 REVERT JUMPDEST PUSH1 0x0 DUP1 PUSH1 0x0 DUP1 PUSH1 0x0 DUP1 PUSH2 0x180 DUP1 DUP9 DUP11 SUB SLT ISZERO PUSH2 0x1D63 JUMPI PUSH1 0x0 DUP1 REVERT JUMPDEST DUP8 CALLDATALOAD PUSH2 0x1D6E DUP2 PUSH2 0x1908 JUMP JUMPDEST SWAP7 POP PUSH1 0x20 DUP9 DUP2 ADD CALLDATALOAD PUSH1 0x1 PUSH1 0x1 PUSH1 0x40 SHL SUB DUP2 GT ISZERO PUSH2 0x1D8A JUMPI PUSH1 0x0 DUP1 REVERT JUMPDEST PUSH2 0x1D96 DUP12 DUP3 DUP13 ADD PUSH2 0x198B JUMP JUMPDEST SWAP8 POP POP PUSH2 0x1DA5 PUSH1 0x40 DUP11 ADD PUSH2 0x19FA JUMP JUMPDEST SWAP6 POP PUSH2 0x1DB3 PUSH1 0x60 DUP11 ADD PUSH2 0x19FA JUMP JUMPDEST SWAP5 POP PUSH1 0x80 DUP10 ADD CALLDATALOAD SWAP4 POP DUP10 PUSH1 0xBF DUP11 ADD SLT PUSH2 0x1DCB JUMPI PUSH1 0x0 DUP1 REVERT JUMPDEST PUSH2 0x1DD3 PUSH2 0x1933 JUMP JUMPDEST SWAP2 DUP10 ADD SWAP2 DUP1 DUP12 DUP5 GT ISZERO PUSH2 0x1DE5 JUMPI PUSH1 0x0 DUP1 REVERT JUMPDEST PUSH1 0xA0 DUP12 ADD JUMPDEST DUP5 DUP2 LT ISZERO PUSH2 0x1E0A JUMPI DUP1 CALLDATALOAD PUSH2 0x1DFD DUP2 PUSH2 0x1908 JUMP JUMPDEST DUP4 MSTORE SWAP2 DUP4 ADD SWAP2 DUP4 ADD PUSH2 0x1DEA JUMP JUMPDEST POP DUP1 SWAP5 POP POP POP POP POP SWAP3 SWAP6 POP SWAP3 SWAP6 POP SWAP3 SWAP6 JUMP JUMPDEST PUSH1 0x0 PUSH1 0x20 DUP3 DUP5 SUB SLT ISZERO PUSH2 0x1E2E JUMPI PUSH1 0x0 DUP1 REVERT JUMPDEST DUP2 CALLDATALOAD PUSH2 0x1E39 DUP2 PUSH2 0x1908 JUMP JUMPDEST SWAP4 SWAP3 POP POP POP JUMP JUMPDEST DUP4 DUP2 MSTORE PUSH1 0x60 PUSH1 0x20 DUP3 ADD MSTORE PUSH1 0x0 PUSH2 0x1BF3 PUSH1 0x60 DUP4 ADD DUP6 PUSH2 0x1BA3 JUMP JUMPDEST PUSH1 0x0 DUP1 PUSH1 0x0 DUP1 PUSH1 0x80 DUP6 DUP8 SUB SLT ISZERO PUSH2 0x1E6F JUMPI PUSH1 0x0 DUP1 REVERT JUMPDEST DUP5 CALLDATALOAD PUSH1 0x1 PUSH1 0x1 PUSH1 0x40 SHL SUB DUP1 DUP3 GT ISZERO PUSH2 0x1E86 JUMPI PUSH1 0x0 DUP1 REVERT JUMPDEST DUP2 DUP8 ADD SWAP2 POP DUP8 PUSH1 0x1F DUP4 ADD SLT PUSH2 0x1E9A JUMPI PUSH1 0x0 DUP1 REVERT JUMPDEST DUP2 CALLDATALOAD PUSH1 0x20 DUP3 DUP3 GT ISZERO PUSH2 0x1EAE JUMPI PUSH2 0x1EAE PUSH2 0x191D JUMP JUMPDEST DUP2 PUSH1 0x5 SHL PUSH2 0x1EBD DUP3 DUP3 ADD PUSH2 0x195B JUMP JUMPDEST SWAP3 DUP4 MSTORE DUP5 DUP2 ADD DUP3 ADD SWAP3 DUP3 DUP2 ADD SWAP1 DUP13 DUP6 GT ISZERO PUSH2 0x1ED7 JUMPI PUSH1 0x0 DUP1 REVERT JUMPDEST SWAP6 DUP4 ADD SWAP6 JUMPDEST DUP5 DUP8 LT ISZERO PUSH2 0x1EF5 JUMPI DUP7 CALLDATALOAD DUP3 MSTORE SWAP6 DUP4 ADD SWAP6 SWAP1 DUP4 ADD SWAP1 PUSH2 0x1EDC JUMP JUMPDEST SWAP10 POP PUSH2 0x1F05 SWAP2 POP POP DUP10 DUP3 ADD PUSH2 0x19FA JUMP JUMPDEST SWAP7 POP POP POP PUSH1 0x40 DUP8 ADD CALLDATALOAD SWAP2 POP DUP1 DUP3 GT ISZERO PUSH2 0x1F1D JUMPI PUSH1 0x0 DUP1 REVERT JUMPDEST PUSH2 0x1F29 DUP9 DUP4 DUP10 ADD PUSH2 0x198B JUMP JUMPDEST SWAP4 POP PUSH1 0x60 DUP8 ADD CALLDATALOAD SWAP2 POP DUP1 DUP3 GT ISZERO PUSH2 0x1B45 JUMPI PUSH1 0x0 DUP1 REVERT JUMPDEST PUSH1 0x0 DUP1 PUSH1 0x0 PUSH1 0x60 DUP5 DUP7 SUB SLT ISZERO PUSH2 0x1F54 JUMPI PUSH1 0x0 DUP1 REVERT JUMPDEST PUSH2 0x1F5D DUP5 PUSH2 0x19FA JUMP JUMPDEST SWAP3 POP PUSH1 0x20 DUP5 ADD CALLDATALOAD PUSH1 0x1 PUSH1 0x1 PUSH1 0x40 SHL SUB DUP1 DUP3 GT ISZERO PUSH2 0x1F79 JUMPI PUSH1 0x0 DUP1 REVERT JUMPDEST PUSH2 0x1F85 DUP8 DUP4 DUP9 ADD PUSH2 0x198B JUMP JUMPDEST SWAP4 POP PUSH1 0x40 DUP7 ADD CALLDATALOAD SWAP2 POP DUP1 DUP3 GT ISZERO PUSH2 0x1F9B JUMPI PUSH1 0x0 DUP1 REVERT JUMPDEST POP PUSH2 0x1FA8 DUP7 DUP3 DUP8 ADD PUSH2 0x198B JUMP JUMPDEST SWAP2 POP POP SWAP3 POP SWAP3 POP SWAP3 JUMP JUMPDEST PUSH4 0x4E487B71 PUSH1 0xE0 SHL PUSH1 0x0 MSTORE PUSH1 0x21 PUSH1 0x4 MSTORE PUSH1 0x24 PUSH1 0x0 REVERT JUMPDEST PUSH1 0x4 DUP2 LT PUSH2 0x1FE6 JUMPI PUSH4 0x4E487B71 PUSH1 0xE0 SHL PUSH1 0x0 MSTORE PUSH1 0x21 PUSH1 0x4 MSTORE PUSH1 0x24 PUSH1 0x0 REVERT JUMPDEST SWAP1 MSTORE JUMP JUMPDEST PUSH1 0x0 PUSH1 0x20 DUP1 DUP4 ADD DUP2 DUP5 MSTORE DUP1 DUP6 MLOAD DUP1 DUP4 MSTORE PUSH1 0x40 SWAP3 POP DUP3 DUP7 ADD SWAP2 POP DUP3 DUP2 PUSH1 0x5 SHL DUP8 ADD ADD DUP5 DUP9 ADD PUSH1 0x0 JUMPDEST DUP4 DUP2 LT ISZERO PUSH2 0x1CD4 JUMPI DUP9 DUP4 SUB PUSH1 0x3F NOT ADD DUP6 MSTORE DUP2 MLOAD DUP1 MLOAD PUSH1 0x1 PUSH1 0x1 PUSH1 0xA0 SHL SUB AND DUP5 MSTORE PUSH2 0x120 DUP9 DUP3 ADD MLOAD PUSH2 0x2044 DUP11 DUP8 ADD DUP3 PUSH2 0x1FC8 JUMP JUMPDEST POP DUP8 DUP3 ADD MLOAD DUP2 DUP10 DUP8 ADD MSTORE PUSH2 0x205A DUP3 DUP8 ADD DUP3 PUSH2 0x1BA3 JUMP JUMPDEST PUSH1 0x60 DUP5 DUP2 ADD MLOAD SWAP1 DUP9 ADD MSTORE PUSH1 0x80 DUP1 DUP6 ADD MLOAD SWAP1 DUP9 ADD MSTORE PUSH1 0xA0 DUP1 DUP6 ADD MLOAD SWAP1 DUP9 ADD MSTORE PUSH1 0xC0 DUP1 DUP6 ADD MLOAD ISZERO ISZERO SWAP1 DUP9 ADD MSTORE PUSH1 0xE0 DUP1 DUP6 ADD MLOAD ISZERO ISZERO SWAP1 DUP9 ADD MSTORE PUSH2 0x100 SWAP4 DUP5 ADD MLOAD SWAP4 SWAP1 SWAP7 ADD SWAP3 SWAP1 SWAP3 MSTORE POP POP SWAP4 DUP7 ADD SWAP4 SWAP1 DUP7 ADD SWAP1 PUSH1 0x1 ADD PUSH2 0x2011 JUMP JUMPDEST PUSH1 0x0 DUP1 PUSH1 0x0 DUP1 PUSH1 0x80 DUP6 DUP8 SUB SLT ISZERO PUSH2 0x20C7 JUMPI PUSH1 0x0 DUP1 REVERT JUMPDEST DUP5 CALLDATALOAD SWAP4 POP PUSH2 0x20D7 PUSH1 0x20 DUP7 ADD PUSH2 0x19FA JUMP JUMPDEST SWAP3 POP PUSH1 0x40 DUP6 ADD CALLDATALOAD PUSH1 0x1 PUSH1 0x1 PUSH1 0x40 SHL SUB DUP1 DUP3 GT ISZERO PUSH2 0x1F1D JUMPI PUSH1 0x0 DUP1 REVERT JUMPDEST PUSH1 0x0 DUP1 PUSH1 0x40 DUP4 DUP6 SUB SLT ISZERO PUSH2 0x2106 JUMPI PUSH1 0x0 DUP1 REVERT JUMPDEST DUP3 CALLDATALOAD SWAP2 POP PUSH1 0x20 DUP4 ADD CALLDATALOAD PUSH2 0x2118 DUP2 PUSH2 0x1908 JUMP JUMPDEST DUP1 SWAP2 POP POP SWAP3 POP SWAP3 SWAP1 POP JUMP JUMPDEST DUP4 ISZERO ISZERO DUP2 MSTORE DUP3 ISZERO ISZERO PUSH1 0x20 DUP3 ADD MSTORE PUSH1 0x60 PUSH1 0x40 DUP3 ADD MSTORE PUSH1 0x0 PUSH2 0x2146 PUSH1 0x60 DUP4 ADD DUP5 PUSH2 0x1BA3 JUMP JUMPDEST SWAP6 SWAP5 POP POP POP POP POP JUMP JUMPDEST PUSH1 0x1 PUSH1 0x1 PUSH1 0xA0 SHL SUB DUP11 AND DUP2 MSTORE PUSH1 0x0 PUSH2 0x120 PUSH2 0x216D PUSH1 0x20 DUP5 ADD DUP13 PUSH2 0x1FC8 JUMP JUMPDEST DUP1 PUSH1 0x40 DUP5 ADD MSTORE PUSH2 0x217F DUP2 DUP5 ADD DUP12 PUSH2 0x1BA3 JUMP JUMPDEST PUSH1 0x60 DUP5 ADD SWAP10 SWAP1 SWAP10 MSTORE POP POP PUSH1 0x80 DUP2 ADD SWAP6 SWAP1 SWAP6 MSTORE PUSH1 0xA0 DUP6 ADD SWAP4 SWAP1 SWAP4 MSTORE SWAP1 ISZERO ISZERO PUSH1 0xC0 DUP5 ADD MSTORE ISZERO ISZERO PUSH1 0xE0 DUP4 ADD MSTORE PUSH2 0x100 SWAP1 SWAP2 ADD MSTORE SWAP4 SWAP3 POP POP POP JUMP JUMPDEST DUP1 PUSH1 0x0 JUMPDEST PUSH1 0x6 DUP2 LT ISZERO PUSH2 0xE63 JUMPI DUP2 MLOAD PUSH1 0x1 PUSH1 0x1 PUSH1 0xA0 SHL SUB AND DUP5 MSTORE PUSH1 0x20 SWAP4 DUP5 ADD SWAP4 SWAP1 SWAP2 ADD SWAP1 PUSH1 0x1 ADD PUSH2 0x21BA JUMP JUMPDEST PUSH1 0x0 PUSH2 0x1E0 DUP1 DUP4 MSTORE PUSH2 0x21F6 DUP2 DUP5 ADD DUP10 PUSH2 0x1BA3 JUMP JUMPDEST SWAP2 POP POP PUSH1 0x20 DUP1 DUP4 ADD DUP8 PUSH1 0x0 JUMPDEST PUSH1 0x2 DUP2 LT ISZERO PUSH2 0x2221 JUMPI DUP2 MLOAD ISZERO ISZERO DUP4 MSTORE SWAP2 DUP4 ADD SWAP2 SWAP1 DUP4 ADD SWAP1 PUSH1 0x1 ADD PUSH2 0x2202 JUMP JUMPDEST POP POP POP PUSH1 0x60 DUP4 ADD DUP7 PUSH1 0x0 JUMPDEST PUSH1 0x5 DUP2 LT ISZERO PUSH2 0x2249 JUMPI DUP2 MLOAD DUP4 MSTORE SWAP2 DUP4 ADD SWAP2 SWAP1 DUP4 ADD SWAP1 PUSH1 0x1 ADD PUSH2 0x222C JUMP JUMPDEST POP POP POP POP PUSH2 0x225B PUSH2 0x100 DUP4 ADD DUP6 PUSH2 0x21B6 JUMP JUMPDEST DUP3 PUSH2 0x1C0 DUP4 ADD MSTORE SWAP7 SWAP6 POP POP POP POP POP POP JUMP JUMPDEST PUSH1 0x0 DUP1 PUSH1 0x40 DUP4 DUP6 SUB SLT ISZERO PUSH2 0x227F JUMPI PUSH1 0x0 DUP1 REVERT JUMPDEST DUP3 CALLDATALOAD PUSH1 0x1 PUSH1 0x1 PUSH1 0x40 SHL SUB DUP1 DUP3 GT ISZERO PUSH2 0x2296 JUMPI PUSH1 0x0 DUP1 REVERT JUMPDEST PUSH2 0x22A2 DUP7 DUP4 DUP8 ADD PUSH2 0x198B JUMP JUMPDEST SWAP4 POP PUSH1 0x20 DUP6 ADD CALLDATALOAD SWAP2 POP DUP1 DUP3 GT ISZERO PUSH2 0x22B8 JUMPI PUSH1 0x0 DUP1 REVERT JUMPDEST POP PUSH2 0x1C4A DUP6 DUP3 DUP7 ADD PUSH2 0x198B JUMP JUMPDEST PUSH1 0x0 DUP1 PUSH1 0x0 DUP1 PUSH1 0x0 PUSH1 0xA0 DUP7 DUP9 SUB SLT ISZERO PUSH2 0x22DD JUMPI PUSH1 0x0 DUP1 REVERT JUMPDEST DUP6 CALLDATALOAD SWAP5 POP PUSH1 0x20 DUP7 ADD CALLDATALOAD SWAP4 POP PUSH1 0x40 DUP7 ADD CALLDATALOAD SWAP3 POP PUSH1 0x60 DUP7 ADD CALLDATALOAD PUSH1 0x1 PUSH1 0x1 PUSH1 0x40 SHL SUB DUP1 DUP3 GT ISZERO PUSH2 0x2309 JUMPI PUSH1 0x0 DUP1 REVERT JUMPDEST PUSH2 0x2315 DUP10 DUP4 DUP11 ADD PUSH2 0x198B JUMP JUMPDEST SWAP4 POP PUSH1 0x80 DUP9 ADD CALLDATALOAD SWAP2 POP DUP1 DUP3 GT ISZERO PUSH2 0x232B JUMPI PUSH1 0x0 DUP1 REVERT JUMPDEST POP PUSH2 0x2338 DUP9 DUP3 DUP10 ADD PUSH2 0x198B JUMP JUMPDEST SWAP2 POP POP SWAP3 SWAP6 POP SWAP3 SWAP6 SWAP1 SWAP4 POP JUMP JUMPDEST PUSH1 0x20 DUP2 MSTORE PUSH1 0x0 PUSH2 0x1E39 PUSH1 0x20 DUP4 ADD DUP5 PUSH2 0x1BA3 JUMP JUMPDEST PUSH1 0x0 PUSH1 0x20 DUP3 DUP5 SUB SLT ISZERO PUSH2 0x236A JUMPI PUSH1 0x0 DUP1 REVERT JUMPDEST DUP2 MLOAD PUSH2 0x1E39 DUP2 PUSH2 0x1908 JUMP JUMPDEST PUSH1 0x1 PUSH1 0x1 PUSH1 0xA0 SHL SUB DUP8 AND DUP2 MSTORE PUSH1 0xC0 PUSH1 0x20 DUP3 ADD DUP2 SWAP1 MSTORE PUSH1 0x0 SWAP1 PUSH2 0x2399 SWAP1 DUP4 ADD DUP9 PUSH2 0x1BA3 JUMP JUMPDEST DUP3 DUP2 SUB PUSH1 0x40 DUP5 ADD MSTORE PUSH2 0x23AB DUP2 DUP9 PUSH2 0x1BA3 JUMP JUMPDEST SWAP1 POP DUP6 ISZERO ISZERO PUSH1 0x60 DUP5 ADD MSTORE DUP5 PUSH1 0x80 DUP5 ADD MSTORE DUP3 DUP2 SUB PUSH1 0xA0 DUP5 ADD MSTORE PUSH2 0x23CD DUP2 DUP6 PUSH2 0x1BA3 JUMP JUMPDEST SWAP10 SWAP9 POP POP POP POP POP POP POP POP POP JUMP JUMPDEST PUSH1 0x0 DUP3 MLOAD PUSH2 0x23EC DUP2 DUP5 PUSH1 0x20 DUP8 ADD PUSH2 0x1B77 JUMP JUMPDEST SWAP2 SWAP1 SWAP2 ADD SWAP3 SWAP2 POP POP JUMP JUMPDEST PUSH1 0x80 DUP2 MSTORE PUSH1 0x0 PUSH2 0x2409 PUSH1 0x80 DUP4 ADD DUP8 PUSH2 0x1BA3 JUMP JUMPDEST DUP3 DUP2 SUB PUSH1 0x20 DUP5 ADD MSTORE PUSH2 0x241B DUP2 DUP8 PUSH2 0x1BA3 JUMP JUMPDEST PUSH1 0x1 PUSH1 0x1 PUSH1 0xA0 SHL SUB DUP7 AND PUSH1 0x40 DUP6 ADD MSTORE DUP4 DUP2 SUB PUSH1 0x60 DUP6 ADD MSTORE SWAP1 POP PUSH2 0x243E DUP2 DUP6 PUSH2 0x1BA3 JUMP JUMPDEST SWAP8 SWAP7 POP POP POP POP POP POP POP JUMP JUMPDEST PUSH1 0x1 DUP2 DUP2 SHR SWAP1 DUP3 AND DUP1 PUSH2 0x245D JUMPI PUSH1 0x7F DUP3 AND SWAP2 POP JUMPDEST PUSH1 0x20 DUP3 LT DUP2 EQ ISZERO PUSH2 0x247E JUMPI PUSH4 0x4E487B71 PUSH1 0xE0 SHL PUSH1 0x0 MSTORE PUSH1 0x22 PUSH1 0x4 MSTORE PUSH1 0x24 PUSH1 0x0 REVERT JUMPDEST POP SWAP2 SWAP1 POP JUMP JUMPDEST PUSH1 0x1 PUSH1 0x1 PUSH1 0xA0 SHL SUB DUP5 DUP2 AND DUP3 MSTORE DUP4 AND PUSH1 0x20 DUP3 ADD MSTORE PUSH1 0x60 PUSH1 0x40 DUP3 ADD DUP2 SWAP1 MSTORE PUSH1 0x0 SWAP1 PUSH2 0x2146 SWAP1 DUP4 ADD DUP5 PUSH2 0x1BA3 JUMP JUMPDEST PUSH1 0x1 PUSH1 0x1 PUSH1 0xA0 SHL SUB DUP6 AND DUP2 MSTORE PUSH1 0x80 PUSH1 0x20 DUP3 ADD DUP2 SWAP1 MSTORE PUSH1 0x0 SWAP1 PUSH2 0x24D4 SWAP1 DUP4 ADD DUP7 PUSH2 0x1BA3 JUMP JUMPDEST DUP5 PUSH1 0x40 DUP5 ADD MSTORE DUP3 DUP2 SUB PUSH1 0x60 DUP5 ADD MSTORE PUSH2 0x243E DUP2 DUP6 PUSH2 0x1BA3 JUMP JUMPDEST PUSH1 0x1 PUSH1 0x1 PUSH1 0xA0 SHL SUB DUP8 DUP2 AND DUP3 MSTORE PUSH2 0x180 PUSH1 0x20 DUP1 DUP5 ADD DUP3 SWAP1 MSTORE PUSH1 0x0 SWAP3 SWAP1 PUSH2 0x2514 DUP6 DUP5 ADD DUP12 PUSH2 0x1BA3 JUMP JUMPDEST SWAP4 POP DUP9 ISZERO ISZERO PUSH1 0x40 DUP7 ADD MSTORE DUP8 ISZERO ISZERO PUSH1 0x60 DUP7 ADD MSTORE DUP7 PUSH1 0x80 DUP7 ADD MSTORE PUSH1 0xA0 DUP6 ADD SWAP3 POP DUP6 PUSH1 0x0 JUMPDEST PUSH1 0x7 DUP2 LT ISZERO PUSH2 0x2555 JUMPI DUP2 MLOAD DUP5 AND DUP6 MSTORE SWAP4 DUP3 ADD SWAP4 SWAP1 DUP3 ADD SWAP1 PUSH1 0x1 ADD PUSH2 0x2536 JUMP JUMPDEST POP POP POP POP POP SWAP8 SWAP7 POP POP POP POP POP POP POP JUMP JUMPDEST PUSH1 0x80 DUP1 DUP3 MSTORE DUP6 MLOAD SWAP1 DUP3 ADD DUP2 SWAP1 MSTORE PUSH1 0x0 SWAP1 PUSH1 0x20 SWAP1 PUSH1 0xA0 DUP5 ADD SWAP1 DUP3 DUP10 ADD DUP5 JUMPDEST DUP3 DUP2 LT ISZERO PUSH2 0x259E JUMPI DUP2 MLOAD DUP5 MSTORE SWAP3 DUP5 ADD SWAP3 SWAP1 DUP5 ADD SWAP1 PUSH1 0x1 ADD PUSH2 0x2582 JUMP JUMPDEST POP POP POP DUP7 ISZERO ISZERO DUP3 DUP6 ADD MSTORE DUP4 DUP2 SUB PUSH1 0x40 DUP6 ADD MSTORE PUSH2 0x25BA DUP2 DUP8 PUSH2 0x1BA3 JUMP JUMPDEST SWAP2 POP POP DUP3 DUP2 SUB PUSH1 0x60 DUP5 ADD MSTORE PUSH2 0x243E DUP2 DUP6 PUSH2 0x1BA3 JUMP JUMPDEST DUP4 ISZERO ISZERO DUP2 MSTORE PUSH1 0x60 PUSH1 0x20 DUP3 ADD MSTORE PUSH1 0x0 PUSH2 0x25EA PUSH1 0x60 DUP4 ADD DUP6 PUSH2 0x1BA3 JUMP JUMPDEST DUP3 DUP2 SUB PUSH1 0x40 DUP5 ADD MSTORE PUSH2 0x25FC DUP2 DUP6 PUSH2 0x1BA3 JUMP JUMPDEST SWAP7 SWAP6 POP POP POP POP POP POP JUMP JUMPDEST DUP5 DUP2 MSTORE DUP4 ISZERO ISZERO PUSH1 0x20 DUP3 ADD MSTORE PUSH1 0x80 PUSH1 0x40 DUP3 ADD MSTORE PUSH1 0x0 PUSH2 0x2627 PUSH1 0x80 DUP4 ADD DUP6 PUSH2 0x1BA3 JUMP JUMPDEST DUP3 DUP2 SUB PUSH1 0x60 DUP5 ADD MSTORE PUSH2 0x243E DUP2 DUP6 PUSH2 0x1BA3 JUMP JUMPDEST PUSH1 0x60 DUP2 MSTORE PUSH1 0x0 PUSH2 0x264C PUSH1 0x60 DUP4 ADD DUP7 PUSH2 0x1BA3 JUMP JUMPDEST PUSH1 0x1 PUSH1 0x1 PUSH1 0xA0 SHL SUB DUP6 AND PUSH1 0x20 DUP5 ADD MSTORE DUP3 DUP2 SUB PUSH1 0x40 DUP5 ADD MSTORE PUSH2 0x25FC DUP2 DUP6 PUSH2 0x1BA3 JUMP JUMPDEST DUP7 DUP2 MSTORE DUP6 PUSH1 0x20 DUP3 ADD MSTORE DUP5 PUSH1 0x40 DUP3 ADD MSTORE PUSH1 0xC0 PUSH1 0x60 DUP3 ADD MSTORE PUSH1 0x0 PUSH2 0x2692 PUSH1 0xC0 DUP4 ADD DUP7 PUSH2 0x1BA3 JUMP JUMPDEST PUSH1 0x1 PUSH1 0x1 PUSH1 0xA0 SHL SUB DUP6 AND PUSH1 0x80 DUP5 ADD MSTORE DUP3 DUP2 SUB PUSH1 0xA0 DUP5 ADD MSTORE PUSH2 0x23CD DUP2 DUP6 PUSH2 0x1BA3 JUMP JUMPDEST PUSH1 0x0 PUSH1 0x1 DUP1 PUSH1 0xA0 SHL SUB DUP1 DUP10 AND DUP4 MSTORE DUP8 PUSH1 0x20 DUP5 ADD MSTORE DUP1 DUP8 AND PUSH1 0x40 DUP5 ADD MSTORE POP DUP5 PUSH1 0x60 DUP4 ADD MSTORE DUP4 PUSH1 0x80 DUP4 ADD MSTORE PUSH1 0xC0 PUSH1 0xA0 DUP4 ADD MSTORE PUSH2 0x26F0 PUSH1 0xC0 DUP4 ADD DUP5 PUSH2 0x1BA3 JUMP JUMPDEST SWAP9 SWAP8 POP POP POP POP POP POP POP POP JUMP JUMPDEST PUSH1 0x40 DUP2 MSTORE PUSH1 0x0 PUSH2 0x270F PUSH1 0x40 DUP4 ADD DUP6 PUSH2 0x1BA3 JUMP JUMPDEST SWAP1 POP PUSH2 0xFFFF DUP4 AND PUSH1 0x20 DUP4 ADD MSTORE SWAP4 SWAP3 POP POP POP JUMP INVALID LOG2 PUSH5 0x6970667358 0x22 SLT KECCAK256 0xC DELEGATECALL PUSH28 0xB19C1DED80221BEDA852AF2A72F5D5981FACBD4829D1155B6DEE302B 0xF6 PUSH5 0x736F6C6343 STOP ADDMOD 0xC STOP CALLER ",
  "sha1": "fb49a4ad03320709035a63ac7f0093311f7e2d51",
  "source": "// SPDX-License-Identifier: MIT\npragma solidity ^0.8.11;\n\nimport \"@openzeppelin/contracts/proxy/utils/Initializable.sol\";\nimport \"../CLCore/CLStorage.sol\";\nimport \"../../interfaces/ICLHouse.sol\";\nimport \"../../interfaces/IUnlock.sol\";\n\n\n/// @title Contract to implement and call the fuctions of CLHouses\n/// @author Leonardo Urrego\ncontract CLHouse is CLStorage, Initializable {\n    /// @custom:oz-upgrades-unsafe-allow constructor\n    constructor() {\n        _disableInitializers();\n    }\n\n    /// @notice Constructor of the new CLH\n    /// @dev This function can be called once after proxy creation\n    /// @param _owner The address of the owner\n    /// @param _houseName Name given by the owner\n    /// @param _housePrivate If is set to 1, the CLH is set to private\n    /// @param _houseOpen If is set to 1, the CLH is set to Open\n    /// @param _govRuleMaxUsers Max users in the house\n    /// @param _CLC Array for CL Contracts and others see `enum eCLC`\n    function Init(\n        address _owner, \n        string memory _houseName,\n        bool _housePrivate,\n        bool _houseOpen,\n        uint256 _govRuleMaxUsers,\n        address[7] memory _CLC\n    )\n        external\n        reinitializer( __UPGRADEABLE_CLH_VERSION__ )\n    {\n        /// @custom:oz-upgrades-unsafe-allow delegatecall\n        (bool successDGTCLL, ) = _CLC[ uint256( eCLC.CLLConstructorCLH ) ].delegatecall(\n            abi.encodeWithSignature(\n                \"__CLHConstructor(address,string,bool,bool,uint256,address[7])\",\n                _owner, \n                _houseName,\n                _housePrivate,\n                _houseOpen,\n                _govRuleMaxUsers,\n                _CLC\n            )\n        );\n\n        if( !successDGTCLL ) {\n            assembly {\n                let ptr := mload(0x40)\n                let size := returndatasize()\n                returndatacopy(ptr, 0, size)\n                revert(ptr, size)\n            }\n        }\n    }\n\n\n    /// @notice Used to vote a proposal\n    /// @dev After vote the proposal automatically try to be executed\n    /// @param _propId ID of the proposal, based on `arrProposals`\n    /// @param _support True for accept, false to reject\n    /// @param _justification About your vote\n    /// @param _signature EIP712 Signature\n    function VoteProposal(\n        uint256 _propId,\n        bool _support,\n        string memory _justification,\n        bytes memory _signature\n    )\n        external\n    {\n        /// @custom:oz-upgrades-unsafe-allow delegatecall\n        (bool successDGTCLL, ) = pxyCLF.CLLGovernance().delegatecall(\n            abi.encodeWithSignature( \n                \"VoteProposal(uint256,bool,string,bytes)\",\n                _propId,\n                _support,\n                _justification,\n                _signature\n            )\n        );\n\n        if( !successDGTCLL ) {\n            assembly {\n                let ptr := mload(0x40)\n                let size := returndatasize()\n                returndatacopy(ptr, 0, size)\n                revert(ptr, size)\n            }\n        }\n    }\n\n    /// @notice Generate a new proposal to invite a new user\n    /// @dev the execution of this proposal only create an invitation \n    /// @param _walletAddr Wallet of the user\n    /// @param _nickname Can be the nickname or other reference to the User\n    /// @param _description A text for the proposal\n    /// @param _isManager True if is for a manager\n    /// @param _delayTime Time of live od the proposal in seconds\n    /// @param _signature EIP712 Signature\n    /// @return propId ID of the new proposal, based on `arrProposals`\n    function PropInvitUser(\n        address _walletAddr,\n        string memory _nickname,\n        string memory _description,\n        bool _isManager,\n        uint256 _delayTime,\n        bytes memory _signature\n    )\n        external\n        returns( uint256 propId )\n    {\n        /// @custom:oz-upgrades-unsafe-allow delegatecall\n        (bool successDGTCLL, ) = pxyCLF.CLLGovernance().delegatecall(\n            abi.encodeWithSignature( \n                \"PropInvitUser(address,string,string,bool,uint256,bytes)\",\n                _walletAddr,\n                _nickname,\n                _description,\n                _isManager,\n                _delayTime,\n                _signature\n            )\n        );\n\n        assembly {\n            let ptr := mload(0x40)\n            let size := returndatasize()\n            returndatacopy(ptr, 0, size)\n            if iszero( successDGTCLL ) {\n                revert(ptr, size)\n            }\n            propId := mload(ptr)\n        }\n    }\n\n    /// @notice Generate a new proposal for remove a user\n    /// @dev The user to remove can be a managaer\n    /// @param _walletAddr user Address to be removed\n    /// @param _description About the proposal\n    /// @param _delayTime Time of live od the proposal in seconds\n    /// @param _signature EIP712 Signature\n    /// @return propId ID of the new proposal, based on `arrProposals`\n    function PropRemoveUser(\n        address _walletAddr,\n        string memory _description,\n        uint256 _delayTime,\n        bytes memory _signature\n    )\n        external\n        returns( uint256 propId )\n    {\n        /// @custom:oz-upgrades-unsafe-allow delegatecall\n        (bool successDGTCLL, ) = pxyCLF.CLLGovernance().delegatecall(\n            abi.encodeWithSignature( \n                \"PropRemoveUser(address,string,uint256,bytes)\",\n                _walletAddr,\n                _description,\n                _delayTime,\n                _signature\n            )\n        );\n\n        assembly {\n            let ptr := mload(0x40)\n            let size := returndatasize()\n            returndatacopy(ptr, 0, size)\n            if iszero( successDGTCLL ) {\n                revert(ptr, size)\n            }\n            propId := mload(ptr)\n        }\n    }\n\n    /// @notice Generate a proposal from a user that want to join to the CLH\n    /// @dev Only avaiable in non private CLH\n    /// @param _name Nickname or other user identification\n    /// @param _description About the request\n    /// @param _signerWallet Address of signer to check OffChain signature\n    /// @param _signature EIP712 Signature\n    /// @return propId ID of the new proposal, based on `arrProposals`\n    function PropRequestToJoin(\n        string memory _name,\n        string memory _description,\n        address _signerWallet,\n        bytes memory _signature\n    )\n        external\n        returns( uint256 )\n    {\n        /// @custom:oz-upgrades-unsafe-allow delegatecall\n        (bool successDGTCLL, ) = pxyCLF.CLLGovernance().delegatecall(\n            abi.encodeWithSignature( \n                \"PropRequestToJoin(string,string,address,bytes)\",\n                _name,\n                _description,\n                _signerWallet,\n                _signature\n            )\n        );\n\n        assembly {\n            let ptr := mload(0x40)\n            let size := returndatasize()\n            returndatacopy(ptr, 0, size)\n            if iszero( successDGTCLL ) {\n                revert(ptr, size)\n            }\n            return(ptr, size)\n        }\n    }\n\n    /// @notice For an user that have an invitation pending\n    /// @param _acceptance True for accept the invitation\n    /// @param _nickname A nickname for the user\n    /// @param _signature EIP712 Signature\n    function AcceptRejectInvitation(\n        bool _acceptance,\n        string memory _nickname,\n        bytes memory _signature\n    )\n        external\n    {\n        /// @custom:oz-upgrades-unsafe-allow delegatecall\n        (bool successDGTCLL, ) = pxyCLF.CLLUserManagement().delegatecall(\n            abi.encodeWithSignature( \n                \"AcceptRejectInvitation(bool,string,bytes)\",\n                _acceptance,\n                _nickname,\n                _signature\n            )\n        );\n\n        if( !successDGTCLL ) {\n            assembly {\n                let ptr := mload(0x40)\n                let size := returndatasize()\n                returndatacopy(ptr, 0, size)\n                revert(ptr, size)\n            }\n        }\n    }\n\n\n    /// @notice Vote for multiple proposal\n    /// @param _propIds Array with ID of the proposal to votes\n    /// @param _support is the Vote (True or False) for all proposals\n    /// @param _justification Description of the vote\n    /// @param _signature EIP712 Signature\n    function bulkVote(\n        uint256[] memory _propIds,\n        bool _support,\n        string memory _justification,\n        bytes memory _signature\n    )\n        external\n    {\n        /// @custom:oz-upgrades-unsafe-allow delegatecall\n        (bool successDGTCLL, ) = pxyCLF.CLLGovernance().delegatecall(\n            abi.encodeWithSignature( \n                \"bulkVote(uint256[],bool,string,bytes)\",\n                _propIds,\n                _support,\n                _justification,\n                _signature\n            )\n        );\n\n        assembly {\n            let ptr := mload(0x40)\n            let size := returndatasize()\n            returndatacopy(ptr, 0, size)\n            if iszero( successDGTCLL ) {\n                revert(ptr, size)\n            }\n            // return(ptr, size)\n        }\n    }\n\n    /// @notice Length of arrUsers array\n    function GetArrUsersLength() external view returns( uint256 ){\n        return arrUsers.length;\n    }\n\n    /// @notice Length of arrProposals array\n    function GetArrProposalsLength() external view returns( uint256 ){\n        return arrProposals.length;\n    }\n\n    /// @notice The list of all Proposals\n    /// @return arrProposals the array with all proposals\n    function GetProposalList() external view returns( strProposal[] memory ) {\n        return arrProposals;\n    }\n\n    /// @notice Get complete array of arrDataPropUser\n    /// @return arrDataPropUser the array with all data\n    function GetArrDataPropUser() external view returns( strDataUser[] memory ) {\n        return arrDataPropUser;\n    }\n\n    /// @notice Get a version of CLH\n    /// @return version\n    function GetCLHouseVersion() external pure returns ( string memory ) {\n        return __CLHOUSE_VERSION__;\n    }\n\n    /// @notice Set a new NFT Collection for Invitations\n    /// @param _whiteListNFT contract address of NFT\n    /// @param _signature EIP712 Signature\n    function UpdateCLHWLNFT(\n        address _whiteListNFT,\n        bytes memory _signature\n    ) external {\n        address realSender = msg.sender;\n\n        if( _signature.length == 65 ) {\n            realSender = pxyApiCLH.SignerOCUpCLHWLNFT(\n                _whiteListNFT,\n                address(this),\n                _signature\n            );\n\n            CheckECDSA( realSender );\n        }\n\n        CheckIsManager( realSender );\n\n        whiteListNFT = _whiteListNFT;\n\n        emit evtUpCLHWLNFT( _whiteListNFT );\n    }\n\n\n    /// @notice Create a new Lock proxy contract from Lock Factory\n    /// @param _expirationDuration Expiration for lcok in seconds\n    /// @param _keyPrice Price for each lock in wei\n    /// @param _maxNumberOfKeys How many locks\n    /// @param _lockName Lock Name\n    /// @param _signature EIP712 Signature\n    /// @return Contract address of the new lock\n    function CreateLock(\n        uint256 _expirationDuration,\n        uint256 _keyPrice,\n        uint256 _maxNumberOfKeys,\n        string memory _lockName,\n        bytes memory _signature\n    )\n        external\n        returns (\n            address\n        )\n    {\n        address realSender = msg.sender;\n\n        if( _signature.length == 65 ) {\n            realSender = pxyApiCLH.SignerOCNewLock(\n                _expirationDuration,\n                _keyPrice,\n                _maxNumberOfKeys,\n                _lockName,\n                address(this),\n                _signature\n            );\n\n            CheckECDSA( realSender );\n        }\n\n        CheckIsManager( realSender );\n\n        bytes memory params = abi.encodeWithSignature(\n            'initialize(address,uint256,address,uint256,uint256,string)',\n            realSender,\n            _expirationDuration,\n            address(0),\n            _keyPrice,\n            _maxNumberOfKeys,\n            _lockName\n        );\n\n        // https://docs.unlock-protocol.com/core-protocol/unlock/networks/\n        address aULF;\n        \n        if( 5 == block.chainid ) // Goerli\n            aULF = 0x627118a4fB747016911e5cDA82e2E77C531e8206;\n        else if( 137 == block.chainid ) // Polygon\n            aULF = 0xE8E5cd156f89F7bdB267EabD5C43Af3d5AF2A78f;\n        else if( 80001 == block.chainid ) // Mumbai\n            aULF = 0x1FF7e338d5E582138C46044dc238543Ce555C963;\n        else if( 1 == block.chainid ) // Mainnet\n            aULF = 0x3d5409CcE1d45233dE1D4eBDEe74b8E004abDD13;\n        else\n            revert(\"CreateLock: unsupported chain\");\n\n        IUnlock iULF = IUnlock( aULF );\n\n        whiteListNFT = iULF.createUpgradeableLockAtVersion( params, 11 );\n\n        return whiteListNFT;\n    }\n\n\n    /// @notice Retrieve some of the internal variables of the house\n    function HouseProperties() \n        external\n        view\n        returns(\n            string memory clhName,\n            bool[2] memory booleanVar,\n            uint256[5] memory uint256Var,\n            address[6] memory addressVar,\n            bytes32 govModelVar\n        )\n    {\n        clhName = houseName;\n        booleanVar[0] = housePrivate;\n        booleanVar[1] = houseOpen;\n\n        uint256Var[0] = numUsers;\n        uint256Var[1] = numManagers;\n        uint256Var[2] = govRuleApprovPercentage;\n        uint256Var[3] = govRuleMaxUsers;\n        uint256Var[4] = govRuleMaxManagers;\n\n        addressVar[0] = address( pxyCLF );\n        addressVar[1] = address( pxyApiCLH );\n        addressVar[2] = address( pxyNFTManager );\n        addressVar[3] = address( pxyNFTMember );\n        addressVar[4] = address( pxyNFTInvitation );\n        addressVar[5] = whiteListNFT;\n\n        govModelVar = HOUSE_GOVERNANCE_MODEL;\n    }\n\n\n    /// @notice Change the name of de House\n    /// @param _houseName New House Name\n    /// @param _signature EIP712 Signature\n    function UpdateCLHName(\n        string memory _houseName,\n        bytes memory _signature\n    ) external {\n        address realSender = msg.sender;\n\n        if( _signature.length == 65 ) {\n            realSender = pxyApiCLH.SignerOCUpCLHName(\n                _houseName,\n                address(this),\n                _signature\n            );\n\n            CheckECDSA( realSender );\n        }\n\n        CheckIsManager( realSender );\n        houseName = _houseName;\n        emit evtUpCLHName( _houseName );\n    }\n}",
  "sourcePath": "contracts/CLHouse/CLHouse.sol",
  "type": "contract"
}