{
  "abi": [
    {
      "inputs": [],
      "stateMutability": "nonpayable",
      "type": "constructor"
    },
    {
      "anonymous": false,
      "inputs": [
        {
          "indexed": false,
          "internalType": "uint8",
          "name": "version",
          "type": "uint8"
        }
      ],
      "name": "Initialized",
      "type": "event"
    },
    {
      "anonymous": false,
      "inputs": [
        {
          "indexed": false,
          "internalType": "uint256",
          "name": "newApprovPercentage",
          "type": "uint256"
        }
      ],
      "name": "evtChangeGovRules",
      "type": "event"
    },
    {
      "anonymous": false,
      "inputs": [
        {
          "indexed": false,
          "internalType": "enum proposalEvent",
          "name": "eventProposal",
          "type": "uint8"
        },
        {
          "indexed": false,
          "internalType": "uint256",
          "name": "propId",
          "type": "uint256"
        },
        {
          "indexed": false,
          "internalType": "enum proposalType",
          "name": "typeProposal",
          "type": "uint8"
        },
        {
          "indexed": false,
          "internalType": "string",
          "name": "description",
          "type": "string"
        }
      ],
      "name": "evtProposal",
      "type": "event"
    },
    {
      "anonymous": false,
      "inputs": [
        {
          "indexed": false,
          "internalType": "address",
          "name": "tokenOutCLV",
          "type": "address"
        },
        {
          "indexed": false,
          "internalType": "uint256",
          "name": "amountOutCLV",
          "type": "uint256"
        },
        {
          "indexed": false,
          "internalType": "address",
          "name": "tokenInCLV",
          "type": "address"
        },
        {
          "indexed": false,
          "internalType": "uint256",
          "name": "amountReceived",
          "type": "uint256"
        }
      ],
      "name": "evtSwapERC20",
      "type": "event"
    },
    {
      "anonymous": false,
      "inputs": [
        {
          "indexed": false,
          "internalType": "address",
          "name": "walletAddr",
          "type": "address"
        },
        {
          "indexed": false,
          "internalType": "uint256",
          "name": "value",
          "type": "uint256"
        },
        {
          "indexed": false,
          "internalType": "address",
          "name": "tokenAdd",
          "type": "address"
        }
      ],
      "name": "evtTxERC20",
      "type": "event"
    },
    {
      "anonymous": false,
      "inputs": [
        {
          "indexed": false,
          "internalType": "enum assetsEvent",
          "name": "typeEvent",
          "type": "uint8"
        },
        {
          "indexed": false,
          "internalType": "address",
          "name": "walletAddr",
          "type": "address"
        },
        {
          "indexed": false,
          "internalType": "uint256",
          "name": "value",
          "type": "uint256"
        },
        {
          "indexed": false,
          "internalType": "uint256",
          "name": "balance",
          "type": "uint256"
        }
      ],
      "name": "evtTxEth",
      "type": "event"
    },
    {
      "anonymous": false,
      "inputs": [
        {
          "indexed": false,
          "internalType": "enum userEvent",
          "name": "eventUser",
          "type": "uint8"
        },
        {
          "indexed": false,
          "internalType": "address",
          "name": "walletAddr",
          "type": "address"
        },
        {
          "indexed": false,
          "internalType": "string",
          "name": "name",
          "type": "string"
        }
      ],
      "name": "evtUser",
      "type": "event"
    },
    {
      "anonymous": false,
      "inputs": [
        {
          "indexed": false,
          "internalType": "uint256",
          "name": "propId",
          "type": "uint256"
        },
        {
          "indexed": false,
          "internalType": "bool",
          "name": "position",
          "type": "bool"
        },
        {
          "indexed": false,
          "internalType": "address",
          "name": "voter",
          "type": "address"
        },
        {
          "indexed": false,
          "internalType": "string",
          "name": "justification",
          "type": "string"
        }
      ],
      "name": "evtVoted",
      "type": "event"
    },
    {
      "inputs": [
        {
          "internalType": "bool",
          "name": "_acceptance",
          "type": "bool"
        },
        {
          "internalType": "bytes",
          "name": "_signature",
          "type": "bytes"
        }
      ],
      "name": "AcceptRejectInvitation",
      "outputs": [],
      "stateMutability": "nonpayable",
      "type": "function"
    },
    {
      "inputs": [],
      "name": "CCLFACTORY",
      "outputs": [
        {
          "internalType": "contract ICLFactory",
          "name": "",
          "type": "address"
        }
      ],
      "stateMutability": "view",
      "type": "function"
    },
    {
      "inputs": [],
      "name": "CLHAPI",
      "outputs": [
        {
          "internalType": "address",
          "name": "",
          "type": "address"
        }
      ],
      "stateMutability": "view",
      "type": "function"
    },
    {
      "inputs": [],
      "name": "CLHSAFE",
      "outputs": [
        {
          "internalType": "address",
          "name": "",
          "type": "address"
        }
      ],
      "stateMutability": "view",
      "type": "function"
    },
    {
      "inputs": [
        {
          "internalType": "uint256",
          "name": "_propId",
          "type": "uint256"
        }
      ],
      "name": "ExecProp",
      "outputs": [
        {
          "internalType": "bool",
          "name": "status",
          "type": "bool"
        },
        {
          "internalType": "string",
          "name": "message",
          "type": "string"
        }
      ],
      "stateMutability": "nonpayable",
      "type": "function"
    },
    {
      "inputs": [],
      "name": "GetArrDataPropUser",
      "outputs": [
        {
          "components": [
            {
              "internalType": "address",
              "name": "walletAddr",
              "type": "address"
            },
            {
              "internalType": "string",
              "name": "name",
              "type": "string"
            },
            {
              "internalType": "bool",
              "name": "isManager",
              "type": "bool"
            }
          ],
          "internalType": "struct strDataUser[]",
          "name": "",
          "type": "tuple[]"
        }
      ],
      "stateMutability": "view",
      "type": "function"
    },
    {
      "inputs": [],
      "name": "GetArrProposalsLength",
      "outputs": [
        {
          "internalType": "uint256",
          "name": "",
          "type": "uint256"
        }
      ],
      "stateMutability": "view",
      "type": "function"
    },
    {
      "inputs": [],
      "name": "GetArrUsersLength",
      "outputs": [
        {
          "internalType": "uint256",
          "name": "",
          "type": "uint256"
        }
      ],
      "stateMutability": "view",
      "type": "function"
    },
    {
      "inputs": [],
      "name": "GetProposalList",
      "outputs": [
        {
          "components": [
            {
              "internalType": "address",
              "name": "proponent",
              "type": "address"
            },
            {
              "internalType": "enum proposalType",
              "name": "typeProposal",
              "type": "uint8"
            },
            {
              "internalType": "string",
              "name": "description",
              "type": "string"
            },
            {
              "internalType": "uint256",
              "name": "propDataId",
              "type": "uint256"
            },
            {
              "internalType": "uint256",
              "name": "numVotes",
              "type": "uint256"
            },
            {
              "internalType": "uint256",
              "name": "againstVotes",
              "type": "uint256"
            },
            {
              "internalType": "bool",
              "name": "executed",
              "type": "bool"
            },
            {
              "internalType": "bool",
              "name": "rejected",
              "type": "bool"
            },
            {
              "internalType": "uint256",
              "name": "deadline",
              "type": "uint256"
            }
          ],
          "internalType": "struct strProposal[]",
          "name": "",
          "type": "tuple[]"
        }
      ],
      "stateMutability": "view",
      "type": "function"
    },
    {
      "inputs": [],
      "name": "HOUSE_GOVERNANCE_MODEL",
      "outputs": [
        {
          "internalType": "bytes32",
          "name": "",
          "type": "bytes32"
        }
      ],
      "stateMutability": "view",
      "type": "function"
    },
    {
      "inputs": [],
      "name": "HOUSE_NAME",
      "outputs": [
        {
          "internalType": "string",
          "name": "",
          "type": "string"
        }
      ],
      "stateMutability": "view",
      "type": "function"
    },
    {
      "inputs": [
        {
          "internalType": "address",
          "name": "_owner",
          "type": "address"
        },
        {
          "internalType": "string",
          "name": "_houseName",
          "type": "string"
        },
        {
          "internalType": "bool",
          "name": "_housePrivate",
          "type": "bool"
        },
        {
          "internalType": "bool",
          "name": "_houseOpen",
          "type": "bool"
        },
        {
          "internalType": "bytes32",
          "name": "_govModel",
          "type": "bytes32"
        },
        {
          "internalType": "uint256[3]",
          "name": "_govRules",
          "type": "uint256[3]"
        },
        {
          "internalType": "address[4]",
          "name": "_CLC",
          "type": "address[4]"
        },
        {
          "internalType": "address[]",
          "name": "_ManagerWallets",
          "type": "address[]"
        }
      ],
      "name": "Init",
      "outputs": [],
      "stateMutability": "nonpayable",
      "type": "function"
    },
    {
      "inputs": [
        {
          "internalType": "address",
          "name": "_tokenInCLV",
          "type": "address"
        },
        {
          "internalType": "uint256",
          "name": "_amountOutCLV",
          "type": "uint256"
        },
        {
          "internalType": "string",
          "name": "_description",
          "type": "string"
        },
        {
          "internalType": "uint256",
          "name": "_delayTime",
          "type": "uint256"
        }
      ],
      "name": "PropBuyERC20",
      "outputs": [
        {
          "internalType": "uint256",
          "name": "",
          "type": "uint256"
        }
      ],
      "stateMutability": "nonpayable",
      "type": "function"
    },
    {
      "inputs": [
        {
          "internalType": "uint256",
          "name": "_newApprovPercentage",
          "type": "uint256"
        },
        {
          "internalType": "string",
          "name": "_description",
          "type": "string"
        },
        {
          "internalType": "uint256",
          "name": "_delayTime",
          "type": "uint256"
        }
      ],
      "name": "PropGovRules",
      "outputs": [
        {
          "internalType": "uint256",
          "name": "propId",
          "type": "uint256"
        }
      ],
      "stateMutability": "nonpayable",
      "type": "function"
    },
    {
      "inputs": [
        {
          "internalType": "address",
          "name": "_walletAddr",
          "type": "address"
        },
        {
          "internalType": "string",
          "name": "_name",
          "type": "string"
        },
        {
          "internalType": "string",
          "name": "_description",
          "type": "string"
        },
        {
          "internalType": "bool",
          "name": "_isManager",
          "type": "bool"
        },
        {
          "internalType": "uint256",
          "name": "_delayTime",
          "type": "uint256"
        },
        {
          "internalType": "bytes",
          "name": "_signature",
          "type": "bytes"
        }
      ],
      "name": "PropInviteUser",
      "outputs": [
        {
          "internalType": "uint256",
          "name": "propId",
          "type": "uint256"
        }
      ],
      "stateMutability": "nonpayable",
      "type": "function"
    },
    {
      "inputs": [
        {
          "internalType": "address",
          "name": "_walletAddr",
          "type": "address"
        },
        {
          "internalType": "string",
          "name": "_description",
          "type": "string"
        },
        {
          "internalType": "uint256",
          "name": "_delayTime",
          "type": "uint256"
        },
        {
          "internalType": "bytes",
          "name": "_signature",
          "type": "bytes"
        }
      ],
      "name": "PropRemoveUser",
      "outputs": [
        {
          "internalType": "uint256",
          "name": "propId",
          "type": "uint256"
        }
      ],
      "stateMutability": "nonpayable",
      "type": "function"
    },
    {
      "inputs": [
        {
          "internalType": "string",
          "name": "_name",
          "type": "string"
        },
        {
          "internalType": "string",
          "name": "_description",
          "type": "string"
        },
        {
          "internalType": "bytes",
          "name": "_signature",
          "type": "bytes"
        }
      ],
      "name": "PropRequestToJoin",
      "outputs": [
        {
          "internalType": "uint256",
          "name": "",
          "type": "uint256"
        }
      ],
      "stateMutability": "nonpayable",
      "type": "function"
    },
    {
      "inputs": [
        {
          "internalType": "address",
          "name": "_tokenOutCLV",
          "type": "address"
        },
        {
          "internalType": "uint256",
          "name": "_amountOutCLV",
          "type": "uint256"
        },
        {
          "internalType": "string",
          "name": "_description",
          "type": "string"
        },
        {
          "internalType": "uint256",
          "name": "_delayTime",
          "type": "uint256"
        }
      ],
      "name": "PropSellERC20",
      "outputs": [
        {
          "internalType": "uint256",
          "name": "",
          "type": "uint256"
        }
      ],
      "stateMutability": "nonpayable",
      "type": "function"
    },
    {
      "inputs": [
        {
          "internalType": "address",
          "name": "_tokenOutCLV",
          "type": "address"
        },
        {
          "internalType": "address",
          "name": "_tokenInCLV",
          "type": "address"
        },
        {
          "internalType": "uint256",
          "name": "_amountOutCLV",
          "type": "uint256"
        },
        {
          "internalType": "string",
          "name": "_description",
          "type": "string"
        },
        {
          "internalType": "uint256",
          "name": "_delayTime",
          "type": "uint256"
        }
      ],
      "name": "PropSwapERC20",
      "outputs": [
        {
          "internalType": "uint256",
          "name": "",
          "type": "uint256"
        }
      ],
      "stateMutability": "nonpayable",
      "type": "function"
    },
    {
      "inputs": [
        {
          "internalType": "address",
          "name": "_to",
          "type": "address"
        },
        {
          "internalType": "uint256",
          "name": "_amountOutCLV",
          "type": "uint256"
        },
        {
          "internalType": "address",
          "name": "_tokenOutCLV",
          "type": "address"
        },
        {
          "internalType": "string",
          "name": "_description",
          "type": "string"
        },
        {
          "internalType": "uint256",
          "name": "_delayTime",
          "type": "uint256"
        }
      ],
      "name": "PropTxERC20",
      "outputs": [
        {
          "internalType": "uint256",
          "name": "propId",
          "type": "uint256"
        }
      ],
      "stateMutability": "nonpayable",
      "type": "function"
    },
    {
      "inputs": [
        {
          "internalType": "address",
          "name": "_to",
          "type": "address"
        },
        {
          "internalType": "uint256",
          "name": "_amountOutCLV",
          "type": "uint256"
        },
        {
          "internalType": "string",
          "name": "_description",
          "type": "string"
        },
        {
          "internalType": "uint256",
          "name": "_delayTime",
          "type": "uint256"
        }
      ],
      "name": "PropTxWei",
      "outputs": [
        {
          "internalType": "uint256",
          "name": "propId",
          "type": "uint256"
        }
      ],
      "stateMutability": "nonpayable",
      "type": "function"
    },
    {
      "inputs": [
        {
          "internalType": "uint256",
          "name": "_propId",
          "type": "uint256"
        },
        {
          "internalType": "bool",
          "name": "_support",
          "type": "bool"
        },
        {
          "internalType": "string",
          "name": "_justification",
          "type": "string"
        },
        {
          "internalType": "bytes",
          "name": "_signature",
          "type": "bytes"
        }
      ],
      "name": "VoteProposal",
      "outputs": [],
      "stateMutability": "nonpayable",
      "type": "function"
    },
    {
      "inputs": [
        {
          "internalType": "uint256",
          "name": "",
          "type": "uint256"
        }
      ],
      "name": "arrDataPropGovRules",
      "outputs": [
        {
          "internalType": "uint256",
          "name": "newApprovPercentage",
          "type": "uint256"
        }
      ],
      "stateMutability": "view",
      "type": "function"
    },
    {
      "inputs": [
        {
          "internalType": "uint256",
          "name": "",
          "type": "uint256"
        }
      ],
      "name": "arrDataPropTxAssets",
      "outputs": [
        {
          "internalType": "address",
          "name": "to",
          "type": "address"
        },
        {
          "internalType": "uint256",
          "name": "amountOutCLV",
          "type": "uint256"
        },
        {
          "internalType": "address",
          "name": "tokenOutCLV",
          "type": "address"
        },
        {
          "internalType": "address",
          "name": "tokenInCLV",
          "type": "address"
        }
      ],
      "stateMutability": "view",
      "type": "function"
    },
    {
      "inputs": [
        {
          "internalType": "uint256",
          "name": "",
          "type": "uint256"
        }
      ],
      "name": "arrDataPropUser",
      "outputs": [
        {
          "internalType": "address",
          "name": "walletAddr",
          "type": "address"
        },
        {
          "internalType": "string",
          "name": "name",
          "type": "string"
        },
        {
          "internalType": "bool",
          "name": "isManager",
          "type": "bool"
        }
      ],
      "stateMutability": "view",
      "type": "function"
    },
    {
      "inputs": [
        {
          "internalType": "uint256",
          "name": "",
          "type": "uint256"
        }
      ],
      "name": "arrProposals",
      "outputs": [
        {
          "internalType": "address",
          "name": "proponent",
          "type": "address"
        },
        {
          "internalType": "enum proposalType",
          "name": "typeProposal",
          "type": "uint8"
        },
        {
          "internalType": "string",
          "name": "description",
          "type": "string"
        },
        {
          "internalType": "uint256",
          "name": "propDataId",
          "type": "uint256"
        },
        {
          "internalType": "uint256",
          "name": "numVotes",
          "type": "uint256"
        },
        {
          "internalType": "uint256",
          "name": "againstVotes",
          "type": "uint256"
        },
        {
          "internalType": "bool",
          "name": "executed",
          "type": "bool"
        },
        {
          "internalType": "bool",
          "name": "rejected",
          "type": "bool"
        },
        {
          "internalType": "uint256",
          "name": "deadline",
          "type": "uint256"
        }
      ],
      "stateMutability": "view",
      "type": "function"
    },
    {
      "inputs": [
        {
          "internalType": "uint256",
          "name": "",
          "type": "uint256"
        }
      ],
      "name": "arrUsers",
      "outputs": [
        {
          "internalType": "address",
          "name": "walletAddr",
          "type": "address"
        },
        {
          "internalType": "string",
          "name": "name",
          "type": "string"
        },
        {
          "internalType": "uint256",
          "name": "balance",
          "type": "uint256"
        },
        {
          "internalType": "bool",
          "name": "isUser",
          "type": "bool"
        },
        {
          "internalType": "bool",
          "name": "isManager",
          "type": "bool"
        }
      ],
      "stateMutability": "view",
      "type": "function"
    },
    {
      "inputs": [
        {
          "internalType": "uint256[]",
          "name": "_propId",
          "type": "uint256[]"
        },
        {
          "internalType": "bool",
          "name": "_support",
          "type": "bool"
        },
        {
          "internalType": "string",
          "name": "_justification",
          "type": "string"
        },
        {
          "internalType": "bytes",
          "name": "_signature",
          "type": "bytes"
        }
      ],
      "name": "bulkVote",
      "outputs": [],
      "stateMutability": "nonpayable",
      "type": "function"
    },
    {
      "inputs": [],
      "name": "govRuleApprovPercentage",
      "outputs": [
        {
          "internalType": "uint256",
          "name": "",
          "type": "uint256"
        }
      ],
      "stateMutability": "view",
      "type": "function"
    },
    {
      "inputs": [],
      "name": "govRuleMaxManagers",
      "outputs": [
        {
          "internalType": "uint256",
          "name": "",
          "type": "uint256"
        }
      ],
      "stateMutability": "view",
      "type": "function"
    },
    {
      "inputs": [],
      "name": "govRuleMaxUsers",
      "outputs": [
        {
          "internalType": "uint256",
          "name": "",
          "type": "uint256"
        }
      ],
      "stateMutability": "view",
      "type": "function"
    },
    {
      "inputs": [],
      "name": "houseOpen",
      "outputs": [
        {
          "internalType": "bool",
          "name": "",
          "type": "bool"
        }
      ],
      "stateMutability": "view",
      "type": "function"
    },
    {
      "inputs": [],
      "name": "housePrivate",
      "outputs": [
        {
          "internalType": "bool",
          "name": "",
          "type": "bool"
        }
      ],
      "stateMutability": "view",
      "type": "function"
    },
    {
      "inputs": [
        {
          "internalType": "address",
          "name": "",
          "type": "address"
        }
      ],
      "name": "mapIdUser",
      "outputs": [
        {
          "internalType": "uint256",
          "name": "",
          "type": "uint256"
        }
      ],
      "stateMutability": "view",
      "type": "function"
    },
    {
      "inputs": [
        {
          "internalType": "address",
          "name": "",
          "type": "address"
        }
      ],
      "name": "mapInvitationUser",
      "outputs": [
        {
          "internalType": "uint256",
          "name": "",
          "type": "uint256"
        }
      ],
      "stateMutability": "view",
      "type": "function"
    },
    {
      "inputs": [
        {
          "internalType": "address",
          "name": "",
          "type": "address"
        }
      ],
      "name": "mapReq2Join",
      "outputs": [
        {
          "internalType": "uint256",
          "name": "",
          "type": "uint256"
        }
      ],
      "stateMutability": "view",
      "type": "function"
    },
    {
      "inputs": [
        {
          "internalType": "uint256",
          "name": "",
          "type": "uint256"
        },
        {
          "internalType": "address",
          "name": "",
          "type": "address"
        }
      ],
      "name": "mapVotes",
      "outputs": [
        {
          "internalType": "bool",
          "name": "voted",
          "type": "bool"
        },
        {
          "internalType": "bool",
          "name": "inSupport",
          "type": "bool"
        },
        {
          "internalType": "string",
          "name": "justification",
          "type": "string"
        }
      ],
      "stateMutability": "view",
      "type": "function"
    },
    {
      "inputs": [],
      "name": "nftAdmin",
      "outputs": [
        {
          "internalType": "contract CLHNFT",
          "name": "",
          "type": "address"
        }
      ],
      "stateMutability": "view",
      "type": "function"
    },
    {
      "inputs": [],
      "name": "nftInvitation",
      "outputs": [
        {
          "internalType": "contract CLHNFT",
          "name": "",
          "type": "address"
        }
      ],
      "stateMutability": "view",
      "type": "function"
    },
    {
      "inputs": [],
      "name": "nftMember",
      "outputs": [
        {
          "internalType": "contract CLHNFT",
          "name": "",
          "type": "address"
        }
      ],
      "stateMutability": "view",
      "type": "function"
    },
    {
      "inputs": [],
      "name": "numManagers",
      "outputs": [
        {
          "internalType": "uint256",
          "name": "",
          "type": "uint256"
        }
      ],
      "stateMutability": "view",
      "type": "function"
    },
    {
      "inputs": [],
      "name": "numUsers",
      "outputs": [
        {
          "internalType": "uint256",
          "name": "",
          "type": "uint256"
        }
      ],
      "stateMutability": "view",
      "type": "function"
    },
    {
      "inputs": [],
      "name": "vaultCLH",
      "outputs": [
        {
          "internalType": "contract CLVault",
          "name": "",
          "type": "address"
        }
      ],
      "stateMutability": "view",
      "type": "function"
    }
  ],
  "bytecode": "60806040523480156200001157600080fd5b506200001c62000022565b620000f1565b60c554600160a81b900460ff1615620000915760405162461bcd60e51b815260206004820152602760248201527f496e697469616c697a61626c653a20636f6e747261637420697320696e697469604482015266616c697a696e6760c81b606482015260840160405180910390fd5b60c55460ff600160a01b90910481161015620000ef5760c5805460ff60a01b191660ff60a01b17905560405160ff81527f7f26b83ff96e1f2b6a682f133852f6798a09c465da95921460cefb38474024989060200160405180910390a15b565b612c1a80620001016000396000f3fe608060405234801561001057600080fd5b50600436106102695760003560e01c80636c2f34e711610151578063a693649a116100c3578063cada7f1911610087578063cada7f19146105c8578063cb85669c146105db578063de5ab14e14610603578063e68777d714610616578063e810a58e1461061f578063f00d62741461062857600080fd5b8063a693649a14610530578063b4c6219214610538578063baa4d5e91461054d578063c2b3aa0814610593578063c347d2fd146105a657600080fd5b8063860228fd11610115578063860228fd146104bb5780639360bfad146104db5780639c630a88146104ee578063a0a625f9146104f7578063a19a5f501461050a578063a1c89c9d1461051d57600080fd5b80636c2f34e71461044d57806370ff918c146104605780637c638548146104805780637e66495d1461049357806381cf22d8146104a857600080fd5b80632266e1bc116101ea5780633a70693d116101ae5780633a70693d146103c95780634e9d5472146103dc57806350f7308a146103e457806359ca2d03146104045780635de58f60146104195780635f3d99b31461042c57600080fd5b80632266e1bc1461035757806322b4081c1461036a57806329647ee51461038e5780632a57ef84146103a357806331a0afa7146103b657600080fd5b80631707ace8116102315780631707ace8146102ee57806319a50f49146103105780631d5fd3ca146103195780631f2e1339146103225780631f50dd271461034457600080fd5b806304f17a9b1461026e578063052f9b0a1461029457806310790717146102bf5780631343e9a5146102d2578063152de3b9146102db575b600080fd5b61028161027c366004611db4565b610635565b6040519081526020015b60405180910390f35b60c4546102a7906001600160a01b031681565b6040516001600160a01b03909116815260200161028b565b6022546102a7906001600160a01b031681565b61028160055481565b6102816102e9366004611e14565b610763565b6103016102fc366004611e87565b610839565b60405161028b93929190611ef8565b61028160025481565b61028160625481565b60005461033490610100900460ff1681565b604051901515815260200161028b565b60c5546102a7906001600160a01b031681565b610281610365366004611db4565b610904565b61037d610378366004611e87565b6109d8565b60405161028b959493929190611f2e565b610396610ab3565b60405161028b9190611f71565b6102816103b1366004611fff565b610bcc565b6102816103c4366004612093565b610d03565b6102816103d7366004611e87565b610e40565b608354610281565b6102816103f2366004612146565b60a36020526000908152604090205481565b61040c610e61565b60405161028b919061216a565b61028161042736600461217d565b610eef565b61043f61043a366004611e87565b611023565b60405161028b9291906121cc565b60c2546102a7906001600160a01b031681565b61028161046e366004612146565b60a26020526000908152604090205481565b61028161048e366004611db4565b61118f565b6104a66104a13660046122fc565b611263565b005b6104a66104b63660046123ff565b611429565b6102816104c9366004612146565b60a46020526000908152604090205481565b60c3546102a7906001600160a01b031681565b61028160045481565b60c1546102a7906001600160a01b031681565b61028161051836600461244c565b611549565b6104a661052b3660046124d3565b61161b565b608254610281565b6105406116e3565b60405161028b91906125e2565b61056061055b366004611e87565b611861565b604080516001600160a01b039586168152602081019490945291841691830191909152909116606082015260800161028b565b6104a66105a13660046126a9565b6118a9565b6105b96105b43660046126eb565b6119cf565b60405161028b9392919061271b565b6023546102a7906001600160a01b031681565b6105ee6105e9366004611e87565b611a8c565b60405161028b99989796959493929190612747565b6102816106113660046127ae565b611b85565b61028160035481565b61028160065481565b6000546103349060ff1681565b60008060c160009054906101000a90046001600160a01b03166001600160a01b031663a327ab696040518163ffffffff1660e01b8152600401602060405180830381865afa15801561068b573d6000803e3d6000fd5b505050506040513d601f19601f820116820180604052508101906106af9190612803565b90506000816001600160a01b0316878787876040516024016106d49493929190612820565b60408051601f198184030181529181526020820180516001600160e01b03166304f17a9b60e01b179052516107099190612858565b600060405180830381855af49150503d8060008114610744576040519150601f19603f3d011682016040523d82523d6000602084013e610749565b606091505b505090506040513d806000833e8261075f578082fd5b8082f35b60008060c160009054906101000a90046001600160a01b03166001600160a01b031663a327ab696040518163ffffffff1660e01b8152600401602060405180830381865afa1580156107b9573d6000803e3d6000fd5b505050506040513d601f19601f820116820180604052508101906107dd9190612803565b90506000816001600160a01b03168888888888604051602401610804959493929190612874565b60408051601f198184030181529181526020820180516001600160e01b031663152de3b960e01b179052516107099190612858565b6084818154811061084957600080fd5b6000918252602090912060039091020180546001820180546001600160a01b03909216935090610878906128b9565b80601f01602080910402602001604051908101604052809291908181526020018280546108a4906128b9565b80156108f15780601f106108c6576101008083540402835291602001916108f1565b820191906000526020600020905b8154815290600101906020018083116108d457829003601f168201915b5050506002909301549192505060ff1683565b60008060c160009054906101000a90046001600160a01b03166001600160a01b031663a327ab696040518163ffffffff1660e01b8152600401602060405180830381865afa15801561095a573d6000803e3d6000fd5b505050506040513d601f19601f8201168201806040525081019061097e9190612803565b90506000816001600160a01b0316878787876040516024016109a39493929190612820565b60408051601f198184030181529181526020820180516001600160e01b0316630899b86f60e21b179052516107099190612858565b608281815481106109e857600080fd5b6000918252602090912060049091020180546001820180546001600160a01b03909216935090610a17906128b9565b80601f0160208091040260200160405190810160405280929190818152602001828054610a43906128b9565b8015610a905780601f10610a6557610100808354040283529160200191610a90565b820191906000526020600020905b815481529060010190602001808311610a7357829003601f168201915b50505050600283015460039093015491929160ff80821692506101009091041685565b60606084805480602002602001604051908101604052809291908181526020016000905b82821015610bc357600084815260209081902060408051606081019091526003850290910180546001600160a01b031682526001810180549293919291840191610b20906128b9565b80601f0160208091040260200160405190810160405280929190818152602001828054610b4c906128b9565b8015610b995780601f10610b6e57610100808354040283529160200191610b99565b820191906000526020600020905b815481529060010190602001808311610b7c57829003601f168201915b50505091835250506002919091015460ff1615156020918201529082526001929092019101610ad7565b50505050905090565b60008060c160009054906101000a90046001600160a01b03166001600160a01b031663a327ab696040518163ffffffff1660e01b8152600401602060405180830381865afa158015610c22573d6000803e3d6000fd5b505050506040513d601f19601f82011682018060405250810190610c469190612803565b90506000816001600160a01b031687878787604051602401610c6b94939291906128f4565b60408051601f198184030181529181526020820180516001600160e01b0316630a95fbe160e21b17905251610ca09190612858565b600060405180830381855af49150503d8060008114610cdb576040519150601f19603f3d011682016040523d82523d6000602084013e610ce0565b606091505b505090506040513d806000833e82610cf6578082fd5b5051979650505050505050565b60008060c160009054906101000a90046001600160a01b03166001600160a01b031663a327ab696040518163ffffffff1660e01b8152600401602060405180830381865afa158015610d59573d6000803e3d6000fd5b505050506040513d601f19601f82011682018060405250810190610d7d9190612803565b90506000816001600160a01b0316898989898989604051602401610da69695949392919061293b565b60408051601f198184030181529181526020820180516001600160e01b03166331a0afa760e01b17905251610ddb9190612858565b600060405180830381855af49150503d8060008114610e16576040519150601f19603f3d011682016040523d82523d6000602084013e610e1b565b606091505b505090506040513d806000833e82610e31578082fd5b50519998505050505050505050565b60868181548110610e5057600080fd5b600091825260209091200154905081565b60428054610e6e906128b9565b80601f0160208091040260200160405190810160405280929190818152602001828054610e9a906128b9565b8015610ee75780601f10610ebc57610100808354040283529160200191610ee7565b820191906000526020600020905b815481529060010190602001808311610eca57829003601f168201915b505050505081565b60008060c160009054906101000a90046001600160a01b03166001600160a01b031663a327ab696040518163ffffffff1660e01b8152600401602060405180830381865afa158015610f45573d6000803e3d6000fd5b505050506040513d601f19601f82011682018060405250810190610f699190612803565b90506000816001600160a01b0316868686604051602401610f8c939291906129a0565b60408051601f198184030181529181526020820180516001600160e01b03166302ef2c7b60e51b17905251610fc19190612858565b600060405180830381855af49150503d8060008114610ffc576040519150601f19603f3d011682016040523d82523d6000602084013e611001565b606091505b505090506040513d806000833e82611017578082fd5b50519695505050505050565b60006060600060c160009054906101000a90046001600160a01b03166001600160a01b031663a327ab696040518163ffffffff1660e01b8152600401602060405180830381865afa15801561107c573d6000803e3d6000fd5b505050506040513d601f19601f820116820180604052508101906110a09190612803565b90506000816001600160a01b0316856040516024016110c191815260200190565b60408051601f198184030181529181526020820180516001600160e01b0316635f3d99b360e01b179052516110f69190612858565b600060405180830381855af49150503d8060008114611131576040519150601f19603f3d011682016040523d82523d6000602084013e611136565b606091505b505090508061114c576040513d806000833e8082fd5b60016040518060400160405280601981526020017f537563636573732065786563757465642070726f706f73616c00000000000000815250935093505050915091565b60008060c160009054906101000a90046001600160a01b03166001600160a01b031663a327ab696040518163ffffffff1660e01b8152600401602060405180830381865afa1580156111e5573d6000803e3d6000fd5b505050506040513d601f19601f820116820180604052508101906112099190612803565b90506000816001600160a01b03168787878760405160240161122e9493929190612820565b60408051601f198184030181529181526020820180516001600160e01b0316630f8c70a960e31b17905251610ca09190612858565b60c554600190600160a81b900460ff1615801561128e575060c55460ff808316600160a01b90920416105b6112f55760405162461bcd60e51b815260206004820152602e60248201527f496e697469616c697a61626c653a20636f6e747261637420697320616c72656160448201526d191e481a5b9a5d1a585b1a5e995960921b606482015260840160405180910390fd5b60c58054600160a81b61ffff60a01b19909116600160a01b60ff85160260ff60a81b191617179055600083600360200201516001600160a01b03168a8a8a8a8a8a8a8a60405160240161134f989796959493929190612a39565b60408051601f198184030181529181526020820180516001600160e01b0316630ee8ffe160e11b179052516113849190612858565b600060405180830381855af49150503d80600081146113bf576040519150601f19603f3d011682016040523d82523d6000602084013e6113c4565b606091505b50509050806113da576040513d806000833e8082fd5b5060c5805460ff60a81b1916905560405160ff821681527f7f26b83ff96e1f2b6a682f133852f6798a09c465da95921460cefb38474024989060200160405180910390a1505050505050505050565b60c1546040805163529382d560e01b815290516000926001600160a01b03169163529382d59160048083019260209291908290030181865afa158015611473573d6000803e3d6000fd5b505050506040513d601f19601f820116820180604052508101906114979190612803565b90506000816001600160a01b031684846040516024016114b89291906121cc565b60408051601f198184030181529181526020820180516001600160e01b0316631039e45b60e31b179052516114ed9190612858565b600060405180830381855af49150503d8060008114611528576040519150601f19603f3d011682016040523d82523d6000602084013e61152d565b606091505b5050905080611543576040513d806000833e8082fd5b50505050565b60008060c160009054906101000a90046001600160a01b03166001600160a01b031663a327ab696040518163ffffffff1660e01b8152600401602060405180830381865afa15801561159f573d6000803e3d6000fd5b505050506040513d601f19601f820116820180604052508101906115c39190612803565b90506000816001600160a01b03168686866040516024016115e693929190612ad1565b60408051601f198184030181529181526020820180516001600160e01b0316630a19a5f560e41b179052516107099190612858565b60c1546040805163a327ab6960e01b815290516000926001600160a01b03169163a327ab699160048083019260209291908290030181865afa158015611665573d6000803e3d6000fd5b505050506040513d601f19601f820116820180604052508101906116899190612803565b90506000816001600160a01b0316868686866040516024016116ae9493929190612b14565b60408051601f198184030181529181526020820180516001600160e01b031663a1c89c9d60e01b179052516107099190612858565b60606083805480602002602001604051908101604052809291908181526020016000905b82821015610bc35760008481526020908190206040805161012081019091526007850290910180546001600160a01b03811683529192909190830190600160a01b900460ff16600881111561175e5761175e6125aa565b600881111561176f5761176f6125aa565b8152602001600182018054611783906128b9565b80601f01602080910402602001604051908101604052809291908181526020018280546117af906128b9565b80156117fc5780601f106117d1576101008083540402835291602001916117fc565b820191906000526020600020905b8154815290600101906020018083116117df57829003601f168201915b505050918352505060028201546020808301919091526003830154604083015260048301546060830152600583015460ff8082161515608085015261010090910416151560a083015260069092015460c0909101529082526001929092019101611707565b6085818154811061187157600080fd5b600091825260209091206004909102018054600182015460028301546003909301546001600160a01b03928316945090928216911684565b60c1546040805163a327ab6960e01b815290516000926001600160a01b03169163a327ab699160048083019260209291908290030181865afa1580156118f3573d6000803e3d6000fd5b505050506040513d601f19601f820116820180604052508101906119179190612803565b90506000816001600160a01b03168686868660405160240161193c9493929190612b7e565b60408051601f198184030181529181526020820180516001600160e01b0316631856754160e31b179052516119719190612858565b600060405180830381855af49150503d80600081146119ac576040519150601f19603f3d011682016040523d82523d6000602084013e6119b1565b606091505b50509050806119c7576040513d806000833e8082fd5b505050505050565b60a56020908152600092835260408084209091529082529020805460018201805460ff8084169461010090940416929190611a09906128b9565b80601f0160208091040260200160405190810160405280929190818152602001828054611a35906128b9565b8015611a825780601f10611a5757610100808354040283529160200191611a82565b820191906000526020600020905b815481529060010190602001808311611a6557829003601f168201915b5050505050905083565b60838181548110611a9c57600080fd5b6000918252602090912060079091020180546001820180546001600160a01b0383169450600160a01b90920460ff169291611ad6906128b9565b80601f0160208091040260200160405190810160405280929190818152602001828054611b02906128b9565b8015611b4f5780601f10611b2457610100808354040283529160200191611b4f565b820191906000526020600020905b815481529060010190602001808311611b3257829003601f168201915b505050600284015460038501546004860154600587015460069097015495969295919450925060ff808316926101009004169089565b60008060c160009054906101000a90046001600160a01b03166001600160a01b031663a327ab696040518163ffffffff1660e01b8152600401602060405180830381865afa158015611bdb573d6000803e3d6000fd5b505050506040513d601f19601f82011682018060405250810190611bff9190612803565b90506000816001600160a01b03168888888888604051602401611c26959493929190612bb1565b60408051601f198184030181529181526020820180516001600160e01b0316636f2d58a760e11b17905251611c5b9190612858565b600060405180830381855af49150503d8060008114611c96576040519150601f19603f3d011682016040523d82523d6000602084013e611c9b565b606091505b505090506040513d806000833e82611cb1578082fd5b505198975050505050505050565b6001600160a01b0381168114611cd457600080fd5b50565b634e487b7160e01b600052604160045260246000fd5b604051606081016001600160401b0381118282101715611d0f57611d0f611cd7565b60405290565b604051601f8201601f191681016001600160401b0381118282101715611d3d57611d3d611cd7565b604052919050565b600082601f830112611d5657600080fd5b81356001600160401b03811115611d6f57611d6f611cd7565b611d82601f8201601f1916602001611d15565b818152846020838601011115611d9757600080fd5b816020850160208301376000918101602001919091529392505050565b60008060008060808587031215611dca57600080fd5b8435611dd581611cbf565b93506020850135925060408501356001600160401b03811115611df757600080fd5b611e0387828801611d45565b949793965093946060013593505050565b600080600080600060a08688031215611e2c57600080fd5b8535611e3781611cbf565b94506020860135611e4781611cbf565b93506040860135925060608601356001600160401b03811115611e6957600080fd5b611e7588828901611d45565b95989497509295608001359392505050565b600060208284031215611e9957600080fd5b5035919050565b60005b83811015611ebb578181015183820152602001611ea3565b838111156115435750506000910152565b60008151808452611ee4816020860160208601611ea0565b601f01601f19169290920160200192915050565b6001600160a01b0384168152606060208201819052600090611f1c90830185611ecc565b90508215156040830152949350505050565b6001600160a01b038616815260a060208201819052600090611f5290830187611ecc565b6040830195909552509115156060830152151560809091015292915050565b60006020808301818452808551808352604092508286019150828160051b87010184880160005b83811015611ff157888303603f19018552815180516001600160a01b0316845287810151606089860181905290611fd182870182611ecc565b928901511515958901959095525094870194925090860190600101611f98565b509098975050505050505050565b6000806000806080858703121561201557600080fd5b843561202081611cbf565b935060208501356001600160401b038082111561203c57600080fd5b61204888838901611d45565b945060408701359350606087013591508082111561206557600080fd5b5061207287828801611d45565b91505092959194509250565b8035801515811461208e57600080fd5b919050565b60008060008060008060c087890312156120ac57600080fd5b86356120b781611cbf565b955060208701356001600160401b03808211156120d357600080fd5b6120df8a838b01611d45565b965060408901359150808211156120f557600080fd5b6121018a838b01611d45565b955061210f60608a0161207e565b94506080890135935060a089013591508082111561212c57600080fd5b5061213989828a01611d45565b9150509295509295509295565b60006020828403121561215857600080fd5b813561216381611cbf565b9392505050565b6020815260006121636020830184611ecc565b60008060006060848603121561219257600080fd5b8335925060208401356001600160401b038111156121af57600080fd5b6121bb86828701611d45565b925050604084013590509250925092565b82151581526040602082015260006121e76040830184611ecc565b949350505050565b600082601f83011261220057600080fd5b604051608081018181106001600160401b038211171561222257612222611cd7565b60405280608084018581111561223757600080fd5b845b8181101561225a57803561224c81611cbf565b835260209283019201612239565b509195945050505050565b60006001600160401b0382111561227e5761227e611cd7565b5060051b60200190565b600082601f83011261229957600080fd5b813560206122ae6122a983612265565b611d15565b82815260059290921b840181019181810190868411156122cd57600080fd5b8286015b848110156122f15780356122e481611cbf565b83529183019183016122d1565b509695505050505050565b6000806000806000806000806101a0898b03121561231957600080fd5b883561232481611cbf565b97506020898101356001600160401b038082111561234157600080fd5b61234d8d838e01611d45565b995061235b60408d0161207e565b985061236960608d0161207e565b975060808c013596508c60bf8d011261238157600080fd5b612389611ced565b9150816101008d018e81111561239e57600080fd5b60a08e015b818110156123ba57803585529385019385016123a3565b508197506123c88f826121ef565b965050506101808c01359250808311156123e157600080fd5b50506123ef8b828c01612288565b9150509295985092959890939650565b6000806040838503121561241257600080fd5b61241b8361207e565b915060208301356001600160401b0381111561243657600080fd5b61244285828601611d45565b9150509250929050565b60008060006060848603121561246157600080fd5b83356001600160401b038082111561247857600080fd5b61248487838801611d45565b9450602086013591508082111561249a57600080fd5b6124a687838801611d45565b935060408601359150808211156124bc57600080fd5b506124c986828701611d45565b9150509250925092565b600080600080608085870312156124e957600080fd5b84356001600160401b038082111561250057600080fd5b818701915087601f83011261251457600080fd5b813560206125246122a983612265565b82815260059290921b8401810191818101908b84111561254357600080fd5b948201945b8386101561256157853582529482019490820190612548565b9850612570905089820161207e565b96505050604087013591508082111561258857600080fd5b61259488838901611d45565b9350606087013591508082111561206557600080fd5b634e487b7160e01b600052602160045260246000fd5b600981106125de57634e487b7160e01b600052602160045260246000fd5b9052565b60006020808301818452808551808352604092508286019150828160051b87010184880160005b83811015611ff157888303603f19018552815180516001600160a01b031684526101208882015161263c8a8701826125c0565b5087820151818987015261265282870182611ecc565b606084810151908801526080808501519088015260a0808501519088015260c08085015115159088015260e08085015115159088015261010093840151939096019290925250509386019390860190600101612609565b600080600080608085870312156126bf57600080fd5b843593506126cf6020860161207e565b925060408501356001600160401b038082111561258857600080fd5b600080604083850312156126fe57600080fd5b82359150602083013561271081611cbf565b809150509250929050565b8315158152821515602082015260606040820152600061273e6060830184611ecc565b95945050505050565b6001600160a01b038a1681526000610120612765602084018c6125c0565b8060408401526127778184018b611ecc565b60608401999099525050608081019590955260a085019390935290151560c0840152151560e0830152610100909101529392505050565b600080600080600060a086880312156127c657600080fd5b85356127d181611cbf565b94506020860135935060408601356127e881611cbf565b925060608601356001600160401b03811115611e6957600080fd5b60006020828403121561281557600080fd5b815161216381611cbf565b60018060a01b03851681528360208201526080604082015260006128476080830185611ecc565b905082606083015295945050505050565b6000825161286a818460208701611ea0565b9190910192915050565b6001600160a01b038681168252851660208201526040810184905260a0606082018190526000906128a790830185611ecc565b90508260808301529695505050505050565b600181811c908216806128cd57607f821691505b602082108114156128ee57634e487b7160e01b600052602260045260246000fd5b50919050565b6001600160a01b038516815260806020820181905260009061291890830186611ecc565b84604084015282810360608401526129308185611ecc565b979650505050505050565b6001600160a01b038716815260c06020820181905260009061295f90830188611ecc565b82810360408401526129718188611ecc565b9050851515606084015284608084015282810360a08401526129938185611ecc565b9998505050505050505050565b8381526060602082015260006129b96060830185611ecc565b9050826040830152949350505050565b8060005b60048110156115435781516001600160a01b03168452602093840193909101906001016129cd565b600081518084526020808501945080840160005b83811015612a2e5781516001600160a01b031687529582019590820190600101612a09565b509495945050505050565b6001600160a01b03891681526101a0602080830182905260009190612a608483018c611ecc565b91508915156040850152881515606085015287608085015260a084018760005b6003811015612a9d57815183529183019190830190600101612a80565b50505050612aaf6101008401866129c9565b828103610180840152612ac281856129f5565b9b9a5050505050505050505050565b606081526000612ae46060830186611ecc565b8281036020840152612af68186611ecc565b90508281036040840152612b0a8185611ecc565b9695505050505050565b6080808252855190820181905260009060209060a0840190828901845b82811015612b4d57815184529284019290840190600101612b31565b505050861515828501528381036040850152612b698187611ecc565b91505082810360608401526129308185611ecc565b8481528315156020820152608060408201526000612b9f6080830185611ecc565b82810360608401526129308185611ecc565b6001600160a01b038681168252602082018690528416604082015260a0606082018190526000906128a790830185611ecc56fea2646970667358221220bd831aadb9bdd3cc2feb48dca91f2374b3efe0c0a72b00834adbf1aab38f860164736f6c634300080c0033",
  "bytecodeSha1": "282beaa7a55d3b89906d5619f516cfa9a5d0691a",
  "compiler": {
    "evm_version": "istanbul",
    "optimizer": {
      "enabled": true,
      "runs": 200
    },
    "version": "0.8.12+commit.f00d7308"
  },
  "contractName": "CLHouse",
  "language": "Solidity",
  "natspec": {
    "author": "Leonardo Urrego",
    "kind": "dev",
    "methods": {
      "AcceptRejectInvitation(bool,bytes)": {
        "notice": "For an user that have an invitation pending",
        "params": {
          "_acceptance": "True for accept the invitation"
        }
      },
      "ExecProp(uint256)": {
        "details": "Normally is called internally after each vote",
        "notice": "Execute (or reject) a proposal computing the votes and the governance model",
        "params": {
          "_propId": "ID of the proposal, based on `arrProposals`"
        },
        "returns": {
          "message": "result of the transaction",
          "status": "True if the proposal can be execute, false in other cases"
        }
      },
      "GetArrDataPropUser()": {
        "notice": "Get complete array of arrDataPropUser",
        "returns": {
          "_0": "arrDataPropUser the array with all data"
        }
      },
      "GetArrProposalsLength()": {
        "notice": "Length of arrProposals array"
      },
      "GetArrUsersLength()": {
        "notice": "Length of arrUsers array"
      },
      "GetProposalList()": {
        "notice": "The list of all Proposals",
        "returns": {
          "_0": "arrProposals the array with all proposals"
        }
      },
      "Init(address,string,bool,bool,bytes32,uint256[3],address[4],address[])": {
        "details": "Some parameters can be ignored depending on the governance model",
        "notice": "Create a new CLH",
        "params": {
          "_CLC": "Array for CL Contracts see `enum eCLC`",
          "_ManagerWallets": "Whitelist of address for invitate as managers",
          "_govModel": "keccak256 hash of the governance model, see the __GOV_* constans",
          "_govRules": "Array for goverment rules see `enum gRule`",
          "_houseName": "Name given by the owner",
          "_houseOpen": "If is set to 1, the CLH is set to Open",
          "_housePrivate": "If is set to 1, the CLH is set to private",
          "_owner": "The address of the deployed wallet"
        }
      },
      "PropGovRules(uint256,string,uint256)": {
        "details": "When execute this proposal the new values will be set",
        "notice": "Generate a new proposal for change some governance parameters",
        "params": {
          "_description": "About the new proposal ",
          "_newApprovPercentage": "The new percentaje for accept or reject a proposal"
        },
        "returns": {
          "propId": "ID of the new proposal, based on `arrProposals`"
        }
      },
      "PropInviteUser(address,string,string,bool,uint256,bytes)": {
        "details": "the execution of this proposal only create an invitation ",
        "notice": "Generate a new proposal to invite a new user",
        "params": {
          "_description": "A text for the proposal",
          "_isManager": "True if is for a manager",
          "_name": "Can be the nickname or other reference to the User",
          "_walletAddr": "Address of the new user"
        },
        "returns": {
          "propId": "ID of the new proposal, based on `arrProposals`"
        }
      },
      "PropRemoveUser(address,string,uint256,bytes)": {
        "details": "The user can be a managaer",
        "notice": "Generate a new proposal for remove a user",
        "params": {
          "_description": "About the proposal",
          "_walletAddr": "user Address to be removed"
        },
        "returns": {
          "propId": "ID of the new proposal, based on `arrProposals`"
        }
      },
      "PropRequestToJoin(string,string,bytes)": {
        "details": "Only avaiable in public CLH",
        "notice": "Generate a proposal from a user that want to join to the CLH",
        "params": {
          "_description": "About the request",
          "_name": "Nickname or other user identification"
        },
        "returns": {
          "_0": "propId ID of the new proposal, based on `arrProposals`"
        }
      },
      "PropTxERC20(address,uint256,address,string,uint256)": {
        "details": "When execute this proposal, the transfer is made",
        "notice": "generate a new proposal to transfer ETH in weis",
        "params": {
          "_amountOutCLV": "Amount to transfer (in wei)",
          "_description": "About this proposal",
          "_to": "Recipient address"
        },
        "returns": {
          "propId": "ID of the new proposal, based on `arrProposals`"
        }
      },
      "PropTxWei(address,uint256,string,uint256)": {
        "details": "When execute this proposal, the transfer is made",
        "notice": "generate a new proposal to transfer ETH in weis",
        "params": {
          "_amountOutCLV": "Amount to transfer (in wei)",
          "_description": "About this proposal",
          "_to": "Recipient address"
        },
        "returns": {
          "propId": "ID of the new proposal, based on `arrProposals`"
        }
      },
      "VoteProposal(uint256,bool,string,bytes)": {
        "details": "After vote the proposal automatically try to be executed",
        "notice": "Used to vote a proposal",
        "params": {
          "_justification": "About your vote",
          "_propId": "ID of the proposal, based on `arrProposals`",
          "_support": "True for accept, false to reject"
        }
      },
      "bulkVote(uint256[],bool,string,bytes)": {
        "notice": "Vote for multiple proposal",
        "params": {
          "_justification": "Description of the vote",
          "_propId": "Array with ID of the proposal to votes",
          "_support": "is the Vote (True or False) for all proposals"
        }
      },
      "constructor": {
        "custom:oz-upgrades-unsafe-allow": "constructor"
      },
      "housePrivate()": {
        "notice": "### CLH Public Variables ###"
      }
    },
    "notice": "This contract for test only the most basic interactions",
    "title": "Contract to implement and test the basic fuctions of CLHouses",
    "version": 1
  },
  "opcodes": "PUSH1 0x80 PUSH1 0x40 MSTORE CALLVALUE DUP1 ISZERO PUSH2 0x10 JUMPI PUSH1 0x0 DUP1 REVERT JUMPDEST POP PUSH1 0x4 CALLDATASIZE LT PUSH2 0x269 JUMPI PUSH1 0x0 CALLDATALOAD PUSH1 0xE0 SHR DUP1 PUSH4 0x6C2F34E7 GT PUSH2 0x151 JUMPI DUP1 PUSH4 0xA693649A GT PUSH2 0xC3 JUMPI DUP1 PUSH4 0xCADA7F19 GT PUSH2 0x87 JUMPI DUP1 PUSH4 0xCADA7F19 EQ PUSH2 0x5C8 JUMPI DUP1 PUSH4 0xCB85669C EQ PUSH2 0x5DB JUMPI DUP1 PUSH4 0xDE5AB14E EQ PUSH2 0x603 JUMPI DUP1 PUSH4 0xE68777D7 EQ PUSH2 0x616 JUMPI DUP1 PUSH4 0xE810A58E EQ PUSH2 0x61F JUMPI DUP1 PUSH4 0xF00D6274 EQ PUSH2 0x628 JUMPI PUSH1 0x0 DUP1 REVERT JUMPDEST DUP1 PUSH4 0xA693649A EQ PUSH2 0x530 JUMPI DUP1 PUSH4 0xB4C62192 EQ PUSH2 0x538 JUMPI DUP1 PUSH4 0xBAA4D5E9 EQ PUSH2 0x54D JUMPI DUP1 PUSH4 0xC2B3AA08 EQ PUSH2 0x593 JUMPI DUP1 PUSH4 0xC347D2FD EQ PUSH2 0x5A6 JUMPI PUSH1 0x0 DUP1 REVERT JUMPDEST DUP1 PUSH4 0x860228FD GT PUSH2 0x115 JUMPI DUP1 PUSH4 0x860228FD EQ PUSH2 0x4BB JUMPI DUP1 PUSH4 0x9360BFAD EQ PUSH2 0x4DB JUMPI DUP1 PUSH4 0x9C630A88 EQ PUSH2 0x4EE JUMPI DUP1 PUSH4 0xA0A625F9 EQ PUSH2 0x4F7 JUMPI DUP1 PUSH4 0xA19A5F50 EQ PUSH2 0x50A JUMPI DUP1 PUSH4 0xA1C89C9D EQ PUSH2 0x51D JUMPI PUSH1 0x0 DUP1 REVERT JUMPDEST DUP1 PUSH4 0x6C2F34E7 EQ PUSH2 0x44D JUMPI DUP1 PUSH4 0x70FF918C EQ PUSH2 0x460 JUMPI DUP1 PUSH4 0x7C638548 EQ PUSH2 0x480 JUMPI DUP1 PUSH4 0x7E66495D EQ PUSH2 0x493 JUMPI DUP1 PUSH4 0x81CF22D8 EQ PUSH2 0x4A8 JUMPI PUSH1 0x0 DUP1 REVERT JUMPDEST DUP1 PUSH4 0x2266E1BC GT PUSH2 0x1EA JUMPI DUP1 PUSH4 0x3A70693D GT PUSH2 0x1AE JUMPI DUP1 PUSH4 0x3A70693D EQ PUSH2 0x3C9 JUMPI DUP1 PUSH4 0x4E9D5472 EQ PUSH2 0x3DC JUMPI DUP1 PUSH4 0x50F7308A EQ PUSH2 0x3E4 JUMPI DUP1 PUSH4 0x59CA2D03 EQ PUSH2 0x404 JUMPI DUP1 PUSH4 0x5DE58F60 EQ PUSH2 0x419 JUMPI DUP1 PUSH4 0x5F3D99B3 EQ PUSH2 0x42C JUMPI PUSH1 0x0 DUP1 REVERT JUMPDEST DUP1 PUSH4 0x2266E1BC EQ PUSH2 0x357 JUMPI DUP1 PUSH4 0x22B4081C EQ PUSH2 0x36A JUMPI DUP1 PUSH4 0x29647EE5 EQ PUSH2 0x38E JUMPI DUP1 PUSH4 0x2A57EF84 EQ PUSH2 0x3A3 JUMPI DUP1 PUSH4 0x31A0AFA7 EQ PUSH2 0x3B6 JUMPI PUSH1 0x0 DUP1 REVERT JUMPDEST DUP1 PUSH4 0x1707ACE8 GT PUSH2 0x231 JUMPI DUP1 PUSH4 0x1707ACE8 EQ PUSH2 0x2EE JUMPI DUP1 PUSH4 0x19A50F49 EQ PUSH2 0x310 JUMPI DUP1 PUSH4 0x1D5FD3CA EQ PUSH2 0x319 JUMPI DUP1 PUSH4 0x1F2E1339 EQ PUSH2 0x322 JUMPI DUP1 PUSH4 0x1F50DD27 EQ PUSH2 0x344 JUMPI PUSH1 0x0 DUP1 REVERT JUMPDEST DUP1 PUSH4 0x4F17A9B EQ PUSH2 0x26E JUMPI DUP1 PUSH4 0x52F9B0A EQ PUSH2 0x294 JUMPI DUP1 PUSH4 0x10790717 EQ PUSH2 0x2BF JUMPI DUP1 PUSH4 0x1343E9A5 EQ PUSH2 0x2D2 JUMPI DUP1 PUSH4 0x152DE3B9 EQ PUSH2 0x2DB JUMPI JUMPDEST PUSH1 0x0 DUP1 REVERT JUMPDEST PUSH2 0x281 PUSH2 0x27C CALLDATASIZE PUSH1 0x4 PUSH2 0x1DB4 JUMP JUMPDEST PUSH2 0x635 JUMP JUMPDEST PUSH1 0x40 MLOAD SWAP1 DUP2 MSTORE PUSH1 0x20 ADD JUMPDEST PUSH1 0x40 MLOAD DUP1 SWAP2 SUB SWAP1 RETURN JUMPDEST PUSH1 0xC4 SLOAD PUSH2 0x2A7 SWAP1 PUSH1 0x1 PUSH1 0x1 PUSH1 0xA0 SHL SUB AND DUP2 JUMP JUMPDEST PUSH1 0x40 MLOAD PUSH1 0x1 PUSH1 0x1 PUSH1 0xA0 SHL SUB SWAP1 SWAP2 AND DUP2 MSTORE PUSH1 0x20 ADD PUSH2 0x28B JUMP JUMPDEST PUSH1 0x22 SLOAD PUSH2 0x2A7 SWAP1 PUSH1 0x1 PUSH1 0x1 PUSH1 0xA0 SHL SUB AND DUP2 JUMP JUMPDEST PUSH2 0x281 PUSH1 0x5 SLOAD DUP2 JUMP JUMPDEST PUSH2 0x281 PUSH2 0x2E9 CALLDATASIZE PUSH1 0x4 PUSH2 0x1E14 JUMP JUMPDEST PUSH2 0x763 JUMP JUMPDEST PUSH2 0x301 PUSH2 0x2FC CALLDATASIZE PUSH1 0x4 PUSH2 0x1E87 JUMP JUMPDEST PUSH2 0x839 JUMP JUMPDEST PUSH1 0x40 MLOAD PUSH2 0x28B SWAP4 SWAP3 SWAP2 SWAP1 PUSH2 0x1EF8 JUMP JUMPDEST PUSH2 0x281 PUSH1 0x2 SLOAD DUP2 JUMP JUMPDEST PUSH2 0x281 PUSH1 0x62 SLOAD DUP2 JUMP JUMPDEST PUSH1 0x0 SLOAD PUSH2 0x334 SWAP1 PUSH2 0x100 SWAP1 DIV PUSH1 0xFF AND DUP2 JUMP JUMPDEST PUSH1 0x40 MLOAD SWAP1 ISZERO ISZERO DUP2 MSTORE PUSH1 0x20 ADD PUSH2 0x28B JUMP JUMPDEST PUSH1 0xC5 SLOAD PUSH2 0x2A7 SWAP1 PUSH1 0x1 PUSH1 0x1 PUSH1 0xA0 SHL SUB AND DUP2 JUMP JUMPDEST PUSH2 0x281 PUSH2 0x365 CALLDATASIZE PUSH1 0x4 PUSH2 0x1DB4 JUMP JUMPDEST PUSH2 0x904 JUMP JUMPDEST PUSH2 0x37D PUSH2 0x378 CALLDATASIZE PUSH1 0x4 PUSH2 0x1E87 JUMP JUMPDEST PUSH2 0x9D8 JUMP JUMPDEST PUSH1 0x40 MLOAD PUSH2 0x28B SWAP6 SWAP5 SWAP4 SWAP3 SWAP2 SWAP1 PUSH2 0x1F2E JUMP JUMPDEST PUSH2 0x396 PUSH2 0xAB3 JUMP JUMPDEST PUSH1 0x40 MLOAD PUSH2 0x28B SWAP2 SWAP1 PUSH2 0x1F71 JUMP JUMPDEST PUSH2 0x281 PUSH2 0x3B1 CALLDATASIZE PUSH1 0x4 PUSH2 0x1FFF JUMP JUMPDEST PUSH2 0xBCC JUMP JUMPDEST PUSH2 0x281 PUSH2 0x3C4 CALLDATASIZE PUSH1 0x4 PUSH2 0x2093 JUMP JUMPDEST PUSH2 0xD03 JUMP JUMPDEST PUSH2 0x281 PUSH2 0x3D7 CALLDATASIZE PUSH1 0x4 PUSH2 0x1E87 JUMP JUMPDEST PUSH2 0xE40 JUMP JUMPDEST PUSH1 0x83 SLOAD PUSH2 0x281 JUMP JUMPDEST PUSH2 0x281 PUSH2 0x3F2 CALLDATASIZE PUSH1 0x4 PUSH2 0x2146 JUMP JUMPDEST PUSH1 0xA3 PUSH1 0x20 MSTORE PUSH1 0x0 SWAP1 DUP2 MSTORE PUSH1 0x40 SWAP1 KECCAK256 SLOAD DUP2 JUMP JUMPDEST PUSH2 0x40C PUSH2 0xE61 JUMP JUMPDEST PUSH1 0x40 MLOAD PUSH2 0x28B SWAP2 SWAP1 PUSH2 0x216A JUMP JUMPDEST PUSH2 0x281 PUSH2 0x427 CALLDATASIZE PUSH1 0x4 PUSH2 0x217D JUMP JUMPDEST PUSH2 0xEEF JUMP JUMPDEST PUSH2 0x43F PUSH2 0x43A CALLDATASIZE PUSH1 0x4 PUSH2 0x1E87 JUMP JUMPDEST PUSH2 0x1023 JUMP JUMPDEST PUSH1 0x40 MLOAD PUSH2 0x28B SWAP3 SWAP2 SWAP1 PUSH2 0x21CC JUMP JUMPDEST PUSH1 0xC2 SLOAD PUSH2 0x2A7 SWAP1 PUSH1 0x1 PUSH1 0x1 PUSH1 0xA0 SHL SUB AND DUP2 JUMP JUMPDEST PUSH2 0x281 PUSH2 0x46E CALLDATASIZE PUSH1 0x4 PUSH2 0x2146 JUMP JUMPDEST PUSH1 0xA2 PUSH1 0x20 MSTORE PUSH1 0x0 SWAP1 DUP2 MSTORE PUSH1 0x40 SWAP1 KECCAK256 SLOAD DUP2 JUMP JUMPDEST PUSH2 0x281 PUSH2 0x48E CALLDATASIZE PUSH1 0x4 PUSH2 0x1DB4 JUMP JUMPDEST PUSH2 0x118F JUMP JUMPDEST PUSH2 0x4A6 PUSH2 0x4A1 CALLDATASIZE PUSH1 0x4 PUSH2 0x22FC JUMP JUMPDEST PUSH2 0x1263 JUMP JUMPDEST STOP JUMPDEST PUSH2 0x4A6 PUSH2 0x4B6 CALLDATASIZE PUSH1 0x4 PUSH2 0x23FF JUMP JUMPDEST PUSH2 0x1429 JUMP JUMPDEST PUSH2 0x281 PUSH2 0x4C9 CALLDATASIZE PUSH1 0x4 PUSH2 0x2146 JUMP JUMPDEST PUSH1 0xA4 PUSH1 0x20 MSTORE PUSH1 0x0 SWAP1 DUP2 MSTORE PUSH1 0x40 SWAP1 KECCAK256 SLOAD DUP2 JUMP JUMPDEST PUSH1 0xC3 SLOAD PUSH2 0x2A7 SWAP1 PUSH1 0x1 PUSH1 0x1 PUSH1 0xA0 SHL SUB AND DUP2 JUMP JUMPDEST PUSH2 0x281 PUSH1 0x4 SLOAD DUP2 JUMP JUMPDEST PUSH1 0xC1 SLOAD PUSH2 0x2A7 SWAP1 PUSH1 0x1 PUSH1 0x1 PUSH1 0xA0 SHL SUB AND DUP2 JUMP JUMPDEST PUSH2 0x281 PUSH2 0x518 CALLDATASIZE PUSH1 0x4 PUSH2 0x244C JUMP JUMPDEST PUSH2 0x1549 JUMP JUMPDEST PUSH2 0x4A6 PUSH2 0x52B CALLDATASIZE PUSH1 0x4 PUSH2 0x24D3 JUMP JUMPDEST PUSH2 0x161B JUMP JUMPDEST PUSH1 0x82 SLOAD PUSH2 0x281 JUMP JUMPDEST PUSH2 0x540 PUSH2 0x16E3 JUMP JUMPDEST PUSH1 0x40 MLOAD PUSH2 0x28B SWAP2 SWAP1 PUSH2 0x25E2 JUMP JUMPDEST PUSH2 0x560 PUSH2 0x55B CALLDATASIZE PUSH1 0x4 PUSH2 0x1E87 JUMP JUMPDEST PUSH2 0x1861 JUMP JUMPDEST PUSH1 0x40 DUP1 MLOAD PUSH1 0x1 PUSH1 0x1 PUSH1 0xA0 SHL SUB SWAP6 DUP7 AND DUP2 MSTORE PUSH1 0x20 DUP2 ADD SWAP5 SWAP1 SWAP5 MSTORE SWAP2 DUP5 AND SWAP2 DUP4 ADD SWAP2 SWAP1 SWAP2 MSTORE SWAP1 SWAP2 AND PUSH1 0x60 DUP3 ADD MSTORE PUSH1 0x80 ADD PUSH2 0x28B JUMP JUMPDEST PUSH2 0x4A6 PUSH2 0x5A1 CALLDATASIZE PUSH1 0x4 PUSH2 0x26A9 JUMP JUMPDEST PUSH2 0x18A9 JUMP JUMPDEST PUSH2 0x5B9 PUSH2 0x5B4 CALLDATASIZE PUSH1 0x4 PUSH2 0x26EB JUMP JUMPDEST PUSH2 0x19CF JUMP JUMPDEST PUSH1 0x40 MLOAD PUSH2 0x28B SWAP4 SWAP3 SWAP2 SWAP1 PUSH2 0x271B JUMP JUMPDEST PUSH1 0x23 SLOAD PUSH2 0x2A7 SWAP1 PUSH1 0x1 PUSH1 0x1 PUSH1 0xA0 SHL SUB AND DUP2 JUMP JUMPDEST PUSH2 0x5EE PUSH2 0x5E9 CALLDATASIZE PUSH1 0x4 PUSH2 0x1E87 JUMP JUMPDEST PUSH2 0x1A8C JUMP JUMPDEST PUSH1 0x40 MLOAD PUSH2 0x28B SWAP10 SWAP9 SWAP8 SWAP7 SWAP6 SWAP5 SWAP4 SWAP3 SWAP2 SWAP1 PUSH2 0x2747 JUMP JUMPDEST PUSH2 0x281 PUSH2 0x611 CALLDATASIZE PUSH1 0x4 PUSH2 0x27AE JUMP JUMPDEST PUSH2 0x1B85 JUMP JUMPDEST PUSH2 0x281 PUSH1 0x3 SLOAD DUP2 JUMP JUMPDEST PUSH2 0x281 PUSH1 0x6 SLOAD DUP2 JUMP JUMPDEST PUSH1 0x0 SLOAD PUSH2 0x334 SWAP1 PUSH1 0xFF AND DUP2 JUMP JUMPDEST PUSH1 0x0 DUP1 PUSH1 0xC1 PUSH1 0x0 SWAP1 SLOAD SWAP1 PUSH2 0x100 EXP SWAP1 DIV PUSH1 0x1 PUSH1 0x1 PUSH1 0xA0 SHL SUB AND PUSH1 0x1 PUSH1 0x1 PUSH1 0xA0 SHL SUB AND PUSH4 0xA327AB69 PUSH1 0x40 MLOAD DUP2 PUSH4 0xFFFFFFFF AND PUSH1 0xE0 SHL DUP2 MSTORE PUSH1 0x4 ADD PUSH1 0x20 PUSH1 0x40 MLOAD DUP1 DUP4 SUB DUP2 DUP7 GAS STATICCALL ISZERO DUP1 ISZERO PUSH2 0x68B JUMPI RETURNDATASIZE PUSH1 0x0 DUP1 RETURNDATACOPY RETURNDATASIZE PUSH1 0x0 REVERT JUMPDEST POP POP POP POP PUSH1 0x40 MLOAD RETURNDATASIZE PUSH1 0x1F NOT PUSH1 0x1F DUP3 ADD AND DUP3 ADD DUP1 PUSH1 0x40 MSTORE POP DUP2 ADD SWAP1 PUSH2 0x6AF SWAP2 SWAP1 PUSH2 0x2803 JUMP JUMPDEST SWAP1 POP PUSH1 0x0 DUP2 PUSH1 0x1 PUSH1 0x1 PUSH1 0xA0 SHL SUB AND DUP8 DUP8 DUP8 DUP8 PUSH1 0x40 MLOAD PUSH1 0x24 ADD PUSH2 0x6D4 SWAP5 SWAP4 SWAP3 SWAP2 SWAP1 PUSH2 0x2820 JUMP JUMPDEST PUSH1 0x40 DUP1 MLOAD PUSH1 0x1F NOT DUP2 DUP5 SUB ADD DUP2 MSTORE SWAP2 DUP2 MSTORE PUSH1 0x20 DUP3 ADD DUP1 MLOAD PUSH1 0x1 PUSH1 0x1 PUSH1 0xE0 SHL SUB AND PUSH4 0x4F17A9B PUSH1 0xE0 SHL OR SWAP1 MSTORE MLOAD PUSH2 0x709 SWAP2 SWAP1 PUSH2 0x2858 JUMP JUMPDEST PUSH1 0x0 PUSH1 0x40 MLOAD DUP1 DUP4 SUB DUP2 DUP6 GAS DELEGATECALL SWAP2 POP POP RETURNDATASIZE DUP1 PUSH1 0x0 DUP2 EQ PUSH2 0x744 JUMPI PUSH1 0x40 MLOAD SWAP2 POP PUSH1 0x1F NOT PUSH1 0x3F RETURNDATASIZE ADD AND DUP3 ADD PUSH1 0x40 MSTORE RETURNDATASIZE DUP3 MSTORE RETURNDATASIZE PUSH1 0x0 PUSH1 0x20 DUP5 ADD RETURNDATACOPY PUSH2 0x749 JUMP JUMPDEST PUSH1 0x60 SWAP2 POP JUMPDEST POP POP SWAP1 POP PUSH1 0x40 MLOAD RETURNDATASIZE DUP1 PUSH1 0x0 DUP4 RETURNDATACOPY DUP3 PUSH2 0x75F JUMPI DUP1 DUP3 REVERT JUMPDEST DUP1 DUP3 RETURN JUMPDEST PUSH1 0x0 DUP1 PUSH1 0xC1 PUSH1 0x0 SWAP1 SLOAD SWAP1 PUSH2 0x100 EXP SWAP1 DIV PUSH1 0x1 PUSH1 0x1 PUSH1 0xA0 SHL SUB AND PUSH1 0x1 PUSH1 0x1 PUSH1 0xA0 SHL SUB AND PUSH4 0xA327AB69 PUSH1 0x40 MLOAD DUP2 PUSH4 0xFFFFFFFF AND PUSH1 0xE0 SHL DUP2 MSTORE PUSH1 0x4 ADD PUSH1 0x20 PUSH1 0x40 MLOAD DUP1 DUP4 SUB DUP2 DUP7 GAS STATICCALL ISZERO DUP1 ISZERO PUSH2 0x7B9 JUMPI RETURNDATASIZE PUSH1 0x0 DUP1 RETURNDATACOPY RETURNDATASIZE PUSH1 0x0 REVERT JUMPDEST POP POP POP POP PUSH1 0x40 MLOAD RETURNDATASIZE PUSH1 0x1F NOT PUSH1 0x1F DUP3 ADD AND DUP3 ADD DUP1 PUSH1 0x40 MSTORE POP DUP2 ADD SWAP1 PUSH2 0x7DD SWAP2 SWAP1 PUSH2 0x2803 JUMP JUMPDEST SWAP1 POP PUSH1 0x0 DUP2 PUSH1 0x1 PUSH1 0x1 PUSH1 0xA0 SHL SUB AND DUP9 DUP9 DUP9 DUP9 DUP9 PUSH1 0x40 MLOAD PUSH1 0x24 ADD PUSH2 0x804 SWAP6 SWAP5 SWAP4 SWAP3 SWAP2 SWAP1 PUSH2 0x2874 JUMP JUMPDEST PUSH1 0x40 DUP1 MLOAD PUSH1 0x1F NOT DUP2 DUP5 SUB ADD DUP2 MSTORE SWAP2 DUP2 MSTORE PUSH1 0x20 DUP3 ADD DUP1 MLOAD PUSH1 0x1 PUSH1 0x1 PUSH1 0xE0 SHL SUB AND PUSH4 0x152DE3B9 PUSH1 0xE0 SHL OR SWAP1 MSTORE MLOAD PUSH2 0x709 SWAP2 SWAP1 PUSH2 0x2858 JUMP JUMPDEST PUSH1 0x84 DUP2 DUP2 SLOAD DUP2 LT PUSH2 0x849 JUMPI PUSH1 0x0 DUP1 REVERT JUMPDEST PUSH1 0x0 SWAP2 DUP3 MSTORE PUSH1 0x20 SWAP1 SWAP2 KECCAK256 PUSH1 0x3 SWAP1 SWAP2 MUL ADD DUP1 SLOAD PUSH1 0x1 DUP3 ADD DUP1 SLOAD PUSH1 0x1 PUSH1 0x1 PUSH1 0xA0 SHL SUB SWAP1 SWAP3 AND SWAP4 POP SWAP1 PUSH2 0x878 SWAP1 PUSH2 0x28B9 JUMP JUMPDEST DUP1 PUSH1 0x1F ADD PUSH1 0x20 DUP1 SWAP2 DIV MUL PUSH1 0x20 ADD PUSH1 0x40 MLOAD SWAP1 DUP2 ADD PUSH1 0x40 MSTORE DUP1 SWAP3 SWAP2 SWAP1 DUP2 DUP2 MSTORE PUSH1 0x20 ADD DUP3 DUP1 SLOAD PUSH2 0x8A4 SWAP1 PUSH2 0x28B9 JUMP JUMPDEST DUP1 ISZERO PUSH2 0x8F1 JUMPI DUP1 PUSH1 0x1F LT PUSH2 0x8C6 JUMPI PUSH2 0x100 DUP1 DUP4 SLOAD DIV MUL DUP4 MSTORE SWAP2 PUSH1 0x20 ADD SWAP2 PUSH2 0x8F1 JUMP JUMPDEST DUP3 ADD SWAP2 SWAP1 PUSH1 0x0 MSTORE PUSH1 0x20 PUSH1 0x0 KECCAK256 SWAP1 JUMPDEST DUP2 SLOAD DUP2 MSTORE SWAP1 PUSH1 0x1 ADD SWAP1 PUSH1 0x20 ADD DUP1 DUP4 GT PUSH2 0x8D4 JUMPI DUP3 SWAP1 SUB PUSH1 0x1F AND DUP3 ADD SWAP2 JUMPDEST POP POP POP PUSH1 0x2 SWAP1 SWAP4 ADD SLOAD SWAP2 SWAP3 POP POP PUSH1 0xFF AND DUP4 JUMP JUMPDEST PUSH1 0x0 DUP1 PUSH1 0xC1 PUSH1 0x0 SWAP1 SLOAD SWAP1 PUSH2 0x100 EXP SWAP1 DIV PUSH1 0x1 PUSH1 0x1 PUSH1 0xA0 SHL SUB AND PUSH1 0x1 PUSH1 0x1 PUSH1 0xA0 SHL SUB AND PUSH4 0xA327AB69 PUSH1 0x40 MLOAD DUP2 PUSH4 0xFFFFFFFF AND PUSH1 0xE0 SHL DUP2 MSTORE PUSH1 0x4 ADD PUSH1 0x20 PUSH1 0x40 MLOAD DUP1 DUP4 SUB DUP2 DUP7 GAS STATICCALL ISZERO DUP1 ISZERO PUSH2 0x95A JUMPI RETURNDATASIZE PUSH1 0x0 DUP1 RETURNDATACOPY RETURNDATASIZE PUSH1 0x0 REVERT JUMPDEST POP POP POP POP PUSH1 0x40 MLOAD RETURNDATASIZE PUSH1 0x1F NOT PUSH1 0x1F DUP3 ADD AND DUP3 ADD DUP1 PUSH1 0x40 MSTORE POP DUP2 ADD SWAP1 PUSH2 0x97E SWAP2 SWAP1 PUSH2 0x2803 JUMP JUMPDEST SWAP1 POP PUSH1 0x0 DUP2 PUSH1 0x1 PUSH1 0x1 PUSH1 0xA0 SHL SUB AND DUP8 DUP8 DUP8 DUP8 PUSH1 0x40 MLOAD PUSH1 0x24 ADD PUSH2 0x9A3 SWAP5 SWAP4 SWAP3 SWAP2 SWAP1 PUSH2 0x2820 JUMP JUMPDEST PUSH1 0x40 DUP1 MLOAD PUSH1 0x1F NOT DUP2 DUP5 SUB ADD DUP2 MSTORE SWAP2 DUP2 MSTORE PUSH1 0x20 DUP3 ADD DUP1 MLOAD PUSH1 0x1 PUSH1 0x1 PUSH1 0xE0 SHL SUB AND PUSH4 0x899B86F PUSH1 0xE2 SHL OR SWAP1 MSTORE MLOAD PUSH2 0x709 SWAP2 SWAP1 PUSH2 0x2858 JUMP JUMPDEST PUSH1 0x82 DUP2 DUP2 SLOAD DUP2 LT PUSH2 0x9E8 JUMPI PUSH1 0x0 DUP1 REVERT JUMPDEST PUSH1 0x0 SWAP2 DUP3 MSTORE PUSH1 0x20 SWAP1 SWAP2 KECCAK256 PUSH1 0x4 SWAP1 SWAP2 MUL ADD DUP1 SLOAD PUSH1 0x1 DUP3 ADD DUP1 SLOAD PUSH1 0x1 PUSH1 0x1 PUSH1 0xA0 SHL SUB SWAP1 SWAP3 AND SWAP4 POP SWAP1 PUSH2 0xA17 SWAP1 PUSH2 0x28B9 JUMP JUMPDEST DUP1 PUSH1 0x1F ADD PUSH1 0x20 DUP1 SWAP2 DIV MUL PUSH1 0x20 ADD PUSH1 0x40 MLOAD SWAP1 DUP2 ADD PUSH1 0x40 MSTORE DUP1 SWAP3 SWAP2 SWAP1 DUP2 DUP2 MSTORE PUSH1 0x20 ADD DUP3 DUP1 SLOAD PUSH2 0xA43 SWAP1 PUSH2 0x28B9 JUMP JUMPDEST DUP1 ISZERO PUSH2 0xA90 JUMPI DUP1 PUSH1 0x1F LT PUSH2 0xA65 JUMPI PUSH2 0x100 DUP1 DUP4 SLOAD DIV MUL DUP4 MSTORE SWAP2 PUSH1 0x20 ADD SWAP2 PUSH2 0xA90 JUMP JUMPDEST DUP3 ADD SWAP2 SWAP1 PUSH1 0x0 MSTORE PUSH1 0x20 PUSH1 0x0 KECCAK256 SWAP1 JUMPDEST DUP2 SLOAD DUP2 MSTORE SWAP1 PUSH1 0x1 ADD SWAP1 PUSH1 0x20 ADD DUP1 DUP4 GT PUSH2 0xA73 JUMPI DUP3 SWAP1 SUB PUSH1 0x1F AND DUP3 ADD SWAP2 JUMPDEST POP POP POP POP PUSH1 0x2 DUP4 ADD SLOAD PUSH1 0x3 SWAP1 SWAP4 ADD SLOAD SWAP2 SWAP3 SWAP2 PUSH1 0xFF DUP1 DUP3 AND SWAP3 POP PUSH2 0x100 SWAP1 SWAP2 DIV AND DUP6 JUMP JUMPDEST PUSH1 0x60 PUSH1 0x84 DUP1 SLOAD DUP1 PUSH1 0x20 MUL PUSH1 0x20 ADD PUSH1 0x40 MLOAD SWAP1 DUP2 ADD PUSH1 0x40 MSTORE DUP1 SWAP3 SWAP2 SWAP1 DUP2 DUP2 MSTORE PUSH1 0x20 ADD PUSH1 0x0 SWAP1 JUMPDEST DUP3 DUP3 LT ISZERO PUSH2 0xBC3 JUMPI PUSH1 0x0 DUP5 DUP2 MSTORE PUSH1 0x20 SWAP1 DUP2 SWAP1 KECCAK256 PUSH1 0x40 DUP1 MLOAD PUSH1 0x60 DUP2 ADD SWAP1 SWAP2 MSTORE PUSH1 0x3 DUP6 MUL SWAP1 SWAP2 ADD DUP1 SLOAD PUSH1 0x1 PUSH1 0x1 PUSH1 0xA0 SHL SUB AND DUP3 MSTORE PUSH1 0x1 DUP2 ADD DUP1 SLOAD SWAP3 SWAP4 SWAP2 SWAP3 SWAP2 DUP5 ADD SWAP2 PUSH2 0xB20 SWAP1 PUSH2 0x28B9 JUMP JUMPDEST DUP1 PUSH1 0x1F ADD PUSH1 0x20 DUP1 SWAP2 DIV MUL PUSH1 0x20 ADD PUSH1 0x40 MLOAD SWAP1 DUP2 ADD PUSH1 0x40 MSTORE DUP1 SWAP3 SWAP2 SWAP1 DUP2 DUP2 MSTORE PUSH1 0x20 ADD DUP3 DUP1 SLOAD PUSH2 0xB4C SWAP1 PUSH2 0x28B9 JUMP JUMPDEST DUP1 ISZERO PUSH2 0xB99 JUMPI DUP1 PUSH1 0x1F LT PUSH2 0xB6E JUMPI PUSH2 0x100 DUP1 DUP4 SLOAD DIV MUL DUP4 MSTORE SWAP2 PUSH1 0x20 ADD SWAP2 PUSH2 0xB99 JUMP JUMPDEST DUP3 ADD SWAP2 SWAP1 PUSH1 0x0 MSTORE PUSH1 0x20 PUSH1 0x0 KECCAK256 SWAP1 JUMPDEST DUP2 SLOAD DUP2 MSTORE SWAP1 PUSH1 0x1 ADD SWAP1 PUSH1 0x20 ADD DUP1 DUP4 GT PUSH2 0xB7C JUMPI DUP3 SWAP1 SUB PUSH1 0x1F AND DUP3 ADD SWAP2 JUMPDEST POP POP POP SWAP2 DUP4 MSTORE POP POP PUSH1 0x2 SWAP2 SWAP1 SWAP2 ADD SLOAD PUSH1 0xFF AND ISZERO ISZERO PUSH1 0x20 SWAP2 DUP3 ADD MSTORE SWAP1 DUP3 MSTORE PUSH1 0x1 SWAP3 SWAP1 SWAP3 ADD SWAP2 ADD PUSH2 0xAD7 JUMP JUMPDEST POP POP POP POP SWAP1 POP SWAP1 JUMP JUMPDEST PUSH1 0x0 DUP1 PUSH1 0xC1 PUSH1 0x0 SWAP1 SLOAD SWAP1 PUSH2 0x100 EXP SWAP1 DIV PUSH1 0x1 PUSH1 0x1 PUSH1 0xA0 SHL SUB AND PUSH1 0x1 PUSH1 0x1 PUSH1 0xA0 SHL SUB AND PUSH4 0xA327AB69 PUSH1 0x40 MLOAD DUP2 PUSH4 0xFFFFFFFF AND PUSH1 0xE0 SHL DUP2 MSTORE PUSH1 0x4 ADD PUSH1 0x20 PUSH1 0x40 MLOAD DUP1 DUP4 SUB DUP2 DUP7 GAS STATICCALL ISZERO DUP1 ISZERO PUSH2 0xC22 JUMPI RETURNDATASIZE PUSH1 0x0 DUP1 RETURNDATACOPY RETURNDATASIZE PUSH1 0x0 REVERT JUMPDEST POP POP POP POP PUSH1 0x40 MLOAD RETURNDATASIZE PUSH1 0x1F NOT PUSH1 0x1F DUP3 ADD AND DUP3 ADD DUP1 PUSH1 0x40 MSTORE POP DUP2 ADD SWAP1 PUSH2 0xC46 SWAP2 SWAP1 PUSH2 0x2803 JUMP JUMPDEST SWAP1 POP PUSH1 0x0 DUP2 PUSH1 0x1 PUSH1 0x1 PUSH1 0xA0 SHL SUB AND DUP8 DUP8 DUP8 DUP8 PUSH1 0x40 MLOAD PUSH1 0x24 ADD PUSH2 0xC6B SWAP5 SWAP4 SWAP3 SWAP2 SWAP1 PUSH2 0x28F4 JUMP JUMPDEST PUSH1 0x40 DUP1 MLOAD PUSH1 0x1F NOT DUP2 DUP5 SUB ADD DUP2 MSTORE SWAP2 DUP2 MSTORE PUSH1 0x20 DUP3 ADD DUP1 MLOAD PUSH1 0x1 PUSH1 0x1 PUSH1 0xE0 SHL SUB AND PUSH4 0xA95FBE1 PUSH1 0xE2 SHL OR SWAP1 MSTORE MLOAD PUSH2 0xCA0 SWAP2 SWAP1 PUSH2 0x2858 JUMP JUMPDEST PUSH1 0x0 PUSH1 0x40 MLOAD DUP1 DUP4 SUB DUP2 DUP6 GAS DELEGATECALL SWAP2 POP POP RETURNDATASIZE DUP1 PUSH1 0x0 DUP2 EQ PUSH2 0xCDB JUMPI PUSH1 0x40 MLOAD SWAP2 POP PUSH1 0x1F NOT PUSH1 0x3F RETURNDATASIZE ADD AND DUP3 ADD PUSH1 0x40 MSTORE RETURNDATASIZE DUP3 MSTORE RETURNDATASIZE PUSH1 0x0 PUSH1 0x20 DUP5 ADD RETURNDATACOPY PUSH2 0xCE0 JUMP JUMPDEST PUSH1 0x60 SWAP2 POP JUMPDEST POP POP SWAP1 POP PUSH1 0x40 MLOAD RETURNDATASIZE DUP1 PUSH1 0x0 DUP4 RETURNDATACOPY DUP3 PUSH2 0xCF6 JUMPI DUP1 DUP3 REVERT JUMPDEST POP MLOAD SWAP8 SWAP7 POP POP POP POP POP POP POP JUMP JUMPDEST PUSH1 0x0 DUP1 PUSH1 0xC1 PUSH1 0x0 SWAP1 SLOAD SWAP1 PUSH2 0x100 EXP SWAP1 DIV PUSH1 0x1 PUSH1 0x1 PUSH1 0xA0 SHL SUB AND PUSH1 0x1 PUSH1 0x1 PUSH1 0xA0 SHL SUB AND PUSH4 0xA327AB69 PUSH1 0x40 MLOAD DUP2 PUSH4 0xFFFFFFFF AND PUSH1 0xE0 SHL DUP2 MSTORE PUSH1 0x4 ADD PUSH1 0x20 PUSH1 0x40 MLOAD DUP1 DUP4 SUB DUP2 DUP7 GAS STATICCALL ISZERO DUP1 ISZERO PUSH2 0xD59 JUMPI RETURNDATASIZE PUSH1 0x0 DUP1 RETURNDATACOPY RETURNDATASIZE PUSH1 0x0 REVERT JUMPDEST POP POP POP POP PUSH1 0x40 MLOAD RETURNDATASIZE PUSH1 0x1F NOT PUSH1 0x1F DUP3 ADD AND DUP3 ADD DUP1 PUSH1 0x40 MSTORE POP DUP2 ADD SWAP1 PUSH2 0xD7D SWAP2 SWAP1 PUSH2 0x2803 JUMP JUMPDEST SWAP1 POP PUSH1 0x0 DUP2 PUSH1 0x1 PUSH1 0x1 PUSH1 0xA0 SHL SUB AND DUP10 DUP10 DUP10 DUP10 DUP10 DUP10 PUSH1 0x40 MLOAD PUSH1 0x24 ADD PUSH2 0xDA6 SWAP7 SWAP6 SWAP5 SWAP4 SWAP3 SWAP2 SWAP1 PUSH2 0x293B JUMP JUMPDEST PUSH1 0x40 DUP1 MLOAD PUSH1 0x1F NOT DUP2 DUP5 SUB ADD DUP2 MSTORE SWAP2 DUP2 MSTORE PUSH1 0x20 DUP3 ADD DUP1 MLOAD PUSH1 0x1 PUSH1 0x1 PUSH1 0xE0 SHL SUB AND PUSH4 0x31A0AFA7 PUSH1 0xE0 SHL OR SWAP1 MSTORE MLOAD PUSH2 0xDDB SWAP2 SWAP1 PUSH2 0x2858 JUMP JUMPDEST PUSH1 0x0 PUSH1 0x40 MLOAD DUP1 DUP4 SUB DUP2 DUP6 GAS DELEGATECALL SWAP2 POP POP RETURNDATASIZE DUP1 PUSH1 0x0 DUP2 EQ PUSH2 0xE16 JUMPI PUSH1 0x40 MLOAD SWAP2 POP PUSH1 0x1F NOT PUSH1 0x3F RETURNDATASIZE ADD AND DUP3 ADD PUSH1 0x40 MSTORE RETURNDATASIZE DUP3 MSTORE RETURNDATASIZE PUSH1 0x0 PUSH1 0x20 DUP5 ADD RETURNDATACOPY PUSH2 0xE1B JUMP JUMPDEST PUSH1 0x60 SWAP2 POP JUMPDEST POP POP SWAP1 POP PUSH1 0x40 MLOAD RETURNDATASIZE DUP1 PUSH1 0x0 DUP4 RETURNDATACOPY DUP3 PUSH2 0xE31 JUMPI DUP1 DUP3 REVERT JUMPDEST POP MLOAD SWAP10 SWAP9 POP POP POP POP POP POP POP POP POP JUMP JUMPDEST PUSH1 0x86 DUP2 DUP2 SLOAD DUP2 LT PUSH2 0xE50 JUMPI PUSH1 0x0 DUP1 REVERT JUMPDEST PUSH1 0x0 SWAP2 DUP3 MSTORE PUSH1 0x20 SWAP1 SWAP2 KECCAK256 ADD SLOAD SWAP1 POP DUP2 JUMP JUMPDEST PUSH1 0x42 DUP1 SLOAD PUSH2 0xE6E SWAP1 PUSH2 0x28B9 JUMP JUMPDEST DUP1 PUSH1 0x1F ADD PUSH1 0x20 DUP1 SWAP2 DIV MUL PUSH1 0x20 ADD PUSH1 0x40 MLOAD SWAP1 DUP2 ADD PUSH1 0x40 MSTORE DUP1 SWAP3 SWAP2 SWAP1 DUP2 DUP2 MSTORE PUSH1 0x20 ADD DUP3 DUP1 SLOAD PUSH2 0xE9A SWAP1 PUSH2 0x28B9 JUMP JUMPDEST DUP1 ISZERO PUSH2 0xEE7 JUMPI DUP1 PUSH1 0x1F LT PUSH2 0xEBC JUMPI PUSH2 0x100 DUP1 DUP4 SLOAD DIV MUL DUP4 MSTORE SWAP2 PUSH1 0x20 ADD SWAP2 PUSH2 0xEE7 JUMP JUMPDEST DUP3 ADD SWAP2 SWAP1 PUSH1 0x0 MSTORE PUSH1 0x20 PUSH1 0x0 KECCAK256 SWAP1 JUMPDEST DUP2 SLOAD DUP2 MSTORE SWAP1 PUSH1 0x1 ADD SWAP1 PUSH1 0x20 ADD DUP1 DUP4 GT PUSH2 0xECA JUMPI DUP3 SWAP1 SUB PUSH1 0x1F AND DUP3 ADD SWAP2 JUMPDEST POP POP POP POP POP DUP2 JUMP JUMPDEST PUSH1 0x0 DUP1 PUSH1 0xC1 PUSH1 0x0 SWAP1 SLOAD SWAP1 PUSH2 0x100 EXP SWAP1 DIV PUSH1 0x1 PUSH1 0x1 PUSH1 0xA0 SHL SUB AND PUSH1 0x1 PUSH1 0x1 PUSH1 0xA0 SHL SUB AND PUSH4 0xA327AB69 PUSH1 0x40 MLOAD DUP2 PUSH4 0xFFFFFFFF AND PUSH1 0xE0 SHL DUP2 MSTORE PUSH1 0x4 ADD PUSH1 0x20 PUSH1 0x40 MLOAD DUP1 DUP4 SUB DUP2 DUP7 GAS STATICCALL ISZERO DUP1 ISZERO PUSH2 0xF45 JUMPI RETURNDATASIZE PUSH1 0x0 DUP1 RETURNDATACOPY RETURNDATASIZE PUSH1 0x0 REVERT JUMPDEST POP POP POP POP PUSH1 0x40 MLOAD RETURNDATASIZE PUSH1 0x1F NOT PUSH1 0x1F DUP3 ADD AND DUP3 ADD DUP1 PUSH1 0x40 MSTORE POP DUP2 ADD SWAP1 PUSH2 0xF69 SWAP2 SWAP1 PUSH2 0x2803 JUMP JUMPDEST SWAP1 POP PUSH1 0x0 DUP2 PUSH1 0x1 PUSH1 0x1 PUSH1 0xA0 SHL SUB AND DUP7 DUP7 DUP7 PUSH1 0x40 MLOAD PUSH1 0x24 ADD PUSH2 0xF8C SWAP4 SWAP3 SWAP2 SWAP1 PUSH2 0x29A0 JUMP JUMPDEST PUSH1 0x40 DUP1 MLOAD PUSH1 0x1F NOT DUP2 DUP5 SUB ADD DUP2 MSTORE SWAP2 DUP2 MSTORE PUSH1 0x20 DUP3 ADD DUP1 MLOAD PUSH1 0x1 PUSH1 0x1 PUSH1 0xE0 SHL SUB AND PUSH4 0x2EF2C7B PUSH1 0xE5 SHL OR SWAP1 MSTORE MLOAD PUSH2 0xFC1 SWAP2 SWAP1 PUSH2 0x2858 JUMP JUMPDEST PUSH1 0x0 PUSH1 0x40 MLOAD DUP1 DUP4 SUB DUP2 DUP6 GAS DELEGATECALL SWAP2 POP POP RETURNDATASIZE DUP1 PUSH1 0x0 DUP2 EQ PUSH2 0xFFC JUMPI PUSH1 0x40 MLOAD SWAP2 POP PUSH1 0x1F NOT PUSH1 0x3F RETURNDATASIZE ADD AND DUP3 ADD PUSH1 0x40 MSTORE RETURNDATASIZE DUP3 MSTORE RETURNDATASIZE PUSH1 0x0 PUSH1 0x20 DUP5 ADD RETURNDATACOPY PUSH2 0x1001 JUMP JUMPDEST PUSH1 0x60 SWAP2 POP JUMPDEST POP POP SWAP1 POP PUSH1 0x40 MLOAD RETURNDATASIZE DUP1 PUSH1 0x0 DUP4 RETURNDATACOPY DUP3 PUSH2 0x1017 JUMPI DUP1 DUP3 REVERT JUMPDEST POP MLOAD SWAP7 SWAP6 POP POP POP POP POP POP JUMP JUMPDEST PUSH1 0x0 PUSH1 0x60 PUSH1 0x0 PUSH1 0xC1 PUSH1 0x0 SWAP1 SLOAD SWAP1 PUSH2 0x100 EXP SWAP1 DIV PUSH1 0x1 PUSH1 0x1 PUSH1 0xA0 SHL SUB AND PUSH1 0x1 PUSH1 0x1 PUSH1 0xA0 SHL SUB AND PUSH4 0xA327AB69 PUSH1 0x40 MLOAD DUP2 PUSH4 0xFFFFFFFF AND PUSH1 0xE0 SHL DUP2 MSTORE PUSH1 0x4 ADD PUSH1 0x20 PUSH1 0x40 MLOAD DUP1 DUP4 SUB DUP2 DUP7 GAS STATICCALL ISZERO DUP1 ISZERO PUSH2 0x107C JUMPI RETURNDATASIZE PUSH1 0x0 DUP1 RETURNDATACOPY RETURNDATASIZE PUSH1 0x0 REVERT JUMPDEST POP POP POP POP PUSH1 0x40 MLOAD RETURNDATASIZE PUSH1 0x1F NOT PUSH1 0x1F DUP3 ADD AND DUP3 ADD DUP1 PUSH1 0x40 MSTORE POP DUP2 ADD SWAP1 PUSH2 0x10A0 SWAP2 SWAP1 PUSH2 0x2803 JUMP JUMPDEST SWAP1 POP PUSH1 0x0 DUP2 PUSH1 0x1 PUSH1 0x1 PUSH1 0xA0 SHL SUB AND DUP6 PUSH1 0x40 MLOAD PUSH1 0x24 ADD PUSH2 0x10C1 SWAP2 DUP2 MSTORE PUSH1 0x20 ADD SWAP1 JUMP JUMPDEST PUSH1 0x40 DUP1 MLOAD PUSH1 0x1F NOT DUP2 DUP5 SUB ADD DUP2 MSTORE SWAP2 DUP2 MSTORE PUSH1 0x20 DUP3 ADD DUP1 MLOAD PUSH1 0x1 PUSH1 0x1 PUSH1 0xE0 SHL SUB AND PUSH4 0x5F3D99B3 PUSH1 0xE0 SHL OR SWAP1 MSTORE MLOAD PUSH2 0x10F6 SWAP2 SWAP1 PUSH2 0x2858 JUMP JUMPDEST PUSH1 0x0 PUSH1 0x40 MLOAD DUP1 DUP4 SUB DUP2 DUP6 GAS DELEGATECALL SWAP2 POP POP RETURNDATASIZE DUP1 PUSH1 0x0 DUP2 EQ PUSH2 0x1131 JUMPI PUSH1 0x40 MLOAD SWAP2 POP PUSH1 0x1F NOT PUSH1 0x3F RETURNDATASIZE ADD AND DUP3 ADD PUSH1 0x40 MSTORE RETURNDATASIZE DUP3 MSTORE RETURNDATASIZE PUSH1 0x0 PUSH1 0x20 DUP5 ADD RETURNDATACOPY PUSH2 0x1136 JUMP JUMPDEST PUSH1 0x60 SWAP2 POP JUMPDEST POP POP SWAP1 POP DUP1 PUSH2 0x114C JUMPI PUSH1 0x40 MLOAD RETURNDATASIZE DUP1 PUSH1 0x0 DUP4 RETURNDATACOPY DUP1 DUP3 REVERT JUMPDEST PUSH1 0x1 PUSH1 0x40 MLOAD DUP1 PUSH1 0x40 ADD PUSH1 0x40 MSTORE DUP1 PUSH1 0x19 DUP2 MSTORE PUSH1 0x20 ADD PUSH32 0x537563636573732065786563757465642070726F706F73616C00000000000000 DUP2 MSTORE POP SWAP4 POP SWAP4 POP POP POP SWAP2 POP SWAP2 JUMP JUMPDEST PUSH1 0x0 DUP1 PUSH1 0xC1 PUSH1 0x0 SWAP1 SLOAD SWAP1 PUSH2 0x100 EXP SWAP1 DIV PUSH1 0x1 PUSH1 0x1 PUSH1 0xA0 SHL SUB AND PUSH1 0x1 PUSH1 0x1 PUSH1 0xA0 SHL SUB AND PUSH4 0xA327AB69 PUSH1 0x40 MLOAD DUP2 PUSH4 0xFFFFFFFF AND PUSH1 0xE0 SHL DUP2 MSTORE PUSH1 0x4 ADD PUSH1 0x20 PUSH1 0x40 MLOAD DUP1 DUP4 SUB DUP2 DUP7 GAS STATICCALL ISZERO DUP1 ISZERO PUSH2 0x11E5 JUMPI RETURNDATASIZE PUSH1 0x0 DUP1 RETURNDATACOPY RETURNDATASIZE PUSH1 0x0 REVERT JUMPDEST POP POP POP POP PUSH1 0x40 MLOAD RETURNDATASIZE PUSH1 0x1F NOT PUSH1 0x1F DUP3 ADD AND DUP3 ADD DUP1 PUSH1 0x40 MSTORE POP DUP2 ADD SWAP1 PUSH2 0x1209 SWAP2 SWAP1 PUSH2 0x2803 JUMP JUMPDEST SWAP1 POP PUSH1 0x0 DUP2 PUSH1 0x1 PUSH1 0x1 PUSH1 0xA0 SHL SUB AND DUP8 DUP8 DUP8 DUP8 PUSH1 0x40 MLOAD PUSH1 0x24 ADD PUSH2 0x122E SWAP5 SWAP4 SWAP3 SWAP2 SWAP1 PUSH2 0x2820 JUMP JUMPDEST PUSH1 0x40 DUP1 MLOAD PUSH1 0x1F NOT DUP2 DUP5 SUB ADD DUP2 MSTORE SWAP2 DUP2 MSTORE PUSH1 0x20 DUP3 ADD DUP1 MLOAD PUSH1 0x1 PUSH1 0x1 PUSH1 0xE0 SHL SUB AND PUSH4 0xF8C70A9 PUSH1 0xE3 SHL OR SWAP1 MSTORE MLOAD PUSH2 0xCA0 SWAP2 SWAP1 PUSH2 0x2858 JUMP JUMPDEST PUSH1 0xC5 SLOAD PUSH1 0x1 SWAP1 PUSH1 0x1 PUSH1 0xA8 SHL SWAP1 DIV PUSH1 0xFF AND ISZERO DUP1 ISZERO PUSH2 0x128E JUMPI POP PUSH1 0xC5 SLOAD PUSH1 0xFF DUP1 DUP4 AND PUSH1 0x1 PUSH1 0xA0 SHL SWAP1 SWAP3 DIV AND LT JUMPDEST PUSH2 0x12F5 JUMPI PUSH1 0x40 MLOAD PUSH3 0x461BCD PUSH1 0xE5 SHL DUP2 MSTORE PUSH1 0x20 PUSH1 0x4 DUP3 ADD MSTORE PUSH1 0x2E PUSH1 0x24 DUP3 ADD MSTORE PUSH32 0x496E697469616C697A61626C653A20636F6E747261637420697320616C726561 PUSH1 0x44 DUP3 ADD MSTORE PUSH14 0x191E481A5B9A5D1A585B1A5E9959 PUSH1 0x92 SHL PUSH1 0x64 DUP3 ADD MSTORE PUSH1 0x84 ADD PUSH1 0x40 MLOAD DUP1 SWAP2 SUB SWAP1 REVERT JUMPDEST PUSH1 0xC5 DUP1 SLOAD PUSH1 0x1 PUSH1 0xA8 SHL PUSH2 0xFFFF PUSH1 0xA0 SHL NOT SWAP1 SWAP2 AND PUSH1 0x1 PUSH1 0xA0 SHL PUSH1 0xFF DUP6 AND MUL PUSH1 0xFF PUSH1 0xA8 SHL NOT AND OR OR SWAP1 SSTORE PUSH1 0x0 DUP4 PUSH1 0x3 PUSH1 0x20 MUL ADD MLOAD PUSH1 0x1 PUSH1 0x1 PUSH1 0xA0 SHL SUB AND DUP11 DUP11 DUP11 DUP11 DUP11 DUP11 DUP11 DUP11 PUSH1 0x40 MLOAD PUSH1 0x24 ADD PUSH2 0x134F SWAP9 SWAP8 SWAP7 SWAP6 SWAP5 SWAP4 SWAP3 SWAP2 SWAP1 PUSH2 0x2A39 JUMP JUMPDEST PUSH1 0x40 DUP1 MLOAD PUSH1 0x1F NOT DUP2 DUP5 SUB ADD DUP2 MSTORE SWAP2 DUP2 MSTORE PUSH1 0x20 DUP3 ADD DUP1 MLOAD PUSH1 0x1 PUSH1 0x1 PUSH1 0xE0 SHL SUB AND PUSH4 0xEE8FFE1 PUSH1 0xE1 SHL OR SWAP1 MSTORE MLOAD PUSH2 0x1384 SWAP2 SWAP1 PUSH2 0x2858 JUMP JUMPDEST PUSH1 0x0 PUSH1 0x40 MLOAD DUP1 DUP4 SUB DUP2 DUP6 GAS DELEGATECALL SWAP2 POP POP RETURNDATASIZE DUP1 PUSH1 0x0 DUP2 EQ PUSH2 0x13BF JUMPI PUSH1 0x40 MLOAD SWAP2 POP PUSH1 0x1F NOT PUSH1 0x3F RETURNDATASIZE ADD AND DUP3 ADD PUSH1 0x40 MSTORE RETURNDATASIZE DUP3 MSTORE RETURNDATASIZE PUSH1 0x0 PUSH1 0x20 DUP5 ADD RETURNDATACOPY PUSH2 0x13C4 JUMP JUMPDEST PUSH1 0x60 SWAP2 POP JUMPDEST POP POP SWAP1 POP DUP1 PUSH2 0x13DA JUMPI PUSH1 0x40 MLOAD RETURNDATASIZE DUP1 PUSH1 0x0 DUP4 RETURNDATACOPY DUP1 DUP3 REVERT JUMPDEST POP PUSH1 0xC5 DUP1 SLOAD PUSH1 0xFF PUSH1 0xA8 SHL NOT AND SWAP1 SSTORE PUSH1 0x40 MLOAD PUSH1 0xFF DUP3 AND DUP2 MSTORE PUSH32 0x7F26B83FF96E1F2B6A682F133852F6798A09C465DA95921460CEFB3847402498 SWAP1 PUSH1 0x20 ADD PUSH1 0x40 MLOAD DUP1 SWAP2 SUB SWAP1 LOG1 POP POP POP POP POP POP POP POP POP JUMP JUMPDEST PUSH1 0xC1 SLOAD PUSH1 0x40 DUP1 MLOAD PUSH4 0x529382D5 PUSH1 0xE0 SHL DUP2 MSTORE SWAP1 MLOAD PUSH1 0x0 SWAP3 PUSH1 0x1 PUSH1 0x1 PUSH1 0xA0 SHL SUB AND SWAP2 PUSH4 0x529382D5 SWAP2 PUSH1 0x4 DUP1 DUP4 ADD SWAP3 PUSH1 0x20 SWAP3 SWAP2 SWAP1 DUP3 SWAP1 SUB ADD DUP2 DUP7 GAS STATICCALL ISZERO DUP1 ISZERO PUSH2 0x1473 JUMPI RETURNDATASIZE PUSH1 0x0 DUP1 RETURNDATACOPY RETURNDATASIZE PUSH1 0x0 REVERT JUMPDEST POP POP POP POP PUSH1 0x40 MLOAD RETURNDATASIZE PUSH1 0x1F NOT PUSH1 0x1F DUP3 ADD AND DUP3 ADD DUP1 PUSH1 0x40 MSTORE POP DUP2 ADD SWAP1 PUSH2 0x1497 SWAP2 SWAP1 PUSH2 0x2803 JUMP JUMPDEST SWAP1 POP PUSH1 0x0 DUP2 PUSH1 0x1 PUSH1 0x1 PUSH1 0xA0 SHL SUB AND DUP5 DUP5 PUSH1 0x40 MLOAD PUSH1 0x24 ADD PUSH2 0x14B8 SWAP3 SWAP2 SWAP1 PUSH2 0x21CC JUMP JUMPDEST PUSH1 0x40 DUP1 MLOAD PUSH1 0x1F NOT DUP2 DUP5 SUB ADD DUP2 MSTORE SWAP2 DUP2 MSTORE PUSH1 0x20 DUP3 ADD DUP1 MLOAD PUSH1 0x1 PUSH1 0x1 PUSH1 0xE0 SHL SUB AND PUSH4 0x1039E45B PUSH1 0xE3 SHL OR SWAP1 MSTORE MLOAD PUSH2 0x14ED SWAP2 SWAP1 PUSH2 0x2858 JUMP JUMPDEST PUSH1 0x0 PUSH1 0x40 MLOAD DUP1 DUP4 SUB DUP2 DUP6 GAS DELEGATECALL SWAP2 POP POP RETURNDATASIZE DUP1 PUSH1 0x0 DUP2 EQ PUSH2 0x1528 JUMPI PUSH1 0x40 MLOAD SWAP2 POP PUSH1 0x1F NOT PUSH1 0x3F RETURNDATASIZE ADD AND DUP3 ADD PUSH1 0x40 MSTORE RETURNDATASIZE DUP3 MSTORE RETURNDATASIZE PUSH1 0x0 PUSH1 0x20 DUP5 ADD RETURNDATACOPY PUSH2 0x152D JUMP JUMPDEST PUSH1 0x60 SWAP2 POP JUMPDEST POP POP SWAP1 POP DUP1 PUSH2 0x1543 JUMPI PUSH1 0x40 MLOAD RETURNDATASIZE DUP1 PUSH1 0x0 DUP4 RETURNDATACOPY DUP1 DUP3 REVERT JUMPDEST POP POP POP POP JUMP JUMPDEST PUSH1 0x0 DUP1 PUSH1 0xC1 PUSH1 0x0 SWAP1 SLOAD SWAP1 PUSH2 0x100 EXP SWAP1 DIV PUSH1 0x1 PUSH1 0x1 PUSH1 0xA0 SHL SUB AND PUSH1 0x1 PUSH1 0x1 PUSH1 0xA0 SHL SUB AND PUSH4 0xA327AB69 PUSH1 0x40 MLOAD DUP2 PUSH4 0xFFFFFFFF AND PUSH1 0xE0 SHL DUP2 MSTORE PUSH1 0x4 ADD PUSH1 0x20 PUSH1 0x40 MLOAD DUP1 DUP4 SUB DUP2 DUP7 GAS STATICCALL ISZERO DUP1 ISZERO PUSH2 0x159F JUMPI RETURNDATASIZE PUSH1 0x0 DUP1 RETURNDATACOPY RETURNDATASIZE PUSH1 0x0 REVERT JUMPDEST POP POP POP POP PUSH1 0x40 MLOAD RETURNDATASIZE PUSH1 0x1F NOT PUSH1 0x1F DUP3 ADD AND DUP3 ADD DUP1 PUSH1 0x40 MSTORE POP DUP2 ADD SWAP1 PUSH2 0x15C3 SWAP2 SWAP1 PUSH2 0x2803 JUMP JUMPDEST SWAP1 POP PUSH1 0x0 DUP2 PUSH1 0x1 PUSH1 0x1 PUSH1 0xA0 SHL SUB AND DUP7 DUP7 DUP7 PUSH1 0x40 MLOAD PUSH1 0x24 ADD PUSH2 0x15E6 SWAP4 SWAP3 SWAP2 SWAP1 PUSH2 0x2AD1 JUMP JUMPDEST PUSH1 0x40 DUP1 MLOAD PUSH1 0x1F NOT DUP2 DUP5 SUB ADD DUP2 MSTORE SWAP2 DUP2 MSTORE PUSH1 0x20 DUP3 ADD DUP1 MLOAD PUSH1 0x1 PUSH1 0x1 PUSH1 0xE0 SHL SUB AND PUSH4 0xA19A5F5 PUSH1 0xE4 SHL OR SWAP1 MSTORE MLOAD PUSH2 0x709 SWAP2 SWAP1 PUSH2 0x2858 JUMP JUMPDEST PUSH1 0xC1 SLOAD PUSH1 0x40 DUP1 MLOAD PUSH4 0xA327AB69 PUSH1 0xE0 SHL DUP2 MSTORE SWAP1 MLOAD PUSH1 0x0 SWAP3 PUSH1 0x1 PUSH1 0x1 PUSH1 0xA0 SHL SUB AND SWAP2 PUSH4 0xA327AB69 SWAP2 PUSH1 0x4 DUP1 DUP4 ADD SWAP3 PUSH1 0x20 SWAP3 SWAP2 SWAP1 DUP3 SWAP1 SUB ADD DUP2 DUP7 GAS STATICCALL ISZERO DUP1 ISZERO PUSH2 0x1665 JUMPI RETURNDATASIZE PUSH1 0x0 DUP1 RETURNDATACOPY RETURNDATASIZE PUSH1 0x0 REVERT JUMPDEST POP POP POP POP PUSH1 0x40 MLOAD RETURNDATASIZE PUSH1 0x1F NOT PUSH1 0x1F DUP3 ADD AND DUP3 ADD DUP1 PUSH1 0x40 MSTORE POP DUP2 ADD SWAP1 PUSH2 0x1689 SWAP2 SWAP1 PUSH2 0x2803 JUMP JUMPDEST SWAP1 POP PUSH1 0x0 DUP2 PUSH1 0x1 PUSH1 0x1 PUSH1 0xA0 SHL SUB AND DUP7 DUP7 DUP7 DUP7 PUSH1 0x40 MLOAD PUSH1 0x24 ADD PUSH2 0x16AE SWAP5 SWAP4 SWAP3 SWAP2 SWAP1 PUSH2 0x2B14 JUMP JUMPDEST PUSH1 0x40 DUP1 MLOAD PUSH1 0x1F NOT DUP2 DUP5 SUB ADD DUP2 MSTORE SWAP2 DUP2 MSTORE PUSH1 0x20 DUP3 ADD DUP1 MLOAD PUSH1 0x1 PUSH1 0x1 PUSH1 0xE0 SHL SUB AND PUSH4 0xA1C89C9D PUSH1 0xE0 SHL OR SWAP1 MSTORE MLOAD PUSH2 0x709 SWAP2 SWAP1 PUSH2 0x2858 JUMP JUMPDEST PUSH1 0x60 PUSH1 0x83 DUP1 SLOAD DUP1 PUSH1 0x20 MUL PUSH1 0x20 ADD PUSH1 0x40 MLOAD SWAP1 DUP2 ADD PUSH1 0x40 MSTORE DUP1 SWAP3 SWAP2 SWAP1 DUP2 DUP2 MSTORE PUSH1 0x20 ADD PUSH1 0x0 SWAP1 JUMPDEST DUP3 DUP3 LT ISZERO PUSH2 0xBC3 JUMPI PUSH1 0x0 DUP5 DUP2 MSTORE PUSH1 0x20 SWAP1 DUP2 SWAP1 KECCAK256 PUSH1 0x40 DUP1 MLOAD PUSH2 0x120 DUP2 ADD SWAP1 SWAP2 MSTORE PUSH1 0x7 DUP6 MUL SWAP1 SWAP2 ADD DUP1 SLOAD PUSH1 0x1 PUSH1 0x1 PUSH1 0xA0 SHL SUB DUP2 AND DUP4 MSTORE SWAP2 SWAP3 SWAP1 SWAP2 SWAP1 DUP4 ADD SWAP1 PUSH1 0x1 PUSH1 0xA0 SHL SWAP1 DIV PUSH1 0xFF AND PUSH1 0x8 DUP2 GT ISZERO PUSH2 0x175E JUMPI PUSH2 0x175E PUSH2 0x25AA JUMP JUMPDEST PUSH1 0x8 DUP2 GT ISZERO PUSH2 0x176F JUMPI PUSH2 0x176F PUSH2 0x25AA JUMP JUMPDEST DUP2 MSTORE PUSH1 0x20 ADD PUSH1 0x1 DUP3 ADD DUP1 SLOAD PUSH2 0x1783 SWAP1 PUSH2 0x28B9 JUMP JUMPDEST DUP1 PUSH1 0x1F ADD PUSH1 0x20 DUP1 SWAP2 DIV MUL PUSH1 0x20 ADD PUSH1 0x40 MLOAD SWAP1 DUP2 ADD PUSH1 0x40 MSTORE DUP1 SWAP3 SWAP2 SWAP1 DUP2 DUP2 MSTORE PUSH1 0x20 ADD DUP3 DUP1 SLOAD PUSH2 0x17AF SWAP1 PUSH2 0x28B9 JUMP JUMPDEST DUP1 ISZERO PUSH2 0x17FC JUMPI DUP1 PUSH1 0x1F LT PUSH2 0x17D1 JUMPI PUSH2 0x100 DUP1 DUP4 SLOAD DIV MUL DUP4 MSTORE SWAP2 PUSH1 0x20 ADD SWAP2 PUSH2 0x17FC JUMP JUMPDEST DUP3 ADD SWAP2 SWAP1 PUSH1 0x0 MSTORE PUSH1 0x20 PUSH1 0x0 KECCAK256 SWAP1 JUMPDEST DUP2 SLOAD DUP2 MSTORE SWAP1 PUSH1 0x1 ADD SWAP1 PUSH1 0x20 ADD DUP1 DUP4 GT PUSH2 0x17DF JUMPI DUP3 SWAP1 SUB PUSH1 0x1F AND DUP3 ADD SWAP2 JUMPDEST POP POP POP SWAP2 DUP4 MSTORE POP POP PUSH1 0x2 DUP3 ADD SLOAD PUSH1 0x20 DUP1 DUP4 ADD SWAP2 SWAP1 SWAP2 MSTORE PUSH1 0x3 DUP4 ADD SLOAD PUSH1 0x40 DUP4 ADD MSTORE PUSH1 0x4 DUP4 ADD SLOAD PUSH1 0x60 DUP4 ADD MSTORE PUSH1 0x5 DUP4 ADD SLOAD PUSH1 0xFF DUP1 DUP3 AND ISZERO ISZERO PUSH1 0x80 DUP6 ADD MSTORE PUSH2 0x100 SWAP1 SWAP2 DIV AND ISZERO ISZERO PUSH1 0xA0 DUP4 ADD MSTORE PUSH1 0x6 SWAP1 SWAP3 ADD SLOAD PUSH1 0xC0 SWAP1 SWAP2 ADD MSTORE SWAP1 DUP3 MSTORE PUSH1 0x1 SWAP3 SWAP1 SWAP3 ADD SWAP2 ADD PUSH2 0x1707 JUMP JUMPDEST PUSH1 0x85 DUP2 DUP2 SLOAD DUP2 LT PUSH2 0x1871 JUMPI PUSH1 0x0 DUP1 REVERT JUMPDEST PUSH1 0x0 SWAP2 DUP3 MSTORE PUSH1 0x20 SWAP1 SWAP2 KECCAK256 PUSH1 0x4 SWAP1 SWAP2 MUL ADD DUP1 SLOAD PUSH1 0x1 DUP3 ADD SLOAD PUSH1 0x2 DUP4 ADD SLOAD PUSH1 0x3 SWAP1 SWAP4 ADD SLOAD PUSH1 0x1 PUSH1 0x1 PUSH1 0xA0 SHL SUB SWAP3 DUP4 AND SWAP5 POP SWAP1 SWAP3 DUP3 AND SWAP2 AND DUP5 JUMP JUMPDEST PUSH1 0xC1 SLOAD PUSH1 0x40 DUP1 MLOAD PUSH4 0xA327AB69 PUSH1 0xE0 SHL DUP2 MSTORE SWAP1 MLOAD PUSH1 0x0 SWAP3 PUSH1 0x1 PUSH1 0x1 PUSH1 0xA0 SHL SUB AND SWAP2 PUSH4 0xA327AB69 SWAP2 PUSH1 0x4 DUP1 DUP4 ADD SWAP3 PUSH1 0x20 SWAP3 SWAP2 SWAP1 DUP3 SWAP1 SUB ADD DUP2 DUP7 GAS STATICCALL ISZERO DUP1 ISZERO PUSH2 0x18F3 JUMPI RETURNDATASIZE PUSH1 0x0 DUP1 RETURNDATACOPY RETURNDATASIZE PUSH1 0x0 REVERT JUMPDEST POP POP POP POP PUSH1 0x40 MLOAD RETURNDATASIZE PUSH1 0x1F NOT PUSH1 0x1F DUP3 ADD AND DUP3 ADD DUP1 PUSH1 0x40 MSTORE POP DUP2 ADD SWAP1 PUSH2 0x1917 SWAP2 SWAP1 PUSH2 0x2803 JUMP JUMPDEST SWAP1 POP PUSH1 0x0 DUP2 PUSH1 0x1 PUSH1 0x1 PUSH1 0xA0 SHL SUB AND DUP7 DUP7 DUP7 DUP7 PUSH1 0x40 MLOAD PUSH1 0x24 ADD PUSH2 0x193C SWAP5 SWAP4 SWAP3 SWAP2 SWAP1 PUSH2 0x2B7E JUMP JUMPDEST PUSH1 0x40 DUP1 MLOAD PUSH1 0x1F NOT DUP2 DUP5 SUB ADD DUP2 MSTORE SWAP2 DUP2 MSTORE PUSH1 0x20 DUP3 ADD DUP1 MLOAD PUSH1 0x1 PUSH1 0x1 PUSH1 0xE0 SHL SUB AND PUSH4 0x18567541 PUSH1 0xE3 SHL OR SWAP1 MSTORE MLOAD PUSH2 0x1971 SWAP2 SWAP1 PUSH2 0x2858 JUMP JUMPDEST PUSH1 0x0 PUSH1 0x40 MLOAD DUP1 DUP4 SUB DUP2 DUP6 GAS DELEGATECALL SWAP2 POP POP RETURNDATASIZE DUP1 PUSH1 0x0 DUP2 EQ PUSH2 0x19AC JUMPI PUSH1 0x40 MLOAD SWAP2 POP PUSH1 0x1F NOT PUSH1 0x3F RETURNDATASIZE ADD AND DUP3 ADD PUSH1 0x40 MSTORE RETURNDATASIZE DUP3 MSTORE RETURNDATASIZE PUSH1 0x0 PUSH1 0x20 DUP5 ADD RETURNDATACOPY PUSH2 0x19B1 JUMP JUMPDEST PUSH1 0x60 SWAP2 POP JUMPDEST POP POP SWAP1 POP DUP1 PUSH2 0x19C7 JUMPI PUSH1 0x40 MLOAD RETURNDATASIZE DUP1 PUSH1 0x0 DUP4 RETURNDATACOPY DUP1 DUP3 REVERT JUMPDEST POP POP POP POP POP POP JUMP JUMPDEST PUSH1 0xA5 PUSH1 0x20 SWAP1 DUP2 MSTORE PUSH1 0x0 SWAP3 DUP4 MSTORE PUSH1 0x40 DUP1 DUP5 KECCAK256 SWAP1 SWAP2 MSTORE SWAP1 DUP3 MSTORE SWAP1 KECCAK256 DUP1 SLOAD PUSH1 0x1 DUP3 ADD DUP1 SLOAD PUSH1 0xFF DUP1 DUP5 AND SWAP5 PUSH2 0x100 SWAP1 SWAP5 DIV AND SWAP3 SWAP2 SWAP1 PUSH2 0x1A09 SWAP1 PUSH2 0x28B9 JUMP JUMPDEST DUP1 PUSH1 0x1F ADD PUSH1 0x20 DUP1 SWAP2 DIV MUL PUSH1 0x20 ADD PUSH1 0x40 MLOAD SWAP1 DUP2 ADD PUSH1 0x40 MSTORE DUP1 SWAP3 SWAP2 SWAP1 DUP2 DUP2 MSTORE PUSH1 0x20 ADD DUP3 DUP1 SLOAD PUSH2 0x1A35 SWAP1 PUSH2 0x28B9 JUMP JUMPDEST DUP1 ISZERO PUSH2 0x1A82 JUMPI DUP1 PUSH1 0x1F LT PUSH2 0x1A57 JUMPI PUSH2 0x100 DUP1 DUP4 SLOAD DIV MUL DUP4 MSTORE SWAP2 PUSH1 0x20 ADD SWAP2 PUSH2 0x1A82 JUMP JUMPDEST DUP3 ADD SWAP2 SWAP1 PUSH1 0x0 MSTORE PUSH1 0x20 PUSH1 0x0 KECCAK256 SWAP1 JUMPDEST DUP2 SLOAD DUP2 MSTORE SWAP1 PUSH1 0x1 ADD SWAP1 PUSH1 0x20 ADD DUP1 DUP4 GT PUSH2 0x1A65 JUMPI DUP3 SWAP1 SUB PUSH1 0x1F AND DUP3 ADD SWAP2 JUMPDEST POP POP POP POP POP SWAP1 POP DUP4 JUMP JUMPDEST PUSH1 0x83 DUP2 DUP2 SLOAD DUP2 LT PUSH2 0x1A9C JUMPI PUSH1 0x0 DUP1 REVERT JUMPDEST PUSH1 0x0 SWAP2 DUP3 MSTORE PUSH1 0x20 SWAP1 SWAP2 KECCAK256 PUSH1 0x7 SWAP1 SWAP2 MUL ADD DUP1 SLOAD PUSH1 0x1 DUP3 ADD DUP1 SLOAD PUSH1 0x1 PUSH1 0x1 PUSH1 0xA0 SHL SUB DUP4 AND SWAP5 POP PUSH1 0x1 PUSH1 0xA0 SHL SWAP1 SWAP3 DIV PUSH1 0xFF AND SWAP3 SWAP2 PUSH2 0x1AD6 SWAP1 PUSH2 0x28B9 JUMP JUMPDEST DUP1 PUSH1 0x1F ADD PUSH1 0x20 DUP1 SWAP2 DIV MUL PUSH1 0x20 ADD PUSH1 0x40 MLOAD SWAP1 DUP2 ADD PUSH1 0x40 MSTORE DUP1 SWAP3 SWAP2 SWAP1 DUP2 DUP2 MSTORE PUSH1 0x20 ADD DUP3 DUP1 SLOAD PUSH2 0x1B02 SWAP1 PUSH2 0x28B9 JUMP JUMPDEST DUP1 ISZERO PUSH2 0x1B4F JUMPI DUP1 PUSH1 0x1F LT PUSH2 0x1B24 JUMPI PUSH2 0x100 DUP1 DUP4 SLOAD DIV MUL DUP4 MSTORE SWAP2 PUSH1 0x20 ADD SWAP2 PUSH2 0x1B4F JUMP JUMPDEST DUP3 ADD SWAP2 SWAP1 PUSH1 0x0 MSTORE PUSH1 0x20 PUSH1 0x0 KECCAK256 SWAP1 JUMPDEST DUP2 SLOAD DUP2 MSTORE SWAP1 PUSH1 0x1 ADD SWAP1 PUSH1 0x20 ADD DUP1 DUP4 GT PUSH2 0x1B32 JUMPI DUP3 SWAP1 SUB PUSH1 0x1F AND DUP3 ADD SWAP2 JUMPDEST POP POP POP PUSH1 0x2 DUP5 ADD SLOAD PUSH1 0x3 DUP6 ADD SLOAD PUSH1 0x4 DUP7 ADD SLOAD PUSH1 0x5 DUP8 ADD SLOAD PUSH1 0x6 SWAP1 SWAP8 ADD SLOAD SWAP6 SWAP7 SWAP3 SWAP6 SWAP2 SWAP5 POP SWAP3 POP PUSH1 0xFF DUP1 DUP4 AND SWAP3 PUSH2 0x100 SWAP1 DIV AND SWAP1 DUP10 JUMP JUMPDEST PUSH1 0x0 DUP1 PUSH1 0xC1 PUSH1 0x0 SWAP1 SLOAD SWAP1 PUSH2 0x100 EXP SWAP1 DIV PUSH1 0x1 PUSH1 0x1 PUSH1 0xA0 SHL SUB AND PUSH1 0x1 PUSH1 0x1 PUSH1 0xA0 SHL SUB AND PUSH4 0xA327AB69 PUSH1 0x40 MLOAD DUP2 PUSH4 0xFFFFFFFF AND PUSH1 0xE0 SHL DUP2 MSTORE PUSH1 0x4 ADD PUSH1 0x20 PUSH1 0x40 MLOAD DUP1 DUP4 SUB DUP2 DUP7 GAS STATICCALL ISZERO DUP1 ISZERO PUSH2 0x1BDB JUMPI RETURNDATASIZE PUSH1 0x0 DUP1 RETURNDATACOPY RETURNDATASIZE PUSH1 0x0 REVERT JUMPDEST POP POP POP POP PUSH1 0x40 MLOAD RETURNDATASIZE PUSH1 0x1F NOT PUSH1 0x1F DUP3 ADD AND DUP3 ADD DUP1 PUSH1 0x40 MSTORE POP DUP2 ADD SWAP1 PUSH2 0x1BFF SWAP2 SWAP1 PUSH2 0x2803 JUMP JUMPDEST SWAP1 POP PUSH1 0x0 DUP2 PUSH1 0x1 PUSH1 0x1 PUSH1 0xA0 SHL SUB AND DUP9 DUP9 DUP9 DUP9 DUP9 PUSH1 0x40 MLOAD PUSH1 0x24 ADD PUSH2 0x1C26 SWAP6 SWAP5 SWAP4 SWAP3 SWAP2 SWAP1 PUSH2 0x2BB1 JUMP JUMPDEST PUSH1 0x40 DUP1 MLOAD PUSH1 0x1F NOT DUP2 DUP5 SUB ADD DUP2 MSTORE SWAP2 DUP2 MSTORE PUSH1 0x20 DUP3 ADD DUP1 MLOAD PUSH1 0x1 PUSH1 0x1 PUSH1 0xE0 SHL SUB AND PUSH4 0x6F2D58A7 PUSH1 0xE1 SHL OR SWAP1 MSTORE MLOAD PUSH2 0x1C5B SWAP2 SWAP1 PUSH2 0x2858 JUMP JUMPDEST PUSH1 0x0 PUSH1 0x40 MLOAD DUP1 DUP4 SUB DUP2 DUP6 GAS DELEGATECALL SWAP2 POP POP RETURNDATASIZE DUP1 PUSH1 0x0 DUP2 EQ PUSH2 0x1C96 JUMPI PUSH1 0x40 MLOAD SWAP2 POP PUSH1 0x1F NOT PUSH1 0x3F RETURNDATASIZE ADD AND DUP3 ADD PUSH1 0x40 MSTORE RETURNDATASIZE DUP3 MSTORE RETURNDATASIZE PUSH1 0x0 PUSH1 0x20 DUP5 ADD RETURNDATACOPY PUSH2 0x1C9B JUMP JUMPDEST PUSH1 0x60 SWAP2 POP JUMPDEST POP POP SWAP1 POP PUSH1 0x40 MLOAD RETURNDATASIZE DUP1 PUSH1 0x0 DUP4 RETURNDATACOPY DUP3 PUSH2 0x1CB1 JUMPI DUP1 DUP3 REVERT JUMPDEST POP MLOAD SWAP9 SWAP8 POP POP POP POP POP POP POP POP JUMP JUMPDEST PUSH1 0x1 PUSH1 0x1 PUSH1 0xA0 SHL SUB DUP2 AND DUP2 EQ PUSH2 0x1CD4 JUMPI PUSH1 0x0 DUP1 REVERT JUMPDEST POP JUMP JUMPDEST PUSH4 0x4E487B71 PUSH1 0xE0 SHL PUSH1 0x0 MSTORE PUSH1 0x41 PUSH1 0x4 MSTORE PUSH1 0x24 PUSH1 0x0 REVERT JUMPDEST PUSH1 0x40 MLOAD PUSH1 0x60 DUP2 ADD PUSH1 0x1 PUSH1 0x1 PUSH1 0x40 SHL SUB DUP2 GT DUP3 DUP3 LT OR ISZERO PUSH2 0x1D0F JUMPI PUSH2 0x1D0F PUSH2 0x1CD7 JUMP JUMPDEST PUSH1 0x40 MSTORE SWAP1 JUMP JUMPDEST PUSH1 0x40 MLOAD PUSH1 0x1F DUP3 ADD PUSH1 0x1F NOT AND DUP2 ADD PUSH1 0x1 PUSH1 0x1 PUSH1 0x40 SHL SUB DUP2 GT DUP3 DUP3 LT OR ISZERO PUSH2 0x1D3D JUMPI PUSH2 0x1D3D PUSH2 0x1CD7 JUMP JUMPDEST PUSH1 0x40 MSTORE SWAP2 SWAP1 POP JUMP JUMPDEST PUSH1 0x0 DUP3 PUSH1 0x1F DUP4 ADD SLT PUSH2 0x1D56 JUMPI PUSH1 0x0 DUP1 REVERT JUMPDEST DUP2 CALLDATALOAD PUSH1 0x1 PUSH1 0x1 PUSH1 0x40 SHL SUB DUP2 GT ISZERO PUSH2 0x1D6F JUMPI PUSH2 0x1D6F PUSH2 0x1CD7 JUMP JUMPDEST PUSH2 0x1D82 PUSH1 0x1F DUP3 ADD PUSH1 0x1F NOT AND PUSH1 0x20 ADD PUSH2 0x1D15 JUMP JUMPDEST DUP2 DUP2 MSTORE DUP5 PUSH1 0x20 DUP4 DUP7 ADD ADD GT ISZERO PUSH2 0x1D97 JUMPI PUSH1 0x0 DUP1 REVERT JUMPDEST DUP2 PUSH1 0x20 DUP6 ADD PUSH1 0x20 DUP4 ADD CALLDATACOPY PUSH1 0x0 SWAP2 DUP2 ADD PUSH1 0x20 ADD SWAP2 SWAP1 SWAP2 MSTORE SWAP4 SWAP3 POP POP POP JUMP JUMPDEST PUSH1 0x0 DUP1 PUSH1 0x0 DUP1 PUSH1 0x80 DUP6 DUP8 SUB SLT ISZERO PUSH2 0x1DCA JUMPI PUSH1 0x0 DUP1 REVERT JUMPDEST DUP5 CALLDATALOAD PUSH2 0x1DD5 DUP2 PUSH2 0x1CBF JUMP JUMPDEST SWAP4 POP PUSH1 0x20 DUP6 ADD CALLDATALOAD SWAP3 POP PUSH1 0x40 DUP6 ADD CALLDATALOAD PUSH1 0x1 PUSH1 0x1 PUSH1 0x40 SHL SUB DUP2 GT ISZERO PUSH2 0x1DF7 JUMPI PUSH1 0x0 DUP1 REVERT JUMPDEST PUSH2 0x1E03 DUP8 DUP3 DUP9 ADD PUSH2 0x1D45 JUMP JUMPDEST SWAP5 SWAP8 SWAP4 SWAP7 POP SWAP4 SWAP5 PUSH1 0x60 ADD CALLDATALOAD SWAP4 POP POP POP JUMP JUMPDEST PUSH1 0x0 DUP1 PUSH1 0x0 DUP1 PUSH1 0x0 PUSH1 0xA0 DUP7 DUP9 SUB SLT ISZERO PUSH2 0x1E2C JUMPI PUSH1 0x0 DUP1 REVERT JUMPDEST DUP6 CALLDATALOAD PUSH2 0x1E37 DUP2 PUSH2 0x1CBF JUMP JUMPDEST SWAP5 POP PUSH1 0x20 DUP7 ADD CALLDATALOAD PUSH2 0x1E47 DUP2 PUSH2 0x1CBF JUMP JUMPDEST SWAP4 POP PUSH1 0x40 DUP7 ADD CALLDATALOAD SWAP3 POP PUSH1 0x60 DUP7 ADD CALLDATALOAD PUSH1 0x1 PUSH1 0x1 PUSH1 0x40 SHL SUB DUP2 GT ISZERO PUSH2 0x1E69 JUMPI PUSH1 0x0 DUP1 REVERT JUMPDEST PUSH2 0x1E75 DUP9 DUP3 DUP10 ADD PUSH2 0x1D45 JUMP JUMPDEST SWAP6 SWAP9 SWAP5 SWAP8 POP SWAP3 SWAP6 PUSH1 0x80 ADD CALLDATALOAD SWAP4 SWAP3 POP POP POP JUMP JUMPDEST PUSH1 0x0 PUSH1 0x20 DUP3 DUP5 SUB SLT ISZERO PUSH2 0x1E99 JUMPI PUSH1 0x0 DUP1 REVERT JUMPDEST POP CALLDATALOAD SWAP2 SWAP1 POP JUMP JUMPDEST PUSH1 0x0 JUMPDEST DUP4 DUP2 LT ISZERO PUSH2 0x1EBB JUMPI DUP2 DUP2 ADD MLOAD DUP4 DUP3 ADD MSTORE PUSH1 0x20 ADD PUSH2 0x1EA3 JUMP JUMPDEST DUP4 DUP2 GT ISZERO PUSH2 0x1543 JUMPI POP POP PUSH1 0x0 SWAP2 ADD MSTORE JUMP JUMPDEST PUSH1 0x0 DUP2 MLOAD DUP1 DUP5 MSTORE PUSH2 0x1EE4 DUP2 PUSH1 0x20 DUP7 ADD PUSH1 0x20 DUP7 ADD PUSH2 0x1EA0 JUMP JUMPDEST PUSH1 0x1F ADD PUSH1 0x1F NOT AND SWAP3 SWAP1 SWAP3 ADD PUSH1 0x20 ADD SWAP3 SWAP2 POP POP JUMP JUMPDEST PUSH1 0x1 PUSH1 0x1 PUSH1 0xA0 SHL SUB DUP5 AND DUP2 MSTORE PUSH1 0x60 PUSH1 0x20 DUP3 ADD DUP2 SWAP1 MSTORE PUSH1 0x0 SWAP1 PUSH2 0x1F1C SWAP1 DUP4 ADD DUP6 PUSH2 0x1ECC JUMP JUMPDEST SWAP1 POP DUP3 ISZERO ISZERO PUSH1 0x40 DUP4 ADD MSTORE SWAP5 SWAP4 POP POP POP POP JUMP JUMPDEST PUSH1 0x1 PUSH1 0x1 PUSH1 0xA0 SHL SUB DUP7 AND DUP2 MSTORE PUSH1 0xA0 PUSH1 0x20 DUP3 ADD DUP2 SWAP1 MSTORE PUSH1 0x0 SWAP1 PUSH2 0x1F52 SWAP1 DUP4 ADD DUP8 PUSH2 0x1ECC JUMP JUMPDEST PUSH1 0x40 DUP4 ADD SWAP6 SWAP1 SWAP6 MSTORE POP SWAP2 ISZERO ISZERO PUSH1 0x60 DUP4 ADD MSTORE ISZERO ISZERO PUSH1 0x80 SWAP1 SWAP2 ADD MSTORE SWAP3 SWAP2 POP POP JUMP JUMPDEST PUSH1 0x0 PUSH1 0x20 DUP1 DUP4 ADD DUP2 DUP5 MSTORE DUP1 DUP6 MLOAD DUP1 DUP4 MSTORE PUSH1 0x40 SWAP3 POP DUP3 DUP7 ADD SWAP2 POP DUP3 DUP2 PUSH1 0x5 SHL DUP8 ADD ADD DUP5 DUP9 ADD PUSH1 0x0 JUMPDEST DUP4 DUP2 LT ISZERO PUSH2 0x1FF1 JUMPI DUP9 DUP4 SUB PUSH1 0x3F NOT ADD DUP6 MSTORE DUP2 MLOAD DUP1 MLOAD PUSH1 0x1 PUSH1 0x1 PUSH1 0xA0 SHL SUB AND DUP5 MSTORE DUP8 DUP2 ADD MLOAD PUSH1 0x60 DUP10 DUP7 ADD DUP2 SWAP1 MSTORE SWAP1 PUSH2 0x1FD1 DUP3 DUP8 ADD DUP3 PUSH2 0x1ECC JUMP JUMPDEST SWAP3 DUP10 ADD MLOAD ISZERO ISZERO SWAP6 DUP10 ADD SWAP6 SWAP1 SWAP6 MSTORE POP SWAP5 DUP8 ADD SWAP5 SWAP3 POP SWAP1 DUP7 ADD SWAP1 PUSH1 0x1 ADD PUSH2 0x1F98 JUMP JUMPDEST POP SWAP1 SWAP9 SWAP8 POP POP POP POP POP POP POP POP JUMP JUMPDEST PUSH1 0x0 DUP1 PUSH1 0x0 DUP1 PUSH1 0x80 DUP6 DUP8 SUB SLT ISZERO PUSH2 0x2015 JUMPI PUSH1 0x0 DUP1 REVERT JUMPDEST DUP5 CALLDATALOAD PUSH2 0x2020 DUP2 PUSH2 0x1CBF JUMP JUMPDEST SWAP4 POP PUSH1 0x20 DUP6 ADD CALLDATALOAD PUSH1 0x1 PUSH1 0x1 PUSH1 0x40 SHL SUB DUP1 DUP3 GT ISZERO PUSH2 0x203C JUMPI PUSH1 0x0 DUP1 REVERT JUMPDEST PUSH2 0x2048 DUP9 DUP4 DUP10 ADD PUSH2 0x1D45 JUMP JUMPDEST SWAP5 POP PUSH1 0x40 DUP8 ADD CALLDATALOAD SWAP4 POP PUSH1 0x60 DUP8 ADD CALLDATALOAD SWAP2 POP DUP1 DUP3 GT ISZERO PUSH2 0x2065 JUMPI PUSH1 0x0 DUP1 REVERT JUMPDEST POP PUSH2 0x2072 DUP8 DUP3 DUP9 ADD PUSH2 0x1D45 JUMP JUMPDEST SWAP2 POP POP SWAP3 SWAP6 SWAP2 SWAP5 POP SWAP3 POP JUMP JUMPDEST DUP1 CALLDATALOAD DUP1 ISZERO ISZERO DUP2 EQ PUSH2 0x208E JUMPI PUSH1 0x0 DUP1 REVERT JUMPDEST SWAP2 SWAP1 POP JUMP JUMPDEST PUSH1 0x0 DUP1 PUSH1 0x0 DUP1 PUSH1 0x0 DUP1 PUSH1 0xC0 DUP8 DUP10 SUB SLT ISZERO PUSH2 0x20AC JUMPI PUSH1 0x0 DUP1 REVERT JUMPDEST DUP7 CALLDATALOAD PUSH2 0x20B7 DUP2 PUSH2 0x1CBF JUMP JUMPDEST SWAP6 POP PUSH1 0x20 DUP8 ADD CALLDATALOAD PUSH1 0x1 PUSH1 0x1 PUSH1 0x40 SHL SUB DUP1 DUP3 GT ISZERO PUSH2 0x20D3 JUMPI PUSH1 0x0 DUP1 REVERT JUMPDEST PUSH2 0x20DF DUP11 DUP4 DUP12 ADD PUSH2 0x1D45 JUMP JUMPDEST SWAP7 POP PUSH1 0x40 DUP10 ADD CALLDATALOAD SWAP2 POP DUP1 DUP3 GT ISZERO PUSH2 0x20F5 JUMPI PUSH1 0x0 DUP1 REVERT JUMPDEST PUSH2 0x2101 DUP11 DUP4 DUP12 ADD PUSH2 0x1D45 JUMP JUMPDEST SWAP6 POP PUSH2 0x210F PUSH1 0x60 DUP11 ADD PUSH2 0x207E JUMP JUMPDEST SWAP5 POP PUSH1 0x80 DUP10 ADD CALLDATALOAD SWAP4 POP PUSH1 0xA0 DUP10 ADD CALLDATALOAD SWAP2 POP DUP1 DUP3 GT ISZERO PUSH2 0x212C JUMPI PUSH1 0x0 DUP1 REVERT JUMPDEST POP PUSH2 0x2139 DUP10 DUP3 DUP11 ADD PUSH2 0x1D45 JUMP JUMPDEST SWAP2 POP POP SWAP3 SWAP6 POP SWAP3 SWAP6 POP SWAP3 SWAP6 JUMP JUMPDEST PUSH1 0x0 PUSH1 0x20 DUP3 DUP5 SUB SLT ISZERO PUSH2 0x2158 JUMPI PUSH1 0x0 DUP1 REVERT JUMPDEST DUP2 CALLDATALOAD PUSH2 0x2163 DUP2 PUSH2 0x1CBF JUMP JUMPDEST SWAP4 SWAP3 POP POP POP JUMP JUMPDEST PUSH1 0x20 DUP2 MSTORE PUSH1 0x0 PUSH2 0x2163 PUSH1 0x20 DUP4 ADD DUP5 PUSH2 0x1ECC JUMP JUMPDEST PUSH1 0x0 DUP1 PUSH1 0x0 PUSH1 0x60 DUP5 DUP7 SUB SLT ISZERO PUSH2 0x2192 JUMPI PUSH1 0x0 DUP1 REVERT JUMPDEST DUP4 CALLDATALOAD SWAP3 POP PUSH1 0x20 DUP5 ADD CALLDATALOAD PUSH1 0x1 PUSH1 0x1 PUSH1 0x40 SHL SUB DUP2 GT ISZERO PUSH2 0x21AF JUMPI PUSH1 0x0 DUP1 REVERT JUMPDEST PUSH2 0x21BB DUP7 DUP3 DUP8 ADD PUSH2 0x1D45 JUMP JUMPDEST SWAP3 POP POP PUSH1 0x40 DUP5 ADD CALLDATALOAD SWAP1 POP SWAP3 POP SWAP3 POP SWAP3 JUMP JUMPDEST DUP3 ISZERO ISZERO DUP2 MSTORE PUSH1 0x40 PUSH1 0x20 DUP3 ADD MSTORE PUSH1 0x0 PUSH2 0x21E7 PUSH1 0x40 DUP4 ADD DUP5 PUSH2 0x1ECC JUMP JUMPDEST SWAP5 SWAP4 POP POP POP POP JUMP JUMPDEST PUSH1 0x0 DUP3 PUSH1 0x1F DUP4 ADD SLT PUSH2 0x2200 JUMPI PUSH1 0x0 DUP1 REVERT JUMPDEST PUSH1 0x40 MLOAD PUSH1 0x80 DUP2 ADD DUP2 DUP2 LT PUSH1 0x1 PUSH1 0x1 PUSH1 0x40 SHL SUB DUP3 GT OR ISZERO PUSH2 0x2222 JUMPI PUSH2 0x2222 PUSH2 0x1CD7 JUMP JUMPDEST PUSH1 0x40 MSTORE DUP1 PUSH1 0x80 DUP5 ADD DUP6 DUP2 GT ISZERO PUSH2 0x2237 JUMPI PUSH1 0x0 DUP1 REVERT JUMPDEST DUP5 JUMPDEST DUP2 DUP2 LT ISZERO PUSH2 0x225A JUMPI DUP1 CALLDATALOAD PUSH2 0x224C DUP2 PUSH2 0x1CBF JUMP JUMPDEST DUP4 MSTORE PUSH1 0x20 SWAP3 DUP4 ADD SWAP3 ADD PUSH2 0x2239 JUMP JUMPDEST POP SWAP2 SWAP6 SWAP5 POP POP POP POP POP JUMP JUMPDEST PUSH1 0x0 PUSH1 0x1 PUSH1 0x1 PUSH1 0x40 SHL SUB DUP3 GT ISZERO PUSH2 0x227E JUMPI PUSH2 0x227E PUSH2 0x1CD7 JUMP JUMPDEST POP PUSH1 0x5 SHL PUSH1 0x20 ADD SWAP1 JUMP JUMPDEST PUSH1 0x0 DUP3 PUSH1 0x1F DUP4 ADD SLT PUSH2 0x2299 JUMPI PUSH1 0x0 DUP1 REVERT JUMPDEST DUP2 CALLDATALOAD PUSH1 0x20 PUSH2 0x22AE PUSH2 0x22A9 DUP4 PUSH2 0x2265 JUMP JUMPDEST PUSH2 0x1D15 JUMP JUMPDEST DUP3 DUP2 MSTORE PUSH1 0x5 SWAP3 SWAP1 SWAP3 SHL DUP5 ADD DUP2 ADD SWAP2 DUP2 DUP2 ADD SWAP1 DUP7 DUP5 GT ISZERO PUSH2 0x22CD JUMPI PUSH1 0x0 DUP1 REVERT JUMPDEST DUP3 DUP7 ADD JUMPDEST DUP5 DUP2 LT ISZERO PUSH2 0x22F1 JUMPI DUP1 CALLDATALOAD PUSH2 0x22E4 DUP2 PUSH2 0x1CBF JUMP JUMPDEST DUP4 MSTORE SWAP2 DUP4 ADD SWAP2 DUP4 ADD PUSH2 0x22D1 JUMP JUMPDEST POP SWAP7 SWAP6 POP POP POP POP POP POP JUMP JUMPDEST PUSH1 0x0 DUP1 PUSH1 0x0 DUP1 PUSH1 0x0 DUP1 PUSH1 0x0 DUP1 PUSH2 0x1A0 DUP10 DUP12 SUB SLT ISZERO PUSH2 0x2319 JUMPI PUSH1 0x0 DUP1 REVERT JUMPDEST DUP9 CALLDATALOAD PUSH2 0x2324 DUP2 PUSH2 0x1CBF JUMP JUMPDEST SWAP8 POP PUSH1 0x20 DUP10 DUP2 ADD CALLDATALOAD PUSH1 0x1 PUSH1 0x1 PUSH1 0x40 SHL SUB DUP1 DUP3 GT ISZERO PUSH2 0x2341 JUMPI PUSH1 0x0 DUP1 REVERT JUMPDEST PUSH2 0x234D DUP14 DUP4 DUP15 ADD PUSH2 0x1D45 JUMP JUMPDEST SWAP10 POP PUSH2 0x235B PUSH1 0x40 DUP14 ADD PUSH2 0x207E JUMP JUMPDEST SWAP9 POP PUSH2 0x2369 PUSH1 0x60 DUP14 ADD PUSH2 0x207E JUMP JUMPDEST SWAP8 POP PUSH1 0x80 DUP13 ADD CALLDATALOAD SWAP7 POP DUP13 PUSH1 0xBF DUP14 ADD SLT PUSH2 0x2381 JUMPI PUSH1 0x0 DUP1 REVERT JUMPDEST PUSH2 0x2389 PUSH2 0x1CED JUMP JUMPDEST SWAP2 POP DUP2 PUSH2 0x100 DUP14 ADD DUP15 DUP2 GT ISZERO PUSH2 0x239E JUMPI PUSH1 0x0 DUP1 REVERT JUMPDEST PUSH1 0xA0 DUP15 ADD JUMPDEST DUP2 DUP2 LT ISZERO PUSH2 0x23BA JUMPI DUP1 CALLDATALOAD DUP6 MSTORE SWAP4 DUP6 ADD SWAP4 DUP6 ADD PUSH2 0x23A3 JUMP JUMPDEST POP DUP2 SWAP8 POP PUSH2 0x23C8 DUP16 DUP3 PUSH2 0x21EF JUMP JUMPDEST SWAP7 POP POP POP PUSH2 0x180 DUP13 ADD CALLDATALOAD SWAP3 POP DUP1 DUP4 GT ISZERO PUSH2 0x23E1 JUMPI PUSH1 0x0 DUP1 REVERT JUMPDEST POP POP PUSH2 0x23EF DUP12 DUP3 DUP13 ADD PUSH2 0x2288 JUMP JUMPDEST SWAP2 POP POP SWAP3 SWAP6 SWAP9 POP SWAP3 SWAP6 SWAP9 SWAP1 SWAP4 SWAP7 POP JUMP JUMPDEST PUSH1 0x0 DUP1 PUSH1 0x40 DUP4 DUP6 SUB SLT ISZERO PUSH2 0x2412 JUMPI PUSH1 0x0 DUP1 REVERT JUMPDEST PUSH2 0x241B DUP4 PUSH2 0x207E JUMP JUMPDEST SWAP2 POP PUSH1 0x20 DUP4 ADD CALLDATALOAD PUSH1 0x1 PUSH1 0x1 PUSH1 0x40 SHL SUB DUP2 GT ISZERO PUSH2 0x2436 JUMPI PUSH1 0x0 DUP1 REVERT JUMPDEST PUSH2 0x2442 DUP6 DUP3 DUP7 ADD PUSH2 0x1D45 JUMP JUMPDEST SWAP2 POP POP SWAP3 POP SWAP3 SWAP1 POP JUMP JUMPDEST PUSH1 0x0 DUP1 PUSH1 0x0 PUSH1 0x60 DUP5 DUP7 SUB SLT ISZERO PUSH2 0x2461 JUMPI PUSH1 0x0 DUP1 REVERT JUMPDEST DUP4 CALLDATALOAD PUSH1 0x1 PUSH1 0x1 PUSH1 0x40 SHL SUB DUP1 DUP3 GT ISZERO PUSH2 0x2478 JUMPI PUSH1 0x0 DUP1 REVERT JUMPDEST PUSH2 0x2484 DUP8 DUP4 DUP9 ADD PUSH2 0x1D45 JUMP JUMPDEST SWAP5 POP PUSH1 0x20 DUP7 ADD CALLDATALOAD SWAP2 POP DUP1 DUP3 GT ISZERO PUSH2 0x249A JUMPI PUSH1 0x0 DUP1 REVERT JUMPDEST PUSH2 0x24A6 DUP8 DUP4 DUP9 ADD PUSH2 0x1D45 JUMP JUMPDEST SWAP4 POP PUSH1 0x40 DUP7 ADD CALLDATALOAD SWAP2 POP DUP1 DUP3 GT ISZERO PUSH2 0x24BC JUMPI PUSH1 0x0 DUP1 REVERT JUMPDEST POP PUSH2 0x24C9 DUP7 DUP3 DUP8 ADD PUSH2 0x1D45 JUMP JUMPDEST SWAP2 POP POP SWAP3 POP SWAP3 POP SWAP3 JUMP JUMPDEST PUSH1 0x0 DUP1 PUSH1 0x0 DUP1 PUSH1 0x80 DUP6 DUP8 SUB SLT ISZERO PUSH2 0x24E9 JUMPI PUSH1 0x0 DUP1 REVERT JUMPDEST DUP5 CALLDATALOAD PUSH1 0x1 PUSH1 0x1 PUSH1 0x40 SHL SUB DUP1 DUP3 GT ISZERO PUSH2 0x2500 JUMPI PUSH1 0x0 DUP1 REVERT JUMPDEST DUP2 DUP8 ADD SWAP2 POP DUP8 PUSH1 0x1F DUP4 ADD SLT PUSH2 0x2514 JUMPI PUSH1 0x0 DUP1 REVERT JUMPDEST DUP2 CALLDATALOAD PUSH1 0x20 PUSH2 0x2524 PUSH2 0x22A9 DUP4 PUSH2 0x2265 JUMP JUMPDEST DUP3 DUP2 MSTORE PUSH1 0x5 SWAP3 SWAP1 SWAP3 SHL DUP5 ADD DUP2 ADD SWAP2 DUP2 DUP2 ADD SWAP1 DUP12 DUP5 GT ISZERO PUSH2 0x2543 JUMPI PUSH1 0x0 DUP1 REVERT JUMPDEST SWAP5 DUP3 ADD SWAP5 JUMPDEST DUP4 DUP7 LT ISZERO PUSH2 0x2561 JUMPI DUP6 CALLDATALOAD DUP3 MSTORE SWAP5 DUP3 ADD SWAP5 SWAP1 DUP3 ADD SWAP1 PUSH2 0x2548 JUMP JUMPDEST SWAP9 POP PUSH2 0x2570 SWAP1 POP DUP10 DUP3 ADD PUSH2 0x207E JUMP JUMPDEST SWAP7 POP POP POP PUSH1 0x40 DUP8 ADD CALLDATALOAD SWAP2 POP DUP1 DUP3 GT ISZERO PUSH2 0x2588 JUMPI PUSH1 0x0 DUP1 REVERT JUMPDEST PUSH2 0x2594 DUP9 DUP4 DUP10 ADD PUSH2 0x1D45 JUMP JUMPDEST SWAP4 POP PUSH1 0x60 DUP8 ADD CALLDATALOAD SWAP2 POP DUP1 DUP3 GT ISZERO PUSH2 0x2065 JUMPI PUSH1 0x0 DUP1 REVERT JUMPDEST PUSH4 0x4E487B71 PUSH1 0xE0 SHL PUSH1 0x0 MSTORE PUSH1 0x21 PUSH1 0x4 MSTORE PUSH1 0x24 PUSH1 0x0 REVERT JUMPDEST PUSH1 0x9 DUP2 LT PUSH2 0x25DE JUMPI PUSH4 0x4E487B71 PUSH1 0xE0 SHL PUSH1 0x0 MSTORE PUSH1 0x21 PUSH1 0x4 MSTORE PUSH1 0x24 PUSH1 0x0 REVERT JUMPDEST SWAP1 MSTORE JUMP JUMPDEST PUSH1 0x0 PUSH1 0x20 DUP1 DUP4 ADD DUP2 DUP5 MSTORE DUP1 DUP6 MLOAD DUP1 DUP4 MSTORE PUSH1 0x40 SWAP3 POP DUP3 DUP7 ADD SWAP2 POP DUP3 DUP2 PUSH1 0x5 SHL DUP8 ADD ADD DUP5 DUP9 ADD PUSH1 0x0 JUMPDEST DUP4 DUP2 LT ISZERO PUSH2 0x1FF1 JUMPI DUP9 DUP4 SUB PUSH1 0x3F NOT ADD DUP6 MSTORE DUP2 MLOAD DUP1 MLOAD PUSH1 0x1 PUSH1 0x1 PUSH1 0xA0 SHL SUB AND DUP5 MSTORE PUSH2 0x120 DUP9 DUP3 ADD MLOAD PUSH2 0x263C DUP11 DUP8 ADD DUP3 PUSH2 0x25C0 JUMP JUMPDEST POP DUP8 DUP3 ADD MLOAD DUP2 DUP10 DUP8 ADD MSTORE PUSH2 0x2652 DUP3 DUP8 ADD DUP3 PUSH2 0x1ECC JUMP JUMPDEST PUSH1 0x60 DUP5 DUP2 ADD MLOAD SWAP1 DUP9 ADD MSTORE PUSH1 0x80 DUP1 DUP6 ADD MLOAD SWAP1 DUP9 ADD MSTORE PUSH1 0xA0 DUP1 DUP6 ADD MLOAD SWAP1 DUP9 ADD MSTORE PUSH1 0xC0 DUP1 DUP6 ADD MLOAD ISZERO ISZERO SWAP1 DUP9 ADD MSTORE PUSH1 0xE0 DUP1 DUP6 ADD MLOAD ISZERO ISZERO SWAP1 DUP9 ADD MSTORE PUSH2 0x100 SWAP4 DUP5 ADD MLOAD SWAP4 SWAP1 SWAP7 ADD SWAP3 SWAP1 SWAP3 MSTORE POP POP SWAP4 DUP7 ADD SWAP4 SWAP1 DUP7 ADD SWAP1 PUSH1 0x1 ADD PUSH2 0x2609 JUMP JUMPDEST PUSH1 0x0 DUP1 PUSH1 0x0 DUP1 PUSH1 0x80 DUP6 DUP8 SUB SLT ISZERO PUSH2 0x26BF JUMPI PUSH1 0x0 DUP1 REVERT JUMPDEST DUP5 CALLDATALOAD SWAP4 POP PUSH2 0x26CF PUSH1 0x20 DUP7 ADD PUSH2 0x207E JUMP JUMPDEST SWAP3 POP PUSH1 0x40 DUP6 ADD CALLDATALOAD PUSH1 0x1 PUSH1 0x1 PUSH1 0x40 SHL SUB DUP1 DUP3 GT ISZERO PUSH2 0x2588 JUMPI PUSH1 0x0 DUP1 REVERT JUMPDEST PUSH1 0x0 DUP1 PUSH1 0x40 DUP4 DUP6 SUB SLT ISZERO PUSH2 0x26FE JUMPI PUSH1 0x0 DUP1 REVERT JUMPDEST DUP3 CALLDATALOAD SWAP2 POP PUSH1 0x20 DUP4 ADD CALLDATALOAD PUSH2 0x2710 DUP2 PUSH2 0x1CBF JUMP JUMPDEST DUP1 SWAP2 POP POP SWAP3 POP SWAP3 SWAP1 POP JUMP JUMPDEST DUP4 ISZERO ISZERO DUP2 MSTORE DUP3 ISZERO ISZERO PUSH1 0x20 DUP3 ADD MSTORE PUSH1 0x60 PUSH1 0x40 DUP3 ADD MSTORE PUSH1 0x0 PUSH2 0x273E PUSH1 0x60 DUP4 ADD DUP5 PUSH2 0x1ECC JUMP JUMPDEST SWAP6 SWAP5 POP POP POP POP POP JUMP JUMPDEST PUSH1 0x1 PUSH1 0x1 PUSH1 0xA0 SHL SUB DUP11 AND DUP2 MSTORE PUSH1 0x0 PUSH2 0x120 PUSH2 0x2765 PUSH1 0x20 DUP5 ADD DUP13 PUSH2 0x25C0 JUMP JUMPDEST DUP1 PUSH1 0x40 DUP5 ADD MSTORE PUSH2 0x2777 DUP2 DUP5 ADD DUP12 PUSH2 0x1ECC JUMP JUMPDEST PUSH1 0x60 DUP5 ADD SWAP10 SWAP1 SWAP10 MSTORE POP POP PUSH1 0x80 DUP2 ADD SWAP6 SWAP1 SWAP6 MSTORE PUSH1 0xA0 DUP6 ADD SWAP4 SWAP1 SWAP4 MSTORE SWAP1 ISZERO ISZERO PUSH1 0xC0 DUP5 ADD MSTORE ISZERO ISZERO PUSH1 0xE0 DUP4 ADD MSTORE PUSH2 0x100 SWAP1 SWAP2 ADD MSTORE SWAP4 SWAP3 POP POP POP JUMP JUMPDEST PUSH1 0x0 DUP1 PUSH1 0x0 DUP1 PUSH1 0x0 PUSH1 0xA0 DUP7 DUP9 SUB SLT ISZERO PUSH2 0x27C6 JUMPI PUSH1 0x0 DUP1 REVERT JUMPDEST DUP6 CALLDATALOAD PUSH2 0x27D1 DUP2 PUSH2 0x1CBF JUMP JUMPDEST SWAP5 POP PUSH1 0x20 DUP7 ADD CALLDATALOAD SWAP4 POP PUSH1 0x40 DUP7 ADD CALLDATALOAD PUSH2 0x27E8 DUP2 PUSH2 0x1CBF JUMP JUMPDEST SWAP3 POP PUSH1 0x60 DUP7 ADD CALLDATALOAD PUSH1 0x1 PUSH1 0x1 PUSH1 0x40 SHL SUB DUP2 GT ISZERO PUSH2 0x1E69 JUMPI PUSH1 0x0 DUP1 REVERT JUMPDEST PUSH1 0x0 PUSH1 0x20 DUP3 DUP5 SUB SLT ISZERO PUSH2 0x2815 JUMPI PUSH1 0x0 DUP1 REVERT JUMPDEST DUP2 MLOAD PUSH2 0x2163 DUP2 PUSH2 0x1CBF JUMP JUMPDEST PUSH1 0x1 DUP1 PUSH1 0xA0 SHL SUB DUP6 AND DUP2 MSTORE DUP4 PUSH1 0x20 DUP3 ADD MSTORE PUSH1 0x80 PUSH1 0x40 DUP3 ADD MSTORE PUSH1 0x0 PUSH2 0x2847 PUSH1 0x80 DUP4 ADD DUP6 PUSH2 0x1ECC JUMP JUMPDEST SWAP1 POP DUP3 PUSH1 0x60 DUP4 ADD MSTORE SWAP6 SWAP5 POP POP POP POP POP JUMP JUMPDEST PUSH1 0x0 DUP3 MLOAD PUSH2 0x286A DUP2 DUP5 PUSH1 0x20 DUP8 ADD PUSH2 0x1EA0 JUMP JUMPDEST SWAP2 SWAP1 SWAP2 ADD SWAP3 SWAP2 POP POP JUMP JUMPDEST PUSH1 0x1 PUSH1 0x1 PUSH1 0xA0 SHL SUB DUP7 DUP2 AND DUP3 MSTORE DUP6 AND PUSH1 0x20 DUP3 ADD MSTORE PUSH1 0x40 DUP2 ADD DUP5 SWAP1 MSTORE PUSH1 0xA0 PUSH1 0x60 DUP3 ADD DUP2 SWAP1 MSTORE PUSH1 0x0 SWAP1 PUSH2 0x28A7 SWAP1 DUP4 ADD DUP6 PUSH2 0x1ECC JUMP JUMPDEST SWAP1 POP DUP3 PUSH1 0x80 DUP4 ADD MSTORE SWAP7 SWAP6 POP POP POP POP POP POP JUMP JUMPDEST PUSH1 0x1 DUP2 DUP2 SHR SWAP1 DUP3 AND DUP1 PUSH2 0x28CD JUMPI PUSH1 0x7F DUP3 AND SWAP2 POP JUMPDEST PUSH1 0x20 DUP3 LT DUP2 EQ ISZERO PUSH2 0x28EE JUMPI PUSH4 0x4E487B71 PUSH1 0xE0 SHL PUSH1 0x0 MSTORE PUSH1 0x22 PUSH1 0x4 MSTORE PUSH1 0x24 PUSH1 0x0 REVERT JUMPDEST POP SWAP2 SWAP1 POP JUMP JUMPDEST PUSH1 0x1 PUSH1 0x1 PUSH1 0xA0 SHL SUB DUP6 AND DUP2 MSTORE PUSH1 0x80 PUSH1 0x20 DUP3 ADD DUP2 SWAP1 MSTORE PUSH1 0x0 SWAP1 PUSH2 0x2918 SWAP1 DUP4 ADD DUP7 PUSH2 0x1ECC JUMP JUMPDEST DUP5 PUSH1 0x40 DUP5 ADD MSTORE DUP3 DUP2 SUB PUSH1 0x60 DUP5 ADD MSTORE PUSH2 0x2930 DUP2 DUP6 PUSH2 0x1ECC JUMP JUMPDEST SWAP8 SWAP7 POP POP POP POP POP POP POP JUMP JUMPDEST PUSH1 0x1 PUSH1 0x1 PUSH1 0xA0 SHL SUB DUP8 AND DUP2 MSTORE PUSH1 0xC0 PUSH1 0x20 DUP3 ADD DUP2 SWAP1 MSTORE PUSH1 0x0 SWAP1 PUSH2 0x295F SWAP1 DUP4 ADD DUP9 PUSH2 0x1ECC JUMP JUMPDEST DUP3 DUP2 SUB PUSH1 0x40 DUP5 ADD MSTORE PUSH2 0x2971 DUP2 DUP9 PUSH2 0x1ECC JUMP JUMPDEST SWAP1 POP DUP6 ISZERO ISZERO PUSH1 0x60 DUP5 ADD MSTORE DUP5 PUSH1 0x80 DUP5 ADD MSTORE DUP3 DUP2 SUB PUSH1 0xA0 DUP5 ADD MSTORE PUSH2 0x2993 DUP2 DUP6 PUSH2 0x1ECC JUMP JUMPDEST SWAP10 SWAP9 POP POP POP POP POP POP POP POP POP JUMP JUMPDEST DUP4 DUP2 MSTORE PUSH1 0x60 PUSH1 0x20 DUP3 ADD MSTORE PUSH1 0x0 PUSH2 0x29B9 PUSH1 0x60 DUP4 ADD DUP6 PUSH2 0x1ECC JUMP JUMPDEST SWAP1 POP DUP3 PUSH1 0x40 DUP4 ADD MSTORE SWAP5 SWAP4 POP POP POP POP JUMP JUMPDEST DUP1 PUSH1 0x0 JUMPDEST PUSH1 0x4 DUP2 LT ISZERO PUSH2 0x1543 JUMPI DUP2 MLOAD PUSH1 0x1 PUSH1 0x1 PUSH1 0xA0 SHL SUB AND DUP5 MSTORE PUSH1 0x20 SWAP4 DUP5 ADD SWAP4 SWAP1 SWAP2 ADD SWAP1 PUSH1 0x1 ADD PUSH2 0x29CD JUMP JUMPDEST PUSH1 0x0 DUP2 MLOAD DUP1 DUP5 MSTORE PUSH1 0x20 DUP1 DUP6 ADD SWAP5 POP DUP1 DUP5 ADD PUSH1 0x0 JUMPDEST DUP4 DUP2 LT ISZERO PUSH2 0x2A2E JUMPI DUP2 MLOAD PUSH1 0x1 PUSH1 0x1 PUSH1 0xA0 SHL SUB AND DUP8 MSTORE SWAP6 DUP3 ADD SWAP6 SWAP1 DUP3 ADD SWAP1 PUSH1 0x1 ADD PUSH2 0x2A09 JUMP JUMPDEST POP SWAP5 SWAP6 SWAP5 POP POP POP POP POP JUMP JUMPDEST PUSH1 0x1 PUSH1 0x1 PUSH1 0xA0 SHL SUB DUP10 AND DUP2 MSTORE PUSH2 0x1A0 PUSH1 0x20 DUP1 DUP4 ADD DUP3 SWAP1 MSTORE PUSH1 0x0 SWAP2 SWAP1 PUSH2 0x2A60 DUP5 DUP4 ADD DUP13 PUSH2 0x1ECC JUMP JUMPDEST SWAP2 POP DUP10 ISZERO ISZERO PUSH1 0x40 DUP6 ADD MSTORE DUP9 ISZERO ISZERO PUSH1 0x60 DUP6 ADD MSTORE DUP8 PUSH1 0x80 DUP6 ADD MSTORE PUSH1 0xA0 DUP5 ADD DUP8 PUSH1 0x0 JUMPDEST PUSH1 0x3 DUP2 LT ISZERO PUSH2 0x2A9D JUMPI DUP2 MLOAD DUP4 MSTORE SWAP2 DUP4 ADD SWAP2 SWAP1 DUP4 ADD SWAP1 PUSH1 0x1 ADD PUSH2 0x2A80 JUMP JUMPDEST POP POP POP POP PUSH2 0x2AAF PUSH2 0x100 DUP5 ADD DUP7 PUSH2 0x29C9 JUMP JUMPDEST DUP3 DUP2 SUB PUSH2 0x180 DUP5 ADD MSTORE PUSH2 0x2AC2 DUP2 DUP6 PUSH2 0x29F5 JUMP JUMPDEST SWAP12 SWAP11 POP POP POP POP POP POP POP POP POP POP POP JUMP JUMPDEST PUSH1 0x60 DUP2 MSTORE PUSH1 0x0 PUSH2 0x2AE4 PUSH1 0x60 DUP4 ADD DUP7 PUSH2 0x1ECC JUMP JUMPDEST DUP3 DUP2 SUB PUSH1 0x20 DUP5 ADD MSTORE PUSH2 0x2AF6 DUP2 DUP7 PUSH2 0x1ECC JUMP JUMPDEST SWAP1 POP DUP3 DUP2 SUB PUSH1 0x40 DUP5 ADD MSTORE PUSH2 0x2B0A DUP2 DUP6 PUSH2 0x1ECC JUMP JUMPDEST SWAP7 SWAP6 POP POP POP POP POP POP JUMP JUMPDEST PUSH1 0x80 DUP1 DUP3 MSTORE DUP6 MLOAD SWAP1 DUP3 ADD DUP2 SWAP1 MSTORE PUSH1 0x0 SWAP1 PUSH1 0x20 SWAP1 PUSH1 0xA0 DUP5 ADD SWAP1 DUP3 DUP10 ADD DUP5 JUMPDEST DUP3 DUP2 LT ISZERO PUSH2 0x2B4D JUMPI DUP2 MLOAD DUP5 MSTORE SWAP3 DUP5 ADD SWAP3 SWAP1 DUP5 ADD SWAP1 PUSH1 0x1 ADD PUSH2 0x2B31 JUMP JUMPDEST POP POP POP DUP7 ISZERO ISZERO DUP3 DUP6 ADD MSTORE DUP4 DUP2 SUB PUSH1 0x40 DUP6 ADD MSTORE PUSH2 0x2B69 DUP2 DUP8 PUSH2 0x1ECC JUMP JUMPDEST SWAP2 POP POP DUP3 DUP2 SUB PUSH1 0x60 DUP5 ADD MSTORE PUSH2 0x2930 DUP2 DUP6 PUSH2 0x1ECC JUMP JUMPDEST DUP5 DUP2 MSTORE DUP4 ISZERO ISZERO PUSH1 0x20 DUP3 ADD MSTORE PUSH1 0x80 PUSH1 0x40 DUP3 ADD MSTORE PUSH1 0x0 PUSH2 0x2B9F PUSH1 0x80 DUP4 ADD DUP6 PUSH2 0x1ECC JUMP JUMPDEST DUP3 DUP2 SUB PUSH1 0x60 DUP5 ADD MSTORE PUSH2 0x2930 DUP2 DUP6 PUSH2 0x1ECC JUMP JUMPDEST PUSH1 0x1 PUSH1 0x1 PUSH1 0xA0 SHL SUB DUP7 DUP2 AND DUP3 MSTORE PUSH1 0x20 DUP3 ADD DUP7 SWAP1 MSTORE DUP5 AND PUSH1 0x40 DUP3 ADD MSTORE PUSH1 0xA0 PUSH1 0x60 DUP3 ADD DUP2 SWAP1 MSTORE PUSH1 0x0 SWAP1 PUSH2 0x28A7 SWAP1 DUP4 ADD DUP6 PUSH2 0x1ECC JUMP INVALID LOG2 PUSH5 0x6970667358 0x22 SLT KECCAK256 0xBD DUP4 BYTE 0xAD 0xB9 0xBD 0xD3 0xCC 0x2F 0xEB BASEFEE 0xDC 0xA9 0x1F 0x23 PUSH21 0xB3EFE0C0A72B00834ADBF1AAB38F860164736F6C63 NUMBER STOP ADDMOD 0xC STOP CALLER ",
  "sha1": "9705514be3321cad79ca4a0eb85f1c64044892c7",
  "source": "// SPDX-License-Identifier: MIT\npragma solidity ^0.8.11;\n\nimport \"@openzeppelin/contracts/proxy/utils/Initializable.sol\";\nimport \"../CLCore/CLStorage.sol\";\n\n\n/// @title Contract to implement and test the basic fuctions of CLHouses\n/// @author Leonardo Urrego\n/// @notice This contract for test only the most basic interactions\ncontract CLHouse is CLStorage, Initializable {\n    /// @custom:oz-upgrades-unsafe-allow constructor\n    constructor() {\n        _disableInitializers();\n    }\n\n    /// @notice Create a new CLH\n    /// @dev Some parameters can be ignored depending on the governance model\n    /// @param _owner The address of the deployed wallet\n    /// @param _houseName Name given by the owner\n    /// @param _housePrivate If is set to 1, the CLH is set to private\n    /// @param _houseOpen If is set to 1, the CLH is set to Open\n    /// @param _govModel keccak256 hash of the governance model, see the __GOV_* constans\n    /// @param _govRules Array for goverment rules see `enum gRule`\n    /// @param _CLC Array for CL Contracts see `enum eCLC`\n    /// @param _ManagerWallets Whitelist of address for invitate as managers\n    function Init(\n        address _owner, \n        string memory _houseName,\n        bool _housePrivate,\n        bool _houseOpen,\n        bytes32 _govModel,\n        uint256[3] memory _govRules,\n        address[4] memory _CLC,\n        address[] memory _ManagerWallets\n    )\n        external\n        reinitializer( __UPGRADEABLE_CLH_VERSION__ )\n    {\n        /// @custom:oz-upgrades-unsafe-allow delegatecall\n        (bool successDGTCLL, ) = _CLC[ uint256( eCLC.CLLConstructorCLH ) ].delegatecall(\n            abi.encodeWithSignature(\n                \"__CLHConstructor(address,string,bool,bool,bytes32,uint256[3],address[4],address[])\",\n                _owner, \n                _houseName,\n                _housePrivate,\n                _houseOpen,\n                _govModel,\n                _govRules,\n                _CLC,\n                _ManagerWallets\n            )\n        );\n\n        if( !successDGTCLL ) {\n            assembly {\n                let ptr := mload(0x40)\n                let size := returndatasize()\n                returndatacopy(ptr, 0, size)\n                revert(ptr, size)\n            }\n        }\n    }\n\n    /// @notice Execute (or reject) a proposal computing the votes and the governance model\n    /// @dev Normally is called internally after each vote\n    /// @param _propId ID of the proposal, based on `arrProposals`\n    /// @return status True if the proposal can be execute, false in other cases\n    /// @return message result of the transaction\n    function ExecProp(\n        uint256 _propId\n    )\n        public\n        returns(\n            bool status,\n            string memory message\n        )\n    {\n        address CLLGovernance = CCLFACTORY.CLLGovernance();\n        /// @custom:oz-upgrades-unsafe-allow delegatecall\n        (bool successDGTCLL, ) = CLLGovernance.delegatecall(\n            abi.encodeWithSignature(\n                \"ExecProp(uint256)\",\n                _propId\n            )\n        );\n\n        if( !successDGTCLL ) {\n            assembly {\n                let ptr := mload(0x40)\n                let size := returndatasize()\n                returndatacopy(ptr, 0, size)\n                revert(ptr, size)\n            }\n        }\n\n        return ( true , \"Success executed proposal\" );\n    }\n\n    /// @notice Used to vote a proposal\n    /// @dev After vote the proposal automatically try to be executed\n    /// @param _propId ID of the proposal, based on `arrProposals`\n    /// @param _support True for accept, false to reject\n    /// @param _justification About your vote\n    function VoteProposal(\n        uint256 _propId,\n        bool _support,\n        string memory _justification,\n        bytes memory _signature\n    )\n        public\n    {\n        address CLLGovernance = CCLFACTORY.CLLGovernance();\n        /// @custom:oz-upgrades-unsafe-allow delegatecall\n        (bool successDGTCLL, ) = CLLGovernance.delegatecall(\n            abi.encodeWithSignature( \n                \"VoteProposal(uint256,bool,string,bytes)\",\n                _propId,\n                _support,\n                _justification,\n                _signature\n            )\n        );\n\n        if( !successDGTCLL ) {\n            assembly {\n                let ptr := mload(0x40)\n                let size := returndatasize()\n                returndatacopy(ptr, 0, size)\n                revert(ptr, size)\n            }\n        }\n    }\n\n    /// @notice Generate a new proposal to invite a new user\n    /// @dev the execution of this proposal only create an invitation \n    /// @param _walletAddr  Address of the new user\n    /// @param _name Can be the nickname or other reference to the User\n    /// @param _description A text for the proposal\n    /// @param _isManager True if is for a manager\n    /// @return propId ID of the new proposal, based on `arrProposals`\n    function PropInviteUser(\n        address _walletAddr,\n        string memory _name,\n        string memory _description,\n        bool _isManager,\n        uint256 _delayTime,\n        bytes memory _signature\n    )\n        external\n        returns( uint256 propId )\n    {\n        address CLLGovernance = CCLFACTORY.CLLGovernance();\n        /// @custom:oz-upgrades-unsafe-allow delegatecall\n        (bool successDGTCLL, ) = CLLGovernance.delegatecall(\n            abi.encodeWithSignature( \n                \"PropInviteUser(address,string,string,bool,uint256,bytes)\",\n                _walletAddr,\n                _name,\n                _description,\n                _isManager,\n                _delayTime,\n                _signature\n            )\n        );\n\n        assembly {\n            let ptr := mload(0x40)\n            let size := returndatasize()\n            returndatacopy(ptr, 0, size)\n            if iszero( successDGTCLL ) {\n                revert(ptr, size)\n            }\n            propId := mload(ptr)\n        }\n    }\n\n    /// @notice Generate a new proposal for remove a user\n    /// @dev The user can be a managaer\n    /// @param _walletAddr user Address to be removed\n    /// @param _description About the proposal\n    /// @return propId ID of the new proposal, based on `arrProposals`\n    function PropRemoveUser(\n        address _walletAddr,\n        string memory _description,\n        uint256 _delayTime,\n        bytes memory _signature\n    )\n        external\n        returns( uint256 propId )\n    {\n        address CLLGovernance = CCLFACTORY.CLLGovernance();\n        /// @custom:oz-upgrades-unsafe-allow delegatecall\n        (bool successDGTCLL, ) = CLLGovernance.delegatecall(\n            abi.encodeWithSignature( \n                \"PropRemoveUser(address,string,uint256,bytes)\",\n                _walletAddr,\n                _description,\n                _delayTime,\n                _signature\n            )\n        );\n\n        assembly {\n            let ptr := mload(0x40)\n            let size := returndatasize()\n            returndatacopy(ptr, 0, size)\n            if iszero( successDGTCLL ) {\n                revert(ptr, size)\n            }\n            propId := mload(ptr)\n        }\n    }\n\n    /// @notice generate a new proposal to transfer ETH in weis\n    /// @dev When execute this proposal, the transfer is made\n    /// @param _to Recipient address\n    /// @param _amountOutCLV Amount to transfer (in wei)\n    /// @param _description About this proposal\n    /// @return propId ID of the new proposal, based on `arrProposals`\n    function PropTxWei(\n        address _to,\n        uint256 _amountOutCLV,\n        string memory _description,\n        uint256 _delayTime\n    )\n        external\n        returns( uint256 propId )\n    {\n        address CLLGovernance = CCLFACTORY.CLLGovernance();\n        /// @custom:oz-upgrades-unsafe-allow delegatecall\n        (bool successDGTCLL, ) = CLLGovernance.delegatecall(\n            abi.encodeWithSignature( \n                \"PropTxWei(address,uint256,string,uint256)\",\n                _to,\n                _amountOutCLV,\n                _description,\n                _delayTime\n            )\n        );\n\n        assembly {\n            let ptr := mload(0x40)\n            let size := returndatasize()\n            returndatacopy(ptr, 0, size)\n            if iszero( successDGTCLL ) {\n                revert(ptr, size)\n            }\n            propId := mload(ptr)\n        }\n    }\n\n    /// @notice generate a new proposal to transfer ETH in weis\n    /// @dev When execute this proposal, the transfer is made\n    /// @param _to Recipient address\n    /// @param _amountOutCLV Amount to transfer (in wei)\n    /// @param _description About this proposal\n    /// @return propId ID of the new proposal, based on `arrProposals`\n    function PropTxERC20(\n        address _to,\n        uint256 _amountOutCLV,\n        address _tokenOutCLV,\n        string memory _description,\n        uint256 _delayTime\n    )\n        external\n        returns( uint256 propId )\n    {\n        address CLLGovernance = CCLFACTORY.CLLGovernance();\n        /// @custom:oz-upgrades-unsafe-allow delegatecall\n        (bool successDGTCLL, ) = CLLGovernance.delegatecall(\n            abi.encodeWithSignature( \n                \"PropTxERC20(address,uint256,address,string,uint256)\",\n                _to,\n                _amountOutCLV,\n                _tokenOutCLV,\n                _description,\n                _delayTime\n            )\n        );\n\n        assembly {\n            let ptr := mload(0x40)\n            let size := returndatasize()\n            returndatacopy(ptr, 0, size)\n            if iszero( successDGTCLL ) {\n                revert(ptr, size)\n            }\n            propId := mload(ptr)\n        }\n    }\n\n    /// @notice Generate a new proposal for change some governance parameters\n    /// @dev When execute this proposal the new values will be set\n    /// @param _newApprovPercentage The new percentaje for accept or reject a proposal\n    /// @param _description About the new proposal \n    /// @return propId ID of the new proposal, based on `arrProposals`\n    function PropGovRules(\n        uint256 _newApprovPercentage,\n        string memory _description,\n        uint256 _delayTime\n    )\n        external\n        returns( uint256 propId )\n    {\n        address CLLGovernance = CCLFACTORY.CLLGovernance();\n        /// @custom:oz-upgrades-unsafe-allow delegatecall\n        (bool successDGTCLL, ) = CLLGovernance.delegatecall(\n            abi.encodeWithSignature( \n                \"PropGovRules(uint256,string,uint256)\",\n                _newApprovPercentage,\n                _description,\n                _delayTime\n            )\n        );\n\n        assembly {\n            let ptr := mload(0x40)\n            let size := returndatasize()\n            returndatacopy(ptr, 0, size)\n            if iszero( successDGTCLL ) {\n                revert(ptr, size)\n            }\n            propId := mload(ptr)\n        }\n    }\n\n    /// @notice Generate a proposal from a user that want to join to the CLH\n    /// @dev Only avaiable in public CLH\n    /// @param _name Nickname or other user identification\n    /// @param _description About the request\n    /// @return propId ID of the new proposal, based on `arrProposals`\n    function PropRequestToJoin(\n        string memory _name,\n        string memory _description,\n        bytes memory _signature\n    )\n        external\n        returns( uint256 )\n    {\n        address CLLGovernance = CCLFACTORY.CLLGovernance();\n        /// @custom:oz-upgrades-unsafe-allow delegatecall\n        (bool successDGTCLL, ) = CLLGovernance.delegatecall(\n            abi.encodeWithSignature( \n                \"PropRequestToJoin(string,string,bytes)\",\n                _name,\n                _description,\n                _signature\n            )\n        );\n\n        assembly {\n            let ptr := mload(0x40)\n            let size := returndatasize()\n            returndatacopy(ptr, 0, size)\n            if iszero( successDGTCLL ) {\n                revert(ptr, size)\n            }\n            return(ptr, size)\n        }\n    }\n\n    /// @notice For an user that have an invitation pending\n    /// @param _acceptance True for accept the invitation\n    function AcceptRejectInvitation(\n        bool _acceptance,\n        bytes memory _signature\n    )\n        external\n    {\n        address CLLUserManagement = CCLFACTORY.CLLUserManagement();\n        /// @custom:oz-upgrades-unsafe-allow delegatecall\n        (bool successDGTCLL, ) = CLLUserManagement.delegatecall(\n            abi.encodeWithSignature( \n                \"AcceptRejectInvitation(bool,bytes)\",\n                _acceptance,\n                _signature\n            )\n        );\n\n        if( !successDGTCLL ) {\n            assembly {\n                let ptr := mload(0x40)\n                let size := returndatasize()\n                returndatacopy(ptr, 0, size)\n                revert(ptr, size)\n            }\n        }\n    }\n\n    function PropSwapERC20(\n        address _tokenOutCLV,\n        address _tokenInCLV,\n        uint256 _amountOutCLV,\n        string memory _description,\n        uint256 _delayTime\n    )\n        external\n        returns( uint256 )\n    {\n        address CLLGovernance = CCLFACTORY.CLLGovernance();\n        /// @custom:oz-upgrades-unsafe-allow delegatecall\n        (bool successDGTCLL, ) = CLLGovernance.delegatecall(\n            abi.encodeWithSignature( \n                \"PropSwapERC20(address,address,uint256,string,uint256)\",\n                _tokenOutCLV,\n                _tokenInCLV,\n                _amountOutCLV,\n                _description,\n                _delayTime\n            )\n        );\n\n        assembly {\n            let ptr := mload(0x40)\n            let size := returndatasize()\n            returndatacopy(ptr, 0, size)\n            if iszero( successDGTCLL ) {\n                revert(ptr, size)\n            }\n            return(ptr, size)\n        }\n    }\n\n    function PropSellERC20(\n        address _tokenOutCLV,\n        uint256 _amountOutCLV,\n        string memory _description,\n        uint256 _delayTime\n    )\n        external\n        returns( uint256 )\n    {\n        address CLLGovernance = CCLFACTORY.CLLGovernance();\n        /// @custom:oz-upgrades-unsafe-allow delegatecall\n        (bool successDGTCLL, ) = CLLGovernance.delegatecall(\n            abi.encodeWithSignature( \n                \"PropSellERC20(address,uint256,string,uint256)\",\n                _tokenOutCLV,\n                _amountOutCLV,\n                _description,\n                _delayTime\n            )\n        );\n\n        assembly {\n            let ptr := mload(0x40)\n            let size := returndatasize()\n            returndatacopy(ptr, 0, size)\n            if iszero( successDGTCLL ) {\n                revert(ptr, size)\n            }\n            return(ptr, size)\n        }\n    }\n\n    function PropBuyERC20(\n        address _tokenInCLV,\n        uint256 _amountOutCLV,\n        string memory _description,\n        uint256 _delayTime\n    )\n        external\n        returns( uint256 )\n    {\n        address CLLGovernance = CCLFACTORY.CLLGovernance();\n        /// @custom:oz-upgrades-unsafe-allow delegatecall\n        (bool successDGTCLL, ) = CLLGovernance.delegatecall(\n            abi.encodeWithSignature( \n                \"PropBuyERC20(address,uint256,string,uint256)\",\n                _tokenInCLV,\n                _amountOutCLV,\n                _description,\n                _delayTime\n            )\n        );\n\n        assembly {\n            let ptr := mload(0x40)\n            let size := returndatasize()\n            returndatacopy(ptr, 0, size)\n            if iszero( successDGTCLL ) {\n                revert(ptr, size)\n            }\n            return(ptr, size)\n        }\n    }\n\n\n    /// @notice Vote for multiple proposal\n    /// @param _propId Array with ID of the proposal to votes\n    /// @param _support is the Vote (True or False) for all proposals\n    /// @param _justification Description of the vote\n    function bulkVote(\n        uint256[] memory _propId,\n        bool _support,\n        string memory _justification,\n        bytes memory _signature\n    )\n        external\n    {\n        address CLLGovernance = CCLFACTORY.CLLGovernance();\n        /// @custom:oz-upgrades-unsafe-allow delegatecall\n        (bool successDGTCLL, ) = CLLGovernance.delegatecall(\n            abi.encodeWithSignature( \n                \"bulkVote(uint256[],bool,string,bytes)\",\n                _propId,\n                _support,\n                _justification,\n                _signature\n            )\n        );\n\n        assembly {\n            let ptr := mload(0x40)\n            let size := returndatasize()\n            returndatacopy(ptr, 0, size)\n            if iszero( successDGTCLL ) {\n                revert(ptr, size)\n            }\n            return(ptr, size)\n        }\n    }\n\n    /// @notice Length of arrUsers array\n    function GetArrUsersLength() external view returns( uint256 ){\n        return arrUsers.length;\n    }\n\n    /// @notice Length of arrProposals array\n    function GetArrProposalsLength() external view returns( uint256 ){\n        return arrProposals.length;\n    }\n\n    /// @notice The list of all Proposals\n    /// @return arrProposals the array with all proposals\n    function GetProposalList() external view returns( strProposal[] memory ) {\n        return arrProposals;\n    }\n\n    /// @notice Get complete array of arrDataPropUser\n    /// @return arrDataPropUser the array with all data\n    function GetArrDataPropUser() external view returns( strDataUser[] memory ) {\n        return arrDataPropUser;\n    }\n}",
  "sourcePath": "contracts/CLHouse/CLHouse.sol",
  "type": "contract"
}