{
  "abi": [
    {
      "inputs": [
        {
          "internalType": "address",
          "name": "_houseAddr",
          "type": "address"
        }
      ],
      "name": "GetHouseProperties",
      "outputs": [
        {
          "internalType": "string",
          "name": "HOUSE_NAME",
          "type": "string"
        },
        {
          "internalType": "bytes32",
          "name": "HOUSE_GOVERNANCE_MODEL",
          "type": "bytes32"
        },
        {
          "internalType": "bool",
          "name": "housePrivate",
          "type": "bool"
        },
        {
          "internalType": "bool",
          "name": "houseOpen",
          "type": "bool"
        },
        {
          "internalType": "uint256",
          "name": "numUsers",
          "type": "uint256"
        },
        {
          "internalType": "uint256",
          "name": "numManagers",
          "type": "uint256"
        },
        {
          "internalType": "uint256",
          "name": "govRuleApprovPercentage",
          "type": "uint256"
        },
        {
          "internalType": "uint256",
          "name": "govRuleMaxUsers",
          "type": "uint256"
        },
        {
          "internalType": "uint256",
          "name": "govRuleMaxManagers",
          "type": "uint256"
        }
      ],
      "stateMutability": "view",
      "type": "function"
    },
    {
      "inputs": [
        {
          "internalType": "address",
          "name": "_houseAddr",
          "type": "address"
        }
      ],
      "name": "GetHouseUserList",
      "outputs": [
        {
          "components": [
            {
              "internalType": "address",
              "name": "walletAddr",
              "type": "address"
            },
            {
              "internalType": "string",
              "name": "name",
              "type": "string"
            },
            {
              "internalType": "uint256",
              "name": "balance",
              "type": "uint256"
            },
            {
              "internalType": "bool",
              "name": "isUser",
              "type": "bool"
            },
            {
              "internalType": "bool",
              "name": "isManager",
              "type": "bool"
            }
          ],
          "internalType": "struct strUser[]",
          "name": "arrUsers",
          "type": "tuple[]"
        }
      ],
      "stateMutability": "view",
      "type": "function"
    },
    {
      "inputs": [
        {
          "internalType": "address",
          "name": "_houseAddr",
          "type": "address"
        },
        {
          "internalType": "address",
          "name": "_walletAddr",
          "type": "address"
        }
      ],
      "name": "GetUserInfoByAddress",
      "outputs": [
        {
          "internalType": "string",
          "name": "name",
          "type": "string"
        },
        {
          "internalType": "uint256",
          "name": "balance",
          "type": "uint256"
        },
        {
          "internalType": "bool",
          "name": "isUser",
          "type": "bool"
        },
        {
          "internalType": "bool",
          "name": "isManager",
          "type": "bool"
        }
      ],
      "stateMutability": "view",
      "type": "function"
    },
    {
      "inputs": [
        {
          "internalType": "address",
          "name": "_walletAddr",
          "type": "address"
        },
        {
          "internalType": "string",
          "name": "_description",
          "type": "string"
        },
        {
          "internalType": "uint256",
          "name": "_delayTime",
          "type": "uint256"
        },
        {
          "internalType": "address",
          "name": "_houseAddr",
          "type": "address"
        },
        {
          "internalType": "bytes",
          "name": "_signature",
          "type": "bytes"
        }
      ],
      "name": "SignerOCDelUser",
      "outputs": [
        {
          "internalType": "address",
          "name": "",
          "type": "address"
        }
      ],
      "stateMutability": "view",
      "type": "function"
    },
    {
      "inputs": [
        {
          "internalType": "bool",
          "name": "_acceptance",
          "type": "bool"
        },
        {
          "internalType": "address",
          "name": "_houseAddr",
          "type": "address"
        },
        {
          "internalType": "bytes",
          "name": "_signature",
          "type": "bytes"
        }
      ],
      "name": "SignerOCInvit",
      "outputs": [
        {
          "internalType": "address",
          "name": "",
          "type": "address"
        }
      ],
      "stateMutability": "view",
      "type": "function"
    },
    {
      "inputs": [
        {
          "internalType": "string",
          "name": "_houseName",
          "type": "string"
        },
        {
          "internalType": "bool",
          "name": "_housePrivate",
          "type": "bool"
        },
        {
          "internalType": "bool",
          "name": "_houseOpen",
          "type": "bool"
        },
        {
          "internalType": "bytes32",
          "name": "_govModel",
          "type": "bytes32"
        },
        {
          "internalType": "uint256",
          "name": "_govRuleMaxUsers",
          "type": "uint256"
        },
        {
          "internalType": "uint256",
          "name": "_govRuleMaxManagers",
          "type": "uint256"
        },
        {
          "internalType": "uint256",
          "name": "_govRuleApprovPercentage",
          "type": "uint256"
        },
        {
          "internalType": "address",
          "name": "_whiteListWallets",
          "type": "address"
        },
        {
          "internalType": "address",
          "name": "_addrCLF",
          "type": "address"
        },
        {
          "internalType": "bytes",
          "name": "_signature",
          "type": "bytes"
        }
      ],
      "name": "SignerOCNewCLH",
      "outputs": [
        {
          "internalType": "address",
          "name": "",
          "type": "address"
        }
      ],
      "stateMutability": "view",
      "type": "function"
    },
    {
      "inputs": [
        {
          "internalType": "address",
          "name": "_walletAddr",
          "type": "address"
        },
        {
          "internalType": "string",
          "name": "_name",
          "type": "string"
        },
        {
          "internalType": "string",
          "name": "_description",
          "type": "string"
        },
        {
          "internalType": "bool",
          "name": "_isManager",
          "type": "bool"
        },
        {
          "internalType": "uint256",
          "name": "_delayTime",
          "type": "uint256"
        },
        {
          "internalType": "address",
          "name": "_houseAddr",
          "type": "address"
        },
        {
          "internalType": "bytes",
          "name": "_signature",
          "type": "bytes"
        }
      ],
      "name": "SignerOCNewUser",
      "outputs": [
        {
          "internalType": "address",
          "name": "",
          "type": "address"
        }
      ],
      "stateMutability": "view",
      "type": "function"
    },
    {
      "inputs": [
        {
          "internalType": "string",
          "name": "_name",
          "type": "string"
        },
        {
          "internalType": "string",
          "name": "_description",
          "type": "string"
        },
        {
          "internalType": "address",
          "name": "_houseAddr",
          "type": "address"
        },
        {
          "internalType": "bytes",
          "name": "_signature",
          "type": "bytes"
        }
      ],
      "name": "SignerOCRequest",
      "outputs": [
        {
          "internalType": "address",
          "name": "",
          "type": "address"
        }
      ],
      "stateMutability": "view",
      "type": "function"
    },
    {
      "inputs": [
        {
          "internalType": "uint256",
          "name": "_propId",
          "type": "uint256"
        },
        {
          "internalType": "bool",
          "name": "_support",
          "type": "bool"
        },
        {
          "internalType": "string",
          "name": "_justification",
          "type": "string"
        },
        {
          "internalType": "address",
          "name": "_houseAddr",
          "type": "address"
        },
        {
          "internalType": "bytes",
          "name": "_signature",
          "type": "bytes"
        }
      ],
      "name": "SignerOCVote",
      "outputs": [
        {
          "internalType": "address",
          "name": "",
          "type": "address"
        }
      ],
      "stateMutability": "view",
      "type": "function"
    },
    {
      "inputs": [
        {
          "internalType": "bytes32",
          "name": "_msghash",
          "type": "bytes32"
        },
        {
          "internalType": "bytes",
          "name": "_signature",
          "type": "bytes"
        }
      ],
      "name": "SignerOfMsg",
      "outputs": [
        {
          "internalType": "address",
          "name": "",
          "type": "address"
        }
      ],
      "stateMutability": "pure",
      "type": "function"
    }
  ],
  "bytecode": "608060405234801561001057600080fd5b50611da9806100206000396000f3fe608060405234801561001057600080fd5b506004361061009e5760003560e01c806389ab062a1161006657806389ab062a146101445780639f6fd7ab14610157578063b698be8d1461016a578063e78fc36b1461018a578063f240c7e91461019d57600080fd5b8063349dc296146100a3578063622eca77146100d35780637b3bb156146100e657806386abd826146100f95780638750bc3e1461011c575b600080fd5b6100b66100b1366004611517565b6101b0565b6040516001600160a01b0390911681526020015b60405180910390f35b6100b66100e13660046115ac565b61035a565b6100b66100f43660046115f3565b61041e565b61010c610107366004611690565b6105b5565b6040516100ca9493929190611725565b61012f61012a366004611756565b61077a565b6040516100ca9998979695949392919061177a565b6100b66101523660046117e7565b610b23565b6100b661016536600461184c565b610c57565b61017d610178366004611756565b610d7a565b6040516100ca91906118ae565b6100b6610198366004611952565b610fa7565b6100b66101ab366004611a21565b6111fc565b6000806040516020016101c290611aec565b60405160208183030381529060405280519060200120600080516020611d54833981519152600080516020611d34833981519152468760405160200161020c959493929190611b56565b604051602081830303815290604052805190602001209050600060405160200161028d907f7374724f4344656c5573657228616464726573732077616c6c6574416464722c81527f737472696e67206465736372697074696f6e2c75696e743235362064656c617960208201526454696d652960d81b604082015260450190565b6040516020818303038152906040528051906020012088886040516020016102b59190611b82565b60405160208183030381529060405280519060200120886040516020016102fe94939291909384526001600160a01b039290921660208401526040830152606082015260800190565b6040516020818303038152906040528051906020012090506000828260405160200161032b929190611b9e565b60405160208183030381529060405280519060200120905061034d818661035a565b9998505050505050505050565b600081516041146103a95760405162461bcd60e51b8152602060048201526014602482015273084c2c840e6d2cedcc2e8eae4ca40d8cadccee8d60631b60448201526064015b60405180910390fd5b602082810151604080850151606080870151835160008082529681018086528a9052951a928501839052840183905260808401819052919260019060a0016020604051602081039080840390855afa158015610409573d6000803e3d6000fd5b5050604051601f190151979650505050505050565b60008060405160200161043090611aec565b60405160208183030381529060405280519060200120600080516020611d54833981519152600080516020611d34833981519152468760405160200161047a959493929190611b56565b60405160208183030381529060405280519060200120905060006040516020016104dc907f7374724f435265717565737428737472696e67206e616d652c737472696e672081526b6465736372697074696f6e2960a01b6020820152602c0190565b60405160208183030381529060405280519060200120876040516020016105039190611b82565b604051602081830303815290604052805190602001208760405160200161052a9190611b82565b60408051601f19818403018152828252805160209182012090830194909452810191909152606081019190915260800160405160208183030381529060405280519060200120905060008282604051602001610587929190611b9e565b6040516020818303038152906040528051906020012090506105a9818661035a565b98975050505050505050565b604051631c3fe46360e21b81526001600160a01b03828116600483015260609160009182918291879183918316906370ff918c90602401602060405180830381865afa158015610609573d6000803e3d6000fd5b505050506040513d601f19601f8201168201806040525081019061062d9190611bb9565b9050806106725760405162461bcd60e51b815260206004820152601360248201527241646472657373206e6f74206578697374212160681b60448201526064016103a0565b61067a6113ee565b6040516308ad020760e21b8152600481018390526001600160a01b038416906322b4081c90602401600060405180830381865afa1580156106bf573d6000803e3d6000fd5b505050506040513d6000823e601f3d908101601f191682016040526106e79190810190611c1f565b15156080860152151560608501819052604085019190915260208401919091526001600160a01b0390911682526001146107535760405162461bcd60e51b815260206004820152600d60248201526c24b9903737ba1030903ab9b2b960991b60448201526064016103a0565b602081015160408201516060830151608090930151919b909a509198509650945050505050565b606060008060008060008060008060008a9050806001600160a01b03166359ca2d036040518163ffffffff1660e01b8152600401600060405180830381865afa1580156107cb573d6000803e3d6000fd5b505050506040513d6000823e601f3d908101601f191682016040526107f39190810190611ca2565b816001600160a01b0316631d5fd3ca6040518163ffffffff1660e01b8152600401602060405180830381865afa158015610831573d6000803e3d6000fd5b505050506040513d601f19601f820116820180604052508101906108559190611bb9565b826001600160a01b031663f00d62746040518163ffffffff1660e01b8152600401602060405180830381865afa158015610893573d6000803e3d6000fd5b505050506040513d601f19601f820116820180604052508101906108b79190611cd7565b836001600160a01b0316631f2e13396040518163ffffffff1660e01b8152600401602060405180830381865afa1580156108f5573d6000803e3d6000fd5b505050506040513d601f19601f820116820180604052508101906109199190611cd7565b846001600160a01b03166319a50f496040518163ffffffff1660e01b8152600401602060405180830381865afa158015610957573d6000803e3d6000fd5b505050506040513d601f19601f8201168201806040525081019061097b9190611bb9565b856001600160a01b031663e68777d76040518163ffffffff1660e01b8152600401602060405180830381865afa1580156109b9573d6000803e3d6000fd5b505050506040513d601f19601f820116820180604052508101906109dd9190611bb9565b866001600160a01b0316639c630a886040518163ffffffff1660e01b8152600401602060405180830381865afa158015610a1b573d6000803e3d6000fd5b505050506040513d601f19601f82011682018060405250810190610a3f9190611bb9565b876001600160a01b0316631343e9a56040518163ffffffff1660e01b8152600401602060405180830381865afa158015610a7d573d6000803e3d6000fd5b505050506040513d601f19601f82011682018060405250810190610aa19190611bb9565b886001600160a01b031663e810a58e6040518163ffffffff1660e01b8152600401602060405180830381865afa158015610adf573d6000803e3d6000fd5b505050506040513d601f19601f82011682018060405250810190610b039190611bb9565b995099509950995099509950995099509950509193959799909294969850565b600080604051602001610b3590611aec565b60405160208183030381529060405280519060200120600080516020611d54833981519152600080516020611d348339815191524687604051602001610b7f959493929190611b56565b6040516020818303038152906040528051906020012090506000604051602001610bf2907f7374724f43566f74652875696e743235362070726f7049642c626f6f6c20737581527f70706f72742c737472696e67206a757374696669636174696f6e2900000000006020820152603b0190565b60405160208183030381529060405280519060200120888888604051602001610c1b9190611b82565b60408051601f1981840301815282825280516020918201209083019590955281019290925215156060820152608081019190915260a0016102fe565b600080604051602001610c6990611aec565b60405160208183030381529060405280519060200120600080516020611d54833981519152600080516020611d348339815191524687604051602001610cb3959493929190611b56565b6040516020818303038152906040528051906020012090506000604051602001610d00907f7374724f43496e76697428626f6f6c20616363657074616e63652900000000008152601b0190565b60408051808303601f19018152828252805160209182012081840152881515838301528151808403830181526060840190925281519101209150600090610d4d9084908490608001611b9e565b604051602081830303815290604052805190602001209050610d6f818661035a565b979650505050505050565b606060008290506000816001600160a01b03166319a50f496040518163ffffffff1660e01b8152600401602060405180830381865afa158015610dc1573d6000803e3d6000fd5b505050506040513d601f19601f82011682018060405250810190610de59190611bb9565b90506000826001600160a01b031663a693649a6040518163ffffffff1660e01b8152600401602060405180830381865afa158015610e27573d6000803e3d6000fd5b505050506040513d601f19601f82011682018060405250810190610e4b9190611bb9565b905060008267ffffffffffffffff811115610e6857610e68611452565b604051908082528060200260200182016040528015610ea157816020015b610e8e6113ee565b815260200190600190039081610e865790505b509050600060015b83811015610f9b57610eb96113ee565b6040516308ad020760e21b8152600481018390526001600160a01b038816906322b4081c90602401600060405180830381865afa158015610efe573d6000803e3d6000fd5b505050506040513d6000823e601f3d908101601f19168201604052610f269190810190611c1f565b15156080860152151560608501819052604085019190915260208401919091526001600160a01b03909116825260011415610f885780848481518110610f6e57610f6e611cf4565b60200260200101819052508280610f8490611d0a565b9350505b5080610f9381611d0a565b915050610ea9565b50909695505050505050565b600080604051602001610fb990611aec565b60405160208183030381529060405280519060200120600080516020611d54833981519152600080516020611d348339815191524687604051602001611003959493929190611b56565b604051602081830303815290604052805190602001209050600060405160200161110e907f7374724f434e6577434c4828737472696e6720686f7573654e616d652c626f6f81527f6c20686f757365507269766174652c626f6f6c20686f7573654f70656e2c627960208201527f746573333220676f764d6f64656c2c75696e7432353620676f7652756c654d6160408201527f7855736572732c75696e7432353620676f7652756c654d61784d616e6167657260608201527f732c75696e7432353620676f7652756c65417070726f7650657263656e74616760808201527f652c616464726573732077686974654c69737457616c6c65747329000000000060a082015260bb0190565b604051602081830303815290604052805190602001208d6040516020016111359190611b82565b60408051601f198184030181528282528051602091820120908301939093528101919091528c151560608201528b1515608082015260a081018b905260c081018a905260e0810189905261010081018890526001600160a01b03871661012082015261014001604051602081830303815290604052805190602001209050600082826040516020016111c8929190611b9e565b6040516020818303038152906040528051906020012090506111ea818661035a565b9e9d5050505050505050505050505050565b60008060405160200161120e90611aec565b60405160208183030381529060405280519060200120600080516020611d54833981519152600080516020611d348339815191524687604051602001611258959493929190611b56565b60405160208183030381529060405280519060200120905060006040516020016112f1907f7374724f434e65775573657228616464726573732077616c6c6574416464722c81527f737472696e67206e616d652c737472696e67206465736372697074696f6e2c6260208201527f6f6f6c2069734d616e616765722c75696e743235362064656c617954696d6529604082015260600190565b604051602081830303815290604052805190602001208a8a6040516020016113199190611b82565b604051602081830303815290604052805190602001208a6040516020016113409190611b82565b60408051601f198184030181528282528051602091820120908301959095526001600160a01b03909316928101929092526060820152608081019190915287151560a082015260c0810187905260e001604051602081830303815290604052805190602001209050600082826040516020016113bd929190611b9e565b6040516020818303038152906040528051906020012090506113df818661035a565b9b9a5050505050505050505050565b6040518060a0016040528060006001600160a01b0316815260200160608152602001600081526020016000151581526020016000151581525090565b6001600160a01b038116811461143f57600080fd5b50565b803561144d8161142a565b919050565b634e487b7160e01b600052604160045260246000fd5b604051601f8201601f1916810167ffffffffffffffff8111828210171561149157611491611452565b604052919050565b600067ffffffffffffffff8211156114b3576114b3611452565b50601f01601f191660200190565b600082601f8301126114d257600080fd5b81356114e56114e082611499565b611468565b8181528460208386010111156114fa57600080fd5b816020850160208301376000918101602001919091529392505050565b600080600080600060a0868803121561152f57600080fd5b853561153a8161142a565b9450602086013567ffffffffffffffff8082111561155757600080fd5b61156389838a016114c1565b9550604088013594506060880135915061157c8261142a565b9092506080870135908082111561159257600080fd5b5061159f888289016114c1565b9150509295509295909350565b600080604083850312156115bf57600080fd5b82359150602083013567ffffffffffffffff8111156115dd57600080fd5b6115e9858286016114c1565b9150509250929050565b6000806000806080858703121561160957600080fd5b843567ffffffffffffffff8082111561162157600080fd5b61162d888389016114c1565b9550602087013591508082111561164357600080fd5b61164f888389016114c1565b9450604087013591506116618261142a565b9092506060860135908082111561167757600080fd5b50611684878288016114c1565b91505092959194509250565b600080604083850312156116a357600080fd5b82356116ae8161142a565b915060208301356116be8161142a565b809150509250929050565b60005b838110156116e45781810151838201526020016116cc565b838111156116f3576000848401525b50505050565b600081518084526117118160208601602086016116c9565b601f01601f19169290920160200192915050565b60808152600061173860808301876116f9565b60208301959095525091151560408301521515606090910152919050565b60006020828403121561176857600080fd5b81356117738161142a565b9392505050565b600061012080835261178e8184018d6116f9565b602084019b909b52505096151560408801529415156060870152608086019390935260a085019190915260c084015260e083015261010090910152919050565b801515811461143f57600080fd5b803561144d816117ce565b600080600080600060a086880312156117ff57600080fd5b853594506020860135611811816117ce565b9350604086013567ffffffffffffffff8082111561182e57600080fd5b61183a89838a016114c1565b94506060880135915061157c8261142a565b60008060006060848603121561186157600080fd5b833561186c816117ce565b9250602084013561187c8161142a565b9150604084013567ffffffffffffffff81111561189857600080fd5b6118a4868287016114c1565b9150509250925092565b60006020808301818452808551808352604092508286019150828160051b87010184880160005b8381101561194457888303603f19018552815180516001600160a01b031684528781015160a08986018190529061190e828701826116f9565b838a0151878b015260608085015115159088015260809384015115159390960192909252505093860193908601906001016118d5565b509098975050505050505050565b6000806000806000806000806000806101408b8d03121561197257600080fd5b8a3567ffffffffffffffff8082111561198a57600080fd5b6119968e838f016114c1565b9b506119a460208e016117dc565b9a506119b260408e016117dc565b995060608d0135985060808d0135975060a08d0135965060c08d013595506119dc60e08e01611442565b94506119eb6101008e01611442565b93506101208d0135915080821115611a0257600080fd5b50611a0f8d828e016114c1565b9150509295989b9194979a5092959850565b600080600080600080600060e0888a031215611a3c57600080fd5b8735611a478161142a565b9650602088013567ffffffffffffffff80821115611a6457600080fd5b611a708b838c016114c1565b975060408a0135915080821115611a8657600080fd5b611a928b838c016114c1565b965060608a01359150611aa4826117ce565b81955060808a01359450611aba60a08b01611442565b935060c08a0135915080821115611ad057600080fd5b50611add8a828b016114c1565b91505092959891949750929550565b7f454950373132446f6d61696e28737472696e67206e616d652c737472696e672081527f76657273696f6e2c75696e7432353620636861696e49642c6164647265737320602082015271766572696679696e67436f6e74726163742960701b604082015260520190565b9485526020850193909352604084019190915260608301526001600160a01b0316608082015260a00190565b60008251611b948184602087016116c9565b9190910192915050565b61190160f01b81526002810192909252602282015260420190565b600060208284031215611bcb57600080fd5b5051919050565b600082601f830112611be357600080fd5b8151611bf16114e082611499565b818152846020838601011115611c0657600080fd5b611c178260208301602087016116c9565b949350505050565b600080600080600060a08688031215611c3757600080fd5b8551611c428161142a565b602087015190955067ffffffffffffffff811115611c5f57600080fd5b611c6b88828901611bd2565b945050604086015192506060860151611c83816117ce565b6080870151909250611c94816117ce565b809150509295509295909350565b600060208284031215611cb457600080fd5b815167ffffffffffffffff811115611ccb57600080fd5b611c1784828501611bd2565b600060208284031215611ce957600080fd5b8151611773816117ce565b634e487b7160e01b600052603260045260246000fd5b6000600019821415611d2c57634e487b7160e01b600052601160045260246000fd5b506001019056feaa7cdbe2cce2ec7b606b0e199ddd9b264a6e645e767fb8479a7917dcd1b8693f01318895af1f6db161b2ba745b8e57a6b46efad77d736630379ec69c3cd4c875a26469706673582212207a4ef104a53a68d7f5417bc0854a78d65a6ba13f97befc99da173e61ffb577ce64736f6c634300080c0033",
  "bytecodeSha1": "21856a028f69152eb443b263ee9b59284856d133",
  "compiler": {
    "evm_version": "istanbul",
    "optimizer": {
      "enabled": true,
      "runs": 200
    },
    "version": "0.8.12+commit.f00d7308"
  },
  "contractName": "CLHouseApi",
  "language": "Solidity",
  "natspec": {
    "author": "Leonardo Urrego",
    "kind": "dev",
    "methods": {
      "GetHouseProperties(address)": {
        "notice": "All properties of a House",
        "params": {
          "_houseAddr": "CLH address"
        },
        "returns": {
          "HOUSE_GOVERNANCE_MODEL": "Hash of governance model",
          "HOUSE_NAME": "name of the CLH",
          "govRuleApprovPercentage": "Percentage for approval o reject proposal based on `numManagers`",
          "govRuleMaxManagers": "Max of managers that CLH can accept (only for COMMITTEE )",
          "govRuleMaxUsers": "Max of all users (including managers)",
          "houseOpen": "True if is Open",
          "housePrivate": "True if is private",
          "numManagers": "Current managers of a CLH",
          "numUsers": "Current users of a CLH"
        }
      },
      "GetHouseUserList(address)": {
        "notice": "The list of all users address",
        "params": {
          "_houseAddr": "address of the CLH"
        },
        "returns": {
          "arrUsers": "array with list of users"
        }
      },
      "GetUserInfoByAddress(address,address)": {
        "notice": "Get the info of an user in one especific CLH",
        "params": {
          "_houseAddr": "Address of the CLH",
          "_walletAddr": "Address of the user"
        },
        "returns": {
          "balance": "How much money have deposited",
          "isManager": "true if is manager",
          "isUser": "true if is User",
          "name": "Nickname ot other user identificaction"
        }
      },
      "SignerOfMsg(bytes32,bytes)": {
        "notice": "A funtion to verify the signer of a menssage",
        "params": {
          "_msghash": "Hash of the message",
          "_signature": "Signature of the message"
        },
        "returns": {
          "_0": "Signer address of the message"
        }
      }
    },
    "notice": "This contract is only for test ",
    "title": "Some funtions to interact with a CLHouse",
    "version": 1
  },
  "opcodes": "PUSH1 0x80 PUSH1 0x40 MSTORE CALLVALUE DUP1 ISZERO PUSH2 0x10 JUMPI PUSH1 0x0 DUP1 REVERT JUMPDEST POP PUSH1 0x4 CALLDATASIZE LT PUSH2 0x9E JUMPI PUSH1 0x0 CALLDATALOAD PUSH1 0xE0 SHR DUP1 PUSH4 0x89AB062A GT PUSH2 0x66 JUMPI DUP1 PUSH4 0x89AB062A EQ PUSH2 0x144 JUMPI DUP1 PUSH4 0x9F6FD7AB EQ PUSH2 0x157 JUMPI DUP1 PUSH4 0xB698BE8D EQ PUSH2 0x16A JUMPI DUP1 PUSH4 0xE78FC36B EQ PUSH2 0x18A JUMPI DUP1 PUSH4 0xF240C7E9 EQ PUSH2 0x19D JUMPI PUSH1 0x0 DUP1 REVERT JUMPDEST DUP1 PUSH4 0x349DC296 EQ PUSH2 0xA3 JUMPI DUP1 PUSH4 0x622ECA77 EQ PUSH2 0xD3 JUMPI DUP1 PUSH4 0x7B3BB156 EQ PUSH2 0xE6 JUMPI DUP1 PUSH4 0x86ABD826 EQ PUSH2 0xF9 JUMPI DUP1 PUSH4 0x8750BC3E EQ PUSH2 0x11C JUMPI JUMPDEST PUSH1 0x0 DUP1 REVERT JUMPDEST PUSH2 0xB6 PUSH2 0xB1 CALLDATASIZE PUSH1 0x4 PUSH2 0x1517 JUMP JUMPDEST PUSH2 0x1B0 JUMP JUMPDEST PUSH1 0x40 MLOAD PUSH1 0x1 PUSH1 0x1 PUSH1 0xA0 SHL SUB SWAP1 SWAP2 AND DUP2 MSTORE PUSH1 0x20 ADD JUMPDEST PUSH1 0x40 MLOAD DUP1 SWAP2 SUB SWAP1 RETURN JUMPDEST PUSH2 0xB6 PUSH2 0xE1 CALLDATASIZE PUSH1 0x4 PUSH2 0x15AC JUMP JUMPDEST PUSH2 0x35A JUMP JUMPDEST PUSH2 0xB6 PUSH2 0xF4 CALLDATASIZE PUSH1 0x4 PUSH2 0x15F3 JUMP JUMPDEST PUSH2 0x41E JUMP JUMPDEST PUSH2 0x10C PUSH2 0x107 CALLDATASIZE PUSH1 0x4 PUSH2 0x1690 JUMP JUMPDEST PUSH2 0x5B5 JUMP JUMPDEST PUSH1 0x40 MLOAD PUSH2 0xCA SWAP5 SWAP4 SWAP3 SWAP2 SWAP1 PUSH2 0x1725 JUMP JUMPDEST PUSH2 0x12F PUSH2 0x12A CALLDATASIZE PUSH1 0x4 PUSH2 0x1756 JUMP JUMPDEST PUSH2 0x77A JUMP JUMPDEST PUSH1 0x40 MLOAD PUSH2 0xCA SWAP10 SWAP9 SWAP8 SWAP7 SWAP6 SWAP5 SWAP4 SWAP3 SWAP2 SWAP1 PUSH2 0x177A JUMP JUMPDEST PUSH2 0xB6 PUSH2 0x152 CALLDATASIZE PUSH1 0x4 PUSH2 0x17E7 JUMP JUMPDEST PUSH2 0xB23 JUMP JUMPDEST PUSH2 0xB6 PUSH2 0x165 CALLDATASIZE PUSH1 0x4 PUSH2 0x184C JUMP JUMPDEST PUSH2 0xC57 JUMP JUMPDEST PUSH2 0x17D PUSH2 0x178 CALLDATASIZE PUSH1 0x4 PUSH2 0x1756 JUMP JUMPDEST PUSH2 0xD7A JUMP JUMPDEST PUSH1 0x40 MLOAD PUSH2 0xCA SWAP2 SWAP1 PUSH2 0x18AE JUMP JUMPDEST PUSH2 0xB6 PUSH2 0x198 CALLDATASIZE PUSH1 0x4 PUSH2 0x1952 JUMP JUMPDEST PUSH2 0xFA7 JUMP JUMPDEST PUSH2 0xB6 PUSH2 0x1AB CALLDATASIZE PUSH1 0x4 PUSH2 0x1A21 JUMP JUMPDEST PUSH2 0x11FC JUMP JUMPDEST PUSH1 0x0 DUP1 PUSH1 0x40 MLOAD PUSH1 0x20 ADD PUSH2 0x1C2 SWAP1 PUSH2 0x1AEC JUMP JUMPDEST PUSH1 0x40 MLOAD PUSH1 0x20 DUP2 DUP4 SUB SUB DUP2 MSTORE SWAP1 PUSH1 0x40 MSTORE DUP1 MLOAD SWAP1 PUSH1 0x20 ADD KECCAK256 PUSH1 0x0 DUP1 MLOAD PUSH1 0x20 PUSH2 0x1D54 DUP4 CODECOPY DUP2 MLOAD SWAP2 MSTORE PUSH1 0x0 DUP1 MLOAD PUSH1 0x20 PUSH2 0x1D34 DUP4 CODECOPY DUP2 MLOAD SWAP2 MSTORE CHAINID DUP8 PUSH1 0x40 MLOAD PUSH1 0x20 ADD PUSH2 0x20C SWAP6 SWAP5 SWAP4 SWAP3 SWAP2 SWAP1 PUSH2 0x1B56 JUMP JUMPDEST PUSH1 0x40 MLOAD PUSH1 0x20 DUP2 DUP4 SUB SUB DUP2 MSTORE SWAP1 PUSH1 0x40 MSTORE DUP1 MLOAD SWAP1 PUSH1 0x20 ADD KECCAK256 SWAP1 POP PUSH1 0x0 PUSH1 0x40 MLOAD PUSH1 0x20 ADD PUSH2 0x28D SWAP1 PUSH32 0x7374724F4344656C5573657228616464726573732077616C6C6574416464722C DUP2 MSTORE PUSH32 0x737472696E67206465736372697074696F6E2C75696E743235362064656C6179 PUSH1 0x20 DUP3 ADD MSTORE PUSH5 0x54696D6529 PUSH1 0xD8 SHL PUSH1 0x40 DUP3 ADD MSTORE PUSH1 0x45 ADD SWAP1 JUMP JUMPDEST PUSH1 0x40 MLOAD PUSH1 0x20 DUP2 DUP4 SUB SUB DUP2 MSTORE SWAP1 PUSH1 0x40 MSTORE DUP1 MLOAD SWAP1 PUSH1 0x20 ADD KECCAK256 DUP9 DUP9 PUSH1 0x40 MLOAD PUSH1 0x20 ADD PUSH2 0x2B5 SWAP2 SWAP1 PUSH2 0x1B82 JUMP JUMPDEST PUSH1 0x40 MLOAD PUSH1 0x20 DUP2 DUP4 SUB SUB DUP2 MSTORE SWAP1 PUSH1 0x40 MSTORE DUP1 MLOAD SWAP1 PUSH1 0x20 ADD KECCAK256 DUP9 PUSH1 0x40 MLOAD PUSH1 0x20 ADD PUSH2 0x2FE SWAP5 SWAP4 SWAP3 SWAP2 SWAP1 SWAP4 DUP5 MSTORE PUSH1 0x1 PUSH1 0x1 PUSH1 0xA0 SHL SUB SWAP3 SWAP1 SWAP3 AND PUSH1 0x20 DUP5 ADD MSTORE PUSH1 0x40 DUP4 ADD MSTORE PUSH1 0x60 DUP3 ADD MSTORE PUSH1 0x80 ADD SWAP1 JUMP JUMPDEST PUSH1 0x40 MLOAD PUSH1 0x20 DUP2 DUP4 SUB SUB DUP2 MSTORE SWAP1 PUSH1 0x40 MSTORE DUP1 MLOAD SWAP1 PUSH1 0x20 ADD KECCAK256 SWAP1 POP PUSH1 0x0 DUP3 DUP3 PUSH1 0x40 MLOAD PUSH1 0x20 ADD PUSH2 0x32B SWAP3 SWAP2 SWAP1 PUSH2 0x1B9E JUMP JUMPDEST PUSH1 0x40 MLOAD PUSH1 0x20 DUP2 DUP4 SUB SUB DUP2 MSTORE SWAP1 PUSH1 0x40 MSTORE DUP1 MLOAD SWAP1 PUSH1 0x20 ADD KECCAK256 SWAP1 POP PUSH2 0x34D DUP2 DUP7 PUSH2 0x35A JUMP JUMPDEST SWAP10 SWAP9 POP POP POP POP POP POP POP POP POP JUMP JUMPDEST PUSH1 0x0 DUP2 MLOAD PUSH1 0x41 EQ PUSH2 0x3A9 JUMPI PUSH1 0x40 MLOAD PUSH3 0x461BCD PUSH1 0xE5 SHL DUP2 MSTORE PUSH1 0x20 PUSH1 0x4 DUP3 ADD MSTORE PUSH1 0x14 PUSH1 0x24 DUP3 ADD MSTORE PUSH20 0x84C2C840E6D2CEDCC2E8EAE4CA40D8CADCCEE8D PUSH1 0x63 SHL PUSH1 0x44 DUP3 ADD MSTORE PUSH1 0x64 ADD JUMPDEST PUSH1 0x40 MLOAD DUP1 SWAP2 SUB SWAP1 REVERT JUMPDEST PUSH1 0x20 DUP3 DUP2 ADD MLOAD PUSH1 0x40 DUP1 DUP6 ADD MLOAD PUSH1 0x60 DUP1 DUP8 ADD MLOAD DUP4 MLOAD PUSH1 0x0 DUP1 DUP3 MSTORE SWAP7 DUP2 ADD DUP1 DUP7 MSTORE DUP11 SWAP1 MSTORE SWAP6 BYTE SWAP3 DUP6 ADD DUP4 SWAP1 MSTORE DUP5 ADD DUP4 SWAP1 MSTORE PUSH1 0x80 DUP5 ADD DUP2 SWAP1 MSTORE SWAP2 SWAP3 PUSH1 0x1 SWAP1 PUSH1 0xA0 ADD PUSH1 0x20 PUSH1 0x40 MLOAD PUSH1 0x20 DUP2 SUB SWAP1 DUP1 DUP5 SUB SWAP1 DUP6 GAS STATICCALL ISZERO DUP1 ISZERO PUSH2 0x409 JUMPI RETURNDATASIZE PUSH1 0x0 DUP1 RETURNDATACOPY RETURNDATASIZE PUSH1 0x0 REVERT JUMPDEST POP POP PUSH1 0x40 MLOAD PUSH1 0x1F NOT ADD MLOAD SWAP8 SWAP7 POP POP POP POP POP POP POP JUMP JUMPDEST PUSH1 0x0 DUP1 PUSH1 0x40 MLOAD PUSH1 0x20 ADD PUSH2 0x430 SWAP1 PUSH2 0x1AEC JUMP JUMPDEST PUSH1 0x40 MLOAD PUSH1 0x20 DUP2 DUP4 SUB SUB DUP2 MSTORE SWAP1 PUSH1 0x40 MSTORE DUP1 MLOAD SWAP1 PUSH1 0x20 ADD KECCAK256 PUSH1 0x0 DUP1 MLOAD PUSH1 0x20 PUSH2 0x1D54 DUP4 CODECOPY DUP2 MLOAD SWAP2 MSTORE PUSH1 0x0 DUP1 MLOAD PUSH1 0x20 PUSH2 0x1D34 DUP4 CODECOPY DUP2 MLOAD SWAP2 MSTORE CHAINID DUP8 PUSH1 0x40 MLOAD PUSH1 0x20 ADD PUSH2 0x47A SWAP6 SWAP5 SWAP4 SWAP3 SWAP2 SWAP1 PUSH2 0x1B56 JUMP JUMPDEST PUSH1 0x40 MLOAD PUSH1 0x20 DUP2 DUP4 SUB SUB DUP2 MSTORE SWAP1 PUSH1 0x40 MSTORE DUP1 MLOAD SWAP1 PUSH1 0x20 ADD KECCAK256 SWAP1 POP PUSH1 0x0 PUSH1 0x40 MLOAD PUSH1 0x20 ADD PUSH2 0x4DC SWAP1 PUSH32 0x7374724F435265717565737428737472696E67206E616D652C737472696E6720 DUP2 MSTORE PUSH12 0x6465736372697074696F6E29 PUSH1 0xA0 SHL PUSH1 0x20 DUP3 ADD MSTORE PUSH1 0x2C ADD SWAP1 JUMP JUMPDEST PUSH1 0x40 MLOAD PUSH1 0x20 DUP2 DUP4 SUB SUB DUP2 MSTORE SWAP1 PUSH1 0x40 MSTORE DUP1 MLOAD SWAP1 PUSH1 0x20 ADD KECCAK256 DUP8 PUSH1 0x40 MLOAD PUSH1 0x20 ADD PUSH2 0x503 SWAP2 SWAP1 PUSH2 0x1B82 JUMP JUMPDEST PUSH1 0x40 MLOAD PUSH1 0x20 DUP2 DUP4 SUB SUB DUP2 MSTORE SWAP1 PUSH1 0x40 MSTORE DUP1 MLOAD SWAP1 PUSH1 0x20 ADD KECCAK256 DUP8 PUSH1 0x40 MLOAD PUSH1 0x20 ADD PUSH2 0x52A SWAP2 SWAP1 PUSH2 0x1B82 JUMP JUMPDEST PUSH1 0x40 DUP1 MLOAD PUSH1 0x1F NOT DUP2 DUP5 SUB ADD DUP2 MSTORE DUP3 DUP3 MSTORE DUP1 MLOAD PUSH1 0x20 SWAP2 DUP3 ADD KECCAK256 SWAP1 DUP4 ADD SWAP5 SWAP1 SWAP5 MSTORE DUP2 ADD SWAP2 SWAP1 SWAP2 MSTORE PUSH1 0x60 DUP2 ADD SWAP2 SWAP1 SWAP2 MSTORE PUSH1 0x80 ADD PUSH1 0x40 MLOAD PUSH1 0x20 DUP2 DUP4 SUB SUB DUP2 MSTORE SWAP1 PUSH1 0x40 MSTORE DUP1 MLOAD SWAP1 PUSH1 0x20 ADD KECCAK256 SWAP1 POP PUSH1 0x0 DUP3 DUP3 PUSH1 0x40 MLOAD PUSH1 0x20 ADD PUSH2 0x587 SWAP3 SWAP2 SWAP1 PUSH2 0x1B9E JUMP JUMPDEST PUSH1 0x40 MLOAD PUSH1 0x20 DUP2 DUP4 SUB SUB DUP2 MSTORE SWAP1 PUSH1 0x40 MSTORE DUP1 MLOAD SWAP1 PUSH1 0x20 ADD KECCAK256 SWAP1 POP PUSH2 0x5A9 DUP2 DUP7 PUSH2 0x35A JUMP JUMPDEST SWAP9 SWAP8 POP POP POP POP POP POP POP POP JUMP JUMPDEST PUSH1 0x40 MLOAD PUSH4 0x1C3FE463 PUSH1 0xE2 SHL DUP2 MSTORE PUSH1 0x1 PUSH1 0x1 PUSH1 0xA0 SHL SUB DUP3 DUP2 AND PUSH1 0x4 DUP4 ADD MSTORE PUSH1 0x60 SWAP2 PUSH1 0x0 SWAP2 DUP3 SWAP2 DUP3 SWAP2 DUP8 SWAP2 DUP4 SWAP2 DUP4 AND SWAP1 PUSH4 0x70FF918C SWAP1 PUSH1 0x24 ADD PUSH1 0x20 PUSH1 0x40 MLOAD DUP1 DUP4 SUB DUP2 DUP7 GAS STATICCALL ISZERO DUP1 ISZERO PUSH2 0x609 JUMPI RETURNDATASIZE PUSH1 0x0 DUP1 RETURNDATACOPY RETURNDATASIZE PUSH1 0x0 REVERT JUMPDEST POP POP POP POP PUSH1 0x40 MLOAD RETURNDATASIZE PUSH1 0x1F NOT PUSH1 0x1F DUP3 ADD AND DUP3 ADD DUP1 PUSH1 0x40 MSTORE POP DUP2 ADD SWAP1 PUSH2 0x62D SWAP2 SWAP1 PUSH2 0x1BB9 JUMP JUMPDEST SWAP1 POP DUP1 PUSH2 0x672 JUMPI PUSH1 0x40 MLOAD PUSH3 0x461BCD PUSH1 0xE5 SHL DUP2 MSTORE PUSH1 0x20 PUSH1 0x4 DUP3 ADD MSTORE PUSH1 0x13 PUSH1 0x24 DUP3 ADD MSTORE PUSH19 0x41646472657373206E6F742065786973742121 PUSH1 0x68 SHL PUSH1 0x44 DUP3 ADD MSTORE PUSH1 0x64 ADD PUSH2 0x3A0 JUMP JUMPDEST PUSH2 0x67A PUSH2 0x13EE JUMP JUMPDEST PUSH1 0x40 MLOAD PUSH4 0x8AD0207 PUSH1 0xE2 SHL DUP2 MSTORE PUSH1 0x4 DUP2 ADD DUP4 SWAP1 MSTORE PUSH1 0x1 PUSH1 0x1 PUSH1 0xA0 SHL SUB DUP5 AND SWAP1 PUSH4 0x22B4081C SWAP1 PUSH1 0x24 ADD PUSH1 0x0 PUSH1 0x40 MLOAD DUP1 DUP4 SUB DUP2 DUP7 GAS STATICCALL ISZERO DUP1 ISZERO PUSH2 0x6BF JUMPI RETURNDATASIZE PUSH1 0x0 DUP1 RETURNDATACOPY RETURNDATASIZE PUSH1 0x0 REVERT JUMPDEST POP POP POP POP PUSH1 0x40 MLOAD RETURNDATASIZE PUSH1 0x0 DUP3 RETURNDATACOPY PUSH1 0x1F RETURNDATASIZE SWAP1 DUP2 ADD PUSH1 0x1F NOT AND DUP3 ADD PUSH1 0x40 MSTORE PUSH2 0x6E7 SWAP2 SWAP1 DUP2 ADD SWAP1 PUSH2 0x1C1F JUMP JUMPDEST ISZERO ISZERO PUSH1 0x80 DUP7 ADD MSTORE ISZERO ISZERO PUSH1 0x60 DUP6 ADD DUP2 SWAP1 MSTORE PUSH1 0x40 DUP6 ADD SWAP2 SWAP1 SWAP2 MSTORE PUSH1 0x20 DUP5 ADD SWAP2 SWAP1 SWAP2 MSTORE PUSH1 0x1 PUSH1 0x1 PUSH1 0xA0 SHL SUB SWAP1 SWAP2 AND DUP3 MSTORE PUSH1 0x1 EQ PUSH2 0x753 JUMPI PUSH1 0x40 MLOAD PUSH3 0x461BCD PUSH1 0xE5 SHL DUP2 MSTORE PUSH1 0x20 PUSH1 0x4 DUP3 ADD MSTORE PUSH1 0xD PUSH1 0x24 DUP3 ADD MSTORE PUSH13 0x24B9903737BA1030903AB9B2B9 PUSH1 0x99 SHL PUSH1 0x44 DUP3 ADD MSTORE PUSH1 0x64 ADD PUSH2 0x3A0 JUMP JUMPDEST PUSH1 0x20 DUP2 ADD MLOAD PUSH1 0x40 DUP3 ADD MLOAD PUSH1 0x60 DUP4 ADD MLOAD PUSH1 0x80 SWAP1 SWAP4 ADD MLOAD SWAP2 SWAP12 SWAP1 SWAP11 POP SWAP2 SWAP9 POP SWAP7 POP SWAP5 POP POP POP POP POP JUMP JUMPDEST PUSH1 0x60 PUSH1 0x0 DUP1 PUSH1 0x0 DUP1 PUSH1 0x0 DUP1 PUSH1 0x0 DUP1 PUSH1 0x0 DUP11 SWAP1 POP DUP1 PUSH1 0x1 PUSH1 0x1 PUSH1 0xA0 SHL SUB AND PUSH4 0x59CA2D03 PUSH1 0x40 MLOAD DUP2 PUSH4 0xFFFFFFFF AND PUSH1 0xE0 SHL DUP2 MSTORE PUSH1 0x4 ADD PUSH1 0x0 PUSH1 0x40 MLOAD DUP1 DUP4 SUB DUP2 DUP7 GAS STATICCALL ISZERO DUP1 ISZERO PUSH2 0x7CB JUMPI RETURNDATASIZE PUSH1 0x0 DUP1 RETURNDATACOPY RETURNDATASIZE PUSH1 0x0 REVERT JUMPDEST POP POP POP POP PUSH1 0x40 MLOAD RETURNDATASIZE PUSH1 0x0 DUP3 RETURNDATACOPY PUSH1 0x1F RETURNDATASIZE SWAP1 DUP2 ADD PUSH1 0x1F NOT AND DUP3 ADD PUSH1 0x40 MSTORE PUSH2 0x7F3 SWAP2 SWAP1 DUP2 ADD SWAP1 PUSH2 0x1CA2 JUMP JUMPDEST DUP2 PUSH1 0x1 PUSH1 0x1 PUSH1 0xA0 SHL SUB AND PUSH4 0x1D5FD3CA PUSH1 0x40 MLOAD DUP2 PUSH4 0xFFFFFFFF AND PUSH1 0xE0 SHL DUP2 MSTORE PUSH1 0x4 ADD PUSH1 0x20 PUSH1 0x40 MLOAD DUP1 DUP4 SUB DUP2 DUP7 GAS STATICCALL ISZERO DUP1 ISZERO PUSH2 0x831 JUMPI RETURNDATASIZE PUSH1 0x0 DUP1 RETURNDATACOPY RETURNDATASIZE PUSH1 0x0 REVERT JUMPDEST POP POP POP POP PUSH1 0x40 MLOAD RETURNDATASIZE PUSH1 0x1F NOT PUSH1 0x1F DUP3 ADD AND DUP3 ADD DUP1 PUSH1 0x40 MSTORE POP DUP2 ADD SWAP1 PUSH2 0x855 SWAP2 SWAP1 PUSH2 0x1BB9 JUMP JUMPDEST DUP3 PUSH1 0x1 PUSH1 0x1 PUSH1 0xA0 SHL SUB AND PUSH4 0xF00D6274 PUSH1 0x40 MLOAD DUP2 PUSH4 0xFFFFFFFF AND PUSH1 0xE0 SHL DUP2 MSTORE PUSH1 0x4 ADD PUSH1 0x20 PUSH1 0x40 MLOAD DUP1 DUP4 SUB DUP2 DUP7 GAS STATICCALL ISZERO DUP1 ISZERO PUSH2 0x893 JUMPI RETURNDATASIZE PUSH1 0x0 DUP1 RETURNDATACOPY RETURNDATASIZE PUSH1 0x0 REVERT JUMPDEST POP POP POP POP PUSH1 0x40 MLOAD RETURNDATASIZE PUSH1 0x1F NOT PUSH1 0x1F DUP3 ADD AND DUP3 ADD DUP1 PUSH1 0x40 MSTORE POP DUP2 ADD SWAP1 PUSH2 0x8B7 SWAP2 SWAP1 PUSH2 0x1CD7 JUMP JUMPDEST DUP4 PUSH1 0x1 PUSH1 0x1 PUSH1 0xA0 SHL SUB AND PUSH4 0x1F2E1339 PUSH1 0x40 MLOAD DUP2 PUSH4 0xFFFFFFFF AND PUSH1 0xE0 SHL DUP2 MSTORE PUSH1 0x4 ADD PUSH1 0x20 PUSH1 0x40 MLOAD DUP1 DUP4 SUB DUP2 DUP7 GAS STATICCALL ISZERO DUP1 ISZERO PUSH2 0x8F5 JUMPI RETURNDATASIZE PUSH1 0x0 DUP1 RETURNDATACOPY RETURNDATASIZE PUSH1 0x0 REVERT JUMPDEST POP POP POP POP PUSH1 0x40 MLOAD RETURNDATASIZE PUSH1 0x1F NOT PUSH1 0x1F DUP3 ADD AND DUP3 ADD DUP1 PUSH1 0x40 MSTORE POP DUP2 ADD SWAP1 PUSH2 0x919 SWAP2 SWAP1 PUSH2 0x1CD7 JUMP JUMPDEST DUP5 PUSH1 0x1 PUSH1 0x1 PUSH1 0xA0 SHL SUB AND PUSH4 0x19A50F49 PUSH1 0x40 MLOAD DUP2 PUSH4 0xFFFFFFFF AND PUSH1 0xE0 SHL DUP2 MSTORE PUSH1 0x4 ADD PUSH1 0x20 PUSH1 0x40 MLOAD DUP1 DUP4 SUB DUP2 DUP7 GAS STATICCALL ISZERO DUP1 ISZERO PUSH2 0x957 JUMPI RETURNDATASIZE PUSH1 0x0 DUP1 RETURNDATACOPY RETURNDATASIZE PUSH1 0x0 REVERT JUMPDEST POP POP POP POP PUSH1 0x40 MLOAD RETURNDATASIZE PUSH1 0x1F NOT PUSH1 0x1F DUP3 ADD AND DUP3 ADD DUP1 PUSH1 0x40 MSTORE POP DUP2 ADD SWAP1 PUSH2 0x97B SWAP2 SWAP1 PUSH2 0x1BB9 JUMP JUMPDEST DUP6 PUSH1 0x1 PUSH1 0x1 PUSH1 0xA0 SHL SUB AND PUSH4 0xE68777D7 PUSH1 0x40 MLOAD DUP2 PUSH4 0xFFFFFFFF AND PUSH1 0xE0 SHL DUP2 MSTORE PUSH1 0x4 ADD PUSH1 0x20 PUSH1 0x40 MLOAD DUP1 DUP4 SUB DUP2 DUP7 GAS STATICCALL ISZERO DUP1 ISZERO PUSH2 0x9B9 JUMPI RETURNDATASIZE PUSH1 0x0 DUP1 RETURNDATACOPY RETURNDATASIZE PUSH1 0x0 REVERT JUMPDEST POP POP POP POP PUSH1 0x40 MLOAD RETURNDATASIZE PUSH1 0x1F NOT PUSH1 0x1F DUP3 ADD AND DUP3 ADD DUP1 PUSH1 0x40 MSTORE POP DUP2 ADD SWAP1 PUSH2 0x9DD SWAP2 SWAP1 PUSH2 0x1BB9 JUMP JUMPDEST DUP7 PUSH1 0x1 PUSH1 0x1 PUSH1 0xA0 SHL SUB AND PUSH4 0x9C630A88 PUSH1 0x40 MLOAD DUP2 PUSH4 0xFFFFFFFF AND PUSH1 0xE0 SHL DUP2 MSTORE PUSH1 0x4 ADD PUSH1 0x20 PUSH1 0x40 MLOAD DUP1 DUP4 SUB DUP2 DUP7 GAS STATICCALL ISZERO DUP1 ISZERO PUSH2 0xA1B JUMPI RETURNDATASIZE PUSH1 0x0 DUP1 RETURNDATACOPY RETURNDATASIZE PUSH1 0x0 REVERT JUMPDEST POP POP POP POP PUSH1 0x40 MLOAD RETURNDATASIZE PUSH1 0x1F NOT PUSH1 0x1F DUP3 ADD AND DUP3 ADD DUP1 PUSH1 0x40 MSTORE POP DUP2 ADD SWAP1 PUSH2 0xA3F SWAP2 SWAP1 PUSH2 0x1BB9 JUMP JUMPDEST DUP8 PUSH1 0x1 PUSH1 0x1 PUSH1 0xA0 SHL SUB AND PUSH4 0x1343E9A5 PUSH1 0x40 MLOAD DUP2 PUSH4 0xFFFFFFFF AND PUSH1 0xE0 SHL DUP2 MSTORE PUSH1 0x4 ADD PUSH1 0x20 PUSH1 0x40 MLOAD DUP1 DUP4 SUB DUP2 DUP7 GAS STATICCALL ISZERO DUP1 ISZERO PUSH2 0xA7D JUMPI RETURNDATASIZE PUSH1 0x0 DUP1 RETURNDATACOPY RETURNDATASIZE PUSH1 0x0 REVERT JUMPDEST POP POP POP POP PUSH1 0x40 MLOAD RETURNDATASIZE PUSH1 0x1F NOT PUSH1 0x1F DUP3 ADD AND DUP3 ADD DUP1 PUSH1 0x40 MSTORE POP DUP2 ADD SWAP1 PUSH2 0xAA1 SWAP2 SWAP1 PUSH2 0x1BB9 JUMP JUMPDEST DUP9 PUSH1 0x1 PUSH1 0x1 PUSH1 0xA0 SHL SUB AND PUSH4 0xE810A58E PUSH1 0x40 MLOAD DUP2 PUSH4 0xFFFFFFFF AND PUSH1 0xE0 SHL DUP2 MSTORE PUSH1 0x4 ADD PUSH1 0x20 PUSH1 0x40 MLOAD DUP1 DUP4 SUB DUP2 DUP7 GAS STATICCALL ISZERO DUP1 ISZERO PUSH2 0xADF JUMPI RETURNDATASIZE PUSH1 0x0 DUP1 RETURNDATACOPY RETURNDATASIZE PUSH1 0x0 REVERT JUMPDEST POP POP POP POP PUSH1 0x40 MLOAD RETURNDATASIZE PUSH1 0x1F NOT PUSH1 0x1F DUP3 ADD AND DUP3 ADD DUP1 PUSH1 0x40 MSTORE POP DUP2 ADD SWAP1 PUSH2 0xB03 SWAP2 SWAP1 PUSH2 0x1BB9 JUMP JUMPDEST SWAP10 POP SWAP10 POP SWAP10 POP SWAP10 POP SWAP10 POP SWAP10 POP SWAP10 POP SWAP10 POP SWAP10 POP POP SWAP2 SWAP4 SWAP6 SWAP8 SWAP10 SWAP1 SWAP3 SWAP5 SWAP7 SWAP9 POP JUMP JUMPDEST PUSH1 0x0 DUP1 PUSH1 0x40 MLOAD PUSH1 0x20 ADD PUSH2 0xB35 SWAP1 PUSH2 0x1AEC JUMP JUMPDEST PUSH1 0x40 MLOAD PUSH1 0x20 DUP2 DUP4 SUB SUB DUP2 MSTORE SWAP1 PUSH1 0x40 MSTORE DUP1 MLOAD SWAP1 PUSH1 0x20 ADD KECCAK256 PUSH1 0x0 DUP1 MLOAD PUSH1 0x20 PUSH2 0x1D54 DUP4 CODECOPY DUP2 MLOAD SWAP2 MSTORE PUSH1 0x0 DUP1 MLOAD PUSH1 0x20 PUSH2 0x1D34 DUP4 CODECOPY DUP2 MLOAD SWAP2 MSTORE CHAINID DUP8 PUSH1 0x40 MLOAD PUSH1 0x20 ADD PUSH2 0xB7F SWAP6 SWAP5 SWAP4 SWAP3 SWAP2 SWAP1 PUSH2 0x1B56 JUMP JUMPDEST PUSH1 0x40 MLOAD PUSH1 0x20 DUP2 DUP4 SUB SUB DUP2 MSTORE SWAP1 PUSH1 0x40 MSTORE DUP1 MLOAD SWAP1 PUSH1 0x20 ADD KECCAK256 SWAP1 POP PUSH1 0x0 PUSH1 0x40 MLOAD PUSH1 0x20 ADD PUSH2 0xBF2 SWAP1 PUSH32 0x7374724F43566F74652875696E743235362070726F7049642C626F6F6C207375 DUP2 MSTORE PUSH32 0x70706F72742C737472696E67206A757374696669636174696F6E290000000000 PUSH1 0x20 DUP3 ADD MSTORE PUSH1 0x3B ADD SWAP1 JUMP JUMPDEST PUSH1 0x40 MLOAD PUSH1 0x20 DUP2 DUP4 SUB SUB DUP2 MSTORE SWAP1 PUSH1 0x40 MSTORE DUP1 MLOAD SWAP1 PUSH1 0x20 ADD KECCAK256 DUP9 DUP9 DUP9 PUSH1 0x40 MLOAD PUSH1 0x20 ADD PUSH2 0xC1B SWAP2 SWAP1 PUSH2 0x1B82 JUMP JUMPDEST PUSH1 0x40 DUP1 MLOAD PUSH1 0x1F NOT DUP2 DUP5 SUB ADD DUP2 MSTORE DUP3 DUP3 MSTORE DUP1 MLOAD PUSH1 0x20 SWAP2 DUP3 ADD KECCAK256 SWAP1 DUP4 ADD SWAP6 SWAP1 SWAP6 MSTORE DUP2 ADD SWAP3 SWAP1 SWAP3 MSTORE ISZERO ISZERO PUSH1 0x60 DUP3 ADD MSTORE PUSH1 0x80 DUP2 ADD SWAP2 SWAP1 SWAP2 MSTORE PUSH1 0xA0 ADD PUSH2 0x2FE JUMP JUMPDEST PUSH1 0x0 DUP1 PUSH1 0x40 MLOAD PUSH1 0x20 ADD PUSH2 0xC69 SWAP1 PUSH2 0x1AEC JUMP JUMPDEST PUSH1 0x40 MLOAD PUSH1 0x20 DUP2 DUP4 SUB SUB DUP2 MSTORE SWAP1 PUSH1 0x40 MSTORE DUP1 MLOAD SWAP1 PUSH1 0x20 ADD KECCAK256 PUSH1 0x0 DUP1 MLOAD PUSH1 0x20 PUSH2 0x1D54 DUP4 CODECOPY DUP2 MLOAD SWAP2 MSTORE PUSH1 0x0 DUP1 MLOAD PUSH1 0x20 PUSH2 0x1D34 DUP4 CODECOPY DUP2 MLOAD SWAP2 MSTORE CHAINID DUP8 PUSH1 0x40 MLOAD PUSH1 0x20 ADD PUSH2 0xCB3 SWAP6 SWAP5 SWAP4 SWAP3 SWAP2 SWAP1 PUSH2 0x1B56 JUMP JUMPDEST PUSH1 0x40 MLOAD PUSH1 0x20 DUP2 DUP4 SUB SUB DUP2 MSTORE SWAP1 PUSH1 0x40 MSTORE DUP1 MLOAD SWAP1 PUSH1 0x20 ADD KECCAK256 SWAP1 POP PUSH1 0x0 PUSH1 0x40 MLOAD PUSH1 0x20 ADD PUSH2 0xD00 SWAP1 PUSH32 0x7374724F43496E76697428626F6F6C20616363657074616E6365290000000000 DUP2 MSTORE PUSH1 0x1B ADD SWAP1 JUMP JUMPDEST PUSH1 0x40 DUP1 MLOAD DUP1 DUP4 SUB PUSH1 0x1F NOT ADD DUP2 MSTORE DUP3 DUP3 MSTORE DUP1 MLOAD PUSH1 0x20 SWAP2 DUP3 ADD KECCAK256 DUP2 DUP5 ADD MSTORE DUP9 ISZERO ISZERO DUP4 DUP4 ADD MSTORE DUP2 MLOAD DUP1 DUP5 SUB DUP4 ADD DUP2 MSTORE PUSH1 0x60 DUP5 ADD SWAP1 SWAP3 MSTORE DUP2 MLOAD SWAP2 ADD KECCAK256 SWAP2 POP PUSH1 0x0 SWAP1 PUSH2 0xD4D SWAP1 DUP5 SWAP1 DUP5 SWAP1 PUSH1 0x80 ADD PUSH2 0x1B9E JUMP JUMPDEST PUSH1 0x40 MLOAD PUSH1 0x20 DUP2 DUP4 SUB SUB DUP2 MSTORE SWAP1 PUSH1 0x40 MSTORE DUP1 MLOAD SWAP1 PUSH1 0x20 ADD KECCAK256 SWAP1 POP PUSH2 0xD6F DUP2 DUP7 PUSH2 0x35A JUMP JUMPDEST SWAP8 SWAP7 POP POP POP POP POP POP POP JUMP JUMPDEST PUSH1 0x60 PUSH1 0x0 DUP3 SWAP1 POP PUSH1 0x0 DUP2 PUSH1 0x1 PUSH1 0x1 PUSH1 0xA0 SHL SUB AND PUSH4 0x19A50F49 PUSH1 0x40 MLOAD DUP2 PUSH4 0xFFFFFFFF AND PUSH1 0xE0 SHL DUP2 MSTORE PUSH1 0x4 ADD PUSH1 0x20 PUSH1 0x40 MLOAD DUP1 DUP4 SUB DUP2 DUP7 GAS STATICCALL ISZERO DUP1 ISZERO PUSH2 0xDC1 JUMPI RETURNDATASIZE PUSH1 0x0 DUP1 RETURNDATACOPY RETURNDATASIZE PUSH1 0x0 REVERT JUMPDEST POP POP POP POP PUSH1 0x40 MLOAD RETURNDATASIZE PUSH1 0x1F NOT PUSH1 0x1F DUP3 ADD AND DUP3 ADD DUP1 PUSH1 0x40 MSTORE POP DUP2 ADD SWAP1 PUSH2 0xDE5 SWAP2 SWAP1 PUSH2 0x1BB9 JUMP JUMPDEST SWAP1 POP PUSH1 0x0 DUP3 PUSH1 0x1 PUSH1 0x1 PUSH1 0xA0 SHL SUB AND PUSH4 0xA693649A PUSH1 0x40 MLOAD DUP2 PUSH4 0xFFFFFFFF AND PUSH1 0xE0 SHL DUP2 MSTORE PUSH1 0x4 ADD PUSH1 0x20 PUSH1 0x40 MLOAD DUP1 DUP4 SUB DUP2 DUP7 GAS STATICCALL ISZERO DUP1 ISZERO PUSH2 0xE27 JUMPI RETURNDATASIZE PUSH1 0x0 DUP1 RETURNDATACOPY RETURNDATASIZE PUSH1 0x0 REVERT JUMPDEST POP POP POP POP PUSH1 0x40 MLOAD RETURNDATASIZE PUSH1 0x1F NOT PUSH1 0x1F DUP3 ADD AND DUP3 ADD DUP1 PUSH1 0x40 MSTORE POP DUP2 ADD SWAP1 PUSH2 0xE4B SWAP2 SWAP1 PUSH2 0x1BB9 JUMP JUMPDEST SWAP1 POP PUSH1 0x0 DUP3 PUSH8 0xFFFFFFFFFFFFFFFF DUP2 GT ISZERO PUSH2 0xE68 JUMPI PUSH2 0xE68 PUSH2 0x1452 JUMP JUMPDEST PUSH1 0x40 MLOAD SWAP1 DUP1 DUP3 MSTORE DUP1 PUSH1 0x20 MUL PUSH1 0x20 ADD DUP3 ADD PUSH1 0x40 MSTORE DUP1 ISZERO PUSH2 0xEA1 JUMPI DUP2 PUSH1 0x20 ADD JUMPDEST PUSH2 0xE8E PUSH2 0x13EE JUMP JUMPDEST DUP2 MSTORE PUSH1 0x20 ADD SWAP1 PUSH1 0x1 SWAP1 SUB SWAP1 DUP2 PUSH2 0xE86 JUMPI SWAP1 POP JUMPDEST POP SWAP1 POP PUSH1 0x0 PUSH1 0x1 JUMPDEST DUP4 DUP2 LT ISZERO PUSH2 0xF9B JUMPI PUSH2 0xEB9 PUSH2 0x13EE JUMP JUMPDEST PUSH1 0x40 MLOAD PUSH4 0x8AD0207 PUSH1 0xE2 SHL DUP2 MSTORE PUSH1 0x4 DUP2 ADD DUP4 SWAP1 MSTORE PUSH1 0x1 PUSH1 0x1 PUSH1 0xA0 SHL SUB DUP9 AND SWAP1 PUSH4 0x22B4081C SWAP1 PUSH1 0x24 ADD PUSH1 0x0 PUSH1 0x40 MLOAD DUP1 DUP4 SUB DUP2 DUP7 GAS STATICCALL ISZERO DUP1 ISZERO PUSH2 0xEFE JUMPI RETURNDATASIZE PUSH1 0x0 DUP1 RETURNDATACOPY RETURNDATASIZE PUSH1 0x0 REVERT JUMPDEST POP POP POP POP PUSH1 0x40 MLOAD RETURNDATASIZE PUSH1 0x0 DUP3 RETURNDATACOPY PUSH1 0x1F RETURNDATASIZE SWAP1 DUP2 ADD PUSH1 0x1F NOT AND DUP3 ADD PUSH1 0x40 MSTORE PUSH2 0xF26 SWAP2 SWAP1 DUP2 ADD SWAP1 PUSH2 0x1C1F JUMP JUMPDEST ISZERO ISZERO PUSH1 0x80 DUP7 ADD MSTORE ISZERO ISZERO PUSH1 0x60 DUP6 ADD DUP2 SWAP1 MSTORE PUSH1 0x40 DUP6 ADD SWAP2 SWAP1 SWAP2 MSTORE PUSH1 0x20 DUP5 ADD SWAP2 SWAP1 SWAP2 MSTORE PUSH1 0x1 PUSH1 0x1 PUSH1 0xA0 SHL SUB SWAP1 SWAP2 AND DUP3 MSTORE PUSH1 0x1 EQ ISZERO PUSH2 0xF88 JUMPI DUP1 DUP5 DUP5 DUP2 MLOAD DUP2 LT PUSH2 0xF6E JUMPI PUSH2 0xF6E PUSH2 0x1CF4 JUMP JUMPDEST PUSH1 0x20 MUL PUSH1 0x20 ADD ADD DUP2 SWAP1 MSTORE POP DUP3 DUP1 PUSH2 0xF84 SWAP1 PUSH2 0x1D0A JUMP JUMPDEST SWAP4 POP POP JUMPDEST POP DUP1 PUSH2 0xF93 DUP2 PUSH2 0x1D0A JUMP JUMPDEST SWAP2 POP POP PUSH2 0xEA9 JUMP JUMPDEST POP SWAP1 SWAP7 SWAP6 POP POP POP POP POP POP JUMP JUMPDEST PUSH1 0x0 DUP1 PUSH1 0x40 MLOAD PUSH1 0x20 ADD PUSH2 0xFB9 SWAP1 PUSH2 0x1AEC JUMP JUMPDEST PUSH1 0x40 MLOAD PUSH1 0x20 DUP2 DUP4 SUB SUB DUP2 MSTORE SWAP1 PUSH1 0x40 MSTORE DUP1 MLOAD SWAP1 PUSH1 0x20 ADD KECCAK256 PUSH1 0x0 DUP1 MLOAD PUSH1 0x20 PUSH2 0x1D54 DUP4 CODECOPY DUP2 MLOAD SWAP2 MSTORE PUSH1 0x0 DUP1 MLOAD PUSH1 0x20 PUSH2 0x1D34 DUP4 CODECOPY DUP2 MLOAD SWAP2 MSTORE CHAINID DUP8 PUSH1 0x40 MLOAD PUSH1 0x20 ADD PUSH2 0x1003 SWAP6 SWAP5 SWAP4 SWAP3 SWAP2 SWAP1 PUSH2 0x1B56 JUMP JUMPDEST PUSH1 0x40 MLOAD PUSH1 0x20 DUP2 DUP4 SUB SUB DUP2 MSTORE SWAP1 PUSH1 0x40 MSTORE DUP1 MLOAD SWAP1 PUSH1 0x20 ADD KECCAK256 SWAP1 POP PUSH1 0x0 PUSH1 0x40 MLOAD PUSH1 0x20 ADD PUSH2 0x110E SWAP1 PUSH32 0x7374724F434E6577434C4828737472696E6720686F7573654E616D652C626F6F DUP2 MSTORE PUSH32 0x6C20686F757365507269766174652C626F6F6C20686F7573654F70656E2C6279 PUSH1 0x20 DUP3 ADD MSTORE PUSH32 0x746573333220676F764D6F64656C2C75696E7432353620676F7652756C654D61 PUSH1 0x40 DUP3 ADD MSTORE PUSH32 0x7855736572732C75696E7432353620676F7652756C654D61784D616E61676572 PUSH1 0x60 DUP3 ADD MSTORE PUSH32 0x732C75696E7432353620676F7652756C65417070726F7650657263656E746167 PUSH1 0x80 DUP3 ADD MSTORE PUSH32 0x652C616464726573732077686974654C69737457616C6C657473290000000000 PUSH1 0xA0 DUP3 ADD MSTORE PUSH1 0xBB ADD SWAP1 JUMP JUMPDEST PUSH1 0x40 MLOAD PUSH1 0x20 DUP2 DUP4 SUB SUB DUP2 MSTORE SWAP1 PUSH1 0x40 MSTORE DUP1 MLOAD SWAP1 PUSH1 0x20 ADD KECCAK256 DUP14 PUSH1 0x40 MLOAD PUSH1 0x20 ADD PUSH2 0x1135 SWAP2 SWAP1 PUSH2 0x1B82 JUMP JUMPDEST PUSH1 0x40 DUP1 MLOAD PUSH1 0x1F NOT DUP2 DUP5 SUB ADD DUP2 MSTORE DUP3 DUP3 MSTORE DUP1 MLOAD PUSH1 0x20 SWAP2 DUP3 ADD KECCAK256 SWAP1 DUP4 ADD SWAP4 SWAP1 SWAP4 MSTORE DUP2 ADD SWAP2 SWAP1 SWAP2 MSTORE DUP13 ISZERO ISZERO PUSH1 0x60 DUP3 ADD MSTORE DUP12 ISZERO ISZERO PUSH1 0x80 DUP3 ADD MSTORE PUSH1 0xA0 DUP2 ADD DUP12 SWAP1 MSTORE PUSH1 0xC0 DUP2 ADD DUP11 SWAP1 MSTORE PUSH1 0xE0 DUP2 ADD DUP10 SWAP1 MSTORE PUSH2 0x100 DUP2 ADD DUP9 SWAP1 MSTORE PUSH1 0x1 PUSH1 0x1 PUSH1 0xA0 SHL SUB DUP8 AND PUSH2 0x120 DUP3 ADD MSTORE PUSH2 0x140 ADD PUSH1 0x40 MLOAD PUSH1 0x20 DUP2 DUP4 SUB SUB DUP2 MSTORE SWAP1 PUSH1 0x40 MSTORE DUP1 MLOAD SWAP1 PUSH1 0x20 ADD KECCAK256 SWAP1 POP PUSH1 0x0 DUP3 DUP3 PUSH1 0x40 MLOAD PUSH1 0x20 ADD PUSH2 0x11C8 SWAP3 SWAP2 SWAP1 PUSH2 0x1B9E JUMP JUMPDEST PUSH1 0x40 MLOAD PUSH1 0x20 DUP2 DUP4 SUB SUB DUP2 MSTORE SWAP1 PUSH1 0x40 MSTORE DUP1 MLOAD SWAP1 PUSH1 0x20 ADD KECCAK256 SWAP1 POP PUSH2 0x11EA DUP2 DUP7 PUSH2 0x35A JUMP JUMPDEST SWAP15 SWAP14 POP POP POP POP POP POP POP POP POP POP POP POP POP POP JUMP JUMPDEST PUSH1 0x0 DUP1 PUSH1 0x40 MLOAD PUSH1 0x20 ADD PUSH2 0x120E SWAP1 PUSH2 0x1AEC JUMP JUMPDEST PUSH1 0x40 MLOAD PUSH1 0x20 DUP2 DUP4 SUB SUB DUP2 MSTORE SWAP1 PUSH1 0x40 MSTORE DUP1 MLOAD SWAP1 PUSH1 0x20 ADD KECCAK256 PUSH1 0x0 DUP1 MLOAD PUSH1 0x20 PUSH2 0x1D54 DUP4 CODECOPY DUP2 MLOAD SWAP2 MSTORE PUSH1 0x0 DUP1 MLOAD PUSH1 0x20 PUSH2 0x1D34 DUP4 CODECOPY DUP2 MLOAD SWAP2 MSTORE CHAINID DUP8 PUSH1 0x40 MLOAD PUSH1 0x20 ADD PUSH2 0x1258 SWAP6 SWAP5 SWAP4 SWAP3 SWAP2 SWAP1 PUSH2 0x1B56 JUMP JUMPDEST PUSH1 0x40 MLOAD PUSH1 0x20 DUP2 DUP4 SUB SUB DUP2 MSTORE SWAP1 PUSH1 0x40 MSTORE DUP1 MLOAD SWAP1 PUSH1 0x20 ADD KECCAK256 SWAP1 POP PUSH1 0x0 PUSH1 0x40 MLOAD PUSH1 0x20 ADD PUSH2 0x12F1 SWAP1 PUSH32 0x7374724F434E65775573657228616464726573732077616C6C6574416464722C DUP2 MSTORE PUSH32 0x737472696E67206E616D652C737472696E67206465736372697074696F6E2C62 PUSH1 0x20 DUP3 ADD MSTORE PUSH32 0x6F6F6C2069734D616E616765722C75696E743235362064656C617954696D6529 PUSH1 0x40 DUP3 ADD MSTORE PUSH1 0x60 ADD SWAP1 JUMP JUMPDEST PUSH1 0x40 MLOAD PUSH1 0x20 DUP2 DUP4 SUB SUB DUP2 MSTORE SWAP1 PUSH1 0x40 MSTORE DUP1 MLOAD SWAP1 PUSH1 0x20 ADD KECCAK256 DUP11 DUP11 PUSH1 0x40 MLOAD PUSH1 0x20 ADD PUSH2 0x1319 SWAP2 SWAP1 PUSH2 0x1B82 JUMP JUMPDEST PUSH1 0x40 MLOAD PUSH1 0x20 DUP2 DUP4 SUB SUB DUP2 MSTORE SWAP1 PUSH1 0x40 MSTORE DUP1 MLOAD SWAP1 PUSH1 0x20 ADD KECCAK256 DUP11 PUSH1 0x40 MLOAD PUSH1 0x20 ADD PUSH2 0x1340 SWAP2 SWAP1 PUSH2 0x1B82 JUMP JUMPDEST PUSH1 0x40 DUP1 MLOAD PUSH1 0x1F NOT DUP2 DUP5 SUB ADD DUP2 MSTORE DUP3 DUP3 MSTORE DUP1 MLOAD PUSH1 0x20 SWAP2 DUP3 ADD KECCAK256 SWAP1 DUP4 ADD SWAP6 SWAP1 SWAP6 MSTORE PUSH1 0x1 PUSH1 0x1 PUSH1 0xA0 SHL SUB SWAP1 SWAP4 AND SWAP3 DUP2 ADD SWAP3 SWAP1 SWAP3 MSTORE PUSH1 0x60 DUP3 ADD MSTORE PUSH1 0x80 DUP2 ADD SWAP2 SWAP1 SWAP2 MSTORE DUP8 ISZERO ISZERO PUSH1 0xA0 DUP3 ADD MSTORE PUSH1 0xC0 DUP2 ADD DUP8 SWAP1 MSTORE PUSH1 0xE0 ADD PUSH1 0x40 MLOAD PUSH1 0x20 DUP2 DUP4 SUB SUB DUP2 MSTORE SWAP1 PUSH1 0x40 MSTORE DUP1 MLOAD SWAP1 PUSH1 0x20 ADD KECCAK256 SWAP1 POP PUSH1 0x0 DUP3 DUP3 PUSH1 0x40 MLOAD PUSH1 0x20 ADD PUSH2 0x13BD SWAP3 SWAP2 SWAP1 PUSH2 0x1B9E JUMP JUMPDEST PUSH1 0x40 MLOAD PUSH1 0x20 DUP2 DUP4 SUB SUB DUP2 MSTORE SWAP1 PUSH1 0x40 MSTORE DUP1 MLOAD SWAP1 PUSH1 0x20 ADD KECCAK256 SWAP1 POP PUSH2 0x13DF DUP2 DUP7 PUSH2 0x35A JUMP JUMPDEST SWAP12 SWAP11 POP POP POP POP POP POP POP POP POP POP POP JUMP JUMPDEST PUSH1 0x40 MLOAD DUP1 PUSH1 0xA0 ADD PUSH1 0x40 MSTORE DUP1 PUSH1 0x0 PUSH1 0x1 PUSH1 0x1 PUSH1 0xA0 SHL SUB AND DUP2 MSTORE PUSH1 0x20 ADD PUSH1 0x60 DUP2 MSTORE PUSH1 0x20 ADD PUSH1 0x0 DUP2 MSTORE PUSH1 0x20 ADD PUSH1 0x0 ISZERO ISZERO DUP2 MSTORE PUSH1 0x20 ADD PUSH1 0x0 ISZERO ISZERO DUP2 MSTORE POP SWAP1 JUMP JUMPDEST PUSH1 0x1 PUSH1 0x1 PUSH1 0xA0 SHL SUB DUP2 AND DUP2 EQ PUSH2 0x143F JUMPI PUSH1 0x0 DUP1 REVERT JUMPDEST POP JUMP JUMPDEST DUP1 CALLDATALOAD PUSH2 0x144D DUP2 PUSH2 0x142A JUMP JUMPDEST SWAP2 SWAP1 POP JUMP JUMPDEST PUSH4 0x4E487B71 PUSH1 0xE0 SHL PUSH1 0x0 MSTORE PUSH1 0x41 PUSH1 0x4 MSTORE PUSH1 0x24 PUSH1 0x0 REVERT JUMPDEST PUSH1 0x40 MLOAD PUSH1 0x1F DUP3 ADD PUSH1 0x1F NOT AND DUP2 ADD PUSH8 0xFFFFFFFFFFFFFFFF DUP2 GT DUP3 DUP3 LT OR ISZERO PUSH2 0x1491 JUMPI PUSH2 0x1491 PUSH2 0x1452 JUMP JUMPDEST PUSH1 0x40 MSTORE SWAP2 SWAP1 POP JUMP JUMPDEST PUSH1 0x0 PUSH8 0xFFFFFFFFFFFFFFFF DUP3 GT ISZERO PUSH2 0x14B3 JUMPI PUSH2 0x14B3 PUSH2 0x1452 JUMP JUMPDEST POP PUSH1 0x1F ADD PUSH1 0x1F NOT AND PUSH1 0x20 ADD SWAP1 JUMP JUMPDEST PUSH1 0x0 DUP3 PUSH1 0x1F DUP4 ADD SLT PUSH2 0x14D2 JUMPI PUSH1 0x0 DUP1 REVERT JUMPDEST DUP2 CALLDATALOAD PUSH2 0x14E5 PUSH2 0x14E0 DUP3 PUSH2 0x1499 JUMP JUMPDEST PUSH2 0x1468 JUMP JUMPDEST DUP2 DUP2 MSTORE DUP5 PUSH1 0x20 DUP4 DUP7 ADD ADD GT ISZERO PUSH2 0x14FA JUMPI PUSH1 0x0 DUP1 REVERT JUMPDEST DUP2 PUSH1 0x20 DUP6 ADD PUSH1 0x20 DUP4 ADD CALLDATACOPY PUSH1 0x0 SWAP2 DUP2 ADD PUSH1 0x20 ADD SWAP2 SWAP1 SWAP2 MSTORE SWAP4 SWAP3 POP POP POP JUMP JUMPDEST PUSH1 0x0 DUP1 PUSH1 0x0 DUP1 PUSH1 0x0 PUSH1 0xA0 DUP7 DUP9 SUB SLT ISZERO PUSH2 0x152F JUMPI PUSH1 0x0 DUP1 REVERT JUMPDEST DUP6 CALLDATALOAD PUSH2 0x153A DUP2 PUSH2 0x142A JUMP JUMPDEST SWAP5 POP PUSH1 0x20 DUP7 ADD CALLDATALOAD PUSH8 0xFFFFFFFFFFFFFFFF DUP1 DUP3 GT ISZERO PUSH2 0x1557 JUMPI PUSH1 0x0 DUP1 REVERT JUMPDEST PUSH2 0x1563 DUP10 DUP4 DUP11 ADD PUSH2 0x14C1 JUMP JUMPDEST SWAP6 POP PUSH1 0x40 DUP9 ADD CALLDATALOAD SWAP5 POP PUSH1 0x60 DUP9 ADD CALLDATALOAD SWAP2 POP PUSH2 0x157C DUP3 PUSH2 0x142A JUMP JUMPDEST SWAP1 SWAP3 POP PUSH1 0x80 DUP8 ADD CALLDATALOAD SWAP1 DUP1 DUP3 GT ISZERO PUSH2 0x1592 JUMPI PUSH1 0x0 DUP1 REVERT JUMPDEST POP PUSH2 0x159F DUP9 DUP3 DUP10 ADD PUSH2 0x14C1 JUMP JUMPDEST SWAP2 POP POP SWAP3 SWAP6 POP SWAP3 SWAP6 SWAP1 SWAP4 POP JUMP JUMPDEST PUSH1 0x0 DUP1 PUSH1 0x40 DUP4 DUP6 SUB SLT ISZERO PUSH2 0x15BF JUMPI PUSH1 0x0 DUP1 REVERT JUMPDEST DUP3 CALLDATALOAD SWAP2 POP PUSH1 0x20 DUP4 ADD CALLDATALOAD PUSH8 0xFFFFFFFFFFFFFFFF DUP2 GT ISZERO PUSH2 0x15DD JUMPI PUSH1 0x0 DUP1 REVERT JUMPDEST PUSH2 0x15E9 DUP6 DUP3 DUP7 ADD PUSH2 0x14C1 JUMP JUMPDEST SWAP2 POP POP SWAP3 POP SWAP3 SWAP1 POP JUMP JUMPDEST PUSH1 0x0 DUP1 PUSH1 0x0 DUP1 PUSH1 0x80 DUP6 DUP8 SUB SLT ISZERO PUSH2 0x1609 JUMPI PUSH1 0x0 DUP1 REVERT JUMPDEST DUP5 CALLDATALOAD PUSH8 0xFFFFFFFFFFFFFFFF DUP1 DUP3 GT ISZERO PUSH2 0x1621 JUMPI PUSH1 0x0 DUP1 REVERT JUMPDEST PUSH2 0x162D DUP9 DUP4 DUP10 ADD PUSH2 0x14C1 JUMP JUMPDEST SWAP6 POP PUSH1 0x20 DUP8 ADD CALLDATALOAD SWAP2 POP DUP1 DUP3 GT ISZERO PUSH2 0x1643 JUMPI PUSH1 0x0 DUP1 REVERT JUMPDEST PUSH2 0x164F DUP9 DUP4 DUP10 ADD PUSH2 0x14C1 JUMP JUMPDEST SWAP5 POP PUSH1 0x40 DUP8 ADD CALLDATALOAD SWAP2 POP PUSH2 0x1661 DUP3 PUSH2 0x142A JUMP JUMPDEST SWAP1 SWAP3 POP PUSH1 0x60 DUP7 ADD CALLDATALOAD SWAP1 DUP1 DUP3 GT ISZERO PUSH2 0x1677 JUMPI PUSH1 0x0 DUP1 REVERT JUMPDEST POP PUSH2 0x1684 DUP8 DUP3 DUP9 ADD PUSH2 0x14C1 JUMP JUMPDEST SWAP2 POP POP SWAP3 SWAP6 SWAP2 SWAP5 POP SWAP3 POP JUMP JUMPDEST PUSH1 0x0 DUP1 PUSH1 0x40 DUP4 DUP6 SUB SLT ISZERO PUSH2 0x16A3 JUMPI PUSH1 0x0 DUP1 REVERT JUMPDEST DUP3 CALLDATALOAD PUSH2 0x16AE DUP2 PUSH2 0x142A JUMP JUMPDEST SWAP2 POP PUSH1 0x20 DUP4 ADD CALLDATALOAD PUSH2 0x16BE DUP2 PUSH2 0x142A JUMP JUMPDEST DUP1 SWAP2 POP POP SWAP3 POP SWAP3 SWAP1 POP JUMP JUMPDEST PUSH1 0x0 JUMPDEST DUP4 DUP2 LT ISZERO PUSH2 0x16E4 JUMPI DUP2 DUP2 ADD MLOAD DUP4 DUP3 ADD MSTORE PUSH1 0x20 ADD PUSH2 0x16CC JUMP JUMPDEST DUP4 DUP2 GT ISZERO PUSH2 0x16F3 JUMPI PUSH1 0x0 DUP5 DUP5 ADD MSTORE JUMPDEST POP POP POP POP JUMP JUMPDEST PUSH1 0x0 DUP2 MLOAD DUP1 DUP5 MSTORE PUSH2 0x1711 DUP2 PUSH1 0x20 DUP7 ADD PUSH1 0x20 DUP7 ADD PUSH2 0x16C9 JUMP JUMPDEST PUSH1 0x1F ADD PUSH1 0x1F NOT AND SWAP3 SWAP1 SWAP3 ADD PUSH1 0x20 ADD SWAP3 SWAP2 POP POP JUMP JUMPDEST PUSH1 0x80 DUP2 MSTORE PUSH1 0x0 PUSH2 0x1738 PUSH1 0x80 DUP4 ADD DUP8 PUSH2 0x16F9 JUMP JUMPDEST PUSH1 0x20 DUP4 ADD SWAP6 SWAP1 SWAP6 MSTORE POP SWAP2 ISZERO ISZERO PUSH1 0x40 DUP4 ADD MSTORE ISZERO ISZERO PUSH1 0x60 SWAP1 SWAP2 ADD MSTORE SWAP2 SWAP1 POP JUMP JUMPDEST PUSH1 0x0 PUSH1 0x20 DUP3 DUP5 SUB SLT ISZERO PUSH2 0x1768 JUMPI PUSH1 0x0 DUP1 REVERT JUMPDEST DUP2 CALLDATALOAD PUSH2 0x1773 DUP2 PUSH2 0x142A JUMP JUMPDEST SWAP4 SWAP3 POP POP POP JUMP JUMPDEST PUSH1 0x0 PUSH2 0x120 DUP1 DUP4 MSTORE PUSH2 0x178E DUP2 DUP5 ADD DUP14 PUSH2 0x16F9 JUMP JUMPDEST PUSH1 0x20 DUP5 ADD SWAP12 SWAP1 SWAP12 MSTORE POP POP SWAP7 ISZERO ISZERO PUSH1 0x40 DUP9 ADD MSTORE SWAP5 ISZERO ISZERO PUSH1 0x60 DUP8 ADD MSTORE PUSH1 0x80 DUP7 ADD SWAP4 SWAP1 SWAP4 MSTORE PUSH1 0xA0 DUP6 ADD SWAP2 SWAP1 SWAP2 MSTORE PUSH1 0xC0 DUP5 ADD MSTORE PUSH1 0xE0 DUP4 ADD MSTORE PUSH2 0x100 SWAP1 SWAP2 ADD MSTORE SWAP2 SWAP1 POP JUMP JUMPDEST DUP1 ISZERO ISZERO DUP2 EQ PUSH2 0x143F JUMPI PUSH1 0x0 DUP1 REVERT JUMPDEST DUP1 CALLDATALOAD PUSH2 0x144D DUP2 PUSH2 0x17CE JUMP JUMPDEST PUSH1 0x0 DUP1 PUSH1 0x0 DUP1 PUSH1 0x0 PUSH1 0xA0 DUP7 DUP9 SUB SLT ISZERO PUSH2 0x17FF JUMPI PUSH1 0x0 DUP1 REVERT JUMPDEST DUP6 CALLDATALOAD SWAP5 POP PUSH1 0x20 DUP7 ADD CALLDATALOAD PUSH2 0x1811 DUP2 PUSH2 0x17CE JUMP JUMPDEST SWAP4 POP PUSH1 0x40 DUP7 ADD CALLDATALOAD PUSH8 0xFFFFFFFFFFFFFFFF DUP1 DUP3 GT ISZERO PUSH2 0x182E JUMPI PUSH1 0x0 DUP1 REVERT JUMPDEST PUSH2 0x183A DUP10 DUP4 DUP11 ADD PUSH2 0x14C1 JUMP JUMPDEST SWAP5 POP PUSH1 0x60 DUP9 ADD CALLDATALOAD SWAP2 POP PUSH2 0x157C DUP3 PUSH2 0x142A JUMP JUMPDEST PUSH1 0x0 DUP1 PUSH1 0x0 PUSH1 0x60 DUP5 DUP7 SUB SLT ISZERO PUSH2 0x1861 JUMPI PUSH1 0x0 DUP1 REVERT JUMPDEST DUP4 CALLDATALOAD PUSH2 0x186C DUP2 PUSH2 0x17CE JUMP JUMPDEST SWAP3 POP PUSH1 0x20 DUP5 ADD CALLDATALOAD PUSH2 0x187C DUP2 PUSH2 0x142A JUMP JUMPDEST SWAP2 POP PUSH1 0x40 DUP5 ADD CALLDATALOAD PUSH8 0xFFFFFFFFFFFFFFFF DUP2 GT ISZERO PUSH2 0x1898 JUMPI PUSH1 0x0 DUP1 REVERT JUMPDEST PUSH2 0x18A4 DUP7 DUP3 DUP8 ADD PUSH2 0x14C1 JUMP JUMPDEST SWAP2 POP POP SWAP3 POP SWAP3 POP SWAP3 JUMP JUMPDEST PUSH1 0x0 PUSH1 0x20 DUP1 DUP4 ADD DUP2 DUP5 MSTORE DUP1 DUP6 MLOAD DUP1 DUP4 MSTORE PUSH1 0x40 SWAP3 POP DUP3 DUP7 ADD SWAP2 POP DUP3 DUP2 PUSH1 0x5 SHL DUP8 ADD ADD DUP5 DUP9 ADD PUSH1 0x0 JUMPDEST DUP4 DUP2 LT ISZERO PUSH2 0x1944 JUMPI DUP9 DUP4 SUB PUSH1 0x3F NOT ADD DUP6 MSTORE DUP2 MLOAD DUP1 MLOAD PUSH1 0x1 PUSH1 0x1 PUSH1 0xA0 SHL SUB AND DUP5 MSTORE DUP8 DUP2 ADD MLOAD PUSH1 0xA0 DUP10 DUP7 ADD DUP2 SWAP1 MSTORE SWAP1 PUSH2 0x190E DUP3 DUP8 ADD DUP3 PUSH2 0x16F9 JUMP JUMPDEST DUP4 DUP11 ADD MLOAD DUP8 DUP12 ADD MSTORE PUSH1 0x60 DUP1 DUP6 ADD MLOAD ISZERO ISZERO SWAP1 DUP9 ADD MSTORE PUSH1 0x80 SWAP4 DUP5 ADD MLOAD ISZERO ISZERO SWAP4 SWAP1 SWAP7 ADD SWAP3 SWAP1 SWAP3 MSTORE POP POP SWAP4 DUP7 ADD SWAP4 SWAP1 DUP7 ADD SWAP1 PUSH1 0x1 ADD PUSH2 0x18D5 JUMP JUMPDEST POP SWAP1 SWAP9 SWAP8 POP POP POP POP POP POP POP POP JUMP JUMPDEST PUSH1 0x0 DUP1 PUSH1 0x0 DUP1 PUSH1 0x0 DUP1 PUSH1 0x0 DUP1 PUSH1 0x0 DUP1 PUSH2 0x140 DUP12 DUP14 SUB SLT ISZERO PUSH2 0x1972 JUMPI PUSH1 0x0 DUP1 REVERT JUMPDEST DUP11 CALLDATALOAD PUSH8 0xFFFFFFFFFFFFFFFF DUP1 DUP3 GT ISZERO PUSH2 0x198A JUMPI PUSH1 0x0 DUP1 REVERT JUMPDEST PUSH2 0x1996 DUP15 DUP4 DUP16 ADD PUSH2 0x14C1 JUMP JUMPDEST SWAP12 POP PUSH2 0x19A4 PUSH1 0x20 DUP15 ADD PUSH2 0x17DC JUMP JUMPDEST SWAP11 POP PUSH2 0x19B2 PUSH1 0x40 DUP15 ADD PUSH2 0x17DC JUMP JUMPDEST SWAP10 POP PUSH1 0x60 DUP14 ADD CALLDATALOAD SWAP9 POP PUSH1 0x80 DUP14 ADD CALLDATALOAD SWAP8 POP PUSH1 0xA0 DUP14 ADD CALLDATALOAD SWAP7 POP PUSH1 0xC0 DUP14 ADD CALLDATALOAD SWAP6 POP PUSH2 0x19DC PUSH1 0xE0 DUP15 ADD PUSH2 0x1442 JUMP JUMPDEST SWAP5 POP PUSH2 0x19EB PUSH2 0x100 DUP15 ADD PUSH2 0x1442 JUMP JUMPDEST SWAP4 POP PUSH2 0x120 DUP14 ADD CALLDATALOAD SWAP2 POP DUP1 DUP3 GT ISZERO PUSH2 0x1A02 JUMPI PUSH1 0x0 DUP1 REVERT JUMPDEST POP PUSH2 0x1A0F DUP14 DUP3 DUP15 ADD PUSH2 0x14C1 JUMP JUMPDEST SWAP2 POP POP SWAP3 SWAP6 SWAP9 SWAP12 SWAP2 SWAP5 SWAP8 SWAP11 POP SWAP3 SWAP6 SWAP9 POP JUMP JUMPDEST PUSH1 0x0 DUP1 PUSH1 0x0 DUP1 PUSH1 0x0 DUP1 PUSH1 0x0 PUSH1 0xE0 DUP9 DUP11 SUB SLT ISZERO PUSH2 0x1A3C JUMPI PUSH1 0x0 DUP1 REVERT JUMPDEST DUP8 CALLDATALOAD PUSH2 0x1A47 DUP2 PUSH2 0x142A JUMP JUMPDEST SWAP7 POP PUSH1 0x20 DUP9 ADD CALLDATALOAD PUSH8 0xFFFFFFFFFFFFFFFF DUP1 DUP3 GT ISZERO PUSH2 0x1A64 JUMPI PUSH1 0x0 DUP1 REVERT JUMPDEST PUSH2 0x1A70 DUP12 DUP4 DUP13 ADD PUSH2 0x14C1 JUMP JUMPDEST SWAP8 POP PUSH1 0x40 DUP11 ADD CALLDATALOAD SWAP2 POP DUP1 DUP3 GT ISZERO PUSH2 0x1A86 JUMPI PUSH1 0x0 DUP1 REVERT JUMPDEST PUSH2 0x1A92 DUP12 DUP4 DUP13 ADD PUSH2 0x14C1 JUMP JUMPDEST SWAP7 POP PUSH1 0x60 DUP11 ADD CALLDATALOAD SWAP2 POP PUSH2 0x1AA4 DUP3 PUSH2 0x17CE JUMP JUMPDEST DUP2 SWAP6 POP PUSH1 0x80 DUP11 ADD CALLDATALOAD SWAP5 POP PUSH2 0x1ABA PUSH1 0xA0 DUP12 ADD PUSH2 0x1442 JUMP JUMPDEST SWAP4 POP PUSH1 0xC0 DUP11 ADD CALLDATALOAD SWAP2 POP DUP1 DUP3 GT ISZERO PUSH2 0x1AD0 JUMPI PUSH1 0x0 DUP1 REVERT JUMPDEST POP PUSH2 0x1ADD DUP11 DUP3 DUP12 ADD PUSH2 0x14C1 JUMP JUMPDEST SWAP2 POP POP SWAP3 SWAP6 SWAP9 SWAP2 SWAP5 SWAP8 POP SWAP3 SWAP6 POP JUMP JUMPDEST PUSH32 0x454950373132446F6D61696E28737472696E67206E616D652C737472696E6720 DUP2 MSTORE PUSH32 0x76657273696F6E2C75696E7432353620636861696E49642C6164647265737320 PUSH1 0x20 DUP3 ADD MSTORE PUSH18 0x766572696679696E67436F6E747261637429 PUSH1 0x70 SHL PUSH1 0x40 DUP3 ADD MSTORE PUSH1 0x52 ADD SWAP1 JUMP JUMPDEST SWAP5 DUP6 MSTORE PUSH1 0x20 DUP6 ADD SWAP4 SWAP1 SWAP4 MSTORE PUSH1 0x40 DUP5 ADD SWAP2 SWAP1 SWAP2 MSTORE PUSH1 0x60 DUP4 ADD MSTORE PUSH1 0x1 PUSH1 0x1 PUSH1 0xA0 SHL SUB AND PUSH1 0x80 DUP3 ADD MSTORE PUSH1 0xA0 ADD SWAP1 JUMP JUMPDEST PUSH1 0x0 DUP3 MLOAD PUSH2 0x1B94 DUP2 DUP5 PUSH1 0x20 DUP8 ADD PUSH2 0x16C9 JUMP JUMPDEST SWAP2 SWAP1 SWAP2 ADD SWAP3 SWAP2 POP POP JUMP JUMPDEST PUSH2 0x1901 PUSH1 0xF0 SHL DUP2 MSTORE PUSH1 0x2 DUP2 ADD SWAP3 SWAP1 SWAP3 MSTORE PUSH1 0x22 DUP3 ADD MSTORE PUSH1 0x42 ADD SWAP1 JUMP JUMPDEST PUSH1 0x0 PUSH1 0x20 DUP3 DUP5 SUB SLT ISZERO PUSH2 0x1BCB JUMPI PUSH1 0x0 DUP1 REVERT JUMPDEST POP MLOAD SWAP2 SWAP1 POP JUMP JUMPDEST PUSH1 0x0 DUP3 PUSH1 0x1F DUP4 ADD SLT PUSH2 0x1BE3 JUMPI PUSH1 0x0 DUP1 REVERT JUMPDEST DUP2 MLOAD PUSH2 0x1BF1 PUSH2 0x14E0 DUP3 PUSH2 0x1499 JUMP JUMPDEST DUP2 DUP2 MSTORE DUP5 PUSH1 0x20 DUP4 DUP7 ADD ADD GT ISZERO PUSH2 0x1C06 JUMPI PUSH1 0x0 DUP1 REVERT JUMPDEST PUSH2 0x1C17 DUP3 PUSH1 0x20 DUP4 ADD PUSH1 0x20 DUP8 ADD PUSH2 0x16C9 JUMP JUMPDEST SWAP5 SWAP4 POP POP POP POP JUMP JUMPDEST PUSH1 0x0 DUP1 PUSH1 0x0 DUP1 PUSH1 0x0 PUSH1 0xA0 DUP7 DUP9 SUB SLT ISZERO PUSH2 0x1C37 JUMPI PUSH1 0x0 DUP1 REVERT JUMPDEST DUP6 MLOAD PUSH2 0x1C42 DUP2 PUSH2 0x142A JUMP JUMPDEST PUSH1 0x20 DUP8 ADD MLOAD SWAP1 SWAP6 POP PUSH8 0xFFFFFFFFFFFFFFFF DUP2 GT ISZERO PUSH2 0x1C5F JUMPI PUSH1 0x0 DUP1 REVERT JUMPDEST PUSH2 0x1C6B DUP9 DUP3 DUP10 ADD PUSH2 0x1BD2 JUMP JUMPDEST SWAP5 POP POP PUSH1 0x40 DUP7 ADD MLOAD SWAP3 POP PUSH1 0x60 DUP7 ADD MLOAD PUSH2 0x1C83 DUP2 PUSH2 0x17CE JUMP JUMPDEST PUSH1 0x80 DUP8 ADD MLOAD SWAP1 SWAP3 POP PUSH2 0x1C94 DUP2 PUSH2 0x17CE JUMP JUMPDEST DUP1 SWAP2 POP POP SWAP3 SWAP6 POP SWAP3 SWAP6 SWAP1 SWAP4 POP JUMP JUMPDEST PUSH1 0x0 PUSH1 0x20 DUP3 DUP5 SUB SLT ISZERO PUSH2 0x1CB4 JUMPI PUSH1 0x0 DUP1 REVERT JUMPDEST DUP2 MLOAD PUSH8 0xFFFFFFFFFFFFFFFF DUP2 GT ISZERO PUSH2 0x1CCB JUMPI PUSH1 0x0 DUP1 REVERT JUMPDEST PUSH2 0x1C17 DUP5 DUP3 DUP6 ADD PUSH2 0x1BD2 JUMP JUMPDEST PUSH1 0x0 PUSH1 0x20 DUP3 DUP5 SUB SLT ISZERO PUSH2 0x1CE9 JUMPI PUSH1 0x0 DUP1 REVERT JUMPDEST DUP2 MLOAD PUSH2 0x1773 DUP2 PUSH2 0x17CE JUMP JUMPDEST PUSH4 0x4E487B71 PUSH1 0xE0 SHL PUSH1 0x0 MSTORE PUSH1 0x32 PUSH1 0x4 MSTORE PUSH1 0x24 PUSH1 0x0 REVERT JUMPDEST PUSH1 0x0 PUSH1 0x0 NOT DUP3 EQ ISZERO PUSH2 0x1D2C JUMPI PUSH4 0x4E487B71 PUSH1 0xE0 SHL PUSH1 0x0 MSTORE PUSH1 0x11 PUSH1 0x4 MSTORE PUSH1 0x24 PUSH1 0x0 REVERT JUMPDEST POP PUSH1 0x1 ADD SWAP1 JUMP INVALID 0xAA PUSH29 0xDBE2CCE2EC7B606B0E199DDD9B264A6E645E767FB8479A7917DCD1B869 EXTCODEHASH ADD BALANCE DUP9 SWAP6 0xAF 0x1F PUSH14 0xB161B2BA745B8E57A6B46EFAD77D PUSH20 0x6630379EC69C3CD4C875A2646970667358221220 PUSH27 0x4EF104A53A68D7F5417BC0854A78D65A6BA13F97BEFC99DA173E61 SELFDESTRUCT 0xB5 PUSH24 0xCE64736F6C634300080C0033000000000000000000000000 ",
  "sha1": "01ecb8e8130e7d5d6878b08ff562f507603ef9d6",
  "source": "// SPDX-License-Identifier: MIT\npragma solidity ^0.8.11;\n\nimport \"../../interfaces/ICLHouse.sol\";\n\n/// @title Some funtions to interact with a CLHouse\n/// @author Leonardo Urrego\n/// @notice This contract is only for test \ncontract CLHouseApi {\n\n    /// @notice A funtion to verify the signer of a menssage\n    /// @param _msghash Hash of the message\n    /// @param _signature Signature of the message\n    /// @return Signer address of the message\n    function SignerOfMsg(\n        bytes32  _msghash,\n        bytes memory _signature\n    )\n        public\n        pure\n        returns( address )\n    {\n        require( _signature.length == 65, \"Bad signature length\" );\n\n        bytes32 signR;\n        bytes32 signS;\n        uint8 signV;\n\n        assembly {\n            // first 32 bytes, after the length prefix\n            signR := mload( add( _signature, 32 ) )\n            // second 32 bytes\n            signS := mload( add( _signature, 64 ) )\n            // final byte (first byte of the next 32 bytes)\n            signV := byte( 0, mload( add( _signature, 96 ) ) )\n        }\n\n        return ecrecover( _msghash, signV, signR, signS );\n    }\n\n    /// @notice Get the info of an user in one especific CLH\n    /// @param _houseAddr Address of the CLH\n    /// @param _walletAddr Address of the user\n    /// @return name Nickname ot other user identificaction\n    /// @return balance How much money have deposited\n    /// @return isUser true if is User\n    /// @return isManager true if is manager\n    function GetUserInfoByAddress(\n        address _houseAddr,\n        address _walletAddr\n    )\n        external\n        view\n        returns(\n            string memory name,\n            uint balance,\n            bool isUser,\n            bool isManager\n        )\n    {\n        ICLHouse daoCLH = ICLHouse( _houseAddr );\n\n        uint256 uid = daoCLH.mapIdUser( _walletAddr );\n\n        require( 0 != uid , \"Address not exist!!\" );\n\n        strUser memory houseUser;\n\n        (   houseUser.walletAddr,\n            houseUser.name,\n            houseUser.balance,\n            houseUser.isUser,\n            houseUser.isManager ) = daoCLH.arrUsers( uid );\n\n        require( true == houseUser.isUser  , \"Is not a user\" );\n\n        return (\n            houseUser.name,\n            houseUser.balance,\n            houseUser.isUser,\n            houseUser.isManager\n        );\n    }\n\n    /// @notice The list of all users address\n    /// @param _houseAddr address of the CLH\n    /// @return arrUsers array with list of users\n    function GetHouseUserList(\n        address _houseAddr\n    )\n        external\n        view\n        returns(\n            strUser[] memory arrUsers\n        )\n    {\n        ICLHouse daoCLH = ICLHouse( _houseAddr );\n\n        uint256 numUsers = daoCLH.numUsers( );\n        uint256 arrUsersLength = daoCLH.GetArrUsersLength();\n        strUser[] memory _arrUsers = new strUser[] ( numUsers );\n\n        uint256 index = 0 ;\n\n        for( uint256 uid = 1 ; uid < arrUsersLength ; uid++ ) {\n            strUser memory houseUser;\n\n            (   houseUser.walletAddr,\n                houseUser.name,\n                houseUser.balance,\n                houseUser.isUser,\n                houseUser.isManager ) = daoCLH.arrUsers( uid );\n\n            if( true == houseUser.isUser ){\n                _arrUsers[ index ] = houseUser;\n                index++;\n            }\n        }\n        return _arrUsers;\n    }\n\n    /// @notice All properties of a House\n    /// @param _houseAddr CLH address\n    /// @return HOUSE_NAME name of the CLH\n    /// @return HOUSE_GOVERNANCE_MODEL Hash of governance model\n    /// @return housePrivate True if is private\n    /// @return houseOpen True if is Open\n    /// @return numUsers Current users of a CLH\n    /// @return numManagers Current managers of a CLH\n    /// @return govRuleApprovPercentage Percentage for approval o reject proposal based on `numManagers`\n    /// @return govRuleMaxUsers Max of all users (including managers)\n    /// @return govRuleMaxManagers Max of managers that CLH can accept (only for COMMITTEE )\n    function GetHouseProperties(\n        address _houseAddr\n    )\n        external\n        view\n        returns(\n            string memory HOUSE_NAME,\n            bytes32 HOUSE_GOVERNANCE_MODEL,\n            bool housePrivate,\n            bool houseOpen,\n            uint256 numUsers,\n            uint256 numManagers,\n            uint256 govRuleApprovPercentage,\n            uint256 govRuleMaxUsers,\n            uint256 govRuleMaxManagers\n        )\n    {\n        ICLHouse daoCLH = ICLHouse( _houseAddr );\n\n        return(\n            daoCLH.HOUSE_NAME(),\n            daoCLH.HOUSE_GOVERNANCE_MODEL(),\n            daoCLH.housePrivate(),\n            daoCLH.houseOpen(),\n            daoCLH.numUsers(),\n            daoCLH.numManagers(),\n            daoCLH.govRuleApprovPercentage(),\n            daoCLH.govRuleMaxUsers(),\n            daoCLH.govRuleMaxManagers()\n        );\n    }\n\n\n    function SignerOCInvit(\n        bool _acceptance,\n        address _houseAddr,\n        bytes memory _signature\n    ) \n        external view\n        returns( address )\n    {\n        bytes32 hashEIP712Domain = keccak256(\n            abi.encode(\n                __STR_EIP712DOMAIN_HASH__,\n                __CONTRACT_NAME_HASH__,\n                __CONTRACT_VERSION_HASH__,\n                block.chainid,\n                _houseAddr\n            )\n        );\n\n        bytes32 hashMsg = keccak256(\n            abi.encode(\n                __STR_OCINVIT_HASH__,\n                _acceptance\n            )\n        );\n\n        bytes32 singhash = keccak256( abi.encodePacked( \"\\x19\\x01\", hashEIP712Domain, hashMsg ) );\n\n        return SignerOfMsg( singhash, _signature );\n    }\n\n\n    function SignerOCVote(\n        uint _propId,\n        bool _support,\n        string memory _justification,\n        address _houseAddr,\n        bytes memory _signature\n    ) \n        external view\n        returns( address )\n    {\n        bytes32 hashEIP712Domain = keccak256(\n            abi.encode(\n                __STR_EIP712DOMAIN_HASH__,\n                __CONTRACT_NAME_HASH__,\n                __CONTRACT_VERSION_HASH__,\n                block.chainid,\n                _houseAddr\n            )\n        );\n\n        bytes32 hashMsg = keccak256(\n            abi.encode(\n                __STR_OCVOTE_HASH__,\n                _propId,\n                _support,\n                keccak256( abi.encodePacked( _justification ) )\n            )\n        );\n\n        bytes32 singhash = keccak256( abi.encodePacked( \"\\x19\\x01\", hashEIP712Domain, hashMsg ) );\n\n        return SignerOfMsg( singhash, _signature );\n    }\n\n\n    function SignerOCNewUser(\n        address _walletAddr,\n        string memory _name,\n        string memory _description,\n        bool _isManager,\n        uint256 _delayTime,\n        address _houseAddr,\n        bytes memory _signature\n    ) \n        external view\n        returns( address )\n    {\n        bytes32 hashEIP712Domain = keccak256(\n            abi.encode(\n                __STR_EIP712DOMAIN_HASH__,\n                __CONTRACT_NAME_HASH__,\n                __CONTRACT_VERSION_HASH__,\n                block.chainid,\n                _houseAddr\n            )\n        );\n\n        bytes32 hashMsg = keccak256(\n            abi.encode(\n                __STR_OCNEWUSER_HASH__,\n                _walletAddr,\n                keccak256( abi.encodePacked( _name ) ),\n                keccak256( abi.encodePacked( _description ) ),\n                _isManager,\n                _delayTime\n            )\n        );\n\n        bytes32 singhash = keccak256( abi.encodePacked( \"\\x19\\x01\", hashEIP712Domain, hashMsg ) );\n\n        return SignerOfMsg( singhash, _signature );\n    }\n\n\n    function SignerOCDelUser(\n        address _walletAddr,\n        string memory _description,\n        uint256 _delayTime,\n        address _houseAddr,\n        bytes memory _signature\n    ) \n        external view\n        returns( address )\n    {\n        bytes32 hashEIP712Domain = keccak256(\n            abi.encode(\n                __STR_EIP712DOMAIN_HASH__,\n                __CONTRACT_NAME_HASH__,\n                __CONTRACT_VERSION_HASH__,\n                block.chainid,\n                _houseAddr\n            )\n        );\n\n        bytes32 hashMsg = keccak256(\n            abi.encode(\n                __STR_OCDELUSER_HASH__,\n                _walletAddr,\n                keccak256( abi.encodePacked( _description ) ),\n                _delayTime\n            )\n        );\n\n        bytes32 singhash = keccak256( abi.encodePacked( \"\\x19\\x01\", hashEIP712Domain, hashMsg ) );\n\n        return SignerOfMsg( singhash, _signature );\n    }\n\n\n    function SignerOCRequest(\n        string memory _name,\n        string memory _description,\n        address _houseAddr,\n        bytes memory _signature\n    ) \n        external view\n        returns( address )\n    {\n        bytes32 hashEIP712Domain = keccak256(\n            abi.encode(\n                __STR_EIP712DOMAIN_HASH__,\n                __CONTRACT_NAME_HASH__,\n                __CONTRACT_VERSION_HASH__,\n                block.chainid,\n                _houseAddr\n            )\n        );\n\n        bytes32 hashMsg = keccak256(\n            abi.encode(\n                __STR_OCREQUEST_HASH__,\n                keccak256( abi.encodePacked( _name ) ),\n                keccak256( abi.encodePacked( _description ) )\n            )\n        );\n\n        bytes32 singhash = keccak256( abi.encodePacked( \"\\x19\\x01\", hashEIP712Domain, hashMsg ) );\n\n        return SignerOfMsg( singhash, _signature );\n    }\n\n\n    function SignerOCNewCLH(\n        string memory _houseName,\n        bool _housePrivate,\n        bool _houseOpen,\n        bytes32 _govModel,\n        uint256 _govRuleMaxUsers,\n        uint256 _govRuleMaxManagers,\n        uint256 _govRuleApprovPercentage,\n        address _whiteListWallets,\n        address _addrCLF,\n        bytes memory _signature\n    ) \n        external view\n        returns( address )\n    {\n        bytes32 hashEIP712Domain = keccak256(\n            abi.encode(\n                __STR_EIP712DOMAIN_HASH__,\n                __CONTRACT_NAME_HASH__,\n                __CONTRACT_VERSION_HASH__,\n                block.chainid,\n                _addrCLF\n            )\n        );\n\n        bytes32 hashMsg = keccak256(\n            abi.encode(\n                __STR_OCNEWCLH_HASH__,\n                keccak256( abi.encodePacked( _houseName ) ),\n                _housePrivate,\n                _houseOpen,\n                _govModel,\n                _govRuleMaxUsers,\n                _govRuleMaxManagers,\n                _govRuleApprovPercentage,\n                _whiteListWallets\n                // keccak256( abi.encodePacked( _whiteListWallets ) )\n            )\n        );\n\n        bytes32 singhash = keccak256( abi.encodePacked( \"\\x19\\x01\", hashEIP712Domain, hashMsg ) );\n\n        return SignerOfMsg( singhash, _signature );\n    }\n}",
  "sourcePath": "contracts/APICLH/CLHouseApi.sol",
  "type": "contract"
}