{
  "abi": [
    {
      "inputs": [],
      "stateMutability": "nonpayable",
      "type": "constructor"
    },
    {
      "anonymous": false,
      "inputs": [
        {
          "indexed": false,
          "internalType": "uint8",
          "name": "version",
          "type": "uint8"
        }
      ],
      "name": "Initialized",
      "type": "event"
    },
    {
      "anonymous": false,
      "inputs": [
        {
          "indexed": false,
          "internalType": "uint256",
          "name": "newApprovPercentage",
          "type": "uint256"
        }
      ],
      "name": "evtChangeGovRules",
      "type": "event"
    },
    {
      "anonymous": false,
      "inputs": [
        {
          "indexed": false,
          "internalType": "string",
          "name": "newHouseName",
          "type": "string"
        }
      ],
      "name": "evtChangeHouseName",
      "type": "event"
    },
    {
      "anonymous": false,
      "inputs": [
        {
          "indexed": false,
          "internalType": "enum proposalEvent",
          "name": "eventProposal",
          "type": "uint8"
        },
        {
          "indexed": false,
          "internalType": "uint256",
          "name": "propId",
          "type": "uint256"
        },
        {
          "indexed": false,
          "internalType": "enum proposalType",
          "name": "typeProposal",
          "type": "uint8"
        },
        {
          "indexed": false,
          "internalType": "string",
          "name": "description",
          "type": "string"
        },
        {
          "indexed": false,
          "internalType": "address",
          "name": "realSender",
          "type": "address"
        }
      ],
      "name": "evtProposal",
      "type": "event"
    },
    {
      "anonymous": false,
      "inputs": [
        {
          "indexed": false,
          "internalType": "enum userEvent",
          "name": "eventUser",
          "type": "uint8"
        },
        {
          "indexed": false,
          "internalType": "address",
          "name": "walletAddr",
          "type": "address"
        },
        {
          "indexed": false,
          "internalType": "string",
          "name": "name",
          "type": "string"
        }
      ],
      "name": "evtUser",
      "type": "event"
    },
    {
      "anonymous": false,
      "inputs": [
        {
          "indexed": false,
          "internalType": "uint256",
          "name": "propId",
          "type": "uint256"
        },
        {
          "indexed": false,
          "internalType": "bool",
          "name": "position",
          "type": "bool"
        },
        {
          "indexed": false,
          "internalType": "address",
          "name": "voter",
          "type": "address"
        },
        {
          "indexed": false,
          "internalType": "string",
          "name": "justification",
          "type": "string"
        }
      ],
      "name": "evtVoted",
      "type": "event"
    },
    {
      "inputs": [
        {
          "internalType": "bool",
          "name": "_acceptance",
          "type": "bool"
        },
        {
          "internalType": "string",
          "name": "_nickname",
          "type": "string"
        },
        {
          "internalType": "bytes",
          "name": "_signature",
          "type": "bytes"
        }
      ],
      "name": "AcceptRejectInvitation",
      "outputs": [],
      "stateMutability": "nonpayable",
      "type": "function"
    },
    {
      "inputs": [
        {
          "internalType": "uint256",
          "name": "_expirationDuration",
          "type": "uint256"
        },
        {
          "internalType": "uint256",
          "name": "_keyPrice",
          "type": "uint256"
        },
        {
          "internalType": "uint256",
          "name": "_maxNumberOfKeys",
          "type": "uint256"
        },
        {
          "internalType": "string",
          "name": "_lockName",
          "type": "string"
        },
        {
          "internalType": "bytes",
          "name": "_signature",
          "type": "bytes"
        }
      ],
      "name": "CreateLock",
      "outputs": [
        {
          "internalType": "address",
          "name": "",
          "type": "address"
        }
      ],
      "stateMutability": "nonpayable",
      "type": "function"
    },
    {
      "inputs": [
        {
          "internalType": "uint256",
          "name": "_propId",
          "type": "uint256"
        }
      ],
      "name": "ExecProp",
      "outputs": [
        {
          "internalType": "bool",
          "name": "status",
          "type": "bool"
        },
        {
          "internalType": "string",
          "name": "message",
          "type": "string"
        }
      ],
      "stateMutability": "nonpayable",
      "type": "function"
    },
    {
      "inputs": [],
      "name": "GetArrDataPropUser",
      "outputs": [
        {
          "components": [
            {
              "internalType": "address",
              "name": "walletAddr",
              "type": "address"
            },
            {
              "internalType": "string",
              "name": "name",
              "type": "string"
            },
            {
              "internalType": "bool",
              "name": "isManager",
              "type": "bool"
            }
          ],
          "internalType": "struct strDataUser[]",
          "name": "",
          "type": "tuple[]"
        }
      ],
      "stateMutability": "view",
      "type": "function"
    },
    {
      "inputs": [],
      "name": "GetArrProposalsLength",
      "outputs": [
        {
          "internalType": "uint256",
          "name": "",
          "type": "uint256"
        }
      ],
      "stateMutability": "view",
      "type": "function"
    },
    {
      "inputs": [],
      "name": "GetArrUsersLength",
      "outputs": [
        {
          "internalType": "uint256",
          "name": "",
          "type": "uint256"
        }
      ],
      "stateMutability": "view",
      "type": "function"
    },
    {
      "inputs": [],
      "name": "GetCLHouseVersion",
      "outputs": [
        {
          "internalType": "string",
          "name": "",
          "type": "string"
        }
      ],
      "stateMutability": "view",
      "type": "function"
    },
    {
      "inputs": [],
      "name": "GetProposalList",
      "outputs": [
        {
          "components": [
            {
              "internalType": "address",
              "name": "proponent",
              "type": "address"
            },
            {
              "internalType": "enum proposalType",
              "name": "typeProposal",
              "type": "uint8"
            },
            {
              "internalType": "string",
              "name": "description",
              "type": "string"
            },
            {
              "internalType": "uint256",
              "name": "propDataId",
              "type": "uint256"
            },
            {
              "internalType": "uint256",
              "name": "numVotes",
              "type": "uint256"
            },
            {
              "internalType": "uint256",
              "name": "againstVotes",
              "type": "uint256"
            },
            {
              "internalType": "bool",
              "name": "executed",
              "type": "bool"
            },
            {
              "internalType": "bool",
              "name": "rejected",
              "type": "bool"
            },
            {
              "internalType": "uint256",
              "name": "deadline",
              "type": "uint256"
            }
          ],
          "internalType": "struct strProposal[]",
          "name": "",
          "type": "tuple[]"
        }
      ],
      "stateMutability": "view",
      "type": "function"
    },
    {
      "inputs": [],
      "name": "HouseProperties",
      "outputs": [
        {
          "internalType": "string",
          "name": "clhName",
          "type": "string"
        },
        {
          "internalType": "bool[2]",
          "name": "booleanVar",
          "type": "bool[2]"
        },
        {
          "internalType": "uint256[5]",
          "name": "uint256Var",
          "type": "uint256[5]"
        },
        {
          "internalType": "address[6]",
          "name": "addressVar",
          "type": "address[6]"
        },
        {
          "internalType": "bytes32",
          "name": "govModelVar",
          "type": "bytes32"
        }
      ],
      "stateMutability": "view",
      "type": "function"
    },
    {
      "inputs": [
        {
          "internalType": "address",
          "name": "_owner",
          "type": "address"
        },
        {
          "internalType": "string",
          "name": "_houseName",
          "type": "string"
        },
        {
          "internalType": "bool",
          "name": "_housePrivate",
          "type": "bool"
        },
        {
          "internalType": "bool",
          "name": "_houseOpen",
          "type": "bool"
        },
        {
          "internalType": "uint256",
          "name": "_govRuleMaxUsers",
          "type": "uint256"
        },
        {
          "internalType": "address[7]",
          "name": "_CLC",
          "type": "address[7]"
        }
      ],
      "name": "Init",
      "outputs": [],
      "stateMutability": "nonpayable",
      "type": "function"
    },
    {
      "inputs": [
        {
          "internalType": "address",
          "name": "_walletAddr",
          "type": "address"
        },
        {
          "internalType": "string",
          "name": "_nickname",
          "type": "string"
        },
        {
          "internalType": "string",
          "name": "_description",
          "type": "string"
        },
        {
          "internalType": "bool",
          "name": "_isManager",
          "type": "bool"
        },
        {
          "internalType": "uint256",
          "name": "_delayTime",
          "type": "uint256"
        },
        {
          "internalType": "bytes",
          "name": "_signature",
          "type": "bytes"
        }
      ],
      "name": "PropInvitUser",
      "outputs": [
        {
          "internalType": "uint256",
          "name": "propId",
          "type": "uint256"
        }
      ],
      "stateMutability": "nonpayable",
      "type": "function"
    },
    {
      "inputs": [
        {
          "internalType": "address",
          "name": "_walletAddr",
          "type": "address"
        },
        {
          "internalType": "string",
          "name": "_description",
          "type": "string"
        },
        {
          "internalType": "uint256",
          "name": "_delayTime",
          "type": "uint256"
        },
        {
          "internalType": "bytes",
          "name": "_signature",
          "type": "bytes"
        }
      ],
      "name": "PropRemoveUser",
      "outputs": [
        {
          "internalType": "uint256",
          "name": "propId",
          "type": "uint256"
        }
      ],
      "stateMutability": "nonpayable",
      "type": "function"
    },
    {
      "inputs": [
        {
          "internalType": "string",
          "name": "_name",
          "type": "string"
        },
        {
          "internalType": "string",
          "name": "_description",
          "type": "string"
        },
        {
          "internalType": "address",
          "name": "_signerWallet",
          "type": "address"
        },
        {
          "internalType": "bytes",
          "name": "_signature",
          "type": "bytes"
        }
      ],
      "name": "PropRequestToJoin",
      "outputs": [
        {
          "internalType": "uint256",
          "name": "",
          "type": "uint256"
        }
      ],
      "stateMutability": "nonpayable",
      "type": "function"
    },
    {
      "inputs": [
        {
          "internalType": "address",
          "name": "_whiteListNFT",
          "type": "address"
        }
      ],
      "name": "SetWhitelistCollection",
      "outputs": [],
      "stateMutability": "nonpayable",
      "type": "function"
    },
    {
      "inputs": [
        {
          "internalType": "string",
          "name": "_houseName",
          "type": "string"
        }
      ],
      "name": "UpdateHouseName",
      "outputs": [],
      "stateMutability": "nonpayable",
      "type": "function"
    },
    {
      "inputs": [
        {
          "internalType": "uint256",
          "name": "_propId",
          "type": "uint256"
        },
        {
          "internalType": "bool",
          "name": "_support",
          "type": "bool"
        },
        {
          "internalType": "string",
          "name": "_justification",
          "type": "string"
        },
        {
          "internalType": "bytes",
          "name": "_signature",
          "type": "bytes"
        }
      ],
      "name": "VoteProposal",
      "outputs": [],
      "stateMutability": "nonpayable",
      "type": "function"
    },
    {
      "inputs": [
        {
          "internalType": "uint256",
          "name": "",
          "type": "uint256"
        }
      ],
      "name": "arrDataPropGovRules",
      "outputs": [
        {
          "internalType": "uint256",
          "name": "newApprovPercentage",
          "type": "uint256"
        }
      ],
      "stateMutability": "view",
      "type": "function"
    },
    {
      "inputs": [
        {
          "internalType": "uint256",
          "name": "",
          "type": "uint256"
        }
      ],
      "name": "arrDataPropUser",
      "outputs": [
        {
          "internalType": "address",
          "name": "walletAddr",
          "type": "address"
        },
        {
          "internalType": "string",
          "name": "name",
          "type": "string"
        },
        {
          "internalType": "bool",
          "name": "isManager",
          "type": "bool"
        }
      ],
      "stateMutability": "view",
      "type": "function"
    },
    {
      "inputs": [
        {
          "internalType": "uint256",
          "name": "",
          "type": "uint256"
        }
      ],
      "name": "arrProposals",
      "outputs": [
        {
          "internalType": "address",
          "name": "proponent",
          "type": "address"
        },
        {
          "internalType": "enum proposalType",
          "name": "typeProposal",
          "type": "uint8"
        },
        {
          "internalType": "string",
          "name": "description",
          "type": "string"
        },
        {
          "internalType": "uint256",
          "name": "propDataId",
          "type": "uint256"
        },
        {
          "internalType": "uint256",
          "name": "numVotes",
          "type": "uint256"
        },
        {
          "internalType": "uint256",
          "name": "againstVotes",
          "type": "uint256"
        },
        {
          "internalType": "bool",
          "name": "executed",
          "type": "bool"
        },
        {
          "internalType": "bool",
          "name": "rejected",
          "type": "bool"
        },
        {
          "internalType": "uint256",
          "name": "deadline",
          "type": "uint256"
        }
      ],
      "stateMutability": "view",
      "type": "function"
    },
    {
      "inputs": [
        {
          "internalType": "uint256",
          "name": "",
          "type": "uint256"
        }
      ],
      "name": "arrUsers",
      "outputs": [
        {
          "internalType": "address",
          "name": "",
          "type": "address"
        }
      ],
      "stateMutability": "view",
      "type": "function"
    },
    {
      "inputs": [
        {
          "internalType": "uint256[]",
          "name": "_propIds",
          "type": "uint256[]"
        },
        {
          "internalType": "bool",
          "name": "_support",
          "type": "bool"
        },
        {
          "internalType": "string",
          "name": "_justification",
          "type": "string"
        },
        {
          "internalType": "bytes",
          "name": "_signature",
          "type": "bytes"
        }
      ],
      "name": "bulkVote",
      "outputs": [],
      "stateMutability": "nonpayable",
      "type": "function"
    },
    {
      "inputs": [
        {
          "internalType": "address",
          "name": "",
          "type": "address"
        }
      ],
      "name": "mapReq2Join",
      "outputs": [
        {
          "internalType": "uint256",
          "name": "",
          "type": "uint256"
        }
      ],
      "stateMutability": "view",
      "type": "function"
    },
    {
      "inputs": [
        {
          "internalType": "address",
          "name": "",
          "type": "address"
        }
      ],
      "name": "mapUsers",
      "outputs": [
        {
          "internalType": "uint256",
          "name": "userID",
          "type": "uint256"
        },
        {
          "internalType": "string",
          "name": "nickname",
          "type": "string"
        },
        {
          "internalType": "bool",
          "name": "isManager",
          "type": "bool"
        }
      ],
      "stateMutability": "view",
      "type": "function"
    },
    {
      "inputs": [
        {
          "internalType": "uint256",
          "name": "",
          "type": "uint256"
        },
        {
          "internalType": "address",
          "name": "",
          "type": "address"
        }
      ],
      "name": "mapVotes",
      "outputs": [
        {
          "internalType": "bool",
          "name": "voted",
          "type": "bool"
        },
        {
          "internalType": "bool",
          "name": "inSupport",
          "type": "bool"
        },
        {
          "internalType": "string",
          "name": "justification",
          "type": "string"
        }
      ],
      "stateMutability": "view",
      "type": "function"
    },
    {
      "inputs": [],
      "name": "numUsers",
      "outputs": [
        {
          "internalType": "uint256",
          "name": "",
          "type": "uint256"
        }
      ],
      "stateMutability": "view",
      "type": "function"
    }
  ],
  "bytecode": "60806040523480156200001157600080fd5b506200001c62000022565b620000f1565b60c654600160a81b900460ff1615620000915760405162461bcd60e51b815260206004820152602760248201527f496e697469616c697a61626c653a20636f6e747261637420697320696e697469604482015266616c697a696e6760c81b606482015260840160405180910390fd5b60c65460ff600160a01b90910481161015620000ef5760c6805460ff60a01b191660ff60a01b17905560405160ff81527f7f26b83ff96e1f2b6a682f133852f6798a09c465da95921460cefb38474024989060200160405180910390a15b565b6126b480620001016000396000f3fe608060405234801561001057600080fd5b50600436106101735760003560e01c8063840d30b4116100de578063b4c6219211610097578063cb85669c11610071578063cb85669c14610360578063de8b9e6d14610388578063fc9db38c146103a1578063fe0298db146103b457600080fd5b8063b4c6219214610316578063c2b3aa081461032b578063c347d2fd1461033e57600080fd5b8063840d30b414610293578063860228fd146102a65780639d2fcb87146102c6578063a1c89c9d146102e8578063a693649a146102fb578063ad7cceeb1461030357600080fd5b80632a57ef84116101305780632a57ef841461021c5780633a70693d1461022f5780634e9d547214610242578063504805501461024a5780635b4587e11461025f5780635f3d99b31461027257600080fd5b806302e2d5251461017857806312eab7ff1461019e5780631707ace8146101b157806319a50f49146101d357806322b4081c146101dc57806329647ee514610207575b600080fd5b61018b610186366004611a13565b6103db565b6040519081526020015b60405180910390f35b61018b6101ac366004611ac7565b610512565b6101c46101bf366004611b64565b61063b565b60405161019593929190611bd5565b61018b60025481565b6101ef6101ea366004611b64565b610706565b6040516001600160a01b039091168152602001610195565b61020f610730565b6040516101959190611c0b565b61018b61022a366004611c99565b610849565b61018b61023d366004611b64565b61097a565b60835461018b565b61025d610258366004611d00565b61099b565b005b61025d61026d366004611d3d565b6109f2565b610285610280366004611b64565b610baf565b604051610195929190611e12565b61025d6102a1366004611e2d565b610d15565b61018b6102b4366004611e2d565b60a36020526000908152604090205481565b6102d96102d4366004611e2d565b610d40565b60405161019593929190611e51565b61025d6102f6366004611e6a565b610d62565b60825461018b565b61025d610311366004611f51565b610e25565b61031e610f42565b6040516101959190611ffd565b61025d6103393660046120c4565b6110c0565b61035161034c366004612107565b6111e0565b60405161019593929190612137565b61037361036e366004611b64565b61129d565b60405161019599989796959493929190612163565b610390611396565b6040516101959594939291906121f6565b6101ef6103af366004612280565b6114f3565b60408051808201825260058152640302e322e360dc1b602082015290516101959190612301565b60008060c260009054906101000a90046001600160a01b03166001600160a01b031663a327ab696040518163ffffffff1660e01b8152600401602060405180830381865afa158015610431573d6000803e3d6000fd5b505050506040513d601f19601f820116820180604052508101906104559190612314565b6001600160a01b031688888888888860405160240161047996959493929190612331565b60408051601f198184030181529181526020820180516001600160e01b03166302e2d52560e01b179052516104ae9190612396565b600060405180830381855af49150503d80600081146104e9576040519150601f19603f3d011682016040523d82523d6000602084013e6104ee565b606091505b505090506040513d806000833e82610504578082fd5b505198975050505050505050565b60008060c260009054906101000a90046001600160a01b03166001600160a01b031663a327ab696040518163ffffffff1660e01b8152600401602060405180830381865afa158015610568573d6000803e3d6000fd5b505050506040513d601f19601f8201168201806040525081019061058c9190612314565b6001600160a01b0316868686866040516024016105ac94939291906123b2565b60408051601f198184030181529181526020820180516001600160e01b03166312eab7ff60e01b179052516105e19190612396565b600060405180830381855af49150503d806000811461061c576040519150601f19603f3d011682016040523d82523d6000602084013e610621565b606091505b505090506040513d806000833e82610637578082fd5b8082f35b6084818154811061064b57600080fd5b6000918252602090912060039091020180546001820180546001600160a01b0390921693509061067a90612405565b80601f01602080910402602001604051908101604052809291908181526020018280546106a690612405565b80156106f35780601f106106c8576101008083540402835291602001916106f3565b820191906000526020600020905b8154815290600101906020018083116106d657829003601f168201915b5050506002909301549192505060ff1683565b6082818154811061071657600080fd5b6000918252602090912001546001600160a01b0316905081565b60606084805480602002602001604051908101604052809291908181526020016000905b8282101561084057600084815260209081902060408051606081019091526003850290910180546001600160a01b03168252600181018054929391929184019161079d90612405565b80601f01602080910402602001604051908101604052809291908181526020018280546107c990612405565b80156108165780601f106107eb57610100808354040283529160200191610816565b820191906000526020600020905b8154815290600101906020018083116107f957829003601f168201915b50505091835250506002919091015460ff1615156020918201529082526001929092019101610754565b50505050905090565b60008060c260009054906101000a90046001600160a01b03166001600160a01b031663a327ab696040518163ffffffff1660e01b8152600401602060405180830381865afa15801561089f573d6000803e3d6000fd5b505050506040513d601f19601f820116820180604052508101906108c39190612314565b6001600160a01b0316868686866040516024016108e39493929190612440565b60408051601f198184030181529181526020820180516001600160e01b0316630a95fbe160e21b179052516109189190612396565b600060405180830381855af49150503d8060008114610953576040519150601f19603f3d011682016040523d82523d6000602084013e610958565b606091505b505090506040513d806000833e8261096e578082fd5b50519695505050505050565b6085818154811061098a57600080fd5b600091825260209091200154905081565b6109a433611758565b80516109b7906042906020840190611816565b507f73953e03045e488edd13f25c9d9edd63f428d1377dc078e01a6399038e58a837816040516109e79190612301565b60405180910390a150565b60c654600190600160a81b900460ff16158015610a1d575060c65460ff808316600160a01b90920416105b610a855760405162461bcd60e51b815260206004820152602e60248201527f496e697469616c697a61626c653a20636f6e747261637420697320616c72656160448201526d191e481a5b9a5d1a585b1a5e995960921b60648201526084015b60405180910390fd5b60c6805460ff60a81b1960ff8416600160a01b021661ffff60a01b1990911617600160a81b17905581516040516000916001600160a01b031690610ad7908a908a908a908a908a908a9060240161247c565b60408051601f198184030181529181526020820180516001600160e01b03166353858fbf60e11b17905251610b0c9190612396565b600060405180830381855af49150503d8060008114610b47576040519150601f19603f3d011682016040523d82523d6000602084013e610b4c565b606091505b5050905080610b62576040513d806000833e8082fd5b5060c6805460ff60a81b1916905560405160ff821681527f7f26b83ff96e1f2b6a682f133852f6798a09c465da95921460cefb38474024989060200160405180910390a150505050505050565b60006060600060c260009054906101000a90046001600160a01b03166001600160a01b031663a327ab696040518163ffffffff1660e01b8152600401602060405180830381865afa158015610c08573d6000803e3d6000fd5b505050506040513d601f19601f82011682018060405250810190610c2c9190612314565b6001600160a01b031684604051602401610c4891815260200190565b60408051601f198184030181529181526020820180516001600160e01b0316635f3d99b360e01b17905251610c7d9190612396565b600060405180830381855af49150503d8060008114610cb8576040519150601f19603f3d011682016040523d82523d6000602084013e610cbd565b606091505b5050905080610cd3576040513d806000833e8082fd5b60016040518060400160405280601981526020017f537563636573732065786563757465642070726f706f73616c000000000000008152509250925050915091565b610d1e33611758565b602280546001600160a01b0319166001600160a01b0392909216919091179055565b60a2602052600090815260409020805460018201805491929161067a90612405565b60c2546040805163a327ab6960e01b815290516000926001600160a01b03169163a327ab699160048083019260209291908290030181865afa158015610dac573d6000803e3d6000fd5b505050506040513d601f19601f82011682018060405250810190610dd09190612314565b6001600160a01b031685858585604051602401610df094939291906124f5565b60408051601f198184030181529181526020820180516001600160e01b031663a1c89c9d60e01b179052516105e19190612396565b60c2546040805163529382d560e01b815290516000926001600160a01b03169163529382d59160048083019260209291908290030181865afa158015610e6f573d6000803e3d6000fd5b505050506040513d601f19601f82011682018060405250810190610e939190612314565b6001600160a01b0316848484604051602401610eb19392919061255f565b60408051601f198184030181529181526020820180516001600160e01b031663ad7cceeb60e01b17905251610ee69190612396565b600060405180830381855af49150503d8060008114610f21576040519150601f19603f3d011682016040523d82523d6000602084013e610f26565b606091505b5050905080610f3c576040513d806000833e8082fd5b50505050565b60606083805480602002602001604051908101604052809291908181526020016000905b828210156108405760008481526020908190206040805161012081019091526007850290910180546001600160a01b03811683529192909190830190600160a01b900460ff166003811115610fbd57610fbd611fc5565b6003811115610fce57610fce611fc5565b8152602001600182018054610fe290612405565b80601f016020809104026020016040519081016040528092919081815260200182805461100e90612405565b801561105b5780601f106110305761010080835404028352916020019161105b565b820191906000526020600020905b81548152906001019060200180831161103e57829003601f168201915b505050918352505060028201546020808301919091526003830154604083015260048301546060830152600583015460ff8082161515608085015261010090910416151560a083015260069092015460c0909101529082526001929092019101610f66565b60c2546040805163a327ab6960e01b815290516000926001600160a01b03169163a327ab699160048083019260209291908290030181865afa15801561110a573d6000803e3d6000fd5b505050506040513d601f19601f8201168201806040525081019061112e9190612314565b6001600160a01b03168585858560405160240161114e9493929190612596565b60408051601f198184030181529181526020820180516001600160e01b0316631856754160e31b179052516111839190612396565b600060405180830381855af49150503d80600081146111be576040519150601f19603f3d011682016040523d82523d6000602084013e6111c3565b606091505b50509050806111d9576040513d806000833e8082fd5b5050505050565b60a46020908152600092835260408084209091529082529020805460018201805460ff808416946101009094041692919061121a90612405565b80601f016020809104026020016040519081016040528092919081815260200182805461124690612405565b80156112935780601f1061126857610100808354040283529160200191611293565b820191906000526020600020905b81548152906001019060200180831161127657829003601f168201915b5050505050905083565b608381815481106112ad57600080fd5b6000918252602090912060079091020180546001820180546001600160a01b0383169450600160a01b90920460ff1692916112e790612405565b80601f016020809104026020016040519081016040528092919081815260200182805461131390612405565b80156113605780601f1061133557610100808354040283529160200191611360565b820191906000526020600020905b81548152906001019060200180831161134357829003601f168201915b505050600284015460038501546004860154600587015460069097015495969295919450925060ff808316926101009004169089565b60606113a061189a565b6113a86118b8565b6113b06118d6565b6000604280546113bf90612405565b80601f01602080910402602001604051908101604052809291908181526020018280546113eb90612405565b80156114385780601f1061140d57610100808354040283529160200191611438565b820191906000526020600020905b81548152906001019060200180831161141b57829003601f168201915b50506000805494995060ff9094169388935091506114539050565b91151560209283029190910152600054610100900460ff1615158582015260025484526003548482015260045460408086019190915260055460608087019190915260065460808088019190915260c2546001600160a01b03908116875260c35481169487019490945260c45484169286019290925260c55483169085015260c6548216908401526022541660a083015250606254939492939192909190565b80516000903390604114156115885760c3546040516306d7f81b60e11b81526001600160a01b0390911690630daff0369061153c908a908a908a908a9030908b906004016125c9565b602060405180830381865afa158015611559573d6000803e3d6000fd5b505050506040513d601f19601f8201168201806040525081019061157d9190612314565b9050611588816117c0565b61159181611758565b6000818860008989896040516024016115af9695949392919061260f565b60408051601f198184030181529190526020810180516001600160e01b0316636eadde4360e01b179052905060006005461415611601575073627118a4fb747016911e5cda82e2e77c531e82066116b7565b4660891415611625575073e8e5cd156f89f7bdb267eabd5c43af3d5af2a78f6116b7565b4662013881141561164b5750731ff7e338d5e582138c46044dc238543ce555c9636116b7565b466001141561166f5750733d5409cce1d45233de1d4ebdee74b8e004abdd136116b7565b60405162461bcd60e51b815260206004820152601d60248201527f4372656174654c6f636b3a20756e737570706f7274656420636861696e0000006044820152606401610a7c565b60405163243d453b60e11b815281906001600160a01b0382169063487a8a76906116e8908690600b90600401612658565b6020604051808303816000875af1158015611707573d6000803e3d6000fd5b505050506040513d601f19601f8201168201806040525081019061172b9190612314565b602280546001600160a01b0319166001600160a01b039290921691821790559a9950505050505050505050565b6001600160a01b038116600090815260a2602052604090206002015460ff1615156001146117bd5760405162461bcd60e51b81526020600482015260126024820152714e6f74206d616e616765722072696768747360701b6044820152606401610a7c565b50565b6001600160a01b0381166117bd5760405162461bcd60e51b815260206004820152601860248201527f45434453413a20696e76616c6964207369676e617475726500000000000000006044820152606401610a7c565b82805461182290612405565b90600052602060002090601f016020900481019282611844576000855561188a565b82601f1061185d57805160ff191683800117855561188a565b8280016001018555821561188a579182015b8281111561188a57825182559160200191906001019061186f565b506118969291506118f4565b5090565b60405180604001604052806002906020820280368337509192915050565b6040518060a001604052806005906020820280368337509192915050565b6040518060c001604052806006906020820280368337509192915050565b5b8082111561189657600081556001016118f5565b6001600160a01b03811681146117bd57600080fd5b634e487b7160e01b600052604160045260246000fd5b60405160e0810167ffffffffffffffff811182821017156119575761195761191e565b60405290565b604051601f8201601f1916810167ffffffffffffffff811182821017156119865761198661191e565b604052919050565b600082601f83011261199f57600080fd5b813567ffffffffffffffff8111156119b9576119b961191e565b6119cc601f8201601f191660200161195d565b8181528460208386010111156119e157600080fd5b816020850160208301376000918101602001919091529392505050565b80358015158114611a0e57600080fd5b919050565b60008060008060008060c08789031215611a2c57600080fd5b8635611a3781611909565b9550602087013567ffffffffffffffff80821115611a5457600080fd5b611a608a838b0161198e565b96506040890135915080821115611a7657600080fd5b611a828a838b0161198e565b9550611a9060608a016119fe565b94506080890135935060a0890135915080821115611aad57600080fd5b50611aba89828a0161198e565b9150509295509295509295565b60008060008060808587031215611add57600080fd5b843567ffffffffffffffff80821115611af557600080fd5b611b018883890161198e565b95506020870135915080821115611b1757600080fd5b611b238883890161198e565b945060408701359150611b3582611909565b90925060608601359080821115611b4b57600080fd5b50611b588782880161198e565b91505092959194509250565b600060208284031215611b7657600080fd5b5035919050565b60005b83811015611b98578181015183820152602001611b80565b83811115610f3c5750506000910152565b60008151808452611bc1816020860160208601611b7d565b601f01601f19169290920160200192915050565b6001600160a01b0384168152606060208201819052600090611bf990830185611ba9565b90508215156040830152949350505050565b60006020808301818452808551808352604092508286019150828160051b87010184880160005b83811015611c8b57888303603f19018552815180516001600160a01b0316845287810151606089860181905290611c6b82870182611ba9565b928901511515958901959095525094870194925090860190600101611c32565b509098975050505050505050565b60008060008060808587031215611caf57600080fd5b8435611cba81611909565b9350602085013567ffffffffffffffff80821115611cd757600080fd5b611ce38883890161198e565b9450604087013593506060870135915080821115611b4b57600080fd5b600060208284031215611d1257600080fd5b813567ffffffffffffffff811115611d2957600080fd5b611d358482850161198e565b949350505050565b60008060008060008061018080888a031215611d5857600080fd5b8735611d6381611909565b965060208881013567ffffffffffffffff811115611d8057600080fd5b611d8c8b828c0161198e565b975050611d9b60408a016119fe565b9550611da960608a016119fe565b9450608089013593508960bf8a0112611dc157600080fd5b611dc9611934565b91890191808b841115611ddb57600080fd5b60a08b015b84811015611e00578035611df381611909565b8352918301918301611de0565b50809450505050509295509295509295565b8215158152604060208201526000611d356040830184611ba9565b600060208284031215611e3f57600080fd5b8135611e4a81611909565b9392505050565b838152606060208201526000611bf96060830185611ba9565b60008060008060808587031215611e8057600080fd5b843567ffffffffffffffff80821115611e9857600080fd5b818701915087601f830112611eac57600080fd5b8135602082821115611ec057611ec061191e565b8160051b611ecf82820161195d565b928352848101820192828101908c851115611ee957600080fd5b958301955b84871015611f0757863582529583019590830190611eee565b9950611f179150508982016119fe565b965050506040870135915080821115611f2f57600080fd5b611f3b8883890161198e565b93506060870135915080821115611b4b57600080fd5b600080600060608486031215611f6657600080fd5b611f6f846119fe565b9250602084013567ffffffffffffffff80821115611f8c57600080fd5b611f988783880161198e565b93506040860135915080821115611fae57600080fd5b50611fbb8682870161198e565b9150509250925092565b634e487b7160e01b600052602160045260246000fd5b60048110611ff957634e487b7160e01b600052602160045260246000fd5b9052565b60006020808301818452808551808352604092508286019150828160051b87010184880160005b83811015611c8b57888303603f19018552815180516001600160a01b03168452610120888201516120578a870182611fdb565b5087820151818987015261206d82870182611ba9565b606084810151908801526080808501519088015260a0808501519088015260c08085015115159088015260e08085015115159088015261010093840151939096019290925250509386019390860190600101612024565b600080600080608085870312156120da57600080fd5b843593506120ea602086016119fe565b9250604085013567ffffffffffffffff80821115611f2f57600080fd5b6000806040838503121561211a57600080fd5b82359150602083013561212c81611909565b809150509250929050565b8315158152821515602082015260606040820152600061215a6060830184611ba9565b95945050505050565b6001600160a01b038a1681526000610120612181602084018c611fdb565b8060408401526121938184018b611ba9565b60608401999099525050608081019590955260a085019390935290151560c0840152151560e0830152610100909101529392505050565b8060005b6006811015610f3c5781516001600160a01b03168452602093840193909101906001016121ce565b60006101e080835261220a81840189611ba9565b91505060208083018760005b6002811015612235578151151583529183019190830190600101612216565b505050606083018660005b600581101561225d57815183529183019190830190600101612240565b5050505061226f6101008301856121ca565b826101c08301529695505050505050565b600080600080600060a0868803121561229857600080fd5b853594506020860135935060408601359250606086013567ffffffffffffffff808211156122c557600080fd5b6122d189838a0161198e565b935060808801359150808211156122e757600080fd5b506122f48882890161198e565b9150509295509295909350565b602081526000611e4a6020830184611ba9565b60006020828403121561232657600080fd5b8151611e4a81611909565b6001600160a01b038716815260c06020820181905260009061235590830188611ba9565b82810360408401526123678188611ba9565b9050851515606084015284608084015282810360a08401526123898185611ba9565b9998505050505050505050565b600082516123a8818460208701611b7d565b9190910192915050565b6080815260006123c56080830187611ba9565b82810360208401526123d78187611ba9565b6001600160a01b0386166040850152838103606085015290506123fa8185611ba9565b979650505050505050565b600181811c9082168061241957607f821691505b6020821081141561243a57634e487b7160e01b600052602260045260246000fd5b50919050565b6001600160a01b038516815260806020820181905260009061246490830186611ba9565b84604084015282810360608401526123fa8185611ba9565b6001600160a01b0387811682526101806020808401829052600092906124a48584018b611ba9565b93508815156040860152871515606086015286608086015260a0850192508560005b60078110156124e55781518416855293820193908201906001016124c6565b5050505050979650505050505050565b6080808252855190820181905260009060209060a0840190828901845b8281101561252e57815184529284019290840190600101612512565b50505086151582850152838103604085015261254a8187611ba9565b91505082810360608401526123fa8185611ba9565b831515815260606020820152600061257a6060830185611ba9565b828103604084015261258c8185611ba9565b9695505050505050565b84815283151560208201526080604082015260006125b76080830185611ba9565b82810360608401526123fa8185611ba9565b86815285602082015284604082015260c0606082015260006125ee60c0830186611ba9565b6001600160a01b038516608084015282810360a08401526123898185611ba9565b600060018060a01b03808916835287602084015280871660408401525084606083015283608083015260c060a083015261264c60c0830184611ba9565b98975050505050505050565b60408152600061266b6040830185611ba9565b905061ffff83166020830152939250505056fea264697066735822122092ad07753e62ded686d5236454377d54fb58e64eee050e09fdc3e5e4d58e967064736f6c634300080c0033",
  "bytecodeSha1": "bf310c8092ec02dfdd3ae3533020efeb0eb31491",
  "compiler": {
    "evm_version": "istanbul",
    "optimizer": {
      "enabled": true,
      "runs": 200
    },
    "version": "0.8.12+commit.f00d7308"
  },
  "contractName": "CLHouse",
  "language": "Solidity",
  "natspec": {
    "author": "Leonardo Urrego",
    "kind": "dev",
    "methods": {
      "AcceptRejectInvitation(bool,string,bytes)": {
        "notice": "For an user that have an invitation pending",
        "params": {
          "_acceptance": "True for accept the invitation",
          "_nickname": "A nickname for the user",
          "_signature": "EIP712 Signature"
        }
      },
      "CreateLock(uint256,uint256,uint256,string,bytes)": {
        "notice": "Create a new Lock proxy contract from Lock Factory",
        "params": {
          "_expirationDuration": "Expiration for lcok in seconds",
          "_keyPrice": "Price for each lock in wei",
          "_lockName": "Lock Name",
          "_maxNumberOfKeys": "How many locks",
          "_signature": "EIP712 Signature"
        },
        "returns": {
          "_0": "Contract address of the new lock"
        }
      },
      "ExecProp(uint256)": {
        "details": "Normally is called internally after each vote",
        "notice": "Execute (or reject) a proposal computing the votes and the governance model",
        "params": {
          "_propId": "ID of the proposal, based on `arrProposals`"
        },
        "returns": {
          "message": "result of the transaction",
          "status": "True if the proposal can be execute, false in other cases"
        }
      },
      "GetArrDataPropUser()": {
        "notice": "Get complete array of arrDataPropUser",
        "returns": {
          "_0": "arrDataPropUser the array with all data"
        }
      },
      "GetArrProposalsLength()": {
        "notice": "Length of arrProposals array"
      },
      "GetArrUsersLength()": {
        "notice": "Length of arrUsers array"
      },
      "GetCLHouseVersion()": {
        "notice": "Get a version of CLH",
        "returns": {
          "_0": "version"
        }
      },
      "GetProposalList()": {
        "notice": "The list of all Proposals",
        "returns": {
          "_0": "arrProposals the array with all proposals"
        }
      },
      "HouseProperties()": {
        "notice": "Retrieve some of the internal variables of the house"
      },
      "Init(address,string,bool,bool,uint256,address[7])": {
        "details": "This function can be called once after proxy creation",
        "notice": "Constructor of the new CLH",
        "params": {
          "_CLC": "Array for CL Contracts and others see `enum eCLC`",
          "_govRuleMaxUsers": "Max users in the house",
          "_houseName": "Name given by the owner",
          "_houseOpen": "If is set to 1, the CLH is set to Open",
          "_housePrivate": "If is set to 1, the CLH is set to private",
          "_owner": "The address of the owner"
        }
      },
      "PropInvitUser(address,string,string,bool,uint256,bytes)": {
        "details": "the execution of this proposal only create an invitation ",
        "notice": "Generate a new proposal to invite a new user",
        "params": {
          "_delayTime": "Time of live od the proposal in seconds",
          "_description": "A text for the proposal",
          "_isManager": "True if is for a manager",
          "_nickname": "Can be the nickname or other reference to the User",
          "_signature": "EIP712 Signature",
          "_walletAddr": "Wallet of the user"
        },
        "returns": {
          "propId": "ID of the new proposal, based on `arrProposals`"
        }
      },
      "PropRemoveUser(address,string,uint256,bytes)": {
        "details": "The user to remove can be a managaer",
        "notice": "Generate a new proposal for remove a user",
        "params": {
          "_delayTime": "Time of live od the proposal in seconds",
          "_description": "About the proposal",
          "_signature": "EIP712 Signature",
          "_walletAddr": "user Address to be removed"
        },
        "returns": {
          "propId": "ID of the new proposal, based on `arrProposals`"
        }
      },
      "PropRequestToJoin(string,string,address,bytes)": {
        "details": "Only avaiable in public CLH",
        "notice": "Generate a proposal from a user that want to join to the CLH",
        "params": {
          "_description": "About the request",
          "_name": "Nickname or other user identification",
          "_signature": "EIP712 Signature",
          "_signerWallet": "Address of signer to check OffChain signature"
        },
        "returns": {
          "_0": "propId ID of the new proposal, based on `arrProposals`"
        }
      },
      "SetWhitelistCollection(address)": {
        "notice": "Set a new NFT Collection for Invitations",
        "params": {
          "_whiteListNFT": "contract address of NFT"
        }
      },
      "UpdateHouseName(string)": {
        "notice": "Change the name of de House",
        "params": {
          "_houseName": "New House Name"
        }
      },
      "VoteProposal(uint256,bool,string,bytes)": {
        "details": "After vote the proposal automatically try to be executed",
        "notice": "Used to vote a proposal",
        "params": {
          "_justification": "About your vote",
          "_propId": "ID of the proposal, based on `arrProposals`",
          "_signature": "EIP712 Signature",
          "_support": "True for accept, false to reject"
        }
      },
      "bulkVote(uint256[],bool,string,bytes)": {
        "notice": "Vote for multiple proposal",
        "params": {
          "_justification": "Description of the vote",
          "_propIds": "Array with ID of the proposal to votes",
          "_signature": "EIP712 Signature",
          "_support": "is the Vote (True or False) for all proposals"
        }
      },
      "constructor": {
        "custom:oz-upgrades-unsafe-allow": "constructor"
      }
    },
    "title": "Contract to implement and call the fuctions of CLHouses",
    "version": 1
  },
  "opcodes": "PUSH1 0x80 PUSH1 0x40 MSTORE CALLVALUE DUP1 ISZERO PUSH2 0x10 JUMPI PUSH1 0x0 DUP1 REVERT JUMPDEST POP PUSH1 0x4 CALLDATASIZE LT PUSH2 0x173 JUMPI PUSH1 0x0 CALLDATALOAD PUSH1 0xE0 SHR DUP1 PUSH4 0x840D30B4 GT PUSH2 0xDE JUMPI DUP1 PUSH4 0xB4C62192 GT PUSH2 0x97 JUMPI DUP1 PUSH4 0xCB85669C GT PUSH2 0x71 JUMPI DUP1 PUSH4 0xCB85669C EQ PUSH2 0x360 JUMPI DUP1 PUSH4 0xDE8B9E6D EQ PUSH2 0x388 JUMPI DUP1 PUSH4 0xFC9DB38C EQ PUSH2 0x3A1 JUMPI DUP1 PUSH4 0xFE0298DB EQ PUSH2 0x3B4 JUMPI PUSH1 0x0 DUP1 REVERT JUMPDEST DUP1 PUSH4 0xB4C62192 EQ PUSH2 0x316 JUMPI DUP1 PUSH4 0xC2B3AA08 EQ PUSH2 0x32B JUMPI DUP1 PUSH4 0xC347D2FD EQ PUSH2 0x33E JUMPI PUSH1 0x0 DUP1 REVERT JUMPDEST DUP1 PUSH4 0x840D30B4 EQ PUSH2 0x293 JUMPI DUP1 PUSH4 0x860228FD EQ PUSH2 0x2A6 JUMPI DUP1 PUSH4 0x9D2FCB87 EQ PUSH2 0x2C6 JUMPI DUP1 PUSH4 0xA1C89C9D EQ PUSH2 0x2E8 JUMPI DUP1 PUSH4 0xA693649A EQ PUSH2 0x2FB JUMPI DUP1 PUSH4 0xAD7CCEEB EQ PUSH2 0x303 JUMPI PUSH1 0x0 DUP1 REVERT JUMPDEST DUP1 PUSH4 0x2A57EF84 GT PUSH2 0x130 JUMPI DUP1 PUSH4 0x2A57EF84 EQ PUSH2 0x21C JUMPI DUP1 PUSH4 0x3A70693D EQ PUSH2 0x22F JUMPI DUP1 PUSH4 0x4E9D5472 EQ PUSH2 0x242 JUMPI DUP1 PUSH4 0x50480550 EQ PUSH2 0x24A JUMPI DUP1 PUSH4 0x5B4587E1 EQ PUSH2 0x25F JUMPI DUP1 PUSH4 0x5F3D99B3 EQ PUSH2 0x272 JUMPI PUSH1 0x0 DUP1 REVERT JUMPDEST DUP1 PUSH4 0x2E2D525 EQ PUSH2 0x178 JUMPI DUP1 PUSH4 0x12EAB7FF EQ PUSH2 0x19E JUMPI DUP1 PUSH4 0x1707ACE8 EQ PUSH2 0x1B1 JUMPI DUP1 PUSH4 0x19A50F49 EQ PUSH2 0x1D3 JUMPI DUP1 PUSH4 0x22B4081C EQ PUSH2 0x1DC JUMPI DUP1 PUSH4 0x29647EE5 EQ PUSH2 0x207 JUMPI JUMPDEST PUSH1 0x0 DUP1 REVERT JUMPDEST PUSH2 0x18B PUSH2 0x186 CALLDATASIZE PUSH1 0x4 PUSH2 0x1A13 JUMP JUMPDEST PUSH2 0x3DB JUMP JUMPDEST PUSH1 0x40 MLOAD SWAP1 DUP2 MSTORE PUSH1 0x20 ADD JUMPDEST PUSH1 0x40 MLOAD DUP1 SWAP2 SUB SWAP1 RETURN JUMPDEST PUSH2 0x18B PUSH2 0x1AC CALLDATASIZE PUSH1 0x4 PUSH2 0x1AC7 JUMP JUMPDEST PUSH2 0x512 JUMP JUMPDEST PUSH2 0x1C4 PUSH2 0x1BF CALLDATASIZE PUSH1 0x4 PUSH2 0x1B64 JUMP JUMPDEST PUSH2 0x63B JUMP JUMPDEST PUSH1 0x40 MLOAD PUSH2 0x195 SWAP4 SWAP3 SWAP2 SWAP1 PUSH2 0x1BD5 JUMP JUMPDEST PUSH2 0x18B PUSH1 0x2 SLOAD DUP2 JUMP JUMPDEST PUSH2 0x1EF PUSH2 0x1EA CALLDATASIZE PUSH1 0x4 PUSH2 0x1B64 JUMP JUMPDEST PUSH2 0x706 JUMP JUMPDEST PUSH1 0x40 MLOAD PUSH1 0x1 PUSH1 0x1 PUSH1 0xA0 SHL SUB SWAP1 SWAP2 AND DUP2 MSTORE PUSH1 0x20 ADD PUSH2 0x195 JUMP JUMPDEST PUSH2 0x20F PUSH2 0x730 JUMP JUMPDEST PUSH1 0x40 MLOAD PUSH2 0x195 SWAP2 SWAP1 PUSH2 0x1C0B JUMP JUMPDEST PUSH2 0x18B PUSH2 0x22A CALLDATASIZE PUSH1 0x4 PUSH2 0x1C99 JUMP JUMPDEST PUSH2 0x849 JUMP JUMPDEST PUSH2 0x18B PUSH2 0x23D CALLDATASIZE PUSH1 0x4 PUSH2 0x1B64 JUMP JUMPDEST PUSH2 0x97A JUMP JUMPDEST PUSH1 0x83 SLOAD PUSH2 0x18B JUMP JUMPDEST PUSH2 0x25D PUSH2 0x258 CALLDATASIZE PUSH1 0x4 PUSH2 0x1D00 JUMP JUMPDEST PUSH2 0x99B JUMP JUMPDEST STOP JUMPDEST PUSH2 0x25D PUSH2 0x26D CALLDATASIZE PUSH1 0x4 PUSH2 0x1D3D JUMP JUMPDEST PUSH2 0x9F2 JUMP JUMPDEST PUSH2 0x285 PUSH2 0x280 CALLDATASIZE PUSH1 0x4 PUSH2 0x1B64 JUMP JUMPDEST PUSH2 0xBAF JUMP JUMPDEST PUSH1 0x40 MLOAD PUSH2 0x195 SWAP3 SWAP2 SWAP1 PUSH2 0x1E12 JUMP JUMPDEST PUSH2 0x25D PUSH2 0x2A1 CALLDATASIZE PUSH1 0x4 PUSH2 0x1E2D JUMP JUMPDEST PUSH2 0xD15 JUMP JUMPDEST PUSH2 0x18B PUSH2 0x2B4 CALLDATASIZE PUSH1 0x4 PUSH2 0x1E2D JUMP JUMPDEST PUSH1 0xA3 PUSH1 0x20 MSTORE PUSH1 0x0 SWAP1 DUP2 MSTORE PUSH1 0x40 SWAP1 KECCAK256 SLOAD DUP2 JUMP JUMPDEST PUSH2 0x2D9 PUSH2 0x2D4 CALLDATASIZE PUSH1 0x4 PUSH2 0x1E2D JUMP JUMPDEST PUSH2 0xD40 JUMP JUMPDEST PUSH1 0x40 MLOAD PUSH2 0x195 SWAP4 SWAP3 SWAP2 SWAP1 PUSH2 0x1E51 JUMP JUMPDEST PUSH2 0x25D PUSH2 0x2F6 CALLDATASIZE PUSH1 0x4 PUSH2 0x1E6A JUMP JUMPDEST PUSH2 0xD62 JUMP JUMPDEST PUSH1 0x82 SLOAD PUSH2 0x18B JUMP JUMPDEST PUSH2 0x25D PUSH2 0x311 CALLDATASIZE PUSH1 0x4 PUSH2 0x1F51 JUMP JUMPDEST PUSH2 0xE25 JUMP JUMPDEST PUSH2 0x31E PUSH2 0xF42 JUMP JUMPDEST PUSH1 0x40 MLOAD PUSH2 0x195 SWAP2 SWAP1 PUSH2 0x1FFD JUMP JUMPDEST PUSH2 0x25D PUSH2 0x339 CALLDATASIZE PUSH1 0x4 PUSH2 0x20C4 JUMP JUMPDEST PUSH2 0x10C0 JUMP JUMPDEST PUSH2 0x351 PUSH2 0x34C CALLDATASIZE PUSH1 0x4 PUSH2 0x2107 JUMP JUMPDEST PUSH2 0x11E0 JUMP JUMPDEST PUSH1 0x40 MLOAD PUSH2 0x195 SWAP4 SWAP3 SWAP2 SWAP1 PUSH2 0x2137 JUMP JUMPDEST PUSH2 0x373 PUSH2 0x36E CALLDATASIZE PUSH1 0x4 PUSH2 0x1B64 JUMP JUMPDEST PUSH2 0x129D JUMP JUMPDEST PUSH1 0x40 MLOAD PUSH2 0x195 SWAP10 SWAP9 SWAP8 SWAP7 SWAP6 SWAP5 SWAP4 SWAP3 SWAP2 SWAP1 PUSH2 0x2163 JUMP JUMPDEST PUSH2 0x390 PUSH2 0x1396 JUMP JUMPDEST PUSH1 0x40 MLOAD PUSH2 0x195 SWAP6 SWAP5 SWAP4 SWAP3 SWAP2 SWAP1 PUSH2 0x21F6 JUMP JUMPDEST PUSH2 0x1EF PUSH2 0x3AF CALLDATASIZE PUSH1 0x4 PUSH2 0x2280 JUMP JUMPDEST PUSH2 0x14F3 JUMP JUMPDEST PUSH1 0x40 DUP1 MLOAD DUP1 DUP3 ADD DUP3 MSTORE PUSH1 0x5 DUP2 MSTORE PUSH5 0x302E322E3 PUSH1 0xDC SHL PUSH1 0x20 DUP3 ADD MSTORE SWAP1 MLOAD PUSH2 0x195 SWAP2 SWAP1 PUSH2 0x2301 JUMP JUMPDEST PUSH1 0x0 DUP1 PUSH1 0xC2 PUSH1 0x0 SWAP1 SLOAD SWAP1 PUSH2 0x100 EXP SWAP1 DIV PUSH1 0x1 PUSH1 0x1 PUSH1 0xA0 SHL SUB AND PUSH1 0x1 PUSH1 0x1 PUSH1 0xA0 SHL SUB AND PUSH4 0xA327AB69 PUSH1 0x40 MLOAD DUP2 PUSH4 0xFFFFFFFF AND PUSH1 0xE0 SHL DUP2 MSTORE PUSH1 0x4 ADD PUSH1 0x20 PUSH1 0x40 MLOAD DUP1 DUP4 SUB DUP2 DUP7 GAS STATICCALL ISZERO DUP1 ISZERO PUSH2 0x431 JUMPI RETURNDATASIZE PUSH1 0x0 DUP1 RETURNDATACOPY RETURNDATASIZE PUSH1 0x0 REVERT JUMPDEST POP POP POP POP PUSH1 0x40 MLOAD RETURNDATASIZE PUSH1 0x1F NOT PUSH1 0x1F DUP3 ADD AND DUP3 ADD DUP1 PUSH1 0x40 MSTORE POP DUP2 ADD SWAP1 PUSH2 0x455 SWAP2 SWAP1 PUSH2 0x2314 JUMP JUMPDEST PUSH1 0x1 PUSH1 0x1 PUSH1 0xA0 SHL SUB AND DUP9 DUP9 DUP9 DUP9 DUP9 DUP9 PUSH1 0x40 MLOAD PUSH1 0x24 ADD PUSH2 0x479 SWAP7 SWAP6 SWAP5 SWAP4 SWAP3 SWAP2 SWAP1 PUSH2 0x2331 JUMP JUMPDEST PUSH1 0x40 DUP1 MLOAD PUSH1 0x1F NOT DUP2 DUP5 SUB ADD DUP2 MSTORE SWAP2 DUP2 MSTORE PUSH1 0x20 DUP3 ADD DUP1 MLOAD PUSH1 0x1 PUSH1 0x1 PUSH1 0xE0 SHL SUB AND PUSH4 0x2E2D525 PUSH1 0xE0 SHL OR SWAP1 MSTORE MLOAD PUSH2 0x4AE SWAP2 SWAP1 PUSH2 0x2396 JUMP JUMPDEST PUSH1 0x0 PUSH1 0x40 MLOAD DUP1 DUP4 SUB DUP2 DUP6 GAS DELEGATECALL SWAP2 POP POP RETURNDATASIZE DUP1 PUSH1 0x0 DUP2 EQ PUSH2 0x4E9 JUMPI PUSH1 0x40 MLOAD SWAP2 POP PUSH1 0x1F NOT PUSH1 0x3F RETURNDATASIZE ADD AND DUP3 ADD PUSH1 0x40 MSTORE RETURNDATASIZE DUP3 MSTORE RETURNDATASIZE PUSH1 0x0 PUSH1 0x20 DUP5 ADD RETURNDATACOPY PUSH2 0x4EE JUMP JUMPDEST PUSH1 0x60 SWAP2 POP JUMPDEST POP POP SWAP1 POP PUSH1 0x40 MLOAD RETURNDATASIZE DUP1 PUSH1 0x0 DUP4 RETURNDATACOPY DUP3 PUSH2 0x504 JUMPI DUP1 DUP3 REVERT JUMPDEST POP MLOAD SWAP9 SWAP8 POP POP POP POP POP POP POP POP JUMP JUMPDEST PUSH1 0x0 DUP1 PUSH1 0xC2 PUSH1 0x0 SWAP1 SLOAD SWAP1 PUSH2 0x100 EXP SWAP1 DIV PUSH1 0x1 PUSH1 0x1 PUSH1 0xA0 SHL SUB AND PUSH1 0x1 PUSH1 0x1 PUSH1 0xA0 SHL SUB AND PUSH4 0xA327AB69 PUSH1 0x40 MLOAD DUP2 PUSH4 0xFFFFFFFF AND PUSH1 0xE0 SHL DUP2 MSTORE PUSH1 0x4 ADD PUSH1 0x20 PUSH1 0x40 MLOAD DUP1 DUP4 SUB DUP2 DUP7 GAS STATICCALL ISZERO DUP1 ISZERO PUSH2 0x568 JUMPI RETURNDATASIZE PUSH1 0x0 DUP1 RETURNDATACOPY RETURNDATASIZE PUSH1 0x0 REVERT JUMPDEST POP POP POP POP PUSH1 0x40 MLOAD RETURNDATASIZE PUSH1 0x1F NOT PUSH1 0x1F DUP3 ADD AND DUP3 ADD DUP1 PUSH1 0x40 MSTORE POP DUP2 ADD SWAP1 PUSH2 0x58C SWAP2 SWAP1 PUSH2 0x2314 JUMP JUMPDEST PUSH1 0x1 PUSH1 0x1 PUSH1 0xA0 SHL SUB AND DUP7 DUP7 DUP7 DUP7 PUSH1 0x40 MLOAD PUSH1 0x24 ADD PUSH2 0x5AC SWAP5 SWAP4 SWAP3 SWAP2 SWAP1 PUSH2 0x23B2 JUMP JUMPDEST PUSH1 0x40 DUP1 MLOAD PUSH1 0x1F NOT DUP2 DUP5 SUB ADD DUP2 MSTORE SWAP2 DUP2 MSTORE PUSH1 0x20 DUP3 ADD DUP1 MLOAD PUSH1 0x1 PUSH1 0x1 PUSH1 0xE0 SHL SUB AND PUSH4 0x12EAB7FF PUSH1 0xE0 SHL OR SWAP1 MSTORE MLOAD PUSH2 0x5E1 SWAP2 SWAP1 PUSH2 0x2396 JUMP JUMPDEST PUSH1 0x0 PUSH1 0x40 MLOAD DUP1 DUP4 SUB DUP2 DUP6 GAS DELEGATECALL SWAP2 POP POP RETURNDATASIZE DUP1 PUSH1 0x0 DUP2 EQ PUSH2 0x61C JUMPI PUSH1 0x40 MLOAD SWAP2 POP PUSH1 0x1F NOT PUSH1 0x3F RETURNDATASIZE ADD AND DUP3 ADD PUSH1 0x40 MSTORE RETURNDATASIZE DUP3 MSTORE RETURNDATASIZE PUSH1 0x0 PUSH1 0x20 DUP5 ADD RETURNDATACOPY PUSH2 0x621 JUMP JUMPDEST PUSH1 0x60 SWAP2 POP JUMPDEST POP POP SWAP1 POP PUSH1 0x40 MLOAD RETURNDATASIZE DUP1 PUSH1 0x0 DUP4 RETURNDATACOPY DUP3 PUSH2 0x637 JUMPI DUP1 DUP3 REVERT JUMPDEST DUP1 DUP3 RETURN JUMPDEST PUSH1 0x84 DUP2 DUP2 SLOAD DUP2 LT PUSH2 0x64B JUMPI PUSH1 0x0 DUP1 REVERT JUMPDEST PUSH1 0x0 SWAP2 DUP3 MSTORE PUSH1 0x20 SWAP1 SWAP2 KECCAK256 PUSH1 0x3 SWAP1 SWAP2 MUL ADD DUP1 SLOAD PUSH1 0x1 DUP3 ADD DUP1 SLOAD PUSH1 0x1 PUSH1 0x1 PUSH1 0xA0 SHL SUB SWAP1 SWAP3 AND SWAP4 POP SWAP1 PUSH2 0x67A SWAP1 PUSH2 0x2405 JUMP JUMPDEST DUP1 PUSH1 0x1F ADD PUSH1 0x20 DUP1 SWAP2 DIV MUL PUSH1 0x20 ADD PUSH1 0x40 MLOAD SWAP1 DUP2 ADD PUSH1 0x40 MSTORE DUP1 SWAP3 SWAP2 SWAP1 DUP2 DUP2 MSTORE PUSH1 0x20 ADD DUP3 DUP1 SLOAD PUSH2 0x6A6 SWAP1 PUSH2 0x2405 JUMP JUMPDEST DUP1 ISZERO PUSH2 0x6F3 JUMPI DUP1 PUSH1 0x1F LT PUSH2 0x6C8 JUMPI PUSH2 0x100 DUP1 DUP4 SLOAD DIV MUL DUP4 MSTORE SWAP2 PUSH1 0x20 ADD SWAP2 PUSH2 0x6F3 JUMP JUMPDEST DUP3 ADD SWAP2 SWAP1 PUSH1 0x0 MSTORE PUSH1 0x20 PUSH1 0x0 KECCAK256 SWAP1 JUMPDEST DUP2 SLOAD DUP2 MSTORE SWAP1 PUSH1 0x1 ADD SWAP1 PUSH1 0x20 ADD DUP1 DUP4 GT PUSH2 0x6D6 JUMPI DUP3 SWAP1 SUB PUSH1 0x1F AND DUP3 ADD SWAP2 JUMPDEST POP POP POP PUSH1 0x2 SWAP1 SWAP4 ADD SLOAD SWAP2 SWAP3 POP POP PUSH1 0xFF AND DUP4 JUMP JUMPDEST PUSH1 0x82 DUP2 DUP2 SLOAD DUP2 LT PUSH2 0x716 JUMPI PUSH1 0x0 DUP1 REVERT JUMPDEST PUSH1 0x0 SWAP2 DUP3 MSTORE PUSH1 0x20 SWAP1 SWAP2 KECCAK256 ADD SLOAD PUSH1 0x1 PUSH1 0x1 PUSH1 0xA0 SHL SUB AND SWAP1 POP DUP2 JUMP JUMPDEST PUSH1 0x60 PUSH1 0x84 DUP1 SLOAD DUP1 PUSH1 0x20 MUL PUSH1 0x20 ADD PUSH1 0x40 MLOAD SWAP1 DUP2 ADD PUSH1 0x40 MSTORE DUP1 SWAP3 SWAP2 SWAP1 DUP2 DUP2 MSTORE PUSH1 0x20 ADD PUSH1 0x0 SWAP1 JUMPDEST DUP3 DUP3 LT ISZERO PUSH2 0x840 JUMPI PUSH1 0x0 DUP5 DUP2 MSTORE PUSH1 0x20 SWAP1 DUP2 SWAP1 KECCAK256 PUSH1 0x40 DUP1 MLOAD PUSH1 0x60 DUP2 ADD SWAP1 SWAP2 MSTORE PUSH1 0x3 DUP6 MUL SWAP1 SWAP2 ADD DUP1 SLOAD PUSH1 0x1 PUSH1 0x1 PUSH1 0xA0 SHL SUB AND DUP3 MSTORE PUSH1 0x1 DUP2 ADD DUP1 SLOAD SWAP3 SWAP4 SWAP2 SWAP3 SWAP2 DUP5 ADD SWAP2 PUSH2 0x79D SWAP1 PUSH2 0x2405 JUMP JUMPDEST DUP1 PUSH1 0x1F ADD PUSH1 0x20 DUP1 SWAP2 DIV MUL PUSH1 0x20 ADD PUSH1 0x40 MLOAD SWAP1 DUP2 ADD PUSH1 0x40 MSTORE DUP1 SWAP3 SWAP2 SWAP1 DUP2 DUP2 MSTORE PUSH1 0x20 ADD DUP3 DUP1 SLOAD PUSH2 0x7C9 SWAP1 PUSH2 0x2405 JUMP JUMPDEST DUP1 ISZERO PUSH2 0x816 JUMPI DUP1 PUSH1 0x1F LT PUSH2 0x7EB JUMPI PUSH2 0x100 DUP1 DUP4 SLOAD DIV MUL DUP4 MSTORE SWAP2 PUSH1 0x20 ADD SWAP2 PUSH2 0x816 JUMP JUMPDEST DUP3 ADD SWAP2 SWAP1 PUSH1 0x0 MSTORE PUSH1 0x20 PUSH1 0x0 KECCAK256 SWAP1 JUMPDEST DUP2 SLOAD DUP2 MSTORE SWAP1 PUSH1 0x1 ADD SWAP1 PUSH1 0x20 ADD DUP1 DUP4 GT PUSH2 0x7F9 JUMPI DUP3 SWAP1 SUB PUSH1 0x1F AND DUP3 ADD SWAP2 JUMPDEST POP POP POP SWAP2 DUP4 MSTORE POP POP PUSH1 0x2 SWAP2 SWAP1 SWAP2 ADD SLOAD PUSH1 0xFF AND ISZERO ISZERO PUSH1 0x20 SWAP2 DUP3 ADD MSTORE SWAP1 DUP3 MSTORE PUSH1 0x1 SWAP3 SWAP1 SWAP3 ADD SWAP2 ADD PUSH2 0x754 JUMP JUMPDEST POP POP POP POP SWAP1 POP SWAP1 JUMP JUMPDEST PUSH1 0x0 DUP1 PUSH1 0xC2 PUSH1 0x0 SWAP1 SLOAD SWAP1 PUSH2 0x100 EXP SWAP1 DIV PUSH1 0x1 PUSH1 0x1 PUSH1 0xA0 SHL SUB AND PUSH1 0x1 PUSH1 0x1 PUSH1 0xA0 SHL SUB AND PUSH4 0xA327AB69 PUSH1 0x40 MLOAD DUP2 PUSH4 0xFFFFFFFF AND PUSH1 0xE0 SHL DUP2 MSTORE PUSH1 0x4 ADD PUSH1 0x20 PUSH1 0x40 MLOAD DUP1 DUP4 SUB DUP2 DUP7 GAS STATICCALL ISZERO DUP1 ISZERO PUSH2 0x89F JUMPI RETURNDATASIZE PUSH1 0x0 DUP1 RETURNDATACOPY RETURNDATASIZE PUSH1 0x0 REVERT JUMPDEST POP POP POP POP PUSH1 0x40 MLOAD RETURNDATASIZE PUSH1 0x1F NOT PUSH1 0x1F DUP3 ADD AND DUP3 ADD DUP1 PUSH1 0x40 MSTORE POP DUP2 ADD SWAP1 PUSH2 0x8C3 SWAP2 SWAP1 PUSH2 0x2314 JUMP JUMPDEST PUSH1 0x1 PUSH1 0x1 PUSH1 0xA0 SHL SUB AND DUP7 DUP7 DUP7 DUP7 PUSH1 0x40 MLOAD PUSH1 0x24 ADD PUSH2 0x8E3 SWAP5 SWAP4 SWAP3 SWAP2 SWAP1 PUSH2 0x2440 JUMP JUMPDEST PUSH1 0x40 DUP1 MLOAD PUSH1 0x1F NOT DUP2 DUP5 SUB ADD DUP2 MSTORE SWAP2 DUP2 MSTORE PUSH1 0x20 DUP3 ADD DUP1 MLOAD PUSH1 0x1 PUSH1 0x1 PUSH1 0xE0 SHL SUB AND PUSH4 0xA95FBE1 PUSH1 0xE2 SHL OR SWAP1 MSTORE MLOAD PUSH2 0x918 SWAP2 SWAP1 PUSH2 0x2396 JUMP JUMPDEST PUSH1 0x0 PUSH1 0x40 MLOAD DUP1 DUP4 SUB DUP2 DUP6 GAS DELEGATECALL SWAP2 POP POP RETURNDATASIZE DUP1 PUSH1 0x0 DUP2 EQ PUSH2 0x953 JUMPI PUSH1 0x40 MLOAD SWAP2 POP PUSH1 0x1F NOT PUSH1 0x3F RETURNDATASIZE ADD AND DUP3 ADD PUSH1 0x40 MSTORE RETURNDATASIZE DUP3 MSTORE RETURNDATASIZE PUSH1 0x0 PUSH1 0x20 DUP5 ADD RETURNDATACOPY PUSH2 0x958 JUMP JUMPDEST PUSH1 0x60 SWAP2 POP JUMPDEST POP POP SWAP1 POP PUSH1 0x40 MLOAD RETURNDATASIZE DUP1 PUSH1 0x0 DUP4 RETURNDATACOPY DUP3 PUSH2 0x96E JUMPI DUP1 DUP3 REVERT JUMPDEST POP MLOAD SWAP7 SWAP6 POP POP POP POP POP POP JUMP JUMPDEST PUSH1 0x85 DUP2 DUP2 SLOAD DUP2 LT PUSH2 0x98A JUMPI PUSH1 0x0 DUP1 REVERT JUMPDEST PUSH1 0x0 SWAP2 DUP3 MSTORE PUSH1 0x20 SWAP1 SWAP2 KECCAK256 ADD SLOAD SWAP1 POP DUP2 JUMP JUMPDEST PUSH2 0x9A4 CALLER PUSH2 0x1758 JUMP JUMPDEST DUP1 MLOAD PUSH2 0x9B7 SWAP1 PUSH1 0x42 SWAP1 PUSH1 0x20 DUP5 ADD SWAP1 PUSH2 0x1816 JUMP JUMPDEST POP PUSH32 0x73953E03045E488EDD13F25C9D9EDD63F428D1377DC078E01A6399038E58A837 DUP2 PUSH1 0x40 MLOAD PUSH2 0x9E7 SWAP2 SWAP1 PUSH2 0x2301 JUMP JUMPDEST PUSH1 0x40 MLOAD DUP1 SWAP2 SUB SWAP1 LOG1 POP JUMP JUMPDEST PUSH1 0xC6 SLOAD PUSH1 0x1 SWAP1 PUSH1 0x1 PUSH1 0xA8 SHL SWAP1 DIV PUSH1 0xFF AND ISZERO DUP1 ISZERO PUSH2 0xA1D JUMPI POP PUSH1 0xC6 SLOAD PUSH1 0xFF DUP1 DUP4 AND PUSH1 0x1 PUSH1 0xA0 SHL SWAP1 SWAP3 DIV AND LT JUMPDEST PUSH2 0xA85 JUMPI PUSH1 0x40 MLOAD PUSH3 0x461BCD PUSH1 0xE5 SHL DUP2 MSTORE PUSH1 0x20 PUSH1 0x4 DUP3 ADD MSTORE PUSH1 0x2E PUSH1 0x24 DUP3 ADD MSTORE PUSH32 0x496E697469616C697A61626C653A20636F6E747261637420697320616C726561 PUSH1 0x44 DUP3 ADD MSTORE PUSH14 0x191E481A5B9A5D1A585B1A5E9959 PUSH1 0x92 SHL PUSH1 0x64 DUP3 ADD MSTORE PUSH1 0x84 ADD JUMPDEST PUSH1 0x40 MLOAD DUP1 SWAP2 SUB SWAP1 REVERT JUMPDEST PUSH1 0xC6 DUP1 SLOAD PUSH1 0xFF PUSH1 0xA8 SHL NOT PUSH1 0xFF DUP5 AND PUSH1 0x1 PUSH1 0xA0 SHL MUL AND PUSH2 0xFFFF PUSH1 0xA0 SHL NOT SWAP1 SWAP2 AND OR PUSH1 0x1 PUSH1 0xA8 SHL OR SWAP1 SSTORE DUP2 MLOAD PUSH1 0x40 MLOAD PUSH1 0x0 SWAP2 PUSH1 0x1 PUSH1 0x1 PUSH1 0xA0 SHL SUB AND SWAP1 PUSH2 0xAD7 SWAP1 DUP11 SWAP1 DUP11 SWAP1 DUP11 SWAP1 DUP11 SWAP1 DUP11 SWAP1 DUP11 SWAP1 PUSH1 0x24 ADD PUSH2 0x247C JUMP JUMPDEST PUSH1 0x40 DUP1 MLOAD PUSH1 0x1F NOT DUP2 DUP5 SUB ADD DUP2 MSTORE SWAP2 DUP2 MSTORE PUSH1 0x20 DUP3 ADD DUP1 MLOAD PUSH1 0x1 PUSH1 0x1 PUSH1 0xE0 SHL SUB AND PUSH4 0x53858FBF PUSH1 0xE1 SHL OR SWAP1 MSTORE MLOAD PUSH2 0xB0C SWAP2 SWAP1 PUSH2 0x2396 JUMP JUMPDEST PUSH1 0x0 PUSH1 0x40 MLOAD DUP1 DUP4 SUB DUP2 DUP6 GAS DELEGATECALL SWAP2 POP POP RETURNDATASIZE DUP1 PUSH1 0x0 DUP2 EQ PUSH2 0xB47 JUMPI PUSH1 0x40 MLOAD SWAP2 POP PUSH1 0x1F NOT PUSH1 0x3F RETURNDATASIZE ADD AND DUP3 ADD PUSH1 0x40 MSTORE RETURNDATASIZE DUP3 MSTORE RETURNDATASIZE PUSH1 0x0 PUSH1 0x20 DUP5 ADD RETURNDATACOPY PUSH2 0xB4C JUMP JUMPDEST PUSH1 0x60 SWAP2 POP JUMPDEST POP POP SWAP1 POP DUP1 PUSH2 0xB62 JUMPI PUSH1 0x40 MLOAD RETURNDATASIZE DUP1 PUSH1 0x0 DUP4 RETURNDATACOPY DUP1 DUP3 REVERT JUMPDEST POP PUSH1 0xC6 DUP1 SLOAD PUSH1 0xFF PUSH1 0xA8 SHL NOT AND SWAP1 SSTORE PUSH1 0x40 MLOAD PUSH1 0xFF DUP3 AND DUP2 MSTORE PUSH32 0x7F26B83FF96E1F2B6A682F133852F6798A09C465DA95921460CEFB3847402498 SWAP1 PUSH1 0x20 ADD PUSH1 0x40 MLOAD DUP1 SWAP2 SUB SWAP1 LOG1 POP POP POP POP POP POP POP JUMP JUMPDEST PUSH1 0x0 PUSH1 0x60 PUSH1 0x0 PUSH1 0xC2 PUSH1 0x0 SWAP1 SLOAD SWAP1 PUSH2 0x100 EXP SWAP1 DIV PUSH1 0x1 PUSH1 0x1 PUSH1 0xA0 SHL SUB AND PUSH1 0x1 PUSH1 0x1 PUSH1 0xA0 SHL SUB AND PUSH4 0xA327AB69 PUSH1 0x40 MLOAD DUP2 PUSH4 0xFFFFFFFF AND PUSH1 0xE0 SHL DUP2 MSTORE PUSH1 0x4 ADD PUSH1 0x20 PUSH1 0x40 MLOAD DUP1 DUP4 SUB DUP2 DUP7 GAS STATICCALL ISZERO DUP1 ISZERO PUSH2 0xC08 JUMPI RETURNDATASIZE PUSH1 0x0 DUP1 RETURNDATACOPY RETURNDATASIZE PUSH1 0x0 REVERT JUMPDEST POP POP POP POP PUSH1 0x40 MLOAD RETURNDATASIZE PUSH1 0x1F NOT PUSH1 0x1F DUP3 ADD AND DUP3 ADD DUP1 PUSH1 0x40 MSTORE POP DUP2 ADD SWAP1 PUSH2 0xC2C SWAP2 SWAP1 PUSH2 0x2314 JUMP JUMPDEST PUSH1 0x1 PUSH1 0x1 PUSH1 0xA0 SHL SUB AND DUP5 PUSH1 0x40 MLOAD PUSH1 0x24 ADD PUSH2 0xC48 SWAP2 DUP2 MSTORE PUSH1 0x20 ADD SWAP1 JUMP JUMPDEST PUSH1 0x40 DUP1 MLOAD PUSH1 0x1F NOT DUP2 DUP5 SUB ADD DUP2 MSTORE SWAP2 DUP2 MSTORE PUSH1 0x20 DUP3 ADD DUP1 MLOAD PUSH1 0x1 PUSH1 0x1 PUSH1 0xE0 SHL SUB AND PUSH4 0x5F3D99B3 PUSH1 0xE0 SHL OR SWAP1 MSTORE MLOAD PUSH2 0xC7D SWAP2 SWAP1 PUSH2 0x2396 JUMP JUMPDEST PUSH1 0x0 PUSH1 0x40 MLOAD DUP1 DUP4 SUB DUP2 DUP6 GAS DELEGATECALL SWAP2 POP POP RETURNDATASIZE DUP1 PUSH1 0x0 DUP2 EQ PUSH2 0xCB8 JUMPI PUSH1 0x40 MLOAD SWAP2 POP PUSH1 0x1F NOT PUSH1 0x3F RETURNDATASIZE ADD AND DUP3 ADD PUSH1 0x40 MSTORE RETURNDATASIZE DUP3 MSTORE RETURNDATASIZE PUSH1 0x0 PUSH1 0x20 DUP5 ADD RETURNDATACOPY PUSH2 0xCBD JUMP JUMPDEST PUSH1 0x60 SWAP2 POP JUMPDEST POP POP SWAP1 POP DUP1 PUSH2 0xCD3 JUMPI PUSH1 0x40 MLOAD RETURNDATASIZE DUP1 PUSH1 0x0 DUP4 RETURNDATACOPY DUP1 DUP3 REVERT JUMPDEST PUSH1 0x1 PUSH1 0x40 MLOAD DUP1 PUSH1 0x40 ADD PUSH1 0x40 MSTORE DUP1 PUSH1 0x19 DUP2 MSTORE PUSH1 0x20 ADD PUSH32 0x537563636573732065786563757465642070726F706F73616C00000000000000 DUP2 MSTORE POP SWAP3 POP SWAP3 POP POP SWAP2 POP SWAP2 JUMP JUMPDEST PUSH2 0xD1E CALLER PUSH2 0x1758 JUMP JUMPDEST PUSH1 0x22 DUP1 SLOAD PUSH1 0x1 PUSH1 0x1 PUSH1 0xA0 SHL SUB NOT AND PUSH1 0x1 PUSH1 0x1 PUSH1 0xA0 SHL SUB SWAP3 SWAP1 SWAP3 AND SWAP2 SWAP1 SWAP2 OR SWAP1 SSTORE JUMP JUMPDEST PUSH1 0xA2 PUSH1 0x20 MSTORE PUSH1 0x0 SWAP1 DUP2 MSTORE PUSH1 0x40 SWAP1 KECCAK256 DUP1 SLOAD PUSH1 0x1 DUP3 ADD DUP1 SLOAD SWAP2 SWAP3 SWAP2 PUSH2 0x67A SWAP1 PUSH2 0x2405 JUMP JUMPDEST PUSH1 0xC2 SLOAD PUSH1 0x40 DUP1 MLOAD PUSH4 0xA327AB69 PUSH1 0xE0 SHL DUP2 MSTORE SWAP1 MLOAD PUSH1 0x0 SWAP3 PUSH1 0x1 PUSH1 0x1 PUSH1 0xA0 SHL SUB AND SWAP2 PUSH4 0xA327AB69 SWAP2 PUSH1 0x4 DUP1 DUP4 ADD SWAP3 PUSH1 0x20 SWAP3 SWAP2 SWAP1 DUP3 SWAP1 SUB ADD DUP2 DUP7 GAS STATICCALL ISZERO DUP1 ISZERO PUSH2 0xDAC JUMPI RETURNDATASIZE PUSH1 0x0 DUP1 RETURNDATACOPY RETURNDATASIZE PUSH1 0x0 REVERT JUMPDEST POP POP POP POP PUSH1 0x40 MLOAD RETURNDATASIZE PUSH1 0x1F NOT PUSH1 0x1F DUP3 ADD AND DUP3 ADD DUP1 PUSH1 0x40 MSTORE POP DUP2 ADD SWAP1 PUSH2 0xDD0 SWAP2 SWAP1 PUSH2 0x2314 JUMP JUMPDEST PUSH1 0x1 PUSH1 0x1 PUSH1 0xA0 SHL SUB AND DUP6 DUP6 DUP6 DUP6 PUSH1 0x40 MLOAD PUSH1 0x24 ADD PUSH2 0xDF0 SWAP5 SWAP4 SWAP3 SWAP2 SWAP1 PUSH2 0x24F5 JUMP JUMPDEST PUSH1 0x40 DUP1 MLOAD PUSH1 0x1F NOT DUP2 DUP5 SUB ADD DUP2 MSTORE SWAP2 DUP2 MSTORE PUSH1 0x20 DUP3 ADD DUP1 MLOAD PUSH1 0x1 PUSH1 0x1 PUSH1 0xE0 SHL SUB AND PUSH4 0xA1C89C9D PUSH1 0xE0 SHL OR SWAP1 MSTORE MLOAD PUSH2 0x5E1 SWAP2 SWAP1 PUSH2 0x2396 JUMP JUMPDEST PUSH1 0xC2 SLOAD PUSH1 0x40 DUP1 MLOAD PUSH4 0x529382D5 PUSH1 0xE0 SHL DUP2 MSTORE SWAP1 MLOAD PUSH1 0x0 SWAP3 PUSH1 0x1 PUSH1 0x1 PUSH1 0xA0 SHL SUB AND SWAP2 PUSH4 0x529382D5 SWAP2 PUSH1 0x4 DUP1 DUP4 ADD SWAP3 PUSH1 0x20 SWAP3 SWAP2 SWAP1 DUP3 SWAP1 SUB ADD DUP2 DUP7 GAS STATICCALL ISZERO DUP1 ISZERO PUSH2 0xE6F JUMPI RETURNDATASIZE PUSH1 0x0 DUP1 RETURNDATACOPY RETURNDATASIZE PUSH1 0x0 REVERT JUMPDEST POP POP POP POP PUSH1 0x40 MLOAD RETURNDATASIZE PUSH1 0x1F NOT PUSH1 0x1F DUP3 ADD AND DUP3 ADD DUP1 PUSH1 0x40 MSTORE POP DUP2 ADD SWAP1 PUSH2 0xE93 SWAP2 SWAP1 PUSH2 0x2314 JUMP JUMPDEST PUSH1 0x1 PUSH1 0x1 PUSH1 0xA0 SHL SUB AND DUP5 DUP5 DUP5 PUSH1 0x40 MLOAD PUSH1 0x24 ADD PUSH2 0xEB1 SWAP4 SWAP3 SWAP2 SWAP1 PUSH2 0x255F JUMP JUMPDEST PUSH1 0x40 DUP1 MLOAD PUSH1 0x1F NOT DUP2 DUP5 SUB ADD DUP2 MSTORE SWAP2 DUP2 MSTORE PUSH1 0x20 DUP3 ADD DUP1 MLOAD PUSH1 0x1 PUSH1 0x1 PUSH1 0xE0 SHL SUB AND PUSH4 0xAD7CCEEB PUSH1 0xE0 SHL OR SWAP1 MSTORE MLOAD PUSH2 0xEE6 SWAP2 SWAP1 PUSH2 0x2396 JUMP JUMPDEST PUSH1 0x0 PUSH1 0x40 MLOAD DUP1 DUP4 SUB DUP2 DUP6 GAS DELEGATECALL SWAP2 POP POP RETURNDATASIZE DUP1 PUSH1 0x0 DUP2 EQ PUSH2 0xF21 JUMPI PUSH1 0x40 MLOAD SWAP2 POP PUSH1 0x1F NOT PUSH1 0x3F RETURNDATASIZE ADD AND DUP3 ADD PUSH1 0x40 MSTORE RETURNDATASIZE DUP3 MSTORE RETURNDATASIZE PUSH1 0x0 PUSH1 0x20 DUP5 ADD RETURNDATACOPY PUSH2 0xF26 JUMP JUMPDEST PUSH1 0x60 SWAP2 POP JUMPDEST POP POP SWAP1 POP DUP1 PUSH2 0xF3C JUMPI PUSH1 0x40 MLOAD RETURNDATASIZE DUP1 PUSH1 0x0 DUP4 RETURNDATACOPY DUP1 DUP3 REVERT JUMPDEST POP POP POP POP JUMP JUMPDEST PUSH1 0x60 PUSH1 0x83 DUP1 SLOAD DUP1 PUSH1 0x20 MUL PUSH1 0x20 ADD PUSH1 0x40 MLOAD SWAP1 DUP2 ADD PUSH1 0x40 MSTORE DUP1 SWAP3 SWAP2 SWAP1 DUP2 DUP2 MSTORE PUSH1 0x20 ADD PUSH1 0x0 SWAP1 JUMPDEST DUP3 DUP3 LT ISZERO PUSH2 0x840 JUMPI PUSH1 0x0 DUP5 DUP2 MSTORE PUSH1 0x20 SWAP1 DUP2 SWAP1 KECCAK256 PUSH1 0x40 DUP1 MLOAD PUSH2 0x120 DUP2 ADD SWAP1 SWAP2 MSTORE PUSH1 0x7 DUP6 MUL SWAP1 SWAP2 ADD DUP1 SLOAD PUSH1 0x1 PUSH1 0x1 PUSH1 0xA0 SHL SUB DUP2 AND DUP4 MSTORE SWAP2 SWAP3 SWAP1 SWAP2 SWAP1 DUP4 ADD SWAP1 PUSH1 0x1 PUSH1 0xA0 SHL SWAP1 DIV PUSH1 0xFF AND PUSH1 0x3 DUP2 GT ISZERO PUSH2 0xFBD JUMPI PUSH2 0xFBD PUSH2 0x1FC5 JUMP JUMPDEST PUSH1 0x3 DUP2 GT ISZERO PUSH2 0xFCE JUMPI PUSH2 0xFCE PUSH2 0x1FC5 JUMP JUMPDEST DUP2 MSTORE PUSH1 0x20 ADD PUSH1 0x1 DUP3 ADD DUP1 SLOAD PUSH2 0xFE2 SWAP1 PUSH2 0x2405 JUMP JUMPDEST DUP1 PUSH1 0x1F ADD PUSH1 0x20 DUP1 SWAP2 DIV MUL PUSH1 0x20 ADD PUSH1 0x40 MLOAD SWAP1 DUP2 ADD PUSH1 0x40 MSTORE DUP1 SWAP3 SWAP2 SWAP1 DUP2 DUP2 MSTORE PUSH1 0x20 ADD DUP3 DUP1 SLOAD PUSH2 0x100E SWAP1 PUSH2 0x2405 JUMP JUMPDEST DUP1 ISZERO PUSH2 0x105B JUMPI DUP1 PUSH1 0x1F LT PUSH2 0x1030 JUMPI PUSH2 0x100 DUP1 DUP4 SLOAD DIV MUL DUP4 MSTORE SWAP2 PUSH1 0x20 ADD SWAP2 PUSH2 0x105B JUMP JUMPDEST DUP3 ADD SWAP2 SWAP1 PUSH1 0x0 MSTORE PUSH1 0x20 PUSH1 0x0 KECCAK256 SWAP1 JUMPDEST DUP2 SLOAD DUP2 MSTORE SWAP1 PUSH1 0x1 ADD SWAP1 PUSH1 0x20 ADD DUP1 DUP4 GT PUSH2 0x103E JUMPI DUP3 SWAP1 SUB PUSH1 0x1F AND DUP3 ADD SWAP2 JUMPDEST POP POP POP SWAP2 DUP4 MSTORE POP POP PUSH1 0x2 DUP3 ADD SLOAD PUSH1 0x20 DUP1 DUP4 ADD SWAP2 SWAP1 SWAP2 MSTORE PUSH1 0x3 DUP4 ADD SLOAD PUSH1 0x40 DUP4 ADD MSTORE PUSH1 0x4 DUP4 ADD SLOAD PUSH1 0x60 DUP4 ADD MSTORE PUSH1 0x5 DUP4 ADD SLOAD PUSH1 0xFF DUP1 DUP3 AND ISZERO ISZERO PUSH1 0x80 DUP6 ADD MSTORE PUSH2 0x100 SWAP1 SWAP2 DIV AND ISZERO ISZERO PUSH1 0xA0 DUP4 ADD MSTORE PUSH1 0x6 SWAP1 SWAP3 ADD SLOAD PUSH1 0xC0 SWAP1 SWAP2 ADD MSTORE SWAP1 DUP3 MSTORE PUSH1 0x1 SWAP3 SWAP1 SWAP3 ADD SWAP2 ADD PUSH2 0xF66 JUMP JUMPDEST PUSH1 0xC2 SLOAD PUSH1 0x40 DUP1 MLOAD PUSH4 0xA327AB69 PUSH1 0xE0 SHL DUP2 MSTORE SWAP1 MLOAD PUSH1 0x0 SWAP3 PUSH1 0x1 PUSH1 0x1 PUSH1 0xA0 SHL SUB AND SWAP2 PUSH4 0xA327AB69 SWAP2 PUSH1 0x4 DUP1 DUP4 ADD SWAP3 PUSH1 0x20 SWAP3 SWAP2 SWAP1 DUP3 SWAP1 SUB ADD DUP2 DUP7 GAS STATICCALL ISZERO DUP1 ISZERO PUSH2 0x110A JUMPI RETURNDATASIZE PUSH1 0x0 DUP1 RETURNDATACOPY RETURNDATASIZE PUSH1 0x0 REVERT JUMPDEST POP POP POP POP PUSH1 0x40 MLOAD RETURNDATASIZE PUSH1 0x1F NOT PUSH1 0x1F DUP3 ADD AND DUP3 ADD DUP1 PUSH1 0x40 MSTORE POP DUP2 ADD SWAP1 PUSH2 0x112E SWAP2 SWAP1 PUSH2 0x2314 JUMP JUMPDEST PUSH1 0x1 PUSH1 0x1 PUSH1 0xA0 SHL SUB AND DUP6 DUP6 DUP6 DUP6 PUSH1 0x40 MLOAD PUSH1 0x24 ADD PUSH2 0x114E SWAP5 SWAP4 SWAP3 SWAP2 SWAP1 PUSH2 0x2596 JUMP JUMPDEST PUSH1 0x40 DUP1 MLOAD PUSH1 0x1F NOT DUP2 DUP5 SUB ADD DUP2 MSTORE SWAP2 DUP2 MSTORE PUSH1 0x20 DUP3 ADD DUP1 MLOAD PUSH1 0x1 PUSH1 0x1 PUSH1 0xE0 SHL SUB AND PUSH4 0x18567541 PUSH1 0xE3 SHL OR SWAP1 MSTORE MLOAD PUSH2 0x1183 SWAP2 SWAP1 PUSH2 0x2396 JUMP JUMPDEST PUSH1 0x0 PUSH1 0x40 MLOAD DUP1 DUP4 SUB DUP2 DUP6 GAS DELEGATECALL SWAP2 POP POP RETURNDATASIZE DUP1 PUSH1 0x0 DUP2 EQ PUSH2 0x11BE JUMPI PUSH1 0x40 MLOAD SWAP2 POP PUSH1 0x1F NOT PUSH1 0x3F RETURNDATASIZE ADD AND DUP3 ADD PUSH1 0x40 MSTORE RETURNDATASIZE DUP3 MSTORE RETURNDATASIZE PUSH1 0x0 PUSH1 0x20 DUP5 ADD RETURNDATACOPY PUSH2 0x11C3 JUMP JUMPDEST PUSH1 0x60 SWAP2 POP JUMPDEST POP POP SWAP1 POP DUP1 PUSH2 0x11D9 JUMPI PUSH1 0x40 MLOAD RETURNDATASIZE DUP1 PUSH1 0x0 DUP4 RETURNDATACOPY DUP1 DUP3 REVERT JUMPDEST POP POP POP POP POP JUMP JUMPDEST PUSH1 0xA4 PUSH1 0x20 SWAP1 DUP2 MSTORE PUSH1 0x0 SWAP3 DUP4 MSTORE PUSH1 0x40 DUP1 DUP5 KECCAK256 SWAP1 SWAP2 MSTORE SWAP1 DUP3 MSTORE SWAP1 KECCAK256 DUP1 SLOAD PUSH1 0x1 DUP3 ADD DUP1 SLOAD PUSH1 0xFF DUP1 DUP5 AND SWAP5 PUSH2 0x100 SWAP1 SWAP5 DIV AND SWAP3 SWAP2 SWAP1 PUSH2 0x121A SWAP1 PUSH2 0x2405 JUMP JUMPDEST DUP1 PUSH1 0x1F ADD PUSH1 0x20 DUP1 SWAP2 DIV MUL PUSH1 0x20 ADD PUSH1 0x40 MLOAD SWAP1 DUP2 ADD PUSH1 0x40 MSTORE DUP1 SWAP3 SWAP2 SWAP1 DUP2 DUP2 MSTORE PUSH1 0x20 ADD DUP3 DUP1 SLOAD PUSH2 0x1246 SWAP1 PUSH2 0x2405 JUMP JUMPDEST DUP1 ISZERO PUSH2 0x1293 JUMPI DUP1 PUSH1 0x1F LT PUSH2 0x1268 JUMPI PUSH2 0x100 DUP1 DUP4 SLOAD DIV MUL DUP4 MSTORE SWAP2 PUSH1 0x20 ADD SWAP2 PUSH2 0x1293 JUMP JUMPDEST DUP3 ADD SWAP2 SWAP1 PUSH1 0x0 MSTORE PUSH1 0x20 PUSH1 0x0 KECCAK256 SWAP1 JUMPDEST DUP2 SLOAD DUP2 MSTORE SWAP1 PUSH1 0x1 ADD SWAP1 PUSH1 0x20 ADD DUP1 DUP4 GT PUSH2 0x1276 JUMPI DUP3 SWAP1 SUB PUSH1 0x1F AND DUP3 ADD SWAP2 JUMPDEST POP POP POP POP POP SWAP1 POP DUP4 JUMP JUMPDEST PUSH1 0x83 DUP2 DUP2 SLOAD DUP2 LT PUSH2 0x12AD JUMPI PUSH1 0x0 DUP1 REVERT JUMPDEST PUSH1 0x0 SWAP2 DUP3 MSTORE PUSH1 0x20 SWAP1 SWAP2 KECCAK256 PUSH1 0x7 SWAP1 SWAP2 MUL ADD DUP1 SLOAD PUSH1 0x1 DUP3 ADD DUP1 SLOAD PUSH1 0x1 PUSH1 0x1 PUSH1 0xA0 SHL SUB DUP4 AND SWAP5 POP PUSH1 0x1 PUSH1 0xA0 SHL SWAP1 SWAP3 DIV PUSH1 0xFF AND SWAP3 SWAP2 PUSH2 0x12E7 SWAP1 PUSH2 0x2405 JUMP JUMPDEST DUP1 PUSH1 0x1F ADD PUSH1 0x20 DUP1 SWAP2 DIV MUL PUSH1 0x20 ADD PUSH1 0x40 MLOAD SWAP1 DUP2 ADD PUSH1 0x40 MSTORE DUP1 SWAP3 SWAP2 SWAP1 DUP2 DUP2 MSTORE PUSH1 0x20 ADD DUP3 DUP1 SLOAD PUSH2 0x1313 SWAP1 PUSH2 0x2405 JUMP JUMPDEST DUP1 ISZERO PUSH2 0x1360 JUMPI DUP1 PUSH1 0x1F LT PUSH2 0x1335 JUMPI PUSH2 0x100 DUP1 DUP4 SLOAD DIV MUL DUP4 MSTORE SWAP2 PUSH1 0x20 ADD SWAP2 PUSH2 0x1360 JUMP JUMPDEST DUP3 ADD SWAP2 SWAP1 PUSH1 0x0 MSTORE PUSH1 0x20 PUSH1 0x0 KECCAK256 SWAP1 JUMPDEST DUP2 SLOAD DUP2 MSTORE SWAP1 PUSH1 0x1 ADD SWAP1 PUSH1 0x20 ADD DUP1 DUP4 GT PUSH2 0x1343 JUMPI DUP3 SWAP1 SUB PUSH1 0x1F AND DUP3 ADD SWAP2 JUMPDEST POP POP POP PUSH1 0x2 DUP5 ADD SLOAD PUSH1 0x3 DUP6 ADD SLOAD PUSH1 0x4 DUP7 ADD SLOAD PUSH1 0x5 DUP8 ADD SLOAD PUSH1 0x6 SWAP1 SWAP8 ADD SLOAD SWAP6 SWAP7 SWAP3 SWAP6 SWAP2 SWAP5 POP SWAP3 POP PUSH1 0xFF DUP1 DUP4 AND SWAP3 PUSH2 0x100 SWAP1 DIV AND SWAP1 DUP10 JUMP JUMPDEST PUSH1 0x60 PUSH2 0x13A0 PUSH2 0x189A JUMP JUMPDEST PUSH2 0x13A8 PUSH2 0x18B8 JUMP JUMPDEST PUSH2 0x13B0 PUSH2 0x18D6 JUMP JUMPDEST PUSH1 0x0 PUSH1 0x42 DUP1 SLOAD PUSH2 0x13BF SWAP1 PUSH2 0x2405 JUMP JUMPDEST DUP1 PUSH1 0x1F ADD PUSH1 0x20 DUP1 SWAP2 DIV MUL PUSH1 0x20 ADD PUSH1 0x40 MLOAD SWAP1 DUP2 ADD PUSH1 0x40 MSTORE DUP1 SWAP3 SWAP2 SWAP1 DUP2 DUP2 MSTORE PUSH1 0x20 ADD DUP3 DUP1 SLOAD PUSH2 0x13EB SWAP1 PUSH2 0x2405 JUMP JUMPDEST DUP1 ISZERO PUSH2 0x1438 JUMPI DUP1 PUSH1 0x1F LT PUSH2 0x140D JUMPI PUSH2 0x100 DUP1 DUP4 SLOAD DIV MUL DUP4 MSTORE SWAP2 PUSH1 0x20 ADD SWAP2 PUSH2 0x1438 JUMP JUMPDEST DUP3 ADD SWAP2 SWAP1 PUSH1 0x0 MSTORE PUSH1 0x20 PUSH1 0x0 KECCAK256 SWAP1 JUMPDEST DUP2 SLOAD DUP2 MSTORE SWAP1 PUSH1 0x1 ADD SWAP1 PUSH1 0x20 ADD DUP1 DUP4 GT PUSH2 0x141B JUMPI DUP3 SWAP1 SUB PUSH1 0x1F AND DUP3 ADD SWAP2 JUMPDEST POP POP PUSH1 0x0 DUP1 SLOAD SWAP5 SWAP10 POP PUSH1 0xFF SWAP1 SWAP5 AND SWAP4 DUP9 SWAP4 POP SWAP2 POP PUSH2 0x1453 SWAP1 POP JUMP JUMPDEST SWAP2 ISZERO ISZERO PUSH1 0x20 SWAP3 DUP4 MUL SWAP2 SWAP1 SWAP2 ADD MSTORE PUSH1 0x0 SLOAD PUSH2 0x100 SWAP1 DIV PUSH1 0xFF AND ISZERO ISZERO DUP6 DUP3 ADD MSTORE PUSH1 0x2 SLOAD DUP5 MSTORE PUSH1 0x3 SLOAD DUP5 DUP3 ADD MSTORE PUSH1 0x4 SLOAD PUSH1 0x40 DUP1 DUP7 ADD SWAP2 SWAP1 SWAP2 MSTORE PUSH1 0x5 SLOAD PUSH1 0x60 DUP1 DUP8 ADD SWAP2 SWAP1 SWAP2 MSTORE PUSH1 0x6 SLOAD PUSH1 0x80 DUP1 DUP9 ADD SWAP2 SWAP1 SWAP2 MSTORE PUSH1 0xC2 SLOAD PUSH1 0x1 PUSH1 0x1 PUSH1 0xA0 SHL SUB SWAP1 DUP2 AND DUP8 MSTORE PUSH1 0xC3 SLOAD DUP2 AND SWAP5 DUP8 ADD SWAP5 SWAP1 SWAP5 MSTORE PUSH1 0xC4 SLOAD DUP5 AND SWAP3 DUP7 ADD SWAP3 SWAP1 SWAP3 MSTORE PUSH1 0xC5 SLOAD DUP4 AND SWAP1 DUP6 ADD MSTORE PUSH1 0xC6 SLOAD DUP3 AND SWAP1 DUP5 ADD MSTORE PUSH1 0x22 SLOAD AND PUSH1 0xA0 DUP4 ADD MSTORE POP PUSH1 0x62 SLOAD SWAP4 SWAP5 SWAP3 SWAP4 SWAP2 SWAP3 SWAP1 SWAP2 SWAP1 JUMP JUMPDEST DUP1 MLOAD PUSH1 0x0 SWAP1 CALLER SWAP1 PUSH1 0x41 EQ ISZERO PUSH2 0x1588 JUMPI PUSH1 0xC3 SLOAD PUSH1 0x40 MLOAD PUSH4 0x6D7F81B PUSH1 0xE1 SHL DUP2 MSTORE PUSH1 0x1 PUSH1 0x1 PUSH1 0xA0 SHL SUB SWAP1 SWAP2 AND SWAP1 PUSH4 0xDAFF036 SWAP1 PUSH2 0x153C SWAP1 DUP11 SWAP1 DUP11 SWAP1 DUP11 SWAP1 DUP11 SWAP1 ADDRESS SWAP1 DUP12 SWAP1 PUSH1 0x4 ADD PUSH2 0x25C9 JUMP JUMPDEST PUSH1 0x20 PUSH1 0x40 MLOAD DUP1 DUP4 SUB DUP2 DUP7 GAS STATICCALL ISZERO DUP1 ISZERO PUSH2 0x1559 JUMPI RETURNDATASIZE PUSH1 0x0 DUP1 RETURNDATACOPY RETURNDATASIZE PUSH1 0x0 REVERT JUMPDEST POP POP POP POP PUSH1 0x40 MLOAD RETURNDATASIZE PUSH1 0x1F NOT PUSH1 0x1F DUP3 ADD AND DUP3 ADD DUP1 PUSH1 0x40 MSTORE POP DUP2 ADD SWAP1 PUSH2 0x157D SWAP2 SWAP1 PUSH2 0x2314 JUMP JUMPDEST SWAP1 POP PUSH2 0x1588 DUP2 PUSH2 0x17C0 JUMP JUMPDEST PUSH2 0x1591 DUP2 PUSH2 0x1758 JUMP JUMPDEST PUSH1 0x0 DUP2 DUP9 PUSH1 0x0 DUP10 DUP10 DUP10 PUSH1 0x40 MLOAD PUSH1 0x24 ADD PUSH2 0x15AF SWAP7 SWAP6 SWAP5 SWAP4 SWAP3 SWAP2 SWAP1 PUSH2 0x260F JUMP JUMPDEST PUSH1 0x40 DUP1 MLOAD PUSH1 0x1F NOT DUP2 DUP5 SUB ADD DUP2 MSTORE SWAP2 SWAP1 MSTORE PUSH1 0x20 DUP2 ADD DUP1 MLOAD PUSH1 0x1 PUSH1 0x1 PUSH1 0xE0 SHL SUB AND PUSH4 0x6EADDE43 PUSH1 0xE0 SHL OR SWAP1 MSTORE SWAP1 POP PUSH1 0x0 PUSH1 0x5 CHAINID EQ ISZERO PUSH2 0x1601 JUMPI POP PUSH20 0x627118A4FB747016911E5CDA82E2E77C531E8206 PUSH2 0x16B7 JUMP JUMPDEST CHAINID PUSH1 0x89 EQ ISZERO PUSH2 0x1625 JUMPI POP PUSH20 0xE8E5CD156F89F7BDB267EABD5C43AF3D5AF2A78F PUSH2 0x16B7 JUMP JUMPDEST CHAINID PUSH3 0x13881 EQ ISZERO PUSH2 0x164B JUMPI POP PUSH20 0x1FF7E338D5E582138C46044DC238543CE555C963 PUSH2 0x16B7 JUMP JUMPDEST CHAINID PUSH1 0x1 EQ ISZERO PUSH2 0x166F JUMPI POP PUSH20 0x3D5409CCE1D45233DE1D4EBDEE74B8E004ABDD13 PUSH2 0x16B7 JUMP JUMPDEST PUSH1 0x40 MLOAD PUSH3 0x461BCD PUSH1 0xE5 SHL DUP2 MSTORE PUSH1 0x20 PUSH1 0x4 DUP3 ADD MSTORE PUSH1 0x1D PUSH1 0x24 DUP3 ADD MSTORE PUSH32 0x4372656174654C6F636B3A20756E737570706F7274656420636861696E000000 PUSH1 0x44 DUP3 ADD MSTORE PUSH1 0x64 ADD PUSH2 0xA7C JUMP JUMPDEST PUSH1 0x40 MLOAD PUSH4 0x243D453B PUSH1 0xE1 SHL DUP2 MSTORE DUP2 SWAP1 PUSH1 0x1 PUSH1 0x1 PUSH1 0xA0 SHL SUB DUP3 AND SWAP1 PUSH4 0x487A8A76 SWAP1 PUSH2 0x16E8 SWAP1 DUP7 SWAP1 PUSH1 0xB SWAP1 PUSH1 0x4 ADD PUSH2 0x2658 JUMP JUMPDEST PUSH1 0x20 PUSH1 0x40 MLOAD DUP1 DUP4 SUB DUP2 PUSH1 0x0 DUP8 GAS CALL ISZERO DUP1 ISZERO PUSH2 0x1707 JUMPI RETURNDATASIZE PUSH1 0x0 DUP1 RETURNDATACOPY RETURNDATASIZE PUSH1 0x0 REVERT JUMPDEST POP POP POP POP PUSH1 0x40 MLOAD RETURNDATASIZE PUSH1 0x1F NOT PUSH1 0x1F DUP3 ADD AND DUP3 ADD DUP1 PUSH1 0x40 MSTORE POP DUP2 ADD SWAP1 PUSH2 0x172B SWAP2 SWAP1 PUSH2 0x2314 JUMP JUMPDEST PUSH1 0x22 DUP1 SLOAD PUSH1 0x1 PUSH1 0x1 PUSH1 0xA0 SHL SUB NOT AND PUSH1 0x1 PUSH1 0x1 PUSH1 0xA0 SHL SUB SWAP3 SWAP1 SWAP3 AND SWAP2 DUP3 OR SWAP1 SSTORE SWAP11 SWAP10 POP POP POP POP POP POP POP POP POP POP JUMP JUMPDEST PUSH1 0x1 PUSH1 0x1 PUSH1 0xA0 SHL SUB DUP2 AND PUSH1 0x0 SWAP1 DUP2 MSTORE PUSH1 0xA2 PUSH1 0x20 MSTORE PUSH1 0x40 SWAP1 KECCAK256 PUSH1 0x2 ADD SLOAD PUSH1 0xFF AND ISZERO ISZERO PUSH1 0x1 EQ PUSH2 0x17BD JUMPI PUSH1 0x40 MLOAD PUSH3 0x461BCD PUSH1 0xE5 SHL DUP2 MSTORE PUSH1 0x20 PUSH1 0x4 DUP3 ADD MSTORE PUSH1 0x12 PUSH1 0x24 DUP3 ADD MSTORE PUSH18 0x4E6F74206D616E6167657220726967687473 PUSH1 0x70 SHL PUSH1 0x44 DUP3 ADD MSTORE PUSH1 0x64 ADD PUSH2 0xA7C JUMP JUMPDEST POP JUMP JUMPDEST PUSH1 0x1 PUSH1 0x1 PUSH1 0xA0 SHL SUB DUP2 AND PUSH2 0x17BD JUMPI PUSH1 0x40 MLOAD PUSH3 0x461BCD PUSH1 0xE5 SHL DUP2 MSTORE PUSH1 0x20 PUSH1 0x4 DUP3 ADD MSTORE PUSH1 0x18 PUSH1 0x24 DUP3 ADD MSTORE PUSH32 0x45434453413A20696E76616C6964207369676E61747572650000000000000000 PUSH1 0x44 DUP3 ADD MSTORE PUSH1 0x64 ADD PUSH2 0xA7C JUMP JUMPDEST DUP3 DUP1 SLOAD PUSH2 0x1822 SWAP1 PUSH2 0x2405 JUMP JUMPDEST SWAP1 PUSH1 0x0 MSTORE PUSH1 0x20 PUSH1 0x0 KECCAK256 SWAP1 PUSH1 0x1F ADD PUSH1 0x20 SWAP1 DIV DUP2 ADD SWAP3 DUP3 PUSH2 0x1844 JUMPI PUSH1 0x0 DUP6 SSTORE PUSH2 0x188A JUMP JUMPDEST DUP3 PUSH1 0x1F LT PUSH2 0x185D JUMPI DUP1 MLOAD PUSH1 0xFF NOT AND DUP4 DUP1 ADD OR DUP6 SSTORE PUSH2 0x188A JUMP JUMPDEST DUP3 DUP1 ADD PUSH1 0x1 ADD DUP6 SSTORE DUP3 ISZERO PUSH2 0x188A JUMPI SWAP2 DUP3 ADD JUMPDEST DUP3 DUP2 GT ISZERO PUSH2 0x188A JUMPI DUP3 MLOAD DUP3 SSTORE SWAP2 PUSH1 0x20 ADD SWAP2 SWAP1 PUSH1 0x1 ADD SWAP1 PUSH2 0x186F JUMP JUMPDEST POP PUSH2 0x1896 SWAP3 SWAP2 POP PUSH2 0x18F4 JUMP JUMPDEST POP SWAP1 JUMP JUMPDEST PUSH1 0x40 MLOAD DUP1 PUSH1 0x40 ADD PUSH1 0x40 MSTORE DUP1 PUSH1 0x2 SWAP1 PUSH1 0x20 DUP3 MUL DUP1 CALLDATASIZE DUP4 CALLDATACOPY POP SWAP2 SWAP3 SWAP2 POP POP JUMP JUMPDEST PUSH1 0x40 MLOAD DUP1 PUSH1 0xA0 ADD PUSH1 0x40 MSTORE DUP1 PUSH1 0x5 SWAP1 PUSH1 0x20 DUP3 MUL DUP1 CALLDATASIZE DUP4 CALLDATACOPY POP SWAP2 SWAP3 SWAP2 POP POP JUMP JUMPDEST PUSH1 0x40 MLOAD DUP1 PUSH1 0xC0 ADD PUSH1 0x40 MSTORE DUP1 PUSH1 0x6 SWAP1 PUSH1 0x20 DUP3 MUL DUP1 CALLDATASIZE DUP4 CALLDATACOPY POP SWAP2 SWAP3 SWAP2 POP POP JUMP JUMPDEST JUMPDEST DUP1 DUP3 GT ISZERO PUSH2 0x1896 JUMPI PUSH1 0x0 DUP2 SSTORE PUSH1 0x1 ADD PUSH2 0x18F5 JUMP JUMPDEST PUSH1 0x1 PUSH1 0x1 PUSH1 0xA0 SHL SUB DUP2 AND DUP2 EQ PUSH2 0x17BD JUMPI PUSH1 0x0 DUP1 REVERT JUMPDEST PUSH4 0x4E487B71 PUSH1 0xE0 SHL PUSH1 0x0 MSTORE PUSH1 0x41 PUSH1 0x4 MSTORE PUSH1 0x24 PUSH1 0x0 REVERT JUMPDEST PUSH1 0x40 MLOAD PUSH1 0xE0 DUP2 ADD PUSH8 0xFFFFFFFFFFFFFFFF DUP2 GT DUP3 DUP3 LT OR ISZERO PUSH2 0x1957 JUMPI PUSH2 0x1957 PUSH2 0x191E JUMP JUMPDEST PUSH1 0x40 MSTORE SWAP1 JUMP JUMPDEST PUSH1 0x40 MLOAD PUSH1 0x1F DUP3 ADD PUSH1 0x1F NOT AND DUP2 ADD PUSH8 0xFFFFFFFFFFFFFFFF DUP2 GT DUP3 DUP3 LT OR ISZERO PUSH2 0x1986 JUMPI PUSH2 0x1986 PUSH2 0x191E JUMP JUMPDEST PUSH1 0x40 MSTORE SWAP2 SWAP1 POP JUMP JUMPDEST PUSH1 0x0 DUP3 PUSH1 0x1F DUP4 ADD SLT PUSH2 0x199F JUMPI PUSH1 0x0 DUP1 REVERT JUMPDEST DUP2 CALLDATALOAD PUSH8 0xFFFFFFFFFFFFFFFF DUP2 GT ISZERO PUSH2 0x19B9 JUMPI PUSH2 0x19B9 PUSH2 0x191E JUMP JUMPDEST PUSH2 0x19CC PUSH1 0x1F DUP3 ADD PUSH1 0x1F NOT AND PUSH1 0x20 ADD PUSH2 0x195D JUMP JUMPDEST DUP2 DUP2 MSTORE DUP5 PUSH1 0x20 DUP4 DUP7 ADD ADD GT ISZERO PUSH2 0x19E1 JUMPI PUSH1 0x0 DUP1 REVERT JUMPDEST DUP2 PUSH1 0x20 DUP6 ADD PUSH1 0x20 DUP4 ADD CALLDATACOPY PUSH1 0x0 SWAP2 DUP2 ADD PUSH1 0x20 ADD SWAP2 SWAP1 SWAP2 MSTORE SWAP4 SWAP3 POP POP POP JUMP JUMPDEST DUP1 CALLDATALOAD DUP1 ISZERO ISZERO DUP2 EQ PUSH2 0x1A0E JUMPI PUSH1 0x0 DUP1 REVERT JUMPDEST SWAP2 SWAP1 POP JUMP JUMPDEST PUSH1 0x0 DUP1 PUSH1 0x0 DUP1 PUSH1 0x0 DUP1 PUSH1 0xC0 DUP8 DUP10 SUB SLT ISZERO PUSH2 0x1A2C JUMPI PUSH1 0x0 DUP1 REVERT JUMPDEST DUP7 CALLDATALOAD PUSH2 0x1A37 DUP2 PUSH2 0x1909 JUMP JUMPDEST SWAP6 POP PUSH1 0x20 DUP8 ADD CALLDATALOAD PUSH8 0xFFFFFFFFFFFFFFFF DUP1 DUP3 GT ISZERO PUSH2 0x1A54 JUMPI PUSH1 0x0 DUP1 REVERT JUMPDEST PUSH2 0x1A60 DUP11 DUP4 DUP12 ADD PUSH2 0x198E JUMP JUMPDEST SWAP7 POP PUSH1 0x40 DUP10 ADD CALLDATALOAD SWAP2 POP DUP1 DUP3 GT ISZERO PUSH2 0x1A76 JUMPI PUSH1 0x0 DUP1 REVERT JUMPDEST PUSH2 0x1A82 DUP11 DUP4 DUP12 ADD PUSH2 0x198E JUMP JUMPDEST SWAP6 POP PUSH2 0x1A90 PUSH1 0x60 DUP11 ADD PUSH2 0x19FE JUMP JUMPDEST SWAP5 POP PUSH1 0x80 DUP10 ADD CALLDATALOAD SWAP4 POP PUSH1 0xA0 DUP10 ADD CALLDATALOAD SWAP2 POP DUP1 DUP3 GT ISZERO PUSH2 0x1AAD JUMPI PUSH1 0x0 DUP1 REVERT JUMPDEST POP PUSH2 0x1ABA DUP10 DUP3 DUP11 ADD PUSH2 0x198E JUMP JUMPDEST SWAP2 POP POP SWAP3 SWAP6 POP SWAP3 SWAP6 POP SWAP3 SWAP6 JUMP JUMPDEST PUSH1 0x0 DUP1 PUSH1 0x0 DUP1 PUSH1 0x80 DUP6 DUP8 SUB SLT ISZERO PUSH2 0x1ADD JUMPI PUSH1 0x0 DUP1 REVERT JUMPDEST DUP5 CALLDATALOAD PUSH8 0xFFFFFFFFFFFFFFFF DUP1 DUP3 GT ISZERO PUSH2 0x1AF5 JUMPI PUSH1 0x0 DUP1 REVERT JUMPDEST PUSH2 0x1B01 DUP9 DUP4 DUP10 ADD PUSH2 0x198E JUMP JUMPDEST SWAP6 POP PUSH1 0x20 DUP8 ADD CALLDATALOAD SWAP2 POP DUP1 DUP3 GT ISZERO PUSH2 0x1B17 JUMPI PUSH1 0x0 DUP1 REVERT JUMPDEST PUSH2 0x1B23 DUP9 DUP4 DUP10 ADD PUSH2 0x198E JUMP JUMPDEST SWAP5 POP PUSH1 0x40 DUP8 ADD CALLDATALOAD SWAP2 POP PUSH2 0x1B35 DUP3 PUSH2 0x1909 JUMP JUMPDEST SWAP1 SWAP3 POP PUSH1 0x60 DUP7 ADD CALLDATALOAD SWAP1 DUP1 DUP3 GT ISZERO PUSH2 0x1B4B JUMPI PUSH1 0x0 DUP1 REVERT JUMPDEST POP PUSH2 0x1B58 DUP8 DUP3 DUP9 ADD PUSH2 0x198E JUMP JUMPDEST SWAP2 POP POP SWAP3 SWAP6 SWAP2 SWAP5 POP SWAP3 POP JUMP JUMPDEST PUSH1 0x0 PUSH1 0x20 DUP3 DUP5 SUB SLT ISZERO PUSH2 0x1B76 JUMPI PUSH1 0x0 DUP1 REVERT JUMPDEST POP CALLDATALOAD SWAP2 SWAP1 POP JUMP JUMPDEST PUSH1 0x0 JUMPDEST DUP4 DUP2 LT ISZERO PUSH2 0x1B98 JUMPI DUP2 DUP2 ADD MLOAD DUP4 DUP3 ADD MSTORE PUSH1 0x20 ADD PUSH2 0x1B80 JUMP JUMPDEST DUP4 DUP2 GT ISZERO PUSH2 0xF3C JUMPI POP POP PUSH1 0x0 SWAP2 ADD MSTORE JUMP JUMPDEST PUSH1 0x0 DUP2 MLOAD DUP1 DUP5 MSTORE PUSH2 0x1BC1 DUP2 PUSH1 0x20 DUP7 ADD PUSH1 0x20 DUP7 ADD PUSH2 0x1B7D JUMP JUMPDEST PUSH1 0x1F ADD PUSH1 0x1F NOT AND SWAP3 SWAP1 SWAP3 ADD PUSH1 0x20 ADD SWAP3 SWAP2 POP POP JUMP JUMPDEST PUSH1 0x1 PUSH1 0x1 PUSH1 0xA0 SHL SUB DUP5 AND DUP2 MSTORE PUSH1 0x60 PUSH1 0x20 DUP3 ADD DUP2 SWAP1 MSTORE PUSH1 0x0 SWAP1 PUSH2 0x1BF9 SWAP1 DUP4 ADD DUP6 PUSH2 0x1BA9 JUMP JUMPDEST SWAP1 POP DUP3 ISZERO ISZERO PUSH1 0x40 DUP4 ADD MSTORE SWAP5 SWAP4 POP POP POP POP JUMP JUMPDEST PUSH1 0x0 PUSH1 0x20 DUP1 DUP4 ADD DUP2 DUP5 MSTORE DUP1 DUP6 MLOAD DUP1 DUP4 MSTORE PUSH1 0x40 SWAP3 POP DUP3 DUP7 ADD SWAP2 POP DUP3 DUP2 PUSH1 0x5 SHL DUP8 ADD ADD DUP5 DUP9 ADD PUSH1 0x0 JUMPDEST DUP4 DUP2 LT ISZERO PUSH2 0x1C8B JUMPI DUP9 DUP4 SUB PUSH1 0x3F NOT ADD DUP6 MSTORE DUP2 MLOAD DUP1 MLOAD PUSH1 0x1 PUSH1 0x1 PUSH1 0xA0 SHL SUB AND DUP5 MSTORE DUP8 DUP2 ADD MLOAD PUSH1 0x60 DUP10 DUP7 ADD DUP2 SWAP1 MSTORE SWAP1 PUSH2 0x1C6B DUP3 DUP8 ADD DUP3 PUSH2 0x1BA9 JUMP JUMPDEST SWAP3 DUP10 ADD MLOAD ISZERO ISZERO SWAP6 DUP10 ADD SWAP6 SWAP1 SWAP6 MSTORE POP SWAP5 DUP8 ADD SWAP5 SWAP3 POP SWAP1 DUP7 ADD SWAP1 PUSH1 0x1 ADD PUSH2 0x1C32 JUMP JUMPDEST POP SWAP1 SWAP9 SWAP8 POP POP POP POP POP POP POP POP JUMP JUMPDEST PUSH1 0x0 DUP1 PUSH1 0x0 DUP1 PUSH1 0x80 DUP6 DUP8 SUB SLT ISZERO PUSH2 0x1CAF JUMPI PUSH1 0x0 DUP1 REVERT JUMPDEST DUP5 CALLDATALOAD PUSH2 0x1CBA DUP2 PUSH2 0x1909 JUMP JUMPDEST SWAP4 POP PUSH1 0x20 DUP6 ADD CALLDATALOAD PUSH8 0xFFFFFFFFFFFFFFFF DUP1 DUP3 GT ISZERO PUSH2 0x1CD7 JUMPI PUSH1 0x0 DUP1 REVERT JUMPDEST PUSH2 0x1CE3 DUP9 DUP4 DUP10 ADD PUSH2 0x198E JUMP JUMPDEST SWAP5 POP PUSH1 0x40 DUP8 ADD CALLDATALOAD SWAP4 POP PUSH1 0x60 DUP8 ADD CALLDATALOAD SWAP2 POP DUP1 DUP3 GT ISZERO PUSH2 0x1B4B JUMPI PUSH1 0x0 DUP1 REVERT JUMPDEST PUSH1 0x0 PUSH1 0x20 DUP3 DUP5 SUB SLT ISZERO PUSH2 0x1D12 JUMPI PUSH1 0x0 DUP1 REVERT JUMPDEST DUP2 CALLDATALOAD PUSH8 0xFFFFFFFFFFFFFFFF DUP2 GT ISZERO PUSH2 0x1D29 JUMPI PUSH1 0x0 DUP1 REVERT JUMPDEST PUSH2 0x1D35 DUP5 DUP3 DUP6 ADD PUSH2 0x198E JUMP JUMPDEST SWAP5 SWAP4 POP POP POP POP JUMP JUMPDEST PUSH1 0x0 DUP1 PUSH1 0x0 DUP1 PUSH1 0x0 DUP1 PUSH2 0x180 DUP1 DUP9 DUP11 SUB SLT ISZERO PUSH2 0x1D58 JUMPI PUSH1 0x0 DUP1 REVERT JUMPDEST DUP8 CALLDATALOAD PUSH2 0x1D63 DUP2 PUSH2 0x1909 JUMP JUMPDEST SWAP7 POP PUSH1 0x20 DUP9 DUP2 ADD CALLDATALOAD PUSH8 0xFFFFFFFFFFFFFFFF DUP2 GT ISZERO PUSH2 0x1D80 JUMPI PUSH1 0x0 DUP1 REVERT JUMPDEST PUSH2 0x1D8C DUP12 DUP3 DUP13 ADD PUSH2 0x198E JUMP JUMPDEST SWAP8 POP POP PUSH2 0x1D9B PUSH1 0x40 DUP11 ADD PUSH2 0x19FE JUMP JUMPDEST SWAP6 POP PUSH2 0x1DA9 PUSH1 0x60 DUP11 ADD PUSH2 0x19FE JUMP JUMPDEST SWAP5 POP PUSH1 0x80 DUP10 ADD CALLDATALOAD SWAP4 POP DUP10 PUSH1 0xBF DUP11 ADD SLT PUSH2 0x1DC1 JUMPI PUSH1 0x0 DUP1 REVERT JUMPDEST PUSH2 0x1DC9 PUSH2 0x1934 JUMP JUMPDEST SWAP2 DUP10 ADD SWAP2 DUP1 DUP12 DUP5 GT ISZERO PUSH2 0x1DDB JUMPI PUSH1 0x0 DUP1 REVERT JUMPDEST PUSH1 0xA0 DUP12 ADD JUMPDEST DUP5 DUP2 LT ISZERO PUSH2 0x1E00 JUMPI DUP1 CALLDATALOAD PUSH2 0x1DF3 DUP2 PUSH2 0x1909 JUMP JUMPDEST DUP4 MSTORE SWAP2 DUP4 ADD SWAP2 DUP4 ADD PUSH2 0x1DE0 JUMP JUMPDEST POP DUP1 SWAP5 POP POP POP POP POP SWAP3 SWAP6 POP SWAP3 SWAP6 POP SWAP3 SWAP6 JUMP JUMPDEST DUP3 ISZERO ISZERO DUP2 MSTORE PUSH1 0x40 PUSH1 0x20 DUP3 ADD MSTORE PUSH1 0x0 PUSH2 0x1D35 PUSH1 0x40 DUP4 ADD DUP5 PUSH2 0x1BA9 JUMP JUMPDEST PUSH1 0x0 PUSH1 0x20 DUP3 DUP5 SUB SLT ISZERO PUSH2 0x1E3F JUMPI PUSH1 0x0 DUP1 REVERT JUMPDEST DUP2 CALLDATALOAD PUSH2 0x1E4A DUP2 PUSH2 0x1909 JUMP JUMPDEST SWAP4 SWAP3 POP POP POP JUMP JUMPDEST DUP4 DUP2 MSTORE PUSH1 0x60 PUSH1 0x20 DUP3 ADD MSTORE PUSH1 0x0 PUSH2 0x1BF9 PUSH1 0x60 DUP4 ADD DUP6 PUSH2 0x1BA9 JUMP JUMPDEST PUSH1 0x0 DUP1 PUSH1 0x0 DUP1 PUSH1 0x80 DUP6 DUP8 SUB SLT ISZERO PUSH2 0x1E80 JUMPI PUSH1 0x0 DUP1 REVERT JUMPDEST DUP5 CALLDATALOAD PUSH8 0xFFFFFFFFFFFFFFFF DUP1 DUP3 GT ISZERO PUSH2 0x1E98 JUMPI PUSH1 0x0 DUP1 REVERT JUMPDEST DUP2 DUP8 ADD SWAP2 POP DUP8 PUSH1 0x1F DUP4 ADD SLT PUSH2 0x1EAC JUMPI PUSH1 0x0 DUP1 REVERT JUMPDEST DUP2 CALLDATALOAD PUSH1 0x20 DUP3 DUP3 GT ISZERO PUSH2 0x1EC0 JUMPI PUSH2 0x1EC0 PUSH2 0x191E JUMP JUMPDEST DUP2 PUSH1 0x5 SHL PUSH2 0x1ECF DUP3 DUP3 ADD PUSH2 0x195D JUMP JUMPDEST SWAP3 DUP4 MSTORE DUP5 DUP2 ADD DUP3 ADD SWAP3 DUP3 DUP2 ADD SWAP1 DUP13 DUP6 GT ISZERO PUSH2 0x1EE9 JUMPI PUSH1 0x0 DUP1 REVERT JUMPDEST SWAP6 DUP4 ADD SWAP6 JUMPDEST DUP5 DUP8 LT ISZERO PUSH2 0x1F07 JUMPI DUP7 CALLDATALOAD DUP3 MSTORE SWAP6 DUP4 ADD SWAP6 SWAP1 DUP4 ADD SWAP1 PUSH2 0x1EEE JUMP JUMPDEST SWAP10 POP PUSH2 0x1F17 SWAP2 POP POP DUP10 DUP3 ADD PUSH2 0x19FE JUMP JUMPDEST SWAP7 POP POP POP PUSH1 0x40 DUP8 ADD CALLDATALOAD SWAP2 POP DUP1 DUP3 GT ISZERO PUSH2 0x1F2F JUMPI PUSH1 0x0 DUP1 REVERT JUMPDEST PUSH2 0x1F3B DUP9 DUP4 DUP10 ADD PUSH2 0x198E JUMP JUMPDEST SWAP4 POP PUSH1 0x60 DUP8 ADD CALLDATALOAD SWAP2 POP DUP1 DUP3 GT ISZERO PUSH2 0x1B4B JUMPI PUSH1 0x0 DUP1 REVERT JUMPDEST PUSH1 0x0 DUP1 PUSH1 0x0 PUSH1 0x60 DUP5 DUP7 SUB SLT ISZERO PUSH2 0x1F66 JUMPI PUSH1 0x0 DUP1 REVERT JUMPDEST PUSH2 0x1F6F DUP5 PUSH2 0x19FE JUMP JUMPDEST SWAP3 POP PUSH1 0x20 DUP5 ADD CALLDATALOAD PUSH8 0xFFFFFFFFFFFFFFFF DUP1 DUP3 GT ISZERO PUSH2 0x1F8C JUMPI PUSH1 0x0 DUP1 REVERT JUMPDEST PUSH2 0x1F98 DUP8 DUP4 DUP9 ADD PUSH2 0x198E JUMP JUMPDEST SWAP4 POP PUSH1 0x40 DUP7 ADD CALLDATALOAD SWAP2 POP DUP1 DUP3 GT ISZERO PUSH2 0x1FAE JUMPI PUSH1 0x0 DUP1 REVERT JUMPDEST POP PUSH2 0x1FBB DUP7 DUP3 DUP8 ADD PUSH2 0x198E JUMP JUMPDEST SWAP2 POP POP SWAP3 POP SWAP3 POP SWAP3 JUMP JUMPDEST PUSH4 0x4E487B71 PUSH1 0xE0 SHL PUSH1 0x0 MSTORE PUSH1 0x21 PUSH1 0x4 MSTORE PUSH1 0x24 PUSH1 0x0 REVERT JUMPDEST PUSH1 0x4 DUP2 LT PUSH2 0x1FF9 JUMPI PUSH4 0x4E487B71 PUSH1 0xE0 SHL PUSH1 0x0 MSTORE PUSH1 0x21 PUSH1 0x4 MSTORE PUSH1 0x24 PUSH1 0x0 REVERT JUMPDEST SWAP1 MSTORE JUMP JUMPDEST PUSH1 0x0 PUSH1 0x20 DUP1 DUP4 ADD DUP2 DUP5 MSTORE DUP1 DUP6 MLOAD DUP1 DUP4 MSTORE PUSH1 0x40 SWAP3 POP DUP3 DUP7 ADD SWAP2 POP DUP3 DUP2 PUSH1 0x5 SHL DUP8 ADD ADD DUP5 DUP9 ADD PUSH1 0x0 JUMPDEST DUP4 DUP2 LT ISZERO PUSH2 0x1C8B JUMPI DUP9 DUP4 SUB PUSH1 0x3F NOT ADD DUP6 MSTORE DUP2 MLOAD DUP1 MLOAD PUSH1 0x1 PUSH1 0x1 PUSH1 0xA0 SHL SUB AND DUP5 MSTORE PUSH2 0x120 DUP9 DUP3 ADD MLOAD PUSH2 0x2057 DUP11 DUP8 ADD DUP3 PUSH2 0x1FDB JUMP JUMPDEST POP DUP8 DUP3 ADD MLOAD DUP2 DUP10 DUP8 ADD MSTORE PUSH2 0x206D DUP3 DUP8 ADD DUP3 PUSH2 0x1BA9 JUMP JUMPDEST PUSH1 0x60 DUP5 DUP2 ADD MLOAD SWAP1 DUP9 ADD MSTORE PUSH1 0x80 DUP1 DUP6 ADD MLOAD SWAP1 DUP9 ADD MSTORE PUSH1 0xA0 DUP1 DUP6 ADD MLOAD SWAP1 DUP9 ADD MSTORE PUSH1 0xC0 DUP1 DUP6 ADD MLOAD ISZERO ISZERO SWAP1 DUP9 ADD MSTORE PUSH1 0xE0 DUP1 DUP6 ADD MLOAD ISZERO ISZERO SWAP1 DUP9 ADD MSTORE PUSH2 0x100 SWAP4 DUP5 ADD MLOAD SWAP4 SWAP1 SWAP7 ADD SWAP3 SWAP1 SWAP3 MSTORE POP POP SWAP4 DUP7 ADD SWAP4 SWAP1 DUP7 ADD SWAP1 PUSH1 0x1 ADD PUSH2 0x2024 JUMP JUMPDEST PUSH1 0x0 DUP1 PUSH1 0x0 DUP1 PUSH1 0x80 DUP6 DUP8 SUB SLT ISZERO PUSH2 0x20DA JUMPI PUSH1 0x0 DUP1 REVERT JUMPDEST DUP5 CALLDATALOAD SWAP4 POP PUSH2 0x20EA PUSH1 0x20 DUP7 ADD PUSH2 0x19FE JUMP JUMPDEST SWAP3 POP PUSH1 0x40 DUP6 ADD CALLDATALOAD PUSH8 0xFFFFFFFFFFFFFFFF DUP1 DUP3 GT ISZERO PUSH2 0x1F2F JUMPI PUSH1 0x0 DUP1 REVERT JUMPDEST PUSH1 0x0 DUP1 PUSH1 0x40 DUP4 DUP6 SUB SLT ISZERO PUSH2 0x211A JUMPI PUSH1 0x0 DUP1 REVERT JUMPDEST DUP3 CALLDATALOAD SWAP2 POP PUSH1 0x20 DUP4 ADD CALLDATALOAD PUSH2 0x212C DUP2 PUSH2 0x1909 JUMP JUMPDEST DUP1 SWAP2 POP POP SWAP3 POP SWAP3 SWAP1 POP JUMP JUMPDEST DUP4 ISZERO ISZERO DUP2 MSTORE DUP3 ISZERO ISZERO PUSH1 0x20 DUP3 ADD MSTORE PUSH1 0x60 PUSH1 0x40 DUP3 ADD MSTORE PUSH1 0x0 PUSH2 0x215A PUSH1 0x60 DUP4 ADD DUP5 PUSH2 0x1BA9 JUMP JUMPDEST SWAP6 SWAP5 POP POP POP POP POP JUMP JUMPDEST PUSH1 0x1 PUSH1 0x1 PUSH1 0xA0 SHL SUB DUP11 AND DUP2 MSTORE PUSH1 0x0 PUSH2 0x120 PUSH2 0x2181 PUSH1 0x20 DUP5 ADD DUP13 PUSH2 0x1FDB JUMP JUMPDEST DUP1 PUSH1 0x40 DUP5 ADD MSTORE PUSH2 0x2193 DUP2 DUP5 ADD DUP12 PUSH2 0x1BA9 JUMP JUMPDEST PUSH1 0x60 DUP5 ADD SWAP10 SWAP1 SWAP10 MSTORE POP POP PUSH1 0x80 DUP2 ADD SWAP6 SWAP1 SWAP6 MSTORE PUSH1 0xA0 DUP6 ADD SWAP4 SWAP1 SWAP4 MSTORE SWAP1 ISZERO ISZERO PUSH1 0xC0 DUP5 ADD MSTORE ISZERO ISZERO PUSH1 0xE0 DUP4 ADD MSTORE PUSH2 0x100 SWAP1 SWAP2 ADD MSTORE SWAP4 SWAP3 POP POP POP JUMP JUMPDEST DUP1 PUSH1 0x0 JUMPDEST PUSH1 0x6 DUP2 LT ISZERO PUSH2 0xF3C JUMPI DUP2 MLOAD PUSH1 0x1 PUSH1 0x1 PUSH1 0xA0 SHL SUB AND DUP5 MSTORE PUSH1 0x20 SWAP4 DUP5 ADD SWAP4 SWAP1 SWAP2 ADD SWAP1 PUSH1 0x1 ADD PUSH2 0x21CE JUMP JUMPDEST PUSH1 0x0 PUSH2 0x1E0 DUP1 DUP4 MSTORE PUSH2 0x220A DUP2 DUP5 ADD DUP10 PUSH2 0x1BA9 JUMP JUMPDEST SWAP2 POP POP PUSH1 0x20 DUP1 DUP4 ADD DUP8 PUSH1 0x0 JUMPDEST PUSH1 0x2 DUP2 LT ISZERO PUSH2 0x2235 JUMPI DUP2 MLOAD ISZERO ISZERO DUP4 MSTORE SWAP2 DUP4 ADD SWAP2 SWAP1 DUP4 ADD SWAP1 PUSH1 0x1 ADD PUSH2 0x2216 JUMP JUMPDEST POP POP POP PUSH1 0x60 DUP4 ADD DUP7 PUSH1 0x0 JUMPDEST PUSH1 0x5 DUP2 LT ISZERO PUSH2 0x225D JUMPI DUP2 MLOAD DUP4 MSTORE SWAP2 DUP4 ADD SWAP2 SWAP1 DUP4 ADD SWAP1 PUSH1 0x1 ADD PUSH2 0x2240 JUMP JUMPDEST POP POP POP POP PUSH2 0x226F PUSH2 0x100 DUP4 ADD DUP6 PUSH2 0x21CA JUMP JUMPDEST DUP3 PUSH2 0x1C0 DUP4 ADD MSTORE SWAP7 SWAP6 POP POP POP POP POP POP JUMP JUMPDEST PUSH1 0x0 DUP1 PUSH1 0x0 DUP1 PUSH1 0x0 PUSH1 0xA0 DUP7 DUP9 SUB SLT ISZERO PUSH2 0x2298 JUMPI PUSH1 0x0 DUP1 REVERT JUMPDEST DUP6 CALLDATALOAD SWAP5 POP PUSH1 0x20 DUP7 ADD CALLDATALOAD SWAP4 POP PUSH1 0x40 DUP7 ADD CALLDATALOAD SWAP3 POP PUSH1 0x60 DUP7 ADD CALLDATALOAD PUSH8 0xFFFFFFFFFFFFFFFF DUP1 DUP3 GT ISZERO PUSH2 0x22C5 JUMPI PUSH1 0x0 DUP1 REVERT JUMPDEST PUSH2 0x22D1 DUP10 DUP4 DUP11 ADD PUSH2 0x198E JUMP JUMPDEST SWAP4 POP PUSH1 0x80 DUP9 ADD CALLDATALOAD SWAP2 POP DUP1 DUP3 GT ISZERO PUSH2 0x22E7 JUMPI PUSH1 0x0 DUP1 REVERT JUMPDEST POP PUSH2 0x22F4 DUP9 DUP3 DUP10 ADD PUSH2 0x198E JUMP JUMPDEST SWAP2 POP POP SWAP3 SWAP6 POP SWAP3 SWAP6 SWAP1 SWAP4 POP JUMP JUMPDEST PUSH1 0x20 DUP2 MSTORE PUSH1 0x0 PUSH2 0x1E4A PUSH1 0x20 DUP4 ADD DUP5 PUSH2 0x1BA9 JUMP JUMPDEST PUSH1 0x0 PUSH1 0x20 DUP3 DUP5 SUB SLT ISZERO PUSH2 0x2326 JUMPI PUSH1 0x0 DUP1 REVERT JUMPDEST DUP2 MLOAD PUSH2 0x1E4A DUP2 PUSH2 0x1909 JUMP JUMPDEST PUSH1 0x1 PUSH1 0x1 PUSH1 0xA0 SHL SUB DUP8 AND DUP2 MSTORE PUSH1 0xC0 PUSH1 0x20 DUP3 ADD DUP2 SWAP1 MSTORE PUSH1 0x0 SWAP1 PUSH2 0x2355 SWAP1 DUP4 ADD DUP9 PUSH2 0x1BA9 JUMP JUMPDEST DUP3 DUP2 SUB PUSH1 0x40 DUP5 ADD MSTORE PUSH2 0x2367 DUP2 DUP9 PUSH2 0x1BA9 JUMP JUMPDEST SWAP1 POP DUP6 ISZERO ISZERO PUSH1 0x60 DUP5 ADD MSTORE DUP5 PUSH1 0x80 DUP5 ADD MSTORE DUP3 DUP2 SUB PUSH1 0xA0 DUP5 ADD MSTORE PUSH2 0x2389 DUP2 DUP6 PUSH2 0x1BA9 JUMP JUMPDEST SWAP10 SWAP9 POP POP POP POP POP POP POP POP POP JUMP JUMPDEST PUSH1 0x0 DUP3 MLOAD PUSH2 0x23A8 DUP2 DUP5 PUSH1 0x20 DUP8 ADD PUSH2 0x1B7D JUMP JUMPDEST SWAP2 SWAP1 SWAP2 ADD SWAP3 SWAP2 POP POP JUMP JUMPDEST PUSH1 0x80 DUP2 MSTORE PUSH1 0x0 PUSH2 0x23C5 PUSH1 0x80 DUP4 ADD DUP8 PUSH2 0x1BA9 JUMP JUMPDEST DUP3 DUP2 SUB PUSH1 0x20 DUP5 ADD MSTORE PUSH2 0x23D7 DUP2 DUP8 PUSH2 0x1BA9 JUMP JUMPDEST PUSH1 0x1 PUSH1 0x1 PUSH1 0xA0 SHL SUB DUP7 AND PUSH1 0x40 DUP6 ADD MSTORE DUP4 DUP2 SUB PUSH1 0x60 DUP6 ADD MSTORE SWAP1 POP PUSH2 0x23FA DUP2 DUP6 PUSH2 0x1BA9 JUMP JUMPDEST SWAP8 SWAP7 POP POP POP POP POP POP POP JUMP JUMPDEST PUSH1 0x1 DUP2 DUP2 SHR SWAP1 DUP3 AND DUP1 PUSH2 0x2419 JUMPI PUSH1 0x7F DUP3 AND SWAP2 POP JUMPDEST PUSH1 0x20 DUP3 LT DUP2 EQ ISZERO PUSH2 0x243A JUMPI PUSH4 0x4E487B71 PUSH1 0xE0 SHL PUSH1 0x0 MSTORE PUSH1 0x22 PUSH1 0x4 MSTORE PUSH1 0x24 PUSH1 0x0 REVERT JUMPDEST POP SWAP2 SWAP1 POP JUMP JUMPDEST PUSH1 0x1 PUSH1 0x1 PUSH1 0xA0 SHL SUB DUP6 AND DUP2 MSTORE PUSH1 0x80 PUSH1 0x20 DUP3 ADD DUP2 SWAP1 MSTORE PUSH1 0x0 SWAP1 PUSH2 0x2464 SWAP1 DUP4 ADD DUP7 PUSH2 0x1BA9 JUMP JUMPDEST DUP5 PUSH1 0x40 DUP5 ADD MSTORE DUP3 DUP2 SUB PUSH1 0x60 DUP5 ADD MSTORE PUSH2 0x23FA DUP2 DUP6 PUSH2 0x1BA9 JUMP JUMPDEST PUSH1 0x1 PUSH1 0x1 PUSH1 0xA0 SHL SUB DUP8 DUP2 AND DUP3 MSTORE PUSH2 0x180 PUSH1 0x20 DUP1 DUP5 ADD DUP3 SWAP1 MSTORE PUSH1 0x0 SWAP3 SWAP1 PUSH2 0x24A4 DUP6 DUP5 ADD DUP12 PUSH2 0x1BA9 JUMP JUMPDEST SWAP4 POP DUP9 ISZERO ISZERO PUSH1 0x40 DUP7 ADD MSTORE DUP8 ISZERO ISZERO PUSH1 0x60 DUP7 ADD MSTORE DUP7 PUSH1 0x80 DUP7 ADD MSTORE PUSH1 0xA0 DUP6 ADD SWAP3 POP DUP6 PUSH1 0x0 JUMPDEST PUSH1 0x7 DUP2 LT ISZERO PUSH2 0x24E5 JUMPI DUP2 MLOAD DUP5 AND DUP6 MSTORE SWAP4 DUP3 ADD SWAP4 SWAP1 DUP3 ADD SWAP1 PUSH1 0x1 ADD PUSH2 0x24C6 JUMP JUMPDEST POP POP POP POP POP SWAP8 SWAP7 POP POP POP POP POP POP POP JUMP JUMPDEST PUSH1 0x80 DUP1 DUP3 MSTORE DUP6 MLOAD SWAP1 DUP3 ADD DUP2 SWAP1 MSTORE PUSH1 0x0 SWAP1 PUSH1 0x20 SWAP1 PUSH1 0xA0 DUP5 ADD SWAP1 DUP3 DUP10 ADD DUP5 JUMPDEST DUP3 DUP2 LT ISZERO PUSH2 0x252E JUMPI DUP2 MLOAD DUP5 MSTORE SWAP3 DUP5 ADD SWAP3 SWAP1 DUP5 ADD SWAP1 PUSH1 0x1 ADD PUSH2 0x2512 JUMP JUMPDEST POP POP POP DUP7 ISZERO ISZERO DUP3 DUP6 ADD MSTORE DUP4 DUP2 SUB PUSH1 0x40 DUP6 ADD MSTORE PUSH2 0x254A DUP2 DUP8 PUSH2 0x1BA9 JUMP JUMPDEST SWAP2 POP POP DUP3 DUP2 SUB PUSH1 0x60 DUP5 ADD MSTORE PUSH2 0x23FA DUP2 DUP6 PUSH2 0x1BA9 JUMP JUMPDEST DUP4 ISZERO ISZERO DUP2 MSTORE PUSH1 0x60 PUSH1 0x20 DUP3 ADD MSTORE PUSH1 0x0 PUSH2 0x257A PUSH1 0x60 DUP4 ADD DUP6 PUSH2 0x1BA9 JUMP JUMPDEST DUP3 DUP2 SUB PUSH1 0x40 DUP5 ADD MSTORE PUSH2 0x258C DUP2 DUP6 PUSH2 0x1BA9 JUMP JUMPDEST SWAP7 SWAP6 POP POP POP POP POP POP JUMP JUMPDEST DUP5 DUP2 MSTORE DUP4 ISZERO ISZERO PUSH1 0x20 DUP3 ADD MSTORE PUSH1 0x80 PUSH1 0x40 DUP3 ADD MSTORE PUSH1 0x0 PUSH2 0x25B7 PUSH1 0x80 DUP4 ADD DUP6 PUSH2 0x1BA9 JUMP JUMPDEST DUP3 DUP2 SUB PUSH1 0x60 DUP5 ADD MSTORE PUSH2 0x23FA DUP2 DUP6 PUSH2 0x1BA9 JUMP JUMPDEST DUP7 DUP2 MSTORE DUP6 PUSH1 0x20 DUP3 ADD MSTORE DUP5 PUSH1 0x40 DUP3 ADD MSTORE PUSH1 0xC0 PUSH1 0x60 DUP3 ADD MSTORE PUSH1 0x0 PUSH2 0x25EE PUSH1 0xC0 DUP4 ADD DUP7 PUSH2 0x1BA9 JUMP JUMPDEST PUSH1 0x1 PUSH1 0x1 PUSH1 0xA0 SHL SUB DUP6 AND PUSH1 0x80 DUP5 ADD MSTORE DUP3 DUP2 SUB PUSH1 0xA0 DUP5 ADD MSTORE PUSH2 0x2389 DUP2 DUP6 PUSH2 0x1BA9 JUMP JUMPDEST PUSH1 0x0 PUSH1 0x1 DUP1 PUSH1 0xA0 SHL SUB DUP1 DUP10 AND DUP4 MSTORE DUP8 PUSH1 0x20 DUP5 ADD MSTORE DUP1 DUP8 AND PUSH1 0x40 DUP5 ADD MSTORE POP DUP5 PUSH1 0x60 DUP4 ADD MSTORE DUP4 PUSH1 0x80 DUP4 ADD MSTORE PUSH1 0xC0 PUSH1 0xA0 DUP4 ADD MSTORE PUSH2 0x264C PUSH1 0xC0 DUP4 ADD DUP5 PUSH2 0x1BA9 JUMP JUMPDEST SWAP9 SWAP8 POP POP POP POP POP POP POP POP JUMP JUMPDEST PUSH1 0x40 DUP2 MSTORE PUSH1 0x0 PUSH2 0x266B PUSH1 0x40 DUP4 ADD DUP6 PUSH2 0x1BA9 JUMP JUMPDEST SWAP1 POP PUSH2 0xFFFF DUP4 AND PUSH1 0x20 DUP4 ADD MSTORE SWAP4 SWAP3 POP POP POP JUMP INVALID LOG2 PUSH5 0x6970667358 0x22 SLT KECCAK256 SWAP3 0xAD SMOD PUSH22 0x3E62DED686D5236454377D54FB58E64EEE050E09FDC3 0xE5 0xE4 0xD5 DUP15 SWAP7 PUSH17 0x64736F6C634300080C0033000000000000 ",
  "sha1": "e2f09a83214d8b7767527dea9d98f8968809fb7c",
  "source": "// SPDX-License-Identifier: MIT\npragma solidity ^0.8.11;\n\nimport \"@openzeppelin/contracts/proxy/utils/Initializable.sol\";\nimport \"../CLCore/CLStorage.sol\";\nimport \"../../interfaces/ICLHouse.sol\";\nimport \"../../interfaces/IUnlock.sol\";\n\n\n/// @title Contract to implement and call the fuctions of CLHouses\n/// @author Leonardo Urrego\ncontract CLHouse is CLStorage, Initializable {\n    /// @custom:oz-upgrades-unsafe-allow constructor\n    constructor() {\n        _disableInitializers();\n    }\n\n    /// @notice Constructor of the new CLH\n    /// @dev This function can be called once after proxy creation\n    /// @param _owner The address of the owner\n    /// @param _houseName Name given by the owner\n    /// @param _housePrivate If is set to 1, the CLH is set to private\n    /// @param _houseOpen If is set to 1, the CLH is set to Open\n    /// @param _govRuleMaxUsers Max users in the house\n    /// @param _CLC Array for CL Contracts and others see `enum eCLC`\n    function Init(\n        address _owner, \n        string memory _houseName,\n        bool _housePrivate,\n        bool _houseOpen,\n        uint256 _govRuleMaxUsers,\n        address[7] memory _CLC\n    )\n        external\n        reinitializer( __UPGRADEABLE_CLH_VERSION__ )\n    {\n        /// @custom:oz-upgrades-unsafe-allow delegatecall\n        (bool successDGTCLL, ) = _CLC[ uint256( eCLC.CLLConstructorCLH ) ].delegatecall(\n            abi.encodeWithSignature(\n                \"__CLHConstructor(address,string,bool,bool,uint256,address[7])\",\n                _owner, \n                _houseName,\n                _housePrivate,\n                _houseOpen,\n                _govRuleMaxUsers,\n                _CLC\n            )\n        );\n\n        if( !successDGTCLL ) {\n            assembly {\n                let ptr := mload(0x40)\n                let size := returndatasize()\n                returndatacopy(ptr, 0, size)\n                revert(ptr, size)\n            }\n        }\n    }\n\n    /// @notice Execute (or reject) a proposal computing the votes and the governance model\n    /// @dev Normally is called internally after each vote\n    /// @param _propId ID of the proposal, based on `arrProposals`\n    /// @return status True if the proposal can be execute, false in other cases\n    /// @return message result of the transaction\n    function ExecProp(\n        uint256 _propId\n    )\n        public\n        returns(\n            bool status,\n            string memory message\n        )\n    {\n        /// @custom:oz-upgrades-unsafe-allow delegatecall\n        (bool successDGTCLL, ) = pxyCLF.CLLGovernance().delegatecall(\n            abi.encodeWithSignature(\n                \"ExecProp(uint256)\",\n                _propId\n            )\n        );\n\n        if( !successDGTCLL ) {\n            assembly {\n                let ptr := mload(0x40)\n                let size := returndatasize()\n                returndatacopy(ptr, 0, size)\n                revert(ptr, size)\n            }\n        }\n\n        return ( true , \"Success executed proposal\" );\n    }\n\n    /// @notice Used to vote a proposal\n    /// @dev After vote the proposal automatically try to be executed\n    /// @param _propId ID of the proposal, based on `arrProposals`\n    /// @param _support True for accept, false to reject\n    /// @param _justification About your vote\n    /// @param _signature EIP712 Signature\n    function VoteProposal(\n        uint256 _propId,\n        bool _support,\n        string memory _justification,\n        bytes memory _signature\n    )\n        public\n    {\n        /// @custom:oz-upgrades-unsafe-allow delegatecall\n        (bool successDGTCLL, ) = pxyCLF.CLLGovernance().delegatecall(\n            abi.encodeWithSignature( \n                \"VoteProposal(uint256,bool,string,bytes)\",\n                _propId,\n                _support,\n                _justification,\n                _signature\n            )\n        );\n\n        if( !successDGTCLL ) {\n            assembly {\n                let ptr := mload(0x40)\n                let size := returndatasize()\n                returndatacopy(ptr, 0, size)\n                revert(ptr, size)\n            }\n        }\n    }\n\n    /// @notice Generate a new proposal to invite a new user\n    /// @dev the execution of this proposal only create an invitation \n    /// @param _walletAddr Wallet of the user\n    /// @param _nickname Can be the nickname or other reference to the User\n    /// @param _description A text for the proposal\n    /// @param _isManager True if is for a manager\n    /// @param _delayTime Time of live od the proposal in seconds\n    /// @param _signature EIP712 Signature\n    /// @return propId ID of the new proposal, based on `arrProposals`\n    function PropInvitUser(\n        address _walletAddr,\n        string memory _nickname,\n        string memory _description,\n        bool _isManager,\n        uint256 _delayTime,\n        bytes memory _signature\n    )\n        external\n        returns( uint256 propId )\n    {\n        /// @custom:oz-upgrades-unsafe-allow delegatecall\n        (bool successDGTCLL, ) = pxyCLF.CLLGovernance().delegatecall(\n            abi.encodeWithSignature( \n                \"PropInvitUser(address,string,string,bool,uint256,bytes)\",\n                _walletAddr,\n                _nickname,\n                _description,\n                _isManager,\n                _delayTime,\n                _signature\n            )\n        );\n\n        assembly {\n            let ptr := mload(0x40)\n            let size := returndatasize()\n            returndatacopy(ptr, 0, size)\n            if iszero( successDGTCLL ) {\n                revert(ptr, size)\n            }\n            propId := mload(ptr)\n        }\n    }\n\n    /// @notice Generate a new proposal for remove a user\n    /// @dev The user to remove can be a managaer\n    /// @param _walletAddr user Address to be removed\n    /// @param _description About the proposal\n    /// @param _delayTime Time of live od the proposal in seconds\n    /// @param _signature EIP712 Signature\n    /// @return propId ID of the new proposal, based on `arrProposals`\n    function PropRemoveUser(\n        address _walletAddr,\n        string memory _description,\n        uint256 _delayTime,\n        bytes memory _signature\n    )\n        external\n        returns( uint256 propId )\n    {\n        /// @custom:oz-upgrades-unsafe-allow delegatecall\n        (bool successDGTCLL, ) = pxyCLF.CLLGovernance().delegatecall(\n            abi.encodeWithSignature( \n                \"PropRemoveUser(address,string,uint256,bytes)\",\n                _walletAddr,\n                _description,\n                _delayTime,\n                _signature\n            )\n        );\n\n        assembly {\n            let ptr := mload(0x40)\n            let size := returndatasize()\n            returndatacopy(ptr, 0, size)\n            if iszero( successDGTCLL ) {\n                revert(ptr, size)\n            }\n            propId := mload(ptr)\n        }\n    }\n\n    /// @notice Generate a proposal from a user that want to join to the CLH\n    /// @dev Only avaiable in public CLH\n    /// @param _name Nickname or other user identification\n    /// @param _description About the request\n    /// @param _signerWallet Address of signer to check OffChain signature\n    /// @param _signature EIP712 Signature\n    /// @return propId ID of the new proposal, based on `arrProposals`\n    function PropRequestToJoin(\n        string memory _name,\n        string memory _description,\n        address _signerWallet,\n        bytes memory _signature\n    )\n        external\n        returns( uint256 )\n    {\n        /// @custom:oz-upgrades-unsafe-allow delegatecall\n        (bool successDGTCLL, ) = pxyCLF.CLLGovernance().delegatecall(\n            abi.encodeWithSignature( \n                \"PropRequestToJoin(string,string,address,bytes)\",\n                _name,\n                _description,\n                _signerWallet,\n                _signature\n            )\n        );\n\n        assembly {\n            let ptr := mload(0x40)\n            let size := returndatasize()\n            returndatacopy(ptr, 0, size)\n            if iszero( successDGTCLL ) {\n                revert(ptr, size)\n            }\n            return(ptr, size)\n        }\n    }\n\n    /// @notice For an user that have an invitation pending\n    /// @param _acceptance True for accept the invitation\n    /// @param _nickname A nickname for the user\n    /// @param _signature EIP712 Signature\n    function AcceptRejectInvitation(\n        bool _acceptance,\n        string memory _nickname,\n        bytes memory _signature\n    )\n        external\n    {\n        /// @custom:oz-upgrades-unsafe-allow delegatecall\n        (bool successDGTCLL, ) = pxyCLF.CLLUserManagement().delegatecall(\n            abi.encodeWithSignature( \n                \"AcceptRejectInvitation(bool,string,bytes)\",\n                _acceptance,\n                _nickname,\n                _signature\n            )\n        );\n\n        if( !successDGTCLL ) {\n            assembly {\n                let ptr := mload(0x40)\n                let size := returndatasize()\n                returndatacopy(ptr, 0, size)\n                revert(ptr, size)\n            }\n        }\n    }\n\n\n    /// @notice Vote for multiple proposal\n    /// @param _propIds Array with ID of the proposal to votes\n    /// @param _support is the Vote (True or False) for all proposals\n    /// @param _justification Description of the vote\n    /// @param _signature EIP712 Signature\n    function bulkVote(\n        uint256[] memory _propIds,\n        bool _support,\n        string memory _justification,\n        bytes memory _signature\n    )\n        external\n    {\n        /// @custom:oz-upgrades-unsafe-allow delegatecall\n        (bool successDGTCLL, ) = pxyCLF.CLLGovernance().delegatecall(\n            abi.encodeWithSignature( \n                \"bulkVote(uint256[],bool,string,bytes)\",\n                _propIds,\n                _support,\n                _justification,\n                _signature\n            )\n        );\n\n        assembly {\n            let ptr := mload(0x40)\n            let size := returndatasize()\n            returndatacopy(ptr, 0, size)\n            if iszero( successDGTCLL ) {\n                revert(ptr, size)\n            }\n            return(ptr, size)\n        }\n    }\n\n    /// @notice Length of arrUsers array\n    function GetArrUsersLength() external view returns( uint256 ){\n        return arrUsers.length;\n    }\n\n    /// @notice Length of arrProposals array\n    function GetArrProposalsLength() external view returns( uint256 ){\n        return arrProposals.length;\n    }\n\n    /// @notice The list of all Proposals\n    /// @return arrProposals the array with all proposals\n    function GetProposalList() external view returns( strProposal[] memory ) {\n        return arrProposals;\n    }\n\n    /// @notice Get complete array of arrDataPropUser\n    /// @return arrDataPropUser the array with all data\n    function GetArrDataPropUser() external view returns( strDataUser[] memory ) {\n        return arrDataPropUser;\n    }\n\n    /// @notice Get a version of CLH\n    /// @return version\n    function GetCLHouseVersion() external view returns ( string memory ) {\n        return __CLHOUSE_VERSION__;\n    }\n\n    /// @notice Set a new NFT Collection for Invitations\n    /// @param _whiteListNFT contract address of NFT\n    function SetWhitelistCollection( address _whiteListNFT ) external {\n        CheckIsManager( msg.sender );\n        whiteListNFT = _whiteListNFT;\n    }\n\n\n    /// @notice Create a new Lock proxy contract from Lock Factory\n    /// @param _expirationDuration Expiration for lcok in seconds\n    /// @param _keyPrice Price for each lock in wei\n    /// @param _maxNumberOfKeys How many locks\n    /// @param _lockName Lock Name\n    /// @param _signature EIP712 Signature\n    /// @return Contract address of the new lock\n    function CreateLock(\n        uint256 _expirationDuration,\n        uint256 _keyPrice,\n        uint256 _maxNumberOfKeys,\n        string memory _lockName,\n        bytes memory _signature\n    )\n        external\n        returns (\n            address\n        )\n    {\n        address realSender = msg.sender;\n\n        if( _signature.length == 65 ) {\n\n            realSender = pxyApiCLH.SignerOCNewLock(\n                _expirationDuration,\n                _keyPrice,\n                _maxNumberOfKeys,\n                _lockName,\n                address(this),\n                _signature\n            );\n\n            CheckECDSA( realSender );\n        }\n\n        CheckIsManager( realSender );\n\n        bytes memory params = abi.encodeWithSignature(\n            'initialize(address,uint256,address,uint256,uint256,string)',\n            realSender,\n            _expirationDuration,\n            address(0),\n            _keyPrice,\n            _maxNumberOfKeys,\n            _lockName\n        );\n\n        // https://docs.unlock-protocol.com/core-protocol/unlock/networks/\n        address aULF;\n        \n        if( 5 == block.chainid ) // Goerli\n            aULF = 0x627118a4fB747016911e5cDA82e2E77C531e8206;\n        else if( 137 == block.chainid ) // Polygon\n            aULF = 0xE8E5cd156f89F7bdB267EabD5C43Af3d5AF2A78f;\n        else if( 80001 == block.chainid ) // Mumbai\n            aULF = 0x1FF7e338d5E582138C46044dc238543Ce555C963;\n        else if( 1 == block.chainid ) // Mainnet\n            aULF = 0x3d5409CcE1d45233dE1D4eBDEe74b8E004abDD13;\n        else\n            revert(\"CreateLock: unsupported chain\");\n\n        IUnlock iULF = IUnlock( aULF );\n\n        whiteListNFT = iULF.createUpgradeableLockAtVersion( params, 11 );\n\n        return whiteListNFT;\n    }\n\n\n    /// @notice Retrieve some of the internal variables of the house\n    function HouseProperties() \n        external\n        view\n        returns(\n            string memory clhName,\n            bool[2] memory booleanVar,\n            uint256[5] memory uint256Var,\n            address[6] memory addressVar,\n            bytes32 govModelVar\n        )\n    {\n        clhName = houseName;\n        booleanVar[0] = housePrivate;\n        booleanVar[1] = houseOpen;\n\n        uint256Var[0] = numUsers;\n        uint256Var[1] = numManagers;\n        uint256Var[2] = govRuleApprovPercentage;\n        uint256Var[3] = govRuleMaxUsers;\n        uint256Var[4] = govRuleMaxManagers;\n\n        addressVar[0] = address( pxyCLF );\n        addressVar[1] = address( pxyApiCLH );\n        addressVar[2] = address( pxyNFTManager );\n        addressVar[3] = address( pxyNFTMember );\n        addressVar[4] = address( pxyNFTInvitation );\n        addressVar[5] = whiteListNFT;\n\n        govModelVar = HOUSE_GOVERNANCE_MODEL;\n    }\n\n\n    /// @notice Change the name of de House\n    /// @param _houseName New House Name\n    function UpdateHouseName( string memory _houseName ) external {\n        CheckIsManager( msg.sender );\n        houseName = _houseName;\n        emit evtChangeHouseName( _houseName );\n    }\n}",
  "sourcePath": "contracts/CLHouse/CLHouse.sol",
  "type": "contract"
}