{
  "abi": [
    {
      "inputs": [
        {
          "internalType": "address",
          "name": "_houseAddr",
          "type": "address"
        }
      ],
      "name": "GetHouseProperties",
      "outputs": [
        {
          "internalType": "string",
          "name": "HOUSE_NAME",
          "type": "string"
        },
        {
          "internalType": "bytes32",
          "name": "HOUSE_GOVERNANCE_MODEL",
          "type": "bytes32"
        },
        {
          "internalType": "bool",
          "name": "housePrivate",
          "type": "bool"
        },
        {
          "internalType": "bool",
          "name": "houseOpen",
          "type": "bool"
        },
        {
          "internalType": "uint256",
          "name": "numUsers",
          "type": "uint256"
        },
        {
          "internalType": "uint256",
          "name": "numManagers",
          "type": "uint256"
        },
        {
          "internalType": "uint256",
          "name": "govRuleApprovPercentage",
          "type": "uint256"
        },
        {
          "internalType": "uint256",
          "name": "govRuleMaxUsers",
          "type": "uint256"
        },
        {
          "internalType": "uint256",
          "name": "govRuleMaxManagers",
          "type": "uint256"
        }
      ],
      "stateMutability": "view",
      "type": "function"
    },
    {
      "inputs": [
        {
          "internalType": "address",
          "name": "_houseAddr",
          "type": "address"
        }
      ],
      "name": "GetHouseUserList",
      "outputs": [
        {
          "components": [
            {
              "internalType": "address",
              "name": "walletAddr",
              "type": "address"
            },
            {
              "internalType": "string",
              "name": "name",
              "type": "string"
            },
            {
              "internalType": "uint256",
              "name": "balance",
              "type": "uint256"
            },
            {
              "internalType": "bool",
              "name": "isUser",
              "type": "bool"
            },
            {
              "internalType": "bool",
              "name": "isManager",
              "type": "bool"
            }
          ],
          "internalType": "struct strUser[]",
          "name": "arrUsers",
          "type": "tuple[]"
        }
      ],
      "stateMutability": "view",
      "type": "function"
    },
    {
      "inputs": [
        {
          "internalType": "address",
          "name": "_houseAddr",
          "type": "address"
        },
        {
          "internalType": "address",
          "name": "_walletAddr",
          "type": "address"
        }
      ],
      "name": "GetUserInfoByAddress",
      "outputs": [
        {
          "internalType": "string",
          "name": "name",
          "type": "string"
        },
        {
          "internalType": "uint256",
          "name": "balance",
          "type": "uint256"
        },
        {
          "internalType": "bool",
          "name": "isUser",
          "type": "bool"
        },
        {
          "internalType": "bool",
          "name": "isManager",
          "type": "bool"
        }
      ],
      "stateMutability": "view",
      "type": "function"
    },
    {
      "inputs": [
        {
          "internalType": "uint256[]",
          "name": "_propIds",
          "type": "uint256[]"
        },
        {
          "internalType": "bool",
          "name": "_support",
          "type": "bool"
        },
        {
          "internalType": "string",
          "name": "_justification",
          "type": "string"
        },
        {
          "internalType": "address",
          "name": "_houseAddr",
          "type": "address"
        },
        {
          "internalType": "bytes",
          "name": "_signature",
          "type": "bytes"
        }
      ],
      "name": "SignerOCBulkVote",
      "outputs": [
        {
          "internalType": "address",
          "name": "",
          "type": "address"
        }
      ],
      "stateMutability": "view",
      "type": "function"
    },
    {
      "inputs": [
        {
          "internalType": "address",
          "name": "_walletAddr",
          "type": "address"
        },
        {
          "internalType": "string",
          "name": "_description",
          "type": "string"
        },
        {
          "internalType": "uint256",
          "name": "_delayTime",
          "type": "uint256"
        },
        {
          "internalType": "address",
          "name": "_houseAddr",
          "type": "address"
        },
        {
          "internalType": "bytes",
          "name": "_signature",
          "type": "bytes"
        }
      ],
      "name": "SignerOCDelUser",
      "outputs": [
        {
          "internalType": "address",
          "name": "",
          "type": "address"
        }
      ],
      "stateMutability": "view",
      "type": "function"
    },
    {
      "inputs": [
        {
          "internalType": "bool",
          "name": "_acceptance",
          "type": "bool"
        },
        {
          "internalType": "address",
          "name": "_houseAddr",
          "type": "address"
        },
        {
          "internalType": "bytes",
          "name": "_signature",
          "type": "bytes"
        }
      ],
      "name": "SignerOCInvit",
      "outputs": [
        {
          "internalType": "address",
          "name": "",
          "type": "address"
        }
      ],
      "stateMutability": "view",
      "type": "function"
    },
    {
      "inputs": [
        {
          "internalType": "string",
          "name": "_houseName",
          "type": "string"
        },
        {
          "internalType": "bool",
          "name": "_housePrivate",
          "type": "bool"
        },
        {
          "internalType": "bool",
          "name": "_houseOpen",
          "type": "bool"
        },
        {
          "internalType": "bytes32",
          "name": "_govModel",
          "type": "bytes32"
        },
        {
          "internalType": "uint256",
          "name": "_govRuleMaxUsers",
          "type": "uint256"
        },
        {
          "internalType": "uint256",
          "name": "_govRuleMaxManagers",
          "type": "uint256"
        },
        {
          "internalType": "uint256",
          "name": "_govRuleApprovPercentage",
          "type": "uint256"
        },
        {
          "internalType": "address",
          "name": "_whiteListNFT",
          "type": "address"
        },
        {
          "internalType": "address",
          "name": "_whiteListWallets",
          "type": "address"
        },
        {
          "internalType": "address",
          "name": "_addrCLF",
          "type": "address"
        },
        {
          "internalType": "bytes",
          "name": "_signature",
          "type": "bytes"
        }
      ],
      "name": "SignerOCNewCLH",
      "outputs": [
        {
          "internalType": "address",
          "name": "",
          "type": "address"
        }
      ],
      "stateMutability": "view",
      "type": "function"
    },
    {
      "inputs": [
        {
          "internalType": "uint256",
          "name": "_expirationDuration",
          "type": "uint256"
        },
        {
          "internalType": "uint256",
          "name": "_keyPrice",
          "type": "uint256"
        },
        {
          "internalType": "uint256",
          "name": "_maxNumberOfKeys",
          "type": "uint256"
        },
        {
          "internalType": "string",
          "name": "_lockName",
          "type": "string"
        },
        {
          "internalType": "address",
          "name": "_houseAddr",
          "type": "address"
        },
        {
          "internalType": "bytes",
          "name": "_signature",
          "type": "bytes"
        }
      ],
      "name": "SignerOCNewLock",
      "outputs": [
        {
          "internalType": "address",
          "name": "",
          "type": "address"
        }
      ],
      "stateMutability": "view",
      "type": "function"
    },
    {
      "inputs": [
        {
          "internalType": "address",
          "name": "_walletAddr",
          "type": "address"
        },
        {
          "internalType": "string",
          "name": "_name",
          "type": "string"
        },
        {
          "internalType": "string",
          "name": "_description",
          "type": "string"
        },
        {
          "internalType": "bool",
          "name": "_isManager",
          "type": "bool"
        },
        {
          "internalType": "uint256",
          "name": "_delayTime",
          "type": "uint256"
        },
        {
          "internalType": "address",
          "name": "_houseAddr",
          "type": "address"
        },
        {
          "internalType": "bytes",
          "name": "_signature",
          "type": "bytes"
        }
      ],
      "name": "SignerOCNewUser",
      "outputs": [
        {
          "internalType": "address",
          "name": "",
          "type": "address"
        }
      ],
      "stateMutability": "view",
      "type": "function"
    },
    {
      "inputs": [
        {
          "internalType": "string",
          "name": "_name",
          "type": "string"
        },
        {
          "internalType": "string",
          "name": "_description",
          "type": "string"
        },
        {
          "internalType": "address",
          "name": "_houseAddr",
          "type": "address"
        },
        {
          "internalType": "bytes",
          "name": "_signature",
          "type": "bytes"
        }
      ],
      "name": "SignerOCRequest",
      "outputs": [
        {
          "internalType": "address",
          "name": "",
          "type": "address"
        }
      ],
      "stateMutability": "view",
      "type": "function"
    },
    {
      "inputs": [
        {
          "internalType": "uint256",
          "name": "_propId",
          "type": "uint256"
        },
        {
          "internalType": "bool",
          "name": "_support",
          "type": "bool"
        },
        {
          "internalType": "string",
          "name": "_justification",
          "type": "string"
        },
        {
          "internalType": "address",
          "name": "_houseAddr",
          "type": "address"
        },
        {
          "internalType": "bytes",
          "name": "_signature",
          "type": "bytes"
        }
      ],
      "name": "SignerOCVote",
      "outputs": [
        {
          "internalType": "address",
          "name": "",
          "type": "address"
        }
      ],
      "stateMutability": "view",
      "type": "function"
    },
    {
      "inputs": [
        {
          "internalType": "bytes32",
          "name": "_msghash",
          "type": "bytes32"
        },
        {
          "internalType": "bytes",
          "name": "_signature",
          "type": "bytes"
        }
      ],
      "name": "SignerOfMsg",
      "outputs": [
        {
          "internalType": "address",
          "name": "",
          "type": "address"
        }
      ],
      "stateMutability": "pure",
      "type": "function"
    }
  ],
  "bytecode": "608060405234801561001057600080fd5b5061240a806100206000396000f3fe608060405234801561001057600080fd5b50600436106100b45760003560e01c806389ab062a1161007157806389ab062a1461016d5780638b4bccca146101805780639f6fd7ab14610193578063b698be8d146101a6578063f0b00c9f146101c6578063f240c7e9146101d957600080fd5b80630daff036146100b9578063349dc296146100e9578063622eca77146100fc5780637b3bb1561461010f57806386abd826146101225780638750bc3e14610145575b600080fd5b6100cc6100c73660046119cf565b6101ec565b6040516001600160a01b0390911681526020015b60405180910390f35b6100cc6100f7366004611a62565b6103dd565b6100cc61010a366004611af6565b6105b5565b6100cc61011d366004611b3c565b610679565b610135610130366004611bd8565b61083e565b6040516100e09493929190611c6d565b610158610153366004611c9e565b610a03565b6040516100e099989796959493929190611cc2565b6100cc61017b366004611d2f565b610dac565b6100cc61018e366004611d93565b610f0e565b6100cc6101a1366004611e74565b6111b4565b6101b96101b4366004611c9e565b611305565b6040516100e09190611ed5565b6100cc6101d4366004611f79565b611531565b6100cc6101e736600461206f565b611688565b6000806040516020016101fe90612139565b60408051601f19818403018152828252805160209182012083830183526005845264302e312e3160d81b84830152915191926000805160206123b58339815191529261024a92016121a3565b6040516020818303038152906040528051906020012046876040516020016102769594939291906121bf565b6040516020818303038152906040528051906020012090506000604051602001610319907f7374724f434e65774c6f636b2875696e743235362065787069726174696f6e4481527f75726174696f6e2c75696e74323536206b657950726963652c75696e7432353660208201527f206d61784e756d6265724f664b6579732c737472696e67206c6f636b4e616d656040820152602960f81b606082015260610190565b604051602081830303815290604052805190602001208989898960405160200161034391906121a3565b60408051601f198184030181528282528051602091820120908301969096528101939093526060830191909152608082015260a081019190915260c001604051602081830303815290604052805190602001209050600082826040516020016103ad9291906121eb565b6040516020818303038152906040528051906020012090506103cf81866105b5565b9a9950505050505050505050565b6000806040516020016103ef90612139565b60408051601f19818403018152828252805160209182012083830183526005845264302e312e3160d81b84830152915191926000805160206123b58339815191529261043b92016121a3565b6040516020818303038152906040528051906020012046876040516020016104679594939291906121bf565b60405160208183030381529060405280519060200120905060006040516020016104e8907f7374724f4344656c5573657228616464726573732077616c6c6574416464722c81527f737472696e67206465736372697074696f6e2c75696e743235362064656c617960208201526454696d652960d81b604082015260450190565b60405160208183030381529060405280519060200120888860405160200161051091906121a3565b604051602081830303815290604052805190602001208860405160200161055994939291909384526001600160a01b039290921660208401526040830152606082015260800190565b604051602081830303815290604052805190602001209050600082826040516020016105869291906121eb565b6040516020818303038152906040528051906020012090506105a881866105b5565b9998505050505050505050565b600081516041146106045760405162461bcd60e51b8152602060048201526014602482015273084c2c840e6d2cedcc2e8eae4ca40d8cadccee8d60631b60448201526064015b60405180910390fd5b602082810151604080850151606080870151835160008082529681018086528a9052951a928501839052840183905260808401819052919260019060a0016020604051602081039080840390855afa158015610664573d6000803e3d6000fd5b5050604051601f190151979650505050505050565b60008060405160200161068b90612139565b60408051601f19818403018152828252805160209182012083830183526005845264302e312e3160d81b84830152915191926000805160206123b5833981519152926106d792016121a3565b6040516020818303038152906040528051906020012046876040516020016107039594939291906121bf565b6040516020818303038152906040528051906020012090506000604051602001610765907f7374724f435265717565737428737472696e67206e616d652c737472696e672081526b6465736372697074696f6e2960a01b6020820152602c0190565b604051602081830303815290604052805190602001208760405160200161078c91906121a3565b60405160208183030381529060405280519060200120876040516020016107b391906121a3565b60408051601f198184030181528282528051602091820120908301949094528101919091526060810191909152608001604051602081830303815290604052805190602001209050600082826040516020016108109291906121eb565b60405160208183030381529060405280519060200120905061083281866105b5565b98975050505050505050565b604051631c3fe46360e21b81526001600160a01b03828116600483015260609160009182918291879183918316906370ff918c90602401602060405180830381865afa158015610892573d6000803e3d6000fd5b505050506040513d601f19601f820116820180604052508101906108b69190612206565b9050806108fb5760405162461bcd60e51b815260206004820152601360248201527241646472657373206e6f74206578697374212160681b60448201526064016105fb565b6109036118a8565b6040516308ad020760e21b8152600481018390526001600160a01b038416906322b4081c90602401600060405180830381865afa158015610948573d6000803e3d6000fd5b505050506040513d6000823e601f3d908101601f19168201604052610970919081019061226c565b15156080860152151560608501819052604085019190915260208401919091526001600160a01b0390911682526001146109dc5760405162461bcd60e51b815260206004820152600d60248201526c24b9903737ba1030903ab9b2b960991b60448201526064016105fb565b602081015160408201516060830151608090930151919b909a509198509650945050505050565b606060008060008060008060008060008a9050806001600160a01b03166359ca2d036040518163ffffffff1660e01b8152600401600060405180830381865afa158015610a54573d6000803e3d6000fd5b505050506040513d6000823e601f3d908101601f19168201604052610a7c91908101906122ee565b816001600160a01b0316631d5fd3ca6040518163ffffffff1660e01b8152600401602060405180830381865afa158015610aba573d6000803e3d6000fd5b505050506040513d601f19601f82011682018060405250810190610ade9190612206565b826001600160a01b031663f00d62746040518163ffffffff1660e01b8152600401602060405180830381865afa158015610b1c573d6000803e3d6000fd5b505050506040513d601f19601f82011682018060405250810190610b409190612322565b836001600160a01b0316631f2e13396040518163ffffffff1660e01b8152600401602060405180830381865afa158015610b7e573d6000803e3d6000fd5b505050506040513d601f19601f82011682018060405250810190610ba29190612322565b846001600160a01b03166319a50f496040518163ffffffff1660e01b8152600401602060405180830381865afa158015610be0573d6000803e3d6000fd5b505050506040513d601f19601f82011682018060405250810190610c049190612206565b856001600160a01b031663e68777d76040518163ffffffff1660e01b8152600401602060405180830381865afa158015610c42573d6000803e3d6000fd5b505050506040513d601f19601f82011682018060405250810190610c669190612206565b866001600160a01b0316639c630a886040518163ffffffff1660e01b8152600401602060405180830381865afa158015610ca4573d6000803e3d6000fd5b505050506040513d601f19601f82011682018060405250810190610cc89190612206565b876001600160a01b0316631343e9a56040518163ffffffff1660e01b8152600401602060405180830381865afa158015610d06573d6000803e3d6000fd5b505050506040513d601f19601f82011682018060405250810190610d2a9190612206565b886001600160a01b031663e810a58e6040518163ffffffff1660e01b8152600401602060405180830381865afa158015610d68573d6000803e3d6000fd5b505050506040513d601f19601f82011682018060405250810190610d8c9190612206565b995099509950995099509950995099509950509193959799909294969850565b600080604051602001610dbe90612139565b60408051601f19818403018152828252805160209182012083830183526005845264302e312e3160d81b84830152915191926000805160206123b583398151915292610e0a92016121a3565b604051602081830303815290604052805190602001204687604051602001610e369594939291906121bf565b6040516020818303038152906040528051906020012090506000604051602001610ea9907f7374724f43566f74652875696e743235362070726f7049642c626f6f6c20737581527f70706f72742c737472696e67206a757374696669636174696f6e2900000000006020820152603b0190565b60405160208183030381529060405280519060200120888888604051602001610ed291906121a3565b60408051601f1981840301815282825280516020918201209083019590955281019290925215156060820152608081019190915260a001610559565b600080604051602001610f2090612139565b60408051601f19818403018152828252805160209182012083830183526005845264302e312e3160d81b84830152915191926000805160206123b583398151915292610f6c92016121a3565b604051602081830303815290604052805190602001204687604051602001610f989594939291906121bf565b60405160208183030381529060405280519060200120905060006040516020016110bc907f7374724f434e6577434c4828737472696e6720686f7573654e616d652c626f6f81527f6c20686f757365507269766174652c626f6f6c20686f7573654f70656e2c627960208201527f746573333220676f764d6f64656c2c75696e7432353620676f7652756c654d6160408201527f7855736572732c75696e7432353620676f7652756c654d61784d616e6167657260608201527f732c75696e7432353620676f7652756c65417070726f7650657263656e74616760808201527f652c616464726573732077686974654c6973744e46542c61646472657373207760a08201526f686974654c69737457616c6c6574732960801b60c082015260d00190565b604051602081830303815290604052805190602001208e6040516020016110e391906121a3565b60408051601f198184030181528282528051602091820120908301939093528101919091528d151560608201528c1515608082015260a081018c905260c081018b905260e081018a905261010081018990526001600160a01b038089166101208301528716610140820152610160016040516020818303038152906040528051906020012090506000828260405160200161117f9291906121eb565b6040516020818303038152906040528051906020012090506111a181866105b5565b9f9e505050505050505050505050505050565b6000806040516020016111c690612139565b60408051601f19818403018152828252805160209182012083830183526005845264302e312e3160d81b84830152915191926000805160206123b58339815191529261121292016121a3565b60405160208183030381529060405280519060200120468760405160200161123e9594939291906121bf565b604051602081830303815290604052805190602001209050600060405160200161128b907f7374724f43496e76697428626f6f6c20616363657074616e63652900000000008152601b0190565b60408051808303601f190181528282528051602091820120818401528815158383015281518084038301815260608401909252815191012091506000906112d890849084906080016121eb565b6040516020818303038152906040528051906020012090506112fa81866105b5565b979650505050505050565b606060008290506000816001600160a01b03166319a50f496040518163ffffffff1660e01b8152600401602060405180830381865afa15801561134c573d6000803e3d6000fd5b505050506040513d601f19601f820116820180604052508101906113709190612206565b90506000826001600160a01b031663a693649a6040518163ffffffff1660e01b8152600401602060405180830381865afa1580156113b2573d6000803e3d6000fd5b505050506040513d601f19601f820116820180604052508101906113d69190612206565b90506000826001600160401b038111156113f2576113f26118e4565b60405190808252806020026020018201604052801561142b57816020015b6114186118a8565b8152602001906001900390816114105790505b509050600060015b83811015611525576114436118a8565b6040516308ad020760e21b8152600481018390526001600160a01b038816906322b4081c90602401600060405180830381865afa158015611488573d6000803e3d6000fd5b505050506040513d6000823e601f3d908101601f191682016040526114b0919081019061226c565b15156080860152151560608501819052604085019190915260208401919091526001600160a01b0390911682526001141561151257808484815181106114f8576114f861233f565b6020026020010181905250828061150e90612355565b9350505b508061151d81612355565b915050611433565b50909695505050505050565b60008060405160200161154390612139565b60408051601f19818403018152828252805160209182012083830183526005845264302e312e3160d81b84830152915191926000805160206123b58339815191529261158f92016121a3565b6040516020818303038152906040528051906020012046876040516020016115bb9594939291906121bf565b6040516020818303038152906040528051906020012090506000604051602001611639907f7374724f4342756c6b566f74652875696e743235365b5d2070726f704964732c81527f626f6f6c20737570706f72742c737472696e67206a757374696669636174696f6020820152616e2960f01b604082015260420190565b6040516020818303038152906040528051906020012088604051602001611660919061237e565b604051602081830303815290604052805190602001208888604051602001610ed291906121a3565b60008060405160200161169a90612139565b60408051601f19818403018152828252805160209182012083830183526005845264302e312e3160d81b84830152915191926000805160206123b5833981519152926116e692016121a3565b6040516020818303038152906040528051906020012046876040516020016117129594939291906121bf565b60405160208183030381529060405280519060200120905060006040516020016117ab907f7374724f434e65775573657228616464726573732077616c6c6574416464722c81527f737472696e67206e616d652c737472696e67206465736372697074696f6e2c6260208201527f6f6f6c2069734d616e616765722c75696e743235362064656c617954696d6529604082015260600190565b604051602081830303815290604052805190602001208a8a6040516020016117d391906121a3565b604051602081830303815290604052805190602001208a6040516020016117fa91906121a3565b60408051601f198184030181528282528051602091820120908301959095526001600160a01b03909316928101929092526060820152608081019190915287151560a082015260c0810187905260e001604051602081830303815290604052805190602001209050600082826040516020016118779291906121eb565b60405160208183030381529060405280519060200120905061189981866105b5565b9b9a5050505050505050505050565b6040518060a0016040528060006001600160a01b0316815260200160608152602001600081526020016000151581526020016000151581525090565b634e487b7160e01b600052604160045260246000fd5b604051601f8201601f191681016001600160401b0381118282101715611922576119226118e4565b604052919050565b60006001600160401b03821115611943576119436118e4565b50601f01601f191660200190565b600082601f83011261196257600080fd5b81356119756119708261192a565b6118fa565b81815284602083860101111561198a57600080fd5b816020850160208301376000918101602001919091529392505050565b6001600160a01b03811681146119bc57600080fd5b50565b80356119ca816119a7565b919050565b60008060008060008060c087890312156119e857600080fd5b86359550602087013594506040870135935060608701356001600160401b0380821115611a1457600080fd5b611a208a838b01611951565b945060808901359150611a32826119a7565b90925060a08801359080821115611a4857600080fd5b50611a5589828a01611951565b9150509295509295509295565b600080600080600060a08688031215611a7a57600080fd5b8535611a85816119a7565b945060208601356001600160401b0380821115611aa157600080fd5b611aad89838a01611951565b95506040880135945060608801359150611ac6826119a7565b90925060808701359080821115611adc57600080fd5b50611ae988828901611951565b9150509295509295909350565b60008060408385031215611b0957600080fd5b8235915060208301356001600160401b03811115611b2657600080fd5b611b3285828601611951565b9150509250929050565b60008060008060808587031215611b5257600080fd5b84356001600160401b0380821115611b6957600080fd5b611b7588838901611951565b95506020870135915080821115611b8b57600080fd5b611b9788838901611951565b945060408701359150611ba9826119a7565b90925060608601359080821115611bbf57600080fd5b50611bcc87828801611951565b91505092959194509250565b60008060408385031215611beb57600080fd5b8235611bf6816119a7565b91506020830135611c06816119a7565b809150509250929050565b60005b83811015611c2c578181015183820152602001611c14565b83811115611c3b576000848401525b50505050565b60008151808452611c59816020860160208601611c11565b601f01601f19169290920160200192915050565b608081526000611c806080830187611c41565b60208301959095525091151560408301521515606090910152919050565b600060208284031215611cb057600080fd5b8135611cbb816119a7565b9392505050565b6000610120808352611cd68184018d611c41565b602084019b909b52505096151560408801529415156060870152608086019390935260a085019190915260c084015260e083015261010090910152919050565b80151581146119bc57600080fd5b80356119ca81611d16565b600080600080600060a08688031215611d4757600080fd5b853594506020860135611d5981611d16565b935060408601356001600160401b0380821115611d7557600080fd5b611d8189838a01611951565b945060608801359150611ac6826119a7565b60008060008060008060008060008060006101608c8e031215611db557600080fd5b6001600160401b03808d351115611dcb57600080fd5b611dd88e8e358f01611951565b9b50611de660208e01611d24565b9a50611df460408e01611d24565b995060608d0135985060808d0135975060a08d0135965060c08d01359550611e1e60e08e016119bf565b9450611e2d6101008e016119bf565b9350611e3c6101208e016119bf565b9250806101408e01351115611e5057600080fd5b50611e628d6101408e01358e01611951565b90509295989b509295989b9093969950565b600080600060608486031215611e8957600080fd5b8335611e9481611d16565b92506020840135611ea4816119a7565b915060408401356001600160401b03811115611ebf57600080fd5b611ecb86828701611951565b9150509250925092565b60006020808301818452808551808352604092508286019150828160051b87010184880160005b83811015611f6b57888303603f19018552815180516001600160a01b031684528781015160a089860181905290611f3582870182611c41565b838a0151878b01526060808501511515908801526080938401511515939096019290925250509386019390860190600101611efc565b509098975050505050505050565b600080600080600060a08688031215611f9157600080fd5b85356001600160401b0380821115611fa857600080fd5b818801915088601f830112611fbc57600080fd5b8135602082821115611fd057611fd06118e4565b8160051b611fdf8282016118fa565b928352848101820192828101908d851115611ff957600080fd5b958301955b8487101561201757863582529583019590830190611ffe565b9a506120279150508a8201611d24565b97505050604088013591508082111561203f57600080fd5b61204b89838a01611951565b9450612059606089016119bf565b93506080880135915080821115611adc57600080fd5b600080600080600080600060e0888a03121561208a57600080fd5b8735612095816119a7565b965060208801356001600160401b03808211156120b157600080fd5b6120bd8b838c01611951565b975060408a01359150808211156120d357600080fd5b6120df8b838c01611951565b965060608a013591506120f182611d16565b81955060808a0135945061210760a08b016119bf565b935060c08a013591508082111561211d57600080fd5b5061212a8a828b01611951565b91505092959891949750929550565b7f454950373132446f6d61696e28737472696e67206e616d652c737472696e672081527f76657273696f6e2c75696e7432353620636861696e49642c6164647265737320602082015271766572696679696e67436f6e74726163742960701b604082015260520190565b600082516121b5818460208701611c11565b9190910192915050565b9485526020850193909352604084019190915260608301526001600160a01b0316608082015260a00190565b61190160f01b81526002810192909252602282015260420190565b60006020828403121561221857600080fd5b5051919050565b600082601f83011261223057600080fd5b815161223e6119708261192a565b81815284602083860101111561225357600080fd5b612264826020830160208701611c11565b949350505050565b600080600080600060a0868803121561228457600080fd5b855161228f816119a7565b60208701519095506001600160401b038111156122ab57600080fd5b6122b78882890161221f565b9450506040860151925060608601516122cf81611d16565b60808701519092506122e081611d16565b809150509295509295909350565b60006020828403121561230057600080fd5b81516001600160401b0381111561231657600080fd5b6122648482850161221f565b60006020828403121561233457600080fd5b8151611cbb81611d16565b634e487b7160e01b600052603260045260246000fd5b600060001982141561237757634e487b7160e01b600052601160045260246000fd5b5060010190565b815160009082906020808601845b838110156123a85781518552938201939082019060010161238c565b5092969550505050505056fe01318895af1f6db161b2ba745b8e57a6b46efad77d736630379ec69c3cd4c875a26469706673582212209530762479707f441beebad2aa5eb8b00c4e33ade9a62e9731b6b53984b7b97264736f6c634300080c0033",
  "bytecodeSha1": "c49c35d94db0b47cfc3ca63af2f248b36f34d315",
  "compiler": {
    "evm_version": "istanbul",
    "optimizer": {
      "enabled": true,
      "runs": 200
    },
    "version": "0.8.12+commit.f00d7308"
  },
  "contractName": "CLHouseApi",
  "language": "Solidity",
  "natspec": {
    "author": "Leonardo Urrego",
    "kind": "dev",
    "methods": {
      "GetHouseProperties(address)": {
        "notice": "All properties of a House",
        "params": {
          "_houseAddr": "CLH address"
        },
        "returns": {
          "HOUSE_GOVERNANCE_MODEL": "Hash of governance model",
          "HOUSE_NAME": "name of the CLH",
          "govRuleApprovPercentage": "Percentage for approval o reject proposal based on `numManagers`",
          "govRuleMaxManagers": "Max of managers that CLH can accept (only for COMMITTEE )",
          "govRuleMaxUsers": "Max of all users (including managers)",
          "houseOpen": "True if is Open",
          "housePrivate": "True if is private",
          "numManagers": "Current managers of a CLH",
          "numUsers": "Current users of a CLH"
        }
      },
      "GetHouseUserList(address)": {
        "notice": "The list of all users address",
        "params": {
          "_houseAddr": "address of the CLH"
        },
        "returns": {
          "arrUsers": "array with list of users"
        }
      },
      "GetUserInfoByAddress(address,address)": {
        "notice": "Get the info of an user in one especific CLH",
        "params": {
          "_houseAddr": "Address of the CLH",
          "_walletAddr": "Address of the user"
        },
        "returns": {
          "balance": "How much money have deposited",
          "isManager": "true if is manager",
          "isUser": "true if is User",
          "name": "Nickname ot other user identificaction"
        }
      },
      "SignerOfMsg(bytes32,bytes)": {
        "notice": "A funtion to verify the signer of a menssage",
        "params": {
          "_msghash": "Hash of the message",
          "_signature": "Signature of the message"
        },
        "returns": {
          "_0": "Signer address of the message"
        }
      }
    },
    "notice": "This contract is only for test ",
    "title": "Some funtions to interact with a CLHouse",
    "version": 1
  },
  "opcodes": "PUSH1 0x80 PUSH1 0x40 MSTORE CALLVALUE DUP1 ISZERO PUSH2 0x10 JUMPI PUSH1 0x0 DUP1 REVERT JUMPDEST POP PUSH1 0x4 CALLDATASIZE LT PUSH2 0xB4 JUMPI PUSH1 0x0 CALLDATALOAD PUSH1 0xE0 SHR DUP1 PUSH4 0x89AB062A GT PUSH2 0x71 JUMPI DUP1 PUSH4 0x89AB062A EQ PUSH2 0x16D JUMPI DUP1 PUSH4 0x8B4BCCCA EQ PUSH2 0x180 JUMPI DUP1 PUSH4 0x9F6FD7AB EQ PUSH2 0x193 JUMPI DUP1 PUSH4 0xB698BE8D EQ PUSH2 0x1A6 JUMPI DUP1 PUSH4 0xF0B00C9F EQ PUSH2 0x1C6 JUMPI DUP1 PUSH4 0xF240C7E9 EQ PUSH2 0x1D9 JUMPI PUSH1 0x0 DUP1 REVERT JUMPDEST DUP1 PUSH4 0xDAFF036 EQ PUSH2 0xB9 JUMPI DUP1 PUSH4 0x349DC296 EQ PUSH2 0xE9 JUMPI DUP1 PUSH4 0x622ECA77 EQ PUSH2 0xFC JUMPI DUP1 PUSH4 0x7B3BB156 EQ PUSH2 0x10F JUMPI DUP1 PUSH4 0x86ABD826 EQ PUSH2 0x122 JUMPI DUP1 PUSH4 0x8750BC3E EQ PUSH2 0x145 JUMPI JUMPDEST PUSH1 0x0 DUP1 REVERT JUMPDEST PUSH2 0xCC PUSH2 0xC7 CALLDATASIZE PUSH1 0x4 PUSH2 0x19CF JUMP JUMPDEST PUSH2 0x1EC JUMP JUMPDEST PUSH1 0x40 MLOAD PUSH1 0x1 PUSH1 0x1 PUSH1 0xA0 SHL SUB SWAP1 SWAP2 AND DUP2 MSTORE PUSH1 0x20 ADD JUMPDEST PUSH1 0x40 MLOAD DUP1 SWAP2 SUB SWAP1 RETURN JUMPDEST PUSH2 0xCC PUSH2 0xF7 CALLDATASIZE PUSH1 0x4 PUSH2 0x1A62 JUMP JUMPDEST PUSH2 0x3DD JUMP JUMPDEST PUSH2 0xCC PUSH2 0x10A CALLDATASIZE PUSH1 0x4 PUSH2 0x1AF6 JUMP JUMPDEST PUSH2 0x5B5 JUMP JUMPDEST PUSH2 0xCC PUSH2 0x11D CALLDATASIZE PUSH1 0x4 PUSH2 0x1B3C JUMP JUMPDEST PUSH2 0x679 JUMP JUMPDEST PUSH2 0x135 PUSH2 0x130 CALLDATASIZE PUSH1 0x4 PUSH2 0x1BD8 JUMP JUMPDEST PUSH2 0x83E JUMP JUMPDEST PUSH1 0x40 MLOAD PUSH2 0xE0 SWAP5 SWAP4 SWAP3 SWAP2 SWAP1 PUSH2 0x1C6D JUMP JUMPDEST PUSH2 0x158 PUSH2 0x153 CALLDATASIZE PUSH1 0x4 PUSH2 0x1C9E JUMP JUMPDEST PUSH2 0xA03 JUMP JUMPDEST PUSH1 0x40 MLOAD PUSH2 0xE0 SWAP10 SWAP9 SWAP8 SWAP7 SWAP6 SWAP5 SWAP4 SWAP3 SWAP2 SWAP1 PUSH2 0x1CC2 JUMP JUMPDEST PUSH2 0xCC PUSH2 0x17B CALLDATASIZE PUSH1 0x4 PUSH2 0x1D2F JUMP JUMPDEST PUSH2 0xDAC JUMP JUMPDEST PUSH2 0xCC PUSH2 0x18E CALLDATASIZE PUSH1 0x4 PUSH2 0x1D93 JUMP JUMPDEST PUSH2 0xF0E JUMP JUMPDEST PUSH2 0xCC PUSH2 0x1A1 CALLDATASIZE PUSH1 0x4 PUSH2 0x1E74 JUMP JUMPDEST PUSH2 0x11B4 JUMP JUMPDEST PUSH2 0x1B9 PUSH2 0x1B4 CALLDATASIZE PUSH1 0x4 PUSH2 0x1C9E JUMP JUMPDEST PUSH2 0x1305 JUMP JUMPDEST PUSH1 0x40 MLOAD PUSH2 0xE0 SWAP2 SWAP1 PUSH2 0x1ED5 JUMP JUMPDEST PUSH2 0xCC PUSH2 0x1D4 CALLDATASIZE PUSH1 0x4 PUSH2 0x1F79 JUMP JUMPDEST PUSH2 0x1531 JUMP JUMPDEST PUSH2 0xCC PUSH2 0x1E7 CALLDATASIZE PUSH1 0x4 PUSH2 0x206F JUMP JUMPDEST PUSH2 0x1688 JUMP JUMPDEST PUSH1 0x0 DUP1 PUSH1 0x40 MLOAD PUSH1 0x20 ADD PUSH2 0x1FE SWAP1 PUSH2 0x2139 JUMP JUMPDEST PUSH1 0x40 DUP1 MLOAD PUSH1 0x1F NOT DUP2 DUP5 SUB ADD DUP2 MSTORE DUP3 DUP3 MSTORE DUP1 MLOAD PUSH1 0x20 SWAP2 DUP3 ADD KECCAK256 DUP4 DUP4 ADD DUP4 MSTORE PUSH1 0x5 DUP5 MSTORE PUSH5 0x302E312E31 PUSH1 0xD8 SHL DUP5 DUP4 ADD MSTORE SWAP2 MLOAD SWAP2 SWAP3 PUSH1 0x0 DUP1 MLOAD PUSH1 0x20 PUSH2 0x23B5 DUP4 CODECOPY DUP2 MLOAD SWAP2 MSTORE SWAP3 PUSH2 0x24A SWAP3 ADD PUSH2 0x21A3 JUMP JUMPDEST PUSH1 0x40 MLOAD PUSH1 0x20 DUP2 DUP4 SUB SUB DUP2 MSTORE SWAP1 PUSH1 0x40 MSTORE DUP1 MLOAD SWAP1 PUSH1 0x20 ADD KECCAK256 CHAINID DUP8 PUSH1 0x40 MLOAD PUSH1 0x20 ADD PUSH2 0x276 SWAP6 SWAP5 SWAP4 SWAP3 SWAP2 SWAP1 PUSH2 0x21BF JUMP JUMPDEST PUSH1 0x40 MLOAD PUSH1 0x20 DUP2 DUP4 SUB SUB DUP2 MSTORE SWAP1 PUSH1 0x40 MSTORE DUP1 MLOAD SWAP1 PUSH1 0x20 ADD KECCAK256 SWAP1 POP PUSH1 0x0 PUSH1 0x40 MLOAD PUSH1 0x20 ADD PUSH2 0x319 SWAP1 PUSH32 0x7374724F434E65774C6F636B2875696E743235362065787069726174696F6E44 DUP2 MSTORE PUSH32 0x75726174696F6E2C75696E74323536206B657950726963652C75696E74323536 PUSH1 0x20 DUP3 ADD MSTORE PUSH32 0x206D61784E756D6265724F664B6579732C737472696E67206C6F636B4E616D65 PUSH1 0x40 DUP3 ADD MSTORE PUSH1 0x29 PUSH1 0xF8 SHL PUSH1 0x60 DUP3 ADD MSTORE PUSH1 0x61 ADD SWAP1 JUMP JUMPDEST PUSH1 0x40 MLOAD PUSH1 0x20 DUP2 DUP4 SUB SUB DUP2 MSTORE SWAP1 PUSH1 0x40 MSTORE DUP1 MLOAD SWAP1 PUSH1 0x20 ADD KECCAK256 DUP10 DUP10 DUP10 DUP10 PUSH1 0x40 MLOAD PUSH1 0x20 ADD PUSH2 0x343 SWAP2 SWAP1 PUSH2 0x21A3 JUMP JUMPDEST PUSH1 0x40 DUP1 MLOAD PUSH1 0x1F NOT DUP2 DUP5 SUB ADD DUP2 MSTORE DUP3 DUP3 MSTORE DUP1 MLOAD PUSH1 0x20 SWAP2 DUP3 ADD KECCAK256 SWAP1 DUP4 ADD SWAP7 SWAP1 SWAP7 MSTORE DUP2 ADD SWAP4 SWAP1 SWAP4 MSTORE PUSH1 0x60 DUP4 ADD SWAP2 SWAP1 SWAP2 MSTORE PUSH1 0x80 DUP3 ADD MSTORE PUSH1 0xA0 DUP2 ADD SWAP2 SWAP1 SWAP2 MSTORE PUSH1 0xC0 ADD PUSH1 0x40 MLOAD PUSH1 0x20 DUP2 DUP4 SUB SUB DUP2 MSTORE SWAP1 PUSH1 0x40 MSTORE DUP1 MLOAD SWAP1 PUSH1 0x20 ADD KECCAK256 SWAP1 POP PUSH1 0x0 DUP3 DUP3 PUSH1 0x40 MLOAD PUSH1 0x20 ADD PUSH2 0x3AD SWAP3 SWAP2 SWAP1 PUSH2 0x21EB JUMP JUMPDEST PUSH1 0x40 MLOAD PUSH1 0x20 DUP2 DUP4 SUB SUB DUP2 MSTORE SWAP1 PUSH1 0x40 MSTORE DUP1 MLOAD SWAP1 PUSH1 0x20 ADD KECCAK256 SWAP1 POP PUSH2 0x3CF DUP2 DUP7 PUSH2 0x5B5 JUMP JUMPDEST SWAP11 SWAP10 POP POP POP POP POP POP POP POP POP POP JUMP JUMPDEST PUSH1 0x0 DUP1 PUSH1 0x40 MLOAD PUSH1 0x20 ADD PUSH2 0x3EF SWAP1 PUSH2 0x2139 JUMP JUMPDEST PUSH1 0x40 DUP1 MLOAD PUSH1 0x1F NOT DUP2 DUP5 SUB ADD DUP2 MSTORE DUP3 DUP3 MSTORE DUP1 MLOAD PUSH1 0x20 SWAP2 DUP3 ADD KECCAK256 DUP4 DUP4 ADD DUP4 MSTORE PUSH1 0x5 DUP5 MSTORE PUSH5 0x302E312E31 PUSH1 0xD8 SHL DUP5 DUP4 ADD MSTORE SWAP2 MLOAD SWAP2 SWAP3 PUSH1 0x0 DUP1 MLOAD PUSH1 0x20 PUSH2 0x23B5 DUP4 CODECOPY DUP2 MLOAD SWAP2 MSTORE SWAP3 PUSH2 0x43B SWAP3 ADD PUSH2 0x21A3 JUMP JUMPDEST PUSH1 0x40 MLOAD PUSH1 0x20 DUP2 DUP4 SUB SUB DUP2 MSTORE SWAP1 PUSH1 0x40 MSTORE DUP1 MLOAD SWAP1 PUSH1 0x20 ADD KECCAK256 CHAINID DUP8 PUSH1 0x40 MLOAD PUSH1 0x20 ADD PUSH2 0x467 SWAP6 SWAP5 SWAP4 SWAP3 SWAP2 SWAP1 PUSH2 0x21BF JUMP JUMPDEST PUSH1 0x40 MLOAD PUSH1 0x20 DUP2 DUP4 SUB SUB DUP2 MSTORE SWAP1 PUSH1 0x40 MSTORE DUP1 MLOAD SWAP1 PUSH1 0x20 ADD KECCAK256 SWAP1 POP PUSH1 0x0 PUSH1 0x40 MLOAD PUSH1 0x20 ADD PUSH2 0x4E8 SWAP1 PUSH32 0x7374724F4344656C5573657228616464726573732077616C6C6574416464722C DUP2 MSTORE PUSH32 0x737472696E67206465736372697074696F6E2C75696E743235362064656C6179 PUSH1 0x20 DUP3 ADD MSTORE PUSH5 0x54696D6529 PUSH1 0xD8 SHL PUSH1 0x40 DUP3 ADD MSTORE PUSH1 0x45 ADD SWAP1 JUMP JUMPDEST PUSH1 0x40 MLOAD PUSH1 0x20 DUP2 DUP4 SUB SUB DUP2 MSTORE SWAP1 PUSH1 0x40 MSTORE DUP1 MLOAD SWAP1 PUSH1 0x20 ADD KECCAK256 DUP9 DUP9 PUSH1 0x40 MLOAD PUSH1 0x20 ADD PUSH2 0x510 SWAP2 SWAP1 PUSH2 0x21A3 JUMP JUMPDEST PUSH1 0x40 MLOAD PUSH1 0x20 DUP2 DUP4 SUB SUB DUP2 MSTORE SWAP1 PUSH1 0x40 MSTORE DUP1 MLOAD SWAP1 PUSH1 0x20 ADD KECCAK256 DUP9 PUSH1 0x40 MLOAD PUSH1 0x20 ADD PUSH2 0x559 SWAP5 SWAP4 SWAP3 SWAP2 SWAP1 SWAP4 DUP5 MSTORE PUSH1 0x1 PUSH1 0x1 PUSH1 0xA0 SHL SUB SWAP3 SWAP1 SWAP3 AND PUSH1 0x20 DUP5 ADD MSTORE PUSH1 0x40 DUP4 ADD MSTORE PUSH1 0x60 DUP3 ADD MSTORE PUSH1 0x80 ADD SWAP1 JUMP JUMPDEST PUSH1 0x40 MLOAD PUSH1 0x20 DUP2 DUP4 SUB SUB DUP2 MSTORE SWAP1 PUSH1 0x40 MSTORE DUP1 MLOAD SWAP1 PUSH1 0x20 ADD KECCAK256 SWAP1 POP PUSH1 0x0 DUP3 DUP3 PUSH1 0x40 MLOAD PUSH1 0x20 ADD PUSH2 0x586 SWAP3 SWAP2 SWAP1 PUSH2 0x21EB JUMP JUMPDEST PUSH1 0x40 MLOAD PUSH1 0x20 DUP2 DUP4 SUB SUB DUP2 MSTORE SWAP1 PUSH1 0x40 MSTORE DUP1 MLOAD SWAP1 PUSH1 0x20 ADD KECCAK256 SWAP1 POP PUSH2 0x5A8 DUP2 DUP7 PUSH2 0x5B5 JUMP JUMPDEST SWAP10 SWAP9 POP POP POP POP POP POP POP POP POP JUMP JUMPDEST PUSH1 0x0 DUP2 MLOAD PUSH1 0x41 EQ PUSH2 0x604 JUMPI PUSH1 0x40 MLOAD PUSH3 0x461BCD PUSH1 0xE5 SHL DUP2 MSTORE PUSH1 0x20 PUSH1 0x4 DUP3 ADD MSTORE PUSH1 0x14 PUSH1 0x24 DUP3 ADD MSTORE PUSH20 0x84C2C840E6D2CEDCC2E8EAE4CA40D8CADCCEE8D PUSH1 0x63 SHL PUSH1 0x44 DUP3 ADD MSTORE PUSH1 0x64 ADD JUMPDEST PUSH1 0x40 MLOAD DUP1 SWAP2 SUB SWAP1 REVERT JUMPDEST PUSH1 0x20 DUP3 DUP2 ADD MLOAD PUSH1 0x40 DUP1 DUP6 ADD MLOAD PUSH1 0x60 DUP1 DUP8 ADD MLOAD DUP4 MLOAD PUSH1 0x0 DUP1 DUP3 MSTORE SWAP7 DUP2 ADD DUP1 DUP7 MSTORE DUP11 SWAP1 MSTORE SWAP6 BYTE SWAP3 DUP6 ADD DUP4 SWAP1 MSTORE DUP5 ADD DUP4 SWAP1 MSTORE PUSH1 0x80 DUP5 ADD DUP2 SWAP1 MSTORE SWAP2 SWAP3 PUSH1 0x1 SWAP1 PUSH1 0xA0 ADD PUSH1 0x20 PUSH1 0x40 MLOAD PUSH1 0x20 DUP2 SUB SWAP1 DUP1 DUP5 SUB SWAP1 DUP6 GAS STATICCALL ISZERO DUP1 ISZERO PUSH2 0x664 JUMPI RETURNDATASIZE PUSH1 0x0 DUP1 RETURNDATACOPY RETURNDATASIZE PUSH1 0x0 REVERT JUMPDEST POP POP PUSH1 0x40 MLOAD PUSH1 0x1F NOT ADD MLOAD SWAP8 SWAP7 POP POP POP POP POP POP POP JUMP JUMPDEST PUSH1 0x0 DUP1 PUSH1 0x40 MLOAD PUSH1 0x20 ADD PUSH2 0x68B SWAP1 PUSH2 0x2139 JUMP JUMPDEST PUSH1 0x40 DUP1 MLOAD PUSH1 0x1F NOT DUP2 DUP5 SUB ADD DUP2 MSTORE DUP3 DUP3 MSTORE DUP1 MLOAD PUSH1 0x20 SWAP2 DUP3 ADD KECCAK256 DUP4 DUP4 ADD DUP4 MSTORE PUSH1 0x5 DUP5 MSTORE PUSH5 0x302E312E31 PUSH1 0xD8 SHL DUP5 DUP4 ADD MSTORE SWAP2 MLOAD SWAP2 SWAP3 PUSH1 0x0 DUP1 MLOAD PUSH1 0x20 PUSH2 0x23B5 DUP4 CODECOPY DUP2 MLOAD SWAP2 MSTORE SWAP3 PUSH2 0x6D7 SWAP3 ADD PUSH2 0x21A3 JUMP JUMPDEST PUSH1 0x40 MLOAD PUSH1 0x20 DUP2 DUP4 SUB SUB DUP2 MSTORE SWAP1 PUSH1 0x40 MSTORE DUP1 MLOAD SWAP1 PUSH1 0x20 ADD KECCAK256 CHAINID DUP8 PUSH1 0x40 MLOAD PUSH1 0x20 ADD PUSH2 0x703 SWAP6 SWAP5 SWAP4 SWAP3 SWAP2 SWAP1 PUSH2 0x21BF JUMP JUMPDEST PUSH1 0x40 MLOAD PUSH1 0x20 DUP2 DUP4 SUB SUB DUP2 MSTORE SWAP1 PUSH1 0x40 MSTORE DUP1 MLOAD SWAP1 PUSH1 0x20 ADD KECCAK256 SWAP1 POP PUSH1 0x0 PUSH1 0x40 MLOAD PUSH1 0x20 ADD PUSH2 0x765 SWAP1 PUSH32 0x7374724F435265717565737428737472696E67206E616D652C737472696E6720 DUP2 MSTORE PUSH12 0x6465736372697074696F6E29 PUSH1 0xA0 SHL PUSH1 0x20 DUP3 ADD MSTORE PUSH1 0x2C ADD SWAP1 JUMP JUMPDEST PUSH1 0x40 MLOAD PUSH1 0x20 DUP2 DUP4 SUB SUB DUP2 MSTORE SWAP1 PUSH1 0x40 MSTORE DUP1 MLOAD SWAP1 PUSH1 0x20 ADD KECCAK256 DUP8 PUSH1 0x40 MLOAD PUSH1 0x20 ADD PUSH2 0x78C SWAP2 SWAP1 PUSH2 0x21A3 JUMP JUMPDEST PUSH1 0x40 MLOAD PUSH1 0x20 DUP2 DUP4 SUB SUB DUP2 MSTORE SWAP1 PUSH1 0x40 MSTORE DUP1 MLOAD SWAP1 PUSH1 0x20 ADD KECCAK256 DUP8 PUSH1 0x40 MLOAD PUSH1 0x20 ADD PUSH2 0x7B3 SWAP2 SWAP1 PUSH2 0x21A3 JUMP JUMPDEST PUSH1 0x40 DUP1 MLOAD PUSH1 0x1F NOT DUP2 DUP5 SUB ADD DUP2 MSTORE DUP3 DUP3 MSTORE DUP1 MLOAD PUSH1 0x20 SWAP2 DUP3 ADD KECCAK256 SWAP1 DUP4 ADD SWAP5 SWAP1 SWAP5 MSTORE DUP2 ADD SWAP2 SWAP1 SWAP2 MSTORE PUSH1 0x60 DUP2 ADD SWAP2 SWAP1 SWAP2 MSTORE PUSH1 0x80 ADD PUSH1 0x40 MLOAD PUSH1 0x20 DUP2 DUP4 SUB SUB DUP2 MSTORE SWAP1 PUSH1 0x40 MSTORE DUP1 MLOAD SWAP1 PUSH1 0x20 ADD KECCAK256 SWAP1 POP PUSH1 0x0 DUP3 DUP3 PUSH1 0x40 MLOAD PUSH1 0x20 ADD PUSH2 0x810 SWAP3 SWAP2 SWAP1 PUSH2 0x21EB JUMP JUMPDEST PUSH1 0x40 MLOAD PUSH1 0x20 DUP2 DUP4 SUB SUB DUP2 MSTORE SWAP1 PUSH1 0x40 MSTORE DUP1 MLOAD SWAP1 PUSH1 0x20 ADD KECCAK256 SWAP1 POP PUSH2 0x832 DUP2 DUP7 PUSH2 0x5B5 JUMP JUMPDEST SWAP9 SWAP8 POP POP POP POP POP POP POP POP JUMP JUMPDEST PUSH1 0x40 MLOAD PUSH4 0x1C3FE463 PUSH1 0xE2 SHL DUP2 MSTORE PUSH1 0x1 PUSH1 0x1 PUSH1 0xA0 SHL SUB DUP3 DUP2 AND PUSH1 0x4 DUP4 ADD MSTORE PUSH1 0x60 SWAP2 PUSH1 0x0 SWAP2 DUP3 SWAP2 DUP3 SWAP2 DUP8 SWAP2 DUP4 SWAP2 DUP4 AND SWAP1 PUSH4 0x70FF918C SWAP1 PUSH1 0x24 ADD PUSH1 0x20 PUSH1 0x40 MLOAD DUP1 DUP4 SUB DUP2 DUP7 GAS STATICCALL ISZERO DUP1 ISZERO PUSH2 0x892 JUMPI RETURNDATASIZE PUSH1 0x0 DUP1 RETURNDATACOPY RETURNDATASIZE PUSH1 0x0 REVERT JUMPDEST POP POP POP POP PUSH1 0x40 MLOAD RETURNDATASIZE PUSH1 0x1F NOT PUSH1 0x1F DUP3 ADD AND DUP3 ADD DUP1 PUSH1 0x40 MSTORE POP DUP2 ADD SWAP1 PUSH2 0x8B6 SWAP2 SWAP1 PUSH2 0x2206 JUMP JUMPDEST SWAP1 POP DUP1 PUSH2 0x8FB JUMPI PUSH1 0x40 MLOAD PUSH3 0x461BCD PUSH1 0xE5 SHL DUP2 MSTORE PUSH1 0x20 PUSH1 0x4 DUP3 ADD MSTORE PUSH1 0x13 PUSH1 0x24 DUP3 ADD MSTORE PUSH19 0x41646472657373206E6F742065786973742121 PUSH1 0x68 SHL PUSH1 0x44 DUP3 ADD MSTORE PUSH1 0x64 ADD PUSH2 0x5FB JUMP JUMPDEST PUSH2 0x903 PUSH2 0x18A8 JUMP JUMPDEST PUSH1 0x40 MLOAD PUSH4 0x8AD0207 PUSH1 0xE2 SHL DUP2 MSTORE PUSH1 0x4 DUP2 ADD DUP4 SWAP1 MSTORE PUSH1 0x1 PUSH1 0x1 PUSH1 0xA0 SHL SUB DUP5 AND SWAP1 PUSH4 0x22B4081C SWAP1 PUSH1 0x24 ADD PUSH1 0x0 PUSH1 0x40 MLOAD DUP1 DUP4 SUB DUP2 DUP7 GAS STATICCALL ISZERO DUP1 ISZERO PUSH2 0x948 JUMPI RETURNDATASIZE PUSH1 0x0 DUP1 RETURNDATACOPY RETURNDATASIZE PUSH1 0x0 REVERT JUMPDEST POP POP POP POP PUSH1 0x40 MLOAD RETURNDATASIZE PUSH1 0x0 DUP3 RETURNDATACOPY PUSH1 0x1F RETURNDATASIZE SWAP1 DUP2 ADD PUSH1 0x1F NOT AND DUP3 ADD PUSH1 0x40 MSTORE PUSH2 0x970 SWAP2 SWAP1 DUP2 ADD SWAP1 PUSH2 0x226C JUMP JUMPDEST ISZERO ISZERO PUSH1 0x80 DUP7 ADD MSTORE ISZERO ISZERO PUSH1 0x60 DUP6 ADD DUP2 SWAP1 MSTORE PUSH1 0x40 DUP6 ADD SWAP2 SWAP1 SWAP2 MSTORE PUSH1 0x20 DUP5 ADD SWAP2 SWAP1 SWAP2 MSTORE PUSH1 0x1 PUSH1 0x1 PUSH1 0xA0 SHL SUB SWAP1 SWAP2 AND DUP3 MSTORE PUSH1 0x1 EQ PUSH2 0x9DC JUMPI PUSH1 0x40 MLOAD PUSH3 0x461BCD PUSH1 0xE5 SHL DUP2 MSTORE PUSH1 0x20 PUSH1 0x4 DUP3 ADD MSTORE PUSH1 0xD PUSH1 0x24 DUP3 ADD MSTORE PUSH13 0x24B9903737BA1030903AB9B2B9 PUSH1 0x99 SHL PUSH1 0x44 DUP3 ADD MSTORE PUSH1 0x64 ADD PUSH2 0x5FB JUMP JUMPDEST PUSH1 0x20 DUP2 ADD MLOAD PUSH1 0x40 DUP3 ADD MLOAD PUSH1 0x60 DUP4 ADD MLOAD PUSH1 0x80 SWAP1 SWAP4 ADD MLOAD SWAP2 SWAP12 SWAP1 SWAP11 POP SWAP2 SWAP9 POP SWAP7 POP SWAP5 POP POP POP POP POP JUMP JUMPDEST PUSH1 0x60 PUSH1 0x0 DUP1 PUSH1 0x0 DUP1 PUSH1 0x0 DUP1 PUSH1 0x0 DUP1 PUSH1 0x0 DUP11 SWAP1 POP DUP1 PUSH1 0x1 PUSH1 0x1 PUSH1 0xA0 SHL SUB AND PUSH4 0x59CA2D03 PUSH1 0x40 MLOAD DUP2 PUSH4 0xFFFFFFFF AND PUSH1 0xE0 SHL DUP2 MSTORE PUSH1 0x4 ADD PUSH1 0x0 PUSH1 0x40 MLOAD DUP1 DUP4 SUB DUP2 DUP7 GAS STATICCALL ISZERO DUP1 ISZERO PUSH2 0xA54 JUMPI RETURNDATASIZE PUSH1 0x0 DUP1 RETURNDATACOPY RETURNDATASIZE PUSH1 0x0 REVERT JUMPDEST POP POP POP POP PUSH1 0x40 MLOAD RETURNDATASIZE PUSH1 0x0 DUP3 RETURNDATACOPY PUSH1 0x1F RETURNDATASIZE SWAP1 DUP2 ADD PUSH1 0x1F NOT AND DUP3 ADD PUSH1 0x40 MSTORE PUSH2 0xA7C SWAP2 SWAP1 DUP2 ADD SWAP1 PUSH2 0x22EE JUMP JUMPDEST DUP2 PUSH1 0x1 PUSH1 0x1 PUSH1 0xA0 SHL SUB AND PUSH4 0x1D5FD3CA PUSH1 0x40 MLOAD DUP2 PUSH4 0xFFFFFFFF AND PUSH1 0xE0 SHL DUP2 MSTORE PUSH1 0x4 ADD PUSH1 0x20 PUSH1 0x40 MLOAD DUP1 DUP4 SUB DUP2 DUP7 GAS STATICCALL ISZERO DUP1 ISZERO PUSH2 0xABA JUMPI RETURNDATASIZE PUSH1 0x0 DUP1 RETURNDATACOPY RETURNDATASIZE PUSH1 0x0 REVERT JUMPDEST POP POP POP POP PUSH1 0x40 MLOAD RETURNDATASIZE PUSH1 0x1F NOT PUSH1 0x1F DUP3 ADD AND DUP3 ADD DUP1 PUSH1 0x40 MSTORE POP DUP2 ADD SWAP1 PUSH2 0xADE SWAP2 SWAP1 PUSH2 0x2206 JUMP JUMPDEST DUP3 PUSH1 0x1 PUSH1 0x1 PUSH1 0xA0 SHL SUB AND PUSH4 0xF00D6274 PUSH1 0x40 MLOAD DUP2 PUSH4 0xFFFFFFFF AND PUSH1 0xE0 SHL DUP2 MSTORE PUSH1 0x4 ADD PUSH1 0x20 PUSH1 0x40 MLOAD DUP1 DUP4 SUB DUP2 DUP7 GAS STATICCALL ISZERO DUP1 ISZERO PUSH2 0xB1C JUMPI RETURNDATASIZE PUSH1 0x0 DUP1 RETURNDATACOPY RETURNDATASIZE PUSH1 0x0 REVERT JUMPDEST POP POP POP POP PUSH1 0x40 MLOAD RETURNDATASIZE PUSH1 0x1F NOT PUSH1 0x1F DUP3 ADD AND DUP3 ADD DUP1 PUSH1 0x40 MSTORE POP DUP2 ADD SWAP1 PUSH2 0xB40 SWAP2 SWAP1 PUSH2 0x2322 JUMP JUMPDEST DUP4 PUSH1 0x1 PUSH1 0x1 PUSH1 0xA0 SHL SUB AND PUSH4 0x1F2E1339 PUSH1 0x40 MLOAD DUP2 PUSH4 0xFFFFFFFF AND PUSH1 0xE0 SHL DUP2 MSTORE PUSH1 0x4 ADD PUSH1 0x20 PUSH1 0x40 MLOAD DUP1 DUP4 SUB DUP2 DUP7 GAS STATICCALL ISZERO DUP1 ISZERO PUSH2 0xB7E JUMPI RETURNDATASIZE PUSH1 0x0 DUP1 RETURNDATACOPY RETURNDATASIZE PUSH1 0x0 REVERT JUMPDEST POP POP POP POP PUSH1 0x40 MLOAD RETURNDATASIZE PUSH1 0x1F NOT PUSH1 0x1F DUP3 ADD AND DUP3 ADD DUP1 PUSH1 0x40 MSTORE POP DUP2 ADD SWAP1 PUSH2 0xBA2 SWAP2 SWAP1 PUSH2 0x2322 JUMP JUMPDEST DUP5 PUSH1 0x1 PUSH1 0x1 PUSH1 0xA0 SHL SUB AND PUSH4 0x19A50F49 PUSH1 0x40 MLOAD DUP2 PUSH4 0xFFFFFFFF AND PUSH1 0xE0 SHL DUP2 MSTORE PUSH1 0x4 ADD PUSH1 0x20 PUSH1 0x40 MLOAD DUP1 DUP4 SUB DUP2 DUP7 GAS STATICCALL ISZERO DUP1 ISZERO PUSH2 0xBE0 JUMPI RETURNDATASIZE PUSH1 0x0 DUP1 RETURNDATACOPY RETURNDATASIZE PUSH1 0x0 REVERT JUMPDEST POP POP POP POP PUSH1 0x40 MLOAD RETURNDATASIZE PUSH1 0x1F NOT PUSH1 0x1F DUP3 ADD AND DUP3 ADD DUP1 PUSH1 0x40 MSTORE POP DUP2 ADD SWAP1 PUSH2 0xC04 SWAP2 SWAP1 PUSH2 0x2206 JUMP JUMPDEST DUP6 PUSH1 0x1 PUSH1 0x1 PUSH1 0xA0 SHL SUB AND PUSH4 0xE68777D7 PUSH1 0x40 MLOAD DUP2 PUSH4 0xFFFFFFFF AND PUSH1 0xE0 SHL DUP2 MSTORE PUSH1 0x4 ADD PUSH1 0x20 PUSH1 0x40 MLOAD DUP1 DUP4 SUB DUP2 DUP7 GAS STATICCALL ISZERO DUP1 ISZERO PUSH2 0xC42 JUMPI RETURNDATASIZE PUSH1 0x0 DUP1 RETURNDATACOPY RETURNDATASIZE PUSH1 0x0 REVERT JUMPDEST POP POP POP POP PUSH1 0x40 MLOAD RETURNDATASIZE PUSH1 0x1F NOT PUSH1 0x1F DUP3 ADD AND DUP3 ADD DUP1 PUSH1 0x40 MSTORE POP DUP2 ADD SWAP1 PUSH2 0xC66 SWAP2 SWAP1 PUSH2 0x2206 JUMP JUMPDEST DUP7 PUSH1 0x1 PUSH1 0x1 PUSH1 0xA0 SHL SUB AND PUSH4 0x9C630A88 PUSH1 0x40 MLOAD DUP2 PUSH4 0xFFFFFFFF AND PUSH1 0xE0 SHL DUP2 MSTORE PUSH1 0x4 ADD PUSH1 0x20 PUSH1 0x40 MLOAD DUP1 DUP4 SUB DUP2 DUP7 GAS STATICCALL ISZERO DUP1 ISZERO PUSH2 0xCA4 JUMPI RETURNDATASIZE PUSH1 0x0 DUP1 RETURNDATACOPY RETURNDATASIZE PUSH1 0x0 REVERT JUMPDEST POP POP POP POP PUSH1 0x40 MLOAD RETURNDATASIZE PUSH1 0x1F NOT PUSH1 0x1F DUP3 ADD AND DUP3 ADD DUP1 PUSH1 0x40 MSTORE POP DUP2 ADD SWAP1 PUSH2 0xCC8 SWAP2 SWAP1 PUSH2 0x2206 JUMP JUMPDEST DUP8 PUSH1 0x1 PUSH1 0x1 PUSH1 0xA0 SHL SUB AND PUSH4 0x1343E9A5 PUSH1 0x40 MLOAD DUP2 PUSH4 0xFFFFFFFF AND PUSH1 0xE0 SHL DUP2 MSTORE PUSH1 0x4 ADD PUSH1 0x20 PUSH1 0x40 MLOAD DUP1 DUP4 SUB DUP2 DUP7 GAS STATICCALL ISZERO DUP1 ISZERO PUSH2 0xD06 JUMPI RETURNDATASIZE PUSH1 0x0 DUP1 RETURNDATACOPY RETURNDATASIZE PUSH1 0x0 REVERT JUMPDEST POP POP POP POP PUSH1 0x40 MLOAD RETURNDATASIZE PUSH1 0x1F NOT PUSH1 0x1F DUP3 ADD AND DUP3 ADD DUP1 PUSH1 0x40 MSTORE POP DUP2 ADD SWAP1 PUSH2 0xD2A SWAP2 SWAP1 PUSH2 0x2206 JUMP JUMPDEST DUP9 PUSH1 0x1 PUSH1 0x1 PUSH1 0xA0 SHL SUB AND PUSH4 0xE810A58E PUSH1 0x40 MLOAD DUP2 PUSH4 0xFFFFFFFF AND PUSH1 0xE0 SHL DUP2 MSTORE PUSH1 0x4 ADD PUSH1 0x20 PUSH1 0x40 MLOAD DUP1 DUP4 SUB DUP2 DUP7 GAS STATICCALL ISZERO DUP1 ISZERO PUSH2 0xD68 JUMPI RETURNDATASIZE PUSH1 0x0 DUP1 RETURNDATACOPY RETURNDATASIZE PUSH1 0x0 REVERT JUMPDEST POP POP POP POP PUSH1 0x40 MLOAD RETURNDATASIZE PUSH1 0x1F NOT PUSH1 0x1F DUP3 ADD AND DUP3 ADD DUP1 PUSH1 0x40 MSTORE POP DUP2 ADD SWAP1 PUSH2 0xD8C SWAP2 SWAP1 PUSH2 0x2206 JUMP JUMPDEST SWAP10 POP SWAP10 POP SWAP10 POP SWAP10 POP SWAP10 POP SWAP10 POP SWAP10 POP SWAP10 POP SWAP10 POP POP SWAP2 SWAP4 SWAP6 SWAP8 SWAP10 SWAP1 SWAP3 SWAP5 SWAP7 SWAP9 POP JUMP JUMPDEST PUSH1 0x0 DUP1 PUSH1 0x40 MLOAD PUSH1 0x20 ADD PUSH2 0xDBE SWAP1 PUSH2 0x2139 JUMP JUMPDEST PUSH1 0x40 DUP1 MLOAD PUSH1 0x1F NOT DUP2 DUP5 SUB ADD DUP2 MSTORE DUP3 DUP3 MSTORE DUP1 MLOAD PUSH1 0x20 SWAP2 DUP3 ADD KECCAK256 DUP4 DUP4 ADD DUP4 MSTORE PUSH1 0x5 DUP5 MSTORE PUSH5 0x302E312E31 PUSH1 0xD8 SHL DUP5 DUP4 ADD MSTORE SWAP2 MLOAD SWAP2 SWAP3 PUSH1 0x0 DUP1 MLOAD PUSH1 0x20 PUSH2 0x23B5 DUP4 CODECOPY DUP2 MLOAD SWAP2 MSTORE SWAP3 PUSH2 0xE0A SWAP3 ADD PUSH2 0x21A3 JUMP JUMPDEST PUSH1 0x40 MLOAD PUSH1 0x20 DUP2 DUP4 SUB SUB DUP2 MSTORE SWAP1 PUSH1 0x40 MSTORE DUP1 MLOAD SWAP1 PUSH1 0x20 ADD KECCAK256 CHAINID DUP8 PUSH1 0x40 MLOAD PUSH1 0x20 ADD PUSH2 0xE36 SWAP6 SWAP5 SWAP4 SWAP3 SWAP2 SWAP1 PUSH2 0x21BF JUMP JUMPDEST PUSH1 0x40 MLOAD PUSH1 0x20 DUP2 DUP4 SUB SUB DUP2 MSTORE SWAP1 PUSH1 0x40 MSTORE DUP1 MLOAD SWAP1 PUSH1 0x20 ADD KECCAK256 SWAP1 POP PUSH1 0x0 PUSH1 0x40 MLOAD PUSH1 0x20 ADD PUSH2 0xEA9 SWAP1 PUSH32 0x7374724F43566F74652875696E743235362070726F7049642C626F6F6C207375 DUP2 MSTORE PUSH32 0x70706F72742C737472696E67206A757374696669636174696F6E290000000000 PUSH1 0x20 DUP3 ADD MSTORE PUSH1 0x3B ADD SWAP1 JUMP JUMPDEST PUSH1 0x40 MLOAD PUSH1 0x20 DUP2 DUP4 SUB SUB DUP2 MSTORE SWAP1 PUSH1 0x40 MSTORE DUP1 MLOAD SWAP1 PUSH1 0x20 ADD KECCAK256 DUP9 DUP9 DUP9 PUSH1 0x40 MLOAD PUSH1 0x20 ADD PUSH2 0xED2 SWAP2 SWAP1 PUSH2 0x21A3 JUMP JUMPDEST PUSH1 0x40 DUP1 MLOAD PUSH1 0x1F NOT DUP2 DUP5 SUB ADD DUP2 MSTORE DUP3 DUP3 MSTORE DUP1 MLOAD PUSH1 0x20 SWAP2 DUP3 ADD KECCAK256 SWAP1 DUP4 ADD SWAP6 SWAP1 SWAP6 MSTORE DUP2 ADD SWAP3 SWAP1 SWAP3 MSTORE ISZERO ISZERO PUSH1 0x60 DUP3 ADD MSTORE PUSH1 0x80 DUP2 ADD SWAP2 SWAP1 SWAP2 MSTORE PUSH1 0xA0 ADD PUSH2 0x559 JUMP JUMPDEST PUSH1 0x0 DUP1 PUSH1 0x40 MLOAD PUSH1 0x20 ADD PUSH2 0xF20 SWAP1 PUSH2 0x2139 JUMP JUMPDEST PUSH1 0x40 DUP1 MLOAD PUSH1 0x1F NOT DUP2 DUP5 SUB ADD DUP2 MSTORE DUP3 DUP3 MSTORE DUP1 MLOAD PUSH1 0x20 SWAP2 DUP3 ADD KECCAK256 DUP4 DUP4 ADD DUP4 MSTORE PUSH1 0x5 DUP5 MSTORE PUSH5 0x302E312E31 PUSH1 0xD8 SHL DUP5 DUP4 ADD MSTORE SWAP2 MLOAD SWAP2 SWAP3 PUSH1 0x0 DUP1 MLOAD PUSH1 0x20 PUSH2 0x23B5 DUP4 CODECOPY DUP2 MLOAD SWAP2 MSTORE SWAP3 PUSH2 0xF6C SWAP3 ADD PUSH2 0x21A3 JUMP JUMPDEST PUSH1 0x40 MLOAD PUSH1 0x20 DUP2 DUP4 SUB SUB DUP2 MSTORE SWAP1 PUSH1 0x40 MSTORE DUP1 MLOAD SWAP1 PUSH1 0x20 ADD KECCAK256 CHAINID DUP8 PUSH1 0x40 MLOAD PUSH1 0x20 ADD PUSH2 0xF98 SWAP6 SWAP5 SWAP4 SWAP3 SWAP2 SWAP1 PUSH2 0x21BF JUMP JUMPDEST PUSH1 0x40 MLOAD PUSH1 0x20 DUP2 DUP4 SUB SUB DUP2 MSTORE SWAP1 PUSH1 0x40 MSTORE DUP1 MLOAD SWAP1 PUSH1 0x20 ADD KECCAK256 SWAP1 POP PUSH1 0x0 PUSH1 0x40 MLOAD PUSH1 0x20 ADD PUSH2 0x10BC SWAP1 PUSH32 0x7374724F434E6577434C4828737472696E6720686F7573654E616D652C626F6F DUP2 MSTORE PUSH32 0x6C20686F757365507269766174652C626F6F6C20686F7573654F70656E2C6279 PUSH1 0x20 DUP3 ADD MSTORE PUSH32 0x746573333220676F764D6F64656C2C75696E7432353620676F7652756C654D61 PUSH1 0x40 DUP3 ADD MSTORE PUSH32 0x7855736572732C75696E7432353620676F7652756C654D61784D616E61676572 PUSH1 0x60 DUP3 ADD MSTORE PUSH32 0x732C75696E7432353620676F7652756C65417070726F7650657263656E746167 PUSH1 0x80 DUP3 ADD MSTORE PUSH32 0x652C616464726573732077686974654C6973744E46542C616464726573732077 PUSH1 0xA0 DUP3 ADD MSTORE PUSH16 0x686974654C69737457616C6C65747329 PUSH1 0x80 SHL PUSH1 0xC0 DUP3 ADD MSTORE PUSH1 0xD0 ADD SWAP1 JUMP JUMPDEST PUSH1 0x40 MLOAD PUSH1 0x20 DUP2 DUP4 SUB SUB DUP2 MSTORE SWAP1 PUSH1 0x40 MSTORE DUP1 MLOAD SWAP1 PUSH1 0x20 ADD KECCAK256 DUP15 PUSH1 0x40 MLOAD PUSH1 0x20 ADD PUSH2 0x10E3 SWAP2 SWAP1 PUSH2 0x21A3 JUMP JUMPDEST PUSH1 0x40 DUP1 MLOAD PUSH1 0x1F NOT DUP2 DUP5 SUB ADD DUP2 MSTORE DUP3 DUP3 MSTORE DUP1 MLOAD PUSH1 0x20 SWAP2 DUP3 ADD KECCAK256 SWAP1 DUP4 ADD SWAP4 SWAP1 SWAP4 MSTORE DUP2 ADD SWAP2 SWAP1 SWAP2 MSTORE DUP14 ISZERO ISZERO PUSH1 0x60 DUP3 ADD MSTORE DUP13 ISZERO ISZERO PUSH1 0x80 DUP3 ADD MSTORE PUSH1 0xA0 DUP2 ADD DUP13 SWAP1 MSTORE PUSH1 0xC0 DUP2 ADD DUP12 SWAP1 MSTORE PUSH1 0xE0 DUP2 ADD DUP11 SWAP1 MSTORE PUSH2 0x100 DUP2 ADD DUP10 SWAP1 MSTORE PUSH1 0x1 PUSH1 0x1 PUSH1 0xA0 SHL SUB DUP1 DUP10 AND PUSH2 0x120 DUP4 ADD MSTORE DUP8 AND PUSH2 0x140 DUP3 ADD MSTORE PUSH2 0x160 ADD PUSH1 0x40 MLOAD PUSH1 0x20 DUP2 DUP4 SUB SUB DUP2 MSTORE SWAP1 PUSH1 0x40 MSTORE DUP1 MLOAD SWAP1 PUSH1 0x20 ADD KECCAK256 SWAP1 POP PUSH1 0x0 DUP3 DUP3 PUSH1 0x40 MLOAD PUSH1 0x20 ADD PUSH2 0x117F SWAP3 SWAP2 SWAP1 PUSH2 0x21EB JUMP JUMPDEST PUSH1 0x40 MLOAD PUSH1 0x20 DUP2 DUP4 SUB SUB DUP2 MSTORE SWAP1 PUSH1 0x40 MSTORE DUP1 MLOAD SWAP1 PUSH1 0x20 ADD KECCAK256 SWAP1 POP PUSH2 0x11A1 DUP2 DUP7 PUSH2 0x5B5 JUMP JUMPDEST SWAP16 SWAP15 POP POP POP POP POP POP POP POP POP POP POP POP POP POP POP JUMP JUMPDEST PUSH1 0x0 DUP1 PUSH1 0x40 MLOAD PUSH1 0x20 ADD PUSH2 0x11C6 SWAP1 PUSH2 0x2139 JUMP JUMPDEST PUSH1 0x40 DUP1 MLOAD PUSH1 0x1F NOT DUP2 DUP5 SUB ADD DUP2 MSTORE DUP3 DUP3 MSTORE DUP1 MLOAD PUSH1 0x20 SWAP2 DUP3 ADD KECCAK256 DUP4 DUP4 ADD DUP4 MSTORE PUSH1 0x5 DUP5 MSTORE PUSH5 0x302E312E31 PUSH1 0xD8 SHL DUP5 DUP4 ADD MSTORE SWAP2 MLOAD SWAP2 SWAP3 PUSH1 0x0 DUP1 MLOAD PUSH1 0x20 PUSH2 0x23B5 DUP4 CODECOPY DUP2 MLOAD SWAP2 MSTORE SWAP3 PUSH2 0x1212 SWAP3 ADD PUSH2 0x21A3 JUMP JUMPDEST PUSH1 0x40 MLOAD PUSH1 0x20 DUP2 DUP4 SUB SUB DUP2 MSTORE SWAP1 PUSH1 0x40 MSTORE DUP1 MLOAD SWAP1 PUSH1 0x20 ADD KECCAK256 CHAINID DUP8 PUSH1 0x40 MLOAD PUSH1 0x20 ADD PUSH2 0x123E SWAP6 SWAP5 SWAP4 SWAP3 SWAP2 SWAP1 PUSH2 0x21BF JUMP JUMPDEST PUSH1 0x40 MLOAD PUSH1 0x20 DUP2 DUP4 SUB SUB DUP2 MSTORE SWAP1 PUSH1 0x40 MSTORE DUP1 MLOAD SWAP1 PUSH1 0x20 ADD KECCAK256 SWAP1 POP PUSH1 0x0 PUSH1 0x40 MLOAD PUSH1 0x20 ADD PUSH2 0x128B SWAP1 PUSH32 0x7374724F43496E76697428626F6F6C20616363657074616E6365290000000000 DUP2 MSTORE PUSH1 0x1B ADD SWAP1 JUMP JUMPDEST PUSH1 0x40 DUP1 MLOAD DUP1 DUP4 SUB PUSH1 0x1F NOT ADD DUP2 MSTORE DUP3 DUP3 MSTORE DUP1 MLOAD PUSH1 0x20 SWAP2 DUP3 ADD KECCAK256 DUP2 DUP5 ADD MSTORE DUP9 ISZERO ISZERO DUP4 DUP4 ADD MSTORE DUP2 MLOAD DUP1 DUP5 SUB DUP4 ADD DUP2 MSTORE PUSH1 0x60 DUP5 ADD SWAP1 SWAP3 MSTORE DUP2 MLOAD SWAP2 ADD KECCAK256 SWAP2 POP PUSH1 0x0 SWAP1 PUSH2 0x12D8 SWAP1 DUP5 SWAP1 DUP5 SWAP1 PUSH1 0x80 ADD PUSH2 0x21EB JUMP JUMPDEST PUSH1 0x40 MLOAD PUSH1 0x20 DUP2 DUP4 SUB SUB DUP2 MSTORE SWAP1 PUSH1 0x40 MSTORE DUP1 MLOAD SWAP1 PUSH1 0x20 ADD KECCAK256 SWAP1 POP PUSH2 0x12FA DUP2 DUP7 PUSH2 0x5B5 JUMP JUMPDEST SWAP8 SWAP7 POP POP POP POP POP POP POP JUMP JUMPDEST PUSH1 0x60 PUSH1 0x0 DUP3 SWAP1 POP PUSH1 0x0 DUP2 PUSH1 0x1 PUSH1 0x1 PUSH1 0xA0 SHL SUB AND PUSH4 0x19A50F49 PUSH1 0x40 MLOAD DUP2 PUSH4 0xFFFFFFFF AND PUSH1 0xE0 SHL DUP2 MSTORE PUSH1 0x4 ADD PUSH1 0x20 PUSH1 0x40 MLOAD DUP1 DUP4 SUB DUP2 DUP7 GAS STATICCALL ISZERO DUP1 ISZERO PUSH2 0x134C JUMPI RETURNDATASIZE PUSH1 0x0 DUP1 RETURNDATACOPY RETURNDATASIZE PUSH1 0x0 REVERT JUMPDEST POP POP POP POP PUSH1 0x40 MLOAD RETURNDATASIZE PUSH1 0x1F NOT PUSH1 0x1F DUP3 ADD AND DUP3 ADD DUP1 PUSH1 0x40 MSTORE POP DUP2 ADD SWAP1 PUSH2 0x1370 SWAP2 SWAP1 PUSH2 0x2206 JUMP JUMPDEST SWAP1 POP PUSH1 0x0 DUP3 PUSH1 0x1 PUSH1 0x1 PUSH1 0xA0 SHL SUB AND PUSH4 0xA693649A PUSH1 0x40 MLOAD DUP2 PUSH4 0xFFFFFFFF AND PUSH1 0xE0 SHL DUP2 MSTORE PUSH1 0x4 ADD PUSH1 0x20 PUSH1 0x40 MLOAD DUP1 DUP4 SUB DUP2 DUP7 GAS STATICCALL ISZERO DUP1 ISZERO PUSH2 0x13B2 JUMPI RETURNDATASIZE PUSH1 0x0 DUP1 RETURNDATACOPY RETURNDATASIZE PUSH1 0x0 REVERT JUMPDEST POP POP POP POP PUSH1 0x40 MLOAD RETURNDATASIZE PUSH1 0x1F NOT PUSH1 0x1F DUP3 ADD AND DUP3 ADD DUP1 PUSH1 0x40 MSTORE POP DUP2 ADD SWAP1 PUSH2 0x13D6 SWAP2 SWAP1 PUSH2 0x2206 JUMP JUMPDEST SWAP1 POP PUSH1 0x0 DUP3 PUSH1 0x1 PUSH1 0x1 PUSH1 0x40 SHL SUB DUP2 GT ISZERO PUSH2 0x13F2 JUMPI PUSH2 0x13F2 PUSH2 0x18E4 JUMP JUMPDEST PUSH1 0x40 MLOAD SWAP1 DUP1 DUP3 MSTORE DUP1 PUSH1 0x20 MUL PUSH1 0x20 ADD DUP3 ADD PUSH1 0x40 MSTORE DUP1 ISZERO PUSH2 0x142B JUMPI DUP2 PUSH1 0x20 ADD JUMPDEST PUSH2 0x1418 PUSH2 0x18A8 JUMP JUMPDEST DUP2 MSTORE PUSH1 0x20 ADD SWAP1 PUSH1 0x1 SWAP1 SUB SWAP1 DUP2 PUSH2 0x1410 JUMPI SWAP1 POP JUMPDEST POP SWAP1 POP PUSH1 0x0 PUSH1 0x1 JUMPDEST DUP4 DUP2 LT ISZERO PUSH2 0x1525 JUMPI PUSH2 0x1443 PUSH2 0x18A8 JUMP JUMPDEST PUSH1 0x40 MLOAD PUSH4 0x8AD0207 PUSH1 0xE2 SHL DUP2 MSTORE PUSH1 0x4 DUP2 ADD DUP4 SWAP1 MSTORE PUSH1 0x1 PUSH1 0x1 PUSH1 0xA0 SHL SUB DUP9 AND SWAP1 PUSH4 0x22B4081C SWAP1 PUSH1 0x24 ADD PUSH1 0x0 PUSH1 0x40 MLOAD DUP1 DUP4 SUB DUP2 DUP7 GAS STATICCALL ISZERO DUP1 ISZERO PUSH2 0x1488 JUMPI RETURNDATASIZE PUSH1 0x0 DUP1 RETURNDATACOPY RETURNDATASIZE PUSH1 0x0 REVERT JUMPDEST POP POP POP POP PUSH1 0x40 MLOAD RETURNDATASIZE PUSH1 0x0 DUP3 RETURNDATACOPY PUSH1 0x1F RETURNDATASIZE SWAP1 DUP2 ADD PUSH1 0x1F NOT AND DUP3 ADD PUSH1 0x40 MSTORE PUSH2 0x14B0 SWAP2 SWAP1 DUP2 ADD SWAP1 PUSH2 0x226C JUMP JUMPDEST ISZERO ISZERO PUSH1 0x80 DUP7 ADD MSTORE ISZERO ISZERO PUSH1 0x60 DUP6 ADD DUP2 SWAP1 MSTORE PUSH1 0x40 DUP6 ADD SWAP2 SWAP1 SWAP2 MSTORE PUSH1 0x20 DUP5 ADD SWAP2 SWAP1 SWAP2 MSTORE PUSH1 0x1 PUSH1 0x1 PUSH1 0xA0 SHL SUB SWAP1 SWAP2 AND DUP3 MSTORE PUSH1 0x1 EQ ISZERO PUSH2 0x1512 JUMPI DUP1 DUP5 DUP5 DUP2 MLOAD DUP2 LT PUSH2 0x14F8 JUMPI PUSH2 0x14F8 PUSH2 0x233F JUMP JUMPDEST PUSH1 0x20 MUL PUSH1 0x20 ADD ADD DUP2 SWAP1 MSTORE POP DUP3 DUP1 PUSH2 0x150E SWAP1 PUSH2 0x2355 JUMP JUMPDEST SWAP4 POP POP JUMPDEST POP DUP1 PUSH2 0x151D DUP2 PUSH2 0x2355 JUMP JUMPDEST SWAP2 POP POP PUSH2 0x1433 JUMP JUMPDEST POP SWAP1 SWAP7 SWAP6 POP POP POP POP POP POP JUMP JUMPDEST PUSH1 0x0 DUP1 PUSH1 0x40 MLOAD PUSH1 0x20 ADD PUSH2 0x1543 SWAP1 PUSH2 0x2139 JUMP JUMPDEST PUSH1 0x40 DUP1 MLOAD PUSH1 0x1F NOT DUP2 DUP5 SUB ADD DUP2 MSTORE DUP3 DUP3 MSTORE DUP1 MLOAD PUSH1 0x20 SWAP2 DUP3 ADD KECCAK256 DUP4 DUP4 ADD DUP4 MSTORE PUSH1 0x5 DUP5 MSTORE PUSH5 0x302E312E31 PUSH1 0xD8 SHL DUP5 DUP4 ADD MSTORE SWAP2 MLOAD SWAP2 SWAP3 PUSH1 0x0 DUP1 MLOAD PUSH1 0x20 PUSH2 0x23B5 DUP4 CODECOPY DUP2 MLOAD SWAP2 MSTORE SWAP3 PUSH2 0x158F SWAP3 ADD PUSH2 0x21A3 JUMP JUMPDEST PUSH1 0x40 MLOAD PUSH1 0x20 DUP2 DUP4 SUB SUB DUP2 MSTORE SWAP1 PUSH1 0x40 MSTORE DUP1 MLOAD SWAP1 PUSH1 0x20 ADD KECCAK256 CHAINID DUP8 PUSH1 0x40 MLOAD PUSH1 0x20 ADD PUSH2 0x15BB SWAP6 SWAP5 SWAP4 SWAP3 SWAP2 SWAP1 PUSH2 0x21BF JUMP JUMPDEST PUSH1 0x40 MLOAD PUSH1 0x20 DUP2 DUP4 SUB SUB DUP2 MSTORE SWAP1 PUSH1 0x40 MSTORE DUP1 MLOAD SWAP1 PUSH1 0x20 ADD KECCAK256 SWAP1 POP PUSH1 0x0 PUSH1 0x40 MLOAD PUSH1 0x20 ADD PUSH2 0x1639 SWAP1 PUSH32 0x7374724F4342756C6B566F74652875696E743235365B5D2070726F704964732C DUP2 MSTORE PUSH32 0x626F6F6C20737570706F72742C737472696E67206A757374696669636174696F PUSH1 0x20 DUP3 ADD MSTORE PUSH2 0x6E29 PUSH1 0xF0 SHL PUSH1 0x40 DUP3 ADD MSTORE PUSH1 0x42 ADD SWAP1 JUMP JUMPDEST PUSH1 0x40 MLOAD PUSH1 0x20 DUP2 DUP4 SUB SUB DUP2 MSTORE SWAP1 PUSH1 0x40 MSTORE DUP1 MLOAD SWAP1 PUSH1 0x20 ADD KECCAK256 DUP9 PUSH1 0x40 MLOAD PUSH1 0x20 ADD PUSH2 0x1660 SWAP2 SWAP1 PUSH2 0x237E JUMP JUMPDEST PUSH1 0x40 MLOAD PUSH1 0x20 DUP2 DUP4 SUB SUB DUP2 MSTORE SWAP1 PUSH1 0x40 MSTORE DUP1 MLOAD SWAP1 PUSH1 0x20 ADD KECCAK256 DUP9 DUP9 PUSH1 0x40 MLOAD PUSH1 0x20 ADD PUSH2 0xED2 SWAP2 SWAP1 PUSH2 0x21A3 JUMP JUMPDEST PUSH1 0x0 DUP1 PUSH1 0x40 MLOAD PUSH1 0x20 ADD PUSH2 0x169A SWAP1 PUSH2 0x2139 JUMP JUMPDEST PUSH1 0x40 DUP1 MLOAD PUSH1 0x1F NOT DUP2 DUP5 SUB ADD DUP2 MSTORE DUP3 DUP3 MSTORE DUP1 MLOAD PUSH1 0x20 SWAP2 DUP3 ADD KECCAK256 DUP4 DUP4 ADD DUP4 MSTORE PUSH1 0x5 DUP5 MSTORE PUSH5 0x302E312E31 PUSH1 0xD8 SHL DUP5 DUP4 ADD MSTORE SWAP2 MLOAD SWAP2 SWAP3 PUSH1 0x0 DUP1 MLOAD PUSH1 0x20 PUSH2 0x23B5 DUP4 CODECOPY DUP2 MLOAD SWAP2 MSTORE SWAP3 PUSH2 0x16E6 SWAP3 ADD PUSH2 0x21A3 JUMP JUMPDEST PUSH1 0x40 MLOAD PUSH1 0x20 DUP2 DUP4 SUB SUB DUP2 MSTORE SWAP1 PUSH1 0x40 MSTORE DUP1 MLOAD SWAP1 PUSH1 0x20 ADD KECCAK256 CHAINID DUP8 PUSH1 0x40 MLOAD PUSH1 0x20 ADD PUSH2 0x1712 SWAP6 SWAP5 SWAP4 SWAP3 SWAP2 SWAP1 PUSH2 0x21BF JUMP JUMPDEST PUSH1 0x40 MLOAD PUSH1 0x20 DUP2 DUP4 SUB SUB DUP2 MSTORE SWAP1 PUSH1 0x40 MSTORE DUP1 MLOAD SWAP1 PUSH1 0x20 ADD KECCAK256 SWAP1 POP PUSH1 0x0 PUSH1 0x40 MLOAD PUSH1 0x20 ADD PUSH2 0x17AB SWAP1 PUSH32 0x7374724F434E65775573657228616464726573732077616C6C6574416464722C DUP2 MSTORE PUSH32 0x737472696E67206E616D652C737472696E67206465736372697074696F6E2C62 PUSH1 0x20 DUP3 ADD MSTORE PUSH32 0x6F6F6C2069734D616E616765722C75696E743235362064656C617954696D6529 PUSH1 0x40 DUP3 ADD MSTORE PUSH1 0x60 ADD SWAP1 JUMP JUMPDEST PUSH1 0x40 MLOAD PUSH1 0x20 DUP2 DUP4 SUB SUB DUP2 MSTORE SWAP1 PUSH1 0x40 MSTORE DUP1 MLOAD SWAP1 PUSH1 0x20 ADD KECCAK256 DUP11 DUP11 PUSH1 0x40 MLOAD PUSH1 0x20 ADD PUSH2 0x17D3 SWAP2 SWAP1 PUSH2 0x21A3 JUMP JUMPDEST PUSH1 0x40 MLOAD PUSH1 0x20 DUP2 DUP4 SUB SUB DUP2 MSTORE SWAP1 PUSH1 0x40 MSTORE DUP1 MLOAD SWAP1 PUSH1 0x20 ADD KECCAK256 DUP11 PUSH1 0x40 MLOAD PUSH1 0x20 ADD PUSH2 0x17FA SWAP2 SWAP1 PUSH2 0x21A3 JUMP JUMPDEST PUSH1 0x40 DUP1 MLOAD PUSH1 0x1F NOT DUP2 DUP5 SUB ADD DUP2 MSTORE DUP3 DUP3 MSTORE DUP1 MLOAD PUSH1 0x20 SWAP2 DUP3 ADD KECCAK256 SWAP1 DUP4 ADD SWAP6 SWAP1 SWAP6 MSTORE PUSH1 0x1 PUSH1 0x1 PUSH1 0xA0 SHL SUB SWAP1 SWAP4 AND SWAP3 DUP2 ADD SWAP3 SWAP1 SWAP3 MSTORE PUSH1 0x60 DUP3 ADD MSTORE PUSH1 0x80 DUP2 ADD SWAP2 SWAP1 SWAP2 MSTORE DUP8 ISZERO ISZERO PUSH1 0xA0 DUP3 ADD MSTORE PUSH1 0xC0 DUP2 ADD DUP8 SWAP1 MSTORE PUSH1 0xE0 ADD PUSH1 0x40 MLOAD PUSH1 0x20 DUP2 DUP4 SUB SUB DUP2 MSTORE SWAP1 PUSH1 0x40 MSTORE DUP1 MLOAD SWAP1 PUSH1 0x20 ADD KECCAK256 SWAP1 POP PUSH1 0x0 DUP3 DUP3 PUSH1 0x40 MLOAD PUSH1 0x20 ADD PUSH2 0x1877 SWAP3 SWAP2 SWAP1 PUSH2 0x21EB JUMP JUMPDEST PUSH1 0x40 MLOAD PUSH1 0x20 DUP2 DUP4 SUB SUB DUP2 MSTORE SWAP1 PUSH1 0x40 MSTORE DUP1 MLOAD SWAP1 PUSH1 0x20 ADD KECCAK256 SWAP1 POP PUSH2 0x1899 DUP2 DUP7 PUSH2 0x5B5 JUMP JUMPDEST SWAP12 SWAP11 POP POP POP POP POP POP POP POP POP POP POP JUMP JUMPDEST PUSH1 0x40 MLOAD DUP1 PUSH1 0xA0 ADD PUSH1 0x40 MSTORE DUP1 PUSH1 0x0 PUSH1 0x1 PUSH1 0x1 PUSH1 0xA0 SHL SUB AND DUP2 MSTORE PUSH1 0x20 ADD PUSH1 0x60 DUP2 MSTORE PUSH1 0x20 ADD PUSH1 0x0 DUP2 MSTORE PUSH1 0x20 ADD PUSH1 0x0 ISZERO ISZERO DUP2 MSTORE PUSH1 0x20 ADD PUSH1 0x0 ISZERO ISZERO DUP2 MSTORE POP SWAP1 JUMP JUMPDEST PUSH4 0x4E487B71 PUSH1 0xE0 SHL PUSH1 0x0 MSTORE PUSH1 0x41 PUSH1 0x4 MSTORE PUSH1 0x24 PUSH1 0x0 REVERT JUMPDEST PUSH1 0x40 MLOAD PUSH1 0x1F DUP3 ADD PUSH1 0x1F NOT AND DUP2 ADD PUSH1 0x1 PUSH1 0x1 PUSH1 0x40 SHL SUB DUP2 GT DUP3 DUP3 LT OR ISZERO PUSH2 0x1922 JUMPI PUSH2 0x1922 PUSH2 0x18E4 JUMP JUMPDEST PUSH1 0x40 MSTORE SWAP2 SWAP1 POP JUMP JUMPDEST PUSH1 0x0 PUSH1 0x1 PUSH1 0x1 PUSH1 0x40 SHL SUB DUP3 GT ISZERO PUSH2 0x1943 JUMPI PUSH2 0x1943 PUSH2 0x18E4 JUMP JUMPDEST POP PUSH1 0x1F ADD PUSH1 0x1F NOT AND PUSH1 0x20 ADD SWAP1 JUMP JUMPDEST PUSH1 0x0 DUP3 PUSH1 0x1F DUP4 ADD SLT PUSH2 0x1962 JUMPI PUSH1 0x0 DUP1 REVERT JUMPDEST DUP2 CALLDATALOAD PUSH2 0x1975 PUSH2 0x1970 DUP3 PUSH2 0x192A JUMP JUMPDEST PUSH2 0x18FA JUMP JUMPDEST DUP2 DUP2 MSTORE DUP5 PUSH1 0x20 DUP4 DUP7 ADD ADD GT ISZERO PUSH2 0x198A JUMPI PUSH1 0x0 DUP1 REVERT JUMPDEST DUP2 PUSH1 0x20 DUP6 ADD PUSH1 0x20 DUP4 ADD CALLDATACOPY PUSH1 0x0 SWAP2 DUP2 ADD PUSH1 0x20 ADD SWAP2 SWAP1 SWAP2 MSTORE SWAP4 SWAP3 POP POP POP JUMP JUMPDEST PUSH1 0x1 PUSH1 0x1 PUSH1 0xA0 SHL SUB DUP2 AND DUP2 EQ PUSH2 0x19BC JUMPI PUSH1 0x0 DUP1 REVERT JUMPDEST POP JUMP JUMPDEST DUP1 CALLDATALOAD PUSH2 0x19CA DUP2 PUSH2 0x19A7 JUMP JUMPDEST SWAP2 SWAP1 POP JUMP JUMPDEST PUSH1 0x0 DUP1 PUSH1 0x0 DUP1 PUSH1 0x0 DUP1 PUSH1 0xC0 DUP8 DUP10 SUB SLT ISZERO PUSH2 0x19E8 JUMPI PUSH1 0x0 DUP1 REVERT JUMPDEST DUP7 CALLDATALOAD SWAP6 POP PUSH1 0x20 DUP8 ADD CALLDATALOAD SWAP5 POP PUSH1 0x40 DUP8 ADD CALLDATALOAD SWAP4 POP PUSH1 0x60 DUP8 ADD CALLDATALOAD PUSH1 0x1 PUSH1 0x1 PUSH1 0x40 SHL SUB DUP1 DUP3 GT ISZERO PUSH2 0x1A14 JUMPI PUSH1 0x0 DUP1 REVERT JUMPDEST PUSH2 0x1A20 DUP11 DUP4 DUP12 ADD PUSH2 0x1951 JUMP JUMPDEST SWAP5 POP PUSH1 0x80 DUP10 ADD CALLDATALOAD SWAP2 POP PUSH2 0x1A32 DUP3 PUSH2 0x19A7 JUMP JUMPDEST SWAP1 SWAP3 POP PUSH1 0xA0 DUP9 ADD CALLDATALOAD SWAP1 DUP1 DUP3 GT ISZERO PUSH2 0x1A48 JUMPI PUSH1 0x0 DUP1 REVERT JUMPDEST POP PUSH2 0x1A55 DUP10 DUP3 DUP11 ADD PUSH2 0x1951 JUMP JUMPDEST SWAP2 POP POP SWAP3 SWAP6 POP SWAP3 SWAP6 POP SWAP3 SWAP6 JUMP JUMPDEST PUSH1 0x0 DUP1 PUSH1 0x0 DUP1 PUSH1 0x0 PUSH1 0xA0 DUP7 DUP9 SUB SLT ISZERO PUSH2 0x1A7A JUMPI PUSH1 0x0 DUP1 REVERT JUMPDEST DUP6 CALLDATALOAD PUSH2 0x1A85 DUP2 PUSH2 0x19A7 JUMP JUMPDEST SWAP5 POP PUSH1 0x20 DUP7 ADD CALLDATALOAD PUSH1 0x1 PUSH1 0x1 PUSH1 0x40 SHL SUB DUP1 DUP3 GT ISZERO PUSH2 0x1AA1 JUMPI PUSH1 0x0 DUP1 REVERT JUMPDEST PUSH2 0x1AAD DUP10 DUP4 DUP11 ADD PUSH2 0x1951 JUMP JUMPDEST SWAP6 POP PUSH1 0x40 DUP9 ADD CALLDATALOAD SWAP5 POP PUSH1 0x60 DUP9 ADD CALLDATALOAD SWAP2 POP PUSH2 0x1AC6 DUP3 PUSH2 0x19A7 JUMP JUMPDEST SWAP1 SWAP3 POP PUSH1 0x80 DUP8 ADD CALLDATALOAD SWAP1 DUP1 DUP3 GT ISZERO PUSH2 0x1ADC JUMPI PUSH1 0x0 DUP1 REVERT JUMPDEST POP PUSH2 0x1AE9 DUP9 DUP3 DUP10 ADD PUSH2 0x1951 JUMP JUMPDEST SWAP2 POP POP SWAP3 SWAP6 POP SWAP3 SWAP6 SWAP1 SWAP4 POP JUMP JUMPDEST PUSH1 0x0 DUP1 PUSH1 0x40 DUP4 DUP6 SUB SLT ISZERO PUSH2 0x1B09 JUMPI PUSH1 0x0 DUP1 REVERT JUMPDEST DUP3 CALLDATALOAD SWAP2 POP PUSH1 0x20 DUP4 ADD CALLDATALOAD PUSH1 0x1 PUSH1 0x1 PUSH1 0x40 SHL SUB DUP2 GT ISZERO PUSH2 0x1B26 JUMPI PUSH1 0x0 DUP1 REVERT JUMPDEST PUSH2 0x1B32 DUP6 DUP3 DUP7 ADD PUSH2 0x1951 JUMP JUMPDEST SWAP2 POP POP SWAP3 POP SWAP3 SWAP1 POP JUMP JUMPDEST PUSH1 0x0 DUP1 PUSH1 0x0 DUP1 PUSH1 0x80 DUP6 DUP8 SUB SLT ISZERO PUSH2 0x1B52 JUMPI PUSH1 0x0 DUP1 REVERT JUMPDEST DUP5 CALLDATALOAD PUSH1 0x1 PUSH1 0x1 PUSH1 0x40 SHL SUB DUP1 DUP3 GT ISZERO PUSH2 0x1B69 JUMPI PUSH1 0x0 DUP1 REVERT JUMPDEST PUSH2 0x1B75 DUP9 DUP4 DUP10 ADD PUSH2 0x1951 JUMP JUMPDEST SWAP6 POP PUSH1 0x20 DUP8 ADD CALLDATALOAD SWAP2 POP DUP1 DUP3 GT ISZERO PUSH2 0x1B8B JUMPI PUSH1 0x0 DUP1 REVERT JUMPDEST PUSH2 0x1B97 DUP9 DUP4 DUP10 ADD PUSH2 0x1951 JUMP JUMPDEST SWAP5 POP PUSH1 0x40 DUP8 ADD CALLDATALOAD SWAP2 POP PUSH2 0x1BA9 DUP3 PUSH2 0x19A7 JUMP JUMPDEST SWAP1 SWAP3 POP PUSH1 0x60 DUP7 ADD CALLDATALOAD SWAP1 DUP1 DUP3 GT ISZERO PUSH2 0x1BBF JUMPI PUSH1 0x0 DUP1 REVERT JUMPDEST POP PUSH2 0x1BCC DUP8 DUP3 DUP9 ADD PUSH2 0x1951 JUMP JUMPDEST SWAP2 POP POP SWAP3 SWAP6 SWAP2 SWAP5 POP SWAP3 POP JUMP JUMPDEST PUSH1 0x0 DUP1 PUSH1 0x40 DUP4 DUP6 SUB SLT ISZERO PUSH2 0x1BEB JUMPI PUSH1 0x0 DUP1 REVERT JUMPDEST DUP3 CALLDATALOAD PUSH2 0x1BF6 DUP2 PUSH2 0x19A7 JUMP JUMPDEST SWAP2 POP PUSH1 0x20 DUP4 ADD CALLDATALOAD PUSH2 0x1C06 DUP2 PUSH2 0x19A7 JUMP JUMPDEST DUP1 SWAP2 POP POP SWAP3 POP SWAP3 SWAP1 POP JUMP JUMPDEST PUSH1 0x0 JUMPDEST DUP4 DUP2 LT ISZERO PUSH2 0x1C2C JUMPI DUP2 DUP2 ADD MLOAD DUP4 DUP3 ADD MSTORE PUSH1 0x20 ADD PUSH2 0x1C14 JUMP JUMPDEST DUP4 DUP2 GT ISZERO PUSH2 0x1C3B JUMPI PUSH1 0x0 DUP5 DUP5 ADD MSTORE JUMPDEST POP POP POP POP JUMP JUMPDEST PUSH1 0x0 DUP2 MLOAD DUP1 DUP5 MSTORE PUSH2 0x1C59 DUP2 PUSH1 0x20 DUP7 ADD PUSH1 0x20 DUP7 ADD PUSH2 0x1C11 JUMP JUMPDEST PUSH1 0x1F ADD PUSH1 0x1F NOT AND SWAP3 SWAP1 SWAP3 ADD PUSH1 0x20 ADD SWAP3 SWAP2 POP POP JUMP JUMPDEST PUSH1 0x80 DUP2 MSTORE PUSH1 0x0 PUSH2 0x1C80 PUSH1 0x80 DUP4 ADD DUP8 PUSH2 0x1C41 JUMP JUMPDEST PUSH1 0x20 DUP4 ADD SWAP6 SWAP1 SWAP6 MSTORE POP SWAP2 ISZERO ISZERO PUSH1 0x40 DUP4 ADD MSTORE ISZERO ISZERO PUSH1 0x60 SWAP1 SWAP2 ADD MSTORE SWAP2 SWAP1 POP JUMP JUMPDEST PUSH1 0x0 PUSH1 0x20 DUP3 DUP5 SUB SLT ISZERO PUSH2 0x1CB0 JUMPI PUSH1 0x0 DUP1 REVERT JUMPDEST DUP2 CALLDATALOAD PUSH2 0x1CBB DUP2 PUSH2 0x19A7 JUMP JUMPDEST SWAP4 SWAP3 POP POP POP JUMP JUMPDEST PUSH1 0x0 PUSH2 0x120 DUP1 DUP4 MSTORE PUSH2 0x1CD6 DUP2 DUP5 ADD DUP14 PUSH2 0x1C41 JUMP JUMPDEST PUSH1 0x20 DUP5 ADD SWAP12 SWAP1 SWAP12 MSTORE POP POP SWAP7 ISZERO ISZERO PUSH1 0x40 DUP9 ADD MSTORE SWAP5 ISZERO ISZERO PUSH1 0x60 DUP8 ADD MSTORE PUSH1 0x80 DUP7 ADD SWAP4 SWAP1 SWAP4 MSTORE PUSH1 0xA0 DUP6 ADD SWAP2 SWAP1 SWAP2 MSTORE PUSH1 0xC0 DUP5 ADD MSTORE PUSH1 0xE0 DUP4 ADD MSTORE PUSH2 0x100 SWAP1 SWAP2 ADD MSTORE SWAP2 SWAP1 POP JUMP JUMPDEST DUP1 ISZERO ISZERO DUP2 EQ PUSH2 0x19BC JUMPI PUSH1 0x0 DUP1 REVERT JUMPDEST DUP1 CALLDATALOAD PUSH2 0x19CA DUP2 PUSH2 0x1D16 JUMP JUMPDEST PUSH1 0x0 DUP1 PUSH1 0x0 DUP1 PUSH1 0x0 PUSH1 0xA0 DUP7 DUP9 SUB SLT ISZERO PUSH2 0x1D47 JUMPI PUSH1 0x0 DUP1 REVERT JUMPDEST DUP6 CALLDATALOAD SWAP5 POP PUSH1 0x20 DUP7 ADD CALLDATALOAD PUSH2 0x1D59 DUP2 PUSH2 0x1D16 JUMP JUMPDEST SWAP4 POP PUSH1 0x40 DUP7 ADD CALLDATALOAD PUSH1 0x1 PUSH1 0x1 PUSH1 0x40 SHL SUB DUP1 DUP3 GT ISZERO PUSH2 0x1D75 JUMPI PUSH1 0x0 DUP1 REVERT JUMPDEST PUSH2 0x1D81 DUP10 DUP4 DUP11 ADD PUSH2 0x1951 JUMP JUMPDEST SWAP5 POP PUSH1 0x60 DUP9 ADD CALLDATALOAD SWAP2 POP PUSH2 0x1AC6 DUP3 PUSH2 0x19A7 JUMP JUMPDEST PUSH1 0x0 DUP1 PUSH1 0x0 DUP1 PUSH1 0x0 DUP1 PUSH1 0x0 DUP1 PUSH1 0x0 DUP1 PUSH1 0x0 PUSH2 0x160 DUP13 DUP15 SUB SLT ISZERO PUSH2 0x1DB5 JUMPI PUSH1 0x0 DUP1 REVERT JUMPDEST PUSH1 0x1 PUSH1 0x1 PUSH1 0x40 SHL SUB DUP1 DUP14 CALLDATALOAD GT ISZERO PUSH2 0x1DCB JUMPI PUSH1 0x0 DUP1 REVERT JUMPDEST PUSH2 0x1DD8 DUP15 DUP15 CALLDATALOAD DUP16 ADD PUSH2 0x1951 JUMP JUMPDEST SWAP12 POP PUSH2 0x1DE6 PUSH1 0x20 DUP15 ADD PUSH2 0x1D24 JUMP JUMPDEST SWAP11 POP PUSH2 0x1DF4 PUSH1 0x40 DUP15 ADD PUSH2 0x1D24 JUMP JUMPDEST SWAP10 POP PUSH1 0x60 DUP14 ADD CALLDATALOAD SWAP9 POP PUSH1 0x80 DUP14 ADD CALLDATALOAD SWAP8 POP PUSH1 0xA0 DUP14 ADD CALLDATALOAD SWAP7 POP PUSH1 0xC0 DUP14 ADD CALLDATALOAD SWAP6 POP PUSH2 0x1E1E PUSH1 0xE0 DUP15 ADD PUSH2 0x19BF JUMP JUMPDEST SWAP5 POP PUSH2 0x1E2D PUSH2 0x100 DUP15 ADD PUSH2 0x19BF JUMP JUMPDEST SWAP4 POP PUSH2 0x1E3C PUSH2 0x120 DUP15 ADD PUSH2 0x19BF JUMP JUMPDEST SWAP3 POP DUP1 PUSH2 0x140 DUP15 ADD CALLDATALOAD GT ISZERO PUSH2 0x1E50 JUMPI PUSH1 0x0 DUP1 REVERT JUMPDEST POP PUSH2 0x1E62 DUP14 PUSH2 0x140 DUP15 ADD CALLDATALOAD DUP15 ADD PUSH2 0x1951 JUMP JUMPDEST SWAP1 POP SWAP3 SWAP6 SWAP9 SWAP12 POP SWAP3 SWAP6 SWAP9 SWAP12 SWAP1 SWAP4 SWAP7 SWAP10 POP JUMP JUMPDEST PUSH1 0x0 DUP1 PUSH1 0x0 PUSH1 0x60 DUP5 DUP7 SUB SLT ISZERO PUSH2 0x1E89 JUMPI PUSH1 0x0 DUP1 REVERT JUMPDEST DUP4 CALLDATALOAD PUSH2 0x1E94 DUP2 PUSH2 0x1D16 JUMP JUMPDEST SWAP3 POP PUSH1 0x20 DUP5 ADD CALLDATALOAD PUSH2 0x1EA4 DUP2 PUSH2 0x19A7 JUMP JUMPDEST SWAP2 POP PUSH1 0x40 DUP5 ADD CALLDATALOAD PUSH1 0x1 PUSH1 0x1 PUSH1 0x40 SHL SUB DUP2 GT ISZERO PUSH2 0x1EBF JUMPI PUSH1 0x0 DUP1 REVERT JUMPDEST PUSH2 0x1ECB DUP7 DUP3 DUP8 ADD PUSH2 0x1951 JUMP JUMPDEST SWAP2 POP POP SWAP3 POP SWAP3 POP SWAP3 JUMP JUMPDEST PUSH1 0x0 PUSH1 0x20 DUP1 DUP4 ADD DUP2 DUP5 MSTORE DUP1 DUP6 MLOAD DUP1 DUP4 MSTORE PUSH1 0x40 SWAP3 POP DUP3 DUP7 ADD SWAP2 POP DUP3 DUP2 PUSH1 0x5 SHL DUP8 ADD ADD DUP5 DUP9 ADD PUSH1 0x0 JUMPDEST DUP4 DUP2 LT ISZERO PUSH2 0x1F6B JUMPI DUP9 DUP4 SUB PUSH1 0x3F NOT ADD DUP6 MSTORE DUP2 MLOAD DUP1 MLOAD PUSH1 0x1 PUSH1 0x1 PUSH1 0xA0 SHL SUB AND DUP5 MSTORE DUP8 DUP2 ADD MLOAD PUSH1 0xA0 DUP10 DUP7 ADD DUP2 SWAP1 MSTORE SWAP1 PUSH2 0x1F35 DUP3 DUP8 ADD DUP3 PUSH2 0x1C41 JUMP JUMPDEST DUP4 DUP11 ADD MLOAD DUP8 DUP12 ADD MSTORE PUSH1 0x60 DUP1 DUP6 ADD MLOAD ISZERO ISZERO SWAP1 DUP9 ADD MSTORE PUSH1 0x80 SWAP4 DUP5 ADD MLOAD ISZERO ISZERO SWAP4 SWAP1 SWAP7 ADD SWAP3 SWAP1 SWAP3 MSTORE POP POP SWAP4 DUP7 ADD SWAP4 SWAP1 DUP7 ADD SWAP1 PUSH1 0x1 ADD PUSH2 0x1EFC JUMP JUMPDEST POP SWAP1 SWAP9 SWAP8 POP POP POP POP POP POP POP POP JUMP JUMPDEST PUSH1 0x0 DUP1 PUSH1 0x0 DUP1 PUSH1 0x0 PUSH1 0xA0 DUP7 DUP9 SUB SLT ISZERO PUSH2 0x1F91 JUMPI PUSH1 0x0 DUP1 REVERT JUMPDEST DUP6 CALLDATALOAD PUSH1 0x1 PUSH1 0x1 PUSH1 0x40 SHL SUB DUP1 DUP3 GT ISZERO PUSH2 0x1FA8 JUMPI PUSH1 0x0 DUP1 REVERT JUMPDEST DUP2 DUP9 ADD SWAP2 POP DUP9 PUSH1 0x1F DUP4 ADD SLT PUSH2 0x1FBC JUMPI PUSH1 0x0 DUP1 REVERT JUMPDEST DUP2 CALLDATALOAD PUSH1 0x20 DUP3 DUP3 GT ISZERO PUSH2 0x1FD0 JUMPI PUSH2 0x1FD0 PUSH2 0x18E4 JUMP JUMPDEST DUP2 PUSH1 0x5 SHL PUSH2 0x1FDF DUP3 DUP3 ADD PUSH2 0x18FA JUMP JUMPDEST SWAP3 DUP4 MSTORE DUP5 DUP2 ADD DUP3 ADD SWAP3 DUP3 DUP2 ADD SWAP1 DUP14 DUP6 GT ISZERO PUSH2 0x1FF9 JUMPI PUSH1 0x0 DUP1 REVERT JUMPDEST SWAP6 DUP4 ADD SWAP6 JUMPDEST DUP5 DUP8 LT ISZERO PUSH2 0x2017 JUMPI DUP7 CALLDATALOAD DUP3 MSTORE SWAP6 DUP4 ADD SWAP6 SWAP1 DUP4 ADD SWAP1 PUSH2 0x1FFE JUMP JUMPDEST SWAP11 POP PUSH2 0x2027 SWAP2 POP POP DUP11 DUP3 ADD PUSH2 0x1D24 JUMP JUMPDEST SWAP8 POP POP POP PUSH1 0x40 DUP9 ADD CALLDATALOAD SWAP2 POP DUP1 DUP3 GT ISZERO PUSH2 0x203F JUMPI PUSH1 0x0 DUP1 REVERT JUMPDEST PUSH2 0x204B DUP10 DUP4 DUP11 ADD PUSH2 0x1951 JUMP JUMPDEST SWAP5 POP PUSH2 0x2059 PUSH1 0x60 DUP10 ADD PUSH2 0x19BF JUMP JUMPDEST SWAP4 POP PUSH1 0x80 DUP9 ADD CALLDATALOAD SWAP2 POP DUP1 DUP3 GT ISZERO PUSH2 0x1ADC JUMPI PUSH1 0x0 DUP1 REVERT JUMPDEST PUSH1 0x0 DUP1 PUSH1 0x0 DUP1 PUSH1 0x0 DUP1 PUSH1 0x0 PUSH1 0xE0 DUP9 DUP11 SUB SLT ISZERO PUSH2 0x208A JUMPI PUSH1 0x0 DUP1 REVERT JUMPDEST DUP8 CALLDATALOAD PUSH2 0x2095 DUP2 PUSH2 0x19A7 JUMP JUMPDEST SWAP7 POP PUSH1 0x20 DUP9 ADD CALLDATALOAD PUSH1 0x1 PUSH1 0x1 PUSH1 0x40 SHL SUB DUP1 DUP3 GT ISZERO PUSH2 0x20B1 JUMPI PUSH1 0x0 DUP1 REVERT JUMPDEST PUSH2 0x20BD DUP12 DUP4 DUP13 ADD PUSH2 0x1951 JUMP JUMPDEST SWAP8 POP PUSH1 0x40 DUP11 ADD CALLDATALOAD SWAP2 POP DUP1 DUP3 GT ISZERO PUSH2 0x20D3 JUMPI PUSH1 0x0 DUP1 REVERT JUMPDEST PUSH2 0x20DF DUP12 DUP4 DUP13 ADD PUSH2 0x1951 JUMP JUMPDEST SWAP7 POP PUSH1 0x60 DUP11 ADD CALLDATALOAD SWAP2 POP PUSH2 0x20F1 DUP3 PUSH2 0x1D16 JUMP JUMPDEST DUP2 SWAP6 POP PUSH1 0x80 DUP11 ADD CALLDATALOAD SWAP5 POP PUSH2 0x2107 PUSH1 0xA0 DUP12 ADD PUSH2 0x19BF JUMP JUMPDEST SWAP4 POP PUSH1 0xC0 DUP11 ADD CALLDATALOAD SWAP2 POP DUP1 DUP3 GT ISZERO PUSH2 0x211D JUMPI PUSH1 0x0 DUP1 REVERT JUMPDEST POP PUSH2 0x212A DUP11 DUP3 DUP12 ADD PUSH2 0x1951 JUMP JUMPDEST SWAP2 POP POP SWAP3 SWAP6 SWAP9 SWAP2 SWAP5 SWAP8 POP SWAP3 SWAP6 POP JUMP JUMPDEST PUSH32 0x454950373132446F6D61696E28737472696E67206E616D652C737472696E6720 DUP2 MSTORE PUSH32 0x76657273696F6E2C75696E7432353620636861696E49642C6164647265737320 PUSH1 0x20 DUP3 ADD MSTORE PUSH18 0x766572696679696E67436F6E747261637429 PUSH1 0x70 SHL PUSH1 0x40 DUP3 ADD MSTORE PUSH1 0x52 ADD SWAP1 JUMP JUMPDEST PUSH1 0x0 DUP3 MLOAD PUSH2 0x21B5 DUP2 DUP5 PUSH1 0x20 DUP8 ADD PUSH2 0x1C11 JUMP JUMPDEST SWAP2 SWAP1 SWAP2 ADD SWAP3 SWAP2 POP POP JUMP JUMPDEST SWAP5 DUP6 MSTORE PUSH1 0x20 DUP6 ADD SWAP4 SWAP1 SWAP4 MSTORE PUSH1 0x40 DUP5 ADD SWAP2 SWAP1 SWAP2 MSTORE PUSH1 0x60 DUP4 ADD MSTORE PUSH1 0x1 PUSH1 0x1 PUSH1 0xA0 SHL SUB AND PUSH1 0x80 DUP3 ADD MSTORE PUSH1 0xA0 ADD SWAP1 JUMP JUMPDEST PUSH2 0x1901 PUSH1 0xF0 SHL DUP2 MSTORE PUSH1 0x2 DUP2 ADD SWAP3 SWAP1 SWAP3 MSTORE PUSH1 0x22 DUP3 ADD MSTORE PUSH1 0x42 ADD SWAP1 JUMP JUMPDEST PUSH1 0x0 PUSH1 0x20 DUP3 DUP5 SUB SLT ISZERO PUSH2 0x2218 JUMPI PUSH1 0x0 DUP1 REVERT JUMPDEST POP MLOAD SWAP2 SWAP1 POP JUMP JUMPDEST PUSH1 0x0 DUP3 PUSH1 0x1F DUP4 ADD SLT PUSH2 0x2230 JUMPI PUSH1 0x0 DUP1 REVERT JUMPDEST DUP2 MLOAD PUSH2 0x223E PUSH2 0x1970 DUP3 PUSH2 0x192A JUMP JUMPDEST DUP2 DUP2 MSTORE DUP5 PUSH1 0x20 DUP4 DUP7 ADD ADD GT ISZERO PUSH2 0x2253 JUMPI PUSH1 0x0 DUP1 REVERT JUMPDEST PUSH2 0x2264 DUP3 PUSH1 0x20 DUP4 ADD PUSH1 0x20 DUP8 ADD PUSH2 0x1C11 JUMP JUMPDEST SWAP5 SWAP4 POP POP POP POP JUMP JUMPDEST PUSH1 0x0 DUP1 PUSH1 0x0 DUP1 PUSH1 0x0 PUSH1 0xA0 DUP7 DUP9 SUB SLT ISZERO PUSH2 0x2284 JUMPI PUSH1 0x0 DUP1 REVERT JUMPDEST DUP6 MLOAD PUSH2 0x228F DUP2 PUSH2 0x19A7 JUMP JUMPDEST PUSH1 0x20 DUP8 ADD MLOAD SWAP1 SWAP6 POP PUSH1 0x1 PUSH1 0x1 PUSH1 0x40 SHL SUB DUP2 GT ISZERO PUSH2 0x22AB JUMPI PUSH1 0x0 DUP1 REVERT JUMPDEST PUSH2 0x22B7 DUP9 DUP3 DUP10 ADD PUSH2 0x221F JUMP JUMPDEST SWAP5 POP POP PUSH1 0x40 DUP7 ADD MLOAD SWAP3 POP PUSH1 0x60 DUP7 ADD MLOAD PUSH2 0x22CF DUP2 PUSH2 0x1D16 JUMP JUMPDEST PUSH1 0x80 DUP8 ADD MLOAD SWAP1 SWAP3 POP PUSH2 0x22E0 DUP2 PUSH2 0x1D16 JUMP JUMPDEST DUP1 SWAP2 POP POP SWAP3 SWAP6 POP SWAP3 SWAP6 SWAP1 SWAP4 POP JUMP JUMPDEST PUSH1 0x0 PUSH1 0x20 DUP3 DUP5 SUB SLT ISZERO PUSH2 0x2300 JUMPI PUSH1 0x0 DUP1 REVERT JUMPDEST DUP2 MLOAD PUSH1 0x1 PUSH1 0x1 PUSH1 0x40 SHL SUB DUP2 GT ISZERO PUSH2 0x2316 JUMPI PUSH1 0x0 DUP1 REVERT JUMPDEST PUSH2 0x2264 DUP5 DUP3 DUP6 ADD PUSH2 0x221F JUMP JUMPDEST PUSH1 0x0 PUSH1 0x20 DUP3 DUP5 SUB SLT ISZERO PUSH2 0x2334 JUMPI PUSH1 0x0 DUP1 REVERT JUMPDEST DUP2 MLOAD PUSH2 0x1CBB DUP2 PUSH2 0x1D16 JUMP JUMPDEST PUSH4 0x4E487B71 PUSH1 0xE0 SHL PUSH1 0x0 MSTORE PUSH1 0x32 PUSH1 0x4 MSTORE PUSH1 0x24 PUSH1 0x0 REVERT JUMPDEST PUSH1 0x0 PUSH1 0x0 NOT DUP3 EQ ISZERO PUSH2 0x2377 JUMPI PUSH4 0x4E487B71 PUSH1 0xE0 SHL PUSH1 0x0 MSTORE PUSH1 0x11 PUSH1 0x4 MSTORE PUSH1 0x24 PUSH1 0x0 REVERT JUMPDEST POP PUSH1 0x1 ADD SWAP1 JUMP JUMPDEST DUP2 MLOAD PUSH1 0x0 SWAP1 DUP3 SWAP1 PUSH1 0x20 DUP1 DUP7 ADD DUP5 JUMPDEST DUP4 DUP2 LT ISZERO PUSH2 0x23A8 JUMPI DUP2 MLOAD DUP6 MSTORE SWAP4 DUP3 ADD SWAP4 SWAP1 DUP3 ADD SWAP1 PUSH1 0x1 ADD PUSH2 0x238C JUMP JUMPDEST POP SWAP3 SWAP7 SWAP6 POP POP POP POP POP POP JUMP INVALID ADD BALANCE DUP9 SWAP6 0xAF 0x1F PUSH14 0xB161B2BA745B8E57A6B46EFAD77D PUSH20 0x6630379EC69C3CD4C875A2646970667358221220 SWAP6 ADDRESS PUSH23 0x2479707F441BEEBAD2AA5EB8B00C4E33ADE9A62E9731B6 0xB5 CODECOPY DUP5 0xB7 0xB9 PUSH19 0x64736F6C634300080C00330000000000000000 ",
  "sha1": "29f4f06280f5a1746568088442ed89a7a27c1c2f",
  "source": "// SPDX-License-Identifier: MIT\npragma solidity ^0.8.11;\n\nimport \"../../interfaces/ICLHouse.sol\";\n\n/// @title Some funtions to interact with a CLHouse\n/// @author Leonardo Urrego\n/// @notice This contract is only for test \ncontract CLHouseApi {\n\n    /// @notice A funtion to verify the signer of a menssage\n    /// @param _msghash Hash of the message\n    /// @param _signature Signature of the message\n    /// @return Signer address of the message\n    function SignerOfMsg(\n        bytes32  _msghash,\n        bytes memory _signature\n    )\n        public\n        pure\n        returns( address )\n    {\n        require( _signature.length == 65, \"Bad signature length\" );\n\n        bytes32 signR;\n        bytes32 signS;\n        uint8 signV;\n\n        assembly {\n            // first 32 bytes, after the length prefix\n            signR := mload( add( _signature, 32 ) )\n            // second 32 bytes\n            signS := mload( add( _signature, 64 ) )\n            // final byte (first byte of the next 32 bytes)\n            signV := byte( 0, mload( add( _signature, 96 ) ) )\n        }\n\n        return ecrecover( _msghash, signV, signR, signS );\n    }\n\n    /// @notice Get the info of an user in one especific CLH\n    /// @param _houseAddr Address of the CLH\n    /// @param _walletAddr Address of the user\n    /// @return name Nickname ot other user identificaction\n    /// @return balance How much money have deposited\n    /// @return isUser true if is User\n    /// @return isManager true if is manager\n    function GetUserInfoByAddress(\n        address _houseAddr,\n        address _walletAddr\n    )\n        external\n        view\n        returns(\n            string memory name,\n            uint balance,\n            bool isUser,\n            bool isManager\n        )\n    {\n        ICLHouse daoCLH = ICLHouse( _houseAddr );\n\n        uint256 uid = daoCLH.mapIdUser( _walletAddr );\n\n        require( 0 != uid , \"Address not exist!!\" );\n\n        strUser memory houseUser;\n\n        (   houseUser.walletAddr,\n            houseUser.name,\n            houseUser.balance,\n            houseUser.isUser,\n            houseUser.isManager ) = daoCLH.arrUsers( uid );\n\n        require( true == houseUser.isUser  , \"Is not a user\" );\n\n        return (\n            houseUser.name,\n            houseUser.balance,\n            houseUser.isUser,\n            houseUser.isManager\n        );\n    }\n\n    /// @notice The list of all users address\n    /// @param _houseAddr address of the CLH\n    /// @return arrUsers array with list of users\n    function GetHouseUserList(\n        address _houseAddr\n    )\n        external\n        view\n        returns(\n            strUser[] memory arrUsers\n        )\n    {\n        ICLHouse daoCLH = ICLHouse( _houseAddr );\n\n        uint256 numUsers = daoCLH.numUsers( );\n        uint256 arrUsersLength = daoCLH.GetArrUsersLength();\n        strUser[] memory _arrUsers = new strUser[] ( numUsers );\n\n        uint256 index = 0 ;\n\n        for( uint256 uid = 1 ; uid < arrUsersLength ; uid++ ) {\n            strUser memory houseUser;\n\n            (   houseUser.walletAddr,\n                houseUser.name,\n                houseUser.balance,\n                houseUser.isUser,\n                houseUser.isManager ) = daoCLH.arrUsers( uid );\n\n            if( true == houseUser.isUser ){\n                _arrUsers[ index ] = houseUser;\n                index++;\n            }\n        }\n        return _arrUsers;\n    }\n\n    /// @notice All properties of a House\n    /// @param _houseAddr CLH address\n    /// @return HOUSE_NAME name of the CLH\n    /// @return HOUSE_GOVERNANCE_MODEL Hash of governance model\n    /// @return housePrivate True if is private\n    /// @return houseOpen True if is Open\n    /// @return numUsers Current users of a CLH\n    /// @return numManagers Current managers of a CLH\n    /// @return govRuleApprovPercentage Percentage for approval o reject proposal based on `numManagers`\n    /// @return govRuleMaxUsers Max of all users (including managers)\n    /// @return govRuleMaxManagers Max of managers that CLH can accept (only for COMMITTEE )\n    function GetHouseProperties(\n        address _houseAddr\n    )\n        external\n        view\n        returns(\n            string memory HOUSE_NAME,\n            bytes32 HOUSE_GOVERNANCE_MODEL,\n            bool housePrivate,\n            bool houseOpen,\n            uint256 numUsers,\n            uint256 numManagers,\n            uint256 govRuleApprovPercentage,\n            uint256 govRuleMaxUsers,\n            uint256 govRuleMaxManagers\n        )\n    {\n        ICLHouse daoCLH = ICLHouse( _houseAddr );\n\n        return(\n            daoCLH.HOUSE_NAME(),\n            daoCLH.HOUSE_GOVERNANCE_MODEL(),\n            daoCLH.housePrivate(),\n            daoCLH.houseOpen(),\n            daoCLH.numUsers(),\n            daoCLH.numManagers(),\n            daoCLH.govRuleApprovPercentage(),\n            daoCLH.govRuleMaxUsers(),\n            daoCLH.govRuleMaxManagers()\n        );\n    }\n\n\n    function SignerOCInvit(\n        bool _acceptance,\n        address _houseAddr,\n        bytes memory _signature\n    ) \n        external view\n        returns( address )\n    {\n        bytes32 hashEIP712Domain = keccak256(\n            abi.encode(\n                __STR_EIP712DOMAIN_HASH__,\n                __CONTRACT_NAME_HASH__,\n                __CONTRACT_VERSION_HASH__,\n                block.chainid,\n                _houseAddr\n            )\n        );\n\n        bytes32 hashMsg = keccak256(\n            abi.encode(\n                __STR_OCINVIT_HASH__,\n                _acceptance\n            )\n        );\n\n        bytes32 singhash = keccak256( abi.encodePacked( \"\\x19\\x01\", hashEIP712Domain, hashMsg ) );\n\n        return SignerOfMsg( singhash, _signature );\n    }\n\n\n    function SignerOCVote(\n        uint _propId,\n        bool _support,\n        string memory _justification,\n        address _houseAddr,\n        bytes memory _signature\n    ) \n        external view\n        returns( address )\n    {\n        bytes32 hashEIP712Domain = keccak256(\n            abi.encode(\n                __STR_EIP712DOMAIN_HASH__,\n                __CONTRACT_NAME_HASH__,\n                __CONTRACT_VERSION_HASH__,\n                block.chainid,\n                _houseAddr\n            )\n        );\n\n        bytes32 hashMsg = keccak256(\n            abi.encode(\n                __STR_OCVOTE_HASH__,\n                _propId,\n                _support,\n                keccak256( abi.encodePacked( _justification ) )\n            )\n        );\n\n        bytes32 singhash = keccak256( abi.encodePacked( \"\\x19\\x01\", hashEIP712Domain, hashMsg ) );\n\n        return SignerOfMsg( singhash, _signature );\n    }\n\n\n    function SignerOCBulkVote(\n        uint256[] memory _propIds,\n        bool _support,\n        string memory _justification,\n        address _houseAddr,\n        bytes memory _signature\n    ) \n        external view\n        returns( address )\n    {\n        bytes32 hashEIP712Domain = keccak256(\n            abi.encode(\n                __STR_EIP712DOMAIN_HASH__,\n                __CONTRACT_NAME_HASH__,\n                __CONTRACT_VERSION_HASH__,\n                block.chainid,\n                _houseAddr\n            )\n        );\n\n        bytes32 hashMsg = keccak256(\n            abi.encode(\n                __STR_OCBULKVOTE_HASH__,\n                keccak256( abi.encodePacked( _propIds ) ),\n                _support,\n                keccak256( abi.encodePacked( _justification ) )\n            )\n        );\n\n        bytes32 singhash = keccak256( abi.encodePacked( \"\\x19\\x01\", hashEIP712Domain, hashMsg ) );\n\n        return SignerOfMsg( singhash, _signature );\n    }\n\n\n    function SignerOCNewUser(\n        address _walletAddr,\n        string memory _name,\n        string memory _description,\n        bool _isManager,\n        uint256 _delayTime,\n        address _houseAddr,\n        bytes memory _signature\n    ) \n        external view\n        returns( address )\n    {\n        bytes32 hashEIP712Domain = keccak256(\n            abi.encode(\n                __STR_EIP712DOMAIN_HASH__,\n                __CONTRACT_NAME_HASH__,\n                __CONTRACT_VERSION_HASH__,\n                block.chainid,\n                _houseAddr\n            )\n        );\n\n        bytes32 hashMsg = keccak256(\n            abi.encode(\n                __STR_OCNEWUSER_HASH__,\n                _walletAddr,\n                keccak256( abi.encodePacked( _name ) ),\n                keccak256( abi.encodePacked( _description ) ),\n                _isManager,\n                _delayTime\n            )\n        );\n\n        bytes32 singhash = keccak256( abi.encodePacked( \"\\x19\\x01\", hashEIP712Domain, hashMsg ) );\n\n        return SignerOfMsg( singhash, _signature );\n    }\n\n\n    function SignerOCDelUser(\n        address _walletAddr,\n        string memory _description,\n        uint256 _delayTime,\n        address _houseAddr,\n        bytes memory _signature\n    ) \n        external view\n        returns( address )\n    {\n        bytes32 hashEIP712Domain = keccak256(\n            abi.encode(\n                __STR_EIP712DOMAIN_HASH__,\n                __CONTRACT_NAME_HASH__,\n                __CONTRACT_VERSION_HASH__,\n                block.chainid,\n                _houseAddr\n            )\n        );\n\n        bytes32 hashMsg = keccak256(\n            abi.encode(\n                __STR_OCDELUSER_HASH__,\n                _walletAddr,\n                keccak256( abi.encodePacked( _description ) ),\n                _delayTime\n            )\n        );\n\n        bytes32 singhash = keccak256( abi.encodePacked( \"\\x19\\x01\", hashEIP712Domain, hashMsg ) );\n\n        return SignerOfMsg( singhash, _signature );\n    }\n\n\n    function SignerOCRequest(\n        string memory _name,\n        string memory _description,\n        address _houseAddr,\n        bytes memory _signature\n    ) \n        external view\n        returns( address )\n    {\n        bytes32 hashEIP712Domain = keccak256(\n            abi.encode(\n                __STR_EIP712DOMAIN_HASH__,\n                __CONTRACT_NAME_HASH__,\n                __CONTRACT_VERSION_HASH__,\n                block.chainid,\n                _houseAddr\n            )\n        );\n\n        bytes32 hashMsg = keccak256(\n            abi.encode(\n                __STR_OCREQUEST_HASH__,\n                keccak256( abi.encodePacked( _name ) ),\n                keccak256( abi.encodePacked( _description ) )\n            )\n        );\n\n        bytes32 singhash = keccak256( abi.encodePacked( \"\\x19\\x01\", hashEIP712Domain, hashMsg ) );\n\n        return SignerOfMsg( singhash, _signature );\n    }\n\n\n    function SignerOCNewCLH(\n        string memory _houseName,\n        bool _housePrivate,\n        bool _houseOpen,\n        bytes32 _govModel,\n        uint256 _govRuleMaxUsers,\n        uint256 _govRuleMaxManagers,\n        uint256 _govRuleApprovPercentage,\n        address _whiteListNFT,\n        address _whiteListWallets,\n        address _addrCLF,\n        bytes memory _signature\n    ) \n        external view\n        returns( address )\n    {\n        bytes32 hashEIP712Domain = keccak256(\n            abi.encode(\n                __STR_EIP712DOMAIN_HASH__,\n                __CONTRACT_NAME_HASH__,\n                __CONTRACT_VERSION_HASH__,\n                block.chainid,\n                _addrCLF\n            )\n        );\n\n        bytes32 hashMsg = keccak256(\n            abi.encode(\n                __STR_OCNEWCLH_HASH__,\n                keccak256( abi.encodePacked( _houseName ) ),\n                _housePrivate,\n                _houseOpen,\n                _govModel,\n                _govRuleMaxUsers,\n                _govRuleMaxManagers,\n                _govRuleApprovPercentage,\n                _whiteListNFT,\n                _whiteListWallets\n                // keccak256( abi.encodePacked( _whiteListWallets ) )\n            )\n        );\n\n        bytes32 singhash = keccak256( abi.encodePacked( \"\\x19\\x01\", hashEIP712Domain, hashMsg ) );\n\n        return SignerOfMsg( singhash, _signature );\n    }\n\n    function SignerOCNewLock(\n        uint256 _expirationDuration,\n        uint256 _keyPrice,\n        uint256 _maxNumberOfKeys,\n        string memory _lockName,\n        address _houseAddr,\n        bytes memory _signature\n    ) \n        external view\n        returns( address )\n    {\n        bytes32 hashEIP712Domain = keccak256(\n            abi.encode(\n                __STR_EIP712DOMAIN_HASH__,\n                __CONTRACT_NAME_HASH__,\n                __CONTRACT_VERSION_HASH__,\n                block.chainid,\n                _houseAddr\n            )\n        );\n\n        bytes32 hashMsg = keccak256(\n            abi.encode(\n                __STR_OCNEWLOCK_HASH__,\n                _expirationDuration,\n                _keyPrice,\n                _maxNumberOfKeys,\n                keccak256( abi.encodePacked( _lockName ) )\n            )\n        );\n\n        bytes32 singhash = keccak256( abi.encodePacked( \"\\x19\\x01\", hashEIP712Domain, hashMsg ) );\n\n        return SignerOfMsg( singhash, _signature );\n    }\n}",
  "sourcePath": "contracts/APICLH/CLHouseApi.sol",
  "type": "contract"
}