{
  "abi": [
    {
      "inputs": [
        {
          "internalType": "address",
          "name": "_houseAddr",
          "type": "address"
        }
      ],
      "name": "GetHouseProperties",
      "outputs": [
        {
          "internalType": "string",
          "name": "HOUSE_NAME",
          "type": "string"
        },
        {
          "internalType": "bytes32",
          "name": "HOUSE_GOVERNANCE_MODEL",
          "type": "bytes32"
        },
        {
          "internalType": "bool",
          "name": "housePrivate",
          "type": "bool"
        },
        {
          "internalType": "bool",
          "name": "houseOpen",
          "type": "bool"
        },
        {
          "internalType": "uint256",
          "name": "numUsers",
          "type": "uint256"
        },
        {
          "internalType": "uint256",
          "name": "numManagers",
          "type": "uint256"
        },
        {
          "internalType": "uint256",
          "name": "govRuleApprovPercentage",
          "type": "uint256"
        },
        {
          "internalType": "uint256",
          "name": "govRuleMaxUsers",
          "type": "uint256"
        },
        {
          "internalType": "uint256",
          "name": "govRuleMaxManagers",
          "type": "uint256"
        }
      ],
      "stateMutability": "view",
      "type": "function"
    },
    {
      "inputs": [
        {
          "internalType": "address",
          "name": "_houseAddr",
          "type": "address"
        }
      ],
      "name": "GetHouseUserList",
      "outputs": [
        {
          "components": [
            {
              "internalType": "address",
              "name": "walletAddr",
              "type": "address"
            },
            {
              "internalType": "string",
              "name": "name",
              "type": "string"
            },
            {
              "internalType": "uint256",
              "name": "balance",
              "type": "uint256"
            },
            {
              "internalType": "bool",
              "name": "isUser",
              "type": "bool"
            },
            {
              "internalType": "bool",
              "name": "isManager",
              "type": "bool"
            }
          ],
          "internalType": "struct strUser[]",
          "name": "arrUsers",
          "type": "tuple[]"
        }
      ],
      "stateMutability": "view",
      "type": "function"
    },
    {
      "inputs": [
        {
          "internalType": "address",
          "name": "_houseAddr",
          "type": "address"
        },
        {
          "internalType": "address",
          "name": "_walletAddr",
          "type": "address"
        }
      ],
      "name": "GetUserInfoByAddress",
      "outputs": [
        {
          "internalType": "string",
          "name": "name",
          "type": "string"
        },
        {
          "internalType": "uint256",
          "name": "balance",
          "type": "uint256"
        },
        {
          "internalType": "bool",
          "name": "isUser",
          "type": "bool"
        },
        {
          "internalType": "bool",
          "name": "isManager",
          "type": "bool"
        }
      ],
      "stateMutability": "view",
      "type": "function"
    },
    {
      "inputs": [
        {
          "internalType": "uint256[]",
          "name": "_propIds",
          "type": "uint256[]"
        },
        {
          "internalType": "bool",
          "name": "_support",
          "type": "bool"
        },
        {
          "internalType": "string",
          "name": "_justification",
          "type": "string"
        },
        {
          "internalType": "address",
          "name": "_houseAddr",
          "type": "address"
        },
        {
          "internalType": "bytes",
          "name": "_signature",
          "type": "bytes"
        }
      ],
      "name": "SignerOCBulkVote",
      "outputs": [
        {
          "internalType": "address",
          "name": "",
          "type": "address"
        }
      ],
      "stateMutability": "view",
      "type": "function"
    },
    {
      "inputs": [
        {
          "internalType": "address",
          "name": "_walletAddr",
          "type": "address"
        },
        {
          "internalType": "string",
          "name": "_description",
          "type": "string"
        },
        {
          "internalType": "uint256",
          "name": "_delayTime",
          "type": "uint256"
        },
        {
          "internalType": "address",
          "name": "_houseAddr",
          "type": "address"
        },
        {
          "internalType": "bytes",
          "name": "_signature",
          "type": "bytes"
        }
      ],
      "name": "SignerOCDelUser",
      "outputs": [
        {
          "internalType": "address",
          "name": "",
          "type": "address"
        }
      ],
      "stateMutability": "view",
      "type": "function"
    },
    {
      "inputs": [
        {
          "internalType": "bool",
          "name": "_acceptance",
          "type": "bool"
        },
        {
          "internalType": "address",
          "name": "_houseAddr",
          "type": "address"
        },
        {
          "internalType": "bytes",
          "name": "_signature",
          "type": "bytes"
        }
      ],
      "name": "SignerOCInvit",
      "outputs": [
        {
          "internalType": "address",
          "name": "",
          "type": "address"
        }
      ],
      "stateMutability": "view",
      "type": "function"
    },
    {
      "inputs": [
        {
          "internalType": "string",
          "name": "_houseName",
          "type": "string"
        },
        {
          "internalType": "bool",
          "name": "_housePrivate",
          "type": "bool"
        },
        {
          "internalType": "bool",
          "name": "_houseOpen",
          "type": "bool"
        },
        {
          "internalType": "bytes32",
          "name": "_govModel",
          "type": "bytes32"
        },
        {
          "internalType": "uint256",
          "name": "_govRuleMaxUsers",
          "type": "uint256"
        },
        {
          "internalType": "uint256",
          "name": "_govRuleMaxManagers",
          "type": "uint256"
        },
        {
          "internalType": "uint256",
          "name": "_govRuleApprovPercentage",
          "type": "uint256"
        },
        {
          "internalType": "address",
          "name": "_whiteListNFT",
          "type": "address"
        },
        {
          "internalType": "address",
          "name": "_whiteListWallets",
          "type": "address"
        },
        {
          "internalType": "address",
          "name": "_addrCLF",
          "type": "address"
        },
        {
          "internalType": "bytes",
          "name": "_signature",
          "type": "bytes"
        }
      ],
      "name": "SignerOCNewCLH",
      "outputs": [
        {
          "internalType": "address",
          "name": "",
          "type": "address"
        }
      ],
      "stateMutability": "view",
      "type": "function"
    },
    {
      "inputs": [
        {
          "internalType": "address",
          "name": "_walletAddr",
          "type": "address"
        },
        {
          "internalType": "string",
          "name": "_name",
          "type": "string"
        },
        {
          "internalType": "string",
          "name": "_description",
          "type": "string"
        },
        {
          "internalType": "bool",
          "name": "_isManager",
          "type": "bool"
        },
        {
          "internalType": "uint256",
          "name": "_delayTime",
          "type": "uint256"
        },
        {
          "internalType": "address",
          "name": "_houseAddr",
          "type": "address"
        },
        {
          "internalType": "bytes",
          "name": "_signature",
          "type": "bytes"
        }
      ],
      "name": "SignerOCNewUser",
      "outputs": [
        {
          "internalType": "address",
          "name": "",
          "type": "address"
        }
      ],
      "stateMutability": "view",
      "type": "function"
    },
    {
      "inputs": [
        {
          "internalType": "string",
          "name": "_name",
          "type": "string"
        },
        {
          "internalType": "string",
          "name": "_description",
          "type": "string"
        },
        {
          "internalType": "address",
          "name": "_houseAddr",
          "type": "address"
        },
        {
          "internalType": "bytes",
          "name": "_signature",
          "type": "bytes"
        }
      ],
      "name": "SignerOCRequest",
      "outputs": [
        {
          "internalType": "address",
          "name": "",
          "type": "address"
        }
      ],
      "stateMutability": "view",
      "type": "function"
    },
    {
      "inputs": [
        {
          "internalType": "uint256",
          "name": "_propId",
          "type": "uint256"
        },
        {
          "internalType": "bool",
          "name": "_support",
          "type": "bool"
        },
        {
          "internalType": "string",
          "name": "_justification",
          "type": "string"
        },
        {
          "internalType": "address",
          "name": "_houseAddr",
          "type": "address"
        },
        {
          "internalType": "bytes",
          "name": "_signature",
          "type": "bytes"
        }
      ],
      "name": "SignerOCVote",
      "outputs": [
        {
          "internalType": "address",
          "name": "",
          "type": "address"
        }
      ],
      "stateMutability": "view",
      "type": "function"
    },
    {
      "inputs": [
        {
          "internalType": "bytes32",
          "name": "_msghash",
          "type": "bytes32"
        },
        {
          "internalType": "bytes",
          "name": "_signature",
          "type": "bytes"
        }
      ],
      "name": "SignerOfMsg",
      "outputs": [
        {
          "internalType": "address",
          "name": "",
          "type": "address"
        }
      ],
      "stateMutability": "pure",
      "type": "function"
    }
  ],
  "bytecode": "608060405234801561001057600080fd5b50612168806100206000396000f3fe608060405234801561001057600080fd5b50600436106100a95760003560e01c806389ab062a1161007157806389ab062a1461014f5780638b4bccca146101625780639f6fd7ab14610175578063b698be8d14610188578063f0b00c9f146101a8578063f240c7e9146101bb57600080fd5b8063349dc296146100ae578063622eca77146100de5780637b3bb156146100f157806386abd826146101045780638750bc3e14610127575b600080fd5b6100c16100bc3660046117c0565b6101ce565b6040516001600160a01b0390911681526020015b60405180910390f35b6100c16100ec366004611854565b6103a6565b6100c16100ff36600461189a565b61046a565b610117610112366004611936565b61062f565b6040516100d594939291906119cb565b61013a6101353660046119fc565b6107f4565b6040516100d599989796959493929190611a20565b6100c161015d366004611a8d565b610b9d565b6100c1610170366004611af1565b610cff565b6100c1610183366004611bd2565b610fa5565b61019b6101963660046119fc565b6110f6565b6040516100d59190611c33565b6100c16101b6366004611cd7565b611322565b6100c16101c9366004611dcd565b611479565b6000806040516020016101e090611e97565b60408051601f19818403018152828252805160209182012083830183526005845264302e312e3160d81b84830152915191926000805160206121138339815191529261022c9201611f01565b604051602081830303815290604052805190602001204687604051602001610258959493929190611f1d565b60405160208183030381529060405280519060200120905060006040516020016102d9907f7374724f4344656c5573657228616464726573732077616c6c6574416464722c81527f737472696e67206465736372697074696f6e2c75696e743235362064656c617960208201526454696d652960d81b604082015260450190565b6040516020818303038152906040528051906020012088886040516020016103019190611f01565b604051602081830303815290604052805190602001208860405160200161034a94939291909384526001600160a01b039290921660208401526040830152606082015260800190565b60405160208183030381529060405280519060200120905060008282604051602001610377929190611f49565b60405160208183030381529060405280519060200120905061039981866103a6565b9998505050505050505050565b600081516041146103f55760405162461bcd60e51b8152602060048201526014602482015273084c2c840e6d2cedcc2e8eae4ca40d8cadccee8d60631b60448201526064015b60405180910390fd5b602082810151604080850151606080870151835160008082529681018086528a9052951a928501839052840183905260808401819052919260019060a0016020604051602081039080840390855afa158015610455573d6000803e3d6000fd5b5050604051601f190151979650505050505050565b60008060405160200161047c90611e97565b60408051601f19818403018152828252805160209182012083830183526005845264302e312e3160d81b8483015291519192600080516020612113833981519152926104c89201611f01565b6040516020818303038152906040528051906020012046876040516020016104f4959493929190611f1d565b6040516020818303038152906040528051906020012090506000604051602001610556907f7374724f435265717565737428737472696e67206e616d652c737472696e672081526b6465736372697074696f6e2960a01b6020820152602c0190565b604051602081830303815290604052805190602001208760405160200161057d9190611f01565b60405160208183030381529060405280519060200120876040516020016105a49190611f01565b60408051601f19818403018152828252805160209182012090830194909452810191909152606081019190915260800160405160208183030381529060405280519060200120905060008282604051602001610601929190611f49565b60405160208183030381529060405280519060200120905061062381866103a6565b98975050505050505050565b604051631c3fe46360e21b81526001600160a01b03828116600483015260609160009182918291879183918316906370ff918c90602401602060405180830381865afa158015610683573d6000803e3d6000fd5b505050506040513d601f19601f820116820180604052508101906106a79190611f64565b9050806106ec5760405162461bcd60e51b815260206004820152601360248201527241646472657373206e6f74206578697374212160681b60448201526064016103ec565b6106f4611699565b6040516308ad020760e21b8152600481018390526001600160a01b038416906322b4081c90602401600060405180830381865afa158015610739573d6000803e3d6000fd5b505050506040513d6000823e601f3d908101601f191682016040526107619190810190611fca565b15156080860152151560608501819052604085019190915260208401919091526001600160a01b0390911682526001146107cd5760405162461bcd60e51b815260206004820152600d60248201526c24b9903737ba1030903ab9b2b960991b60448201526064016103ec565b602081015160408201516060830151608090930151919b909a509198509650945050505050565b606060008060008060008060008060008a9050806001600160a01b03166359ca2d036040518163ffffffff1660e01b8152600401600060405180830381865afa158015610845573d6000803e3d6000fd5b505050506040513d6000823e601f3d908101601f1916820160405261086d919081019061204c565b816001600160a01b0316631d5fd3ca6040518163ffffffff1660e01b8152600401602060405180830381865afa1580156108ab573d6000803e3d6000fd5b505050506040513d601f19601f820116820180604052508101906108cf9190611f64565b826001600160a01b031663f00d62746040518163ffffffff1660e01b8152600401602060405180830381865afa15801561090d573d6000803e3d6000fd5b505050506040513d601f19601f820116820180604052508101906109319190612080565b836001600160a01b0316631f2e13396040518163ffffffff1660e01b8152600401602060405180830381865afa15801561096f573d6000803e3d6000fd5b505050506040513d601f19601f820116820180604052508101906109939190612080565b846001600160a01b03166319a50f496040518163ffffffff1660e01b8152600401602060405180830381865afa1580156109d1573d6000803e3d6000fd5b505050506040513d601f19601f820116820180604052508101906109f59190611f64565b856001600160a01b031663e68777d76040518163ffffffff1660e01b8152600401602060405180830381865afa158015610a33573d6000803e3d6000fd5b505050506040513d601f19601f82011682018060405250810190610a579190611f64565b866001600160a01b0316639c630a886040518163ffffffff1660e01b8152600401602060405180830381865afa158015610a95573d6000803e3d6000fd5b505050506040513d601f19601f82011682018060405250810190610ab99190611f64565b876001600160a01b0316631343e9a56040518163ffffffff1660e01b8152600401602060405180830381865afa158015610af7573d6000803e3d6000fd5b505050506040513d601f19601f82011682018060405250810190610b1b9190611f64565b886001600160a01b031663e810a58e6040518163ffffffff1660e01b8152600401602060405180830381865afa158015610b59573d6000803e3d6000fd5b505050506040513d601f19601f82011682018060405250810190610b7d9190611f64565b995099509950995099509950995099509950509193959799909294969850565b600080604051602001610baf90611e97565b60408051601f19818403018152828252805160209182012083830183526005845264302e312e3160d81b848301529151919260008051602061211383398151915292610bfb9201611f01565b604051602081830303815290604052805190602001204687604051602001610c27959493929190611f1d565b6040516020818303038152906040528051906020012090506000604051602001610c9a907f7374724f43566f74652875696e743235362070726f7049642c626f6f6c20737581527f70706f72742c737472696e67206a757374696669636174696f6e2900000000006020820152603b0190565b60405160208183030381529060405280519060200120888888604051602001610cc39190611f01565b60408051601f1981840301815282825280516020918201209083019590955281019290925215156060820152608081019190915260a00161034a565b600080604051602001610d1190611e97565b60408051601f19818403018152828252805160209182012083830183526005845264302e312e3160d81b848301529151919260008051602061211383398151915292610d5d9201611f01565b604051602081830303815290604052805190602001204687604051602001610d89959493929190611f1d565b6040516020818303038152906040528051906020012090506000604051602001610ead907f7374724f434e6577434c4828737472696e6720686f7573654e616d652c626f6f81527f6c20686f757365507269766174652c626f6f6c20686f7573654f70656e2c627960208201527f746573333220676f764d6f64656c2c75696e7432353620676f7652756c654d6160408201527f7855736572732c75696e7432353620676f7652756c654d61784d616e6167657260608201527f732c75696e7432353620676f7652756c65417070726f7650657263656e74616760808201527f652c616464726573732077686974654c6973744e46542c61646472657373207760a08201526f686974654c69737457616c6c6574732960801b60c082015260d00190565b604051602081830303815290604052805190602001208e604051602001610ed49190611f01565b60408051601f198184030181528282528051602091820120908301939093528101919091528d151560608201528c1515608082015260a081018c905260c081018b905260e081018a905261010081018990526001600160a01b0380891661012083015287166101408201526101600160405160208183030381529060405280519060200120905060008282604051602001610f70929190611f49565b604051602081830303815290604052805190602001209050610f9281866103a6565b9f9e505050505050505050505050505050565b600080604051602001610fb790611e97565b60408051601f19818403018152828252805160209182012083830183526005845264302e312e3160d81b8483015291519192600080516020612113833981519152926110039201611f01565b60405160208183030381529060405280519060200120468760405160200161102f959493929190611f1d565b604051602081830303815290604052805190602001209050600060405160200161107c907f7374724f43496e76697428626f6f6c20616363657074616e63652900000000008152601b0190565b60408051808303601f190181528282528051602091820120818401528815158383015281518084038301815260608401909252815191012091506000906110c99084908490608001611f49565b6040516020818303038152906040528051906020012090506110eb81866103a6565b979650505050505050565b606060008290506000816001600160a01b03166319a50f496040518163ffffffff1660e01b8152600401602060405180830381865afa15801561113d573d6000803e3d6000fd5b505050506040513d601f19601f820116820180604052508101906111619190611f64565b90506000826001600160a01b031663a693649a6040518163ffffffff1660e01b8152600401602060405180830381865afa1580156111a3573d6000803e3d6000fd5b505050506040513d601f19601f820116820180604052508101906111c79190611f64565b90506000826001600160401b038111156111e3576111e36116fd565b60405190808252806020026020018201604052801561121c57816020015b611209611699565b8152602001906001900390816112015790505b509050600060015b8381101561131657611234611699565b6040516308ad020760e21b8152600481018390526001600160a01b038816906322b4081c90602401600060405180830381865afa158015611279573d6000803e3d6000fd5b505050506040513d6000823e601f3d908101601f191682016040526112a19190810190611fca565b15156080860152151560608501819052604085019190915260208401919091526001600160a01b0390911682526001141561130357808484815181106112e9576112e961209d565b602002602001018190525082806112ff906120b3565b9350505b508061130e816120b3565b915050611224565b50909695505050505050565b60008060405160200161133490611e97565b60408051601f19818403018152828252805160209182012083830183526005845264302e312e3160d81b8483015291519192600080516020612113833981519152926113809201611f01565b6040516020818303038152906040528051906020012046876040516020016113ac959493929190611f1d565b604051602081830303815290604052805190602001209050600060405160200161142a907f7374724f4342756c6b566f74652875696e743235365b5d2070726f704964732c81527f626f6f6c20737570706f72742c737472696e67206a757374696669636174696f6020820152616e2960f01b604082015260420190565b604051602081830303815290604052805190602001208860405160200161145191906120dc565b604051602081830303815290604052805190602001208888604051602001610cc39190611f01565b60008060405160200161148b90611e97565b60408051601f19818403018152828252805160209182012083830183526005845264302e312e3160d81b8483015291519192600080516020612113833981519152926114d79201611f01565b604051602081830303815290604052805190602001204687604051602001611503959493929190611f1d565b604051602081830303815290604052805190602001209050600060405160200161159c907f7374724f434e65775573657228616464726573732077616c6c6574416464722c81527f737472696e67206e616d652c737472696e67206465736372697074696f6e2c6260208201527f6f6f6c2069734d616e616765722c75696e743235362064656c617954696d6529604082015260600190565b604051602081830303815290604052805190602001208a8a6040516020016115c49190611f01565b604051602081830303815290604052805190602001208a6040516020016115eb9190611f01565b60408051601f198184030181528282528051602091820120908301959095526001600160a01b03909316928101929092526060820152608081019190915287151560a082015260c0810187905260e00160405160208183030381529060405280519060200120905060008282604051602001611668929190611f49565b60405160208183030381529060405280519060200120905061168a81866103a6565b9b9a5050505050505050505050565b6040518060a0016040528060006001600160a01b0316815260200160608152602001600081526020016000151581526020016000151581525090565b6001600160a01b03811681146116ea57600080fd5b50565b80356116f8816116d5565b919050565b634e487b7160e01b600052604160045260246000fd5b604051601f8201601f191681016001600160401b038111828210171561173b5761173b6116fd565b604052919050565b60006001600160401b0382111561175c5761175c6116fd565b50601f01601f191660200190565b600082601f83011261177b57600080fd5b813561178e61178982611743565b611713565b8181528460208386010111156117a357600080fd5b816020850160208301376000918101602001919091529392505050565b600080600080600060a086880312156117d857600080fd5b85356117e3816116d5565b945060208601356001600160401b03808211156117ff57600080fd5b61180b89838a0161176a565b95506040880135945060608801359150611824826116d5565b9092506080870135908082111561183a57600080fd5b506118478882890161176a565b9150509295509295909350565b6000806040838503121561186757600080fd5b8235915060208301356001600160401b0381111561188457600080fd5b6118908582860161176a565b9150509250929050565b600080600080608085870312156118b057600080fd5b84356001600160401b03808211156118c757600080fd5b6118d38883890161176a565b955060208701359150808211156118e957600080fd5b6118f58883890161176a565b945060408701359150611907826116d5565b9092506060860135908082111561191d57600080fd5b5061192a8782880161176a565b91505092959194509250565b6000806040838503121561194957600080fd5b8235611954816116d5565b91506020830135611964816116d5565b809150509250929050565b60005b8381101561198a578181015183820152602001611972565b83811115611999576000848401525b50505050565b600081518084526119b781602086016020860161196f565b601f01601f19169290920160200192915050565b6080815260006119de608083018761199f565b60208301959095525091151560408301521515606090910152919050565b600060208284031215611a0e57600080fd5b8135611a19816116d5565b9392505050565b6000610120808352611a348184018d61199f565b602084019b909b52505096151560408801529415156060870152608086019390935260a085019190915260c084015260e083015261010090910152919050565b80151581146116ea57600080fd5b80356116f881611a74565b600080600080600060a08688031215611aa557600080fd5b853594506020860135611ab781611a74565b935060408601356001600160401b0380821115611ad357600080fd5b611adf89838a0161176a565b945060608801359150611824826116d5565b60008060008060008060008060008060006101608c8e031215611b1357600080fd5b6001600160401b03808d351115611b2957600080fd5b611b368e8e358f0161176a565b9b50611b4460208e01611a82565b9a50611b5260408e01611a82565b995060608d0135985060808d0135975060a08d0135965060c08d01359550611b7c60e08e016116ed565b9450611b8b6101008e016116ed565b9350611b9a6101208e016116ed565b9250806101408e01351115611bae57600080fd5b50611bc08d6101408e01358e0161176a565b90509295989b509295989b9093969950565b600080600060608486031215611be757600080fd5b8335611bf281611a74565b92506020840135611c02816116d5565b915060408401356001600160401b03811115611c1d57600080fd5b611c298682870161176a565b9150509250925092565b60006020808301818452808551808352604092508286019150828160051b87010184880160005b83811015611cc957888303603f19018552815180516001600160a01b031684528781015160a089860181905290611c938287018261199f565b838a0151878b01526060808501511515908801526080938401511515939096019290925250509386019390860190600101611c5a565b509098975050505050505050565b600080600080600060a08688031215611cef57600080fd5b85356001600160401b0380821115611d0657600080fd5b818801915088601f830112611d1a57600080fd5b8135602082821115611d2e57611d2e6116fd565b8160051b611d3d828201611713565b928352848101820192828101908d851115611d5757600080fd5b958301955b84871015611d7557863582529583019590830190611d5c565b9a50611d859150508a8201611a82565b975050506040880135915080821115611d9d57600080fd5b611da989838a0161176a565b9450611db7606089016116ed565b9350608088013591508082111561183a57600080fd5b600080600080600080600060e0888a031215611de857600080fd5b8735611df3816116d5565b965060208801356001600160401b0380821115611e0f57600080fd5b611e1b8b838c0161176a565b975060408a0135915080821115611e3157600080fd5b611e3d8b838c0161176a565b965060608a01359150611e4f82611a74565b81955060808a01359450611e6560a08b016116ed565b935060c08a0135915080821115611e7b57600080fd5b50611e888a828b0161176a565b91505092959891949750929550565b7f454950373132446f6d61696e28737472696e67206e616d652c737472696e672081527f76657273696f6e2c75696e7432353620636861696e49642c6164647265737320602082015271766572696679696e67436f6e74726163742960701b604082015260520190565b60008251611f1381846020870161196f565b9190910192915050565b9485526020850193909352604084019190915260608301526001600160a01b0316608082015260a00190565b61190160f01b81526002810192909252602282015260420190565b600060208284031215611f7657600080fd5b5051919050565b600082601f830112611f8e57600080fd5b8151611f9c61178982611743565b818152846020838601011115611fb157600080fd5b611fc282602083016020870161196f565b949350505050565b600080600080600060a08688031215611fe257600080fd5b8551611fed816116d5565b60208701519095506001600160401b0381111561200957600080fd5b61201588828901611f7d565b94505060408601519250606086015161202d81611a74565b608087015190925061203e81611a74565b809150509295509295909350565b60006020828403121561205e57600080fd5b81516001600160401b0381111561207457600080fd5b611fc284828501611f7d565b60006020828403121561209257600080fd5b8151611a1981611a74565b634e487b7160e01b600052603260045260246000fd5b60006000198214156120d557634e487b7160e01b600052601160045260246000fd5b5060010190565b815160009082906020808601845b83811015612106578151855293820193908201906001016120ea565b5092969550505050505056fe01318895af1f6db161b2ba745b8e57a6b46efad77d736630379ec69c3cd4c875a264697066735822122018de0272d08d53f2742e457e0bd79213f679f046aa4238fc8619e93d9c0bebf164736f6c634300080c0033",
  "bytecodeSha1": "199bb2152ebaecd6b76d711af900f009ae906f4a",
  "compiler": {
    "evm_version": "istanbul",
    "optimizer": {
      "enabled": true,
      "runs": 200
    },
    "version": "0.8.12+commit.f00d7308"
  },
  "contractName": "CLHouseApi",
  "language": "Solidity",
  "natspec": {
    "author": "Leonardo Urrego",
    "kind": "dev",
    "methods": {
      "GetHouseProperties(address)": {
        "notice": "All properties of a House",
        "params": {
          "_houseAddr": "CLH address"
        },
        "returns": {
          "HOUSE_GOVERNANCE_MODEL": "Hash of governance model",
          "HOUSE_NAME": "name of the CLH",
          "govRuleApprovPercentage": "Percentage for approval o reject proposal based on `numManagers`",
          "govRuleMaxManagers": "Max of managers that CLH can accept (only for COMMITTEE )",
          "govRuleMaxUsers": "Max of all users (including managers)",
          "houseOpen": "True if is Open",
          "housePrivate": "True if is private",
          "numManagers": "Current managers of a CLH",
          "numUsers": "Current users of a CLH"
        }
      },
      "GetHouseUserList(address)": {
        "notice": "The list of all users address",
        "params": {
          "_houseAddr": "address of the CLH"
        },
        "returns": {
          "arrUsers": "array with list of users"
        }
      },
      "GetUserInfoByAddress(address,address)": {
        "notice": "Get the info of an user in one especific CLH",
        "params": {
          "_houseAddr": "Address of the CLH",
          "_walletAddr": "Address of the user"
        },
        "returns": {
          "balance": "How much money have deposited",
          "isManager": "true if is manager",
          "isUser": "true if is User",
          "name": "Nickname ot other user identificaction"
        }
      },
      "SignerOfMsg(bytes32,bytes)": {
        "notice": "A funtion to verify the signer of a menssage",
        "params": {
          "_msghash": "Hash of the message",
          "_signature": "Signature of the message"
        },
        "returns": {
          "_0": "Signer address of the message"
        }
      }
    },
    "notice": "This contract is only for test ",
    "title": "Some funtions to interact with a CLHouse",
    "version": 1
  },
  "opcodes": "PUSH1 0x80 PUSH1 0x40 MSTORE CALLVALUE DUP1 ISZERO PUSH2 0x10 JUMPI PUSH1 0x0 DUP1 REVERT JUMPDEST POP PUSH1 0x4 CALLDATASIZE LT PUSH2 0xA9 JUMPI PUSH1 0x0 CALLDATALOAD PUSH1 0xE0 SHR DUP1 PUSH4 0x89AB062A GT PUSH2 0x71 JUMPI DUP1 PUSH4 0x89AB062A EQ PUSH2 0x14F JUMPI DUP1 PUSH4 0x8B4BCCCA EQ PUSH2 0x162 JUMPI DUP1 PUSH4 0x9F6FD7AB EQ PUSH2 0x175 JUMPI DUP1 PUSH4 0xB698BE8D EQ PUSH2 0x188 JUMPI DUP1 PUSH4 0xF0B00C9F EQ PUSH2 0x1A8 JUMPI DUP1 PUSH4 0xF240C7E9 EQ PUSH2 0x1BB JUMPI PUSH1 0x0 DUP1 REVERT JUMPDEST DUP1 PUSH4 0x349DC296 EQ PUSH2 0xAE JUMPI DUP1 PUSH4 0x622ECA77 EQ PUSH2 0xDE JUMPI DUP1 PUSH4 0x7B3BB156 EQ PUSH2 0xF1 JUMPI DUP1 PUSH4 0x86ABD826 EQ PUSH2 0x104 JUMPI DUP1 PUSH4 0x8750BC3E EQ PUSH2 0x127 JUMPI JUMPDEST PUSH1 0x0 DUP1 REVERT JUMPDEST PUSH2 0xC1 PUSH2 0xBC CALLDATASIZE PUSH1 0x4 PUSH2 0x17C0 JUMP JUMPDEST PUSH2 0x1CE JUMP JUMPDEST PUSH1 0x40 MLOAD PUSH1 0x1 PUSH1 0x1 PUSH1 0xA0 SHL SUB SWAP1 SWAP2 AND DUP2 MSTORE PUSH1 0x20 ADD JUMPDEST PUSH1 0x40 MLOAD DUP1 SWAP2 SUB SWAP1 RETURN JUMPDEST PUSH2 0xC1 PUSH2 0xEC CALLDATASIZE PUSH1 0x4 PUSH2 0x1854 JUMP JUMPDEST PUSH2 0x3A6 JUMP JUMPDEST PUSH2 0xC1 PUSH2 0xFF CALLDATASIZE PUSH1 0x4 PUSH2 0x189A JUMP JUMPDEST PUSH2 0x46A JUMP JUMPDEST PUSH2 0x117 PUSH2 0x112 CALLDATASIZE PUSH1 0x4 PUSH2 0x1936 JUMP JUMPDEST PUSH2 0x62F JUMP JUMPDEST PUSH1 0x40 MLOAD PUSH2 0xD5 SWAP5 SWAP4 SWAP3 SWAP2 SWAP1 PUSH2 0x19CB JUMP JUMPDEST PUSH2 0x13A PUSH2 0x135 CALLDATASIZE PUSH1 0x4 PUSH2 0x19FC JUMP JUMPDEST PUSH2 0x7F4 JUMP JUMPDEST PUSH1 0x40 MLOAD PUSH2 0xD5 SWAP10 SWAP9 SWAP8 SWAP7 SWAP6 SWAP5 SWAP4 SWAP3 SWAP2 SWAP1 PUSH2 0x1A20 JUMP JUMPDEST PUSH2 0xC1 PUSH2 0x15D CALLDATASIZE PUSH1 0x4 PUSH2 0x1A8D JUMP JUMPDEST PUSH2 0xB9D JUMP JUMPDEST PUSH2 0xC1 PUSH2 0x170 CALLDATASIZE PUSH1 0x4 PUSH2 0x1AF1 JUMP JUMPDEST PUSH2 0xCFF JUMP JUMPDEST PUSH2 0xC1 PUSH2 0x183 CALLDATASIZE PUSH1 0x4 PUSH2 0x1BD2 JUMP JUMPDEST PUSH2 0xFA5 JUMP JUMPDEST PUSH2 0x19B PUSH2 0x196 CALLDATASIZE PUSH1 0x4 PUSH2 0x19FC JUMP JUMPDEST PUSH2 0x10F6 JUMP JUMPDEST PUSH1 0x40 MLOAD PUSH2 0xD5 SWAP2 SWAP1 PUSH2 0x1C33 JUMP JUMPDEST PUSH2 0xC1 PUSH2 0x1B6 CALLDATASIZE PUSH1 0x4 PUSH2 0x1CD7 JUMP JUMPDEST PUSH2 0x1322 JUMP JUMPDEST PUSH2 0xC1 PUSH2 0x1C9 CALLDATASIZE PUSH1 0x4 PUSH2 0x1DCD JUMP JUMPDEST PUSH2 0x1479 JUMP JUMPDEST PUSH1 0x0 DUP1 PUSH1 0x40 MLOAD PUSH1 0x20 ADD PUSH2 0x1E0 SWAP1 PUSH2 0x1E97 JUMP JUMPDEST PUSH1 0x40 DUP1 MLOAD PUSH1 0x1F NOT DUP2 DUP5 SUB ADD DUP2 MSTORE DUP3 DUP3 MSTORE DUP1 MLOAD PUSH1 0x20 SWAP2 DUP3 ADD KECCAK256 DUP4 DUP4 ADD DUP4 MSTORE PUSH1 0x5 DUP5 MSTORE PUSH5 0x302E312E31 PUSH1 0xD8 SHL DUP5 DUP4 ADD MSTORE SWAP2 MLOAD SWAP2 SWAP3 PUSH1 0x0 DUP1 MLOAD PUSH1 0x20 PUSH2 0x2113 DUP4 CODECOPY DUP2 MLOAD SWAP2 MSTORE SWAP3 PUSH2 0x22C SWAP3 ADD PUSH2 0x1F01 JUMP JUMPDEST PUSH1 0x40 MLOAD PUSH1 0x20 DUP2 DUP4 SUB SUB DUP2 MSTORE SWAP1 PUSH1 0x40 MSTORE DUP1 MLOAD SWAP1 PUSH1 0x20 ADD KECCAK256 CHAINID DUP8 PUSH1 0x40 MLOAD PUSH1 0x20 ADD PUSH2 0x258 SWAP6 SWAP5 SWAP4 SWAP3 SWAP2 SWAP1 PUSH2 0x1F1D JUMP JUMPDEST PUSH1 0x40 MLOAD PUSH1 0x20 DUP2 DUP4 SUB SUB DUP2 MSTORE SWAP1 PUSH1 0x40 MSTORE DUP1 MLOAD SWAP1 PUSH1 0x20 ADD KECCAK256 SWAP1 POP PUSH1 0x0 PUSH1 0x40 MLOAD PUSH1 0x20 ADD PUSH2 0x2D9 SWAP1 PUSH32 0x7374724F4344656C5573657228616464726573732077616C6C6574416464722C DUP2 MSTORE PUSH32 0x737472696E67206465736372697074696F6E2C75696E743235362064656C6179 PUSH1 0x20 DUP3 ADD MSTORE PUSH5 0x54696D6529 PUSH1 0xD8 SHL PUSH1 0x40 DUP3 ADD MSTORE PUSH1 0x45 ADD SWAP1 JUMP JUMPDEST PUSH1 0x40 MLOAD PUSH1 0x20 DUP2 DUP4 SUB SUB DUP2 MSTORE SWAP1 PUSH1 0x40 MSTORE DUP1 MLOAD SWAP1 PUSH1 0x20 ADD KECCAK256 DUP9 DUP9 PUSH1 0x40 MLOAD PUSH1 0x20 ADD PUSH2 0x301 SWAP2 SWAP1 PUSH2 0x1F01 JUMP JUMPDEST PUSH1 0x40 MLOAD PUSH1 0x20 DUP2 DUP4 SUB SUB DUP2 MSTORE SWAP1 PUSH1 0x40 MSTORE DUP1 MLOAD SWAP1 PUSH1 0x20 ADD KECCAK256 DUP9 PUSH1 0x40 MLOAD PUSH1 0x20 ADD PUSH2 0x34A SWAP5 SWAP4 SWAP3 SWAP2 SWAP1 SWAP4 DUP5 MSTORE PUSH1 0x1 PUSH1 0x1 PUSH1 0xA0 SHL SUB SWAP3 SWAP1 SWAP3 AND PUSH1 0x20 DUP5 ADD MSTORE PUSH1 0x40 DUP4 ADD MSTORE PUSH1 0x60 DUP3 ADD MSTORE PUSH1 0x80 ADD SWAP1 JUMP JUMPDEST PUSH1 0x40 MLOAD PUSH1 0x20 DUP2 DUP4 SUB SUB DUP2 MSTORE SWAP1 PUSH1 0x40 MSTORE DUP1 MLOAD SWAP1 PUSH1 0x20 ADD KECCAK256 SWAP1 POP PUSH1 0x0 DUP3 DUP3 PUSH1 0x40 MLOAD PUSH1 0x20 ADD PUSH2 0x377 SWAP3 SWAP2 SWAP1 PUSH2 0x1F49 JUMP JUMPDEST PUSH1 0x40 MLOAD PUSH1 0x20 DUP2 DUP4 SUB SUB DUP2 MSTORE SWAP1 PUSH1 0x40 MSTORE DUP1 MLOAD SWAP1 PUSH1 0x20 ADD KECCAK256 SWAP1 POP PUSH2 0x399 DUP2 DUP7 PUSH2 0x3A6 JUMP JUMPDEST SWAP10 SWAP9 POP POP POP POP POP POP POP POP POP JUMP JUMPDEST PUSH1 0x0 DUP2 MLOAD PUSH1 0x41 EQ PUSH2 0x3F5 JUMPI PUSH1 0x40 MLOAD PUSH3 0x461BCD PUSH1 0xE5 SHL DUP2 MSTORE PUSH1 0x20 PUSH1 0x4 DUP3 ADD MSTORE PUSH1 0x14 PUSH1 0x24 DUP3 ADD MSTORE PUSH20 0x84C2C840E6D2CEDCC2E8EAE4CA40D8CADCCEE8D PUSH1 0x63 SHL PUSH1 0x44 DUP3 ADD MSTORE PUSH1 0x64 ADD JUMPDEST PUSH1 0x40 MLOAD DUP1 SWAP2 SUB SWAP1 REVERT JUMPDEST PUSH1 0x20 DUP3 DUP2 ADD MLOAD PUSH1 0x40 DUP1 DUP6 ADD MLOAD PUSH1 0x60 DUP1 DUP8 ADD MLOAD DUP4 MLOAD PUSH1 0x0 DUP1 DUP3 MSTORE SWAP7 DUP2 ADD DUP1 DUP7 MSTORE DUP11 SWAP1 MSTORE SWAP6 BYTE SWAP3 DUP6 ADD DUP4 SWAP1 MSTORE DUP5 ADD DUP4 SWAP1 MSTORE PUSH1 0x80 DUP5 ADD DUP2 SWAP1 MSTORE SWAP2 SWAP3 PUSH1 0x1 SWAP1 PUSH1 0xA0 ADD PUSH1 0x20 PUSH1 0x40 MLOAD PUSH1 0x20 DUP2 SUB SWAP1 DUP1 DUP5 SUB SWAP1 DUP6 GAS STATICCALL ISZERO DUP1 ISZERO PUSH2 0x455 JUMPI RETURNDATASIZE PUSH1 0x0 DUP1 RETURNDATACOPY RETURNDATASIZE PUSH1 0x0 REVERT JUMPDEST POP POP PUSH1 0x40 MLOAD PUSH1 0x1F NOT ADD MLOAD SWAP8 SWAP7 POP POP POP POP POP POP POP JUMP JUMPDEST PUSH1 0x0 DUP1 PUSH1 0x40 MLOAD PUSH1 0x20 ADD PUSH2 0x47C SWAP1 PUSH2 0x1E97 JUMP JUMPDEST PUSH1 0x40 DUP1 MLOAD PUSH1 0x1F NOT DUP2 DUP5 SUB ADD DUP2 MSTORE DUP3 DUP3 MSTORE DUP1 MLOAD PUSH1 0x20 SWAP2 DUP3 ADD KECCAK256 DUP4 DUP4 ADD DUP4 MSTORE PUSH1 0x5 DUP5 MSTORE PUSH5 0x302E312E31 PUSH1 0xD8 SHL DUP5 DUP4 ADD MSTORE SWAP2 MLOAD SWAP2 SWAP3 PUSH1 0x0 DUP1 MLOAD PUSH1 0x20 PUSH2 0x2113 DUP4 CODECOPY DUP2 MLOAD SWAP2 MSTORE SWAP3 PUSH2 0x4C8 SWAP3 ADD PUSH2 0x1F01 JUMP JUMPDEST PUSH1 0x40 MLOAD PUSH1 0x20 DUP2 DUP4 SUB SUB DUP2 MSTORE SWAP1 PUSH1 0x40 MSTORE DUP1 MLOAD SWAP1 PUSH1 0x20 ADD KECCAK256 CHAINID DUP8 PUSH1 0x40 MLOAD PUSH1 0x20 ADD PUSH2 0x4F4 SWAP6 SWAP5 SWAP4 SWAP3 SWAP2 SWAP1 PUSH2 0x1F1D JUMP JUMPDEST PUSH1 0x40 MLOAD PUSH1 0x20 DUP2 DUP4 SUB SUB DUP2 MSTORE SWAP1 PUSH1 0x40 MSTORE DUP1 MLOAD SWAP1 PUSH1 0x20 ADD KECCAK256 SWAP1 POP PUSH1 0x0 PUSH1 0x40 MLOAD PUSH1 0x20 ADD PUSH2 0x556 SWAP1 PUSH32 0x7374724F435265717565737428737472696E67206E616D652C737472696E6720 DUP2 MSTORE PUSH12 0x6465736372697074696F6E29 PUSH1 0xA0 SHL PUSH1 0x20 DUP3 ADD MSTORE PUSH1 0x2C ADD SWAP1 JUMP JUMPDEST PUSH1 0x40 MLOAD PUSH1 0x20 DUP2 DUP4 SUB SUB DUP2 MSTORE SWAP1 PUSH1 0x40 MSTORE DUP1 MLOAD SWAP1 PUSH1 0x20 ADD KECCAK256 DUP8 PUSH1 0x40 MLOAD PUSH1 0x20 ADD PUSH2 0x57D SWAP2 SWAP1 PUSH2 0x1F01 JUMP JUMPDEST PUSH1 0x40 MLOAD PUSH1 0x20 DUP2 DUP4 SUB SUB DUP2 MSTORE SWAP1 PUSH1 0x40 MSTORE DUP1 MLOAD SWAP1 PUSH1 0x20 ADD KECCAK256 DUP8 PUSH1 0x40 MLOAD PUSH1 0x20 ADD PUSH2 0x5A4 SWAP2 SWAP1 PUSH2 0x1F01 JUMP JUMPDEST PUSH1 0x40 DUP1 MLOAD PUSH1 0x1F NOT DUP2 DUP5 SUB ADD DUP2 MSTORE DUP3 DUP3 MSTORE DUP1 MLOAD PUSH1 0x20 SWAP2 DUP3 ADD KECCAK256 SWAP1 DUP4 ADD SWAP5 SWAP1 SWAP5 MSTORE DUP2 ADD SWAP2 SWAP1 SWAP2 MSTORE PUSH1 0x60 DUP2 ADD SWAP2 SWAP1 SWAP2 MSTORE PUSH1 0x80 ADD PUSH1 0x40 MLOAD PUSH1 0x20 DUP2 DUP4 SUB SUB DUP2 MSTORE SWAP1 PUSH1 0x40 MSTORE DUP1 MLOAD SWAP1 PUSH1 0x20 ADD KECCAK256 SWAP1 POP PUSH1 0x0 DUP3 DUP3 PUSH1 0x40 MLOAD PUSH1 0x20 ADD PUSH2 0x601 SWAP3 SWAP2 SWAP1 PUSH2 0x1F49 JUMP JUMPDEST PUSH1 0x40 MLOAD PUSH1 0x20 DUP2 DUP4 SUB SUB DUP2 MSTORE SWAP1 PUSH1 0x40 MSTORE DUP1 MLOAD SWAP1 PUSH1 0x20 ADD KECCAK256 SWAP1 POP PUSH2 0x623 DUP2 DUP7 PUSH2 0x3A6 JUMP JUMPDEST SWAP9 SWAP8 POP POP POP POP POP POP POP POP JUMP JUMPDEST PUSH1 0x40 MLOAD PUSH4 0x1C3FE463 PUSH1 0xE2 SHL DUP2 MSTORE PUSH1 0x1 PUSH1 0x1 PUSH1 0xA0 SHL SUB DUP3 DUP2 AND PUSH1 0x4 DUP4 ADD MSTORE PUSH1 0x60 SWAP2 PUSH1 0x0 SWAP2 DUP3 SWAP2 DUP3 SWAP2 DUP8 SWAP2 DUP4 SWAP2 DUP4 AND SWAP1 PUSH4 0x70FF918C SWAP1 PUSH1 0x24 ADD PUSH1 0x20 PUSH1 0x40 MLOAD DUP1 DUP4 SUB DUP2 DUP7 GAS STATICCALL ISZERO DUP1 ISZERO PUSH2 0x683 JUMPI RETURNDATASIZE PUSH1 0x0 DUP1 RETURNDATACOPY RETURNDATASIZE PUSH1 0x0 REVERT JUMPDEST POP POP POP POP PUSH1 0x40 MLOAD RETURNDATASIZE PUSH1 0x1F NOT PUSH1 0x1F DUP3 ADD AND DUP3 ADD DUP1 PUSH1 0x40 MSTORE POP DUP2 ADD SWAP1 PUSH2 0x6A7 SWAP2 SWAP1 PUSH2 0x1F64 JUMP JUMPDEST SWAP1 POP DUP1 PUSH2 0x6EC JUMPI PUSH1 0x40 MLOAD PUSH3 0x461BCD PUSH1 0xE5 SHL DUP2 MSTORE PUSH1 0x20 PUSH1 0x4 DUP3 ADD MSTORE PUSH1 0x13 PUSH1 0x24 DUP3 ADD MSTORE PUSH19 0x41646472657373206E6F742065786973742121 PUSH1 0x68 SHL PUSH1 0x44 DUP3 ADD MSTORE PUSH1 0x64 ADD PUSH2 0x3EC JUMP JUMPDEST PUSH2 0x6F4 PUSH2 0x1699 JUMP JUMPDEST PUSH1 0x40 MLOAD PUSH4 0x8AD0207 PUSH1 0xE2 SHL DUP2 MSTORE PUSH1 0x4 DUP2 ADD DUP4 SWAP1 MSTORE PUSH1 0x1 PUSH1 0x1 PUSH1 0xA0 SHL SUB DUP5 AND SWAP1 PUSH4 0x22B4081C SWAP1 PUSH1 0x24 ADD PUSH1 0x0 PUSH1 0x40 MLOAD DUP1 DUP4 SUB DUP2 DUP7 GAS STATICCALL ISZERO DUP1 ISZERO PUSH2 0x739 JUMPI RETURNDATASIZE PUSH1 0x0 DUP1 RETURNDATACOPY RETURNDATASIZE PUSH1 0x0 REVERT JUMPDEST POP POP POP POP PUSH1 0x40 MLOAD RETURNDATASIZE PUSH1 0x0 DUP3 RETURNDATACOPY PUSH1 0x1F RETURNDATASIZE SWAP1 DUP2 ADD PUSH1 0x1F NOT AND DUP3 ADD PUSH1 0x40 MSTORE PUSH2 0x761 SWAP2 SWAP1 DUP2 ADD SWAP1 PUSH2 0x1FCA JUMP JUMPDEST ISZERO ISZERO PUSH1 0x80 DUP7 ADD MSTORE ISZERO ISZERO PUSH1 0x60 DUP6 ADD DUP2 SWAP1 MSTORE PUSH1 0x40 DUP6 ADD SWAP2 SWAP1 SWAP2 MSTORE PUSH1 0x20 DUP5 ADD SWAP2 SWAP1 SWAP2 MSTORE PUSH1 0x1 PUSH1 0x1 PUSH1 0xA0 SHL SUB SWAP1 SWAP2 AND DUP3 MSTORE PUSH1 0x1 EQ PUSH2 0x7CD JUMPI PUSH1 0x40 MLOAD PUSH3 0x461BCD PUSH1 0xE5 SHL DUP2 MSTORE PUSH1 0x20 PUSH1 0x4 DUP3 ADD MSTORE PUSH1 0xD PUSH1 0x24 DUP3 ADD MSTORE PUSH13 0x24B9903737BA1030903AB9B2B9 PUSH1 0x99 SHL PUSH1 0x44 DUP3 ADD MSTORE PUSH1 0x64 ADD PUSH2 0x3EC JUMP JUMPDEST PUSH1 0x20 DUP2 ADD MLOAD PUSH1 0x40 DUP3 ADD MLOAD PUSH1 0x60 DUP4 ADD MLOAD PUSH1 0x80 SWAP1 SWAP4 ADD MLOAD SWAP2 SWAP12 SWAP1 SWAP11 POP SWAP2 SWAP9 POP SWAP7 POP SWAP5 POP POP POP POP POP JUMP JUMPDEST PUSH1 0x60 PUSH1 0x0 DUP1 PUSH1 0x0 DUP1 PUSH1 0x0 DUP1 PUSH1 0x0 DUP1 PUSH1 0x0 DUP11 SWAP1 POP DUP1 PUSH1 0x1 PUSH1 0x1 PUSH1 0xA0 SHL SUB AND PUSH4 0x59CA2D03 PUSH1 0x40 MLOAD DUP2 PUSH4 0xFFFFFFFF AND PUSH1 0xE0 SHL DUP2 MSTORE PUSH1 0x4 ADD PUSH1 0x0 PUSH1 0x40 MLOAD DUP1 DUP4 SUB DUP2 DUP7 GAS STATICCALL ISZERO DUP1 ISZERO PUSH2 0x845 JUMPI RETURNDATASIZE PUSH1 0x0 DUP1 RETURNDATACOPY RETURNDATASIZE PUSH1 0x0 REVERT JUMPDEST POP POP POP POP PUSH1 0x40 MLOAD RETURNDATASIZE PUSH1 0x0 DUP3 RETURNDATACOPY PUSH1 0x1F RETURNDATASIZE SWAP1 DUP2 ADD PUSH1 0x1F NOT AND DUP3 ADD PUSH1 0x40 MSTORE PUSH2 0x86D SWAP2 SWAP1 DUP2 ADD SWAP1 PUSH2 0x204C JUMP JUMPDEST DUP2 PUSH1 0x1 PUSH1 0x1 PUSH1 0xA0 SHL SUB AND PUSH4 0x1D5FD3CA PUSH1 0x40 MLOAD DUP2 PUSH4 0xFFFFFFFF AND PUSH1 0xE0 SHL DUP2 MSTORE PUSH1 0x4 ADD PUSH1 0x20 PUSH1 0x40 MLOAD DUP1 DUP4 SUB DUP2 DUP7 GAS STATICCALL ISZERO DUP1 ISZERO PUSH2 0x8AB JUMPI RETURNDATASIZE PUSH1 0x0 DUP1 RETURNDATACOPY RETURNDATASIZE PUSH1 0x0 REVERT JUMPDEST POP POP POP POP PUSH1 0x40 MLOAD RETURNDATASIZE PUSH1 0x1F NOT PUSH1 0x1F DUP3 ADD AND DUP3 ADD DUP1 PUSH1 0x40 MSTORE POP DUP2 ADD SWAP1 PUSH2 0x8CF SWAP2 SWAP1 PUSH2 0x1F64 JUMP JUMPDEST DUP3 PUSH1 0x1 PUSH1 0x1 PUSH1 0xA0 SHL SUB AND PUSH4 0xF00D6274 PUSH1 0x40 MLOAD DUP2 PUSH4 0xFFFFFFFF AND PUSH1 0xE0 SHL DUP2 MSTORE PUSH1 0x4 ADD PUSH1 0x20 PUSH1 0x40 MLOAD DUP1 DUP4 SUB DUP2 DUP7 GAS STATICCALL ISZERO DUP1 ISZERO PUSH2 0x90D JUMPI RETURNDATASIZE PUSH1 0x0 DUP1 RETURNDATACOPY RETURNDATASIZE PUSH1 0x0 REVERT JUMPDEST POP POP POP POP PUSH1 0x40 MLOAD RETURNDATASIZE PUSH1 0x1F NOT PUSH1 0x1F DUP3 ADD AND DUP3 ADD DUP1 PUSH1 0x40 MSTORE POP DUP2 ADD SWAP1 PUSH2 0x931 SWAP2 SWAP1 PUSH2 0x2080 JUMP JUMPDEST DUP4 PUSH1 0x1 PUSH1 0x1 PUSH1 0xA0 SHL SUB AND PUSH4 0x1F2E1339 PUSH1 0x40 MLOAD DUP2 PUSH4 0xFFFFFFFF AND PUSH1 0xE0 SHL DUP2 MSTORE PUSH1 0x4 ADD PUSH1 0x20 PUSH1 0x40 MLOAD DUP1 DUP4 SUB DUP2 DUP7 GAS STATICCALL ISZERO DUP1 ISZERO PUSH2 0x96F JUMPI RETURNDATASIZE PUSH1 0x0 DUP1 RETURNDATACOPY RETURNDATASIZE PUSH1 0x0 REVERT JUMPDEST POP POP POP POP PUSH1 0x40 MLOAD RETURNDATASIZE PUSH1 0x1F NOT PUSH1 0x1F DUP3 ADD AND DUP3 ADD DUP1 PUSH1 0x40 MSTORE POP DUP2 ADD SWAP1 PUSH2 0x993 SWAP2 SWAP1 PUSH2 0x2080 JUMP JUMPDEST DUP5 PUSH1 0x1 PUSH1 0x1 PUSH1 0xA0 SHL SUB AND PUSH4 0x19A50F49 PUSH1 0x40 MLOAD DUP2 PUSH4 0xFFFFFFFF AND PUSH1 0xE0 SHL DUP2 MSTORE PUSH1 0x4 ADD PUSH1 0x20 PUSH1 0x40 MLOAD DUP1 DUP4 SUB DUP2 DUP7 GAS STATICCALL ISZERO DUP1 ISZERO PUSH2 0x9D1 JUMPI RETURNDATASIZE PUSH1 0x0 DUP1 RETURNDATACOPY RETURNDATASIZE PUSH1 0x0 REVERT JUMPDEST POP POP POP POP PUSH1 0x40 MLOAD RETURNDATASIZE PUSH1 0x1F NOT PUSH1 0x1F DUP3 ADD AND DUP3 ADD DUP1 PUSH1 0x40 MSTORE POP DUP2 ADD SWAP1 PUSH2 0x9F5 SWAP2 SWAP1 PUSH2 0x1F64 JUMP JUMPDEST DUP6 PUSH1 0x1 PUSH1 0x1 PUSH1 0xA0 SHL SUB AND PUSH4 0xE68777D7 PUSH1 0x40 MLOAD DUP2 PUSH4 0xFFFFFFFF AND PUSH1 0xE0 SHL DUP2 MSTORE PUSH1 0x4 ADD PUSH1 0x20 PUSH1 0x40 MLOAD DUP1 DUP4 SUB DUP2 DUP7 GAS STATICCALL ISZERO DUP1 ISZERO PUSH2 0xA33 JUMPI RETURNDATASIZE PUSH1 0x0 DUP1 RETURNDATACOPY RETURNDATASIZE PUSH1 0x0 REVERT JUMPDEST POP POP POP POP PUSH1 0x40 MLOAD RETURNDATASIZE PUSH1 0x1F NOT PUSH1 0x1F DUP3 ADD AND DUP3 ADD DUP1 PUSH1 0x40 MSTORE POP DUP2 ADD SWAP1 PUSH2 0xA57 SWAP2 SWAP1 PUSH2 0x1F64 JUMP JUMPDEST DUP7 PUSH1 0x1 PUSH1 0x1 PUSH1 0xA0 SHL SUB AND PUSH4 0x9C630A88 PUSH1 0x40 MLOAD DUP2 PUSH4 0xFFFFFFFF AND PUSH1 0xE0 SHL DUP2 MSTORE PUSH1 0x4 ADD PUSH1 0x20 PUSH1 0x40 MLOAD DUP1 DUP4 SUB DUP2 DUP7 GAS STATICCALL ISZERO DUP1 ISZERO PUSH2 0xA95 JUMPI RETURNDATASIZE PUSH1 0x0 DUP1 RETURNDATACOPY RETURNDATASIZE PUSH1 0x0 REVERT JUMPDEST POP POP POP POP PUSH1 0x40 MLOAD RETURNDATASIZE PUSH1 0x1F NOT PUSH1 0x1F DUP3 ADD AND DUP3 ADD DUP1 PUSH1 0x40 MSTORE POP DUP2 ADD SWAP1 PUSH2 0xAB9 SWAP2 SWAP1 PUSH2 0x1F64 JUMP JUMPDEST DUP8 PUSH1 0x1 PUSH1 0x1 PUSH1 0xA0 SHL SUB AND PUSH4 0x1343E9A5 PUSH1 0x40 MLOAD DUP2 PUSH4 0xFFFFFFFF AND PUSH1 0xE0 SHL DUP2 MSTORE PUSH1 0x4 ADD PUSH1 0x20 PUSH1 0x40 MLOAD DUP1 DUP4 SUB DUP2 DUP7 GAS STATICCALL ISZERO DUP1 ISZERO PUSH2 0xAF7 JUMPI RETURNDATASIZE PUSH1 0x0 DUP1 RETURNDATACOPY RETURNDATASIZE PUSH1 0x0 REVERT JUMPDEST POP POP POP POP PUSH1 0x40 MLOAD RETURNDATASIZE PUSH1 0x1F NOT PUSH1 0x1F DUP3 ADD AND DUP3 ADD DUP1 PUSH1 0x40 MSTORE POP DUP2 ADD SWAP1 PUSH2 0xB1B SWAP2 SWAP1 PUSH2 0x1F64 JUMP JUMPDEST DUP9 PUSH1 0x1 PUSH1 0x1 PUSH1 0xA0 SHL SUB AND PUSH4 0xE810A58E PUSH1 0x40 MLOAD DUP2 PUSH4 0xFFFFFFFF AND PUSH1 0xE0 SHL DUP2 MSTORE PUSH1 0x4 ADD PUSH1 0x20 PUSH1 0x40 MLOAD DUP1 DUP4 SUB DUP2 DUP7 GAS STATICCALL ISZERO DUP1 ISZERO PUSH2 0xB59 JUMPI RETURNDATASIZE PUSH1 0x0 DUP1 RETURNDATACOPY RETURNDATASIZE PUSH1 0x0 REVERT JUMPDEST POP POP POP POP PUSH1 0x40 MLOAD RETURNDATASIZE PUSH1 0x1F NOT PUSH1 0x1F DUP3 ADD AND DUP3 ADD DUP1 PUSH1 0x40 MSTORE POP DUP2 ADD SWAP1 PUSH2 0xB7D SWAP2 SWAP1 PUSH2 0x1F64 JUMP JUMPDEST SWAP10 POP SWAP10 POP SWAP10 POP SWAP10 POP SWAP10 POP SWAP10 POP SWAP10 POP SWAP10 POP SWAP10 POP POP SWAP2 SWAP4 SWAP6 SWAP8 SWAP10 SWAP1 SWAP3 SWAP5 SWAP7 SWAP9 POP JUMP JUMPDEST PUSH1 0x0 DUP1 PUSH1 0x40 MLOAD PUSH1 0x20 ADD PUSH2 0xBAF SWAP1 PUSH2 0x1E97 JUMP JUMPDEST PUSH1 0x40 DUP1 MLOAD PUSH1 0x1F NOT DUP2 DUP5 SUB ADD DUP2 MSTORE DUP3 DUP3 MSTORE DUP1 MLOAD PUSH1 0x20 SWAP2 DUP3 ADD KECCAK256 DUP4 DUP4 ADD DUP4 MSTORE PUSH1 0x5 DUP5 MSTORE PUSH5 0x302E312E31 PUSH1 0xD8 SHL DUP5 DUP4 ADD MSTORE SWAP2 MLOAD SWAP2 SWAP3 PUSH1 0x0 DUP1 MLOAD PUSH1 0x20 PUSH2 0x2113 DUP4 CODECOPY DUP2 MLOAD SWAP2 MSTORE SWAP3 PUSH2 0xBFB SWAP3 ADD PUSH2 0x1F01 JUMP JUMPDEST PUSH1 0x40 MLOAD PUSH1 0x20 DUP2 DUP4 SUB SUB DUP2 MSTORE SWAP1 PUSH1 0x40 MSTORE DUP1 MLOAD SWAP1 PUSH1 0x20 ADD KECCAK256 CHAINID DUP8 PUSH1 0x40 MLOAD PUSH1 0x20 ADD PUSH2 0xC27 SWAP6 SWAP5 SWAP4 SWAP3 SWAP2 SWAP1 PUSH2 0x1F1D JUMP JUMPDEST PUSH1 0x40 MLOAD PUSH1 0x20 DUP2 DUP4 SUB SUB DUP2 MSTORE SWAP1 PUSH1 0x40 MSTORE DUP1 MLOAD SWAP1 PUSH1 0x20 ADD KECCAK256 SWAP1 POP PUSH1 0x0 PUSH1 0x40 MLOAD PUSH1 0x20 ADD PUSH2 0xC9A SWAP1 PUSH32 0x7374724F43566F74652875696E743235362070726F7049642C626F6F6C207375 DUP2 MSTORE PUSH32 0x70706F72742C737472696E67206A757374696669636174696F6E290000000000 PUSH1 0x20 DUP3 ADD MSTORE PUSH1 0x3B ADD SWAP1 JUMP JUMPDEST PUSH1 0x40 MLOAD PUSH1 0x20 DUP2 DUP4 SUB SUB DUP2 MSTORE SWAP1 PUSH1 0x40 MSTORE DUP1 MLOAD SWAP1 PUSH1 0x20 ADD KECCAK256 DUP9 DUP9 DUP9 PUSH1 0x40 MLOAD PUSH1 0x20 ADD PUSH2 0xCC3 SWAP2 SWAP1 PUSH2 0x1F01 JUMP JUMPDEST PUSH1 0x40 DUP1 MLOAD PUSH1 0x1F NOT DUP2 DUP5 SUB ADD DUP2 MSTORE DUP3 DUP3 MSTORE DUP1 MLOAD PUSH1 0x20 SWAP2 DUP3 ADD KECCAK256 SWAP1 DUP4 ADD SWAP6 SWAP1 SWAP6 MSTORE DUP2 ADD SWAP3 SWAP1 SWAP3 MSTORE ISZERO ISZERO PUSH1 0x60 DUP3 ADD MSTORE PUSH1 0x80 DUP2 ADD SWAP2 SWAP1 SWAP2 MSTORE PUSH1 0xA0 ADD PUSH2 0x34A JUMP JUMPDEST PUSH1 0x0 DUP1 PUSH1 0x40 MLOAD PUSH1 0x20 ADD PUSH2 0xD11 SWAP1 PUSH2 0x1E97 JUMP JUMPDEST PUSH1 0x40 DUP1 MLOAD PUSH1 0x1F NOT DUP2 DUP5 SUB ADD DUP2 MSTORE DUP3 DUP3 MSTORE DUP1 MLOAD PUSH1 0x20 SWAP2 DUP3 ADD KECCAK256 DUP4 DUP4 ADD DUP4 MSTORE PUSH1 0x5 DUP5 MSTORE PUSH5 0x302E312E31 PUSH1 0xD8 SHL DUP5 DUP4 ADD MSTORE SWAP2 MLOAD SWAP2 SWAP3 PUSH1 0x0 DUP1 MLOAD PUSH1 0x20 PUSH2 0x2113 DUP4 CODECOPY DUP2 MLOAD SWAP2 MSTORE SWAP3 PUSH2 0xD5D SWAP3 ADD PUSH2 0x1F01 JUMP JUMPDEST PUSH1 0x40 MLOAD PUSH1 0x20 DUP2 DUP4 SUB SUB DUP2 MSTORE SWAP1 PUSH1 0x40 MSTORE DUP1 MLOAD SWAP1 PUSH1 0x20 ADD KECCAK256 CHAINID DUP8 PUSH1 0x40 MLOAD PUSH1 0x20 ADD PUSH2 0xD89 SWAP6 SWAP5 SWAP4 SWAP3 SWAP2 SWAP1 PUSH2 0x1F1D JUMP JUMPDEST PUSH1 0x40 MLOAD PUSH1 0x20 DUP2 DUP4 SUB SUB DUP2 MSTORE SWAP1 PUSH1 0x40 MSTORE DUP1 MLOAD SWAP1 PUSH1 0x20 ADD KECCAK256 SWAP1 POP PUSH1 0x0 PUSH1 0x40 MLOAD PUSH1 0x20 ADD PUSH2 0xEAD SWAP1 PUSH32 0x7374724F434E6577434C4828737472696E6720686F7573654E616D652C626F6F DUP2 MSTORE PUSH32 0x6C20686F757365507269766174652C626F6F6C20686F7573654F70656E2C6279 PUSH1 0x20 DUP3 ADD MSTORE PUSH32 0x746573333220676F764D6F64656C2C75696E7432353620676F7652756C654D61 PUSH1 0x40 DUP3 ADD MSTORE PUSH32 0x7855736572732C75696E7432353620676F7652756C654D61784D616E61676572 PUSH1 0x60 DUP3 ADD MSTORE PUSH32 0x732C75696E7432353620676F7652756C65417070726F7650657263656E746167 PUSH1 0x80 DUP3 ADD MSTORE PUSH32 0x652C616464726573732077686974654C6973744E46542C616464726573732077 PUSH1 0xA0 DUP3 ADD MSTORE PUSH16 0x686974654C69737457616C6C65747329 PUSH1 0x80 SHL PUSH1 0xC0 DUP3 ADD MSTORE PUSH1 0xD0 ADD SWAP1 JUMP JUMPDEST PUSH1 0x40 MLOAD PUSH1 0x20 DUP2 DUP4 SUB SUB DUP2 MSTORE SWAP1 PUSH1 0x40 MSTORE DUP1 MLOAD SWAP1 PUSH1 0x20 ADD KECCAK256 DUP15 PUSH1 0x40 MLOAD PUSH1 0x20 ADD PUSH2 0xED4 SWAP2 SWAP1 PUSH2 0x1F01 JUMP JUMPDEST PUSH1 0x40 DUP1 MLOAD PUSH1 0x1F NOT DUP2 DUP5 SUB ADD DUP2 MSTORE DUP3 DUP3 MSTORE DUP1 MLOAD PUSH1 0x20 SWAP2 DUP3 ADD KECCAK256 SWAP1 DUP4 ADD SWAP4 SWAP1 SWAP4 MSTORE DUP2 ADD SWAP2 SWAP1 SWAP2 MSTORE DUP14 ISZERO ISZERO PUSH1 0x60 DUP3 ADD MSTORE DUP13 ISZERO ISZERO PUSH1 0x80 DUP3 ADD MSTORE PUSH1 0xA0 DUP2 ADD DUP13 SWAP1 MSTORE PUSH1 0xC0 DUP2 ADD DUP12 SWAP1 MSTORE PUSH1 0xE0 DUP2 ADD DUP11 SWAP1 MSTORE PUSH2 0x100 DUP2 ADD DUP10 SWAP1 MSTORE PUSH1 0x1 PUSH1 0x1 PUSH1 0xA0 SHL SUB DUP1 DUP10 AND PUSH2 0x120 DUP4 ADD MSTORE DUP8 AND PUSH2 0x140 DUP3 ADD MSTORE PUSH2 0x160 ADD PUSH1 0x40 MLOAD PUSH1 0x20 DUP2 DUP4 SUB SUB DUP2 MSTORE SWAP1 PUSH1 0x40 MSTORE DUP1 MLOAD SWAP1 PUSH1 0x20 ADD KECCAK256 SWAP1 POP PUSH1 0x0 DUP3 DUP3 PUSH1 0x40 MLOAD PUSH1 0x20 ADD PUSH2 0xF70 SWAP3 SWAP2 SWAP1 PUSH2 0x1F49 JUMP JUMPDEST PUSH1 0x40 MLOAD PUSH1 0x20 DUP2 DUP4 SUB SUB DUP2 MSTORE SWAP1 PUSH1 0x40 MSTORE DUP1 MLOAD SWAP1 PUSH1 0x20 ADD KECCAK256 SWAP1 POP PUSH2 0xF92 DUP2 DUP7 PUSH2 0x3A6 JUMP JUMPDEST SWAP16 SWAP15 POP POP POP POP POP POP POP POP POP POP POP POP POP POP POP JUMP JUMPDEST PUSH1 0x0 DUP1 PUSH1 0x40 MLOAD PUSH1 0x20 ADD PUSH2 0xFB7 SWAP1 PUSH2 0x1E97 JUMP JUMPDEST PUSH1 0x40 DUP1 MLOAD PUSH1 0x1F NOT DUP2 DUP5 SUB ADD DUP2 MSTORE DUP3 DUP3 MSTORE DUP1 MLOAD PUSH1 0x20 SWAP2 DUP3 ADD KECCAK256 DUP4 DUP4 ADD DUP4 MSTORE PUSH1 0x5 DUP5 MSTORE PUSH5 0x302E312E31 PUSH1 0xD8 SHL DUP5 DUP4 ADD MSTORE SWAP2 MLOAD SWAP2 SWAP3 PUSH1 0x0 DUP1 MLOAD PUSH1 0x20 PUSH2 0x2113 DUP4 CODECOPY DUP2 MLOAD SWAP2 MSTORE SWAP3 PUSH2 0x1003 SWAP3 ADD PUSH2 0x1F01 JUMP JUMPDEST PUSH1 0x40 MLOAD PUSH1 0x20 DUP2 DUP4 SUB SUB DUP2 MSTORE SWAP1 PUSH1 0x40 MSTORE DUP1 MLOAD SWAP1 PUSH1 0x20 ADD KECCAK256 CHAINID DUP8 PUSH1 0x40 MLOAD PUSH1 0x20 ADD PUSH2 0x102F SWAP6 SWAP5 SWAP4 SWAP3 SWAP2 SWAP1 PUSH2 0x1F1D JUMP JUMPDEST PUSH1 0x40 MLOAD PUSH1 0x20 DUP2 DUP4 SUB SUB DUP2 MSTORE SWAP1 PUSH1 0x40 MSTORE DUP1 MLOAD SWAP1 PUSH1 0x20 ADD KECCAK256 SWAP1 POP PUSH1 0x0 PUSH1 0x40 MLOAD PUSH1 0x20 ADD PUSH2 0x107C SWAP1 PUSH32 0x7374724F43496E76697428626F6F6C20616363657074616E6365290000000000 DUP2 MSTORE PUSH1 0x1B ADD SWAP1 JUMP JUMPDEST PUSH1 0x40 DUP1 MLOAD DUP1 DUP4 SUB PUSH1 0x1F NOT ADD DUP2 MSTORE DUP3 DUP3 MSTORE DUP1 MLOAD PUSH1 0x20 SWAP2 DUP3 ADD KECCAK256 DUP2 DUP5 ADD MSTORE DUP9 ISZERO ISZERO DUP4 DUP4 ADD MSTORE DUP2 MLOAD DUP1 DUP5 SUB DUP4 ADD DUP2 MSTORE PUSH1 0x60 DUP5 ADD SWAP1 SWAP3 MSTORE DUP2 MLOAD SWAP2 ADD KECCAK256 SWAP2 POP PUSH1 0x0 SWAP1 PUSH2 0x10C9 SWAP1 DUP5 SWAP1 DUP5 SWAP1 PUSH1 0x80 ADD PUSH2 0x1F49 JUMP JUMPDEST PUSH1 0x40 MLOAD PUSH1 0x20 DUP2 DUP4 SUB SUB DUP2 MSTORE SWAP1 PUSH1 0x40 MSTORE DUP1 MLOAD SWAP1 PUSH1 0x20 ADD KECCAK256 SWAP1 POP PUSH2 0x10EB DUP2 DUP7 PUSH2 0x3A6 JUMP JUMPDEST SWAP8 SWAP7 POP POP POP POP POP POP POP JUMP JUMPDEST PUSH1 0x60 PUSH1 0x0 DUP3 SWAP1 POP PUSH1 0x0 DUP2 PUSH1 0x1 PUSH1 0x1 PUSH1 0xA0 SHL SUB AND PUSH4 0x19A50F49 PUSH1 0x40 MLOAD DUP2 PUSH4 0xFFFFFFFF AND PUSH1 0xE0 SHL DUP2 MSTORE PUSH1 0x4 ADD PUSH1 0x20 PUSH1 0x40 MLOAD DUP1 DUP4 SUB DUP2 DUP7 GAS STATICCALL ISZERO DUP1 ISZERO PUSH2 0x113D JUMPI RETURNDATASIZE PUSH1 0x0 DUP1 RETURNDATACOPY RETURNDATASIZE PUSH1 0x0 REVERT JUMPDEST POP POP POP POP PUSH1 0x40 MLOAD RETURNDATASIZE PUSH1 0x1F NOT PUSH1 0x1F DUP3 ADD AND DUP3 ADD DUP1 PUSH1 0x40 MSTORE POP DUP2 ADD SWAP1 PUSH2 0x1161 SWAP2 SWAP1 PUSH2 0x1F64 JUMP JUMPDEST SWAP1 POP PUSH1 0x0 DUP3 PUSH1 0x1 PUSH1 0x1 PUSH1 0xA0 SHL SUB AND PUSH4 0xA693649A PUSH1 0x40 MLOAD DUP2 PUSH4 0xFFFFFFFF AND PUSH1 0xE0 SHL DUP2 MSTORE PUSH1 0x4 ADD PUSH1 0x20 PUSH1 0x40 MLOAD DUP1 DUP4 SUB DUP2 DUP7 GAS STATICCALL ISZERO DUP1 ISZERO PUSH2 0x11A3 JUMPI RETURNDATASIZE PUSH1 0x0 DUP1 RETURNDATACOPY RETURNDATASIZE PUSH1 0x0 REVERT JUMPDEST POP POP POP POP PUSH1 0x40 MLOAD RETURNDATASIZE PUSH1 0x1F NOT PUSH1 0x1F DUP3 ADD AND DUP3 ADD DUP1 PUSH1 0x40 MSTORE POP DUP2 ADD SWAP1 PUSH2 0x11C7 SWAP2 SWAP1 PUSH2 0x1F64 JUMP JUMPDEST SWAP1 POP PUSH1 0x0 DUP3 PUSH1 0x1 PUSH1 0x1 PUSH1 0x40 SHL SUB DUP2 GT ISZERO PUSH2 0x11E3 JUMPI PUSH2 0x11E3 PUSH2 0x16FD JUMP JUMPDEST PUSH1 0x40 MLOAD SWAP1 DUP1 DUP3 MSTORE DUP1 PUSH1 0x20 MUL PUSH1 0x20 ADD DUP3 ADD PUSH1 0x40 MSTORE DUP1 ISZERO PUSH2 0x121C JUMPI DUP2 PUSH1 0x20 ADD JUMPDEST PUSH2 0x1209 PUSH2 0x1699 JUMP JUMPDEST DUP2 MSTORE PUSH1 0x20 ADD SWAP1 PUSH1 0x1 SWAP1 SUB SWAP1 DUP2 PUSH2 0x1201 JUMPI SWAP1 POP JUMPDEST POP SWAP1 POP PUSH1 0x0 PUSH1 0x1 JUMPDEST DUP4 DUP2 LT ISZERO PUSH2 0x1316 JUMPI PUSH2 0x1234 PUSH2 0x1699 JUMP JUMPDEST PUSH1 0x40 MLOAD PUSH4 0x8AD0207 PUSH1 0xE2 SHL DUP2 MSTORE PUSH1 0x4 DUP2 ADD DUP4 SWAP1 MSTORE PUSH1 0x1 PUSH1 0x1 PUSH1 0xA0 SHL SUB DUP9 AND SWAP1 PUSH4 0x22B4081C SWAP1 PUSH1 0x24 ADD PUSH1 0x0 PUSH1 0x40 MLOAD DUP1 DUP4 SUB DUP2 DUP7 GAS STATICCALL ISZERO DUP1 ISZERO PUSH2 0x1279 JUMPI RETURNDATASIZE PUSH1 0x0 DUP1 RETURNDATACOPY RETURNDATASIZE PUSH1 0x0 REVERT JUMPDEST POP POP POP POP PUSH1 0x40 MLOAD RETURNDATASIZE PUSH1 0x0 DUP3 RETURNDATACOPY PUSH1 0x1F RETURNDATASIZE SWAP1 DUP2 ADD PUSH1 0x1F NOT AND DUP3 ADD PUSH1 0x40 MSTORE PUSH2 0x12A1 SWAP2 SWAP1 DUP2 ADD SWAP1 PUSH2 0x1FCA JUMP JUMPDEST ISZERO ISZERO PUSH1 0x80 DUP7 ADD MSTORE ISZERO ISZERO PUSH1 0x60 DUP6 ADD DUP2 SWAP1 MSTORE PUSH1 0x40 DUP6 ADD SWAP2 SWAP1 SWAP2 MSTORE PUSH1 0x20 DUP5 ADD SWAP2 SWAP1 SWAP2 MSTORE PUSH1 0x1 PUSH1 0x1 PUSH1 0xA0 SHL SUB SWAP1 SWAP2 AND DUP3 MSTORE PUSH1 0x1 EQ ISZERO PUSH2 0x1303 JUMPI DUP1 DUP5 DUP5 DUP2 MLOAD DUP2 LT PUSH2 0x12E9 JUMPI PUSH2 0x12E9 PUSH2 0x209D JUMP JUMPDEST PUSH1 0x20 MUL PUSH1 0x20 ADD ADD DUP2 SWAP1 MSTORE POP DUP3 DUP1 PUSH2 0x12FF SWAP1 PUSH2 0x20B3 JUMP JUMPDEST SWAP4 POP POP JUMPDEST POP DUP1 PUSH2 0x130E DUP2 PUSH2 0x20B3 JUMP JUMPDEST SWAP2 POP POP PUSH2 0x1224 JUMP JUMPDEST POP SWAP1 SWAP7 SWAP6 POP POP POP POP POP POP JUMP JUMPDEST PUSH1 0x0 DUP1 PUSH1 0x40 MLOAD PUSH1 0x20 ADD PUSH2 0x1334 SWAP1 PUSH2 0x1E97 JUMP JUMPDEST PUSH1 0x40 DUP1 MLOAD PUSH1 0x1F NOT DUP2 DUP5 SUB ADD DUP2 MSTORE DUP3 DUP3 MSTORE DUP1 MLOAD PUSH1 0x20 SWAP2 DUP3 ADD KECCAK256 DUP4 DUP4 ADD DUP4 MSTORE PUSH1 0x5 DUP5 MSTORE PUSH5 0x302E312E31 PUSH1 0xD8 SHL DUP5 DUP4 ADD MSTORE SWAP2 MLOAD SWAP2 SWAP3 PUSH1 0x0 DUP1 MLOAD PUSH1 0x20 PUSH2 0x2113 DUP4 CODECOPY DUP2 MLOAD SWAP2 MSTORE SWAP3 PUSH2 0x1380 SWAP3 ADD PUSH2 0x1F01 JUMP JUMPDEST PUSH1 0x40 MLOAD PUSH1 0x20 DUP2 DUP4 SUB SUB DUP2 MSTORE SWAP1 PUSH1 0x40 MSTORE DUP1 MLOAD SWAP1 PUSH1 0x20 ADD KECCAK256 CHAINID DUP8 PUSH1 0x40 MLOAD PUSH1 0x20 ADD PUSH2 0x13AC SWAP6 SWAP5 SWAP4 SWAP3 SWAP2 SWAP1 PUSH2 0x1F1D JUMP JUMPDEST PUSH1 0x40 MLOAD PUSH1 0x20 DUP2 DUP4 SUB SUB DUP2 MSTORE SWAP1 PUSH1 0x40 MSTORE DUP1 MLOAD SWAP1 PUSH1 0x20 ADD KECCAK256 SWAP1 POP PUSH1 0x0 PUSH1 0x40 MLOAD PUSH1 0x20 ADD PUSH2 0x142A SWAP1 PUSH32 0x7374724F4342756C6B566F74652875696E743235365B5D2070726F704964732C DUP2 MSTORE PUSH32 0x626F6F6C20737570706F72742C737472696E67206A757374696669636174696F PUSH1 0x20 DUP3 ADD MSTORE PUSH2 0x6E29 PUSH1 0xF0 SHL PUSH1 0x40 DUP3 ADD MSTORE PUSH1 0x42 ADD SWAP1 JUMP JUMPDEST PUSH1 0x40 MLOAD PUSH1 0x20 DUP2 DUP4 SUB SUB DUP2 MSTORE SWAP1 PUSH1 0x40 MSTORE DUP1 MLOAD SWAP1 PUSH1 0x20 ADD KECCAK256 DUP9 PUSH1 0x40 MLOAD PUSH1 0x20 ADD PUSH2 0x1451 SWAP2 SWAP1 PUSH2 0x20DC JUMP JUMPDEST PUSH1 0x40 MLOAD PUSH1 0x20 DUP2 DUP4 SUB SUB DUP2 MSTORE SWAP1 PUSH1 0x40 MSTORE DUP1 MLOAD SWAP1 PUSH1 0x20 ADD KECCAK256 DUP9 DUP9 PUSH1 0x40 MLOAD PUSH1 0x20 ADD PUSH2 0xCC3 SWAP2 SWAP1 PUSH2 0x1F01 JUMP JUMPDEST PUSH1 0x0 DUP1 PUSH1 0x40 MLOAD PUSH1 0x20 ADD PUSH2 0x148B SWAP1 PUSH2 0x1E97 JUMP JUMPDEST PUSH1 0x40 DUP1 MLOAD PUSH1 0x1F NOT DUP2 DUP5 SUB ADD DUP2 MSTORE DUP3 DUP3 MSTORE DUP1 MLOAD PUSH1 0x20 SWAP2 DUP3 ADD KECCAK256 DUP4 DUP4 ADD DUP4 MSTORE PUSH1 0x5 DUP5 MSTORE PUSH5 0x302E312E31 PUSH1 0xD8 SHL DUP5 DUP4 ADD MSTORE SWAP2 MLOAD SWAP2 SWAP3 PUSH1 0x0 DUP1 MLOAD PUSH1 0x20 PUSH2 0x2113 DUP4 CODECOPY DUP2 MLOAD SWAP2 MSTORE SWAP3 PUSH2 0x14D7 SWAP3 ADD PUSH2 0x1F01 JUMP JUMPDEST PUSH1 0x40 MLOAD PUSH1 0x20 DUP2 DUP4 SUB SUB DUP2 MSTORE SWAP1 PUSH1 0x40 MSTORE DUP1 MLOAD SWAP1 PUSH1 0x20 ADD KECCAK256 CHAINID DUP8 PUSH1 0x40 MLOAD PUSH1 0x20 ADD PUSH2 0x1503 SWAP6 SWAP5 SWAP4 SWAP3 SWAP2 SWAP1 PUSH2 0x1F1D JUMP JUMPDEST PUSH1 0x40 MLOAD PUSH1 0x20 DUP2 DUP4 SUB SUB DUP2 MSTORE SWAP1 PUSH1 0x40 MSTORE DUP1 MLOAD SWAP1 PUSH1 0x20 ADD KECCAK256 SWAP1 POP PUSH1 0x0 PUSH1 0x40 MLOAD PUSH1 0x20 ADD PUSH2 0x159C SWAP1 PUSH32 0x7374724F434E65775573657228616464726573732077616C6C6574416464722C DUP2 MSTORE PUSH32 0x737472696E67206E616D652C737472696E67206465736372697074696F6E2C62 PUSH1 0x20 DUP3 ADD MSTORE PUSH32 0x6F6F6C2069734D616E616765722C75696E743235362064656C617954696D6529 PUSH1 0x40 DUP3 ADD MSTORE PUSH1 0x60 ADD SWAP1 JUMP JUMPDEST PUSH1 0x40 MLOAD PUSH1 0x20 DUP2 DUP4 SUB SUB DUP2 MSTORE SWAP1 PUSH1 0x40 MSTORE DUP1 MLOAD SWAP1 PUSH1 0x20 ADD KECCAK256 DUP11 DUP11 PUSH1 0x40 MLOAD PUSH1 0x20 ADD PUSH2 0x15C4 SWAP2 SWAP1 PUSH2 0x1F01 JUMP JUMPDEST PUSH1 0x40 MLOAD PUSH1 0x20 DUP2 DUP4 SUB SUB DUP2 MSTORE SWAP1 PUSH1 0x40 MSTORE DUP1 MLOAD SWAP1 PUSH1 0x20 ADD KECCAK256 DUP11 PUSH1 0x40 MLOAD PUSH1 0x20 ADD PUSH2 0x15EB SWAP2 SWAP1 PUSH2 0x1F01 JUMP JUMPDEST PUSH1 0x40 DUP1 MLOAD PUSH1 0x1F NOT DUP2 DUP5 SUB ADD DUP2 MSTORE DUP3 DUP3 MSTORE DUP1 MLOAD PUSH1 0x20 SWAP2 DUP3 ADD KECCAK256 SWAP1 DUP4 ADD SWAP6 SWAP1 SWAP6 MSTORE PUSH1 0x1 PUSH1 0x1 PUSH1 0xA0 SHL SUB SWAP1 SWAP4 AND SWAP3 DUP2 ADD SWAP3 SWAP1 SWAP3 MSTORE PUSH1 0x60 DUP3 ADD MSTORE PUSH1 0x80 DUP2 ADD SWAP2 SWAP1 SWAP2 MSTORE DUP8 ISZERO ISZERO PUSH1 0xA0 DUP3 ADD MSTORE PUSH1 0xC0 DUP2 ADD DUP8 SWAP1 MSTORE PUSH1 0xE0 ADD PUSH1 0x40 MLOAD PUSH1 0x20 DUP2 DUP4 SUB SUB DUP2 MSTORE SWAP1 PUSH1 0x40 MSTORE DUP1 MLOAD SWAP1 PUSH1 0x20 ADD KECCAK256 SWAP1 POP PUSH1 0x0 DUP3 DUP3 PUSH1 0x40 MLOAD PUSH1 0x20 ADD PUSH2 0x1668 SWAP3 SWAP2 SWAP1 PUSH2 0x1F49 JUMP JUMPDEST PUSH1 0x40 MLOAD PUSH1 0x20 DUP2 DUP4 SUB SUB DUP2 MSTORE SWAP1 PUSH1 0x40 MSTORE DUP1 MLOAD SWAP1 PUSH1 0x20 ADD KECCAK256 SWAP1 POP PUSH2 0x168A DUP2 DUP7 PUSH2 0x3A6 JUMP JUMPDEST SWAP12 SWAP11 POP POP POP POP POP POP POP POP POP POP POP JUMP JUMPDEST PUSH1 0x40 MLOAD DUP1 PUSH1 0xA0 ADD PUSH1 0x40 MSTORE DUP1 PUSH1 0x0 PUSH1 0x1 PUSH1 0x1 PUSH1 0xA0 SHL SUB AND DUP2 MSTORE PUSH1 0x20 ADD PUSH1 0x60 DUP2 MSTORE PUSH1 0x20 ADD PUSH1 0x0 DUP2 MSTORE PUSH1 0x20 ADD PUSH1 0x0 ISZERO ISZERO DUP2 MSTORE PUSH1 0x20 ADD PUSH1 0x0 ISZERO ISZERO DUP2 MSTORE POP SWAP1 JUMP JUMPDEST PUSH1 0x1 PUSH1 0x1 PUSH1 0xA0 SHL SUB DUP2 AND DUP2 EQ PUSH2 0x16EA JUMPI PUSH1 0x0 DUP1 REVERT JUMPDEST POP JUMP JUMPDEST DUP1 CALLDATALOAD PUSH2 0x16F8 DUP2 PUSH2 0x16D5 JUMP JUMPDEST SWAP2 SWAP1 POP JUMP JUMPDEST PUSH4 0x4E487B71 PUSH1 0xE0 SHL PUSH1 0x0 MSTORE PUSH1 0x41 PUSH1 0x4 MSTORE PUSH1 0x24 PUSH1 0x0 REVERT JUMPDEST PUSH1 0x40 MLOAD PUSH1 0x1F DUP3 ADD PUSH1 0x1F NOT AND DUP2 ADD PUSH1 0x1 PUSH1 0x1 PUSH1 0x40 SHL SUB DUP2 GT DUP3 DUP3 LT OR ISZERO PUSH2 0x173B JUMPI PUSH2 0x173B PUSH2 0x16FD JUMP JUMPDEST PUSH1 0x40 MSTORE SWAP2 SWAP1 POP JUMP JUMPDEST PUSH1 0x0 PUSH1 0x1 PUSH1 0x1 PUSH1 0x40 SHL SUB DUP3 GT ISZERO PUSH2 0x175C JUMPI PUSH2 0x175C PUSH2 0x16FD JUMP JUMPDEST POP PUSH1 0x1F ADD PUSH1 0x1F NOT AND PUSH1 0x20 ADD SWAP1 JUMP JUMPDEST PUSH1 0x0 DUP3 PUSH1 0x1F DUP4 ADD SLT PUSH2 0x177B JUMPI PUSH1 0x0 DUP1 REVERT JUMPDEST DUP2 CALLDATALOAD PUSH2 0x178E PUSH2 0x1789 DUP3 PUSH2 0x1743 JUMP JUMPDEST PUSH2 0x1713 JUMP JUMPDEST DUP2 DUP2 MSTORE DUP5 PUSH1 0x20 DUP4 DUP7 ADD ADD GT ISZERO PUSH2 0x17A3 JUMPI PUSH1 0x0 DUP1 REVERT JUMPDEST DUP2 PUSH1 0x20 DUP6 ADD PUSH1 0x20 DUP4 ADD CALLDATACOPY PUSH1 0x0 SWAP2 DUP2 ADD PUSH1 0x20 ADD SWAP2 SWAP1 SWAP2 MSTORE SWAP4 SWAP3 POP POP POP JUMP JUMPDEST PUSH1 0x0 DUP1 PUSH1 0x0 DUP1 PUSH1 0x0 PUSH1 0xA0 DUP7 DUP9 SUB SLT ISZERO PUSH2 0x17D8 JUMPI PUSH1 0x0 DUP1 REVERT JUMPDEST DUP6 CALLDATALOAD PUSH2 0x17E3 DUP2 PUSH2 0x16D5 JUMP JUMPDEST SWAP5 POP PUSH1 0x20 DUP7 ADD CALLDATALOAD PUSH1 0x1 PUSH1 0x1 PUSH1 0x40 SHL SUB DUP1 DUP3 GT ISZERO PUSH2 0x17FF JUMPI PUSH1 0x0 DUP1 REVERT JUMPDEST PUSH2 0x180B DUP10 DUP4 DUP11 ADD PUSH2 0x176A JUMP JUMPDEST SWAP6 POP PUSH1 0x40 DUP9 ADD CALLDATALOAD SWAP5 POP PUSH1 0x60 DUP9 ADD CALLDATALOAD SWAP2 POP PUSH2 0x1824 DUP3 PUSH2 0x16D5 JUMP JUMPDEST SWAP1 SWAP3 POP PUSH1 0x80 DUP8 ADD CALLDATALOAD SWAP1 DUP1 DUP3 GT ISZERO PUSH2 0x183A JUMPI PUSH1 0x0 DUP1 REVERT JUMPDEST POP PUSH2 0x1847 DUP9 DUP3 DUP10 ADD PUSH2 0x176A JUMP JUMPDEST SWAP2 POP POP SWAP3 SWAP6 POP SWAP3 SWAP6 SWAP1 SWAP4 POP JUMP JUMPDEST PUSH1 0x0 DUP1 PUSH1 0x40 DUP4 DUP6 SUB SLT ISZERO PUSH2 0x1867 JUMPI PUSH1 0x0 DUP1 REVERT JUMPDEST DUP3 CALLDATALOAD SWAP2 POP PUSH1 0x20 DUP4 ADD CALLDATALOAD PUSH1 0x1 PUSH1 0x1 PUSH1 0x40 SHL SUB DUP2 GT ISZERO PUSH2 0x1884 JUMPI PUSH1 0x0 DUP1 REVERT JUMPDEST PUSH2 0x1890 DUP6 DUP3 DUP7 ADD PUSH2 0x176A JUMP JUMPDEST SWAP2 POP POP SWAP3 POP SWAP3 SWAP1 POP JUMP JUMPDEST PUSH1 0x0 DUP1 PUSH1 0x0 DUP1 PUSH1 0x80 DUP6 DUP8 SUB SLT ISZERO PUSH2 0x18B0 JUMPI PUSH1 0x0 DUP1 REVERT JUMPDEST DUP5 CALLDATALOAD PUSH1 0x1 PUSH1 0x1 PUSH1 0x40 SHL SUB DUP1 DUP3 GT ISZERO PUSH2 0x18C7 JUMPI PUSH1 0x0 DUP1 REVERT JUMPDEST PUSH2 0x18D3 DUP9 DUP4 DUP10 ADD PUSH2 0x176A JUMP JUMPDEST SWAP6 POP PUSH1 0x20 DUP8 ADD CALLDATALOAD SWAP2 POP DUP1 DUP3 GT ISZERO PUSH2 0x18E9 JUMPI PUSH1 0x0 DUP1 REVERT JUMPDEST PUSH2 0x18F5 DUP9 DUP4 DUP10 ADD PUSH2 0x176A JUMP JUMPDEST SWAP5 POP PUSH1 0x40 DUP8 ADD CALLDATALOAD SWAP2 POP PUSH2 0x1907 DUP3 PUSH2 0x16D5 JUMP JUMPDEST SWAP1 SWAP3 POP PUSH1 0x60 DUP7 ADD CALLDATALOAD SWAP1 DUP1 DUP3 GT ISZERO PUSH2 0x191D JUMPI PUSH1 0x0 DUP1 REVERT JUMPDEST POP PUSH2 0x192A DUP8 DUP3 DUP9 ADD PUSH2 0x176A JUMP JUMPDEST SWAP2 POP POP SWAP3 SWAP6 SWAP2 SWAP5 POP SWAP3 POP JUMP JUMPDEST PUSH1 0x0 DUP1 PUSH1 0x40 DUP4 DUP6 SUB SLT ISZERO PUSH2 0x1949 JUMPI PUSH1 0x0 DUP1 REVERT JUMPDEST DUP3 CALLDATALOAD PUSH2 0x1954 DUP2 PUSH2 0x16D5 JUMP JUMPDEST SWAP2 POP PUSH1 0x20 DUP4 ADD CALLDATALOAD PUSH2 0x1964 DUP2 PUSH2 0x16D5 JUMP JUMPDEST DUP1 SWAP2 POP POP SWAP3 POP SWAP3 SWAP1 POP JUMP JUMPDEST PUSH1 0x0 JUMPDEST DUP4 DUP2 LT ISZERO PUSH2 0x198A JUMPI DUP2 DUP2 ADD MLOAD DUP4 DUP3 ADD MSTORE PUSH1 0x20 ADD PUSH2 0x1972 JUMP JUMPDEST DUP4 DUP2 GT ISZERO PUSH2 0x1999 JUMPI PUSH1 0x0 DUP5 DUP5 ADD MSTORE JUMPDEST POP POP POP POP JUMP JUMPDEST PUSH1 0x0 DUP2 MLOAD DUP1 DUP5 MSTORE PUSH2 0x19B7 DUP2 PUSH1 0x20 DUP7 ADD PUSH1 0x20 DUP7 ADD PUSH2 0x196F JUMP JUMPDEST PUSH1 0x1F ADD PUSH1 0x1F NOT AND SWAP3 SWAP1 SWAP3 ADD PUSH1 0x20 ADD SWAP3 SWAP2 POP POP JUMP JUMPDEST PUSH1 0x80 DUP2 MSTORE PUSH1 0x0 PUSH2 0x19DE PUSH1 0x80 DUP4 ADD DUP8 PUSH2 0x199F JUMP JUMPDEST PUSH1 0x20 DUP4 ADD SWAP6 SWAP1 SWAP6 MSTORE POP SWAP2 ISZERO ISZERO PUSH1 0x40 DUP4 ADD MSTORE ISZERO ISZERO PUSH1 0x60 SWAP1 SWAP2 ADD MSTORE SWAP2 SWAP1 POP JUMP JUMPDEST PUSH1 0x0 PUSH1 0x20 DUP3 DUP5 SUB SLT ISZERO PUSH2 0x1A0E JUMPI PUSH1 0x0 DUP1 REVERT JUMPDEST DUP2 CALLDATALOAD PUSH2 0x1A19 DUP2 PUSH2 0x16D5 JUMP JUMPDEST SWAP4 SWAP3 POP POP POP JUMP JUMPDEST PUSH1 0x0 PUSH2 0x120 DUP1 DUP4 MSTORE PUSH2 0x1A34 DUP2 DUP5 ADD DUP14 PUSH2 0x199F JUMP JUMPDEST PUSH1 0x20 DUP5 ADD SWAP12 SWAP1 SWAP12 MSTORE POP POP SWAP7 ISZERO ISZERO PUSH1 0x40 DUP9 ADD MSTORE SWAP5 ISZERO ISZERO PUSH1 0x60 DUP8 ADD MSTORE PUSH1 0x80 DUP7 ADD SWAP4 SWAP1 SWAP4 MSTORE PUSH1 0xA0 DUP6 ADD SWAP2 SWAP1 SWAP2 MSTORE PUSH1 0xC0 DUP5 ADD MSTORE PUSH1 0xE0 DUP4 ADD MSTORE PUSH2 0x100 SWAP1 SWAP2 ADD MSTORE SWAP2 SWAP1 POP JUMP JUMPDEST DUP1 ISZERO ISZERO DUP2 EQ PUSH2 0x16EA JUMPI PUSH1 0x0 DUP1 REVERT JUMPDEST DUP1 CALLDATALOAD PUSH2 0x16F8 DUP2 PUSH2 0x1A74 JUMP JUMPDEST PUSH1 0x0 DUP1 PUSH1 0x0 DUP1 PUSH1 0x0 PUSH1 0xA0 DUP7 DUP9 SUB SLT ISZERO PUSH2 0x1AA5 JUMPI PUSH1 0x0 DUP1 REVERT JUMPDEST DUP6 CALLDATALOAD SWAP5 POP PUSH1 0x20 DUP7 ADD CALLDATALOAD PUSH2 0x1AB7 DUP2 PUSH2 0x1A74 JUMP JUMPDEST SWAP4 POP PUSH1 0x40 DUP7 ADD CALLDATALOAD PUSH1 0x1 PUSH1 0x1 PUSH1 0x40 SHL SUB DUP1 DUP3 GT ISZERO PUSH2 0x1AD3 JUMPI PUSH1 0x0 DUP1 REVERT JUMPDEST PUSH2 0x1ADF DUP10 DUP4 DUP11 ADD PUSH2 0x176A JUMP JUMPDEST SWAP5 POP PUSH1 0x60 DUP9 ADD CALLDATALOAD SWAP2 POP PUSH2 0x1824 DUP3 PUSH2 0x16D5 JUMP JUMPDEST PUSH1 0x0 DUP1 PUSH1 0x0 DUP1 PUSH1 0x0 DUP1 PUSH1 0x0 DUP1 PUSH1 0x0 DUP1 PUSH1 0x0 PUSH2 0x160 DUP13 DUP15 SUB SLT ISZERO PUSH2 0x1B13 JUMPI PUSH1 0x0 DUP1 REVERT JUMPDEST PUSH1 0x1 PUSH1 0x1 PUSH1 0x40 SHL SUB DUP1 DUP14 CALLDATALOAD GT ISZERO PUSH2 0x1B29 JUMPI PUSH1 0x0 DUP1 REVERT JUMPDEST PUSH2 0x1B36 DUP15 DUP15 CALLDATALOAD DUP16 ADD PUSH2 0x176A JUMP JUMPDEST SWAP12 POP PUSH2 0x1B44 PUSH1 0x20 DUP15 ADD PUSH2 0x1A82 JUMP JUMPDEST SWAP11 POP PUSH2 0x1B52 PUSH1 0x40 DUP15 ADD PUSH2 0x1A82 JUMP JUMPDEST SWAP10 POP PUSH1 0x60 DUP14 ADD CALLDATALOAD SWAP9 POP PUSH1 0x80 DUP14 ADD CALLDATALOAD SWAP8 POP PUSH1 0xA0 DUP14 ADD CALLDATALOAD SWAP7 POP PUSH1 0xC0 DUP14 ADD CALLDATALOAD SWAP6 POP PUSH2 0x1B7C PUSH1 0xE0 DUP15 ADD PUSH2 0x16ED JUMP JUMPDEST SWAP5 POP PUSH2 0x1B8B PUSH2 0x100 DUP15 ADD PUSH2 0x16ED JUMP JUMPDEST SWAP4 POP PUSH2 0x1B9A PUSH2 0x120 DUP15 ADD PUSH2 0x16ED JUMP JUMPDEST SWAP3 POP DUP1 PUSH2 0x140 DUP15 ADD CALLDATALOAD GT ISZERO PUSH2 0x1BAE JUMPI PUSH1 0x0 DUP1 REVERT JUMPDEST POP PUSH2 0x1BC0 DUP14 PUSH2 0x140 DUP15 ADD CALLDATALOAD DUP15 ADD PUSH2 0x176A JUMP JUMPDEST SWAP1 POP SWAP3 SWAP6 SWAP9 SWAP12 POP SWAP3 SWAP6 SWAP9 SWAP12 SWAP1 SWAP4 SWAP7 SWAP10 POP JUMP JUMPDEST PUSH1 0x0 DUP1 PUSH1 0x0 PUSH1 0x60 DUP5 DUP7 SUB SLT ISZERO PUSH2 0x1BE7 JUMPI PUSH1 0x0 DUP1 REVERT JUMPDEST DUP4 CALLDATALOAD PUSH2 0x1BF2 DUP2 PUSH2 0x1A74 JUMP JUMPDEST SWAP3 POP PUSH1 0x20 DUP5 ADD CALLDATALOAD PUSH2 0x1C02 DUP2 PUSH2 0x16D5 JUMP JUMPDEST SWAP2 POP PUSH1 0x40 DUP5 ADD CALLDATALOAD PUSH1 0x1 PUSH1 0x1 PUSH1 0x40 SHL SUB DUP2 GT ISZERO PUSH2 0x1C1D JUMPI PUSH1 0x0 DUP1 REVERT JUMPDEST PUSH2 0x1C29 DUP7 DUP3 DUP8 ADD PUSH2 0x176A JUMP JUMPDEST SWAP2 POP POP SWAP3 POP SWAP3 POP SWAP3 JUMP JUMPDEST PUSH1 0x0 PUSH1 0x20 DUP1 DUP4 ADD DUP2 DUP5 MSTORE DUP1 DUP6 MLOAD DUP1 DUP4 MSTORE PUSH1 0x40 SWAP3 POP DUP3 DUP7 ADD SWAP2 POP DUP3 DUP2 PUSH1 0x5 SHL DUP8 ADD ADD DUP5 DUP9 ADD PUSH1 0x0 JUMPDEST DUP4 DUP2 LT ISZERO PUSH2 0x1CC9 JUMPI DUP9 DUP4 SUB PUSH1 0x3F NOT ADD DUP6 MSTORE DUP2 MLOAD DUP1 MLOAD PUSH1 0x1 PUSH1 0x1 PUSH1 0xA0 SHL SUB AND DUP5 MSTORE DUP8 DUP2 ADD MLOAD PUSH1 0xA0 DUP10 DUP7 ADD DUP2 SWAP1 MSTORE SWAP1 PUSH2 0x1C93 DUP3 DUP8 ADD DUP3 PUSH2 0x199F JUMP JUMPDEST DUP4 DUP11 ADD MLOAD DUP8 DUP12 ADD MSTORE PUSH1 0x60 DUP1 DUP6 ADD MLOAD ISZERO ISZERO SWAP1 DUP9 ADD MSTORE PUSH1 0x80 SWAP4 DUP5 ADD MLOAD ISZERO ISZERO SWAP4 SWAP1 SWAP7 ADD SWAP3 SWAP1 SWAP3 MSTORE POP POP SWAP4 DUP7 ADD SWAP4 SWAP1 DUP7 ADD SWAP1 PUSH1 0x1 ADD PUSH2 0x1C5A JUMP JUMPDEST POP SWAP1 SWAP9 SWAP8 POP POP POP POP POP POP POP POP JUMP JUMPDEST PUSH1 0x0 DUP1 PUSH1 0x0 DUP1 PUSH1 0x0 PUSH1 0xA0 DUP7 DUP9 SUB SLT ISZERO PUSH2 0x1CEF JUMPI PUSH1 0x0 DUP1 REVERT JUMPDEST DUP6 CALLDATALOAD PUSH1 0x1 PUSH1 0x1 PUSH1 0x40 SHL SUB DUP1 DUP3 GT ISZERO PUSH2 0x1D06 JUMPI PUSH1 0x0 DUP1 REVERT JUMPDEST DUP2 DUP9 ADD SWAP2 POP DUP9 PUSH1 0x1F DUP4 ADD SLT PUSH2 0x1D1A JUMPI PUSH1 0x0 DUP1 REVERT JUMPDEST DUP2 CALLDATALOAD PUSH1 0x20 DUP3 DUP3 GT ISZERO PUSH2 0x1D2E JUMPI PUSH2 0x1D2E PUSH2 0x16FD JUMP JUMPDEST DUP2 PUSH1 0x5 SHL PUSH2 0x1D3D DUP3 DUP3 ADD PUSH2 0x1713 JUMP JUMPDEST SWAP3 DUP4 MSTORE DUP5 DUP2 ADD DUP3 ADD SWAP3 DUP3 DUP2 ADD SWAP1 DUP14 DUP6 GT ISZERO PUSH2 0x1D57 JUMPI PUSH1 0x0 DUP1 REVERT JUMPDEST SWAP6 DUP4 ADD SWAP6 JUMPDEST DUP5 DUP8 LT ISZERO PUSH2 0x1D75 JUMPI DUP7 CALLDATALOAD DUP3 MSTORE SWAP6 DUP4 ADD SWAP6 SWAP1 DUP4 ADD SWAP1 PUSH2 0x1D5C JUMP JUMPDEST SWAP11 POP PUSH2 0x1D85 SWAP2 POP POP DUP11 DUP3 ADD PUSH2 0x1A82 JUMP JUMPDEST SWAP8 POP POP POP PUSH1 0x40 DUP9 ADD CALLDATALOAD SWAP2 POP DUP1 DUP3 GT ISZERO PUSH2 0x1D9D JUMPI PUSH1 0x0 DUP1 REVERT JUMPDEST PUSH2 0x1DA9 DUP10 DUP4 DUP11 ADD PUSH2 0x176A JUMP JUMPDEST SWAP5 POP PUSH2 0x1DB7 PUSH1 0x60 DUP10 ADD PUSH2 0x16ED JUMP JUMPDEST SWAP4 POP PUSH1 0x80 DUP9 ADD CALLDATALOAD SWAP2 POP DUP1 DUP3 GT ISZERO PUSH2 0x183A JUMPI PUSH1 0x0 DUP1 REVERT JUMPDEST PUSH1 0x0 DUP1 PUSH1 0x0 DUP1 PUSH1 0x0 DUP1 PUSH1 0x0 PUSH1 0xE0 DUP9 DUP11 SUB SLT ISZERO PUSH2 0x1DE8 JUMPI PUSH1 0x0 DUP1 REVERT JUMPDEST DUP8 CALLDATALOAD PUSH2 0x1DF3 DUP2 PUSH2 0x16D5 JUMP JUMPDEST SWAP7 POP PUSH1 0x20 DUP9 ADD CALLDATALOAD PUSH1 0x1 PUSH1 0x1 PUSH1 0x40 SHL SUB DUP1 DUP3 GT ISZERO PUSH2 0x1E0F JUMPI PUSH1 0x0 DUP1 REVERT JUMPDEST PUSH2 0x1E1B DUP12 DUP4 DUP13 ADD PUSH2 0x176A JUMP JUMPDEST SWAP8 POP PUSH1 0x40 DUP11 ADD CALLDATALOAD SWAP2 POP DUP1 DUP3 GT ISZERO PUSH2 0x1E31 JUMPI PUSH1 0x0 DUP1 REVERT JUMPDEST PUSH2 0x1E3D DUP12 DUP4 DUP13 ADD PUSH2 0x176A JUMP JUMPDEST SWAP7 POP PUSH1 0x60 DUP11 ADD CALLDATALOAD SWAP2 POP PUSH2 0x1E4F DUP3 PUSH2 0x1A74 JUMP JUMPDEST DUP2 SWAP6 POP PUSH1 0x80 DUP11 ADD CALLDATALOAD SWAP5 POP PUSH2 0x1E65 PUSH1 0xA0 DUP12 ADD PUSH2 0x16ED JUMP JUMPDEST SWAP4 POP PUSH1 0xC0 DUP11 ADD CALLDATALOAD SWAP2 POP DUP1 DUP3 GT ISZERO PUSH2 0x1E7B JUMPI PUSH1 0x0 DUP1 REVERT JUMPDEST POP PUSH2 0x1E88 DUP11 DUP3 DUP12 ADD PUSH2 0x176A JUMP JUMPDEST SWAP2 POP POP SWAP3 SWAP6 SWAP9 SWAP2 SWAP5 SWAP8 POP SWAP3 SWAP6 POP JUMP JUMPDEST PUSH32 0x454950373132446F6D61696E28737472696E67206E616D652C737472696E6720 DUP2 MSTORE PUSH32 0x76657273696F6E2C75696E7432353620636861696E49642C6164647265737320 PUSH1 0x20 DUP3 ADD MSTORE PUSH18 0x766572696679696E67436F6E747261637429 PUSH1 0x70 SHL PUSH1 0x40 DUP3 ADD MSTORE PUSH1 0x52 ADD SWAP1 JUMP JUMPDEST PUSH1 0x0 DUP3 MLOAD PUSH2 0x1F13 DUP2 DUP5 PUSH1 0x20 DUP8 ADD PUSH2 0x196F JUMP JUMPDEST SWAP2 SWAP1 SWAP2 ADD SWAP3 SWAP2 POP POP JUMP JUMPDEST SWAP5 DUP6 MSTORE PUSH1 0x20 DUP6 ADD SWAP4 SWAP1 SWAP4 MSTORE PUSH1 0x40 DUP5 ADD SWAP2 SWAP1 SWAP2 MSTORE PUSH1 0x60 DUP4 ADD MSTORE PUSH1 0x1 PUSH1 0x1 PUSH1 0xA0 SHL SUB AND PUSH1 0x80 DUP3 ADD MSTORE PUSH1 0xA0 ADD SWAP1 JUMP JUMPDEST PUSH2 0x1901 PUSH1 0xF0 SHL DUP2 MSTORE PUSH1 0x2 DUP2 ADD SWAP3 SWAP1 SWAP3 MSTORE PUSH1 0x22 DUP3 ADD MSTORE PUSH1 0x42 ADD SWAP1 JUMP JUMPDEST PUSH1 0x0 PUSH1 0x20 DUP3 DUP5 SUB SLT ISZERO PUSH2 0x1F76 JUMPI PUSH1 0x0 DUP1 REVERT JUMPDEST POP MLOAD SWAP2 SWAP1 POP JUMP JUMPDEST PUSH1 0x0 DUP3 PUSH1 0x1F DUP4 ADD SLT PUSH2 0x1F8E JUMPI PUSH1 0x0 DUP1 REVERT JUMPDEST DUP2 MLOAD PUSH2 0x1F9C PUSH2 0x1789 DUP3 PUSH2 0x1743 JUMP JUMPDEST DUP2 DUP2 MSTORE DUP5 PUSH1 0x20 DUP4 DUP7 ADD ADD GT ISZERO PUSH2 0x1FB1 JUMPI PUSH1 0x0 DUP1 REVERT JUMPDEST PUSH2 0x1FC2 DUP3 PUSH1 0x20 DUP4 ADD PUSH1 0x20 DUP8 ADD PUSH2 0x196F JUMP JUMPDEST SWAP5 SWAP4 POP POP POP POP JUMP JUMPDEST PUSH1 0x0 DUP1 PUSH1 0x0 DUP1 PUSH1 0x0 PUSH1 0xA0 DUP7 DUP9 SUB SLT ISZERO PUSH2 0x1FE2 JUMPI PUSH1 0x0 DUP1 REVERT JUMPDEST DUP6 MLOAD PUSH2 0x1FED DUP2 PUSH2 0x16D5 JUMP JUMPDEST PUSH1 0x20 DUP8 ADD MLOAD SWAP1 SWAP6 POP PUSH1 0x1 PUSH1 0x1 PUSH1 0x40 SHL SUB DUP2 GT ISZERO PUSH2 0x2009 JUMPI PUSH1 0x0 DUP1 REVERT JUMPDEST PUSH2 0x2015 DUP9 DUP3 DUP10 ADD PUSH2 0x1F7D JUMP JUMPDEST SWAP5 POP POP PUSH1 0x40 DUP7 ADD MLOAD SWAP3 POP PUSH1 0x60 DUP7 ADD MLOAD PUSH2 0x202D DUP2 PUSH2 0x1A74 JUMP JUMPDEST PUSH1 0x80 DUP8 ADD MLOAD SWAP1 SWAP3 POP PUSH2 0x203E DUP2 PUSH2 0x1A74 JUMP JUMPDEST DUP1 SWAP2 POP POP SWAP3 SWAP6 POP SWAP3 SWAP6 SWAP1 SWAP4 POP JUMP JUMPDEST PUSH1 0x0 PUSH1 0x20 DUP3 DUP5 SUB SLT ISZERO PUSH2 0x205E JUMPI PUSH1 0x0 DUP1 REVERT JUMPDEST DUP2 MLOAD PUSH1 0x1 PUSH1 0x1 PUSH1 0x40 SHL SUB DUP2 GT ISZERO PUSH2 0x2074 JUMPI PUSH1 0x0 DUP1 REVERT JUMPDEST PUSH2 0x1FC2 DUP5 DUP3 DUP6 ADD PUSH2 0x1F7D JUMP JUMPDEST PUSH1 0x0 PUSH1 0x20 DUP3 DUP5 SUB SLT ISZERO PUSH2 0x2092 JUMPI PUSH1 0x0 DUP1 REVERT JUMPDEST DUP2 MLOAD PUSH2 0x1A19 DUP2 PUSH2 0x1A74 JUMP JUMPDEST PUSH4 0x4E487B71 PUSH1 0xE0 SHL PUSH1 0x0 MSTORE PUSH1 0x32 PUSH1 0x4 MSTORE PUSH1 0x24 PUSH1 0x0 REVERT JUMPDEST PUSH1 0x0 PUSH1 0x0 NOT DUP3 EQ ISZERO PUSH2 0x20D5 JUMPI PUSH4 0x4E487B71 PUSH1 0xE0 SHL PUSH1 0x0 MSTORE PUSH1 0x11 PUSH1 0x4 MSTORE PUSH1 0x24 PUSH1 0x0 REVERT JUMPDEST POP PUSH1 0x1 ADD SWAP1 JUMP JUMPDEST DUP2 MLOAD PUSH1 0x0 SWAP1 DUP3 SWAP1 PUSH1 0x20 DUP1 DUP7 ADD DUP5 JUMPDEST DUP4 DUP2 LT ISZERO PUSH2 0x2106 JUMPI DUP2 MLOAD DUP6 MSTORE SWAP4 DUP3 ADD SWAP4 SWAP1 DUP3 ADD SWAP1 PUSH1 0x1 ADD PUSH2 0x20EA JUMP JUMPDEST POP SWAP3 SWAP7 SWAP6 POP POP POP POP POP POP JUMP INVALID ADD BALANCE DUP9 SWAP6 0xAF 0x1F PUSH14 0xB161B2BA745B8E57A6B46EFAD77D PUSH20 0x6630379EC69C3CD4C875A2646970667358221220 XOR 0xDE MUL PUSH19 0xD08D53F2742E457E0BD79213F679F046AA4238 0xFC DUP7 NOT 0xE9 RETURNDATASIZE SWAP13 SIGNEXTEND 0xEB CALL PUSH5 0x736F6C6343 STOP ADDMOD 0xC STOP CALLER ",
  "sha1": "263f0956266cb2749233411d604ae817a1a3da43",
  "source": "// SPDX-License-Identifier: MIT\npragma solidity ^0.8.11;\n\nimport \"../../interfaces/ICLHouse.sol\";\n\n/// @title Some funtions to interact with a CLHouse\n/// @author Leonardo Urrego\n/// @notice This contract is only for test \ncontract CLHouseApi {\n\n    /// @notice A funtion to verify the signer of a menssage\n    /// @param _msghash Hash of the message\n    /// @param _signature Signature of the message\n    /// @return Signer address of the message\n    function SignerOfMsg(\n        bytes32  _msghash,\n        bytes memory _signature\n    )\n        public\n        pure\n        returns( address )\n    {\n        require( _signature.length == 65, \"Bad signature length\" );\n\n        bytes32 signR;\n        bytes32 signS;\n        uint8 signV;\n\n        assembly {\n            // first 32 bytes, after the length prefix\n            signR := mload( add( _signature, 32 ) )\n            // second 32 bytes\n            signS := mload( add( _signature, 64 ) )\n            // final byte (first byte of the next 32 bytes)\n            signV := byte( 0, mload( add( _signature, 96 ) ) )\n        }\n\n        return ecrecover( _msghash, signV, signR, signS );\n    }\n\n    /// @notice Get the info of an user in one especific CLH\n    /// @param _houseAddr Address of the CLH\n    /// @param _walletAddr Address of the user\n    /// @return name Nickname ot other user identificaction\n    /// @return balance How much money have deposited\n    /// @return isUser true if is User\n    /// @return isManager true if is manager\n    function GetUserInfoByAddress(\n        address _houseAddr,\n        address _walletAddr\n    )\n        external\n        view\n        returns(\n            string memory name,\n            uint balance,\n            bool isUser,\n            bool isManager\n        )\n    {\n        ICLHouse daoCLH = ICLHouse( _houseAddr );\n\n        uint256 uid = daoCLH.mapIdUser( _walletAddr );\n\n        require( 0 != uid , \"Address not exist!!\" );\n\n        strUser memory houseUser;\n\n        (   houseUser.walletAddr,\n            houseUser.name,\n            houseUser.balance,\n            houseUser.isUser,\n            houseUser.isManager ) = daoCLH.arrUsers( uid );\n\n        require( true == houseUser.isUser  , \"Is not a user\" );\n\n        return (\n            houseUser.name,\n            houseUser.balance,\n            houseUser.isUser,\n            houseUser.isManager\n        );\n    }\n\n    /// @notice The list of all users address\n    /// @param _houseAddr address of the CLH\n    /// @return arrUsers array with list of users\n    function GetHouseUserList(\n        address _houseAddr\n    )\n        external\n        view\n        returns(\n            strUser[] memory arrUsers\n        )\n    {\n        ICLHouse daoCLH = ICLHouse( _houseAddr );\n\n        uint256 numUsers = daoCLH.numUsers( );\n        uint256 arrUsersLength = daoCLH.GetArrUsersLength();\n        strUser[] memory _arrUsers = new strUser[] ( numUsers );\n\n        uint256 index = 0 ;\n\n        for( uint256 uid = 1 ; uid < arrUsersLength ; uid++ ) {\n            strUser memory houseUser;\n\n            (   houseUser.walletAddr,\n                houseUser.name,\n                houseUser.balance,\n                houseUser.isUser,\n                houseUser.isManager ) = daoCLH.arrUsers( uid );\n\n            if( true == houseUser.isUser ){\n                _arrUsers[ index ] = houseUser;\n                index++;\n            }\n        }\n        return _arrUsers;\n    }\n\n    /// @notice All properties of a House\n    /// @param _houseAddr CLH address\n    /// @return HOUSE_NAME name of the CLH\n    /// @return HOUSE_GOVERNANCE_MODEL Hash of governance model\n    /// @return housePrivate True if is private\n    /// @return houseOpen True if is Open\n    /// @return numUsers Current users of a CLH\n    /// @return numManagers Current managers of a CLH\n    /// @return govRuleApprovPercentage Percentage for approval o reject proposal based on `numManagers`\n    /// @return govRuleMaxUsers Max of all users (including managers)\n    /// @return govRuleMaxManagers Max of managers that CLH can accept (only for COMMITTEE )\n    function GetHouseProperties(\n        address _houseAddr\n    )\n        external\n        view\n        returns(\n            string memory HOUSE_NAME,\n            bytes32 HOUSE_GOVERNANCE_MODEL,\n            bool housePrivate,\n            bool houseOpen,\n            uint256 numUsers,\n            uint256 numManagers,\n            uint256 govRuleApprovPercentage,\n            uint256 govRuleMaxUsers,\n            uint256 govRuleMaxManagers\n        )\n    {\n        ICLHouse daoCLH = ICLHouse( _houseAddr );\n\n        return(\n            daoCLH.HOUSE_NAME(),\n            daoCLH.HOUSE_GOVERNANCE_MODEL(),\n            daoCLH.housePrivate(),\n            daoCLH.houseOpen(),\n            daoCLH.numUsers(),\n            daoCLH.numManagers(),\n            daoCLH.govRuleApprovPercentage(),\n            daoCLH.govRuleMaxUsers(),\n            daoCLH.govRuleMaxManagers()\n        );\n    }\n\n\n    function SignerOCInvit(\n        bool _acceptance,\n        address _houseAddr,\n        bytes memory _signature\n    ) \n        external view\n        returns( address )\n    {\n        bytes32 hashEIP712Domain = keccak256(\n            abi.encode(\n                __STR_EIP712DOMAIN_HASH__,\n                __CONTRACT_NAME_HASH__,\n                __CONTRACT_VERSION_HASH__,\n                block.chainid,\n                _houseAddr\n            )\n        );\n\n        bytes32 hashMsg = keccak256(\n            abi.encode(\n                __STR_OCINVIT_HASH__,\n                _acceptance\n            )\n        );\n\n        bytes32 singhash = keccak256( abi.encodePacked( \"\\x19\\x01\", hashEIP712Domain, hashMsg ) );\n\n        return SignerOfMsg( singhash, _signature );\n    }\n\n\n    function SignerOCVote(\n        uint _propId,\n        bool _support,\n        string memory _justification,\n        address _houseAddr,\n        bytes memory _signature\n    ) \n        external view\n        returns( address )\n    {\n        bytes32 hashEIP712Domain = keccak256(\n            abi.encode(\n                __STR_EIP712DOMAIN_HASH__,\n                __CONTRACT_NAME_HASH__,\n                __CONTRACT_VERSION_HASH__,\n                block.chainid,\n                _houseAddr\n            )\n        );\n\n        bytes32 hashMsg = keccak256(\n            abi.encode(\n                __STR_OCVOTE_HASH__,\n                _propId,\n                _support,\n                keccak256( abi.encodePacked( _justification ) )\n            )\n        );\n\n        bytes32 singhash = keccak256( abi.encodePacked( \"\\x19\\x01\", hashEIP712Domain, hashMsg ) );\n\n        return SignerOfMsg( singhash, _signature );\n    }\n\n\n    function SignerOCBulkVote(\n        uint256[] memory _propIds,\n        bool _support,\n        string memory _justification,\n        address _houseAddr,\n        bytes memory _signature\n    ) \n        external view\n        returns( address )\n    {\n        bytes32 hashEIP712Domain = keccak256(\n            abi.encode(\n                __STR_EIP712DOMAIN_HASH__,\n                __CONTRACT_NAME_HASH__,\n                __CONTRACT_VERSION_HASH__,\n                block.chainid,\n                _houseAddr\n            )\n        );\n\n        bytes32 hashMsg = keccak256(\n            abi.encode(\n                __STR_OCBULKVOTE_HASH__,\n                keccak256( abi.encodePacked( _propIds ) ),\n                _support,\n                keccak256( abi.encodePacked( _justification ) )\n            )\n        );\n\n        bytes32 singhash = keccak256( abi.encodePacked( \"\\x19\\x01\", hashEIP712Domain, hashMsg ) );\n\n        return SignerOfMsg( singhash, _signature );\n    }\n\n\n    function SignerOCNewUser(\n        address _walletAddr,\n        string memory _name,\n        string memory _description,\n        bool _isManager,\n        uint256 _delayTime,\n        address _houseAddr,\n        bytes memory _signature\n    ) \n        external view\n        returns( address )\n    {\n        bytes32 hashEIP712Domain = keccak256(\n            abi.encode(\n                __STR_EIP712DOMAIN_HASH__,\n                __CONTRACT_NAME_HASH__,\n                __CONTRACT_VERSION_HASH__,\n                block.chainid,\n                _houseAddr\n            )\n        );\n\n        bytes32 hashMsg = keccak256(\n            abi.encode(\n                __STR_OCNEWUSER_HASH__,\n                _walletAddr,\n                keccak256( abi.encodePacked( _name ) ),\n                keccak256( abi.encodePacked( _description ) ),\n                _isManager,\n                _delayTime\n            )\n        );\n\n        bytes32 singhash = keccak256( abi.encodePacked( \"\\x19\\x01\", hashEIP712Domain, hashMsg ) );\n\n        return SignerOfMsg( singhash, _signature );\n    }\n\n\n    function SignerOCDelUser(\n        address _walletAddr,\n        string memory _description,\n        uint256 _delayTime,\n        address _houseAddr,\n        bytes memory _signature\n    ) \n        external view\n        returns( address )\n    {\n        bytes32 hashEIP712Domain = keccak256(\n            abi.encode(\n                __STR_EIP712DOMAIN_HASH__,\n                __CONTRACT_NAME_HASH__,\n                __CONTRACT_VERSION_HASH__,\n                block.chainid,\n                _houseAddr\n            )\n        );\n\n        bytes32 hashMsg = keccak256(\n            abi.encode(\n                __STR_OCDELUSER_HASH__,\n                _walletAddr,\n                keccak256( abi.encodePacked( _description ) ),\n                _delayTime\n            )\n        );\n\n        bytes32 singhash = keccak256( abi.encodePacked( \"\\x19\\x01\", hashEIP712Domain, hashMsg ) );\n\n        return SignerOfMsg( singhash, _signature );\n    }\n\n\n    function SignerOCRequest(\n        string memory _name,\n        string memory _description,\n        address _houseAddr,\n        bytes memory _signature\n    ) \n        external view\n        returns( address )\n    {\n        bytes32 hashEIP712Domain = keccak256(\n            abi.encode(\n                __STR_EIP712DOMAIN_HASH__,\n                __CONTRACT_NAME_HASH__,\n                __CONTRACT_VERSION_HASH__,\n                block.chainid,\n                _houseAddr\n            )\n        );\n\n        bytes32 hashMsg = keccak256(\n            abi.encode(\n                __STR_OCREQUEST_HASH__,\n                keccak256( abi.encodePacked( _name ) ),\n                keccak256( abi.encodePacked( _description ) )\n            )\n        );\n\n        bytes32 singhash = keccak256( abi.encodePacked( \"\\x19\\x01\", hashEIP712Domain, hashMsg ) );\n\n        return SignerOfMsg( singhash, _signature );\n    }\n\n\n    function SignerOCNewCLH(\n        string memory _houseName,\n        bool _housePrivate,\n        bool _houseOpen,\n        bytes32 _govModel,\n        uint256 _govRuleMaxUsers,\n        uint256 _govRuleMaxManagers,\n        uint256 _govRuleApprovPercentage,\n        address _whiteListNFT,\n        address _whiteListWallets,\n        address _addrCLF,\n        bytes memory _signature\n    ) \n        external view\n        returns( address )\n    {\n        bytes32 hashEIP712Domain = keccak256(\n            abi.encode(\n                __STR_EIP712DOMAIN_HASH__,\n                __CONTRACT_NAME_HASH__,\n                __CONTRACT_VERSION_HASH__,\n                block.chainid,\n                _addrCLF\n            )\n        );\n\n        bytes32 hashMsg = keccak256(\n            abi.encode(\n                __STR_OCNEWCLH_HASH__,\n                keccak256( abi.encodePacked( _houseName ) ),\n                _housePrivate,\n                _houseOpen,\n                _govModel,\n                _govRuleMaxUsers,\n                _govRuleMaxManagers,\n                _govRuleApprovPercentage,\n                _whiteListNFT,\n                _whiteListWallets\n                // keccak256( abi.encodePacked( _whiteListWallets ) )\n            )\n        );\n\n        bytes32 singhash = keccak256( abi.encodePacked( \"\\x19\\x01\", hashEIP712Domain, hashMsg ) );\n\n        return SignerOfMsg( singhash, _signature );\n    }\n}",
  "sourcePath": "contracts/APICLH/CLHouseApi.sol",
  "type": "contract"
}